{
  "transactions": [
    {
      "hash": "0xc2f838fb5268aa6206821cecfdfd3b3e4836389dc59fee5c24c8d199c2afa0a3",
      "transactionType": "CALL",
      "contractName": null,
      "contractAddress": "0xd8a8f5c1e6fc685409c94af2e335e1421cbd09a0",
      "function": "requestOraclePriceTask(address)",
      "arguments": [
        "0x2c53Ce7143D24A65410107F50e4AABad9A164480"
      ],
      "transaction": {
        "from": "0x6efb11ac41b6657c32dac5ed4874082c700bba29",
        "to": "0xd8a8f5c1e6fc685409c94af2e335e1421cbd09a0",
        "gas": "0x1e284",
        "value": "0x0",
        "input": "0x12587e240000000000000000000000002c53ce7143d24a65410107f50e4aabad9a164480",
        "nonce": "0x232",
        "chainId": "0x279f"
      },
      "additionalContracts": [],
      "isFixedGasLimit": false
    },
    {
      "hash": "0x61b0b5f9c430b47f1d9c25eb9efbfe5f27a9c4e3717a5067aa585fa23142cb5e",
      "transactionType": "CALL",
      "contractName": null,
      "contractAddress": "0xd8a8f5c1e6fc685409c94af2e335e1421cbd09a0",
      "function": "requestOraclePriceTask(address)",
      "arguments": [
        "0x53f7C389CBB801e2ABfD301deD6D2A1cf330ac0D"
      ],
      "transaction": {
        "from": "0x6efb11ac41b6657c32dac5ed4874082c700bba29",
        "to": "0xd8a8f5c1e6fc685409c94af2e335e1421cbd09a0",
        "gas": "0x1e284",
        "value": "0x0",
        "input": "0x12587e2400000000000000000000000053f7c389cbb801e2abfd301ded6d2a1cf330ac0d",
        "nonce": "0x233",
        "chainId": "0x279f"
      },
      "additionalContracts": [],
      "isFixedGasLimit": false
    },
    {
      "hash": "0x4e2fa0c284c926361e42f1e7a8c0e6fa1e17f620de031274893b19159a1bc3b9",
      "transactionType": "CALL",
      "contractName": null,
      "contractAddress": "0xd8a8f5c1e6fc685409c94af2e335e1421cbd09a0",
      "function": "requestOraclePriceTask(address)",
      "arguments": [
        "0xF9861d7478f8957679b26404Bd6272c39f949C29"
      ],
      "transaction": {
        "from": "0x6efb11ac41b6657c32dac5ed4874082c700bba29",
        "to": "0xd8a8f5c1e6fc685409c94af2e335e1421cbd09a0",
        "gas": "0x1e284",
        "value": "0x0",
        "input": "0x12587e24000000000000000000000000f9861d7478f8957679b26404bd6272c39f949c29",
        "nonce": "0x234",
        "chainId": "0x279f"
      },
      "additionalContracts": [],
      "isFixedGasLimit": false
    },
    {
      "hash": "0xe99de19acb25f4c3454dc1dd3e0947899d7a8323ffd1f9380442bbc59c4a8fdc",
      "transactionType": "CALL",
      "contractName": null,
      "contractAddress": "0xd8a8f5c1e6fc685409c94af2e335e1421cbd09a0",
      "function": "requestOraclePriceTask(address)",
      "arguments": [
        "0x6bc8a42d4B2F4bc8e4c3f9eCFF00B7290Ffa7405"
      ],
      "transaction": {
        "from": "0x6efb11ac41b6657c32dac5ed4874082c700bba29",
        "to": "0xd8a8f5c1e6fc685409c94af2e335e1421cbd09a0",
        "gas": "0x1fed5",
        "value": "0x0",
        "input": "0x12587e240000000000000000000000006bc8a42d4b2f4bc8e4c3f9ecff00b7290ffa7405",
        "nonce": "0x235",
        "chainId": "0x279f"
      },
      "additionalContracts": [],
      "isFixedGasLimit": false
    },
    {
      "hash": "0x06fb07a6f2f2ac2306df392b5efaad3cc619ff18733b00f491eb817da2ed2f8a",
      "transactionType": "CALL",
      "contractName": null,
      "contractAddress": "0xd8a8f5c1e6fc685409c94af2e335e1421cbd09a0",
      "function": "requestOraclePriceTask(address)",
      "arguments": [
        "0x1889CFb8746716a0AC50E59a54f190987C5F04E6"
      ],
      "transaction": {
        "from": "0x6efb11ac41b6657c32dac5ed4874082c700bba29",
        "to": "0xd8a8f5c1e6fc685409c94af2e335e1421cbd09a0",
        "gas": "0x1e284",
        "value": "0x0",
        "input": "0x12587e240000000000000000000000001889cfb8746716a0ac50e59a54f190987c5f04e6",
        "nonce": "0x236",
        "chainId": "0x279f"
      },
      "additionalContracts": [],
      "isFixedGasLimit": false
    },
    {
      "hash": "0x4e1fb921efe177cd432c3cb0e03861f999a0a1bea78cd8eb72c3bfeef8a742ab",
      "transactionType": "CALL",
      "contractName": null,
      "contractAddress": "0xd8a8f5c1e6fc685409c94af2e335e1421cbd09a0",
      "function": "requestOraclePriceTask(address)",
      "arguments": [
        "0xe3F98fdA6dBD38c1017754f1675dcE377381c23C"
      ],
      "transaction": {
        "from": "0x6efb11ac41b6657c32dac5ed4874082c700bba29",
        "to": "0xd8a8f5c1e6fc685409c94af2e335e1421cbd09a0",
        "gas": "0x1e284",
        "value": "0x0",
        "input": "0x12587e24000000000000000000000000e3f98fda6dbd38c1017754f1675dce377381c23c",
        "nonce": "0x237",
        "chainId": "0x279f"
      },
      "additionalContracts": [],
      "isFixedGasLimit": false
    }
  ],
  "receipts": [
    {
      "status": "0x1",
      "cumulativeGasUsed": "0x5156e6",
      "logs": [
        {
          "address": "0xd8a8f5c1e6fc685409c94af2e335e1421cbd09a0",
          "topics": [
            "0x070cdb07f0dc5823c3ffbe95911c3fc1a811ada8f0897aaafed7c0197f11b566",
            "0x0000000000000000000000000000000000000000000000000000000000000008"
          ],
          "data": "0x00000000000000000000000000000000000000000000000000000000000000200000000000000000000000002c53ce7143d24a65410107f50e4aabad9a1644800000000000000000000000000000000000000000000000000000000000000000000000000000000000000000000000000000000000000000000000000074be97000000000000000000000000000000000000000000000000000000000000000000000000000000000000000000000000000000000000000000000000000000c000000000000000000000000000000000000000000000000000000000000001000000000000000000000000000000000000000000000000000000000000000009574554482f555344540000000000000000000000000000000000000000000000000000000000000000000000000000000000000000000000000000000000000200000000000000000000000000000000000000000000000000000000000000400000000000000000000000000000000000000000000000000000000000000140000000000000000000000000000000000000000000000000000000000000006000000000000000000000000000000000000000000000000000000000000000a000000000000000000000000000000000000000000000000000000000000000e0000000000000000000000000000000000000000000000000000000000000000762696e616e636500000000000000000000000000000000000000000000000000000000000000000000000000000000000000000000000000000000000000000745544855534454000000000000000000000000000000000000000000000000000000000000000000000000000000000000000000000000000000000000000000000000000000000000000000000000000000000000000000000000000000006000000000000000000000000000000000000000000000000000000000000000a000000000000000000000000000000000000000000000000000000000000000e000000000000000000000000000000000000000000000000000000000000000036f6b78000000000000000000000000000000000000000000000000000000000000000000000000000000000000000000000000000000000000000000000000084554482d555344540000000000000000000000000000000000000000000000000000000000000000000000000000000000000000000000000000000000000000",
          "blockHash": "0x83ad53e1132413cff0cf298c838d393b17820df3ebda8e58634c80cd48a6ac33",
          "blockNumber": "0x74be97",
          "blockTimestamp": "0x67d37692",
          "transactionHash": "0xc2f838fb5268aa6206821cecfdfd3b3e4836389dc59fee5c24c8d199c2afa0a3",
          "transactionIndex": "0x28",
          "logIndex": "0x53",
          "removed": false
        }
      ],
      "logsBloom": "0x00000000000000000000000000000000000000000000000000000000000000000000000000000000000000000000000000000000000080000000000000000000000000000000000000000000000000000000000000000000000000000000000000000000000000000000000000000000000000000000000000000000000000000080000000000000000000000000000000000000000000020000000010000000000000000000000020000010100000000000000000000000000000000000000040000000000000000000000000000000000000000000000000800000000000000000000000000000000000000000000000000000000000000000000000000000",
      "type": "0x0",
      "transactionHash": "0xc2f838fb5268aa6206821cecfdfd3b3e4836389dc59fee5c24c8d199c2afa0a3",
      "transactionIndex": "0x28",
      "blockHash": "0x83ad53e1132413cff0cf298c838d393b17820df3ebda8e58634c80cd48a6ac33",
      "blockNumber": "0x74be97",
      "gasUsed": "0x1e284",
      "effectiveGasPrice": "0xc1b710800",
      "from": "0x6efb11ac41b6657c32dac5ed4874082c700bba29",
      "to": "0xd8a8f5c1e6fc685409c94af2e335e1421cbd09a0",
      "contractAddress": null
    },
    {
      "status": "0x1",
      "cumulativeGasUsed": "0x53396a",
      "logs": [
        {
          "address": "0xd8a8f5c1e6fc685409c94af2e335e1421cbd09a0",
          "topics": [
            "0x070cdb07f0dc5823c3ffbe95911c3fc1a811ada8f0897aaafed7c0197f11b566",
            "0x0000000000000000000000000000000000000000000000000000000000000009"
          ],
          "data": "0x000000000000000000000000000000000000000000000000000000000000002000000000000000000000000053f7c389cbb801e2abfd301ded6d2a1cf330ac0d0000000000000000000000000000000000000000000000000000000000000000000000000000000000000000000000000000000000000000000000000074be97000000000000000000000000000000000000000000000000000000000000000000000000000000000000000000000000000000000000000000000000000000c000000000000000000000000000000000000000000000000000000000000001000000000000000000000000000000000000000000000000000000000000000009574254432f555344540000000000000000000000000000000000000000000000000000000000000000000000000000000000000000000000000000000000000200000000000000000000000000000000000000000000000000000000000000400000000000000000000000000000000000000000000000000000000000000140000000000000000000000000000000000000000000000000000000000000006000000000000000000000000000000000000000000000000000000000000000a000000000000000000000000000000000000000000000000000000000000000e0000000000000000000000000000000000000000000000000000000000000000762696e616e636500000000000000000000000000000000000000000000000000000000000000000000000000000000000000000000000000000000000000000857425443555344540000000000000000000000000000000000000000000000000000000000000000000000000000000000000000000000000000000000000000000000000000000000000000000000000000000000000000000000000000006000000000000000000000000000000000000000000000000000000000000000a000000000000000000000000000000000000000000000000000000000000000e000000000000000000000000000000000000000000000000000000000000000036f6b78000000000000000000000000000000000000000000000000000000000000000000000000000000000000000000000000000000000000000000000000084254432d555344540000000000000000000000000000000000000000000000000000000000000000000000000000000000000000000000000000000000000000",
          "blockHash": "0x83ad53e1132413cff0cf298c838d393b17820df3ebda8e58634c80cd48a6ac33",
          "blockNumber": "0x74be97",
          "blockTimestamp": "0x67d37692",
          "transactionHash": "0x61b0b5f9c430b47f1d9c25eb9efbfe5f27a9c4e3717a5067aa585fa23142cb5e",
          "transactionIndex": "0x29",
          "logIndex": "0x54",
          "removed": false
        }
      ],
      "logsBloom": "0x00000000000000000000000000000000000000000000000000000000000000000000000000000000000000000000000000000000000000000000000000200000000000000000000000000000000000000000000000000000000000000000000000000000000000000000000000000000000000000000000000000000000000000000000000000000000000000000000000001000000000020000000010000000000000000000000020000010100000000000000000000000000000000000000000000000000000000000000000000000000000000000000000800000000000000000000000000000000000000000000000000000000000000000000000800000",
      "type": "0x0",
      "transactionHash": "0x61b0b5f9c430b47f1d9c25eb9efbfe5f27a9c4e3717a5067aa585fa23142cb5e",
      "transactionIndex": "0x29",
      "blockHash": "0x83ad53e1132413cff0cf298c838d393b17820df3ebda8e58634c80cd48a6ac33",
      "blockNumber": "0x74be97",
      "gasUsed": "0x1e284",
      "effectiveGasPrice": "0xc1b710800",
      "from": "0x6efb11ac41b6657c32dac5ed4874082c700bba29",
      "to": "0xd8a8f5c1e6fc685409c94af2e335e1421cbd09a0",
      "contractAddress": null
    },
    {
      "status": "0x1",
      "cumulativeGasUsed": "0x73b2c4",
      "logs": [
        {
          "address": "0xd8a8f5c1e6fc685409c94af2e335e1421cbd09a0",
          "topics": [
            "0x070cdb07f0dc5823c3ffbe95911c3fc1a811ada8f0897aaafed7c0197f11b566",
            "0x000000000000000000000000000000000000000000000000000000000000000a"
          ],
          "data": "0x0000000000000000000000000000000000000000000000000000000000000020000000000000000000000000f9861d7478f8957679b26404bd6272c39f949c290000000000000000000000000000000000000000000000000000000000000000000000000000000000000000000000000000000000000000000000000074be98000000000000000000000000000000000000000000000000000000000000000000000000000000000000000000000000000000000000000000000000000000c000000000000000000000000000000000000000000000000000000000000001000000000000000000000000000000000000000000000000000000000000000009504550452f555344540000000000000000000000000000000000000000000000000000000000000000000000000000000000000000000000000000000000000200000000000000000000000000000000000000000000000000000000000000400000000000000000000000000000000000000000000000000000000000000140000000000000000000000000000000000000000000000000000000000000006000000000000000000000000000000000000000000000000000000000000000a000000000000000000000000000000000000000000000000000000000000000e0000000000000000000000000000000000000000000000000000000000000000762696e616e636500000000000000000000000000000000000000000000000000000000000000000000000000000000000000000000000000000000000000000850455045555344540000000000000000000000000000000000000000000000000000000000000000000000000000000000000000000000000000000000000000000000000000000000000000000000000000000000000000000000000000006000000000000000000000000000000000000000000000000000000000000000a000000000000000000000000000000000000000000000000000000000000000e000000000000000000000000000000000000000000000000000000000000000036f6b7800000000000000000000000000000000000000000000000000000000000000000000000000000000000000000000000000000000000000000000000009504550452d5553445400000000000000000000000000000000000000000000000000000000000000000000000000000000000000000000000000000000000000",
          "blockHash": "0xf0d9ac1a220b9e1e95b1b8e6854d195f35b8407d84d73d11f58b488fe19afe7d",
          "blockNumber": "0x74be98",
          "blockTimestamp": "0x67d37693",
          "transactionHash": "0x4e2fa0c284c926361e42f1e7a8c0e6fa1e17f620de031274893b19159a1bc3b9",
          "transactionIndex": "0x17",
          "logIndex": "0x1d",
          "removed": false
        }
      ],
      "logsBloom": "0x00000000000000000000000000000000000000000000000000000000000000000000000000000000000000000000000000000000040000000020000000000000000000000000000000000000000000000000000000000000000000000000000000000000000000000000000000000000000000000000000000000000000000000000000000000000010000000000000000000000000000020000000010000000000000000000000020000010100000000000000000000000000000000000000000000000000000000000000000000000000000000000000000800000000000000000000000000000000000000000000000000000000000000000000000000000",
      "type": "0x0",
      "transactionHash": "0x4e2fa0c284c926361e42f1e7a8c0e6fa1e17f620de031274893b19159a1bc3b9",
      "transactionIndex": "0x17",
      "blockHash": "0xf0d9ac1a220b9e1e95b1b8e6854d195f35b8407d84d73d11f58b488fe19afe7d",
      "blockNumber": "0x74be98",
      "gasUsed": "0x1e284",
      "effectiveGasPrice": "0xc1b710800",
      "from": "0x6efb11ac41b6657c32dac5ed4874082c700bba29",
      "to": "0xd8a8f5c1e6fc685409c94af2e335e1421cbd09a0",
      "contractAddress": null
    },
    {
      "status": "0x1",
      "cumulativeGasUsed": "0x75b199",
      "logs": [
        {
          "address": "0xd8a8f5c1e6fc685409c94af2e335e1421cbd09a0",
          "topics": [
            "0x070cdb07f0dc5823c3ffbe95911c3fc1a811ada8f0897aaafed7c0197f11b566",
            "0x000000000000000000000000000000000000000000000000000000000000000b"
          ],
          "data": "0x00000000000000000000000000000000000000000000000000000000000000200000000000000000000000006bc8a42d4b2f4bc8e4c3f9ecff00b7290ffa74050000000000000000000000000000000000000000000000000000000000000000000000000000000000000000000000000000000000000000000000000074be98000000000000000000000000000000000000000000000000000000000000000000000000000000000000000000000000000000000000000000000000000000c00000000000000000000000000000000000000000000000000000000000000100000000000000000000000000000000000000000000000000000000000000000a5452554d502f5553445400000000000000000000000000000000000000000000000000000000000000000000000000000000000000000000000000000000000200000000000000000000000000000000000000000000000000000000000000400000000000000000000000000000000000000000000000000000000000000140000000000000000000000000000000000000000000000000000000000000006000000000000000000000000000000000000000000000000000000000000000a000000000000000000000000000000000000000000000000000000000000000e0000000000000000000000000000000000000000000000000000000000000000762696e616e63650000000000000000000000000000000000000000000000000000000000000000000000000000000000000000000000000000000000000000095452554d505553445400000000000000000000000000000000000000000000000000000000000000000000000000000000000000000000000000000000000000000000000000000000000000000000000000000000000000000000000000006000000000000000000000000000000000000000000000000000000000000000a000000000000000000000000000000000000000000000000000000000000000e000000000000000000000000000000000000000000000000000000000000000036f6b780000000000000000000000000000000000000000000000000000000000000000000000000000000000000000000000000000000000000000000000000a5452554d502d55534454000000000000000000000000000000000000000000000000000000000000000000000000000000000000000000000000000000000000",
          "blockHash": "0xf0d9ac1a220b9e1e95b1b8e6854d195f35b8407d84d73d11f58b488fe19afe7d",
          "blockNumber": "0x74be98",
          "blockTimestamp": "0x67d37693",
          "transactionHash": "0xe99de19acb25f4c3454dc1dd3e0947899d7a8323ffd1f9380442bbc59c4a8fdc",
          "transactionIndex": "0x18",
          "logIndex": "0x1e",
          "removed": false
        }
      ],
      "logsBloom": "0x00000000000000000000004000000000000000000000000000000000000000000000000000000000000000000000000000000000000000000000000000000000000000000000000000000000000000000000000000000000000000000000000000000000000000000000000000000000000000000000000000000000000000000000000000000000000000000000000000000000000000020000000010000000000000000000000020000010100000000000000000000000000000000000000000000000000000000000000000000000002000000000000000800000000000000000000000000000000000000000000000000000000000040000000000000000",
      "type": "0x0",
      "transactionHash": "0xe99de19acb25f4c3454dc1dd3e0947899d7a8323ffd1f9380442bbc59c4a8fdc",
      "transactionIndex": "0x18",
      "blockHash": "0xf0d9ac1a220b9e1e95b1b8e6854d195f35b8407d84d73d11f58b488fe19afe7d",
      "blockNumber": "0x74be98",
      "gasUsed": "0x1fed5",
      "effectiveGasPrice": "0xc1b710800",
      "from": "0x6efb11ac41b6657c32dac5ed4874082c700bba29",
      "to": "0xd8a8f5c1e6fc685409c94af2e335e1421cbd09a0",
      "contractAddress": null
    },
    {
      "status": "0x1",
      "cumulativeGasUsed": "0x77941d",
      "logs": [
        {
          "address": "0xd8a8f5c1e6fc685409c94af2e335e1421cbd09a0",
          "topics": [
            "0x070cdb07f0dc5823c3ffbe95911c3fc1a811ada8f0897aaafed7c0197f11b566",
            "0x000000000000000000000000000000000000000000000000000000000000000c"
          ],
          "data": "0x00000000000000000000000000000000000000000000000000000000000000200000000000000000000000001889cfb8746716a0ac50e59a54f190987c5f04e60000000000000000000000000000000000000000000000000000000000000000000000000000000000000000000000000000000000000000000000000074be98000000000000000000000000000000000000000000000000000000000000000000000000000000000000000000000000000000000000000000000000000000c000000000000000000000000000000000000000000000000000000000000001000000000000000000000000000000000000000000000000000000000000000009444f47452f555344540000000000000000000000000000000000000000000000000000000000000000000000000000000000000000000000000000000000000200000000000000000000000000000000000000000000000000000000000000400000000000000000000000000000000000000000000000000000000000000140000000000000000000000000000000000000000000000000000000000000006000000000000000000000000000000000000000000000000000000000000000a000000000000000000000000000000000000000000000000000000000000000e0000000000000000000000000000000000000000000000000000000000000000762696e616e6365000000000000000000000000000000000000000000000000000000000000000000000000000000000000000000000000000000000000000008444f4745555344540000000000000000000000000000000000000000000000000000000000000000000000000000000000000000000000000000000000000000000000000000000000000000000000000000000000000000000000000000006000000000000000000000000000000000000000000000000000000000000000a000000000000000000000000000000000000000000000000000000000000000e000000000000000000000000000000000000000000000000000000000000000036f6b7800000000000000000000000000000000000000000000000000000000000000000000000000000000000000000000000000000000000000000000000009444f47452d5553445400000000000000000000000000000000000000000000000000000000000000000000000000000000000000000000000000000000000000",
          "blockHash": "0xf0d9ac1a220b9e1e95b1b8e6854d195f35b8407d84d73d11f58b488fe19afe7d",
          "blockNumber": "0x74be98",
          "blockTimestamp": "0x67d37693",
          "transactionHash": "0x06fb07a6f2f2ac2306df392b5efaad3cc619ff18733b00f491eb817da2ed2f8a",
          "transactionIndex": "0x19",
          "logIndex": "0x1f",
          "removed": false
        }
      ],
      "logsBloom": "0x00000000000000000000000000000000000002000000000000000000000000000000000000000200000000000000000000000000000000000000000000000000000000000000000000000000000000000000000000000000000000000000000000000000000000000000000000000000000000000000000000000000000000000000000000000000000000000000000000000000000000020000000010000000000000000000000020000010100000000000000000000000000000000000000000000000000000000000000000000000000000000000000000800000000000200000000000000000000000000000000000000000000000000000000000000000",
      "type": "0x0",
      "transactionHash": "0x06fb07a6f2f2ac2306df392b5efaad3cc619ff18733b00f491eb817da2ed2f8a",
      "transactionIndex": "0x19",
      "blockHash": "0xf0d9ac1a220b9e1e95b1b8e6854d195f35b8407d84d73d11f58b488fe19afe7d",
      "blockNumber": "0x74be98",
      "gasUsed": "0x1e284",
      "effectiveGasPrice": "0xc1b710800",
      "from": "0x6efb11ac41b6657c32dac5ed4874082c700bba29",
      "to": "0xd8a8f5c1e6fc685409c94af2e335e1421cbd09a0",
      "contractAddress": null
    },
    {
      "status": "0x1",
      "cumulativeGasUsed": "0x7976a1",
      "logs": [
        {
          "address": "0xd8a8f5c1e6fc685409c94af2e335e1421cbd09a0",
          "topics": [
            "0x070cdb07f0dc5823c3ffbe95911c3fc1a811ada8f0897aaafed7c0197f11b566",
            "0x000000000000000000000000000000000000000000000000000000000000000d"
          ],
          "data": "0x0000000000000000000000000000000000000000000000000000000000000020000000000000000000000000e3f98fda6dbd38c1017754f1675dce377381c23c0000000000000000000000000000000000000000000000000000000000000000000000000000000000000000000000000000000000000000000000000074be98000000000000000000000000000000000000000000000000000000000000000000000000000000000000000000000000000000000000000000000000000000c0000000000000000000000000000000000000000000000000000000000000010000000000000000000000000000000000000000000000000000000000000000094c494e4b2f555344540000000000000000000000000000000000000000000000000000000000000000000000000000000000000000000000000000000000000200000000000000000000000000000000000000000000000000000000000000400000000000000000000000000000000000000000000000000000000000000140000000000000000000000000000000000000000000000000000000000000006000000000000000000000000000000000000000000000000000000000000000a000000000000000000000000000000000000000000000000000000000000000e0000000000000000000000000000000000000000000000000000000000000000762696e616e63650000000000000000000000000000000000000000000000000000000000000000000000000000000000000000000000000000000000000000084c494e4b555344540000000000000000000000000000000000000000000000000000000000000000000000000000000000000000000000000000000000000000000000000000000000000000000000000000000000000000000000000000006000000000000000000000000000000000000000000000000000000000000000a000000000000000000000000000000000000000000000000000000000000000e000000000000000000000000000000000000000000000000000000000000000036f6b78000000000000000000000000000000000000000000000000000000000000000000000000000000000000000000000000000000000000000000000000094c494e4b2d5553445400000000000000000000000000000000000000000000000000000000000000000000000000000000000000000000000000000000000000",
          "blockHash": "0xf0d9ac1a220b9e1e95b1b8e6854d195f35b8407d84d73d11f58b488fe19afe7d",
          "blockNumber": "0x74be98",
          "blockTimestamp": "0x67d37693",
          "transactionHash": "0x4e1fb921efe177cd432c3cb0e03861f999a0a1bea78cd8eb72c3bfeef8a742ab",
          "transactionIndex": "0x1a",
          "logIndex": "0x20",
          "removed": false
        }
      ],
      "logsBloom": "0x00000000000000000040000000000000000000000000000000000000000000000000000000000000000000000000000000000000000000000000000000000000000000000000000000000000000000000002000000000000000000000000000000000000000000000000000000000000000000000000000000000000000000000000000000000000000000000000000000000000000000020000000010000000000000000000000020000010100000000000000000000000000000000000000000000000000000000000000000000000000000000000000000800000000000020000000000000000000000000000000000000000000000000000000000000000",
      "type": "0x0",
      "transactionHash": "0x4e1fb921efe177cd432c3cb0e03861f999a0a1bea78cd8eb72c3bfeef8a742ab",
      "transactionIndex": "0x1a",
      "blockHash": "0xf0d9ac1a220b9e1e95b1b8e6854d195f35b8407d84d73d11f58b488fe19afe7d",
      "blockNumber": "0x74be98",
      "gasUsed": "0x1e284",
      "effectiveGasPrice": "0xc1b710800",
      "from": "0x6efb11ac41b6657c32dac5ed4874082c700bba29",
      "to": "0xd8a8f5c1e6fc685409c94af2e335e1421cbd09a0",
      "contractAddress": null
    }
  ],
  "libraries": [],
  "pending": [],
  "returns": {},
  "timestamp": 1741911701,
  "chain": 10143,
  "commit": "69d67f9"
}