{
  "transactions": [
    {
      "hash": "0x2e5047b16d0a20795bbedee732601b80c130c6a161746ab7b5e604af3fe5f1b1",
      "transactionType": "CALL",
      "contractName": null,
      "contractAddress": "0x1c0e607b05ca3409a3c3e38afa122d5f84e8d8ea",
      "function": "setPrices(address[],(uint256,uint256,uint256,bytes)[])",
      "arguments": [
        "[0x37c15A5f7c7d8d4C707d44Ff7E3aD696ddA85d07, 0xf73081AfEd3Fed09c92924Ac16fa0c09aF902E98]",
        "[(3000000000000000000000, 1740229677, 5140917, 0x445f3d932ff5035a2f64058744623d3ecf4dce78c30fa19cf3be7d236ec8704f0f7c0fa77858963dad65013c0771bb75d7289c495785f4ebcbe71c4b41905f791c), (1000000000000000000, 1740229677, 5140917, 0x56389ea27c3b0ca0915108afb466e6fa5ad7ab5b1abd0a191427b102c7cda7a45435bcafeb9782b84de2579b40c3bf3b878147c5882a40ed6b1c1d00be372ce41b)]"
      ],
      "transaction": {
        "from": "0xe2bc073e0d55274dba18a0e11463a5dfd16c5057",
        "to": "0x1c0e607b05ca3409a3c3e38afa122d5f84e8d8ea",
        "gas": "0x20b97",
        "value": "0x0",
        "input": "0xbd8bab34000000000000000000000000000000000000000000000000000000000000004000000000000000000000000000000000000000000000000000000000000000a0000000000000000000000000000000000000000000000000000000000000000200000000000000000000000037c15a5f7c7d8d4c707d44ff7e3ad696dda85d07000000000000000000000000f73081afed3fed09c92924ac16fa0c09af902e980000000000000000000000000000000000000000000000000000000000000002000000000000000000000000000000000000000000000000000000000000004000000000000000000000000000000000000000000000000000000000000001400000000000000000000000000000000000000000000000a2a15d09519be000000000000000000000000000000000000000000000000000000000000067b9cc2d00000000000000000000000000000000000000000000000000000000004e71b500000000000000000000000000000000000000000000000000000000000000800000000000000000000000000000000000000000000000000000000000000041445f3d932ff5035a2f64058744623d3ecf4dce78c30fa19cf3be7d236ec8704f0f7c0fa77858963dad65013c0771bb75d7289c495785f4ebcbe71c4b41905f791c000000000000000000000000000000000000000000000000000000000000000000000000000000000000000000000000000000000000000de0b6b3a76400000000000000000000000000000000000000000000000000000000000067b9cc2d00000000000000000000000000000000000000000000000000000000004e71b50000000000000000000000000000000000000000000000000000000000000080000000000000000000000000000000000000000000000000000000000000004156389ea27c3b0ca0915108afb466e6fa5ad7ab5b1abd0a191427b102c7cda7a45435bcafeb9782b84de2579b40c3bf3b878147c5882a40ed6b1c1d00be372ce41b00000000000000000000000000000000000000000000000000000000000000",
        "nonce": "0x59",
        "chainId": "0xaa39db"
      },
      "additionalContracts": [],
      "isFixedGasLimit": false
    },
    {
      "hash": "0x3d78afbf3e371fbd58571ae4ba2b0a33fdd38598aa57c245b88af0524993c46a",
      "transactionType": "CALL",
      "contractName": null,
      "contractAddress": "0x7814362bc8767568f5f1e2829fc4b9ccddc8c986",
      "function": "executeOrder(uint256)",
      "arguments": [
        "0"
      ],
      "transaction": {
        "from": "0xe2bc073e0d55274dba18a0e11463a5dfd16c5057",
        "to": "0x7814362bc8767568f5f1e2829fc4b9ccddc8c986",
        "gas": "0x74706",
        "value": "0x0",
        "input": "0x94f611340000000000000000000000000000000000000000000000000000000000000000",
        "nonce": "0x5a",
        "chainId": "0xaa39db"
      },
      "additionalContracts": [],
      "isFixedGasLimit": false
    }
  ],
  "receipts": [
    {
      "status": "0x1",
      "cumulativeGasUsed": "0x2118d",
      "logs": [
        {
          "address": "0x1c0e607b05ca3409a3c3e38afa122d5f84e8d8ea",
          "topics": [
            "0x8647dab5101cbe18afb171756e9753802f9d66725bf2346b079b8b1a275e0116"
          ],
          "data": "0x00000000000000000000000037c15a5f7c7d8d4c707d44ff7e3ad696dda85d070000000000000000000000000000000000000000000000a2a15d09519be000000000000000000000000000000000000000000000000000000000000067b9cc2d00000000000000000000000000000000000000000000000000000000004e71b5",
          "blockHash": "0xd99dbe291b039346617505ce42b20bd18aae993cc2cfd52f3cef4b000af2d0ee",
          "blockNumber": "0x4e71e0",
          "blockTimestamp": "0x67b9cc58",
          "transactionHash": "0x2e5047b16d0a20795bbedee732601b80c130c6a161746ab7b5e604af3fe5f1b1",
          "transactionIndex": "0x1",
          "logIndex": "0x0",
          "removed": false
        },
        {
          "address": "0x1c0e607b05ca3409a3c3e38afa122d5f84e8d8ea",
          "topics": [
            "0x8647dab5101cbe18afb171756e9753802f9d66725bf2346b079b8b1a275e0116"
          ],
          "data": "0x000000000000000000000000f73081afed3fed09c92924ac16fa0c09af902e980000000000000000000000000000000000000000000000000de0b6b3a76400000000000000000000000000000000000000000000000000000000000067b9cc2d00000000000000000000000000000000000000000000000000000000004e71b5",
          "blockHash": "0xd99dbe291b039346617505ce42b20bd18aae993cc2cfd52f3cef4b000af2d0ee",
          "blockNumber": "0x4e71e0",
          "blockTimestamp": "0x67b9cc58",
          "transactionHash": "0x2e5047b16d0a20795bbedee732601b80c130c6a161746ab7b5e604af3fe5f1b1",
          "transactionIndex": "0x1",
          "logIndex": "0x1",
          "removed": false
        }
      ],
      "logsBloom": "0x00000000000000000000000000000000001000000000000000000000000200000000000000000000000000000000000000000000400000000000000000000000000000000000000000000000000000000000000000000000000000000000000000000000000000000000000000000000000000000000000000000000000000000000000000000000000000000000000000000000000000000400000000000000000000000000000000000000000000000000000000000000000000002000000000000000000000000000000000000000000000000008000000000000000000000000000000000000000000000000000000000000000000000000000000000000",
      "type": "0x2",
      "transactionHash": "0x2e5047b16d0a20795bbedee732601b80c130c6a161746ab7b5e604af3fe5f1b1",
      "transactionIndex": "0x1",
      "blockHash": "0xd99dbe291b039346617505ce42b20bd18aae993cc2cfd52f3cef4b000af2d0ee",
      "blockNumber": "0x4e71e0",
      "gasUsed": "0x16603",
      "effectiveGasPrice": "0x8",
      "from": "0xe2bc073e0d55274dba18a0e11463a5dfd16c5057",
      "to": "0x1c0e607b05ca3409a3c3e38afa122d5f84e8d8ea",
      "contractAddress": null,
      "l1BaseFeeScalar": "0x558",
      "l1BlobBaseFee": "0xc79f940",
      "l1BlobBaseFeeScalar": "0xc5fc5",
      "l1Fee": "0xfff039806",
      "l1GasPrice": "0xa5d6d2cd",
      "l1GasUsed": "0x129d"
    },
    {
      "status": "0x1",
      "cumulativeGasUsed": "0x7565a",
      "logs": [
        {
          "address": "0x84f200ebe8d5d370eb5b15ca6b6d2b4e652fdd4f",
          "topics": [
            "0x06380389ced6beb166b3dc4b5f51c82e98a257093591dca57e791694f075b9cb"
          ],
          "data": "0x000000000000000000000000217c52954ef4a9f7b334333fda22c609ff3e62bc00000000000000000000000037c15a5f7c7d8d4c707d44ff7e3ad696dda85d070000000000000000000000000000000000000000000000000000000000000000",
          "blockHash": "0xd99dbe291b039346617505ce42b20bd18aae993cc2cfd52f3cef4b000af2d0ee",
          "blockNumber": "0x4e71e0",
          "blockTimestamp": "0x67b9cc58",
          "transactionHash": "0x3d78afbf3e371fbd58571ae4ba2b0a33fdd38598aa57c245b88af0524993c46a",
          "transactionIndex": "0x2",
          "logIndex": "0x2",
          "removed": false
        },
        {
          "address": "0x685c70bb196c59b7024fc4409194b0cfdbe4d342",
          "topics": [
            "0x084689a15029b8637172cb6911da64fb9497f1b1bf8657d76c72a8c60a256203"
          ],
          "data": "0x72ceb95ee5095c82b8a8ea5cb63ac7e1ea08eec69964ed929ef9a0a2d55da16c00000000000000000000000000000000000000000000000000000000000000010000000000000000000000000000000000000000000000056bc75e2d6310000000000000000000000000000000000000000000000000000000000000000000000000000000000000000000000000000000000000000000001bc16d67132d360000000000000000000000000000000000000000000000000000000000000000000000000000000000000000000000000000000000000000000000000000000000000000000000000000000000000000000000000000000000000000000000000000000000000000000000000000000000000000000000000000000000000000000000000000000000000000000000000000000000000000000000000067b9cc58000000000000000000000000000000000000000000000000000000000000000000000000000000000000000037c15a5f7c7d8d4c707d44ff7e3ad696dda85d07000000000000000000000000e2bc073e0d55274dba18a0e11463a5dfd16c5057000000000000000000000000217c52954ef4a9f7b334333fda22c609ff3e62bc",
          "blockHash": "0xd99dbe291b039346617505ce42b20bd18aae993cc2cfd52f3cef4b000af2d0ee",
          "blockNumber": "0x4e71e0",
          "blockTimestamp": "0x67b9cc58",
          "transactionHash": "0x3d78afbf3e371fbd58571ae4ba2b0a33fdd38598aa57c245b88af0524993c46a",
          "transactionIndex": "0x2",
          "logIndex": "0x3",
          "removed": false
        },
        {
          "address": "0x37c15a5f7c7d8d4c707d44ff7e3ad696dda85d07",
          "topics": [
            "0xddf252ad1be2c89b69c2b068fc378daa952ba7f163c4a11628f55a4df523b3ef",
            "0x00000000000000000000000085386b4ebbe55024aeccfd8a5fd215a793890730",
            "0x000000000000000000000000217c52954ef4a9f7b334333fda22c609ff3e62bc"
          ],
          "data": "0x0000000000000000000000000000000000000000000000001bc16d67132d3600",
          "blockHash": "0xd99dbe291b039346617505ce42b20bd18aae993cc2cfd52f3cef4b000af2d0ee",
          "blockNumber": "0x4e71e0",
          "blockTimestamp": "0x67b9cc58",
          "transactionHash": "0x3d78afbf3e371fbd58571ae4ba2b0a33fdd38598aa57c245b88af0524993c46a",
          "transactionIndex": "0x2",
          "logIndex": "0x4",
          "removed": false
        },
        {
          "address": "0x37c15a5f7c7d8d4c707d44ff7e3ad696dda85d07",
          "topics": [
            "0xddf252ad1be2c89b69c2b068fc378daa952ba7f163c4a11628f55a4df523b3ef",
            "0x00000000000000000000000085386b4ebbe55024aeccfd8a5fd215a793890730",
            "0x000000000000000000000000e2bc073e0d55274dba18a0e11463a5dfd16c5057"
          ],
          "data": "0x000000000000000000000000000000000000000000000000000000003b9aca00",
          "blockHash": "0xd99dbe291b039346617505ce42b20bd18aae993cc2cfd52f3cef4b000af2d0ee",
          "blockNumber": "0x4e71e0",
          "blockTimestamp": "0x67b9cc58",
          "transactionHash": "0x3d78afbf3e371fbd58571ae4ba2b0a33fdd38598aa57c245b88af0524993c46a",
          "transactionIndex": "0x2",
          "logIndex": "0x5",
          "removed": false
        },
        {
          "address": "0x7814362bc8767568f5f1e2829fc4b9ccddc8c986",
          "topics": [
            "0x7c44208b5a90de3907889263317a131f5178339f16bd7d512528f9f48876ffdc"
          ],
          "data": "0x0000000000000000000000000000000000000000000000000000000000000000",
          "blockHash": "0xd99dbe291b039346617505ce42b20bd18aae993cc2cfd52f3cef4b000af2d0ee",
          "blockNumber": "0x4e71e0",
          "blockTimestamp": "0x67b9cc58",
          "transactionHash": "0x3d78afbf3e371fbd58571ae4ba2b0a33fdd38598aa57c245b88af0524993c46a",
          "transactionIndex": "0x2",
          "logIndex": "0x6",
          "removed": false
        }
      ],
      "logsBloom": "0x00000000000000002000000000000000000000000000201000000000000000000800000000000000000000000000000000000000100008000000000000001000000080000000000000000008000000001000000000000000008000000000000020000000000000000020000004000000000000000000000000010010000000000000000000000000200000000000080000000000000000000000000100000010000000000010000000000004000000000000000000000000000000040000000000000002020000000000080000008000800000000000000000000000000000040000001400000000000000000000080000000000000000000001000000000000",
      "type": "0x2",
      "transactionHash": "0x3d78afbf3e371fbd58571ae4ba2b0a33fdd38598aa57c245b88af0524993c46a",
      "transactionIndex": "0x2",
      "blockHash": "0xd99dbe291b039346617505ce42b20bd18aae993cc2cfd52f3cef4b000af2d0ee",
      "blockNumber": "0x4e71e0",
      "gasUsed": "0x544cd",
      "effectiveGasPrice": "0x8",
      "from": "0xe2bc073e0d55274dba18a0e11463a5dfd16c5057",
      "to": "0x7814362bc8767568f5f1e2829fc4b9ccddc8c986",
      "contractAddress": null,
      "l1BaseFeeScalar": "0x558",
      "l1BlobBaseFee": "0xc79f940",
      "l1BlobBaseFeeScalar": "0xc5fc5",
      "l1Fee": "0x55ec41703",
      "l1GasPrice": "0xa5d6d2cd",
      "l1GasUsed": "0x640"
    }
  ],
  "libraries": [],
  "pending": [],
  "returns": {},
  "timestamp": 1740229721,
  "chain": 11155931,
  "commit": "35df5d8"
}