{
  "transactions": [
    {
      "hash": "0x0e0abb0236d6eca21bcfa7de317a5be5ba019efdfae3f2e704835c6b90b6469c",
      "transactionType": "CALL",
      "contractName": null,
      "contractAddress": "0x8babd1e824a30bdf9986ed73fb2494150ae65a71",
      "function": "approve(address,uint256)",
      "arguments": [
        "0x320923b6A3bfF8a4779bfeaCEeCf0bf8c4615976",
        "115792089237316195423570985008687907853269984665640564039457584007913129639935"
      ],
      "transaction": {
        "from": "0xe2bc073e0d55274dba18a0e11463a5dfd16c5057",
        "to": "0x8babd1e824a30bdf9986ed73fb2494150ae65a71",
        "gas": "0x89ba",
        "value": "0x0",
        "input": "0x095ea7b3000000000000000000000000320923b6a3bff8a4779bfeaceecf0bf8c4615976ffffffffffffffffffffffffffffffffffffffffffffffffffffffffffffffff",
        "nonce": "0x1dc0",
        "chainId": "0x66eee"
      },
      "additionalContracts": [],
      "isFixedGasLimit": false
    },
    {
      "hash": "0x46d4f711d54e36e0af3cc9079946d180ae42ec1497647078f385252f8a5d6ba7",
      "transactionType": "CALL",
      "contractName": null,
      "contractAddress": "0x320923b6a3bff8a4779bfeaceecf0bf8c4615976",
      "function": "multicall(bytes[])",
      "arguments": [
        "[0x7d39aaf1000000000000000000000000f32b8495032c03b4bc57cff04118575f3f6e2bc90000000000000000000000000000000000000000000000000de0b6b3a7640000, 0xe6d66ac80000000000000000000000008babd1e824a30bdf9986ed73fb2494150ae65a71000000000000000000000000f32b8495032c03b4bc57cff04118575f3f6e2bc90000000000000000000000000000000000000000000000000de0b6b3a7640000, 0x1ddbdd20000000000000000000000000e2bc073e0d55274dba18a0e11463a5dfd16c5057000000000000000000000000e2bc073e0d55274dba18a0e11463a5dfd16c50570000000000000000000000000000000000000000000000000000000000000000000000000000000000000000000000000000000000000000000000000000000000000000000000000000000074a403b336fad0db254d2080c28122fb739ff5580000000000000000000000008babd1e824a30bdf9986ed73fb2494150ae65a71000000000000000000000000000000000000000000000000000000000000000000000000000000000000000000000000000000000000003635c9adc5dea000000000000000000000000000000000000000000000000000000de0b6b3a7640000000000000000000000000000000000000000000000000000000000000000000000000000000000000000000000000000000000000000003635c9adc5dea0000000000000000000000000000000000000000000000000000000000000000f4240000000000000000000000000000000000000000000000000000000000000000000000000000000000000000000000000000000000000000000000000000000010000000000000000000000000000000000000000000000000000000000000000]"
      ],
      "transaction": {
        "from": "0xe2bc073e0d55274dba18a0e11463a5dfd16c5057",
        "to": "0x320923b6a3bff8a4779bfeaceecf0bf8c4615976",
        "gas": "0x875ca",
        "value": "0x0",
        "input": "0xac9650d800000000000000000000000000000000000000000000000000000000000000200000000000000000000000000000000000000000000000000000000000000003000000000000000000000000000000000000000000000000000000000000006000000000000000000000000000000000000000000000000000000000000000e0000000000000000000000000000000000000000000000000000000000000018000000000000000000000000000000000000000000000000000000000000000447d39aaf1000000000000000000000000f32b8495032c03b4bc57cff04118575f3f6e2bc90000000000000000000000000000000000000000000000000de0b6b3a7640000000000000000000000000000000000000000000000000000000000000000000000000000000000000000000000000000000000000000000000000064e6d66ac80000000000000000000000008babd1e824a30bdf9986ed73fb2494150ae65a71000000000000000000000000f32b8495032c03b4bc57cff04118575f3f6e2bc90000000000000000000000000000000000000000000000000de0b6b3a76400000000000000000000000000000000000000000000000000000000000000000000000000000000000000000000000000000000000000000000000001e41ddbdd20000000000000000000000000e2bc073e0d55274dba18a0e11463a5dfd16c5057000000000000000000000000e2bc073e0d55274dba18a0e11463a5dfd16c50570000000000000000000000000000000000000000000000000000000000000000000000000000000000000000000000000000000000000000000000000000000000000000000000000000000074a403b336fad0db254d2080c28122fb739ff5580000000000000000000000008babd1e824a30bdf9986ed73fb2494150ae65a71000000000000000000000000000000000000000000000000000000000000000000000000000000000000000000000000000000000000003635c9adc5dea000000000000000000000000000000000000000000000000000000de0b6b3a7640000000000000000000000000000000000000000000000000000000000000000000000000000000000000000000000000000000000000000003635c9adc5dea0000000000000000000000000000000000000000000000000000000000000000f424000000000000000000000000000000000000000000000000000000000000000000000000000000000000000000000000000000000000000000000000000000001000000000000000000000000000000000000000000000000000000000000000000000000000000000000000000000000000000000000000000000000",
        "nonce": "0x1dc1",
        "chainId": "0x66eee"
      },
      "additionalContracts": [],
      "isFixedGasLimit": false
    }
  ],
  "receipts": [
    {
      "status": "0x1",
      "cumulativeGasUsed": "0x8de89",
      "logs": [
        {
          "address": "0x8babd1e824a30bdf9986ed73fb2494150ae65a71",
          "topics": [
            "0x8c5be1e5ebec7d5bd14f71427d1e84f3dd0314c0f7b2291e5b200ac8c7c3b925",
            "0x000000000000000000000000e2bc073e0d55274dba18a0e11463a5dfd16c5057",
            "0x000000000000000000000000320923b6a3bff8a4779bfeaceecf0bf8c4615976"
          ],
          "data": "0xffffffffffffffffffffffffffffffffffffffffffffffffffffffffffffffff",
          "blockHash": "0xf3e6808e6ae0546020a0618aaebdad486130b3c320823f8da3b58db2ec0496ac",
          "blockNumber": "0x768914a",
          "transactionHash": "0x0e0abb0236d6eca21bcfa7de317a5be5ba019efdfae3f2e704835c6b90b6469c",
          "transactionIndex": "0x2",
          "logIndex": "0x12",
          "removed": false
        }
      ],
      "logsBloom": "0x00000000000000000000000000000000000000000000000000000000000000000000002000000000000000000000000020004000000000000000000000200000000000000000000000000000000000001000000000000000000000000000000000000000000000000000000104000000000000000000000000000000000000000000000000000000000000000000000000000000000000000000000000000000020000000010000000000000000000000000000000000000000000000000000000000000000000000400000000000000000000000000000001000000000000000010000000000000000000000000000000000000000000000000000000000000",
      "type": "0x2",
      "transactionHash": "0x0e0abb0236d6eca21bcfa7de317a5be5ba019efdfae3f2e704835c6b90b6469c",
      "transactionIndex": "0x2",
      "blockHash": "0xf3e6808e6ae0546020a0618aaebdad486130b3c320823f8da3b58db2ec0496ac",
      "blockNumber": "0x768914a",
      "gasUsed": "0x689a",
      "effectiveGasPrice": "0x5f5e100",
      "from": "0xe2bc073e0d55274dba18a0e11463a5dfd16c5057",
      "to": "0x8babd1e824a30bdf9986ed73fb2494150ae65a71",
      "contractAddress": null,
      "gasUsedForL1": "0x0",
      "l1BlockNumber": "0x75cb9b"
    },
    {
      "status": "0x1",
      "cumulativeGasUsed": "0x772c7",
      "logs": [
        {
          "address": "0x8babd1e824a30bdf9986ed73fb2494150ae65a71",
          "topics": [
            "0xddf252ad1be2c89b69c2b068fc378daa952ba7f163c4a11628f55a4df523b3ef",
            "0x000000000000000000000000e2bc073e0d55274dba18a0e11463a5dfd16c5057",
            "0x000000000000000000000000f32b8495032c03b4bc57cff04118575f3f6e2bc9"
          ],
          "data": "0x0000000000000000000000000000000000000000000000000de0b6b3a7640000",
          "blockHash": "0xf0f4dc991d53bcf5aa59f313f494f4218bd272932239f27d0b05db97f9283755",
          "blockNumber": "0x7689151",
          "transactionHash": "0x46d4f711d54e36e0af3cc9079946d180ae42ec1497647078f385252f8a5d6ba7",
          "transactionIndex": "0x3",
          "logIndex": "0x2",
          "removed": false
        },
        {
          "address": "0x8babd1e824a30bdf9986ed73fb2494150ae65a71",
          "topics": [
            "0xddf252ad1be2c89b69c2b068fc378daa952ba7f163c4a11628f55a4df523b3ef",
            "0x000000000000000000000000e2bc073e0d55274dba18a0e11463a5dfd16c5057",
            "0x000000000000000000000000f32b8495032c03b4bc57cff04118575f3f6e2bc9"
          ],
          "data": "0x0000000000000000000000000000000000000000000000000de0b6b3a7640000",
          "blockHash": "0xf0f4dc991d53bcf5aa59f313f494f4218bd272932239f27d0b05db97f9283755",
          "blockNumber": "0x7689151",
          "transactionHash": "0x46d4f711d54e36e0af3cc9079946d180ae42ec1497647078f385252f8a5d6ba7",
          "transactionIndex": "0x3",
          "logIndex": "0x3",
          "removed": false
        },
        {
          "address": "0x6ca52789d1d025fddd66c0072bf33dcaeb894be4",
          "topics": [
            "0x738b9309a8064f4f5bcdaf8cd252de15afc18a05840337e438c744f321b7a597"
          ],
          "data": "0x0000000000000000000000000000000000000000000000000000000000000000000000000000000000000000e2bc073e0d55274dba18a0e11463a5dfd16c5057000000000000000000000000e2bc073e0d55274dba18a0e11463a5dfd16c5057000000000000000000000000e2bc073e0d55274dba18a0e11463a5dfd16c50570000000000000000000000000000000000000000000000000000000000000000000000000000000000000000000000000000000000000000000000000000000000000000000000000000000074a403b336fad0db254d2080c28122fb739ff5580000000000000000000000008babd1e824a30bdf9986ed73fb2494150ae65a71000000000000000000000000000000000000000000000000000000000000000000000000000000000000000000000000000000000000003635c9adc5dea000000000000000000000000000000000000000000000000000001bc16d674eb8bdc0000000000000000000000000000000000000000000000000000000000000000000000000000000000000000000000000000000000000003635c9adc5dea0000000000000000000000000000000000000000000000000000000000000000f42400000000000000000000000000000000000000000000000000000000067b1d6e7000000000000000000000000000000000000000000000000000000000000000000000000000000000000000000000000000000000000000000000000000000010000000000000000000000000000000000000000000000000000000000000000",
          "blockHash": "0xf0f4dc991d53bcf5aa59f313f494f4218bd272932239f27d0b05db97f9283755",
          "blockNumber": "0x7689151",
          "transactionHash": "0x46d4f711d54e36e0af3cc9079946d180ae42ec1497647078f385252f8a5d6ba7",
          "transactionIndex": "0x3",
          "logIndex": "0x4",
          "removed": false
        }
      ],
      "logsBloom": "0x00200000000000000000000000000000000010000000000010000000000000000000002000000000000000000000000000000000000000000000000000000020000000000000000000000008100000001000000000000020020000000000000000000000000000000000000104000000000000000000000000000010000000000000000000040000000000000000000000000000000000000040000000000000000000000010000000000000000000000000000000000000000000000000000000000002000000000000000000000000000000000000000001000000000000000000000000000000000000000000000000000000000000000000000000000000",
      "type": "0x2",
      "transactionHash": "0x46d4f711d54e36e0af3cc9079946d180ae42ec1497647078f385252f8a5d6ba7",
      "transactionIndex": "0x3",
      "blockHash": "0xf0f4dc991d53bcf5aa59f313f494f4218bd272932239f27d0b05db97f9283755",
      "blockNumber": "0x7689151",
      "gasUsed": "0x65244",
      "effectiveGasPrice": "0x5f5e100",
      "from": "0xe2bc073e0d55274dba18a0e11463a5dfd16c5057",
      "to": "0x320923b6a3bff8a4779bfeaceecf0bf8c4615976",
      "contractAddress": null,
      "gasUsedForL1": "0x0",
      "l1BlockNumber": "0x75cb9b",
      "timeboosted": false
    }
  ],
  "libraries": [],
  "pending": [],
  "returns": {},
  "timestamp": 1739708136,
  "chain": 421614,
  "commit": "395e7fa"
}