{
  "transactions": [
    {
      "hash": "0xad368e4d9c295c55f0441716a94e2b63c52ca78fcde81482ef0a861cfd590413",
      "transactionType": "CALL",
      "contractName": null,
      "contractAddress": "0x37c15a5f7c7d8d4c707d44ff7e3ad696dda85d07",
      "function": "approve(address,uint256)",
      "arguments": [
        "0x582264356c7DfeACA86B18209beED5a73b027DF1",
        "115792089237316195423570985008687907853269984665640564039457584007913129639935"
      ],
      "transaction": {
        "from": "0xe2bc073e0d55274dba18a0e11463a5dfd16c5057",
        "to": "0x37c15a5f7c7d8d4c707d44ff7e3ad696dda85d07",
        "gas": "0x98fa",
        "value": "0x0",
        "input": "0x095ea7b3000000000000000000000000582264356c7dfeaca86b18209beed5a73b027df1ffffffffffffffffffffffffffffffffffffffffffffffffffffffffffffffff",
        "nonce": "0x1c",
        "chainId": "0xaa39db"
      },
      "additionalContracts": [],
      "isFixedGasLimit": false
    },
    {
      "hash": "0x3e896743307b01f2f03380a05b0a1c621a48ec9c7e2393df9a174d9e71e65231",
      "transactionType": "CALL",
      "contractName": null,
      "contractAddress": "0x582264356c7dfeaca86b18209beed5a73b027df1",
      "function": "multicall(bytes[])",
      "arguments": [
        "[0x7d39aaf10000000000000000000000002ba341c3b942b732e1bd5cc3dda45caf6df4eeff0000000000000000000000000000000000000000000000000de0b6b3a7640000, 0xe6d66ac800000000000000000000000037c15a5f7c7d8d4c707d44ff7e3ad696dda85d070000000000000000000000002ba341c3b942b732e1bd5cc3dda45caf6df4eeff0000000000000000000000000000000000000000000000000de0b6b3a7640000, 0x1ddbdd20000000000000000000000000e2bc073e0d55274dba18a0e11463a5dfd16c5057000000000000000000000000e2bc073e0d55274dba18a0e11463a5dfd16c505700000000000000000000000000000000000000000000000000000000000000000000000000000000000000000000000000000000000000000000000000000000000000000000000000000000f5cefc7a911f9beacf5f1abb9b551b6f721e105d00000000000000000000000037c15a5f7c7d8d4c707d44ff7e3ad696dda85d07000000000000000000000000000000000000000000000000000000000000000000000000000000000000000000000000000000000000003635c9adc5dea000000000000000000000000000000000000000000000000000000de0b6b3a7640000000000000000000000000000000000000000000000000000000000000000000000000000000000000000000000000000000000000000003635c9adc5dea0000000000000000000000000000000000000000000000000000000000000000f4240000000000000000000000000000000000000000000000000000000000000000000000000000000000000000000000000000000000000000000000000000000010000000000000000000000000000000000000000000000000000000000000000]"
      ],
      "transaction": {
        "from": "0xe2bc073e0d55274dba18a0e11463a5dfd16c5057",
        "to": "0x582264356c7dfeaca86b18209beed5a73b027df1",
        "gas": "0x8bb3a",
        "value": "0x0",
        "input": "0xac9650d800000000000000000000000000000000000000000000000000000000000000200000000000000000000000000000000000000000000000000000000000000003000000000000000000000000000000000000000000000000000000000000006000000000000000000000000000000000000000000000000000000000000000e0000000000000000000000000000000000000000000000000000000000000018000000000000000000000000000000000000000000000000000000000000000447d39aaf10000000000000000000000002ba341c3b942b732e1bd5cc3dda45caf6df4eeff0000000000000000000000000000000000000000000000000de0b6b3a7640000000000000000000000000000000000000000000000000000000000000000000000000000000000000000000000000000000000000000000000000064e6d66ac800000000000000000000000037c15a5f7c7d8d4c707d44ff7e3ad696dda85d070000000000000000000000002ba341c3b942b732e1bd5cc3dda45caf6df4eeff0000000000000000000000000000000000000000000000000de0b6b3a76400000000000000000000000000000000000000000000000000000000000000000000000000000000000000000000000000000000000000000000000001e41ddbdd20000000000000000000000000e2bc073e0d55274dba18a0e11463a5dfd16c5057000000000000000000000000e2bc073e0d55274dba18a0e11463a5dfd16c505700000000000000000000000000000000000000000000000000000000000000000000000000000000000000000000000000000000000000000000000000000000000000000000000000000000f5cefc7a911f9beacf5f1abb9b551b6f721e105d00000000000000000000000037c15a5f7c7d8d4c707d44ff7e3ad696dda85d07000000000000000000000000000000000000000000000000000000000000000000000000000000000000000000000000000000000000003635c9adc5dea000000000000000000000000000000000000000000000000000000de0b6b3a7640000000000000000000000000000000000000000000000000000000000000000000000000000000000000000000000000000000000000000003635c9adc5dea0000000000000000000000000000000000000000000000000000000000000000f424000000000000000000000000000000000000000000000000000000000000000000000000000000000000000000000000000000000000000000000000000000001000000000000000000000000000000000000000000000000000000000000000000000000000000000000000000000000000000000000000000000000",
        "nonce": "0x1d",
        "chainId": "0xaa39db"
      },
      "additionalContracts": [],
      "isFixedGasLimit": false
    }
  ],
  "receipts": [
    {
      "status": "0x1",
      "cumulativeGasUsed": "0x11400",
      "logs": [
        {
          "address": "0x37c15a5f7c7d8d4c707d44ff7e3ad696dda85d07",
          "topics": [
            "0x8c5be1e5ebec7d5bd14f71427d1e84f3dd0314c0f7b2291e5b200ac8c7c3b925",
            "0x000000000000000000000000e2bc073e0d55274dba18a0e11463a5dfd16c5057",
            "0x000000000000000000000000582264356c7dfeaca86b18209beed5a73b027df1"
          ],
          "data": "0xffffffffffffffffffffffffffffffffffffffffffffffffffffffffffffffff",
          "blockHash": "0x8780221f183f81285775cacd54f73a04a241098e62281f0badb770f9019881d4",
          "blockNumber": "0x4691ca",
          "blockTimestamp": "0x67b1ec42",
          "transactionHash": "0xad368e4d9c295c55f0441716a94e2b63c52ca78fcde81482ef0a861cfd590413",
          "transactionIndex": "0x1",
          "logIndex": "0x0",
          "removed": false
        }
      ],
      "logsBloom": "0x00000000000000000000000000000000000000000000000000000000000000000000000000000000000000000000000000000000000000000000000000200000000000000000000000000000000000001000000000000000008000000000000000000000000000000000000004000000000000000000000000000000000000000000000000000000000000000000000000000000000000000000800000000000020000000010000000000000000000000000000000000000000000000000000000000000000000000200000000008000000000000000000000000000000000000010000400000000000000000000000000000000000000000000000400000000",
      "type": "0x2",
      "transactionHash": "0xad368e4d9c295c55f0441716a94e2b63c52ca78fcde81482ef0a861cfd590413",
      "transactionIndex": "0x1",
      "blockHash": "0x8780221f183f81285775cacd54f73a04a241098e62281f0badb770f9019881d4",
      "blockNumber": "0x4691ca",
      "gasUsed": "0x689a",
      "effectiveGasPrice": "0x8",
      "from": "0xe2bc073e0d55274dba18a0e11463a5dfd16c5057",
      "to": "0x37c15a5f7c7d8d4c707d44ff7e3ad696dda85d07",
      "contractAddress": null,
      "l1BaseFeeScalar": "0x558",
      "l1BlobBaseFee": "0x1",
      "l1BlobBaseFeeScalar": "0xc5fc5",
      "l1Fee": "0x82f15eaf",
      "l1GasPrice": "0x3bd2f3e9",
      "l1GasUsed": "0x640"
    },
    {
      "status": "0x1",
      "cumulativeGasUsed": "0x76644",
      "logs": [
        {
          "address": "0x37c15a5f7c7d8d4c707d44ff7e3ad696dda85d07",
          "topics": [
            "0xddf252ad1be2c89b69c2b068fc378daa952ba7f163c4a11628f55a4df523b3ef",
            "0x000000000000000000000000e2bc073e0d55274dba18a0e11463a5dfd16c5057",
            "0x0000000000000000000000002ba341c3b942b732e1bd5cc3dda45caf6df4eeff"
          ],
          "data": "0x0000000000000000000000000000000000000000000000000de0b6b3a7640000",
          "blockHash": "0x8780221f183f81285775cacd54f73a04a241098e62281f0badb770f9019881d4",
          "blockNumber": "0x4691ca",
          "blockTimestamp": "0x67b1ec42",
          "transactionHash": "0x3e896743307b01f2f03380a05b0a1c621a48ec9c7e2393df9a174d9e71e65231",
          "transactionIndex": "0x2",
          "logIndex": "0x1",
          "removed": false
        },
        {
          "address": "0x37c15a5f7c7d8d4c707d44ff7e3ad696dda85d07",
          "topics": [
            "0xddf252ad1be2c89b69c2b068fc378daa952ba7f163c4a11628f55a4df523b3ef",
            "0x000000000000000000000000e2bc073e0d55274dba18a0e11463a5dfd16c5057",
            "0x0000000000000000000000002ba341c3b942b732e1bd5cc3dda45caf6df4eeff"
          ],
          "data": "0x0000000000000000000000000000000000000000000000000de0b6b3a7640000",
          "blockHash": "0x8780221f183f81285775cacd54f73a04a241098e62281f0badb770f9019881d4",
          "blockNumber": "0x4691ca",
          "blockTimestamp": "0x67b1ec42",
          "transactionHash": "0x3e896743307b01f2f03380a05b0a1c621a48ec9c7e2393df9a174d9e71e65231",
          "transactionIndex": "0x2",
          "logIndex": "0x2",
          "removed": false
        },
        {
          "address": "0x7052fa9e18c9af184b21be69170e5480cc179d33",
          "topics": [
            "0x738b9309a8064f4f5bcdaf8cd252de15afc18a05840337e438c744f321b7a597"
          ],
          "data": "0x0000000000000000000000000000000000000000000000000000000000000000000000000000000000000000e2bc073e0d55274dba18a0e11463a5dfd16c5057000000000000000000000000e2bc073e0d55274dba18a0e11463a5dfd16c5057000000000000000000000000e2bc073e0d55274dba18a0e11463a5dfd16c505700000000000000000000000000000000000000000000000000000000000000000000000000000000000000000000000000000000000000000000000000000000000000000000000000000000f5cefc7a911f9beacf5f1abb9b551b6f721e105d00000000000000000000000037c15a5f7c7d8d4c707d44ff7e3ad696dda85d07000000000000000000000000000000000000000000000000000000000000000000000000000000000000000000000000000000000000003635c9adc5dea000000000000000000000000000000000000000000000000000001bc16d674eb8bdc0000000000000000000000000000000000000000000000000000000000000000000000000000000000000000000000000000000000000003635c9adc5dea0000000000000000000000000000000000000000000000000000000000000000f42400000000000000000000000000000000000000000000000000000000067b1ec42000000000000000000000000000000000000000000000000000000000000000000000000000000000000000000000000000000000000000000000000000000010000000000000000000000000000000000000000000000000000000000000000",
          "blockHash": "0x8780221f183f81285775cacd54f73a04a241098e62281f0badb770f9019881d4",
          "blockNumber": "0x4691ca",
          "blockTimestamp": "0x67b1ec42",
          "transactionHash": "0x3e896743307b01f2f03380a05b0a1c621a48ec9c7e2393df9a174d9e71e65231",
          "transactionIndex": "0x2",
          "logIndex": "0x3",
          "removed": false
        }
      ],
      "logsBloom": "0x00000000000000000000000000000000000000000000000010000000000000000000000000000000000000000000000000000000000000000000000000000020000000000000000000000008000000001000000000000000008000000000000000000000000000000020000004000000000000000000000000000010000000000000000000040000000000000000000000000000000000000000000000000000000000000010000000000000000800000000000000000000000000000000010000000002000000000000000000008002000000000000000000001000000000000000000400000000000000000000000000000000000000000002000000000000",
      "type": "0x2",
      "transactionHash": "0x3e896743307b01f2f03380a05b0a1c621a48ec9c7e2393df9a174d9e71e65231",
      "transactionIndex": "0x2",
      "blockHash": "0x8780221f183f81285775cacd54f73a04a241098e62281f0badb770f9019881d4",
      "blockNumber": "0x4691ca",
      "gasUsed": "0x65244",
      "effectiveGasPrice": "0x8",
      "from": "0xe2bc073e0d55274dba18a0e11463a5dfd16c5057",
      "to": "0x582264356c7dfeaca86b18209beed5a73b027df1",
      "contractAddress": null,
      "l1BaseFeeScalar": "0x558",
      "l1BlobBaseFee": "0x1",
      "l1BlobBaseFeeScalar": "0xc5fc5",
      "l1Fee": "0x141087a02",
      "l1GasPrice": "0x3bd2f3e9",
      "l1GasUsed": "0xf52"
    }
  ],
  "libraries": [],
  "pending": [],
  "returns": {},
  "timestamp": 1739713603,
  "chain": 11155931,
  "commit": "63cc3db"
}