{
  "transactions": [
    {
      "hash": "0x50dada8498a43313b1884cc98a1b1d2b8ed58ab33149f02194d5c464febda3bc",
      "transactionType": "CALL",
      "contractName": null,
      "contractAddress": "0x37c15a5f7c7d8d4c707d44ff7e3ad696dda85d07",
      "function": "approve(address,uint256)",
      "arguments": [
        "0xeB69E0A689e8a6fbdfA72b9d2882481512c783B7",
        "115792089237316195423570985008687907853269984665640564039457584007913129639935"
      ],
      "transaction": {
        "from": "0xe2bc073e0d55274dba18a0e11463a5dfd16c5057",
        "to": "0x37c15a5f7c7d8d4c707d44ff7e3ad696dda85d07",
        "gas": "0x98fa",
        "value": "0x0",
        "input": "0x095ea7b3000000000000000000000000eb69e0a689e8a6fbdfa72b9d2882481512c783b7ffffffffffffffffffffffffffffffffffffffffffffffffffffffffffffffff",
        "nonce": "0x57",
        "chainId": "0xaa39db"
      },
      "additionalContracts": [],
      "isFixedGasLimit": false
    },
    {
      "hash": "0x67096e753adedbfe55e51cc9de8c1b9aebe902b297081012cd7aa34431a31ffc",
      "transactionType": "CALL",
      "contractName": null,
      "contractAddress": "0xeb69e0a689e8a6fbdfa72b9d2882481512c783b7",
      "function": "multicall(bytes[])",
      "arguments": [
        "[0x7d39aaf100000000000000000000000085386b4ebbe55024aeccfd8a5fd215a7938907300000000000000000000000000000000000000000000000000de0b6b3a7640000, 0xe6d66ac800000000000000000000000037c15a5f7c7d8d4c707d44ff7e3ad696dda85d0700000000000000000000000085386b4ebbe55024aeccfd8a5fd215a7938907300000000000000000000000000000000000000000000000000de0b6b3a7640000, 0x1ddbdd20000000000000000000000000e2bc073e0d55274dba18a0e11463a5dfd16c5057000000000000000000000000e2bc073e0d55274dba18a0e11463a5dfd16c505700000000000000000000000000000000000000000000000000000000000000000000000000000000000000000000000000000000000000000000000000000000000000000000000000000000217c52954ef4a9f7b334333fda22c609ff3e62bc00000000000000000000000037c15a5f7c7d8d4c707d44ff7e3ad696dda85d0700000000000000000000000000000000000000000000000000000000000000000000000000000000000000000000000000000000000000056bc75e2d631000000000000000000000000000000000000000000000000000000de0b6b3a76400000000000000000000000000000000000000000000000000a2a15d09519be000000000000000000000000000000000000000000000000000b2e4b323d9c5100000000000000000000000000000000000000000000000000000000000003b9aca00000000000000000000000000000000000000000000000000000000000000000000000000000000000000000000000000000000000000000000000000000000010000000000000000000000000000000000000000000000000000000000000000]"
      ],
      "transaction": {
        "from": "0xe2bc073e0d55274dba18a0e11463a5dfd16c5057",
        "to": "0xeb69e0a689e8a6fbdfa72b9d2882481512c783b7",
        "gas": "0x92abb",
        "value": "0x0",
        "input": "0xac9650d800000000000000000000000000000000000000000000000000000000000000200000000000000000000000000000000000000000000000000000000000000003000000000000000000000000000000000000000000000000000000000000006000000000000000000000000000000000000000000000000000000000000000e0000000000000000000000000000000000000000000000000000000000000018000000000000000000000000000000000000000000000000000000000000000447d39aaf100000000000000000000000085386b4ebbe55024aeccfd8a5fd215a7938907300000000000000000000000000000000000000000000000000de0b6b3a7640000000000000000000000000000000000000000000000000000000000000000000000000000000000000000000000000000000000000000000000000064e6d66ac800000000000000000000000037c15a5f7c7d8d4c707d44ff7e3ad696dda85d0700000000000000000000000085386b4ebbe55024aeccfd8a5fd215a7938907300000000000000000000000000000000000000000000000000de0b6b3a76400000000000000000000000000000000000000000000000000000000000000000000000000000000000000000000000000000000000000000000000001e41ddbdd20000000000000000000000000e2bc073e0d55274dba18a0e11463a5dfd16c5057000000000000000000000000e2bc073e0d55274dba18a0e11463a5dfd16c505700000000000000000000000000000000000000000000000000000000000000000000000000000000000000000000000000000000000000000000000000000000000000000000000000000000217c52954ef4a9f7b334333fda22c609ff3e62bc00000000000000000000000037c15a5f7c7d8d4c707d44ff7e3ad696dda85d0700000000000000000000000000000000000000000000000000000000000000000000000000000000000000000000000000000000000000056bc75e2d631000000000000000000000000000000000000000000000000000000de0b6b3a76400000000000000000000000000000000000000000000000000a2a15d09519be000000000000000000000000000000000000000000000000000b2e4b323d9c5100000000000000000000000000000000000000000000000000000000000003b9aca0000000000000000000000000000000000000000000000000000000000000000000000000000000000000000000000000000000000000000000000000000000001000000000000000000000000000000000000000000000000000000000000000000000000000000000000000000000000000000000000000000000000",
        "nonce": "0x58",
        "chainId": "0xaa39db"
      },
      "additionalContracts": [],
      "isFixedGasLimit": false
    }
  ],
  "receipts": [
    {
      "status": "0x1",
      "cumulativeGasUsed": "0x11424",
      "logs": [
        {
          "address": "0x37c15a5f7c7d8d4c707d44ff7e3ad696dda85d07",
          "topics": [
            "0x8c5be1e5ebec7d5bd14f71427d1e84f3dd0314c0f7b2291e5b200ac8c7c3b925",
            "0x000000000000000000000000e2bc073e0d55274dba18a0e11463a5dfd16c5057",
            "0x000000000000000000000000eb69e0a689e8a6fbdfa72b9d2882481512c783b7"
          ],
          "data": "0xffffffffffffffffffffffffffffffffffffffffffffffffffffffffffffffff",
          "blockHash": "0x435c684a85bef6134a3a31fa38df0ae48ee09b771efff7be5202546320f41896",
          "blockNumber": "0x4e71ad",
          "blockTimestamp": "0x67b9cc25",
          "transactionHash": "0x50dada8498a43313b1884cc98a1b1d2b8ed58ab33149f02194d5c464febda3bc",
          "transactionIndex": "0x1",
          "logIndex": "0x0",
          "removed": false
        }
      ],
      "logsBloom": "0x00000000000000000000000000000000000000000000000000000000000000000000000000000000000000000000000000000000000000000004000000200000000000000000000000000000000000001000000000000000008000000000000000000000000000000000000004000000000000000000000000000000000000000000000000000000000000000000000000000000000000000000000000000000020000000010000000000000000000000000000000000000000000000000000000000000000000000000000008008000000000000000000000020000000000000010000400000000000000000000000000000000000000000000000000000000",
      "type": "0x2",
      "transactionHash": "0x50dada8498a43313b1884cc98a1b1d2b8ed58ab33149f02194d5c464febda3bc",
      "transactionIndex": "0x1",
      "blockHash": "0x435c684a85bef6134a3a31fa38df0ae48ee09b771efff7be5202546320f41896",
      "blockNumber": "0x4e71ad",
      "gasUsed": "0x689a",
      "effectiveGasPrice": "0x8",
      "from": "0xe2bc073e0d55274dba18a0e11463a5dfd16c5057",
      "to": "0x37c15a5f7c7d8d4c707d44ff7e3ad696dda85d07",
      "contractAddress": null,
      "l1BaseFeeScalar": "0x558",
      "l1BlobBaseFee": "0xe09386b",
      "l1BlobBaseFeeScalar": "0xc5fc5",
      "l1Fee": "0x5e24d27ff",
      "l1GasPrice": "0xa8270419",
      "l1GasUsed": "0x640"
    },
    {
      "status": "0x1",
      "cumulativeGasUsed": "0x74e89",
      "logs": [
        {
          "address": "0x37c15a5f7c7d8d4c707d44ff7e3ad696dda85d07",
          "topics": [
            "0xddf252ad1be2c89b69c2b068fc378daa952ba7f163c4a11628f55a4df523b3ef",
            "0x000000000000000000000000e2bc073e0d55274dba18a0e11463a5dfd16c5057",
            "0x00000000000000000000000085386b4ebbe55024aeccfd8a5fd215a793890730"
          ],
          "data": "0x0000000000000000000000000000000000000000000000000de0b6b3a7640000",
          "blockHash": "0xe9338548d051a4520a4a845663a23dc7b65cd0786ef63db954e5c09111c7b7a7",
          "blockNumber": "0x4e71ae",
          "blockTimestamp": "0x67b9cc26",
          "transactionHash": "0x67096e753adedbfe55e51cc9de8c1b9aebe902b297081012cd7aa34431a31ffc",
          "transactionIndex": "0x1",
          "logIndex": "0x0",
          "removed": false
        },
        {
          "address": "0x37c15a5f7c7d8d4c707d44ff7e3ad696dda85d07",
          "topics": [
            "0xddf252ad1be2c89b69c2b068fc378daa952ba7f163c4a11628f55a4df523b3ef",
            "0x000000000000000000000000e2bc073e0d55274dba18a0e11463a5dfd16c5057",
            "0x00000000000000000000000085386b4ebbe55024aeccfd8a5fd215a793890730"
          ],
          "data": "0x0000000000000000000000000000000000000000000000000de0b6b3a7640000",
          "blockHash": "0xe9338548d051a4520a4a845663a23dc7b65cd0786ef63db954e5c09111c7b7a7",
          "blockNumber": "0x4e71ae",
          "blockTimestamp": "0x67b9cc26",
          "transactionHash": "0x67096e753adedbfe55e51cc9de8c1b9aebe902b297081012cd7aa34431a31ffc",
          "transactionIndex": "0x1",
          "logIndex": "0x1",
          "removed": false
        },
        {
          "address": "0x7814362bc8767568f5f1e2829fc4b9ccddc8c986",
          "topics": [
            "0x738b9309a8064f4f5bcdaf8cd252de15afc18a05840337e438c744f321b7a597"
          ],
          "data": "0x0000000000000000000000000000000000000000000000000000000000000000000000000000000000000000e2bc073e0d55274dba18a0e11463a5dfd16c5057000000000000000000000000e2bc073e0d55274dba18a0e11463a5dfd16c5057000000000000000000000000e2bc073e0d55274dba18a0e11463a5dfd16c505700000000000000000000000000000000000000000000000000000000000000000000000000000000000000000000000000000000000000000000000000000000000000000000000000000000217c52954ef4a9f7b334333fda22c609ff3e62bc00000000000000000000000037c15a5f7c7d8d4c707d44ff7e3ad696dda85d0700000000000000000000000000000000000000000000000000000000000000000000000000000000000000000000000000000000000000056bc75e2d631000000000000000000000000000000000000000000000000000001bc16d67132d36000000000000000000000000000000000000000000000000a2a15d09519be000000000000000000000000000000000000000000000000000b2e4b323d9c5100000000000000000000000000000000000000000000000000000000000003b9aca000000000000000000000000000000000000000000000000000000000067b9cc26000000000000000000000000000000000000000000000000000000000000000000000000000000000000000000000000000000000000000000000000000000010000000000000000000000000000000000000000000000000000000000000000",
          "blockHash": "0xe9338548d051a4520a4a845663a23dc7b65cd0786ef63db954e5c09111c7b7a7",
          "blockNumber": "0x4e71ae",
          "blockTimestamp": "0x67b9cc26",
          "transactionHash": "0x67096e753adedbfe55e51cc9de8c1b9aebe902b297081012cd7aa34431a31ffc",
          "transactionIndex": "0x1",
          "logIndex": "0x2",
          "removed": false
        }
      ],
      "logsBloom": "0x00000000000000002000000000000000000000000000001010000000000000000000000000000000000000000000000000000000000008000000000000000020000000000000000000000008000000001000000000000000008000000000000000000000000000000000000004000000000000000000000000000010000000000000000000040000200000000000000000000000000000000000000000000010000000000010000000000000000000000000000000000000000000040000000000000002000000000000000000008000000000000000000000000000000000000000000400000000000000000000000000000000000000000000000000000000",
      "type": "0x2",
      "transactionHash": "0x67096e753adedbfe55e51cc9de8c1b9aebe902b297081012cd7aa34431a31ffc",
      "transactionIndex": "0x1",
      "blockHash": "0xe9338548d051a4520a4a845663a23dc7b65cd0786ef63db954e5c09111c7b7a7",
      "blockNumber": "0x4e71ae",
      "gasUsed": "0x6a2ff",
      "effectiveGasPrice": "0x8",
      "from": "0xe2bc073e0d55274dba18a0e11463a5dfd16c5057",
      "to": "0xeb69e0a689e8a6fbdfa72b9d2882481512c783b7",
      "contractAddress": null,
      "l1BaseFeeScalar": "0x558",
      "l1BlobBaseFee": "0xe09386b",
      "l1BlobBaseFeeScalar": "0xc5fc5",
      "l1Fee": "0xf369bc84f",
      "l1GasPrice": "0xa8270419",
      "l1GasUsed": "0x1028"
    }
  ],
  "libraries": [],
  "pending": [],
  "returns": {},
  "timestamp": 1740229671,
  "chain": 11155931,
  "commit": "35df5d8"
}