{
  "transactions": [
    {
      "hash": "0x8a5e0ff297671c511a010a7c8388b668c889d763e43459c0619029eea5aade67",
      "transactionType": "CALL",
      "contractName": null,
      "contractAddress": "0x97f3d75fcc683c8f557d637196857fa303f7cebd",
      "function": "approve(address,uint256)",
      "arguments": [
        "0x1b191f344d99a8e8fd09EB33fcBe93396d120339",
        "115792089237316195423570985008687907853269984665640564039457584007913129639935"
      ],
      "transaction": {
        "from": "0x6efb11ac41b6657c32dac5ed4874082c700bba29",
        "to": "0x97f3d75fcc683c8f557d637196857fa303f7cebd",
        "gas": "0x9382",
        "value": "0x0",
        "input": "0x095ea7b30000000000000000000000001b191f344d99a8e8fd09eb33fcbe93396d120339ffffffffffffffffffffffffffffffffffffffffffffffffffffffffffffffff",
        "nonce": "0x49",
        "chainId": "0x279f"
      },
      "additionalContracts": [],
      "isFixedGasLimit": false
    },
    {
      "hash": "0x526fb5ec8c90ee7a316c75978f267888f6c9db3eab7254538a1d236727f89ffd",
      "transactionType": "CALL",
      "contractName": null,
      "contractAddress": "0x1b191f344d99a8e8fd09eb33fcbe93396d120339",
      "function": "multicall(bytes[])",
      "arguments": [
        "[0x7d39aaf100000000000000000000000094126ff4de4a2a02d8fa155158f0e7a5f614ee8c00000000000000000000000000000000000000000000000000000002540be400, 0xe6d66ac800000000000000000000000097f3d75fcc683c8f557d637196857fa303f7cebd00000000000000000000000094126ff4de4a2a02d8fa155158f0e7a5f614ee8c0000000000000000000000000000000000000000000000000de0b6b3a7640000, 0x1ddbdd200000000000000000000000006efb11ac41b6657c32dac5ed4874082c700bba290000000000000000000000006efb11ac41b6657c32dac5ed4874082c700bba2900000000000000000000000000000000000000000000000000000000000000000000000000000000000000000000000000000000000000000000000000000000000000000000000000000000fd16ef40c3a301f7063a1f9c28b90957df07158300000000000000000000000097f3d75fcc683c8f557d637196857fa303f7cebd000000000000000000000000000000000000000000000000000000000000000000000000000000000000000000000000000000000000065a4da25d3016c000000000000000000000000000000000000000000000000000000de0b6b3a76400000000000000000000000000000000000000000000000000a2a15d09519be000000000000000000000000000000000000000000000000000b2e4b323d9c510000000000000000000000000000000000000000000000000000000000002540be400000000000000000000000000000000000000000000000000000000000000000000000000000000000000000000000000000000000000000000000000000000010000000000000000000000000000000000000000000000000000000000000000]"
      ],
      "transaction": {
        "from": "0x6efb11ac41b6657c32dac5ed4874082c700bba29",
        "to": "0x1b191f344d99a8e8fd09eb33fcbe93396d120339",
        "gas": "0x9c23a",
        "value": "0x0",
        "input": "0xac9650d800000000000000000000000000000000000000000000000000000000000000200000000000000000000000000000000000000000000000000000000000000003000000000000000000000000000000000000000000000000000000000000006000000000000000000000000000000000000000000000000000000000000000e0000000000000000000000000000000000000000000000000000000000000018000000000000000000000000000000000000000000000000000000000000000447d39aaf100000000000000000000000094126ff4de4a2a02d8fa155158f0e7a5f614ee8c00000000000000000000000000000000000000000000000000000002540be400000000000000000000000000000000000000000000000000000000000000000000000000000000000000000000000000000000000000000000000064e6d66ac800000000000000000000000097f3d75fcc683c8f557d637196857fa303f7cebd00000000000000000000000094126ff4de4a2a02d8fa155158f0e7a5f614ee8c0000000000000000000000000000000000000000000000000de0b6b3a76400000000000000000000000000000000000000000000000000000000000000000000000000000000000000000000000000000000000000000000000001e41ddbdd200000000000000000000000006efb11ac41b6657c32dac5ed4874082c700bba290000000000000000000000006efb11ac41b6657c32dac5ed4874082c700bba2900000000000000000000000000000000000000000000000000000000000000000000000000000000000000000000000000000000000000000000000000000000000000000000000000000000fd16ef40c3a301f7063a1f9c28b90957df07158300000000000000000000000097f3d75fcc683c8f557d637196857fa303f7cebd000000000000000000000000000000000000000000000000000000000000000000000000000000000000000000000000000000000000065a4da25d3016c000000000000000000000000000000000000000000000000000000de0b6b3a76400000000000000000000000000000000000000000000000000a2a15d09519be000000000000000000000000000000000000000000000000000b2e4b323d9c510000000000000000000000000000000000000000000000000000000000002540be40000000000000000000000000000000000000000000000000000000000000000000000000000000000000000000000000000000000000000000000000000000001000000000000000000000000000000000000000000000000000000000000000000000000000000000000000000000000000000000000000000000000",
        "nonce": "0x4a",
        "chainId": "0x279f"
      },
      "additionalContracts": [],
      "isFixedGasLimit": false
    }
  ],
  "receipts": [
    {
      "status": "0x1",
      "cumulativeGasUsed": "0x7edbda",
      "logs": [
        {
          "address": "0x97f3d75fcc683c8f557d637196857fa303f7cebd",
          "topics": [
            "0x8c5be1e5ebec7d5bd14f71427d1e84f3dd0314c0f7b2291e5b200ac8c7c3b925",
            "0x0000000000000000000000006efb11ac41b6657c32dac5ed4874082c700bba29",
            "0x0000000000000000000000001b191f344d99a8e8fd09eb33fcbe93396d120339"
          ],
          "data": "0xffffffffffffffffffffffffffffffffffffffffffffffffffffffffffffffff",
          "blockHash": "0xdd443d86a062b5e2e27683633d2354b3e12762cea6dbd0933bec4c7642cc884f",
          "blockNumber": "0x6699f4",
          "blockTimestamp": "0x67cbce3b",
          "transactionHash": "0x8a5e0ff297671c511a010a7c8388b668c889d763e43459c0619029eea5aade67",
          "transactionIndex": "0x2e",
          "logIndex": "0x5c",
          "removed": false
        }
      ],
      "logsBloom": "0x00000000000000000200000000800000000000000000000000000000000000000080000000000000000000000000000000000000002100000000000000200000000000000000000000000000000000000002000000000100000000000000000000000000000000000000000000000000000000000000000000000000000000000000000000000000000000000000000000000000000000000000000000000000020000000000000000000000000000000000000000000000000001000000000000000000000000000000000000000000000000000000000000000010000000000010000000000000000000000000000000000000000000000000000000000000",
      "type": "0x2",
      "transactionHash": "0x8a5e0ff297671c511a010a7c8388b668c889d763e43459c0619029eea5aade67",
      "transactionIndex": "0x2e",
      "blockHash": "0xdd443d86a062b5e2e27683633d2354b3e12762cea6dbd0933bec4c7642cc884f",
      "blockNumber": "0x6699f4",
      "gasUsed": "0x9382",
      "effectiveGasPrice": "0xba43b7401",
      "from": "0x6efb11ac41b6657c32dac5ed4874082c700bba29",
      "to": "0x97f3d75fcc683c8f557d637196857fa303f7cebd",
      "contractAddress": null
    },
    {
      "status": "0x1",
      "cumulativeGasUsed": "0x889e14",
      "logs": [
        {
          "address": "0x97f3d75fcc683c8f557d637196857fa303f7cebd",
          "topics": [
            "0xddf252ad1be2c89b69c2b068fc378daa952ba7f163c4a11628f55a4df523b3ef",
            "0x0000000000000000000000006efb11ac41b6657c32dac5ed4874082c700bba29",
            "0x00000000000000000000000094126ff4de4a2a02d8fa155158f0e7a5f614ee8c"
          ],
          "data": "0x00000000000000000000000000000000000000000000000000000002540be400",
          "blockHash": "0xdd443d86a062b5e2e27683633d2354b3e12762cea6dbd0933bec4c7642cc884f",
          "blockNumber": "0x6699f4",
          "blockTimestamp": "0x67cbce3b",
          "transactionHash": "0x526fb5ec8c90ee7a316c75978f267888f6c9db3eab7254538a1d236727f89ffd",
          "transactionIndex": "0x2f",
          "logIndex": "0x5d",
          "removed": false
        },
        {
          "address": "0x97f3d75fcc683c8f557d637196857fa303f7cebd",
          "topics": [
            "0xddf252ad1be2c89b69c2b068fc378daa952ba7f163c4a11628f55a4df523b3ef",
            "0x0000000000000000000000006efb11ac41b6657c32dac5ed4874082c700bba29",
            "0x00000000000000000000000094126ff4de4a2a02d8fa155158f0e7a5f614ee8c"
          ],
          "data": "0x0000000000000000000000000000000000000000000000000de0b6b3a7640000",
          "blockHash": "0xdd443d86a062b5e2e27683633d2354b3e12762cea6dbd0933bec4c7642cc884f",
          "blockNumber": "0x6699f4",
          "blockTimestamp": "0x67cbce3b",
          "transactionHash": "0x526fb5ec8c90ee7a316c75978f267888f6c9db3eab7254538a1d236727f89ffd",
          "transactionIndex": "0x2f",
          "logIndex": "0x5e",
          "removed": false
        },
        {
          "address": "0xd89707ab6a869341b4143c0dab2ae7a80c96324a",
          "topics": [
            "0x982103f3bd0079a3015fd3f668fa64c4ac330de26ba95c48ac8cdf93bd004a32"
          ],
          "data": "0x00000000000000000000000000000000000000000000000000000000000000000000000000000000000000006efb11ac41b6657c32dac5ed4874082c700bba290000000000000000000000006efb11ac41b6657c32dac5ed4874082c700bba290000000000000000000000006efb11ac41b6657c32dac5ed4874082c700bba2900000000000000000000000000000000000000000000000000000000000000000000000000000000000000000000000000000000000000000000000000000000000000000000000000000000fd16ef40c3a301f7063a1f9c28b90957df07158300000000000000000000000097f3d75fcc683c8f557d637196857fa303f7cebd000000000000000000000000000000000000000000000000000000000000000000000000000000000000000000000000000000000000065a4da25d3016c000000000000000000000000000000000000000000000000000000de0b6b3a76400000000000000000000000000000000000000000000000000a2a15d09519be000000000000000000000000000000000000000000000000000b2e4b323d9c510000000000000000000000000000000000000000000000000000000000002540be4000000000000000000000000000000000000000000000000000000000067cbce3b000000000000000000000000000000000000000000000000000000000000000000000000000000000000000000000000000000000000000000000000000000010000000000000000000000000000000000000000000000000000000000000000",
          "blockHash": "0xdd443d86a062b5e2e27683633d2354b3e12762cea6dbd0933bec4c7642cc884f",
          "blockNumber": "0x6699f4",
          "blockTimestamp": "0x67cbce3b",
          "transactionHash": "0x526fb5ec8c90ee7a316c75978f267888f6c9db3eab7254538a1d236727f89ffd",
          "transactionIndex": "0x2f",
          "logIndex": "0x5f",
          "removed": false
        }
      ],
      "logsBloom": "0x00000000000000000200000000100000000000000000000000000020000008000080000000000000000000040000000000000000000100000000000000000000000000000000000000000008000000000006000000000100000000000000000000000000000000000000000000000000000000020000000000000010000000000000000000000000000000000000000000000000000000000000000004000000000000000000000000000000000000000000000000000000000001000000000000000002000000000000000000000000008000000000000000000000000000000000000000008000000000000000000000000000000000000000000000000000",
      "type": "0x2",
      "transactionHash": "0x526fb5ec8c90ee7a316c75978f267888f6c9db3eab7254538a1d236727f89ffd",
      "transactionIndex": "0x2f",
      "blockHash": "0xdd443d86a062b5e2e27683633d2354b3e12762cea6dbd0933bec4c7642cc884f",
      "blockNumber": "0x6699f4",
      "gasUsed": "0x9c23a",
      "effectiveGasPrice": "0xba43b7401",
      "from": "0x6efb11ac41b6657c32dac5ed4874082c700bba29",
      "to": "0x1b191f344d99a8e8fd09eb33fcbe93396d120339",
      "contractAddress": null
    }
  ],
  "libraries": [],
  "pending": [],
  "returns": {},
  "timestamp": 1741409853,
  "chain": 10143,
  "commit": "75ade75"
}