{
  "transactions": [
    {
      "hash": "0xdf048834d9ca87f8e790537cf2bac317a7d7cf89728860eddb1ff7fb57e4818d",
      "transactionType": "CALL",
      "contractName": null,
      "contractAddress": "0x2c53ce7143d24a65410107f50e4aabad9a164480",
      "function": "mint(address,uint256)",
      "arguments": [
        "0x6EFb11aC41B6657c32dAc5Ed4874082C700BbA29",
        "10000000000000000000"
      ],
      "transaction": {
        "from": "0x6efb11ac41b6657c32dac5ed4874082c700bba29",
        "to": "0x2c53ce7143d24a65410107f50e4aabad9a164480",
        "gas": "0xc1a6",
        "value": "0x0",
        "input": "0x40c10f190000000000000000000000006efb11ac41b6657c32dac5ed4874082c700bba290000000000000000000000000000000000000000000000008ac7230489e80000",
        "nonce": "0x1f5",
        "chainId": "0x279f"
      },
      "additionalContracts": [],
      "isFixedGasLimit": false
    },
    {
      "hash": "0xca111fd22bc30d4d462773e3646b6bb9c8b3eadc5d7383f99677f09639b2ad3f",
      "transactionType": "CALL",
      "contractName": null,
      "contractAddress": "0x53f7c389cbb801e2abfd301ded6d2a1cf330ac0d",
      "function": "mint(address,uint256)",
      "arguments": [
        "0x6EFb11aC41B6657c32dAc5Ed4874082C700BbA29",
        "1000000000000000000"
      ],
      "transaction": {
        "from": "0x6efb11ac41b6657c32dac5ed4874082c700bba29",
        "to": "0x53f7c389cbb801e2abfd301ded6d2a1cf330ac0d",
        "gas": "0xc1a6",
        "value": "0x0",
        "input": "0x40c10f190000000000000000000000006efb11ac41b6657c32dac5ed4874082c700bba290000000000000000000000000000000000000000000000000de0b6b3a7640000",
        "nonce": "0x1f6",
        "chainId": "0x279f"
      },
      "additionalContracts": [],
      "isFixedGasLimit": false
    },
    {
      "hash": "0xfe95c1090d8652099e76e68219e89bc0494826abb896530e2adc4867eada6d0f",
      "transactionType": "CALL",
      "contractName": null,
      "contractAddress": "0xf9861d7478f8957679b26404bd6272c39f949c29",
      "function": "mint(address,uint256)",
      "arguments": [
        "0x6EFb11aC41B6657c32dAc5Ed4874082C700BbA29",
        "1000000000000000000000000"
      ],
      "transaction": {
        "from": "0x6efb11ac41b6657c32dac5ed4874082c700bba29",
        "to": "0xf9861d7478f8957679b26404bd6272c39f949c29",
        "gas": "0xb6f4",
        "value": "0x0",
        "input": "0x40c10f190000000000000000000000006efb11ac41b6657c32dac5ed4874082c700bba2900000000000000000000000000000000000000000000d3c21bcecceda1000000",
        "nonce": "0x1f7",
        "chainId": "0x279f"
      },
      "additionalContracts": [],
      "isFixedGasLimit": false
    },
    {
      "hash": "0x087a7ddb276773cff895bd63fd696b71752aec7b9e342e6e86f45ca4c987842a",
      "transactionType": "CALL",
      "contractName": null,
      "contractAddress": "0x1889cfb8746716a0ac50e59a54f190987c5f04e6",
      "function": "mint(address,uint256)",
      "arguments": [
        "0x6EFb11aC41B6657c32dAc5Ed4874082C700BbA29",
        "10000000000000000000000"
      ],
      "transaction": {
        "from": "0x6efb11ac41b6657c32dac5ed4874082c700bba29",
        "to": "0x1889cfb8746716a0ac50e59a54f190987c5f04e6",
        "gas": "0xc1c9",
        "value": "0x0",
        "input": "0x40c10f190000000000000000000000006efb11ac41b6657c32dac5ed4874082c700bba2900000000000000000000000000000000000000000000021e19e0c9bab2400000",
        "nonce": "0x1f8",
        "chainId": "0x279f"
      },
      "additionalContracts": [],
      "isFixedGasLimit": false
    },
    {
      "hash": "0xafe86697892c0e86d817cb11385ea43469e904cc3c71106adfe1fca524cb8061",
      "transactionType": "CALL",
      "contractName": null,
      "contractAddress": "0x6bc8a42d4b2f4bc8e4c3f9ecff00b7290ffa7405",
      "function": "mint(address,uint256)",
      "arguments": [
        "0x6EFb11aC41B6657c32dAc5Ed4874082C700BbA29",
        "10000000000000000000000"
      ],
      "transaction": {
        "from": "0x6efb11ac41b6657c32dac5ed4874082c700bba29",
        "to": "0x6bc8a42d4b2f4bc8e4c3f9ecff00b7290ffa7405",
        "gas": "0xc1c9",
        "value": "0x0",
        "input": "0x40c10f190000000000000000000000006efb11ac41b6657c32dac5ed4874082c700bba2900000000000000000000000000000000000000000000021e19e0c9bab2400000",
        "nonce": "0x1f9",
        "chainId": "0x279f"
      },
      "additionalContracts": [],
      "isFixedGasLimit": false
    },
    {
      "hash": "0x2d71081b412192d12a9a7925c98f29e8296441bded64faf8143da8dcd6ddb93e",
      "transactionType": "CALL",
      "contractName": null,
      "contractAddress": "0xe3f98fda6dbd38c1017754f1675dce377381c23c",
      "function": "mint(address,uint256)",
      "arguments": [
        "0x6EFb11aC41B6657c32dAc5Ed4874082C700BbA29",
        "1000000000000000000000"
      ],
      "transaction": {
        "from": "0x6efb11ac41b6657c32dac5ed4874082c700bba29",
        "to": "0xe3f98fda6dbd38c1017754f1675dce377381c23c",
        "gas": "0xb6f4",
        "value": "0x0",
        "input": "0x40c10f190000000000000000000000006efb11ac41b6657c32dac5ed4874082c700bba2900000000000000000000000000000000000000000000003635c9adc5dea00000",
        "nonce": "0x1fa",
        "chainId": "0x279f"
      },
      "additionalContracts": [],
      "isFixedGasLimit": false
    },
    {
      "hash": "0x02ce79c99b9345f4d5c131a9b00b3a0a4b2ad44b608f310870632f97c4621e06",
      "transactionType": "CALL",
      "contractName": null,
      "contractAddress": "0x2c53ce7143d24a65410107f50e4aabad9a164480",
      "function": "approve(address,uint256)",
      "arguments": [
        "0x8cB82FfCA2eA57B29aD137b9a8cDCa718233ff96",
        "115792089237316195423570985008687907853269984665640564039457584007913129639935"
      ],
      "transaction": {
        "from": "0x6efb11ac41b6657c32dac5ed4874082c700bba29",
        "to": "0x2c53ce7143d24a65410107f50e4aabad9a164480",
        "gas": "0x96a4",
        "value": "0x0",
        "input": "0x095ea7b30000000000000000000000008cb82ffca2ea57b29ad137b9a8cdca718233ff96ffffffffffffffffffffffffffffffffffffffffffffffffffffffffffffffff",
        "nonce": "0x1fb",
        "chainId": "0x279f"
      },
      "additionalContracts": [],
      "isFixedGasLimit": false
    },
    {
      "hash": "0xeff91e516580c739ab7a30dc7db44cf3eff1bcb11f01059004a8631effe213c3",
      "transactionType": "CALL",
      "contractName": null,
      "contractAddress": "0x53f7c389cbb801e2abfd301ded6d2a1cf330ac0d",
      "function": "approve(address,uint256)",
      "arguments": [
        "0x8cB82FfCA2eA57B29aD137b9a8cDCa718233ff96",
        "115792089237316195423570985008687907853269984665640564039457584007913129639935"
      ],
      "transaction": {
        "from": "0x6efb11ac41b6657c32dac5ed4874082c700bba29",
        "to": "0x53f7c389cbb801e2abfd301ded6d2a1cf330ac0d",
        "gas": "0x96a4",
        "value": "0x0",
        "input": "0x095ea7b30000000000000000000000008cb82ffca2ea57b29ad137b9a8cdca718233ff96ffffffffffffffffffffffffffffffffffffffffffffffffffffffffffffffff",
        "nonce": "0x1fc",
        "chainId": "0x279f"
      },
      "additionalContracts": [],
      "isFixedGasLimit": false
    },
    {
      "hash": "0xeb1f94aab3b4126e0fd71cc94aecbad7b140346cfa49e5045e8d043576e857e7",
      "transactionType": "CALL",
      "contractName": null,
      "contractAddress": "0xf9861d7478f8957679b26404bd6272c39f949c29",
      "function": "approve(address,uint256)",
      "arguments": [
        "0x8cB82FfCA2eA57B29aD137b9a8cDCa718233ff96",
        "115792089237316195423570985008687907853269984665640564039457584007913129639935"
      ],
      "transaction": {
        "from": "0x6efb11ac41b6657c32dac5ed4874082c700bba29",
        "to": "0xf9861d7478f8957679b26404bd6272c39f949c29",
        "gas": "0x96a4",
        "value": "0x0",
        "input": "0x095ea7b30000000000000000000000008cb82ffca2ea57b29ad137b9a8cdca718233ff96ffffffffffffffffffffffffffffffffffffffffffffffffffffffffffffffff",
        "nonce": "0x1fd",
        "chainId": "0x279f"
      },
      "additionalContracts": [],
      "isFixedGasLimit": false
    },
    {
      "hash": "0x8acde7363bc05cf5a6db047b0abc656f6948930e4ccb00c8ff399d820d5ad5e1",
      "transactionType": "CALL",
      "contractName": null,
      "contractAddress": "0x1889cfb8746716a0ac50e59a54f190987c5f04e6",
      "function": "approve(address,uint256)",
      "arguments": [
        "0x8cB82FfCA2eA57B29aD137b9a8cDCa718233ff96",
        "115792089237316195423570985008687907853269984665640564039457584007913129639935"
      ],
      "transaction": {
        "from": "0x6efb11ac41b6657c32dac5ed4874082c700bba29",
        "to": "0x1889cfb8746716a0ac50e59a54f190987c5f04e6",
        "gas": "0x96a4",
        "value": "0x0",
        "input": "0x095ea7b30000000000000000000000008cb82ffca2ea57b29ad137b9a8cdca718233ff96ffffffffffffffffffffffffffffffffffffffffffffffffffffffffffffffff",
        "nonce": "0x1fe",
        "chainId": "0x279f"
      },
      "additionalContracts": [],
      "isFixedGasLimit": false
    },
    {
      "hash": "0x1b512dd5e135edee9dc186a182de110e1c7c2679799c425b4b86ddb45b936096",
      "transactionType": "CALL",
      "contractName": null,
      "contractAddress": "0x6bc8a42d4b2f4bc8e4c3f9ecff00b7290ffa7405",
      "function": "approve(address,uint256)",
      "arguments": [
        "0x8cB82FfCA2eA57B29aD137b9a8cDCa718233ff96",
        "115792089237316195423570985008687907853269984665640564039457584007913129639935"
      ],
      "transaction": {
        "from": "0x6efb11ac41b6657c32dac5ed4874082c700bba29",
        "to": "0x6bc8a42d4b2f4bc8e4c3f9ecff00b7290ffa7405",
        "gas": "0x96a4",
        "value": "0x0",
        "input": "0x095ea7b30000000000000000000000008cb82ffca2ea57b29ad137b9a8cdca718233ff96ffffffffffffffffffffffffffffffffffffffffffffffffffffffffffffffff",
        "nonce": "0x1ff",
        "chainId": "0x279f"
      },
      "additionalContracts": [],
      "isFixedGasLimit": false
    },
    {
      "hash": "0x0f90f9b8bec283ba4d270929ade0652e5a24a9516673440af5b27896a2e226c1",
      "transactionType": "CALL",
      "contractName": null,
      "contractAddress": "0xe3f98fda6dbd38c1017754f1675dce377381c23c",
      "function": "approve(address,uint256)",
      "arguments": [
        "0x8cB82FfCA2eA57B29aD137b9a8cDCa718233ff96",
        "115792089237316195423570985008687907853269984665640564039457584007913129639935"
      ],
      "transaction": {
        "from": "0x6efb11ac41b6657c32dac5ed4874082c700bba29",
        "to": "0xe3f98fda6dbd38c1017754f1675dce377381c23c",
        "gas": "0x96a4",
        "value": "0x0",
        "input": "0x095ea7b30000000000000000000000008cb82ffca2ea57b29ad137b9a8cdca718233ff96ffffffffffffffffffffffffffffffffffffffffffffffffffffffffffffffff",
        "nonce": "0x200",
        "chainId": "0x279f"
      },
      "additionalContracts": [],
      "isFixedGasLimit": false
    },
    {
      "hash": "0xecf80fd8d02a38a85a4613573eb6d7ea6cdfc79ef4f56bd1795fb7986182ab5a",
      "transactionType": "CALL",
      "contractName": null,
      "contractAddress": "0x8cb82ffca2ea57b29ad137b9a8cdca718233ff96",
      "function": "multicall(bytes[])",
      "arguments": [
        "[0x7d39aaf1000000000000000000000000d7b397039e36f9b665a32d24d150ee1f0029d10a000000000000000000000000000000000000000000000000000000003b9aca00, 0xe6d66ac80000000000000000000000002c53ce7143d24a65410107f50e4aabad9a164480000000000000000000000000d7b397039e36f9b665a32d24d150ee1f0029d10a000000000000000000000000000000000000000000000000016345785d8a0000, 0x1ddbdd200000000000000000000000006efb11ac41b6657c32dac5ed4874082c700bba290000000000000000000000006efb11ac41b6657c32dac5ed4874082c700bba29000000000000000000000000000000000000000000000000000000000000000000000000000000000000000000000000000000000000000000000000000000000000000000000000000000000e87d21bd714d3391e992227e472517a9dc16a240000000000000000000000002c53ce7143d24a65410107f50e4aabad9a164480000000000000000000000000000000000000000000000000000000000000000000000000000000000000000000000000000000000000006c6b935b8bbd400000000000000000000000000000000000000000000000000000016345785d8a00000000000000000000000000000000000000000000000000000000000000000000ffffffffffffffffffffffffffffffffffffffffffffffffffffffffffffffff000000000000000000000000000000000000000000000000000000003b9aca00000000000000000000000000000000000000000000000000000000000000000000000000000000000000000000000000000000000000000000000000000000010000000000000000000000000000000000000000000000000000000000000000]"
      ],
      "transaction": {
        "from": "0x6efb11ac41b6657c32dac5ed4874082c700bba29",
        "to": "0x8cb82ffca2ea57b29ad137b9a8cdca718233ff96",
        "gas": "0x7b121",
        "value": "0x0",
        "input": "0xac9650d800000000000000000000000000000000000000000000000000000000000000200000000000000000000000000000000000000000000000000000000000000003000000000000000000000000000000000000000000000000000000000000006000000000000000000000000000000000000000000000000000000000000000e0000000000000000000000000000000000000000000000000000000000000018000000000000000000000000000000000000000000000000000000000000000447d39aaf1000000000000000000000000d7b397039e36f9b665a32d24d150ee1f0029d10a000000000000000000000000000000000000000000000000000000003b9aca00000000000000000000000000000000000000000000000000000000000000000000000000000000000000000000000000000000000000000000000064e6d66ac80000000000000000000000002c53ce7143d24a65410107f50e4aabad9a164480000000000000000000000000d7b397039e36f9b665a32d24d150ee1f0029d10a000000000000000000000000000000000000000000000000016345785d8a00000000000000000000000000000000000000000000000000000000000000000000000000000000000000000000000000000000000000000000000001e41ddbdd200000000000000000000000006efb11ac41b6657c32dac5ed4874082c700bba290000000000000000000000006efb11ac41b6657c32dac5ed4874082c700bba29000000000000000000000000000000000000000000000000000000000000000000000000000000000000000000000000000000000000000000000000000000000000000000000000000000000e87d21bd714d3391e992227e472517a9dc16a240000000000000000000000002c53ce7143d24a65410107f50e4aabad9a164480000000000000000000000000000000000000000000000000000000000000000000000000000000000000000000000000000000000000006c6b935b8bbd400000000000000000000000000000000000000000000000000000016345785d8a00000000000000000000000000000000000000000000000000000000000000000000ffffffffffffffffffffffffffffffffffffffffffffffffffffffffffffffff000000000000000000000000000000000000000000000000000000003b9aca0000000000000000000000000000000000000000000000000000000000000000000000000000000000000000000000000000000000000000000000000000000001000000000000000000000000000000000000000000000000000000000000000000000000000000000000000000000000000000000000000000000000",
        "nonce": "0x201",
        "chainId": "0x279f"
      },
      "additionalContracts": [],
      "isFixedGasLimit": false
    },
    {
      "hash": "0x4380fc21a656315a5566fc27f553e9b3caf68d16a489734384db37e96b0ba675",
      "transactionType": "CALL",
      "contractName": null,
      "contractAddress": "0x8cb82ffca2ea57b29ad137b9a8cdca718233ff96",
      "function": "multicall(bytes[])",
      "arguments": [
        "[0x7d39aaf1000000000000000000000000d7b397039e36f9b665a32d24d150ee1f0029d10a000000000000000000000000000000000000000000000000000000003b9aca00, 0xe6d66ac800000000000000000000000053f7c389cbb801e2abfd301ded6d2a1cf330ac0d000000000000000000000000d7b397039e36f9b665a32d24d150ee1f0029d10a000000000000000000000000000000000000000000000000002386f26fc10000, 0x1ddbdd200000000000000000000000006efb11ac41b6657c32dac5ed4874082c700bba290000000000000000000000006efb11ac41b6657c32dac5ed4874082c700bba2900000000000000000000000000000000000000000000000000000000000000000000000000000000000000000000000000000000000000000000000000000000000000000000000000000000ba8a671c225721803cd64b12cb62a2363e9ee87300000000000000000000000053f7c389cbb801e2abfd301ded6d2a1cf330ac0d00000000000000000000000000000000000000000000000000000000000000000000000000000000000000000000000000000000000000e3aeb5737240a00000000000000000000000000000000000000000000000000000002386f26fc100000000000000000000000000000000000000000000000000000000000000000000ffffffffffffffffffffffffffffffffffffffffffffffffffffffffffffffff000000000000000000000000000000000000000000000000000000003b9aca00000000000000000000000000000000000000000000000000000000000000000000000000000000000000000000000000000000000000000000000000000000010000000000000000000000000000000000000000000000000000000000000000]"
      ],
      "transaction": {
        "from": "0x6efb11ac41b6657c32dac5ed4874082c700bba29",
        "to": "0x8cb82ffca2ea57b29ad137b9a8cdca718233ff96",
        "gas": "0x82299",
        "value": "0x0",
        "input": "0xac9650d800000000000000000000000000000000000000000000000000000000000000200000000000000000000000000000000000000000000000000000000000000003000000000000000000000000000000000000000000000000000000000000006000000000000000000000000000000000000000000000000000000000000000e0000000000000000000000000000000000000000000000000000000000000018000000000000000000000000000000000000000000000000000000000000000447d39aaf1000000000000000000000000d7b397039e36f9b665a32d24d150ee1f0029d10a000000000000000000000000000000000000000000000000000000003b9aca00000000000000000000000000000000000000000000000000000000000000000000000000000000000000000000000000000000000000000000000064e6d66ac800000000000000000000000053f7c389cbb801e2abfd301ded6d2a1cf330ac0d000000000000000000000000d7b397039e36f9b665a32d24d150ee1f0029d10a000000000000000000000000000000000000000000000000002386f26fc100000000000000000000000000000000000000000000000000000000000000000000000000000000000000000000000000000000000000000000000001e41ddbdd200000000000000000000000006efb11ac41b6657c32dac5ed4874082c700bba290000000000000000000000006efb11ac41b6657c32dac5ed4874082c700bba2900000000000000000000000000000000000000000000000000000000000000000000000000000000000000000000000000000000000000000000000000000000000000000000000000000000ba8a671c225721803cd64b12cb62a2363e9ee87300000000000000000000000053f7c389cbb801e2abfd301ded6d2a1cf330ac0d00000000000000000000000000000000000000000000000000000000000000000000000000000000000000000000000000000000000000e3aeb5737240a00000000000000000000000000000000000000000000000000000002386f26fc100000000000000000000000000000000000000000000000000000000000000000000ffffffffffffffffffffffffffffffffffffffffffffffffffffffffffffffff000000000000000000000000000000000000000000000000000000003b9aca0000000000000000000000000000000000000000000000000000000000000000000000000000000000000000000000000000000000000000000000000000000001000000000000000000000000000000000000000000000000000000000000000000000000000000000000000000000000000000000000000000000000",
        "nonce": "0x202",
        "chainId": "0x279f"
      },
      "additionalContracts": [],
      "isFixedGasLimit": false
    },
    {
      "hash": "0x0c9038b80bb8c143a2a396dbc7ab6bcb4fe34e9219fd16e34842447f8763c928",
      "transactionType": "CALL",
      "contractName": null,
      "contractAddress": "0x8cb82ffca2ea57b29ad137b9a8cdca718233ff96",
      "function": "multicall(bytes[])",
      "arguments": [
        "[0x7d39aaf1000000000000000000000000d7b397039e36f9b665a32d24d150ee1f0029d10a000000000000000000000000000000000000000000000000000000003b9aca00, 0xe6d66ac8000000000000000000000000f9861d7478f8957679b26404bd6272c39f949c29000000000000000000000000d7b397039e36f9b665a32d24d150ee1f0029d10a00000000000000000000000000000000000000000000152d02c7e14af6800000, 0x1ddbdd200000000000000000000000006efb11ac41b6657c32dac5ed4874082c700bba290000000000000000000000006efb11ac41b6657c32dac5ed4874082c700bba290000000000000000000000000000000000000000000000000000000000000000000000000000000000000000000000000000000000000000000000000000000000000000000000000000000061cbb1a8fb2f8710fe95c6c3ef039b5828cb000b000000000000000000000000f9861d7478f8957679b26404bd6272c39f949c2900000000000000000000000000000000000000000000000000000000000000000000000000000000000000000000000000000000000000056bc75e2d6310000000000000000000000000000000000000000000000000152d02c7e14af68000000000000000000000000000000000000000000000000000000000000000000000ffffffffffffffffffffffffffffffffffffffffffffffffffffffffffffffff000000000000000000000000000000000000000000000000000000003b9aca00000000000000000000000000000000000000000000000000000000000000000000000000000000000000000000000000000000000000000000000000000000010000000000000000000000000000000000000000000000000000000000000000]"
      ],
      "transaction": {
        "from": "0x6efb11ac41b6657c32dac5ed4874082c700bba29",
        "to": "0x8cb82ffca2ea57b29ad137b9a8cdca718233ff96",
        "gas": "0x822ec",
        "value": "0x0",
        "input": "0xac9650d800000000000000000000000000000000000000000000000000000000000000200000000000000000000000000000000000000000000000000000000000000003000000000000000000000000000000000000000000000000000000000000006000000000000000000000000000000000000000000000000000000000000000e0000000000000000000000000000000000000000000000000000000000000018000000000000000000000000000000000000000000000000000000000000000447d39aaf1000000000000000000000000d7b397039e36f9b665a32d24d150ee1f0029d10a000000000000000000000000000000000000000000000000000000003b9aca00000000000000000000000000000000000000000000000000000000000000000000000000000000000000000000000000000000000000000000000064e6d66ac8000000000000000000000000f9861d7478f8957679b26404bd6272c39f949c29000000000000000000000000d7b397039e36f9b665a32d24d150ee1f0029d10a00000000000000000000000000000000000000000000152d02c7e14af68000000000000000000000000000000000000000000000000000000000000000000000000000000000000000000000000000000000000000000000000001e41ddbdd200000000000000000000000006efb11ac41b6657c32dac5ed4874082c700bba290000000000000000000000006efb11ac41b6657c32dac5ed4874082c700bba290000000000000000000000000000000000000000000000000000000000000000000000000000000000000000000000000000000000000000000000000000000000000000000000000000000061cbb1a8fb2f8710fe95c6c3ef039b5828cb000b000000000000000000000000f9861d7478f8957679b26404bd6272c39f949c2900000000000000000000000000000000000000000000000000000000000000000000000000000000000000000000000000000000000000056bc75e2d6310000000000000000000000000000000000000000000000000152d02c7e14af68000000000000000000000000000000000000000000000000000000000000000000000ffffffffffffffffffffffffffffffffffffffffffffffffffffffffffffffff000000000000000000000000000000000000000000000000000000003b9aca0000000000000000000000000000000000000000000000000000000000000000000000000000000000000000000000000000000000000000000000000000000001000000000000000000000000000000000000000000000000000000000000000000000000000000000000000000000000000000000000000000000000",
        "nonce": "0x203",
        "chainId": "0x279f"
      },
      "additionalContracts": [],
      "isFixedGasLimit": false
    },
    {
      "hash": "0x425ee31b41091c0678216582f6500bd9615fd9057b35b17f413330631fb1659d",
      "transactionType": "CALL",
      "contractName": null,
      "contractAddress": "0x8cb82ffca2ea57b29ad137b9a8cdca718233ff96",
      "function": "multicall(bytes[])",
      "arguments": [
        "[0x7d39aaf1000000000000000000000000d7b397039e36f9b665a32d24d150ee1f0029d10a000000000000000000000000000000000000000000000000000000003b9aca00, 0xe6d66ac80000000000000000000000001889cfb8746716a0ac50e59a54f190987c5f04e6000000000000000000000000d7b397039e36f9b665a32d24d150ee1f0029d10a00000000000000000000000000000000000000000000003635c9adc5dea00000, 0x1ddbdd200000000000000000000000006efb11ac41b6657c32dac5ed4874082c700bba290000000000000000000000006efb11ac41b6657c32dac5ed4874082c700bba2900000000000000000000000000000000000000000000000000000000000000000000000000000000000000000000000000000000000000000000000000000000000000000000000000000000007b2f0fb291307452065b4a620c29d56d8875dc0000000000000000000000001889cfb8746716a0ac50e59a54f190987c5f04e6000000000000000000000000000000000000000000000000000000000000000000000000000000000000000000000000000000000000003635c9adc5dea0000000000000000000000000000000000000000000000000003635c9adc5dea000000000000000000000000000000000000000000000000000000000000000000000ffffffffffffffffffffffffffffffffffffffffffffffffffffffffffffffff000000000000000000000000000000000000000000000000000000003b9aca00000000000000000000000000000000000000000000000000000000000000000000000000000000000000000000000000000000000000000000000000000000010000000000000000000000000000000000000000000000000000000000000000]"
      ],
      "transaction": {
        "from": "0x6efb11ac41b6657c32dac5ed4874082c700bba29",
        "to": "0x8cb82ffca2ea57b29ad137b9a8cdca718233ff96",
        "gas": "0x822cb",
        "value": "0x0",
        "input": "0xac9650d800000000000000000000000000000000000000000000000000000000000000200000000000000000000000000000000000000000000000000000000000000003000000000000000000000000000000000000000000000000000000000000006000000000000000000000000000000000000000000000000000000000000000e0000000000000000000000000000000000000000000000000000000000000018000000000000000000000000000000000000000000000000000000000000000447d39aaf1000000000000000000000000d7b397039e36f9b665a32d24d150ee1f0029d10a000000000000000000000000000000000000000000000000000000003b9aca00000000000000000000000000000000000000000000000000000000000000000000000000000000000000000000000000000000000000000000000064e6d66ac80000000000000000000000001889cfb8746716a0ac50e59a54f190987c5f04e6000000000000000000000000d7b397039e36f9b665a32d24d150ee1f0029d10a00000000000000000000000000000000000000000000003635c9adc5dea000000000000000000000000000000000000000000000000000000000000000000000000000000000000000000000000000000000000000000000000001e41ddbdd200000000000000000000000006efb11ac41b6657c32dac5ed4874082c700bba290000000000000000000000006efb11ac41b6657c32dac5ed4874082c700bba2900000000000000000000000000000000000000000000000000000000000000000000000000000000000000000000000000000000000000000000000000000000000000000000000000000000007b2f0fb291307452065b4a620c29d56d8875dc0000000000000000000000001889cfb8746716a0ac50e59a54f190987c5f04e6000000000000000000000000000000000000000000000000000000000000000000000000000000000000000000000000000000000000003635c9adc5dea0000000000000000000000000000000000000000000000000003635c9adc5dea000000000000000000000000000000000000000000000000000000000000000000000ffffffffffffffffffffffffffffffffffffffffffffffffffffffffffffffff000000000000000000000000000000000000000000000000000000003b9aca0000000000000000000000000000000000000000000000000000000000000000000000000000000000000000000000000000000000000000000000000000000001000000000000000000000000000000000000000000000000000000000000000000000000000000000000000000000000000000000000000000000000",
        "nonce": "0x204",
        "chainId": "0x279f"
      },
      "additionalContracts": [],
      "isFixedGasLimit": false
    },
    {
      "hash": "0xee9fec214736059fe4b4550df06bd535e919d1db03a2fdb8dc86e261b25b5ad2",
      "transactionType": "CALL",
      "contractName": null,
      "contractAddress": "0x8cb82ffca2ea57b29ad137b9a8cdca718233ff96",
      "function": "multicall(bytes[])",
      "arguments": [
        "[0x7d39aaf1000000000000000000000000d7b397039e36f9b665a32d24d150ee1f0029d10a000000000000000000000000000000000000000000000000000000003b9aca00, 0xe6d66ac80000000000000000000000006bc8a42d4b2f4bc8e4c3f9ecff00b7290ffa7405000000000000000000000000d7b397039e36f9b665a32d24d150ee1f0029d10a00000000000000000000000000000000000000000000003635c9adc5dea00000, 0x1ddbdd200000000000000000000000006efb11ac41b6657c32dac5ed4874082c700bba290000000000000000000000006efb11ac41b6657c32dac5ed4874082c700bba29000000000000000000000000000000000000000000000000000000000000000000000000000000000000000000000000000000000000000000000000000000000000000000000000000000008fc3599e5d86df2e5ab4b9e20975da2ff17eb4b60000000000000000000000006bc8a42d4b2f4bc8e4c3f9ecff00b7290ffa7405000000000000000000000000000000000000000000000000000000000000000000000000000000000000000000000000000000000000001b1ae4d6e2ef50000000000000000000000000000000000000000000000000003635c9adc5dea000000000000000000000000000000000000000000000000000000000000000000000ffffffffffffffffffffffffffffffffffffffffffffffffffffffffffffffff000000000000000000000000000000000000000000000000000000003b9aca00000000000000000000000000000000000000000000000000000000000000000000000000000000000000000000000000000000000000000000000000000000010000000000000000000000000000000000000000000000000000000000000000]"
      ],
      "transaction": {
        "from": "0x6efb11ac41b6657c32dac5ed4874082c700bba29",
        "to": "0x8cb82ffca2ea57b29ad137b9a8cdca718233ff96",
        "gas": "0x822ba",
        "value": "0x0",
        "input": "0xac9650d800000000000000000000000000000000000000000000000000000000000000200000000000000000000000000000000000000000000000000000000000000003000000000000000000000000000000000000000000000000000000000000006000000000000000000000000000000000000000000000000000000000000000e0000000000000000000000000000000000000000000000000000000000000018000000000000000000000000000000000000000000000000000000000000000447d39aaf1000000000000000000000000d7b397039e36f9b665a32d24d150ee1f0029d10a000000000000000000000000000000000000000000000000000000003b9aca00000000000000000000000000000000000000000000000000000000000000000000000000000000000000000000000000000000000000000000000064e6d66ac80000000000000000000000006bc8a42d4b2f4bc8e4c3f9ecff00b7290ffa7405000000000000000000000000d7b397039e36f9b665a32d24d150ee1f0029d10a00000000000000000000000000000000000000000000003635c9adc5dea000000000000000000000000000000000000000000000000000000000000000000000000000000000000000000000000000000000000000000000000001e41ddbdd200000000000000000000000006efb11ac41b6657c32dac5ed4874082c700bba290000000000000000000000006efb11ac41b6657c32dac5ed4874082c700bba29000000000000000000000000000000000000000000000000000000000000000000000000000000000000000000000000000000000000000000000000000000000000000000000000000000008fc3599e5d86df2e5ab4b9e20975da2ff17eb4b60000000000000000000000006bc8a42d4b2f4bc8e4c3f9ecff00b7290ffa7405000000000000000000000000000000000000000000000000000000000000000000000000000000000000000000000000000000000000001b1ae4d6e2ef50000000000000000000000000000000000000000000000000003635c9adc5dea000000000000000000000000000000000000000000000000000000000000000000000ffffffffffffffffffffffffffffffffffffffffffffffffffffffffffffffff000000000000000000000000000000000000000000000000000000003b9aca0000000000000000000000000000000000000000000000000000000000000000000000000000000000000000000000000000000000000000000000000000000001000000000000000000000000000000000000000000000000000000000000000000000000000000000000000000000000000000000000000000000000",
        "nonce": "0x205",
        "chainId": "0x279f"
      },
      "additionalContracts": [],
      "isFixedGasLimit": false
    },
    {
      "hash": "0xe13b2b613e71938e43bb45334d1c2798567a0429a9a63f10de58282e0cbc6b8c",
      "transactionType": "CALL",
      "contractName": null,
      "contractAddress": "0x8cb82ffca2ea57b29ad137b9a8cdca718233ff96",
      "function": "multicall(bytes[])",
      "arguments": [
        "[0x7d39aaf1000000000000000000000000d7b397039e36f9b665a32d24d150ee1f0029d10a000000000000000000000000000000000000000000000000000000003b9aca00, 0xe6d66ac8000000000000000000000000e3f98fda6dbd38c1017754f1675dce377381c23c000000000000000000000000d7b397039e36f9b665a32d24d150ee1f0029d10a0000000000000000000000000000000000000000000000008ac7230489e80000, 0x1ddbdd200000000000000000000000006efb11ac41b6657c32dac5ed4874082c700bba290000000000000000000000006efb11ac41b6657c32dac5ed4874082c700bba2900000000000000000000000000000000000000000000000000000000000000000000000000000000000000000000000000000000000000000000000000000000000000000000000000000000c9363063c1c5ea9392cc21bc44afd644632e618a000000000000000000000000e3f98fda6dbd38c1017754f1675dce377381c23c000000000000000000000000000000000000000000000000000000000000000000000000000000000000000000000000000000000000005150ae84a8cdf000000000000000000000000000000000000000000000000000008ac7230489e800000000000000000000000000000000000000000000000000000000000000000000ffffffffffffffffffffffffffffffffffffffffffffffffffffffffffffffff000000000000000000000000000000000000000000000000000000003b9aca00000000000000000000000000000000000000000000000000000000000000000000000000000000000000000000000000000000000000000000000000000000010000000000000000000000000000000000000000000000000000000000000000]"
      ],
      "transaction": {
        "from": "0x6efb11ac41b6657c32dac5ed4874082c700bba29",
        "to": "0x8cb82ffca2ea57b29ad137b9a8cdca718233ff96",
        "gas": "0x822ba",
        "value": "0x0",
        "input": "0xac9650d800000000000000000000000000000000000000000000000000000000000000200000000000000000000000000000000000000000000000000000000000000003000000000000000000000000000000000000000000000000000000000000006000000000000000000000000000000000000000000000000000000000000000e0000000000000000000000000000000000000000000000000000000000000018000000000000000000000000000000000000000000000000000000000000000447d39aaf1000000000000000000000000d7b397039e36f9b665a32d24d150ee1f0029d10a000000000000000000000000000000000000000000000000000000003b9aca00000000000000000000000000000000000000000000000000000000000000000000000000000000000000000000000000000000000000000000000064e6d66ac8000000000000000000000000e3f98fda6dbd38c1017754f1675dce377381c23c000000000000000000000000d7b397039e36f9b665a32d24d150ee1f0029d10a0000000000000000000000000000000000000000000000008ac7230489e800000000000000000000000000000000000000000000000000000000000000000000000000000000000000000000000000000000000000000000000001e41ddbdd200000000000000000000000006efb11ac41b6657c32dac5ed4874082c700bba290000000000000000000000006efb11ac41b6657c32dac5ed4874082c700bba2900000000000000000000000000000000000000000000000000000000000000000000000000000000000000000000000000000000000000000000000000000000000000000000000000000000c9363063c1c5ea9392cc21bc44afd644632e618a000000000000000000000000e3f98fda6dbd38c1017754f1675dce377381c23c000000000000000000000000000000000000000000000000000000000000000000000000000000000000000000000000000000000000005150ae84a8cdf000000000000000000000000000000000000000000000000000008ac7230489e800000000000000000000000000000000000000000000000000000000000000000000ffffffffffffffffffffffffffffffffffffffffffffffffffffffffffffffff000000000000000000000000000000000000000000000000000000003b9aca0000000000000000000000000000000000000000000000000000000000000000000000000000000000000000000000000000000000000000000000000000000001000000000000000000000000000000000000000000000000000000000000000000000000000000000000000000000000000000000000000000000000",
        "nonce": "0x206",
        "chainId": "0x279f"
      },
      "additionalContracts": [],
      "isFixedGasLimit": false
    }
  ],
  "receipts": [
    {
      "status": "0x1",
      "cumulativeGasUsed": "0x3e32a1",
      "logs": [
        {
          "address": "0x2c53ce7143d24a65410107f50e4aabad9a164480",
          "topics": [
            "0xddf252ad1be2c89b69c2b068fc378daa952ba7f163c4a11628f55a4df523b3ef",
            "0x0000000000000000000000000000000000000000000000000000000000000000",
            "0x0000000000000000000000006efb11ac41b6657c32dac5ed4874082c700bba29"
          ],
          "data": "0x0000000000000000000000000000000000000000000000008ac7230489e80000",
          "blockHash": "0xcb86385f25848b9bf79eba3c118ae4246261057da8e8c76f27c737a4fa9a56a6",
          "blockNumber": "0x74490b",
          "blockTimestamp": "0x67d32dce",
          "transactionHash": "0xdf048834d9ca87f8e790537cf2bac317a7d7cf89728860eddb1ff7fb57e4818d",
          "transactionIndex": "0x29",
          "logIndex": "0x49",
          "removed": false
        }
      ],
      "logsBloom": "0x00000000000000000200000000000000000000000000000000000000000000000000000000000000000000000000000000001000000100000000000000000000000000000000000000000008000000000000000000000000000000000000000000000000020000000000000000000800000000000000000000000010000000000000000000000000000000000000000000000000000000000000000000000000000000000000000000000000000000000000000000000000000001000000000000000002000000000000000000000000000000010000000000000000000020000000001000000000000000000000000000000000000000000000000000000000",
      "type": "0x0",
      "transactionHash": "0xdf048834d9ca87f8e790537cf2bac317a7d7cf89728860eddb1ff7fb57e4818d",
      "transactionIndex": "0x29",
      "blockHash": "0xcb86385f25848b9bf79eba3c118ae4246261057da8e8c76f27c737a4fa9a56a6",
      "blockNumber": "0x74490b",
      "gasUsed": "0xc1a6",
      "effectiveGasPrice": "0xc1b710800",
      "from": "0x6efb11ac41b6657c32dac5ed4874082c700bba29",
      "to": "0x2c53ce7143d24a65410107f50e4aabad9a164480",
      "contractAddress": null
    },
    {
      "status": "0x1",
      "cumulativeGasUsed": "0x3ef447",
      "logs": [
        {
          "address": "0x53f7c389cbb801e2abfd301ded6d2a1cf330ac0d",
          "topics": [
            "0xddf252ad1be2c89b69c2b068fc378daa952ba7f163c4a11628f55a4df523b3ef",
            "0x0000000000000000000000000000000000000000000000000000000000000000",
            "0x0000000000000000000000006efb11ac41b6657c32dac5ed4874082c700bba29"
          ],
          "data": "0x0000000000000000000000000000000000000000000000000de0b6b3a7640000",
          "blockHash": "0xcb86385f25848b9bf79eba3c118ae4246261057da8e8c76f27c737a4fa9a56a6",
          "blockNumber": "0x74490b",
          "blockTimestamp": "0x67d32dce",
          "transactionHash": "0xca111fd22bc30d4d462773e3646b6bb9c8b3eadc5d7383f99677f09639b2ad3f",
          "transactionIndex": "0x2a",
          "logIndex": "0x4a",
          "removed": false
        }
      ],
      "logsBloom": "0x00000000000000000200000002000000000000000000000000000000000000000000000000000000000000000000000000000000000100000000000000000000000000000000000000000008000000000000000000000000000000000000000000000000020000000000000000000800000000000000000000000010000000000000000000000000000000000000000000000000000000000000000000000000000000000010000000000000000000000000000000000000000001000000000000000002000000000000000000000000000000000000000000000000000020000000000000000000000000000000000000000000000000000008000000000000",
      "type": "0x0",
      "transactionHash": "0xca111fd22bc30d4d462773e3646b6bb9c8b3eadc5d7383f99677f09639b2ad3f",
      "transactionIndex": "0x2a",
      "blockHash": "0xcb86385f25848b9bf79eba3c118ae4246261057da8e8c76f27c737a4fa9a56a6",
      "blockNumber": "0x74490b",
      "gasUsed": "0xc1a6",
      "effectiveGasPrice": "0xc1b710800",
      "from": "0x6efb11ac41b6657c32dac5ed4874082c700bba29",
      "to": "0x53f7c389cbb801e2abfd301ded6d2a1cf330ac0d",
      "contractAddress": null
    },
    {
      "status": "0x1",
      "cumulativeGasUsed": "0x56fdde",
      "logs": [
        {
          "address": "0xf9861d7478f8957679b26404bd6272c39f949c29",
          "topics": [
            "0xddf252ad1be2c89b69c2b068fc378daa952ba7f163c4a11628f55a4df523b3ef",
            "0x0000000000000000000000000000000000000000000000000000000000000000",
            "0x0000000000000000000000006efb11ac41b6657c32dac5ed4874082c700bba29"
          ],
          "data": "0x00000000000000000000000000000000000000000000d3c21bcecceda1000000",
          "blockHash": "0x883bcffdb62424ff6aa720f0390550f2ab4692e8ea96f15087e9baccce59d9d6",
          "blockNumber": "0x74490c",
          "blockTimestamp": "0x67d32dce",
          "transactionHash": "0xfe95c1090d8652099e76e68219e89bc0494826abb896530e2adc4867eada6d0f",
          "transactionIndex": "0x28",
          "logIndex": "0x4c",
          "removed": false
        }
      ],
      "logsBloom": "0x00000000000000000200000000000000000000000000000000000000000000000000000000000000000000000000000000000000000100000000000000000000000000000000000000000008000000000000000000000000000000000000000000000000060000000000000000000800000000000000000000000010000000000000000000000000000000000000000000000000000000000000000000000000000000000000000000040000000000000000000000000000000001000000000000000002080000000000000000000000000000000000000000000000000020000000000000000000000000000000000000000000000000000000000000000000",
      "type": "0x0",
      "transactionHash": "0xfe95c1090d8652099e76e68219e89bc0494826abb896530e2adc4867eada6d0f",
      "transactionIndex": "0x28",
      "blockHash": "0x883bcffdb62424ff6aa720f0390550f2ab4692e8ea96f15087e9baccce59d9d6",
      "blockNumber": "0x74490c",
      "gasUsed": "0xb6f4",
      "effectiveGasPrice": "0xc1b710800",
      "from": "0x6efb11ac41b6657c32dac5ed4874082c700bba29",
      "to": "0xf9861d7478f8957679b26404bd6272c39f949c29",
      "contractAddress": null
    },
    {
      "status": "0x1",
      "cumulativeGasUsed": "0x57bfa7",
      "logs": [
        {
          "address": "0x1889cfb8746716a0ac50e59a54f190987c5f04e6",
          "topics": [
            "0xddf252ad1be2c89b69c2b068fc378daa952ba7f163c4a11628f55a4df523b3ef",
            "0x0000000000000000000000000000000000000000000000000000000000000000",
            "0x0000000000000000000000006efb11ac41b6657c32dac5ed4874082c700bba29"
          ],
          "data": "0x00000000000000000000000000000000000000000000021e19e0c9bab2400000",
          "blockHash": "0x883bcffdb62424ff6aa720f0390550f2ab4692e8ea96f15087e9baccce59d9d6",
          "blockNumber": "0x74490c",
          "blockTimestamp": "0x67d32dce",
          "transactionHash": "0x087a7ddb276773cff895bd63fd696b71752aec7b9e342e6e86f45ca4c987842a",
          "transactionIndex": "0x29",
          "logIndex": "0x4d",
          "removed": false
        }
      ],
      "logsBloom": "0x00000000000000000200000000000000000000000000000000000000000000000000000000000000000000000000000000000000000100000000000000000000000000000000000000000008000000000000000000000000000400000000000000000000020000000000000000000800000000000000000000000010000000000000000000000000000000000000000000000000000000000000000000000000000000000000100000000000000000000000000000000000000001000000000000000002000000000000000000000000000000000000000000000000000020000000000080000000000000000000000000000000000000000000000000000000",
      "type": "0x0",
      "transactionHash": "0x087a7ddb276773cff895bd63fd696b71752aec7b9e342e6e86f45ca4c987842a",
      "transactionIndex": "0x29",
      "blockHash": "0x883bcffdb62424ff6aa720f0390550f2ab4692e8ea96f15087e9baccce59d9d6",
      "blockNumber": "0x74490c",
      "gasUsed": "0xc1c9",
      "effectiveGasPrice": "0xc1b710800",
      "from": "0x6efb11ac41b6657c32dac5ed4874082c700bba29",
      "to": "0x1889cfb8746716a0ac50e59a54f190987c5f04e6",
      "contractAddress": null
    },
    {
      "status": "0x1",
      "cumulativeGasUsed": "0x588170",
      "logs": [
        {
          "address": "0x6bc8a42d4b2f4bc8e4c3f9ecff00b7290ffa7405",
          "topics": [
            "0xddf252ad1be2c89b69c2b068fc378daa952ba7f163c4a11628f55a4df523b3ef",
            "0x0000000000000000000000000000000000000000000000000000000000000000",
            "0x0000000000000000000000006efb11ac41b6657c32dac5ed4874082c700bba29"
          ],
          "data": "0x00000000000000000000000000000000000000000000021e19e0c9bab2400000",
          "blockHash": "0x883bcffdb62424ff6aa720f0390550f2ab4692e8ea96f15087e9baccce59d9d6",
          "blockNumber": "0x74490c",
          "blockTimestamp": "0x67d32dce",
          "transactionHash": "0xafe86697892c0e86d817cb11385ea43469e904cc3c71106adfe1fca524cb8061",
          "transactionIndex": "0x2a",
          "logIndex": "0x4e",
          "removed": false
        }
      ],
      "logsBloom": "0x00000000000000000200000000000000000000000000000000000000000000000000000000000000000000000000000000002000000100000400000000000000000000000000000000000008000000000000000000000000000000000000000000000000020000000000000000000800000000000000000000000010000000000000000000000000000000000000000000000000000000000000000000000000000000000200000000000000000000000000000000000000000001000000000000000002000000000000000000000000000000000000000000000000000020000000000000000000000000000000000000000000000000000000000000000000",
      "type": "0x0",
      "transactionHash": "0xafe86697892c0e86d817cb11385ea43469e904cc3c71106adfe1fca524cb8061",
      "transactionIndex": "0x2a",
      "blockHash": "0x883bcffdb62424ff6aa720f0390550f2ab4692e8ea96f15087e9baccce59d9d6",
      "blockNumber": "0x74490c",
      "gasUsed": "0xc1c9",
      "effectiveGasPrice": "0xc1b710800",
      "from": "0x6efb11ac41b6657c32dac5ed4874082c700bba29",
      "to": "0x6bc8a42d4b2f4bc8e4c3f9ecff00b7290ffa7405",
      "contractAddress": null
    },
    {
      "status": "0x1",
      "cumulativeGasUsed": "0x593864",
      "logs": [
        {
          "address": "0xe3f98fda6dbd38c1017754f1675dce377381c23c",
          "topics": [
            "0xddf252ad1be2c89b69c2b068fc378daa952ba7f163c4a11628f55a4df523b3ef",
            "0x0000000000000000000000000000000000000000000000000000000000000000",
            "0x0000000000000000000000006efb11ac41b6657c32dac5ed4874082c700bba29"
          ],
          "data": "0x00000000000000000000000000000000000000000000003635c9adc5dea00000",
          "blockHash": "0x883bcffdb62424ff6aa720f0390550f2ab4692e8ea96f15087e9baccce59d9d6",
          "blockNumber": "0x74490c",
          "blockTimestamp": "0x67d32dce",
          "transactionHash": "0x2d71081b412192d12a9a7925c98f29e8296441bded64faf8143da8dcd6ddb93e",
          "transactionIndex": "0x2b",
          "logIndex": "0x4f",
          "removed": false
        }
      ],
      "logsBloom": "0x00000000000000002200000000000000000000000000000000000000000000000000000000000000000000000000000000000000000100000000000000000000000000000000000000000008000000000000000000000000000000000000000000000000020000000000000000000800000000000000000000000010000000000000000000000000000000000000000000000000000000000020000000000000000000000000000000000000000020000000000000000000000001000000000000000002000000000000000000000000000000000000000000000000000020000000000000000000000000000000000000000000000000000000000000000000",
      "type": "0x0",
      "transactionHash": "0x2d71081b412192d12a9a7925c98f29e8296441bded64faf8143da8dcd6ddb93e",
      "transactionIndex": "0x2b",
      "blockHash": "0x883bcffdb62424ff6aa720f0390550f2ab4692e8ea96f15087e9baccce59d9d6",
      "blockNumber": "0x74490c",
      "gasUsed": "0xb6f4",
      "effectiveGasPrice": "0xc1b710800",
      "from": "0x6efb11ac41b6657c32dac5ed4874082c700bba29",
      "to": "0xe3f98fda6dbd38c1017754f1675dce377381c23c",
      "contractAddress": null
    },
    {
      "status": "0x1",
      "cumulativeGasUsed": "0x5b3b2e",
      "logs": [
        {
          "address": "0x2c53ce7143d24a65410107f50e4aabad9a164480",
          "topics": [
            "0x8c5be1e5ebec7d5bd14f71427d1e84f3dd0314c0f7b2291e5b200ac8c7c3b925",
            "0x0000000000000000000000006efb11ac41b6657c32dac5ed4874082c700bba29",
            "0x0000000000000000000000008cb82ffca2ea57b29ad137b9a8cdca718233ff96"
          ],
          "data": "0xffffffffffffffffffffffffffffffffffffffffffffffffffffffffffffffff",
          "blockHash": "0x883bcffdb62424ff6aa720f0390550f2ab4692e8ea96f15087e9baccce59d9d6",
          "blockNumber": "0x74490c",
          "blockTimestamp": "0x67d32dce",
          "transactionHash": "0x02ce79c99b9345f4d5c131a9b00b3a0a4b2ad44b608f310870632f97c4621e06",
          "transactionIndex": "0x2e",
          "logIndex": "0x52",
          "removed": false
        }
      ],
      "logsBloom": "0x00000000000000000200000000000000000000000000000000000000000000000000000000000000000000000000000000001000000100000000000000200000000000000100000000000000000000000000000000000000000000000000000002000000000000000000000000000000000000000000000000000000000000000000000000000000000000000000000000000000000000000000000000000400020000000000000000000000000000000000000000000000000001000000000000000000000000000000000000000000000000010000000000000000000000000010001000000000000000000000000000000000000000000000000000000000",
      "type": "0x0",
      "transactionHash": "0x02ce79c99b9345f4d5c131a9b00b3a0a4b2ad44b608f310870632f97c4621e06",
      "transactionIndex": "0x2e",
      "blockHash": "0x883bcffdb62424ff6aa720f0390550f2ab4692e8ea96f15087e9baccce59d9d6",
      "blockNumber": "0x74490c",
      "gasUsed": "0x96a4",
      "effectiveGasPrice": "0xc1b710800",
      "from": "0x6efb11ac41b6657c32dac5ed4874082c700bba29",
      "to": "0x2c53ce7143d24a65410107f50e4aabad9a164480",
      "contractAddress": null
    },
    {
      "status": "0x1",
      "cumulativeGasUsed": "0x5bd1d2",
      "logs": [
        {
          "address": "0x53f7c389cbb801e2abfd301ded6d2a1cf330ac0d",
          "topics": [
            "0x8c5be1e5ebec7d5bd14f71427d1e84f3dd0314c0f7b2291e5b200ac8c7c3b925",
            "0x0000000000000000000000006efb11ac41b6657c32dac5ed4874082c700bba29",
            "0x0000000000000000000000008cb82ffca2ea57b29ad137b9a8cdca718233ff96"
          ],
          "data": "0xffffffffffffffffffffffffffffffffffffffffffffffffffffffffffffffff",
          "blockHash": "0x883bcffdb62424ff6aa720f0390550f2ab4692e8ea96f15087e9baccce59d9d6",
          "blockNumber": "0x74490c",
          "blockTimestamp": "0x67d32dce",
          "transactionHash": "0xeff91e516580c739ab7a30dc7db44cf3eff1bcb11f01059004a8631effe213c3",
          "transactionIndex": "0x2f",
          "logIndex": "0x53",
          "removed": false
        }
      ],
      "logsBloom": "0x00000000000000000200000002000000000000000000000000000000000000000000000000000000000000000000000000000000000100000000000000200000000000000100000000000000000000000000000000000000000000000000000002000000000000000000000000000000000000000000000000000000000000000000000000000000000000000000000000000000000000000000000000000400020000000010000000000000000000000000000000000000000001000000000000000000000000000000000000000000000000000000000000000000000000000010000000000000000000000000000000000000000000000008000000000000",
      "type": "0x0",
      "transactionHash": "0xeff91e516580c739ab7a30dc7db44cf3eff1bcb11f01059004a8631effe213c3",
      "transactionIndex": "0x2f",
      "blockHash": "0x883bcffdb62424ff6aa720f0390550f2ab4692e8ea96f15087e9baccce59d9d6",
      "blockNumber": "0x74490c",
      "gasUsed": "0x96a4",
      "effectiveGasPrice": "0xc1b710800",
      "from": "0x6efb11ac41b6657c32dac5ed4874082c700bba29",
      "to": "0x53f7c389cbb801e2abfd301ded6d2a1cf330ac0d",
      "contractAddress": null
    },
    {
      "status": "0x1",
      "cumulativeGasUsed": "0x70a814",
      "logs": [
        {
          "address": "0xf9861d7478f8957679b26404bd6272c39f949c29",
          "topics": [
            "0x8c5be1e5ebec7d5bd14f71427d1e84f3dd0314c0f7b2291e5b200ac8c7c3b925",
            "0x0000000000000000000000006efb11ac41b6657c32dac5ed4874082c700bba29",
            "0x0000000000000000000000008cb82ffca2ea57b29ad137b9a8cdca718233ff96"
          ],
          "data": "0xffffffffffffffffffffffffffffffffffffffffffffffffffffffffffffffff",
          "blockHash": "0xc5a52c30e5a71f8187712b60e3c162da986c368ad251adeb13d52c610002e597",
          "blockNumber": "0x74490d",
          "blockTimestamp": "0x67d32dcf",
          "transactionHash": "0xeb1f94aab3b4126e0fd71cc94aecbad7b140346cfa49e5045e8d043576e857e7",
          "transactionIndex": "0x39",
          "logIndex": "0x63",
          "removed": false
        }
      ],
      "logsBloom": "0x00000000000000000200000000000000000000000000000000000000000000000000000000000000000000000000000000000000000100000000000000200000000000000100000000000000000000000000000000000000000000000000000002000000040000000000000000000000000000000000000000000000000000000000000000000000000000000000000000000000000000000000000000000400020000000000000000040000000000000000000000000000000001000000000000000000080000000000000000000000000000000000000000000000000000000010000000000000000000000000000000000000000000000000000000000000",
      "type": "0x0",
      "transactionHash": "0xeb1f94aab3b4126e0fd71cc94aecbad7b140346cfa49e5045e8d043576e857e7",
      "transactionIndex": "0x39",
      "blockHash": "0xc5a52c30e5a71f8187712b60e3c162da986c368ad251adeb13d52c610002e597",
      "blockNumber": "0x74490d",
      "gasUsed": "0x96a4",
      "effectiveGasPrice": "0xc1b710800",
      "from": "0x6efb11ac41b6657c32dac5ed4874082c700bba29",
      "to": "0xf9861d7478f8957679b26404bd6272c39f949c29",
      "contractAddress": null
    },
    {
      "status": "0x1",
      "cumulativeGasUsed": "0x713eb8",
      "logs": [
        {
          "address": "0x1889cfb8746716a0ac50e59a54f190987c5f04e6",
          "topics": [
            "0x8c5be1e5ebec7d5bd14f71427d1e84f3dd0314c0f7b2291e5b200ac8c7c3b925",
            "0x0000000000000000000000006efb11ac41b6657c32dac5ed4874082c700bba29",
            "0x0000000000000000000000008cb82ffca2ea57b29ad137b9a8cdca718233ff96"
          ],
          "data": "0xffffffffffffffffffffffffffffffffffffffffffffffffffffffffffffffff",
          "blockHash": "0xc5a52c30e5a71f8187712b60e3c162da986c368ad251adeb13d52c610002e597",
          "blockNumber": "0x74490d",
          "blockTimestamp": "0x67d32dcf",
          "transactionHash": "0x8acde7363bc05cf5a6db047b0abc656f6948930e4ccb00c8ff399d820d5ad5e1",
          "transactionIndex": "0x3a",
          "logIndex": "0x64",
          "removed": false
        }
      ],
      "logsBloom": "0x00000000000000000200000000000000000000000000000000000000000000000000000000000000000000000000000000000000000100000000000000200000000000000100000000000000000000000000000000000000000400000000000002000000000000000000000000000000000000000000000000000000000000000000000000000000000000000000000000000000000000000000000000000400020000000000100000000000000000000000000000000000000001000000000000000000000000000000000000000000000000000000000000000000000000000010000080000000000000000000000000000000000000000000000000000000",
      "type": "0x0",
      "transactionHash": "0x8acde7363bc05cf5a6db047b0abc656f6948930e4ccb00c8ff399d820d5ad5e1",
      "transactionIndex": "0x3a",
      "blockHash": "0xc5a52c30e5a71f8187712b60e3c162da986c368ad251adeb13d52c610002e597",
      "blockNumber": "0x74490d",
      "gasUsed": "0x96a4",
      "effectiveGasPrice": "0xc1b710800",
      "from": "0x6efb11ac41b6657c32dac5ed4874082c700bba29",
      "to": "0x1889cfb8746716a0ac50e59a54f190987c5f04e6",
      "contractAddress": null
    },
    {
      "status": "0x1",
      "cumulativeGasUsed": "0x71d55c",
      "logs": [
        {
          "address": "0x6bc8a42d4b2f4bc8e4c3f9ecff00b7290ffa7405",
          "topics": [
            "0x8c5be1e5ebec7d5bd14f71427d1e84f3dd0314c0f7b2291e5b200ac8c7c3b925",
            "0x0000000000000000000000006efb11ac41b6657c32dac5ed4874082c700bba29",
            "0x0000000000000000000000008cb82ffca2ea57b29ad137b9a8cdca718233ff96"
          ],
          "data": "0xffffffffffffffffffffffffffffffffffffffffffffffffffffffffffffffff",
          "blockHash": "0xc5a52c30e5a71f8187712b60e3c162da986c368ad251adeb13d52c610002e597",
          "blockNumber": "0x74490d",
          "blockTimestamp": "0x67d32dcf",
          "transactionHash": "0x1b512dd5e135edee9dc186a182de110e1c7c2679799c425b4b86ddb45b936096",
          "transactionIndex": "0x3b",
          "logIndex": "0x65",
          "removed": false
        }
      ],
      "logsBloom": "0x00000000000000000200000000000000000000000000000000000000000000000000000000000000000000000000000000002000000100000400000000200000000000000100000000000000000000000000000000000000000000000000000002000000000000000000000000000000000000000000000000000000000000000000000000000000000000000000000000000000000000000000000000000400020000000200000000000000000000000000000000000000000001000000000000000000000000000000000000000000000000000000000000000000000000000010000000000000000000000000000000000000000000000000000000000000",
      "type": "0x0",
      "transactionHash": "0x1b512dd5e135edee9dc186a182de110e1c7c2679799c425b4b86ddb45b936096",
      "transactionIndex": "0x3b",
      "blockHash": "0xc5a52c30e5a71f8187712b60e3c162da986c368ad251adeb13d52c610002e597",
      "blockNumber": "0x74490d",
      "gasUsed": "0x96a4",
      "effectiveGasPrice": "0xc1b710800",
      "from": "0x6efb11ac41b6657c32dac5ed4874082c700bba29",
      "to": "0x6bc8a42d4b2f4bc8e4c3f9ecff00b7290ffa7405",
      "contractAddress": null
    },
    {
      "status": "0x1",
      "cumulativeGasUsed": "0x726c00",
      "logs": [
        {
          "address": "0xe3f98fda6dbd38c1017754f1675dce377381c23c",
          "topics": [
            "0x8c5be1e5ebec7d5bd14f71427d1e84f3dd0314c0f7b2291e5b200ac8c7c3b925",
            "0x0000000000000000000000006efb11ac41b6657c32dac5ed4874082c700bba29",
            "0x0000000000000000000000008cb82ffca2ea57b29ad137b9a8cdca718233ff96"
          ],
          "data": "0xffffffffffffffffffffffffffffffffffffffffffffffffffffffffffffffff",
          "blockHash": "0xc5a52c30e5a71f8187712b60e3c162da986c368ad251adeb13d52c610002e597",
          "blockNumber": "0x74490d",
          "blockTimestamp": "0x67d32dcf",
          "transactionHash": "0x0f90f9b8bec283ba4d270929ade0652e5a24a9516673440af5b27896a2e226c1",
          "transactionIndex": "0x3c",
          "logIndex": "0x66",
          "removed": false
        }
      ],
      "logsBloom": "0x00000000000000002200000000000000000000000000000000000000000000000000000000000000000000000000000000000000000100000000000000200000000000000100000000000000000000000000000000000000000000000000000002000000000000000000000000000000000000000000000000000000000000000000000000000000000000000000000000000000000000000020000000000400020000000000000000000000000020000000000000000000000001000000000000000000000000000000000000000000000000000000000000000000000000000010000000000000000000000000000000000000000000000000000000000000",
      "type": "0x0",
      "transactionHash": "0x0f90f9b8bec283ba4d270929ade0652e5a24a9516673440af5b27896a2e226c1",
      "transactionIndex": "0x3c",
      "blockHash": "0xc5a52c30e5a71f8187712b60e3c162da986c368ad251adeb13d52c610002e597",
      "blockNumber": "0x74490d",
      "gasUsed": "0x96a4",
      "effectiveGasPrice": "0xc1b710800",
      "from": "0x6efb11ac41b6657c32dac5ed4874082c700bba29",
      "to": "0xe3f98fda6dbd38c1017754f1675dce377381c23c",
      "contractAddress": null
    },
    {
      "status": "0x1",
      "cumulativeGasUsed": "0x7a1d21",
      "logs": [
        {
          "address": "0x2c53ce7143d24a65410107f50e4aabad9a164480",
          "topics": [
            "0xddf252ad1be2c89b69c2b068fc378daa952ba7f163c4a11628f55a4df523b3ef",
            "0x0000000000000000000000006efb11ac41b6657c32dac5ed4874082c700bba29",
            "0x000000000000000000000000d7b397039e36f9b665a32d24d150ee1f0029d10a"
          ],
          "data": "0x000000000000000000000000000000000000000000000000000000003b9aca00",
          "blockHash": "0xc5a52c30e5a71f8187712b60e3c162da986c368ad251adeb13d52c610002e597",
          "blockNumber": "0x74490d",
          "blockTimestamp": "0x67d32dcf",
          "transactionHash": "0xecf80fd8d02a38a85a4613573eb6d7ea6cdfc79ef4f56bd1795fb7986182ab5a",
          "transactionIndex": "0x3d",
          "logIndex": "0x67",
          "removed": false
        },
        {
          "address": "0x2c53ce7143d24a65410107f50e4aabad9a164480",
          "topics": [
            "0xddf252ad1be2c89b69c2b068fc378daa952ba7f163c4a11628f55a4df523b3ef",
            "0x0000000000000000000000006efb11ac41b6657c32dac5ed4874082c700bba29",
            "0x000000000000000000000000d7b397039e36f9b665a32d24d150ee1f0029d10a"
          ],
          "data": "0x000000000000000000000000000000000000000000000000016345785d8a0000",
          "blockHash": "0xc5a52c30e5a71f8187712b60e3c162da986c368ad251adeb13d52c610002e597",
          "blockNumber": "0x74490d",
          "blockTimestamp": "0x67d32dcf",
          "transactionHash": "0xecf80fd8d02a38a85a4613573eb6d7ea6cdfc79ef4f56bd1795fb7986182ab5a",
          "transactionIndex": "0x3d",
          "logIndex": "0x68",
          "removed": false
        },
        {
          "address": "0x3c1706b1df304f1e039b824c1229bfbd5d0557d5",
          "topics": [
            "0x982103f3bd0079a3015fd3f668fa64c4ac330de26ba95c48ac8cdf93bd004a32"
          ],
          "data": "0x00000000000000000000000000000000000000000000000000000000000000060000000000000000000000006efb11ac41b6657c32dac5ed4874082c700bba290000000000000000000000006efb11ac41b6657c32dac5ed4874082c700bba290000000000000000000000006efb11ac41b6657c32dac5ed4874082c700bba29000000000000000000000000000000000000000000000000000000000000000000000000000000000000000000000000000000000000000000000000000000000000000000000000000000000e87d21bd714d3391e992227e472517a9dc16a240000000000000000000000002c53ce7143d24a65410107f50e4aabad9a164480000000000000000000000000000000000000000000000000000000000000000000000000000000000000000000000000000000000000006c6b935b8bbd400000000000000000000000000000000000000000000000000000016345785d8a00000000000000000000000000000000000000000000000000000000000000000000ffffffffffffffffffffffffffffffffffffffffffffffffffffffffffffffff000000000000000000000000000000000000000000000000000000003b9aca000000000000000000000000000000000000000000000000000000000067d32dcf000000000000000000000000000000000000000000000000000000000000000000000000000000000000000000000000000000000000000000000000000000010000000000000000000000000000000000000000000000000000000000000000",
          "blockHash": "0xc5a52c30e5a71f8187712b60e3c162da986c368ad251adeb13d52c610002e597",
          "blockNumber": "0x74490d",
          "blockTimestamp": "0x67d32dcf",
          "transactionHash": "0xecf80fd8d02a38a85a4613573eb6d7ea6cdfc79ef4f56bd1795fb7986182ab5a",
          "transactionIndex": "0x3d",
          "logIndex": "0x69",
          "removed": false
        }
      ],
      "logsBloom": "0x00000000000000000200000000100000000000000000000000000020000000000000000000000000000000000000000000001010000100000000000000000000000000000000000000000008000000000000000000000000000000000000000000000000000020000000000000000000000000000000000000000010000000000000000000000000000001000000000000000000000000000000008004000000000000000000000000000000000000000000000000000000100001000000000000000002000000000000000000000000000000010000000000000000000000000004001000000000000000000000000000000000000000000000000000000000",
      "type": "0x0",
      "transactionHash": "0xecf80fd8d02a38a85a4613573eb6d7ea6cdfc79ef4f56bd1795fb7986182ab5a",
      "transactionIndex": "0x3d",
      "blockHash": "0xc5a52c30e5a71f8187712b60e3c162da986c368ad251adeb13d52c610002e597",
      "blockNumber": "0x74490d",
      "gasUsed": "0x7b121",
      "effectiveGasPrice": "0xc1b710800",
      "from": "0x6efb11ac41b6657c32dac5ed4874082c700bba29",
      "to": "0x8cb82ffca2ea57b29ad137b9a8cdca718233ff96",
      "contractAddress": null
    },
    {
      "status": "0x1",
      "cumulativeGasUsed": "0x823fba",
      "logs": [
        {
          "address": "0x2c53ce7143d24a65410107f50e4aabad9a164480",
          "topics": [
            "0xddf252ad1be2c89b69c2b068fc378daa952ba7f163c4a11628f55a4df523b3ef",
            "0x0000000000000000000000006efb11ac41b6657c32dac5ed4874082c700bba29",
            "0x000000000000000000000000d7b397039e36f9b665a32d24d150ee1f0029d10a"
          ],
          "data": "0x000000000000000000000000000000000000000000000000000000003b9aca00",
          "blockHash": "0xc5a52c30e5a71f8187712b60e3c162da986c368ad251adeb13d52c610002e597",
          "blockNumber": "0x74490d",
          "blockTimestamp": "0x67d32dcf",
          "transactionHash": "0x4380fc21a656315a5566fc27f553e9b3caf68d16a489734384db37e96b0ba675",
          "transactionIndex": "0x3e",
          "logIndex": "0x6a",
          "removed": false
        },
        {
          "address": "0x53f7c389cbb801e2abfd301ded6d2a1cf330ac0d",
          "topics": [
            "0xddf252ad1be2c89b69c2b068fc378daa952ba7f163c4a11628f55a4df523b3ef",
            "0x0000000000000000000000006efb11ac41b6657c32dac5ed4874082c700bba29",
            "0x000000000000000000000000d7b397039e36f9b665a32d24d150ee1f0029d10a"
          ],
          "data": "0x000000000000000000000000000000000000000000000000002386f26fc10000",
          "blockHash": "0xc5a52c30e5a71f8187712b60e3c162da986c368ad251adeb13d52c610002e597",
          "blockNumber": "0x74490d",
          "blockTimestamp": "0x67d32dcf",
          "transactionHash": "0x4380fc21a656315a5566fc27f553e9b3caf68d16a489734384db37e96b0ba675",
          "transactionIndex": "0x3e",
          "logIndex": "0x6b",
          "removed": false
        },
        {
          "address": "0x3c1706b1df304f1e039b824c1229bfbd5d0557d5",
          "topics": [
            "0x982103f3bd0079a3015fd3f668fa64c4ac330de26ba95c48ac8cdf93bd004a32"
          ],
          "data": "0x00000000000000000000000000000000000000000000000000000000000000070000000000000000000000006efb11ac41b6657c32dac5ed4874082c700bba290000000000000000000000006efb11ac41b6657c32dac5ed4874082c700bba290000000000000000000000006efb11ac41b6657c32dac5ed4874082c700bba2900000000000000000000000000000000000000000000000000000000000000000000000000000000000000000000000000000000000000000000000000000000000000000000000000000000ba8a671c225721803cd64b12cb62a2363e9ee87300000000000000000000000053f7c389cbb801e2abfd301ded6d2a1cf330ac0d00000000000000000000000000000000000000000000000000000000000000000000000000000000000000000000000000000000000000e3aeb5737240a00000000000000000000000000000000000000000000000000000002386f26fc100000000000000000000000000000000000000000000000000000000000000000000ffffffffffffffffffffffffffffffffffffffffffffffffffffffffffffffff000000000000000000000000000000000000000000000000000000003b9aca000000000000000000000000000000000000000000000000000000000067d32dcf000000000000000000000000000000000000000000000000000000000000000000000000000000000000000000000000000000000000000000000000000000010000000000000000000000000000000000000000000000000000000000000000",
          "blockHash": "0xc5a52c30e5a71f8187712b60e3c162da986c368ad251adeb13d52c610002e597",
          "blockNumber": "0x74490d",
          "blockTimestamp": "0x67d32dcf",
          "transactionHash": "0x4380fc21a656315a5566fc27f553e9b3caf68d16a489734384db37e96b0ba675",
          "transactionIndex": "0x3e",
          "logIndex": "0x6c",
          "removed": false
        }
      ],
      "logsBloom": "0x00000000000000000200000002100000000000000000000000000020000000000000000000000000000000000000000000001010000100000000000000000000000000000000000000000008000000000000000000000000000000000000000000000000000020000000000000000000000000000000000000000010000000000000000000000000000001000000000000000000000000000000008004000000000000000010000000000000000000000000000000000000100001000000000000000002000000000000000000000000000000010000000000000000000000000004001000000000000000000000000000000000000000000008000000000000",
      "type": "0x0",
      "transactionHash": "0x4380fc21a656315a5566fc27f553e9b3caf68d16a489734384db37e96b0ba675",
      "transactionIndex": "0x3e",
      "blockHash": "0xc5a52c30e5a71f8187712b60e3c162da986c368ad251adeb13d52c610002e597",
      "blockNumber": "0x74490d",
      "gasUsed": "0x82299",
      "effectiveGasPrice": "0xc1b710800",
      "from": "0x6efb11ac41b6657c32dac5ed4874082c700bba29",
      "to": "0x8cb82ffca2ea57b29ad137b9a8cdca718233ff96",
      "contractAddress": null
    },
    {
      "status": "0x1",
      "cumulativeGasUsed": "0x8a62a6",
      "logs": [
        {
          "address": "0x2c53ce7143d24a65410107f50e4aabad9a164480",
          "topics": [
            "0xddf252ad1be2c89b69c2b068fc378daa952ba7f163c4a11628f55a4df523b3ef",
            "0x0000000000000000000000006efb11ac41b6657c32dac5ed4874082c700bba29",
            "0x000000000000000000000000d7b397039e36f9b665a32d24d150ee1f0029d10a"
          ],
          "data": "0x000000000000000000000000000000000000000000000000000000003b9aca00",
          "blockHash": "0xc5a52c30e5a71f8187712b60e3c162da986c368ad251adeb13d52c610002e597",
          "blockNumber": "0x74490d",
          "blockTimestamp": "0x67d32dcf",
          "transactionHash": "0x0c9038b80bb8c143a2a396dbc7ab6bcb4fe34e9219fd16e34842447f8763c928",
          "transactionIndex": "0x3f",
          "logIndex": "0x6d",
          "removed": false
        },
        {
          "address": "0xf9861d7478f8957679b26404bd6272c39f949c29",
          "topics": [
            "0xddf252ad1be2c89b69c2b068fc378daa952ba7f163c4a11628f55a4df523b3ef",
            "0x0000000000000000000000006efb11ac41b6657c32dac5ed4874082c700bba29",
            "0x000000000000000000000000d7b397039e36f9b665a32d24d150ee1f0029d10a"
          ],
          "data": "0x00000000000000000000000000000000000000000000152d02c7e14af6800000",
          "blockHash": "0xc5a52c30e5a71f8187712b60e3c162da986c368ad251adeb13d52c610002e597",
          "blockNumber": "0x74490d",
          "blockTimestamp": "0x67d32dcf",
          "transactionHash": "0x0c9038b80bb8c143a2a396dbc7ab6bcb4fe34e9219fd16e34842447f8763c928",
          "transactionIndex": "0x3f",
          "logIndex": "0x6e",
          "removed": false
        },
        {
          "address": "0x3c1706b1df304f1e039b824c1229bfbd5d0557d5",
          "topics": [
            "0x982103f3bd0079a3015fd3f668fa64c4ac330de26ba95c48ac8cdf93bd004a32"
          ],
          "data": "0x00000000000000000000000000000000000000000000000000000000000000080000000000000000000000006efb11ac41b6657c32dac5ed4874082c700bba290000000000000000000000006efb11ac41b6657c32dac5ed4874082c700bba290000000000000000000000006efb11ac41b6657c32dac5ed4874082c700bba290000000000000000000000000000000000000000000000000000000000000000000000000000000000000000000000000000000000000000000000000000000000000000000000000000000061cbb1a8fb2f8710fe95c6c3ef039b5828cb000b000000000000000000000000f9861d7478f8957679b26404bd6272c39f949c2900000000000000000000000000000000000000000000000000000000000000000000000000000000000000000000000000000000000000056bc75e2d6310000000000000000000000000000000000000000000000000152d02c7e14af68000000000000000000000000000000000000000000000000000000000000000000000ffffffffffffffffffffffffffffffffffffffffffffffffffffffffffffffff000000000000000000000000000000000000000000000000000000003b9aca000000000000000000000000000000000000000000000000000000000067d32dcf000000000000000000000000000000000000000000000000000000000000000000000000000000000000000000000000000000000000000000000000000000010000000000000000000000000000000000000000000000000000000000000000",
          "blockHash": "0xc5a52c30e5a71f8187712b60e3c162da986c368ad251adeb13d52c610002e597",
          "blockNumber": "0x74490d",
          "blockTimestamp": "0x67d32dcf",
          "transactionHash": "0x0c9038b80bb8c143a2a396dbc7ab6bcb4fe34e9219fd16e34842447f8763c928",
          "transactionIndex": "0x3f",
          "logIndex": "0x6f",
          "removed": false
        }
      ],
      "logsBloom": "0x00000000000000000200000000100000000000000000000000000020000000000000000000000000000000000000000000001010000100000000000000000000000000000000000000000008000000000000000000000000000000000000000000000000040020000000000000000000000000000000000000000010000000000000000000000000000001000000000000000000000000000000008004000000000000000000000000040000000000000000000000000000100001000000000000000002080000000000000000000000000000010000000000000000000000000004001000000000000000000000000000000000000000000000000000000000",
      "type": "0x0",
      "transactionHash": "0x0c9038b80bb8c143a2a396dbc7ab6bcb4fe34e9219fd16e34842447f8763c928",
      "transactionIndex": "0x3f",
      "blockHash": "0xc5a52c30e5a71f8187712b60e3c162da986c368ad251adeb13d52c610002e597",
      "blockNumber": "0x74490d",
      "gasUsed": "0x822ec",
      "effectiveGasPrice": "0xc1b710800",
      "from": "0x6efb11ac41b6657c32dac5ed4874082c700bba29",
      "to": "0x8cb82ffca2ea57b29ad137b9a8cdca718233ff96",
      "contractAddress": null
    },
    {
      "status": "0x1",
      "cumulativeGasUsed": "0x928571",
      "logs": [
        {
          "address": "0x2c53ce7143d24a65410107f50e4aabad9a164480",
          "topics": [
            "0xddf252ad1be2c89b69c2b068fc378daa952ba7f163c4a11628f55a4df523b3ef",
            "0x0000000000000000000000006efb11ac41b6657c32dac5ed4874082c700bba29",
            "0x000000000000000000000000d7b397039e36f9b665a32d24d150ee1f0029d10a"
          ],
          "data": "0x000000000000000000000000000000000000000000000000000000003b9aca00",
          "blockHash": "0xc5a52c30e5a71f8187712b60e3c162da986c368ad251adeb13d52c610002e597",
          "blockNumber": "0x74490d",
          "blockTimestamp": "0x67d32dcf",
          "transactionHash": "0x425ee31b41091c0678216582f6500bd9615fd9057b35b17f413330631fb1659d",
          "transactionIndex": "0x40",
          "logIndex": "0x70",
          "removed": false
        },
        {
          "address": "0x1889cfb8746716a0ac50e59a54f190987c5f04e6",
          "topics": [
            "0xddf252ad1be2c89b69c2b068fc378daa952ba7f163c4a11628f55a4df523b3ef",
            "0x0000000000000000000000006efb11ac41b6657c32dac5ed4874082c700bba29",
            "0x000000000000000000000000d7b397039e36f9b665a32d24d150ee1f0029d10a"
          ],
          "data": "0x00000000000000000000000000000000000000000000003635c9adc5dea00000",
          "blockHash": "0xc5a52c30e5a71f8187712b60e3c162da986c368ad251adeb13d52c610002e597",
          "blockNumber": "0x74490d",
          "blockTimestamp": "0x67d32dcf",
          "transactionHash": "0x425ee31b41091c0678216582f6500bd9615fd9057b35b17f413330631fb1659d",
          "transactionIndex": "0x40",
          "logIndex": "0x71",
          "removed": false
        },
        {
          "address": "0x3c1706b1df304f1e039b824c1229bfbd5d0557d5",
          "topics": [
            "0x982103f3bd0079a3015fd3f668fa64c4ac330de26ba95c48ac8cdf93bd004a32"
          ],
          "data": "0x00000000000000000000000000000000000000000000000000000000000000090000000000000000000000006efb11ac41b6657c32dac5ed4874082c700bba290000000000000000000000006efb11ac41b6657c32dac5ed4874082c700bba290000000000000000000000006efb11ac41b6657c32dac5ed4874082c700bba2900000000000000000000000000000000000000000000000000000000000000000000000000000000000000000000000000000000000000000000000000000000000000000000000000000000007b2f0fb291307452065b4a620c29d56d8875dc0000000000000000000000001889cfb8746716a0ac50e59a54f190987c5f04e6000000000000000000000000000000000000000000000000000000000000000000000000000000000000000000000000000000000000003635c9adc5dea0000000000000000000000000000000000000000000000000003635c9adc5dea000000000000000000000000000000000000000000000000000000000000000000000ffffffffffffffffffffffffffffffffffffffffffffffffffffffffffffffff000000000000000000000000000000000000000000000000000000003b9aca000000000000000000000000000000000000000000000000000000000067d32dcf000000000000000000000000000000000000000000000000000000000000000000000000000000000000000000000000000000000000000000000000000000010000000000000000000000000000000000000000000000000000000000000000",
          "blockHash": "0xc5a52c30e5a71f8187712b60e3c162da986c368ad251adeb13d52c610002e597",
          "blockNumber": "0x74490d",
          "blockTimestamp": "0x67d32dcf",
          "transactionHash": "0x425ee31b41091c0678216582f6500bd9615fd9057b35b17f413330631fb1659d",
          "transactionIndex": "0x40",
          "logIndex": "0x72",
          "removed": false
        }
      ],
      "logsBloom": "0x00000000000000000200000000100000000000000000000000000020000000000000000000000000000000000000000000001010000100000000000000000000000000000000000000000008000000000000000000000000000400000000000000000000000020000000000000000000000000000000000000000010000000000000000000000000000001000000000000000000000000000000008004000000000000000000100000000000000000000000000000000000100001000000000000000002000000000000000000000000000000010000000000000000000000000004001080000000000000000000000000000000000000000000000000000000",
      "type": "0x0",
      "transactionHash": "0x425ee31b41091c0678216582f6500bd9615fd9057b35b17f413330631fb1659d",
      "transactionIndex": "0x40",
      "blockHash": "0xc5a52c30e5a71f8187712b60e3c162da986c368ad251adeb13d52c610002e597",
      "blockNumber": "0x74490d",
      "gasUsed": "0x822cb",
      "effectiveGasPrice": "0xc1b710800",
      "from": "0x6efb11ac41b6657c32dac5ed4874082c700bba29",
      "to": "0x8cb82ffca2ea57b29ad137b9a8cdca718233ff96",
      "contractAddress": null
    },
    {
      "status": "0x1",
      "cumulativeGasUsed": "0x9aa82b",
      "logs": [
        {
          "address": "0x2c53ce7143d24a65410107f50e4aabad9a164480",
          "topics": [
            "0xddf252ad1be2c89b69c2b068fc378daa952ba7f163c4a11628f55a4df523b3ef",
            "0x0000000000000000000000006efb11ac41b6657c32dac5ed4874082c700bba29",
            "0x000000000000000000000000d7b397039e36f9b665a32d24d150ee1f0029d10a"
          ],
          "data": "0x000000000000000000000000000000000000000000000000000000003b9aca00",
          "blockHash": "0xc5a52c30e5a71f8187712b60e3c162da986c368ad251adeb13d52c610002e597",
          "blockNumber": "0x74490d",
          "blockTimestamp": "0x67d32dcf",
          "transactionHash": "0xee9fec214736059fe4b4550df06bd535e919d1db03a2fdb8dc86e261b25b5ad2",
          "transactionIndex": "0x41",
          "logIndex": "0x73",
          "removed": false
        },
        {
          "address": "0x6bc8a42d4b2f4bc8e4c3f9ecff00b7290ffa7405",
          "topics": [
            "0xddf252ad1be2c89b69c2b068fc378daa952ba7f163c4a11628f55a4df523b3ef",
            "0x0000000000000000000000006efb11ac41b6657c32dac5ed4874082c700bba29",
            "0x000000000000000000000000d7b397039e36f9b665a32d24d150ee1f0029d10a"
          ],
          "data": "0x00000000000000000000000000000000000000000000003635c9adc5dea00000",
          "blockHash": "0xc5a52c30e5a71f8187712b60e3c162da986c368ad251adeb13d52c610002e597",
          "blockNumber": "0x74490d",
          "blockTimestamp": "0x67d32dcf",
          "transactionHash": "0xee9fec214736059fe4b4550df06bd535e919d1db03a2fdb8dc86e261b25b5ad2",
          "transactionIndex": "0x41",
          "logIndex": "0x74",
          "removed": false
        },
        {
          "address": "0x3c1706b1df304f1e039b824c1229bfbd5d0557d5",
          "topics": [
            "0x982103f3bd0079a3015fd3f668fa64c4ac330de26ba95c48ac8cdf93bd004a32"
          ],
          "data": "0x000000000000000000000000000000000000000000000000000000000000000a0000000000000000000000006efb11ac41b6657c32dac5ed4874082c700bba290000000000000000000000006efb11ac41b6657c32dac5ed4874082c700bba290000000000000000000000006efb11ac41b6657c32dac5ed4874082c700bba29000000000000000000000000000000000000000000000000000000000000000000000000000000000000000000000000000000000000000000000000000000000000000000000000000000008fc3599e5d86df2e5ab4b9e20975da2ff17eb4b60000000000000000000000006bc8a42d4b2f4bc8e4c3f9ecff00b7290ffa7405000000000000000000000000000000000000000000000000000000000000000000000000000000000000000000000000000000000000001b1ae4d6e2ef50000000000000000000000000000000000000000000000000003635c9adc5dea000000000000000000000000000000000000000000000000000000000000000000000ffffffffffffffffffffffffffffffffffffffffffffffffffffffffffffffff000000000000000000000000000000000000000000000000000000003b9aca000000000000000000000000000000000000000000000000000000000067d32dcf000000000000000000000000000000000000000000000000000000000000000000000000000000000000000000000000000000000000000000000000000000010000000000000000000000000000000000000000000000000000000000000000",
          "blockHash": "0xc5a52c30e5a71f8187712b60e3c162da986c368ad251adeb13d52c610002e597",
          "blockNumber": "0x74490d",
          "blockTimestamp": "0x67d32dcf",
          "transactionHash": "0xee9fec214736059fe4b4550df06bd535e919d1db03a2fdb8dc86e261b25b5ad2",
          "transactionIndex": "0x41",
          "logIndex": "0x75",
          "removed": false
        }
      ],
      "logsBloom": "0x00000000000000000200000000100000000000000000000000000020000000000000000000000000000000000000000000003010000100000400000000000000000000000000000000000008000000000000000000000000000000000000000000000000000020000000000000000000000000000000000000000010000000000000000000000000000001000000000000000000000000000000008004000000000000000200000000000000000000000000000000000000100001000000000000000002000000000000000000000000000000010000000000000000000000000004001000000000000000000000000000000000000000000000000000000000",
      "type": "0x0",
      "transactionHash": "0xee9fec214736059fe4b4550df06bd535e919d1db03a2fdb8dc86e261b25b5ad2",
      "transactionIndex": "0x41",
      "blockHash": "0xc5a52c30e5a71f8187712b60e3c162da986c368ad251adeb13d52c610002e597",
      "blockNumber": "0x74490d",
      "gasUsed": "0x822ba",
      "effectiveGasPrice": "0xc1b710800",
      "from": "0x6efb11ac41b6657c32dac5ed4874082c700bba29",
      "to": "0x8cb82ffca2ea57b29ad137b9a8cdca718233ff96",
      "contractAddress": null
    },
    {
      "status": "0x1",
      "cumulativeGasUsed": "0xa2cae5",
      "logs": [
        {
          "address": "0x2c53ce7143d24a65410107f50e4aabad9a164480",
          "topics": [
            "0xddf252ad1be2c89b69c2b068fc378daa952ba7f163c4a11628f55a4df523b3ef",
            "0x0000000000000000000000006efb11ac41b6657c32dac5ed4874082c700bba29",
            "0x000000000000000000000000d7b397039e36f9b665a32d24d150ee1f0029d10a"
          ],
          "data": "0x000000000000000000000000000000000000000000000000000000003b9aca00",
          "blockHash": "0xc5a52c30e5a71f8187712b60e3c162da986c368ad251adeb13d52c610002e597",
          "blockNumber": "0x74490d",
          "blockTimestamp": "0x67d32dcf",
          "transactionHash": "0xe13b2b613e71938e43bb45334d1c2798567a0429a9a63f10de58282e0cbc6b8c",
          "transactionIndex": "0x42",
          "logIndex": "0x76",
          "removed": false
        },
        {
          "address": "0xe3f98fda6dbd38c1017754f1675dce377381c23c",
          "topics": [
            "0xddf252ad1be2c89b69c2b068fc378daa952ba7f163c4a11628f55a4df523b3ef",
            "0x0000000000000000000000006efb11ac41b6657c32dac5ed4874082c700bba29",
            "0x000000000000000000000000d7b397039e36f9b665a32d24d150ee1f0029d10a"
          ],
          "data": "0x0000000000000000000000000000000000000000000000008ac7230489e80000",
          "blockHash": "0xc5a52c30e5a71f8187712b60e3c162da986c368ad251adeb13d52c610002e597",
          "blockNumber": "0x74490d",
          "blockTimestamp": "0x67d32dcf",
          "transactionHash": "0xe13b2b613e71938e43bb45334d1c2798567a0429a9a63f10de58282e0cbc6b8c",
          "transactionIndex": "0x42",
          "logIndex": "0x77",
          "removed": false
        },
        {
          "address": "0x3c1706b1df304f1e039b824c1229bfbd5d0557d5",
          "topics": [
            "0x982103f3bd0079a3015fd3f668fa64c4ac330de26ba95c48ac8cdf93bd004a32"
          ],
          "data": "0x000000000000000000000000000000000000000000000000000000000000000b0000000000000000000000006efb11ac41b6657c32dac5ed4874082c700bba290000000000000000000000006efb11ac41b6657c32dac5ed4874082c700bba290000000000000000000000006efb11ac41b6657c32dac5ed4874082c700bba2900000000000000000000000000000000000000000000000000000000000000000000000000000000000000000000000000000000000000000000000000000000000000000000000000000000c9363063c1c5ea9392cc21bc44afd644632e618a000000000000000000000000e3f98fda6dbd38c1017754f1675dce377381c23c000000000000000000000000000000000000000000000000000000000000000000000000000000000000000000000000000000000000005150ae84a8cdf000000000000000000000000000000000000000000000000000008ac7230489e800000000000000000000000000000000000000000000000000000000000000000000ffffffffffffffffffffffffffffffffffffffffffffffffffffffffffffffff000000000000000000000000000000000000000000000000000000003b9aca000000000000000000000000000000000000000000000000000000000067d32dcf000000000000000000000000000000000000000000000000000000000000000000000000000000000000000000000000000000000000000000000000000000010000000000000000000000000000000000000000000000000000000000000000",
          "blockHash": "0xc5a52c30e5a71f8187712b60e3c162da986c368ad251adeb13d52c610002e597",
          "blockNumber": "0x74490d",
          "blockTimestamp": "0x67d32dcf",
          "transactionHash": "0xe13b2b613e71938e43bb45334d1c2798567a0429a9a63f10de58282e0cbc6b8c",
          "transactionIndex": "0x42",
          "logIndex": "0x78",
          "removed": false
        }
      ],
      "logsBloom": "0x00000000000000002200000000100000000000000000000000000020000000000000000000000000000000000000000000001010000100000000000000000000000000000000000000000008000000000000000000000000000000000000000000000000000020000000000000000000000000000000000000000010000000000000000000000000000001000000000000000000000000000020008004000000000000000000000000000000000020000000000000000000100001000000000000000002000000000000000000000000000000010000000000000000000000000004001000000000000000000000000000000000000000000000000000000000",
      "type": "0x0",
      "transactionHash": "0xe13b2b613e71938e43bb45334d1c2798567a0429a9a63f10de58282e0cbc6b8c",
      "transactionIndex": "0x42",
      "blockHash": "0xc5a52c30e5a71f8187712b60e3c162da986c368ad251adeb13d52c610002e597",
      "blockNumber": "0x74490d",
      "gasUsed": "0x822ba",
      "effectiveGasPrice": "0xc1b710800",
      "from": "0x6efb11ac41b6657c32dac5ed4874082c700bba29",
      "to": "0x8cb82ffca2ea57b29ad137b9a8cdca718233ff96",
      "contractAddress": null
    }
  ],
  "libraries": [],
  "pending": [],
  "returns": {},
  "timestamp": 1741893073,
  "chain": 10143,
  "commit": "69d67f9"
}