{
  "transactions": [
    {
      "hash": "0x53862dbe04417a43c08c06cad950b45e2aa9a49b1a1ec09b0e9845a982b485fb",
      "transactionType": "CALL",
      "contractName": null,
      "contractAddress": "0x97f3d75fcc683c8f557d637196857fa303f7cebd",
      "function": "approve(address,uint256)",
      "arguments": [
        "0x021B34967EB9CA1d79ab26E1e10AD7F12F90b8d5",
        "115792089237316195423570985008687907853269984665640564039457584007913129639935"
      ],
      "transaction": {
        "from": "0x6efb11ac41b6657c32dac5ed4874082c700bba29",
        "to": "0x97f3d75fcc683c8f557d637196857fa303f7cebd",
        "gas": "0x9382",
        "value": "0x0",
        "input": "0x095ea7b3000000000000000000000000021b34967eb9ca1d79ab26e1e10ad7f12f90b8d5ffffffffffffffffffffffffffffffffffffffffffffffffffffffffffffffff",
        "nonce": "0x1e",
        "chainId": "0x279f"
      },
      "additionalContracts": [],
      "isFixedGasLimit": false
    },
    {
      "hash": "0xe602d1907262810554f16d023cf3f80dec781036f68f7f4df993960ab22bb0f9",
      "transactionType": "CALL",
      "contractName": null,
      "contractAddress": "0x021b34967eb9ca1d79ab26e1e10ad7f12f90b8d5",
      "function": "multicall(bytes[])",
      "arguments": [
        "[0x7d39aaf1000000000000000000000000e505d7fecbe9967784524e424d9ea0bea20cc11900000000000000000000000000000000000000000000000000000002540be400, 0xe6d66ac800000000000000000000000097f3d75fcc683c8f557d637196857fa303f7cebd000000000000000000000000e505d7fecbe9967784524e424d9ea0bea20cc1190000000000000000000000000000000000000000000000000de0b6b3a7640000, 0x1ddbdd200000000000000000000000006efb11ac41b6657c32dac5ed4874082c700bba290000000000000000000000006efb11ac41b6657c32dac5ed4874082c700bba2900000000000000000000000000000000000000000000000000000000000000000000000000000000000000000000000000000000000000000000000000000000000000000000000000000000598b1401148899d37eaf29832d50e62836d1ffa800000000000000000000000097f3d75fcc683c8f557d637196857fa303f7cebd000000000000000000000000000000000000000000000000000000000000000000000000000000000000000000000000000000000000065a4da25d3016c000000000000000000000000000000000000000000000000000000de0b6b3a76400000000000000000000000000000000000000000000000000a2a15d09519be000000000000000000000000000000000000000000000000000b2e4b323d9c510000000000000000000000000000000000000000000000000000000000002540be400000000000000000000000000000000000000000000000000000000000000000000000000000000000000000000000000000000000000000000000000000000010000000000000000000000000000000000000000000000000000000000000000]"
      ],
      "transaction": {
        "from": "0x6efb11ac41b6657c32dac5ed4874082c700bba29",
        "to": "0x021b34967eb9ca1d79ab26e1e10ad7f12f90b8d5",
        "gas": "0x9c10b",
        "value": "0x0",
        "input": "0xac9650d800000000000000000000000000000000000000000000000000000000000000200000000000000000000000000000000000000000000000000000000000000003000000000000000000000000000000000000000000000000000000000000006000000000000000000000000000000000000000000000000000000000000000e0000000000000000000000000000000000000000000000000000000000000018000000000000000000000000000000000000000000000000000000000000000447d39aaf1000000000000000000000000e505d7fecbe9967784524e424d9ea0bea20cc11900000000000000000000000000000000000000000000000000000002540be400000000000000000000000000000000000000000000000000000000000000000000000000000000000000000000000000000000000000000000000064e6d66ac800000000000000000000000097f3d75fcc683c8f557d637196857fa303f7cebd000000000000000000000000e505d7fecbe9967784524e424d9ea0bea20cc1190000000000000000000000000000000000000000000000000de0b6b3a76400000000000000000000000000000000000000000000000000000000000000000000000000000000000000000000000000000000000000000000000001e41ddbdd200000000000000000000000006efb11ac41b6657c32dac5ed4874082c700bba290000000000000000000000006efb11ac41b6657c32dac5ed4874082c700bba2900000000000000000000000000000000000000000000000000000000000000000000000000000000000000000000000000000000000000000000000000000000000000000000000000000000598b1401148899d37eaf29832d50e62836d1ffa800000000000000000000000097f3d75fcc683c8f557d637196857fa303f7cebd000000000000000000000000000000000000000000000000000000000000000000000000000000000000000000000000000000000000065a4da25d3016c000000000000000000000000000000000000000000000000000000de0b6b3a76400000000000000000000000000000000000000000000000000a2a15d09519be000000000000000000000000000000000000000000000000000b2e4b323d9c510000000000000000000000000000000000000000000000000000000000002540be40000000000000000000000000000000000000000000000000000000000000000000000000000000000000000000000000000000000000000000000000000000001000000000000000000000000000000000000000000000000000000000000000000000000000000000000000000000000000000000000000000000000",
        "nonce": "0x1f",
        "chainId": "0x279f"
      },
      "additionalContracts": [],
      "isFixedGasLimit": false
    }
  ],
  "receipts": [
    {
      "status": "0x1",
      "cumulativeGasUsed": "0x12753fa",
      "logs": [
        {
          "address": "0x97f3d75fcc683c8f557d637196857fa303f7cebd",
          "topics": [
            "0x8c5be1e5ebec7d5bd14f71427d1e84f3dd0314c0f7b2291e5b200ac8c7c3b925",
            "0x0000000000000000000000006efb11ac41b6657c32dac5ed4874082c700bba29",
            "0x000000000000000000000000021b34967eb9ca1d79ab26e1e10ad7f12f90b8d5"
          ],
          "data": "0xffffffffffffffffffffffffffffffffffffffffffffffffffffffffffffffff",
          "blockHash": "0xb954ee2e0dc7b7dd482aaac2e037a715a20ece26b1274fecf655f39ade93ed68",
          "blockNumber": "0x655817",
          "blockTimestamp": "0x67cb2cbc",
          "transactionHash": "0x53862dbe04417a43c08c06cad950b45e2aa9a49b1a1ec09b0e9845a982b485fb",
          "transactionIndex": "0x93",
          "logIndex": "0x133",
          "removed": false
        }
      ],
      "logsBloom": "0x00000000000000000200000000000000000000002000000000000000000000000080000000000000000000000000000000000000000100000000000000200000000000000000000000000000000000000002000000000100000000000000000000000000000000000000000000000000000000000000000000000000000010000000000000000000000000000000000000000000000000000000000000000000020000000000000000000000000004000000000000000000000001000000000000000000000000000000000000000000000000000000000000000000000000000010000000000000000000000000000000000000000000000000000000000000",
      "type": "0x2",
      "transactionHash": "0x53862dbe04417a43c08c06cad950b45e2aa9a49b1a1ec09b0e9845a982b485fb",
      "transactionIndex": "0x93",
      "blockHash": "0xb954ee2e0dc7b7dd482aaac2e037a715a20ece26b1274fecf655f39ade93ed68",
      "blockNumber": "0x655817",
      "gasUsed": "0x9382",
      "effectiveGasPrice": "0xba43b7401",
      "from": "0x6efb11ac41b6657c32dac5ed4874082c700bba29",
      "to": "0x97f3d75fcc683c8f557d637196857fa303f7cebd",
      "contractAddress": null
    },
    {
      "status": "0x1",
      "cumulativeGasUsed": "0x1311505",
      "logs": [
        {
          "address": "0x97f3d75fcc683c8f557d637196857fa303f7cebd",
          "topics": [
            "0xddf252ad1be2c89b69c2b068fc378daa952ba7f163c4a11628f55a4df523b3ef",
            "0x0000000000000000000000006efb11ac41b6657c32dac5ed4874082c700bba29",
            "0x000000000000000000000000e505d7fecbe9967784524e424d9ea0bea20cc119"
          ],
          "data": "0x00000000000000000000000000000000000000000000000000000002540be400",
          "blockHash": "0xb954ee2e0dc7b7dd482aaac2e037a715a20ece26b1274fecf655f39ade93ed68",
          "blockNumber": "0x655817",
          "blockTimestamp": "0x67cb2cbc",
          "transactionHash": "0xe602d1907262810554f16d023cf3f80dec781036f68f7f4df993960ab22bb0f9",
          "transactionIndex": "0x94",
          "logIndex": "0x134",
          "removed": false
        },
        {
          "address": "0x97f3d75fcc683c8f557d637196857fa303f7cebd",
          "topics": [
            "0xddf252ad1be2c89b69c2b068fc378daa952ba7f163c4a11628f55a4df523b3ef",
            "0x0000000000000000000000006efb11ac41b6657c32dac5ed4874082c700bba29",
            "0x000000000000000000000000e505d7fecbe9967784524e424d9ea0bea20cc119"
          ],
          "data": "0x0000000000000000000000000000000000000000000000000de0b6b3a7640000",
          "blockHash": "0xb954ee2e0dc7b7dd482aaac2e037a715a20ece26b1274fecf655f39ade93ed68",
          "blockNumber": "0x655817",
          "blockTimestamp": "0x67cb2cbc",
          "transactionHash": "0xe602d1907262810554f16d023cf3f80dec781036f68f7f4df993960ab22bb0f9",
          "transactionIndex": "0x94",
          "logIndex": "0x135",
          "removed": false
        },
        {
          "address": "0x9436819e24a04fc4c172d46102fc2c0577048f5e",
          "topics": [
            "0x738b9309a8064f4f5bcdaf8cd252de15afc18a05840337e438c744f321b7a597"
          ],
          "data": "0x00000000000000000000000000000000000000000000000000000000000000000000000000000000000000006efb11ac41b6657c32dac5ed4874082c700bba290000000000000000000000006efb11ac41b6657c32dac5ed4874082c700bba290000000000000000000000006efb11ac41b6657c32dac5ed4874082c700bba2900000000000000000000000000000000000000000000000000000000000000000000000000000000000000000000000000000000000000000000000000000000000000000000000000000000598b1401148899d37eaf29832d50e62836d1ffa800000000000000000000000097f3d75fcc683c8f557d637196857fa303f7cebd000000000000000000000000000000000000000000000000000000000000000000000000000000000000000000000000000000000000065a4da25d3016c000000000000000000000000000000000000000000000000000000de0b6b3a76400000000000000000000000000000000000000000000000000a2a15d09519be000000000000000000000000000000000000000000000000000b2e4b323d9c510000000000000000000000000000000000000000000000000000000000002540be4000000000000000000000000000000000000000000000000000000000067cb2cbc000000000000000000000000000000000000000000000000000000000000000000000000000000000000000000000000000000000000000000000000000000010000000000000000000000000000000000000000000000000000000000000000",
          "blockHash": "0xb954ee2e0dc7b7dd482aaac2e037a715a20ece26b1274fecf655f39ade93ed68",
          "blockNumber": "0x655817",
          "blockTimestamp": "0x67cb2cbc",
          "transactionHash": "0xe602d1907262810554f16d023cf3f80dec781036f68f7f4df993960ab22bb0f9",
          "transactionIndex": "0x94",
          "logIndex": "0x136",
          "removed": false
        }
      ],
      "logsBloom": "0x00000000000000000200000000000000000000000000000010000000000000000080000000000200000000000000000000000000000100000000000000000020000000000000000000000008000000000002000010000100000000000000000000000000000000000000000000000000000000000000000000000010000000000000000000040000000000000000000000000000000000000000000000002000000000000000000000000000000000000000000000000008000001000000000000000002000000000000004000000000000000000000000000000000000000000000000000000000000000000000000000000000000000000000000000800000",
      "type": "0x2",
      "transactionHash": "0xe602d1907262810554f16d023cf3f80dec781036f68f7f4df993960ab22bb0f9",
      "transactionIndex": "0x94",
      "blockHash": "0xb954ee2e0dc7b7dd482aaac2e037a715a20ece26b1274fecf655f39ade93ed68",
      "blockNumber": "0x655817",
      "gasUsed": "0x9c10b",
      "effectiveGasPrice": "0xba43b7401",
      "from": "0x6efb11ac41b6657c32dac5ed4874082c700bba29",
      "to": "0x021b34967eb9ca1d79ab26e1e10ad7f12f90b8d5",
      "contractAddress": null
    }
  ],
  "libraries": [],
  "pending": [],
  "returns": {},
  "timestamp": 1741368510,
  "chain": 10143,
  "commit": "75ade75"
}