{
  "transactions": [
    {
      "hash": "0x0a292093da90c74ea891e9476ded22392f7166d398b0868ae84ef24b11e5956c",
      "transactionType": "CALL",
      "contractName": null,
      "contractAddress": "0x2c53ce7143d24a65410107f50e4aabad9a164480",
      "function": "mint(address,uint256)",
      "arguments": [
        "0x6EFb11aC41B6657c32dAc5Ed4874082C700BbA29",
        "10000000000000000000"
      ],
      "transaction": {
        "from": "0x6efb11ac41b6657c32dac5ed4874082c700bba29",
        "to": "0x2c53ce7143d24a65410107f50e4aabad9a164480",
        "gas": "0xc1a6",
        "value": "0x0",
        "input": "0x40c10f190000000000000000000000006efb11ac41b6657c32dac5ed4874082c700bba290000000000000000000000000000000000000000000000008ac7230489e80000",
        "nonce": "0x145",
        "chainId": "0x279f"
      },
      "additionalContracts": [],
      "isFixedGasLimit": false
    },
    {
      "hash": "0xd258657521f18c96db29b5fe4a92a864b63a27a9832730b35ec20c6b5aa9802d",
      "transactionType": "CALL",
      "contractName": null,
      "contractAddress": "0x53f7c389cbb801e2abfd301ded6d2a1cf330ac0d",
      "function": "mint(address,uint256)",
      "arguments": [
        "0x6EFb11aC41B6657c32dAc5Ed4874082C700BbA29",
        "1000000000000000000"
      ],
      "transaction": {
        "from": "0x6efb11ac41b6657c32dac5ed4874082c700bba29",
        "to": "0x53f7c389cbb801e2abfd301ded6d2a1cf330ac0d",
        "gas": "0xc1a6",
        "value": "0x0",
        "input": "0x40c10f190000000000000000000000006efb11ac41b6657c32dac5ed4874082c700bba290000000000000000000000000000000000000000000000000de0b6b3a7640000",
        "nonce": "0x146",
        "chainId": "0x279f"
      },
      "additionalContracts": [],
      "isFixedGasLimit": false
    },
    {
      "hash": "0x927ffccc4f5ac6001788147a2095b0d62f281be78678a3ebbdf6ed8e9a6d2523",
      "transactionType": "CALL",
      "contractName": null,
      "contractAddress": "0xf9861d7478f8957679b26404bd6272c39f949c29",
      "function": "mint(address,uint256)",
      "arguments": [
        "0x6EFb11aC41B6657c32dAc5Ed4874082C700BbA29",
        "1000000000000000000000000"
      ],
      "transaction": {
        "from": "0x6efb11ac41b6657c32dac5ed4874082c700bba29",
        "to": "0xf9861d7478f8957679b26404bd6272c39f949c29",
        "gas": "0xb6f4",
        "value": "0x0",
        "input": "0x40c10f190000000000000000000000006efb11ac41b6657c32dac5ed4874082c700bba2900000000000000000000000000000000000000000000d3c21bcecceda1000000",
        "nonce": "0x147",
        "chainId": "0x279f"
      },
      "additionalContracts": [],
      "isFixedGasLimit": false
    },
    {
      "hash": "0xce370b030a1068dc414de9df64562d51bfbf64806816867437fdc0243fb607cf",
      "transactionType": "CALL",
      "contractName": null,
      "contractAddress": "0x1889cfb8746716a0ac50e59a54f190987c5f04e6",
      "function": "mint(address,uint256)",
      "arguments": [
        "0x6EFb11aC41B6657c32dAc5Ed4874082C700BbA29",
        "10000000000000000000000"
      ],
      "transaction": {
        "from": "0x6efb11ac41b6657c32dac5ed4874082c700bba29",
        "to": "0x1889cfb8746716a0ac50e59a54f190987c5f04e6",
        "gas": "0xc1c9",
        "value": "0x0",
        "input": "0x40c10f190000000000000000000000006efb11ac41b6657c32dac5ed4874082c700bba2900000000000000000000000000000000000000000000021e19e0c9bab2400000",
        "nonce": "0x148",
        "chainId": "0x279f"
      },
      "additionalContracts": [],
      "isFixedGasLimit": false
    },
    {
      "hash": "0x954ad4f64076b0464a8852d7247f33bb103e867633d8cac3d2aaad7ba5a8ec2b",
      "transactionType": "CALL",
      "contractName": null,
      "contractAddress": "0x6bc8a42d4b2f4bc8e4c3f9ecff00b7290ffa7405",
      "function": "mint(address,uint256)",
      "arguments": [
        "0x6EFb11aC41B6657c32dAc5Ed4874082C700BbA29",
        "10000000000000000000000"
      ],
      "transaction": {
        "from": "0x6efb11ac41b6657c32dac5ed4874082c700bba29",
        "to": "0x6bc8a42d4b2f4bc8e4c3f9ecff00b7290ffa7405",
        "gas": "0xc1c9",
        "value": "0x0",
        "input": "0x40c10f190000000000000000000000006efb11ac41b6657c32dac5ed4874082c700bba2900000000000000000000000000000000000000000000021e19e0c9bab2400000",
        "nonce": "0x149",
        "chainId": "0x279f"
      },
      "additionalContracts": [],
      "isFixedGasLimit": false
    },
    {
      "hash": "0x1fa3b7b44ab1000a7858a77f1a6c736b632d53e3bd7e77d986ee8a79cccf5bc2",
      "transactionType": "CALL",
      "contractName": null,
      "contractAddress": "0xe3f98fda6dbd38c1017754f1675dce377381c23c",
      "function": "mint(address,uint256)",
      "arguments": [
        "0x6EFb11aC41B6657c32dAc5Ed4874082C700BbA29",
        "1000000000000000000000"
      ],
      "transaction": {
        "from": "0x6efb11ac41b6657c32dac5ed4874082c700bba29",
        "to": "0xe3f98fda6dbd38c1017754f1675dce377381c23c",
        "gas": "0xb6f4",
        "value": "0x0",
        "input": "0x40c10f190000000000000000000000006efb11ac41b6657c32dac5ed4874082c700bba2900000000000000000000000000000000000000000000003635c9adc5dea00000",
        "nonce": "0x14a",
        "chainId": "0x279f"
      },
      "additionalContracts": [],
      "isFixedGasLimit": false
    },
    {
      "hash": "0xe9b03bd38fa75f335ff69b0027b24b8d07a7eb7184135904820d41f285bca440",
      "transactionType": "CALL",
      "contractName": null,
      "contractAddress": "0x2c53ce7143d24a65410107f50e4aabad9a164480",
      "function": "approve(address,uint256)",
      "arguments": [
        "0x2e505C38656AE7e6B1134F48b0DaF6f725A6EaEB",
        "115792089237316195423570985008687907853269984665640564039457584007913129639935"
      ],
      "transaction": {
        "from": "0x6efb11ac41b6657c32dac5ed4874082c700bba29",
        "to": "0x2c53ce7143d24a65410107f50e4aabad9a164480",
        "gas": "0x96a4",
        "value": "0x0",
        "input": "0x095ea7b30000000000000000000000002e505c38656ae7e6b1134f48b0daf6f725a6eaebffffffffffffffffffffffffffffffffffffffffffffffffffffffffffffffff",
        "nonce": "0x14b",
        "chainId": "0x279f"
      },
      "additionalContracts": [],
      "isFixedGasLimit": false
    },
    {
      "hash": "0x65b455d75a2a812901167cc64caa509aa73472f88f00c25ee6979d3f71dcfb83",
      "transactionType": "CALL",
      "contractName": null,
      "contractAddress": "0x53f7c389cbb801e2abfd301ded6d2a1cf330ac0d",
      "function": "approve(address,uint256)",
      "arguments": [
        "0x2e505C38656AE7e6B1134F48b0DaF6f725A6EaEB",
        "115792089237316195423570985008687907853269984665640564039457584007913129639935"
      ],
      "transaction": {
        "from": "0x6efb11ac41b6657c32dac5ed4874082c700bba29",
        "to": "0x53f7c389cbb801e2abfd301ded6d2a1cf330ac0d",
        "gas": "0x96a4",
        "value": "0x0",
        "input": "0x095ea7b30000000000000000000000002e505c38656ae7e6b1134f48b0daf6f725a6eaebffffffffffffffffffffffffffffffffffffffffffffffffffffffffffffffff",
        "nonce": "0x14c",
        "chainId": "0x279f"
      },
      "additionalContracts": [],
      "isFixedGasLimit": false
    },
    {
      "hash": "0xd6ee5ac3b67e3dd249a940a934c72696f42a7d95e155b04bd14b5cb45d5b60de",
      "transactionType": "CALL",
      "contractName": null,
      "contractAddress": "0xf9861d7478f8957679b26404bd6272c39f949c29",
      "function": "approve(address,uint256)",
      "arguments": [
        "0x2e505C38656AE7e6B1134F48b0DaF6f725A6EaEB",
        "115792089237316195423570985008687907853269984665640564039457584007913129639935"
      ],
      "transaction": {
        "from": "0x6efb11ac41b6657c32dac5ed4874082c700bba29",
        "to": "0xf9861d7478f8957679b26404bd6272c39f949c29",
        "gas": "0x96a4",
        "value": "0x0",
        "input": "0x095ea7b30000000000000000000000002e505c38656ae7e6b1134f48b0daf6f725a6eaebffffffffffffffffffffffffffffffffffffffffffffffffffffffffffffffff",
        "nonce": "0x14d",
        "chainId": "0x279f"
      },
      "additionalContracts": [],
      "isFixedGasLimit": false
    },
    {
      "hash": "0x2c20a0fcae579f033209dceceec32b63563a1fd7a89d51de249d7db381f13f00",
      "transactionType": "CALL",
      "contractName": null,
      "contractAddress": "0x1889cfb8746716a0ac50e59a54f190987c5f04e6",
      "function": "approve(address,uint256)",
      "arguments": [
        "0x2e505C38656AE7e6B1134F48b0DaF6f725A6EaEB",
        "115792089237316195423570985008687907853269984665640564039457584007913129639935"
      ],
      "transaction": {
        "from": "0x6efb11ac41b6657c32dac5ed4874082c700bba29",
        "to": "0x1889cfb8746716a0ac50e59a54f190987c5f04e6",
        "gas": "0x96a4",
        "value": "0x0",
        "input": "0x095ea7b30000000000000000000000002e505c38656ae7e6b1134f48b0daf6f725a6eaebffffffffffffffffffffffffffffffffffffffffffffffffffffffffffffffff",
        "nonce": "0x14e",
        "chainId": "0x279f"
      },
      "additionalContracts": [],
      "isFixedGasLimit": false
    },
    {
      "hash": "0x7b2d467a95eef5f9e0d592c18539b558dc8d3b072e82c74ef7ff751fc6d160dc",
      "transactionType": "CALL",
      "contractName": null,
      "contractAddress": "0x6bc8a42d4b2f4bc8e4c3f9ecff00b7290ffa7405",
      "function": "approve(address,uint256)",
      "arguments": [
        "0x2e505C38656AE7e6B1134F48b0DaF6f725A6EaEB",
        "115792089237316195423570985008687907853269984665640564039457584007913129639935"
      ],
      "transaction": {
        "from": "0x6efb11ac41b6657c32dac5ed4874082c700bba29",
        "to": "0x6bc8a42d4b2f4bc8e4c3f9ecff00b7290ffa7405",
        "gas": "0x96a4",
        "value": "0x0",
        "input": "0x095ea7b30000000000000000000000002e505c38656ae7e6b1134f48b0daf6f725a6eaebffffffffffffffffffffffffffffffffffffffffffffffffffffffffffffffff",
        "nonce": "0x14f",
        "chainId": "0x279f"
      },
      "additionalContracts": [],
      "isFixedGasLimit": false
    },
    {
      "hash": "0x8b43af59130165217eb03427bb82ea0d635de711a0e1905ccdb01a11afd0028c",
      "transactionType": "CALL",
      "contractName": null,
      "contractAddress": "0xe3f98fda6dbd38c1017754f1675dce377381c23c",
      "function": "approve(address,uint256)",
      "arguments": [
        "0x2e505C38656AE7e6B1134F48b0DaF6f725A6EaEB",
        "115792089237316195423570985008687907853269984665640564039457584007913129639935"
      ],
      "transaction": {
        "from": "0x6efb11ac41b6657c32dac5ed4874082c700bba29",
        "to": "0xe3f98fda6dbd38c1017754f1675dce377381c23c",
        "gas": "0x96a4",
        "value": "0x0",
        "input": "0x095ea7b30000000000000000000000002e505c38656ae7e6b1134f48b0daf6f725a6eaebffffffffffffffffffffffffffffffffffffffffffffffffffffffffffffffff",
        "nonce": "0x150",
        "chainId": "0x279f"
      },
      "additionalContracts": [],
      "isFixedGasLimit": false
    },
    {
      "hash": "0x58db7e7334bede47050d88b060bc19e92bfc1511196e537f9331d2b084b41757",
      "transactionType": "CALL",
      "contractName": null,
      "contractAddress": "0x2e505c38656ae7e6b1134f48b0daf6f725a6eaeb",
      "function": "multicall(bytes[])",
      "arguments": [
        "[0x7d39aaf10000000000000000000000003fbcb48c857b1ea07f722801e2ef4d7e0e61ba2d000000000000000000000000000000000000000000000000000000003b9aca00, 0xe6d66ac80000000000000000000000002c53ce7143d24a65410107f50e4aabad9a1644800000000000000000000000003fbcb48c857b1ea07f722801e2ef4d7e0e61ba2d000000000000000000000000000000000000000000000000016345785d8a0000, 0x1ddbdd200000000000000000000000006efb11ac41b6657c32dac5ed4874082c700bba290000000000000000000000006efb11ac41b6657c32dac5ed4874082c700bba29000000000000000000000000000000000000000000000000000000000000000000000000000000000000000000000000000000000000000000000000000000000000000000000000000000004c51d8a789b0029cf47c2366eebf6205a09d929b0000000000000000000000002c53ce7143d24a65410107f50e4aabad9a164480000000000000000000000000000000000000000000000000000000000000000000000000000000000000000000000000000000000000006c6b935b8bbd400000000000000000000000000000000000000000000000000000016345785d8a00000000000000000000000000000000000000000000000000000000000000000000ffffffffffffffffffffffffffffffffffffffffffffffffffffffffffffffff000000000000000000000000000000000000000000000000000000003b9aca00000000000000000000000000000000000000000000000000000000000000000000000000000000000000000000000000000000000000000000000000000000010000000000000000000000000000000000000000000000000000000000000000]"
      ],
      "transaction": {
        "from": "0x6efb11ac41b6657c32dac5ed4874082c700bba29",
        "to": "0x2e505c38656ae7e6b1134f48b0daf6f725a6eaeb",
        "gas": "0x94a2c",
        "value": "0x0",
        "input": "0xac9650d800000000000000000000000000000000000000000000000000000000000000200000000000000000000000000000000000000000000000000000000000000003000000000000000000000000000000000000000000000000000000000000006000000000000000000000000000000000000000000000000000000000000000e0000000000000000000000000000000000000000000000000000000000000018000000000000000000000000000000000000000000000000000000000000000447d39aaf10000000000000000000000003fbcb48c857b1ea07f722801e2ef4d7e0e61ba2d000000000000000000000000000000000000000000000000000000003b9aca00000000000000000000000000000000000000000000000000000000000000000000000000000000000000000000000000000000000000000000000064e6d66ac80000000000000000000000002c53ce7143d24a65410107f50e4aabad9a1644800000000000000000000000003fbcb48c857b1ea07f722801e2ef4d7e0e61ba2d000000000000000000000000000000000000000000000000016345785d8a00000000000000000000000000000000000000000000000000000000000000000000000000000000000000000000000000000000000000000000000001e41ddbdd200000000000000000000000006efb11ac41b6657c32dac5ed4874082c700bba290000000000000000000000006efb11ac41b6657c32dac5ed4874082c700bba29000000000000000000000000000000000000000000000000000000000000000000000000000000000000000000000000000000000000000000000000000000000000000000000000000000004c51d8a789b0029cf47c2366eebf6205a09d929b0000000000000000000000002c53ce7143d24a65410107f50e4aabad9a164480000000000000000000000000000000000000000000000000000000000000000000000000000000000000000000000000000000000000006c6b935b8bbd400000000000000000000000000000000000000000000000000000016345785d8a00000000000000000000000000000000000000000000000000000000000000000000ffffffffffffffffffffffffffffffffffffffffffffffffffffffffffffffff000000000000000000000000000000000000000000000000000000003b9aca0000000000000000000000000000000000000000000000000000000000000000000000000000000000000000000000000000000000000000000000000000000001000000000000000000000000000000000000000000000000000000000000000000000000000000000000000000000000000000000000000000000000",
        "nonce": "0x151",
        "chainId": "0x279f"
      },
      "additionalContracts": [],
      "isFixedGasLimit": false
    },
    {
      "hash": "0xe770bb021173270a63e01b7e7986c7206cc096e5b7ce300c2dda29dea7db6576",
      "transactionType": "CALL",
      "contractName": null,
      "contractAddress": "0x2e505c38656ae7e6b1134f48b0daf6f725a6eaeb",
      "function": "multicall(bytes[])",
      "arguments": [
        "[0x7d39aaf10000000000000000000000003fbcb48c857b1ea07f722801e2ef4d7e0e61ba2d000000000000000000000000000000000000000000000000000000003b9aca00, 0xe6d66ac800000000000000000000000053f7c389cbb801e2abfd301ded6d2a1cf330ac0d0000000000000000000000003fbcb48c857b1ea07f722801e2ef4d7e0e61ba2d000000000000000000000000000000000000000000000000002386f26fc10000, 0x1ddbdd200000000000000000000000006efb11ac41b6657c32dac5ed4874082c700bba290000000000000000000000006efb11ac41b6657c32dac5ed4874082c700bba2900000000000000000000000000000000000000000000000000000000000000000000000000000000000000000000000000000000000000000000000000000000000000000000000000000000b0a7f91a1c917a3bff73f2e3829032c64e13595100000000000000000000000053f7c389cbb801e2abfd301ded6d2a1cf330ac0d00000000000000000000000000000000000000000000000000000000000000000000000000000000000000000000000000000000000000e3aeb5737240a00000000000000000000000000000000000000000000000000000002386f26fc100000000000000000000000000000000000000000000000000000000000000000000ffffffffffffffffffffffffffffffffffffffffffffffffffffffffffffffff000000000000000000000000000000000000000000000000000000003b9aca00000000000000000000000000000000000000000000000000000000000000000000000000000000000000000000000000000000000000000000000000000000010000000000000000000000000000000000000000000000000000000000000000]"
      ],
      "transaction": {
        "from": "0x6efb11ac41b6657c32dac5ed4874082c700bba29",
        "to": "0x2e505c38656ae7e6b1134f48b0daf6f725a6eaeb",
        "gas": "0x8db41",
        "value": "0x0",
        "input": "0xac9650d800000000000000000000000000000000000000000000000000000000000000200000000000000000000000000000000000000000000000000000000000000003000000000000000000000000000000000000000000000000000000000000006000000000000000000000000000000000000000000000000000000000000000e0000000000000000000000000000000000000000000000000000000000000018000000000000000000000000000000000000000000000000000000000000000447d39aaf10000000000000000000000003fbcb48c857b1ea07f722801e2ef4d7e0e61ba2d000000000000000000000000000000000000000000000000000000003b9aca00000000000000000000000000000000000000000000000000000000000000000000000000000000000000000000000000000000000000000000000064e6d66ac800000000000000000000000053f7c389cbb801e2abfd301ded6d2a1cf330ac0d0000000000000000000000003fbcb48c857b1ea07f722801e2ef4d7e0e61ba2d000000000000000000000000000000000000000000000000002386f26fc100000000000000000000000000000000000000000000000000000000000000000000000000000000000000000000000000000000000000000000000001e41ddbdd200000000000000000000000006efb11ac41b6657c32dac5ed4874082c700bba290000000000000000000000006efb11ac41b6657c32dac5ed4874082c700bba2900000000000000000000000000000000000000000000000000000000000000000000000000000000000000000000000000000000000000000000000000000000000000000000000000000000b0a7f91a1c917a3bff73f2e3829032c64e13595100000000000000000000000053f7c389cbb801e2abfd301ded6d2a1cf330ac0d00000000000000000000000000000000000000000000000000000000000000000000000000000000000000000000000000000000000000e3aeb5737240a00000000000000000000000000000000000000000000000000000002386f26fc100000000000000000000000000000000000000000000000000000000000000000000ffffffffffffffffffffffffffffffffffffffffffffffffffffffffffffffff000000000000000000000000000000000000000000000000000000003b9aca0000000000000000000000000000000000000000000000000000000000000000000000000000000000000000000000000000000000000000000000000000000001000000000000000000000000000000000000000000000000000000000000000000000000000000000000000000000000000000000000000000000000",
        "nonce": "0x152",
        "chainId": "0x279f"
      },
      "additionalContracts": [],
      "isFixedGasLimit": false
    },
    {
      "hash": "0x24f2ee2946fbb9194e189fd08101822b02b113a5899c1b3f3ee06c0695b4a1ed",
      "transactionType": "CALL",
      "contractName": null,
      "contractAddress": "0x2e505c38656ae7e6b1134f48b0daf6f725a6eaeb",
      "function": "multicall(bytes[])",
      "arguments": [
        "[0x7d39aaf10000000000000000000000003fbcb48c857b1ea07f722801e2ef4d7e0e61ba2d000000000000000000000000000000000000000000000000000000003b9aca00, 0xe6d66ac8000000000000000000000000f9861d7478f8957679b26404bd6272c39f949c290000000000000000000000003fbcb48c857b1ea07f722801e2ef4d7e0e61ba2d00000000000000000000000000000000000000000000152d02c7e14af6800000, 0x1ddbdd200000000000000000000000006efb11ac41b6657c32dac5ed4874082c700bba290000000000000000000000006efb11ac41b6657c32dac5ed4874082c700bba29000000000000000000000000000000000000000000000000000000000000000000000000000000000000000000000000000000000000000000000000000000000000000000000000000000001664f516fbe65dd0089152c93f724b8810881fdc000000000000000000000000f9861d7478f8957679b26404bd6272c39f949c2900000000000000000000000000000000000000000000000000000000000000000000000000000000000000000000000000000000000000056bc75e2d6310000000000000000000000000000000000000000000000000152d02c7e14af68000000000000000000000000000000000000000000000000000000000000000000000ffffffffffffffffffffffffffffffffffffffffffffffffffffffffffffffff000000000000000000000000000000000000000000000000000000003b9aca00000000000000000000000000000000000000000000000000000000000000000000000000000000000000000000000000000000000000000000000000000000010000000000000000000000000000000000000000000000000000000000000000]"
      ],
      "transaction": {
        "from": "0x6efb11ac41b6657c32dac5ed4874082c700bba29",
        "to": "0x2e505c38656ae7e6b1134f48b0daf6f725a6eaeb",
        "gas": "0x8dba4",
        "value": "0x0",
        "input": "0xac9650d800000000000000000000000000000000000000000000000000000000000000200000000000000000000000000000000000000000000000000000000000000003000000000000000000000000000000000000000000000000000000000000006000000000000000000000000000000000000000000000000000000000000000e0000000000000000000000000000000000000000000000000000000000000018000000000000000000000000000000000000000000000000000000000000000447d39aaf10000000000000000000000003fbcb48c857b1ea07f722801e2ef4d7e0e61ba2d000000000000000000000000000000000000000000000000000000003b9aca00000000000000000000000000000000000000000000000000000000000000000000000000000000000000000000000000000000000000000000000064e6d66ac8000000000000000000000000f9861d7478f8957679b26404bd6272c39f949c290000000000000000000000003fbcb48c857b1ea07f722801e2ef4d7e0e61ba2d00000000000000000000000000000000000000000000152d02c7e14af68000000000000000000000000000000000000000000000000000000000000000000000000000000000000000000000000000000000000000000000000001e41ddbdd200000000000000000000000006efb11ac41b6657c32dac5ed4874082c700bba290000000000000000000000006efb11ac41b6657c32dac5ed4874082c700bba29000000000000000000000000000000000000000000000000000000000000000000000000000000000000000000000000000000000000000000000000000000000000000000000000000000001664f516fbe65dd0089152c93f724b8810881fdc000000000000000000000000f9861d7478f8957679b26404bd6272c39f949c2900000000000000000000000000000000000000000000000000000000000000000000000000000000000000000000000000000000000000056bc75e2d6310000000000000000000000000000000000000000000000000152d02c7e14af68000000000000000000000000000000000000000000000000000000000000000000000ffffffffffffffffffffffffffffffffffffffffffffffffffffffffffffffff000000000000000000000000000000000000000000000000000000003b9aca0000000000000000000000000000000000000000000000000000000000000000000000000000000000000000000000000000000000000000000000000000000001000000000000000000000000000000000000000000000000000000000000000000000000000000000000000000000000000000000000000000000000",
        "nonce": "0x153",
        "chainId": "0x279f"
      },
      "additionalContracts": [],
      "isFixedGasLimit": false
    },
    {
      "hash": "0x2edc6ad0f07c32f41aee0461514c565f9da5cb5182a2fb6b6d3d101522d06112",
      "transactionType": "CALL",
      "contractName": null,
      "contractAddress": "0x2e505c38656ae7e6b1134f48b0daf6f725a6eaeb",
      "function": "multicall(bytes[])",
      "arguments": [
        "[0x7d39aaf10000000000000000000000003fbcb48c857b1ea07f722801e2ef4d7e0e61ba2d000000000000000000000000000000000000000000000000000000003b9aca00, 0xe6d66ac80000000000000000000000001889cfb8746716a0ac50e59a54f190987c5f04e60000000000000000000000003fbcb48c857b1ea07f722801e2ef4d7e0e61ba2d00000000000000000000000000000000000000000000003635c9adc5dea00000, 0x1ddbdd200000000000000000000000006efb11ac41b6657c32dac5ed4874082c700bba290000000000000000000000006efb11ac41b6657c32dac5ed4874082c700bba290000000000000000000000000000000000000000000000000000000000000000000000000000000000000000000000000000000000000000000000000000000000000000000000000000000041b38fcc7eb3365393d5a2228d14d34c8f8418280000000000000000000000001889cfb8746716a0ac50e59a54f190987c5f04e6000000000000000000000000000000000000000000000000000000000000000000000000000000000000000000000000000000000000003635c9adc5dea0000000000000000000000000000000000000000000000000003635c9adc5dea000000000000000000000000000000000000000000000000000000000000000000000ffffffffffffffffffffffffffffffffffffffffffffffffffffffffffffffff000000000000000000000000000000000000000000000000000000003b9aca00000000000000000000000000000000000000000000000000000000000000000000000000000000000000000000000000000000000000000000000000000000010000000000000000000000000000000000000000000000000000000000000000]"
      ],
      "transaction": {
        "from": "0x6efb11ac41b6657c32dac5ed4874082c700bba29",
        "to": "0x2e505c38656ae7e6b1134f48b0daf6f725a6eaeb",
        "gas": "0x8db83",
        "value": "0x0",
        "input": "0xac9650d800000000000000000000000000000000000000000000000000000000000000200000000000000000000000000000000000000000000000000000000000000003000000000000000000000000000000000000000000000000000000000000006000000000000000000000000000000000000000000000000000000000000000e0000000000000000000000000000000000000000000000000000000000000018000000000000000000000000000000000000000000000000000000000000000447d39aaf10000000000000000000000003fbcb48c857b1ea07f722801e2ef4d7e0e61ba2d000000000000000000000000000000000000000000000000000000003b9aca00000000000000000000000000000000000000000000000000000000000000000000000000000000000000000000000000000000000000000000000064e6d66ac80000000000000000000000001889cfb8746716a0ac50e59a54f190987c5f04e60000000000000000000000003fbcb48c857b1ea07f722801e2ef4d7e0e61ba2d00000000000000000000000000000000000000000000003635c9adc5dea000000000000000000000000000000000000000000000000000000000000000000000000000000000000000000000000000000000000000000000000001e41ddbdd200000000000000000000000006efb11ac41b6657c32dac5ed4874082c700bba290000000000000000000000006efb11ac41b6657c32dac5ed4874082c700bba290000000000000000000000000000000000000000000000000000000000000000000000000000000000000000000000000000000000000000000000000000000000000000000000000000000041b38fcc7eb3365393d5a2228d14d34c8f8418280000000000000000000000001889cfb8746716a0ac50e59a54f190987c5f04e6000000000000000000000000000000000000000000000000000000000000000000000000000000000000000000000000000000000000003635c9adc5dea0000000000000000000000000000000000000000000000000003635c9adc5dea000000000000000000000000000000000000000000000000000000000000000000000ffffffffffffffffffffffffffffffffffffffffffffffffffffffffffffffff000000000000000000000000000000000000000000000000000000003b9aca0000000000000000000000000000000000000000000000000000000000000000000000000000000000000000000000000000000000000000000000000000000001000000000000000000000000000000000000000000000000000000000000000000000000000000000000000000000000000000000000000000000000",
        "nonce": "0x154",
        "chainId": "0x279f"
      },
      "additionalContracts": [],
      "isFixedGasLimit": false
    },
    {
      "hash": "0x21555992ab040d9f725021699e8c5a14b8973255f76106c4cb64e9b8c7e7bd5e",
      "transactionType": "CALL",
      "contractName": null,
      "contractAddress": "0x2e505c38656ae7e6b1134f48b0daf6f725a6eaeb",
      "function": "multicall(bytes[])",
      "arguments": [
        "[0x7d39aaf10000000000000000000000003fbcb48c857b1ea07f722801e2ef4d7e0e61ba2d000000000000000000000000000000000000000000000000000000003b9aca00, 0xe6d66ac80000000000000000000000006bc8a42d4b2f4bc8e4c3f9ecff00b7290ffa74050000000000000000000000003fbcb48c857b1ea07f722801e2ef4d7e0e61ba2d00000000000000000000000000000000000000000000003635c9adc5dea00000, 0x1ddbdd200000000000000000000000006efb11ac41b6657c32dac5ed4874082c700bba290000000000000000000000006efb11ac41b6657c32dac5ed4874082c700bba290000000000000000000000000000000000000000000000000000000000000000000000000000000000000000000000000000000000000000000000000000000000000000000000000000000099bd3ff38f0dc9a819a0442f1d5ddbcd60072ece0000000000000000000000006bc8a42d4b2f4bc8e4c3f9ecff00b7290ffa7405000000000000000000000000000000000000000000000000000000000000000000000000000000000000000000000000000000000000001b1ae4d6e2ef50000000000000000000000000000000000000000000000000003635c9adc5dea000000000000000000000000000000000000000000000000000000000000000000000ffffffffffffffffffffffffffffffffffffffffffffffffffffffffffffffff000000000000000000000000000000000000000000000000000000003b9aca00000000000000000000000000000000000000000000000000000000000000000000000000000000000000000000000000000000000000000000000000000000010000000000000000000000000000000000000000000000000000000000000000]"
      ],
      "transaction": {
        "from": "0x6efb11ac41b6657c32dac5ed4874082c700bba29",
        "to": "0x2e505c38656ae7e6b1134f48b0daf6f725a6eaeb",
        "gas": "0x8db62",
        "value": "0x0",
        "input": "0xac9650d800000000000000000000000000000000000000000000000000000000000000200000000000000000000000000000000000000000000000000000000000000003000000000000000000000000000000000000000000000000000000000000006000000000000000000000000000000000000000000000000000000000000000e0000000000000000000000000000000000000000000000000000000000000018000000000000000000000000000000000000000000000000000000000000000447d39aaf10000000000000000000000003fbcb48c857b1ea07f722801e2ef4d7e0e61ba2d000000000000000000000000000000000000000000000000000000003b9aca00000000000000000000000000000000000000000000000000000000000000000000000000000000000000000000000000000000000000000000000064e6d66ac80000000000000000000000006bc8a42d4b2f4bc8e4c3f9ecff00b7290ffa74050000000000000000000000003fbcb48c857b1ea07f722801e2ef4d7e0e61ba2d00000000000000000000000000000000000000000000003635c9adc5dea000000000000000000000000000000000000000000000000000000000000000000000000000000000000000000000000000000000000000000000000001e41ddbdd200000000000000000000000006efb11ac41b6657c32dac5ed4874082c700bba290000000000000000000000006efb11ac41b6657c32dac5ed4874082c700bba290000000000000000000000000000000000000000000000000000000000000000000000000000000000000000000000000000000000000000000000000000000000000000000000000000000099bd3ff38f0dc9a819a0442f1d5ddbcd60072ece0000000000000000000000006bc8a42d4b2f4bc8e4c3f9ecff00b7290ffa7405000000000000000000000000000000000000000000000000000000000000000000000000000000000000000000000000000000000000001b1ae4d6e2ef50000000000000000000000000000000000000000000000000003635c9adc5dea000000000000000000000000000000000000000000000000000000000000000000000ffffffffffffffffffffffffffffffffffffffffffffffffffffffffffffffff000000000000000000000000000000000000000000000000000000003b9aca0000000000000000000000000000000000000000000000000000000000000000000000000000000000000000000000000000000000000000000000000000000001000000000000000000000000000000000000000000000000000000000000000000000000000000000000000000000000000000000000000000000000",
        "nonce": "0x155",
        "chainId": "0x279f"
      },
      "additionalContracts": [],
      "isFixedGasLimit": false
    },
    {
      "hash": "0xd0d07ad73df426308d741cedbb64ffc2b028b2fab341856001c6830277629a3a",
      "transactionType": "CALL",
      "contractName": null,
      "contractAddress": "0x2e505c38656ae7e6b1134f48b0daf6f725a6eaeb",
      "function": "multicall(bytes[])",
      "arguments": [
        "[0x7d39aaf10000000000000000000000003fbcb48c857b1ea07f722801e2ef4d7e0e61ba2d000000000000000000000000000000000000000000000000000000003b9aca00, 0xe6d66ac8000000000000000000000000e3f98fda6dbd38c1017754f1675dce377381c23c0000000000000000000000003fbcb48c857b1ea07f722801e2ef4d7e0e61ba2d0000000000000000000000000000000000000000000000008ac7230489e80000, 0x1ddbdd200000000000000000000000006efb11ac41b6657c32dac5ed4874082c700bba290000000000000000000000006efb11ac41b6657c32dac5ed4874082c700bba2900000000000000000000000000000000000000000000000000000000000000000000000000000000000000000000000000000000000000000000000000000000000000000000000000000000339ae32f85f4a43b8dc0b685dc2d39179653ca01000000000000000000000000e3f98fda6dbd38c1017754f1675dce377381c23c000000000000000000000000000000000000000000000000000000000000000000000000000000000000000000000000000000000000005150ae84a8cdf000000000000000000000000000000000000000000000000000008ac7230489e800000000000000000000000000000000000000000000000000000000000000000000ffffffffffffffffffffffffffffffffffffffffffffffffffffffffffffffff000000000000000000000000000000000000000000000000000000003b9aca00000000000000000000000000000000000000000000000000000000000000000000000000000000000000000000000000000000000000000000000000000000010000000000000000000000000000000000000000000000000000000000000000]"
      ],
      "transaction": {
        "from": "0x6efb11ac41b6657c32dac5ed4874082c700bba29",
        "to": "0x2e505c38656ae7e6b1134f48b0daf6f725a6eaeb",
        "gas": "0x8db62",
        "value": "0x0",
        "input": "0xac9650d800000000000000000000000000000000000000000000000000000000000000200000000000000000000000000000000000000000000000000000000000000003000000000000000000000000000000000000000000000000000000000000006000000000000000000000000000000000000000000000000000000000000000e0000000000000000000000000000000000000000000000000000000000000018000000000000000000000000000000000000000000000000000000000000000447d39aaf10000000000000000000000003fbcb48c857b1ea07f722801e2ef4d7e0e61ba2d000000000000000000000000000000000000000000000000000000003b9aca00000000000000000000000000000000000000000000000000000000000000000000000000000000000000000000000000000000000000000000000064e6d66ac8000000000000000000000000e3f98fda6dbd38c1017754f1675dce377381c23c0000000000000000000000003fbcb48c857b1ea07f722801e2ef4d7e0e61ba2d0000000000000000000000000000000000000000000000008ac7230489e800000000000000000000000000000000000000000000000000000000000000000000000000000000000000000000000000000000000000000000000001e41ddbdd200000000000000000000000006efb11ac41b6657c32dac5ed4874082c700bba290000000000000000000000006efb11ac41b6657c32dac5ed4874082c700bba2900000000000000000000000000000000000000000000000000000000000000000000000000000000000000000000000000000000000000000000000000000000000000000000000000000000339ae32f85f4a43b8dc0b685dc2d39179653ca01000000000000000000000000e3f98fda6dbd38c1017754f1675dce377381c23c000000000000000000000000000000000000000000000000000000000000000000000000000000000000000000000000000000000000005150ae84a8cdf000000000000000000000000000000000000000000000000000008ac7230489e800000000000000000000000000000000000000000000000000000000000000000000ffffffffffffffffffffffffffffffffffffffffffffffffffffffffffffffff000000000000000000000000000000000000000000000000000000003b9aca0000000000000000000000000000000000000000000000000000000000000000000000000000000000000000000000000000000000000000000000000000000001000000000000000000000000000000000000000000000000000000000000000000000000000000000000000000000000000000000000000000000000",
        "nonce": "0x156",
        "chainId": "0x279f"
      },
      "additionalContracts": [],
      "isFixedGasLimit": false
    }
  ],
  "receipts": [
    {
      "status": "0x1",
      "cumulativeGasUsed": "0x87ebb1",
      "logs": [
        {
          "address": "0x2c53ce7143d24a65410107f50e4aabad9a164480",
          "topics": [
            "0xddf252ad1be2c89b69c2b068fc378daa952ba7f163c4a11628f55a4df523b3ef",
            "0x0000000000000000000000000000000000000000000000000000000000000000",
            "0x0000000000000000000000006efb11ac41b6657c32dac5ed4874082c700bba29"
          ],
          "data": "0x0000000000000000000000000000000000000000000000008ac7230489e80000",
          "blockHash": "0x0b8e118c2fb459bdb35656b150e03f90f78653b11972a6da5e4eabec41bfcb31",
          "blockNumber": "0x7286ac",
          "blockTimestamp": "0x67d21841",
          "transactionHash": "0x0a292093da90c74ea891e9476ded22392f7166d398b0868ae84ef24b11e5956c",
          "transactionIndex": "0x31",
          "logIndex": "0x81",
          "removed": false
        }
      ],
      "logsBloom": "0x00000000000000000200000000000000000000000000000000000000000000000000000000000000000000000000000000001000000100000000000000000000000000000000000000000008000000000000000000000000000000000000000000000000020000000000000000000800000000000000000000000010000000000000000000000000000000000000000000000000000000000000000000000000000000000000000000000000000000000000000000000000000001000000000000000002000000000000000000000000000000010000000000000000000020000000001000000000000000000000000000000000000000000000000000000000",
      "type": "0x0",
      "transactionHash": "0x0a292093da90c74ea891e9476ded22392f7166d398b0868ae84ef24b11e5956c",
      "transactionIndex": "0x31",
      "blockHash": "0x0b8e118c2fb459bdb35656b150e03f90f78653b11972a6da5e4eabec41bfcb31",
      "blockNumber": "0x7286ac",
      "gasUsed": "0xc1a6",
      "effectiveGasPrice": "0xc1b710800",
      "from": "0x6efb11ac41b6657c32dac5ed4874082c700bba29",
      "to": "0x2c53ce7143d24a65410107f50e4aabad9a164480",
      "contractAddress": null
    },
    {
      "status": "0x1",
      "cumulativeGasUsed": "0x88ad57",
      "logs": [
        {
          "address": "0x53f7c389cbb801e2abfd301ded6d2a1cf330ac0d",
          "topics": [
            "0xddf252ad1be2c89b69c2b068fc378daa952ba7f163c4a11628f55a4df523b3ef",
            "0x0000000000000000000000000000000000000000000000000000000000000000",
            "0x0000000000000000000000006efb11ac41b6657c32dac5ed4874082c700bba29"
          ],
          "data": "0x0000000000000000000000000000000000000000000000000de0b6b3a7640000",
          "blockHash": "0x0b8e118c2fb459bdb35656b150e03f90f78653b11972a6da5e4eabec41bfcb31",
          "blockNumber": "0x7286ac",
          "blockTimestamp": "0x67d21841",
          "transactionHash": "0xd258657521f18c96db29b5fe4a92a864b63a27a9832730b35ec20c6b5aa9802d",
          "transactionIndex": "0x32",
          "logIndex": "0x82",
          "removed": false
        }
      ],
      "logsBloom": "0x00000000000000000200000002000000000000000000000000000000000000000000000000000000000000000000000000000000000100000000000000000000000000000000000000000008000000000000000000000000000000000000000000000000020000000000000000000800000000000000000000000010000000000000000000000000000000000000000000000000000000000000000000000000000000000010000000000000000000000000000000000000000001000000000000000002000000000000000000000000000000000000000000000000000020000000000000000000000000000000000000000000000000000008000000000000",
      "type": "0x0",
      "transactionHash": "0xd258657521f18c96db29b5fe4a92a864b63a27a9832730b35ec20c6b5aa9802d",
      "transactionIndex": "0x32",
      "blockHash": "0x0b8e118c2fb459bdb35656b150e03f90f78653b11972a6da5e4eabec41bfcb31",
      "blockNumber": "0x7286ac",
      "gasUsed": "0xc1a6",
      "effectiveGasPrice": "0xc1b710800",
      "from": "0x6efb11ac41b6657c32dac5ed4874082c700bba29",
      "to": "0x53f7c389cbb801e2abfd301ded6d2a1cf330ac0d",
      "contractAddress": null
    },
    {
      "status": "0x1",
      "cumulativeGasUsed": "0x8a20fe",
      "logs": [
        {
          "address": "0xf9861d7478f8957679b26404bd6272c39f949c29",
          "topics": [
            "0xddf252ad1be2c89b69c2b068fc378daa952ba7f163c4a11628f55a4df523b3ef",
            "0x0000000000000000000000000000000000000000000000000000000000000000",
            "0x0000000000000000000000006efb11ac41b6657c32dac5ed4874082c700bba29"
          ],
          "data": "0x00000000000000000000000000000000000000000000d3c21bcecceda1000000",
          "blockHash": "0x0b8e118c2fb459bdb35656b150e03f90f78653b11972a6da5e4eabec41bfcb31",
          "blockNumber": "0x7286ac",
          "blockTimestamp": "0x67d21841",
          "transactionHash": "0x927ffccc4f5ac6001788147a2095b0d62f281be78678a3ebbdf6ed8e9a6d2523",
          "transactionIndex": "0x34",
          "logIndex": "0x85",
          "removed": false
        }
      ],
      "logsBloom": "0x00000000000000000200000000000000000000000000000000000000000000000000000000000000000000000000000000000000000100000000000000000000000000000000000000000008000000000000000000000000000000000000000000000000060000000000000000000800000000000000000000000010000000000000000000000000000000000000000000000000000000000000000000000000000000000000000000040000000000000000000000000000000001000000000000000002080000000000000000000000000000000000000000000000000020000000000000000000000000000000000000000000000000000000000000000000",
      "type": "0x0",
      "transactionHash": "0x927ffccc4f5ac6001788147a2095b0d62f281be78678a3ebbdf6ed8e9a6d2523",
      "transactionIndex": "0x34",
      "blockHash": "0x0b8e118c2fb459bdb35656b150e03f90f78653b11972a6da5e4eabec41bfcb31",
      "blockNumber": "0x7286ac",
      "gasUsed": "0xb6f4",
      "effectiveGasPrice": "0xc1b710800",
      "from": "0x6efb11ac41b6657c32dac5ed4874082c700bba29",
      "to": "0xf9861d7478f8957679b26404bd6272c39f949c29",
      "contractAddress": null
    },
    {
      "status": "0x1",
      "cumulativeGasUsed": "0x8ae2c7",
      "logs": [
        {
          "address": "0x1889cfb8746716a0ac50e59a54f190987c5f04e6",
          "topics": [
            "0xddf252ad1be2c89b69c2b068fc378daa952ba7f163c4a11628f55a4df523b3ef",
            "0x0000000000000000000000000000000000000000000000000000000000000000",
            "0x0000000000000000000000006efb11ac41b6657c32dac5ed4874082c700bba29"
          ],
          "data": "0x00000000000000000000000000000000000000000000021e19e0c9bab2400000",
          "blockHash": "0x0b8e118c2fb459bdb35656b150e03f90f78653b11972a6da5e4eabec41bfcb31",
          "blockNumber": "0x7286ac",
          "blockTimestamp": "0x67d21841",
          "transactionHash": "0xce370b030a1068dc414de9df64562d51bfbf64806816867437fdc0243fb607cf",
          "transactionIndex": "0x35",
          "logIndex": "0x86",
          "removed": false
        }
      ],
      "logsBloom": "0x00000000000000000200000000000000000000000000000000000000000000000000000000000000000000000000000000000000000100000000000000000000000000000000000000000008000000000000000000000000000400000000000000000000020000000000000000000800000000000000000000000010000000000000000000000000000000000000000000000000000000000000000000000000000000000000100000000000000000000000000000000000000001000000000000000002000000000000000000000000000000000000000000000000000020000000000080000000000000000000000000000000000000000000000000000000",
      "type": "0x0",
      "transactionHash": "0xce370b030a1068dc414de9df64562d51bfbf64806816867437fdc0243fb607cf",
      "transactionIndex": "0x35",
      "blockHash": "0x0b8e118c2fb459bdb35656b150e03f90f78653b11972a6da5e4eabec41bfcb31",
      "blockNumber": "0x7286ac",
      "gasUsed": "0xc1c9",
      "effectiveGasPrice": "0xc1b710800",
      "from": "0x6efb11ac41b6657c32dac5ed4874082c700bba29",
      "to": "0x1889cfb8746716a0ac50e59a54f190987c5f04e6",
      "contractAddress": null
    },
    {
      "status": "0x1",
      "cumulativeGasUsed": "0x8ba490",
      "logs": [
        {
          "address": "0x6bc8a42d4b2f4bc8e4c3f9ecff00b7290ffa7405",
          "topics": [
            "0xddf252ad1be2c89b69c2b068fc378daa952ba7f163c4a11628f55a4df523b3ef",
            "0x0000000000000000000000000000000000000000000000000000000000000000",
            "0x0000000000000000000000006efb11ac41b6657c32dac5ed4874082c700bba29"
          ],
          "data": "0x00000000000000000000000000000000000000000000021e19e0c9bab2400000",
          "blockHash": "0x0b8e118c2fb459bdb35656b150e03f90f78653b11972a6da5e4eabec41bfcb31",
          "blockNumber": "0x7286ac",
          "blockTimestamp": "0x67d21841",
          "transactionHash": "0x954ad4f64076b0464a8852d7247f33bb103e867633d8cac3d2aaad7ba5a8ec2b",
          "transactionIndex": "0x36",
          "logIndex": "0x87",
          "removed": false
        }
      ],
      "logsBloom": "0x00000000000000000200000000000000000000000000000000000000000000000000000000000000000000000000000000002000000100000400000000000000000000000000000000000008000000000000000000000000000000000000000000000000020000000000000000000800000000000000000000000010000000000000000000000000000000000000000000000000000000000000000000000000000000000200000000000000000000000000000000000000000001000000000000000002000000000000000000000000000000000000000000000000000020000000000000000000000000000000000000000000000000000000000000000000",
      "type": "0x0",
      "transactionHash": "0x954ad4f64076b0464a8852d7247f33bb103e867633d8cac3d2aaad7ba5a8ec2b",
      "transactionIndex": "0x36",
      "blockHash": "0x0b8e118c2fb459bdb35656b150e03f90f78653b11972a6da5e4eabec41bfcb31",
      "blockNumber": "0x7286ac",
      "gasUsed": "0xc1c9",
      "effectiveGasPrice": "0xc1b710800",
      "from": "0x6efb11ac41b6657c32dac5ed4874082c700bba29",
      "to": "0x6bc8a42d4b2f4bc8e4c3f9ecff00b7290ffa7405",
      "contractAddress": null
    },
    {
      "status": "0x1",
      "cumulativeGasUsed": "0x8c5b84",
      "logs": [
        {
          "address": "0xe3f98fda6dbd38c1017754f1675dce377381c23c",
          "topics": [
            "0xddf252ad1be2c89b69c2b068fc378daa952ba7f163c4a11628f55a4df523b3ef",
            "0x0000000000000000000000000000000000000000000000000000000000000000",
            "0x0000000000000000000000006efb11ac41b6657c32dac5ed4874082c700bba29"
          ],
          "data": "0x00000000000000000000000000000000000000000000003635c9adc5dea00000",
          "blockHash": "0x0b8e118c2fb459bdb35656b150e03f90f78653b11972a6da5e4eabec41bfcb31",
          "blockNumber": "0x7286ac",
          "blockTimestamp": "0x67d21841",
          "transactionHash": "0x1fa3b7b44ab1000a7858a77f1a6c736b632d53e3bd7e77d986ee8a79cccf5bc2",
          "transactionIndex": "0x37",
          "logIndex": "0x88",
          "removed": false
        }
      ],
      "logsBloom": "0x00000000000000002200000000000000000000000000000000000000000000000000000000000000000000000000000000000000000100000000000000000000000000000000000000000008000000000000000000000000000000000000000000000000020000000000000000000800000000000000000000000010000000000000000000000000000000000000000000000000000000000020000000000000000000000000000000000000000020000000000000000000000001000000000000000002000000000000000000000000000000000000000000000000000020000000000000000000000000000000000000000000000000000000000000000000",
      "type": "0x0",
      "transactionHash": "0x1fa3b7b44ab1000a7858a77f1a6c736b632d53e3bd7e77d986ee8a79cccf5bc2",
      "transactionIndex": "0x37",
      "blockHash": "0x0b8e118c2fb459bdb35656b150e03f90f78653b11972a6da5e4eabec41bfcb31",
      "blockNumber": "0x7286ac",
      "gasUsed": "0xb6f4",
      "effectiveGasPrice": "0xc1b710800",
      "from": "0x6efb11ac41b6657c32dac5ed4874082c700bba29",
      "to": "0xe3f98fda6dbd38c1017754f1675dce377381c23c",
      "contractAddress": null
    },
    {
      "status": "0x1",
      "cumulativeGasUsed": "0x8e3ea8",
      "logs": [
        {
          "address": "0x2c53ce7143d24a65410107f50e4aabad9a164480",
          "topics": [
            "0x8c5be1e5ebec7d5bd14f71427d1e84f3dd0314c0f7b2291e5b200ac8c7c3b925",
            "0x0000000000000000000000006efb11ac41b6657c32dac5ed4874082c700bba29",
            "0x0000000000000000000000002e505c38656ae7e6b1134f48b0daf6f725a6eaeb"
          ],
          "data": "0xffffffffffffffffffffffffffffffffffffffffffffffffffffffffffffffff",
          "blockHash": "0x0b8e118c2fb459bdb35656b150e03f90f78653b11972a6da5e4eabec41bfcb31",
          "blockNumber": "0x7286ac",
          "blockTimestamp": "0x67d21841",
          "transactionHash": "0xe9b03bd38fa75f335ff69b0027b24b8d07a7eb7184135904820d41f285bca440",
          "transactionIndex": "0x3a",
          "logIndex": "0x8b",
          "removed": false
        }
      ],
      "logsBloom": "0x00000000000000000200000000000000000000000000000000000000000000000000000000000000000000000000000000001000000100000000000000200000000000000000000000000000000000000000000000000000000000000000000000000000000000000000000080000000000000000000010000000010000000000000000000000000000000000000000000000000000000000000000000000000020000000000000000000000000000000000000000000000000001000000000000000000000000000000000000000000000000010000000000000000000000000010001000000000000000000000000000000000000000000000000000000000",
      "type": "0x0",
      "transactionHash": "0xe9b03bd38fa75f335ff69b0027b24b8d07a7eb7184135904820d41f285bca440",
      "transactionIndex": "0x3a",
      "blockHash": "0x0b8e118c2fb459bdb35656b150e03f90f78653b11972a6da5e4eabec41bfcb31",
      "blockNumber": "0x7286ac",
      "gasUsed": "0x96a4",
      "effectiveGasPrice": "0xc1b710800",
      "from": "0x6efb11ac41b6657c32dac5ed4874082c700bba29",
      "to": "0x2c53ce7143d24a65410107f50e4aabad9a164480",
      "contractAddress": null
    },
    {
      "status": "0x1",
      "cumulativeGasUsed": "0x110065f",
      "logs": [
        {
          "address": "0x53f7c389cbb801e2abfd301ded6d2a1cf330ac0d",
          "topics": [
            "0x8c5be1e5ebec7d5bd14f71427d1e84f3dd0314c0f7b2291e5b200ac8c7c3b925",
            "0x0000000000000000000000006efb11ac41b6657c32dac5ed4874082c700bba29",
            "0x0000000000000000000000002e505c38656ae7e6b1134f48b0daf6f725a6eaeb"
          ],
          "data": "0xffffffffffffffffffffffffffffffffffffffffffffffffffffffffffffffff",
          "blockHash": "0x0d950c13bc24efefc5e96774cea96efd367c8b07c71ff3350980181bed3baff9",
          "blockNumber": "0x7286ae",
          "blockTimestamp": "0x67d21842",
          "transactionHash": "0x65b455d75a2a812901167cc64caa509aa73472f88f00c25ee6979d3f71dcfb83",
          "transactionIndex": "0x71",
          "logIndex": "0x122",
          "removed": false
        }
      ],
      "logsBloom": "0x00000000000000000200000002000000000000000000000000000000000000000000000000000000000000000000000000000000000100000000000000200000000000000000000000000000000000000000000000000000000000000000000000000000000000000000000080000000000000000000010000000010000000000000000000000000000000000000000000000000000000000000000000000000020000000010000000000000000000000000000000000000000001000000000000000000000000000000000000000000000000000000000000000000000000000010000000000000000000000000000000000000000000000008000000000000",
      "type": "0x0",
      "transactionHash": "0x65b455d75a2a812901167cc64caa509aa73472f88f00c25ee6979d3f71dcfb83",
      "transactionIndex": "0x71",
      "blockHash": "0x0d950c13bc24efefc5e96774cea96efd367c8b07c71ff3350980181bed3baff9",
      "blockNumber": "0x7286ae",
      "gasUsed": "0x96a4",
      "effectiveGasPrice": "0xc1b710800",
      "from": "0x6efb11ac41b6657c32dac5ed4874082c700bba29",
      "to": "0x53f7c389cbb801e2abfd301ded6d2a1cf330ac0d",
      "contractAddress": null
    },
    {
      "status": "0x1",
      "cumulativeGasUsed": "0x1109d03",
      "logs": [
        {
          "address": "0xf9861d7478f8957679b26404bd6272c39f949c29",
          "topics": [
            "0x8c5be1e5ebec7d5bd14f71427d1e84f3dd0314c0f7b2291e5b200ac8c7c3b925",
            "0x0000000000000000000000006efb11ac41b6657c32dac5ed4874082c700bba29",
            "0x0000000000000000000000002e505c38656ae7e6b1134f48b0daf6f725a6eaeb"
          ],
          "data": "0xffffffffffffffffffffffffffffffffffffffffffffffffffffffffffffffff",
          "blockHash": "0x0d950c13bc24efefc5e96774cea96efd367c8b07c71ff3350980181bed3baff9",
          "blockNumber": "0x7286ae",
          "blockTimestamp": "0x67d21842",
          "transactionHash": "0xd6ee5ac3b67e3dd249a940a934c72696f42a7d95e155b04bd14b5cb45d5b60de",
          "transactionIndex": "0x72",
          "logIndex": "0x123",
          "removed": false
        }
      ],
      "logsBloom": "0x00000000000000000200000000000000000000000000000000000000000000000000000000000000000000000000000000000000000100000000000000200000000000000000000000000000000000000000000000000000000000000000000000000000040000000000000080000000000000000000010000000010000000000000000000000000000000000000000000000000000000000000000000000000020000000000000000040000000000000000000000000000000001000000000000000000080000000000000000000000000000000000000000000000000000000010000000000000000000000000000000000000000000000000000000000000",
      "type": "0x0",
      "transactionHash": "0xd6ee5ac3b67e3dd249a940a934c72696f42a7d95e155b04bd14b5cb45d5b60de",
      "transactionIndex": "0x72",
      "blockHash": "0x0d950c13bc24efefc5e96774cea96efd367c8b07c71ff3350980181bed3baff9",
      "blockNumber": "0x7286ae",
      "gasUsed": "0x96a4",
      "effectiveGasPrice": "0xc1b710800",
      "from": "0x6efb11ac41b6657c32dac5ed4874082c700bba29",
      "to": "0xf9861d7478f8957679b26404bd6272c39f949c29",
      "contractAddress": null
    },
    {
      "status": "0x1",
      "cumulativeGasUsed": "0x11133a7",
      "logs": [
        {
          "address": "0x1889cfb8746716a0ac50e59a54f190987c5f04e6",
          "topics": [
            "0x8c5be1e5ebec7d5bd14f71427d1e84f3dd0314c0f7b2291e5b200ac8c7c3b925",
            "0x0000000000000000000000006efb11ac41b6657c32dac5ed4874082c700bba29",
            "0x0000000000000000000000002e505c38656ae7e6b1134f48b0daf6f725a6eaeb"
          ],
          "data": "0xffffffffffffffffffffffffffffffffffffffffffffffffffffffffffffffff",
          "blockHash": "0x0d950c13bc24efefc5e96774cea96efd367c8b07c71ff3350980181bed3baff9",
          "blockNumber": "0x7286ae",
          "blockTimestamp": "0x67d21842",
          "transactionHash": "0x2c20a0fcae579f033209dceceec32b63563a1fd7a89d51de249d7db381f13f00",
          "transactionIndex": "0x73",
          "logIndex": "0x124",
          "removed": false
        }
      ],
      "logsBloom": "0x00000000000000000200000000000000000000000000000000000000000000000000000000000000000000000000000000000000000100000000000000200000000000000000000000000000000000000000000000000000000400000000000000000000000000000000000080000000000000000000010000000010000000000000000000000000000000000000000000000000000000000000000000000000020000000000100000000000000000000000000000000000000001000000000000000000000000000000000000000000000000000000000000000000000000000010000080000000000000000000000000000000000000000000000000000000",
      "type": "0x0",
      "transactionHash": "0x2c20a0fcae579f033209dceceec32b63563a1fd7a89d51de249d7db381f13f00",
      "transactionIndex": "0x73",
      "blockHash": "0x0d950c13bc24efefc5e96774cea96efd367c8b07c71ff3350980181bed3baff9",
      "blockNumber": "0x7286ae",
      "gasUsed": "0x96a4",
      "effectiveGasPrice": "0xc1b710800",
      "from": "0x6efb11ac41b6657c32dac5ed4874082c700bba29",
      "to": "0x1889cfb8746716a0ac50e59a54f190987c5f04e6",
      "contractAddress": null
    },
    {
      "status": "0x1",
      "cumulativeGasUsed": "0x111ca4b",
      "logs": [
        {
          "address": "0x6bc8a42d4b2f4bc8e4c3f9ecff00b7290ffa7405",
          "topics": [
            "0x8c5be1e5ebec7d5bd14f71427d1e84f3dd0314c0f7b2291e5b200ac8c7c3b925",
            "0x0000000000000000000000006efb11ac41b6657c32dac5ed4874082c700bba29",
            "0x0000000000000000000000002e505c38656ae7e6b1134f48b0daf6f725a6eaeb"
          ],
          "data": "0xffffffffffffffffffffffffffffffffffffffffffffffffffffffffffffffff",
          "blockHash": "0x0d950c13bc24efefc5e96774cea96efd367c8b07c71ff3350980181bed3baff9",
          "blockNumber": "0x7286ae",
          "blockTimestamp": "0x67d21842",
          "transactionHash": "0x7b2d467a95eef5f9e0d592c18539b558dc8d3b072e82c74ef7ff751fc6d160dc",
          "transactionIndex": "0x74",
          "logIndex": "0x125",
          "removed": false
        }
      ],
      "logsBloom": "0x00000000000000000200000000000000000000000000000000000000000000000000000000000000000000000000000000002000000100000400000000200000000000000000000000000000000000000000000000000000000000000000000000000000000000000000000080000000000000000000010000000010000000000000000000000000000000000000000000000000000000000000000000000000020000000200000000000000000000000000000000000000000001000000000000000000000000000000000000000000000000000000000000000000000000000010000000000000000000000000000000000000000000000000000000000000",
      "type": "0x0",
      "transactionHash": "0x7b2d467a95eef5f9e0d592c18539b558dc8d3b072e82c74ef7ff751fc6d160dc",
      "transactionIndex": "0x74",
      "blockHash": "0x0d950c13bc24efefc5e96774cea96efd367c8b07c71ff3350980181bed3baff9",
      "blockNumber": "0x7286ae",
      "gasUsed": "0x96a4",
      "effectiveGasPrice": "0xc1b710800",
      "from": "0x6efb11ac41b6657c32dac5ed4874082c700bba29",
      "to": "0x6bc8a42d4b2f4bc8e4c3f9ecff00b7290ffa7405",
      "contractAddress": null
    },
    {
      "status": "0x1",
      "cumulativeGasUsed": "0x11260ef",
      "logs": [
        {
          "address": "0xe3f98fda6dbd38c1017754f1675dce377381c23c",
          "topics": [
            "0x8c5be1e5ebec7d5bd14f71427d1e84f3dd0314c0f7b2291e5b200ac8c7c3b925",
            "0x0000000000000000000000006efb11ac41b6657c32dac5ed4874082c700bba29",
            "0x0000000000000000000000002e505c38656ae7e6b1134f48b0daf6f725a6eaeb"
          ],
          "data": "0xffffffffffffffffffffffffffffffffffffffffffffffffffffffffffffffff",
          "blockHash": "0x0d950c13bc24efefc5e96774cea96efd367c8b07c71ff3350980181bed3baff9",
          "blockNumber": "0x7286ae",
          "blockTimestamp": "0x67d21842",
          "transactionHash": "0x8b43af59130165217eb03427bb82ea0d635de711a0e1905ccdb01a11afd0028c",
          "transactionIndex": "0x75",
          "logIndex": "0x126",
          "removed": false
        }
      ],
      "logsBloom": "0x00000000000000002200000000000000000000000000000000000000000000000000000000000000000000000000000000000000000100000000000000200000000000000000000000000000000000000000000000000000000000000000000000000000000000000000000080000000000000000000010000000010000000000000000000000000000000000000000000000000000000000020000000000000020000000000000000000000000020000000000000000000000001000000000000000000000000000000000000000000000000000000000000000000000000000010000000000000000000000000000000000000000000000000000000000000",
      "type": "0x0",
      "transactionHash": "0x8b43af59130165217eb03427bb82ea0d635de711a0e1905ccdb01a11afd0028c",
      "transactionIndex": "0x75",
      "blockHash": "0x0d950c13bc24efefc5e96774cea96efd367c8b07c71ff3350980181bed3baff9",
      "blockNumber": "0x7286ae",
      "gasUsed": "0x96a4",
      "effectiveGasPrice": "0xc1b710800",
      "from": "0x6efb11ac41b6657c32dac5ed4874082c700bba29",
      "to": "0xe3f98fda6dbd38c1017754f1675dce377381c23c",
      "contractAddress": null
    },
    {
      "status": "0x1",
      "cumulativeGasUsed": "0x11bab1b",
      "logs": [
        {
          "address": "0x2c53ce7143d24a65410107f50e4aabad9a164480",
          "topics": [
            "0xddf252ad1be2c89b69c2b068fc378daa952ba7f163c4a11628f55a4df523b3ef",
            "0x0000000000000000000000006efb11ac41b6657c32dac5ed4874082c700bba29",
            "0x0000000000000000000000003fbcb48c857b1ea07f722801e2ef4d7e0e61ba2d"
          ],
          "data": "0x000000000000000000000000000000000000000000000000000000003b9aca00",
          "blockHash": "0x0d950c13bc24efefc5e96774cea96efd367c8b07c71ff3350980181bed3baff9",
          "blockNumber": "0x7286ae",
          "blockTimestamp": "0x67d21842",
          "transactionHash": "0x58db7e7334bede47050d88b060bc19e92bfc1511196e537f9331d2b084b41757",
          "transactionIndex": "0x76",
          "logIndex": "0x127",
          "removed": false
        },
        {
          "address": "0x2c53ce7143d24a65410107f50e4aabad9a164480",
          "topics": [
            "0xddf252ad1be2c89b69c2b068fc378daa952ba7f163c4a11628f55a4df523b3ef",
            "0x0000000000000000000000006efb11ac41b6657c32dac5ed4874082c700bba29",
            "0x0000000000000000000000003fbcb48c857b1ea07f722801e2ef4d7e0e61ba2d"
          ],
          "data": "0x000000000000000000000000000000000000000000000000016345785d8a0000",
          "blockHash": "0x0d950c13bc24efefc5e96774cea96efd367c8b07c71ff3350980181bed3baff9",
          "blockNumber": "0x7286ae",
          "blockTimestamp": "0x67d21842",
          "transactionHash": "0x58db7e7334bede47050d88b060bc19e92bfc1511196e537f9331d2b084b41757",
          "transactionIndex": "0x76",
          "logIndex": "0x128",
          "removed": false
        },
        {
          "address": "0x6e717fc853d8b2932b09dfd0c717e65febfc9662",
          "topics": [
            "0x982103f3bd0079a3015fd3f668fa64c4ac330de26ba95c48ac8cdf93bd004a32"
          ],
          "data": "0x00000000000000000000000000000000000000000000000000000000000000000000000000000000000000006efb11ac41b6657c32dac5ed4874082c700bba290000000000000000000000006efb11ac41b6657c32dac5ed4874082c700bba290000000000000000000000006efb11ac41b6657c32dac5ed4874082c700bba29000000000000000000000000000000000000000000000000000000000000000000000000000000000000000000000000000000000000000000000000000000000000000000000000000000004c51d8a789b0029cf47c2366eebf6205a09d929b0000000000000000000000002c53ce7143d24a65410107f50e4aabad9a164480000000000000000000000000000000000000000000000000000000000000000000000000000000000000000000000000000000000000006c6b935b8bbd400000000000000000000000000000000000000000000000000000016345785d8a00000000000000000000000000000000000000000000000000000000000000000000ffffffffffffffffffffffffffffffffffffffffffffffffffffffffffffffff000000000000000000000000000000000000000000000000000000003b9aca000000000000000000000000000000000000000000000000000000000067d21842000000000000000000000000000000000000000000000000000000000000000000000000000000000000000000000000000000000000000000000000000000010000000000000000000000000000000000000000000000000000000000000000",
          "blockHash": "0x0d950c13bc24efefc5e96774cea96efd367c8b07c71ff3350980181bed3baff9",
          "blockNumber": "0x7286ae",
          "blockTimestamp": "0x67d21842",
          "transactionHash": "0x58db7e7334bede47050d88b060bc19e92bfc1511196e537f9331d2b084b41757",
          "transactionIndex": "0x76",
          "logIndex": "0x129",
          "removed": false
        }
      ],
      "logsBloom": "0x00000000000000000200000000100000000000000000000000000020040001010000000000000000000008000000000000041000000100000000000000000000000000000000000000000008000000000000000000000000000000000000000000000000000000000000000000000000000000000000000000000010000000000000000000000000000000000000000000000000000000000000000004000000000000000000000000000000000000000000000000000000080001000000000000000002000000000000000000000000000000010000000000000000000000000000001000000000000000000000000000000000000000000000000000000000",
      "type": "0x0",
      "transactionHash": "0x58db7e7334bede47050d88b060bc19e92bfc1511196e537f9331d2b084b41757",
      "transactionIndex": "0x76",
      "blockHash": "0x0d950c13bc24efefc5e96774cea96efd367c8b07c71ff3350980181bed3baff9",
      "blockNumber": "0x7286ae",
      "gasUsed": "0x94a2c",
      "effectiveGasPrice": "0xc1b710800",
      "from": "0x6efb11ac41b6657c32dac5ed4874082c700bba29",
      "to": "0x2e505c38656ae7e6b1134f48b0daf6f725a6eaeb",
      "contractAddress": null
    },
    {
      "status": "0x1",
      "cumulativeGasUsed": "0x124865c",
      "logs": [
        {
          "address": "0x2c53ce7143d24a65410107f50e4aabad9a164480",
          "topics": [
            "0xddf252ad1be2c89b69c2b068fc378daa952ba7f163c4a11628f55a4df523b3ef",
            "0x0000000000000000000000006efb11ac41b6657c32dac5ed4874082c700bba29",
            "0x0000000000000000000000003fbcb48c857b1ea07f722801e2ef4d7e0e61ba2d"
          ],
          "data": "0x000000000000000000000000000000000000000000000000000000003b9aca00",
          "blockHash": "0x0d950c13bc24efefc5e96774cea96efd367c8b07c71ff3350980181bed3baff9",
          "blockNumber": "0x7286ae",
          "blockTimestamp": "0x67d21842",
          "transactionHash": "0xe770bb021173270a63e01b7e7986c7206cc096e5b7ce300c2dda29dea7db6576",
          "transactionIndex": "0x77",
          "logIndex": "0x12a",
          "removed": false
        },
        {
          "address": "0x53f7c389cbb801e2abfd301ded6d2a1cf330ac0d",
          "topics": [
            "0xddf252ad1be2c89b69c2b068fc378daa952ba7f163c4a11628f55a4df523b3ef",
            "0x0000000000000000000000006efb11ac41b6657c32dac5ed4874082c700bba29",
            "0x0000000000000000000000003fbcb48c857b1ea07f722801e2ef4d7e0e61ba2d"
          ],
          "data": "0x000000000000000000000000000000000000000000000000002386f26fc10000",
          "blockHash": "0x0d950c13bc24efefc5e96774cea96efd367c8b07c71ff3350980181bed3baff9",
          "blockNumber": "0x7286ae",
          "blockTimestamp": "0x67d21842",
          "transactionHash": "0xe770bb021173270a63e01b7e7986c7206cc096e5b7ce300c2dda29dea7db6576",
          "transactionIndex": "0x77",
          "logIndex": "0x12b",
          "removed": false
        },
        {
          "address": "0x6e717fc853d8b2932b09dfd0c717e65febfc9662",
          "topics": [
            "0x982103f3bd0079a3015fd3f668fa64c4ac330de26ba95c48ac8cdf93bd004a32"
          ],
          "data": "0x00000000000000000000000000000000000000000000000000000000000000010000000000000000000000006efb11ac41b6657c32dac5ed4874082c700bba290000000000000000000000006efb11ac41b6657c32dac5ed4874082c700bba290000000000000000000000006efb11ac41b6657c32dac5ed4874082c700bba2900000000000000000000000000000000000000000000000000000000000000000000000000000000000000000000000000000000000000000000000000000000000000000000000000000000b0a7f91a1c917a3bff73f2e3829032c64e13595100000000000000000000000053f7c389cbb801e2abfd301ded6d2a1cf330ac0d00000000000000000000000000000000000000000000000000000000000000000000000000000000000000000000000000000000000000e3aeb5737240a00000000000000000000000000000000000000000000000000000002386f26fc100000000000000000000000000000000000000000000000000000000000000000000ffffffffffffffffffffffffffffffffffffffffffffffffffffffffffffffff000000000000000000000000000000000000000000000000000000003b9aca000000000000000000000000000000000000000000000000000000000067d21842000000000000000000000000000000000000000000000000000000000000000000000000000000000000000000000000000000000000000000000000000000010000000000000000000000000000000000000000000000000000000000000000",
          "blockHash": "0x0d950c13bc24efefc5e96774cea96efd367c8b07c71ff3350980181bed3baff9",
          "blockNumber": "0x7286ae",
          "blockTimestamp": "0x67d21842",
          "transactionHash": "0xe770bb021173270a63e01b7e7986c7206cc096e5b7ce300c2dda29dea7db6576",
          "transactionIndex": "0x77",
          "logIndex": "0x12c",
          "removed": false
        }
      ],
      "logsBloom": "0x00000000000000000200000002100000000000000000000000000020040001010000000000000000000008000000000000041000000100000000000000000000000000000000000000000008000000000000000000000000000000000000000000000000000000000000000000000000000000000000000000000010000000000000000000000000000000000000000000000000000000000000000004000000000000000010000000000000000000000000000000000000080001000000000000000002000000000000000000000000000000010000000000000000000000000000001000000000000000000000000000000000000000000008000000000000",
      "type": "0x0",
      "transactionHash": "0xe770bb021173270a63e01b7e7986c7206cc096e5b7ce300c2dda29dea7db6576",
      "transactionIndex": "0x77",
      "blockHash": "0x0d950c13bc24efefc5e96774cea96efd367c8b07c71ff3350980181bed3baff9",
      "blockNumber": "0x7286ae",
      "gasUsed": "0x8db41",
      "effectiveGasPrice": "0xc1b710800",
      "from": "0x6efb11ac41b6657c32dac5ed4874082c700bba29",
      "to": "0x2e505c38656ae7e6b1134f48b0daf6f725a6eaeb",
      "contractAddress": null
    },
    {
      "status": "0x1",
      "cumulativeGasUsed": "0x12d6200",
      "logs": [
        {
          "address": "0x2c53ce7143d24a65410107f50e4aabad9a164480",
          "topics": [
            "0xddf252ad1be2c89b69c2b068fc378daa952ba7f163c4a11628f55a4df523b3ef",
            "0x0000000000000000000000006efb11ac41b6657c32dac5ed4874082c700bba29",
            "0x0000000000000000000000003fbcb48c857b1ea07f722801e2ef4d7e0e61ba2d"
          ],
          "data": "0x000000000000000000000000000000000000000000000000000000003b9aca00",
          "blockHash": "0x0d950c13bc24efefc5e96774cea96efd367c8b07c71ff3350980181bed3baff9",
          "blockNumber": "0x7286ae",
          "blockTimestamp": "0x67d21842",
          "transactionHash": "0x24f2ee2946fbb9194e189fd08101822b02b113a5899c1b3f3ee06c0695b4a1ed",
          "transactionIndex": "0x78",
          "logIndex": "0x12d",
          "removed": false
        },
        {
          "address": "0xf9861d7478f8957679b26404bd6272c39f949c29",
          "topics": [
            "0xddf252ad1be2c89b69c2b068fc378daa952ba7f163c4a11628f55a4df523b3ef",
            "0x0000000000000000000000006efb11ac41b6657c32dac5ed4874082c700bba29",
            "0x0000000000000000000000003fbcb48c857b1ea07f722801e2ef4d7e0e61ba2d"
          ],
          "data": "0x00000000000000000000000000000000000000000000152d02c7e14af6800000",
          "blockHash": "0x0d950c13bc24efefc5e96774cea96efd367c8b07c71ff3350980181bed3baff9",
          "blockNumber": "0x7286ae",
          "blockTimestamp": "0x67d21842",
          "transactionHash": "0x24f2ee2946fbb9194e189fd08101822b02b113a5899c1b3f3ee06c0695b4a1ed",
          "transactionIndex": "0x78",
          "logIndex": "0x12e",
          "removed": false
        },
        {
          "address": "0x6e717fc853d8b2932b09dfd0c717e65febfc9662",
          "topics": [
            "0x982103f3bd0079a3015fd3f668fa64c4ac330de26ba95c48ac8cdf93bd004a32"
          ],
          "data": "0x00000000000000000000000000000000000000000000000000000000000000020000000000000000000000006efb11ac41b6657c32dac5ed4874082c700bba290000000000000000000000006efb11ac41b6657c32dac5ed4874082c700bba290000000000000000000000006efb11ac41b6657c32dac5ed4874082c700bba29000000000000000000000000000000000000000000000000000000000000000000000000000000000000000000000000000000000000000000000000000000000000000000000000000000001664f516fbe65dd0089152c93f724b8810881fdc000000000000000000000000f9861d7478f8957679b26404bd6272c39f949c2900000000000000000000000000000000000000000000000000000000000000000000000000000000000000000000000000000000000000056bc75e2d6310000000000000000000000000000000000000000000000000152d02c7e14af68000000000000000000000000000000000000000000000000000000000000000000000ffffffffffffffffffffffffffffffffffffffffffffffffffffffffffffffff000000000000000000000000000000000000000000000000000000003b9aca000000000000000000000000000000000000000000000000000000000067d21842000000000000000000000000000000000000000000000000000000000000000000000000000000000000000000000000000000000000000000000000000000010000000000000000000000000000000000000000000000000000000000000000",
          "blockHash": "0x0d950c13bc24efefc5e96774cea96efd367c8b07c71ff3350980181bed3baff9",
          "blockNumber": "0x7286ae",
          "blockTimestamp": "0x67d21842",
          "transactionHash": "0x24f2ee2946fbb9194e189fd08101822b02b113a5899c1b3f3ee06c0695b4a1ed",
          "transactionIndex": "0x78",
          "logIndex": "0x12f",
          "removed": false
        }
      ],
      "logsBloom": "0x00000000000000000200000000100000000000000000000000000020040001010000000000000000000008000000000000041000000100000000000000000000000000000000000000000008000000000000000000000000000000000000000000000000040000000000000000000000000000000000000000000010000000000000000000000000000000000000000000000000000000000000000004000000000000000000000000040000000000000000000000000000080001000000000000000002080000000000000000000000000000010000000000000000000000000000001000000000000000000000000000000000000000000000000000000000",
      "type": "0x0",
      "transactionHash": "0x24f2ee2946fbb9194e189fd08101822b02b113a5899c1b3f3ee06c0695b4a1ed",
      "transactionIndex": "0x78",
      "blockHash": "0x0d950c13bc24efefc5e96774cea96efd367c8b07c71ff3350980181bed3baff9",
      "blockNumber": "0x7286ae",
      "gasUsed": "0x8dba4",
      "effectiveGasPrice": "0xc1b710800",
      "from": "0x6efb11ac41b6657c32dac5ed4874082c700bba29",
      "to": "0x2e505c38656ae7e6b1134f48b0daf6f725a6eaeb",
      "contractAddress": null
    },
    {
      "status": "0x1",
      "cumulativeGasUsed": "0x1363d83",
      "logs": [
        {
          "address": "0x2c53ce7143d24a65410107f50e4aabad9a164480",
          "topics": [
            "0xddf252ad1be2c89b69c2b068fc378daa952ba7f163c4a11628f55a4df523b3ef",
            "0x0000000000000000000000006efb11ac41b6657c32dac5ed4874082c700bba29",
            "0x0000000000000000000000003fbcb48c857b1ea07f722801e2ef4d7e0e61ba2d"
          ],
          "data": "0x000000000000000000000000000000000000000000000000000000003b9aca00",
          "blockHash": "0x0d950c13bc24efefc5e96774cea96efd367c8b07c71ff3350980181bed3baff9",
          "blockNumber": "0x7286ae",
          "blockTimestamp": "0x67d21842",
          "transactionHash": "0x2edc6ad0f07c32f41aee0461514c565f9da5cb5182a2fb6b6d3d101522d06112",
          "transactionIndex": "0x79",
          "logIndex": "0x130",
          "removed": false
        },
        {
          "address": "0x1889cfb8746716a0ac50e59a54f190987c5f04e6",
          "topics": [
            "0xddf252ad1be2c89b69c2b068fc378daa952ba7f163c4a11628f55a4df523b3ef",
            "0x0000000000000000000000006efb11ac41b6657c32dac5ed4874082c700bba29",
            "0x0000000000000000000000003fbcb48c857b1ea07f722801e2ef4d7e0e61ba2d"
          ],
          "data": "0x00000000000000000000000000000000000000000000003635c9adc5dea00000",
          "blockHash": "0x0d950c13bc24efefc5e96774cea96efd367c8b07c71ff3350980181bed3baff9",
          "blockNumber": "0x7286ae",
          "blockTimestamp": "0x67d21842",
          "transactionHash": "0x2edc6ad0f07c32f41aee0461514c565f9da5cb5182a2fb6b6d3d101522d06112",
          "transactionIndex": "0x79",
          "logIndex": "0x131",
          "removed": false
        },
        {
          "address": "0x6e717fc853d8b2932b09dfd0c717e65febfc9662",
          "topics": [
            "0x982103f3bd0079a3015fd3f668fa64c4ac330de26ba95c48ac8cdf93bd004a32"
          ],
          "data": "0x00000000000000000000000000000000000000000000000000000000000000030000000000000000000000006efb11ac41b6657c32dac5ed4874082c700bba290000000000000000000000006efb11ac41b6657c32dac5ed4874082c700bba290000000000000000000000006efb11ac41b6657c32dac5ed4874082c700bba290000000000000000000000000000000000000000000000000000000000000000000000000000000000000000000000000000000000000000000000000000000000000000000000000000000041b38fcc7eb3365393d5a2228d14d34c8f8418280000000000000000000000001889cfb8746716a0ac50e59a54f190987c5f04e6000000000000000000000000000000000000000000000000000000000000000000000000000000000000000000000000000000000000003635c9adc5dea0000000000000000000000000000000000000000000000000003635c9adc5dea000000000000000000000000000000000000000000000000000000000000000000000ffffffffffffffffffffffffffffffffffffffffffffffffffffffffffffffff000000000000000000000000000000000000000000000000000000003b9aca000000000000000000000000000000000000000000000000000000000067d21842000000000000000000000000000000000000000000000000000000000000000000000000000000000000000000000000000000000000000000000000000000010000000000000000000000000000000000000000000000000000000000000000",
          "blockHash": "0x0d950c13bc24efefc5e96774cea96efd367c8b07c71ff3350980181bed3baff9",
          "blockNumber": "0x7286ae",
          "blockTimestamp": "0x67d21842",
          "transactionHash": "0x2edc6ad0f07c32f41aee0461514c565f9da5cb5182a2fb6b6d3d101522d06112",
          "transactionIndex": "0x79",
          "logIndex": "0x132",
          "removed": false
        }
      ],
      "logsBloom": "0x00000000000000000200000000100000000000000000000000000020040001010000000000000000000008000000000000041000000100000000000000000000000000000000000000000008000000000000000000000000000400000000000000000000000000000000000000000000000000000000000000000010000000000000000000000000000000000000000000000000000000000000000004000000000000000000100000000000000000000000000000000000080001000000000000000002000000000000000000000000000000010000000000000000000000000000001080000000000000000000000000000000000000000000000000000000",
      "type": "0x0",
      "transactionHash": "0x2edc6ad0f07c32f41aee0461514c565f9da5cb5182a2fb6b6d3d101522d06112",
      "transactionIndex": "0x79",
      "blockHash": "0x0d950c13bc24efefc5e96774cea96efd367c8b07c71ff3350980181bed3baff9",
      "blockNumber": "0x7286ae",
      "gasUsed": "0x8db83",
      "effectiveGasPrice": "0xc1b710800",
      "from": "0x6efb11ac41b6657c32dac5ed4874082c700bba29",
      "to": "0x2e505c38656ae7e6b1134f48b0daf6f725a6eaeb",
      "contractAddress": null
    },
    {
      "status": "0x1",
      "cumulativeGasUsed": "0x13f18e5",
      "logs": [
        {
          "address": "0x2c53ce7143d24a65410107f50e4aabad9a164480",
          "topics": [
            "0xddf252ad1be2c89b69c2b068fc378daa952ba7f163c4a11628f55a4df523b3ef",
            "0x0000000000000000000000006efb11ac41b6657c32dac5ed4874082c700bba29",
            "0x0000000000000000000000003fbcb48c857b1ea07f722801e2ef4d7e0e61ba2d"
          ],
          "data": "0x000000000000000000000000000000000000000000000000000000003b9aca00",
          "blockHash": "0x0d950c13bc24efefc5e96774cea96efd367c8b07c71ff3350980181bed3baff9",
          "blockNumber": "0x7286ae",
          "blockTimestamp": "0x67d21842",
          "transactionHash": "0x21555992ab040d9f725021699e8c5a14b8973255f76106c4cb64e9b8c7e7bd5e",
          "transactionIndex": "0x7a",
          "logIndex": "0x133",
          "removed": false
        },
        {
          "address": "0x6bc8a42d4b2f4bc8e4c3f9ecff00b7290ffa7405",
          "topics": [
            "0xddf252ad1be2c89b69c2b068fc378daa952ba7f163c4a11628f55a4df523b3ef",
            "0x0000000000000000000000006efb11ac41b6657c32dac5ed4874082c700bba29",
            "0x0000000000000000000000003fbcb48c857b1ea07f722801e2ef4d7e0e61ba2d"
          ],
          "data": "0x00000000000000000000000000000000000000000000003635c9adc5dea00000",
          "blockHash": "0x0d950c13bc24efefc5e96774cea96efd367c8b07c71ff3350980181bed3baff9",
          "blockNumber": "0x7286ae",
          "blockTimestamp": "0x67d21842",
          "transactionHash": "0x21555992ab040d9f725021699e8c5a14b8973255f76106c4cb64e9b8c7e7bd5e",
          "transactionIndex": "0x7a",
          "logIndex": "0x134",
          "removed": false
        },
        {
          "address": "0x6e717fc853d8b2932b09dfd0c717e65febfc9662",
          "topics": [
            "0x982103f3bd0079a3015fd3f668fa64c4ac330de26ba95c48ac8cdf93bd004a32"
          ],
          "data": "0x00000000000000000000000000000000000000000000000000000000000000040000000000000000000000006efb11ac41b6657c32dac5ed4874082c700bba290000000000000000000000006efb11ac41b6657c32dac5ed4874082c700bba290000000000000000000000006efb11ac41b6657c32dac5ed4874082c700bba290000000000000000000000000000000000000000000000000000000000000000000000000000000000000000000000000000000000000000000000000000000000000000000000000000000099bd3ff38f0dc9a819a0442f1d5ddbcd60072ece0000000000000000000000006bc8a42d4b2f4bc8e4c3f9ecff00b7290ffa7405000000000000000000000000000000000000000000000000000000000000000000000000000000000000000000000000000000000000001b1ae4d6e2ef50000000000000000000000000000000000000000000000000003635c9adc5dea000000000000000000000000000000000000000000000000000000000000000000000ffffffffffffffffffffffffffffffffffffffffffffffffffffffffffffffff000000000000000000000000000000000000000000000000000000003b9aca000000000000000000000000000000000000000000000000000000000067d21842000000000000000000000000000000000000000000000000000000000000000000000000000000000000000000000000000000000000000000000000000000010000000000000000000000000000000000000000000000000000000000000000",
          "blockHash": "0x0d950c13bc24efefc5e96774cea96efd367c8b07c71ff3350980181bed3baff9",
          "blockNumber": "0x7286ae",
          "blockTimestamp": "0x67d21842",
          "transactionHash": "0x21555992ab040d9f725021699e8c5a14b8973255f76106c4cb64e9b8c7e7bd5e",
          "transactionIndex": "0x7a",
          "logIndex": "0x135",
          "removed": false
        }
      ],
      "logsBloom": "0x00000000000000000200000000100000000000000000000000000020040001010000000000000000000008000000000000043000000100000400000000000000000000000000000000000008000000000000000000000000000000000000000000000000000000000000000000000000000000000000000000000010000000000000000000000000000000000000000000000000000000000000000004000000000000000200000000000000000000000000000000000000080001000000000000000002000000000000000000000000000000010000000000000000000000000000001000000000000000000000000000000000000000000000000000000000",
      "type": "0x0",
      "transactionHash": "0x21555992ab040d9f725021699e8c5a14b8973255f76106c4cb64e9b8c7e7bd5e",
      "transactionIndex": "0x7a",
      "blockHash": "0x0d950c13bc24efefc5e96774cea96efd367c8b07c71ff3350980181bed3baff9",
      "blockNumber": "0x7286ae",
      "gasUsed": "0x8db62",
      "effectiveGasPrice": "0xc1b710800",
      "from": "0x6efb11ac41b6657c32dac5ed4874082c700bba29",
      "to": "0x2e505c38656ae7e6b1134f48b0daf6f725a6eaeb",
      "contractAddress": null
    },
    {
      "status": "0x1",
      "cumulativeGasUsed": "0x147f447",
      "logs": [
        {
          "address": "0x2c53ce7143d24a65410107f50e4aabad9a164480",
          "topics": [
            "0xddf252ad1be2c89b69c2b068fc378daa952ba7f163c4a11628f55a4df523b3ef",
            "0x0000000000000000000000006efb11ac41b6657c32dac5ed4874082c700bba29",
            "0x0000000000000000000000003fbcb48c857b1ea07f722801e2ef4d7e0e61ba2d"
          ],
          "data": "0x000000000000000000000000000000000000000000000000000000003b9aca00",
          "blockHash": "0x0d950c13bc24efefc5e96774cea96efd367c8b07c71ff3350980181bed3baff9",
          "blockNumber": "0x7286ae",
          "blockTimestamp": "0x67d21842",
          "transactionHash": "0xd0d07ad73df426308d741cedbb64ffc2b028b2fab341856001c6830277629a3a",
          "transactionIndex": "0x7b",
          "logIndex": "0x136",
          "removed": false
        },
        {
          "address": "0xe3f98fda6dbd38c1017754f1675dce377381c23c",
          "topics": [
            "0xddf252ad1be2c89b69c2b068fc378daa952ba7f163c4a11628f55a4df523b3ef",
            "0x0000000000000000000000006efb11ac41b6657c32dac5ed4874082c700bba29",
            "0x0000000000000000000000003fbcb48c857b1ea07f722801e2ef4d7e0e61ba2d"
          ],
          "data": "0x0000000000000000000000000000000000000000000000008ac7230489e80000",
          "blockHash": "0x0d950c13bc24efefc5e96774cea96efd367c8b07c71ff3350980181bed3baff9",
          "blockNumber": "0x7286ae",
          "blockTimestamp": "0x67d21842",
          "transactionHash": "0xd0d07ad73df426308d741cedbb64ffc2b028b2fab341856001c6830277629a3a",
          "transactionIndex": "0x7b",
          "logIndex": "0x137",
          "removed": false
        },
        {
          "address": "0x6e717fc853d8b2932b09dfd0c717e65febfc9662",
          "topics": [
            "0x982103f3bd0079a3015fd3f668fa64c4ac330de26ba95c48ac8cdf93bd004a32"
          ],
          "data": "0x00000000000000000000000000000000000000000000000000000000000000050000000000000000000000006efb11ac41b6657c32dac5ed4874082c700bba290000000000000000000000006efb11ac41b6657c32dac5ed4874082c700bba290000000000000000000000006efb11ac41b6657c32dac5ed4874082c700bba2900000000000000000000000000000000000000000000000000000000000000000000000000000000000000000000000000000000000000000000000000000000000000000000000000000000339ae32f85f4a43b8dc0b685dc2d39179653ca01000000000000000000000000e3f98fda6dbd38c1017754f1675dce377381c23c000000000000000000000000000000000000000000000000000000000000000000000000000000000000000000000000000000000000005150ae84a8cdf000000000000000000000000000000000000000000000000000008ac7230489e800000000000000000000000000000000000000000000000000000000000000000000ffffffffffffffffffffffffffffffffffffffffffffffffffffffffffffffff000000000000000000000000000000000000000000000000000000003b9aca000000000000000000000000000000000000000000000000000000000067d21842000000000000000000000000000000000000000000000000000000000000000000000000000000000000000000000000000000000000000000000000000000010000000000000000000000000000000000000000000000000000000000000000",
          "blockHash": "0x0d950c13bc24efefc5e96774cea96efd367c8b07c71ff3350980181bed3baff9",
          "blockNumber": "0x7286ae",
          "blockTimestamp": "0x67d21842",
          "transactionHash": "0xd0d07ad73df426308d741cedbb64ffc2b028b2fab341856001c6830277629a3a",
          "transactionIndex": "0x7b",
          "logIndex": "0x138",
          "removed": false
        }
      ],
      "logsBloom": "0x00000000000000002200000000100000000000000000000000000020040001010000000000000000000008000000000000041000000100000000000000000000000000000000000000000008000000000000000000000000000000000000000000000000000000000000000000000000000000000000000000000010000000000000000000000000000000000000000000000000000000000020000004000000000000000000000000000000000020000000000000000000080001000000000000000002000000000000000000000000000000010000000000000000000000000000001000000000000000000000000000000000000000000000000000000000",
      "type": "0x0",
      "transactionHash": "0xd0d07ad73df426308d741cedbb64ffc2b028b2fab341856001c6830277629a3a",
      "transactionIndex": "0x7b",
      "blockHash": "0x0d950c13bc24efefc5e96774cea96efd367c8b07c71ff3350980181bed3baff9",
      "blockNumber": "0x7286ae",
      "gasUsed": "0x8db62",
      "effectiveGasPrice": "0xc1b710800",
      "from": "0x6efb11ac41b6657c32dac5ed4874082c700bba29",
      "to": "0x2e505c38656ae7e6b1134f48b0daf6f725a6eaeb",
      "contractAddress": null
    }
  ],
  "libraries": [],
  "pending": [],
  "returns": {},
  "timestamp": 1741822020,
  "chain": 10143,
  "commit": "e7e6a38"
}