{
  "transactions": [
    {
      "hash": "0xd06a7805a7828905e705f523f4efdf0af08f411e086d7b082b333d2c7aaf4b6c",
      "transactionType": "CALL",
      "contractName": null,
      "contractAddress": "0x2c53ce7143d24a65410107f50e4aabad9a164480",
      "function": "mint(address,uint256)",
      "arguments": [
        "0x6EFb11aC41B6657c32dAc5Ed4874082C700BbA29",
        "10000000000000000000"
      ],
      "transaction": {
        "from": "0x6efb11ac41b6657c32dac5ed4874082c700bba29",
        "to": "0x2c53ce7143d24a65410107f50e4aabad9a164480",
        "gas": "0xc1a6",
        "value": "0x0",
        "input": "0x40c10f190000000000000000000000006efb11ac41b6657c32dac5ed4874082c700bba290000000000000000000000000000000000000000000000008ac7230489e80000",
        "nonce": "0x112",
        "chainId": "0x279f"
      },
      "additionalContracts": [],
      "isFixedGasLimit": false
    },
    {
      "hash": "0x0e593b15a69e508df0c51cff90c24366adad9d11d9b5eac1ee40e9603675585e",
      "transactionType": "CALL",
      "contractName": null,
      "contractAddress": "0x53f7c389cbb801e2abfd301ded6d2a1cf330ac0d",
      "function": "mint(address,uint256)",
      "arguments": [
        "0x6EFb11aC41B6657c32dAc5Ed4874082C700BbA29",
        "1000000000000000000"
      ],
      "transaction": {
        "from": "0x6efb11ac41b6657c32dac5ed4874082c700bba29",
        "to": "0x53f7c389cbb801e2abfd301ded6d2a1cf330ac0d",
        "gas": "0xc1a6",
        "value": "0x0",
        "input": "0x40c10f190000000000000000000000006efb11ac41b6657c32dac5ed4874082c700bba290000000000000000000000000000000000000000000000000de0b6b3a7640000",
        "nonce": "0x113",
        "chainId": "0x279f"
      },
      "additionalContracts": [],
      "isFixedGasLimit": false
    },
    {
      "hash": "0x9f754faa5dd87566954a9fe9f9f1b4cb515338acbc82121255b3cc260ef260bf",
      "transactionType": "CALL",
      "contractName": null,
      "contractAddress": "0xf9861d7478f8957679b26404bd6272c39f949c29",
      "function": "mint(address,uint256)",
      "arguments": [
        "0x6EFb11aC41B6657c32dAc5Ed4874082C700BbA29",
        "1000000000000000000000000"
      ],
      "transaction": {
        "from": "0x6efb11ac41b6657c32dac5ed4874082c700bba29",
        "to": "0xf9861d7478f8957679b26404bd6272c39f949c29",
        "gas": "0xb6f4",
        "value": "0x0",
        "input": "0x40c10f190000000000000000000000006efb11ac41b6657c32dac5ed4874082c700bba2900000000000000000000000000000000000000000000d3c21bcecceda1000000",
        "nonce": "0x114",
        "chainId": "0x279f"
      },
      "additionalContracts": [],
      "isFixedGasLimit": false
    },
    {
      "hash": "0x899b534db7085ffae9746b90ae92813dda2880738612e5b6e99192bc004f8288",
      "transactionType": "CALL",
      "contractName": null,
      "contractAddress": "0x1889cfb8746716a0ac50e59a54f190987c5f04e6",
      "function": "mint(address,uint256)",
      "arguments": [
        "0x6EFb11aC41B6657c32dAc5Ed4874082C700BbA29",
        "10000000000000000000000"
      ],
      "transaction": {
        "from": "0x6efb11ac41b6657c32dac5ed4874082c700bba29",
        "to": "0x1889cfb8746716a0ac50e59a54f190987c5f04e6",
        "gas": "0xc1c9",
        "value": "0x0",
        "input": "0x40c10f190000000000000000000000006efb11ac41b6657c32dac5ed4874082c700bba2900000000000000000000000000000000000000000000021e19e0c9bab2400000",
        "nonce": "0x115",
        "chainId": "0x279f"
      },
      "additionalContracts": [],
      "isFixedGasLimit": false
    },
    {
      "hash": "0xe850f7b473ff65839abdd0664115aa94d0382910f96c5ff5998aa7b1f09674d3",
      "transactionType": "CALL",
      "contractName": null,
      "contractAddress": "0x6bc8a42d4b2f4bc8e4c3f9ecff00b7290ffa7405",
      "function": "mint(address,uint256)",
      "arguments": [
        "0x6EFb11aC41B6657c32dAc5Ed4874082C700BbA29",
        "10000000000000000000000"
      ],
      "transaction": {
        "from": "0x6efb11ac41b6657c32dac5ed4874082c700bba29",
        "to": "0x6bc8a42d4b2f4bc8e4c3f9ecff00b7290ffa7405",
        "gas": "0xc1c9",
        "value": "0x0",
        "input": "0x40c10f190000000000000000000000006efb11ac41b6657c32dac5ed4874082c700bba2900000000000000000000000000000000000000000000021e19e0c9bab2400000",
        "nonce": "0x116",
        "chainId": "0x279f"
      },
      "additionalContracts": [],
      "isFixedGasLimit": false
    },
    {
      "hash": "0x47d14069aa5e015f903be6eaf637a3d19507137cb48d9d188376314e832165f7",
      "transactionType": "CALL",
      "contractName": null,
      "contractAddress": "0xe3f98fda6dbd38c1017754f1675dce377381c23c",
      "function": "mint(address,uint256)",
      "arguments": [
        "0x6EFb11aC41B6657c32dAc5Ed4874082C700BbA29",
        "1000000000000000000000"
      ],
      "transaction": {
        "from": "0x6efb11ac41b6657c32dac5ed4874082c700bba29",
        "to": "0xe3f98fda6dbd38c1017754f1675dce377381c23c",
        "gas": "0xb6f4",
        "value": "0x0",
        "input": "0x40c10f190000000000000000000000006efb11ac41b6657c32dac5ed4874082c700bba2900000000000000000000000000000000000000000000003635c9adc5dea00000",
        "nonce": "0x117",
        "chainId": "0x279f"
      },
      "additionalContracts": [],
      "isFixedGasLimit": false
    },
    {
      "hash": "0xbde4b60b8bb756b0da1b2eb8e2fd4c37a0b4253ac964fb8c0b37948e4f2ddbad",
      "transactionType": "CALL",
      "contractName": null,
      "contractAddress": "0x2c53ce7143d24a65410107f50e4aabad9a164480",
      "function": "approve(address,uint256)",
      "arguments": [
        "0xa1ba9a5d1338c212C22405998268b0F6AA02Ab6E",
        "115792089237316195423570985008687907853269984665640564039457584007913129639935"
      ],
      "transaction": {
        "from": "0x6efb11ac41b6657c32dac5ed4874082c700bba29",
        "to": "0x2c53ce7143d24a65410107f50e4aabad9a164480",
        "gas": "0x96a4",
        "value": "0x0",
        "input": "0x095ea7b3000000000000000000000000a1ba9a5d1338c212c22405998268b0f6aa02ab6effffffffffffffffffffffffffffffffffffffffffffffffffffffffffffffff",
        "nonce": "0x118",
        "chainId": "0x279f"
      },
      "additionalContracts": [],
      "isFixedGasLimit": false
    },
    {
      "hash": "0x68b1bbe02f3980707930b9cd380567fa03ab1b076622e617db080990a229a158",
      "transactionType": "CALL",
      "contractName": null,
      "contractAddress": "0x53f7c389cbb801e2abfd301ded6d2a1cf330ac0d",
      "function": "approve(address,uint256)",
      "arguments": [
        "0xa1ba9a5d1338c212C22405998268b0F6AA02Ab6E",
        "115792089237316195423570985008687907853269984665640564039457584007913129639935"
      ],
      "transaction": {
        "from": "0x6efb11ac41b6657c32dac5ed4874082c700bba29",
        "to": "0x53f7c389cbb801e2abfd301ded6d2a1cf330ac0d",
        "gas": "0x96a4",
        "value": "0x0",
        "input": "0x095ea7b3000000000000000000000000a1ba9a5d1338c212c22405998268b0f6aa02ab6effffffffffffffffffffffffffffffffffffffffffffffffffffffffffffffff",
        "nonce": "0x119",
        "chainId": "0x279f"
      },
      "additionalContracts": [],
      "isFixedGasLimit": false
    },
    {
      "hash": "0x41e677337387e6bb69eb1bda5f2dd36a4a815bf1b112a8471ba9a2c9f625bb65",
      "transactionType": "CALL",
      "contractName": null,
      "contractAddress": "0xf9861d7478f8957679b26404bd6272c39f949c29",
      "function": "approve(address,uint256)",
      "arguments": [
        "0xa1ba9a5d1338c212C22405998268b0F6AA02Ab6E",
        "115792089237316195423570985008687907853269984665640564039457584007913129639935"
      ],
      "transaction": {
        "from": "0x6efb11ac41b6657c32dac5ed4874082c700bba29",
        "to": "0xf9861d7478f8957679b26404bd6272c39f949c29",
        "gas": "0x96a4",
        "value": "0x0",
        "input": "0x095ea7b3000000000000000000000000a1ba9a5d1338c212c22405998268b0f6aa02ab6effffffffffffffffffffffffffffffffffffffffffffffffffffffffffffffff",
        "nonce": "0x11a",
        "chainId": "0x279f"
      },
      "additionalContracts": [],
      "isFixedGasLimit": false
    },
    {
      "hash": "0xa5bd72a44e2f0e9ccc4acf5978906e7eaf83d415857574122c62eaede21848c7",
      "transactionType": "CALL",
      "contractName": null,
      "contractAddress": "0x1889cfb8746716a0ac50e59a54f190987c5f04e6",
      "function": "approve(address,uint256)",
      "arguments": [
        "0xa1ba9a5d1338c212C22405998268b0F6AA02Ab6E",
        "115792089237316195423570985008687907853269984665640564039457584007913129639935"
      ],
      "transaction": {
        "from": "0x6efb11ac41b6657c32dac5ed4874082c700bba29",
        "to": "0x1889cfb8746716a0ac50e59a54f190987c5f04e6",
        "gas": "0x96a4",
        "value": "0x0",
        "input": "0x095ea7b3000000000000000000000000a1ba9a5d1338c212c22405998268b0f6aa02ab6effffffffffffffffffffffffffffffffffffffffffffffffffffffffffffffff",
        "nonce": "0x11b",
        "chainId": "0x279f"
      },
      "additionalContracts": [],
      "isFixedGasLimit": false
    },
    {
      "hash": "0xd5a1b46db35ce9a60bfd447fdb344658fdab7575174c48f1fa37365fe5e6ec71",
      "transactionType": "CALL",
      "contractName": null,
      "contractAddress": "0x6bc8a42d4b2f4bc8e4c3f9ecff00b7290ffa7405",
      "function": "approve(address,uint256)",
      "arguments": [
        "0xa1ba9a5d1338c212C22405998268b0F6AA02Ab6E",
        "115792089237316195423570985008687907853269984665640564039457584007913129639935"
      ],
      "transaction": {
        "from": "0x6efb11ac41b6657c32dac5ed4874082c700bba29",
        "to": "0x6bc8a42d4b2f4bc8e4c3f9ecff00b7290ffa7405",
        "gas": "0x96a4",
        "value": "0x0",
        "input": "0x095ea7b3000000000000000000000000a1ba9a5d1338c212c22405998268b0f6aa02ab6effffffffffffffffffffffffffffffffffffffffffffffffffffffffffffffff",
        "nonce": "0x11c",
        "chainId": "0x279f"
      },
      "additionalContracts": [],
      "isFixedGasLimit": false
    },
    {
      "hash": "0xec93a2acad60ebeb0822e9faaf0f0aa2c0c80dd9760faf2b1231410421444ef8",
      "transactionType": "CALL",
      "contractName": null,
      "contractAddress": "0xe3f98fda6dbd38c1017754f1675dce377381c23c",
      "function": "approve(address,uint256)",
      "arguments": [
        "0xa1ba9a5d1338c212C22405998268b0F6AA02Ab6E",
        "115792089237316195423570985008687907853269984665640564039457584007913129639935"
      ],
      "transaction": {
        "from": "0x6efb11ac41b6657c32dac5ed4874082c700bba29",
        "to": "0xe3f98fda6dbd38c1017754f1675dce377381c23c",
        "gas": "0x96a4",
        "value": "0x0",
        "input": "0x095ea7b3000000000000000000000000a1ba9a5d1338c212c22405998268b0f6aa02ab6effffffffffffffffffffffffffffffffffffffffffffffffffffffffffffffff",
        "nonce": "0x11d",
        "chainId": "0x279f"
      },
      "additionalContracts": [],
      "isFixedGasLimit": false
    },
    {
      "hash": "0x3c612232c30ff1bc1e086eb558afb29fadb7f5a66b18e99ec55c6d4ac2c858a1",
      "transactionType": "CALL",
      "contractName": null,
      "contractAddress": "0xa1ba9a5d1338c212c22405998268b0f6aa02ab6e",
      "function": "multicall(bytes[])",
      "arguments": [
        "[0x7d39aaf10000000000000000000000003f98dfb847340d3bd633e7d73187a391a62f2fa2000000000000000000000000000000000000000000000000000000003b9aca00, 0xe6d66ac80000000000000000000000002c53ce7143d24a65410107f50e4aabad9a1644800000000000000000000000003f98dfb847340d3bd633e7d73187a391a62f2fa2000000000000000000000000000000000000000000000000016345785d8a0000, 0x1ddbdd200000000000000000000000006efb11ac41b6657c32dac5ed4874082c700bba290000000000000000000000006efb11ac41b6657c32dac5ed4874082c700bba2900000000000000000000000000000000000000000000000000000000000000000000000000000000000000000000000000000000000000000000000000000000000000000000000000000000d0cb401840c5efac575e1fe57a308c396e73fbe00000000000000000000000002c53ce7143d24a65410107f50e4aabad9a164480000000000000000000000000000000000000000000000000000000000000000000000000000000000000000000000000000000000000006c6b935b8bbd400000000000000000000000000000000000000000000000000000016345785d8a00000000000000000000000000000000000000000000000000000000000000000000ffffffffffffffffffffffffffffffffffffffffffffffffffffffffffffffff000000000000000000000000000000000000000000000000000000003b9aca00000000000000000000000000000000000000000000000000000000000000000000000000000000000000000000000000000000000000000000000000000000010000000000000000000000000000000000000000000000000000000000000000]"
      ],
      "transaction": {
        "from": "0x6efb11ac41b6657c32dac5ed4874082c700bba29",
        "to": "0xa1ba9a5d1338c212c22405998268b0f6aa02ab6e",
        "gas": "0x8c5da",
        "value": "0x0",
        "input": "0xac9650d800000000000000000000000000000000000000000000000000000000000000200000000000000000000000000000000000000000000000000000000000000003000000000000000000000000000000000000000000000000000000000000006000000000000000000000000000000000000000000000000000000000000000e0000000000000000000000000000000000000000000000000000000000000018000000000000000000000000000000000000000000000000000000000000000447d39aaf10000000000000000000000003f98dfb847340d3bd633e7d73187a391a62f2fa2000000000000000000000000000000000000000000000000000000003b9aca00000000000000000000000000000000000000000000000000000000000000000000000000000000000000000000000000000000000000000000000064e6d66ac80000000000000000000000002c53ce7143d24a65410107f50e4aabad9a1644800000000000000000000000003f98dfb847340d3bd633e7d73187a391a62f2fa2000000000000000000000000000000000000000000000000016345785d8a00000000000000000000000000000000000000000000000000000000000000000000000000000000000000000000000000000000000000000000000001e41ddbdd200000000000000000000000006efb11ac41b6657c32dac5ed4874082c700bba290000000000000000000000006efb11ac41b6657c32dac5ed4874082c700bba2900000000000000000000000000000000000000000000000000000000000000000000000000000000000000000000000000000000000000000000000000000000000000000000000000000000d0cb401840c5efac575e1fe57a308c396e73fbe00000000000000000000000002c53ce7143d24a65410107f50e4aabad9a164480000000000000000000000000000000000000000000000000000000000000000000000000000000000000000000000000000000000000006c6b935b8bbd400000000000000000000000000000000000000000000000000000016345785d8a00000000000000000000000000000000000000000000000000000000000000000000ffffffffffffffffffffffffffffffffffffffffffffffffffffffffffffffff000000000000000000000000000000000000000000000000000000003b9aca0000000000000000000000000000000000000000000000000000000000000000000000000000000000000000000000000000000000000000000000000000000001000000000000000000000000000000000000000000000000000000000000000000000000000000000000000000000000000000000000000000000000",
        "nonce": "0x11e",
        "chainId": "0x279f"
      },
      "additionalContracts": [],
      "isFixedGasLimit": false
    },
    {
      "hash": "0xc471a0eb53112d9e9688ec1698da4576ef9691b457dc01f7025f726eac28cdff",
      "transactionType": "CALL",
      "contractName": null,
      "contractAddress": "0xa1ba9a5d1338c212c22405998268b0f6aa02ab6e",
      "function": "multicall(bytes[])",
      "arguments": [
        "[0x7d39aaf10000000000000000000000003f98dfb847340d3bd633e7d73187a391a62f2fa2000000000000000000000000000000000000000000000000000000003b9aca00, 0xe6d66ac800000000000000000000000053f7c389cbb801e2abfd301ded6d2a1cf330ac0d0000000000000000000000003f98dfb847340d3bd633e7d73187a391a62f2fa2000000000000000000000000000000000000000000000000002386f26fc10000, 0x1ddbdd200000000000000000000000006efb11ac41b6657c32dac5ed4874082c700bba290000000000000000000000006efb11ac41b6657c32dac5ed4874082c700bba290000000000000000000000000000000000000000000000000000000000000000000000000000000000000000000000000000000000000000000000000000000000000000000000000000000031310f40189bd05b234c2977bdb1fb141d2e4e2600000000000000000000000053f7c389cbb801e2abfd301ded6d2a1cf330ac0d00000000000000000000000000000000000000000000000000000000000000000000000000000000000000000000000000000000000000e3aeb5737240a00000000000000000000000000000000000000000000000000000002386f26fc100000000000000000000000000000000000000000000000000000000000000000000ffffffffffffffffffffffffffffffffffffffffffffffffffffffffffffffff000000000000000000000000000000000000000000000000000000003b9aca00000000000000000000000000000000000000000000000000000000000000000000000000000000000000000000000000000000000000000000000000000000010000000000000000000000000000000000000000000000000000000000000000]"
      ],
      "transaction": {
        "from": "0x6efb11ac41b6657c32dac5ed4874082c700bba29",
        "to": "0xa1ba9a5d1338c212c22405998268b0f6aa02ab6e",
        "gas": "0x8b4cc",
        "value": "0x0",
        "input": "0xac9650d800000000000000000000000000000000000000000000000000000000000000200000000000000000000000000000000000000000000000000000000000000003000000000000000000000000000000000000000000000000000000000000006000000000000000000000000000000000000000000000000000000000000000e0000000000000000000000000000000000000000000000000000000000000018000000000000000000000000000000000000000000000000000000000000000447d39aaf10000000000000000000000003f98dfb847340d3bd633e7d73187a391a62f2fa2000000000000000000000000000000000000000000000000000000003b9aca00000000000000000000000000000000000000000000000000000000000000000000000000000000000000000000000000000000000000000000000064e6d66ac800000000000000000000000053f7c389cbb801e2abfd301ded6d2a1cf330ac0d0000000000000000000000003f98dfb847340d3bd633e7d73187a391a62f2fa2000000000000000000000000000000000000000000000000002386f26fc100000000000000000000000000000000000000000000000000000000000000000000000000000000000000000000000000000000000000000000000001e41ddbdd200000000000000000000000006efb11ac41b6657c32dac5ed4874082c700bba290000000000000000000000006efb11ac41b6657c32dac5ed4874082c700bba290000000000000000000000000000000000000000000000000000000000000000000000000000000000000000000000000000000000000000000000000000000000000000000000000000000031310f40189bd05b234c2977bdb1fb141d2e4e2600000000000000000000000053f7c389cbb801e2abfd301ded6d2a1cf330ac0d00000000000000000000000000000000000000000000000000000000000000000000000000000000000000000000000000000000000000e3aeb5737240a00000000000000000000000000000000000000000000000000000002386f26fc100000000000000000000000000000000000000000000000000000000000000000000ffffffffffffffffffffffffffffffffffffffffffffffffffffffffffffffff000000000000000000000000000000000000000000000000000000003b9aca0000000000000000000000000000000000000000000000000000000000000000000000000000000000000000000000000000000000000000000000000000000001000000000000000000000000000000000000000000000000000000000000000000000000000000000000000000000000000000000000000000000000",
        "nonce": "0x11f",
        "chainId": "0x279f"
      },
      "additionalContracts": [],
      "isFixedGasLimit": false
    },
    {
      "hash": "0x1bd60decff5f84315cef97537096aa74de2222593c06809995c0917c4c941cb6",
      "transactionType": "CALL",
      "contractName": null,
      "contractAddress": "0xa1ba9a5d1338c212c22405998268b0f6aa02ab6e",
      "function": "multicall(bytes[])",
      "arguments": [
        "[0x7d39aaf10000000000000000000000003f98dfb847340d3bd633e7d73187a391a62f2fa2000000000000000000000000000000000000000000000000000000003b9aca00, 0xe6d66ac8000000000000000000000000f9861d7478f8957679b26404bd6272c39f949c290000000000000000000000003f98dfb847340d3bd633e7d73187a391a62f2fa200000000000000000000000000000000000000000000152d02c7e14af6800000, 0x1ddbdd200000000000000000000000006efb11ac41b6657c32dac5ed4874082c700bba290000000000000000000000006efb11ac41b6657c32dac5ed4874082c700bba290000000000000000000000000000000000000000000000000000000000000000000000000000000000000000000000000000000000000000000000000000000000000000000000000000000072648c2523f817412f81d4f54d84e8ab994cf66b000000000000000000000000f9861d7478f8957679b26404bd6272c39f949c2900000000000000000000000000000000000000000000000000000000000000000000000000000000000000000000000000000000000000056bc75e2d6310000000000000000000000000000000000000000000000000152d02c7e14af68000000000000000000000000000000000000000000000000000000000000000000000ffffffffffffffffffffffffffffffffffffffffffffffffffffffffffffffff000000000000000000000000000000000000000000000000000000003b9aca00000000000000000000000000000000000000000000000000000000000000000000000000000000000000000000000000000000000000000000000000000000010000000000000000000000000000000000000000000000000000000000000000]"
      ],
      "transaction": {
        "from": "0x6efb11ac41b6657c32dac5ed4874082c700bba29",
        "to": "0xa1ba9a5d1338c212c22405998268b0f6aa02ab6e",
        "gas": "0x8b530",
        "value": "0x0",
        "input": "0xac9650d800000000000000000000000000000000000000000000000000000000000000200000000000000000000000000000000000000000000000000000000000000003000000000000000000000000000000000000000000000000000000000000006000000000000000000000000000000000000000000000000000000000000000e0000000000000000000000000000000000000000000000000000000000000018000000000000000000000000000000000000000000000000000000000000000447d39aaf10000000000000000000000003f98dfb847340d3bd633e7d73187a391a62f2fa2000000000000000000000000000000000000000000000000000000003b9aca00000000000000000000000000000000000000000000000000000000000000000000000000000000000000000000000000000000000000000000000064e6d66ac8000000000000000000000000f9861d7478f8957679b26404bd6272c39f949c290000000000000000000000003f98dfb847340d3bd633e7d73187a391a62f2fa200000000000000000000000000000000000000000000152d02c7e14af68000000000000000000000000000000000000000000000000000000000000000000000000000000000000000000000000000000000000000000000000001e41ddbdd200000000000000000000000006efb11ac41b6657c32dac5ed4874082c700bba290000000000000000000000006efb11ac41b6657c32dac5ed4874082c700bba290000000000000000000000000000000000000000000000000000000000000000000000000000000000000000000000000000000000000000000000000000000000000000000000000000000072648c2523f817412f81d4f54d84e8ab994cf66b000000000000000000000000f9861d7478f8957679b26404bd6272c39f949c2900000000000000000000000000000000000000000000000000000000000000000000000000000000000000000000000000000000000000056bc75e2d6310000000000000000000000000000000000000000000000000152d02c7e14af68000000000000000000000000000000000000000000000000000000000000000000000ffffffffffffffffffffffffffffffffffffffffffffffffffffffffffffffff000000000000000000000000000000000000000000000000000000003b9aca0000000000000000000000000000000000000000000000000000000000000000000000000000000000000000000000000000000000000000000000000000000001000000000000000000000000000000000000000000000000000000000000000000000000000000000000000000000000000000000000000000000000",
        "nonce": "0x120",
        "chainId": "0x279f"
      },
      "additionalContracts": [],
      "isFixedGasLimit": false
    },
    {
      "hash": "0xef5cca6a7d8178c9772ad8a72e0c9eaa2c64df83534051eef17a934234fb1c0d",
      "transactionType": "CALL",
      "contractName": null,
      "contractAddress": "0xa1ba9a5d1338c212c22405998268b0f6aa02ab6e",
      "function": "multicall(bytes[])",
      "arguments": [
        "[0x7d39aaf10000000000000000000000003f98dfb847340d3bd633e7d73187a391a62f2fa2000000000000000000000000000000000000000000000000000000003b9aca00, 0xe6d66ac80000000000000000000000001889cfb8746716a0ac50e59a54f190987c5f04e60000000000000000000000003f98dfb847340d3bd633e7d73187a391a62f2fa200000000000000000000000000000000000000000000003635c9adc5dea00000, 0x1ddbdd200000000000000000000000006efb11ac41b6657c32dac5ed4874082c700bba290000000000000000000000006efb11ac41b6657c32dac5ed4874082c700bba29000000000000000000000000000000000000000000000000000000000000000000000000000000000000000000000000000000000000000000000000000000000000000000000000000000005f5054ee2a7bc2617565b5b79f35573aa61394810000000000000000000000001889cfb8746716a0ac50e59a54f190987c5f04e6000000000000000000000000000000000000000000000000000000000000000000000000000000000000000000000000000000000000003635c9adc5dea0000000000000000000000000000000000000000000000000003635c9adc5dea000000000000000000000000000000000000000000000000000000000000000000000ffffffffffffffffffffffffffffffffffffffffffffffffffffffffffffffff000000000000000000000000000000000000000000000000000000003b9aca00000000000000000000000000000000000000000000000000000000000000000000000000000000000000000000000000000000000000000000000000000000010000000000000000000000000000000000000000000000000000000000000000]"
      ],
      "transaction": {
        "from": "0x6efb11ac41b6657c32dac5ed4874082c700bba29",
        "to": "0xa1ba9a5d1338c212c22405998268b0f6aa02ab6e",
        "gas": "0x8b50e",
        "value": "0x0",
        "input": "0xac9650d800000000000000000000000000000000000000000000000000000000000000200000000000000000000000000000000000000000000000000000000000000003000000000000000000000000000000000000000000000000000000000000006000000000000000000000000000000000000000000000000000000000000000e0000000000000000000000000000000000000000000000000000000000000018000000000000000000000000000000000000000000000000000000000000000447d39aaf10000000000000000000000003f98dfb847340d3bd633e7d73187a391a62f2fa2000000000000000000000000000000000000000000000000000000003b9aca00000000000000000000000000000000000000000000000000000000000000000000000000000000000000000000000000000000000000000000000064e6d66ac80000000000000000000000001889cfb8746716a0ac50e59a54f190987c5f04e60000000000000000000000003f98dfb847340d3bd633e7d73187a391a62f2fa200000000000000000000000000000000000000000000003635c9adc5dea000000000000000000000000000000000000000000000000000000000000000000000000000000000000000000000000000000000000000000000000001e41ddbdd200000000000000000000000006efb11ac41b6657c32dac5ed4874082c700bba290000000000000000000000006efb11ac41b6657c32dac5ed4874082c700bba29000000000000000000000000000000000000000000000000000000000000000000000000000000000000000000000000000000000000000000000000000000000000000000000000000000005f5054ee2a7bc2617565b5b79f35573aa61394810000000000000000000000001889cfb8746716a0ac50e59a54f190987c5f04e6000000000000000000000000000000000000000000000000000000000000000000000000000000000000000000000000000000000000003635c9adc5dea0000000000000000000000000000000000000000000000000003635c9adc5dea000000000000000000000000000000000000000000000000000000000000000000000ffffffffffffffffffffffffffffffffffffffffffffffffffffffffffffffff000000000000000000000000000000000000000000000000000000003b9aca0000000000000000000000000000000000000000000000000000000000000000000000000000000000000000000000000000000000000000000000000000000001000000000000000000000000000000000000000000000000000000000000000000000000000000000000000000000000000000000000000000000000",
        "nonce": "0x121",
        "chainId": "0x279f"
      },
      "additionalContracts": [],
      "isFixedGasLimit": false
    },
    {
      "hash": "0xb406788e220fb226cf71e79404af8bc1036192a3357438687518429a10d2d759",
      "transactionType": "CALL",
      "contractName": null,
      "contractAddress": "0xa1ba9a5d1338c212c22405998268b0f6aa02ab6e",
      "function": "multicall(bytes[])",
      "arguments": [
        "[0x7d39aaf10000000000000000000000003f98dfb847340d3bd633e7d73187a391a62f2fa2000000000000000000000000000000000000000000000000000000003b9aca00, 0xe6d66ac80000000000000000000000006bc8a42d4b2f4bc8e4c3f9ecff00b7290ffa74050000000000000000000000003f98dfb847340d3bd633e7d73187a391a62f2fa200000000000000000000000000000000000000000000003635c9adc5dea00000, 0x1ddbdd200000000000000000000000006efb11ac41b6657c32dac5ed4874082c700bba290000000000000000000000006efb11ac41b6657c32dac5ed4874082c700bba290000000000000000000000000000000000000000000000000000000000000000000000000000000000000000000000000000000000000000000000000000000000000000000000000000000037ee6083d1191b00eda1f6304c9a60695bfee8da0000000000000000000000006bc8a42d4b2f4bc8e4c3f9ecff00b7290ffa7405000000000000000000000000000000000000000000000000000000000000000000000000000000000000000000000000000000000000001b1ae4d6e2ef50000000000000000000000000000000000000000000000000003635c9adc5dea000000000000000000000000000000000000000000000000000000000000000000000ffffffffffffffffffffffffffffffffffffffffffffffffffffffffffffffff000000000000000000000000000000000000000000000000000000003b9aca00000000000000000000000000000000000000000000000000000000000000000000000000000000000000000000000000000000000000000000000000000000010000000000000000000000000000000000000000000000000000000000000000]"
      ],
      "transaction": {
        "from": "0x6efb11ac41b6657c32dac5ed4874082c700bba29",
        "to": "0xa1ba9a5d1338c212c22405998268b0f6aa02ab6e",
        "gas": "0x937fa",
        "value": "0x0",
        "input": "0xac9650d800000000000000000000000000000000000000000000000000000000000000200000000000000000000000000000000000000000000000000000000000000003000000000000000000000000000000000000000000000000000000000000006000000000000000000000000000000000000000000000000000000000000000e0000000000000000000000000000000000000000000000000000000000000018000000000000000000000000000000000000000000000000000000000000000447d39aaf10000000000000000000000003f98dfb847340d3bd633e7d73187a391a62f2fa2000000000000000000000000000000000000000000000000000000003b9aca00000000000000000000000000000000000000000000000000000000000000000000000000000000000000000000000000000000000000000000000064e6d66ac80000000000000000000000006bc8a42d4b2f4bc8e4c3f9ecff00b7290ffa74050000000000000000000000003f98dfb847340d3bd633e7d73187a391a62f2fa200000000000000000000000000000000000000000000003635c9adc5dea000000000000000000000000000000000000000000000000000000000000000000000000000000000000000000000000000000000000000000000000001e41ddbdd200000000000000000000000006efb11ac41b6657c32dac5ed4874082c700bba290000000000000000000000006efb11ac41b6657c32dac5ed4874082c700bba290000000000000000000000000000000000000000000000000000000000000000000000000000000000000000000000000000000000000000000000000000000000000000000000000000000037ee6083d1191b00eda1f6304c9a60695bfee8da0000000000000000000000006bc8a42d4b2f4bc8e4c3f9ecff00b7290ffa7405000000000000000000000000000000000000000000000000000000000000000000000000000000000000000000000000000000000000001b1ae4d6e2ef50000000000000000000000000000000000000000000000000003635c9adc5dea000000000000000000000000000000000000000000000000000000000000000000000ffffffffffffffffffffffffffffffffffffffffffffffffffffffffffffffff000000000000000000000000000000000000000000000000000000003b9aca0000000000000000000000000000000000000000000000000000000000000000000000000000000000000000000000000000000000000000000000000000000001000000000000000000000000000000000000000000000000000000000000000000000000000000000000000000000000000000000000000000000000",
        "nonce": "0x122",
        "chainId": "0x279f"
      },
      "additionalContracts": [],
      "isFixedGasLimit": false
    },
    {
      "hash": "0x19e8c86ad9b45f5f2df9d6fd10800b5086784829bfc38a6aedc574bdfac802c9",
      "transactionType": "CALL",
      "contractName": null,
      "contractAddress": "0xa1ba9a5d1338c212c22405998268b0f6aa02ab6e",
      "function": "multicall(bytes[])",
      "arguments": [
        "[0x7d39aaf10000000000000000000000003f98dfb847340d3bd633e7d73187a391a62f2fa2000000000000000000000000000000000000000000000000000000003b9aca00, 0xe6d66ac8000000000000000000000000e3f98fda6dbd38c1017754f1675dce377381c23c0000000000000000000000003f98dfb847340d3bd633e7d73187a391a62f2fa20000000000000000000000000000000000000000000000008ac7230489e80000, 0x1ddbdd200000000000000000000000006efb11ac41b6657c32dac5ed4874082c700bba290000000000000000000000006efb11ac41b6657c32dac5ed4874082c700bba29000000000000000000000000000000000000000000000000000000000000000000000000000000000000000000000000000000000000000000000000000000000000000000000000000000008e3e87de2503661f3b4879a9743f3fe3d347be52000000000000000000000000e3f98fda6dbd38c1017754f1675dce377381c23c000000000000000000000000000000000000000000000000000000000000000000000000000000000000000000000000000000000000005150ae84a8cdf000000000000000000000000000000000000000000000000000008ac7230489e800000000000000000000000000000000000000000000000000000000000000000000ffffffffffffffffffffffffffffffffffffffffffffffffffffffffffffffff000000000000000000000000000000000000000000000000000000003b9aca00000000000000000000000000000000000000000000000000000000000000000000000000000000000000000000000000000000000000000000000000000000010000000000000000000000000000000000000000000000000000000000000000]"
      ],
      "transaction": {
        "from": "0x6efb11ac41b6657c32dac5ed4874082c700bba29",
        "to": "0xa1ba9a5d1338c212c22405998268b0f6aa02ab6e",
        "gas": "0x8b4ee",
        "value": "0x0",
        "input": "0xac9650d800000000000000000000000000000000000000000000000000000000000000200000000000000000000000000000000000000000000000000000000000000003000000000000000000000000000000000000000000000000000000000000006000000000000000000000000000000000000000000000000000000000000000e0000000000000000000000000000000000000000000000000000000000000018000000000000000000000000000000000000000000000000000000000000000447d39aaf10000000000000000000000003f98dfb847340d3bd633e7d73187a391a62f2fa2000000000000000000000000000000000000000000000000000000003b9aca00000000000000000000000000000000000000000000000000000000000000000000000000000000000000000000000000000000000000000000000064e6d66ac8000000000000000000000000e3f98fda6dbd38c1017754f1675dce377381c23c0000000000000000000000003f98dfb847340d3bd633e7d73187a391a62f2fa20000000000000000000000000000000000000000000000008ac7230489e800000000000000000000000000000000000000000000000000000000000000000000000000000000000000000000000000000000000000000000000001e41ddbdd200000000000000000000000006efb11ac41b6657c32dac5ed4874082c700bba290000000000000000000000006efb11ac41b6657c32dac5ed4874082c700bba29000000000000000000000000000000000000000000000000000000000000000000000000000000000000000000000000000000000000000000000000000000000000000000000000000000008e3e87de2503661f3b4879a9743f3fe3d347be52000000000000000000000000e3f98fda6dbd38c1017754f1675dce377381c23c000000000000000000000000000000000000000000000000000000000000000000000000000000000000000000000000000000000000005150ae84a8cdf000000000000000000000000000000000000000000000000000008ac7230489e800000000000000000000000000000000000000000000000000000000000000000000ffffffffffffffffffffffffffffffffffffffffffffffffffffffffffffffff000000000000000000000000000000000000000000000000000000003b9aca0000000000000000000000000000000000000000000000000000000000000000000000000000000000000000000000000000000000000000000000000000000001000000000000000000000000000000000000000000000000000000000000000000000000000000000000000000000000000000000000000000000000",
        "nonce": "0x123",
        "chainId": "0x279f"
      },
      "additionalContracts": [],
      "isFixedGasLimit": false
    }
  ],
  "receipts": [
    {
      "status": "0x1",
      "cumulativeGasUsed": "0x23d1e21",
      "logs": [
        {
          "address": "0x2c53ce7143d24a65410107f50e4aabad9a164480",
          "topics": [
            "0xddf252ad1be2c89b69c2b068fc378daa952ba7f163c4a11628f55a4df523b3ef",
            "0x0000000000000000000000000000000000000000000000000000000000000000",
            "0x0000000000000000000000006efb11ac41b6657c32dac5ed4874082c700bba29"
          ],
          "data": "0x0000000000000000000000000000000000000000000000008ac7230489e80000",
          "blockHash": "0x66aeedd8cc1458f7e8d42acf06b4e79476a4c4893f085e5a92138af1721b247b",
          "blockNumber": "0x722aff",
          "blockTimestamp": "0x67d1dd43",
          "transactionHash": "0xd06a7805a7828905e705f523f4efdf0af08f411e086d7b082b333d2c7aaf4b6c",
          "transactionIndex": "0x16e",
          "logIndex": "0x20f",
          "removed": false
        }
      ],
      "logsBloom": "0x00000000000000000200000000000000000000000000000000000000000000000000000000000000000000000000000000001000000100000000000000000000000000000000000000000008000000000000000000000000000000000000000000000000020000000000000000000800000000000000000000000010000000000000000000000000000000000000000000000000000000000000000000000000000000000000000000000000000000000000000000000000000001000000000000000002000000000000000000000000000000010000000000000000000020000000001000000000000000000000000000000000000000000000000000000000",
      "type": "0x2",
      "transactionHash": "0xd06a7805a7828905e705f523f4efdf0af08f411e086d7b082b333d2c7aaf4b6c",
      "transactionIndex": "0x16e",
      "blockHash": "0x66aeedd8cc1458f7e8d42acf06b4e79476a4c4893f085e5a92138af1721b247b",
      "blockNumber": "0x722aff",
      "gasUsed": "0xc1a6",
      "effectiveGasPrice": "0xba43b7401",
      "from": "0x6efb11ac41b6657c32dac5ed4874082c700bba29",
      "to": "0x2c53ce7143d24a65410107f50e4aabad9a164480",
      "contractAddress": null
    },
    {
      "status": "0x1",
      "cumulativeGasUsed": "0x23ddfc7",
      "logs": [
        {
          "address": "0x53f7c389cbb801e2abfd301ded6d2a1cf330ac0d",
          "topics": [
            "0xddf252ad1be2c89b69c2b068fc378daa952ba7f163c4a11628f55a4df523b3ef",
            "0x0000000000000000000000000000000000000000000000000000000000000000",
            "0x0000000000000000000000006efb11ac41b6657c32dac5ed4874082c700bba29"
          ],
          "data": "0x0000000000000000000000000000000000000000000000000de0b6b3a7640000",
          "blockHash": "0x66aeedd8cc1458f7e8d42acf06b4e79476a4c4893f085e5a92138af1721b247b",
          "blockNumber": "0x722aff",
          "blockTimestamp": "0x67d1dd43",
          "transactionHash": "0x0e593b15a69e508df0c51cff90c24366adad9d11d9b5eac1ee40e9603675585e",
          "transactionIndex": "0x16f",
          "logIndex": "0x210",
          "removed": false
        }
      ],
      "logsBloom": "0x00000000000000000200000002000000000000000000000000000000000000000000000000000000000000000000000000000000000100000000000000000000000000000000000000000008000000000000000000000000000000000000000000000000020000000000000000000800000000000000000000000010000000000000000000000000000000000000000000000000000000000000000000000000000000000010000000000000000000000000000000000000000001000000000000000002000000000000000000000000000000000000000000000000000020000000000000000000000000000000000000000000000000000008000000000000",
      "type": "0x2",
      "transactionHash": "0x0e593b15a69e508df0c51cff90c24366adad9d11d9b5eac1ee40e9603675585e",
      "transactionIndex": "0x16f",
      "blockHash": "0x66aeedd8cc1458f7e8d42acf06b4e79476a4c4893f085e5a92138af1721b247b",
      "blockNumber": "0x722aff",
      "gasUsed": "0xc1a6",
      "effectiveGasPrice": "0xba43b7401",
      "from": "0x6efb11ac41b6657c32dac5ed4874082c700bba29",
      "to": "0x53f7c389cbb801e2abfd301ded6d2a1cf330ac0d",
      "contractAddress": null
    },
    {
      "status": "0x1",
      "cumulativeGasUsed": "0x23e96bb",
      "logs": [
        {
          "address": "0xf9861d7478f8957679b26404bd6272c39f949c29",
          "topics": [
            "0xddf252ad1be2c89b69c2b068fc378daa952ba7f163c4a11628f55a4df523b3ef",
            "0x0000000000000000000000000000000000000000000000000000000000000000",
            "0x0000000000000000000000006efb11ac41b6657c32dac5ed4874082c700bba29"
          ],
          "data": "0x00000000000000000000000000000000000000000000d3c21bcecceda1000000",
          "blockHash": "0x66aeedd8cc1458f7e8d42acf06b4e79476a4c4893f085e5a92138af1721b247b",
          "blockNumber": "0x722aff",
          "blockTimestamp": "0x67d1dd43",
          "transactionHash": "0x9f754faa5dd87566954a9fe9f9f1b4cb515338acbc82121255b3cc260ef260bf",
          "transactionIndex": "0x170",
          "logIndex": "0x211",
          "removed": false
        }
      ],
      "logsBloom": "0x00000000000000000200000000000000000000000000000000000000000000000000000000000000000000000000000000000000000100000000000000000000000000000000000000000008000000000000000000000000000000000000000000000000060000000000000000000800000000000000000000000010000000000000000000000000000000000000000000000000000000000000000000000000000000000000000000040000000000000000000000000000000001000000000000000002080000000000000000000000000000000000000000000000000020000000000000000000000000000000000000000000000000000000000000000000",
      "type": "0x2",
      "transactionHash": "0x9f754faa5dd87566954a9fe9f9f1b4cb515338acbc82121255b3cc260ef260bf",
      "transactionIndex": "0x170",
      "blockHash": "0x66aeedd8cc1458f7e8d42acf06b4e79476a4c4893f085e5a92138af1721b247b",
      "blockNumber": "0x722aff",
      "gasUsed": "0xb6f4",
      "effectiveGasPrice": "0xba43b7401",
      "from": "0x6efb11ac41b6657c32dac5ed4874082c700bba29",
      "to": "0xf9861d7478f8957679b26404bd6272c39f949c29",
      "contractAddress": null
    },
    {
      "status": "0x1",
      "cumulativeGasUsed": "0x23f5884",
      "logs": [
        {
          "address": "0x1889cfb8746716a0ac50e59a54f190987c5f04e6",
          "topics": [
            "0xddf252ad1be2c89b69c2b068fc378daa952ba7f163c4a11628f55a4df523b3ef",
            "0x0000000000000000000000000000000000000000000000000000000000000000",
            "0x0000000000000000000000006efb11ac41b6657c32dac5ed4874082c700bba29"
          ],
          "data": "0x00000000000000000000000000000000000000000000021e19e0c9bab2400000",
          "blockHash": "0x66aeedd8cc1458f7e8d42acf06b4e79476a4c4893f085e5a92138af1721b247b",
          "blockNumber": "0x722aff",
          "blockTimestamp": "0x67d1dd43",
          "transactionHash": "0x899b534db7085ffae9746b90ae92813dda2880738612e5b6e99192bc004f8288",
          "transactionIndex": "0x171",
          "logIndex": "0x212",
          "removed": false
        }
      ],
      "logsBloom": "0x00000000000000000200000000000000000000000000000000000000000000000000000000000000000000000000000000000000000100000000000000000000000000000000000000000008000000000000000000000000000400000000000000000000020000000000000000000800000000000000000000000010000000000000000000000000000000000000000000000000000000000000000000000000000000000000100000000000000000000000000000000000000001000000000000000002000000000000000000000000000000000000000000000000000020000000000080000000000000000000000000000000000000000000000000000000",
      "type": "0x2",
      "transactionHash": "0x899b534db7085ffae9746b90ae92813dda2880738612e5b6e99192bc004f8288",
      "transactionIndex": "0x171",
      "blockHash": "0x66aeedd8cc1458f7e8d42acf06b4e79476a4c4893f085e5a92138af1721b247b",
      "blockNumber": "0x722aff",
      "gasUsed": "0xc1c9",
      "effectiveGasPrice": "0xba43b7401",
      "from": "0x6efb11ac41b6657c32dac5ed4874082c700bba29",
      "to": "0x1889cfb8746716a0ac50e59a54f190987c5f04e6",
      "contractAddress": null
    },
    {
      "status": "0x1",
      "cumulativeGasUsed": "0x2401a4d",
      "logs": [
        {
          "address": "0x6bc8a42d4b2f4bc8e4c3f9ecff00b7290ffa7405",
          "topics": [
            "0xddf252ad1be2c89b69c2b068fc378daa952ba7f163c4a11628f55a4df523b3ef",
            "0x0000000000000000000000000000000000000000000000000000000000000000",
            "0x0000000000000000000000006efb11ac41b6657c32dac5ed4874082c700bba29"
          ],
          "data": "0x00000000000000000000000000000000000000000000021e19e0c9bab2400000",
          "blockHash": "0x66aeedd8cc1458f7e8d42acf06b4e79476a4c4893f085e5a92138af1721b247b",
          "blockNumber": "0x722aff",
          "blockTimestamp": "0x67d1dd43",
          "transactionHash": "0xe850f7b473ff65839abdd0664115aa94d0382910f96c5ff5998aa7b1f09674d3",
          "transactionIndex": "0x172",
          "logIndex": "0x213",
          "removed": false
        }
      ],
      "logsBloom": "0x00000000000000000200000000000000000000000000000000000000000000000000000000000000000000000000000000002000000100000400000000000000000000000000000000000008000000000000000000000000000000000000000000000000020000000000000000000800000000000000000000000010000000000000000000000000000000000000000000000000000000000000000000000000000000000200000000000000000000000000000000000000000001000000000000000002000000000000000000000000000000000000000000000000000020000000000000000000000000000000000000000000000000000000000000000000",
      "type": "0x2",
      "transactionHash": "0xe850f7b473ff65839abdd0664115aa94d0382910f96c5ff5998aa7b1f09674d3",
      "transactionIndex": "0x172",
      "blockHash": "0x66aeedd8cc1458f7e8d42acf06b4e79476a4c4893f085e5a92138af1721b247b",
      "blockNumber": "0x722aff",
      "gasUsed": "0xc1c9",
      "effectiveGasPrice": "0xba43b7401",
      "from": "0x6efb11ac41b6657c32dac5ed4874082c700bba29",
      "to": "0x6bc8a42d4b2f4bc8e4c3f9ecff00b7290ffa7405",
      "contractAddress": null
    },
    {
      "status": "0x1",
      "cumulativeGasUsed": "0x240d141",
      "logs": [
        {
          "address": "0xe3f98fda6dbd38c1017754f1675dce377381c23c",
          "topics": [
            "0xddf252ad1be2c89b69c2b068fc378daa952ba7f163c4a11628f55a4df523b3ef",
            "0x0000000000000000000000000000000000000000000000000000000000000000",
            "0x0000000000000000000000006efb11ac41b6657c32dac5ed4874082c700bba29"
          ],
          "data": "0x00000000000000000000000000000000000000000000003635c9adc5dea00000",
          "blockHash": "0x66aeedd8cc1458f7e8d42acf06b4e79476a4c4893f085e5a92138af1721b247b",
          "blockNumber": "0x722aff",
          "blockTimestamp": "0x67d1dd43",
          "transactionHash": "0x47d14069aa5e015f903be6eaf637a3d19507137cb48d9d188376314e832165f7",
          "transactionIndex": "0x173",
          "logIndex": "0x214",
          "removed": false
        }
      ],
      "logsBloom": "0x00000000000000002200000000000000000000000000000000000000000000000000000000000000000000000000000000000000000100000000000000000000000000000000000000000008000000000000000000000000000000000000000000000000020000000000000000000800000000000000000000000010000000000000000000000000000000000000000000000000000000000020000000000000000000000000000000000000000020000000000000000000000001000000000000000002000000000000000000000000000000000000000000000000000020000000000000000000000000000000000000000000000000000000000000000000",
      "type": "0x2",
      "transactionHash": "0x47d14069aa5e015f903be6eaf637a3d19507137cb48d9d188376314e832165f7",
      "transactionIndex": "0x173",
      "blockHash": "0x66aeedd8cc1458f7e8d42acf06b4e79476a4c4893f085e5a92138af1721b247b",
      "blockNumber": "0x722aff",
      "gasUsed": "0xb6f4",
      "effectiveGasPrice": "0xba43b7401",
      "from": "0x6efb11ac41b6657c32dac5ed4874082c700bba29",
      "to": "0xe3f98fda6dbd38c1017754f1675dce377381c23c",
      "contractAddress": null
    },
    {
      "status": "0x1",
      "cumulativeGasUsed": "0x24167e5",
      "logs": [
        {
          "address": "0x2c53ce7143d24a65410107f50e4aabad9a164480",
          "topics": [
            "0x8c5be1e5ebec7d5bd14f71427d1e84f3dd0314c0f7b2291e5b200ac8c7c3b925",
            "0x0000000000000000000000006efb11ac41b6657c32dac5ed4874082c700bba29",
            "0x000000000000000000000000a1ba9a5d1338c212c22405998268b0f6aa02ab6e"
          ],
          "data": "0xffffffffffffffffffffffffffffffffffffffffffffffffffffffffffffffff",
          "blockHash": "0x66aeedd8cc1458f7e8d42acf06b4e79476a4c4893f085e5a92138af1721b247b",
          "blockNumber": "0x722aff",
          "blockTimestamp": "0x67d1dd43",
          "transactionHash": "0xbde4b60b8bb756b0da1b2eb8e2fd4c37a0b4253ac964fb8c0b37948e4f2ddbad",
          "transactionIndex": "0x174",
          "logIndex": "0x215",
          "removed": false
        }
      ],
      "logsBloom": "0x00000000000000000200000000000000000000000000000000000000000000000000000000000000000000000000000000001000000100000000000000200000000000000000000000000000000000000000000000000000000000004000000000000000000000000000000000000000000000000000000000000000000000000000000000000000000000000000000000000000000000000000000000000000020000000000000000000000000000000000000000000000000001000000008000000000000000000000000000000000000000010000000000000000000000000010001000000400000000000000000000000000000000000000000000000000",
      "type": "0x2",
      "transactionHash": "0xbde4b60b8bb756b0da1b2eb8e2fd4c37a0b4253ac964fb8c0b37948e4f2ddbad",
      "transactionIndex": "0x174",
      "blockHash": "0x66aeedd8cc1458f7e8d42acf06b4e79476a4c4893f085e5a92138af1721b247b",
      "blockNumber": "0x722aff",
      "gasUsed": "0x96a4",
      "effectiveGasPrice": "0xba43b7401",
      "from": "0x6efb11ac41b6657c32dac5ed4874082c700bba29",
      "to": "0x2c53ce7143d24a65410107f50e4aabad9a164480",
      "contractAddress": null
    },
    {
      "status": "0x1",
      "cumulativeGasUsed": "0x241fe89",
      "logs": [
        {
          "address": "0x53f7c389cbb801e2abfd301ded6d2a1cf330ac0d",
          "topics": [
            "0x8c5be1e5ebec7d5bd14f71427d1e84f3dd0314c0f7b2291e5b200ac8c7c3b925",
            "0x0000000000000000000000006efb11ac41b6657c32dac5ed4874082c700bba29",
            "0x000000000000000000000000a1ba9a5d1338c212c22405998268b0f6aa02ab6e"
          ],
          "data": "0xffffffffffffffffffffffffffffffffffffffffffffffffffffffffffffffff",
          "blockHash": "0x66aeedd8cc1458f7e8d42acf06b4e79476a4c4893f085e5a92138af1721b247b",
          "blockNumber": "0x722aff",
          "blockTimestamp": "0x67d1dd43",
          "transactionHash": "0x68b1bbe02f3980707930b9cd380567fa03ab1b076622e617db080990a229a158",
          "transactionIndex": "0x175",
          "logIndex": "0x216",
          "removed": false
        }
      ],
      "logsBloom": "0x00000000000000000200000002000000000000000000000000000000000000000000000000000000000000000000000000000000000100000000000000200000000000000000000000000000000000000000000000000000000000004000000000000000000000000000000000000000000000000000000000000000000000000000000000000000000000000000000000000000000000000000000000000000020000000010000000000000000000000000000000000000000001000000008000000000000000000000000000000000000000000000000000000000000000000010000000000400000000000000000000000000000000000008000000000000",
      "type": "0x2",
      "transactionHash": "0x68b1bbe02f3980707930b9cd380567fa03ab1b076622e617db080990a229a158",
      "transactionIndex": "0x175",
      "blockHash": "0x66aeedd8cc1458f7e8d42acf06b4e79476a4c4893f085e5a92138af1721b247b",
      "blockNumber": "0x722aff",
      "gasUsed": "0x96a4",
      "effectiveGasPrice": "0xba43b7401",
      "from": "0x6efb11ac41b6657c32dac5ed4874082c700bba29",
      "to": "0x53f7c389cbb801e2abfd301ded6d2a1cf330ac0d",
      "contractAddress": null
    },
    {
      "status": "0x1",
      "cumulativeGasUsed": "0x242952d",
      "logs": [
        {
          "address": "0xf9861d7478f8957679b26404bd6272c39f949c29",
          "topics": [
            "0x8c5be1e5ebec7d5bd14f71427d1e84f3dd0314c0f7b2291e5b200ac8c7c3b925",
            "0x0000000000000000000000006efb11ac41b6657c32dac5ed4874082c700bba29",
            "0x000000000000000000000000a1ba9a5d1338c212c22405998268b0f6aa02ab6e"
          ],
          "data": "0xffffffffffffffffffffffffffffffffffffffffffffffffffffffffffffffff",
          "blockHash": "0x66aeedd8cc1458f7e8d42acf06b4e79476a4c4893f085e5a92138af1721b247b",
          "blockNumber": "0x722aff",
          "blockTimestamp": "0x67d1dd43",
          "transactionHash": "0x41e677337387e6bb69eb1bda5f2dd36a4a815bf1b112a8471ba9a2c9f625bb65",
          "transactionIndex": "0x176",
          "logIndex": "0x217",
          "removed": false
        }
      ],
      "logsBloom": "0x00000000000000000200000000000000000000000000000000000000000000000000000000000000000000000000000000000000000100000000000000200000000000000000000000000000000000000000000000000000000000004000000000000000040000000000000000000000000000000000000000000000000000000000000000000000000000000000000000000000000000000000000000000000020000000000000000040000000000000000000000000000000001000000008000000000080000000000000000000000000000000000000000000000000000000010000000000400000000000000000000000000000000000000000000000000",
      "type": "0x2",
      "transactionHash": "0x41e677337387e6bb69eb1bda5f2dd36a4a815bf1b112a8471ba9a2c9f625bb65",
      "transactionIndex": "0x176",
      "blockHash": "0x66aeedd8cc1458f7e8d42acf06b4e79476a4c4893f085e5a92138af1721b247b",
      "blockNumber": "0x722aff",
      "gasUsed": "0x96a4",
      "effectiveGasPrice": "0xba43b7401",
      "from": "0x6efb11ac41b6657c32dac5ed4874082c700bba29",
      "to": "0xf9861d7478f8957679b26404bd6272c39f949c29",
      "contractAddress": null
    },
    {
      "status": "0x1",
      "cumulativeGasUsed": "0x2432bd1",
      "logs": [
        {
          "address": "0x1889cfb8746716a0ac50e59a54f190987c5f04e6",
          "topics": [
            "0x8c5be1e5ebec7d5bd14f71427d1e84f3dd0314c0f7b2291e5b200ac8c7c3b925",
            "0x0000000000000000000000006efb11ac41b6657c32dac5ed4874082c700bba29",
            "0x000000000000000000000000a1ba9a5d1338c212c22405998268b0f6aa02ab6e"
          ],
          "data": "0xffffffffffffffffffffffffffffffffffffffffffffffffffffffffffffffff",
          "blockHash": "0x66aeedd8cc1458f7e8d42acf06b4e79476a4c4893f085e5a92138af1721b247b",
          "blockNumber": "0x722aff",
          "blockTimestamp": "0x67d1dd43",
          "transactionHash": "0xa5bd72a44e2f0e9ccc4acf5978906e7eaf83d415857574122c62eaede21848c7",
          "transactionIndex": "0x177",
          "logIndex": "0x218",
          "removed": false
        }
      ],
      "logsBloom": "0x00000000000000000200000000000000000000000000000000000000000000000000000000000000000000000000000000000000000100000000000000200000000000000000000000000000000000000000000000000000000400004000000000000000000000000000000000000000000000000000000000000000000000000000000000000000000000000000000000000000000000000000000000000000020000000000100000000000000000000000000000000000000001000000008000000000000000000000000000000000000000000000000000000000000000000010000080000400000000000000000000000000000000000000000000000000",
      "type": "0x2",
      "transactionHash": "0xa5bd72a44e2f0e9ccc4acf5978906e7eaf83d415857574122c62eaede21848c7",
      "transactionIndex": "0x177",
      "blockHash": "0x66aeedd8cc1458f7e8d42acf06b4e79476a4c4893f085e5a92138af1721b247b",
      "blockNumber": "0x722aff",
      "gasUsed": "0x96a4",
      "effectiveGasPrice": "0xba43b7401",
      "from": "0x6efb11ac41b6657c32dac5ed4874082c700bba29",
      "to": "0x1889cfb8746716a0ac50e59a54f190987c5f04e6",
      "contractAddress": null
    },
    {
      "status": "0x1",
      "cumulativeGasUsed": "0x243c275",
      "logs": [
        {
          "address": "0x6bc8a42d4b2f4bc8e4c3f9ecff00b7290ffa7405",
          "topics": [
            "0x8c5be1e5ebec7d5bd14f71427d1e84f3dd0314c0f7b2291e5b200ac8c7c3b925",
            "0x0000000000000000000000006efb11ac41b6657c32dac5ed4874082c700bba29",
            "0x000000000000000000000000a1ba9a5d1338c212c22405998268b0f6aa02ab6e"
          ],
          "data": "0xffffffffffffffffffffffffffffffffffffffffffffffffffffffffffffffff",
          "blockHash": "0x66aeedd8cc1458f7e8d42acf06b4e79476a4c4893f085e5a92138af1721b247b",
          "blockNumber": "0x722aff",
          "blockTimestamp": "0x67d1dd43",
          "transactionHash": "0xd5a1b46db35ce9a60bfd447fdb344658fdab7575174c48f1fa37365fe5e6ec71",
          "transactionIndex": "0x178",
          "logIndex": "0x219",
          "removed": false
        }
      ],
      "logsBloom": "0x00000000000000000200000000000000000000000000000000000000000000000000000000000000000000000000000000002000000100000400000000200000000000000000000000000000000000000000000000000000000000004000000000000000000000000000000000000000000000000000000000000000000000000000000000000000000000000000000000000000000000000000000000000000020000000200000000000000000000000000000000000000000001000000008000000000000000000000000000000000000000000000000000000000000000000010000000000400000000000000000000000000000000000000000000000000",
      "type": "0x2",
      "transactionHash": "0xd5a1b46db35ce9a60bfd447fdb344658fdab7575174c48f1fa37365fe5e6ec71",
      "transactionIndex": "0x178",
      "blockHash": "0x66aeedd8cc1458f7e8d42acf06b4e79476a4c4893f085e5a92138af1721b247b",
      "blockNumber": "0x722aff",
      "gasUsed": "0x96a4",
      "effectiveGasPrice": "0xba43b7401",
      "from": "0x6efb11ac41b6657c32dac5ed4874082c700bba29",
      "to": "0x6bc8a42d4b2f4bc8e4c3f9ecff00b7290ffa7405",
      "contractAddress": null
    },
    {
      "status": "0x1",
      "cumulativeGasUsed": "0x2445919",
      "logs": [
        {
          "address": "0xe3f98fda6dbd38c1017754f1675dce377381c23c",
          "topics": [
            "0x8c5be1e5ebec7d5bd14f71427d1e84f3dd0314c0f7b2291e5b200ac8c7c3b925",
            "0x0000000000000000000000006efb11ac41b6657c32dac5ed4874082c700bba29",
            "0x000000000000000000000000a1ba9a5d1338c212c22405998268b0f6aa02ab6e"
          ],
          "data": "0xffffffffffffffffffffffffffffffffffffffffffffffffffffffffffffffff",
          "blockHash": "0x66aeedd8cc1458f7e8d42acf06b4e79476a4c4893f085e5a92138af1721b247b",
          "blockNumber": "0x722aff",
          "blockTimestamp": "0x67d1dd43",
          "transactionHash": "0xec93a2acad60ebeb0822e9faaf0f0aa2c0c80dd9760faf2b1231410421444ef8",
          "transactionIndex": "0x179",
          "logIndex": "0x21a",
          "removed": false
        }
      ],
      "logsBloom": "0x00000000000000002200000000000000000000000000000000000000000000000000000000000000000000000000000000000000000100000000000000200000000000000000000000000000000000000000000000000000000000004000000000000000000000000000000000000000000000000000000000000000000000000000000000000000000000000000000000000000000000000020000000000000020000000000000000000000000020000000000000000000000001000000008000000000000000000000000000000000000000000000000000000000000000000010000000000400000000000000000000000000000000000000000000000000",
      "type": "0x2",
      "transactionHash": "0xec93a2acad60ebeb0822e9faaf0f0aa2c0c80dd9760faf2b1231410421444ef8",
      "transactionIndex": "0x179",
      "blockHash": "0x66aeedd8cc1458f7e8d42acf06b4e79476a4c4893f085e5a92138af1721b247b",
      "blockNumber": "0x722aff",
      "gasUsed": "0x96a4",
      "effectiveGasPrice": "0xba43b7401",
      "from": "0x6efb11ac41b6657c32dac5ed4874082c700bba29",
      "to": "0xe3f98fda6dbd38c1017754f1675dce377381c23c",
      "contractAddress": null
    },
    {
      "status": "0x1",
      "cumulativeGasUsed": "0x24d1ef3",
      "logs": [
        {
          "address": "0x2c53ce7143d24a65410107f50e4aabad9a164480",
          "topics": [
            "0xddf252ad1be2c89b69c2b068fc378daa952ba7f163c4a11628f55a4df523b3ef",
            "0x0000000000000000000000006efb11ac41b6657c32dac5ed4874082c700bba29",
            "0x0000000000000000000000003f98dfb847340d3bd633e7d73187a391a62f2fa2"
          ],
          "data": "0x000000000000000000000000000000000000000000000000000000003b9aca00",
          "blockHash": "0x66aeedd8cc1458f7e8d42acf06b4e79476a4c4893f085e5a92138af1721b247b",
          "blockNumber": "0x722aff",
          "blockTimestamp": "0x67d1dd43",
          "transactionHash": "0x3c612232c30ff1bc1e086eb558afb29fadb7f5a66b18e99ec55c6d4ac2c858a1",
          "transactionIndex": "0x17a",
          "logIndex": "0x21b",
          "removed": false
        },
        {
          "address": "0x2c53ce7143d24a65410107f50e4aabad9a164480",
          "topics": [
            "0xddf252ad1be2c89b69c2b068fc378daa952ba7f163c4a11628f55a4df523b3ef",
            "0x0000000000000000000000006efb11ac41b6657c32dac5ed4874082c700bba29",
            "0x0000000000000000000000003f98dfb847340d3bd633e7d73187a391a62f2fa2"
          ],
          "data": "0x000000000000000000000000000000000000000000000000016345785d8a0000",
          "blockHash": "0x66aeedd8cc1458f7e8d42acf06b4e79476a4c4893f085e5a92138af1721b247b",
          "blockNumber": "0x722aff",
          "blockTimestamp": "0x67d1dd43",
          "transactionHash": "0x3c612232c30ff1bc1e086eb558afb29fadb7f5a66b18e99ec55c6d4ac2c858a1",
          "transactionIndex": "0x17a",
          "logIndex": "0x21c",
          "removed": false
        },
        {
          "address": "0x6af398c3db1986c46869068b70f3bddbf6d9a338",
          "topics": [
            "0x982103f3bd0079a3015fd3f668fa64c4ac330de26ba95c48ac8cdf93bd004a32"
          ],
          "data": "0x00000000000000000000000000000000000000000000000000000000000000000000000000000000000000006efb11ac41b6657c32dac5ed4874082c700bba290000000000000000000000006efb11ac41b6657c32dac5ed4874082c700bba290000000000000000000000006efb11ac41b6657c32dac5ed4874082c700bba2900000000000000000000000000000000000000000000000000000000000000000000000000000000000000000000000000000000000000000000000000000000000000000000000000000000d0cb401840c5efac575e1fe57a308c396e73fbe00000000000000000000000002c53ce7143d24a65410107f50e4aabad9a164480000000000000000000000000000000000000000000000000000000000000000000000000000000000000000000000000000000000000006c6b935b8bbd400000000000000000000000000000000000000000000000000000016345785d8a00000000000000000000000000000000000000000000000000000000000000000000ffffffffffffffffffffffffffffffffffffffffffffffffffffffffffffffff000000000000000000000000000000000000000000000000000000003b9aca000000000000000000000000000000000000000000000000000000000067d1dd43000000000000000000000000000000000000000000000000000000000000000000000000000000000000000000000000000000000000000000000000000000010000000000000000000000000000000000000000000000000000000000000000",
          "blockHash": "0x66aeedd8cc1458f7e8d42acf06b4e79476a4c4893f085e5a92138af1721b247b",
          "blockNumber": "0x722aff",
          "blockTimestamp": "0x67d1dd43",
          "transactionHash": "0x3c612232c30ff1bc1e086eb558afb29fadb7f5a66b18e99ec55c6d4ac2c858a1",
          "transactionIndex": "0x17a",
          "logIndex": "0x21d",
          "removed": false
        }
      ],
      "logsBloom": "0x00000000000000000200000000100000000000000000000000000020000000000000000000000000000000000200000000001000000100000000000000000000800000000000000000000008000000000000000000000000000000000000000000000000000000002000000000000000000000000000000000000010000000000000000000000000000000000000000000000010000000000000000004000000000000000000000000008000000000000000000000000000000001000000000000000002000000000000000000000000000000010000000000000000000000000000001000100000000000000000000000000000000000000000000000000000",
      "type": "0x2",
      "transactionHash": "0x3c612232c30ff1bc1e086eb558afb29fadb7f5a66b18e99ec55c6d4ac2c858a1",
      "transactionIndex": "0x17a",
      "blockHash": "0x66aeedd8cc1458f7e8d42acf06b4e79476a4c4893f085e5a92138af1721b247b",
      "blockNumber": "0x722aff",
      "gasUsed": "0x8c5da",
      "effectiveGasPrice": "0xba43b7401",
      "from": "0x6efb11ac41b6657c32dac5ed4874082c700bba29",
      "to": "0xa1ba9a5d1338c212c22405998268b0f6aa02ab6e",
      "contractAddress": null
    },
    {
      "status": "0x1",
      "cumulativeGasUsed": "0x255d3bf",
      "logs": [
        {
          "address": "0x2c53ce7143d24a65410107f50e4aabad9a164480",
          "topics": [
            "0xddf252ad1be2c89b69c2b068fc378daa952ba7f163c4a11628f55a4df523b3ef",
            "0x0000000000000000000000006efb11ac41b6657c32dac5ed4874082c700bba29",
            "0x0000000000000000000000003f98dfb847340d3bd633e7d73187a391a62f2fa2"
          ],
          "data": "0x000000000000000000000000000000000000000000000000000000003b9aca00",
          "blockHash": "0x66aeedd8cc1458f7e8d42acf06b4e79476a4c4893f085e5a92138af1721b247b",
          "blockNumber": "0x722aff",
          "blockTimestamp": "0x67d1dd43",
          "transactionHash": "0xc471a0eb53112d9e9688ec1698da4576ef9691b457dc01f7025f726eac28cdff",
          "transactionIndex": "0x17b",
          "logIndex": "0x21e",
          "removed": false
        },
        {
          "address": "0x53f7c389cbb801e2abfd301ded6d2a1cf330ac0d",
          "topics": [
            "0xddf252ad1be2c89b69c2b068fc378daa952ba7f163c4a11628f55a4df523b3ef",
            "0x0000000000000000000000006efb11ac41b6657c32dac5ed4874082c700bba29",
            "0x0000000000000000000000003f98dfb847340d3bd633e7d73187a391a62f2fa2"
          ],
          "data": "0x000000000000000000000000000000000000000000000000002386f26fc10000",
          "blockHash": "0x66aeedd8cc1458f7e8d42acf06b4e79476a4c4893f085e5a92138af1721b247b",
          "blockNumber": "0x722aff",
          "blockTimestamp": "0x67d1dd43",
          "transactionHash": "0xc471a0eb53112d9e9688ec1698da4576ef9691b457dc01f7025f726eac28cdff",
          "transactionIndex": "0x17b",
          "logIndex": "0x21f",
          "removed": false
        },
        {
          "address": "0x6af398c3db1986c46869068b70f3bddbf6d9a338",
          "topics": [
            "0x982103f3bd0079a3015fd3f668fa64c4ac330de26ba95c48ac8cdf93bd004a32"
          ],
          "data": "0x00000000000000000000000000000000000000000000000000000000000000010000000000000000000000006efb11ac41b6657c32dac5ed4874082c700bba290000000000000000000000006efb11ac41b6657c32dac5ed4874082c700bba290000000000000000000000006efb11ac41b6657c32dac5ed4874082c700bba290000000000000000000000000000000000000000000000000000000000000000000000000000000000000000000000000000000000000000000000000000000000000000000000000000000031310f40189bd05b234c2977bdb1fb141d2e4e2600000000000000000000000053f7c389cbb801e2abfd301ded6d2a1cf330ac0d00000000000000000000000000000000000000000000000000000000000000000000000000000000000000000000000000000000000000e3aeb5737240a00000000000000000000000000000000000000000000000000000002386f26fc100000000000000000000000000000000000000000000000000000000000000000000ffffffffffffffffffffffffffffffffffffffffffffffffffffffffffffffff000000000000000000000000000000000000000000000000000000003b9aca000000000000000000000000000000000000000000000000000000000067d1dd43000000000000000000000000000000000000000000000000000000000000000000000000000000000000000000000000000000000000000000000000000000010000000000000000000000000000000000000000000000000000000000000000",
          "blockHash": "0x66aeedd8cc1458f7e8d42acf06b4e79476a4c4893f085e5a92138af1721b247b",
          "blockNumber": "0x722aff",
          "blockTimestamp": "0x67d1dd43",
          "transactionHash": "0xc471a0eb53112d9e9688ec1698da4576ef9691b457dc01f7025f726eac28cdff",
          "transactionIndex": "0x17b",
          "logIndex": "0x220",
          "removed": false
        }
      ],
      "logsBloom": "0x00000000000000000200000002100000000000000000000000000020000000000000000000000000000000000200000000001000000100000000000000000000800000000000000000000008000000000000000000000000000000000000000000000000000000002000000000000000000000000000000000000010000000000000000000000000000000000000000000000010000000000000000004000000000000000010000000008000000000000000000000000000000001000000000000000002000000000000000000000000000000010000000000000000000000000000001000100000000000000000000000000000000000000008000000000000",
      "type": "0x2",
      "transactionHash": "0xc471a0eb53112d9e9688ec1698da4576ef9691b457dc01f7025f726eac28cdff",
      "transactionIndex": "0x17b",
      "blockHash": "0x66aeedd8cc1458f7e8d42acf06b4e79476a4c4893f085e5a92138af1721b247b",
      "blockNumber": "0x722aff",
      "gasUsed": "0x8b4cc",
      "effectiveGasPrice": "0xba43b7401",
      "from": "0x6efb11ac41b6657c32dac5ed4874082c700bba29",
      "to": "0xa1ba9a5d1338c212c22405998268b0f6aa02ab6e",
      "contractAddress": null
    },
    {
      "status": "0x1",
      "cumulativeGasUsed": "0x25e88ef",
      "logs": [
        {
          "address": "0x2c53ce7143d24a65410107f50e4aabad9a164480",
          "topics": [
            "0xddf252ad1be2c89b69c2b068fc378daa952ba7f163c4a11628f55a4df523b3ef",
            "0x0000000000000000000000006efb11ac41b6657c32dac5ed4874082c700bba29",
            "0x0000000000000000000000003f98dfb847340d3bd633e7d73187a391a62f2fa2"
          ],
          "data": "0x000000000000000000000000000000000000000000000000000000003b9aca00",
          "blockHash": "0x66aeedd8cc1458f7e8d42acf06b4e79476a4c4893f085e5a92138af1721b247b",
          "blockNumber": "0x722aff",
          "blockTimestamp": "0x67d1dd43",
          "transactionHash": "0x1bd60decff5f84315cef97537096aa74de2222593c06809995c0917c4c941cb6",
          "transactionIndex": "0x17c",
          "logIndex": "0x221",
          "removed": false
        },
        {
          "address": "0xf9861d7478f8957679b26404bd6272c39f949c29",
          "topics": [
            "0xddf252ad1be2c89b69c2b068fc378daa952ba7f163c4a11628f55a4df523b3ef",
            "0x0000000000000000000000006efb11ac41b6657c32dac5ed4874082c700bba29",
            "0x0000000000000000000000003f98dfb847340d3bd633e7d73187a391a62f2fa2"
          ],
          "data": "0x00000000000000000000000000000000000000000000152d02c7e14af6800000",
          "blockHash": "0x66aeedd8cc1458f7e8d42acf06b4e79476a4c4893f085e5a92138af1721b247b",
          "blockNumber": "0x722aff",
          "blockTimestamp": "0x67d1dd43",
          "transactionHash": "0x1bd60decff5f84315cef97537096aa74de2222593c06809995c0917c4c941cb6",
          "transactionIndex": "0x17c",
          "logIndex": "0x222",
          "removed": false
        },
        {
          "address": "0x6af398c3db1986c46869068b70f3bddbf6d9a338",
          "topics": [
            "0x982103f3bd0079a3015fd3f668fa64c4ac330de26ba95c48ac8cdf93bd004a32"
          ],
          "data": "0x00000000000000000000000000000000000000000000000000000000000000020000000000000000000000006efb11ac41b6657c32dac5ed4874082c700bba290000000000000000000000006efb11ac41b6657c32dac5ed4874082c700bba290000000000000000000000006efb11ac41b6657c32dac5ed4874082c700bba290000000000000000000000000000000000000000000000000000000000000000000000000000000000000000000000000000000000000000000000000000000000000000000000000000000072648c2523f817412f81d4f54d84e8ab994cf66b000000000000000000000000f9861d7478f8957679b26404bd6272c39f949c2900000000000000000000000000000000000000000000000000000000000000000000000000000000000000000000000000000000000000056bc75e2d6310000000000000000000000000000000000000000000000000152d02c7e14af68000000000000000000000000000000000000000000000000000000000000000000000ffffffffffffffffffffffffffffffffffffffffffffffffffffffffffffffff000000000000000000000000000000000000000000000000000000003b9aca000000000000000000000000000000000000000000000000000000000067d1dd43000000000000000000000000000000000000000000000000000000000000000000000000000000000000000000000000000000000000000000000000000000010000000000000000000000000000000000000000000000000000000000000000",
          "blockHash": "0x66aeedd8cc1458f7e8d42acf06b4e79476a4c4893f085e5a92138af1721b247b",
          "blockNumber": "0x722aff",
          "blockTimestamp": "0x67d1dd43",
          "transactionHash": "0x1bd60decff5f84315cef97537096aa74de2222593c06809995c0917c4c941cb6",
          "transactionIndex": "0x17c",
          "logIndex": "0x223",
          "removed": false
        }
      ],
      "logsBloom": "0x00000000000000000200000000100000000000000000000000000020000000000000000000000000000000000200000000001000000100000000000000000000800000000000000000000008000000000000000000000000000000000000000000000000040000002000000000000000000000000000000000000010000000000000000000000000000000000000000000000010000000000000000004000000000000000000000000048000000000000000000000000000000001000000000000000002080000000000000000000000000000010000000000000000000000000000001000100000000000000000000000000000000000000000000000000000",
      "type": "0x2",
      "transactionHash": "0x1bd60decff5f84315cef97537096aa74de2222593c06809995c0917c4c941cb6",
      "transactionIndex": "0x17c",
      "blockHash": "0x66aeedd8cc1458f7e8d42acf06b4e79476a4c4893f085e5a92138af1721b247b",
      "blockNumber": "0x722aff",
      "gasUsed": "0x8b530",
      "effectiveGasPrice": "0xba43b7401",
      "from": "0x6efb11ac41b6657c32dac5ed4874082c700bba29",
      "to": "0xa1ba9a5d1338c212c22405998268b0f6aa02ab6e",
      "contractAddress": null
    },
    {
      "status": "0x1",
      "cumulativeGasUsed": "0x2673dfd",
      "logs": [
        {
          "address": "0x2c53ce7143d24a65410107f50e4aabad9a164480",
          "topics": [
            "0xddf252ad1be2c89b69c2b068fc378daa952ba7f163c4a11628f55a4df523b3ef",
            "0x0000000000000000000000006efb11ac41b6657c32dac5ed4874082c700bba29",
            "0x0000000000000000000000003f98dfb847340d3bd633e7d73187a391a62f2fa2"
          ],
          "data": "0x000000000000000000000000000000000000000000000000000000003b9aca00",
          "blockHash": "0x66aeedd8cc1458f7e8d42acf06b4e79476a4c4893f085e5a92138af1721b247b",
          "blockNumber": "0x722aff",
          "blockTimestamp": "0x67d1dd43",
          "transactionHash": "0xef5cca6a7d8178c9772ad8a72e0c9eaa2c64df83534051eef17a934234fb1c0d",
          "transactionIndex": "0x17d",
          "logIndex": "0x224",
          "removed": false
        },
        {
          "address": "0x1889cfb8746716a0ac50e59a54f190987c5f04e6",
          "topics": [
            "0xddf252ad1be2c89b69c2b068fc378daa952ba7f163c4a11628f55a4df523b3ef",
            "0x0000000000000000000000006efb11ac41b6657c32dac5ed4874082c700bba29",
            "0x0000000000000000000000003f98dfb847340d3bd633e7d73187a391a62f2fa2"
          ],
          "data": "0x00000000000000000000000000000000000000000000003635c9adc5dea00000",
          "blockHash": "0x66aeedd8cc1458f7e8d42acf06b4e79476a4c4893f085e5a92138af1721b247b",
          "blockNumber": "0x722aff",
          "blockTimestamp": "0x67d1dd43",
          "transactionHash": "0xef5cca6a7d8178c9772ad8a72e0c9eaa2c64df83534051eef17a934234fb1c0d",
          "transactionIndex": "0x17d",
          "logIndex": "0x225",
          "removed": false
        },
        {
          "address": "0x6af398c3db1986c46869068b70f3bddbf6d9a338",
          "topics": [
            "0x982103f3bd0079a3015fd3f668fa64c4ac330de26ba95c48ac8cdf93bd004a32"
          ],
          "data": "0x00000000000000000000000000000000000000000000000000000000000000030000000000000000000000006efb11ac41b6657c32dac5ed4874082c700bba290000000000000000000000006efb11ac41b6657c32dac5ed4874082c700bba290000000000000000000000006efb11ac41b6657c32dac5ed4874082c700bba29000000000000000000000000000000000000000000000000000000000000000000000000000000000000000000000000000000000000000000000000000000000000000000000000000000005f5054ee2a7bc2617565b5b79f35573aa61394810000000000000000000000001889cfb8746716a0ac50e59a54f190987c5f04e6000000000000000000000000000000000000000000000000000000000000000000000000000000000000000000000000000000000000003635c9adc5dea0000000000000000000000000000000000000000000000000003635c9adc5dea000000000000000000000000000000000000000000000000000000000000000000000ffffffffffffffffffffffffffffffffffffffffffffffffffffffffffffffff000000000000000000000000000000000000000000000000000000003b9aca000000000000000000000000000000000000000000000000000000000067d1dd43000000000000000000000000000000000000000000000000000000000000000000000000000000000000000000000000000000000000000000000000000000010000000000000000000000000000000000000000000000000000000000000000",
          "blockHash": "0x66aeedd8cc1458f7e8d42acf06b4e79476a4c4893f085e5a92138af1721b247b",
          "blockNumber": "0x722aff",
          "blockTimestamp": "0x67d1dd43",
          "transactionHash": "0xef5cca6a7d8178c9772ad8a72e0c9eaa2c64df83534051eef17a934234fb1c0d",
          "transactionIndex": "0x17d",
          "logIndex": "0x226",
          "removed": false
        }
      ],
      "logsBloom": "0x00000000000000000200000000100000000000000000000000000020000000000000000000000000000000000200000000001000000100000000000000000000800000000000000000000008000000000000000000000000000400000000000000000000000000002000000000000000000000000000000000000010000000000000000000000000000000000000000000000010000000000000000004000000000000000000100000008000000000000000000000000000000001000000000000000002000000000000000000000000000000010000000000000000000000000000001080100000000000000000000000000000000000000000000000000000",
      "type": "0x2",
      "transactionHash": "0xef5cca6a7d8178c9772ad8a72e0c9eaa2c64df83534051eef17a934234fb1c0d",
      "transactionIndex": "0x17d",
      "blockHash": "0x66aeedd8cc1458f7e8d42acf06b4e79476a4c4893f085e5a92138af1721b247b",
      "blockNumber": "0x722aff",
      "gasUsed": "0x8b50e",
      "effectiveGasPrice": "0xba43b7401",
      "from": "0x6efb11ac41b6657c32dac5ed4874082c700bba29",
      "to": "0xa1ba9a5d1338c212c22405998268b0f6aa02ab6e",
      "contractAddress": null
    },
    {
      "status": "0x1",
      "cumulativeGasUsed": "0x27075f7",
      "logs": [
        {
          "address": "0x2c53ce7143d24a65410107f50e4aabad9a164480",
          "topics": [
            "0xddf252ad1be2c89b69c2b068fc378daa952ba7f163c4a11628f55a4df523b3ef",
            "0x0000000000000000000000006efb11ac41b6657c32dac5ed4874082c700bba29",
            "0x0000000000000000000000003f98dfb847340d3bd633e7d73187a391a62f2fa2"
          ],
          "data": "0x000000000000000000000000000000000000000000000000000000003b9aca00",
          "blockHash": "0x66aeedd8cc1458f7e8d42acf06b4e79476a4c4893f085e5a92138af1721b247b",
          "blockNumber": "0x722aff",
          "blockTimestamp": "0x67d1dd43",
          "transactionHash": "0xb406788e220fb226cf71e79404af8bc1036192a3357438687518429a10d2d759",
          "transactionIndex": "0x17e",
          "logIndex": "0x227",
          "removed": false
        },
        {
          "address": "0x6bc8a42d4b2f4bc8e4c3f9ecff00b7290ffa7405",
          "topics": [
            "0xddf252ad1be2c89b69c2b068fc378daa952ba7f163c4a11628f55a4df523b3ef",
            "0x0000000000000000000000006efb11ac41b6657c32dac5ed4874082c700bba29",
            "0x0000000000000000000000003f98dfb847340d3bd633e7d73187a391a62f2fa2"
          ],
          "data": "0x00000000000000000000000000000000000000000000003635c9adc5dea00000",
          "blockHash": "0x66aeedd8cc1458f7e8d42acf06b4e79476a4c4893f085e5a92138af1721b247b",
          "blockNumber": "0x722aff",
          "blockTimestamp": "0x67d1dd43",
          "transactionHash": "0xb406788e220fb226cf71e79404af8bc1036192a3357438687518429a10d2d759",
          "transactionIndex": "0x17e",
          "logIndex": "0x228",
          "removed": false
        },
        {
          "address": "0x6af398c3db1986c46869068b70f3bddbf6d9a338",
          "topics": [
            "0x982103f3bd0079a3015fd3f668fa64c4ac330de26ba95c48ac8cdf93bd004a32"
          ],
          "data": "0x00000000000000000000000000000000000000000000000000000000000000040000000000000000000000006efb11ac41b6657c32dac5ed4874082c700bba290000000000000000000000006efb11ac41b6657c32dac5ed4874082c700bba290000000000000000000000006efb11ac41b6657c32dac5ed4874082c700bba290000000000000000000000000000000000000000000000000000000000000000000000000000000000000000000000000000000000000000000000000000000000000000000000000000000037ee6083d1191b00eda1f6304c9a60695bfee8da0000000000000000000000006bc8a42d4b2f4bc8e4c3f9ecff00b7290ffa7405000000000000000000000000000000000000000000000000000000000000000000000000000000000000000000000000000000000000001b1ae4d6e2ef50000000000000000000000000000000000000000000000000003635c9adc5dea000000000000000000000000000000000000000000000000000000000000000000000ffffffffffffffffffffffffffffffffffffffffffffffffffffffffffffffff000000000000000000000000000000000000000000000000000000003b9aca000000000000000000000000000000000000000000000000000000000067d1dd43000000000000000000000000000000000000000000000000000000000000000000000000000000000000000000000000000000000000000000000000000000010000000000000000000000000000000000000000000000000000000000000000",
          "blockHash": "0x66aeedd8cc1458f7e8d42acf06b4e79476a4c4893f085e5a92138af1721b247b",
          "blockNumber": "0x722aff",
          "blockTimestamp": "0x67d1dd43",
          "transactionHash": "0xb406788e220fb226cf71e79404af8bc1036192a3357438687518429a10d2d759",
          "transactionIndex": "0x17e",
          "logIndex": "0x229",
          "removed": false
        }
      ],
      "logsBloom": "0x00000000000000000200000000100000000000000000000000000020000000000000000000000000000000000200000000003000000100000400000000000000800000000000000000000008000000000000000000000000000000000000000000000000000000002000000000000000000000000000000000000010000000000000000000000000000000000000000000000010000000000000000004000000000000000200000000008000000000000000000000000000000001000000000000000002000000000000000000000000000000010000000000000000000000000000001000100000000000000000000000000000000000000000000000000000",
      "type": "0x2",
      "transactionHash": "0xb406788e220fb226cf71e79404af8bc1036192a3357438687518429a10d2d759",
      "transactionIndex": "0x17e",
      "blockHash": "0x66aeedd8cc1458f7e8d42acf06b4e79476a4c4893f085e5a92138af1721b247b",
      "blockNumber": "0x722aff",
      "gasUsed": "0x937fa",
      "effectiveGasPrice": "0xba43b7401",
      "from": "0x6efb11ac41b6657c32dac5ed4874082c700bba29",
      "to": "0xa1ba9a5d1338c212c22405998268b0f6aa02ab6e",
      "contractAddress": null
    },
    {
      "status": "0x1",
      "cumulativeGasUsed": "0x2792ae5",
      "logs": [
        {
          "address": "0x2c53ce7143d24a65410107f50e4aabad9a164480",
          "topics": [
            "0xddf252ad1be2c89b69c2b068fc378daa952ba7f163c4a11628f55a4df523b3ef",
            "0x0000000000000000000000006efb11ac41b6657c32dac5ed4874082c700bba29",
            "0x0000000000000000000000003f98dfb847340d3bd633e7d73187a391a62f2fa2"
          ],
          "data": "0x000000000000000000000000000000000000000000000000000000003b9aca00",
          "blockHash": "0x66aeedd8cc1458f7e8d42acf06b4e79476a4c4893f085e5a92138af1721b247b",
          "blockNumber": "0x722aff",
          "blockTimestamp": "0x67d1dd43",
          "transactionHash": "0x19e8c86ad9b45f5f2df9d6fd10800b5086784829bfc38a6aedc574bdfac802c9",
          "transactionIndex": "0x17f",
          "logIndex": "0x22a",
          "removed": false
        },
        {
          "address": "0xe3f98fda6dbd38c1017754f1675dce377381c23c",
          "topics": [
            "0xddf252ad1be2c89b69c2b068fc378daa952ba7f163c4a11628f55a4df523b3ef",
            "0x0000000000000000000000006efb11ac41b6657c32dac5ed4874082c700bba29",
            "0x0000000000000000000000003f98dfb847340d3bd633e7d73187a391a62f2fa2"
          ],
          "data": "0x0000000000000000000000000000000000000000000000008ac7230489e80000",
          "blockHash": "0x66aeedd8cc1458f7e8d42acf06b4e79476a4c4893f085e5a92138af1721b247b",
          "blockNumber": "0x722aff",
          "blockTimestamp": "0x67d1dd43",
          "transactionHash": "0x19e8c86ad9b45f5f2df9d6fd10800b5086784829bfc38a6aedc574bdfac802c9",
          "transactionIndex": "0x17f",
          "logIndex": "0x22b",
          "removed": false
        },
        {
          "address": "0x6af398c3db1986c46869068b70f3bddbf6d9a338",
          "topics": [
            "0x982103f3bd0079a3015fd3f668fa64c4ac330de26ba95c48ac8cdf93bd004a32"
          ],
          "data": "0x00000000000000000000000000000000000000000000000000000000000000050000000000000000000000006efb11ac41b6657c32dac5ed4874082c700bba290000000000000000000000006efb11ac41b6657c32dac5ed4874082c700bba290000000000000000000000006efb11ac41b6657c32dac5ed4874082c700bba29000000000000000000000000000000000000000000000000000000000000000000000000000000000000000000000000000000000000000000000000000000000000000000000000000000008e3e87de2503661f3b4879a9743f3fe3d347be52000000000000000000000000e3f98fda6dbd38c1017754f1675dce377381c23c000000000000000000000000000000000000000000000000000000000000000000000000000000000000000000000000000000000000005150ae84a8cdf000000000000000000000000000000000000000000000000000008ac7230489e800000000000000000000000000000000000000000000000000000000000000000000ffffffffffffffffffffffffffffffffffffffffffffffffffffffffffffffff000000000000000000000000000000000000000000000000000000003b9aca000000000000000000000000000000000000000000000000000000000067d1dd43000000000000000000000000000000000000000000000000000000000000000000000000000000000000000000000000000000000000000000000000000000010000000000000000000000000000000000000000000000000000000000000000",
          "blockHash": "0x66aeedd8cc1458f7e8d42acf06b4e79476a4c4893f085e5a92138af1721b247b",
          "blockNumber": "0x722aff",
          "blockTimestamp": "0x67d1dd43",
          "transactionHash": "0x19e8c86ad9b45f5f2df9d6fd10800b5086784829bfc38a6aedc574bdfac802c9",
          "transactionIndex": "0x17f",
          "logIndex": "0x22c",
          "removed": false
        }
      ],
      "logsBloom": "0x00000000000000002200000000100000000000000000000000000020000000000000000000000000000000000200000000001000000100000000000000000000800000000000000000000008000000000000000000000000000000000000000000000000000000002000000000000000000000000000000000000010000000000000000000000000000000000000000000000010000000000020000004000000000000000000000000008000000020000000000000000000000001000000000000000002000000000000000000000000000000010000000000000000000000000000001000100000000000000000000000000000000000000000000000000000",
      "type": "0x2",
      "transactionHash": "0x19e8c86ad9b45f5f2df9d6fd10800b5086784829bfc38a6aedc574bdfac802c9",
      "transactionIndex": "0x17f",
      "blockHash": "0x66aeedd8cc1458f7e8d42acf06b4e79476a4c4893f085e5a92138af1721b247b",
      "blockNumber": "0x722aff",
      "gasUsed": "0x8b4ee",
      "effectiveGasPrice": "0xba43b7401",
      "from": "0x6efb11ac41b6657c32dac5ed4874082c700bba29",
      "to": "0xa1ba9a5d1338c212c22405998268b0f6aa02ab6e",
      "contractAddress": null
    }
  ],
  "libraries": [],
  "pending": [],
  "returns": {},
  "timestamp": 1741806917,
  "chain": 10143,
  "commit": "7537796"
}