{
  "transactions": [
    {
      "hash": "0xf9175d66f90def73130b033415228d81a3a75841592da5868a40d7046838bf4c",
      "transactionType": "CALL",
      "contractName": null,
      "contractAddress": "0x2c53ce7143d24a65410107f50e4aabad9a164480",
      "function": "mint(address,uint256)",
      "arguments": [
        "0x6EFb11aC41B6657c32dAc5Ed4874082C700BbA29",
        "10000000000000000000"
      ],
      "transaction": {
        "from": "0x6efb11ac41b6657c32dac5ed4874082c700bba29",
        "to": "0x2c53ce7143d24a65410107f50e4aabad9a164480",
        "gas": "0xc1a6",
        "value": "0x0",
        "input": "0x40c10f190000000000000000000000006efb11ac41b6657c32dac5ed4874082c700bba290000000000000000000000000000000000000000000000008ac7230489e80000",
        "nonce": "0x1d6",
        "chainId": "0x279f"
      },
      "additionalContracts": [],
      "isFixedGasLimit": false
    },
    {
      "hash": "0xdbeb484a41daa7d015d33b7ff9ba8d89a4b83dac19c38a976f6f9f781bb1e0ca",
      "transactionType": "CALL",
      "contractName": null,
      "contractAddress": "0x53f7c389cbb801e2abfd301ded6d2a1cf330ac0d",
      "function": "mint(address,uint256)",
      "arguments": [
        "0x6EFb11aC41B6657c32dAc5Ed4874082C700BbA29",
        "1000000000000000000"
      ],
      "transaction": {
        "from": "0x6efb11ac41b6657c32dac5ed4874082c700bba29",
        "to": "0x53f7c389cbb801e2abfd301ded6d2a1cf330ac0d",
        "gas": "0xc1a6",
        "value": "0x0",
        "input": "0x40c10f190000000000000000000000006efb11ac41b6657c32dac5ed4874082c700bba290000000000000000000000000000000000000000000000000de0b6b3a7640000",
        "nonce": "0x1d7",
        "chainId": "0x279f"
      },
      "additionalContracts": [],
      "isFixedGasLimit": false
    },
    {
      "hash": "0x7bd98df214b0166920b85b2e61f8ec1635906e27bf1f821d44bdf322782f0334",
      "transactionType": "CALL",
      "contractName": null,
      "contractAddress": "0xf9861d7478f8957679b26404bd6272c39f949c29",
      "function": "mint(address,uint256)",
      "arguments": [
        "0x6EFb11aC41B6657c32dAc5Ed4874082C700BbA29",
        "1000000000000000000000000"
      ],
      "transaction": {
        "from": "0x6efb11ac41b6657c32dac5ed4874082c700bba29",
        "to": "0xf9861d7478f8957679b26404bd6272c39f949c29",
        "gas": "0xb6f4",
        "value": "0x0",
        "input": "0x40c10f190000000000000000000000006efb11ac41b6657c32dac5ed4874082c700bba2900000000000000000000000000000000000000000000d3c21bcecceda1000000",
        "nonce": "0x1d8",
        "chainId": "0x279f"
      },
      "additionalContracts": [],
      "isFixedGasLimit": false
    },
    {
      "hash": "0x3f9af06a66e7fff5c205cc346e4cb078085b3c28b755a1fc48f1e6c311c4f064",
      "transactionType": "CALL",
      "contractName": null,
      "contractAddress": "0x1889cfb8746716a0ac50e59a54f190987c5f04e6",
      "function": "mint(address,uint256)",
      "arguments": [
        "0x6EFb11aC41B6657c32dAc5Ed4874082C700BbA29",
        "10000000000000000000000"
      ],
      "transaction": {
        "from": "0x6efb11ac41b6657c32dac5ed4874082c700bba29",
        "to": "0x1889cfb8746716a0ac50e59a54f190987c5f04e6",
        "gas": "0xc1c9",
        "value": "0x0",
        "input": "0x40c10f190000000000000000000000006efb11ac41b6657c32dac5ed4874082c700bba2900000000000000000000000000000000000000000000021e19e0c9bab2400000",
        "nonce": "0x1d9",
        "chainId": "0x279f"
      },
      "additionalContracts": [],
      "isFixedGasLimit": false
    },
    {
      "hash": "0x79410ec3919e6807c69d3c045c5f3e6ef1ee120366d368fa7392fdb12781a91c",
      "transactionType": "CALL",
      "contractName": null,
      "contractAddress": "0x6bc8a42d4b2f4bc8e4c3f9ecff00b7290ffa7405",
      "function": "mint(address,uint256)",
      "arguments": [
        "0x6EFb11aC41B6657c32dAc5Ed4874082C700BbA29",
        "10000000000000000000000"
      ],
      "transaction": {
        "from": "0x6efb11ac41b6657c32dac5ed4874082c700bba29",
        "to": "0x6bc8a42d4b2f4bc8e4c3f9ecff00b7290ffa7405",
        "gas": "0xc1c9",
        "value": "0x0",
        "input": "0x40c10f190000000000000000000000006efb11ac41b6657c32dac5ed4874082c700bba2900000000000000000000000000000000000000000000021e19e0c9bab2400000",
        "nonce": "0x1da",
        "chainId": "0x279f"
      },
      "additionalContracts": [],
      "isFixedGasLimit": false
    },
    {
      "hash": "0x1d1805f0a6cbfd7cc3d2f95c0c67cbb7d2e9967129b17ca9aadb654cc5c4cedf",
      "transactionType": "CALL",
      "contractName": null,
      "contractAddress": "0xe3f98fda6dbd38c1017754f1675dce377381c23c",
      "function": "mint(address,uint256)",
      "arguments": [
        "0x6EFb11aC41B6657c32dAc5Ed4874082C700BbA29",
        "1000000000000000000000"
      ],
      "transaction": {
        "from": "0x6efb11ac41b6657c32dac5ed4874082c700bba29",
        "to": "0xe3f98fda6dbd38c1017754f1675dce377381c23c",
        "gas": "0xb6f4",
        "value": "0x0",
        "input": "0x40c10f190000000000000000000000006efb11ac41b6657c32dac5ed4874082c700bba2900000000000000000000000000000000000000000000003635c9adc5dea00000",
        "nonce": "0x1db",
        "chainId": "0x279f"
      },
      "additionalContracts": [],
      "isFixedGasLimit": false
    },
    {
      "hash": "0x24d13013c0fe64701248b81a1d3680ddd7a9e8f734152c7048e9928740a177e3",
      "transactionType": "CALL",
      "contractName": null,
      "contractAddress": "0x2c53ce7143d24a65410107f50e4aabad9a164480",
      "function": "approve(address,uint256)",
      "arguments": [
        "0x8cB82FfCA2eA57B29aD137b9a8cDCa718233ff96",
        "115792089237316195423570985008687907853269984665640564039457584007913129639935"
      ],
      "transaction": {
        "from": "0x6efb11ac41b6657c32dac5ed4874082c700bba29",
        "to": "0x2c53ce7143d24a65410107f50e4aabad9a164480",
        "gas": "0x96a4",
        "value": "0x0",
        "input": "0x095ea7b30000000000000000000000008cb82ffca2ea57b29ad137b9a8cdca718233ff96ffffffffffffffffffffffffffffffffffffffffffffffffffffffffffffffff",
        "nonce": "0x1dc",
        "chainId": "0x279f"
      },
      "additionalContracts": [],
      "isFixedGasLimit": false
    },
    {
      "hash": "0x646872cfb10d96bfa0540af82c08ce78ba2862df791042440ffad9727756c5dc",
      "transactionType": "CALL",
      "contractName": null,
      "contractAddress": "0x53f7c389cbb801e2abfd301ded6d2a1cf330ac0d",
      "function": "approve(address,uint256)",
      "arguments": [
        "0x8cB82FfCA2eA57B29aD137b9a8cDCa718233ff96",
        "115792089237316195423570985008687907853269984665640564039457584007913129639935"
      ],
      "transaction": {
        "from": "0x6efb11ac41b6657c32dac5ed4874082c700bba29",
        "to": "0x53f7c389cbb801e2abfd301ded6d2a1cf330ac0d",
        "gas": "0x96a4",
        "value": "0x0",
        "input": "0x095ea7b30000000000000000000000008cb82ffca2ea57b29ad137b9a8cdca718233ff96ffffffffffffffffffffffffffffffffffffffffffffffffffffffffffffffff",
        "nonce": "0x1dd",
        "chainId": "0x279f"
      },
      "additionalContracts": [],
      "isFixedGasLimit": false
    },
    {
      "hash": "0x92e081feba5ea2c9a4f61bc46a5a642f38a4592d74baaae41ce37b131a99edb8",
      "transactionType": "CALL",
      "contractName": null,
      "contractAddress": "0xf9861d7478f8957679b26404bd6272c39f949c29",
      "function": "approve(address,uint256)",
      "arguments": [
        "0x8cB82FfCA2eA57B29aD137b9a8cDCa718233ff96",
        "115792089237316195423570985008687907853269984665640564039457584007913129639935"
      ],
      "transaction": {
        "from": "0x6efb11ac41b6657c32dac5ed4874082c700bba29",
        "to": "0xf9861d7478f8957679b26404bd6272c39f949c29",
        "gas": "0x96a4",
        "value": "0x0",
        "input": "0x095ea7b30000000000000000000000008cb82ffca2ea57b29ad137b9a8cdca718233ff96ffffffffffffffffffffffffffffffffffffffffffffffffffffffffffffffff",
        "nonce": "0x1de",
        "chainId": "0x279f"
      },
      "additionalContracts": [],
      "isFixedGasLimit": false
    },
    {
      "hash": "0xfdcfade70a3f7b960df08de82d3077617bd8d49277b6deeb82537d86d2c76217",
      "transactionType": "CALL",
      "contractName": null,
      "contractAddress": "0x1889cfb8746716a0ac50e59a54f190987c5f04e6",
      "function": "approve(address,uint256)",
      "arguments": [
        "0x8cB82FfCA2eA57B29aD137b9a8cDCa718233ff96",
        "115792089237316195423570985008687907853269984665640564039457584007913129639935"
      ],
      "transaction": {
        "from": "0x6efb11ac41b6657c32dac5ed4874082c700bba29",
        "to": "0x1889cfb8746716a0ac50e59a54f190987c5f04e6",
        "gas": "0x96a4",
        "value": "0x0",
        "input": "0x095ea7b30000000000000000000000008cb82ffca2ea57b29ad137b9a8cdca718233ff96ffffffffffffffffffffffffffffffffffffffffffffffffffffffffffffffff",
        "nonce": "0x1df",
        "chainId": "0x279f"
      },
      "additionalContracts": [],
      "isFixedGasLimit": false
    },
    {
      "hash": "0x89dbef013934517718620aa5a4589412c900c520ffb5870af473d54abead2bcb",
      "transactionType": "CALL",
      "contractName": null,
      "contractAddress": "0x6bc8a42d4b2f4bc8e4c3f9ecff00b7290ffa7405",
      "function": "approve(address,uint256)",
      "arguments": [
        "0x8cB82FfCA2eA57B29aD137b9a8cDCa718233ff96",
        "115792089237316195423570985008687907853269984665640564039457584007913129639935"
      ],
      "transaction": {
        "from": "0x6efb11ac41b6657c32dac5ed4874082c700bba29",
        "to": "0x6bc8a42d4b2f4bc8e4c3f9ecff00b7290ffa7405",
        "gas": "0x96a4",
        "value": "0x0",
        "input": "0x095ea7b30000000000000000000000008cb82ffca2ea57b29ad137b9a8cdca718233ff96ffffffffffffffffffffffffffffffffffffffffffffffffffffffffffffffff",
        "nonce": "0x1e0",
        "chainId": "0x279f"
      },
      "additionalContracts": [],
      "isFixedGasLimit": false
    },
    {
      "hash": "0x0a12cd08a5637949d8b1257a861e00b8f6bdf466043e633efc0304f6b98c3d8e",
      "transactionType": "CALL",
      "contractName": null,
      "contractAddress": "0xe3f98fda6dbd38c1017754f1675dce377381c23c",
      "function": "approve(address,uint256)",
      "arguments": [
        "0x8cB82FfCA2eA57B29aD137b9a8cDCa718233ff96",
        "115792089237316195423570985008687907853269984665640564039457584007913129639935"
      ],
      "transaction": {
        "from": "0x6efb11ac41b6657c32dac5ed4874082c700bba29",
        "to": "0xe3f98fda6dbd38c1017754f1675dce377381c23c",
        "gas": "0x96a4",
        "value": "0x0",
        "input": "0x095ea7b30000000000000000000000008cb82ffca2ea57b29ad137b9a8cdca718233ff96ffffffffffffffffffffffffffffffffffffffffffffffffffffffffffffffff",
        "nonce": "0x1e1",
        "chainId": "0x279f"
      },
      "additionalContracts": [],
      "isFixedGasLimit": false
    },
    {
      "hash": "0x5619da60e2ddaf9c72da9224459ada2041c49c165781f1619ea015a8cec8db3d",
      "transactionType": "CALL",
      "contractName": null,
      "contractAddress": "0x8cb82ffca2ea57b29ad137b9a8cdca718233ff96",
      "function": "multicall(bytes[])",
      "arguments": [
        "[0x7d39aaf1000000000000000000000000d7b397039e36f9b665a32d24d150ee1f0029d10a000000000000000000000000000000000000000000000000000000003b9aca00, 0xe6d66ac80000000000000000000000002c53ce7143d24a65410107f50e4aabad9a164480000000000000000000000000d7b397039e36f9b665a32d24d150ee1f0029d10a000000000000000000000000000000000000000000000000016345785d8a0000, 0x1ddbdd200000000000000000000000006efb11ac41b6657c32dac5ed4874082c700bba290000000000000000000000006efb11ac41b6657c32dac5ed4874082c700bba29000000000000000000000000000000000000000000000000000000000000000000000000000000000000000000000000000000000000000000000000000000000000000000000000000000000e87d21bd714d3391e992227e472517a9dc16a240000000000000000000000002c53ce7143d24a65410107f50e4aabad9a164480000000000000000000000000000000000000000000000000000000000000000000000000000000000000000000000000000000000000006c6b935b8bbd400000000000000000000000000000000000000000000000000000016345785d8a00000000000000000000000000000000000000000000000000000000000000000000ffffffffffffffffffffffffffffffffffffffffffffffffffffffffffffffff000000000000000000000000000000000000000000000000000000003b9aca00000000000000000000000000000000000000000000000000000000000000000000000000000000000000000000000000000000000000000000000000000000010000000000000000000000000000000000000000000000000000000000000000]"
      ],
      "transaction": {
        "from": "0x6efb11ac41b6657c32dac5ed4874082c700bba29",
        "to": "0x8cb82ffca2ea57b29ad137b9a8cdca718233ff96",
        "gas": "0x94a09",
        "value": "0x0",
        "input": "0xac9650d800000000000000000000000000000000000000000000000000000000000000200000000000000000000000000000000000000000000000000000000000000003000000000000000000000000000000000000000000000000000000000000006000000000000000000000000000000000000000000000000000000000000000e0000000000000000000000000000000000000000000000000000000000000018000000000000000000000000000000000000000000000000000000000000000447d39aaf1000000000000000000000000d7b397039e36f9b665a32d24d150ee1f0029d10a000000000000000000000000000000000000000000000000000000003b9aca00000000000000000000000000000000000000000000000000000000000000000000000000000000000000000000000000000000000000000000000064e6d66ac80000000000000000000000002c53ce7143d24a65410107f50e4aabad9a164480000000000000000000000000d7b397039e36f9b665a32d24d150ee1f0029d10a000000000000000000000000000000000000000000000000016345785d8a00000000000000000000000000000000000000000000000000000000000000000000000000000000000000000000000000000000000000000000000001e41ddbdd200000000000000000000000006efb11ac41b6657c32dac5ed4874082c700bba290000000000000000000000006efb11ac41b6657c32dac5ed4874082c700bba29000000000000000000000000000000000000000000000000000000000000000000000000000000000000000000000000000000000000000000000000000000000000000000000000000000000e87d21bd714d3391e992227e472517a9dc16a240000000000000000000000002c53ce7143d24a65410107f50e4aabad9a164480000000000000000000000000000000000000000000000000000000000000000000000000000000000000000000000000000000000000006c6b935b8bbd400000000000000000000000000000000000000000000000000000016345785d8a00000000000000000000000000000000000000000000000000000000000000000000ffffffffffffffffffffffffffffffffffffffffffffffffffffffffffffffff000000000000000000000000000000000000000000000000000000003b9aca0000000000000000000000000000000000000000000000000000000000000000000000000000000000000000000000000000000000000000000000000000000001000000000000000000000000000000000000000000000000000000000000000000000000000000000000000000000000000000000000000000000000",
        "nonce": "0x1e2",
        "chainId": "0x279f"
      },
      "additionalContracts": [],
      "isFixedGasLimit": false
    },
    {
      "hash": "0x2f7fb88bfe9689eac420ea9c4baa5f547044513669c86e81c0652cdb6ef020b3",
      "transactionType": "CALL",
      "contractName": null,
      "contractAddress": "0x8cb82ffca2ea57b29ad137b9a8cdca718233ff96",
      "function": "multicall(bytes[])",
      "arguments": [
        "[0x7d39aaf1000000000000000000000000d7b397039e36f9b665a32d24d150ee1f0029d10a000000000000000000000000000000000000000000000000000000003b9aca00, 0xe6d66ac800000000000000000000000053f7c389cbb801e2abfd301ded6d2a1cf330ac0d000000000000000000000000d7b397039e36f9b665a32d24d150ee1f0029d10a000000000000000000000000000000000000000000000000002386f26fc10000, 0x1ddbdd200000000000000000000000006efb11ac41b6657c32dac5ed4874082c700bba290000000000000000000000006efb11ac41b6657c32dac5ed4874082c700bba2900000000000000000000000000000000000000000000000000000000000000000000000000000000000000000000000000000000000000000000000000000000000000000000000000000000ba8a671c225721803cd64b12cb62a2363e9ee87300000000000000000000000053f7c389cbb801e2abfd301ded6d2a1cf330ac0d00000000000000000000000000000000000000000000000000000000000000000000000000000000000000000000000000000000000000e3aeb5737240a00000000000000000000000000000000000000000000000000000002386f26fc100000000000000000000000000000000000000000000000000000000000000000000ffffffffffffffffffffffffffffffffffffffffffffffffffffffffffffffff000000000000000000000000000000000000000000000000000000003b9aca00000000000000000000000000000000000000000000000000000000000000000000000000000000000000000000000000000000000000000000000000000000010000000000000000000000000000000000000000000000000000000000000000]"
      ],
      "transaction": {
        "from": "0x6efb11ac41b6657c32dac5ed4874082c700bba29",
        "to": "0x8cb82ffca2ea57b29ad137b9a8cdca718233ff96",
        "gas": "0x8db1f",
        "value": "0x0",
        "input": "0xac9650d800000000000000000000000000000000000000000000000000000000000000200000000000000000000000000000000000000000000000000000000000000003000000000000000000000000000000000000000000000000000000000000006000000000000000000000000000000000000000000000000000000000000000e0000000000000000000000000000000000000000000000000000000000000018000000000000000000000000000000000000000000000000000000000000000447d39aaf1000000000000000000000000d7b397039e36f9b665a32d24d150ee1f0029d10a000000000000000000000000000000000000000000000000000000003b9aca00000000000000000000000000000000000000000000000000000000000000000000000000000000000000000000000000000000000000000000000064e6d66ac800000000000000000000000053f7c389cbb801e2abfd301ded6d2a1cf330ac0d000000000000000000000000d7b397039e36f9b665a32d24d150ee1f0029d10a000000000000000000000000000000000000000000000000002386f26fc100000000000000000000000000000000000000000000000000000000000000000000000000000000000000000000000000000000000000000000000001e41ddbdd200000000000000000000000006efb11ac41b6657c32dac5ed4874082c700bba290000000000000000000000006efb11ac41b6657c32dac5ed4874082c700bba2900000000000000000000000000000000000000000000000000000000000000000000000000000000000000000000000000000000000000000000000000000000000000000000000000000000ba8a671c225721803cd64b12cb62a2363e9ee87300000000000000000000000053f7c389cbb801e2abfd301ded6d2a1cf330ac0d00000000000000000000000000000000000000000000000000000000000000000000000000000000000000000000000000000000000000e3aeb5737240a00000000000000000000000000000000000000000000000000000002386f26fc100000000000000000000000000000000000000000000000000000000000000000000ffffffffffffffffffffffffffffffffffffffffffffffffffffffffffffffff000000000000000000000000000000000000000000000000000000003b9aca0000000000000000000000000000000000000000000000000000000000000000000000000000000000000000000000000000000000000000000000000000000001000000000000000000000000000000000000000000000000000000000000000000000000000000000000000000000000000000000000000000000000",
        "nonce": "0x1e3",
        "chainId": "0x279f"
      },
      "additionalContracts": [],
      "isFixedGasLimit": false
    },
    {
      "hash": "0xf3efb5b93c47e1ddae658e7d902a6bfa8bd1a58e07daef27c129200054aa13f1",
      "transactionType": "CALL",
      "contractName": null,
      "contractAddress": "0x8cb82ffca2ea57b29ad137b9a8cdca718233ff96",
      "function": "multicall(bytes[])",
      "arguments": [
        "[0x7d39aaf1000000000000000000000000d7b397039e36f9b665a32d24d150ee1f0029d10a000000000000000000000000000000000000000000000000000000003b9aca00, 0xe6d66ac8000000000000000000000000f9861d7478f8957679b26404bd6272c39f949c29000000000000000000000000d7b397039e36f9b665a32d24d150ee1f0029d10a00000000000000000000000000000000000000000000152d02c7e14af6800000, 0x1ddbdd200000000000000000000000006efb11ac41b6657c32dac5ed4874082c700bba290000000000000000000000006efb11ac41b6657c32dac5ed4874082c700bba290000000000000000000000000000000000000000000000000000000000000000000000000000000000000000000000000000000000000000000000000000000000000000000000000000000061cbb1a8fb2f8710fe95c6c3ef039b5828cb000b000000000000000000000000f9861d7478f8957679b26404bd6272c39f949c2900000000000000000000000000000000000000000000000000000000000000000000000000000000000000000000000000000000000000056bc75e2d6310000000000000000000000000000000000000000000000000152d02c7e14af68000000000000000000000000000000000000000000000000000000000000000000000ffffffffffffffffffffffffffffffffffffffffffffffffffffffffffffffff000000000000000000000000000000000000000000000000000000003b9aca00000000000000000000000000000000000000000000000000000000000000000000000000000000000000000000000000000000000000000000000000000000010000000000000000000000000000000000000000000000000000000000000000]"
      ],
      "transaction": {
        "from": "0x6efb11ac41b6657c32dac5ed4874082c700bba29",
        "to": "0x8cb82ffca2ea57b29ad137b9a8cdca718233ff96",
        "gas": "0x8db72",
        "value": "0x0",
        "input": "0xac9650d800000000000000000000000000000000000000000000000000000000000000200000000000000000000000000000000000000000000000000000000000000003000000000000000000000000000000000000000000000000000000000000006000000000000000000000000000000000000000000000000000000000000000e0000000000000000000000000000000000000000000000000000000000000018000000000000000000000000000000000000000000000000000000000000000447d39aaf1000000000000000000000000d7b397039e36f9b665a32d24d150ee1f0029d10a000000000000000000000000000000000000000000000000000000003b9aca00000000000000000000000000000000000000000000000000000000000000000000000000000000000000000000000000000000000000000000000064e6d66ac8000000000000000000000000f9861d7478f8957679b26404bd6272c39f949c29000000000000000000000000d7b397039e36f9b665a32d24d150ee1f0029d10a00000000000000000000000000000000000000000000152d02c7e14af68000000000000000000000000000000000000000000000000000000000000000000000000000000000000000000000000000000000000000000000000001e41ddbdd200000000000000000000000006efb11ac41b6657c32dac5ed4874082c700bba290000000000000000000000006efb11ac41b6657c32dac5ed4874082c700bba290000000000000000000000000000000000000000000000000000000000000000000000000000000000000000000000000000000000000000000000000000000000000000000000000000000061cbb1a8fb2f8710fe95c6c3ef039b5828cb000b000000000000000000000000f9861d7478f8957679b26404bd6272c39f949c2900000000000000000000000000000000000000000000000000000000000000000000000000000000000000000000000000000000000000056bc75e2d6310000000000000000000000000000000000000000000000000152d02c7e14af68000000000000000000000000000000000000000000000000000000000000000000000ffffffffffffffffffffffffffffffffffffffffffffffffffffffffffffffff000000000000000000000000000000000000000000000000000000003b9aca0000000000000000000000000000000000000000000000000000000000000000000000000000000000000000000000000000000000000000000000000000000001000000000000000000000000000000000000000000000000000000000000000000000000000000000000000000000000000000000000000000000000",
        "nonce": "0x1e4",
        "chainId": "0x279f"
      },
      "additionalContracts": [],
      "isFixedGasLimit": false
    },
    {
      "hash": "0xa92a80850d9c46d18de68acd4e313859fb6b1dc4ee108a9f937ba5a7b0efe39d",
      "transactionType": "CALL",
      "contractName": null,
      "contractAddress": "0x8cb82ffca2ea57b29ad137b9a8cdca718233ff96",
      "function": "multicall(bytes[])",
      "arguments": [
        "[0x7d39aaf1000000000000000000000000d7b397039e36f9b665a32d24d150ee1f0029d10a000000000000000000000000000000000000000000000000000000003b9aca00, 0xe6d66ac80000000000000000000000001889cfb8746716a0ac50e59a54f190987c5f04e6000000000000000000000000d7b397039e36f9b665a32d24d150ee1f0029d10a00000000000000000000000000000000000000000000003635c9adc5dea00000, 0x1ddbdd200000000000000000000000006efb11ac41b6657c32dac5ed4874082c700bba290000000000000000000000006efb11ac41b6657c32dac5ed4874082c700bba2900000000000000000000000000000000000000000000000000000000000000000000000000000000000000000000000000000000000000000000000000000000000000000000000000000000007b2f0fb291307452065b4a620c29d56d8875dc0000000000000000000000001889cfb8746716a0ac50e59a54f190987c5f04e6000000000000000000000000000000000000000000000000000000000000000000000000000000000000000000000000000000000000003635c9adc5dea0000000000000000000000000000000000000000000000000003635c9adc5dea000000000000000000000000000000000000000000000000000000000000000000000ffffffffffffffffffffffffffffffffffffffffffffffffffffffffffffffff000000000000000000000000000000000000000000000000000000003b9aca00000000000000000000000000000000000000000000000000000000000000000000000000000000000000000000000000000000000000000000000000000000010000000000000000000000000000000000000000000000000000000000000000]"
      ],
      "transaction": {
        "from": "0x6efb11ac41b6657c32dac5ed4874082c700bba29",
        "to": "0x8cb82ffca2ea57b29ad137b9a8cdca718233ff96",
        "gas": "0x8db52",
        "value": "0x0",
        "input": "0xac9650d800000000000000000000000000000000000000000000000000000000000000200000000000000000000000000000000000000000000000000000000000000003000000000000000000000000000000000000000000000000000000000000006000000000000000000000000000000000000000000000000000000000000000e0000000000000000000000000000000000000000000000000000000000000018000000000000000000000000000000000000000000000000000000000000000447d39aaf1000000000000000000000000d7b397039e36f9b665a32d24d150ee1f0029d10a000000000000000000000000000000000000000000000000000000003b9aca00000000000000000000000000000000000000000000000000000000000000000000000000000000000000000000000000000000000000000000000064e6d66ac80000000000000000000000001889cfb8746716a0ac50e59a54f190987c5f04e6000000000000000000000000d7b397039e36f9b665a32d24d150ee1f0029d10a00000000000000000000000000000000000000000000003635c9adc5dea000000000000000000000000000000000000000000000000000000000000000000000000000000000000000000000000000000000000000000000000001e41ddbdd200000000000000000000000006efb11ac41b6657c32dac5ed4874082c700bba290000000000000000000000006efb11ac41b6657c32dac5ed4874082c700bba2900000000000000000000000000000000000000000000000000000000000000000000000000000000000000000000000000000000000000000000000000000000000000000000000000000000007b2f0fb291307452065b4a620c29d56d8875dc0000000000000000000000001889cfb8746716a0ac50e59a54f190987c5f04e6000000000000000000000000000000000000000000000000000000000000000000000000000000000000000000000000000000000000003635c9adc5dea0000000000000000000000000000000000000000000000000003635c9adc5dea000000000000000000000000000000000000000000000000000000000000000000000ffffffffffffffffffffffffffffffffffffffffffffffffffffffffffffffff000000000000000000000000000000000000000000000000000000003b9aca0000000000000000000000000000000000000000000000000000000000000000000000000000000000000000000000000000000000000000000000000000000001000000000000000000000000000000000000000000000000000000000000000000000000000000000000000000000000000000000000000000000000",
        "nonce": "0x1e5",
        "chainId": "0x279f"
      },
      "additionalContracts": [],
      "isFixedGasLimit": false
    },
    {
      "hash": "0x46c884ed092f76f95e39e51ec8fe271faf9569bb1b6c7654d334a2eacb09b30c",
      "transactionType": "CALL",
      "contractName": null,
      "contractAddress": "0x8cb82ffca2ea57b29ad137b9a8cdca718233ff96",
      "function": "multicall(bytes[])",
      "arguments": [
        "[0x7d39aaf1000000000000000000000000d7b397039e36f9b665a32d24d150ee1f0029d10a000000000000000000000000000000000000000000000000000000003b9aca00, 0xe6d66ac80000000000000000000000006bc8a42d4b2f4bc8e4c3f9ecff00b7290ffa7405000000000000000000000000d7b397039e36f9b665a32d24d150ee1f0029d10a00000000000000000000000000000000000000000000003635c9adc5dea00000, 0x1ddbdd200000000000000000000000006efb11ac41b6657c32dac5ed4874082c700bba290000000000000000000000006efb11ac41b6657c32dac5ed4874082c700bba29000000000000000000000000000000000000000000000000000000000000000000000000000000000000000000000000000000000000000000000000000000000000000000000000000000008fc3599e5d86df2e5ab4b9e20975da2ff17eb4b60000000000000000000000006bc8a42d4b2f4bc8e4c3f9ecff00b7290ffa7405000000000000000000000000000000000000000000000000000000000000000000000000000000000000000000000000000000000000001b1ae4d6e2ef50000000000000000000000000000000000000000000000000003635c9adc5dea000000000000000000000000000000000000000000000000000000000000000000000ffffffffffffffffffffffffffffffffffffffffffffffffffffffffffffffff000000000000000000000000000000000000000000000000000000003b9aca00000000000000000000000000000000000000000000000000000000000000000000000000000000000000000000000000000000000000000000000000000000010000000000000000000000000000000000000000000000000000000000000000]"
      ],
      "transaction": {
        "from": "0x6efb11ac41b6657c32dac5ed4874082c700bba29",
        "to": "0x8cb82ffca2ea57b29ad137b9a8cdca718233ff96",
        "gas": "0x8db41",
        "value": "0x0",
        "input": "0xac9650d800000000000000000000000000000000000000000000000000000000000000200000000000000000000000000000000000000000000000000000000000000003000000000000000000000000000000000000000000000000000000000000006000000000000000000000000000000000000000000000000000000000000000e0000000000000000000000000000000000000000000000000000000000000018000000000000000000000000000000000000000000000000000000000000000447d39aaf1000000000000000000000000d7b397039e36f9b665a32d24d150ee1f0029d10a000000000000000000000000000000000000000000000000000000003b9aca00000000000000000000000000000000000000000000000000000000000000000000000000000000000000000000000000000000000000000000000064e6d66ac80000000000000000000000006bc8a42d4b2f4bc8e4c3f9ecff00b7290ffa7405000000000000000000000000d7b397039e36f9b665a32d24d150ee1f0029d10a00000000000000000000000000000000000000000000003635c9adc5dea000000000000000000000000000000000000000000000000000000000000000000000000000000000000000000000000000000000000000000000000001e41ddbdd200000000000000000000000006efb11ac41b6657c32dac5ed4874082c700bba290000000000000000000000006efb11ac41b6657c32dac5ed4874082c700bba29000000000000000000000000000000000000000000000000000000000000000000000000000000000000000000000000000000000000000000000000000000000000000000000000000000008fc3599e5d86df2e5ab4b9e20975da2ff17eb4b60000000000000000000000006bc8a42d4b2f4bc8e4c3f9ecff00b7290ffa7405000000000000000000000000000000000000000000000000000000000000000000000000000000000000000000000000000000000000001b1ae4d6e2ef50000000000000000000000000000000000000000000000000003635c9adc5dea000000000000000000000000000000000000000000000000000000000000000000000ffffffffffffffffffffffffffffffffffffffffffffffffffffffffffffffff000000000000000000000000000000000000000000000000000000003b9aca0000000000000000000000000000000000000000000000000000000000000000000000000000000000000000000000000000000000000000000000000000000001000000000000000000000000000000000000000000000000000000000000000000000000000000000000000000000000000000000000000000000000",
        "nonce": "0x1e6",
        "chainId": "0x279f"
      },
      "additionalContracts": [],
      "isFixedGasLimit": false
    },
    {
      "hash": "0x7d27367187d2b3b5644dd98b19acc3614641223d270e8968faad409fd0be71e8",
      "transactionType": "CALL",
      "contractName": null,
      "contractAddress": "0x8cb82ffca2ea57b29ad137b9a8cdca718233ff96",
      "function": "multicall(bytes[])",
      "arguments": [
        "[0x7d39aaf1000000000000000000000000d7b397039e36f9b665a32d24d150ee1f0029d10a000000000000000000000000000000000000000000000000000000003b9aca00, 0xe6d66ac8000000000000000000000000e3f98fda6dbd38c1017754f1675dce377381c23c000000000000000000000000d7b397039e36f9b665a32d24d150ee1f0029d10a0000000000000000000000000000000000000000000000008ac7230489e80000, 0x1ddbdd200000000000000000000000006efb11ac41b6657c32dac5ed4874082c700bba290000000000000000000000006efb11ac41b6657c32dac5ed4874082c700bba2900000000000000000000000000000000000000000000000000000000000000000000000000000000000000000000000000000000000000000000000000000000000000000000000000000000c9363063c1c5ea9392cc21bc44afd644632e618a000000000000000000000000e3f98fda6dbd38c1017754f1675dce377381c23c000000000000000000000000000000000000000000000000000000000000000000000000000000000000000000000000000000000000005150ae84a8cdf000000000000000000000000000000000000000000000000000008ac7230489e800000000000000000000000000000000000000000000000000000000000000000000ffffffffffffffffffffffffffffffffffffffffffffffffffffffffffffffff000000000000000000000000000000000000000000000000000000003b9aca00000000000000000000000000000000000000000000000000000000000000000000000000000000000000000000000000000000000000000000000000000000010000000000000000000000000000000000000000000000000000000000000000]"
      ],
      "transaction": {
        "from": "0x6efb11ac41b6657c32dac5ed4874082c700bba29",
        "to": "0x8cb82ffca2ea57b29ad137b9a8cdca718233ff96",
        "gas": "0x8db41",
        "value": "0x0",
        "input": "0xac9650d800000000000000000000000000000000000000000000000000000000000000200000000000000000000000000000000000000000000000000000000000000003000000000000000000000000000000000000000000000000000000000000006000000000000000000000000000000000000000000000000000000000000000e0000000000000000000000000000000000000000000000000000000000000018000000000000000000000000000000000000000000000000000000000000000447d39aaf1000000000000000000000000d7b397039e36f9b665a32d24d150ee1f0029d10a000000000000000000000000000000000000000000000000000000003b9aca00000000000000000000000000000000000000000000000000000000000000000000000000000000000000000000000000000000000000000000000064e6d66ac8000000000000000000000000e3f98fda6dbd38c1017754f1675dce377381c23c000000000000000000000000d7b397039e36f9b665a32d24d150ee1f0029d10a0000000000000000000000000000000000000000000000008ac7230489e800000000000000000000000000000000000000000000000000000000000000000000000000000000000000000000000000000000000000000000000001e41ddbdd200000000000000000000000006efb11ac41b6657c32dac5ed4874082c700bba290000000000000000000000006efb11ac41b6657c32dac5ed4874082c700bba2900000000000000000000000000000000000000000000000000000000000000000000000000000000000000000000000000000000000000000000000000000000000000000000000000000000c9363063c1c5ea9392cc21bc44afd644632e618a000000000000000000000000e3f98fda6dbd38c1017754f1675dce377381c23c000000000000000000000000000000000000000000000000000000000000000000000000000000000000000000000000000000000000005150ae84a8cdf000000000000000000000000000000000000000000000000000008ac7230489e800000000000000000000000000000000000000000000000000000000000000000000ffffffffffffffffffffffffffffffffffffffffffffffffffffffffffffffff000000000000000000000000000000000000000000000000000000003b9aca0000000000000000000000000000000000000000000000000000000000000000000000000000000000000000000000000000000000000000000000000000000001000000000000000000000000000000000000000000000000000000000000000000000000000000000000000000000000000000000000000000000000",
        "nonce": "0x1e7",
        "chainId": "0x279f"
      },
      "additionalContracts": [],
      "isFixedGasLimit": false
    }
  ],
  "receipts": [
    {
      "status": "0x1",
      "cumulativeGasUsed": "0x24022a1",
      "logs": [
        {
          "address": "0x2c53ce7143d24a65410107f50e4aabad9a164480",
          "topics": [
            "0xddf252ad1be2c89b69c2b068fc378daa952ba7f163c4a11628f55a4df523b3ef",
            "0x0000000000000000000000000000000000000000000000000000000000000000",
            "0x0000000000000000000000006efb11ac41b6657c32dac5ed4874082c700bba29"
          ],
          "data": "0x0000000000000000000000000000000000000000000000008ac7230489e80000",
          "blockHash": "0xb453b99ce513a3d0dc0c33e95b8271df35b0b0a77ae08917d344ce86cbc51bab",
          "blockNumber": "0x7443fd",
          "blockTimestamp": "0x67d32a9c",
          "transactionHash": "0xf9175d66f90def73130b033415228d81a3a75841592da5868a40d7046838bf4c",
          "transactionIndex": "0xdd",
          "logIndex": "0x178",
          "removed": false
        }
      ],
      "logsBloom": "0x00000000000000000200000000000000000000000000000000000000000000000000000000000000000000000000000000001000000100000000000000000000000000000000000000000008000000000000000000000000000000000000000000000000020000000000000000000800000000000000000000000010000000000000000000000000000000000000000000000000000000000000000000000000000000000000000000000000000000000000000000000000000001000000000000000002000000000000000000000000000000010000000000000000000020000000001000000000000000000000000000000000000000000000000000000000",
      "type": "0x0",
      "transactionHash": "0xf9175d66f90def73130b033415228d81a3a75841592da5868a40d7046838bf4c",
      "transactionIndex": "0xdd",
      "blockHash": "0xb453b99ce513a3d0dc0c33e95b8271df35b0b0a77ae08917d344ce86cbc51bab",
      "blockNumber": "0x7443fd",
      "gasUsed": "0xc1a6",
      "effectiveGasPrice": "0xc1b710800",
      "from": "0x6efb11ac41b6657c32dac5ed4874082c700bba29",
      "to": "0x2c53ce7143d24a65410107f50e4aabad9a164480",
      "contractAddress": null
    },
    {
      "status": "0x1",
      "cumulativeGasUsed": "0x240e447",
      "logs": [
        {
          "address": "0x53f7c389cbb801e2abfd301ded6d2a1cf330ac0d",
          "topics": [
            "0xddf252ad1be2c89b69c2b068fc378daa952ba7f163c4a11628f55a4df523b3ef",
            "0x0000000000000000000000000000000000000000000000000000000000000000",
            "0x0000000000000000000000006efb11ac41b6657c32dac5ed4874082c700bba29"
          ],
          "data": "0x0000000000000000000000000000000000000000000000000de0b6b3a7640000",
          "blockHash": "0xb453b99ce513a3d0dc0c33e95b8271df35b0b0a77ae08917d344ce86cbc51bab",
          "blockNumber": "0x7443fd",
          "blockTimestamp": "0x67d32a9c",
          "transactionHash": "0xdbeb484a41daa7d015d33b7ff9ba8d89a4b83dac19c38a976f6f9f781bb1e0ca",
          "transactionIndex": "0xde",
          "logIndex": "0x179",
          "removed": false
        }
      ],
      "logsBloom": "0x00000000000000000200000002000000000000000000000000000000000000000000000000000000000000000000000000000000000100000000000000000000000000000000000000000008000000000000000000000000000000000000000000000000020000000000000000000800000000000000000000000010000000000000000000000000000000000000000000000000000000000000000000000000000000000010000000000000000000000000000000000000000001000000000000000002000000000000000000000000000000000000000000000000000020000000000000000000000000000000000000000000000000000008000000000000",
      "type": "0x0",
      "transactionHash": "0xdbeb484a41daa7d015d33b7ff9ba8d89a4b83dac19c38a976f6f9f781bb1e0ca",
      "transactionIndex": "0xde",
      "blockHash": "0xb453b99ce513a3d0dc0c33e95b8271df35b0b0a77ae08917d344ce86cbc51bab",
      "blockNumber": "0x7443fd",
      "gasUsed": "0xc1a6",
      "effectiveGasPrice": "0xc1b710800",
      "from": "0x6efb11ac41b6657c32dac5ed4874082c700bba29",
      "to": "0x53f7c389cbb801e2abfd301ded6d2a1cf330ac0d",
      "contractAddress": null
    },
    {
      "status": "0x1",
      "cumulativeGasUsed": "0x24541ab",
      "logs": [
        {
          "address": "0xf9861d7478f8957679b26404bd6272c39f949c29",
          "topics": [
            "0xddf252ad1be2c89b69c2b068fc378daa952ba7f163c4a11628f55a4df523b3ef",
            "0x0000000000000000000000000000000000000000000000000000000000000000",
            "0x0000000000000000000000006efb11ac41b6657c32dac5ed4874082c700bba29"
          ],
          "data": "0x00000000000000000000000000000000000000000000d3c21bcecceda1000000",
          "blockHash": "0xb453b99ce513a3d0dc0c33e95b8271df35b0b0a77ae08917d344ce86cbc51bab",
          "blockNumber": "0x7443fd",
          "blockTimestamp": "0x67d32a9c",
          "transactionHash": "0x7bd98df214b0166920b85b2e61f8ec1635906e27bf1f821d44bdf322782f0334",
          "transactionIndex": "0xe4",
          "logIndex": "0x17f",
          "removed": false
        }
      ],
      "logsBloom": "0x00000000000000000200000000000000000000000000000000000000000000000000000000000000000000000000000000000000000100000000000000000000000000000000000000000008000000000000000000000000000000000000000000000000060000000000000000000800000000000000000000000010000000000000000000000000000000000000000000000000000000000000000000000000000000000000000000040000000000000000000000000000000001000000000000000002080000000000000000000000000000000000000000000000000020000000000000000000000000000000000000000000000000000000000000000000",
      "type": "0x0",
      "transactionHash": "0x7bd98df214b0166920b85b2e61f8ec1635906e27bf1f821d44bdf322782f0334",
      "transactionIndex": "0xe4",
      "blockHash": "0xb453b99ce513a3d0dc0c33e95b8271df35b0b0a77ae08917d344ce86cbc51bab",
      "blockNumber": "0x7443fd",
      "gasUsed": "0xb6f4",
      "effectiveGasPrice": "0xc1b710800",
      "from": "0x6efb11ac41b6657c32dac5ed4874082c700bba29",
      "to": "0xf9861d7478f8957679b26404bd6272c39f949c29",
      "contractAddress": null
    },
    {
      "status": "0x1",
      "cumulativeGasUsed": "0x2460374",
      "logs": [
        {
          "address": "0x1889cfb8746716a0ac50e59a54f190987c5f04e6",
          "topics": [
            "0xddf252ad1be2c89b69c2b068fc378daa952ba7f163c4a11628f55a4df523b3ef",
            "0x0000000000000000000000000000000000000000000000000000000000000000",
            "0x0000000000000000000000006efb11ac41b6657c32dac5ed4874082c700bba29"
          ],
          "data": "0x00000000000000000000000000000000000000000000021e19e0c9bab2400000",
          "blockHash": "0xb453b99ce513a3d0dc0c33e95b8271df35b0b0a77ae08917d344ce86cbc51bab",
          "blockNumber": "0x7443fd",
          "blockTimestamp": "0x67d32a9c",
          "transactionHash": "0x3f9af06a66e7fff5c205cc346e4cb078085b3c28b755a1fc48f1e6c311c4f064",
          "transactionIndex": "0xe5",
          "logIndex": "0x180",
          "removed": false
        }
      ],
      "logsBloom": "0x00000000000000000200000000000000000000000000000000000000000000000000000000000000000000000000000000000000000100000000000000000000000000000000000000000008000000000000000000000000000400000000000000000000020000000000000000000800000000000000000000000010000000000000000000000000000000000000000000000000000000000000000000000000000000000000100000000000000000000000000000000000000001000000000000000002000000000000000000000000000000000000000000000000000020000000000080000000000000000000000000000000000000000000000000000000",
      "type": "0x0",
      "transactionHash": "0x3f9af06a66e7fff5c205cc346e4cb078085b3c28b755a1fc48f1e6c311c4f064",
      "transactionIndex": "0xe5",
      "blockHash": "0xb453b99ce513a3d0dc0c33e95b8271df35b0b0a77ae08917d344ce86cbc51bab",
      "blockNumber": "0x7443fd",
      "gasUsed": "0xc1c9",
      "effectiveGasPrice": "0xc1b710800",
      "from": "0x6efb11ac41b6657c32dac5ed4874082c700bba29",
      "to": "0x1889cfb8746716a0ac50e59a54f190987c5f04e6",
      "contractAddress": null
    },
    {
      "status": "0x1",
      "cumulativeGasUsed": "0x246c53d",
      "logs": [
        {
          "address": "0x6bc8a42d4b2f4bc8e4c3f9ecff00b7290ffa7405",
          "topics": [
            "0xddf252ad1be2c89b69c2b068fc378daa952ba7f163c4a11628f55a4df523b3ef",
            "0x0000000000000000000000000000000000000000000000000000000000000000",
            "0x0000000000000000000000006efb11ac41b6657c32dac5ed4874082c700bba29"
          ],
          "data": "0x00000000000000000000000000000000000000000000021e19e0c9bab2400000",
          "blockHash": "0xb453b99ce513a3d0dc0c33e95b8271df35b0b0a77ae08917d344ce86cbc51bab",
          "blockNumber": "0x7443fd",
          "blockTimestamp": "0x67d32a9c",
          "transactionHash": "0x79410ec3919e6807c69d3c045c5f3e6ef1ee120366d368fa7392fdb12781a91c",
          "transactionIndex": "0xe6",
          "logIndex": "0x181",
          "removed": false
        }
      ],
      "logsBloom": "0x00000000000000000200000000000000000000000000000000000000000000000000000000000000000000000000000000002000000100000400000000000000000000000000000000000008000000000000000000000000000000000000000000000000020000000000000000000800000000000000000000000010000000000000000000000000000000000000000000000000000000000000000000000000000000000200000000000000000000000000000000000000000001000000000000000002000000000000000000000000000000000000000000000000000020000000000000000000000000000000000000000000000000000000000000000000",
      "type": "0x0",
      "transactionHash": "0x79410ec3919e6807c69d3c045c5f3e6ef1ee120366d368fa7392fdb12781a91c",
      "transactionIndex": "0xe6",
      "blockHash": "0xb453b99ce513a3d0dc0c33e95b8271df35b0b0a77ae08917d344ce86cbc51bab",
      "blockNumber": "0x7443fd",
      "gasUsed": "0xc1c9",
      "effectiveGasPrice": "0xc1b710800",
      "from": "0x6efb11ac41b6657c32dac5ed4874082c700bba29",
      "to": "0x6bc8a42d4b2f4bc8e4c3f9ecff00b7290ffa7405",
      "contractAddress": null
    },
    {
      "status": "0x1",
      "cumulativeGasUsed": "0x2477c31",
      "logs": [
        {
          "address": "0xe3f98fda6dbd38c1017754f1675dce377381c23c",
          "topics": [
            "0xddf252ad1be2c89b69c2b068fc378daa952ba7f163c4a11628f55a4df523b3ef",
            "0x0000000000000000000000000000000000000000000000000000000000000000",
            "0x0000000000000000000000006efb11ac41b6657c32dac5ed4874082c700bba29"
          ],
          "data": "0x00000000000000000000000000000000000000000000003635c9adc5dea00000",
          "blockHash": "0xb453b99ce513a3d0dc0c33e95b8271df35b0b0a77ae08917d344ce86cbc51bab",
          "blockNumber": "0x7443fd",
          "blockTimestamp": "0x67d32a9c",
          "transactionHash": "0x1d1805f0a6cbfd7cc3d2f95c0c67cbb7d2e9967129b17ca9aadb654cc5c4cedf",
          "transactionIndex": "0xe7",
          "logIndex": "0x182",
          "removed": false
        }
      ],
      "logsBloom": "0x00000000000000002200000000000000000000000000000000000000000000000000000000000000000000000000000000000000000100000000000000000000000000000000000000000008000000000000000000000000000000000000000000000000020000000000000000000800000000000000000000000010000000000000000000000000000000000000000000000000000000000020000000000000000000000000000000000000000020000000000000000000000001000000000000000002000000000000000000000000000000000000000000000000000020000000000000000000000000000000000000000000000000000000000000000000",
      "type": "0x0",
      "transactionHash": "0x1d1805f0a6cbfd7cc3d2f95c0c67cbb7d2e9967129b17ca9aadb654cc5c4cedf",
      "transactionIndex": "0xe7",
      "blockHash": "0xb453b99ce513a3d0dc0c33e95b8271df35b0b0a77ae08917d344ce86cbc51bab",
      "blockNumber": "0x7443fd",
      "gasUsed": "0xb6f4",
      "effectiveGasPrice": "0xc1b710800",
      "from": "0x6efb11ac41b6657c32dac5ed4874082c700bba29",
      "to": "0xe3f98fda6dbd38c1017754f1675dce377381c23c",
      "contractAddress": null
    },
    {
      "status": "0x1",
      "cumulativeGasUsed": "0x24fc1f2",
      "logs": [
        {
          "address": "0x2c53ce7143d24a65410107f50e4aabad9a164480",
          "topics": [
            "0x8c5be1e5ebec7d5bd14f71427d1e84f3dd0314c0f7b2291e5b200ac8c7c3b925",
            "0x0000000000000000000000006efb11ac41b6657c32dac5ed4874082c700bba29",
            "0x0000000000000000000000008cb82ffca2ea57b29ad137b9a8cdca718233ff96"
          ],
          "data": "0xffffffffffffffffffffffffffffffffffffffffffffffffffffffffffffffff",
          "blockHash": "0xb453b99ce513a3d0dc0c33e95b8271df35b0b0a77ae08917d344ce86cbc51bab",
          "blockNumber": "0x7443fd",
          "blockTimestamp": "0x67d32a9c",
          "transactionHash": "0x24d13013c0fe64701248b81a1d3680ddd7a9e8f734152c7048e9928740a177e3",
          "transactionIndex": "0xf3",
          "logIndex": "0x18e",
          "removed": false
        }
      ],
      "logsBloom": "0x00000000000000000200000000000000000000000000000000000000000000000000000000000000000000000000000000001000000100000000000000200000000000000100000000000000000000000000000000000000000000000000000002000000000000000000000000000000000000000000000000000000000000000000000000000000000000000000000000000000000000000000000000000400020000000000000000000000000000000000000000000000000001000000000000000000000000000000000000000000000000010000000000000000000000000010001000000000000000000000000000000000000000000000000000000000",
      "type": "0x0",
      "transactionHash": "0x24d13013c0fe64701248b81a1d3680ddd7a9e8f734152c7048e9928740a177e3",
      "transactionIndex": "0xf3",
      "blockHash": "0xb453b99ce513a3d0dc0c33e95b8271df35b0b0a77ae08917d344ce86cbc51bab",
      "blockNumber": "0x7443fd",
      "gasUsed": "0x96a4",
      "effectiveGasPrice": "0xc1b710800",
      "from": "0x6efb11ac41b6657c32dac5ed4874082c700bba29",
      "to": "0x2c53ce7143d24a65410107f50e4aabad9a164480",
      "contractAddress": null
    },
    {
      "status": "0x1",
      "cumulativeGasUsed": "0x2505896",
      "logs": [
        {
          "address": "0x53f7c389cbb801e2abfd301ded6d2a1cf330ac0d",
          "topics": [
            "0x8c5be1e5ebec7d5bd14f71427d1e84f3dd0314c0f7b2291e5b200ac8c7c3b925",
            "0x0000000000000000000000006efb11ac41b6657c32dac5ed4874082c700bba29",
            "0x0000000000000000000000008cb82ffca2ea57b29ad137b9a8cdca718233ff96"
          ],
          "data": "0xffffffffffffffffffffffffffffffffffffffffffffffffffffffffffffffff",
          "blockHash": "0xb453b99ce513a3d0dc0c33e95b8271df35b0b0a77ae08917d344ce86cbc51bab",
          "blockNumber": "0x7443fd",
          "blockTimestamp": "0x67d32a9c",
          "transactionHash": "0x646872cfb10d96bfa0540af82c08ce78ba2862df791042440ffad9727756c5dc",
          "transactionIndex": "0xf4",
          "logIndex": "0x18f",
          "removed": false
        }
      ],
      "logsBloom": "0x00000000000000000200000002000000000000000000000000000000000000000000000000000000000000000000000000000000000100000000000000200000000000000100000000000000000000000000000000000000000000000000000002000000000000000000000000000000000000000000000000000000000000000000000000000000000000000000000000000000000000000000000000000400020000000010000000000000000000000000000000000000000001000000000000000000000000000000000000000000000000000000000000000000000000000010000000000000000000000000000000000000000000000008000000000000",
      "type": "0x0",
      "transactionHash": "0x646872cfb10d96bfa0540af82c08ce78ba2862df791042440ffad9727756c5dc",
      "transactionIndex": "0xf4",
      "blockHash": "0xb453b99ce513a3d0dc0c33e95b8271df35b0b0a77ae08917d344ce86cbc51bab",
      "blockNumber": "0x7443fd",
      "gasUsed": "0x96a4",
      "effectiveGasPrice": "0xc1b710800",
      "from": "0x6efb11ac41b6657c32dac5ed4874082c700bba29",
      "to": "0x53f7c389cbb801e2abfd301ded6d2a1cf330ac0d",
      "contractAddress": null
    },
    {
      "status": "0x1",
      "cumulativeGasUsed": "0x250ef3a",
      "logs": [
        {
          "address": "0xf9861d7478f8957679b26404bd6272c39f949c29",
          "topics": [
            "0x8c5be1e5ebec7d5bd14f71427d1e84f3dd0314c0f7b2291e5b200ac8c7c3b925",
            "0x0000000000000000000000006efb11ac41b6657c32dac5ed4874082c700bba29",
            "0x0000000000000000000000008cb82ffca2ea57b29ad137b9a8cdca718233ff96"
          ],
          "data": "0xffffffffffffffffffffffffffffffffffffffffffffffffffffffffffffffff",
          "blockHash": "0xb453b99ce513a3d0dc0c33e95b8271df35b0b0a77ae08917d344ce86cbc51bab",
          "blockNumber": "0x7443fd",
          "blockTimestamp": "0x67d32a9c",
          "transactionHash": "0x92e081feba5ea2c9a4f61bc46a5a642f38a4592d74baaae41ce37b131a99edb8",
          "transactionIndex": "0xf5",
          "logIndex": "0x190",
          "removed": false
        }
      ],
      "logsBloom": "0x00000000000000000200000000000000000000000000000000000000000000000000000000000000000000000000000000000000000100000000000000200000000000000100000000000000000000000000000000000000000000000000000002000000040000000000000000000000000000000000000000000000000000000000000000000000000000000000000000000000000000000000000000000400020000000000000000040000000000000000000000000000000001000000000000000000080000000000000000000000000000000000000000000000000000000010000000000000000000000000000000000000000000000000000000000000",
      "type": "0x0",
      "transactionHash": "0x92e081feba5ea2c9a4f61bc46a5a642f38a4592d74baaae41ce37b131a99edb8",
      "transactionIndex": "0xf5",
      "blockHash": "0xb453b99ce513a3d0dc0c33e95b8271df35b0b0a77ae08917d344ce86cbc51bab",
      "blockNumber": "0x7443fd",
      "gasUsed": "0x96a4",
      "effectiveGasPrice": "0xc1b710800",
      "from": "0x6efb11ac41b6657c32dac5ed4874082c700bba29",
      "to": "0xf9861d7478f8957679b26404bd6272c39f949c29",
      "contractAddress": null
    },
    {
      "status": "0x1",
      "cumulativeGasUsed": "0x25185de",
      "logs": [
        {
          "address": "0x1889cfb8746716a0ac50e59a54f190987c5f04e6",
          "topics": [
            "0x8c5be1e5ebec7d5bd14f71427d1e84f3dd0314c0f7b2291e5b200ac8c7c3b925",
            "0x0000000000000000000000006efb11ac41b6657c32dac5ed4874082c700bba29",
            "0x0000000000000000000000008cb82ffca2ea57b29ad137b9a8cdca718233ff96"
          ],
          "data": "0xffffffffffffffffffffffffffffffffffffffffffffffffffffffffffffffff",
          "blockHash": "0xb453b99ce513a3d0dc0c33e95b8271df35b0b0a77ae08917d344ce86cbc51bab",
          "blockNumber": "0x7443fd",
          "blockTimestamp": "0x67d32a9c",
          "transactionHash": "0xfdcfade70a3f7b960df08de82d3077617bd8d49277b6deeb82537d86d2c76217",
          "transactionIndex": "0xf6",
          "logIndex": "0x191",
          "removed": false
        }
      ],
      "logsBloom": "0x00000000000000000200000000000000000000000000000000000000000000000000000000000000000000000000000000000000000100000000000000200000000000000100000000000000000000000000000000000000000400000000000002000000000000000000000000000000000000000000000000000000000000000000000000000000000000000000000000000000000000000000000000000400020000000000100000000000000000000000000000000000000001000000000000000000000000000000000000000000000000000000000000000000000000000010000080000000000000000000000000000000000000000000000000000000",
      "type": "0x0",
      "transactionHash": "0xfdcfade70a3f7b960df08de82d3077617bd8d49277b6deeb82537d86d2c76217",
      "transactionIndex": "0xf6",
      "blockHash": "0xb453b99ce513a3d0dc0c33e95b8271df35b0b0a77ae08917d344ce86cbc51bab",
      "blockNumber": "0x7443fd",
      "gasUsed": "0x96a4",
      "effectiveGasPrice": "0xc1b710800",
      "from": "0x6efb11ac41b6657c32dac5ed4874082c700bba29",
      "to": "0x1889cfb8746716a0ac50e59a54f190987c5f04e6",
      "contractAddress": null
    },
    {
      "status": "0x1",
      "cumulativeGasUsed": "0x2521c82",
      "logs": [
        {
          "address": "0x6bc8a42d4b2f4bc8e4c3f9ecff00b7290ffa7405",
          "topics": [
            "0x8c5be1e5ebec7d5bd14f71427d1e84f3dd0314c0f7b2291e5b200ac8c7c3b925",
            "0x0000000000000000000000006efb11ac41b6657c32dac5ed4874082c700bba29",
            "0x0000000000000000000000008cb82ffca2ea57b29ad137b9a8cdca718233ff96"
          ],
          "data": "0xffffffffffffffffffffffffffffffffffffffffffffffffffffffffffffffff",
          "blockHash": "0xb453b99ce513a3d0dc0c33e95b8271df35b0b0a77ae08917d344ce86cbc51bab",
          "blockNumber": "0x7443fd",
          "blockTimestamp": "0x67d32a9c",
          "transactionHash": "0x89dbef013934517718620aa5a4589412c900c520ffb5870af473d54abead2bcb",
          "transactionIndex": "0xf7",
          "logIndex": "0x192",
          "removed": false
        }
      ],
      "logsBloom": "0x00000000000000000200000000000000000000000000000000000000000000000000000000000000000000000000000000002000000100000400000000200000000000000100000000000000000000000000000000000000000000000000000002000000000000000000000000000000000000000000000000000000000000000000000000000000000000000000000000000000000000000000000000000400020000000200000000000000000000000000000000000000000001000000000000000000000000000000000000000000000000000000000000000000000000000010000000000000000000000000000000000000000000000000000000000000",
      "type": "0x0",
      "transactionHash": "0x89dbef013934517718620aa5a4589412c900c520ffb5870af473d54abead2bcb",
      "transactionIndex": "0xf7",
      "blockHash": "0xb453b99ce513a3d0dc0c33e95b8271df35b0b0a77ae08917d344ce86cbc51bab",
      "blockNumber": "0x7443fd",
      "gasUsed": "0x96a4",
      "effectiveGasPrice": "0xc1b710800",
      "from": "0x6efb11ac41b6657c32dac5ed4874082c700bba29",
      "to": "0x6bc8a42d4b2f4bc8e4c3f9ecff00b7290ffa7405",
      "contractAddress": null
    },
    {
      "status": "0x1",
      "cumulativeGasUsed": "0x252b326",
      "logs": [
        {
          "address": "0xe3f98fda6dbd38c1017754f1675dce377381c23c",
          "topics": [
            "0x8c5be1e5ebec7d5bd14f71427d1e84f3dd0314c0f7b2291e5b200ac8c7c3b925",
            "0x0000000000000000000000006efb11ac41b6657c32dac5ed4874082c700bba29",
            "0x0000000000000000000000008cb82ffca2ea57b29ad137b9a8cdca718233ff96"
          ],
          "data": "0xffffffffffffffffffffffffffffffffffffffffffffffffffffffffffffffff",
          "blockHash": "0xb453b99ce513a3d0dc0c33e95b8271df35b0b0a77ae08917d344ce86cbc51bab",
          "blockNumber": "0x7443fd",
          "blockTimestamp": "0x67d32a9c",
          "transactionHash": "0x0a12cd08a5637949d8b1257a861e00b8f6bdf466043e633efc0304f6b98c3d8e",
          "transactionIndex": "0xf8",
          "logIndex": "0x193",
          "removed": false
        }
      ],
      "logsBloom": "0x00000000000000002200000000000000000000000000000000000000000000000000000000000000000000000000000000000000000100000000000000200000000000000100000000000000000000000000000000000000000000000000000002000000000000000000000000000000000000000000000000000000000000000000000000000000000000000000000000000000000000000020000000000400020000000000000000000000000020000000000000000000000001000000000000000000000000000000000000000000000000000000000000000000000000000010000000000000000000000000000000000000000000000000000000000000",
      "type": "0x0",
      "transactionHash": "0x0a12cd08a5637949d8b1257a861e00b8f6bdf466043e633efc0304f6b98c3d8e",
      "transactionIndex": "0xf8",
      "blockHash": "0xb453b99ce513a3d0dc0c33e95b8271df35b0b0a77ae08917d344ce86cbc51bab",
      "blockNumber": "0x7443fd",
      "gasUsed": "0x96a4",
      "effectiveGasPrice": "0xc1b710800",
      "from": "0x6efb11ac41b6657c32dac5ed4874082c700bba29",
      "to": "0xe3f98fda6dbd38c1017754f1675dce377381c23c",
      "contractAddress": null
    },
    {
      "status": "0x1",
      "cumulativeGasUsed": "0x25bfd2f",
      "logs": [
        {
          "address": "0x2c53ce7143d24a65410107f50e4aabad9a164480",
          "topics": [
            "0xddf252ad1be2c89b69c2b068fc378daa952ba7f163c4a11628f55a4df523b3ef",
            "0x0000000000000000000000006efb11ac41b6657c32dac5ed4874082c700bba29",
            "0x000000000000000000000000d7b397039e36f9b665a32d24d150ee1f0029d10a"
          ],
          "data": "0x000000000000000000000000000000000000000000000000000000003b9aca00",
          "blockHash": "0xb453b99ce513a3d0dc0c33e95b8271df35b0b0a77ae08917d344ce86cbc51bab",
          "blockNumber": "0x7443fd",
          "blockTimestamp": "0x67d32a9c",
          "transactionHash": "0x5619da60e2ddaf9c72da9224459ada2041c49c165781f1619ea015a8cec8db3d",
          "transactionIndex": "0xf9",
          "logIndex": "0x194",
          "removed": false
        },
        {
          "address": "0x2c53ce7143d24a65410107f50e4aabad9a164480",
          "topics": [
            "0xddf252ad1be2c89b69c2b068fc378daa952ba7f163c4a11628f55a4df523b3ef",
            "0x0000000000000000000000006efb11ac41b6657c32dac5ed4874082c700bba29",
            "0x000000000000000000000000d7b397039e36f9b665a32d24d150ee1f0029d10a"
          ],
          "data": "0x000000000000000000000000000000000000000000000000016345785d8a0000",
          "blockHash": "0xb453b99ce513a3d0dc0c33e95b8271df35b0b0a77ae08917d344ce86cbc51bab",
          "blockNumber": "0x7443fd",
          "blockTimestamp": "0x67d32a9c",
          "transactionHash": "0x5619da60e2ddaf9c72da9224459ada2041c49c165781f1619ea015a8cec8db3d",
          "transactionIndex": "0xf9",
          "logIndex": "0x195",
          "removed": false
        },
        {
          "address": "0x3c1706b1df304f1e039b824c1229bfbd5d0557d5",
          "topics": [
            "0x982103f3bd0079a3015fd3f668fa64c4ac330de26ba95c48ac8cdf93bd004a32"
          ],
          "data": "0x00000000000000000000000000000000000000000000000000000000000000000000000000000000000000006efb11ac41b6657c32dac5ed4874082c700bba290000000000000000000000006efb11ac41b6657c32dac5ed4874082c700bba290000000000000000000000006efb11ac41b6657c32dac5ed4874082c700bba29000000000000000000000000000000000000000000000000000000000000000000000000000000000000000000000000000000000000000000000000000000000000000000000000000000000e87d21bd714d3391e992227e472517a9dc16a240000000000000000000000002c53ce7143d24a65410107f50e4aabad9a164480000000000000000000000000000000000000000000000000000000000000000000000000000000000000000000000000000000000000006c6b935b8bbd400000000000000000000000000000000000000000000000000000016345785d8a00000000000000000000000000000000000000000000000000000000000000000000ffffffffffffffffffffffffffffffffffffffffffffffffffffffffffffffff000000000000000000000000000000000000000000000000000000003b9aca000000000000000000000000000000000000000000000000000000000067d32a9c000000000000000000000000000000000000000000000000000000000000000000000000000000000000000000000000000000000000000000000000000000010000000000000000000000000000000000000000000000000000000000000000",
          "blockHash": "0xb453b99ce513a3d0dc0c33e95b8271df35b0b0a77ae08917d344ce86cbc51bab",
          "blockNumber": "0x7443fd",
          "blockTimestamp": "0x67d32a9c",
          "transactionHash": "0x5619da60e2ddaf9c72da9224459ada2041c49c165781f1619ea015a8cec8db3d",
          "transactionIndex": "0xf9",
          "logIndex": "0x196",
          "removed": false
        }
      ],
      "logsBloom": "0x00000000000000000200000000100000000000000000000000000020000000000000000000000000000000000000000000001010000100000000000000000000000000000000000000000008000000000000000000000000000000000000000000000000000020000000000000000000000000000000000000000010000000000000000000000000000001000000000000000000000000000000008004000000000000000000000000000000000000000000000000000000100001000000000000000002000000000000000000000000000000010000000000000000000000000004001000000000000000000000000000000000000000000000000000000000",
      "type": "0x0",
      "transactionHash": "0x5619da60e2ddaf9c72da9224459ada2041c49c165781f1619ea015a8cec8db3d",
      "transactionIndex": "0xf9",
      "blockHash": "0xb453b99ce513a3d0dc0c33e95b8271df35b0b0a77ae08917d344ce86cbc51bab",
      "blockNumber": "0x7443fd",
      "gasUsed": "0x94a09",
      "effectiveGasPrice": "0xc1b710800",
      "from": "0x6efb11ac41b6657c32dac5ed4874082c700bba29",
      "to": "0x8cb82ffca2ea57b29ad137b9a8cdca718233ff96",
      "contractAddress": null
    },
    {
      "status": "0x1",
      "cumulativeGasUsed": "0x264d84e",
      "logs": [
        {
          "address": "0x2c53ce7143d24a65410107f50e4aabad9a164480",
          "topics": [
            "0xddf252ad1be2c89b69c2b068fc378daa952ba7f163c4a11628f55a4df523b3ef",
            "0x0000000000000000000000006efb11ac41b6657c32dac5ed4874082c700bba29",
            "0x000000000000000000000000d7b397039e36f9b665a32d24d150ee1f0029d10a"
          ],
          "data": "0x000000000000000000000000000000000000000000000000000000003b9aca00",
          "blockHash": "0xb453b99ce513a3d0dc0c33e95b8271df35b0b0a77ae08917d344ce86cbc51bab",
          "blockNumber": "0x7443fd",
          "blockTimestamp": "0x67d32a9c",
          "transactionHash": "0x2f7fb88bfe9689eac420ea9c4baa5f547044513669c86e81c0652cdb6ef020b3",
          "transactionIndex": "0xfa",
          "logIndex": "0x197",
          "removed": false
        },
        {
          "address": "0x53f7c389cbb801e2abfd301ded6d2a1cf330ac0d",
          "topics": [
            "0xddf252ad1be2c89b69c2b068fc378daa952ba7f163c4a11628f55a4df523b3ef",
            "0x0000000000000000000000006efb11ac41b6657c32dac5ed4874082c700bba29",
            "0x000000000000000000000000d7b397039e36f9b665a32d24d150ee1f0029d10a"
          ],
          "data": "0x000000000000000000000000000000000000000000000000002386f26fc10000",
          "blockHash": "0xb453b99ce513a3d0dc0c33e95b8271df35b0b0a77ae08917d344ce86cbc51bab",
          "blockNumber": "0x7443fd",
          "blockTimestamp": "0x67d32a9c",
          "transactionHash": "0x2f7fb88bfe9689eac420ea9c4baa5f547044513669c86e81c0652cdb6ef020b3",
          "transactionIndex": "0xfa",
          "logIndex": "0x198",
          "removed": false
        },
        {
          "address": "0x3c1706b1df304f1e039b824c1229bfbd5d0557d5",
          "topics": [
            "0x982103f3bd0079a3015fd3f668fa64c4ac330de26ba95c48ac8cdf93bd004a32"
          ],
          "data": "0x00000000000000000000000000000000000000000000000000000000000000010000000000000000000000006efb11ac41b6657c32dac5ed4874082c700bba290000000000000000000000006efb11ac41b6657c32dac5ed4874082c700bba290000000000000000000000006efb11ac41b6657c32dac5ed4874082c700bba2900000000000000000000000000000000000000000000000000000000000000000000000000000000000000000000000000000000000000000000000000000000000000000000000000000000ba8a671c225721803cd64b12cb62a2363e9ee87300000000000000000000000053f7c389cbb801e2abfd301ded6d2a1cf330ac0d00000000000000000000000000000000000000000000000000000000000000000000000000000000000000000000000000000000000000e3aeb5737240a00000000000000000000000000000000000000000000000000000002386f26fc100000000000000000000000000000000000000000000000000000000000000000000ffffffffffffffffffffffffffffffffffffffffffffffffffffffffffffffff000000000000000000000000000000000000000000000000000000003b9aca000000000000000000000000000000000000000000000000000000000067d32a9c000000000000000000000000000000000000000000000000000000000000000000000000000000000000000000000000000000000000000000000000000000010000000000000000000000000000000000000000000000000000000000000000",
          "blockHash": "0xb453b99ce513a3d0dc0c33e95b8271df35b0b0a77ae08917d344ce86cbc51bab",
          "blockNumber": "0x7443fd",
          "blockTimestamp": "0x67d32a9c",
          "transactionHash": "0x2f7fb88bfe9689eac420ea9c4baa5f547044513669c86e81c0652cdb6ef020b3",
          "transactionIndex": "0xfa",
          "logIndex": "0x199",
          "removed": false
        }
      ],
      "logsBloom": "0x00000000000000000200000002100000000000000000000000000020000000000000000000000000000000000000000000001010000100000000000000000000000000000000000000000008000000000000000000000000000000000000000000000000000020000000000000000000000000000000000000000010000000000000000000000000000001000000000000000000000000000000008004000000000000000010000000000000000000000000000000000000100001000000000000000002000000000000000000000000000000010000000000000000000000000004001000000000000000000000000000000000000000000008000000000000",
      "type": "0x0",
      "transactionHash": "0x2f7fb88bfe9689eac420ea9c4baa5f547044513669c86e81c0652cdb6ef020b3",
      "transactionIndex": "0xfa",
      "blockHash": "0xb453b99ce513a3d0dc0c33e95b8271df35b0b0a77ae08917d344ce86cbc51bab",
      "blockNumber": "0x7443fd",
      "gasUsed": "0x8db1f",
      "effectiveGasPrice": "0xc1b710800",
      "from": "0x6efb11ac41b6657c32dac5ed4874082c700bba29",
      "to": "0x8cb82ffca2ea57b29ad137b9a8cdca718233ff96",
      "contractAddress": null
    },
    {
      "status": "0x1",
      "cumulativeGasUsed": "0x26db3c0",
      "logs": [
        {
          "address": "0x2c53ce7143d24a65410107f50e4aabad9a164480",
          "topics": [
            "0xddf252ad1be2c89b69c2b068fc378daa952ba7f163c4a11628f55a4df523b3ef",
            "0x0000000000000000000000006efb11ac41b6657c32dac5ed4874082c700bba29",
            "0x000000000000000000000000d7b397039e36f9b665a32d24d150ee1f0029d10a"
          ],
          "data": "0x000000000000000000000000000000000000000000000000000000003b9aca00",
          "blockHash": "0xb453b99ce513a3d0dc0c33e95b8271df35b0b0a77ae08917d344ce86cbc51bab",
          "blockNumber": "0x7443fd",
          "blockTimestamp": "0x67d32a9c",
          "transactionHash": "0xf3efb5b93c47e1ddae658e7d902a6bfa8bd1a58e07daef27c129200054aa13f1",
          "transactionIndex": "0xfb",
          "logIndex": "0x19a",
          "removed": false
        },
        {
          "address": "0xf9861d7478f8957679b26404bd6272c39f949c29",
          "topics": [
            "0xddf252ad1be2c89b69c2b068fc378daa952ba7f163c4a11628f55a4df523b3ef",
            "0x0000000000000000000000006efb11ac41b6657c32dac5ed4874082c700bba29",
            "0x000000000000000000000000d7b397039e36f9b665a32d24d150ee1f0029d10a"
          ],
          "data": "0x00000000000000000000000000000000000000000000152d02c7e14af6800000",
          "blockHash": "0xb453b99ce513a3d0dc0c33e95b8271df35b0b0a77ae08917d344ce86cbc51bab",
          "blockNumber": "0x7443fd",
          "blockTimestamp": "0x67d32a9c",
          "transactionHash": "0xf3efb5b93c47e1ddae658e7d902a6bfa8bd1a58e07daef27c129200054aa13f1",
          "transactionIndex": "0xfb",
          "logIndex": "0x19b",
          "removed": false
        },
        {
          "address": "0x3c1706b1df304f1e039b824c1229bfbd5d0557d5",
          "topics": [
            "0x982103f3bd0079a3015fd3f668fa64c4ac330de26ba95c48ac8cdf93bd004a32"
          ],
          "data": "0x00000000000000000000000000000000000000000000000000000000000000020000000000000000000000006efb11ac41b6657c32dac5ed4874082c700bba290000000000000000000000006efb11ac41b6657c32dac5ed4874082c700bba290000000000000000000000006efb11ac41b6657c32dac5ed4874082c700bba290000000000000000000000000000000000000000000000000000000000000000000000000000000000000000000000000000000000000000000000000000000000000000000000000000000061cbb1a8fb2f8710fe95c6c3ef039b5828cb000b000000000000000000000000f9861d7478f8957679b26404bd6272c39f949c2900000000000000000000000000000000000000000000000000000000000000000000000000000000000000000000000000000000000000056bc75e2d6310000000000000000000000000000000000000000000000000152d02c7e14af68000000000000000000000000000000000000000000000000000000000000000000000ffffffffffffffffffffffffffffffffffffffffffffffffffffffffffffffff000000000000000000000000000000000000000000000000000000003b9aca000000000000000000000000000000000000000000000000000000000067d32a9c000000000000000000000000000000000000000000000000000000000000000000000000000000000000000000000000000000000000000000000000000000010000000000000000000000000000000000000000000000000000000000000000",
          "blockHash": "0xb453b99ce513a3d0dc0c33e95b8271df35b0b0a77ae08917d344ce86cbc51bab",
          "blockNumber": "0x7443fd",
          "blockTimestamp": "0x67d32a9c",
          "transactionHash": "0xf3efb5b93c47e1ddae658e7d902a6bfa8bd1a58e07daef27c129200054aa13f1",
          "transactionIndex": "0xfb",
          "logIndex": "0x19c",
          "removed": false
        }
      ],
      "logsBloom": "0x00000000000000000200000000100000000000000000000000000020000000000000000000000000000000000000000000001010000100000000000000000000000000000000000000000008000000000000000000000000000000000000000000000000040020000000000000000000000000000000000000000010000000000000000000000000000001000000000000000000000000000000008004000000000000000000000000040000000000000000000000000000100001000000000000000002080000000000000000000000000000010000000000000000000000000004001000000000000000000000000000000000000000000000000000000000",
      "type": "0x0",
      "transactionHash": "0xf3efb5b93c47e1ddae658e7d902a6bfa8bd1a58e07daef27c129200054aa13f1",
      "transactionIndex": "0xfb",
      "blockHash": "0xb453b99ce513a3d0dc0c33e95b8271df35b0b0a77ae08917d344ce86cbc51bab",
      "blockNumber": "0x7443fd",
      "gasUsed": "0x8db72",
      "effectiveGasPrice": "0xc1b710800",
      "from": "0x6efb11ac41b6657c32dac5ed4874082c700bba29",
      "to": "0x8cb82ffca2ea57b29ad137b9a8cdca718233ff96",
      "contractAddress": null
    },
    {
      "status": "0x1",
      "cumulativeGasUsed": "0x2768f12",
      "logs": [
        {
          "address": "0x2c53ce7143d24a65410107f50e4aabad9a164480",
          "topics": [
            "0xddf252ad1be2c89b69c2b068fc378daa952ba7f163c4a11628f55a4df523b3ef",
            "0x0000000000000000000000006efb11ac41b6657c32dac5ed4874082c700bba29",
            "0x000000000000000000000000d7b397039e36f9b665a32d24d150ee1f0029d10a"
          ],
          "data": "0x000000000000000000000000000000000000000000000000000000003b9aca00",
          "blockHash": "0xb453b99ce513a3d0dc0c33e95b8271df35b0b0a77ae08917d344ce86cbc51bab",
          "blockNumber": "0x7443fd",
          "blockTimestamp": "0x67d32a9c",
          "transactionHash": "0xa92a80850d9c46d18de68acd4e313859fb6b1dc4ee108a9f937ba5a7b0efe39d",
          "transactionIndex": "0xfc",
          "logIndex": "0x19d",
          "removed": false
        },
        {
          "address": "0x1889cfb8746716a0ac50e59a54f190987c5f04e6",
          "topics": [
            "0xddf252ad1be2c89b69c2b068fc378daa952ba7f163c4a11628f55a4df523b3ef",
            "0x0000000000000000000000006efb11ac41b6657c32dac5ed4874082c700bba29",
            "0x000000000000000000000000d7b397039e36f9b665a32d24d150ee1f0029d10a"
          ],
          "data": "0x00000000000000000000000000000000000000000000003635c9adc5dea00000",
          "blockHash": "0xb453b99ce513a3d0dc0c33e95b8271df35b0b0a77ae08917d344ce86cbc51bab",
          "blockNumber": "0x7443fd",
          "blockTimestamp": "0x67d32a9c",
          "transactionHash": "0xa92a80850d9c46d18de68acd4e313859fb6b1dc4ee108a9f937ba5a7b0efe39d",
          "transactionIndex": "0xfc",
          "logIndex": "0x19e",
          "removed": false
        },
        {
          "address": "0x3c1706b1df304f1e039b824c1229bfbd5d0557d5",
          "topics": [
            "0x982103f3bd0079a3015fd3f668fa64c4ac330de26ba95c48ac8cdf93bd004a32"
          ],
          "data": "0x00000000000000000000000000000000000000000000000000000000000000030000000000000000000000006efb11ac41b6657c32dac5ed4874082c700bba290000000000000000000000006efb11ac41b6657c32dac5ed4874082c700bba290000000000000000000000006efb11ac41b6657c32dac5ed4874082c700bba2900000000000000000000000000000000000000000000000000000000000000000000000000000000000000000000000000000000000000000000000000000000000000000000000000000000007b2f0fb291307452065b4a620c29d56d8875dc0000000000000000000000001889cfb8746716a0ac50e59a54f190987c5f04e6000000000000000000000000000000000000000000000000000000000000000000000000000000000000000000000000000000000000003635c9adc5dea0000000000000000000000000000000000000000000000000003635c9adc5dea000000000000000000000000000000000000000000000000000000000000000000000ffffffffffffffffffffffffffffffffffffffffffffffffffffffffffffffff000000000000000000000000000000000000000000000000000000003b9aca000000000000000000000000000000000000000000000000000000000067d32a9c000000000000000000000000000000000000000000000000000000000000000000000000000000000000000000000000000000000000000000000000000000010000000000000000000000000000000000000000000000000000000000000000",
          "blockHash": "0xb453b99ce513a3d0dc0c33e95b8271df35b0b0a77ae08917d344ce86cbc51bab",
          "blockNumber": "0x7443fd",
          "blockTimestamp": "0x67d32a9c",
          "transactionHash": "0xa92a80850d9c46d18de68acd4e313859fb6b1dc4ee108a9f937ba5a7b0efe39d",
          "transactionIndex": "0xfc",
          "logIndex": "0x19f",
          "removed": false
        }
      ],
      "logsBloom": "0x00000000000000000200000000100000000000000000000000000020000000000000000000000000000000000000000000001010000100000000000000000000000000000000000000000008000000000000000000000000000400000000000000000000000020000000000000000000000000000000000000000010000000000000000000000000000001000000000000000000000000000000008004000000000000000000100000000000000000000000000000000000100001000000000000000002000000000000000000000000000000010000000000000000000000000004001080000000000000000000000000000000000000000000000000000000",
      "type": "0x0",
      "transactionHash": "0xa92a80850d9c46d18de68acd4e313859fb6b1dc4ee108a9f937ba5a7b0efe39d",
      "transactionIndex": "0xfc",
      "blockHash": "0xb453b99ce513a3d0dc0c33e95b8271df35b0b0a77ae08917d344ce86cbc51bab",
      "blockNumber": "0x7443fd",
      "gasUsed": "0x8db52",
      "effectiveGasPrice": "0xc1b710800",
      "from": "0x6efb11ac41b6657c32dac5ed4874082c700bba29",
      "to": "0x8cb82ffca2ea57b29ad137b9a8cdca718233ff96",
      "contractAddress": null
    },
    {
      "status": "0x1",
      "cumulativeGasUsed": "0x27f6a53",
      "logs": [
        {
          "address": "0x2c53ce7143d24a65410107f50e4aabad9a164480",
          "topics": [
            "0xddf252ad1be2c89b69c2b068fc378daa952ba7f163c4a11628f55a4df523b3ef",
            "0x0000000000000000000000006efb11ac41b6657c32dac5ed4874082c700bba29",
            "0x000000000000000000000000d7b397039e36f9b665a32d24d150ee1f0029d10a"
          ],
          "data": "0x000000000000000000000000000000000000000000000000000000003b9aca00",
          "blockHash": "0xb453b99ce513a3d0dc0c33e95b8271df35b0b0a77ae08917d344ce86cbc51bab",
          "blockNumber": "0x7443fd",
          "blockTimestamp": "0x67d32a9c",
          "transactionHash": "0x46c884ed092f76f95e39e51ec8fe271faf9569bb1b6c7654d334a2eacb09b30c",
          "transactionIndex": "0xfd",
          "logIndex": "0x1a0",
          "removed": false
        },
        {
          "address": "0x6bc8a42d4b2f4bc8e4c3f9ecff00b7290ffa7405",
          "topics": [
            "0xddf252ad1be2c89b69c2b068fc378daa952ba7f163c4a11628f55a4df523b3ef",
            "0x0000000000000000000000006efb11ac41b6657c32dac5ed4874082c700bba29",
            "0x000000000000000000000000d7b397039e36f9b665a32d24d150ee1f0029d10a"
          ],
          "data": "0x00000000000000000000000000000000000000000000003635c9adc5dea00000",
          "blockHash": "0xb453b99ce513a3d0dc0c33e95b8271df35b0b0a77ae08917d344ce86cbc51bab",
          "blockNumber": "0x7443fd",
          "blockTimestamp": "0x67d32a9c",
          "transactionHash": "0x46c884ed092f76f95e39e51ec8fe271faf9569bb1b6c7654d334a2eacb09b30c",
          "transactionIndex": "0xfd",
          "logIndex": "0x1a1",
          "removed": false
        },
        {
          "address": "0x3c1706b1df304f1e039b824c1229bfbd5d0557d5",
          "topics": [
            "0x982103f3bd0079a3015fd3f668fa64c4ac330de26ba95c48ac8cdf93bd004a32"
          ],
          "data": "0x00000000000000000000000000000000000000000000000000000000000000040000000000000000000000006efb11ac41b6657c32dac5ed4874082c700bba290000000000000000000000006efb11ac41b6657c32dac5ed4874082c700bba290000000000000000000000006efb11ac41b6657c32dac5ed4874082c700bba29000000000000000000000000000000000000000000000000000000000000000000000000000000000000000000000000000000000000000000000000000000000000000000000000000000008fc3599e5d86df2e5ab4b9e20975da2ff17eb4b60000000000000000000000006bc8a42d4b2f4bc8e4c3f9ecff00b7290ffa7405000000000000000000000000000000000000000000000000000000000000000000000000000000000000000000000000000000000000001b1ae4d6e2ef50000000000000000000000000000000000000000000000000003635c9adc5dea000000000000000000000000000000000000000000000000000000000000000000000ffffffffffffffffffffffffffffffffffffffffffffffffffffffffffffffff000000000000000000000000000000000000000000000000000000003b9aca000000000000000000000000000000000000000000000000000000000067d32a9c000000000000000000000000000000000000000000000000000000000000000000000000000000000000000000000000000000000000000000000000000000010000000000000000000000000000000000000000000000000000000000000000",
          "blockHash": "0xb453b99ce513a3d0dc0c33e95b8271df35b0b0a77ae08917d344ce86cbc51bab",
          "blockNumber": "0x7443fd",
          "blockTimestamp": "0x67d32a9c",
          "transactionHash": "0x46c884ed092f76f95e39e51ec8fe271faf9569bb1b6c7654d334a2eacb09b30c",
          "transactionIndex": "0xfd",
          "logIndex": "0x1a2",
          "removed": false
        }
      ],
      "logsBloom": "0x00000000000000000200000000100000000000000000000000000020000000000000000000000000000000000000000000003010000100000400000000000000000000000000000000000008000000000000000000000000000000000000000000000000000020000000000000000000000000000000000000000010000000000000000000000000000001000000000000000000000000000000008004000000000000000200000000000000000000000000000000000000100001000000000000000002000000000000000000000000000000010000000000000000000000000004001000000000000000000000000000000000000000000000000000000000",
      "type": "0x0",
      "transactionHash": "0x46c884ed092f76f95e39e51ec8fe271faf9569bb1b6c7654d334a2eacb09b30c",
      "transactionIndex": "0xfd",
      "blockHash": "0xb453b99ce513a3d0dc0c33e95b8271df35b0b0a77ae08917d344ce86cbc51bab",
      "blockNumber": "0x7443fd",
      "gasUsed": "0x8db41",
      "effectiveGasPrice": "0xc1b710800",
      "from": "0x6efb11ac41b6657c32dac5ed4874082c700bba29",
      "to": "0x8cb82ffca2ea57b29ad137b9a8cdca718233ff96",
      "contractAddress": null
    },
    {
      "status": "0x1",
      "cumulativeGasUsed": "0x2884594",
      "logs": [
        {
          "address": "0x2c53ce7143d24a65410107f50e4aabad9a164480",
          "topics": [
            "0xddf252ad1be2c89b69c2b068fc378daa952ba7f163c4a11628f55a4df523b3ef",
            "0x0000000000000000000000006efb11ac41b6657c32dac5ed4874082c700bba29",
            "0x000000000000000000000000d7b397039e36f9b665a32d24d150ee1f0029d10a"
          ],
          "data": "0x000000000000000000000000000000000000000000000000000000003b9aca00",
          "blockHash": "0xb453b99ce513a3d0dc0c33e95b8271df35b0b0a77ae08917d344ce86cbc51bab",
          "blockNumber": "0x7443fd",
          "blockTimestamp": "0x67d32a9c",
          "transactionHash": "0x7d27367187d2b3b5644dd98b19acc3614641223d270e8968faad409fd0be71e8",
          "transactionIndex": "0xfe",
          "logIndex": "0x1a3",
          "removed": false
        },
        {
          "address": "0xe3f98fda6dbd38c1017754f1675dce377381c23c",
          "topics": [
            "0xddf252ad1be2c89b69c2b068fc378daa952ba7f163c4a11628f55a4df523b3ef",
            "0x0000000000000000000000006efb11ac41b6657c32dac5ed4874082c700bba29",
            "0x000000000000000000000000d7b397039e36f9b665a32d24d150ee1f0029d10a"
          ],
          "data": "0x0000000000000000000000000000000000000000000000008ac7230489e80000",
          "blockHash": "0xb453b99ce513a3d0dc0c33e95b8271df35b0b0a77ae08917d344ce86cbc51bab",
          "blockNumber": "0x7443fd",
          "blockTimestamp": "0x67d32a9c",
          "transactionHash": "0x7d27367187d2b3b5644dd98b19acc3614641223d270e8968faad409fd0be71e8",
          "transactionIndex": "0xfe",
          "logIndex": "0x1a4",
          "removed": false
        },
        {
          "address": "0x3c1706b1df304f1e039b824c1229bfbd5d0557d5",
          "topics": [
            "0x982103f3bd0079a3015fd3f668fa64c4ac330de26ba95c48ac8cdf93bd004a32"
          ],
          "data": "0x00000000000000000000000000000000000000000000000000000000000000050000000000000000000000006efb11ac41b6657c32dac5ed4874082c700bba290000000000000000000000006efb11ac41b6657c32dac5ed4874082c700bba290000000000000000000000006efb11ac41b6657c32dac5ed4874082c700bba2900000000000000000000000000000000000000000000000000000000000000000000000000000000000000000000000000000000000000000000000000000000000000000000000000000000c9363063c1c5ea9392cc21bc44afd644632e618a000000000000000000000000e3f98fda6dbd38c1017754f1675dce377381c23c000000000000000000000000000000000000000000000000000000000000000000000000000000000000000000000000000000000000005150ae84a8cdf000000000000000000000000000000000000000000000000000008ac7230489e800000000000000000000000000000000000000000000000000000000000000000000ffffffffffffffffffffffffffffffffffffffffffffffffffffffffffffffff000000000000000000000000000000000000000000000000000000003b9aca000000000000000000000000000000000000000000000000000000000067d32a9c000000000000000000000000000000000000000000000000000000000000000000000000000000000000000000000000000000000000000000000000000000010000000000000000000000000000000000000000000000000000000000000000",
          "blockHash": "0xb453b99ce513a3d0dc0c33e95b8271df35b0b0a77ae08917d344ce86cbc51bab",
          "blockNumber": "0x7443fd",
          "blockTimestamp": "0x67d32a9c",
          "transactionHash": "0x7d27367187d2b3b5644dd98b19acc3614641223d270e8968faad409fd0be71e8",
          "transactionIndex": "0xfe",
          "logIndex": "0x1a5",
          "removed": false
        }
      ],
      "logsBloom": "0x00000000000000002200000000100000000000000000000000000020000000000000000000000000000000000000000000001010000100000000000000000000000000000000000000000008000000000000000000000000000000000000000000000000000020000000000000000000000000000000000000000010000000000000000000000000000001000000000000000000000000000020008004000000000000000000000000000000000020000000000000000000100001000000000000000002000000000000000000000000000000010000000000000000000000000004001000000000000000000000000000000000000000000000000000000000",
      "type": "0x0",
      "transactionHash": "0x7d27367187d2b3b5644dd98b19acc3614641223d270e8968faad409fd0be71e8",
      "transactionIndex": "0xfe",
      "blockHash": "0xb453b99ce513a3d0dc0c33e95b8271df35b0b0a77ae08917d344ce86cbc51bab",
      "blockNumber": "0x7443fd",
      "gasUsed": "0x8db41",
      "effectiveGasPrice": "0xc1b710800",
      "from": "0x6efb11ac41b6657c32dac5ed4874082c700bba29",
      "to": "0x8cb82ffca2ea57b29ad137b9a8cdca718233ff96",
      "contractAddress": null
    }
  ],
  "libraries": [],
  "pending": [],
  "returns": {},
  "timestamp": 1741892256,
  "chain": 10143,
  "commit": "69d67f9"
}