{
  "transactions": [
    {
      "hash": "0x3a8294ef3afaf5bdc2ed6c9e7af993a567c8d923f88e9e7dd8a77ff57583ecf3",
      "transactionType": "CALL",
      "contractName": null,
      "contractAddress": "0x08d649c08a02c2ac340111f3e39283883f9bcf6e",
      "function": "executeDeposit(uint256)",
      "arguments": [
        "0"
      ],
      "transaction": {
        "from": "0xe2bc073e0d55274dba18a0e11463a5dfd16c5057",
        "to": "0x08d649c08a02c2ac340111f3e39283883f9bcf6e",
        "gas": "0x4be9c",
        "value": "0x0",
        "input": "0x7026e9fd0000000000000000000000000000000000000000000000000000000000000000",
        "nonce": "0x56",
        "chainId": "0xaa39db"
      },
      "additionalContracts": [],
      "isFixedGasLimit": false
    }
  ],
  "receipts": [
    {
      "status": "0x1",
      "cumulativeGasUsed": "0x4469a",
      "logs": [
        {
          "address": "0x37c15a5f7c7d8d4c707d44ff7e3ad696dda85d07",
          "topics": [
            "0xddf252ad1be2c89b69c2b068fc378daa952ba7f163c4a11628f55a4df523b3ef",
            "0x0000000000000000000000000f29ebbc3f40a298026cfd1d76eccc30ed1b897f",
            "0x000000000000000000000000217c52954ef4a9f7b334333fda22c609ff3e62bc"
          ],
          "data": "0x00000000000000000000000000000000000000000000003635c9adc5dea00000",
          "blockHash": "0x84a4c961048d2cec1cc933a7450f1b163ca7bf1991bb52e3f6c1b31897a1bb54",
          "blockNumber": "0x4e718e",
          "blockTimestamp": "0x67b9cc06",
          "transactionHash": "0x3a8294ef3afaf5bdc2ed6c9e7af993a567c8d923f88e9e7dd8a77ff57583ecf3",
          "transactionIndex": "0x1",
          "logIndex": "0x0",
          "removed": false
        },
        {
          "address": "0xf73081afed3fed09c92924ac16fa0c09af902e98",
          "topics": [
            "0xddf252ad1be2c89b69c2b068fc378daa952ba7f163c4a11628f55a4df523b3ef",
            "0x0000000000000000000000000f29ebbc3f40a298026cfd1d76eccc30ed1b897f",
            "0x000000000000000000000000217c52954ef4a9f7b334333fda22c609ff3e62bc"
          ],
          "data": "0x0000000000000000000000000000000000000000000000a2a15d09519be00000",
          "blockHash": "0x84a4c961048d2cec1cc933a7450f1b163ca7bf1991bb52e3f6c1b31897a1bb54",
          "blockNumber": "0x4e718e",
          "blockTimestamp": "0x67b9cc06",
          "transactionHash": "0x3a8294ef3afaf5bdc2ed6c9e7af993a567c8d923f88e9e7dd8a77ff57583ecf3",
          "transactionIndex": "0x1",
          "logIndex": "0x1",
          "removed": false
        },
        {
          "address": "0x37c15a5f7c7d8d4c707d44ff7e3ad696dda85d07",
          "topics": [
            "0xddf252ad1be2c89b69c2b068fc378daa952ba7f163c4a11628f55a4df523b3ef",
            "0x0000000000000000000000000f29ebbc3f40a298026cfd1d76eccc30ed1b897f",
            "0x000000000000000000000000e2bc073e0d55274dba18a0e11463a5dfd16c5057"
          ],
          "data": "0x000000000000000000000000000000000000000000000000000000003b9aca00",
          "blockHash": "0x84a4c961048d2cec1cc933a7450f1b163ca7bf1991bb52e3f6c1b31897a1bb54",
          "blockNumber": "0x4e718e",
          "blockTimestamp": "0x67b9cc06",
          "transactionHash": "0x3a8294ef3afaf5bdc2ed6c9e7af993a567c8d923f88e9e7dd8a77ff57583ecf3",
          "transactionIndex": "0x1",
          "logIndex": "0x2",
          "removed": false
        },
        {
          "address": "0x217c52954ef4a9f7b334333fda22c609ff3e62bc",
          "topics": [
            "0xddf252ad1be2c89b69c2b068fc378daa952ba7f163c4a11628f55a4df523b3ef",
            "0x0000000000000000000000000000000000000000000000000000000000000000",
            "0x000000000000000000000000e2bc073e0d55274dba18a0e11463a5dfd16c5057"
          ],
          "data": "0x00000000000000000000000000002279061a4cab2cdba38b09bdaf8000000000",
          "blockHash": "0x84a4c961048d2cec1cc933a7450f1b163ca7bf1991bb52e3f6c1b31897a1bb54",
          "blockNumber": "0x4e718e",
          "blockTimestamp": "0x67b9cc06",
          "transactionHash": "0x3a8294ef3afaf5bdc2ed6c9e7af993a567c8d923f88e9e7dd8a77ff57583ecf3",
          "transactionIndex": "0x1",
          "logIndex": "0x3",
          "removed": false
        },
        {
          "address": "0x08d649c08a02c2ac340111f3e39283883f9bcf6e",
          "topics": [
            "0x29c9a76ad8ab7c718763b6bf354772284236b8c30dbacf79b1bd84d26e767225"
          ],
          "data": "0x0000000000000000000000000000000000000000000000000000000000000000",
          "blockHash": "0x84a4c961048d2cec1cc933a7450f1b163ca7bf1991bb52e3f6c1b31897a1bb54",
          "blockNumber": "0x4e718e",
          "blockTimestamp": "0x67b9cc06",
          "transactionHash": "0x3a8294ef3afaf5bdc2ed6c9e7af993a567c8d923f88e9e7dd8a77ff57583ecf3",
          "transactionIndex": "0x1",
          "logIndex": "0x4",
          "removed": false
        }
      ],
      "logsBloom": "0x00000000000000000000000040000000000000000000000000000000000000040000000000000000000000000000000000000000004000000000000000001000000000000000000000000008000000001000000000000000008048000000000000000004020000000080000004000800000000000000080000000010000000000000000001000000000000000020080000100000000000000000000000000000000000000010000000000000000000008040000000000000000000000000800000000002000000000000000000008000000000000000000000000000000020000000000400000000000200000000000000000000000000000001000000000000",
      "type": "0x2",
      "transactionHash": "0x3a8294ef3afaf5bdc2ed6c9e7af993a567c8d923f88e9e7dd8a77ff57583ecf3",
      "transactionIndex": "0x1",
      "blockHash": "0x84a4c961048d2cec1cc933a7450f1b163ca7bf1991bb52e3f6c1b31897a1bb54",
      "blockNumber": "0x4e718e",
      "gasUsed": "0x36f5c",
      "effectiveGasPrice": "0x8",
      "from": "0xe2bc073e0d55274dba18a0e11463a5dfd16c5057",
      "to": "0x08d649c08a02c2ac340111f3e39283883f9bcf6e",
      "contractAddress": null,
      "l1BaseFeeScalar": "0x558",
      "l1BlobBaseFee": "0xcf9ddd1",
      "l1BlobBaseFeeScalar": "0xc5fc5",
      "l1Fee": "0x5939e7308",
      "l1GasPrice": "0xab7a0917",
      "l1GasUsed": "0x640"
    }
  ],
  "libraries": [],
  "pending": [],
  "returns": {},
  "timestamp": 1740229639,
  "chain": 11155931,
  "commit": "35df5d8"
}