{
  "transactions": [
    {
      "hash": "0x7878e639590b16b5a0725bc9cde4951924ba4169bce6262414c40447e0ad5751",
      "transactionType": "CALL",
      "contractName": null,
      "contractAddress": "0xa540127d90e902863b3f912be752225112058f49",
      "function": "setPrices(address[],(uint256,uint256,uint256,bytes)[])",
      "arguments": [
        "[0x97f3d75FcC683c8F557D637196857FA303f7cebd, 0x37e9b288c56B734c0291d37af478F60cE58a9Fc6]",
        "[(2700000000000000000000, 1741368604, 6641879, 0x9c4190dd3ff97b9f3a5ff2c8cacd973a4464b2eafb51f9389f1622720fec62ec650a82b8927bdf662dcd8060eaa34bd19d9432095cf029c31ff0b9035954d6261c), (1000000000000000000, 1741368604, 6641879, 0xa26df592fa9aaeaa24e5b5816e955d42ed886bb6e2e57b3d1f8955ad0e9654441a9ba4a5c5f16249790cb4bc6d852f97fa00b25465739b84ff568a720d3afd641b)]"
      ],
      "transaction": {
        "from": "0x6efb11ac41b6657c32dac5ed4874082c700bba29",
        "to": "0xa540127d90e902863b3f912be752225112058f49",
        "gas": "0x19438",
        "value": "0x0",
        "input": "0xbd8bab34000000000000000000000000000000000000000000000000000000000000004000000000000000000000000000000000000000000000000000000000000000a0000000000000000000000000000000000000000000000000000000000000000200000000000000000000000097f3d75fcc683c8f557d637196857fa303f7cebd00000000000000000000000037e9b288c56b734c0291d37af478f60ce58a9fc60000000000000000000000000000000000000000000000000000000000000002000000000000000000000000000000000000000000000000000000000000004000000000000000000000000000000000000000000000000000000000000001400000000000000000000000000000000000000000000000925e06eec972b000000000000000000000000000000000000000000000000000000000000067cb2d1c00000000000000000000000000000000000000000000000000000000006558d7000000000000000000000000000000000000000000000000000000000000008000000000000000000000000000000000000000000000000000000000000000419c4190dd3ff97b9f3a5ff2c8cacd973a4464b2eafb51f9389f1622720fec62ec650a82b8927bdf662dcd8060eaa34bd19d9432095cf029c31ff0b9035954d6261c000000000000000000000000000000000000000000000000000000000000000000000000000000000000000000000000000000000000000de0b6b3a76400000000000000000000000000000000000000000000000000000000000067cb2d1c00000000000000000000000000000000000000000000000000000000006558d700000000000000000000000000000000000000000000000000000000000000800000000000000000000000000000000000000000000000000000000000000041a26df592fa9aaeaa24e5b5816e955d42ed886bb6e2e57b3d1f8955ad0e9654441a9ba4a5c5f16249790cb4bc6d852f97fa00b25465739b84ff568a720d3afd641b00000000000000000000000000000000000000000000000000000000000000",
        "nonce": "0x22",
        "chainId": "0x279f"
      },
      "additionalContracts": [],
      "isFixedGasLimit": false
    },
    {
      "hash": "0xeb859874f4a23464027577bafb69d08f7c6b7e9b3b47082d84941867190a0d31",
      "transactionType": "CALL",
      "contractName": null,
      "contractAddress": "0x021b34967eb9ca1d79ab26e1e10ad7f12f90b8d5",
      "function": "liquidatePosition((address,address,address))",
      "arguments": [
        "(0x6EFb11aC41B6657c32dAc5Ed4874082C700BbA29, 0x598B1401148899d37EAf29832d50E62836d1fFa8, 0x97f3d75FcC683c8F557D637196857FA303f7cebd)"
      ],
      "transaction": {
        "from": "0x6efb11ac41b6657c32dac5ed4874082c700bba29",
        "to": "0x021b34967eb9ca1d79ab26e1e10ad7f12f90b8d5",
        "gas": "0x53190",
        "value": "0x0",
        "input": "0xb3dad7b40000000000000000000000006efb11ac41b6657c32dac5ed4874082c700bba29000000000000000000000000598b1401148899d37eaf29832d50e62836d1ffa800000000000000000000000097f3d75fcc683c8f557d637196857fa303f7cebd",
        "nonce": "0x23",
        "chainId": "0x279f"
      },
      "additionalContracts": [],
      "isFixedGasLimit": false
    }
  ],
  "receipts": [
    {
      "status": "0x1",
      "cumulativeGasUsed": "0xb4849a",
      "logs": [
        {
          "address": "0xa540127d90e902863b3f912be752225112058f49",
          "topics": [
            "0x8647dab5101cbe18afb171756e9753802f9d66725bf2346b079b8b1a275e0116"
          ],
          "data": "0x00000000000000000000000097f3d75fcc683c8f557d637196857fa303f7cebd0000000000000000000000000000000000000000000000925e06eec972b000000000000000000000000000000000000000000000000000000000000067cb2d1c00000000000000000000000000000000000000000000000000000000006558d7",
          "blockHash": "0x18c0b0b2d7cf97d9f6acaef861ea8ac5f4e2764edc4a7a386ca226bbf8c2b42d",
          "blockNumber": "0x655904",
          "blockTimestamp": "0x67cb2d32",
          "transactionHash": "0x7878e639590b16b5a0725bc9cde4951924ba4169bce6262414c40447e0ad5751",
          "transactionIndex": "0x5c",
          "logIndex": "0x16b",
          "removed": false
        },
        {
          "address": "0xa540127d90e902863b3f912be752225112058f49",
          "topics": [
            "0x8647dab5101cbe18afb171756e9753802f9d66725bf2346b079b8b1a275e0116"
          ],
          "data": "0x00000000000000000000000037e9b288c56b734c0291d37af478f60ce58a9fc60000000000000000000000000000000000000000000000000de0b6b3a76400000000000000000000000000000000000000000000000000000000000067cb2d1c00000000000000000000000000000000000000000000000000000000006558d7",
          "blockHash": "0x18c0b0b2d7cf97d9f6acaef861ea8ac5f4e2764edc4a7a386ca226bbf8c2b42d",
          "blockNumber": "0x655904",
          "blockTimestamp": "0x67cb2d32",
          "transactionHash": "0x7878e639590b16b5a0725bc9cde4951924ba4169bce6262414c40447e0ad5751",
          "transactionIndex": "0x5c",
          "logIndex": "0x16c",
          "removed": false
        }
      ],
      "logsBloom": "0x00000000000000000000000000000000000000000000000000000000000200000000000000000000000000000000000020000000000000000000000000000000000000000000000000000000000000000000000000000000000000000000000000000000000000000000000000000000000000000000000000000000000000000000000000000000000000000000000000000000000000000400000000000000000000000000000000000000000000000000000000000000000000000000000000000000000000000000000000000000000000000008000000000000000000000000000000000000000000000001000000000040000000000000000000000000",
      "type": "0x2",
      "transactionHash": "0x7878e639590b16b5a0725bc9cde4951924ba4169bce6262414c40447e0ad5751",
      "transactionIndex": "0x5c",
      "blockHash": "0x18c0b0b2d7cf97d9f6acaef861ea8ac5f4e2764edc4a7a386ca226bbf8c2b42d",
      "blockNumber": "0x655904",
      "gasUsed": "0x19438",
      "effectiveGasPrice": "0xba43b7401",
      "from": "0x6efb11ac41b6657c32dac5ed4874082c700bba29",
      "to": "0xa540127d90e902863b3f912be752225112058f49",
      "contractAddress": null
    },
    {
      "status": "0x1",
      "cumulativeGasUsed": "0x78079e",
      "logs": [
        {
          "address": "0x97f3d75fcc683c8f557d637196857fa303f7cebd",
          "topics": [
            "0xddf252ad1be2c89b69c2b068fc378daa952ba7f163c4a11628f55a4df523b3ef",
            "0x000000000000000000000000598b1401148899d37eaf29832d50e62836d1ffa8",
            "0x000000000000000000000000598b1401148899d37eaf29832d50e62836d1ffa8"
          ],
          "data": "0x000000000000000000000000000000000000000000000000002386f26fc10000",
          "blockHash": "0xc83cc248de534649914cb244a5f787e9f107b771c5cc4ce39388557af3e38793",
          "blockNumber": "0x655905",
          "blockTimestamp": "0x67cb2d33",
          "transactionHash": "0xeb859874f4a23464027577bafb69d08f7c6b7e9b3b47082d84941867190a0d31",
          "transactionIndex": "0x3a",
          "logIndex": "0x57",
          "removed": false
        },
        {
          "address": "0x048d2f108677771a51582ba9a8607ab3e1273dda",
          "topics": [
            "0x06380389ced6beb166b3dc4b5f51c82e98a257093591dca57e791694f075b9cb"
          ],
          "data": "0x000000000000000000000000598b1401148899d37eaf29832d50e62836d1ffa800000000000000000000000097f3d75fcc683c8f557d637196857fa303f7cebd0000000000000000000000000000000000000000000000000000000000000000",
          "blockHash": "0xc83cc248de534649914cb244a5f787e9f107b771c5cc4ce39388557af3e38793",
          "blockNumber": "0x655905",
          "blockTimestamp": "0x67cb2d33",
          "transactionHash": "0xeb859874f4a23464027577bafb69d08f7c6b7e9b3b47082d84941867190a0d31",
          "transactionIndex": "0x3a",
          "logIndex": "0x58",
          "removed": false
        },
        {
          "address": "0x048d2f108677771a51582ba9a8607ab3e1273dda",
          "topics": [
            "0x2807eeae251e2dcbe00755179d5498bf18009d163b309afff979dddfcf269f5d"
          ],
          "data": "0x000000000000000000000000598b1401148899d37eaf29832d50e62836d1ffa80000000000000000000000000000000000000000000000000000000000000000",
          "blockHash": "0xc83cc248de534649914cb244a5f787e9f107b771c5cc4ce39388557af3e38793",
          "blockNumber": "0x655905",
          "blockTimestamp": "0x67cb2d33",
          "transactionHash": "0xeb859874f4a23464027577bafb69d08f7c6b7e9b3b47082d84941867190a0d31",
          "transactionIndex": "0x3a",
          "logIndex": "0x59",
          "removed": false
        },
        {
          "address": "0x048d2f108677771a51582ba9a8607ab3e1273dda",
          "topics": [
            "0x8d512526a1bee0a3a4b032b6811a6f5e5d819a2ffd9731b54f220ef188e688f0"
          ],
          "data": "0x000000000000000000000000598b1401148899d37eaf29832d50e62836d1ffa800000000000000000000000000000000000000000000000000005af3107a4000",
          "blockHash": "0xc83cc248de534649914cb244a5f787e9f107b771c5cc4ce39388557af3e38793",
          "blockNumber": "0x655905",
          "blockTimestamp": "0x67cb2d33",
          "transactionHash": "0xeb859874f4a23464027577bafb69d08f7c6b7e9b3b47082d84941867190a0d31",
          "transactionIndex": "0x3a",
          "logIndex": "0x5a",
          "removed": false
        },
        {
          "address": "0x97f3d75fcc683c8f557d637196857fa303f7cebd",
          "topics": [
            "0xddf252ad1be2c89b69c2b068fc378daa952ba7f163c4a11628f55a4df523b3ef",
            "0x000000000000000000000000598b1401148899d37eaf29832d50e62836d1ffa8",
            "0x0000000000000000000000006efb11ac41b6657c32dac5ed4874082c700bba29"
          ],
          "data": "0x00000000000000000000000000000000000000000000000000ae153d89fe8000",
          "blockHash": "0xc83cc248de534649914cb244a5f787e9f107b771c5cc4ce39388557af3e38793",
          "blockNumber": "0x655905",
          "blockTimestamp": "0x67cb2d33",
          "transactionHash": "0xeb859874f4a23464027577bafb69d08f7c6b7e9b3b47082d84941867190a0d31",
          "transactionIndex": "0x3a",
          "logIndex": "0x5b",
          "removed": false
        },
        {
          "address": "0x4760b9a1feb87fe44b1ebd7c2b6f8d3f89b5ab6e",
          "topics": [
            "0x1a85a62917c541e5b9cfaf0cb28e9dc174d2d859d47b5bbce931a68c72e0d4ec"
          ],
          "data": "0x6b8f06e77054e51e5a4a54fdc6363790fe94e0ad807e8b9e642fa38ebe5eeb7a0000000000000000000000006efb11ac41b6657c32dac5ed4874082c700bba29000000000000000000000000598b1401148899d37eaf29832d50e62836d1ffa800000000000000000000000097f3d75fcc683c8f557d637196857fa303f7cebd0000000000000000000000000000000000000000000000000ceb93913de38000000000000000000000000000000000000000000000000000000000000000000000000000000000000000000000000000000000000000000000000000000000000000000000000000000000000000000000000000000000000000000067cb2cfe0000000000000000000000000000000000000000000000000000000067cb2d3300000000000000000000000000000000000000000000000000ae153d89fe80000000000000000000000000000000000000000000000000925e06eec972b000000000000000000000000000006efb11ac41b6657c32dac5ed4874082c700bba29",
          "blockHash": "0xc83cc248de534649914cb244a5f787e9f107b771c5cc4ce39388557af3e38793",
          "blockNumber": "0x655905",
          "blockTimestamp": "0x67cb2d33",
          "transactionHash": "0xeb859874f4a23464027577bafb69d08f7c6b7e9b3b47082d84941867190a0d31",
          "transactionIndex": "0x3a",
          "logIndex": "0x5c",
          "removed": false
        }
      ],
      "logsBloom": "0x00000200000000000200000000000000000000000000000000000000000000000080020000000000000000000000000000000000000100800000000000000000000000000000000020000008000000000002000000000100000000000000020000000000000000000000000000000000000000000000000000010010000000000000000000008000000000000000000000000000000000000000000001000000000000000000000000000000000000000000008000000000000001000000000000100002000000000000080000000008000000000800000000000000000002000120001000000000000000100000000000000000000020008000000000000000",
      "type": "0x2",
      "transactionHash": "0xeb859874f4a23464027577bafb69d08f7c6b7e9b3b47082d84941867190a0d31",
      "transactionIndex": "0x3a",
      "blockHash": "0xc83cc248de534649914cb244a5f787e9f107b771c5cc4ce39388557af3e38793",
      "blockNumber": "0x655905",
      "gasUsed": "0x53190",
      "effectiveGasPrice": "0xba43b7401",
      "from": "0x6efb11ac41b6657c32dac5ed4874082c700bba29",
      "to": "0x021b34967eb9ca1d79ab26e1e10ad7f12f90b8d5",
      "contractAddress": null
    }
  ],
  "libraries": [],
  "pending": [],
  "returns": {},
  "timestamp": 1741368629,
  "chain": 10143,
  "commit": "75ade75"
}