{
  "transactions": [
    {
      "hash": "0xe5f09d60ca7ec691680be4a8cc77e9c7647e057c60b24e09ff22527bad15bcc1",
      "transactionType": "CALL",
      "contractName": null,
      "contractAddress": "0x4fb1d63c0949451a5a8df61aa559fa0f90c54420",
      "function": "setPrices(address[],(uint256,uint256,uint256,bytes)[])",
      "arguments": [
        "[0x97f3d75FcC683c8F557D637196857FA303f7cebd, 0x37e9b288c56B734c0291d37af478F60cE58a9Fc6]",
        "[(2700000000000000000000, 1741409884, 6724149, 0x202d90973f2d473592483b73286748e8ecbbe66cd33d2629f12cc5518a87c181043c92b3e51ed3c55b8fab32340eded5bd70624b18bbac0023a45d03902f305a1b), (1000000000000000000, 1741409884, 6724149, 0x8ce2ea0a5873e1f3eb733601f19a7717e8996b2bd6e9f249877a1140584431de56b22fad13e9193a1c84b3e7557162fc8a8f76d7593a80f8318ff8b227555fa21c)]"
      ],
      "transaction": {
        "from": "0x6efb11ac41b6657c32dac5ed4874082c700bba29",
        "to": "0x4fb1d63c0949451a5a8df61aa559fa0f90c54420",
        "gas": "0x19438",
        "value": "0x0",
        "input": "0xbd8bab34000000000000000000000000000000000000000000000000000000000000004000000000000000000000000000000000000000000000000000000000000000a0000000000000000000000000000000000000000000000000000000000000000200000000000000000000000097f3d75fcc683c8f557d637196857fa303f7cebd00000000000000000000000037e9b288c56b734c0291d37af478f60ce58a9fc60000000000000000000000000000000000000000000000000000000000000002000000000000000000000000000000000000000000000000000000000000004000000000000000000000000000000000000000000000000000000000000001400000000000000000000000000000000000000000000000925e06eec972b000000000000000000000000000000000000000000000000000000000000067cbce5c0000000000000000000000000000000000000000000000000000000000669a3500000000000000000000000000000000000000000000000000000000000000800000000000000000000000000000000000000000000000000000000000000041202d90973f2d473592483b73286748e8ecbbe66cd33d2629f12cc5518a87c181043c92b3e51ed3c55b8fab32340eded5bd70624b18bbac0023a45d03902f305a1b000000000000000000000000000000000000000000000000000000000000000000000000000000000000000000000000000000000000000de0b6b3a76400000000000000000000000000000000000000000000000000000000000067cbce5c0000000000000000000000000000000000000000000000000000000000669a35000000000000000000000000000000000000000000000000000000000000008000000000000000000000000000000000000000000000000000000000000000418ce2ea0a5873e1f3eb733601f19a7717e8996b2bd6e9f249877a1140584431de56b22fad13e9193a1c84b3e7557162fc8a8f76d7593a80f8318ff8b227555fa21c00000000000000000000000000000000000000000000000000000000000000",
        "nonce": "0x4d",
        "chainId": "0x279f"
      },
      "additionalContracts": [],
      "isFixedGasLimit": false
    },
    {
      "hash": "0xa612bd04a03e21d5c9a7ff532dc97e0790d1a033ad4dc1bcf63ee35c3bae3c61",
      "transactionType": "CALL",
      "contractName": null,
      "contractAddress": "0x1b191f344d99a8e8fd09eb33fcbe93396d120339",
      "function": "liquidatePosition((address,address,address))",
      "arguments": [
        "(0x6EFb11aC41B6657c32dAc5Ed4874082C700BbA29, 0xfD16eF40C3A301f7063a1f9c28b90957DF071583, 0x97f3d75FcC683c8F557D637196857FA303f7cebd)"
      ],
      "transaction": {
        "from": "0x6efb11ac41b6657c32dac5ed4874082c700bba29",
        "to": "0x1b191f344d99a8e8fd09eb33fcbe93396d120339",
        "gas": "0x53190",
        "value": "0x0",
        "input": "0xb3dad7b40000000000000000000000006efb11ac41b6657c32dac5ed4874082c700bba29000000000000000000000000fd16ef40c3a301f7063a1f9c28b90957df07158300000000000000000000000097f3d75fcc683c8f557d637196857fa303f7cebd",
        "nonce": "0x4e",
        "chainId": "0x279f"
      },
      "additionalContracts": [],
      "isFixedGasLimit": false
    }
  ],
  "receipts": [
    {
      "status": "0x1",
      "cumulativeGasUsed": "0xa289f3",
      "logs": [
        {
          "address": "0x4fb1d63c0949451a5a8df61aa559fa0f90c54420",
          "topics": [
            "0x8647dab5101cbe18afb171756e9753802f9d66725bf2346b079b8b1a275e0116"
          ],
          "data": "0x00000000000000000000000097f3d75fcc683c8f557d637196857fa303f7cebd0000000000000000000000000000000000000000000000925e06eec972b000000000000000000000000000000000000000000000000000000000000067cbce5c0000000000000000000000000000000000000000000000000000000000669a35",
          "blockHash": "0x94b24b15f1f1155124ec23f0db18a6f762dd7d155af5a352b2ab5bb4db8213d9",
          "blockNumber": "0x669a51",
          "blockTimestamp": "0x67cbce6a",
          "transactionHash": "0xe5f09d60ca7ec691680be4a8cc77e9c7647e057c60b24e09ff22527bad15bcc1",
          "transactionIndex": "0x51",
          "logIndex": "0x8f",
          "removed": false
        },
        {
          "address": "0x4fb1d63c0949451a5a8df61aa559fa0f90c54420",
          "topics": [
            "0x8647dab5101cbe18afb171756e9753802f9d66725bf2346b079b8b1a275e0116"
          ],
          "data": "0x00000000000000000000000037e9b288c56b734c0291d37af478f60ce58a9fc60000000000000000000000000000000000000000000000000de0b6b3a76400000000000000000000000000000000000000000000000000000000000067cbce5c0000000000000000000000000000000000000000000000000000000000669a35",
          "blockHash": "0x94b24b15f1f1155124ec23f0db18a6f762dd7d155af5a352b2ab5bb4db8213d9",
          "blockNumber": "0x669a51",
          "blockTimestamp": "0x67cbce6a",
          "transactionHash": "0xe5f09d60ca7ec691680be4a8cc77e9c7647e057c60b24e09ff22527bad15bcc1",
          "transactionIndex": "0x51",
          "logIndex": "0x90",
          "removed": false
        }
      ],
      "logsBloom": "0x00000000000000000000000000000000000000000000000000000000000200000000000000000000000000000000000000000000000000000000000000000040000000000000000000000000000000000000000000000000000000000000000000000000000000000000000000000000000000000000000000000000000008000000000000000000000000000000000000000000000000000400000000000000000000000000000000000004000000000000000000000000000000000000000000000000000000000000000000000000000000000008000000000000000000000000000000000000000000000000000000000000000000000000000000000000",
      "type": "0x2",
      "transactionHash": "0xe5f09d60ca7ec691680be4a8cc77e9c7647e057c60b24e09ff22527bad15bcc1",
      "transactionIndex": "0x51",
      "blockHash": "0x94b24b15f1f1155124ec23f0db18a6f762dd7d155af5a352b2ab5bb4db8213d9",
      "blockNumber": "0x669a51",
      "gasUsed": "0x19438",
      "effectiveGasPrice": "0xba43b7401",
      "from": "0x6efb11ac41b6657c32dac5ed4874082c700bba29",
      "to": "0x4fb1d63c0949451a5a8df61aa559fa0f90c54420",
      "contractAddress": null
    },
    {
      "status": "0x1",
      "cumulativeGasUsed": "0xc4b68a",
      "logs": [
        {
          "address": "0x97f3d75fcc683c8f557d637196857fa303f7cebd",
          "topics": [
            "0xddf252ad1be2c89b69c2b068fc378daa952ba7f163c4a11628f55a4df523b3ef",
            "0x000000000000000000000000fd16ef40c3a301f7063a1f9c28b90957df071583",
            "0x000000000000000000000000fd16ef40c3a301f7063a1f9c28b90957df071583"
          ],
          "data": "0x000000000000000000000000000000000000000000000000002386f26fc10000",
          "blockHash": "0x30d34119a53e8184f2986440c5ff0966447ebecb675a54f466bccd37df76f452",
          "blockNumber": "0x669a52",
          "blockTimestamp": "0x67cbce6a",
          "transactionHash": "0xa612bd04a03e21d5c9a7ff532dc97e0790d1a033ad4dc1bcf63ee35c3bae3c61",
          "transactionIndex": "0x5d",
          "logIndex": "0x77",
          "removed": false
        },
        {
          "address": "0xb21421b186e33196584c302a298e7d3ccc04043c",
          "topics": [
            "0x06380389ced6beb166b3dc4b5f51c82e98a257093591dca57e791694f075b9cb"
          ],
          "data": "0x000000000000000000000000fd16ef40c3a301f7063a1f9c28b90957df07158300000000000000000000000097f3d75fcc683c8f557d637196857fa303f7cebd0000000000000000000000000000000000000000000000000000000000000000",
          "blockHash": "0x30d34119a53e8184f2986440c5ff0966447ebecb675a54f466bccd37df76f452",
          "blockNumber": "0x669a52",
          "blockTimestamp": "0x67cbce6a",
          "transactionHash": "0xa612bd04a03e21d5c9a7ff532dc97e0790d1a033ad4dc1bcf63ee35c3bae3c61",
          "transactionIndex": "0x5d",
          "logIndex": "0x78",
          "removed": false
        },
        {
          "address": "0xb21421b186e33196584c302a298e7d3ccc04043c",
          "topics": [
            "0x2807eeae251e2dcbe00755179d5498bf18009d163b309afff979dddfcf269f5d"
          ],
          "data": "0x000000000000000000000000fd16ef40c3a301f7063a1f9c28b90957df0715830000000000000000000000000000000000000000000000000000000000000000",
          "blockHash": "0x30d34119a53e8184f2986440c5ff0966447ebecb675a54f466bccd37df76f452",
          "blockNumber": "0x669a52",
          "blockTimestamp": "0x67cbce6a",
          "transactionHash": "0xa612bd04a03e21d5c9a7ff532dc97e0790d1a033ad4dc1bcf63ee35c3bae3c61",
          "transactionIndex": "0x5d",
          "logIndex": "0x79",
          "removed": false
        },
        {
          "address": "0xb21421b186e33196584c302a298e7d3ccc04043c",
          "topics": [
            "0x8d512526a1bee0a3a4b032b6811a6f5e5d819a2ffd9731b54f220ef188e688f0"
          ],
          "data": "0x000000000000000000000000fd16ef40c3a301f7063a1f9c28b90957df07158300000000000000000000000000000000000000000000000000005af3107a4000",
          "blockHash": "0x30d34119a53e8184f2986440c5ff0966447ebecb675a54f466bccd37df76f452",
          "blockNumber": "0x669a52",
          "blockTimestamp": "0x67cbce6a",
          "transactionHash": "0xa612bd04a03e21d5c9a7ff532dc97e0790d1a033ad4dc1bcf63ee35c3bae3c61",
          "transactionIndex": "0x5d",
          "logIndex": "0x7a",
          "removed": false
        },
        {
          "address": "0x97f3d75fcc683c8f557d637196857fa303f7cebd",
          "topics": [
            "0xddf252ad1be2c89b69c2b068fc378daa952ba7f163c4a11628f55a4df523b3ef",
            "0x000000000000000000000000fd16ef40c3a301f7063a1f9c28b90957df071583",
            "0x0000000000000000000000006efb11ac41b6657c32dac5ed4874082c700bba29"
          ],
          "data": "0x00000000000000000000000000000000000000000000000000ae153d89fe8000",
          "blockHash": "0x30d34119a53e8184f2986440c5ff0966447ebecb675a54f466bccd37df76f452",
          "blockNumber": "0x669a52",
          "blockTimestamp": "0x67cbce6a",
          "transactionHash": "0xa612bd04a03e21d5c9a7ff532dc97e0790d1a033ad4dc1bcf63ee35c3bae3c61",
          "transactionIndex": "0x5d",
          "logIndex": "0x7b",
          "removed": false
        },
        {
          "address": "0xdd5468dbd2ff946af0368775b83c21d5c427c85c",
          "topics": [
            "0x1a85a62917c541e5b9cfaf0cb28e9dc174d2d859d47b5bbce931a68c72e0d4ec"
          ],
          "data": "0xa74e52f4caadcf37cf88c6513efc319aa53c4f3efb40b4cf498a4f2d0ffa42250000000000000000000000006efb11ac41b6657c32dac5ed4874082c700bba29000000000000000000000000fd16ef40c3a301f7063a1f9c28b90957df07158300000000000000000000000097f3d75fcc683c8f557d637196857fa303f7cebd0000000000000000000000000000000000000000000000000ceb93913de38000000000000000000000000000000000000000000000000000000000000000000000000000000000000000000000000000000000000000000000000000000000000000000000000000000000000000000000000000000000000000000067cbce540000000000000000000000000000000000000000000000000000000067cbce6a00000000000000000000000000000000000000000000000000ae153d89fe80000000000000000000000000000000000000000000000000925e06eec972b000000000000000000000000000006efb11ac41b6657c32dac5ed4874082c700bba29",
          "blockHash": "0x30d34119a53e8184f2986440c5ff0966447ebecb675a54f466bccd37df76f452",
          "blockNumber": "0x669a52",
          "blockTimestamp": "0x67cbce6a",
          "transactionHash": "0xa612bd04a03e21d5c9a7ff532dc97e0790d1a033ad4dc1bcf63ee35c3bae3c61",
          "transactionIndex": "0x5d",
          "logIndex": "0x7c",
          "removed": false
        }
      ],
      "logsBloom": "0x00000000000000000200000000000000000000040000000000000000000000000080020000000000040000000200000000000000000100000000000000000000000000000000000000000008000000000002000000000100000000000000000000000000000000000002000000000000000000000000000000010010000000000000000100008000000000000000080000080000000000000000000000000000000000000000000000000000000000000000008000000000000001000000000000000002000004000000080000000000000000000800000000000000000000000120001000000000000004100000000000000000000020008000000000000000",
      "type": "0x2",
      "transactionHash": "0xa612bd04a03e21d5c9a7ff532dc97e0790d1a033ad4dc1bcf63ee35c3bae3c61",
      "transactionIndex": "0x5d",
      "blockHash": "0x30d34119a53e8184f2986440c5ff0966447ebecb675a54f466bccd37df76f452",
      "blockNumber": "0x669a52",
      "gasUsed": "0x53190",
      "effectiveGasPrice": "0xba43b7401",
      "from": "0x6efb11ac41b6657c32dac5ed4874082c700bba29",
      "to": "0x1b191f344d99a8e8fd09eb33fcbe93396d120339",
      "contractAddress": null
    }
  ],
  "libraries": [],
  "pending": [],
  "returns": {},
  "timestamp": 1741409900,
  "chain": 10143,
  "commit": "75ade75"
}