{
  "transactions": [
    {
      "hash": "0xf58466e7a2cfa684e35f164559b9d2747926acc52588fb8ce3eefafd9c09661b",
      "transactionType": "CALL",
      "contractName": null,
      "contractAddress": "0x7628a394696eabbc615c98e3df5efd34880328b2",
      "function": "executeDeposit(uint256)",
      "arguments": [
        "0"
      ],
      "transaction": {
        "from": "0x6efb11ac41b6657c32dac5ed4874082c700bba29",
        "to": "0x7628a394696eabbc615c98e3df5efd34880328b2",
        "gas": "0x2dc6c0",
        "value": "0x0",
        "input": "0x7026e9fd0000000000000000000000000000000000000000000000000000000000000000",
        "nonce": "0x109",
        "chainId": "0x279f"
      },
      "additionalContracts": [],
      "isFixedGasLimit": true
    },
    {
      "hash": "0x73b0d4203fec3e6f27faa0a0ca71f73189d4fbe23a075937ae864a191d18db98",
      "transactionType": "CALL",
      "contractName": null,
      "contractAddress": "0x7628a394696eabbc615c98e3df5efd34880328b2",
      "function": "executeDeposit(uint256)",
      "arguments": [
        "3"
      ],
      "transaction": {
        "from": "0x6efb11ac41b6657c32dac5ed4874082c700bba29",
        "to": "0x7628a394696eabbc615c98e3df5efd34880328b2",
        "gas": "0x2dc6c0",
        "value": "0x0",
        "input": "0x7026e9fd0000000000000000000000000000000000000000000000000000000000000003",
        "nonce": "0x10a",
        "chainId": "0x279f"
      },
      "additionalContracts": [],
      "isFixedGasLimit": true
    },
    {
      "hash": "0x108f3c9714f788a2445588d0eeecc07fda39d9a1d7f7bdc55087a8ba15cf69a7",
      "transactionType": "CALL",
      "contractName": null,
      "contractAddress": "0x7628a394696eabbc615c98e3df5efd34880328b2",
      "function": "executeDeposit(uint256)",
      "arguments": [
        "4"
      ],
      "transaction": {
        "from": "0x6efb11ac41b6657c32dac5ed4874082c700bba29",
        "to": "0x7628a394696eabbc615c98e3df5efd34880328b2",
        "gas": "0x2dc6c0",
        "value": "0x0",
        "input": "0x7026e9fd0000000000000000000000000000000000000000000000000000000000000004",
        "nonce": "0x10b",
        "chainId": "0x279f"
      },
      "additionalContracts": [],
      "isFixedGasLimit": true
    },
    {
      "hash": "0x005058670f3c4da06a1ab87c5ba29ca0f77acdc5f2c5f999c750e162ed471a53",
      "transactionType": "CALL",
      "contractName": null,
      "contractAddress": "0x7628a394696eabbc615c98e3df5efd34880328b2",
      "function": "executeDeposit(uint256)",
      "arguments": [
        "5"
      ],
      "transaction": {
        "from": "0x6efb11ac41b6657c32dac5ed4874082c700bba29",
        "to": "0x7628a394696eabbc615c98e3df5efd34880328b2",
        "gas": "0x2dc6c0",
        "value": "0x0",
        "input": "0x7026e9fd0000000000000000000000000000000000000000000000000000000000000005",
        "nonce": "0x10c",
        "chainId": "0x279f"
      },
      "additionalContracts": [],
      "isFixedGasLimit": true
    },
    {
      "hash": "0x48b832f30a7b2ec0cdea56a9dce495f16530edd1d5de20aac05b5eedeb4bcbb4",
      "transactionType": "CALL",
      "contractName": null,
      "contractAddress": "0x7628a394696eabbc615c98e3df5efd34880328b2",
      "function": "executeDeposit(uint256)",
      "arguments": [
        "6"
      ],
      "transaction": {
        "from": "0x6efb11ac41b6657c32dac5ed4874082c700bba29",
        "to": "0x7628a394696eabbc615c98e3df5efd34880328b2",
        "gas": "0x2dc6c0",
        "value": "0x0",
        "input": "0x7026e9fd0000000000000000000000000000000000000000000000000000000000000006",
        "nonce": "0x10d",
        "chainId": "0x279f"
      },
      "additionalContracts": [],
      "isFixedGasLimit": true
    },
    {
      "hash": "0x3964fab2226f00dd3dbbd5d5f56e2fe2ab730884e5ce562faf5ae6244c6979cd",
      "transactionType": "CALL",
      "contractName": null,
      "contractAddress": "0x7628a394696eabbc615c98e3df5efd34880328b2",
      "function": "executeDeposit(uint256)",
      "arguments": [
        "7"
      ],
      "transaction": {
        "from": "0x6efb11ac41b6657c32dac5ed4874082c700bba29",
        "to": "0x7628a394696eabbc615c98e3df5efd34880328b2",
        "gas": "0x2dc6c0",
        "value": "0x0",
        "input": "0x7026e9fd0000000000000000000000000000000000000000000000000000000000000007",
        "nonce": "0x10e",
        "chainId": "0x279f"
      },
      "additionalContracts": [],
      "isFixedGasLimit": true
    },
    {
      "hash": "0x459ff5fcf2181f1f5bbe89c8b2339b153f3088c2b3a2e7d5fb900299dcb5572a",
      "transactionType": "CALL",
      "contractName": null,
      "contractAddress": "0x7628a394696eabbc615c98e3df5efd34880328b2",
      "function": "executeDeposit(uint256)",
      "arguments": [
        "8"
      ],
      "transaction": {
        "from": "0x6efb11ac41b6657c32dac5ed4874082c700bba29",
        "to": "0x7628a394696eabbc615c98e3df5efd34880328b2",
        "gas": "0x2dc6c0",
        "value": "0x0",
        "input": "0x7026e9fd0000000000000000000000000000000000000000000000000000000000000008",
        "nonce": "0x10f",
        "chainId": "0x279f"
      },
      "additionalContracts": [],
      "isFixedGasLimit": true
    },
    {
      "hash": "0x18804c7c184b1aaffab2db2e3083cc6f73610a36f08ab3c4fc3acbce912519ea",
      "transactionType": "CALL",
      "contractName": null,
      "contractAddress": "0x7628a394696eabbc615c98e3df5efd34880328b2",
      "function": "executeDeposit(uint256)",
      "arguments": [
        "9"
      ],
      "transaction": {
        "from": "0x6efb11ac41b6657c32dac5ed4874082c700bba29",
        "to": "0x7628a394696eabbc615c98e3df5efd34880328b2",
        "gas": "0x2dc6c0",
        "value": "0x0",
        "input": "0x7026e9fd0000000000000000000000000000000000000000000000000000000000000009",
        "nonce": "0x110",
        "chainId": "0x279f"
      },
      "additionalContracts": [],
      "isFixedGasLimit": true
    },
    {
      "hash": "0xf8153aadfde23fdfef0e27a59209ae471f6abb96369e169f13add17a1b495688",
      "transactionType": "CALL",
      "contractName": null,
      "contractAddress": "0x7628a394696eabbc615c98e3df5efd34880328b2",
      "function": "executeDeposit(uint256)",
      "arguments": [
        "10"
      ],
      "transaction": {
        "from": "0x6efb11ac41b6657c32dac5ed4874082c700bba29",
        "to": "0x7628a394696eabbc615c98e3df5efd34880328b2",
        "gas": "0x2dc6c0",
        "value": "0x0",
        "input": "0x7026e9fd000000000000000000000000000000000000000000000000000000000000000a",
        "nonce": "0x111",
        "chainId": "0x279f"
      },
      "additionalContracts": [],
      "isFixedGasLimit": true
    }
  ],
  "receipts": [
    {
      "status": "0x1",
      "cumulativeGasUsed": "0x10353a2",
      "logs": [
        {
          "address": "0x2c53ce7143d24a65410107f50e4aabad9a164480",
          "topics": [
            "0xddf252ad1be2c89b69c2b068fc378daa952ba7f163c4a11628f55a4df523b3ef",
            "0x0000000000000000000000009a5141cf9f68ce4dd9f02ea7722455f3beaa9339",
            "0x000000000000000000000000d0cb401840c5efac575e1fe57a308c396e73fbe0"
          ],
          "data": "0x0000000000000000000000000000000000000000000000056bc75e2d63100000",
          "blockHash": "0x38fa272864fc2e10c98a6fb81e7e51e28d826c625a883a5623789a238adde072",
          "blockNumber": "0x722aa2",
          "blockTimestamp": "0x67d1dcfc",
          "transactionHash": "0xf58466e7a2cfa684e35f164559b9d2747926acc52588fb8ce3eefafd9c09661b",
          "transactionIndex": "0x9a",
          "logIndex": "0xd8",
          "removed": false
        },
        {
          "address": "0x58389610a3d13e8f380ee2ba077a6f36f2a90834",
          "topics": [
            "0xddf252ad1be2c89b69c2b068fc378daa952ba7f163c4a11628f55a4df523b3ef",
            "0x0000000000000000000000009a5141cf9f68ce4dd9f02ea7722455f3beaa9339",
            "0x000000000000000000000000d0cb401840c5efac575e1fe57a308c396e73fbe0"
          ],
          "data": "0x0000000000000000000000000000000000000000000000000000008bb2c97000",
          "blockHash": "0x38fa272864fc2e10c98a6fb81e7e51e28d826c625a883a5623789a238adde072",
          "blockNumber": "0x722aa2",
          "blockTimestamp": "0x67d1dcfc",
          "transactionHash": "0xf58466e7a2cfa684e35f164559b9d2747926acc52588fb8ce3eefafd9c09661b",
          "transactionIndex": "0x9a",
          "logIndex": "0xd9",
          "removed": false
        },
        {
          "address": "0x2c53ce7143d24a65410107f50e4aabad9a164480",
          "topics": [
            "0xddf252ad1be2c89b69c2b068fc378daa952ba7f163c4a11628f55a4df523b3ef",
            "0x0000000000000000000000009a5141cf9f68ce4dd9f02ea7722455f3beaa9339",
            "0x0000000000000000000000006efb11ac41b6657c32dac5ed4874082c700bba29"
          ],
          "data": "0x000000000000000000000000000000000000000000000000000000003b9aca00",
          "blockHash": "0x38fa272864fc2e10c98a6fb81e7e51e28d826c625a883a5623789a238adde072",
          "blockNumber": "0x722aa2",
          "blockTimestamp": "0x67d1dcfc",
          "transactionHash": "0xf58466e7a2cfa684e35f164559b9d2747926acc52588fb8ce3eefafd9c09661b",
          "transactionIndex": "0x9a",
          "logIndex": "0xda",
          "removed": false
        },
        {
          "address": "0xd0cb401840c5efac575e1fe57a308c396e73fbe0",
          "topics": [
            "0xddf252ad1be2c89b69c2b068fc378daa952ba7f163c4a11628f55a4df523b3ef",
            "0x0000000000000000000000000000000000000000000000000000000000000000",
            "0x0000000000000000000000006efb11ac41b6657c32dac5ed4874082c700bba29"
          ],
          "data": "0x00000000000000000000000000000000000000000000a78ebfbcdbec2bd2aff4",
          "blockHash": "0x38fa272864fc2e10c98a6fb81e7e51e28d826c625a883a5623789a238adde072",
          "blockNumber": "0x722aa2",
          "blockTimestamp": "0x67d1dcfc",
          "transactionHash": "0xf58466e7a2cfa684e35f164559b9d2747926acc52588fb8ce3eefafd9c09661b",
          "transactionIndex": "0x9a",
          "logIndex": "0xdb",
          "removed": false
        },
        {
          "address": "0x7628a394696eabbc615c98e3df5efd34880328b2",
          "topics": [
            "0x29c9a76ad8ab7c718763b6bf354772284236b8c30dbacf79b1bd84d26e767225"
          ],
          "data": "0x0000000000000000000000000000000000000000000000000000000000000000",
          "blockHash": "0x38fa272864fc2e10c98a6fb81e7e51e28d826c625a883a5623789a238adde072",
          "blockNumber": "0x722aa2",
          "blockTimestamp": "0x67d1dcfc",
          "transactionHash": "0xf58466e7a2cfa684e35f164559b9d2747926acc52588fb8ce3eefafd9c09661b",
          "transactionIndex": "0x9a",
          "logIndex": "0xdc",
          "removed": false
        }
      ],
      "logsBloom": "0x00000000000000000200000000000000000000000000000000000000000000000000080000000000000000000000000000001000004100000200000000400000000000000000008000000008000000000000000000000400001000000000000000000000020000000000000000000800100000000000000000000010000000000000000001000000000000000000000000000000000000000000000001000000000000000000000040000100000000040000000000000000000001000000804000000002000000000000000000000000000000014000000040000000000020010000001000000000000000000000000000000000000000000000000000000000",
      "type": "0x2",
      "transactionHash": "0xf58466e7a2cfa684e35f164559b9d2747926acc52588fb8ce3eefafd9c09661b",
      "transactionIndex": "0x9a",
      "blockHash": "0x38fa272864fc2e10c98a6fb81e7e51e28d826c625a883a5623789a238adde072",
      "blockNumber": "0x722aa2",
      "gasUsed": "0x2dc6c0",
      "effectiveGasPrice": "0xba43b7401",
      "from": "0x6efb11ac41b6657c32dac5ed4874082c700bba29",
      "to": "0x7628a394696eabbc615c98e3df5efd34880328b2",
      "contractAddress": null
    },
    {
      "status": "0x1",
      "cumulativeGasUsed": "0x1311a62",
      "logs": [
        {
          "address": "0x1889cfb8746716a0ac50e59a54f190987c5f04e6",
          "topics": [
            "0xddf252ad1be2c89b69c2b068fc378daa952ba7f163c4a11628f55a4df523b3ef",
            "0x0000000000000000000000009a5141cf9f68ce4dd9f02ea7722455f3beaa9339",
            "0x0000000000000000000000005f5054ee2a7bc2617565b5b79f35573aa6139481"
          ],
          "data": "0x00000000000000000000000000000000000000000000000000005af3107a4000",
          "blockHash": "0x38fa272864fc2e10c98a6fb81e7e51e28d826c625a883a5623789a238adde072",
          "blockNumber": "0x722aa2",
          "blockTimestamp": "0x67d1dcfc",
          "transactionHash": "0x73b0d4203fec3e6f27faa0a0ca71f73189d4fbe23a075937ae864a191d18db98",
          "transactionIndex": "0x9b",
          "logIndex": "0xdd",
          "removed": false
        },
        {
          "address": "0x58389610a3d13e8f380ee2ba077a6f36f2a90834",
          "topics": [
            "0xddf252ad1be2c89b69c2b068fc378daa952ba7f163c4a11628f55a4df523b3ef",
            "0x0000000000000000000000009a5141cf9f68ce4dd9f02ea7722455f3beaa9339",
            "0x0000000000000000000000005f5054ee2a7bc2617565b5b79f35573aa6139481"
          ],
          "data": "0x00000000000000000000000000000000000000000000000000000045d964b800",
          "blockHash": "0x38fa272864fc2e10c98a6fb81e7e51e28d826c625a883a5623789a238adde072",
          "blockNumber": "0x722aa2",
          "blockTimestamp": "0x67d1dcfc",
          "transactionHash": "0x73b0d4203fec3e6f27faa0a0ca71f73189d4fbe23a075937ae864a191d18db98",
          "transactionIndex": "0x9b",
          "logIndex": "0xde",
          "removed": false
        },
        {
          "address": "0x2c53ce7143d24a65410107f50e4aabad9a164480",
          "topics": [
            "0xddf252ad1be2c89b69c2b068fc378daa952ba7f163c4a11628f55a4df523b3ef",
            "0x0000000000000000000000009a5141cf9f68ce4dd9f02ea7722455f3beaa9339",
            "0x0000000000000000000000006efb11ac41b6657c32dac5ed4874082c700bba29"
          ],
          "data": "0x000000000000000000000000000000000000000000000000000000003b9aca00",
          "blockHash": "0x38fa272864fc2e10c98a6fb81e7e51e28d826c625a883a5623789a238adde072",
          "blockNumber": "0x722aa2",
          "blockTimestamp": "0x67d1dcfc",
          "transactionHash": "0x73b0d4203fec3e6f27faa0a0ca71f73189d4fbe23a075937ae864a191d18db98",
          "transactionIndex": "0x9b",
          "logIndex": "0xdf",
          "removed": false
        },
        {
          "address": "0x5f5054ee2a7bc2617565b5b79f35573aa6139481",
          "topics": [
            "0xddf252ad1be2c89b69c2b068fc378daa952ba7f163c4a11628f55a4df523b3ef",
            "0x0000000000000000000000000000000000000000000000000000000000000000",
            "0x0000000000000000000000006efb11ac41b6657c32dac5ed4874082c700bba29"
          ],
          "data": "0x0000000000000000000000000000000000000000000053f5937e863a135e3c40",
          "blockHash": "0x38fa272864fc2e10c98a6fb81e7e51e28d826c625a883a5623789a238adde072",
          "blockNumber": "0x722aa2",
          "blockTimestamp": "0x67d1dcfc",
          "transactionHash": "0x73b0d4203fec3e6f27faa0a0ca71f73189d4fbe23a075937ae864a191d18db98",
          "transactionIndex": "0x9b",
          "logIndex": "0xe0",
          "removed": false
        },
        {
          "address": "0x7628a394696eabbc615c98e3df5efd34880328b2",
          "topics": [
            "0x29c9a76ad8ab7c718763b6bf354772284236b8c30dbacf79b1bd84d26e767225"
          ],
          "data": "0x0000000000000000000000000000000000000000000000000000000000000003",
          "blockHash": "0x38fa272864fc2e10c98a6fb81e7e51e28d826c625a883a5623789a238adde072",
          "blockNumber": "0x722aa2",
          "blockTimestamp": "0x67d1dcfc",
          "transactionHash": "0x73b0d4203fec3e6f27faa0a0ca71f73189d4fbe23a075937ae864a191d18db98",
          "transactionIndex": "0x9b",
          "logIndex": "0xe1",
          "removed": false
        }
      ],
      "logsBloom": "0x00000000000000000200000000000000000000000000000000000000000000000000000000000000000000000000000000001000004100000000000000600000000000000000000000000008000000000000000004000400001400000000000008200004020000000000000000000800100000000000000000000010000000000000000001000000000000000000000000000000000000000000000001000000000000000000100000000100000000040000000000000000000001000000800000000002000000000000000000000000000000010000000040000000000020010000003080000000000000000000000000000000000000000000000000000000",
      "type": "0x2",
      "transactionHash": "0x73b0d4203fec3e6f27faa0a0ca71f73189d4fbe23a075937ae864a191d18db98",
      "transactionIndex": "0x9b",
      "blockHash": "0x38fa272864fc2e10c98a6fb81e7e51e28d826c625a883a5623789a238adde072",
      "blockNumber": "0x722aa2",
      "gasUsed": "0x2dc6c0",
      "effectiveGasPrice": "0xba43b7401",
      "from": "0x6efb11ac41b6657c32dac5ed4874082c700bba29",
      "to": "0x7628a394696eabbc615c98e3df5efd34880328b2",
      "contractAddress": null
    },
    {
      "status": "0x1",
      "cumulativeGasUsed": "0x15ee122",
      "logs": [
        {
          "address": "0x6bc8a42d4b2f4bc8e4c3f9ecff00b7290ffa7405",
          "topics": [
            "0xddf252ad1be2c89b69c2b068fc378daa952ba7f163c4a11628f55a4df523b3ef",
            "0x0000000000000000000000009a5141cf9f68ce4dd9f02ea7722455f3beaa9339",
            "0x00000000000000000000000037ee6083d1191b00eda1f6304c9a60695bfee8da"
          ],
          "data": "0x0000000000000000000000000000000000000000000069e10de76676d0800000",
          "blockHash": "0x38fa272864fc2e10c98a6fb81e7e51e28d826c625a883a5623789a238adde072",
          "blockNumber": "0x722aa2",
          "blockTimestamp": "0x67d1dcfc",
          "transactionHash": "0x108f3c9714f788a2445588d0eeecc07fda39d9a1d7f7bdc55087a8ba15cf69a7",
          "transactionIndex": "0x9c",
          "logIndex": "0xe2",
          "removed": false
        },
        {
          "address": "0x58389610a3d13e8f380ee2ba077a6f36f2a90834",
          "topics": [
            "0xddf252ad1be2c89b69c2b068fc378daa952ba7f163c4a11628f55a4df523b3ef",
            "0x0000000000000000000000009a5141cf9f68ce4dd9f02ea7722455f3beaa9339",
            "0x00000000000000000000000037ee6083d1191b00eda1f6304c9a60695bfee8da"
          ],
          "data": "0x0000000000000000000000000000000000000000000000000000001176592e00",
          "blockHash": "0x38fa272864fc2e10c98a6fb81e7e51e28d826c625a883a5623789a238adde072",
          "blockNumber": "0x722aa2",
          "blockTimestamp": "0x67d1dcfc",
          "transactionHash": "0x108f3c9714f788a2445588d0eeecc07fda39d9a1d7f7bdc55087a8ba15cf69a7",
          "transactionIndex": "0x9c",
          "logIndex": "0xe3",
          "removed": false
        },
        {
          "address": "0x2c53ce7143d24a65410107f50e4aabad9a164480",
          "topics": [
            "0xddf252ad1be2c89b69c2b068fc378daa952ba7f163c4a11628f55a4df523b3ef",
            "0x0000000000000000000000009a5141cf9f68ce4dd9f02ea7722455f3beaa9339",
            "0x0000000000000000000000006efb11ac41b6657c32dac5ed4874082c700bba29"
          ],
          "data": "0x000000000000000000000000000000000000000000000000000000003b9aca00",
          "blockHash": "0x38fa272864fc2e10c98a6fb81e7e51e28d826c625a883a5623789a238adde072",
          "blockNumber": "0x722aa2",
          "blockTimestamp": "0x67d1dcfc",
          "transactionHash": "0x108f3c9714f788a2445588d0eeecc07fda39d9a1d7f7bdc55087a8ba15cf69a7",
          "transactionIndex": "0x9c",
          "logIndex": "0xe4",
          "removed": false
        },
        {
          "address": "0x37ee6083d1191b00eda1f6304c9a60695bfee8da",
          "topics": [
            "0xddf252ad1be2c89b69c2b068fc378daa952ba7f163c4a11628f55a4df523b3ef",
            "0x0000000000000000000000000000000000000000000000000000000000000000",
            "0x0000000000000000000000006efb11ac41b6657c32dac5ed4874082c700bba29"
          ],
          "data": "0x0000000000000000000000000000000000000000000015594cc3d9fb0b66fd00",
          "blockHash": "0x38fa272864fc2e10c98a6fb81e7e51e28d826c625a883a5623789a238adde072",
          "blockNumber": "0x722aa2",
          "blockTimestamp": "0x67d1dcfc",
          "transactionHash": "0x108f3c9714f788a2445588d0eeecc07fda39d9a1d7f7bdc55087a8ba15cf69a7",
          "transactionIndex": "0x9c",
          "logIndex": "0xe5",
          "removed": false
        },
        {
          "address": "0x7628a394696eabbc615c98e3df5efd34880328b2",
          "topics": [
            "0x29c9a76ad8ab7c718763b6bf354772284236b8c30dbacf79b1bd84d26e767225"
          ],
          "data": "0x0000000000000000000000000000000000000000000000000000000000000004",
          "blockHash": "0x38fa272864fc2e10c98a6fb81e7e51e28d826c625a883a5623789a238adde072",
          "blockNumber": "0x722aa2",
          "blockTimestamp": "0x67d1dcfc",
          "transactionHash": "0x108f3c9714f788a2445588d0eeecc07fda39d9a1d7f7bdc55087a8ba15cf69a7",
          "transactionIndex": "0x9c",
          "logIndex": "0xe6",
          "removed": false
        }
      ],
      "logsBloom": "0x00000000000000000200000000000000000000000000000000000000000000000000000020000000000000000000000000003000004100000400000000400000000000000000000000000008000000000000000000000400001000000000000000000000020000000000000000000800100000000000000000000010000000000000000001000000000000000000000000000000000001000000000001000000000000000200000000000100000000040000000000000000000001000000800000000002000000000000000000002000000000010000000040001802000020010000001000000000000000000000000000000000000000000000000000000000",
      "type": "0x2",
      "transactionHash": "0x108f3c9714f788a2445588d0eeecc07fda39d9a1d7f7bdc55087a8ba15cf69a7",
      "transactionIndex": "0x9c",
      "blockHash": "0x38fa272864fc2e10c98a6fb81e7e51e28d826c625a883a5623789a238adde072",
      "blockNumber": "0x722aa2",
      "gasUsed": "0x2dc6c0",
      "effectiveGasPrice": "0xba43b7401",
      "from": "0x6efb11ac41b6657c32dac5ed4874082c700bba29",
      "to": "0x7628a394696eabbc615c98e3df5efd34880328b2",
      "contractAddress": null
    },
    {
      "status": "0x1",
      "cumulativeGasUsed": "0x18ca7e2",
      "logs": [
        {
          "address": "0xe3f98fda6dbd38c1017754f1675dce377381c23c",
          "topics": [
            "0xddf252ad1be2c89b69c2b068fc378daa952ba7f163c4a11628f55a4df523b3ef",
            "0x0000000000000000000000009a5141cf9f68ce4dd9f02ea7722455f3beaa9339",
            "0x0000000000000000000000008e3e87de2503661f3b4879a9743f3fe3d347be52"
          ],
          "data": "0x00000000000000000000000000000000000000000000021e19e0c9bab2400000",
          "blockHash": "0x38fa272864fc2e10c98a6fb81e7e51e28d826c625a883a5623789a238adde072",
          "blockNumber": "0x722aa2",
          "blockTimestamp": "0x67d1dcfc",
          "transactionHash": "0x005058670f3c4da06a1ab87c5ba29ca0f77acdc5f2c5f999c750e162ed471a53",
          "transactionIndex": "0x9d",
          "logIndex": "0xe7",
          "removed": false
        },
        {
          "address": "0x58389610a3d13e8f380ee2ba077a6f36f2a90834",
          "topics": [
            "0xddf252ad1be2c89b69c2b068fc378daa952ba7f163c4a11628f55a4df523b3ef",
            "0x0000000000000000000000009a5141cf9f68ce4dd9f02ea7722455f3beaa9339",
            "0x0000000000000000000000008e3e87de2503661f3b4879a9743f3fe3d347be52"
          ],
          "data": "0x00000000000000000000000000000000000000000000000000000068c6171400",
          "blockHash": "0x38fa272864fc2e10c98a6fb81e7e51e28d826c625a883a5623789a238adde072",
          "blockNumber": "0x722aa2",
          "blockTimestamp": "0x67d1dcfc",
          "transactionHash": "0x005058670f3c4da06a1ab87c5ba29ca0f77acdc5f2c5f999c750e162ed471a53",
          "transactionIndex": "0x9d",
          "logIndex": "0xe8",
          "removed": false
        },
        {
          "address": "0x2c53ce7143d24a65410107f50e4aabad9a164480",
          "topics": [
            "0xddf252ad1be2c89b69c2b068fc378daa952ba7f163c4a11628f55a4df523b3ef",
            "0x0000000000000000000000009a5141cf9f68ce4dd9f02ea7722455f3beaa9339",
            "0x0000000000000000000000006efb11ac41b6657c32dac5ed4874082c700bba29"
          ],
          "data": "0x000000000000000000000000000000000000000000000000000000003b9aca00",
          "blockHash": "0x38fa272864fc2e10c98a6fb81e7e51e28d826c625a883a5623789a238adde072",
          "blockNumber": "0x722aa2",
          "blockTimestamp": "0x67d1dcfc",
          "transactionHash": "0x005058670f3c4da06a1ab87c5ba29ca0f77acdc5f2c5f999c750e162ed471a53",
          "transactionIndex": "0x9d",
          "logIndex": "0xe9",
          "removed": false
        },
        {
          "address": "0x8e3e87de2503661f3b4879a9743f3fe3d347be52",
          "topics": [
            "0xddf252ad1be2c89b69c2b068fc378daa952ba7f163c4a11628f55a4df523b3ef",
            "0x0000000000000000000000000000000000000000000000000000000000000000",
            "0x0000000000000000000000006efb11ac41b6657c32dac5ed4874082c700bba29"
          ],
          "data": "0x000000000000000000000000000000000000000000007e77b9f84663cdbbea70",
          "blockHash": "0x38fa272864fc2e10c98a6fb81e7e51e28d826c625a883a5623789a238adde072",
          "blockNumber": "0x722aa2",
          "blockTimestamp": "0x67d1dcfc",
          "transactionHash": "0x005058670f3c4da06a1ab87c5ba29ca0f77acdc5f2c5f999c750e162ed471a53",
          "transactionIndex": "0x9d",
          "logIndex": "0xea",
          "removed": false
        },
        {
          "address": "0x7628a394696eabbc615c98e3df5efd34880328b2",
          "topics": [
            "0x29c9a76ad8ab7c718763b6bf354772284236b8c30dbacf79b1bd84d26e767225"
          ],
          "data": "0x0000000000000000000000000000000000000000000000000000000000000005",
          "blockHash": "0x38fa272864fc2e10c98a6fb81e7e51e28d826c625a883a5623789a238adde072",
          "blockNumber": "0x722aa2",
          "blockTimestamp": "0x67d1dcfc",
          "transactionHash": "0x005058670f3c4da06a1ab87c5ba29ca0f77acdc5f2c5f999c750e162ed471a53",
          "transactionIndex": "0x9d",
          "logIndex": "0xeb",
          "removed": false
        }
      ],
      "logsBloom": "0x00000000000000002200000000000000000000000000000000080000000000000000000000000000000000000000000000001010004100000000000000400000000000000000000000000008000000000400000000004400001000000000000000000000020000000000000000000800140000000000000000000010000000000000000001000000000000000000000000000000000000000020000001000000000000000000000000000100000020040000000000000002000001000000800000000002000000000000000000000000000000010000000040000000000020010000001000000000000000000000000000000000000000000000000000000000",
      "type": "0x2",
      "transactionHash": "0x005058670f3c4da06a1ab87c5ba29ca0f77acdc5f2c5f999c750e162ed471a53",
      "transactionIndex": "0x9d",
      "blockHash": "0x38fa272864fc2e10c98a6fb81e7e51e28d826c625a883a5623789a238adde072",
      "blockNumber": "0x722aa2",
      "gasUsed": "0x2dc6c0",
      "effectiveGasPrice": "0xba43b7401",
      "from": "0x6efb11ac41b6657c32dac5ed4874082c700bba29",
      "to": "0x7628a394696eabbc615c98e3df5efd34880328b2",
      "contractAddress": null
    },
    {
      "status": "0x1",
      "cumulativeGasUsed": "0x1ba6ea2",
      "logs": [
        {
          "address": "0x2c53ce7143d24a65410107f50e4aabad9a164480",
          "topics": [
            "0xddf252ad1be2c89b69c2b068fc378daa952ba7f163c4a11628f55a4df523b3ef",
            "0x0000000000000000000000009a5141cf9f68ce4dd9f02ea7722455f3beaa9339",
            "0x000000000000000000000000d0cb401840c5efac575e1fe57a308c396e73fbe0"
          ],
          "data": "0x0000000000000000000000000000000000000000000000056bc75e2d63100000",
          "blockHash": "0x38fa272864fc2e10c98a6fb81e7e51e28d826c625a883a5623789a238adde072",
          "blockNumber": "0x722aa2",
          "blockTimestamp": "0x67d1dcfc",
          "transactionHash": "0x48b832f30a7b2ec0cdea56a9dce495f16530edd1d5de20aac05b5eedeb4bcbb4",
          "transactionIndex": "0x9e",
          "logIndex": "0xec",
          "removed": false
        },
        {
          "address": "0x58389610a3d13e8f380ee2ba077a6f36f2a90834",
          "topics": [
            "0xddf252ad1be2c89b69c2b068fc378daa952ba7f163c4a11628f55a4df523b3ef",
            "0x0000000000000000000000009a5141cf9f68ce4dd9f02ea7722455f3beaa9339",
            "0x000000000000000000000000d0cb401840c5efac575e1fe57a308c396e73fbe0"
          ],
          "data": "0x0000000000000000000000000000000000000000000000000000008bb2c97000",
          "blockHash": "0x38fa272864fc2e10c98a6fb81e7e51e28d826c625a883a5623789a238adde072",
          "blockNumber": "0x722aa2",
          "blockTimestamp": "0x67d1dcfc",
          "transactionHash": "0x48b832f30a7b2ec0cdea56a9dce495f16530edd1d5de20aac05b5eedeb4bcbb4",
          "transactionIndex": "0x9e",
          "logIndex": "0xed",
          "removed": false
        },
        {
          "address": "0x2c53ce7143d24a65410107f50e4aabad9a164480",
          "topics": [
            "0xddf252ad1be2c89b69c2b068fc378daa952ba7f163c4a11628f55a4df523b3ef",
            "0x0000000000000000000000009a5141cf9f68ce4dd9f02ea7722455f3beaa9339",
            "0x0000000000000000000000006efb11ac41b6657c32dac5ed4874082c700bba29"
          ],
          "data": "0x000000000000000000000000000000000000000000000000000000003b9aca00",
          "blockHash": "0x38fa272864fc2e10c98a6fb81e7e51e28d826c625a883a5623789a238adde072",
          "blockNumber": "0x722aa2",
          "blockTimestamp": "0x67d1dcfc",
          "transactionHash": "0x48b832f30a7b2ec0cdea56a9dce495f16530edd1d5de20aac05b5eedeb4bcbb4",
          "transactionIndex": "0x9e",
          "logIndex": "0xee",
          "removed": false
        },
        {
          "address": "0xd0cb401840c5efac575e1fe57a308c396e73fbe0",
          "topics": [
            "0xddf252ad1be2c89b69c2b068fc378daa952ba7f163c4a11628f55a4df523b3ef",
            "0x0000000000000000000000000000000000000000000000000000000000000000",
            "0x0000000000000000000000006efb11ac41b6657c32dac5ed4874082c700bba29"
          ],
          "data": "0x0000000000000000000000000000000000000000000053c75fde6df615e957fa",
          "blockHash": "0x38fa272864fc2e10c98a6fb81e7e51e28d826c625a883a5623789a238adde072",
          "blockNumber": "0x722aa2",
          "blockTimestamp": "0x67d1dcfc",
          "transactionHash": "0x48b832f30a7b2ec0cdea56a9dce495f16530edd1d5de20aac05b5eedeb4bcbb4",
          "transactionIndex": "0x9e",
          "logIndex": "0xef",
          "removed": false
        },
        {
          "address": "0x7628a394696eabbc615c98e3df5efd34880328b2",
          "topics": [
            "0x29c9a76ad8ab7c718763b6bf354772284236b8c30dbacf79b1bd84d26e767225"
          ],
          "data": "0x0000000000000000000000000000000000000000000000000000000000000006",
          "blockHash": "0x38fa272864fc2e10c98a6fb81e7e51e28d826c625a883a5623789a238adde072",
          "blockNumber": "0x722aa2",
          "blockTimestamp": "0x67d1dcfc",
          "transactionHash": "0x48b832f30a7b2ec0cdea56a9dce495f16530edd1d5de20aac05b5eedeb4bcbb4",
          "transactionIndex": "0x9e",
          "logIndex": "0xf0",
          "removed": false
        }
      ],
      "logsBloom": "0x00000000000000000200000000000000000000000000000000000000000000000000080000000000000000000000000000001000004100000200000000400000000000000000008000000008000000000000000000000400001000000000000000000000020000000000000000000800100000000000000000000010000000000000000001000000000000000000000000000000000000000000000001000000000000000000000040000100000000040000000000000000000001000000804000000002000000000000000000000000000000014000000040000000000020010000001000000000000000000000000000000000000000000000000000000000",
      "type": "0x2",
      "transactionHash": "0x48b832f30a7b2ec0cdea56a9dce495f16530edd1d5de20aac05b5eedeb4bcbb4",
      "transactionIndex": "0x9e",
      "blockHash": "0x38fa272864fc2e10c98a6fb81e7e51e28d826c625a883a5623789a238adde072",
      "blockNumber": "0x722aa2",
      "gasUsed": "0x2dc6c0",
      "effectiveGasPrice": "0xba43b7401",
      "from": "0x6efb11ac41b6657c32dac5ed4874082c700bba29",
      "to": "0x7628a394696eabbc615c98e3df5efd34880328b2",
      "contractAddress": null
    },
    {
      "status": "0x1",
      "cumulativeGasUsed": "0x1e83562",
      "logs": [
        {
          "address": "0x53f7c389cbb801e2abfd301ded6d2a1cf330ac0d",
          "topics": [
            "0xddf252ad1be2c89b69c2b068fc378daa952ba7f163c4a11628f55a4df523b3ef",
            "0x0000000000000000000000009a5141cf9f68ce4dd9f02ea7722455f3beaa9339",
            "0x00000000000000000000000031310f40189bd05b234c2977bdb1fb141d2e4e26"
          ],
          "data": "0x000000000000000000000000000000000000000000000002b5e3af16b1880000",
          "blockHash": "0x38fa272864fc2e10c98a6fb81e7e51e28d826c625a883a5623789a238adde072",
          "blockNumber": "0x722aa2",
          "blockTimestamp": "0x67d1dcfc",
          "transactionHash": "0x3964fab2226f00dd3dbbd5d5f56e2fe2ab730884e5ce562faf5ae6244c6979cd",
          "transactionIndex": "0x9f",
          "logIndex": "0xf1",
          "removed": false
        },
        {
          "address": "0x58389610a3d13e8f380ee2ba077a6f36f2a90834",
          "topics": [
            "0xddf252ad1be2c89b69c2b068fc378daa952ba7f163c4a11628f55a4df523b3ef",
            "0x0000000000000000000000009a5141cf9f68ce4dd9f02ea7722455f3beaa9339",
            "0x00000000000000000000000031310f40189bd05b234c2977bdb1fb141d2e4e26"
          ],
          "data": "0x000000000000000000000000000000000000000000000000000005bad5431800",
          "blockHash": "0x38fa272864fc2e10c98a6fb81e7e51e28d826c625a883a5623789a238adde072",
          "blockNumber": "0x722aa2",
          "blockTimestamp": "0x67d1dcfc",
          "transactionHash": "0x3964fab2226f00dd3dbbd5d5f56e2fe2ab730884e5ce562faf5ae6244c6979cd",
          "transactionIndex": "0x9f",
          "logIndex": "0xf2",
          "removed": false
        },
        {
          "address": "0x2c53ce7143d24a65410107f50e4aabad9a164480",
          "topics": [
            "0xddf252ad1be2c89b69c2b068fc378daa952ba7f163c4a11628f55a4df523b3ef",
            "0x0000000000000000000000009a5141cf9f68ce4dd9f02ea7722455f3beaa9339",
            "0x0000000000000000000000006efb11ac41b6657c32dac5ed4874082c700bba29"
          ],
          "data": "0x000000000000000000000000000000000000000000000000000000003b9aca00",
          "blockHash": "0x38fa272864fc2e10c98a6fb81e7e51e28d826c625a883a5623789a238adde072",
          "blockNumber": "0x722aa2",
          "blockTimestamp": "0x67d1dcfc",
          "transactionHash": "0x3964fab2226f00dd3dbbd5d5f56e2fe2ab730884e5ce562faf5ae6244c6979cd",
          "transactionIndex": "0x9f",
          "logIndex": "0xf3",
          "removed": false
        },
        {
          "address": "0x31310f40189bd05b234c2977bdb1fb141d2e4e26",
          "topics": [
            "0xddf252ad1be2c89b69c2b068fc378daa952ba7f163c4a11628f55a4df523b3ef",
            "0x0000000000000000000000000000000000000000000000000000000000000000",
            "0x0000000000000000000000006efb11ac41b6657c32dac5ed4874082c700bba29"
          ],
          "data": "0x00000000000000000000000000000000000000000007007d0f65293fe09bfcb6",
          "blockHash": "0x38fa272864fc2e10c98a6fb81e7e51e28d826c625a883a5623789a238adde072",
          "blockNumber": "0x722aa2",
          "blockTimestamp": "0x67d1dcfc",
          "transactionHash": "0x3964fab2226f00dd3dbbd5d5f56e2fe2ab730884e5ce562faf5ae6244c6979cd",
          "transactionIndex": "0x9f",
          "logIndex": "0xf4",
          "removed": false
        },
        {
          "address": "0x7628a394696eabbc615c98e3df5efd34880328b2",
          "topics": [
            "0x29c9a76ad8ab7c718763b6bf354772284236b8c30dbacf79b1bd84d26e767225"
          ],
          "data": "0x0000000000000000000000000000000000000000000000000000000000000007",
          "blockHash": "0x38fa272864fc2e10c98a6fb81e7e51e28d826c625a883a5623789a238adde072",
          "blockNumber": "0x722aa2",
          "blockTimestamp": "0x67d1dcfc",
          "transactionHash": "0x3964fab2226f00dd3dbbd5d5f56e2fe2ab730884e5ce562faf5ae6244c6979cd",
          "transactionIndex": "0x9f",
          "logIndex": "0xf5",
          "removed": false
        }
      ],
      "logsBloom": "0x00000000000000000200000002000000000000000000000000000000000000000000000000000000000000000000000000001000004100000000000000400000000000000000000000000008000000000000000000000400001000000000000000800000020000000000000000000880100000000000000000000010000000000000000001000000000000000000000000000000020000000000000001000000000000000030000000000100000000040000000000000000000001000000808000000002000000000000000000000000000000010000000040000000000020011000001000000000000000000000000000000000000000000008000000000000",
      "type": "0x2",
      "transactionHash": "0x3964fab2226f00dd3dbbd5d5f56e2fe2ab730884e5ce562faf5ae6244c6979cd",
      "transactionIndex": "0x9f",
      "blockHash": "0x38fa272864fc2e10c98a6fb81e7e51e28d826c625a883a5623789a238adde072",
      "blockNumber": "0x722aa2",
      "gasUsed": "0x2dc6c0",
      "effectiveGasPrice": "0xba43b7401",
      "from": "0x6efb11ac41b6657c32dac5ed4874082c700bba29",
      "to": "0x7628a394696eabbc615c98e3df5efd34880328b2",
      "contractAddress": null
    },
    {
      "status": "0x1",
      "cumulativeGasUsed": "0x215fc22",
      "logs": [
        {
          "address": "0xf9861d7478f8957679b26404bd6272c39f949c29",
          "topics": [
            "0xddf252ad1be2c89b69c2b068fc378daa952ba7f163c4a11628f55a4df523b3ef",
            "0x0000000000000000000000009a5141cf9f68ce4dd9f02ea7722455f3beaa9339",
            "0x00000000000000000000000072648c2523f817412f81d4f54d84e8ab994cf66b"
          ],
          "data": "0x000000000000000000000000000000000000000000295be96e64066972000000",
          "blockHash": "0x38fa272864fc2e10c98a6fb81e7e51e28d826c625a883a5623789a238adde072",
          "blockNumber": "0x722aa2",
          "blockTimestamp": "0x67d1dcfc",
          "transactionHash": "0x459ff5fcf2181f1f5bbe89c8b2339b153f3088c2b3a2e7d5fb900299dcb5572a",
          "transactionIndex": "0xa0",
          "logIndex": "0xf6",
          "removed": false
        },
        {
          "address": "0x58389610a3d13e8f380ee2ba077a6f36f2a90834",
          "topics": [
            "0xddf252ad1be2c89b69c2b068fc378daa952ba7f163c4a11628f55a4df523b3ef",
            "0x0000000000000000000000009a5141cf9f68ce4dd9f02ea7722455f3beaa9339",
            "0x00000000000000000000000072648c2523f817412f81d4f54d84e8ab994cf66b"
          ],
          "data": "0x000000000000000000000000000000000000000000000000000000037e11d600",
          "blockHash": "0x38fa272864fc2e10c98a6fb81e7e51e28d826c625a883a5623789a238adde072",
          "blockNumber": "0x722aa2",
          "blockTimestamp": "0x67d1dcfc",
          "transactionHash": "0x459ff5fcf2181f1f5bbe89c8b2339b153f3088c2b3a2e7d5fb900299dcb5572a",
          "transactionIndex": "0xa0",
          "logIndex": "0xf7",
          "removed": false
        },
        {
          "address": "0x2c53ce7143d24a65410107f50e4aabad9a164480",
          "topics": [
            "0xddf252ad1be2c89b69c2b068fc378daa952ba7f163c4a11628f55a4df523b3ef",
            "0x0000000000000000000000009a5141cf9f68ce4dd9f02ea7722455f3beaa9339",
            "0x0000000000000000000000006efb11ac41b6657c32dac5ed4874082c700bba29"
          ],
          "data": "0x000000000000000000000000000000000000000000000000000000003b9aca00",
          "blockHash": "0x38fa272864fc2e10c98a6fb81e7e51e28d826c625a883a5623789a238adde072",
          "blockNumber": "0x722aa2",
          "blockTimestamp": "0x67d1dcfc",
          "transactionHash": "0x459ff5fcf2181f1f5bbe89c8b2339b153f3088c2b3a2e7d5fb900299dcb5572a",
          "transactionIndex": "0xa0",
          "logIndex": "0xf8",
          "removed": false
        },
        {
          "address": "0x72648c2523f817412f81d4f54d84e8ab994cf66b",
          "topics": [
            "0xddf252ad1be2c89b69c2b068fc378daa952ba7f163c4a11628f55a4df523b3ef",
            "0x0000000000000000000000000000000000000000000000000000000000000000",
            "0x0000000000000000000000006efb11ac41b6657c32dac5ed4874082c700bba29"
          ],
          "data": "0x0000000000000000000000000000000000000000000004481205058b12460900",
          "blockHash": "0x38fa272864fc2e10c98a6fb81e7e51e28d826c625a883a5623789a238adde072",
          "blockNumber": "0x722aa2",
          "blockTimestamp": "0x67d1dcfc",
          "transactionHash": "0x459ff5fcf2181f1f5bbe89c8b2339b153f3088c2b3a2e7d5fb900299dcb5572a",
          "transactionIndex": "0xa0",
          "logIndex": "0xf9",
          "removed": false
        },
        {
          "address": "0x7628a394696eabbc615c98e3df5efd34880328b2",
          "topics": [
            "0x29c9a76ad8ab7c718763b6bf354772284236b8c30dbacf79b1bd84d26e767225"
          ],
          "data": "0x0000000000000000000000000000000000000000000000000000000000000008",
          "blockHash": "0x38fa272864fc2e10c98a6fb81e7e51e28d826c625a883a5623789a238adde072",
          "blockNumber": "0x722aa2",
          "blockTimestamp": "0x67d1dcfc",
          "transactionHash": "0x459ff5fcf2181f1f5bbe89c8b2339b153f3088c2b3a2e7d5fb900299dcb5572a",
          "transactionIndex": "0xa0",
          "logIndex": "0xfa",
          "removed": false
        }
      ],
      "logsBloom": "0x00000000000000000200000000002000000000000000000000000000000000000000000000000000000000000000000000001000004100000000000000400000000000000000000000000008000000000000000000000400001000000000000000000000060000000000000000000800100000000000000000000010000000000000000001000000000000000000000000000000000000000000000001000000000000000200000000040100000000040000000000000000000001000000800000000002080000000040000000000000000008010000000040000000000020010100001080000000000000000000000000000000000000000000000000000000",
      "type": "0x2",
      "transactionHash": "0x459ff5fcf2181f1f5bbe89c8b2339b153f3088c2b3a2e7d5fb900299dcb5572a",
      "transactionIndex": "0xa0",
      "blockHash": "0x38fa272864fc2e10c98a6fb81e7e51e28d826c625a883a5623789a238adde072",
      "blockNumber": "0x722aa2",
      "gasUsed": "0x2dc6c0",
      "effectiveGasPrice": "0xba43b7401",
      "from": "0x6efb11ac41b6657c32dac5ed4874082c700bba29",
      "to": "0x7628a394696eabbc615c98e3df5efd34880328b2",
      "contractAddress": null
    },
    {
      "status": "0x1",
      "cumulativeGasUsed": "0x243c2e2",
      "logs": [
        {
          "address": "0x1889cfb8746716a0ac50e59a54f190987c5f04e6",
          "topics": [
            "0xddf252ad1be2c89b69c2b068fc378daa952ba7f163c4a11628f55a4df523b3ef",
            "0x0000000000000000000000009a5141cf9f68ce4dd9f02ea7722455f3beaa9339",
            "0x0000000000000000000000005f5054ee2a7bc2617565b5b79f35573aa6139481"
          ],
          "data": "0x00000000000000000000000000000000000000000000000000005af3107a4000",
          "blockHash": "0x38fa272864fc2e10c98a6fb81e7e51e28d826c625a883a5623789a238adde072",
          "blockNumber": "0x722aa2",
          "blockTimestamp": "0x67d1dcfc",
          "transactionHash": "0x18804c7c184b1aaffab2db2e3083cc6f73610a36f08ab3c4fc3acbce912519ea",
          "transactionIndex": "0xa1",
          "logIndex": "0xfb",
          "removed": false
        },
        {
          "address": "0x58389610a3d13e8f380ee2ba077a6f36f2a90834",
          "topics": [
            "0xddf252ad1be2c89b69c2b068fc378daa952ba7f163c4a11628f55a4df523b3ef",
            "0x0000000000000000000000009a5141cf9f68ce4dd9f02ea7722455f3beaa9339",
            "0x0000000000000000000000005f5054ee2a7bc2617565b5b79f35573aa6139481"
          ],
          "data": "0x00000000000000000000000000000000000000000000000000000045d964b800",
          "blockHash": "0x38fa272864fc2e10c98a6fb81e7e51e28d826c625a883a5623789a238adde072",
          "blockNumber": "0x722aa2",
          "blockTimestamp": "0x67d1dcfc",
          "transactionHash": "0x18804c7c184b1aaffab2db2e3083cc6f73610a36f08ab3c4fc3acbce912519ea",
          "transactionIndex": "0xa1",
          "logIndex": "0xfc",
          "removed": false
        },
        {
          "address": "0x2c53ce7143d24a65410107f50e4aabad9a164480",
          "topics": [
            "0xddf252ad1be2c89b69c2b068fc378daa952ba7f163c4a11628f55a4df523b3ef",
            "0x0000000000000000000000009a5141cf9f68ce4dd9f02ea7722455f3beaa9339",
            "0x0000000000000000000000006efb11ac41b6657c32dac5ed4874082c700bba29"
          ],
          "data": "0x000000000000000000000000000000000000000000000000000000003b9aca00",
          "blockHash": "0x38fa272864fc2e10c98a6fb81e7e51e28d826c625a883a5623789a238adde072",
          "blockNumber": "0x722aa2",
          "blockTimestamp": "0x67d1dcfc",
          "transactionHash": "0x18804c7c184b1aaffab2db2e3083cc6f73610a36f08ab3c4fc3acbce912519ea",
          "transactionIndex": "0xa1",
          "logIndex": "0xfd",
          "removed": false
        },
        {
          "address": "0x5f5054ee2a7bc2617565b5b79f35573aa6139481",
          "topics": [
            "0xddf252ad1be2c89b69c2b068fc378daa952ba7f163c4a11628f55a4df523b3ef",
            "0x0000000000000000000000000000000000000000000000000000000000000000",
            "0x0000000000000000000000006efb11ac41b6657c32dac5ed4874082c700bba29"
          ],
          "data": "0x0000000000000000000000000000000000000000000029fac9bf431d09af1e20",
          "blockHash": "0x38fa272864fc2e10c98a6fb81e7e51e28d826c625a883a5623789a238adde072",
          "blockNumber": "0x722aa2",
          "blockTimestamp": "0x67d1dcfc",
          "transactionHash": "0x18804c7c184b1aaffab2db2e3083cc6f73610a36f08ab3c4fc3acbce912519ea",
          "transactionIndex": "0xa1",
          "logIndex": "0xfe",
          "removed": false
        },
        {
          "address": "0x7628a394696eabbc615c98e3df5efd34880328b2",
          "topics": [
            "0x29c9a76ad8ab7c718763b6bf354772284236b8c30dbacf79b1bd84d26e767225"
          ],
          "data": "0x0000000000000000000000000000000000000000000000000000000000000009",
          "blockHash": "0x38fa272864fc2e10c98a6fb81e7e51e28d826c625a883a5623789a238adde072",
          "blockNumber": "0x722aa2",
          "blockTimestamp": "0x67d1dcfc",
          "transactionHash": "0x18804c7c184b1aaffab2db2e3083cc6f73610a36f08ab3c4fc3acbce912519ea",
          "transactionIndex": "0xa1",
          "logIndex": "0xff",
          "removed": false
        }
      ],
      "logsBloom": "0x00000000000000000200000000000000000000000000000000000000000000000000000000000000000000000000000000001000004100000000000000600000000000000000000000000008000000000000000004000400001400000000000008200004020000000000000000000800100000000000000000000010000000000000000001000000000000000000000000000000000000000000000001000000000000000000100000000100000000040000000000000000000001000000800000000002000000000000000000000000000000010000000040000000000020010000003080000000000000000000000000000000000000000000000000000000",
      "type": "0x2",
      "transactionHash": "0x18804c7c184b1aaffab2db2e3083cc6f73610a36f08ab3c4fc3acbce912519ea",
      "transactionIndex": "0xa1",
      "blockHash": "0x38fa272864fc2e10c98a6fb81e7e51e28d826c625a883a5623789a238adde072",
      "blockNumber": "0x722aa2",
      "gasUsed": "0x2dc6c0",
      "effectiveGasPrice": "0xba43b7401",
      "from": "0x6efb11ac41b6657c32dac5ed4874082c700bba29",
      "to": "0x7628a394696eabbc615c98e3df5efd34880328b2",
      "contractAddress": null
    },
    {
      "status": "0x1",
      "cumulativeGasUsed": "0x27189a2",
      "logs": [
        {
          "address": "0x6bc8a42d4b2f4bc8e4c3f9ecff00b7290ffa7405",
          "topics": [
            "0xddf252ad1be2c89b69c2b068fc378daa952ba7f163c4a11628f55a4df523b3ef",
            "0x0000000000000000000000009a5141cf9f68ce4dd9f02ea7722455f3beaa9339",
            "0x00000000000000000000000037ee6083d1191b00eda1f6304c9a60695bfee8da"
          ],
          "data": "0x0000000000000000000000000000000000000000000069e10de76676d0800000",
          "blockHash": "0x38fa272864fc2e10c98a6fb81e7e51e28d826c625a883a5623789a238adde072",
          "blockNumber": "0x722aa2",
          "blockTimestamp": "0x67d1dcfc",
          "transactionHash": "0xf8153aadfde23fdfef0e27a59209ae471f6abb96369e169f13add17a1b495688",
          "transactionIndex": "0xa2",
          "logIndex": "0x100",
          "removed": false
        },
        {
          "address": "0x58389610a3d13e8f380ee2ba077a6f36f2a90834",
          "topics": [
            "0xddf252ad1be2c89b69c2b068fc378daa952ba7f163c4a11628f55a4df523b3ef",
            "0x0000000000000000000000009a5141cf9f68ce4dd9f02ea7722455f3beaa9339",
            "0x00000000000000000000000037ee6083d1191b00eda1f6304c9a60695bfee8da"
          ],
          "data": "0x0000000000000000000000000000000000000000000000000000001176592e00",
          "blockHash": "0x38fa272864fc2e10c98a6fb81e7e51e28d826c625a883a5623789a238adde072",
          "blockNumber": "0x722aa2",
          "blockTimestamp": "0x67d1dcfc",
          "transactionHash": "0xf8153aadfde23fdfef0e27a59209ae471f6abb96369e169f13add17a1b495688",
          "transactionIndex": "0xa2",
          "logIndex": "0x101",
          "removed": false
        },
        {
          "address": "0x2c53ce7143d24a65410107f50e4aabad9a164480",
          "topics": [
            "0xddf252ad1be2c89b69c2b068fc378daa952ba7f163c4a11628f55a4df523b3ef",
            "0x0000000000000000000000009a5141cf9f68ce4dd9f02ea7722455f3beaa9339",
            "0x0000000000000000000000006efb11ac41b6657c32dac5ed4874082c700bba29"
          ],
          "data": "0x000000000000000000000000000000000000000000000000000000003b9aca00",
          "blockHash": "0x38fa272864fc2e10c98a6fb81e7e51e28d826c625a883a5623789a238adde072",
          "blockNumber": "0x722aa2",
          "blockTimestamp": "0x67d1dcfc",
          "transactionHash": "0xf8153aadfde23fdfef0e27a59209ae471f6abb96369e169f13add17a1b495688",
          "transactionIndex": "0xa2",
          "logIndex": "0x102",
          "removed": false
        },
        {
          "address": "0x37ee6083d1191b00eda1f6304c9a60695bfee8da",
          "topics": [
            "0xddf252ad1be2c89b69c2b068fc378daa952ba7f163c4a11628f55a4df523b3ef",
            "0x0000000000000000000000000000000000000000000000000000000000000000",
            "0x0000000000000000000000006efb11ac41b6657c32dac5ed4874082c700bba29"
          ],
          "data": "0x000000000000000000000000000000000000000000000aaca661ecfd85b37e80",
          "blockHash": "0x38fa272864fc2e10c98a6fb81e7e51e28d826c625a883a5623789a238adde072",
          "blockNumber": "0x722aa2",
          "blockTimestamp": "0x67d1dcfc",
          "transactionHash": "0xf8153aadfde23fdfef0e27a59209ae471f6abb96369e169f13add17a1b495688",
          "transactionIndex": "0xa2",
          "logIndex": "0x103",
          "removed": false
        },
        {
          "address": "0x7628a394696eabbc615c98e3df5efd34880328b2",
          "topics": [
            "0x29c9a76ad8ab7c718763b6bf354772284236b8c30dbacf79b1bd84d26e767225"
          ],
          "data": "0x000000000000000000000000000000000000000000000000000000000000000a",
          "blockHash": "0x38fa272864fc2e10c98a6fb81e7e51e28d826c625a883a5623789a238adde072",
          "blockNumber": "0x722aa2",
          "blockTimestamp": "0x67d1dcfc",
          "transactionHash": "0xf8153aadfde23fdfef0e27a59209ae471f6abb96369e169f13add17a1b495688",
          "transactionIndex": "0xa2",
          "logIndex": "0x104",
          "removed": false
        }
      ],
      "logsBloom": "0x00000000000000000200000000000000000000000000000000000000000000000000000020000000000000000000000000003000004100000400000000400000000000000000000000000008000000000000000000000400001000000000000000000000020000000000000000000800100000000000000000000010000000000000000001000000000000000000000000000000000001000000000001000000000000000200000000000100000000040000000000000000000001000000800000000002000000000000000000002000000000010000000040001802000020010000001000000000000000000000000000000000000000000000000000000000",
      "type": "0x2",
      "transactionHash": "0xf8153aadfde23fdfef0e27a59209ae471f6abb96369e169f13add17a1b495688",
      "transactionIndex": "0xa2",
      "blockHash": "0x38fa272864fc2e10c98a6fb81e7e51e28d826c625a883a5623789a238adde072",
      "blockNumber": "0x722aa2",
      "gasUsed": "0x2dc6c0",
      "effectiveGasPrice": "0xba43b7401",
      "from": "0x6efb11ac41b6657c32dac5ed4874082c700bba29",
      "to": "0x7628a394696eabbc615c98e3df5efd34880328b2",
      "contractAddress": null
    }
  ],
  "libraries": [],
  "pending": [],
  "returns": {},
  "timestamp": 1741806849,
  "chain": 10143,
  "commit": "7537796"
}