{
  "transactions": [
    {
      "hash": "0xd7ba6f573af6719263e696da6e93b9dd8d2037c6e88a8b9521ab877600c7de87",
      "transactionType": "CALL",
      "contractName": null,
      "contractAddress": "0x75084b2ba58907efee5cd397fa855dc73b68d191",
      "function": "executeDeposit(uint256)",
      "arguments": [
        "0"
      ],
      "transaction": {
        "from": "0x6efb11ac41b6657c32dac5ed4874082c700bba29",
        "to": "0x75084b2ba58907efee5cd397fa855dc73b68d191",
        "gas": "0x57789",
        "value": "0x0",
        "input": "0x7026e9fd0000000000000000000000000000000000000000000000000000000000000000",
        "nonce": "0x48",
        "chainId": "0x279f"
      },
      "additionalContracts": [],
      "isFixedGasLimit": false
    }
  ],
  "receipts": [
    {
      "status": "0x1",
      "cumulativeGasUsed": "0x7ac525",
      "logs": [
        {
          "address": "0x97f3d75fcc683c8f557d637196857fa303f7cebd",
          "topics": [
            "0xddf252ad1be2c89b69c2b068fc378daa952ba7f163c4a11628f55a4df523b3ef",
            "0x000000000000000000000000354cf8ea72c117e7443a7392230749b72ef78d0b",
            "0x000000000000000000000000fd16ef40c3a301f7063a1f9c28b90957df071583"
          ],
          "data": "0x00000000000000000000000000000000000000000000003635c9adc5dea00000",
          "blockHash": "0x031619057840b5ef7ecfd5f5a200cd89c17f1a7ba58d366b33e570317184bd9a",
          "blockNumber": "0x6699c4",
          "blockTimestamp": "0x67cbce23",
          "transactionHash": "0xd7ba6f573af6719263e696da6e93b9dd8d2037c6e88a8b9521ab877600c7de87",
          "transactionIndex": "0x3b",
          "logIndex": "0x62",
          "removed": false
        },
        {
          "address": "0x37e9b288c56b734c0291d37af478f60ce58a9fc6",
          "topics": [
            "0xddf252ad1be2c89b69c2b068fc378daa952ba7f163c4a11628f55a4df523b3ef",
            "0x000000000000000000000000354cf8ea72c117e7443a7392230749b72ef78d0b",
            "0x000000000000000000000000fd16ef40c3a301f7063a1f9c28b90957df071583"
          ],
          "data": "0x0000000000000000000000000000000000000000000000a2a15d09519be00000",
          "blockHash": "0x031619057840b5ef7ecfd5f5a200cd89c17f1a7ba58d366b33e570317184bd9a",
          "blockNumber": "0x6699c4",
          "blockTimestamp": "0x67cbce23",
          "transactionHash": "0xd7ba6f573af6719263e696da6e93b9dd8d2037c6e88a8b9521ab877600c7de87",
          "transactionIndex": "0x3b",
          "logIndex": "0x63",
          "removed": false
        },
        {
          "address": "0x97f3d75fcc683c8f557d637196857fa303f7cebd",
          "topics": [
            "0xddf252ad1be2c89b69c2b068fc378daa952ba7f163c4a11628f55a4df523b3ef",
            "0x000000000000000000000000354cf8ea72c117e7443a7392230749b72ef78d0b",
            "0x0000000000000000000000006efb11ac41b6657c32dac5ed4874082c700bba29"
          ],
          "data": "0x000000000000000000000000000000000000000000000000000000003b9aca00",
          "blockHash": "0x031619057840b5ef7ecfd5f5a200cd89c17f1a7ba58d366b33e570317184bd9a",
          "blockNumber": "0x6699c4",
          "blockTimestamp": "0x67cbce23",
          "transactionHash": "0xd7ba6f573af6719263e696da6e93b9dd8d2037c6e88a8b9521ab877600c7de87",
          "transactionIndex": "0x3b",
          "logIndex": "0x64",
          "removed": false
        },
        {
          "address": "0xfd16ef40c3a301f7063a1f9c28b90957df071583",
          "topics": [
            "0xddf252ad1be2c89b69c2b068fc378daa952ba7f163c4a11628f55a4df523b3ef",
            "0x0000000000000000000000000000000000000000000000000000000000000000",
            "0x0000000000000000000000006efb11ac41b6657c32dac5ed4874082c700bba29"
          ],
          "data": "0x00000000000000000000000000002279061a4cab2cdba38b09bdaf8000000000",
          "blockHash": "0x031619057840b5ef7ecfd5f5a200cd89c17f1a7ba58d366b33e570317184bd9a",
          "blockNumber": "0x6699c4",
          "blockTimestamp": "0x67cbce23",
          "transactionHash": "0xd7ba6f573af6719263e696da6e93b9dd8d2037c6e88a8b9521ab877600c7de87",
          "transactionIndex": "0x3b",
          "logIndex": "0x65",
          "removed": false
        },
        {
          "address": "0x75084b2ba58907efee5cd397fa855dc73b68d191",
          "topics": [
            "0x29c9a76ad8ab7c718763b6bf354772284236b8c30dbacf79b1bd84d26e767225"
          ],
          "data": "0x0000000000000000000000000000000000000000000000000000000000000000",
          "blockHash": "0x031619057840b5ef7ecfd5f5a200cd89c17f1a7ba58d366b33e570317184bd9a",
          "blockNumber": "0x6699c4",
          "blockTimestamp": "0x67cbce23",
          "transactionHash": "0xd7ba6f573af6719263e696da6e93b9dd8d2037c6e88a8b9521ab877600c7de87",
          "transactionIndex": "0x3b",
          "logIndex": "0x66",
          "removed": false
        }
      ],
      "logsBloom": "0x00000000000000000200000000000000800008000000000000000000000000000080000010000000040000000000000000000000004100000000000000000000000000000000000000000008000000000002000000000100000000000000000000000000020000000002000000000840000000000000000000000010000000000000000101000000000000000000080000000000000000000000040000000000000000100000000000000000000000004000000000000000000001000000800000000002000000000000800000000000000000000010000001000000000020000000000000000000000000000000000000000000000000000000000000008000",
      "type": "0x2",
      "transactionHash": "0xd7ba6f573af6719263e696da6e93b9dd8d2037c6e88a8b9521ab877600c7de87",
      "transactionIndex": "0x3b",
      "blockHash": "0x031619057840b5ef7ecfd5f5a200cd89c17f1a7ba58d366b33e570317184bd9a",
      "blockNumber": "0x6699c4",
      "gasUsed": "0x57789",
      "effectiveGasPrice": "0xba43b7401",
      "from": "0x6efb11ac41b6657c32dac5ed4874082c700bba29",
      "to": "0x75084b2ba58907efee5cd397fa855dc73b68d191",
      "contractAddress": null
    }
  ],
  "libraries": [],
  "pending": [],
  "returns": {},
  "timestamp": 1741409829,
  "chain": 10143,
  "commit": "75ade75"
}