{
  "transactions": [
    {
      "hash": "0x38f22a06e7f150d8bc15648ec00b42895a531c0629eb9ac1bec2bc076361cb6e",
      "transactionType": "CALL",
      "contractName": null,
      "contractAddress": "0xf573e0745c3fa02b4a6739446c34c16de49fed52",
      "function": "executeDeposit(uint256)",
      "arguments": [
        "0"
      ],
      "transaction": {
        "from": "0x6efb11ac41b6657c32dac5ed4874082c700bba29",
        "to": "0xf573e0745c3fa02b4a6739446c34c16de49fed52",
        "gas": "0x5a4f4",
        "value": "0x0",
        "input": "0x7026e9fd0000000000000000000000000000000000000000000000000000000000000000",
        "nonce": "0x13f",
        "chainId": "0x279f"
      },
      "additionalContracts": [],
      "isFixedGasLimit": false
    },
    {
      "hash": "0x690f3109522a49a9a6a664cfef3933b54326e03422982ef47f2372e92628446b",
      "transactionType": "CALL",
      "contractName": null,
      "contractAddress": "0xf573e0745c3fa02b4a6739446c34c16de49fed52",
      "function": "executeDeposit(uint256)",
      "arguments": [
        "1"
      ],
      "transaction": {
        "from": "0x6efb11ac41b6657c32dac5ed4874082c700bba29",
        "to": "0xf573e0745c3fa02b4a6739446c34c16de49fed52",
        "gas": "0x5b34e",
        "value": "0x0",
        "input": "0x7026e9fd0000000000000000000000000000000000000000000000000000000000000001",
        "nonce": "0x140",
        "chainId": "0x279f"
      },
      "additionalContracts": [],
      "isFixedGasLimit": false
    },
    {
      "hash": "0x29f327186ac0b0596e194ba0bd98e49158bc8988632c7145eb004409a74ba44e",
      "transactionType": "CALL",
      "contractName": null,
      "contractAddress": "0xf573e0745c3fa02b4a6739446c34c16de49fed52",
      "function": "executeDeposit(uint256)",
      "arguments": [
        "2"
      ],
      "transaction": {
        "from": "0x6efb11ac41b6657c32dac5ed4874082c700bba29",
        "to": "0xf573e0745c3fa02b4a6739446c34c16de49fed52",
        "gas": "0x5b34e",
        "value": "0x0",
        "input": "0x7026e9fd0000000000000000000000000000000000000000000000000000000000000002",
        "nonce": "0x141",
        "chainId": "0x279f"
      },
      "additionalContracts": [],
      "isFixedGasLimit": false
    },
    {
      "hash": "0xd38b4c9e4967e30538028baf0e3d69238a66884840d0f99de3844d68bcec95fd",
      "transactionType": "CALL",
      "contractName": null,
      "contractAddress": "0xf573e0745c3fa02b4a6739446c34c16de49fed52",
      "function": "executeDeposit(uint256)",
      "arguments": [
        "3"
      ],
      "transaction": {
        "from": "0x6efb11ac41b6657c32dac5ed4874082c700bba29",
        "to": "0xf573e0745c3fa02b4a6739446c34c16de49fed52",
        "gas": "0x5b34e",
        "value": "0x0",
        "input": "0x7026e9fd0000000000000000000000000000000000000000000000000000000000000003",
        "nonce": "0x142",
        "chainId": "0x279f"
      },
      "additionalContracts": [],
      "isFixedGasLimit": false
    },
    {
      "hash": "0x8b8e8701b0af5639089a1585510b050d0aa38ea34dc437e0d5d8ea5a906762c4",
      "transactionType": "CALL",
      "contractName": null,
      "contractAddress": "0xf573e0745c3fa02b4a6739446c34c16de49fed52",
      "function": "executeDeposit(uint256)",
      "arguments": [
        "4"
      ],
      "transaction": {
        "from": "0x6efb11ac41b6657c32dac5ed4874082c700bba29",
        "to": "0xf573e0745c3fa02b4a6739446c34c16de49fed52",
        "gas": "0x5b34e",
        "value": "0x0",
        "input": "0x7026e9fd0000000000000000000000000000000000000000000000000000000000000004",
        "nonce": "0x143",
        "chainId": "0x279f"
      },
      "additionalContracts": [],
      "isFixedGasLimit": false
    },
    {
      "hash": "0xd3b1f1a769c0f9eb69d3ecc7221aed8164be98773e7fb94254e01c347a530665",
      "transactionType": "CALL",
      "contractName": null,
      "contractAddress": "0xf573e0745c3fa02b4a6739446c34c16de49fed52",
      "function": "executeDeposit(uint256)",
      "arguments": [
        "5"
      ],
      "transaction": {
        "from": "0x6efb11ac41b6657c32dac5ed4874082c700bba29",
        "to": "0xf573e0745c3fa02b4a6739446c34c16de49fed52",
        "gas": "0x56ad2",
        "value": "0x0",
        "input": "0x7026e9fd0000000000000000000000000000000000000000000000000000000000000005",
        "nonce": "0x144",
        "chainId": "0x279f"
      },
      "additionalContracts": [],
      "isFixedGasLimit": false
    }
  ],
  "receipts": [
    {
      "status": "0x1",
      "cumulativeGasUsed": "0x3c7695",
      "logs": [
        {
          "address": "0x2c53ce7143d24a65410107f50e4aabad9a164480",
          "topics": [
            "0xddf252ad1be2c89b69c2b068fc378daa952ba7f163c4a11628f55a4df523b3ef",
            "0x0000000000000000000000002e45d737b1d3ca3c6fb4cb82193e0e3d7444e4bd",
            "0x0000000000000000000000004c51d8a789b0029cf47c2366eebf6205a09d929b"
          ],
          "data": "0x0000000000000000000000000000000000000000000000056bc75e2d63100000",
          "blockHash": "0x54fee5e4d7f02e4e3000dde78822a8e18489c5617a1d70c7e9c8eaa468c88399",
          "blockNumber": "0x728614",
          "blockTimestamp": "0x67d217e6",
          "transactionHash": "0x38f22a06e7f150d8bc15648ec00b42895a531c0629eb9ac1bec2bc076361cb6e",
          "transactionIndex": "0x25",
          "logIndex": "0x28",
          "removed": false
        },
        {
          "address": "0x58389610a3d13e8f380ee2ba077a6f36f2a90834",
          "topics": [
            "0xddf252ad1be2c89b69c2b068fc378daa952ba7f163c4a11628f55a4df523b3ef",
            "0x0000000000000000000000002e45d737b1d3ca3c6fb4cb82193e0e3d7444e4bd",
            "0x0000000000000000000000004c51d8a789b0029cf47c2366eebf6205a09d929b"
          ],
          "data": "0x0000000000000000000000000000000000000000000000000000008bb2c97000",
          "blockHash": "0x54fee5e4d7f02e4e3000dde78822a8e18489c5617a1d70c7e9c8eaa468c88399",
          "blockNumber": "0x728614",
          "blockTimestamp": "0x67d217e6",
          "transactionHash": "0x38f22a06e7f150d8bc15648ec00b42895a531c0629eb9ac1bec2bc076361cb6e",
          "transactionIndex": "0x25",
          "logIndex": "0x29",
          "removed": false
        },
        {
          "address": "0x2c53ce7143d24a65410107f50e4aabad9a164480",
          "topics": [
            "0xddf252ad1be2c89b69c2b068fc378daa952ba7f163c4a11628f55a4df523b3ef",
            "0x0000000000000000000000002e45d737b1d3ca3c6fb4cb82193e0e3d7444e4bd",
            "0x0000000000000000000000006efb11ac41b6657c32dac5ed4874082c700bba29"
          ],
          "data": "0x000000000000000000000000000000000000000000000000000000003b9aca00",
          "blockHash": "0x54fee5e4d7f02e4e3000dde78822a8e18489c5617a1d70c7e9c8eaa468c88399",
          "blockNumber": "0x728614",
          "blockTimestamp": "0x67d217e6",
          "transactionHash": "0x38f22a06e7f150d8bc15648ec00b42895a531c0629eb9ac1bec2bc076361cb6e",
          "transactionIndex": "0x25",
          "logIndex": "0x2a",
          "removed": false
        },
        {
          "address": "0x4c51d8a789b0029cf47c2366eebf6205a09d929b",
          "topics": [
            "0xddf252ad1be2c89b69c2b068fc378daa952ba7f163c4a11628f55a4df523b3ef",
            "0x0000000000000000000000000000000000000000000000000000000000000000",
            "0x0000000000000000000000006efb11ac41b6657c32dac5ed4874082c700bba29"
          ],
          "data": "0x00000000000000000000000000000000000000000000a807cdfbe0241f396654",
          "blockHash": "0x54fee5e4d7f02e4e3000dde78822a8e18489c5617a1d70c7e9c8eaa468c88399",
          "blockNumber": "0x728614",
          "blockTimestamp": "0x67d217e6",
          "transactionHash": "0x38f22a06e7f150d8bc15648ec00b42895a531c0629eb9ac1bec2bc076361cb6e",
          "transactionIndex": "0x25",
          "logIndex": "0x2b",
          "removed": false
        },
        {
          "address": "0xf573e0745c3fa02b4a6739446c34c16de49fed52",
          "topics": [
            "0x29c9a76ad8ab7c718763b6bf354772284236b8c30dbacf79b1bd84d26e767225"
          ],
          "data": "0x0000000000000000000000000000000000000000000000000000000000000000",
          "blockHash": "0x54fee5e4d7f02e4e3000dde78822a8e18489c5617a1d70c7e9c8eaa468c88399",
          "blockNumber": "0x728614",
          "blockTimestamp": "0x67d217e6",
          "transactionHash": "0x38f22a06e7f150d8bc15648ec00b42895a531c0629eb9ac1bec2bc076361cb6e",
          "transactionIndex": "0x25",
          "logIndex": "0x2c",
          "removed": false
        }
      ],
      "logsBloom": "0x00000000000000000200000000000000000400000000000000000000000000000000000000100000000000000000000000001000004100000000000000000000000000000000000000000008000000000000000000000400001000000000108000000000020000000000000200000800000000000000000000000010000000000000000001000000000000000000000000000000000000000008000000000000000000000000000000000000000000040000000000000000000001000000800000040002000000000000000000000000000000010000000000000000000020008000001000000000001000000000000000000400000000000000000000800000",
      "type": "0x0",
      "transactionHash": "0x38f22a06e7f150d8bc15648ec00b42895a531c0629eb9ac1bec2bc076361cb6e",
      "transactionIndex": "0x25",
      "blockHash": "0x54fee5e4d7f02e4e3000dde78822a8e18489c5617a1d70c7e9c8eaa468c88399",
      "blockNumber": "0x728614",
      "gasUsed": "0x5a4f4",
      "effectiveGasPrice": "0xc1b710800",
      "from": "0x6efb11ac41b6657c32dac5ed4874082c700bba29",
      "to": "0xf573e0745c3fa02b4a6739446c34c16de49fed52",
      "contractAddress": null
    },
    {
      "status": "0x1",
      "cumulativeGasUsed": "0x323554",
      "logs": [
        {
          "address": "0x53f7c389cbb801e2abfd301ded6d2a1cf330ac0d",
          "topics": [
            "0xddf252ad1be2c89b69c2b068fc378daa952ba7f163c4a11628f55a4df523b3ef",
            "0x0000000000000000000000002e45d737b1d3ca3c6fb4cb82193e0e3d7444e4bd",
            "0x000000000000000000000000b0a7f91a1c917a3bff73f2e3829032c64e135951"
          ],
          "data": "0x000000000000000000000000000000000000000000000002b5e3af16b1880000",
          "blockHash": "0xd6f1a165df680f2d1d5d282c20f8c4613b7773b0a765eefdaaf82df3dc66bb2a",
          "blockNumber": "0x728615",
          "blockTimestamp": "0x67d217e7",
          "transactionHash": "0x690f3109522a49a9a6a664cfef3933b54326e03422982ef47f2372e92628446b",
          "transactionIndex": "0x1c",
          "logIndex": "0x1c",
          "removed": false
        },
        {
          "address": "0x58389610a3d13e8f380ee2ba077a6f36f2a90834",
          "topics": [
            "0xddf252ad1be2c89b69c2b068fc378daa952ba7f163c4a11628f55a4df523b3ef",
            "0x0000000000000000000000002e45d737b1d3ca3c6fb4cb82193e0e3d7444e4bd",
            "0x000000000000000000000000b0a7f91a1c917a3bff73f2e3829032c64e135951"
          ],
          "data": "0x000000000000000000000000000000000000000000000000000005bad5431800",
          "blockHash": "0xd6f1a165df680f2d1d5d282c20f8c4613b7773b0a765eefdaaf82df3dc66bb2a",
          "blockNumber": "0x728615",
          "blockTimestamp": "0x67d217e7",
          "transactionHash": "0x690f3109522a49a9a6a664cfef3933b54326e03422982ef47f2372e92628446b",
          "transactionIndex": "0x1c",
          "logIndex": "0x1d",
          "removed": false
        },
        {
          "address": "0x2c53ce7143d24a65410107f50e4aabad9a164480",
          "topics": [
            "0xddf252ad1be2c89b69c2b068fc378daa952ba7f163c4a11628f55a4df523b3ef",
            "0x0000000000000000000000002e45d737b1d3ca3c6fb4cb82193e0e3d7444e4bd",
            "0x0000000000000000000000006efb11ac41b6657c32dac5ed4874082c700bba29"
          ],
          "data": "0x000000000000000000000000000000000000000000000000000000003b9aca00",
          "blockHash": "0xd6f1a165df680f2d1d5d282c20f8c4613b7773b0a765eefdaaf82df3dc66bb2a",
          "blockNumber": "0x728615",
          "blockTimestamp": "0x67d217e7",
          "transactionHash": "0x690f3109522a49a9a6a664cfef3933b54326e03422982ef47f2372e92628446b",
          "transactionIndex": "0x1c",
          "logIndex": "0x1e",
          "removed": false
        },
        {
          "address": "0xb0a7f91a1c917a3bff73f2e3829032c64e135951",
          "topics": [
            "0xddf252ad1be2c89b69c2b068fc378daa952ba7f163c4a11628f55a4df523b3ef",
            "0x0000000000000000000000000000000000000000000000000000000000000000",
            "0x0000000000000000000000006efb11ac41b6657c32dac5ed4874082c700bba29"
          ],
          "data": "0x00000000000000000000000000000000000000000006f64ce45887a77c274296",
          "blockHash": "0xd6f1a165df680f2d1d5d282c20f8c4613b7773b0a765eefdaaf82df3dc66bb2a",
          "blockNumber": "0x728615",
          "blockTimestamp": "0x67d217e7",
          "transactionHash": "0x690f3109522a49a9a6a664cfef3933b54326e03422982ef47f2372e92628446b",
          "transactionIndex": "0x1c",
          "logIndex": "0x1f",
          "removed": false
        },
        {
          "address": "0xf573e0745c3fa02b4a6739446c34c16de49fed52",
          "topics": [
            "0x29c9a76ad8ab7c718763b6bf354772284236b8c30dbacf79b1bd84d26e767225"
          ],
          "data": "0x0000000000000000000000000000000000000000000000000000000000000001",
          "blockHash": "0xd6f1a165df680f2d1d5d282c20f8c4613b7773b0a765eefdaaf82df3dc66bb2a",
          "blockNumber": "0x728615",
          "blockTimestamp": "0x67d217e7",
          "transactionHash": "0x690f3109522a49a9a6a664cfef3933b54326e03422982ef47f2372e92628446b",
          "transactionIndex": "0x1c",
          "logIndex": "0x20",
          "removed": false
        }
      ],
      "logsBloom": "0x00000000000000000200000002000000000000000000000000000000000000000000000000100000000000000000000000001000004100000002000000000000000000000000100000000008000000000000000000000400001000000000108000000000020000000000000200020800080000000000000000000010000000000000000001000000000000000000000000000000000000000008000000000000000000000010000000000000000000040000000000000000004001000000800000000002000000000000000000000000000000010000000000000000000020000000001000000000000000000000000000000400000000000008000000800000",
      "type": "0x0",
      "transactionHash": "0x690f3109522a49a9a6a664cfef3933b54326e03422982ef47f2372e92628446b",
      "transactionIndex": "0x1c",
      "blockHash": "0xd6f1a165df680f2d1d5d282c20f8c4613b7773b0a765eefdaaf82df3dc66bb2a",
      "blockNumber": "0x728615",
      "gasUsed": "0x5b34e",
      "effectiveGasPrice": "0xc1b710800",
      "from": "0x6efb11ac41b6657c32dac5ed4874082c700bba29",
      "to": "0xf573e0745c3fa02b4a6739446c34c16de49fed52",
      "contractAddress": null
    },
    {
      "status": "0x1",
      "cumulativeGasUsed": "0x37e8a2",
      "logs": [
        {
          "address": "0xf9861d7478f8957679b26404bd6272c39f949c29",
          "topics": [
            "0xddf252ad1be2c89b69c2b068fc378daa952ba7f163c4a11628f55a4df523b3ef",
            "0x0000000000000000000000002e45d737b1d3ca3c6fb4cb82193e0e3d7444e4bd",
            "0x0000000000000000000000001664f516fbe65dd0089152c93f724b8810881fdc"
          ],
          "data": "0x000000000000000000000000000000000000000000295be96e64066972000000",
          "blockHash": "0xd6f1a165df680f2d1d5d282c20f8c4613b7773b0a765eefdaaf82df3dc66bb2a",
          "blockNumber": "0x728615",
          "blockTimestamp": "0x67d217e7",
          "transactionHash": "0x29f327186ac0b0596e194ba0bd98e49158bc8988632c7145eb004409a74ba44e",
          "transactionIndex": "0x1d",
          "logIndex": "0x21",
          "removed": false
        },
        {
          "address": "0x58389610a3d13e8f380ee2ba077a6f36f2a90834",
          "topics": [
            "0xddf252ad1be2c89b69c2b068fc378daa952ba7f163c4a11628f55a4df523b3ef",
            "0x0000000000000000000000002e45d737b1d3ca3c6fb4cb82193e0e3d7444e4bd",
            "0x0000000000000000000000001664f516fbe65dd0089152c93f724b8810881fdc"
          ],
          "data": "0x000000000000000000000000000000000000000000000000000000037e11d600",
          "blockHash": "0xd6f1a165df680f2d1d5d282c20f8c4613b7773b0a765eefdaaf82df3dc66bb2a",
          "blockNumber": "0x728615",
          "blockTimestamp": "0x67d217e7",
          "transactionHash": "0x29f327186ac0b0596e194ba0bd98e49158bc8988632c7145eb004409a74ba44e",
          "transactionIndex": "0x1d",
          "logIndex": "0x22",
          "removed": false
        },
        {
          "address": "0x2c53ce7143d24a65410107f50e4aabad9a164480",
          "topics": [
            "0xddf252ad1be2c89b69c2b068fc378daa952ba7f163c4a11628f55a4df523b3ef",
            "0x0000000000000000000000002e45d737b1d3ca3c6fb4cb82193e0e3d7444e4bd",
            "0x0000000000000000000000006efb11ac41b6657c32dac5ed4874082c700bba29"
          ],
          "data": "0x000000000000000000000000000000000000000000000000000000003b9aca00",
          "blockHash": "0xd6f1a165df680f2d1d5d282c20f8c4613b7773b0a765eefdaaf82df3dc66bb2a",
          "blockNumber": "0x728615",
          "blockTimestamp": "0x67d217e7",
          "transactionHash": "0x29f327186ac0b0596e194ba0bd98e49158bc8988632c7145eb004409a74ba44e",
          "transactionIndex": "0x1d",
          "logIndex": "0x23",
          "removed": false
        },
        {
          "address": "0x1664f516fbe65dd0089152c93f724b8810881fdc",
          "topics": [
            "0xddf252ad1be2c89b69c2b068fc378daa952ba7f163c4a11628f55a4df523b3ef",
            "0x0000000000000000000000000000000000000000000000000000000000000000",
            "0x0000000000000000000000006efb11ac41b6657c32dac5ed4874082c700bba29"
          ],
          "data": "0x0000000000000000000000000000000000000000000004365c2ed573ac195900",
          "blockHash": "0xd6f1a165df680f2d1d5d282c20f8c4613b7773b0a765eefdaaf82df3dc66bb2a",
          "blockNumber": "0x728615",
          "blockTimestamp": "0x67d217e7",
          "transactionHash": "0x29f327186ac0b0596e194ba0bd98e49158bc8988632c7145eb004409a74ba44e",
          "transactionIndex": "0x1d",
          "logIndex": "0x24",
          "removed": false
        },
        {
          "address": "0xf573e0745c3fa02b4a6739446c34c16de49fed52",
          "topics": [
            "0x29c9a76ad8ab7c718763b6bf354772284236b8c30dbacf79b1bd84d26e767225"
          ],
          "data": "0x0000000000000000000000000000000000000000000000000000000000000002",
          "blockHash": "0xd6f1a165df680f2d1d5d282c20f8c4613b7773b0a765eefdaaf82df3dc66bb2a",
          "blockNumber": "0x728615",
          "blockTimestamp": "0x67d217e7",
          "transactionHash": "0x29f327186ac0b0596e194ba0bd98e49158bc8988632c7145eb004409a74ba44e",
          "transactionIndex": "0x1d",
          "logIndex": "0x25",
          "removed": false
        }
      ],
      "logsBloom": "0x00000000000000000200000000000000000000000000000000000000000000000000000000100000000000008000000000001000004100000000000000000000000000000000000040000008000000000000000000000c00001000000000108000100000060000400000000200000800000000000000000000000010000000000000000001000000000000000000000000000000000000000008000000000000000000000000000000040000000000040000000000000000000001000000800000000002080000000000000000000000000000010000000000000000000020000000001000000000000000000000000000000000000010000000000000800000",
      "type": "0x0",
      "transactionHash": "0x29f327186ac0b0596e194ba0bd98e49158bc8988632c7145eb004409a74ba44e",
      "transactionIndex": "0x1d",
      "blockHash": "0xd6f1a165df680f2d1d5d282c20f8c4613b7773b0a765eefdaaf82df3dc66bb2a",
      "blockNumber": "0x728615",
      "gasUsed": "0x5b34e",
      "effectiveGasPrice": "0xc1b710800",
      "from": "0x6efb11ac41b6657c32dac5ed4874082c700bba29",
      "to": "0xf573e0745c3fa02b4a6739446c34c16de49fed52",
      "contractAddress": null
    },
    {
      "status": "0x1",
      "cumulativeGasUsed": "0x3d9bf0",
      "logs": [
        {
          "address": "0x1889cfb8746716a0ac50e59a54f190987c5f04e6",
          "topics": [
            "0xddf252ad1be2c89b69c2b068fc378daa952ba7f163c4a11628f55a4df523b3ef",
            "0x0000000000000000000000002e45d737b1d3ca3c6fb4cb82193e0e3d7444e4bd",
            "0x00000000000000000000000041b38fcc7eb3365393d5a2228d14d34c8f841828"
          ],
          "data": "0x00000000000000000000000000000000000000000000000000005af3107a4000",
          "blockHash": "0xd6f1a165df680f2d1d5d282c20f8c4613b7773b0a765eefdaaf82df3dc66bb2a",
          "blockNumber": "0x728615",
          "blockTimestamp": "0x67d217e7",
          "transactionHash": "0xd38b4c9e4967e30538028baf0e3d69238a66884840d0f99de3844d68bcec95fd",
          "transactionIndex": "0x1e",
          "logIndex": "0x26",
          "removed": false
        },
        {
          "address": "0x58389610a3d13e8f380ee2ba077a6f36f2a90834",
          "topics": [
            "0xddf252ad1be2c89b69c2b068fc378daa952ba7f163c4a11628f55a4df523b3ef",
            "0x0000000000000000000000002e45d737b1d3ca3c6fb4cb82193e0e3d7444e4bd",
            "0x00000000000000000000000041b38fcc7eb3365393d5a2228d14d34c8f841828"
          ],
          "data": "0x00000000000000000000000000000000000000000000000000000045d964b800",
          "blockHash": "0xd6f1a165df680f2d1d5d282c20f8c4613b7773b0a765eefdaaf82df3dc66bb2a",
          "blockNumber": "0x728615",
          "blockTimestamp": "0x67d217e7",
          "transactionHash": "0xd38b4c9e4967e30538028baf0e3d69238a66884840d0f99de3844d68bcec95fd",
          "transactionIndex": "0x1e",
          "logIndex": "0x27",
          "removed": false
        },
        {
          "address": "0x2c53ce7143d24a65410107f50e4aabad9a164480",
          "topics": [
            "0xddf252ad1be2c89b69c2b068fc378daa952ba7f163c4a11628f55a4df523b3ef",
            "0x0000000000000000000000002e45d737b1d3ca3c6fb4cb82193e0e3d7444e4bd",
            "0x0000000000000000000000006efb11ac41b6657c32dac5ed4874082c700bba29"
          ],
          "data": "0x000000000000000000000000000000000000000000000000000000003b9aca00",
          "blockHash": "0xd6f1a165df680f2d1d5d282c20f8c4613b7773b0a765eefdaaf82df3dc66bb2a",
          "blockNumber": "0x728615",
          "blockTimestamp": "0x67d217e7",
          "transactionHash": "0xd38b4c9e4967e30538028baf0e3d69238a66884840d0f99de3844d68bcec95fd",
          "transactionIndex": "0x1e",
          "logIndex": "0x28",
          "removed": false
        },
        {
          "address": "0x41b38fcc7eb3365393d5a2228d14d34c8f841828",
          "topics": [
            "0xddf252ad1be2c89b69c2b068fc378daa952ba7f163c4a11628f55a4df523b3ef",
            "0x0000000000000000000000000000000000000000000000000000000000000000",
            "0x0000000000000000000000006efb11ac41b6657c32dac5ed4874082c700bba29"
          ],
          "data": "0x0000000000000000000000000000000000000000000054533e3e53bd61f99c00",
          "blockHash": "0xd6f1a165df680f2d1d5d282c20f8c4613b7773b0a765eefdaaf82df3dc66bb2a",
          "blockNumber": "0x728615",
          "blockTimestamp": "0x67d217e7",
          "transactionHash": "0xd38b4c9e4967e30538028baf0e3d69238a66884840d0f99de3844d68bcec95fd",
          "transactionIndex": "0x1e",
          "logIndex": "0x29",
          "removed": false
        },
        {
          "address": "0xf573e0745c3fa02b4a6739446c34c16de49fed52",
          "topics": [
            "0x29c9a76ad8ab7c718763b6bf354772284236b8c30dbacf79b1bd84d26e767225"
          ],
          "data": "0x0000000000000000000000000000000000000000000000000000000000000003",
          "blockHash": "0xd6f1a165df680f2d1d5d282c20f8c4613b7773b0a765eefdaaf82df3dc66bb2a",
          "blockNumber": "0x728615",
          "blockTimestamp": "0x67d217e7",
          "transactionHash": "0xd38b4c9e4967e30538028baf0e3d69238a66884840d0f99de3844d68bcec95fd",
          "transactionIndex": "0x1e",
          "logIndex": "0x2a",
          "removed": false
        }
      ],
      "logsBloom": "0x00000000000000000200000000000000000000000000000000000000000000000000000000100000000000000000000000001000004100000000000000000000000000000000000000000008000000000000000000000400001400000000108004000000020000000000000200000802000000000000000000000010000000000000000001000020000000000000000000000000000000000008000000000000000000000000100000000000000000040000000000000000000001000000800000000002000000000000000000000001000000010000000000000000000020000800001080200000000000000000000000000000000000000000000000800000",
      "type": "0x0",
      "transactionHash": "0xd38b4c9e4967e30538028baf0e3d69238a66884840d0f99de3844d68bcec95fd",
      "transactionIndex": "0x1e",
      "blockHash": "0xd6f1a165df680f2d1d5d282c20f8c4613b7773b0a765eefdaaf82df3dc66bb2a",
      "blockNumber": "0x728615",
      "gasUsed": "0x5b34e",
      "effectiveGasPrice": "0xc1b710800",
      "from": "0x6efb11ac41b6657c32dac5ed4874082c700bba29",
      "to": "0xf573e0745c3fa02b4a6739446c34c16de49fed52",
      "contractAddress": null
    },
    {
      "status": "0x1",
      "cumulativeGasUsed": "0x434f3e",
      "logs": [
        {
          "address": "0x6bc8a42d4b2f4bc8e4c3f9ecff00b7290ffa7405",
          "topics": [
            "0xddf252ad1be2c89b69c2b068fc378daa952ba7f163c4a11628f55a4df523b3ef",
            "0x0000000000000000000000002e45d737b1d3ca3c6fb4cb82193e0e3d7444e4bd",
            "0x00000000000000000000000099bd3ff38f0dc9a819a0442f1d5ddbcd60072ece"
          ],
          "data": "0x0000000000000000000000000000000000000000000069e10de76676d0800000",
          "blockHash": "0xd6f1a165df680f2d1d5d282c20f8c4613b7773b0a765eefdaaf82df3dc66bb2a",
          "blockNumber": "0x728615",
          "blockTimestamp": "0x67d217e7",
          "transactionHash": "0x8b8e8701b0af5639089a1585510b050d0aa38ea34dc437e0d5d8ea5a906762c4",
          "transactionIndex": "0x1f",
          "logIndex": "0x2b",
          "removed": false
        },
        {
          "address": "0x58389610a3d13e8f380ee2ba077a6f36f2a90834",
          "topics": [
            "0xddf252ad1be2c89b69c2b068fc378daa952ba7f163c4a11628f55a4df523b3ef",
            "0x0000000000000000000000002e45d737b1d3ca3c6fb4cb82193e0e3d7444e4bd",
            "0x00000000000000000000000099bd3ff38f0dc9a819a0442f1d5ddbcd60072ece"
          ],
          "data": "0x0000000000000000000000000000000000000000000000000000001176592e00",
          "blockHash": "0xd6f1a165df680f2d1d5d282c20f8c4613b7773b0a765eefdaaf82df3dc66bb2a",
          "blockNumber": "0x728615",
          "blockTimestamp": "0x67d217e7",
          "transactionHash": "0x8b8e8701b0af5639089a1585510b050d0aa38ea34dc437e0d5d8ea5a906762c4",
          "transactionIndex": "0x1f",
          "logIndex": "0x2c",
          "removed": false
        },
        {
          "address": "0x2c53ce7143d24a65410107f50e4aabad9a164480",
          "topics": [
            "0xddf252ad1be2c89b69c2b068fc378daa952ba7f163c4a11628f55a4df523b3ef",
            "0x0000000000000000000000002e45d737b1d3ca3c6fb4cb82193e0e3d7444e4bd",
            "0x0000000000000000000000006efb11ac41b6657c32dac5ed4874082c700bba29"
          ],
          "data": "0x000000000000000000000000000000000000000000000000000000003b9aca00",
          "blockHash": "0xd6f1a165df680f2d1d5d282c20f8c4613b7773b0a765eefdaaf82df3dc66bb2a",
          "blockNumber": "0x728615",
          "blockTimestamp": "0x67d217e7",
          "transactionHash": "0x8b8e8701b0af5639089a1585510b050d0aa38ea34dc437e0d5d8ea5a906762c4",
          "transactionIndex": "0x1f",
          "logIndex": "0x2d",
          "removed": false
        },
        {
          "address": "0x99bd3ff38f0dc9a819a0442f1d5ddbcd60072ece",
          "topics": [
            "0xddf252ad1be2c89b69c2b068fc378daa952ba7f163c4a11628f55a4df523b3ef",
            "0x0000000000000000000000000000000000000000000000000000000000000000",
            "0x0000000000000000000000006efb11ac41b6657c32dac5ed4874082c700bba29"
          ],
          "data": "0x000000000000000000000000000000000000000000001543822618632f17cb80",
          "blockHash": "0xd6f1a165df680f2d1d5d282c20f8c4613b7773b0a765eefdaaf82df3dc66bb2a",
          "blockNumber": "0x728615",
          "blockTimestamp": "0x67d217e7",
          "transactionHash": "0x8b8e8701b0af5639089a1585510b050d0aa38ea34dc437e0d5d8ea5a906762c4",
          "transactionIndex": "0x1f",
          "logIndex": "0x2e",
          "removed": false
        },
        {
          "address": "0xf573e0745c3fa02b4a6739446c34c16de49fed52",
          "topics": [
            "0x29c9a76ad8ab7c718763b6bf354772284236b8c30dbacf79b1bd84d26e767225"
          ],
          "data": "0x0000000000000000000000000000000000000000000000000000000000000004",
          "blockHash": "0xd6f1a165df680f2d1d5d282c20f8c4613b7773b0a765eefdaaf82df3dc66bb2a",
          "blockNumber": "0x728615",
          "blockTimestamp": "0x67d217e7",
          "transactionHash": "0x8b8e8701b0af5639089a1585510b050d0aa38ea34dc437e0d5d8ea5a906762c4",
          "transactionIndex": "0x1f",
          "logIndex": "0x2f",
          "removed": false
        }
      ],
      "logsBloom": "0x00000000000000000200000000000000000000000000000000000000000000000000000000100000000000000000000000003000004100000400000000000000000000000000000000000008000040000000000000000400001000000000108000000000020000000000000200000800000000000000000000000010000000000000000001000000000000000000000000100000000000000008000000000000000001000200000000000000000000050000000000000000000001000000800000000022000000000000000000000000000000010000000000000000000020000000001000000000000000000000000000000000000000000000000000900000",
      "type": "0x0",
      "transactionHash": "0x8b8e8701b0af5639089a1585510b050d0aa38ea34dc437e0d5d8ea5a906762c4",
      "transactionIndex": "0x1f",
      "blockHash": "0xd6f1a165df680f2d1d5d282c20f8c4613b7773b0a765eefdaaf82df3dc66bb2a",
      "blockNumber": "0x728615",
      "gasUsed": "0x5b34e",
      "effectiveGasPrice": "0xc1b710800",
      "from": "0x6efb11ac41b6657c32dac5ed4874082c700bba29",
      "to": "0xf573e0745c3fa02b4a6739446c34c16de49fed52",
      "contractAddress": null
    },
    {
      "status": "0x1",
      "cumulativeGasUsed": "0x48ba10",
      "logs": [
        {
          "address": "0xe3f98fda6dbd38c1017754f1675dce377381c23c",
          "topics": [
            "0xddf252ad1be2c89b69c2b068fc378daa952ba7f163c4a11628f55a4df523b3ef",
            "0x0000000000000000000000002e45d737b1d3ca3c6fb4cb82193e0e3d7444e4bd",
            "0x000000000000000000000000339ae32f85f4a43b8dc0b685dc2d39179653ca01"
          ],
          "data": "0x00000000000000000000000000000000000000000000021e19e0c9bab2400000",
          "blockHash": "0xd6f1a165df680f2d1d5d282c20f8c4613b7773b0a765eefdaaf82df3dc66bb2a",
          "blockNumber": "0x728615",
          "blockTimestamp": "0x67d217e7",
          "transactionHash": "0xd3b1f1a769c0f9eb69d3ecc7221aed8164be98773e7fb94254e01c347a530665",
          "transactionIndex": "0x20",
          "logIndex": "0x30",
          "removed": false
        },
        {
          "address": "0x58389610a3d13e8f380ee2ba077a6f36f2a90834",
          "topics": [
            "0xddf252ad1be2c89b69c2b068fc378daa952ba7f163c4a11628f55a4df523b3ef",
            "0x0000000000000000000000002e45d737b1d3ca3c6fb4cb82193e0e3d7444e4bd",
            "0x000000000000000000000000339ae32f85f4a43b8dc0b685dc2d39179653ca01"
          ],
          "data": "0x00000000000000000000000000000000000000000000000000000068c6171400",
          "blockHash": "0xd6f1a165df680f2d1d5d282c20f8c4613b7773b0a765eefdaaf82df3dc66bb2a",
          "blockNumber": "0x728615",
          "blockTimestamp": "0x67d217e7",
          "transactionHash": "0xd3b1f1a769c0f9eb69d3ecc7221aed8164be98773e7fb94254e01c347a530665",
          "transactionIndex": "0x20",
          "logIndex": "0x31",
          "removed": false
        },
        {
          "address": "0x2c53ce7143d24a65410107f50e4aabad9a164480",
          "topics": [
            "0xddf252ad1be2c89b69c2b068fc378daa952ba7f163c4a11628f55a4df523b3ef",
            "0x0000000000000000000000002e45d737b1d3ca3c6fb4cb82193e0e3d7444e4bd",
            "0x0000000000000000000000006efb11ac41b6657c32dac5ed4874082c700bba29"
          ],
          "data": "0x000000000000000000000000000000000000000000000000000000003b9aca00",
          "blockHash": "0xd6f1a165df680f2d1d5d282c20f8c4613b7773b0a765eefdaaf82df3dc66bb2a",
          "blockNumber": "0x728615",
          "blockTimestamp": "0x67d217e7",
          "transactionHash": "0xd3b1f1a769c0f9eb69d3ecc7221aed8164be98773e7fb94254e01c347a530665",
          "transactionIndex": "0x20",
          "logIndex": "0x32",
          "removed": false
        },
        {
          "address": "0x339ae32f85f4a43b8dc0b685dc2d39179653ca01",
          "topics": [
            "0xddf252ad1be2c89b69c2b068fc378daa952ba7f163c4a11628f55a4df523b3ef",
            "0x0000000000000000000000000000000000000000000000000000000000000000",
            "0x0000000000000000000000006efb11ac41b6657c32dac5ed4874082c700bba29"
          ],
          "data": "0x000000000000000000000000000000000000000000007fbd1d2b3f0002736510",
          "blockHash": "0xd6f1a165df680f2d1d5d282c20f8c4613b7773b0a765eefdaaf82df3dc66bb2a",
          "blockNumber": "0x728615",
          "blockTimestamp": "0x67d217e7",
          "transactionHash": "0xd3b1f1a769c0f9eb69d3ecc7221aed8164be98773e7fb94254e01c347a530665",
          "transactionIndex": "0x20",
          "logIndex": "0x33",
          "removed": false
        },
        {
          "address": "0xf573e0745c3fa02b4a6739446c34c16de49fed52",
          "topics": [
            "0x29c9a76ad8ab7c718763b6bf354772284236b8c30dbacf79b1bd84d26e767225"
          ],
          "data": "0x0000000000000000000000000000000000000000000000000000000000000005",
          "blockHash": "0xd6f1a165df680f2d1d5d282c20f8c4613b7773b0a765eefdaaf82df3dc66bb2a",
          "blockNumber": "0x728615",
          "blockTimestamp": "0x67d217e7",
          "transactionHash": "0xd3b1f1a769c0f9eb69d3ecc7221aed8164be98773e7fb94254e01c347a530665",
          "transactionIndex": "0x20",
          "logIndex": "0x34",
          "removed": false
        }
      ],
      "logsBloom": "0x00000000000000002200000000000000000000000000000000000000000000000000000000100000000000000000000000001000004101000000000000000000000000000000000000000008000000100000000000000400001000000000108000000000020000001000000200000800000000000000000000000010000000000000000001000000000000000000000000000000000000000028000000000000000000000000000000001000000020040000000000000000000001000000800000000002000000000000008000000000000000010000000000000000000020000000001000000000000000000000000010000000000000000000000000800000",
      "type": "0x0",
      "transactionHash": "0xd3b1f1a769c0f9eb69d3ecc7221aed8164be98773e7fb94254e01c347a530665",
      "transactionIndex": "0x20",
      "blockHash": "0xd6f1a165df680f2d1d5d282c20f8c4613b7773b0a765eefdaaf82df3dc66bb2a",
      "blockNumber": "0x728615",
      "gasUsed": "0x56ad2",
      "effectiveGasPrice": "0xc1b710800",
      "from": "0x6efb11ac41b6657c32dac5ed4874082c700bba29",
      "to": "0xf573e0745c3fa02b4a6739446c34c16de49fed52",
      "contractAddress": null
    }
  ],
  "libraries": [],
  "pending": [],
  "returns": {},
  "timestamp": 1741821929,
  "chain": 10143,
  "commit": "e7e6a38"
}