{
  "transactions": [
    {
      "hash": "0x815c02cb7cbc18b14d9f1ce528084a0d5bdaf93b3ed0831effc6647dc9e489e2",
      "transactionType": "CALL",
      "contractName": null,
      "contractAddress": "0xe50914672560e18b2f5ce311a4557880df05000c",
      "function": "executeDeposit(uint256)",
      "arguments": [
        "0"
      ],
      "transaction": {
        "from": "0x6efb11ac41b6657c32dac5ed4874082c700bba29",
        "to": "0xe50914672560e18b2f5ce311a4557880df05000c",
        "gas": "0x560c9",
        "value": "0x0",
        "input": "0x7026e9fd0000000000000000000000000000000000000000000000000000000000000000",
        "nonce": "0x1ef",
        "chainId": "0x279f"
      },
      "additionalContracts": [],
      "isFixedGasLimit": false
    },
    {
      "hash": "0x641c8eedc25fea6e4af053e3ad70cecc9530df8396e78f36f3dbd84e7cb0ba35",
      "transactionType": "CALL",
      "contractName": null,
      "contractAddress": "0xe50914672560e18b2f5ce311a4557880df05000c",
      "function": "executeDeposit(uint256)",
      "arguments": [
        "1"
      ],
      "transaction": {
        "from": "0x6efb11ac41b6657c32dac5ed4874082c700bba29",
        "to": "0xe50914672560e18b2f5ce311a4557880df05000c",
        "gas": "0x56e57",
        "value": "0x0",
        "input": "0x7026e9fd0000000000000000000000000000000000000000000000000000000000000001",
        "nonce": "0x1f0",
        "chainId": "0x279f"
      },
      "additionalContracts": [],
      "isFixedGasLimit": false
    },
    {
      "hash": "0xab043843afc6cc75ec43350d1c9119a2ec1cfea7df4a35fe4a744a8032a26368",
      "transactionType": "CALL",
      "contractName": null,
      "contractAddress": "0xe50914672560e18b2f5ce311a4557880df05000c",
      "function": "executeDeposit(uint256)",
      "arguments": [
        "2"
      ],
      "transaction": {
        "from": "0x6efb11ac41b6657c32dac5ed4874082c700bba29",
        "to": "0xe50914672560e18b2f5ce311a4557880df05000c",
        "gas": "0x56e57",
        "value": "0x0",
        "input": "0x7026e9fd0000000000000000000000000000000000000000000000000000000000000002",
        "nonce": "0x1f1",
        "chainId": "0x279f"
      },
      "additionalContracts": [],
      "isFixedGasLimit": false
    },
    {
      "hash": "0x05f70c630cb191cc35610360b66643d1093c76a8c528f901df2ae702deb982b9",
      "transactionType": "CALL",
      "contractName": null,
      "contractAddress": "0xe50914672560e18b2f5ce311a4557880df05000c",
      "function": "executeDeposit(uint256)",
      "arguments": [
        "3"
      ],
      "transaction": {
        "from": "0x6efb11ac41b6657c32dac5ed4874082c700bba29",
        "to": "0xe50914672560e18b2f5ce311a4557880df05000c",
        "gas": "0x56e57",
        "value": "0x0",
        "input": "0x7026e9fd0000000000000000000000000000000000000000000000000000000000000003",
        "nonce": "0x1f2",
        "chainId": "0x279f"
      },
      "additionalContracts": [],
      "isFixedGasLimit": false
    },
    {
      "hash": "0x46e4081d3cd6032bde83d2d47d9c14ef5d3ad0e364e7e4f713877ce65368448a",
      "transactionType": "CALL",
      "contractName": null,
      "contractAddress": "0xe50914672560e18b2f5ce311a4557880df05000c",
      "function": "executeDeposit(uint256)",
      "arguments": [
        "4"
      ],
      "transaction": {
        "from": "0x6efb11ac41b6657c32dac5ed4874082c700bba29",
        "to": "0xe50914672560e18b2f5ce311a4557880df05000c",
        "gas": "0x56e57",
        "value": "0x0",
        "input": "0x7026e9fd0000000000000000000000000000000000000000000000000000000000000004",
        "nonce": "0x1f3",
        "chainId": "0x279f"
      },
      "additionalContracts": [],
      "isFixedGasLimit": false
    },
    {
      "hash": "0x7fced794959893bfb4fc941559be80fbaf99f429874d20c2ea840f711eceda2a",
      "transactionType": "CALL",
      "contractName": null,
      "contractAddress": "0xe50914672560e18b2f5ce311a4557880df05000c",
      "function": "executeDeposit(uint256)",
      "arguments": [
        "5"
      ],
      "transaction": {
        "from": "0x6efb11ac41b6657c32dac5ed4874082c700bba29",
        "to": "0xe50914672560e18b2f5ce311a4557880df05000c",
        "gas": "0x52775",
        "value": "0x0",
        "input": "0x7026e9fd0000000000000000000000000000000000000000000000000000000000000005",
        "nonce": "0x1f4",
        "chainId": "0x279f"
      },
      "additionalContracts": [],
      "isFixedGasLimit": false
    }
  ],
  "receipts": [
    {
      "status": "0x1",
      "cumulativeGasUsed": "0x40a78b",
      "logs": [
        {
          "address": "0x2c53ce7143d24a65410107f50e4aabad9a164480",
          "topics": [
            "0xddf252ad1be2c89b69c2b068fc378daa952ba7f163c4a11628f55a4df523b3ef",
            "0x000000000000000000000000823f91041c1cecdc65ee8a7335f471ac1a08caf0",
            "0x0000000000000000000000000e87d21bd714d3391e992227e472517a9dc16a24"
          ],
          "data": "0x0000000000000000000000000000000000000000000000056bc75e2d63100000",
          "blockHash": "0x498fc53951fcb3b065993697c1a62949a5d38bf3f45572ee330ca665d75aff99",
          "blockNumber": "0x7448af",
          "blockTimestamp": "0x67d32d95",
          "transactionHash": "0x815c02cb7cbc18b14d9f1ce528084a0d5bdaf93b3ed0831effc6647dc9e489e2",
          "transactionIndex": "0x15",
          "logIndex": "0x30",
          "removed": false
        },
        {
          "address": "0x58389610a3d13e8f380ee2ba077a6f36f2a90834",
          "topics": [
            "0xddf252ad1be2c89b69c2b068fc378daa952ba7f163c4a11628f55a4df523b3ef",
            "0x000000000000000000000000823f91041c1cecdc65ee8a7335f471ac1a08caf0",
            "0x0000000000000000000000000e87d21bd714d3391e992227e472517a9dc16a24"
          ],
          "data": "0x0000000000000000000000000000000000000000000000000000008bb2c97000",
          "blockHash": "0x498fc53951fcb3b065993697c1a62949a5d38bf3f45572ee330ca665d75aff99",
          "blockNumber": "0x7448af",
          "blockTimestamp": "0x67d32d95",
          "transactionHash": "0x815c02cb7cbc18b14d9f1ce528084a0d5bdaf93b3ed0831effc6647dc9e489e2",
          "transactionIndex": "0x15",
          "logIndex": "0x31",
          "removed": false
        },
        {
          "address": "0x2c53ce7143d24a65410107f50e4aabad9a164480",
          "topics": [
            "0xddf252ad1be2c89b69c2b068fc378daa952ba7f163c4a11628f55a4df523b3ef",
            "0x000000000000000000000000823f91041c1cecdc65ee8a7335f471ac1a08caf0",
            "0x0000000000000000000000006efb11ac41b6657c32dac5ed4874082c700bba29"
          ],
          "data": "0x000000000000000000000000000000000000000000000000000000003b9aca00",
          "blockHash": "0x498fc53951fcb3b065993697c1a62949a5d38bf3f45572ee330ca665d75aff99",
          "blockNumber": "0x7448af",
          "blockTimestamp": "0x67d32d95",
          "transactionHash": "0x815c02cb7cbc18b14d9f1ce528084a0d5bdaf93b3ed0831effc6647dc9e489e2",
          "transactionIndex": "0x15",
          "logIndex": "0x32",
          "removed": false
        },
        {
          "address": "0x0e87d21bd714d3391e992227e472517a9dc16a24",
          "topics": [
            "0xddf252ad1be2c89b69c2b068fc378daa952ba7f163c4a11628f55a4df523b3ef",
            "0x0000000000000000000000000000000000000000000000000000000000000000",
            "0x0000000000000000000000006efb11ac41b6657c32dac5ed4874082c700bba29"
          ],
          "data": "0x00000000000000000000000000000000000000000000a845751ad2c7cd904a1c",
          "blockHash": "0x498fc53951fcb3b065993697c1a62949a5d38bf3f45572ee330ca665d75aff99",
          "blockNumber": "0x7448af",
          "blockTimestamp": "0x67d32d95",
          "transactionHash": "0x815c02cb7cbc18b14d9f1ce528084a0d5bdaf93b3ed0831effc6647dc9e489e2",
          "transactionIndex": "0x15",
          "logIndex": "0x33",
          "removed": false
        },
        {
          "address": "0xe50914672560e18b2f5ce311a4557880df05000c",
          "topics": [
            "0x29c9a76ad8ab7c718763b6bf354772284236b8c30dbacf79b1bd84d26e767225"
          ],
          "data": "0x0000000000000000000000000000000000000000000000000000000000000000",
          "blockHash": "0x498fc53951fcb3b065993697c1a62949a5d38bf3f45572ee330ca665d75aff99",
          "blockNumber": "0x7448af",
          "blockTimestamp": "0x67d32d95",
          "transactionHash": "0x815c02cb7cbc18b14d9f1ce528084a0d5bdaf93b3ed0831effc6647dc9e489e2",
          "transactionIndex": "0x15",
          "logIndex": "0x34",
          "removed": false
        }
      ],
      "logsBloom": "0x00000000000000000200000000000000004080000000000000000200000000000000000000000000000000000000000000001000004100800000000000000000000000000000000000000008000020004000000000000400001000000000000000000000020000000000400000000820000100000000000000000010000000000000000001000000000000000040000000000000000000000000000000000040000000000000000000000000000000040000000000000000000001000000800000000002000000000000000000000000000000010000000000000000000020000000001000000000000000000000000000000000000000000000000000000000",
      "type": "0x0",
      "transactionHash": "0x815c02cb7cbc18b14d9f1ce528084a0d5bdaf93b3ed0831effc6647dc9e489e2",
      "transactionIndex": "0x15",
      "blockHash": "0x498fc53951fcb3b065993697c1a62949a5d38bf3f45572ee330ca665d75aff99",
      "blockNumber": "0x7448af",
      "gasUsed": "0x560c9",
      "effectiveGasPrice": "0xc1b710800",
      "from": "0x6efb11ac41b6657c32dac5ed4874082c700bba29",
      "to": "0xe50914672560e18b2f5ce311a4557880df05000c",
      "contractAddress": null
    },
    {
      "status": "0x1",
      "cumulativeGasUsed": "0x4615e2",
      "logs": [
        {
          "address": "0x53f7c389cbb801e2abfd301ded6d2a1cf330ac0d",
          "topics": [
            "0xddf252ad1be2c89b69c2b068fc378daa952ba7f163c4a11628f55a4df523b3ef",
            "0x000000000000000000000000823f91041c1cecdc65ee8a7335f471ac1a08caf0",
            "0x000000000000000000000000ba8a671c225721803cd64b12cb62a2363e9ee873"
          ],
          "data": "0x000000000000000000000000000000000000000000000002b5e3af16b1880000",
          "blockHash": "0x498fc53951fcb3b065993697c1a62949a5d38bf3f45572ee330ca665d75aff99",
          "blockNumber": "0x7448af",
          "blockTimestamp": "0x67d32d95",
          "transactionHash": "0x641c8eedc25fea6e4af053e3ad70cecc9530df8396e78f36f3dbd84e7cb0ba35",
          "transactionIndex": "0x16",
          "logIndex": "0x35",
          "removed": false
        },
        {
          "address": "0x58389610a3d13e8f380ee2ba077a6f36f2a90834",
          "topics": [
            "0xddf252ad1be2c89b69c2b068fc378daa952ba7f163c4a11628f55a4df523b3ef",
            "0x000000000000000000000000823f91041c1cecdc65ee8a7335f471ac1a08caf0",
            "0x000000000000000000000000ba8a671c225721803cd64b12cb62a2363e9ee873"
          ],
          "data": "0x000000000000000000000000000000000000000000000000000005bad5431800",
          "blockHash": "0x498fc53951fcb3b065993697c1a62949a5d38bf3f45572ee330ca665d75aff99",
          "blockNumber": "0x7448af",
          "blockTimestamp": "0x67d32d95",
          "transactionHash": "0x641c8eedc25fea6e4af053e3ad70cecc9530df8396e78f36f3dbd84e7cb0ba35",
          "transactionIndex": "0x16",
          "logIndex": "0x36",
          "removed": false
        },
        {
          "address": "0x2c53ce7143d24a65410107f50e4aabad9a164480",
          "topics": [
            "0xddf252ad1be2c89b69c2b068fc378daa952ba7f163c4a11628f55a4df523b3ef",
            "0x000000000000000000000000823f91041c1cecdc65ee8a7335f471ac1a08caf0",
            "0x0000000000000000000000006efb11ac41b6657c32dac5ed4874082c700bba29"
          ],
          "data": "0x000000000000000000000000000000000000000000000000000000003b9aca00",
          "blockHash": "0x498fc53951fcb3b065993697c1a62949a5d38bf3f45572ee330ca665d75aff99",
          "blockNumber": "0x7448af",
          "blockTimestamp": "0x67d32d95",
          "transactionHash": "0x641c8eedc25fea6e4af053e3ad70cecc9530df8396e78f36f3dbd84e7cb0ba35",
          "transactionIndex": "0x16",
          "logIndex": "0x37",
          "removed": false
        },
        {
          "address": "0xba8a671c225721803cd64b12cb62a2363e9ee873",
          "topics": [
            "0xddf252ad1be2c89b69c2b068fc378daa952ba7f163c4a11628f55a4df523b3ef",
            "0x0000000000000000000000000000000000000000000000000000000000000000",
            "0x0000000000000000000000006efb11ac41b6657c32dac5ed4874082c700bba29"
          ],
          "data": "0x00000000000000000000000000000000000000000006ddfe1b98bfad279b9058",
          "blockHash": "0x498fc53951fcb3b065993697c1a62949a5d38bf3f45572ee330ca665d75aff99",
          "blockNumber": "0x7448af",
          "blockTimestamp": "0x67d32d95",
          "transactionHash": "0x641c8eedc25fea6e4af053e3ad70cecc9530df8396e78f36f3dbd84e7cb0ba35",
          "transactionIndex": "0x16",
          "logIndex": "0x38",
          "removed": false
        },
        {
          "address": "0xe50914672560e18b2f5ce311a4557880df05000c",
          "topics": [
            "0x29c9a76ad8ab7c718763b6bf354772284236b8c30dbacf79b1bd84d26e767225"
          ],
          "data": "0x0000000000000000000000000000000000000000000000000000000000000001",
          "blockHash": "0x498fc53951fcb3b065993697c1a62949a5d38bf3f45572ee330ca665d75aff99",
          "blockNumber": "0x7448af",
          "blockTimestamp": "0x67d32d95",
          "transactionHash": "0x641c8eedc25fea6e4af053e3ad70cecc9530df8396e78f36f3dbd84e7cb0ba35",
          "transactionIndex": "0x16",
          "logIndex": "0x39",
          "removed": false
        }
      ],
      "logsBloom": "0x00000000000000000200000002000000000000000000000000000000000000000000000000000400000000000000000000001000004100800000000000000000000000000000000000000008000000000000000000000400001000000000000000000000020000000000400000000830400100000000000000000010000000000000000001000000000000000040000000000000200000000000000000000040000200000010000000000000000000040000000002000000000001000000800000000002000000000000000000000000000000010000000000000000000020000000001000000000000000000000000000000000000000000008000000000000",
      "type": "0x0",
      "transactionHash": "0x641c8eedc25fea6e4af053e3ad70cecc9530df8396e78f36f3dbd84e7cb0ba35",
      "transactionIndex": "0x16",
      "blockHash": "0x498fc53951fcb3b065993697c1a62949a5d38bf3f45572ee330ca665d75aff99",
      "blockNumber": "0x7448af",
      "gasUsed": "0x56e57",
      "effectiveGasPrice": "0xc1b710800",
      "from": "0x6efb11ac41b6657c32dac5ed4874082c700bba29",
      "to": "0xe50914672560e18b2f5ce311a4557880df05000c",
      "contractAddress": null
    },
    {
      "status": "0x1",
      "cumulativeGasUsed": "0x4b8439",
      "logs": [
        {
          "address": "0xf9861d7478f8957679b26404bd6272c39f949c29",
          "topics": [
            "0xddf252ad1be2c89b69c2b068fc378daa952ba7f163c4a11628f55a4df523b3ef",
            "0x000000000000000000000000823f91041c1cecdc65ee8a7335f471ac1a08caf0",
            "0x00000000000000000000000061cbb1a8fb2f8710fe95c6c3ef039b5828cb000b"
          ],
          "data": "0x000000000000000000000000000000000000000000295be96e64066972000000",
          "blockHash": "0x498fc53951fcb3b065993697c1a62949a5d38bf3f45572ee330ca665d75aff99",
          "blockNumber": "0x7448af",
          "blockTimestamp": "0x67d32d95",
          "transactionHash": "0xab043843afc6cc75ec43350d1c9119a2ec1cfea7df4a35fe4a744a8032a26368",
          "transactionIndex": "0x17",
          "logIndex": "0x3a",
          "removed": false
        },
        {
          "address": "0x58389610a3d13e8f380ee2ba077a6f36f2a90834",
          "topics": [
            "0xddf252ad1be2c89b69c2b068fc378daa952ba7f163c4a11628f55a4df523b3ef",
            "0x000000000000000000000000823f91041c1cecdc65ee8a7335f471ac1a08caf0",
            "0x00000000000000000000000061cbb1a8fb2f8710fe95c6c3ef039b5828cb000b"
          ],
          "data": "0x000000000000000000000000000000000000000000000000000000037e11d600",
          "blockHash": "0x498fc53951fcb3b065993697c1a62949a5d38bf3f45572ee330ca665d75aff99",
          "blockNumber": "0x7448af",
          "blockTimestamp": "0x67d32d95",
          "transactionHash": "0xab043843afc6cc75ec43350d1c9119a2ec1cfea7df4a35fe4a744a8032a26368",
          "transactionIndex": "0x17",
          "logIndex": "0x3b",
          "removed": false
        },
        {
          "address": "0x2c53ce7143d24a65410107f50e4aabad9a164480",
          "topics": [
            "0xddf252ad1be2c89b69c2b068fc378daa952ba7f163c4a11628f55a4df523b3ef",
            "0x000000000000000000000000823f91041c1cecdc65ee8a7335f471ac1a08caf0",
            "0x0000000000000000000000006efb11ac41b6657c32dac5ed4874082c700bba29"
          ],
          "data": "0x000000000000000000000000000000000000000000000000000000003b9aca00",
          "blockHash": "0x498fc53951fcb3b065993697c1a62949a5d38bf3f45572ee330ca665d75aff99",
          "blockNumber": "0x7448af",
          "blockTimestamp": "0x67d32d95",
          "transactionHash": "0xab043843afc6cc75ec43350d1c9119a2ec1cfea7df4a35fe4a744a8032a26368",
          "transactionIndex": "0x17",
          "logIndex": "0x3c",
          "removed": false
        },
        {
          "address": "0x61cbb1a8fb2f8710fe95c6c3ef039b5828cb000b",
          "topics": [
            "0xddf252ad1be2c89b69c2b068fc378daa952ba7f163c4a11628f55a4df523b3ef",
            "0x0000000000000000000000000000000000000000000000000000000000000000",
            "0x0000000000000000000000006efb11ac41b6657c32dac5ed4874082c700bba29"
          ],
          "data": "0x000000000000000000000000000000000000000000000443bac56b7b5e9e7200",
          "blockHash": "0x498fc53951fcb3b065993697c1a62949a5d38bf3f45572ee330ca665d75aff99",
          "blockNumber": "0x7448af",
          "blockTimestamp": "0x67d32d95",
          "transactionHash": "0xab043843afc6cc75ec43350d1c9119a2ec1cfea7df4a35fe4a744a8032a26368",
          "transactionIndex": "0x17",
          "logIndex": "0x3d",
          "removed": false
        },
        {
          "address": "0xe50914672560e18b2f5ce311a4557880df05000c",
          "topics": [
            "0x29c9a76ad8ab7c718763b6bf354772284236b8c30dbacf79b1bd84d26e767225"
          ],
          "data": "0x0000000000000000000000000000000000000000000000000000000000000002",
          "blockHash": "0x498fc53951fcb3b065993697c1a62949a5d38bf3f45572ee330ca665d75aff99",
          "blockNumber": "0x7448af",
          "blockTimestamp": "0x67d32d95",
          "transactionHash": "0xab043843afc6cc75ec43350d1c9119a2ec1cfea7df4a35fe4a744a8032a26368",
          "transactionIndex": "0x17",
          "logIndex": "0x3e",
          "removed": false
        }
      ],
      "logsBloom": "0x00000000000000000200000000000000100000000000000000000000400000000000000000000000000000000000000000001000004100800000000000000000000004000000000000000008000000000000002000000400001000000000000000000000060000000000400000000820000100000000000000000010000000000000000001000000000000000040000000000000000000000000000000000040000000000000000000040000000000040000000000000000000001000000800000000002080000000000000000000000000000010000800000000004000020000000001000000000000000000000000000000000000000000000000000000000",
      "type": "0x0",
      "transactionHash": "0xab043843afc6cc75ec43350d1c9119a2ec1cfea7df4a35fe4a744a8032a26368",
      "transactionIndex": "0x17",
      "blockHash": "0x498fc53951fcb3b065993697c1a62949a5d38bf3f45572ee330ca665d75aff99",
      "blockNumber": "0x7448af",
      "gasUsed": "0x56e57",
      "effectiveGasPrice": "0xc1b710800",
      "from": "0x6efb11ac41b6657c32dac5ed4874082c700bba29",
      "to": "0xe50914672560e18b2f5ce311a4557880df05000c",
      "contractAddress": null
    },
    {
      "status": "0x1",
      "cumulativeGasUsed": "0x50f290",
      "logs": [
        {
          "address": "0x1889cfb8746716a0ac50e59a54f190987c5f04e6",
          "topics": [
            "0xddf252ad1be2c89b69c2b068fc378daa952ba7f163c4a11628f55a4df523b3ef",
            "0x000000000000000000000000823f91041c1cecdc65ee8a7335f471ac1a08caf0",
            "0x000000000000000000000000007b2f0fb291307452065b4a620c29d56d8875dc"
          ],
          "data": "0x00000000000000000000000000000000000000000000000000005af3107a4000",
          "blockHash": "0x498fc53951fcb3b065993697c1a62949a5d38bf3f45572ee330ca665d75aff99",
          "blockNumber": "0x7448af",
          "blockTimestamp": "0x67d32d95",
          "transactionHash": "0x05f70c630cb191cc35610360b66643d1093c76a8c528f901df2ae702deb982b9",
          "transactionIndex": "0x18",
          "logIndex": "0x3f",
          "removed": false
        },
        {
          "address": "0x58389610a3d13e8f380ee2ba077a6f36f2a90834",
          "topics": [
            "0xddf252ad1be2c89b69c2b068fc378daa952ba7f163c4a11628f55a4df523b3ef",
            "0x000000000000000000000000823f91041c1cecdc65ee8a7335f471ac1a08caf0",
            "0x000000000000000000000000007b2f0fb291307452065b4a620c29d56d8875dc"
          ],
          "data": "0x00000000000000000000000000000000000000000000000000000045d964b800",
          "blockHash": "0x498fc53951fcb3b065993697c1a62949a5d38bf3f45572ee330ca665d75aff99",
          "blockNumber": "0x7448af",
          "blockTimestamp": "0x67d32d95",
          "transactionHash": "0x05f70c630cb191cc35610360b66643d1093c76a8c528f901df2ae702deb982b9",
          "transactionIndex": "0x18",
          "logIndex": "0x40",
          "removed": false
        },
        {
          "address": "0x2c53ce7143d24a65410107f50e4aabad9a164480",
          "topics": [
            "0xddf252ad1be2c89b69c2b068fc378daa952ba7f163c4a11628f55a4df523b3ef",
            "0x000000000000000000000000823f91041c1cecdc65ee8a7335f471ac1a08caf0",
            "0x0000000000000000000000006efb11ac41b6657c32dac5ed4874082c700bba29"
          ],
          "data": "0x000000000000000000000000000000000000000000000000000000003b9aca00",
          "blockHash": "0x498fc53951fcb3b065993697c1a62949a5d38bf3f45572ee330ca665d75aff99",
          "blockNumber": "0x7448af",
          "blockTimestamp": "0x67d32d95",
          "transactionHash": "0x05f70c630cb191cc35610360b66643d1093c76a8c528f901df2ae702deb982b9",
          "transactionIndex": "0x18",
          "logIndex": "0x41",
          "removed": false
        },
        {
          "address": "0x007b2f0fb291307452065b4a620c29d56d8875dc",
          "topics": [
            "0xddf252ad1be2c89b69c2b068fc378daa952ba7f163c4a11628f55a4df523b3ef",
            "0x0000000000000000000000000000000000000000000000000000000000000000",
            "0x0000000000000000000000006efb11ac41b6657c32dac5ed4874082c700bba29"
          ],
          "data": "0x0000000000000000000000000000000000000000000054f4bc70a6dc3d79d240",
          "blockHash": "0x498fc53951fcb3b065993697c1a62949a5d38bf3f45572ee330ca665d75aff99",
          "blockNumber": "0x7448af",
          "blockTimestamp": "0x67d32d95",
          "transactionHash": "0x05f70c630cb191cc35610360b66643d1093c76a8c528f901df2ae702deb982b9",
          "transactionIndex": "0x18",
          "logIndex": "0x42",
          "removed": false
        },
        {
          "address": "0xe50914672560e18b2f5ce311a4557880df05000c",
          "topics": [
            "0x29c9a76ad8ab7c718763b6bf354772284236b8c30dbacf79b1bd84d26e767225"
          ],
          "data": "0x0000000000000000000000000000000000000000000000000000000000000003",
          "blockHash": "0x498fc53951fcb3b065993697c1a62949a5d38bf3f45572ee330ca665d75aff99",
          "blockNumber": "0x7448af",
          "blockTimestamp": "0x67d32d95",
          "transactionHash": "0x05f70c630cb191cc35610360b66643d1093c76a8c528f901df2ae702deb982b9",
          "transactionIndex": "0x18",
          "logIndex": "0x43",
          "removed": false
        }
      ],
      "logsBloom": "0x00000000000000000208000000000000000000000000000000000000000000000000000000000000000000000000000000001000004100800800000000000000000000000000000000000008000000000000000000000400001400000000000100000000020000000000400000000820080100000000000000000010000000000000000001000000000000000040000000000000000000000000000000000040200000000000100000000000000000040000000000000000000001000000800000000002000000000000000000000000000000010000000000000000000020000000001080000000000000000000000000000000000000004000000000000000",
      "type": "0x0",
      "transactionHash": "0x05f70c630cb191cc35610360b66643d1093c76a8c528f901df2ae702deb982b9",
      "transactionIndex": "0x18",
      "blockHash": "0x498fc53951fcb3b065993697c1a62949a5d38bf3f45572ee330ca665d75aff99",
      "blockNumber": "0x7448af",
      "gasUsed": "0x56e57",
      "effectiveGasPrice": "0xc1b710800",
      "from": "0x6efb11ac41b6657c32dac5ed4874082c700bba29",
      "to": "0xe50914672560e18b2f5ce311a4557880df05000c",
      "contractAddress": null
    },
    {
      "status": "0x1",
      "cumulativeGasUsed": "0x5660e7",
      "logs": [
        {
          "address": "0x6bc8a42d4b2f4bc8e4c3f9ecff00b7290ffa7405",
          "topics": [
            "0xddf252ad1be2c89b69c2b068fc378daa952ba7f163c4a11628f55a4df523b3ef",
            "0x000000000000000000000000823f91041c1cecdc65ee8a7335f471ac1a08caf0",
            "0x0000000000000000000000008fc3599e5d86df2e5ab4b9e20975da2ff17eb4b6"
          ],
          "data": "0x0000000000000000000000000000000000000000000069e10de76676d0800000",
          "blockHash": "0x498fc53951fcb3b065993697c1a62949a5d38bf3f45572ee330ca665d75aff99",
          "blockNumber": "0x7448af",
          "blockTimestamp": "0x67d32d95",
          "transactionHash": "0x46e4081d3cd6032bde83d2d47d9c14ef5d3ad0e364e7e4f713877ce65368448a",
          "transactionIndex": "0x19",
          "logIndex": "0x44",
          "removed": false
        },
        {
          "address": "0x58389610a3d13e8f380ee2ba077a6f36f2a90834",
          "topics": [
            "0xddf252ad1be2c89b69c2b068fc378daa952ba7f163c4a11628f55a4df523b3ef",
            "0x000000000000000000000000823f91041c1cecdc65ee8a7335f471ac1a08caf0",
            "0x0000000000000000000000008fc3599e5d86df2e5ab4b9e20975da2ff17eb4b6"
          ],
          "data": "0x0000000000000000000000000000000000000000000000000000001176592e00",
          "blockHash": "0x498fc53951fcb3b065993697c1a62949a5d38bf3f45572ee330ca665d75aff99",
          "blockNumber": "0x7448af",
          "blockTimestamp": "0x67d32d95",
          "transactionHash": "0x46e4081d3cd6032bde83d2d47d9c14ef5d3ad0e364e7e4f713877ce65368448a",
          "transactionIndex": "0x19",
          "logIndex": "0x45",
          "removed": false
        },
        {
          "address": "0x2c53ce7143d24a65410107f50e4aabad9a164480",
          "topics": [
            "0xddf252ad1be2c89b69c2b068fc378daa952ba7f163c4a11628f55a4df523b3ef",
            "0x000000000000000000000000823f91041c1cecdc65ee8a7335f471ac1a08caf0",
            "0x0000000000000000000000006efb11ac41b6657c32dac5ed4874082c700bba29"
          ],
          "data": "0x000000000000000000000000000000000000000000000000000000003b9aca00",
          "blockHash": "0x498fc53951fcb3b065993697c1a62949a5d38bf3f45572ee330ca665d75aff99",
          "blockNumber": "0x7448af",
          "blockTimestamp": "0x67d32d95",
          "transactionHash": "0x46e4081d3cd6032bde83d2d47d9c14ef5d3ad0e364e7e4f713877ce65368448a",
          "transactionIndex": "0x19",
          "logIndex": "0x46",
          "removed": false
        },
        {
          "address": "0x8fc3599e5d86df2e5ab4b9e20975da2ff17eb4b6",
          "topics": [
            "0xddf252ad1be2c89b69c2b068fc378daa952ba7f163c4a11628f55a4df523b3ef",
            "0x0000000000000000000000000000000000000000000000000000000000000000",
            "0x0000000000000000000000006efb11ac41b6657c32dac5ed4874082c700bba29"
          ],
          "data": "0x000000000000000000000000000000000000000000001562836974bb6f7e9ec0",
          "blockHash": "0x498fc53951fcb3b065993697c1a62949a5d38bf3f45572ee330ca665d75aff99",
          "blockNumber": "0x7448af",
          "blockTimestamp": "0x67d32d95",
          "transactionHash": "0x46e4081d3cd6032bde83d2d47d9c14ef5d3ad0e364e7e4f713877ce65368448a",
          "transactionIndex": "0x19",
          "logIndex": "0x47",
          "removed": false
        },
        {
          "address": "0xe50914672560e18b2f5ce311a4557880df05000c",
          "topics": [
            "0x29c9a76ad8ab7c718763b6bf354772284236b8c30dbacf79b1bd84d26e767225"
          ],
          "data": "0x0000000000000000000000000000000000000000000000000000000000000004",
          "blockHash": "0x498fc53951fcb3b065993697c1a62949a5d38bf3f45572ee330ca665d75aff99",
          "blockNumber": "0x7448af",
          "blockTimestamp": "0x67d32d95",
          "transactionHash": "0x46e4081d3cd6032bde83d2d47d9c14ef5d3ad0e364e7e4f713877ce65368448a",
          "transactionIndex": "0x19",
          "logIndex": "0x48",
          "removed": false
        }
      ],
      "logsBloom": "0x00000000000000000200000000000000000000000000000000000000000000000000100000000000000000000000000000003000004100800400000000000000000000000000000000000008000000000000000000000400001000000000000000000000020000000000400000000820000100000000000000000010000000000000000081000000000000000040000000800000000000000000000000000040000000000200000000000000000000040000000000000000000001000000800000000002000000000002100000000000000000010000000000000000000020000000041000000000000000000000000000000000000000000000000000000000",
      "type": "0x0",
      "transactionHash": "0x46e4081d3cd6032bde83d2d47d9c14ef5d3ad0e364e7e4f713877ce65368448a",
      "transactionIndex": "0x19",
      "blockHash": "0x498fc53951fcb3b065993697c1a62949a5d38bf3f45572ee330ca665d75aff99",
      "blockNumber": "0x7448af",
      "gasUsed": "0x56e57",
      "effectiveGasPrice": "0xc1b710800",
      "from": "0x6efb11ac41b6657c32dac5ed4874082c700bba29",
      "to": "0xe50914672560e18b2f5ce311a4557880df05000c",
      "contractAddress": null
    },
    {
      "status": "0x1",
      "cumulativeGasUsed": "0x5b885c",
      "logs": [
        {
          "address": "0xe3f98fda6dbd38c1017754f1675dce377381c23c",
          "topics": [
            "0xddf252ad1be2c89b69c2b068fc378daa952ba7f163c4a11628f55a4df523b3ef",
            "0x000000000000000000000000823f91041c1cecdc65ee8a7335f471ac1a08caf0",
            "0x000000000000000000000000c9363063c1c5ea9392cc21bc44afd644632e618a"
          ],
          "data": "0x00000000000000000000000000000000000000000000021e19e0c9bab2400000",
          "blockHash": "0x498fc53951fcb3b065993697c1a62949a5d38bf3f45572ee330ca665d75aff99",
          "blockNumber": "0x7448af",
          "blockTimestamp": "0x67d32d95",
          "transactionHash": "0x7fced794959893bfb4fc941559be80fbaf99f429874d20c2ea840f711eceda2a",
          "transactionIndex": "0x1a",
          "logIndex": "0x49",
          "removed": false
        },
        {
          "address": "0x58389610a3d13e8f380ee2ba077a6f36f2a90834",
          "topics": [
            "0xddf252ad1be2c89b69c2b068fc378daa952ba7f163c4a11628f55a4df523b3ef",
            "0x000000000000000000000000823f91041c1cecdc65ee8a7335f471ac1a08caf0",
            "0x000000000000000000000000c9363063c1c5ea9392cc21bc44afd644632e618a"
          ],
          "data": "0x00000000000000000000000000000000000000000000000000000068c6171400",
          "blockHash": "0x498fc53951fcb3b065993697c1a62949a5d38bf3f45572ee330ca665d75aff99",
          "blockNumber": "0x7448af",
          "blockTimestamp": "0x67d32d95",
          "transactionHash": "0x7fced794959893bfb4fc941559be80fbaf99f429874d20c2ea840f711eceda2a",
          "transactionIndex": "0x1a",
          "logIndex": "0x4a",
          "removed": false
        },
        {
          "address": "0x2c53ce7143d24a65410107f50e4aabad9a164480",
          "topics": [
            "0xddf252ad1be2c89b69c2b068fc378daa952ba7f163c4a11628f55a4df523b3ef",
            "0x000000000000000000000000823f91041c1cecdc65ee8a7335f471ac1a08caf0",
            "0x0000000000000000000000006efb11ac41b6657c32dac5ed4874082c700bba29"
          ],
          "data": "0x000000000000000000000000000000000000000000000000000000003b9aca00",
          "blockHash": "0x498fc53951fcb3b065993697c1a62949a5d38bf3f45572ee330ca665d75aff99",
          "blockNumber": "0x7448af",
          "blockTimestamp": "0x67d32d95",
          "transactionHash": "0x7fced794959893bfb4fc941559be80fbaf99f429874d20c2ea840f711eceda2a",
          "transactionIndex": "0x1a",
          "logIndex": "0x4b",
          "removed": false
        },
        {
          "address": "0xc9363063c1c5ea9392cc21bc44afd644632e618a",
          "topics": [
            "0xddf252ad1be2c89b69c2b068fc378daa952ba7f163c4a11628f55a4df523b3ef",
            "0x0000000000000000000000000000000000000000000000000000000000000000",
            "0x0000000000000000000000006efb11ac41b6657c32dac5ed4874082c700bba29"
          ],
          "data": "0x000000000000000000000000000000000000000000007ee7e02551b432f3c2e0",
          "blockHash": "0x498fc53951fcb3b065993697c1a62949a5d38bf3f45572ee330ca665d75aff99",
          "blockNumber": "0x7448af",
          "blockTimestamp": "0x67d32d95",
          "transactionHash": "0x7fced794959893bfb4fc941559be80fbaf99f429874d20c2ea840f711eceda2a",
          "transactionIndex": "0x1a",
          "logIndex": "0x4c",
          "removed": false
        },
        {
          "address": "0xe50914672560e18b2f5ce311a4557880df05000c",
          "topics": [
            "0x29c9a76ad8ab7c718763b6bf354772284236b8c30dbacf79b1bd84d26e767225"
          ],
          "data": "0x0000000000000000000000000000000000000000000000000000000000000005",
          "blockHash": "0x498fc53951fcb3b065993697c1a62949a5d38bf3f45572ee330ca665d75aff99",
          "blockNumber": "0x7448af",
          "blockTimestamp": "0x67d32d95",
          "transactionHash": "0x7fced794959893bfb4fc941559be80fbaf99f429874d20c2ea840f711eceda2a",
          "transactionIndex": "0x1a",
          "logIndex": "0x4d",
          "removed": false
        }
      ],
      "logsBloom": "0x00000000000000002200000000000000000000000000000000000000000000000000000000000000000000000000000000001000004100800000000000000000000000000000000000100008000000000000000000000400001000000000000000000000020000000000400000000820000100000000000000000010000000000000000001000000000000000040000000000004000000000020000400000040000000000000000000000000000020040000000000000000000001000000800000000802000000000000000000000000000000010000000000020000002020000000001000000000000000000000000000000000000000000000000000000000",
      "type": "0x0",
      "transactionHash": "0x7fced794959893bfb4fc941559be80fbaf99f429874d20c2ea840f711eceda2a",
      "transactionIndex": "0x1a",
      "blockHash": "0x498fc53951fcb3b065993697c1a62949a5d38bf3f45572ee330ca665d75aff99",
      "blockNumber": "0x7448af",
      "gasUsed": "0x52775",
      "effectiveGasPrice": "0xc1b710800",
      "from": "0x6efb11ac41b6657c32dac5ed4874082c700bba29",
      "to": "0xe50914672560e18b2f5ce311a4557880df05000c",
      "contractAddress": null
    }
  ],
  "libraries": [],
  "pending": [],
  "returns": {},
  "timestamp": 1741893015,
  "chain": 10143,
  "commit": "69d67f9"
}