{
  "transactions": [
    {
      "hash": "0xc3cf9f3e3160399f2428e02bde579e858ecd9522cea6f93d9440495405d1e4ca",
      "transactionType": "CALL",
      "contractName": null,
      "contractAddress": "0x2c53ce7143d24a65410107f50e4aabad9a164480",
      "function": "transfer(address,uint256)",
      "arguments": [
        "0xd55C09F4557b56352EA132963207d1987464f52C",
        "1000000000000000000"
      ],
      "transaction": {
        "from": "0x6efb11ac41b6657c32dac5ed4874082c700bba29",
        "to": "0x2c53ce7143d24a65410107f50e4aabad9a164480",
        "gas": "0x11494",
        "value": "0x0",
        "input": "0xa9059cbb000000000000000000000000d55c09f4557b56352ea132963207d1987464f52c0000000000000000000000000000000000000000000000000de0b6b3a7640000",
        "nonce": "0x222",
        "chainId": "0x279f"
      },
      "additionalContracts": [],
      "isFixedGasLimit": false
    },
    {
      "hash": "0xcef021472733682ed639f4649c60ea71de8764302aaf9e7eff567c978c10f3e8",
      "transactionType": "CALL",
      "contractName": null,
      "contractAddress": "0x2c53ce7143d24a65410107f50e4aabad9a164480",
      "function": "transfer(address,uint256)",
      "arguments": [
        "0xE4ddb20ad5502160E9949EC58EE7e736a950d1C3",
        "1000000000000000000"
      ],
      "transaction": {
        "from": "0x6efb11ac41b6657c32dac5ed4874082c700bba29",
        "to": "0x2c53ce7143d24a65410107f50e4aabad9a164480",
        "gas": "0x11494",
        "value": "0x0",
        "input": "0xa9059cbb000000000000000000000000e4ddb20ad5502160e9949ec58ee7e736a950d1c30000000000000000000000000000000000000000000000000de0b6b3a7640000",
        "nonce": "0x223",
        "chainId": "0x279f"
      },
      "additionalContracts": [],
      "isFixedGasLimit": false
    },
    {
      "hash": "0x281c0f872d50b2d0866dda9460a01906a1938a9370e19a2f01529393be2551c1",
      "transactionType": "CALL",
      "contractName": null,
      "contractAddress": "0x2c53ce7143d24a65410107f50e4aabad9a164480",
      "function": "transfer(address,uint256)",
      "arguments": [
        "0x88e9AB627f453987B94D18472F0923Bb08d18e14",
        "1000000000000000000"
      ],
      "transaction": {
        "from": "0x6efb11ac41b6657c32dac5ed4874082c700bba29",
        "to": "0x2c53ce7143d24a65410107f50e4aabad9a164480",
        "gas": "0x11494",
        "value": "0x0",
        "input": "0xa9059cbb00000000000000000000000088e9ab627f453987b94d18472f0923bb08d18e140000000000000000000000000000000000000000000000000de0b6b3a7640000",
        "nonce": "0x224",
        "chainId": "0x279f"
      },
      "additionalContracts": [],
      "isFixedGasLimit": false
    },
    {
      "hash": "0x764e70afad4a0442f73c22596d2ca4226ab3352a5c3dda03ab5ed5a5dd8eee0b",
      "transactionType": "CALL",
      "contractName": null,
      "contractAddress": "0x58389610a3d13e8f380ee2ba077a6f36f2a90834",
      "function": "approve(address,uint256)",
      "arguments": [
        "0xd55C09F4557b56352EA132963207d1987464f52C",
        "10000000000"
      ],
      "transaction": {
        "from": "0x6efb11ac41b6657c32dac5ed4874082c700bba29",
        "to": "0x58389610a3d13e8f380ee2ba077a6f36f2a90834",
        "gas": "0xf7d3",
        "value": "0x0",
        "input": "0x095ea7b3000000000000000000000000d55c09f4557b56352ea132963207d1987464f52c00000000000000000000000000000000000000000000000000000002540be400",
        "nonce": "0x225",
        "chainId": "0x279f"
      },
      "additionalContracts": [],
      "isFixedGasLimit": false
    },
    {
      "hash": "0x5bf856777884866f71a171ee4cec073a9445e9b36f63b91ffe960bf65a02bedd",
      "transactionType": "CALL",
      "contractName": null,
      "contractAddress": "0xd55c09f4557b56352ea132963207d1987464f52c",
      "function": "deposit(uint256)",
      "arguments": [
        "10000000000"
      ],
      "transaction": {
        "from": "0x6efb11ac41b6657c32dac5ed4874082c700bba29",
        "to": "0xd55c09f4557b56352ea132963207d1987464f52c",
        "gas": "0x15f4ad",
        "value": "0x0",
        "input": "0xb6b55f2500000000000000000000000000000000000000000000000000000002540be400",
        "nonce": "0x226",
        "chainId": "0x279f"
      },
      "additionalContracts": [],
      "isFixedGasLimit": false
    },
    {
      "hash": "0x7f92e32b84edc4e04b3ab04404c8f9230b2e1ec0d1e4f58067e99018c3adb390",
      "transactionType": "CALL",
      "contractName": null,
      "contractAddress": "0x58389610a3d13e8f380ee2ba077a6f36f2a90834",
      "function": "approve(address,uint256)",
      "arguments": [
        "0xE4ddb20ad5502160E9949EC58EE7e736a950d1C3",
        "10000000000"
      ],
      "transaction": {
        "from": "0x6efb11ac41b6657c32dac5ed4874082c700bba29",
        "to": "0x58389610a3d13e8f380ee2ba077a6f36f2a90834",
        "gas": "0xf7d3",
        "value": "0x0",
        "input": "0x095ea7b3000000000000000000000000e4ddb20ad5502160e9949ec58ee7e736a950d1c300000000000000000000000000000000000000000000000000000002540be400",
        "nonce": "0x227",
        "chainId": "0x279f"
      },
      "additionalContracts": [],
      "isFixedGasLimit": false
    },
    {
      "hash": "0xe3f1a110299d82802b38bdf8620a25931c6425d9d15128c7f2a2b2b42e4bdeba",
      "transactionType": "CALL",
      "contractName": null,
      "contractAddress": "0xe4ddb20ad5502160e9949ec58ee7e736a950d1c3",
      "function": "deposit(uint256)",
      "arguments": [
        "10000000000"
      ],
      "transaction": {
        "from": "0x6efb11ac41b6657c32dac5ed4874082c700bba29",
        "to": "0xe4ddb20ad5502160e9949ec58ee7e736a950d1c3",
        "gas": "0x146dea",
        "value": "0x0",
        "input": "0xb6b55f2500000000000000000000000000000000000000000000000000000002540be400",
        "nonce": "0x228",
        "chainId": "0x279f"
      },
      "additionalContracts": [],
      "isFixedGasLimit": false
    },
    {
      "hash": "0xe104fe8bdb430759b61e01ebb663a153115181d4ab08d2aa8d4d5ee813599090",
      "transactionType": "CALL",
      "contractName": null,
      "contractAddress": "0x58389610a3d13e8f380ee2ba077a6f36f2a90834",
      "function": "approve(address,uint256)",
      "arguments": [
        "0x88e9AB627f453987B94D18472F0923Bb08d18e14",
        "10000000000"
      ],
      "transaction": {
        "from": "0x6efb11ac41b6657c32dac5ed4874082c700bba29",
        "to": "0x58389610a3d13e8f380ee2ba077a6f36f2a90834",
        "gas": "0xf7d3",
        "value": "0x0",
        "input": "0x095ea7b300000000000000000000000088e9ab627f453987b94d18472f0923bb08d18e1400000000000000000000000000000000000000000000000000000002540be400",
        "nonce": "0x229",
        "chainId": "0x279f"
      },
      "additionalContracts": [],
      "isFixedGasLimit": false
    },
    {
      "hash": "0x4e44a38ee03ce1be675ae31b5465bd1304ceeac8489d4980eadf2781f884d227",
      "transactionType": "CALL",
      "contractName": null,
      "contractAddress": "0x88e9ab627f453987b94d18472f0923bb08d18e14",
      "function": "deposit(uint256)",
      "arguments": [
        "10000000000"
      ],
      "transaction": {
        "from": "0x6efb11ac41b6657c32dac5ed4874082c700bba29",
        "to": "0x88e9ab627f453987b94d18472f0923bb08d18e14",
        "gas": "0x189d3c",
        "value": "0x0",
        "input": "0xb6b55f2500000000000000000000000000000000000000000000000000000002540be400",
        "nonce": "0x22a",
        "chainId": "0x279f"
      },
      "additionalContracts": [],
      "isFixedGasLimit": false
    }
  ],
  "receipts": [
    {
      "status": "0x1",
      "cumulativeGasUsed": "0xc4eb49",
      "logs": [
        {
          "address": "0x2c53ce7143d24a65410107f50e4aabad9a164480",
          "topics": [
            "0xddf252ad1be2c89b69c2b068fc378daa952ba7f163c4a11628f55a4df523b3ef",
            "0x0000000000000000000000006efb11ac41b6657c32dac5ed4874082c700bba29",
            "0x000000000000000000000000d55c09f4557b56352ea132963207d1987464f52c"
          ],
          "data": "0x0000000000000000000000000000000000000000000000000de0b6b3a7640000",
          "blockHash": "0xed5873446c18e41b4687441c77db4992d48b828f65ddf77345aaad1f3fba7a36",
          "blockNumber": "0x744c06",
          "blockTimestamp": "0x67d32f8e",
          "transactionHash": "0xc3cf9f3e3160399f2428e02bde579e858ecd9522cea6f93d9440495405d1e4ca",
          "transactionIndex": "0x34",
          "logIndex": "0x84",
          "removed": false
        }
      ],
      "logsBloom": "0x00000000000000000200000000000000000000000000000000000000001000000000000000000000000000000000000000001000000100000000000000000000000000000800000000000008000000000000000000000000000000000000000000000000000000000000000000000000000000000000000000000010000000000000000000000000000000000000000000000000000000000000000000000000000000000000000000000000000000000000000000000000000001000000000000000002000000000000000000000000000000010000000000000000400000000000001000000000000000000000000000000000000000000000000000000000",
      "type": "0x0",
      "transactionHash": "0xc3cf9f3e3160399f2428e02bde579e858ecd9522cea6f93d9440495405d1e4ca",
      "transactionIndex": "0x34",
      "blockHash": "0xed5873446c18e41b4687441c77db4992d48b828f65ddf77345aaad1f3fba7a36",
      "blockNumber": "0x744c06",
      "gasUsed": "0x11494",
      "effectiveGasPrice": "0xc1b710800",
      "from": "0x6efb11ac41b6657c32dac5ed4874082c700bba29",
      "to": "0x2c53ce7143d24a65410107f50e4aabad9a164480",
      "contractAddress": null
    },
    {
      "status": "0x1",
      "cumulativeGasUsed": "0xc822de",
      "logs": [
        {
          "address": "0x2c53ce7143d24a65410107f50e4aabad9a164480",
          "topics": [
            "0xddf252ad1be2c89b69c2b068fc378daa952ba7f163c4a11628f55a4df523b3ef",
            "0x0000000000000000000000006efb11ac41b6657c32dac5ed4874082c700bba29",
            "0x000000000000000000000000e4ddb20ad5502160e9949ec58ee7e736a950d1c3"
          ],
          "data": "0x0000000000000000000000000000000000000000000000000de0b6b3a7640000",
          "blockHash": "0xdecbbda34cd280b71b9f66c270d818daf9400ce36f70ff8d4198b3cb4dd8012a",
          "blockNumber": "0x744c07",
          "blockTimestamp": "0x67d32f8f",
          "transactionHash": "0xcef021472733682ed639f4649c60ea71de8764302aaf9e7eff567c978c10f3e8",
          "transactionIndex": "0x4b",
          "logIndex": "0x84",
          "removed": false
        }
      ],
      "logsBloom": "0x00000000000000000200000000000000000000000000000000000000000000000000000000000000000000000000000000001000000100000000000000000000000000000000000000000008000000000000000000000000000000000000000000000000000000000000000000000000000000000000000000000010000000000000000000000000000000010000000002000000000000000000000000000000000000000000000000000000000000000000000000000000000001000000000000000002000000000000000000000000000000010000000000000000000000000000001000000010000000000000000000000000000000000000000000000000",
      "type": "0x0",
      "transactionHash": "0xcef021472733682ed639f4649c60ea71de8764302aaf9e7eff567c978c10f3e8",
      "transactionIndex": "0x4b",
      "blockHash": "0xdecbbda34cd280b71b9f66c270d818daf9400ce36f70ff8d4198b3cb4dd8012a",
      "blockNumber": "0x744c07",
      "gasUsed": "0x11494",
      "effectiveGasPrice": "0xc1b710800",
      "from": "0x6efb11ac41b6657c32dac5ed4874082c700bba29",
      "to": "0x2c53ce7143d24a65410107f50e4aabad9a164480",
      "contractAddress": null
    },
    {
      "status": "0x1",
      "cumulativeGasUsed": "0xc93772",
      "logs": [
        {
          "address": "0x2c53ce7143d24a65410107f50e4aabad9a164480",
          "topics": [
            "0xddf252ad1be2c89b69c2b068fc378daa952ba7f163c4a11628f55a4df523b3ef",
            "0x0000000000000000000000006efb11ac41b6657c32dac5ed4874082c700bba29",
            "0x00000000000000000000000088e9ab627f453987b94d18472f0923bb08d18e14"
          ],
          "data": "0x0000000000000000000000000000000000000000000000000de0b6b3a7640000",
          "blockHash": "0xdecbbda34cd280b71b9f66c270d818daf9400ce36f70ff8d4198b3cb4dd8012a",
          "blockNumber": "0x744c07",
          "blockTimestamp": "0x67d32f8f",
          "transactionHash": "0x281c0f872d50b2d0866dda9460a01906a1938a9370e19a2f01529393be2551c1",
          "transactionIndex": "0x4c",
          "logIndex": "0x85",
          "removed": false
        }
      ],
      "logsBloom": "0x00000000000000000200000000000000000000000000000000000000000000000000000000000000000000000000000000001000000100000000000000000000000000000000000000000008000000000000000000000000000000000000000000000000000000000000000000000000000000000000000040100010000000000000000000000000000000000000000000000000000000000000800000000000000000000000000000000000000000000000000000000000000001000000000000000002000000000000000000000000000000010000000000000000000000000000001000000000000000000000000000000000000000000000000000000000",
      "type": "0x0",
      "transactionHash": "0x281c0f872d50b2d0866dda9460a01906a1938a9370e19a2f01529393be2551c1",
      "transactionIndex": "0x4c",
      "blockHash": "0xdecbbda34cd280b71b9f66c270d818daf9400ce36f70ff8d4198b3cb4dd8012a",
      "blockNumber": "0x744c07",
      "gasUsed": "0x11494",
      "effectiveGasPrice": "0xc1b710800",
      "from": "0x6efb11ac41b6657c32dac5ed4874082c700bba29",
      "to": "0x2c53ce7143d24a65410107f50e4aabad9a164480",
      "contractAddress": null
    },
    {
      "status": "0x1",
      "cumulativeGasUsed": "0xcb335c",
      "logs": [
        {
          "address": "0x58389610a3d13e8f380ee2ba077a6f36f2a90834",
          "topics": [
            "0x8c5be1e5ebec7d5bd14f71427d1e84f3dd0314c0f7b2291e5b200ac8c7c3b925",
            "0x0000000000000000000000006efb11ac41b6657c32dac5ed4874082c700bba29",
            "0x000000000000000000000000d55c09f4557b56352ea132963207d1987464f52c"
          ],
          "data": "0x00000000000000000000000000000000000000000000000000000002540be400",
          "blockHash": "0xdecbbda34cd280b71b9f66c270d818daf9400ce36f70ff8d4198b3cb4dd8012a",
          "blockNumber": "0x744c07",
          "blockTimestamp": "0x67d32f8f",
          "transactionHash": "0x764e70afad4a0442f73c22596d2ca4226ab3352a5c3dda03ab5ed5a5dd8eee0b",
          "transactionIndex": "0x4e",
          "logIndex": "0x88",
          "removed": false
        }
      ],
      "logsBloom": "0x00000000000000000200000000000000000000000000000000000000001000000000000000000000000000000000000000000000000100000000000000200000000000000800000000000000000000000000000000000400001000000000000000000000000000000000000000000000000000000000000000000000000000000000000000000000000000000000000000000000000000000000000000000000020000000000000000000000000000040000000000000000000001000000000000000000000000000000000000000000000000000000000000000000400000000010000000000000000000000000000000000000000000000000000000000000",
      "type": "0x0",
      "transactionHash": "0x764e70afad4a0442f73c22596d2ca4226ab3352a5c3dda03ab5ed5a5dd8eee0b",
      "transactionIndex": "0x4e",
      "blockHash": "0xdecbbda34cd280b71b9f66c270d818daf9400ce36f70ff8d4198b3cb4dd8012a",
      "blockNumber": "0x744c07",
      "gasUsed": "0xf7d3",
      "effectiveGasPrice": "0xc1b710800",
      "from": "0x6efb11ac41b6657c32dac5ed4874082c700bba29",
      "to": "0x58389610a3d13e8f380ee2ba077a6f36f2a90834",
      "contractAddress": null
    },
    {
      "status": "0x1",
      "cumulativeGasUsed": "0xe12809",
      "logs": [
        {
          "address": "0x58389610a3d13e8f380ee2ba077a6f36f2a90834",
          "topics": [
            "0xddf252ad1be2c89b69c2b068fc378daa952ba7f163c4a11628f55a4df523b3ef",
            "0x0000000000000000000000006efb11ac41b6657c32dac5ed4874082c700bba29",
            "0x000000000000000000000000d55c09f4557b56352ea132963207d1987464f52c"
          ],
          "data": "0x00000000000000000000000000000000000000000000000000000002540be400",
          "blockHash": "0xdecbbda34cd280b71b9f66c270d818daf9400ce36f70ff8d4198b3cb4dd8012a",
          "blockNumber": "0x744c07",
          "blockTimestamp": "0x67d32f8f",
          "transactionHash": "0x5bf856777884866f71a171ee4cec073a9445e9b36f63b91ffe960bf65a02bedd",
          "transactionIndex": "0x4f",
          "logIndex": "0x89",
          "removed": false
        },
        {
          "address": "0xd55c09f4557b56352ea132963207d1987464f52c",
          "topics": [
            "0x90890809c654f11d6e72a28fa60149770a0d11ec6c92319d6ceb2bb0a4ea1a15",
            "0x0000000000000000000000006efb11ac41b6657c32dac5ed4874082c700bba29"
          ],
          "data": "0x00000000000000000000000000000000000000000000000000000002540be40000000000000000000000000000000000000000000000000000000002540be400",
          "blockHash": "0xdecbbda34cd280b71b9f66c270d818daf9400ce36f70ff8d4198b3cb4dd8012a",
          "blockNumber": "0x744c07",
          "blockTimestamp": "0x67d32f8f",
          "transactionHash": "0x5bf856777884866f71a171ee4cec073a9445e9b36f63b91ffe960bf65a02bedd",
          "transactionIndex": "0x4f",
          "logIndex": "0x8a",
          "removed": false
        },
        {
          "address": "0x2c53ce7143d24a65410107f50e4aabad9a164480",
          "topics": [
            "0xddf252ad1be2c89b69c2b068fc378daa952ba7f163c4a11628f55a4df523b3ef",
            "0x000000000000000000000000d55c09f4557b56352ea132963207d1987464f52c",
            "0x000000000000000000000000823f91041c1cecdc65ee8a7335f471ac1a08caf0"
          ],
          "data": "0x00000000000000000000000000000000000000000000000000000000000f4240",
          "blockHash": "0xdecbbda34cd280b71b9f66c270d818daf9400ce36f70ff8d4198b3cb4dd8012a",
          "blockNumber": "0x744c07",
          "blockTimestamp": "0x67d32f8f",
          "transactionHash": "0x5bf856777884866f71a171ee4cec073a9445e9b36f63b91ffe960bf65a02bedd",
          "transactionIndex": "0x4f",
          "logIndex": "0x8b",
          "removed": false
        },
        {
          "address": "0x58389610a3d13e8f380ee2ba077a6f36f2a90834",
          "topics": [
            "0xddf252ad1be2c89b69c2b068fc378daa952ba7f163c4a11628f55a4df523b3ef",
            "0x000000000000000000000000d55c09f4557b56352ea132963207d1987464f52c",
            "0x000000000000000000000000823f91041c1cecdc65ee8a7335f471ac1a08caf0"
          ],
          "data": "0x000000000000000000000000000000000000000000000000000000010c388d00",
          "blockHash": "0xdecbbda34cd280b71b9f66c270d818daf9400ce36f70ff8d4198b3cb4dd8012a",
          "blockNumber": "0x744c07",
          "blockTimestamp": "0x67d32f8f",
          "transactionHash": "0x5bf856777884866f71a171ee4cec073a9445e9b36f63b91ffe960bf65a02bedd",
          "transactionIndex": "0x4f",
          "logIndex": "0x8c",
          "removed": false
        },
        {
          "address": "0xe50914672560e18b2f5ce311a4557880df05000c",
          "topics": [
            "0xd3d640118416a526ad33075973727e1675055b2b31a8351bc74271d75fccef9b"
          ],
          "data": "0x0000000000000000000000000000000000000000000000000000000000000006000000000000000000000000d55c09f4557b56352ea132963207d1987464f52c000000000000000000000000d55c09f4557b56352ea132963207d1987464f52c00000000000000000000000000000000000000000000000000000000000000000000000000000000000000000e87d21bd714d3391e992227e472517a9dc16a240000000000000000000000002c53ce7143d24a65410107f50e4aabad9a16448000000000000000000000000058389610a3d13e8f380ee2ba077a6f36f2a9083400000000000000000000000000000000000000000000000000000000000f42400000000000000000000000000000000000000000000000000000000000000000000000000000000000000000000000000000000000000000000000010c388d00",
          "blockHash": "0xdecbbda34cd280b71b9f66c270d818daf9400ce36f70ff8d4198b3cb4dd8012a",
          "blockNumber": "0x744c07",
          "blockTimestamp": "0x67d32f8f",
          "transactionHash": "0x5bf856777884866f71a171ee4cec073a9445e9b36f63b91ffe960bf65a02bedd",
          "transactionIndex": "0x4f",
          "logIndex": "0x8d",
          "removed": false
        },
        {
          "address": "0xd55c09f4557b56352ea132963207d1987464f52c",
          "topics": [
            "0x472f36e28bb47edb7c69c9e2ac00a77c66b505df54e9c818ac57110b0629e8c3",
            "0x0000000000000000000000000e87d21bd714d3391e992227e472517a9dc16a24"
          ],
          "data": "0x000000000000000000000000000000000000000000000000000000010c388d00",
          "blockHash": "0xdecbbda34cd280b71b9f66c270d818daf9400ce36f70ff8d4198b3cb4dd8012a",
          "blockNumber": "0x744c07",
          "blockTimestamp": "0x67d32f8f",
          "transactionHash": "0x5bf856777884866f71a171ee4cec073a9445e9b36f63b91ffe960bf65a02bedd",
          "transactionIndex": "0x4f",
          "logIndex": "0x8e",
          "removed": false
        },
        {
          "address": "0x2c53ce7143d24a65410107f50e4aabad9a164480",
          "topics": [
            "0xddf252ad1be2c89b69c2b068fc378daa952ba7f163c4a11628f55a4df523b3ef",
            "0x000000000000000000000000d55c09f4557b56352ea132963207d1987464f52c",
            "0x000000000000000000000000823f91041c1cecdc65ee8a7335f471ac1a08caf0"
          ],
          "data": "0x00000000000000000000000000000000000000000000000000000000000f4240",
          "blockHash": "0xdecbbda34cd280b71b9f66c270d818daf9400ce36f70ff8d4198b3cb4dd8012a",
          "blockNumber": "0x744c07",
          "blockTimestamp": "0x67d32f8f",
          "transactionHash": "0x5bf856777884866f71a171ee4cec073a9445e9b36f63b91ffe960bf65a02bedd",
          "transactionIndex": "0x4f",
          "logIndex": "0x8f",
          "removed": false
        },
        {
          "address": "0x58389610a3d13e8f380ee2ba077a6f36f2a90834",
          "topics": [
            "0xddf252ad1be2c89b69c2b068fc378daa952ba7f163c4a11628f55a4df523b3ef",
            "0x000000000000000000000000d55c09f4557b56352ea132963207d1987464f52c",
            "0x000000000000000000000000823f91041c1cecdc65ee8a7335f471ac1a08caf0"
          ],
          "data": "0x00000000000000000000000000000000000000000000000000000000b2d05e00",
          "blockHash": "0xdecbbda34cd280b71b9f66c270d818daf9400ce36f70ff8d4198b3cb4dd8012a",
          "blockNumber": "0x744c07",
          "blockTimestamp": "0x67d32f8f",
          "transactionHash": "0x5bf856777884866f71a171ee4cec073a9445e9b36f63b91ffe960bf65a02bedd",
          "transactionIndex": "0x4f",
          "logIndex": "0x90",
          "removed": false
        },
        {
          "address": "0xe50914672560e18b2f5ce311a4557880df05000c",
          "topics": [
            "0xd3d640118416a526ad33075973727e1675055b2b31a8351bc74271d75fccef9b"
          ],
          "data": "0x0000000000000000000000000000000000000000000000000000000000000007000000000000000000000000d55c09f4557b56352ea132963207d1987464f52c000000000000000000000000d55c09f4557b56352ea132963207d1987464f52c0000000000000000000000000000000000000000000000000000000000000000000000000000000000000000c9363063c1c5ea9392cc21bc44afd644632e618a000000000000000000000000e3f98fda6dbd38c1017754f1675dce377381c23c00000000000000000000000058389610a3d13e8f380ee2ba077a6f36f2a9083400000000000000000000000000000000000000000000000000000000000f4240000000000000000000000000000000000000000000000000000000000000000000000000000000000000000000000000000000000000000000000000b2d05e00",
          "blockHash": "0xdecbbda34cd280b71b9f66c270d818daf9400ce36f70ff8d4198b3cb4dd8012a",
          "blockNumber": "0x744c07",
          "blockTimestamp": "0x67d32f8f",
          "transactionHash": "0x5bf856777884866f71a171ee4cec073a9445e9b36f63b91ffe960bf65a02bedd",
          "transactionIndex": "0x4f",
          "logIndex": "0x91",
          "removed": false
        },
        {
          "address": "0xd55c09f4557b56352ea132963207d1987464f52c",
          "topics": [
            "0x472f36e28bb47edb7c69c9e2ac00a77c66b505df54e9c818ac57110b0629e8c3",
            "0x000000000000000000000000c9363063c1c5ea9392cc21bc44afd644632e618a"
          ],
          "data": "0x00000000000000000000000000000000000000000000000000000000b2d05e00",
          "blockHash": "0xdecbbda34cd280b71b9f66c270d818daf9400ce36f70ff8d4198b3cb4dd8012a",
          "blockNumber": "0x744c07",
          "blockTimestamp": "0x67d32f8f",
          "transactionHash": "0x5bf856777884866f71a171ee4cec073a9445e9b36f63b91ffe960bf65a02bedd",
          "transactionIndex": "0x4f",
          "logIndex": "0x92",
          "removed": false
        },
        {
          "address": "0x2c53ce7143d24a65410107f50e4aabad9a164480",
          "topics": [
            "0xddf252ad1be2c89b69c2b068fc378daa952ba7f163c4a11628f55a4df523b3ef",
            "0x000000000000000000000000d55c09f4557b56352ea132963207d1987464f52c",
            "0x000000000000000000000000823f91041c1cecdc65ee8a7335f471ac1a08caf0"
          ],
          "data": "0x00000000000000000000000000000000000000000000000000000000000f4240",
          "blockHash": "0xdecbbda34cd280b71b9f66c270d818daf9400ce36f70ff8d4198b3cb4dd8012a",
          "blockNumber": "0x744c07",
          "blockTimestamp": "0x67d32f8f",
          "transactionHash": "0x5bf856777884866f71a171ee4cec073a9445e9b36f63b91ffe960bf65a02bedd",
          "transactionIndex": "0x4f",
          "logIndex": "0x93",
          "removed": false
        },
        {
          "address": "0x58389610a3d13e8f380ee2ba077a6f36f2a90834",
          "topics": [
            "0xddf252ad1be2c89b69c2b068fc378daa952ba7f163c4a11628f55a4df523b3ef",
            "0x000000000000000000000000d55c09f4557b56352ea132963207d1987464f52c",
            "0x000000000000000000000000823f91041c1cecdc65ee8a7335f471ac1a08caf0"
          ],
          "data": "0x000000000000000000000000000000000000000000000000000000009502f900",
          "blockHash": "0xdecbbda34cd280b71b9f66c270d818daf9400ce36f70ff8d4198b3cb4dd8012a",
          "blockNumber": "0x744c07",
          "blockTimestamp": "0x67d32f8f",
          "transactionHash": "0x5bf856777884866f71a171ee4cec073a9445e9b36f63b91ffe960bf65a02bedd",
          "transactionIndex": "0x4f",
          "logIndex": "0x94",
          "removed": false
        },
        {
          "address": "0xe50914672560e18b2f5ce311a4557880df05000c",
          "topics": [
            "0xd3d640118416a526ad33075973727e1675055b2b31a8351bc74271d75fccef9b"
          ],
          "data": "0x0000000000000000000000000000000000000000000000000000000000000008000000000000000000000000d55c09f4557b56352ea132963207d1987464f52c000000000000000000000000d55c09f4557b56352ea132963207d1987464f52c0000000000000000000000000000000000000000000000000000000000000000000000000000000000000000ba8a671c225721803cd64b12cb62a2363e9ee87300000000000000000000000053f7c389cbb801e2abfd301ded6d2a1cf330ac0d00000000000000000000000058389610a3d13e8f380ee2ba077a6f36f2a9083400000000000000000000000000000000000000000000000000000000000f42400000000000000000000000000000000000000000000000000000000000000000000000000000000000000000000000000000000000000000000000009502f900",
          "blockHash": "0xdecbbda34cd280b71b9f66c270d818daf9400ce36f70ff8d4198b3cb4dd8012a",
          "blockNumber": "0x744c07",
          "blockTimestamp": "0x67d32f8f",
          "transactionHash": "0x5bf856777884866f71a171ee4cec073a9445e9b36f63b91ffe960bf65a02bedd",
          "transactionIndex": "0x4f",
          "logIndex": "0x95",
          "removed": false
        },
        {
          "address": "0xd55c09f4557b56352ea132963207d1987464f52c",
          "topics": [
            "0x472f36e28bb47edb7c69c9e2ac00a77c66b505df54e9c818ac57110b0629e8c3",
            "0x000000000000000000000000ba8a671c225721803cd64b12cb62a2363e9ee873"
          ],
          "data": "0x000000000000000000000000000000000000000000000000000000009502f900",
          "blockHash": "0xdecbbda34cd280b71b9f66c270d818daf9400ce36f70ff8d4198b3cb4dd8012a",
          "blockNumber": "0x744c07",
          "blockTimestamp": "0x67d32f8f",
          "transactionHash": "0x5bf856777884866f71a171ee4cec073a9445e9b36f63b91ffe960bf65a02bedd",
          "transactionIndex": "0x4f",
          "logIndex": "0x96",
          "removed": false
        },
        {
          "address": "0xd55c09f4557b56352ea132963207d1987464f52c",
          "topics": [
            "0xc741dbaad15a4f298fe8d80943fa8e005e7bcb2f5b0a0c8dec1fc35be457f146"
          ],
          "data": "0x",
          "blockHash": "0xdecbbda34cd280b71b9f66c270d818daf9400ce36f70ff8d4198b3cb4dd8012a",
          "blockNumber": "0x744c07",
          "blockTimestamp": "0x67d32f8f",
          "transactionHash": "0x5bf856777884866f71a171ee4cec073a9445e9b36f63b91ffe960bf65a02bedd",
          "transactionIndex": "0x4f",
          "logIndex": "0x97",
          "removed": false
        }
      ],
      "logsBloom": "0x00000000000000000200000000000000004000000400000000000000041000000000000000000000000000000000000008001000000100800000000000000020000000000800000000100008000020000000000000000400001000000000000000000000000000000000400000000028400100000001000000000010200000000000000000000000000008000040000000000004000000000000000000000040000200000000000000000000000000040000000002000000000001000020800000000002000080000000000000000000000000010000000000000000402000040010011000000000000000000000000000000000400000000000000000000000",
      "type": "0x0",
      "transactionHash": "0x5bf856777884866f71a171ee4cec073a9445e9b36f63b91ffe960bf65a02bedd",
      "transactionIndex": "0x4f",
      "blockHash": "0xdecbbda34cd280b71b9f66c270d818daf9400ce36f70ff8d4198b3cb4dd8012a",
      "blockNumber": "0x744c07",
      "gasUsed": "0x15f4ad",
      "effectiveGasPrice": "0xc1b710800",
      "from": "0x6efb11ac41b6657c32dac5ed4874082c700bba29",
      "to": "0xd55c09f4557b56352ea132963207d1987464f52c",
      "contractAddress": null
    },
    {
      "status": "0x1",
      "cumulativeGasUsed": "0xe21fdc",
      "logs": [
        {
          "address": "0x58389610a3d13e8f380ee2ba077a6f36f2a90834",
          "topics": [
            "0x8c5be1e5ebec7d5bd14f71427d1e84f3dd0314c0f7b2291e5b200ac8c7c3b925",
            "0x0000000000000000000000006efb11ac41b6657c32dac5ed4874082c700bba29",
            "0x000000000000000000000000e4ddb20ad5502160e9949ec58ee7e736a950d1c3"
          ],
          "data": "0x00000000000000000000000000000000000000000000000000000002540be400",
          "blockHash": "0xdecbbda34cd280b71b9f66c270d818daf9400ce36f70ff8d4198b3cb4dd8012a",
          "blockNumber": "0x744c07",
          "blockTimestamp": "0x67d32f8f",
          "transactionHash": "0x7f92e32b84edc4e04b3ab04404c8f9230b2e1ec0d1e4f58067e99018c3adb390",
          "transactionIndex": "0x50",
          "logIndex": "0x98",
          "removed": false
        }
      ],
      "logsBloom": "0x00000000000000000200000000000000000000000000000000000000000000000000000000000000000000000000000000000000000100000000000000200000000000000000000000000000000000000000000000000400001000000000000000000000000000000000000000000000000000000000000000000000000000000000000000000000000000010000000002000000000000000000000000000000020000000000000000000000000000040000000000000000000001000000000000000000000000000000000000000000000000000000000000000000000000000010000000000010000000000000000000000000000000000000000000000000",
      "type": "0x0",
      "transactionHash": "0x7f92e32b84edc4e04b3ab04404c8f9230b2e1ec0d1e4f58067e99018c3adb390",
      "transactionIndex": "0x50",
      "blockHash": "0xdecbbda34cd280b71b9f66c270d818daf9400ce36f70ff8d4198b3cb4dd8012a",
      "blockNumber": "0x744c07",
      "gasUsed": "0xf7d3",
      "effectiveGasPrice": "0xc1b710800",
      "from": "0x6efb11ac41b6657c32dac5ed4874082c700bba29",
      "to": "0x58389610a3d13e8f380ee2ba077a6f36f2a90834",
      "contractAddress": null
    },
    {
      "status": "0x1",
      "cumulativeGasUsed": "0x4cb4b8",
      "logs": [
        {
          "address": "0x58389610a3d13e8f380ee2ba077a6f36f2a90834",
          "topics": [
            "0xddf252ad1be2c89b69c2b068fc378daa952ba7f163c4a11628f55a4df523b3ef",
            "0x0000000000000000000000006efb11ac41b6657c32dac5ed4874082c700bba29",
            "0x000000000000000000000000e4ddb20ad5502160e9949ec58ee7e736a950d1c3"
          ],
          "data": "0x00000000000000000000000000000000000000000000000000000002540be400",
          "blockHash": "0x6dba3bacd352dc7fff11b337ff90276a2a0f6fbde1127a4449abada123e466ea",
          "blockNumber": "0x744c08",
          "blockTimestamp": "0x67d32f8f",
          "transactionHash": "0xe3f1a110299d82802b38bdf8620a25931c6425d9d15128c7f2a2b2b42e4bdeba",
          "transactionIndex": "0x19",
          "logIndex": "0x32",
          "removed": false
        },
        {
          "address": "0xe4ddb20ad5502160e9949ec58ee7e736a950d1c3",
          "topics": [
            "0x90890809c654f11d6e72a28fa60149770a0d11ec6c92319d6ceb2bb0a4ea1a15",
            "0x0000000000000000000000006efb11ac41b6657c32dac5ed4874082c700bba29"
          ],
          "data": "0x00000000000000000000000000000000000000000000000000000002540be40000000000000000000000000000000000000000000000000000000002540be400",
          "blockHash": "0x6dba3bacd352dc7fff11b337ff90276a2a0f6fbde1127a4449abada123e466ea",
          "blockNumber": "0x744c08",
          "blockTimestamp": "0x67d32f8f",
          "transactionHash": "0xe3f1a110299d82802b38bdf8620a25931c6425d9d15128c7f2a2b2b42e4bdeba",
          "transactionIndex": "0x19",
          "logIndex": "0x33",
          "removed": false
        },
        {
          "address": "0x2c53ce7143d24a65410107f50e4aabad9a164480",
          "topics": [
            "0xddf252ad1be2c89b69c2b068fc378daa952ba7f163c4a11628f55a4df523b3ef",
            "0x000000000000000000000000e4ddb20ad5502160e9949ec58ee7e736a950d1c3",
            "0x000000000000000000000000823f91041c1cecdc65ee8a7335f471ac1a08caf0"
          ],
          "data": "0x00000000000000000000000000000000000000000000000000000000000f4240",
          "blockHash": "0x6dba3bacd352dc7fff11b337ff90276a2a0f6fbde1127a4449abada123e466ea",
          "blockNumber": "0x744c08",
          "blockTimestamp": "0x67d32f8f",
          "transactionHash": "0xe3f1a110299d82802b38bdf8620a25931c6425d9d15128c7f2a2b2b42e4bdeba",
          "transactionIndex": "0x19",
          "logIndex": "0x34",
          "removed": false
        },
        {
          "address": "0x58389610a3d13e8f380ee2ba077a6f36f2a90834",
          "topics": [
            "0xddf252ad1be2c89b69c2b068fc378daa952ba7f163c4a11628f55a4df523b3ef",
            "0x000000000000000000000000e4ddb20ad5502160e9949ec58ee7e736a950d1c3",
            "0x000000000000000000000000823f91041c1cecdc65ee8a7335f471ac1a08caf0"
          ],
          "data": "0x000000000000000000000000000000000000000000000000000000012a05f200",
          "blockHash": "0x6dba3bacd352dc7fff11b337ff90276a2a0f6fbde1127a4449abada123e466ea",
          "blockNumber": "0x744c08",
          "blockTimestamp": "0x67d32f8f",
          "transactionHash": "0xe3f1a110299d82802b38bdf8620a25931c6425d9d15128c7f2a2b2b42e4bdeba",
          "transactionIndex": "0x19",
          "logIndex": "0x35",
          "removed": false
        },
        {
          "address": "0xe50914672560e18b2f5ce311a4557880df05000c",
          "topics": [
            "0xd3d640118416a526ad33075973727e1675055b2b31a8351bc74271d75fccef9b"
          ],
          "data": "0x0000000000000000000000000000000000000000000000000000000000000009000000000000000000000000e4ddb20ad5502160e9949ec58ee7e736a950d1c3000000000000000000000000e4ddb20ad5502160e9949ec58ee7e736a950d1c300000000000000000000000000000000000000000000000000000000000000000000000000000000000000000e87d21bd714d3391e992227e472517a9dc16a240000000000000000000000002c53ce7143d24a65410107f50e4aabad9a16448000000000000000000000000058389610a3d13e8f380ee2ba077a6f36f2a9083400000000000000000000000000000000000000000000000000000000000f42400000000000000000000000000000000000000000000000000000000000000000000000000000000000000000000000000000000000000000000000012a05f200",
          "blockHash": "0x6dba3bacd352dc7fff11b337ff90276a2a0f6fbde1127a4449abada123e466ea",
          "blockNumber": "0x744c08",
          "blockTimestamp": "0x67d32f8f",
          "transactionHash": "0xe3f1a110299d82802b38bdf8620a25931c6425d9d15128c7f2a2b2b42e4bdeba",
          "transactionIndex": "0x19",
          "logIndex": "0x36",
          "removed": false
        },
        {
          "address": "0xe4ddb20ad5502160e9949ec58ee7e736a950d1c3",
          "topics": [
            "0x472f36e28bb47edb7c69c9e2ac00a77c66b505df54e9c818ac57110b0629e8c3",
            "0x0000000000000000000000000e87d21bd714d3391e992227e472517a9dc16a24"
          ],
          "data": "0x000000000000000000000000000000000000000000000000000000012a05f200",
          "blockHash": "0x6dba3bacd352dc7fff11b337ff90276a2a0f6fbde1127a4449abada123e466ea",
          "blockNumber": "0x744c08",
          "blockTimestamp": "0x67d32f8f",
          "transactionHash": "0xe3f1a110299d82802b38bdf8620a25931c6425d9d15128c7f2a2b2b42e4bdeba",
          "transactionIndex": "0x19",
          "logIndex": "0x37",
          "removed": false
        },
        {
          "address": "0x2c53ce7143d24a65410107f50e4aabad9a164480",
          "topics": [
            "0xddf252ad1be2c89b69c2b068fc378daa952ba7f163c4a11628f55a4df523b3ef",
            "0x000000000000000000000000e4ddb20ad5502160e9949ec58ee7e736a950d1c3",
            "0x000000000000000000000000823f91041c1cecdc65ee8a7335f471ac1a08caf0"
          ],
          "data": "0x00000000000000000000000000000000000000000000000000000000000f4240",
          "blockHash": "0x6dba3bacd352dc7fff11b337ff90276a2a0f6fbde1127a4449abada123e466ea",
          "blockNumber": "0x744c08",
          "blockTimestamp": "0x67d32f8f",
          "transactionHash": "0xe3f1a110299d82802b38bdf8620a25931c6425d9d15128c7f2a2b2b42e4bdeba",
          "transactionIndex": "0x19",
          "logIndex": "0x38",
          "removed": false
        },
        {
          "address": "0x58389610a3d13e8f380ee2ba077a6f36f2a90834",
          "topics": [
            "0xddf252ad1be2c89b69c2b068fc378daa952ba7f163c4a11628f55a4df523b3ef",
            "0x000000000000000000000000e4ddb20ad5502160e9949ec58ee7e736a950d1c3",
            "0x000000000000000000000000823f91041c1cecdc65ee8a7335f471ac1a08caf0"
          ],
          "data": "0x00000000000000000000000000000000000000000000000000000000b2d05e00",
          "blockHash": "0x6dba3bacd352dc7fff11b337ff90276a2a0f6fbde1127a4449abada123e466ea",
          "blockNumber": "0x744c08",
          "blockTimestamp": "0x67d32f8f",
          "transactionHash": "0xe3f1a110299d82802b38bdf8620a25931c6425d9d15128c7f2a2b2b42e4bdeba",
          "transactionIndex": "0x19",
          "logIndex": "0x39",
          "removed": false
        },
        {
          "address": "0xe50914672560e18b2f5ce311a4557880df05000c",
          "topics": [
            "0xd3d640118416a526ad33075973727e1675055b2b31a8351bc74271d75fccef9b"
          ],
          "data": "0x000000000000000000000000000000000000000000000000000000000000000a000000000000000000000000e4ddb20ad5502160e9949ec58ee7e736a950d1c3000000000000000000000000e4ddb20ad5502160e9949ec58ee7e736a950d1c30000000000000000000000000000000000000000000000000000000000000000000000000000000000000000c9363063c1c5ea9392cc21bc44afd644632e618a000000000000000000000000e3f98fda6dbd38c1017754f1675dce377381c23c00000000000000000000000058389610a3d13e8f380ee2ba077a6f36f2a9083400000000000000000000000000000000000000000000000000000000000f4240000000000000000000000000000000000000000000000000000000000000000000000000000000000000000000000000000000000000000000000000b2d05e00",
          "blockHash": "0x6dba3bacd352dc7fff11b337ff90276a2a0f6fbde1127a4449abada123e466ea",
          "blockNumber": "0x744c08",
          "blockTimestamp": "0x67d32f8f",
          "transactionHash": "0xe3f1a110299d82802b38bdf8620a25931c6425d9d15128c7f2a2b2b42e4bdeba",
          "transactionIndex": "0x19",
          "logIndex": "0x3a",
          "removed": false
        },
        {
          "address": "0xe4ddb20ad5502160e9949ec58ee7e736a950d1c3",
          "topics": [
            "0x472f36e28bb47edb7c69c9e2ac00a77c66b505df54e9c818ac57110b0629e8c3",
            "0x000000000000000000000000c9363063c1c5ea9392cc21bc44afd644632e618a"
          ],
          "data": "0x00000000000000000000000000000000000000000000000000000000b2d05e00",
          "blockHash": "0x6dba3bacd352dc7fff11b337ff90276a2a0f6fbde1127a4449abada123e466ea",
          "blockNumber": "0x744c08",
          "blockTimestamp": "0x67d32f8f",
          "transactionHash": "0xe3f1a110299d82802b38bdf8620a25931c6425d9d15128c7f2a2b2b42e4bdeba",
          "transactionIndex": "0x19",
          "logIndex": "0x3b",
          "removed": false
        },
        {
          "address": "0x2c53ce7143d24a65410107f50e4aabad9a164480",
          "topics": [
            "0xddf252ad1be2c89b69c2b068fc378daa952ba7f163c4a11628f55a4df523b3ef",
            "0x000000000000000000000000e4ddb20ad5502160e9949ec58ee7e736a950d1c3",
            "0x000000000000000000000000823f91041c1cecdc65ee8a7335f471ac1a08caf0"
          ],
          "data": "0x00000000000000000000000000000000000000000000000000000000000f4240",
          "blockHash": "0x6dba3bacd352dc7fff11b337ff90276a2a0f6fbde1127a4449abada123e466ea",
          "blockNumber": "0x744c08",
          "blockTimestamp": "0x67d32f8f",
          "transactionHash": "0xe3f1a110299d82802b38bdf8620a25931c6425d9d15128c7f2a2b2b42e4bdeba",
          "transactionIndex": "0x19",
          "logIndex": "0x3c",
          "removed": false
        },
        {
          "address": "0x58389610a3d13e8f380ee2ba077a6f36f2a90834",
          "topics": [
            "0xddf252ad1be2c89b69c2b068fc378daa952ba7f163c4a11628f55a4df523b3ef",
            "0x000000000000000000000000e4ddb20ad5502160e9949ec58ee7e736a950d1c3",
            "0x000000000000000000000000823f91041c1cecdc65ee8a7335f471ac1a08caf0"
          ],
          "data": "0x0000000000000000000000000000000000000000000000000000000077359400",
          "blockHash": "0x6dba3bacd352dc7fff11b337ff90276a2a0f6fbde1127a4449abada123e466ea",
          "blockNumber": "0x744c08",
          "blockTimestamp": "0x67d32f8f",
          "transactionHash": "0xe3f1a110299d82802b38bdf8620a25931c6425d9d15128c7f2a2b2b42e4bdeba",
          "transactionIndex": "0x19",
          "logIndex": "0x3d",
          "removed": false
        },
        {
          "address": "0xe50914672560e18b2f5ce311a4557880df05000c",
          "topics": [
            "0xd3d640118416a526ad33075973727e1675055b2b31a8351bc74271d75fccef9b"
          ],
          "data": "0x000000000000000000000000000000000000000000000000000000000000000b000000000000000000000000e4ddb20ad5502160e9949ec58ee7e736a950d1c3000000000000000000000000e4ddb20ad5502160e9949ec58ee7e736a950d1c30000000000000000000000000000000000000000000000000000000000000000000000000000000000000000007b2f0fb291307452065b4a620c29d56d8875dc0000000000000000000000001889cfb8746716a0ac50e59a54f190987c5f04e600000000000000000000000058389610a3d13e8f380ee2ba077a6f36f2a9083400000000000000000000000000000000000000000000000000000000000f424000000000000000000000000000000000000000000000000000000000000000000000000000000000000000000000000000000000000000000000000077359400",
          "blockHash": "0x6dba3bacd352dc7fff11b337ff90276a2a0f6fbde1127a4449abada123e466ea",
          "blockNumber": "0x744c08",
          "blockTimestamp": "0x67d32f8f",
          "transactionHash": "0xe3f1a110299d82802b38bdf8620a25931c6425d9d15128c7f2a2b2b42e4bdeba",
          "transactionIndex": "0x19",
          "logIndex": "0x3e",
          "removed": false
        },
        {
          "address": "0xe4ddb20ad5502160e9949ec58ee7e736a950d1c3",
          "topics": [
            "0x472f36e28bb47edb7c69c9e2ac00a77c66b505df54e9c818ac57110b0629e8c3",
            "0x000000000000000000000000007b2f0fb291307452065b4a620c29d56d8875dc"
          ],
          "data": "0x0000000000000000000000000000000000000000000000000000000077359400",
          "blockHash": "0x6dba3bacd352dc7fff11b337ff90276a2a0f6fbde1127a4449abada123e466ea",
          "blockNumber": "0x744c08",
          "blockTimestamp": "0x67d32f8f",
          "transactionHash": "0xe3f1a110299d82802b38bdf8620a25931c6425d9d15128c7f2a2b2b42e4bdeba",
          "transactionIndex": "0x19",
          "logIndex": "0x3f",
          "removed": false
        },
        {
          "address": "0xe4ddb20ad5502160e9949ec58ee7e736a950d1c3",
          "topics": [
            "0xc741dbaad15a4f298fe8d80943fa8e005e7bcb2f5b0a0c8dec1fc35be457f146"
          ],
          "data": "0x",
          "blockHash": "0x6dba3bacd352dc7fff11b337ff90276a2a0f6fbde1127a4449abada123e466ea",
          "blockNumber": "0x744c08",
          "blockTimestamp": "0x67d32f8f",
          "transactionHash": "0xe3f1a110299d82802b38bdf8620a25931c6425d9d15128c7f2a2b2b42e4bdeba",
          "transactionIndex": "0x19",
          "logIndex": "0x40",
          "removed": false
        }
      ],
      "logsBloom": "0x0000000000000000020800000000000000c000000400000000000000040000000000000000000000000000000000000008001000000100800000000000000000000000000000000000100008000020000000000000000400001000000000000100000000040000000000400000000020000100000000000000000010200000000000000000000000000008010040000002000004000000000000000000000040200000000000000000000000000000040000000000000000000001000020800000000002000080000000000000000000000008010000000000000000002000040010011000000010000000000000000000000000400000000000000000000000",
      "type": "0x0",
      "transactionHash": "0xe3f1a110299d82802b38bdf8620a25931c6425d9d15128c7f2a2b2b42e4bdeba",
      "transactionIndex": "0x19",
      "blockHash": "0x6dba3bacd352dc7fff11b337ff90276a2a0f6fbde1127a4449abada123e466ea",
      "blockNumber": "0x744c08",
      "gasUsed": "0x146dea",
      "effectiveGasPrice": "0xc1b710800",
      "from": "0x6efb11ac41b6657c32dac5ed4874082c700bba29",
      "to": "0xe4ddb20ad5502160e9949ec58ee7e736a950d1c3",
      "contractAddress": null
    },
    {
      "status": "0x1",
      "cumulativeGasUsed": "0x939b39",
      "logs": [
        {
          "address": "0x58389610a3d13e8f380ee2ba077a6f36f2a90834",
          "topics": [
            "0x8c5be1e5ebec7d5bd14f71427d1e84f3dd0314c0f7b2291e5b200ac8c7c3b925",
            "0x0000000000000000000000006efb11ac41b6657c32dac5ed4874082c700bba29",
            "0x00000000000000000000000088e9ab627f453987b94d18472f0923bb08d18e14"
          ],
          "data": "0x00000000000000000000000000000000000000000000000000000002540be400",
          "blockHash": "0x6dba3bacd352dc7fff11b337ff90276a2a0f6fbde1127a4449abada123e466ea",
          "blockNumber": "0x744c08",
          "blockTimestamp": "0x67d32f8f",
          "transactionHash": "0xe104fe8bdb430759b61e01ebb663a153115181d4ab08d2aa8d4d5ee813599090",
          "transactionIndex": "0x32",
          "logIndex": "0x7c",
          "removed": false
        }
      ],
      "logsBloom": "0x00000000000000000200000000000000000000000000000000000000000000000000000000000000000000000000000000000000000100000000000000200000000000000000000000000000000000000000000000000400001000000000000000000000000000000000000000000000000000000000000040100000000000000000000000000000000000000000000000000000000000000000800000000000020000000000000000000000000000040000000000000000000001000000000000000000000000000000000000000000000000000000000000000000000000000010000000000000000000000000000000000000000000000000000000000000",
      "type": "0x0",
      "transactionHash": "0xe104fe8bdb430759b61e01ebb663a153115181d4ab08d2aa8d4d5ee813599090",
      "transactionIndex": "0x32",
      "blockHash": "0x6dba3bacd352dc7fff11b337ff90276a2a0f6fbde1127a4449abada123e466ea",
      "blockNumber": "0x744c08",
      "gasUsed": "0xf7d3",
      "effectiveGasPrice": "0xc1b710800",
      "from": "0x6efb11ac41b6657c32dac5ed4874082c700bba29",
      "to": "0x58389610a3d13e8f380ee2ba077a6f36f2a90834",
      "contractAddress": null
    },
    {
      "status": "0x1",
      "cumulativeGasUsed": "0xac3875",
      "logs": [
        {
          "address": "0x58389610a3d13e8f380ee2ba077a6f36f2a90834",
          "topics": [
            "0xddf252ad1be2c89b69c2b068fc378daa952ba7f163c4a11628f55a4df523b3ef",
            "0x0000000000000000000000006efb11ac41b6657c32dac5ed4874082c700bba29",
            "0x00000000000000000000000088e9ab627f453987b94d18472f0923bb08d18e14"
          ],
          "data": "0x00000000000000000000000000000000000000000000000000000002540be400",
          "blockHash": "0x6dba3bacd352dc7fff11b337ff90276a2a0f6fbde1127a4449abada123e466ea",
          "blockNumber": "0x744c08",
          "blockTimestamp": "0x67d32f8f",
          "transactionHash": "0x4e44a38ee03ce1be675ae31b5465bd1304ceeac8489d4980eadf2781f884d227",
          "transactionIndex": "0x33",
          "logIndex": "0x7d",
          "removed": false
        },
        {
          "address": "0x88e9ab627f453987b94d18472f0923bb08d18e14",
          "topics": [
            "0x90890809c654f11d6e72a28fa60149770a0d11ec6c92319d6ceb2bb0a4ea1a15",
            "0x0000000000000000000000006efb11ac41b6657c32dac5ed4874082c700bba29"
          ],
          "data": "0x00000000000000000000000000000000000000000000000000000002540be40000000000000000000000000000000000000000000000000000000002540be400",
          "blockHash": "0x6dba3bacd352dc7fff11b337ff90276a2a0f6fbde1127a4449abada123e466ea",
          "blockNumber": "0x744c08",
          "blockTimestamp": "0x67d32f8f",
          "transactionHash": "0x4e44a38ee03ce1be675ae31b5465bd1304ceeac8489d4980eadf2781f884d227",
          "transactionIndex": "0x33",
          "logIndex": "0x7e",
          "removed": false
        },
        {
          "address": "0x2c53ce7143d24a65410107f50e4aabad9a164480",
          "topics": [
            "0xddf252ad1be2c89b69c2b068fc378daa952ba7f163c4a11628f55a4df523b3ef",
            "0x00000000000000000000000088e9ab627f453987b94d18472f0923bb08d18e14",
            "0x000000000000000000000000823f91041c1cecdc65ee8a7335f471ac1a08caf0"
          ],
          "data": "0x00000000000000000000000000000000000000000000000000000000000f4240",
          "blockHash": "0x6dba3bacd352dc7fff11b337ff90276a2a0f6fbde1127a4449abada123e466ea",
          "blockNumber": "0x744c08",
          "blockTimestamp": "0x67d32f8f",
          "transactionHash": "0x4e44a38ee03ce1be675ae31b5465bd1304ceeac8489d4980eadf2781f884d227",
          "transactionIndex": "0x33",
          "logIndex": "0x7f",
          "removed": false
        },
        {
          "address": "0x58389610a3d13e8f380ee2ba077a6f36f2a90834",
          "topics": [
            "0xddf252ad1be2c89b69c2b068fc378daa952ba7f163c4a11628f55a4df523b3ef",
            "0x00000000000000000000000088e9ab627f453987b94d18472f0923bb08d18e14",
            "0x000000000000000000000000823f91041c1cecdc65ee8a7335f471ac1a08caf0"
          ],
          "data": "0x00000000000000000000000000000000000000000000000000000000ee6b2800",
          "blockHash": "0x6dba3bacd352dc7fff11b337ff90276a2a0f6fbde1127a4449abada123e466ea",
          "blockNumber": "0x744c08",
          "blockTimestamp": "0x67d32f8f",
          "transactionHash": "0x4e44a38ee03ce1be675ae31b5465bd1304ceeac8489d4980eadf2781f884d227",
          "transactionIndex": "0x33",
          "logIndex": "0x80",
          "removed": false
        },
        {
          "address": "0xe50914672560e18b2f5ce311a4557880df05000c",
          "topics": [
            "0xd3d640118416a526ad33075973727e1675055b2b31a8351bc74271d75fccef9b"
          ],
          "data": "0x000000000000000000000000000000000000000000000000000000000000000c00000000000000000000000088e9ab627f453987b94d18472f0923bb08d18e1400000000000000000000000088e9ab627f453987b94d18472f0923bb08d18e1400000000000000000000000000000000000000000000000000000000000000000000000000000000000000000e87d21bd714d3391e992227e472517a9dc16a240000000000000000000000002c53ce7143d24a65410107f50e4aabad9a16448000000000000000000000000058389610a3d13e8f380ee2ba077a6f36f2a9083400000000000000000000000000000000000000000000000000000000000f4240000000000000000000000000000000000000000000000000000000000000000000000000000000000000000000000000000000000000000000000000ee6b2800",
          "blockHash": "0x6dba3bacd352dc7fff11b337ff90276a2a0f6fbde1127a4449abada123e466ea",
          "blockNumber": "0x744c08",
          "blockTimestamp": "0x67d32f8f",
          "transactionHash": "0x4e44a38ee03ce1be675ae31b5465bd1304ceeac8489d4980eadf2781f884d227",
          "transactionIndex": "0x33",
          "logIndex": "0x81",
          "removed": false
        },
        {
          "address": "0x88e9ab627f453987b94d18472f0923bb08d18e14",
          "topics": [
            "0x472f36e28bb47edb7c69c9e2ac00a77c66b505df54e9c818ac57110b0629e8c3",
            "0x0000000000000000000000000e87d21bd714d3391e992227e472517a9dc16a24"
          ],
          "data": "0x00000000000000000000000000000000000000000000000000000000ee6b2800",
          "blockHash": "0x6dba3bacd352dc7fff11b337ff90276a2a0f6fbde1127a4449abada123e466ea",
          "blockNumber": "0x744c08",
          "blockTimestamp": "0x67d32f8f",
          "transactionHash": "0x4e44a38ee03ce1be675ae31b5465bd1304ceeac8489d4980eadf2781f884d227",
          "transactionIndex": "0x33",
          "logIndex": "0x82",
          "removed": false
        },
        {
          "address": "0x2c53ce7143d24a65410107f50e4aabad9a164480",
          "topics": [
            "0xddf252ad1be2c89b69c2b068fc378daa952ba7f163c4a11628f55a4df523b3ef",
            "0x00000000000000000000000088e9ab627f453987b94d18472f0923bb08d18e14",
            "0x000000000000000000000000823f91041c1cecdc65ee8a7335f471ac1a08caf0"
          ],
          "data": "0x00000000000000000000000000000000000000000000000000000000000f4240",
          "blockHash": "0x6dba3bacd352dc7fff11b337ff90276a2a0f6fbde1127a4449abada123e466ea",
          "blockNumber": "0x744c08",
          "blockTimestamp": "0x67d32f8f",
          "transactionHash": "0x4e44a38ee03ce1be675ae31b5465bd1304ceeac8489d4980eadf2781f884d227",
          "transactionIndex": "0x33",
          "logIndex": "0x83",
          "removed": false
        },
        {
          "address": "0x58389610a3d13e8f380ee2ba077a6f36f2a90834",
          "topics": [
            "0xddf252ad1be2c89b69c2b068fc378daa952ba7f163c4a11628f55a4df523b3ef",
            "0x00000000000000000000000088e9ab627f453987b94d18472f0923bb08d18e14",
            "0x000000000000000000000000823f91041c1cecdc65ee8a7335f471ac1a08caf0"
          ],
          "data": "0x0000000000000000000000000000000000000000000000000000000077359400",
          "blockHash": "0x6dba3bacd352dc7fff11b337ff90276a2a0f6fbde1127a4449abada123e466ea",
          "blockNumber": "0x744c08",
          "blockTimestamp": "0x67d32f8f",
          "transactionHash": "0x4e44a38ee03ce1be675ae31b5465bd1304ceeac8489d4980eadf2781f884d227",
          "transactionIndex": "0x33",
          "logIndex": "0x84",
          "removed": false
        },
        {
          "address": "0xe50914672560e18b2f5ce311a4557880df05000c",
          "topics": [
            "0xd3d640118416a526ad33075973727e1675055b2b31a8351bc74271d75fccef9b"
          ],
          "data": "0x000000000000000000000000000000000000000000000000000000000000000d00000000000000000000000088e9ab627f453987b94d18472f0923bb08d18e1400000000000000000000000088e9ab627f453987b94d18472f0923bb08d18e140000000000000000000000000000000000000000000000000000000000000000000000000000000000000000c9363063c1c5ea9392cc21bc44afd644632e618a000000000000000000000000e3f98fda6dbd38c1017754f1675dce377381c23c00000000000000000000000058389610a3d13e8f380ee2ba077a6f36f2a9083400000000000000000000000000000000000000000000000000000000000f424000000000000000000000000000000000000000000000000000000000000000000000000000000000000000000000000000000000000000000000000077359400",
          "blockHash": "0x6dba3bacd352dc7fff11b337ff90276a2a0f6fbde1127a4449abada123e466ea",
          "blockNumber": "0x744c08",
          "blockTimestamp": "0x67d32f8f",
          "transactionHash": "0x4e44a38ee03ce1be675ae31b5465bd1304ceeac8489d4980eadf2781f884d227",
          "transactionIndex": "0x33",
          "logIndex": "0x85",
          "removed": false
        },
        {
          "address": "0x88e9ab627f453987b94d18472f0923bb08d18e14",
          "topics": [
            "0x472f36e28bb47edb7c69c9e2ac00a77c66b505df54e9c818ac57110b0629e8c3",
            "0x000000000000000000000000c9363063c1c5ea9392cc21bc44afd644632e618a"
          ],
          "data": "0x0000000000000000000000000000000000000000000000000000000077359400",
          "blockHash": "0x6dba3bacd352dc7fff11b337ff90276a2a0f6fbde1127a4449abada123e466ea",
          "blockNumber": "0x744c08",
          "blockTimestamp": "0x67d32f8f",
          "transactionHash": "0x4e44a38ee03ce1be675ae31b5465bd1304ceeac8489d4980eadf2781f884d227",
          "transactionIndex": "0x33",
          "logIndex": "0x86",
          "removed": false
        },
        {
          "address": "0x2c53ce7143d24a65410107f50e4aabad9a164480",
          "topics": [
            "0xddf252ad1be2c89b69c2b068fc378daa952ba7f163c4a11628f55a4df523b3ef",
            "0x00000000000000000000000088e9ab627f453987b94d18472f0923bb08d18e14",
            "0x000000000000000000000000823f91041c1cecdc65ee8a7335f471ac1a08caf0"
          ],
          "data": "0x00000000000000000000000000000000000000000000000000000000000f4240",
          "blockHash": "0x6dba3bacd352dc7fff11b337ff90276a2a0f6fbde1127a4449abada123e466ea",
          "blockNumber": "0x744c08",
          "blockTimestamp": "0x67d32f8f",
          "transactionHash": "0x4e44a38ee03ce1be675ae31b5465bd1304ceeac8489d4980eadf2781f884d227",
          "transactionIndex": "0x33",
          "logIndex": "0x87",
          "removed": false
        },
        {
          "address": "0x58389610a3d13e8f380ee2ba077a6f36f2a90834",
          "topics": [
            "0xddf252ad1be2c89b69c2b068fc378daa952ba7f163c4a11628f55a4df523b3ef",
            "0x00000000000000000000000088e9ab627f453987b94d18472f0923bb08d18e14",
            "0x000000000000000000000000823f91041c1cecdc65ee8a7335f471ac1a08caf0"
          ],
          "data": "0x0000000000000000000000000000000000000000000000000000000077359400",
          "blockHash": "0x6dba3bacd352dc7fff11b337ff90276a2a0f6fbde1127a4449abada123e466ea",
          "blockNumber": "0x744c08",
          "blockTimestamp": "0x67d32f8f",
          "transactionHash": "0x4e44a38ee03ce1be675ae31b5465bd1304ceeac8489d4980eadf2781f884d227",
          "transactionIndex": "0x33",
          "logIndex": "0x88",
          "removed": false
        },
        {
          "address": "0xe50914672560e18b2f5ce311a4557880df05000c",
          "topics": [
            "0xd3d640118416a526ad33075973727e1675055b2b31a8351bc74271d75fccef9b"
          ],
          "data": "0x000000000000000000000000000000000000000000000000000000000000000e00000000000000000000000088e9ab627f453987b94d18472f0923bb08d18e1400000000000000000000000088e9ab627f453987b94d18472f0923bb08d18e1400000000000000000000000000000000000000000000000000000000000000000000000000000000000000008fc3599e5d86df2e5ab4b9e20975da2ff17eb4b60000000000000000000000006bc8a42d4b2f4bc8e4c3f9ecff00b7290ffa740500000000000000000000000058389610a3d13e8f380ee2ba077a6f36f2a9083400000000000000000000000000000000000000000000000000000000000f424000000000000000000000000000000000000000000000000000000000000000000000000000000000000000000000000000000000000000000000000077359400",
          "blockHash": "0x6dba3bacd352dc7fff11b337ff90276a2a0f6fbde1127a4449abada123e466ea",
          "blockNumber": "0x744c08",
          "blockTimestamp": "0x67d32f8f",
          "transactionHash": "0x4e44a38ee03ce1be675ae31b5465bd1304ceeac8489d4980eadf2781f884d227",
          "transactionIndex": "0x33",
          "logIndex": "0x89",
          "removed": false
        },
        {
          "address": "0x88e9ab627f453987b94d18472f0923bb08d18e14",
          "topics": [
            "0x472f36e28bb47edb7c69c9e2ac00a77c66b505df54e9c818ac57110b0629e8c3",
            "0x0000000000000000000000008fc3599e5d86df2e5ab4b9e20975da2ff17eb4b6"
          ],
          "data": "0x0000000000000000000000000000000000000000000000000000000077359400",
          "blockHash": "0x6dba3bacd352dc7fff11b337ff90276a2a0f6fbde1127a4449abada123e466ea",
          "blockNumber": "0x744c08",
          "blockTimestamp": "0x67d32f8f",
          "transactionHash": "0x4e44a38ee03ce1be675ae31b5465bd1304ceeac8489d4980eadf2781f884d227",
          "transactionIndex": "0x33",
          "logIndex": "0x8a",
          "removed": false
        },
        {
          "address": "0x2c53ce7143d24a65410107f50e4aabad9a164480",
          "topics": [
            "0xddf252ad1be2c89b69c2b068fc378daa952ba7f163c4a11628f55a4df523b3ef",
            "0x00000000000000000000000088e9ab627f453987b94d18472f0923bb08d18e14",
            "0x000000000000000000000000823f91041c1cecdc65ee8a7335f471ac1a08caf0"
          ],
          "data": "0x00000000000000000000000000000000000000000000000000000000000f4240",
          "blockHash": "0x6dba3bacd352dc7fff11b337ff90276a2a0f6fbde1127a4449abada123e466ea",
          "blockNumber": "0x744c08",
          "blockTimestamp": "0x67d32f8f",
          "transactionHash": "0x4e44a38ee03ce1be675ae31b5465bd1304ceeac8489d4980eadf2781f884d227",
          "transactionIndex": "0x33",
          "logIndex": "0x8b",
          "removed": false
        },
        {
          "address": "0x58389610a3d13e8f380ee2ba077a6f36f2a90834",
          "topics": [
            "0xddf252ad1be2c89b69c2b068fc378daa952ba7f163c4a11628f55a4df523b3ef",
            "0x00000000000000000000000088e9ab627f453987b94d18472f0923bb08d18e14",
            "0x000000000000000000000000823f91041c1cecdc65ee8a7335f471ac1a08caf0"
          ],
          "data": "0x0000000000000000000000000000000000000000000000000000000077359400",
          "blockHash": "0x6dba3bacd352dc7fff11b337ff90276a2a0f6fbde1127a4449abada123e466ea",
          "blockNumber": "0x744c08",
          "blockTimestamp": "0x67d32f8f",
          "transactionHash": "0x4e44a38ee03ce1be675ae31b5465bd1304ceeac8489d4980eadf2781f884d227",
          "transactionIndex": "0x33",
          "logIndex": "0x8c",
          "removed": false
        },
        {
          "address": "0xe50914672560e18b2f5ce311a4557880df05000c",
          "topics": [
            "0xd3d640118416a526ad33075973727e1675055b2b31a8351bc74271d75fccef9b"
          ],
          "data": "0x000000000000000000000000000000000000000000000000000000000000000f00000000000000000000000088e9ab627f453987b94d18472f0923bb08d18e1400000000000000000000000088e9ab627f453987b94d18472f0923bb08d18e14000000000000000000000000000000000000000000000000000000000000000000000000000000000000000061cbb1a8fb2f8710fe95c6c3ef039b5828cb000b000000000000000000000000f9861d7478f8957679b26404bd6272c39f949c2900000000000000000000000058389610a3d13e8f380ee2ba077a6f36f2a9083400000000000000000000000000000000000000000000000000000000000f424000000000000000000000000000000000000000000000000000000000000000000000000000000000000000000000000000000000000000000000000077359400",
          "blockHash": "0x6dba3bacd352dc7fff11b337ff90276a2a0f6fbde1127a4449abada123e466ea",
          "blockNumber": "0x744c08",
          "blockTimestamp": "0x67d32f8f",
          "transactionHash": "0x4e44a38ee03ce1be675ae31b5465bd1304ceeac8489d4980eadf2781f884d227",
          "transactionIndex": "0x33",
          "logIndex": "0x8d",
          "removed": false
        },
        {
          "address": "0x88e9ab627f453987b94d18472f0923bb08d18e14",
          "topics": [
            "0x472f36e28bb47edb7c69c9e2ac00a77c66b505df54e9c818ac57110b0629e8c3",
            "0x00000000000000000000000061cbb1a8fb2f8710fe95c6c3ef039b5828cb000b"
          ],
          "data": "0x0000000000000000000000000000000000000000000000000000000077359400",
          "blockHash": "0x6dba3bacd352dc7fff11b337ff90276a2a0f6fbde1127a4449abada123e466ea",
          "blockNumber": "0x744c08",
          "blockTimestamp": "0x67d32f8f",
          "transactionHash": "0x4e44a38ee03ce1be675ae31b5465bd1304ceeac8489d4980eadf2781f884d227",
          "transactionIndex": "0x33",
          "logIndex": "0x8e",
          "removed": false
        },
        {
          "address": "0x88e9ab627f453987b94d18472f0923bb08d18e14",
          "topics": [
            "0xc741dbaad15a4f298fe8d80943fa8e005e7bcb2f5b0a0c8dec1fc35be457f146"
          ],
          "data": "0x",
          "blockHash": "0x6dba3bacd352dc7fff11b337ff90276a2a0f6fbde1127a4449abada123e466ea",
          "blockNumber": "0x744c08",
          "blockTimestamp": "0x67d32f8f",
          "transactionHash": "0x4e44a38ee03ce1be675ae31b5465bd1304ceeac8489d4980eadf2781f884d227",
          "transactionIndex": "0x33",
          "logIndex": "0x8f",
          "removed": false
        }
      ],
      "logsBloom": "0x00000000000000000300000000000000004000000400000000000000040000000000100000000000000000000000000008001000000100800000000000000000000004000000000000100008000020000000002000000400001000000000000000000000000000000000400000000020000100000000000040100010200000000000000080000000000008000040000000000004000000000000800000000040000000000000000000000000000000040000000000000000000001000020800000000002000080000000000800000000000000010000800000000000002000040030051000000000000000000000000000000000400000000000000000000000",
      "type": "0x0",
      "transactionHash": "0x4e44a38ee03ce1be675ae31b5465bd1304ceeac8489d4980eadf2781f884d227",
      "transactionIndex": "0x33",
      "blockHash": "0x6dba3bacd352dc7fff11b337ff90276a2a0f6fbde1127a4449abada123e466ea",
      "blockNumber": "0x744c08",
      "gasUsed": "0x189d3c",
      "effectiveGasPrice": "0xc1b710800",
      "from": "0x6efb11ac41b6657c32dac5ed4874082c700bba29",
      "to": "0x88e9ab627f453987b94d18472f0923bb08d18e14",
      "contractAddress": null
    }
  ],
  "libraries": [],
  "pending": [],
  "returns": {},
  "timestamp": 1741893522,
  "chain": 10143,
  "commit": "69d67f9"
}