{
  "transactions": [
    {
      "hash": "0x64d5b9f6bd8a5d534445fb4b9a0b07552b9bdac600182a96f6262fcf8da1422c",
      "transactionType": "CALL",
      "contractName": null,
      "contractAddress": "0xd8a8f5c1e6fc685409c94af2e335e1421cbd09a0",
      "function": "setPrice(address,uint256)",
      "arguments": [
        "0x2c53Ce7143D24A65410107F50e4AABad9A164480",
        "1884013201382324227225"
      ],
      "transaction": {
        "from": "0x6efb11ac41b6657c32dac5ed4874082c700bba29",
        "to": "0xd8a8f5c1e6fc685409c94af2e335e1421cbd09a0",
        "gas": "0x13754",
        "value": "0x0",
        "input": "0x00e4768b0000000000000000000000002c53ce7143d24a65410107f50e4aabad9a16448000000000000000000000000000000000000000000000006621ef78ba3beacc99",
        "nonce": "0x238",
        "chainId": "0x279f"
      },
      "additionalContracts": [],
      "isFixedGasLimit": false
    },
    {
      "hash": "0xacd0d00f19ea3267f3d415e36f44d2d8e49fe6902aa5ecd449a52d9f6654626b",
      "transactionType": "CALL",
      "contractName": null,
      "contractAddress": "0xd8a8f5c1e6fc685409c94af2e335e1421cbd09a0",
      "function": "setPrice(address,uint256)",
      "arguments": [
        "0x53f7C389CBB801e2ABfD301deD6D2A1cf330ac0D",
        "50578009069659821532525"
      ],
      "transaction": {
        "from": "0x6efb11ac41b6657c32dac5ed4874082c700bba29",
        "to": "0xd8a8f5c1e6fc685409c94af2e335e1421cbd09a0",
        "gas": "0x149b6",
        "value": "0x0",
        "input": "0x00e4768b00000000000000000000000053f7c389cbb801e2abfd301ded6d2a1cf330ac0d000000000000000000000000000000000000000000000ab5d6e0ab1426ed656d",
        "nonce": "0x239",
        "chainId": "0x279f"
      },
      "additionalContracts": [],
      "isFixedGasLimit": false
    },
    {
      "hash": "0xddf7e6ea3457d93942c4139b06929c20af8bf78ff649076757369bcf26dd87ff",
      "transactionType": "CALL",
      "contractName": null,
      "contractAddress": "0xd8a8f5c1e6fc685409c94af2e335e1421cbd09a0",
      "function": "setPrice(address,uint256)",
      "arguments": [
        "0x58389610A3D13e8f380ee2bA077A6F36f2A90834",
        "1000000000000000000"
      ],
      "transaction": {
        "from": "0x6efb11ac41b6657c32dac5ed4874082c700bba29",
        "to": "0xd8a8f5c1e6fc685409c94af2e335e1421cbd09a0",
        "gas": "0x127f6",
        "value": "0x0",
        "input": "0x00e4768b00000000000000000000000058389610a3d13e8f380ee2ba077a6f36f2a908340000000000000000000000000000000000000000000000000de0b6b3a7640000",
        "nonce": "0x23a",
        "chainId": "0x279f"
      },
      "additionalContracts": [],
      "isFixedGasLimit": false
    },
    {
      "hash": "0xbec5f47d71f895beef5b6e2233ba6d4fad52aa6e3e697ed65f3acdddeb6aa28d",
      "transactionType": "CALL",
      "contractName": null,
      "contractAddress": "0xd8a8f5c1e6fc685409c94af2e335e1421cbd09a0",
      "function": "setPrice(address,uint256)",
      "arguments": [
        "0xF9861d7478f8957679b26404Bd6272c39f949C29",
        "100309917015235"
      ],
      "transaction": {
        "from": "0x6efb11ac41b6657c32dac5ed4874082c700bba29",
        "to": "0xd8a8f5c1e6fc685409c94af2e335e1421cbd09a0",
        "gas": "0x14970",
        "value": "0x0",
        "input": "0x00e4768b000000000000000000000000f9861d7478f8957679b26404bd6272c39f949c2900000000000000000000000000000000000000000000000000005b3b38f89cc3",
        "nonce": "0x23b",
        "chainId": "0x279f"
      },
      "additionalContracts": [],
      "isFixedGasLimit": false
    },
    {
      "hash": "0x7a03e15e2bc36d8269bc4bf4487df38f601303edf2b8f0cbc309a624223ac934",
      "transactionType": "CALL",
      "contractName": null,
      "contractAddress": "0xd8a8f5c1e6fc685409c94af2e335e1421cbd09a0",
      "function": "setPrice(address,uint256)",
      "arguments": [
        "0x1889CFb8746716a0AC50E59a54f190987C5F04E6",
        "92619417127613538"
      ],
      "transaction": {
        "from": "0x6efb11ac41b6657c32dac5ed4874082c700bba29",
        "to": "0xd8a8f5c1e6fc685409c94af2e335e1421cbd09a0",
        "gas": "0x14993",
        "value": "0x0",
        "input": "0x00e4768b0000000000000000000000001889cfb8746716a0ac50e59a54f190987c5f04e600000000000000000000000000000000000000000000000001490cde8131f462",
        "nonce": "0x23c",
        "chainId": "0x279f"
      },
      "additionalContracts": [],
      "isFixedGasLimit": false
    },
    {
      "hash": "0x3f410703fb6ceeecdce2b9470fd48fbbded5858a87dc1614162dfdf9b6eb7155",
      "transactionType": "CALL",
      "contractName": null,
      "contractAddress": "0xd8a8f5c1e6fc685409c94af2e335e1421cbd09a0",
      "function": "setPrice(address,uint256)",
      "arguments": [
        "0x6bc8a42d4B2F4bc8e4c3f9eCFF00B7290Ffa7405",
        "38243994447116396"
      ],
      "transaction": {
        "from": "0x6efb11ac41b6657c32dac5ed4874082c700bba29",
        "to": "0xd8a8f5c1e6fc685409c94af2e335e1421cbd09a0",
        "gas": "0x14970",
        "value": "0x0",
        "input": "0x00e4768b0000000000000000000000006bc8a42d4b2f4bc8e4c3f9ecff00b7290ffa74050000000000000000000000000000000000000000000000000087deb5d7cff86c",
        "nonce": "0x23d",
        "chainId": "0x279f"
      },
      "additionalContracts": [],
      "isFixedGasLimit": false
    },
    {
      "hash": "0x6e2a5601a0ebfc54fc3041f2bf3d0de37ebf961e1d56192938b473e46508cbe6",
      "transactionType": "CALL",
      "contractName": null,
      "contractAddress": "0xd8a8f5c1e6fc685409c94af2e335e1421cbd09a0",
      "function": "setPrice(address,uint256)",
      "arguments": [
        "0xe3F98fdA6dBD38c1017754f1675dcE377381c23C",
        "15466610778746260622"
      ],
      "transaction": {
        "from": "0x6efb11ac41b6657c32dac5ed4874082c700bba29",
        "to": "0xd8a8f5c1e6fc685409c94af2e335e1421cbd09a0",
        "gas": "0x14993",
        "value": "0x0",
        "input": "0x00e4768b000000000000000000000000e3f98fda6dbd38c1017754f1675dce377381c23c000000000000000000000000000000000000000000000000d6a4708ec2660c8e",
        "nonce": "0x23e",
        "chainId": "0x279f"
      },
      "additionalContracts": [],
      "isFixedGasLimit": false
    }
  ],
  "receipts": [
    {
      "status": "0x1",
      "cumulativeGasUsed": "0x3f2b48",
      "logs": [
        {
          "address": "0xd8a8f5c1e6fc685409c94af2e335e1421cbd09a0",
          "topics": [
            "0x7ea068de19c5d7bd35e95fdf77ee7b38bca6c65363aa3e3738aa8a0f242b4f30",
            "0x0000000000000000000000002c53ce7143d24a65410107f50e4aabad9a164480",
            "0xfec9fe313f2641d20f780bc4dbe569d3fad27061f84b764379c2affb4e72afbb"
          ],
          "data": "0x00000000000000000000000000000000000000000000006621ef78ba3beacc990000000000000000000000000000000000000000000000000000000067d37795",
          "blockHash": "0x55bb25c8bd9eda1fbb385688c7ee9fed2448f45244589e490e33432c2191bdce",
          "blockNumber": "0x74c045",
          "blockTimestamp": "0x67d37795",
          "transactionHash": "0x64d5b9f6bd8a5d534445fb4b9a0b07552b9bdac600182a96f6262fcf8da1422c",
          "transactionIndex": "0x1a",
          "logIndex": "0x49",
          "removed": false
        }
      ],
      "logsBloom": "0x00000000000000000000000000000000000000000000000000000000000080000000000000000000000000000000000010000000000000000000000004000000000000000000000000000000000001000000400000000000000000000000000000000000000000000000000000000000000000000000000000000000000000000000020000000100000000000000000000000000000000000000000010000000000000000000000020000010000000000000000000000000000000000000000000000000000000000000000000000000000000000000000000000000000000000000000000000000000000000000000000000000000000000800000000000000",
      "type": "0x0",
      "transactionHash": "0x64d5b9f6bd8a5d534445fb4b9a0b07552b9bdac600182a96f6262fcf8da1422c",
      "transactionIndex": "0x1a",
      "blockHash": "0x55bb25c8bd9eda1fbb385688c7ee9fed2448f45244589e490e33432c2191bdce",
      "blockNumber": "0x74c045",
      "gasUsed": "0x13754",
      "effectiveGasPrice": "0xc1b710800",
      "from": "0x6efb11ac41b6657c32dac5ed4874082c700bba29",
      "to": "0xd8a8f5c1e6fc685409c94af2e335e1421cbd09a0",
      "contractAddress": null
    },
    {
      "status": "0x1",
      "cumulativeGasUsed": "0x4074fe",
      "logs": [
        {
          "address": "0xd8a8f5c1e6fc685409c94af2e335e1421cbd09a0",
          "topics": [
            "0x7ea068de19c5d7bd35e95fdf77ee7b38bca6c65363aa3e3738aa8a0f242b4f30",
            "0x00000000000000000000000053f7c389cbb801e2abfd301ded6d2a1cf330ac0d",
            "0x2ad90dd93035362ff577f5418f113f8a159d702da9e78702936a991dfb95ca21"
          ],
          "data": "0x000000000000000000000000000000000000000000000ab5d6e0ab1426ed656d0000000000000000000000000000000000000000000000000000000067d37795",
          "blockHash": "0x55bb25c8bd9eda1fbb385688c7ee9fed2448f45244589e490e33432c2191bdce",
          "blockNumber": "0x74c045",
          "blockTimestamp": "0x67d37795",
          "transactionHash": "0xacd0d00f19ea3267f3d415e36f44d2d8e49fe6902aa5ecd449a52d9f6654626b",
          "transactionIndex": "0x1b",
          "logIndex": "0x4a",
          "removed": false
        }
      ],
      "logsBloom": "0x00000000000000000000000000000000000000000000000000000000800000002000000000000000000000000000000010000000000000000000000000000000000004000000000000000000000000000000400000000000000000000000000000000000000000000000000000000000000000000000000000000000000000000000020000000000000000000000000000000000000000000000000010000000000000000001000020000010000000000000000000000000000000000000000000000000000000000001000000000000000000000000000000000000008000000000000000000000000000000000000000000000000000000000000000000000",
      "type": "0x0",
      "transactionHash": "0xacd0d00f19ea3267f3d415e36f44d2d8e49fe6902aa5ecd449a52d9f6654626b",
      "transactionIndex": "0x1b",
      "blockHash": "0x55bb25c8bd9eda1fbb385688c7ee9fed2448f45244589e490e33432c2191bdce",
      "blockNumber": "0x74c045",
      "gasUsed": "0x149b6",
      "effectiveGasPrice": "0xc1b710800",
      "from": "0x6efb11ac41b6657c32dac5ed4874082c700bba29",
      "to": "0xd8a8f5c1e6fc685409c94af2e335e1421cbd09a0",
      "contractAddress": null
    },
    {
      "status": "0x1",
      "cumulativeGasUsed": "0x26587b",
      "logs": [
        {
          "address": "0xd8a8f5c1e6fc685409c94af2e335e1421cbd09a0",
          "topics": [
            "0x7ea068de19c5d7bd35e95fdf77ee7b38bca6c65363aa3e3738aa8a0f242b4f30",
            "0x00000000000000000000000058389610a3d13e8f380ee2ba077a6f36f2a90834",
            "0xc5d2460186f7233c927e7db2dcc703c0e500b653ca82273b7bfad8045d85a470"
          ],
          "data": "0x0000000000000000000000000000000000000000000000000de0b6b3a76400000000000000000000000000000000000000000000000000000000000067d37795",
          "blockHash": "0x2095fe4ef1ec94026e8922f1909c3ac9018013e8abc104c202c263e2d026743c",
          "blockNumber": "0x74c046",
          "blockTimestamp": "0x67d37795",
          "transactionHash": "0xddf7e6ea3457d93942c4139b06929c20af8bf78ff649076757369bcf26dd87ff",
          "transactionIndex": "0x15",
          "logIndex": "0x28",
          "removed": false
        }
      ],
      "logsBloom": "0x000000000000000000000000000000000000000000000000000000000000000080000000000000000000000000000000100000000000000000000000000000000000000000004000000000000000000000004000000000000000000000000000000000000000000000000000400000000000000000000000000000000000000000000a0040000000000000000000000000000000000000000000000010000000000000000000000020000010000000000000000000000000000000000000000000000000000000000000000000000000000000000000000000000000000000000000000000000400000000000000000000000000000000000000000000000000",
      "type": "0x0",
      "transactionHash": "0xddf7e6ea3457d93942c4139b06929c20af8bf78ff649076757369bcf26dd87ff",
      "transactionIndex": "0x15",
      "blockHash": "0x2095fe4ef1ec94026e8922f1909c3ac9018013e8abc104c202c263e2d026743c",
      "blockNumber": "0x74c046",
      "gasUsed": "0x127f6",
      "effectiveGasPrice": "0xc1b710800",
      "from": "0x6efb11ac41b6657c32dac5ed4874082c700bba29",
      "to": "0xd8a8f5c1e6fc685409c94af2e335e1421cbd09a0",
      "contractAddress": null
    },
    {
      "status": "0x1",
      "cumulativeGasUsed": "0x27a1eb",
      "logs": [
        {
          "address": "0xd8a8f5c1e6fc685409c94af2e335e1421cbd09a0",
          "topics": [
            "0x7ea068de19c5d7bd35e95fdf77ee7b38bca6c65363aa3e3738aa8a0f242b4f30",
            "0x000000000000000000000000f9861d7478f8957679b26404bd6272c39f949c29",
            "0x1c0ccbd35ba468bdd0237ee29c3319448a546ec1d4851e932b643527181bf96a"
          ],
          "data": "0x00000000000000000000000000000000000000000000000000005b3b38f89cc30000000000000000000000000000000000000000000000000000000067d37795",
          "blockHash": "0x2095fe4ef1ec94026e8922f1909c3ac9018013e8abc104c202c263e2d026743c",
          "blockNumber": "0x74c046",
          "blockTimestamp": "0x67d37795",
          "transactionHash": "0xbec5f47d71f895beef5b6e2233ba6d4fad52aa6e3e697ed65f3acdddeb6aa28d",
          "transactionIndex": "0x16",
          "logIndex": "0x29",
          "removed": false
        }
      ],
      "logsBloom": "0x00000000000000000000000000000000000000800000000000000000000000000000000000000000008000000000000010000000000000000000000000000000000000000000000000000000000000000000400000000000000000000000000000000000000000000000004000000000000080000000000000000000000000002000020000000000000000000000000000000000000000000000000010000000000000000000000020001010000000000000000000000000000000000000000000000000000000000000000000000000000000000000000000000000000000000000000000000000000000000000000000000000000000000000000000000000",
      "type": "0x0",
      "transactionHash": "0xbec5f47d71f895beef5b6e2233ba6d4fad52aa6e3e697ed65f3acdddeb6aa28d",
      "transactionIndex": "0x16",
      "blockHash": "0x2095fe4ef1ec94026e8922f1909c3ac9018013e8abc104c202c263e2d026743c",
      "blockNumber": "0x74c046",
      "gasUsed": "0x14970",
      "effectiveGasPrice": "0xc1b710800",
      "from": "0x6efb11ac41b6657c32dac5ed4874082c700bba29",
      "to": "0xd8a8f5c1e6fc685409c94af2e335e1421cbd09a0",
      "contractAddress": null
    },
    {
      "status": "0x1",
      "cumulativeGasUsed": "0x28eb7e",
      "logs": [
        {
          "address": "0xd8a8f5c1e6fc685409c94af2e335e1421cbd09a0",
          "topics": [
            "0x7ea068de19c5d7bd35e95fdf77ee7b38bca6c65363aa3e3738aa8a0f242b4f30",
            "0x0000000000000000000000001889cfb8746716a0ac50e59a54f190987c5f04e6",
            "0x82fe12dbc9acb173c16ef225535487ccf6311d42fbfebd50a210ee0a1f70bedf"
          ],
          "data": "0x00000000000000000000000000000000000000000000000001490cde8131f4620000000000000000000000000000000000000000000000000000000067d37795",
          "blockHash": "0x2095fe4ef1ec94026e8922f1909c3ac9018013e8abc104c202c263e2d026743c",
          "blockNumber": "0x74c046",
          "blockTimestamp": "0x67d37795",
          "transactionHash": "0x7a03e15e2bc36d8269bc4bf4487df38f601303edf2b8f0cbc309a624223ac934",
          "transactionIndex": "0x17",
          "logIndex": "0x2a",
          "removed": false
        }
      ],
      "logsBloom": "0x00000000000000000000000000000000000000000000000000000000000000000000200000000000000000000000000010000000000000000000000000100000000000000000000000000000000000000000400002000000000000000000000000000000000000000000000000000000000000000000000000000000000000000000020000000000000000000000000000000000000000000000000010000000004000000000000020000010000000000000000000000000000000000000000000000000000000000000000000000000000000000000000000000000000000000000000000000000000000000000000000000400000100000000000000000000",
      "type": "0x0",
      "transactionHash": "0x7a03e15e2bc36d8269bc4bf4487df38f601303edf2b8f0cbc309a624223ac934",
      "transactionIndex": "0x17",
      "blockHash": "0x2095fe4ef1ec94026e8922f1909c3ac9018013e8abc104c202c263e2d026743c",
      "blockNumber": "0x74c046",
      "gasUsed": "0x14993",
      "effectiveGasPrice": "0xc1b710800",
      "from": "0x6efb11ac41b6657c32dac5ed4874082c700bba29",
      "to": "0xd8a8f5c1e6fc685409c94af2e335e1421cbd09a0",
      "contractAddress": null
    },
    {
      "status": "0x1",
      "cumulativeGasUsed": "0x2a34ee",
      "logs": [
        {
          "address": "0xd8a8f5c1e6fc685409c94af2e335e1421cbd09a0",
          "topics": [
            "0x7ea068de19c5d7bd35e95fdf77ee7b38bca6c65363aa3e3738aa8a0f242b4f30",
            "0x0000000000000000000000006bc8a42d4b2f4bc8e4c3f9ecff00b7290ffa7405",
            "0x069bc27d8b43df02b4ab2dd841ccece1e69cc8bbb58b950c7025036512cfa1ec"
          ],
          "data": "0x0000000000000000000000000000000000000000000000000087deb5d7cff86c0000000000000000000000000000000000000000000000000000000067d37795",
          "blockHash": "0x2095fe4ef1ec94026e8922f1909c3ac9018013e8abc104c202c263e2d026743c",
          "blockNumber": "0x74c046",
          "blockTimestamp": "0x67d37795",
          "transactionHash": "0x3f410703fb6ceeecdce2b9470fd48fbbded5858a87dc1614162dfdf9b6eb7155",
          "transactionIndex": "0x18",
          "logIndex": "0x2b",
          "removed": false
        }
      ],
      "logsBloom": "0x00000000010000000000000000000000000000001000000000000000000000000000000000000000000000000000000010000000000000000000000000000000000000000000000000000000000000000000400000000000200000000000000000000000000000000000000000000000000000000000000000000000000000000000020000000000000000000000000000000020000000000000000010000000000400000000000020000010000000000000000000000000000000000000000000000000000000000000000000000000000000000000000000000008000000000000000000000000000000000000000000000000000000000000000000000000",
      "type": "0x0",
      "transactionHash": "0x3f410703fb6ceeecdce2b9470fd48fbbded5858a87dc1614162dfdf9b6eb7155",
      "transactionIndex": "0x18",
      "blockHash": "0x2095fe4ef1ec94026e8922f1909c3ac9018013e8abc104c202c263e2d026743c",
      "blockNumber": "0x74c046",
      "gasUsed": "0x14970",
      "effectiveGasPrice": "0xc1b710800",
      "from": "0x6efb11ac41b6657c32dac5ed4874082c700bba29",
      "to": "0xd8a8f5c1e6fc685409c94af2e335e1421cbd09a0",
      "contractAddress": null
    },
    {
      "status": "0x1",
      "cumulativeGasUsed": "0x2b7e81",
      "logs": [
        {
          "address": "0xd8a8f5c1e6fc685409c94af2e335e1421cbd09a0",
          "topics": [
            "0x7ea068de19c5d7bd35e95fdf77ee7b38bca6c65363aa3e3738aa8a0f242b4f30",
            "0x000000000000000000000000e3f98fda6dbd38c1017754f1675dce377381c23c",
            "0x66673a8318c307d044b7225c95185c0e7f0af3ec0386514bebc75356b31c918f"
          ],
          "data": "0x000000000000000000000000000000000000000000000000d6a4708ec2660c8e0000000000000000000000000000000000000000000000000000000067d37795",
          "blockHash": "0x2095fe4ef1ec94026e8922f1909c3ac9018013e8abc104c202c263e2d026743c",
          "blockNumber": "0x74c046",
          "blockTimestamp": "0x67d37795",
          "transactionHash": "0x6e2a5601a0ebfc54fc3041f2bf3d0de37ebf961e1d56192938b473e46508cbe6",
          "transactionIndex": "0x19",
          "logIndex": "0x2c",
          "removed": false
        }
      ],
      "logsBloom": "0x00000000000000000000000000000000000000000000000000000000000000000000000000800000000000000000000010000000000000000000000000000000000000000000000000000000000000000000400000000000000000000800000000000000000000000000000000000000000000000000000000000000000000000000020000000000000000080000000000000000000000000000000010000000000000000000000020000010000000000001000000000000000000000000000000000000000000000000000000000000000000000000000000000020000000000000000000000000000000000010000000000000000000000000000000000000",
      "type": "0x0",
      "transactionHash": "0x6e2a5601a0ebfc54fc3041f2bf3d0de37ebf961e1d56192938b473e46508cbe6",
      "transactionIndex": "0x19",
      "blockHash": "0x2095fe4ef1ec94026e8922f1909c3ac9018013e8abc104c202c263e2d026743c",
      "blockNumber": "0x74c046",
      "gasUsed": "0x14993",
      "effectiveGasPrice": "0xc1b710800",
      "from": "0x6efb11ac41b6657c32dac5ed4874082c700bba29",
      "to": "0xd8a8f5c1e6fc685409c94af2e335e1421cbd09a0",
      "contractAddress": null
    }
  ],
  "libraries": [],
  "pending": [],
  "returns": {},
  "timestamp": 1741911959,
  "chain": 10143,
  "commit": "69d67f9"
}