{
  "transactions": [
    {
      "hash": "0x91a7500058fd71dc601523c7bb735abde8f34b216b52c09b258218c463813ff2",
      "transactionType": "CALL",
      "contractName": null,
      "contractAddress": "0xd8a8f5c1e6fc685409c94af2e335e1421cbd09a0",
      "function": "setPrice(address,uint256)",
      "arguments": [
        "0x2c53Ce7143D24A65410107F50e4AABad9A164480",
        "1946388327517937761183"
      ],
      "transaction": {
        "from": "0x6efb11ac41b6657c32dac5ed4874082c700bba29",
        "to": "0xd8a8f5c1e6fc685409c94af2e335e1421cbd09a0",
        "gas": "0x13754",
        "value": "0x0",
        "input": "0x00e4768b0000000000000000000000002c53ce7143d24a65410107f50e4aabad9a16448000000000000000000000000000000000000000000000006983906f7861587b9f",
        "nonce": "0x1e8",
        "chainId": "0x279f"
      },
      "additionalContracts": [],
      "isFixedGasLimit": false
    },
    {
      "hash": "0xdbf10dea7aa3d3b356c6504b45986e5555cd7fa8b2136c4dc8da912cb144d09c",
      "transactionType": "CALL",
      "contractName": null,
      "contractAddress": "0xd8a8f5c1e6fc685409c94af2e335e1421cbd09a0",
      "function": "setPrice(address,uint256)",
      "arguments": [
        "0x53f7C389CBB801e2ABfD301deD6D2A1cf330ac0D",
        "40037707438933495308044"
      ],
      "transaction": {
        "from": "0x6efb11ac41b6657c32dac5ed4874082c700bba29",
        "to": "0xd8a8f5c1e6fc685409c94af2e335e1421cbd09a0",
        "gas": "0x149b6",
        "value": "0x0",
        "input": "0x00e4768b00000000000000000000000053f7c389cbb801e2abfd301ded6d2a1cf330ac0d00000000000000000000000000000000000000000000087a72cee2d835b8df0c",
        "nonce": "0x1e9",
        "chainId": "0x279f"
      },
      "additionalContracts": [],
      "isFixedGasLimit": false
    },
    {
      "hash": "0xb13b180b9a4c8e9b53a191de3bcca844407177e34765b7d3b76db62438abfb7a",
      "transactionType": "CALL",
      "contractName": null,
      "contractAddress": "0xd8a8f5c1e6fc685409c94af2e335e1421cbd09a0",
      "function": "setPrice(address,uint256)",
      "arguments": [
        "0x58389610A3D13e8f380ee2bA077A6F36f2A90834",
        "1000000000000000000"
      ],
      "transaction": {
        "from": "0x6efb11ac41b6657c32dac5ed4874082c700bba29",
        "to": "0xd8a8f5c1e6fc685409c94af2e335e1421cbd09a0",
        "gas": "0x351d0",
        "value": "0x0",
        "input": "0x00e4768b00000000000000000000000058389610a3d13e8f380ee2ba077a6f36f2a908340000000000000000000000000000000000000000000000000de0b6b3a7640000",
        "nonce": "0x1ea",
        "chainId": "0x279f"
      },
      "additionalContracts": [],
      "isFixedGasLimit": false
    },
    {
      "hash": "0x2d38d1ac5ff58d78f54863b5b5add5a70425877b0c801178965f9d32032e68ac",
      "transactionType": "CALL",
      "contractName": null,
      "contractAddress": "0xd8a8f5c1e6fc685409c94af2e335e1421cbd09a0",
      "function": "setPrice(address,uint256)",
      "arguments": [
        "0xF9861d7478f8957679b26404Bd6272c39f949C29",
        "102777121313124"
      ],
      "transaction": {
        "from": "0x6efb11ac41b6657c32dac5ed4874082c700bba29",
        "to": "0xd8a8f5c1e6fc685409c94af2e335e1421cbd09a0",
        "gas": "0x14970",
        "value": "0x0",
        "input": "0x00e4768b000000000000000000000000f9861d7478f8957679b26404bd6272c39f949c2900000000000000000000000000000000000000000000000000005d79a9ce9164",
        "nonce": "0x1eb",
        "chainId": "0x279f"
      },
      "additionalContracts": [],
      "isFixedGasLimit": false
    },
    {
      "hash": "0xc4c0bf043a926e154541f1e54e3006a674b598d5ce6262e049b00d3971c4cce7",
      "transactionType": "CALL",
      "contractName": null,
      "contractAddress": "0xd8a8f5c1e6fc685409c94af2e335e1421cbd09a0",
      "function": "setPrice(address,uint256)",
      "arguments": [
        "0x1889CFb8746716a0AC50E59a54f190987C5F04E6",
        "101193368651376705"
      ],
      "transaction": {
        "from": "0x6efb11ac41b6657c32dac5ed4874082c700bba29",
        "to": "0xd8a8f5c1e6fc685409c94af2e335e1421cbd09a0",
        "gas": "0x14993",
        "value": "0x0",
        "input": "0x00e4768b0000000000000000000000001889cfb8746716a0ac50e59a54f190987c5f04e6000000000000000000000000000000000000000000000000016782d528172841",
        "nonce": "0x1ec",
        "chainId": "0x279f"
      },
      "additionalContracts": [],
      "isFixedGasLimit": false
    },
    {
      "hash": "0x52c4b9938fd3cdd13434c2a44f4dcb14d1e568277e2e6ff969487d984694ca22",
      "transactionType": "CALL",
      "contractName": null,
      "contractAddress": "0xd8a8f5c1e6fc685409c94af2e335e1421cbd09a0",
      "function": "setPrice(address,uint256)",
      "arguments": [
        "0x6bc8a42d4B2F4bc8e4c3f9eCFF00B7290Ffa7405",
        "51973892575051974"
      ],
      "transaction": {
        "from": "0x6efb11ac41b6657c32dac5ed4874082c700bba29",
        "to": "0xd8a8f5c1e6fc685409c94af2e335e1421cbd09a0",
        "gas": "0x14970",
        "value": "0x0",
        "input": "0x00e4768b0000000000000000000000006bc8a42d4b2f4bc8e4c3f9ecff00b7290ffa740500000000000000000000000000000000000000000000000000b8a5fadc87c0c6",
        "nonce": "0x1ed",
        "chainId": "0x279f"
      },
      "additionalContracts": [],
      "isFixedGasLimit": false
    },
    {
      "hash": "0xa7b2e3e6e57110660771b5881b8d472aa3b04fba618ee72f15520354a5fbf994",
      "transactionType": "CALL",
      "contractName": null,
      "contractAddress": "0xd8a8f5c1e6fc685409c94af2e335e1421cbd09a0",
      "function": "setPrice(address,uint256)",
      "arguments": [
        "0xe3F98fdA6dBD38c1017754f1675dcE377381c23C",
        "14929552612807522830"
      ],
      "transaction": {
        "from": "0x6efb11ac41b6657c32dac5ed4874082c700bba29",
        "to": "0xd8a8f5c1e6fc685409c94af2e335e1421cbd09a0",
        "gas": "0x13732",
        "value": "0x0",
        "input": "0x00e4768b000000000000000000000000e3f98fda6dbd38c1017754f1675dce377381c23c000000000000000000000000000000000000000000000000cf306d004de5ba0e",
        "nonce": "0x1ee",
        "chainId": "0x279f"
      },
      "additionalContracts": [],
      "isFixedGasLimit": false
    }
  ],
  "receipts": [
    {
      "status": "0x1",
      "cumulativeGasUsed": "0x593be5d",
      "logs": [
        {
          "address": "0xd8a8f5c1e6fc685409c94af2e335e1421cbd09a0",
          "topics": [
            "0x7ea068de19c5d7bd35e95fdf77ee7b38bca6c65363aa3e3738aa8a0f242b4f30",
            "0x0000000000000000000000002c53ce7143d24a65410107f50e4aabad9a164480",
            "0xfec9fe313f2641d20f780bc4dbe569d3fad27061f84b764379c2affb4e72afbb"
          ],
          "data": "0x00000000000000000000000000000000000000000000006983906f7861587b9f0000000000000000000000000000000000000000000000000000000067d32d25",
          "blockHash": "0xc18b71e59f047bbcfa2f63951efc058f5195dc766fa0942db5abcec8aa2c37df",
          "blockNumber": "0x744807",
          "blockTimestamp": "0x67d32d25",
          "transactionHash": "0x91a7500058fd71dc601523c7bb735abde8f34b216b52c09b258218c463813ff2",
          "transactionIndex": "0xc6",
          "logIndex": "0x183",
          "removed": false
        }
      ],
      "logsBloom": "0x00000000000000000000000000000000000000000000000000000000000080000000000000000000000000000000000010000000000000000000000004000000000000000000000000000000000001000000400000000000000000000000000000000000000000000000000000000000000000000000000000000000000000000000020000000100000000000000000000000000000000000000000010000000000000000000000020000010000000000000000000000000000000000000000000000000000000000000000000000000000000000000000000000000000000000000000000000000000000000000000000000000000000000800000000000000",
      "type": "0x0",
      "transactionHash": "0x91a7500058fd71dc601523c7bb735abde8f34b216b52c09b258218c463813ff2",
      "transactionIndex": "0xc6",
      "blockHash": "0xc18b71e59f047bbcfa2f63951efc058f5195dc766fa0942db5abcec8aa2c37df",
      "blockNumber": "0x744807",
      "gasUsed": "0x13754",
      "effectiveGasPrice": "0xc1b710800",
      "from": "0x6efb11ac41b6657c32dac5ed4874082c700bba29",
      "to": "0xd8a8f5c1e6fc685409c94af2e335e1421cbd09a0",
      "contractAddress": null
    },
    {
      "status": "0x1",
      "cumulativeGasUsed": "0x5950813",
      "logs": [
        {
          "address": "0xd8a8f5c1e6fc685409c94af2e335e1421cbd09a0",
          "topics": [
            "0x7ea068de19c5d7bd35e95fdf77ee7b38bca6c65363aa3e3738aa8a0f242b4f30",
            "0x00000000000000000000000053f7c389cbb801e2abfd301ded6d2a1cf330ac0d",
            "0x2ad90dd93035362ff577f5418f113f8a159d702da9e78702936a991dfb95ca21"
          ],
          "data": "0x00000000000000000000000000000000000000000000087a72cee2d835b8df0c0000000000000000000000000000000000000000000000000000000067d32d25",
          "blockHash": "0xc18b71e59f047bbcfa2f63951efc058f5195dc766fa0942db5abcec8aa2c37df",
          "blockNumber": "0x744807",
          "blockTimestamp": "0x67d32d25",
          "transactionHash": "0xdbf10dea7aa3d3b356c6504b45986e5555cd7fa8b2136c4dc8da912cb144d09c",
          "transactionIndex": "0xc7",
          "logIndex": "0x184",
          "removed": false
        }
      ],
      "logsBloom": "0x00000000000000000000000000000000000000000000000000000000800000002000000000000000000000000000000010000000000000000000000000000000000004000000000000000000000000000000400000000000000000000000000000000000000000000000000000000000000000000000000000000000000000000000020000000000000000000000000000000000000000000000000010000000000000000001000020000010000000000000000000000000000000000000000000000000000000000001000000000000000000000000000000000000008000000000000000000000000000000000000000000000000000000000000000000000",
      "type": "0x0",
      "transactionHash": "0xdbf10dea7aa3d3b356c6504b45986e5555cd7fa8b2136c4dc8da912cb144d09c",
      "transactionIndex": "0xc7",
      "blockHash": "0xc18b71e59f047bbcfa2f63951efc058f5195dc766fa0942db5abcec8aa2c37df",
      "blockNumber": "0x744807",
      "gasUsed": "0x149b6",
      "effectiveGasPrice": "0xc1b710800",
      "from": "0x6efb11ac41b6657c32dac5ed4874082c700bba29",
      "to": "0xd8a8f5c1e6fc685409c94af2e335e1421cbd09a0",
      "contractAddress": null
    },
    {
      "status": "0x1",
      "cumulativeGasUsed": "0x59859e3",
      "logs": [
        {
          "address": "0xd8a8f5c1e6fc685409c94af2e335e1421cbd09a0",
          "topics": [
            "0x7ea068de19c5d7bd35e95fdf77ee7b38bca6c65363aa3e3738aa8a0f242b4f30",
            "0x00000000000000000000000058389610a3d13e8f380ee2ba077a6f36f2a90834",
            "0xc5d2460186f7233c927e7db2dcc703c0e500b653ca82273b7bfad8045d85a470"
          ],
          "data": "0x0000000000000000000000000000000000000000000000000de0b6b3a76400000000000000000000000000000000000000000000000000000000000067d32d25",
          "blockHash": "0xc18b71e59f047bbcfa2f63951efc058f5195dc766fa0942db5abcec8aa2c37df",
          "blockNumber": "0x744807",
          "blockTimestamp": "0x67d32d25",
          "transactionHash": "0xb13b180b9a4c8e9b53a191de3bcca844407177e34765b7d3b76db62438abfb7a",
          "transactionIndex": "0xc8",
          "logIndex": "0x185",
          "removed": false
        }
      ],
      "logsBloom": "0x000000000000000000000000000000000000000000000000000000000000000080000000000000000000000000000000100000000000000000000000000000000000000000004000000000000000000000004000000000000000000000000000000000000000000000000000400000000000000000000000000000000000000000000a0040000000000000000000000000000000000000000000000010000000000000000000000020000010000000000000000000000000000000000000000000000000000000000000000000000000000000000000000000000000000000000000000000000400000000000000000000000000000000000000000000000000",
      "type": "0x0",
      "transactionHash": "0xb13b180b9a4c8e9b53a191de3bcca844407177e34765b7d3b76db62438abfb7a",
      "transactionIndex": "0xc8",
      "blockHash": "0xc18b71e59f047bbcfa2f63951efc058f5195dc766fa0942db5abcec8aa2c37df",
      "blockNumber": "0x744807",
      "gasUsed": "0x351d0",
      "effectiveGasPrice": "0xc1b710800",
      "from": "0x6efb11ac41b6657c32dac5ed4874082c700bba29",
      "to": "0xd8a8f5c1e6fc685409c94af2e335e1421cbd09a0",
      "contractAddress": null
    },
    {
      "status": "0x1",
      "cumulativeGasUsed": "0x599a353",
      "logs": [
        {
          "address": "0xd8a8f5c1e6fc685409c94af2e335e1421cbd09a0",
          "topics": [
            "0x7ea068de19c5d7bd35e95fdf77ee7b38bca6c65363aa3e3738aa8a0f242b4f30",
            "0x000000000000000000000000f9861d7478f8957679b26404bd6272c39f949c29",
            "0x1c0ccbd35ba468bdd0237ee29c3319448a546ec1d4851e932b643527181bf96a"
          ],
          "data": "0x00000000000000000000000000000000000000000000000000005d79a9ce91640000000000000000000000000000000000000000000000000000000067d32d25",
          "blockHash": "0xc18b71e59f047bbcfa2f63951efc058f5195dc766fa0942db5abcec8aa2c37df",
          "blockNumber": "0x744807",
          "blockTimestamp": "0x67d32d25",
          "transactionHash": "0x2d38d1ac5ff58d78f54863b5b5add5a70425877b0c801178965f9d32032e68ac",
          "transactionIndex": "0xc9",
          "logIndex": "0x186",
          "removed": false
        }
      ],
      "logsBloom": "0x00000000000000000000000000000000000000800000000000000000000000000000000000000000008000000000000010000000000000000000000000000000000000000000000000000000000000000000400000000000000000000000000000000000000000000000004000000000000080000000000000000000000000002000020000000000000000000000000000000000000000000000000010000000000000000000000020001010000000000000000000000000000000000000000000000000000000000000000000000000000000000000000000000000000000000000000000000000000000000000000000000000000000000000000000000000",
      "type": "0x0",
      "transactionHash": "0x2d38d1ac5ff58d78f54863b5b5add5a70425877b0c801178965f9d32032e68ac",
      "transactionIndex": "0xc9",
      "blockHash": "0xc18b71e59f047bbcfa2f63951efc058f5195dc766fa0942db5abcec8aa2c37df",
      "blockNumber": "0x744807",
      "gasUsed": "0x14970",
      "effectiveGasPrice": "0xc1b710800",
      "from": "0x6efb11ac41b6657c32dac5ed4874082c700bba29",
      "to": "0xd8a8f5c1e6fc685409c94af2e335e1421cbd09a0",
      "contractAddress": null
    },
    {
      "status": "0x1",
      "cumulativeGasUsed": "0x59aece6",
      "logs": [
        {
          "address": "0xd8a8f5c1e6fc685409c94af2e335e1421cbd09a0",
          "topics": [
            "0x7ea068de19c5d7bd35e95fdf77ee7b38bca6c65363aa3e3738aa8a0f242b4f30",
            "0x0000000000000000000000001889cfb8746716a0ac50e59a54f190987c5f04e6",
            "0x82fe12dbc9acb173c16ef225535487ccf6311d42fbfebd50a210ee0a1f70bedf"
          ],
          "data": "0x000000000000000000000000000000000000000000000000016782d5281728410000000000000000000000000000000000000000000000000000000067d32d25",
          "blockHash": "0xc18b71e59f047bbcfa2f63951efc058f5195dc766fa0942db5abcec8aa2c37df",
          "blockNumber": "0x744807",
          "blockTimestamp": "0x67d32d25",
          "transactionHash": "0xc4c0bf043a926e154541f1e54e3006a674b598d5ce6262e049b00d3971c4cce7",
          "transactionIndex": "0xca",
          "logIndex": "0x187",
          "removed": false
        }
      ],
      "logsBloom": "0x00000000000000000000000000000000000000000000000000000000000000000000200000000000000000000000000010000000000000000000000000100000000000000000000000000000000000000000400002000000000000000000000000000000000000000000000000000000000000000000000000000000000000000000020000000000000000000000000000000000000000000000000010000000004000000000000020000010000000000000000000000000000000000000000000000000000000000000000000000000000000000000000000000000000000000000000000000000000000000000000000000400000100000000000000000000",
      "type": "0x0",
      "transactionHash": "0xc4c0bf043a926e154541f1e54e3006a674b598d5ce6262e049b00d3971c4cce7",
      "transactionIndex": "0xca",
      "blockHash": "0xc18b71e59f047bbcfa2f63951efc058f5195dc766fa0942db5abcec8aa2c37df",
      "blockNumber": "0x744807",
      "gasUsed": "0x14993",
      "effectiveGasPrice": "0xc1b710800",
      "from": "0x6efb11ac41b6657c32dac5ed4874082c700bba29",
      "to": "0xd8a8f5c1e6fc685409c94af2e335e1421cbd09a0",
      "contractAddress": null
    },
    {
      "status": "0x1",
      "cumulativeGasUsed": "0x59c3656",
      "logs": [
        {
          "address": "0xd8a8f5c1e6fc685409c94af2e335e1421cbd09a0",
          "topics": [
            "0x7ea068de19c5d7bd35e95fdf77ee7b38bca6c65363aa3e3738aa8a0f242b4f30",
            "0x0000000000000000000000006bc8a42d4b2f4bc8e4c3f9ecff00b7290ffa7405",
            "0x069bc27d8b43df02b4ab2dd841ccece1e69cc8bbb58b950c7025036512cfa1ec"
          ],
          "data": "0x00000000000000000000000000000000000000000000000000b8a5fadc87c0c60000000000000000000000000000000000000000000000000000000067d32d25",
          "blockHash": "0xc18b71e59f047bbcfa2f63951efc058f5195dc766fa0942db5abcec8aa2c37df",
          "blockNumber": "0x744807",
          "blockTimestamp": "0x67d32d25",
          "transactionHash": "0x52c4b9938fd3cdd13434c2a44f4dcb14d1e568277e2e6ff969487d984694ca22",
          "transactionIndex": "0xcb",
          "logIndex": "0x188",
          "removed": false
        }
      ],
      "logsBloom": "0x00000000010000000000000000000000000000001000000000000000000000000000000000000000000000000000000010000000000000000000000000000000000000000000000000000000000000000000400000000000200000000000000000000000000000000000000000000000000000000000000000000000000000000000020000000000000000000000000000000020000000000000000010000000000400000000000020000010000000000000000000000000000000000000000000000000000000000000000000000000000000000000000000000008000000000000000000000000000000000000000000000000000000000000000000000000",
      "type": "0x0",
      "transactionHash": "0x52c4b9938fd3cdd13434c2a44f4dcb14d1e568277e2e6ff969487d984694ca22",
      "transactionIndex": "0xcb",
      "blockHash": "0xc18b71e59f047bbcfa2f63951efc058f5195dc766fa0942db5abcec8aa2c37df",
      "blockNumber": "0x744807",
      "gasUsed": "0x14970",
      "effectiveGasPrice": "0xc1b710800",
      "from": "0x6efb11ac41b6657c32dac5ed4874082c700bba29",
      "to": "0xd8a8f5c1e6fc685409c94af2e335e1421cbd09a0",
      "contractAddress": null
    },
    {
      "status": "0x1",
      "cumulativeGasUsed": "0x59d6d88",
      "logs": [
        {
          "address": "0xd8a8f5c1e6fc685409c94af2e335e1421cbd09a0",
          "topics": [
            "0x7ea068de19c5d7bd35e95fdf77ee7b38bca6c65363aa3e3738aa8a0f242b4f30",
            "0x000000000000000000000000e3f98fda6dbd38c1017754f1675dce377381c23c",
            "0x66673a8318c307d044b7225c95185c0e7f0af3ec0386514bebc75356b31c918f"
          ],
          "data": "0x000000000000000000000000000000000000000000000000cf306d004de5ba0e0000000000000000000000000000000000000000000000000000000067d32d25",
          "blockHash": "0xc18b71e59f047bbcfa2f63951efc058f5195dc766fa0942db5abcec8aa2c37df",
          "blockNumber": "0x744807",
          "blockTimestamp": "0x67d32d25",
          "transactionHash": "0xa7b2e3e6e57110660771b5881b8d472aa3b04fba618ee72f15520354a5fbf994",
          "transactionIndex": "0xcc",
          "logIndex": "0x189",
          "removed": false
        }
      ],
      "logsBloom": "0x00000000000000000000000000000000000000000000000000000000000000000000000000800000000000000000000010000000000000000000000000000000000000000000000000000000000000000000400000000000000000000800000000000000000000000000000000000000000000000000000000000000000000000000020000000000000000080000000000000000000000000000000010000000000000000000000020000010000000000001000000000000000000000000000000000000000000000000000000000000000000000000000000000020000000000000000000000000000000000010000000000000000000000000000000000000",
      "type": "0x0",
      "transactionHash": "0xa7b2e3e6e57110660771b5881b8d472aa3b04fba618ee72f15520354a5fbf994",
      "transactionIndex": "0xcc",
      "blockHash": "0xc18b71e59f047bbcfa2f63951efc058f5195dc766fa0942db5abcec8aa2c37df",
      "blockNumber": "0x744807",
      "gasUsed": "0x13732",
      "effectiveGasPrice": "0xc1b710800",
      "from": "0x6efb11ac41b6657c32dac5ed4874082c700bba29",
      "to": "0xd8a8f5c1e6fc685409c94af2e335e1421cbd09a0",
      "contractAddress": null
    }
  ],
  "libraries": [],
  "pending": [],
  "returns": {},
  "timestamp": 1741892903,
  "chain": 10143,
  "commit": "69d67f9"
}