{
  "transactions": [
    {
      "hash": "0x2c52628af838247d7dd759452def8975ec1432a8dfb8cafaea407f4f4a1ca9ab",
      "transactionType": "CALL",
      "contractName": null,
      "contractAddress": "0x4fb1d63c0949451a5a8df61aa559fa0f90c54420",
      "function": "setPrices(address[],(uint256,uint256,uint256,bytes)[])",
      "arguments": [
        "[0x97f3d75FcC683c8F557D637196857FA303f7cebd, 0x37e9b288c56B734c0291d37af478F60cE58a9Fc6]",
        "[(3000000000000000000000, 1741409769, 6723920, 0xe7692fc30a3273ad16c031d220d813216046dcc2472c08f9e40b958c88d1be0920dc5bdf13408845b02ab20e1a8ab3c2bd0c2fe0ad261ea766f5e89f39f980991b), (1000000000000000000, 1741409769, 6723920, 0xbbb69a3a3d7ba5e766a20bd39809c9e650af1973cd1d390d630e0a7e60923abb7287e0c77f8f25ea400853f4c4c736d13e3007e29d6bf0c7fc6c3515ff681b1f1b)]"
      ],
      "transaction": {
        "from": "0x6efb11ac41b6657c32dac5ed4874082c700bba29",
        "to": "0x4fb1d63c0949451a5a8df61aa559fa0f90c54420",
        "gas": "0x5ccf3",
        "value": "0x0",
        "input": "0xbd8bab34000000000000000000000000000000000000000000000000000000000000004000000000000000000000000000000000000000000000000000000000000000a0000000000000000000000000000000000000000000000000000000000000000200000000000000000000000097f3d75fcc683c8f557d637196857fa303f7cebd00000000000000000000000037e9b288c56b734c0291d37af478f60ce58a9fc60000000000000000000000000000000000000000000000000000000000000002000000000000000000000000000000000000000000000000000000000000004000000000000000000000000000000000000000000000000000000000000001400000000000000000000000000000000000000000000000a2a15d09519be000000000000000000000000000000000000000000000000000000000000067cbcde9000000000000000000000000000000000000000000000000000000000066995000000000000000000000000000000000000000000000000000000000000000800000000000000000000000000000000000000000000000000000000000000041e7692fc30a3273ad16c031d220d813216046dcc2472c08f9e40b958c88d1be0920dc5bdf13408845b02ab20e1a8ab3c2bd0c2fe0ad261ea766f5e89f39f980991b000000000000000000000000000000000000000000000000000000000000000000000000000000000000000000000000000000000000000de0b6b3a76400000000000000000000000000000000000000000000000000000000000067cbcde9000000000000000000000000000000000000000000000000000000000066995000000000000000000000000000000000000000000000000000000000000000800000000000000000000000000000000000000000000000000000000000000041bbb69a3a3d7ba5e766a20bd39809c9e650af1973cd1d390d630e0a7e60923abb7287e0c77f8f25ea400853f4c4c736d13e3007e29d6bf0c7fc6c3515ff681b1f1b00000000000000000000000000000000000000000000000000000000000000",
        "nonce": "0x42",
        "chainId": "0x279f"
      },
      "additionalContracts": [],
      "isFixedGasLimit": false
    }
  ],
  "receipts": [
    {
      "status": "0x1",
      "cumulativeGasUsed": "0x96472f",
      "logs": [
        {
          "address": "0x4fb1d63c0949451a5a8df61aa559fa0f90c54420",
          "topics": [
            "0x8647dab5101cbe18afb171756e9753802f9d66725bf2346b079b8b1a275e0116"
          ],
          "data": "0x00000000000000000000000097f3d75fcc683c8f557d637196857fa303f7cebd0000000000000000000000000000000000000000000000a2a15d09519be000000000000000000000000000000000000000000000000000000000000067cbcde90000000000000000000000000000000000000000000000000000000000669950",
          "blockHash": "0x7e262886b560fdbfebb0616f061861ac68a14d4350dffe7389264a7b910ffe55",
          "blockNumber": "0x669973",
          "blockTimestamp": "0x67cbcdfa",
          "transactionHash": "0x2c52628af838247d7dd759452def8975ec1432a8dfb8cafaea407f4f4a1ca9ab",
          "transactionIndex": "0x3d",
          "logIndex": "0x6e",
          "removed": false
        },
        {
          "address": "0x4fb1d63c0949451a5a8df61aa559fa0f90c54420",
          "topics": [
            "0x8647dab5101cbe18afb171756e9753802f9d66725bf2346b079b8b1a275e0116"
          ],
          "data": "0x00000000000000000000000037e9b288c56b734c0291d37af478f60ce58a9fc60000000000000000000000000000000000000000000000000de0b6b3a76400000000000000000000000000000000000000000000000000000000000067cbcde90000000000000000000000000000000000000000000000000000000000669950",
          "blockHash": "0x7e262886b560fdbfebb0616f061861ac68a14d4350dffe7389264a7b910ffe55",
          "blockNumber": "0x669973",
          "blockTimestamp": "0x67cbcdfa",
          "transactionHash": "0x2c52628af838247d7dd759452def8975ec1432a8dfb8cafaea407f4f4a1ca9ab",
          "transactionIndex": "0x3d",
          "logIndex": "0x6f",
          "removed": false
        }
      ],
      "logsBloom": "0x00000000000000000000000000000000000000000000000000000000000200000000000000000000000000000000000000000000000000000000000000000040000000000000000000000000000000000000000000000000000000000000000000000000000000000000000000000000000000000000000000000000000008000000000000000000000000000000000000000000000000000400000000000000000000000000000000000004000000000000000000000000000000000000000000000000000000000000000000000000000000000008000000000000000000000000000000000000000000000000000000000000000000000000000000000000",
      "type": "0x2",
      "transactionHash": "0x2c52628af838247d7dd759452def8975ec1432a8dfb8cafaea407f4f4a1ca9ab",
      "transactionIndex": "0x3d",
      "blockHash": "0x7e262886b560fdbfebb0616f061861ac68a14d4350dffe7389264a7b910ffe55",
      "blockNumber": "0x669973",
      "gasUsed": "0x5ccf3",
      "effectiveGasPrice": "0xba43b7401",
      "from": "0x6efb11ac41b6657c32dac5ed4874082c700bba29",
      "to": "0x4fb1d63c0949451a5a8df61aa559fa0f90c54420",
      "contractAddress": null
    }
  ],
  "libraries": [],
  "pending": [],
  "returns": {},
  "timestamp": 1741409788,
  "chain": 10143,
  "commit": "75ade75"
}