{
  "transactions": [
    {
      "hash": "0x11ee0574758edaf0fc1b20da816de9d11c591ab577ce66ab10a96987e96b4eca",
      "transactionType": "CALL",
      "contractName": null,
      "contractAddress": "0xd8a8f5c1e6fc685409c94af2e335e1421cbd09a0",
      "function": "setPrice(address,uint256)",
      "arguments": [
        "0x2c53Ce7143D24A65410107F50e4AABad9A164480",
        "2247406878156267108315"
      ],
      "transaction": {
        "from": "0x6efb11ac41b6657c32dac5ed4874082c700bba29",
        "to": "0xd8a8f5c1e6fc685409c94af2e335e1421cbd09a0",
        "gas": "0x13754",
        "value": "0x0",
        "input": "0x00e4768b0000000000000000000000002c53ce7143d24a65410107f50e4aabad9a164480000000000000000000000000000000000000000000000079d509286941e6b7db",
        "nonce": "0x248",
        "chainId": "0x279f"
      },
      "additionalContracts": [],
      "isFixedGasLimit": false
    },
    {
      "hash": "0xeca6860ab8ee622b8ab46404df6ed67961a9573c0a17005e631d9a036f6186cd",
      "transactionType": "CALL",
      "contractName": null,
      "contractAddress": "0xd8a8f5c1e6fc685409c94af2e335e1421cbd09a0",
      "function": "setPrice(address,uint256)",
      "arguments": [
        "0x53f7C389CBB801e2ABfD301deD6D2A1cf330ac0D",
        "43019549572725348836434"
      ],
      "transaction": {
        "from": "0x6efb11ac41b6657c32dac5ed4874082c700bba29",
        "to": "0xd8a8f5c1e6fc685409c94af2e335e1421cbd09a0",
        "gas": "0x149b6",
        "value": "0x0",
        "input": "0x00e4768b00000000000000000000000053f7c389cbb801e2abfd301ded6d2a1cf330ac0d00000000000000000000000000000000000000000000091c182e390d31f52452",
        "nonce": "0x249",
        "chainId": "0x279f"
      },
      "additionalContracts": [],
      "isFixedGasLimit": false
    },
    {
      "hash": "0x03e4145bceb50ac686fbf6df4facabddb4ab531f8a53686621a54b0590c97327",
      "transactionType": "CALL",
      "contractName": null,
      "contractAddress": "0xd8a8f5c1e6fc685409c94af2e335e1421cbd09a0",
      "function": "setPrice(address,uint256)",
      "arguments": [
        "0x58389610A3D13e8f380ee2bA077A6F36f2A90834",
        "1000000000000000000"
      ],
      "transaction": {
        "from": "0x6efb11ac41b6657c32dac5ed4874082c700bba29",
        "to": "0xd8a8f5c1e6fc685409c94af2e335e1421cbd09a0",
        "gas": "0x127f6",
        "value": "0x0",
        "input": "0x00e4768b00000000000000000000000058389610a3d13e8f380ee2ba077a6f36f2a908340000000000000000000000000000000000000000000000000de0b6b3a7640000",
        "nonce": "0x24a",
        "chainId": "0x279f"
      },
      "additionalContracts": [],
      "isFixedGasLimit": false
    },
    {
      "hash": "0xacda93dd6988f994b5201ecb2d977933c6ace1313b77b06987cf7ffcec8ac4cc",
      "transactionType": "CALL",
      "contractName": null,
      "contractAddress": "0xd8a8f5c1e6fc685409c94af2e335e1421cbd09a0",
      "function": "setPrice(address,uint256)",
      "arguments": [
        "0xF9861d7478f8957679b26404Bd6272c39f949C29",
        "103760144554876"
      ],
      "transaction": {
        "from": "0x6efb11ac41b6657c32dac5ed4874082c700bba29",
        "to": "0xd8a8f5c1e6fc685409c94af2e335e1421cbd09a0",
        "gas": "0x14970",
        "value": "0x0",
        "input": "0x00e4768b000000000000000000000000f9861d7478f8957679b26404bd6272c39f949c2900000000000000000000000000000000000000000000000000005e5e8a8edb7c",
        "nonce": "0x24b",
        "chainId": "0x279f"
      },
      "additionalContracts": [],
      "isFixedGasLimit": false
    },
    {
      "hash": "0xd988c475eff5a2ad5b146d657557375c88608d3e104f81f26f7223e10c175de4",
      "transactionType": "CALL",
      "contractName": null,
      "contractAddress": "0xd8a8f5c1e6fc685409c94af2e335e1421cbd09a0",
      "function": "setPrice(address,uint256)",
      "arguments": [
        "0x1889CFb8746716a0AC50E59a54f190987C5F04E6",
        "77293728969475786"
      ],
      "transaction": {
        "from": "0x6efb11ac41b6657c32dac5ed4874082c700bba29",
        "to": "0xd8a8f5c1e6fc685409c94af2e335e1421cbd09a0",
        "gas": "0x14993",
        "value": "0x0",
        "input": "0x00e4768b0000000000000000000000001889cfb8746716a0ac50e59a54f190987c5f04e600000000000000000000000000000000000000000000000001129a3caa9746ca",
        "nonce": "0x24c",
        "chainId": "0x279f"
      },
      "additionalContracts": [],
      "isFixedGasLimit": false
    },
    {
      "hash": "0x07b8b7263ababaed5c96798763db2e77030373602b6a29133c9e43cf5c122c1e",
      "transactionType": "CALL",
      "contractName": null,
      "contractAddress": "0xd8a8f5c1e6fc685409c94af2e335e1421cbd09a0",
      "function": "setPrice(address,uint256)",
      "arguments": [
        "0x6bc8a42d4B2F4bc8e4c3f9eCFF00B7290Ffa7405",
        "58007568223104063"
      ],
      "transaction": {
        "from": "0x6efb11ac41b6657c32dac5ed4874082c700bba29",
        "to": "0xd8a8f5c1e6fc685409c94af2e335e1421cbd09a0",
        "gas": "0x14970",
        "value": "0x0",
        "input": "0x00e4768b0000000000000000000000006bc8a42d4b2f4bc8e4c3f9ecff00b7290ffa740500000000000000000000000000000000000000000000000000ce15937238ec3f",
        "nonce": "0x24d",
        "chainId": "0x279f"
      },
      "additionalContracts": [],
      "isFixedGasLimit": false
    },
    {
      "hash": "0x1c66711596f4ab0a171fd85e36080a0765af36e3e58da173bfafc56554e28ead",
      "transactionType": "CALL",
      "contractName": null,
      "contractAddress": "0xd8a8f5c1e6fc685409c94af2e335e1421cbd09a0",
      "function": "setPrice(address,uint256)",
      "arguments": [
        "0xe3F98fdA6dBD38c1017754f1675dcE377381c23C",
        "9333279062013232631"
      ],
      "transaction": {
        "from": "0x6efb11ac41b6657c32dac5ed4874082c700bba29",
        "to": "0xd8a8f5c1e6fc685409c94af2e335e1421cbd09a0",
        "gas": "0x14993",
        "value": "0x0",
        "input": "0x00e4768b000000000000000000000000e3f98fda6dbd38c1017754f1675dce377381c23c000000000000000000000000000000000000000000000000818677db68e3c5f7",
        "nonce": "0x24e",
        "chainId": "0x279f"
      },
      "additionalContracts": [],
      "isFixedGasLimit": false
    }
  ],
  "receipts": [
    {
      "status": "0x1",
      "cumulativeGasUsed": "0x365c3a",
      "logs": [
        {
          "address": "0xd8a8f5c1e6fc685409c94af2e335e1421cbd09a0",
          "topics": [
            "0x7ea068de19c5d7bd35e95fdf77ee7b38bca6c65363aa3e3738aa8a0f242b4f30",
            "0x0000000000000000000000002c53ce7143d24a65410107f50e4aabad9a164480",
            "0xfec9fe313f2641d20f780bc4dbe569d3fad27061f84b764379c2affb4e72afbb"
          ],
          "data": "0x000000000000000000000000000000000000000000000079d509286941e6b7db0000000000000000000000000000000000000000000000000000000067d37b0c",
          "blockHash": "0xf2205f4158ae70ab57ab92aa2c8712ec75df55a77808fd4759b0ef6368410e50",
          "blockNumber": "0x74c603",
          "blockTimestamp": "0x67d37b0c",
          "transactionHash": "0x11ee0574758edaf0fc1b20da816de9d11c591ab577ce66ab10a96987e96b4eca",
          "transactionIndex": "0x1c",
          "logIndex": "0x41",
          "removed": false
        }
      ],
      "logsBloom": "0x00000000000000000000000000000000000000000000000000000000000080000000000000000000000000000000000010000000000000000000000004000000000000000000000000000000000001000000400000000000000000000000000000000000000000000000000000000000000000000000000000000000000000000000020000000100000000000000000000000000000000000000000010000000000000000000000020000010000000000000000000000000000000000000000000000000000000000000000000000000000000000000000000000000000000000000000000000000000000000000000000000000000000000800000000000000",
      "type": "0x0",
      "transactionHash": "0x11ee0574758edaf0fc1b20da816de9d11c591ab577ce66ab10a96987e96b4eca",
      "transactionIndex": "0x1c",
      "blockHash": "0xf2205f4158ae70ab57ab92aa2c8712ec75df55a77808fd4759b0ef6368410e50",
      "blockNumber": "0x74c603",
      "gasUsed": "0x13754",
      "effectiveGasPrice": "0xc1b710800",
      "from": "0x6efb11ac41b6657c32dac5ed4874082c700bba29",
      "to": "0xd8a8f5c1e6fc685409c94af2e335e1421cbd09a0",
      "contractAddress": null
    },
    {
      "status": "0x1",
      "cumulativeGasUsed": "0x37a5f0",
      "logs": [
        {
          "address": "0xd8a8f5c1e6fc685409c94af2e335e1421cbd09a0",
          "topics": [
            "0x7ea068de19c5d7bd35e95fdf77ee7b38bca6c65363aa3e3738aa8a0f242b4f30",
            "0x00000000000000000000000053f7c389cbb801e2abfd301ded6d2a1cf330ac0d",
            "0x2ad90dd93035362ff577f5418f113f8a159d702da9e78702936a991dfb95ca21"
          ],
          "data": "0x00000000000000000000000000000000000000000000091c182e390d31f524520000000000000000000000000000000000000000000000000000000067d37b0c",
          "blockHash": "0xf2205f4158ae70ab57ab92aa2c8712ec75df55a77808fd4759b0ef6368410e50",
          "blockNumber": "0x74c603",
          "blockTimestamp": "0x67d37b0c",
          "transactionHash": "0xeca6860ab8ee622b8ab46404df6ed67961a9573c0a17005e631d9a036f6186cd",
          "transactionIndex": "0x1d",
          "logIndex": "0x42",
          "removed": false
        }
      ],
      "logsBloom": "0x00000000000000000000000000000000000000000000000000000000800000002000000000000000000000000000000010000000000000000000000000000000000004000000000000000000000000000000400000000000000000000000000000000000000000000000000000000000000000000000000000000000000000000000020000000000000000000000000000000000000000000000000010000000000000000001000020000010000000000000000000000000000000000000000000000000000000000001000000000000000000000000000000000000008000000000000000000000000000000000000000000000000000000000000000000000",
      "type": "0x0",
      "transactionHash": "0xeca6860ab8ee622b8ab46404df6ed67961a9573c0a17005e631d9a036f6186cd",
      "transactionIndex": "0x1d",
      "blockHash": "0xf2205f4158ae70ab57ab92aa2c8712ec75df55a77808fd4759b0ef6368410e50",
      "blockNumber": "0x74c603",
      "gasUsed": "0x149b6",
      "effectiveGasPrice": "0xc1b710800",
      "from": "0x6efb11ac41b6657c32dac5ed4874082c700bba29",
      "to": "0xd8a8f5c1e6fc685409c94af2e335e1421cbd09a0",
      "contractAddress": null
    },
    {
      "status": "0x1",
      "cumulativeGasUsed": "0xde227f",
      "logs": [
        {
          "address": "0xd8a8f5c1e6fc685409c94af2e335e1421cbd09a0",
          "topics": [
            "0x7ea068de19c5d7bd35e95fdf77ee7b38bca6c65363aa3e3738aa8a0f242b4f30",
            "0x00000000000000000000000058389610a3d13e8f380ee2ba077a6f36f2a90834",
            "0xc5d2460186f7233c927e7db2dcc703c0e500b653ca82273b7bfad8045d85a470"
          ],
          "data": "0x0000000000000000000000000000000000000000000000000de0b6b3a76400000000000000000000000000000000000000000000000000000000000067d37b0d",
          "blockHash": "0xc8050f3fd93c3cdd1383c5111f1fb3139d78bae4713c4a890cb6a5219e53944c",
          "blockNumber": "0x74c605",
          "blockTimestamp": "0x67d37b0d",
          "transactionHash": "0x03e4145bceb50ac686fbf6df4facabddb4ab531f8a53686621a54b0590c97327",
          "transactionIndex": "0x45",
          "logIndex": "0x95",
          "removed": false
        }
      ],
      "logsBloom": "0x000000000000000000000000000000000000000000000000000000000000000080000000000000000000000000000000100000000000000000000000000000000000000000004000000000000000000000004000000000000000000000000000000000000000000000000000400000000000000000000000000000000000000000000a0040000000000000000000000000000000000000000000000010000000000000000000000020000010000000000000000000000000000000000000000000000000000000000000000000000000000000000000000000000000000000000000000000000400000000000000000000000000000000000000000000000000",
      "type": "0x0",
      "transactionHash": "0x03e4145bceb50ac686fbf6df4facabddb4ab531f8a53686621a54b0590c97327",
      "transactionIndex": "0x45",
      "blockHash": "0xc8050f3fd93c3cdd1383c5111f1fb3139d78bae4713c4a890cb6a5219e53944c",
      "blockNumber": "0x74c605",
      "gasUsed": "0x127f6",
      "effectiveGasPrice": "0xc1b710800",
      "from": "0x6efb11ac41b6657c32dac5ed4874082c700bba29",
      "to": "0xd8a8f5c1e6fc685409c94af2e335e1421cbd09a0",
      "contractAddress": null
    },
    {
      "status": "0x1",
      "cumulativeGasUsed": "0xdf6bef",
      "logs": [
        {
          "address": "0xd8a8f5c1e6fc685409c94af2e335e1421cbd09a0",
          "topics": [
            "0x7ea068de19c5d7bd35e95fdf77ee7b38bca6c65363aa3e3738aa8a0f242b4f30",
            "0x000000000000000000000000f9861d7478f8957679b26404bd6272c39f949c29",
            "0x1c0ccbd35ba468bdd0237ee29c3319448a546ec1d4851e932b643527181bf96a"
          ],
          "data": "0x00000000000000000000000000000000000000000000000000005e5e8a8edb7c0000000000000000000000000000000000000000000000000000000067d37b0d",
          "blockHash": "0xc8050f3fd93c3cdd1383c5111f1fb3139d78bae4713c4a890cb6a5219e53944c",
          "blockNumber": "0x74c605",
          "blockTimestamp": "0x67d37b0d",
          "transactionHash": "0xacda93dd6988f994b5201ecb2d977933c6ace1313b77b06987cf7ffcec8ac4cc",
          "transactionIndex": "0x46",
          "logIndex": "0x96",
          "removed": false
        }
      ],
      "logsBloom": "0x00000000000000000000000000000000000000800000000000000000000000000000000000000000008000000000000010000000000000000000000000000000000000000000000000000000000000000000400000000000000000000000000000000000000000000000004000000000000080000000000000000000000000002000020000000000000000000000000000000000000000000000000010000000000000000000000020001010000000000000000000000000000000000000000000000000000000000000000000000000000000000000000000000000000000000000000000000000000000000000000000000000000000000000000000000000",
      "type": "0x0",
      "transactionHash": "0xacda93dd6988f994b5201ecb2d977933c6ace1313b77b06987cf7ffcec8ac4cc",
      "transactionIndex": "0x46",
      "blockHash": "0xc8050f3fd93c3cdd1383c5111f1fb3139d78bae4713c4a890cb6a5219e53944c",
      "blockNumber": "0x74c605",
      "gasUsed": "0x14970",
      "effectiveGasPrice": "0xc1b710800",
      "from": "0x6efb11ac41b6657c32dac5ed4874082c700bba29",
      "to": "0xd8a8f5c1e6fc685409c94af2e335e1421cbd09a0",
      "contractAddress": null
    },
    {
      "status": "0x1",
      "cumulativeGasUsed": "0xe0b582",
      "logs": [
        {
          "address": "0xd8a8f5c1e6fc685409c94af2e335e1421cbd09a0",
          "topics": [
            "0x7ea068de19c5d7bd35e95fdf77ee7b38bca6c65363aa3e3738aa8a0f242b4f30",
            "0x0000000000000000000000001889cfb8746716a0ac50e59a54f190987c5f04e6",
            "0x82fe12dbc9acb173c16ef225535487ccf6311d42fbfebd50a210ee0a1f70bedf"
          ],
          "data": "0x00000000000000000000000000000000000000000000000001129a3caa9746ca0000000000000000000000000000000000000000000000000000000067d37b0d",
          "blockHash": "0xc8050f3fd93c3cdd1383c5111f1fb3139d78bae4713c4a890cb6a5219e53944c",
          "blockNumber": "0x74c605",
          "blockTimestamp": "0x67d37b0d",
          "transactionHash": "0xd988c475eff5a2ad5b146d657557375c88608d3e104f81f26f7223e10c175de4",
          "transactionIndex": "0x47",
          "logIndex": "0x97",
          "removed": false
        }
      ],
      "logsBloom": "0x00000000000000000000000000000000000000000000000000000000000000000000200000000000000000000000000010000000000000000000000000100000000000000000000000000000000000000000400002000000000000000000000000000000000000000000000000000000000000000000000000000000000000000000020000000000000000000000000000000000000000000000000010000000004000000000000020000010000000000000000000000000000000000000000000000000000000000000000000000000000000000000000000000000000000000000000000000000000000000000000000000400000100000000000000000000",
      "type": "0x0",
      "transactionHash": "0xd988c475eff5a2ad5b146d657557375c88608d3e104f81f26f7223e10c175de4",
      "transactionIndex": "0x47",
      "blockHash": "0xc8050f3fd93c3cdd1383c5111f1fb3139d78bae4713c4a890cb6a5219e53944c",
      "blockNumber": "0x74c605",
      "gasUsed": "0x14993",
      "effectiveGasPrice": "0xc1b710800",
      "from": "0x6efb11ac41b6657c32dac5ed4874082c700bba29",
      "to": "0xd8a8f5c1e6fc685409c94af2e335e1421cbd09a0",
      "contractAddress": null
    },
    {
      "status": "0x1",
      "cumulativeGasUsed": "0xe1fef2",
      "logs": [
        {
          "address": "0xd8a8f5c1e6fc685409c94af2e335e1421cbd09a0",
          "topics": [
            "0x7ea068de19c5d7bd35e95fdf77ee7b38bca6c65363aa3e3738aa8a0f242b4f30",
            "0x0000000000000000000000006bc8a42d4b2f4bc8e4c3f9ecff00b7290ffa7405",
            "0x069bc27d8b43df02b4ab2dd841ccece1e69cc8bbb58b950c7025036512cfa1ec"
          ],
          "data": "0x00000000000000000000000000000000000000000000000000ce15937238ec3f0000000000000000000000000000000000000000000000000000000067d37b0d",
          "blockHash": "0xc8050f3fd93c3cdd1383c5111f1fb3139d78bae4713c4a890cb6a5219e53944c",
          "blockNumber": "0x74c605",
          "blockTimestamp": "0x67d37b0d",
          "transactionHash": "0x07b8b7263ababaed5c96798763db2e77030373602b6a29133c9e43cf5c122c1e",
          "transactionIndex": "0x48",
          "logIndex": "0x98",
          "removed": false
        }
      ],
      "logsBloom": "0x00000000010000000000000000000000000000001000000000000000000000000000000000000000000000000000000010000000000000000000000000000000000000000000000000000000000000000000400000000000200000000000000000000000000000000000000000000000000000000000000000000000000000000000020000000000000000000000000000000020000000000000000010000000000400000000000020000010000000000000000000000000000000000000000000000000000000000000000000000000000000000000000000000008000000000000000000000000000000000000000000000000000000000000000000000000",
      "type": "0x0",
      "transactionHash": "0x07b8b7263ababaed5c96798763db2e77030373602b6a29133c9e43cf5c122c1e",
      "transactionIndex": "0x48",
      "blockHash": "0xc8050f3fd93c3cdd1383c5111f1fb3139d78bae4713c4a890cb6a5219e53944c",
      "blockNumber": "0x74c605",
      "gasUsed": "0x14970",
      "effectiveGasPrice": "0xc1b710800",
      "from": "0x6efb11ac41b6657c32dac5ed4874082c700bba29",
      "to": "0xd8a8f5c1e6fc685409c94af2e335e1421cbd09a0",
      "contractAddress": null
    },
    {
      "status": "0x1",
      "cumulativeGasUsed": "0xe34885",
      "logs": [
        {
          "address": "0xd8a8f5c1e6fc685409c94af2e335e1421cbd09a0",
          "topics": [
            "0x7ea068de19c5d7bd35e95fdf77ee7b38bca6c65363aa3e3738aa8a0f242b4f30",
            "0x000000000000000000000000e3f98fda6dbd38c1017754f1675dce377381c23c",
            "0x66673a8318c307d044b7225c95185c0e7f0af3ec0386514bebc75356b31c918f"
          ],
          "data": "0x000000000000000000000000000000000000000000000000818677db68e3c5f70000000000000000000000000000000000000000000000000000000067d37b0d",
          "blockHash": "0xc8050f3fd93c3cdd1383c5111f1fb3139d78bae4713c4a890cb6a5219e53944c",
          "blockNumber": "0x74c605",
          "blockTimestamp": "0x67d37b0d",
          "transactionHash": "0x1c66711596f4ab0a171fd85e36080a0765af36e3e58da173bfafc56554e28ead",
          "transactionIndex": "0x49",
          "logIndex": "0x99",
          "removed": false
        }
      ],
      "logsBloom": "0x00000000000000000000000000000000000000000000000000000000000000000000000000800000000000000000000010000000000000000000000000000000000000000000000000000000000000000000400000000000000000000800000000000000000000000000000000000000000000000000000000000000000000000000020000000000000000080000000000000000000000000000000010000000000000000000000020000010000000000001000000000000000000000000000000000000000000000000000000000000000000000000000000000020000000000000000000000000000000000010000000000000000000000000000000000000",
      "type": "0x0",
      "transactionHash": "0x1c66711596f4ab0a171fd85e36080a0765af36e3e58da173bfafc56554e28ead",
      "transactionIndex": "0x49",
      "blockHash": "0xc8050f3fd93c3cdd1383c5111f1fb3139d78bae4713c4a890cb6a5219e53944c",
      "blockNumber": "0x74c605",
      "gasUsed": "0x14993",
      "effectiveGasPrice": "0xc1b710800",
      "from": "0x6efb11ac41b6657c32dac5ed4874082c700bba29",
      "to": "0xd8a8f5c1e6fc685409c94af2e335e1421cbd09a0",
      "contractAddress": null
    }
  ],
  "libraries": [],
  "pending": [],
  "returns": {},
  "timestamp": 1741912849,
  "chain": 10143,
  "commit": "69d67f9"
}