{
  "transactions": [
    {
      "hash": "0xfa66bf663a0ee6b49849a59dfa56d438a42c93317f5e2ee97612b6e320a05e42",
      "transactionType": "CALL",
      "contractName": null,
      "contractAddress": "0xd8a8f5c1e6fc685409c94af2e335e1421cbd09a0",
      "function": "setPrice(address,uint256)",
      "arguments": [
        "0x2c53Ce7143D24A65410107F50e4AABad9A164480",
        "2253244596022634385875"
      ],
      "transaction": {
        "from": "0x6efb11ac41b6657c32dac5ed4874082c700bba29",
        "to": "0xd8a8f5c1e6fc685409c94af2e335e1421cbd09a0",
        "gas": "0x13754",
        "value": "0x0",
        "input": "0x00e4768b0000000000000000000000002c53ce7143d24a65410107f50e4aabad9a16448000000000000000000000000000000000000000000000007a260ce5e18dac91d3",
        "nonce": "0x24f",
        "chainId": "0x279f"
      },
      "additionalContracts": [],
      "isFixedGasLimit": false
    },
    {
      "hash": "0x9032375fde78c80a2e71cf646ccb26e9589b233c54097ec80d28c52a4fedd2fd",
      "transactionType": "CALL",
      "contractName": null,
      "contractAddress": "0xd8a8f5c1e6fc685409c94af2e335e1421cbd09a0",
      "function": "setPrice(address,uint256)",
      "arguments": [
        "0x53f7C389CBB801e2ABfD301deD6D2A1cf330ac0D",
        "45976409765214964832799"
      ],
      "transaction": {
        "from": "0x6efb11ac41b6657c32dac5ed4874082c700bba29",
        "to": "0xd8a8f5c1e6fc685409c94af2e335e1421cbd09a0",
        "gas": "0x149b6",
        "value": "0x0",
        "input": "0x00e4768b00000000000000000000000053f7c389cbb801e2abfd301ded6d2a1cf330ac0d0000000000000000000000000000000000000000000009bc62dbe0010eaa5a1f",
        "nonce": "0x250",
        "chainId": "0x279f"
      },
      "additionalContracts": [],
      "isFixedGasLimit": false
    },
    {
      "hash": "0xe05c684fd71cc7aa7804263e47a2f4f2e11beb8844b5ac277b90b3b5d1a2f62e",
      "transactionType": "CALL",
      "contractName": null,
      "contractAddress": "0xd8a8f5c1e6fc685409c94af2e335e1421cbd09a0",
      "function": "setPrice(address,uint256)",
      "arguments": [
        "0x58389610A3D13e8f380ee2bA077A6F36f2A90834",
        "1000000000000000000"
      ],
      "transaction": {
        "from": "0x6efb11ac41b6657c32dac5ed4874082c700bba29",
        "to": "0xd8a8f5c1e6fc685409c94af2e335e1421cbd09a0",
        "gas": "0x127f6",
        "value": "0x0",
        "input": "0x00e4768b00000000000000000000000058389610a3d13e8f380ee2ba077a6f36f2a908340000000000000000000000000000000000000000000000000de0b6b3a7640000",
        "nonce": "0x251",
        "chainId": "0x279f"
      },
      "additionalContracts": [],
      "isFixedGasLimit": false
    },
    {
      "hash": "0x9da064a4914900c113a6f0ddf284ae0d5f1f2a7ccd99cef0e46a90fea3bf5a0f",
      "transactionType": "CALL",
      "contractName": null,
      "contractAddress": "0xd8a8f5c1e6fc685409c94af2e335e1421cbd09a0",
      "function": "setPrice(address,uint256)",
      "arguments": [
        "0xF9861d7478f8957679b26404Bd6272c39f949C29",
        "104987514393064"
      ],
      "transaction": {
        "from": "0x6efb11ac41b6657c32dac5ed4874082c700bba29",
        "to": "0xd8a8f5c1e6fc685409c94af2e335e1421cbd09a0",
        "gas": "0x14970",
        "value": "0x0",
        "input": "0x00e4768b000000000000000000000000f9861d7478f8957679b26404bd6272c39f949c2900000000000000000000000000000000000000000000000000005f7c4f8051e8",
        "nonce": "0x252",
        "chainId": "0x279f"
      },
      "additionalContracts": [],
      "isFixedGasLimit": false
    },
    {
      "hash": "0x77f8be60794689d1b6666bf84a3593184baee6c252a15606e2eeb9bea611a19c",
      "transactionType": "CALL",
      "contractName": null,
      "contractAddress": "0xd8a8f5c1e6fc685409c94af2e335e1421cbd09a0",
      "function": "setPrice(address,uint256)",
      "arguments": [
        "0x1889CFb8746716a0AC50E59a54f190987C5F04E6",
        "76311697453755798"
      ],
      "transaction": {
        "from": "0x6efb11ac41b6657c32dac5ed4874082c700bba29",
        "to": "0xd8a8f5c1e6fc685409c94af2e335e1421cbd09a0",
        "gas": "0x14993",
        "value": "0x0",
        "input": "0x00e4768b0000000000000000000000001889cfb8746716a0ac50e59a54f190987c5f04e6000000000000000000000000000000000000000000000000010f1d15a2f02d96",
        "nonce": "0x253",
        "chainId": "0x279f"
      },
      "additionalContracts": [],
      "isFixedGasLimit": false
    },
    {
      "hash": "0xfccb46785d18a54d3e68b8833a4720cda73213410d07d0973dcf1a3afb49bf4d",
      "transactionType": "CALL",
      "contractName": null,
      "contractAddress": "0xd8a8f5c1e6fc685409c94af2e335e1421cbd09a0",
      "function": "setPrice(address,uint256)",
      "arguments": [
        "0x6bc8a42d4B2F4bc8e4c3f9eCFF00B7290Ffa7405",
        "61008712855051193"
      ],
      "transaction": {
        "from": "0x6efb11ac41b6657c32dac5ed4874082c700bba29",
        "to": "0xd8a8f5c1e6fc685409c94af2e335e1421cbd09a0",
        "gas": "0x14970",
        "value": "0x0",
        "input": "0x00e4768b0000000000000000000000006bc8a42d4b2f4bc8e4c3f9ecff00b7290ffa740500000000000000000000000000000000000000000000000000d8bf19e1eddbb9",
        "nonce": "0x254",
        "chainId": "0x279f"
      },
      "additionalContracts": [],
      "isFixedGasLimit": false
    },
    {
      "hash": "0xea60797c66931ffab63373e56c414e52ed956ff6481a7f6cc942ede6c48caef0",
      "transactionType": "CALL",
      "contractName": null,
      "contractAddress": "0xd8a8f5c1e6fc685409c94af2e335e1421cbd09a0",
      "function": "setPrice(address,uint256)",
      "arguments": [
        "0xe3F98fdA6dBD38c1017754f1675dcE377381c23C",
        "9328072708665046461"
      ],
      "transaction": {
        "from": "0x6efb11ac41b6657c32dac5ed4874082c700bba29",
        "to": "0xd8a8f5c1e6fc685409c94af2e335e1421cbd09a0",
        "gas": "0x14993",
        "value": "0x0",
        "input": "0x00e4768b000000000000000000000000e3f98fda6dbd38c1017754f1675dce377381c23c0000000000000000000000000000000000000000000000008173f8b4cefef5bd",
        "nonce": "0x255",
        "chainId": "0x279f"
      },
      "additionalContracts": [],
      "isFixedGasLimit": false
    }
  ],
  "receipts": [
    {
      "status": "0x1",
      "cumulativeGasUsed": "0x3cf412",
      "logs": [
        {
          "address": "0xd8a8f5c1e6fc685409c94af2e335e1421cbd09a0",
          "topics": [
            "0x7ea068de19c5d7bd35e95fdf77ee7b38bca6c65363aa3e3738aa8a0f242b4f30",
            "0x0000000000000000000000002c53ce7143d24a65410107f50e4aabad9a164480",
            "0xfec9fe313f2641d20f780bc4dbe569d3fad27061f84b764379c2affb4e72afbb"
          ],
          "data": "0x00000000000000000000000000000000000000000000007a260ce5e18dac91d30000000000000000000000000000000000000000000000000000000067d380fe",
          "blockHash": "0xbceff1f835d56fc3104fad1b7f323243541ebc9150d28143123cd14ad9c0284e",
          "blockNumber": "0x74cf96",
          "blockTimestamp": "0x67d380fe",
          "transactionHash": "0xfa66bf663a0ee6b49849a59dfa56d438a42c93317f5e2ee97612b6e320a05e42",
          "transactionIndex": "0x26",
          "logIndex": "0x36",
          "removed": false
        }
      ],
      "logsBloom": "0x00000000000000000000000000000000000000000000000000000000000080000000000000000000000000000000000010000000000000000000000004000000000000000000000000000000000001000000400000000000000000000000000000000000000000000000000000000000000000000000000000000000000000000000020000000100000000000000000000000000000000000000000010000000000000000000000020000010000000000000000000000000000000000000000000000000000000000000000000000000000000000000000000000000000000000000000000000000000000000000000000000000000000000800000000000000",
      "type": "0x0",
      "transactionHash": "0xfa66bf663a0ee6b49849a59dfa56d438a42c93317f5e2ee97612b6e320a05e42",
      "transactionIndex": "0x26",
      "blockHash": "0xbceff1f835d56fc3104fad1b7f323243541ebc9150d28143123cd14ad9c0284e",
      "blockNumber": "0x74cf96",
      "gasUsed": "0x13754",
      "effectiveGasPrice": "0xc1b710800",
      "from": "0x6efb11ac41b6657c32dac5ed4874082c700bba29",
      "to": "0xd8a8f5c1e6fc685409c94af2e335e1421cbd09a0",
      "contractAddress": null
    },
    {
      "status": "0x1",
      "cumulativeGasUsed": "0x3e3dc8",
      "logs": [
        {
          "address": "0xd8a8f5c1e6fc685409c94af2e335e1421cbd09a0",
          "topics": [
            "0x7ea068de19c5d7bd35e95fdf77ee7b38bca6c65363aa3e3738aa8a0f242b4f30",
            "0x00000000000000000000000053f7c389cbb801e2abfd301ded6d2a1cf330ac0d",
            "0x2ad90dd93035362ff577f5418f113f8a159d702da9e78702936a991dfb95ca21"
          ],
          "data": "0x0000000000000000000000000000000000000000000009bc62dbe0010eaa5a1f0000000000000000000000000000000000000000000000000000000067d380fe",
          "blockHash": "0xbceff1f835d56fc3104fad1b7f323243541ebc9150d28143123cd14ad9c0284e",
          "blockNumber": "0x74cf96",
          "blockTimestamp": "0x67d380fe",
          "transactionHash": "0x9032375fde78c80a2e71cf646ccb26e9589b233c54097ec80d28c52a4fedd2fd",
          "transactionIndex": "0x27",
          "logIndex": "0x37",
          "removed": false
        }
      ],
      "logsBloom": "0x00000000000000000000000000000000000000000000000000000000800000002000000000000000000000000000000010000000000000000000000000000000000004000000000000000000000000000000400000000000000000000000000000000000000000000000000000000000000000000000000000000000000000000000020000000000000000000000000000000000000000000000000010000000000000000001000020000010000000000000000000000000000000000000000000000000000000000001000000000000000000000000000000000000008000000000000000000000000000000000000000000000000000000000000000000000",
      "type": "0x0",
      "transactionHash": "0x9032375fde78c80a2e71cf646ccb26e9589b233c54097ec80d28c52a4fedd2fd",
      "transactionIndex": "0x27",
      "blockHash": "0xbceff1f835d56fc3104fad1b7f323243541ebc9150d28143123cd14ad9c0284e",
      "blockNumber": "0x74cf96",
      "gasUsed": "0x149b6",
      "effectiveGasPrice": "0xc1b710800",
      "from": "0x6efb11ac41b6657c32dac5ed4874082c700bba29",
      "to": "0xd8a8f5c1e6fc685409c94af2e335e1421cbd09a0",
      "contractAddress": null
    },
    {
      "status": "0x1",
      "cumulativeGasUsed": "0x3f65be",
      "logs": [
        {
          "address": "0xd8a8f5c1e6fc685409c94af2e335e1421cbd09a0",
          "topics": [
            "0x7ea068de19c5d7bd35e95fdf77ee7b38bca6c65363aa3e3738aa8a0f242b4f30",
            "0x00000000000000000000000058389610a3d13e8f380ee2ba077a6f36f2a90834",
            "0xc5d2460186f7233c927e7db2dcc703c0e500b653ca82273b7bfad8045d85a470"
          ],
          "data": "0x0000000000000000000000000000000000000000000000000de0b6b3a76400000000000000000000000000000000000000000000000000000000000067d380fe",
          "blockHash": "0xbceff1f835d56fc3104fad1b7f323243541ebc9150d28143123cd14ad9c0284e",
          "blockNumber": "0x74cf96",
          "blockTimestamp": "0x67d380fe",
          "transactionHash": "0xe05c684fd71cc7aa7804263e47a2f4f2e11beb8844b5ac277b90b3b5d1a2f62e",
          "transactionIndex": "0x28",
          "logIndex": "0x38",
          "removed": false
        }
      ],
      "logsBloom": "0x000000000000000000000000000000000000000000000000000000000000000080000000000000000000000000000000100000000000000000000000000000000000000000004000000000000000000000004000000000000000000000000000000000000000000000000000400000000000000000000000000000000000000000000a0040000000000000000000000000000000000000000000000010000000000000000000000020000010000000000000000000000000000000000000000000000000000000000000000000000000000000000000000000000000000000000000000000000400000000000000000000000000000000000000000000000000",
      "type": "0x0",
      "transactionHash": "0xe05c684fd71cc7aa7804263e47a2f4f2e11beb8844b5ac277b90b3b5d1a2f62e",
      "transactionIndex": "0x28",
      "blockHash": "0xbceff1f835d56fc3104fad1b7f323243541ebc9150d28143123cd14ad9c0284e",
      "blockNumber": "0x74cf96",
      "gasUsed": "0x127f6",
      "effectiveGasPrice": "0xc1b710800",
      "from": "0x6efb11ac41b6657c32dac5ed4874082c700bba29",
      "to": "0xd8a8f5c1e6fc685409c94af2e335e1421cbd09a0",
      "contractAddress": null
    },
    {
      "status": "0x1",
      "cumulativeGasUsed": "0x40af2e",
      "logs": [
        {
          "address": "0xd8a8f5c1e6fc685409c94af2e335e1421cbd09a0",
          "topics": [
            "0x7ea068de19c5d7bd35e95fdf77ee7b38bca6c65363aa3e3738aa8a0f242b4f30",
            "0x000000000000000000000000f9861d7478f8957679b26404bd6272c39f949c29",
            "0x1c0ccbd35ba468bdd0237ee29c3319448a546ec1d4851e932b643527181bf96a"
          ],
          "data": "0x00000000000000000000000000000000000000000000000000005f7c4f8051e80000000000000000000000000000000000000000000000000000000067d380fe",
          "blockHash": "0xbceff1f835d56fc3104fad1b7f323243541ebc9150d28143123cd14ad9c0284e",
          "blockNumber": "0x74cf96",
          "blockTimestamp": "0x67d380fe",
          "transactionHash": "0x9da064a4914900c113a6f0ddf284ae0d5f1f2a7ccd99cef0e46a90fea3bf5a0f",
          "transactionIndex": "0x29",
          "logIndex": "0x39",
          "removed": false
        }
      ],
      "logsBloom": "0x00000000000000000000000000000000000000800000000000000000000000000000000000000000008000000000000010000000000000000000000000000000000000000000000000000000000000000000400000000000000000000000000000000000000000000000004000000000000080000000000000000000000000002000020000000000000000000000000000000000000000000000000010000000000000000000000020001010000000000000000000000000000000000000000000000000000000000000000000000000000000000000000000000000000000000000000000000000000000000000000000000000000000000000000000000000",
      "type": "0x0",
      "transactionHash": "0x9da064a4914900c113a6f0ddf284ae0d5f1f2a7ccd99cef0e46a90fea3bf5a0f",
      "transactionIndex": "0x29",
      "blockHash": "0xbceff1f835d56fc3104fad1b7f323243541ebc9150d28143123cd14ad9c0284e",
      "blockNumber": "0x74cf96",
      "gasUsed": "0x14970",
      "effectiveGasPrice": "0xc1b710800",
      "from": "0x6efb11ac41b6657c32dac5ed4874082c700bba29",
      "to": "0xd8a8f5c1e6fc685409c94af2e335e1421cbd09a0",
      "contractAddress": null
    },
    {
      "status": "0x1",
      "cumulativeGasUsed": "0x41f8c1",
      "logs": [
        {
          "address": "0xd8a8f5c1e6fc685409c94af2e335e1421cbd09a0",
          "topics": [
            "0x7ea068de19c5d7bd35e95fdf77ee7b38bca6c65363aa3e3738aa8a0f242b4f30",
            "0x0000000000000000000000001889cfb8746716a0ac50e59a54f190987c5f04e6",
            "0x82fe12dbc9acb173c16ef225535487ccf6311d42fbfebd50a210ee0a1f70bedf"
          ],
          "data": "0x000000000000000000000000000000000000000000000000010f1d15a2f02d960000000000000000000000000000000000000000000000000000000067d380fe",
          "blockHash": "0xbceff1f835d56fc3104fad1b7f323243541ebc9150d28143123cd14ad9c0284e",
          "blockNumber": "0x74cf96",
          "blockTimestamp": "0x67d380fe",
          "transactionHash": "0x77f8be60794689d1b6666bf84a3593184baee6c252a15606e2eeb9bea611a19c",
          "transactionIndex": "0x2a",
          "logIndex": "0x3a",
          "removed": false
        }
      ],
      "logsBloom": "0x00000000000000000000000000000000000000000000000000000000000000000000200000000000000000000000000010000000000000000000000000100000000000000000000000000000000000000000400002000000000000000000000000000000000000000000000000000000000000000000000000000000000000000000020000000000000000000000000000000000000000000000000010000000004000000000000020000010000000000000000000000000000000000000000000000000000000000000000000000000000000000000000000000000000000000000000000000000000000000000000000000400000100000000000000000000",
      "type": "0x0",
      "transactionHash": "0x77f8be60794689d1b6666bf84a3593184baee6c252a15606e2eeb9bea611a19c",
      "transactionIndex": "0x2a",
      "blockHash": "0xbceff1f835d56fc3104fad1b7f323243541ebc9150d28143123cd14ad9c0284e",
      "blockNumber": "0x74cf96",
      "gasUsed": "0x14993",
      "effectiveGasPrice": "0xc1b710800",
      "from": "0x6efb11ac41b6657c32dac5ed4874082c700bba29",
      "to": "0xd8a8f5c1e6fc685409c94af2e335e1421cbd09a0",
      "contractAddress": null
    },
    {
      "status": "0x1",
      "cumulativeGasUsed": "0x434231",
      "logs": [
        {
          "address": "0xd8a8f5c1e6fc685409c94af2e335e1421cbd09a0",
          "topics": [
            "0x7ea068de19c5d7bd35e95fdf77ee7b38bca6c65363aa3e3738aa8a0f242b4f30",
            "0x0000000000000000000000006bc8a42d4b2f4bc8e4c3f9ecff00b7290ffa7405",
            "0x069bc27d8b43df02b4ab2dd841ccece1e69cc8bbb58b950c7025036512cfa1ec"
          ],
          "data": "0x00000000000000000000000000000000000000000000000000d8bf19e1eddbb90000000000000000000000000000000000000000000000000000000067d380fe",
          "blockHash": "0xbceff1f835d56fc3104fad1b7f323243541ebc9150d28143123cd14ad9c0284e",
          "blockNumber": "0x74cf96",
          "blockTimestamp": "0x67d380fe",
          "transactionHash": "0xfccb46785d18a54d3e68b8833a4720cda73213410d07d0973dcf1a3afb49bf4d",
          "transactionIndex": "0x2b",
          "logIndex": "0x3b",
          "removed": false
        }
      ],
      "logsBloom": "0x00000000010000000000000000000000000000001000000000000000000000000000000000000000000000000000000010000000000000000000000000000000000000000000000000000000000000000000400000000000200000000000000000000000000000000000000000000000000000000000000000000000000000000000020000000000000000000000000000000020000000000000000010000000000400000000000020000010000000000000000000000000000000000000000000000000000000000000000000000000000000000000000000000008000000000000000000000000000000000000000000000000000000000000000000000000",
      "type": "0x0",
      "transactionHash": "0xfccb46785d18a54d3e68b8833a4720cda73213410d07d0973dcf1a3afb49bf4d",
      "transactionIndex": "0x2b",
      "blockHash": "0xbceff1f835d56fc3104fad1b7f323243541ebc9150d28143123cd14ad9c0284e",
      "blockNumber": "0x74cf96",
      "gasUsed": "0x14970",
      "effectiveGasPrice": "0xc1b710800",
      "from": "0x6efb11ac41b6657c32dac5ed4874082c700bba29",
      "to": "0xd8a8f5c1e6fc685409c94af2e335e1421cbd09a0",
      "contractAddress": null
    },
    {
      "status": "0x1",
      "cumulativeGasUsed": "0x448bc4",
      "logs": [
        {
          "address": "0xd8a8f5c1e6fc685409c94af2e335e1421cbd09a0",
          "topics": [
            "0x7ea068de19c5d7bd35e95fdf77ee7b38bca6c65363aa3e3738aa8a0f242b4f30",
            "0x000000000000000000000000e3f98fda6dbd38c1017754f1675dce377381c23c",
            "0x66673a8318c307d044b7225c95185c0e7f0af3ec0386514bebc75356b31c918f"
          ],
          "data": "0x0000000000000000000000000000000000000000000000008173f8b4cefef5bd0000000000000000000000000000000000000000000000000000000067d380fe",
          "blockHash": "0xbceff1f835d56fc3104fad1b7f323243541ebc9150d28143123cd14ad9c0284e",
          "blockNumber": "0x74cf96",
          "blockTimestamp": "0x67d380fe",
          "transactionHash": "0xea60797c66931ffab63373e56c414e52ed956ff6481a7f6cc942ede6c48caef0",
          "transactionIndex": "0x2c",
          "logIndex": "0x3c",
          "removed": false
        }
      ],
      "logsBloom": "0x00000000000000000000000000000000000000000000000000000000000000000000000000800000000000000000000010000000000000000000000000000000000000000000000000000000000000000000400000000000000000000800000000000000000000000000000000000000000000000000000000000000000000000000020000000000000000080000000000000000000000000000000010000000000000000000000020000010000000000001000000000000000000000000000000000000000000000000000000000000000000000000000000000020000000000000000000000000000000000010000000000000000000000000000000000000",
      "type": "0x0",
      "transactionHash": "0xea60797c66931ffab63373e56c414e52ed956ff6481a7f6cc942ede6c48caef0",
      "transactionIndex": "0x2c",
      "blockHash": "0xbceff1f835d56fc3104fad1b7f323243541ebc9150d28143123cd14ad9c0284e",
      "blockNumber": "0x74cf96",
      "gasUsed": "0x14993",
      "effectiveGasPrice": "0xc1b710800",
      "from": "0x6efb11ac41b6657c32dac5ed4874082c700bba29",
      "to": "0xd8a8f5c1e6fc685409c94af2e335e1421cbd09a0",
      "contractAddress": null
    }
  ],
  "libraries": [],
  "pending": [],
  "returns": {},
  "timestamp": 1741914367,
  "chain": 10143,
  "commit": "69d67f9"
}