{
  "transactions": [
    {
      "hash": "0x1edf674b8e1524728a3005445f512b57ca0c0770627456405cf24b6f2118cfd3",
      "transactionType": "CALL",
      "contractName": null,
      "contractAddress": "0xd8a8f5c1e6fc685409c94af2e335e1421cbd09a0",
      "function": "setPrice(address,uint256)",
      "arguments": [
        "0x2c53Ce7143D24A65410107F50e4AABad9A164480",
        "1865234061601906881422"
      ],
      "transaction": {
        "from": "0x6efb11ac41b6657c32dac5ed4874082c700bba29",
        "to": "0xd8a8f5c1e6fc685409c94af2e335e1421cbd09a0",
        "gas": "0x13754",
        "value": "0x0",
        "input": "0x00e4768b0000000000000000000000002c53ce7143d24a65410107f50e4aabad9a1644800000000000000000000000000000000000000000000000651d529097e4bbf38e",
        "nonce": "0x241",
        "chainId": "0x279f"
      },
      "additionalContracts": [],
      "isFixedGasLimit": false
    },
    {
      "hash": "0xd5528027e1cc2a21a3532ca5142f17f5aa80dbc97951c4762916d7e496ad3abb",
      "transactionType": "CALL",
      "contractName": null,
      "contractAddress": "0xd8a8f5c1e6fc685409c94af2e335e1421cbd09a0",
      "function": "setPrice(address,uint256)",
      "arguments": [
        "0x53f7C389CBB801e2ABfD301deD6D2A1cf330ac0D",
        "50724285039333502741634"
      ],
      "transaction": {
        "from": "0x6efb11ac41b6657c32dac5ed4874082c700bba29",
        "to": "0xd8a8f5c1e6fc685409c94af2e335e1421cbd09a0",
        "gas": "0x149b6",
        "value": "0x0",
        "input": "0x00e4768b00000000000000000000000053f7c389cbb801e2abfd301ded6d2a1cf330ac0d000000000000000000000000000000000000000000000abdc4dd4e7e5e81ec82",
        "nonce": "0x242",
        "chainId": "0x279f"
      },
      "additionalContracts": [],
      "isFixedGasLimit": false
    },
    {
      "hash": "0x03313a0adb3f5dfc5e641a30580bda055bf2dd6008ddd2fb7270185dfa0a4929",
      "transactionType": "CALL",
      "contractName": null,
      "contractAddress": "0xd8a8f5c1e6fc685409c94af2e335e1421cbd09a0",
      "function": "setPrice(address,uint256)",
      "arguments": [
        "0x58389610A3D13e8f380ee2bA077A6F36f2A90834",
        "1000000000000000000"
      ],
      "transaction": {
        "from": "0x6efb11ac41b6657c32dac5ed4874082c700bba29",
        "to": "0xd8a8f5c1e6fc685409c94af2e335e1421cbd09a0",
        "gas": "0x127f6",
        "value": "0x0",
        "input": "0x00e4768b00000000000000000000000058389610a3d13e8f380ee2ba077a6f36f2a908340000000000000000000000000000000000000000000000000de0b6b3a7640000",
        "nonce": "0x243",
        "chainId": "0x279f"
      },
      "additionalContracts": [],
      "isFixedGasLimit": false
    },
    {
      "hash": "0x159c95265bc583b81a4e7d3d0e548d47975a504944ea54f55bff960ce2974c11",
      "transactionType": "CALL",
      "contractName": null,
      "contractAddress": "0xd8a8f5c1e6fc685409c94af2e335e1421cbd09a0",
      "function": "setPrice(address,uint256)",
      "arguments": [
        "0xF9861d7478f8957679b26404Bd6272c39f949C29",
        "97187063268592"
      ],
      "transaction": {
        "from": "0x6efb11ac41b6657c32dac5ed4874082c700bba29",
        "to": "0xd8a8f5c1e6fc685409c94af2e335e1421cbd09a0",
        "gas": "0x14970",
        "value": "0x0",
        "input": "0x00e4768b000000000000000000000000f9861d7478f8957679b26404bd6272c39f949c2900000000000000000000000000000000000000000000000000005864206204f0",
        "nonce": "0x244",
        "chainId": "0x279f"
      },
      "additionalContracts": [],
      "isFixedGasLimit": false
    },
    {
      "hash": "0xe1894556220d8ad11966f660701f874e836af10644ea76df7866468466cd7df5",
      "transactionType": "CALL",
      "contractName": null,
      "contractAddress": "0xd8a8f5c1e6fc685409c94af2e335e1421cbd09a0",
      "function": "setPrice(address,uint256)",
      "arguments": [
        "0x1889CFb8746716a0AC50E59a54f190987C5F04E6",
        "92376492598671695"
      ],
      "transaction": {
        "from": "0x6efb11ac41b6657c32dac5ed4874082c700bba29",
        "to": "0xd8a8f5c1e6fc685409c94af2e335e1421cbd09a0",
        "gas": "0x14993",
        "value": "0x0",
        "input": "0x00e4768b0000000000000000000000001889cfb8746716a0ac50e59a54f190987c5f04e600000000000000000000000000000000000000000000000001482fee3af0b94f",
        "nonce": "0x245",
        "chainId": "0x279f"
      },
      "additionalContracts": [],
      "isFixedGasLimit": false
    },
    {
      "hash": "0x45f0192d2f4b97f3f59ec95eaab43d94e96689b39b5e07a7921aeae90500e647",
      "transactionType": "CALL",
      "contractName": null,
      "contractAddress": "0xd8a8f5c1e6fc685409c94af2e335e1421cbd09a0",
      "function": "setPrice(address,uint256)",
      "arguments": [
        "0x6bc8a42d4B2F4bc8e4c3f9eCFF00B7290Ffa7405",
        "37757782622964533"
      ],
      "transaction": {
        "from": "0x6efb11ac41b6657c32dac5ed4874082c700bba29",
        "to": "0xd8a8f5c1e6fc685409c94af2e335e1421cbd09a0",
        "gas": "0x14970",
        "value": "0x0",
        "input": "0x00e4768b0000000000000000000000006bc8a42d4b2f4bc8e4c3f9ecff00b7290ffa740500000000000000000000000000000000000000000000000000862480d4bf8b35",
        "nonce": "0x246",
        "chainId": "0x279f"
      },
      "additionalContracts": [],
      "isFixedGasLimit": false
    },
    {
      "hash": "0x4d3b8a7e9dccf0880c0d4d80a7bacf11e245e60934e15159a0e576b386645dc9",
      "transactionType": "CALL",
      "contractName": null,
      "contractAddress": "0xd8a8f5c1e6fc685409c94af2e335e1421cbd09a0",
      "function": "setPrice(address,uint256)",
      "arguments": [
        "0xe3F98fdA6dBD38c1017754f1675dcE377381c23C",
        "16052695036510743222"
      ],
      "transaction": {
        "from": "0x6efb11ac41b6657c32dac5ed4874082c700bba29",
        "to": "0xd8a8f5c1e6fc685409c94af2e335e1421cbd09a0",
        "gas": "0x14993",
        "value": "0x0",
        "input": "0x00e4768b000000000000000000000000e3f98fda6dbd38c1017754f1675dce377381c23c000000000000000000000000000000000000000000000000dec6a115bae62ab6",
        "nonce": "0x247",
        "chainId": "0x279f"
      },
      "additionalContracts": [],
      "isFixedGasLimit": false
    }
  ],
  "receipts": [
    {
      "status": "0x1",
      "cumulativeGasUsed": "0x3077ae",
      "logs": [
        {
          "address": "0xd8a8f5c1e6fc685409c94af2e335e1421cbd09a0",
          "topics": [
            "0x7ea068de19c5d7bd35e95fdf77ee7b38bca6c65363aa3e3738aa8a0f242b4f30",
            "0x0000000000000000000000002c53ce7143d24a65410107f50e4aabad9a164480",
            "0xfec9fe313f2641d20f780bc4dbe569d3fad27061f84b764379c2affb4e72afbb"
          ],
          "data": "0x0000000000000000000000000000000000000000000000651d529097e4bbf38e0000000000000000000000000000000000000000000000000000000067d37ac4",
          "blockHash": "0x439e8df721e95f80e61aaaa229fbc6c6bea7379cd5ed61d9250bc63674495949",
          "blockNumber": "0x74c580",
          "blockTimestamp": "0x67d37ac4",
          "transactionHash": "0x1edf674b8e1524728a3005445f512b57ca0c0770627456405cf24b6f2118cfd3",
          "transactionIndex": "0x1d",
          "logIndex": "0x36",
          "removed": false
        }
      ],
      "logsBloom": "0x00000000000000000000000000000000000000000000000000000000000080000000000000000000000000000000000010000000000000000000000004000000000000000000000000000000000001000000400000000000000000000000000000000000000000000000000000000000000000000000000000000000000000000000020000000100000000000000000000000000000000000000000010000000000000000000000020000010000000000000000000000000000000000000000000000000000000000000000000000000000000000000000000000000000000000000000000000000000000000000000000000000000000000800000000000000",
      "type": "0x0",
      "transactionHash": "0x1edf674b8e1524728a3005445f512b57ca0c0770627456405cf24b6f2118cfd3",
      "transactionIndex": "0x1d",
      "blockHash": "0x439e8df721e95f80e61aaaa229fbc6c6bea7379cd5ed61d9250bc63674495949",
      "blockNumber": "0x74c580",
      "gasUsed": "0x13754",
      "effectiveGasPrice": "0xc1b710800",
      "from": "0x6efb11ac41b6657c32dac5ed4874082c700bba29",
      "to": "0xd8a8f5c1e6fc685409c94af2e335e1421cbd09a0",
      "contractAddress": null
    },
    {
      "status": "0x1",
      "cumulativeGasUsed": "0x31c164",
      "logs": [
        {
          "address": "0xd8a8f5c1e6fc685409c94af2e335e1421cbd09a0",
          "topics": [
            "0x7ea068de19c5d7bd35e95fdf77ee7b38bca6c65363aa3e3738aa8a0f242b4f30",
            "0x00000000000000000000000053f7c389cbb801e2abfd301ded6d2a1cf330ac0d",
            "0x2ad90dd93035362ff577f5418f113f8a159d702da9e78702936a991dfb95ca21"
          ],
          "data": "0x000000000000000000000000000000000000000000000abdc4dd4e7e5e81ec820000000000000000000000000000000000000000000000000000000067d37ac4",
          "blockHash": "0x439e8df721e95f80e61aaaa229fbc6c6bea7379cd5ed61d9250bc63674495949",
          "blockNumber": "0x74c580",
          "blockTimestamp": "0x67d37ac4",
          "transactionHash": "0xd5528027e1cc2a21a3532ca5142f17f5aa80dbc97951c4762916d7e496ad3abb",
          "transactionIndex": "0x1e",
          "logIndex": "0x37",
          "removed": false
        }
      ],
      "logsBloom": "0x00000000000000000000000000000000000000000000000000000000800000002000000000000000000000000000000010000000000000000000000000000000000004000000000000000000000000000000400000000000000000000000000000000000000000000000000000000000000000000000000000000000000000000000020000000000000000000000000000000000000000000000000010000000000000000001000020000010000000000000000000000000000000000000000000000000000000000001000000000000000000000000000000000000008000000000000000000000000000000000000000000000000000000000000000000000",
      "type": "0x0",
      "transactionHash": "0xd5528027e1cc2a21a3532ca5142f17f5aa80dbc97951c4762916d7e496ad3abb",
      "transactionIndex": "0x1e",
      "blockHash": "0x439e8df721e95f80e61aaaa229fbc6c6bea7379cd5ed61d9250bc63674495949",
      "blockNumber": "0x74c580",
      "gasUsed": "0x149b6",
      "effectiveGasPrice": "0xc1b710800",
      "from": "0x6efb11ac41b6657c32dac5ed4874082c700bba29",
      "to": "0xd8a8f5c1e6fc685409c94af2e335e1421cbd09a0",
      "contractAddress": null
    },
    {
      "status": "0x1",
      "cumulativeGasUsed": "0x32e95a",
      "logs": [
        {
          "address": "0xd8a8f5c1e6fc685409c94af2e335e1421cbd09a0",
          "topics": [
            "0x7ea068de19c5d7bd35e95fdf77ee7b38bca6c65363aa3e3738aa8a0f242b4f30",
            "0x00000000000000000000000058389610a3d13e8f380ee2ba077a6f36f2a90834",
            "0xc5d2460186f7233c927e7db2dcc703c0e500b653ca82273b7bfad8045d85a470"
          ],
          "data": "0x0000000000000000000000000000000000000000000000000de0b6b3a76400000000000000000000000000000000000000000000000000000000000067d37ac4",
          "blockHash": "0x439e8df721e95f80e61aaaa229fbc6c6bea7379cd5ed61d9250bc63674495949",
          "blockNumber": "0x74c580",
          "blockTimestamp": "0x67d37ac4",
          "transactionHash": "0x03313a0adb3f5dfc5e641a30580bda055bf2dd6008ddd2fb7270185dfa0a4929",
          "transactionIndex": "0x1f",
          "logIndex": "0x38",
          "removed": false
        }
      ],
      "logsBloom": "0x000000000000000000000000000000000000000000000000000000000000000080000000000000000000000000000000100000000000000000000000000000000000000000004000000000000000000000004000000000000000000000000000000000000000000000000000400000000000000000000000000000000000000000000a0040000000000000000000000000000000000000000000000010000000000000000000000020000010000000000000000000000000000000000000000000000000000000000000000000000000000000000000000000000000000000000000000000000400000000000000000000000000000000000000000000000000",
      "type": "0x0",
      "transactionHash": "0x03313a0adb3f5dfc5e641a30580bda055bf2dd6008ddd2fb7270185dfa0a4929",
      "transactionIndex": "0x1f",
      "blockHash": "0x439e8df721e95f80e61aaaa229fbc6c6bea7379cd5ed61d9250bc63674495949",
      "blockNumber": "0x74c580",
      "gasUsed": "0x127f6",
      "effectiveGasPrice": "0xc1b710800",
      "from": "0x6efb11ac41b6657c32dac5ed4874082c700bba29",
      "to": "0xd8a8f5c1e6fc685409c94af2e335e1421cbd09a0",
      "contractAddress": null
    },
    {
      "status": "0x1",
      "cumulativeGasUsed": "0x3432ca",
      "logs": [
        {
          "address": "0xd8a8f5c1e6fc685409c94af2e335e1421cbd09a0",
          "topics": [
            "0x7ea068de19c5d7bd35e95fdf77ee7b38bca6c65363aa3e3738aa8a0f242b4f30",
            "0x000000000000000000000000f9861d7478f8957679b26404bd6272c39f949c29",
            "0x1c0ccbd35ba468bdd0237ee29c3319448a546ec1d4851e932b643527181bf96a"
          ],
          "data": "0x00000000000000000000000000000000000000000000000000005864206204f00000000000000000000000000000000000000000000000000000000067d37ac4",
          "blockHash": "0x439e8df721e95f80e61aaaa229fbc6c6bea7379cd5ed61d9250bc63674495949",
          "blockNumber": "0x74c580",
          "blockTimestamp": "0x67d37ac4",
          "transactionHash": "0x159c95265bc583b81a4e7d3d0e548d47975a504944ea54f55bff960ce2974c11",
          "transactionIndex": "0x20",
          "logIndex": "0x39",
          "removed": false
        }
      ],
      "logsBloom": "0x00000000000000000000000000000000000000800000000000000000000000000000000000000000008000000000000010000000000000000000000000000000000000000000000000000000000000000000400000000000000000000000000000000000000000000000004000000000000080000000000000000000000000002000020000000000000000000000000000000000000000000000000010000000000000000000000020001010000000000000000000000000000000000000000000000000000000000000000000000000000000000000000000000000000000000000000000000000000000000000000000000000000000000000000000000000",
      "type": "0x0",
      "transactionHash": "0x159c95265bc583b81a4e7d3d0e548d47975a504944ea54f55bff960ce2974c11",
      "transactionIndex": "0x20",
      "blockHash": "0x439e8df721e95f80e61aaaa229fbc6c6bea7379cd5ed61d9250bc63674495949",
      "blockNumber": "0x74c580",
      "gasUsed": "0x14970",
      "effectiveGasPrice": "0xc1b710800",
      "from": "0x6efb11ac41b6657c32dac5ed4874082c700bba29",
      "to": "0xd8a8f5c1e6fc685409c94af2e335e1421cbd09a0",
      "contractAddress": null
    },
    {
      "status": "0x1",
      "cumulativeGasUsed": "0x357c5d",
      "logs": [
        {
          "address": "0xd8a8f5c1e6fc685409c94af2e335e1421cbd09a0",
          "topics": [
            "0x7ea068de19c5d7bd35e95fdf77ee7b38bca6c65363aa3e3738aa8a0f242b4f30",
            "0x0000000000000000000000001889cfb8746716a0ac50e59a54f190987c5f04e6",
            "0x82fe12dbc9acb173c16ef225535487ccf6311d42fbfebd50a210ee0a1f70bedf"
          ],
          "data": "0x00000000000000000000000000000000000000000000000001482fee3af0b94f0000000000000000000000000000000000000000000000000000000067d37ac4",
          "blockHash": "0x439e8df721e95f80e61aaaa229fbc6c6bea7379cd5ed61d9250bc63674495949",
          "blockNumber": "0x74c580",
          "blockTimestamp": "0x67d37ac4",
          "transactionHash": "0xe1894556220d8ad11966f660701f874e836af10644ea76df7866468466cd7df5",
          "transactionIndex": "0x21",
          "logIndex": "0x3a",
          "removed": false
        }
      ],
      "logsBloom": "0x00000000000000000000000000000000000000000000000000000000000000000000200000000000000000000000000010000000000000000000000000100000000000000000000000000000000000000000400002000000000000000000000000000000000000000000000000000000000000000000000000000000000000000000020000000000000000000000000000000000000000000000000010000000004000000000000020000010000000000000000000000000000000000000000000000000000000000000000000000000000000000000000000000000000000000000000000000000000000000000000000000400000100000000000000000000",
      "type": "0x0",
      "transactionHash": "0xe1894556220d8ad11966f660701f874e836af10644ea76df7866468466cd7df5",
      "transactionIndex": "0x21",
      "blockHash": "0x439e8df721e95f80e61aaaa229fbc6c6bea7379cd5ed61d9250bc63674495949",
      "blockNumber": "0x74c580",
      "gasUsed": "0x14993",
      "effectiveGasPrice": "0xc1b710800",
      "from": "0x6efb11ac41b6657c32dac5ed4874082c700bba29",
      "to": "0xd8a8f5c1e6fc685409c94af2e335e1421cbd09a0",
      "contractAddress": null
    },
    {
      "status": "0x1",
      "cumulativeGasUsed": "0x36c5cd",
      "logs": [
        {
          "address": "0xd8a8f5c1e6fc685409c94af2e335e1421cbd09a0",
          "topics": [
            "0x7ea068de19c5d7bd35e95fdf77ee7b38bca6c65363aa3e3738aa8a0f242b4f30",
            "0x0000000000000000000000006bc8a42d4b2f4bc8e4c3f9ecff00b7290ffa7405",
            "0x069bc27d8b43df02b4ab2dd841ccece1e69cc8bbb58b950c7025036512cfa1ec"
          ],
          "data": "0x00000000000000000000000000000000000000000000000000862480d4bf8b350000000000000000000000000000000000000000000000000000000067d37ac4",
          "blockHash": "0x439e8df721e95f80e61aaaa229fbc6c6bea7379cd5ed61d9250bc63674495949",
          "blockNumber": "0x74c580",
          "blockTimestamp": "0x67d37ac4",
          "transactionHash": "0x45f0192d2f4b97f3f59ec95eaab43d94e96689b39b5e07a7921aeae90500e647",
          "transactionIndex": "0x22",
          "logIndex": "0x3b",
          "removed": false
        }
      ],
      "logsBloom": "0x00000000010000000000000000000000000000001000000000000000000000000000000000000000000000000000000010000000000000000000000000000000000000000000000000000000000000000000400000000000200000000000000000000000000000000000000000000000000000000000000000000000000000000000020000000000000000000000000000000020000000000000000010000000000400000000000020000010000000000000000000000000000000000000000000000000000000000000000000000000000000000000000000000008000000000000000000000000000000000000000000000000000000000000000000000000",
      "type": "0x0",
      "transactionHash": "0x45f0192d2f4b97f3f59ec95eaab43d94e96689b39b5e07a7921aeae90500e647",
      "transactionIndex": "0x22",
      "blockHash": "0x439e8df721e95f80e61aaaa229fbc6c6bea7379cd5ed61d9250bc63674495949",
      "blockNumber": "0x74c580",
      "gasUsed": "0x14970",
      "effectiveGasPrice": "0xc1b710800",
      "from": "0x6efb11ac41b6657c32dac5ed4874082c700bba29",
      "to": "0xd8a8f5c1e6fc685409c94af2e335e1421cbd09a0",
      "contractAddress": null
    },
    {
      "status": "0x1",
      "cumulativeGasUsed": "0x2ee0b0",
      "logs": [
        {
          "address": "0xd8a8f5c1e6fc685409c94af2e335e1421cbd09a0",
          "topics": [
            "0x7ea068de19c5d7bd35e95fdf77ee7b38bca6c65363aa3e3738aa8a0f242b4f30",
            "0x000000000000000000000000e3f98fda6dbd38c1017754f1675dce377381c23c",
            "0x66673a8318c307d044b7225c95185c0e7f0af3ec0386514bebc75356b31c918f"
          ],
          "data": "0x000000000000000000000000000000000000000000000000dec6a115bae62ab60000000000000000000000000000000000000000000000000000000067d37ac4",
          "blockHash": "0xdfbe3280a8a9c2ef8f10ab296b4283b433f9ea3cb5c62d297515754f55c2d4d5",
          "blockNumber": "0x74c581",
          "blockTimestamp": "0x67d37ac4",
          "transactionHash": "0x4d3b8a7e9dccf0880c0d4d80a7bacf11e245e60934e15159a0e576b386645dc9",
          "transactionIndex": "0x1e",
          "logIndex": "0x2a",
          "removed": false
        }
      ],
      "logsBloom": "0x00000000000000000000000000000000000000000000000000000000000000000000000000800000000000000000000010000000000000000000000000000000000000000000000000000000000000000000400000000000000000000800000000000000000000000000000000000000000000000000000000000000000000000000020000000000000000080000000000000000000000000000000010000000000000000000000020000010000000000001000000000000000000000000000000000000000000000000000000000000000000000000000000000020000000000000000000000000000000000010000000000000000000000000000000000000",
      "type": "0x0",
      "transactionHash": "0x4d3b8a7e9dccf0880c0d4d80a7bacf11e245e60934e15159a0e576b386645dc9",
      "transactionIndex": "0x1e",
      "blockHash": "0xdfbe3280a8a9c2ef8f10ab296b4283b433f9ea3cb5c62d297515754f55c2d4d5",
      "blockNumber": "0x74c581",
      "gasUsed": "0x14993",
      "effectiveGasPrice": "0xc1b710800",
      "from": "0x6efb11ac41b6657c32dac5ed4874082c700bba29",
      "to": "0xd8a8f5c1e6fc685409c94af2e335e1421cbd09a0",
      "contractAddress": null
    }
  ],
  "libraries": [],
  "pending": [],
  "returns": {},
  "timestamp": 1741912775,
  "chain": 10143,
  "commit": "69d67f9"
}