{
  "transactions": [
    {
      "hash": "0x9b4fcee0601fe13cc46b3405c0afb8dfc84a5d19dfd1e56d618b8fcf3aca8e83",
      "transactionType": "CALL",
      "contractName": null,
      "contractAddress": "0x6f665ed670b033898f2ccf3c6ffa4793fd8a7e88",
      "function": "setPrice(address,uint256)",
      "arguments": [
        "0x2c53Ce7143D24A65410107F50e4AABad9A164480",
        "1935015390340590396637"
      ],
      "transaction": {
        "from": "0x6efb11ac41b6657c32dac5ed4874082c700bba29",
        "to": "0x6f665ed670b033898f2ccf3c6ffa4793fd8a7e88",
        "gas": "0x13754",
        "value": "0x0",
        "input": "0x00e4768b0000000000000000000000002c53ce7143d24a65410107f50e4aabad9a164480000000000000000000000000000000000000000000000068e5bba55d24b8e4dd",
        "nonce": "0x138",
        "chainId": "0x279f"
      },
      "additionalContracts": [],
      "isFixedGasLimit": false
    },
    {
      "hash": "0x437dfce7583f72a053a9e13b89c2ef11ceb5591328552e9dbc493a061b6fe338",
      "transactionType": "CALL",
      "contractName": null,
      "contractAddress": "0x6f665ed670b033898f2ccf3c6ffa4793fd8a7e88",
      "function": "setPrice(address,uint256)",
      "arguments": [
        "0x53f7C389CBB801e2ABfD301deD6D2A1cf330ac0D",
        "42333509581474034141443"
      ],
      "transaction": {
        "from": "0x6efb11ac41b6657c32dac5ed4874082c700bba29",
        "to": "0x6f665ed670b033898f2ccf3c6ffa4793fd8a7e88",
        "gas": "0x149b6",
        "value": "0x0",
        "input": "0x00e4768b00000000000000000000000053f7c389cbb801e2abfd301ded6d2a1cf330ac0d0000000000000000000000000000000000000000000008f6e7768fcddb40c903",
        "nonce": "0x139",
        "chainId": "0x279f"
      },
      "additionalContracts": [],
      "isFixedGasLimit": false
    },
    {
      "hash": "0xf74d0ad7d71a612abc114c4dc7cfaca3512d556244aad012ed8b9b2c34f27594",
      "transactionType": "CALL",
      "contractName": null,
      "contractAddress": "0x6f665ed670b033898f2ccf3c6ffa4793fd8a7e88",
      "function": "setPrice(address,uint256)",
      "arguments": [
        "0x58389610A3D13e8f380ee2bA077A6F36f2A90834",
        "1000000000000000000"
      ],
      "transaction": {
        "from": "0x6efb11ac41b6657c32dac5ed4874082c700bba29",
        "to": "0x6f665ed670b033898f2ccf3c6ffa4793fd8a7e88",
        "gas": "0x351d0",
        "value": "0x0",
        "input": "0x00e4768b00000000000000000000000058389610a3d13e8f380ee2ba077a6f36f2a908340000000000000000000000000000000000000000000000000de0b6b3a7640000",
        "nonce": "0x13a",
        "chainId": "0x279f"
      },
      "additionalContracts": [],
      "isFixedGasLimit": false
    },
    {
      "hash": "0x4b30e92b52fb0c5edc98db55998e633c6af587d29fbe80ad847cc042532120f6",
      "transactionType": "CALL",
      "contractName": null,
      "contractAddress": "0x6f665ed670b033898f2ccf3c6ffa4793fd8a7e88",
      "function": "setPrice(address,uint256)",
      "arguments": [
        "0xF9861d7478f8957679b26404Bd6272c39f949C29",
        "97844651853042"
      ],
      "transaction": {
        "from": "0x6efb11ac41b6657c32dac5ed4874082c700bba29",
        "to": "0x6f665ed670b033898f2ccf3c6ffa4793fd8a7e88",
        "gas": "0x14970",
        "value": "0x0",
        "input": "0x00e4768b000000000000000000000000f9861d7478f8957679b26404bd6272c39f949c29000000000000000000000000000000000000000000000000000058fd3bb784f2",
        "nonce": "0x13b",
        "chainId": "0x279f"
      },
      "additionalContracts": [],
      "isFixedGasLimit": false
    },
    {
      "hash": "0xc9fcbc1917c796db6ec53f7c6d7721141c5bfd3488441cdedd6b94a809bb1284",
      "transactionType": "CALL",
      "contractName": null,
      "contractAddress": "0x6f665ed670b033898f2ccf3c6ffa4793fd8a7e88",
      "function": "setPrice(address,uint256)",
      "arguments": [
        "0x1889CFb8746716a0AC50E59a54f190987C5F04E6",
        "98214349433519856"
      ],
      "transaction": {
        "from": "0x6efb11ac41b6657c32dac5ed4874082c700bba29",
        "to": "0x6f665ed670b033898f2ccf3c6ffa4793fd8a7e88",
        "gas": "0x14993",
        "value": "0x0",
        "input": "0x00e4768b0000000000000000000000001889cfb8746716a0ac50e59a54f190987c5f04e6000000000000000000000000000000000000000000000000015ced6e31d4bef0",
        "nonce": "0x13c",
        "chainId": "0x279f"
      },
      "additionalContracts": [],
      "isFixedGasLimit": false
    },
    {
      "hash": "0xc05d33bd62ffcbb705289e3d917a8e3585bd84df4f265f3a9dc656624c26806c",
      "transactionType": "CALL",
      "contractName": null,
      "contractAddress": "0x6f665ed670b033898f2ccf3c6ffa4793fd8a7e88",
      "function": "setPrice(address,uint256)",
      "arguments": [
        "0x6bc8a42d4B2F4bc8e4c3f9eCFF00B7290Ffa7405",
        "50830012406578812"
      ],
      "transaction": {
        "from": "0x6efb11ac41b6657c32dac5ed4874082c700bba29",
        "to": "0x6f665ed670b033898f2ccf3c6ffa4793fd8a7e88",
        "gas": "0x14970",
        "value": "0x0",
        "input": "0x00e4768b0000000000000000000000006bc8a42d4b2f4bc8e4c3f9ecff00b7290ffa740500000000000000000000000000000000000000000000000000b495a0816c3e7c",
        "nonce": "0x13d",
        "chainId": "0x279f"
      },
      "additionalContracts": [],
      "isFixedGasLimit": false
    },
    {
      "hash": "0xfe224196387af78eb5ecf8932c06e9aacd2826d26a70aebf56a40a1146fbbd14",
      "transactionType": "CALL",
      "contractName": null,
      "contractAddress": "0x6f665ed670b033898f2ccf3c6ffa4793fd8a7e88",
      "function": "setPrice(address,uint256)",
      "arguments": [
        "0xe3F98fdA6dBD38c1017754f1675dcE377381c23C",
        "15322907979729641953"
      ],
      "transaction": {
        "from": "0x6efb11ac41b6657c32dac5ed4874082c700bba29",
        "to": "0x6f665ed670b033898f2ccf3c6ffa4793fd8a7e88",
        "gas": "0x14993",
        "value": "0x0",
        "input": "0x00e4768b000000000000000000000000e3f98fda6dbd38c1017754f1675dce377381c23c000000000000000000000000000000000000000000000000d4a5e79f91c8a1e1",
        "nonce": "0x13e",
        "chainId": "0x279f"
      },
      "additionalContracts": [],
      "isFixedGasLimit": false
    }
  ],
  "receipts": [
    {
      "status": "0x1",
      "cumulativeGasUsed": "0x23c3dd2",
      "logs": [
        {
          "address": "0x6f665ed670b033898f2ccf3c6ffa4793fd8a7e88",
          "topics": [
            "0x7ea068de19c5d7bd35e95fdf77ee7b38bca6c65363aa3e3738aa8a0f242b4f30",
            "0x0000000000000000000000002c53ce7143d24a65410107f50e4aabad9a164480",
            "0xfec9fe313f2641d20f780bc4dbe569d3fad27061f84b764379c2affb4e72afbb"
          ],
          "data": "0x000000000000000000000000000000000000000000000068e5bba55d24b8e4dd0000000000000000000000000000000000000000000000000000000067d2172f",
          "blockHash": "0xf4707ad43dfcc1264409729ec9fe7bfcefdea48cca289c3b1affaaaab865d723",
          "blockNumber": "0x7284e1",
          "blockTimestamp": "0x67d2172f",
          "transactionHash": "0x9b4fcee0601fe13cc46b3405c0afb8dfc84a5d19dfd1e56d618b8fcf3aca8e83",
          "transactionIndex": "0xdf",
          "logIndex": "0x257",
          "removed": false
        }
      ],
      "logsBloom": "0x00000000000000000000000000000000000000000000000000000000000080000000400000000000000000000000000010000000000000000000000004000000000000000000000000000000000001000000400000000000000000000000000000000000000000000000000000000000000000000000000000000000000000000000020000000100000000000000000000000000000000000000000000000000000000000000000000000000000000000000000000000000000000000000000000000000000000000000000000000000000000000000000000000000200000000000000000000000000000100000000000000000000000000800000000000000",
      "type": "0x0",
      "transactionHash": "0x9b4fcee0601fe13cc46b3405c0afb8dfc84a5d19dfd1e56d618b8fcf3aca8e83",
      "transactionIndex": "0xdf",
      "blockHash": "0xf4707ad43dfcc1264409729ec9fe7bfcefdea48cca289c3b1affaaaab865d723",
      "blockNumber": "0x7284e1",
      "gasUsed": "0x13754",
      "effectiveGasPrice": "0xc1b710800",
      "from": "0x6efb11ac41b6657c32dac5ed4874082c700bba29",
      "to": "0x6f665ed670b033898f2ccf3c6ffa4793fd8a7e88",
      "contractAddress": null
    },
    {
      "status": "0x1",
      "cumulativeGasUsed": "0x23d8788",
      "logs": [
        {
          "address": "0x6f665ed670b033898f2ccf3c6ffa4793fd8a7e88",
          "topics": [
            "0x7ea068de19c5d7bd35e95fdf77ee7b38bca6c65363aa3e3738aa8a0f242b4f30",
            "0x00000000000000000000000053f7c389cbb801e2abfd301ded6d2a1cf330ac0d",
            "0x2ad90dd93035362ff577f5418f113f8a159d702da9e78702936a991dfb95ca21"
          ],
          "data": "0x0000000000000000000000000000000000000000000008f6e7768fcddb40c9030000000000000000000000000000000000000000000000000000000067d2172f",
          "blockHash": "0xf4707ad43dfcc1264409729ec9fe7bfcefdea48cca289c3b1affaaaab865d723",
          "blockNumber": "0x7284e1",
          "blockTimestamp": "0x67d2172f",
          "transactionHash": "0x437dfce7583f72a053a9e13b89c2ef11ceb5591328552e9dbc493a061b6fe338",
          "transactionIndex": "0xe0",
          "logIndex": "0x258",
          "removed": false
        }
      ],
      "logsBloom": "0x00000000000000000000000000000000000000000000000000000000800000002000400000000000000000000000000010000000000000000000000000000000000004000000000000000000000000000000400000000000000000000000000000000000000000000000000000000000000000000000000000000000000000000000020000000000000000000000000000000000000000000000000000000000000000000001000000000000000000000000000000000000000000000000000000000000000000000001000000000000000000000000000000000000208000000000000000000000000000100000000000000000000000000000000000000000",
      "type": "0x0",
      "transactionHash": "0x437dfce7583f72a053a9e13b89c2ef11ceb5591328552e9dbc493a061b6fe338",
      "transactionIndex": "0xe0",
      "blockHash": "0xf4707ad43dfcc1264409729ec9fe7bfcefdea48cca289c3b1affaaaab865d723",
      "blockNumber": "0x7284e1",
      "gasUsed": "0x149b6",
      "effectiveGasPrice": "0xc1b710800",
      "from": "0x6efb11ac41b6657c32dac5ed4874082c700bba29",
      "to": "0x6f665ed670b033898f2ccf3c6ffa4793fd8a7e88",
      "contractAddress": null
    },
    {
      "status": "0x1",
      "cumulativeGasUsed": "0x240d958",
      "logs": [
        {
          "address": "0x6f665ed670b033898f2ccf3c6ffa4793fd8a7e88",
          "topics": [
            "0x7ea068de19c5d7bd35e95fdf77ee7b38bca6c65363aa3e3738aa8a0f242b4f30",
            "0x00000000000000000000000058389610a3d13e8f380ee2ba077a6f36f2a90834",
            "0xc5d2460186f7233c927e7db2dcc703c0e500b653ca82273b7bfad8045d85a470"
          ],
          "data": "0x0000000000000000000000000000000000000000000000000de0b6b3a76400000000000000000000000000000000000000000000000000000000000067d2172f",
          "blockHash": "0xf4707ad43dfcc1264409729ec9fe7bfcefdea48cca289c3b1affaaaab865d723",
          "blockNumber": "0x7284e1",
          "blockTimestamp": "0x67d2172f",
          "transactionHash": "0xf74d0ad7d71a612abc114c4dc7cfaca3512d556244aad012ed8b9b2c34f27594",
          "transactionIndex": "0xe1",
          "logIndex": "0x259",
          "removed": false
        }
      ],
      "logsBloom": "0x000000000000000000000000000000000000000000000000000000000000000080004000000000000000000000000000100000000000000000000000000000000000000000004000000000000000000000004000000000000000000000000000000000000000000000000000400000000000000000000000000000000000000000000a0040000000000000000000000000000000000000000000000000000000000000000000000000000000000000000000000000000000000000000000000000000000000000000000000000000000000000000000000000000000200000000000000000000400000000100000000000000000000000000000000000000000",
      "type": "0x0",
      "transactionHash": "0xf74d0ad7d71a612abc114c4dc7cfaca3512d556244aad012ed8b9b2c34f27594",
      "transactionIndex": "0xe1",
      "blockHash": "0xf4707ad43dfcc1264409729ec9fe7bfcefdea48cca289c3b1affaaaab865d723",
      "blockNumber": "0x7284e1",
      "gasUsed": "0x351d0",
      "effectiveGasPrice": "0xc1b710800",
      "from": "0x6efb11ac41b6657c32dac5ed4874082c700bba29",
      "to": "0x6f665ed670b033898f2ccf3c6ffa4793fd8a7e88",
      "contractAddress": null
    },
    {
      "status": "0x1",
      "cumulativeGasUsed": "0x24222c8",
      "logs": [
        {
          "address": "0x6f665ed670b033898f2ccf3c6ffa4793fd8a7e88",
          "topics": [
            "0x7ea068de19c5d7bd35e95fdf77ee7b38bca6c65363aa3e3738aa8a0f242b4f30",
            "0x000000000000000000000000f9861d7478f8957679b26404bd6272c39f949c29",
            "0x1c0ccbd35ba468bdd0237ee29c3319448a546ec1d4851e932b643527181bf96a"
          ],
          "data": "0x000000000000000000000000000000000000000000000000000058fd3bb784f20000000000000000000000000000000000000000000000000000000067d2172f",
          "blockHash": "0xf4707ad43dfcc1264409729ec9fe7bfcefdea48cca289c3b1affaaaab865d723",
          "blockNumber": "0x7284e1",
          "blockTimestamp": "0x67d2172f",
          "transactionHash": "0x4b30e92b52fb0c5edc98db55998e633c6af587d29fbe80ad847cc042532120f6",
          "transactionIndex": "0xe2",
          "logIndex": "0x25a",
          "removed": false
        }
      ],
      "logsBloom": "0x00000000000000000000000000000000000000800000000000000000000000000000400000000000008000000000000010000000000000000000000000000000000000000000000000000000000000000000400000000000000000000000000000000000000000000000004000000000000080000000000000000000000000002000020000000000000000000000000000000000000000000000000000000000000000000000000000001000000000000000000000000000000000000000000000000000000000000000000000000000000000000000000000000000200000000000000000000000000000100000000000000000000000000000000000000000",
      "type": "0x0",
      "transactionHash": "0x4b30e92b52fb0c5edc98db55998e633c6af587d29fbe80ad847cc042532120f6",
      "transactionIndex": "0xe2",
      "blockHash": "0xf4707ad43dfcc1264409729ec9fe7bfcefdea48cca289c3b1affaaaab865d723",
      "blockNumber": "0x7284e1",
      "gasUsed": "0x14970",
      "effectiveGasPrice": "0xc1b710800",
      "from": "0x6efb11ac41b6657c32dac5ed4874082c700bba29",
      "to": "0x6f665ed670b033898f2ccf3c6ffa4793fd8a7e88",
      "contractAddress": null
    },
    {
      "status": "0x1",
      "cumulativeGasUsed": "0x2436c5b",
      "logs": [
        {
          "address": "0x6f665ed670b033898f2ccf3c6ffa4793fd8a7e88",
          "topics": [
            "0x7ea068de19c5d7bd35e95fdf77ee7b38bca6c65363aa3e3738aa8a0f242b4f30",
            "0x0000000000000000000000001889cfb8746716a0ac50e59a54f190987c5f04e6",
            "0x82fe12dbc9acb173c16ef225535487ccf6311d42fbfebd50a210ee0a1f70bedf"
          ],
          "data": "0x000000000000000000000000000000000000000000000000015ced6e31d4bef00000000000000000000000000000000000000000000000000000000067d2172f",
          "blockHash": "0xf4707ad43dfcc1264409729ec9fe7bfcefdea48cca289c3b1affaaaab865d723",
          "blockNumber": "0x7284e1",
          "blockTimestamp": "0x67d2172f",
          "transactionHash": "0xc9fcbc1917c796db6ec53f7c6d7721141c5bfd3488441cdedd6b94a809bb1284",
          "transactionIndex": "0xe3",
          "logIndex": "0x25b",
          "removed": false
        }
      ],
      "logsBloom": "0x00000000000000000000000000000000000000000000000000000000000000000000600000000000000000000000000010000000000000000000000000100000000000000000000000000000000000000000400002000000000000000000000000000000000000000000000000000000000000000000000000000000000000000000020000000000000000000000000000000000000000000000000000000000004000000000000000000000000000000000000000000000000000000000000000000000000000000000000000000000000000000000000000000000200000000000000000000000000000100000000000000400000100000000000000000000",
      "type": "0x0",
      "transactionHash": "0xc9fcbc1917c796db6ec53f7c6d7721141c5bfd3488441cdedd6b94a809bb1284",
      "transactionIndex": "0xe3",
      "blockHash": "0xf4707ad43dfcc1264409729ec9fe7bfcefdea48cca289c3b1affaaaab865d723",
      "blockNumber": "0x7284e1",
      "gasUsed": "0x14993",
      "effectiveGasPrice": "0xc1b710800",
      "from": "0x6efb11ac41b6657c32dac5ed4874082c700bba29",
      "to": "0x6f665ed670b033898f2ccf3c6ffa4793fd8a7e88",
      "contractAddress": null
    },
    {
      "status": "0x1",
      "cumulativeGasUsed": "0x244b5cb",
      "logs": [
        {
          "address": "0x6f665ed670b033898f2ccf3c6ffa4793fd8a7e88",
          "topics": [
            "0x7ea068de19c5d7bd35e95fdf77ee7b38bca6c65363aa3e3738aa8a0f242b4f30",
            "0x0000000000000000000000006bc8a42d4b2f4bc8e4c3f9ecff00b7290ffa7405",
            "0x069bc27d8b43df02b4ab2dd841ccece1e69cc8bbb58b950c7025036512cfa1ec"
          ],
          "data": "0x00000000000000000000000000000000000000000000000000b495a0816c3e7c0000000000000000000000000000000000000000000000000000000067d2172f",
          "blockHash": "0xf4707ad43dfcc1264409729ec9fe7bfcefdea48cca289c3b1affaaaab865d723",
          "blockNumber": "0x7284e1",
          "blockTimestamp": "0x67d2172f",
          "transactionHash": "0xc05d33bd62ffcbb705289e3d917a8e3585bd84df4f265f3a9dc656624c26806c",
          "transactionIndex": "0xe4",
          "logIndex": "0x25c",
          "removed": false
        }
      ],
      "logsBloom": "0x00000000010000000000000000000000000000001000000000000000000000000000400000000000000000000000000010000000000000000000000000000000000000000000000000000000000000000000400000000000200000000000000000000000000000000000000000000000000000000000000000000000000000000000020000000000000000000000000000000020000000000000000000000000000400000000000000000000000000000000000000000000000000000000000000000000000000000000000000000000000000000000000000000008200000000000000000000000000000100000000000000000000000000000000000000000",
      "type": "0x0",
      "transactionHash": "0xc05d33bd62ffcbb705289e3d917a8e3585bd84df4f265f3a9dc656624c26806c",
      "transactionIndex": "0xe4",
      "blockHash": "0xf4707ad43dfcc1264409729ec9fe7bfcefdea48cca289c3b1affaaaab865d723",
      "blockNumber": "0x7284e1",
      "gasUsed": "0x14970",
      "effectiveGasPrice": "0xc1b710800",
      "from": "0x6efb11ac41b6657c32dac5ed4874082c700bba29",
      "to": "0x6f665ed670b033898f2ccf3c6ffa4793fd8a7e88",
      "contractAddress": null
    },
    {
      "status": "0x1",
      "cumulativeGasUsed": "0x245ff5e",
      "logs": [
        {
          "address": "0x6f665ed670b033898f2ccf3c6ffa4793fd8a7e88",
          "topics": [
            "0x7ea068de19c5d7bd35e95fdf77ee7b38bca6c65363aa3e3738aa8a0f242b4f30",
            "0x000000000000000000000000e3f98fda6dbd38c1017754f1675dce377381c23c",
            "0x66673a8318c307d044b7225c95185c0e7f0af3ec0386514bebc75356b31c918f"
          ],
          "data": "0x000000000000000000000000000000000000000000000000d4a5e79f91c8a1e10000000000000000000000000000000000000000000000000000000067d2172f",
          "blockHash": "0xf4707ad43dfcc1264409729ec9fe7bfcefdea48cca289c3b1affaaaab865d723",
          "blockNumber": "0x7284e1",
          "blockTimestamp": "0x67d2172f",
          "transactionHash": "0xfe224196387af78eb5ecf8932c06e9aacd2826d26a70aebf56a40a1146fbbd14",
          "transactionIndex": "0xe5",
          "logIndex": "0x25d",
          "removed": false
        }
      ],
      "logsBloom": "0x00000000000000000000000000000000000000000000000000000000000000000000400000800000000000000000000010000000000000000000000000000000000000000000000000000000000000000000400000000000000000000800000000000000000000000000000000000000000000000000000000000000000000000000020000000000000000080000000000000000000000000000000000000000000000000000000000000000000000000001000000000000000000000000000000000000000000000000000000000000000000000000000000000020200000000000000000000000000000100010000000000000000000000000000000000000",
      "type": "0x0",
      "transactionHash": "0xfe224196387af78eb5ecf8932c06e9aacd2826d26a70aebf56a40a1146fbbd14",
      "transactionIndex": "0xe5",
      "blockHash": "0xf4707ad43dfcc1264409729ec9fe7bfcefdea48cca289c3b1affaaaab865d723",
      "blockNumber": "0x7284e1",
      "gasUsed": "0x14993",
      "effectiveGasPrice": "0xc1b710800",
      "from": "0x6efb11ac41b6657c32dac5ed4874082c700bba29",
      "to": "0x6f665ed670b033898f2ccf3c6ffa4793fd8a7e88",
      "contractAddress": null
    }
  ],
  "libraries": [],
  "pending": [],
  "returns": {},
  "timestamp": 1741821745,
  "chain": 10143,
  "commit": "e7e6a38"
}