{
  "transactions": [
    {
      "hash": "0x21b025f07c2a199e25817e99ef05e8f11e67d3f56a3bdfc8a4ea2993909d44f7",
      "transactionType": "CALL",
      "contractName": null,
      "contractAddress": "0xe18769210e128687bf2488fc2c967e9dd6576d16",
      "function": "setPrice(address,uint256)",
      "arguments": [
        "0x2c53Ce7143D24A65410107F50e4AABad9A164480",
        "1912684564572617668485"
      ],
      "transaction": {
        "from": "0x6efb11ac41b6657c32dac5ed4874082c700bba29",
        "to": "0xe18769210e128687bf2488fc2c967e9dd6576d16",
        "gas": "0x13754",
        "value": "0x0",
        "input": "0x00e4768b0000000000000000000000002c53ce7143d24a65410107f50e4aabad9a164480000000000000000000000000000000000000000000000067afd49da443917785",
        "nonce": "0xee",
        "chainId": "0x279f"
      },
      "additionalContracts": [],
      "isFixedGasLimit": false
    },
    {
      "hash": "0x3fecbcbca05fd80bbe3a935122101561e4ff53cb16a161a8b19dcdffb34f1049",
      "transactionType": "CALL",
      "contractName": null,
      "contractAddress": "0xe18769210e128687bf2488fc2c967e9dd6576d16",
      "function": "setPrice(address,uint256)",
      "arguments": [
        "0x53f7C389CBB801e2ABfD301deD6D2A1cf330ac0D",
        "43295753792997109231763"
      ],
      "transaction": {
        "from": "0x6efb11ac41b6657c32dac5ed4874082c700bba29",
        "to": "0xe18769210e128687bf2488fc2c967e9dd6576d16",
        "gas": "0x149b6",
        "value": "0x0",
        "input": "0x00e4768b00000000000000000000000053f7c389cbb801e2abfd301ded6d2a1cf330ac0d00000000000000000000000000000000000000000000092b1148bbfefbfb7093",
        "nonce": "0xef",
        "chainId": "0x279f"
      },
      "additionalContracts": [],
      "isFixedGasLimit": false
    },
    {
      "hash": "0x347d3f38a6bf7044516cb6cd5ff4eac224be80ec8355f3e97f42deca191de29b",
      "transactionType": "CALL",
      "contractName": null,
      "contractAddress": "0xe18769210e128687bf2488fc2c967e9dd6576d16",
      "function": "setPrice(address,uint256)",
      "arguments": [
        "0x58389610A3D13e8f380ee2bA077A6F36f2A90834",
        "1000000000000000000"
      ],
      "transaction": {
        "from": "0x6efb11ac41b6657c32dac5ed4874082c700bba29",
        "to": "0xe18769210e128687bf2488fc2c967e9dd6576d16",
        "gas": "0x351d0",
        "value": "0x0",
        "input": "0x00e4768b00000000000000000000000058389610a3d13e8f380ee2ba077a6f36f2a908340000000000000000000000000000000000000000000000000de0b6b3a7640000",
        "nonce": "0xf0",
        "chainId": "0x279f"
      },
      "additionalContracts": [],
      "isFixedGasLimit": false
    },
    {
      "hash": "0x58d7155ccc17903bdeb46188c47e9300cd218e54ed1f243c76f4876045b2056c",
      "transactionType": "CALL",
      "contractName": null,
      "contractAddress": "0xe18769210e128687bf2488fc2c967e9dd6576d16",
      "function": "setPrice(address,uint256)",
      "arguments": [
        "0xF9861d7478f8957679b26404Bd6272c39f949C29",
        "104378599098962"
      ],
      "transaction": {
        "from": "0x6efb11ac41b6657c32dac5ed4874082c700bba29",
        "to": "0xe18769210e128687bf2488fc2c967e9dd6576d16",
        "gas": "0x14970",
        "value": "0x0",
        "input": "0x00e4768b000000000000000000000000f9861d7478f8957679b26404bd6272c39f949c2900000000000000000000000000000000000000000000000000005eee89524a52",
        "nonce": "0xf1",
        "chainId": "0x279f"
      },
      "additionalContracts": [],
      "isFixedGasLimit": false
    },
    {
      "hash": "0x03bec93779477f4e0af7dd69eb38a98070d528b9b7239b2044013d72e3216a59",
      "transactionType": "CALL",
      "contractName": null,
      "contractAddress": "0xe18769210e128687bf2488fc2c967e9dd6576d16",
      "function": "setPrice(address,uint256)",
      "arguments": [
        "0x1889CFb8746716a0AC50E59a54f190987C5F04E6",
        "96486498455994025"
      ],
      "transaction": {
        "from": "0x6efb11ac41b6657c32dac5ed4874082c700bba29",
        "to": "0xe18769210e128687bf2488fc2c967e9dd6576d16",
        "gas": "0x14993",
        "value": "0x0",
        "input": "0x00e4768b0000000000000000000000001889cfb8746716a0ac50e59a54f190987c5f04e60000000000000000000000000000000000000000000000000156c9f58a173ea9",
        "nonce": "0xf2",
        "chainId": "0x279f"
      },
      "additionalContracts": [],
      "isFixedGasLimit": false
    },
    {
      "hash": "0xace52e2ef5abb00bc7a50731ceadc195b5fc06e0d6191ac5d3ad504253af6e66",
      "transactionType": "CALL",
      "contractName": null,
      "contractAddress": "0xe18769210e128687bf2488fc2c967e9dd6576d16",
      "function": "setPrice(address,uint256)",
      "arguments": [
        "0x6bc8a42d4B2F4bc8e4c3f9eCFF00B7290Ffa7405",
        "51633975734524584"
      ],
      "transaction": {
        "from": "0x6efb11ac41b6657c32dac5ed4874082c700bba29",
        "to": "0xe18769210e128687bf2488fc2c967e9dd6576d16",
        "gas": "0x14970",
        "value": "0x0",
        "input": "0x00e4768b0000000000000000000000006bc8a42d4b2f4bc8e4c3f9ecff00b7290ffa740500000000000000000000000000000000000000000000000000b770d3cdff5aa8",
        "nonce": "0xf3",
        "chainId": "0x279f"
      },
      "additionalContracts": [],
      "isFixedGasLimit": false
    },
    {
      "hash": "0x62fe6816e7081f4a054d68b8246a4808719dcef84065e8bc30f08d9a4eb85cd5",
      "transactionType": "CALL",
      "contractName": null,
      "contractAddress": "0xe18769210e128687bf2488fc2c967e9dd6576d16",
      "function": "setPrice(address,uint256)",
      "arguments": [
        "0xe3F98fdA6dBD38c1017754f1675dcE377381c23C",
        "14722673992443244183"
      ],
      "transaction": {
        "from": "0x6efb11ac41b6657c32dac5ed4874082c700bba29",
        "to": "0xe18769210e128687bf2488fc2c967e9dd6576d16",
        "gas": "0x14993",
        "value": "0x0",
        "input": "0x00e4768b000000000000000000000000e3f98fda6dbd38c1017754f1675dce377381c23c000000000000000000000000000000000000000000000000cc5171fdf7762e97",
        "nonce": "0xf4",
        "chainId": "0x279f"
      },
      "additionalContracts": [],
      "isFixedGasLimit": false
    }
  ],
  "receipts": [
    {
      "status": "0x1",
      "cumulativeGasUsed": "0x4030e45",
      "logs": [
        {
          "address": "0xe18769210e128687bf2488fc2c967e9dd6576d16",
          "topics": [
            "0x7ea068de19c5d7bd35e95fdf77ee7b38bca6c65363aa3e3738aa8a0f242b4f30",
            "0x0000000000000000000000002c53ce7143d24a65410107f50e4aabad9a164480",
            "0xf436afc8f96a924e41eb1301ea309ea1d64754b3ff34532ab3cdb09a52e0cc94"
          ],
          "data": "0x000000000000000000000000000000000000000000000067afd49da4439177850000000000000000000000000000000000000000000000000000000067d1d902",
          "blockHash": "0xf4620bad5ca2721f1a24466608f266e998beee3696fc15992a43d6dc26a65fda",
          "blockNumber": "0x722493",
          "blockTimestamp": "0x67d1d902",
          "transactionHash": "0x21b025f07c2a199e25817e99ef05e8f11e67d3f56a3bdfc8a4ea2993909d44f7",
          "transactionIndex": "0x238",
          "logIndex": "0x30d",
          "removed": false
        }
      ],
      "logsBloom": "0x00000000000000000000000000000000000000000000000000000000000080000000000000000000000000000000000010000000000000000000000000000000000000000000000000000000000000000000400000000000000000000000000000000000000000000000000000000000000000000000010000000000000000000000020000000100000000000000000000000008000000000000000000000000000000000000040000020000000000000000000000000000000000000000000000000000000000000000000000000008000000000000000000004000000000000000000000000000000000000000000000000000000000000800000000000000",
      "type": "0x2",
      "transactionHash": "0x21b025f07c2a199e25817e99ef05e8f11e67d3f56a3bdfc8a4ea2993909d44f7",
      "transactionIndex": "0x238",
      "blockHash": "0xf4620bad5ca2721f1a24466608f266e998beee3696fc15992a43d6dc26a65fda",
      "blockNumber": "0x722493",
      "gasUsed": "0x13754",
      "effectiveGasPrice": "0xba43b7401",
      "from": "0x6efb11ac41b6657c32dac5ed4874082c700bba29",
      "to": "0xe18769210e128687bf2488fc2c967e9dd6576d16",
      "contractAddress": null
    },
    {
      "status": "0x1",
      "cumulativeGasUsed": "0x40457fb",
      "logs": [
        {
          "address": "0xe18769210e128687bf2488fc2c967e9dd6576d16",
          "topics": [
            "0x7ea068de19c5d7bd35e95fdf77ee7b38bca6c65363aa3e3738aa8a0f242b4f30",
            "0x00000000000000000000000053f7c389cbb801e2abfd301ded6d2a1cf330ac0d",
            "0x2ad90dd93035362ff577f5418f113f8a159d702da9e78702936a991dfb95ca21"
          ],
          "data": "0x00000000000000000000000000000000000000000000092b1148bbfefbfb70930000000000000000000000000000000000000000000000000000000067d1d902",
          "blockHash": "0xf4620bad5ca2721f1a24466608f266e998beee3696fc15992a43d6dc26a65fda",
          "blockNumber": "0x722493",
          "blockTimestamp": "0x67d1d902",
          "transactionHash": "0x3fecbcbca05fd80bbe3a935122101561e4ff53cb16a161a8b19dcdffb34f1049",
          "transactionIndex": "0x239",
          "logIndex": "0x30e",
          "removed": false
        }
      ],
      "logsBloom": "0x00000000000000000000000000000000000000000000000000000000800000002000000000000000000000000000000010000000000000000000000000000000000004000000000000000000000000000000400000000000000000000000000000000000000000000000000000000000000000000000000000000000000000000000020000000000000000000000000000000008000000000000000000000000000000000001000000020000000000000000000000000000000000000000000000000000000000000001000000000000000000000000000000004000008000000000000000000000000000000000000000000000000000000000000000000000",
      "type": "0x2",
      "transactionHash": "0x3fecbcbca05fd80bbe3a935122101561e4ff53cb16a161a8b19dcdffb34f1049",
      "transactionIndex": "0x239",
      "blockHash": "0xf4620bad5ca2721f1a24466608f266e998beee3696fc15992a43d6dc26a65fda",
      "blockNumber": "0x722493",
      "gasUsed": "0x149b6",
      "effectiveGasPrice": "0xba43b7401",
      "from": "0x6efb11ac41b6657c32dac5ed4874082c700bba29",
      "to": "0xe18769210e128687bf2488fc2c967e9dd6576d16",
      "contractAddress": null
    },
    {
      "status": "0x1",
      "cumulativeGasUsed": "0x407a9cb",
      "logs": [
        {
          "address": "0xe18769210e128687bf2488fc2c967e9dd6576d16",
          "topics": [
            "0x7ea068de19c5d7bd35e95fdf77ee7b38bca6c65363aa3e3738aa8a0f242b4f30",
            "0x00000000000000000000000058389610a3d13e8f380ee2ba077a6f36f2a90834",
            "0xc5d2460186f7233c927e7db2dcc703c0e500b653ca82273b7bfad8045d85a470"
          ],
          "data": "0x0000000000000000000000000000000000000000000000000de0b6b3a76400000000000000000000000000000000000000000000000000000000000067d1d902",
          "blockHash": "0xf4620bad5ca2721f1a24466608f266e998beee3696fc15992a43d6dc26a65fda",
          "blockNumber": "0x722493",
          "blockTimestamp": "0x67d1d902",
          "transactionHash": "0x347d3f38a6bf7044516cb6cd5ff4eac224be80ec8355f3e97f42deca191de29b",
          "transactionIndex": "0x23a",
          "logIndex": "0x30f",
          "removed": false
        }
      ],
      "logsBloom": "0x000000000000000000000000000000000000000000000000000000000000000080000000000000000000000000000000100000000000000000000000000000000000000000004000000000000000000000004000000000000000000000000000000000000000000000000000400000000000000000000000000000000000000000000a0040000000000000000000000000000008000000000000000000000000000000000000000000020000000000000000000000000000000000000000000000000000000000000000000000000000000000000000000000004000000000000000000000000400000000000000000000000000000000000000000000000000",
      "type": "0x2",
      "transactionHash": "0x347d3f38a6bf7044516cb6cd5ff4eac224be80ec8355f3e97f42deca191de29b",
      "transactionIndex": "0x23a",
      "blockHash": "0xf4620bad5ca2721f1a24466608f266e998beee3696fc15992a43d6dc26a65fda",
      "blockNumber": "0x722493",
      "gasUsed": "0x351d0",
      "effectiveGasPrice": "0xba43b7401",
      "from": "0x6efb11ac41b6657c32dac5ed4874082c700bba29",
      "to": "0xe18769210e128687bf2488fc2c967e9dd6576d16",
      "contractAddress": null
    },
    {
      "status": "0x1",
      "cumulativeGasUsed": "0x408f33b",
      "logs": [
        {
          "address": "0xe18769210e128687bf2488fc2c967e9dd6576d16",
          "topics": [
            "0x7ea068de19c5d7bd35e95fdf77ee7b38bca6c65363aa3e3738aa8a0f242b4f30",
            "0x000000000000000000000000f9861d7478f8957679b26404bd6272c39f949c29",
            "0x1c0ccbd35ba468bdd0237ee29c3319448a546ec1d4851e932b643527181bf96a"
          ],
          "data": "0x00000000000000000000000000000000000000000000000000005eee89524a520000000000000000000000000000000000000000000000000000000067d1d902",
          "blockHash": "0xf4620bad5ca2721f1a24466608f266e998beee3696fc15992a43d6dc26a65fda",
          "blockNumber": "0x722493",
          "blockTimestamp": "0x67d1d902",
          "transactionHash": "0x58d7155ccc17903bdeb46188c47e9300cd218e54ed1f243c76f4876045b2056c",
          "transactionIndex": "0x23b",
          "logIndex": "0x310",
          "removed": false
        }
      ],
      "logsBloom": "0x00000000000000000000000000000000000000800000000000000000000000000000000000000000008000000000000010000000000000000000000000000000000000000000000000000000000000000000400000000000000000000000000000000000000000000000004000000000000080000000000000000000000000002000020000000000000000000000000000000008000000000000000000000000000000000000000000021000000000000000000000000000000000000000000000000000000000000000000000000000000000000000000000004000000000000000000000000000000000000000000000000000000000000000000000000000",
      "type": "0x2",
      "transactionHash": "0x58d7155ccc17903bdeb46188c47e9300cd218e54ed1f243c76f4876045b2056c",
      "transactionIndex": "0x23b",
      "blockHash": "0xf4620bad5ca2721f1a24466608f266e998beee3696fc15992a43d6dc26a65fda",
      "blockNumber": "0x722493",
      "gasUsed": "0x14970",
      "effectiveGasPrice": "0xba43b7401",
      "from": "0x6efb11ac41b6657c32dac5ed4874082c700bba29",
      "to": "0xe18769210e128687bf2488fc2c967e9dd6576d16",
      "contractAddress": null
    },
    {
      "status": "0x1",
      "cumulativeGasUsed": "0x40a3cce",
      "logs": [
        {
          "address": "0xe18769210e128687bf2488fc2c967e9dd6576d16",
          "topics": [
            "0x7ea068de19c5d7bd35e95fdf77ee7b38bca6c65363aa3e3738aa8a0f242b4f30",
            "0x0000000000000000000000001889cfb8746716a0ac50e59a54f190987c5f04e6",
            "0x82fe12dbc9acb173c16ef225535487ccf6311d42fbfebd50a210ee0a1f70bedf"
          ],
          "data": "0x0000000000000000000000000000000000000000000000000156c9f58a173ea90000000000000000000000000000000000000000000000000000000067d1d902",
          "blockHash": "0xf4620bad5ca2721f1a24466608f266e998beee3696fc15992a43d6dc26a65fda",
          "blockNumber": "0x722493",
          "blockTimestamp": "0x67d1d902",
          "transactionHash": "0x03bec93779477f4e0af7dd69eb38a98070d528b9b7239b2044013d72e3216a59",
          "transactionIndex": "0x23c",
          "logIndex": "0x311",
          "removed": false
        }
      ],
      "logsBloom": "0x00000000000000000000000000000000000000000000000000000000000000000000200000000000000000000000000010000000000000000000000000100000000000000000000000000000000000000000400002000000000000000000000000000000000000000000000000000000000000000000000000000000000000000000020000000000000000000000000000000008000000000000000000000000004000000000000000020000000000000000000000000000000000000000000000000000000000000000000000000000000000000000000000004000000000000000000000000000000000000000000000000400000100000000000000000000",
      "type": "0x2",
      "transactionHash": "0x03bec93779477f4e0af7dd69eb38a98070d528b9b7239b2044013d72e3216a59",
      "transactionIndex": "0x23c",
      "blockHash": "0xf4620bad5ca2721f1a24466608f266e998beee3696fc15992a43d6dc26a65fda",
      "blockNumber": "0x722493",
      "gasUsed": "0x14993",
      "effectiveGasPrice": "0xba43b7401",
      "from": "0x6efb11ac41b6657c32dac5ed4874082c700bba29",
      "to": "0xe18769210e128687bf2488fc2c967e9dd6576d16",
      "contractAddress": null
    },
    {
      "status": "0x1",
      "cumulativeGasUsed": "0x40b863e",
      "logs": [
        {
          "address": "0xe18769210e128687bf2488fc2c967e9dd6576d16",
          "topics": [
            "0x7ea068de19c5d7bd35e95fdf77ee7b38bca6c65363aa3e3738aa8a0f242b4f30",
            "0x0000000000000000000000006bc8a42d4b2f4bc8e4c3f9ecff00b7290ffa7405",
            "0x069bc27d8b43df02b4ab2dd841ccece1e69cc8bbb58b950c7025036512cfa1ec"
          ],
          "data": "0x00000000000000000000000000000000000000000000000000b770d3cdff5aa80000000000000000000000000000000000000000000000000000000067d1d902",
          "blockHash": "0xf4620bad5ca2721f1a24466608f266e998beee3696fc15992a43d6dc26a65fda",
          "blockNumber": "0x722493",
          "blockTimestamp": "0x67d1d902",
          "transactionHash": "0xace52e2ef5abb00bc7a50731ceadc195b5fc06e0d6191ac5d3ad504253af6e66",
          "transactionIndex": "0x23d",
          "logIndex": "0x312",
          "removed": false
        }
      ],
      "logsBloom": "0x00000000010000000000000000000000000000001000000000000000000000000000000000000000000000000000000010000000000000000000000000000000000000000000000000000000000000000000400000000000200000000000000000000000000000000000000000000000000000000000000000000000000000000000020000000000000000000000000000000028000000000000000000000000000400000000000000020000000000000000000000000000000000000000000000000000000000000000000000000000000000000000000000004008000000000000000000000000000000000000000000000000000000000000000000000000",
      "type": "0x2",
      "transactionHash": "0xace52e2ef5abb00bc7a50731ceadc195b5fc06e0d6191ac5d3ad504253af6e66",
      "transactionIndex": "0x23d",
      "blockHash": "0xf4620bad5ca2721f1a24466608f266e998beee3696fc15992a43d6dc26a65fda",
      "blockNumber": "0x722493",
      "gasUsed": "0x14970",
      "effectiveGasPrice": "0xba43b7401",
      "from": "0x6efb11ac41b6657c32dac5ed4874082c700bba29",
      "to": "0xe18769210e128687bf2488fc2c967e9dd6576d16",
      "contractAddress": null
    },
    {
      "status": "0x1",
      "cumulativeGasUsed": "0x40ccfd1",
      "logs": [
        {
          "address": "0xe18769210e128687bf2488fc2c967e9dd6576d16",
          "topics": [
            "0x7ea068de19c5d7bd35e95fdf77ee7b38bca6c65363aa3e3738aa8a0f242b4f30",
            "0x000000000000000000000000e3f98fda6dbd38c1017754f1675dce377381c23c",
            "0x66673a8318c307d044b7225c95185c0e7f0af3ec0386514bebc75356b31c918f"
          ],
          "data": "0x000000000000000000000000000000000000000000000000cc5171fdf7762e970000000000000000000000000000000000000000000000000000000067d1d902",
          "blockHash": "0xf4620bad5ca2721f1a24466608f266e998beee3696fc15992a43d6dc26a65fda",
          "blockNumber": "0x722493",
          "blockTimestamp": "0x67d1d902",
          "transactionHash": "0x62fe6816e7081f4a054d68b8246a4808719dcef84065e8bc30f08d9a4eb85cd5",
          "transactionIndex": "0x23e",
          "logIndex": "0x313",
          "removed": false
        }
      ],
      "logsBloom": "0x00000000000000000000000000000000000000000000000000000000000000000000000000800000000000000000000010000000000000000000000000000000000000000000000000000000000000000000400000000000000000000800000000000000000000000000000000000000000000000000000000000000000000000000020000000000000000080000000000000008000000000000000000000000000000000000000000020000000000000001000000000000000000000000000000000000000000000000000000000000000000000000000000004020000000000000000000000000000000000010000000000000000000000000000000000000",
      "type": "0x2",
      "transactionHash": "0x62fe6816e7081f4a054d68b8246a4808719dcef84065e8bc30f08d9a4eb85cd5",
      "transactionIndex": "0x23e",
      "blockHash": "0xf4620bad5ca2721f1a24466608f266e998beee3696fc15992a43d6dc26a65fda",
      "blockNumber": "0x722493",
      "gasUsed": "0x14993",
      "effectiveGasPrice": "0xba43b7401",
      "from": "0x6efb11ac41b6657c32dac5ed4874082c700bba29",
      "to": "0xe18769210e128687bf2488fc2c967e9dd6576d16",
      "contractAddress": null
    }
  ],
  "libraries": [],
  "pending": [],
  "returns": {},
  "timestamp": 1741805832,
  "chain": 10143,
  "commit": "7537796"
}