{
  "transactions": [
    {
      "hash": "0xacd595104f3fcd686cc183ab9c505f5e07433b7cb717d930bf8c699b4a057821",
      "transactionType": "CALL",
      "contractName": null,
      "contractAddress": "0xa540127d90e902863b3f912be752225112058f49",
      "function": "setPrices(address[],(uint256,uint256,uint256,bytes)[])",
      "arguments": [
        "[0x97f3d75FcC683c8F557D637196857FA303f7cebd, 0x37e9b288c56B734c0291d37af478F60cE58a9Fc6]",
        "[(3000000000000000000000, 1741368001, 6640675, 0x10138773b6aff7c0ee89fce97acd01274d0896c57ad064af4e5b2f624103ddf57f73900b0595cb93dc8eacbcf06a1925e80494b942691401ad25ff11e87435231b), (1000000000000000000, 1741368001, 6640675, 0x80d7b139e0ae25c0234490a4ea07fde9a0aac3740fb00612807182503a94a9184359b5602a1631921012385db0c153bfd73923d72dfb09f168fcd8939cb019f61b)]"
      ],
      "transaction": {
        "from": "0x6efb11ac41b6657c32dac5ed4874082c700bba29",
        "to": "0xa540127d90e902863b3f912be752225112058f49",
        "gas": "0x5ccf3",
        "value": "0x0",
        "input": "0xbd8bab34000000000000000000000000000000000000000000000000000000000000004000000000000000000000000000000000000000000000000000000000000000a0000000000000000000000000000000000000000000000000000000000000000200000000000000000000000097f3d75fcc683c8f557d637196857fa303f7cebd00000000000000000000000037e9b288c56b734c0291d37af478f60ce58a9fc60000000000000000000000000000000000000000000000000000000000000002000000000000000000000000000000000000000000000000000000000000004000000000000000000000000000000000000000000000000000000000000001400000000000000000000000000000000000000000000000a2a15d09519be000000000000000000000000000000000000000000000000000000000000067cb2ac100000000000000000000000000000000000000000000000000000000006554230000000000000000000000000000000000000000000000000000000000000080000000000000000000000000000000000000000000000000000000000000004110138773b6aff7c0ee89fce97acd01274d0896c57ad064af4e5b2f624103ddf57f73900b0595cb93dc8eacbcf06a1925e80494b942691401ad25ff11e87435231b000000000000000000000000000000000000000000000000000000000000000000000000000000000000000000000000000000000000000de0b6b3a76400000000000000000000000000000000000000000000000000000000000067cb2ac100000000000000000000000000000000000000000000000000000000006554230000000000000000000000000000000000000000000000000000000000000080000000000000000000000000000000000000000000000000000000000000004180d7b139e0ae25c0234490a4ea07fde9a0aac3740fb00612807182503a94a9184359b5602a1631921012385db0c153bfd73923d72dfb09f168fcd8939cb019f61b00000000000000000000000000000000000000000000000000000000000000",
        "nonce": "0x16",
        "chainId": "0x279f"
      },
      "additionalContracts": [],
      "isFixedGasLimit": false
    }
  ],
  "receipts": [
    {
      "status": "0x1",
      "cumulativeGasUsed": "0xa7aa15",
      "logs": [
        {
          "address": "0xa540127d90e902863b3f912be752225112058f49",
          "topics": [
            "0x8647dab5101cbe18afb171756e9753802f9d66725bf2346b079b8b1a275e0116"
          ],
          "data": "0x00000000000000000000000097f3d75fcc683c8f557d637196857fa303f7cebd0000000000000000000000000000000000000000000000a2a15d09519be000000000000000000000000000000000000000000000000000000000000067cb2ac10000000000000000000000000000000000000000000000000000000000655423",
          "blockHash": "0x190c72c5cc5f18b25169603fceb9be15b86ec17e2c9dabbdbf4b8c99d88ce772",
          "blockNumber": "0x65543b",
          "blockTimestamp": "0x67cb2acd",
          "transactionHash": "0xacd595104f3fcd686cc183ab9c505f5e07433b7cb717d930bf8c699b4a057821",
          "transactionIndex": "0x37",
          "logIndex": "0x79",
          "removed": false
        },
        {
          "address": "0xa540127d90e902863b3f912be752225112058f49",
          "topics": [
            "0x8647dab5101cbe18afb171756e9753802f9d66725bf2346b079b8b1a275e0116"
          ],
          "data": "0x00000000000000000000000037e9b288c56b734c0291d37af478f60ce58a9fc60000000000000000000000000000000000000000000000000de0b6b3a76400000000000000000000000000000000000000000000000000000000000067cb2ac10000000000000000000000000000000000000000000000000000000000655423",
          "blockHash": "0x190c72c5cc5f18b25169603fceb9be15b86ec17e2c9dabbdbf4b8c99d88ce772",
          "blockNumber": "0x65543b",
          "blockTimestamp": "0x67cb2acd",
          "transactionHash": "0xacd595104f3fcd686cc183ab9c505f5e07433b7cb717d930bf8c699b4a057821",
          "transactionIndex": "0x37",
          "logIndex": "0x7a",
          "removed": false
        }
      ],
      "logsBloom": "0x00000000000000000000000000000000000000000000000000000000000200000000000000000000000000000000000020000000000000000000000000000000000000000000000000000000000000000000000000000000000000000000000000000000000000000000000000000000000000000000000000000000000000000000000000000000000000000000000000000000000000000400000000000000000000000000000000000000000000000000000000000000000000000000000000000000000000000000000000000000000000000008000000000000000000000000000000000000000000000001000000000040000000000000000000000000",
      "type": "0x2",
      "transactionHash": "0xacd595104f3fcd686cc183ab9c505f5e07433b7cb717d930bf8c699b4a057821",
      "transactionIndex": "0x37",
      "blockHash": "0x190c72c5cc5f18b25169603fceb9be15b86ec17e2c9dabbdbf4b8c99d88ce772",
      "blockNumber": "0x65543b",
      "gasUsed": "0x5ccf3",
      "effectiveGasPrice": "0xba43b7401",
      "from": "0x6efb11ac41b6657c32dac5ed4874082c700bba29",
      "to": "0xa540127d90e902863b3f912be752225112058f49",
      "contractAddress": null
    }
  ],
  "libraries": [],
  "pending": [],
  "returns": {},
  "timestamp": 1741368015,
  "chain": 10143,
  "commit": "75ade75"
}