{
  "transactions": [
    {
      "hash": "0xee3288987fb93ab271219e61d102464f0f5ac2b162be9284cc0e36f56fa41ce7",
      "transactionType": "CALL",
      "contractName": null,
      "contractAddress": "0xd8a8f5c1e6fc685409c94af2e335e1421cbd09a0",
      "function": "requestNewOracleTask(address,address,string,(string,string,string)[])",
      "arguments": [
        "0x2c53Ce7143D24A65410107F50e4AABad9A164480",
        "0x58389610A3D13e8f380ee2bA077A6F36f2A90834",
        "WETH/USDT",
        "[(binance, ETHUSDT, ), (okx, ETH-USDT, )]"
      ],
      "transaction": {
        "from": "0x6efb11ac41b6657c32dac5ed4874082c700bba29",
        "to": "0xd8a8f5c1e6fc685409c94af2e335e1421cbd09a0",
        "gas": "0x1c7cd",
        "value": "0x0",
        "input": "0xfcfd37160000000000000000000000002c53ce7143d24a65410107f50e4aabad9a16448000000000000000000000000058389610a3d13e8f380ee2ba077a6f36f2a90834000000000000000000000000000000000000000000000000000000000000008000000000000000000000000000000000000000000000000000000000000000c00000000000000000000000000000000000000000000000000000000000000009574554482f555344540000000000000000000000000000000000000000000000000000000000000000000000000000000000000000000000000000000000000200000000000000000000000000000000000000000000000000000000000000400000000000000000000000000000000000000000000000000000000000000140000000000000000000000000000000000000000000000000000000000000006000000000000000000000000000000000000000000000000000000000000000a000000000000000000000000000000000000000000000000000000000000000e0000000000000000000000000000000000000000000000000000000000000000762696e616e636500000000000000000000000000000000000000000000000000000000000000000000000000000000000000000000000000000000000000000745544855534454000000000000000000000000000000000000000000000000000000000000000000000000000000000000000000000000000000000000000000000000000000000000000000000000000000000000000000000000000000006000000000000000000000000000000000000000000000000000000000000000a000000000000000000000000000000000000000000000000000000000000000e000000000000000000000000000000000000000000000000000000000000000036f6b78000000000000000000000000000000000000000000000000000000000000000000000000000000000000000000000000000000000000000000000000084554482d555344540000000000000000000000000000000000000000000000000000000000000000000000000000000000000000000000000000000000000000",
        "nonce": "0x1c1",
        "chainId": "0x279f"
      },
      "additionalContracts": [],
      "isFixedGasLimit": false
    }
  ],
  "receipts": [
    {
      "status": "0x1",
      "cumulativeGasUsed": "0x58bd37",
      "logs": [
        {
          "address": "0xd8a8f5c1e6fc685409c94af2e335e1421cbd09a0",
          "topics": [
            "0x070cdb07f0dc5823c3ffbe95911c3fc1a811ada8f0897aaafed7c0197f11b566",
            "0x0000000000000000000000000000000000000000000000000000000000000007"
          ],
          "data": "0x00000000000000000000000000000000000000000000000000000000000000200000000000000000000000002c53ce7143d24a65410107f50e4aabad9a16448000000000000000000000000058389610a3d13e8f380ee2ba077a6f36f2a9083400000000000000000000000000000000000000000000000000000000007441e2000000000000000000000000000000000000000000000000000000000000000100000000000000000000000000000000000000000000000000000000000000c000000000000000000000000000000000000000000000000000000000000001000000000000000000000000000000000000000000000000000000000000000009574554482f555344540000000000000000000000000000000000000000000000000000000000000000000000000000000000000000000000000000000000000200000000000000000000000000000000000000000000000000000000000000400000000000000000000000000000000000000000000000000000000000000140000000000000000000000000000000000000000000000000000000000000006000000000000000000000000000000000000000000000000000000000000000a000000000000000000000000000000000000000000000000000000000000000e0000000000000000000000000000000000000000000000000000000000000000762696e616e636500000000000000000000000000000000000000000000000000000000000000000000000000000000000000000000000000000000000000000745544855534454000000000000000000000000000000000000000000000000000000000000000000000000000000000000000000000000000000000000000000000000000000000000000000000000000000000000000000000000000000006000000000000000000000000000000000000000000000000000000000000000a000000000000000000000000000000000000000000000000000000000000000e000000000000000000000000000000000000000000000000000000000000000036f6b78000000000000000000000000000000000000000000000000000000000000000000000000000000000000000000000000000000000000000000000000084554482d555344540000000000000000000000000000000000000000000000000000000000000000000000000000000000000000000000000000000000000000",
          "blockHash": "0x461e30e608980b590f1ecc7c46b982511bb5cf37d2752ee546820d05e8650570",
          "blockNumber": "0x7441e2",
          "blockTimestamp": "0x67d3294c",
          "transactionHash": "0xee3288987fb93ab271219e61d102464f0f5ac2b162be9284cc0e36f56fa41ce7",
          "transactionIndex": "0x22",
          "logIndex": "0x50",
          "removed": false
        }
      ],
      "logsBloom": "0x00000000000000000000000000000000000000000000000000000000000000000000000000000000000000000000000000001000000000000000000000000000000020000000000000000000000000000000000000000000000000000000000000000000000000000000000000000000000000000000000000000000000000000000000000000000000000000000000000000000000000020000000010000000000000000000000020000010100000000000000000000000000000000000000000000000000000000000000000000000000000000000000000800100000000000000000000000000000000000000000000000000000000000000000000000000",
      "type": "0x0",
      "transactionHash": "0xee3288987fb93ab271219e61d102464f0f5ac2b162be9284cc0e36f56fa41ce7",
      "transactionIndex": "0x22",
      "blockHash": "0x461e30e608980b590f1ecc7c46b982511bb5cf37d2752ee546820d05e8650570",
      "blockNumber": "0x7441e2",
      "gasUsed": "0x1c7cd",
      "effectiveGasPrice": "0xc1b710800",
      "from": "0x6efb11ac41b6657c32dac5ed4874082c700bba29",
      "to": "0xd8a8f5c1e6fc685409c94af2e335e1421cbd09a0",
      "contractAddress": null
    }
  ],
  "libraries": [],
  "pending": [],
  "returns": {},
  "timestamp": 1741891917,
  "chain": 10143,
  "commit": "69d67f9"
}