{
  "transactions": [
    {
      "hash": "0x6bdd8bddaa3f8f0e8b75cd9001ada0c69c852db1544508025d9626da05240fd6",
      "transactionType": "CALL",
      "contractName": null,
      "contractAddress": "0x4fb1d63c0949451a5a8df61aa559fa0f90c54420",
      "function": "setPrices(address[],(uint256,uint256,uint256,bytes)[])",
      "arguments": [
        "[0x97f3d75FcC683c8F557D637196857FA303f7cebd, 0x37e9b288c56B734c0291d37af478F60cE58a9Fc6]",
        "[(3000000000000000000000, 1741409861, 6724104, 0x542acae8053c9d32c51a1336ee06bca08b99cac22f909f5459a29600552492f720ca76ae3a0cefb3caf7e458676306c51be47a3d972a1e4f0669e660579eda071b), (1000000000000000000, 1741409861, 6724104, 0x405657421996b45a0be73f3d38512d48cfd8813675fc992b0a73c1c4073f8a5d10abc3e4113e153da18a79eb64b4909ef165d81abee3384f70ab1f9b8fcff45c1b)]"
      ],
      "transaction": {
        "from": "0x6efb11ac41b6657c32dac5ed4874082c700bba29",
        "to": "0x4fb1d63c0949451a5a8df61aa559fa0f90c54420",
        "gas": "0x1851c",
        "value": "0x0",
        "input": "0xbd8bab34000000000000000000000000000000000000000000000000000000000000004000000000000000000000000000000000000000000000000000000000000000a0000000000000000000000000000000000000000000000000000000000000000200000000000000000000000097f3d75fcc683c8f557d637196857fa303f7cebd00000000000000000000000037e9b288c56b734c0291d37af478f60ce58a9fc60000000000000000000000000000000000000000000000000000000000000002000000000000000000000000000000000000000000000000000000000000004000000000000000000000000000000000000000000000000000000000000001400000000000000000000000000000000000000000000000a2a15d09519be000000000000000000000000000000000000000000000000000000000000067cbce450000000000000000000000000000000000000000000000000000000000669a0800000000000000000000000000000000000000000000000000000000000000800000000000000000000000000000000000000000000000000000000000000041542acae8053c9d32c51a1336ee06bca08b99cac22f909f5459a29600552492f720ca76ae3a0cefb3caf7e458676306c51be47a3d972a1e4f0669e660579eda071b000000000000000000000000000000000000000000000000000000000000000000000000000000000000000000000000000000000000000de0b6b3a76400000000000000000000000000000000000000000000000000000000000067cbce450000000000000000000000000000000000000000000000000000000000669a0800000000000000000000000000000000000000000000000000000000000000800000000000000000000000000000000000000000000000000000000000000041405657421996b45a0be73f3d38512d48cfd8813675fc992b0a73c1c4073f8a5d10abc3e4113e153da18a79eb64b4909ef165d81abee3384f70ab1f9b8fcff45c1b00000000000000000000000000000000000000000000000000000000000000",
        "nonce": "0x4b",
        "chainId": "0x279f"
      },
      "additionalContracts": [],
      "isFixedGasLimit": false
    },
    {
      "hash": "0xf00dbbc53a2d1fea3d29cda20bab4a0f008abe76bcc7a19b7c703babd062ab40",
      "transactionType": "CALL",
      "contractName": null,
      "contractAddress": "0xd89707ab6a869341b4143c0dab2ae7a80c96324a",
      "function": "executeOrder(uint256)",
      "arguments": [
        "0"
      ],
      "transaction": {
        "from": "0x6efb11ac41b6657c32dac5ed4874082c700bba29",
        "to": "0xd89707ab6a869341b4143c0dab2ae7a80c96324a",
        "gas": "0xa81d5",
        "value": "0x0",
        "input": "0x94f611340000000000000000000000000000000000000000000000000000000000000000",
        "nonce": "0x4c",
        "chainId": "0x279f"
      },
      "additionalContracts": [],
      "isFixedGasLimit": false
    }
  ],
  "receipts": [
    {
      "status": "0x1",
      "cumulativeGasUsed": "0x8caa5f",
      "logs": [
        {
          "address": "0x4fb1d63c0949451a5a8df61aa559fa0f90c54420",
          "topics": [
            "0x8647dab5101cbe18afb171756e9753802f9d66725bf2346b079b8b1a275e0116"
          ],
          "data": "0x00000000000000000000000097f3d75fcc683c8f557d637196857fa303f7cebd0000000000000000000000000000000000000000000000a2a15d09519be000000000000000000000000000000000000000000000000000000000000067cbce450000000000000000000000000000000000000000000000000000000000669a08",
          "blockHash": "0x967c46149735b4fedadd4c613dc6db0002c3ff9cc29411d7028cdccbf393c3ba",
          "blockNumber": "0x669a26",
          "blockTimestamp": "0x67cbce54",
          "transactionHash": "0x6bdd8bddaa3f8f0e8b75cd9001ada0c69c852db1544508025d9626da05240fd6",
          "transactionIndex": "0x45",
          "logIndex": "0x6e",
          "removed": false
        },
        {
          "address": "0x4fb1d63c0949451a5a8df61aa559fa0f90c54420",
          "topics": [
            "0x8647dab5101cbe18afb171756e9753802f9d66725bf2346b079b8b1a275e0116"
          ],
          "data": "0x00000000000000000000000037e9b288c56b734c0291d37af478f60ce58a9fc60000000000000000000000000000000000000000000000000de0b6b3a76400000000000000000000000000000000000000000000000000000000000067cbce450000000000000000000000000000000000000000000000000000000000669a08",
          "blockHash": "0x967c46149735b4fedadd4c613dc6db0002c3ff9cc29411d7028cdccbf393c3ba",
          "blockNumber": "0x669a26",
          "blockTimestamp": "0x67cbce54",
          "transactionHash": "0x6bdd8bddaa3f8f0e8b75cd9001ada0c69c852db1544508025d9626da05240fd6",
          "transactionIndex": "0x45",
          "logIndex": "0x6f",
          "removed": false
        }
      ],
      "logsBloom": "0x00000000000000000000000000000000000000000000000000000000000200000000000000000000000000000000000000000000000000000000000000000040000000000000000000000000000000000000000000000000000000000000000000000000000000000000000000000000000000000000000000000000000008000000000000000000000000000000000000000000000000000400000000000000000000000000000000000004000000000000000000000000000000000000000000000000000000000000000000000000000000000008000000000000000000000000000000000000000000000000000000000000000000000000000000000000",
      "type": "0x2",
      "transactionHash": "0x6bdd8bddaa3f8f0e8b75cd9001ada0c69c852db1544508025d9626da05240fd6",
      "transactionIndex": "0x45",
      "blockHash": "0x967c46149735b4fedadd4c613dc6db0002c3ff9cc29411d7028cdccbf393c3ba",
      "blockNumber": "0x669a26",
      "gasUsed": "0x1851c",
      "effectiveGasPrice": "0xba43b7401",
      "from": "0x6efb11ac41b6657c32dac5ed4874082c700bba29",
      "to": "0x4fb1d63c0949451a5a8df61aa559fa0f90c54420",
      "contractAddress": null
    },
    {
      "status": "0x1",
      "cumulativeGasUsed": "0x972c34",
      "logs": [
        {
          "address": "0x97f3d75fcc683c8f557d637196857fa303f7cebd",
          "topics": [
            "0xddf252ad1be2c89b69c2b068fc378daa952ba7f163c4a11628f55a4df523b3ef",
            "0x000000000000000000000000fd16ef40c3a301f7063a1f9c28b90957df071583",
            "0x000000000000000000000000fd16ef40c3a301f7063a1f9c28b90957df071583"
          ],
          "data": "0x000000000000000000000000000000000000000000000000002386f26fc10000",
          "blockHash": "0x967c46149735b4fedadd4c613dc6db0002c3ff9cc29411d7028cdccbf393c3ba",
          "blockNumber": "0x669a26",
          "blockTimestamp": "0x67cbce54",
          "transactionHash": "0xf00dbbc53a2d1fea3d29cda20bab4a0f008abe76bcc7a19b7c703babd062ab40",
          "transactionIndex": "0x46",
          "logIndex": "0x70",
          "removed": false
        },
        {
          "address": "0xb21421b186e33196584c302a298e7d3ccc04043c",
          "topics": [
            "0x06380389ced6beb166b3dc4b5f51c82e98a257093591dca57e791694f075b9cb"
          ],
          "data": "0x000000000000000000000000fd16ef40c3a301f7063a1f9c28b90957df07158300000000000000000000000097f3d75fcc683c8f557d637196857fa303f7cebd0000000000000000000000000000000000000000000000008ac7230489e80000",
          "blockHash": "0x967c46149735b4fedadd4c613dc6db0002c3ff9cc29411d7028cdccbf393c3ba",
          "blockNumber": "0x669a26",
          "blockTimestamp": "0x67cbce54",
          "transactionHash": "0xf00dbbc53a2d1fea3d29cda20bab4a0f008abe76bcc7a19b7c703babd062ab40",
          "transactionIndex": "0x46",
          "logIndex": "0x71",
          "removed": false
        },
        {
          "address": "0xb21421b186e33196584c302a298e7d3ccc04043c",
          "topics": [
            "0x2807eeae251e2dcbe00755179d5498bf18009d163b309afff979dddfcf269f5d"
          ],
          "data": "0x000000000000000000000000fd16ef40c3a301f7063a1f9c28b90957df0715830000000000000000000000000000000000000000000000000000000000000000",
          "blockHash": "0x967c46149735b4fedadd4c613dc6db0002c3ff9cc29411d7028cdccbf393c3ba",
          "blockNumber": "0x669a26",
          "blockTimestamp": "0x67cbce54",
          "transactionHash": "0xf00dbbc53a2d1fea3d29cda20bab4a0f008abe76bcc7a19b7c703babd062ab40",
          "transactionIndex": "0x46",
          "logIndex": "0x72",
          "removed": false
        },
        {
          "address": "0xb21421b186e33196584c302a298e7d3ccc04043c",
          "topics": [
            "0x8d512526a1bee0a3a4b032b6811a6f5e5d819a2ffd9731b54f220ef188e688f0"
          ],
          "data": "0x000000000000000000000000fd16ef40c3a301f7063a1f9c28b90957df0715830000000000000000000000000000000000000000000000000000b5e620f48000",
          "blockHash": "0x967c46149735b4fedadd4c613dc6db0002c3ff9cc29411d7028cdccbf393c3ba",
          "blockNumber": "0x669a26",
          "blockTimestamp": "0x67cbce54",
          "transactionHash": "0xf00dbbc53a2d1fea3d29cda20bab4a0f008abe76bcc7a19b7c703babd062ab40",
          "transactionIndex": "0x46",
          "logIndex": "0x73",
          "removed": false
        },
        {
          "address": "0xdd5468dbd2ff946af0368775b83c21d5c427c85c",
          "topics": [
            "0xc338ea2bebdeba0d5a3e777b321f1cc8464b2a698dd0028d9fac88da15d0b882"
          ],
          "data": "0xa74e52f4caadcf37cf88c6513efc319aa53c4f3efb40b4cf498a4f2d0ffa4225000000000000000000000000000000000000000000000000000000000000000100000000000000000000000000000000000000000000065a4da25d3016c000000000000000000000000000000000000000000000000000008ac7230489e800000000000000000000000000000000000000000000000000000dbd2fc137a30000000000000000000000000000000000000000000000000000000000000000000000000000000000000000000000000000000000000000000000000000000000000000000000000000000000000000000000000000000000000000000067cbce54000000000000000000000000000000000000000000000000000000000000000000000000000000000000000097f3d75fcc683c8f557d637196857fa303f7cebd0000000000000000000000006efb11ac41b6657c32dac5ed4874082c700bba29000000000000000000000000fd16ef40c3a301f7063a1f9c28b90957df071583",
          "blockHash": "0x967c46149735b4fedadd4c613dc6db0002c3ff9cc29411d7028cdccbf393c3ba",
          "blockNumber": "0x669a26",
          "blockTimestamp": "0x67cbce54",
          "transactionHash": "0xf00dbbc53a2d1fea3d29cda20bab4a0f008abe76bcc7a19b7c703babd062ab40",
          "transactionIndex": "0x46",
          "logIndex": "0x74",
          "removed": false
        },
        {
          "address": "0x97f3d75fcc683c8f557d637196857fa303f7cebd",
          "topics": [
            "0xddf252ad1be2c89b69c2b068fc378daa952ba7f163c4a11628f55a4df523b3ef",
            "0x00000000000000000000000094126ff4de4a2a02d8fa155158f0e7a5f614ee8c",
            "0x000000000000000000000000fd16ef40c3a301f7063a1f9c28b90957df071583"
          ],
          "data": "0x0000000000000000000000000000000000000000000000000de0b6b3a7640000",
          "blockHash": "0x967c46149735b4fedadd4c613dc6db0002c3ff9cc29411d7028cdccbf393c3ba",
          "blockNumber": "0x669a26",
          "blockTimestamp": "0x67cbce54",
          "transactionHash": "0xf00dbbc53a2d1fea3d29cda20bab4a0f008abe76bcc7a19b7c703babd062ab40",
          "transactionIndex": "0x46",
          "logIndex": "0x75",
          "removed": false
        },
        {
          "address": "0x97f3d75fcc683c8f557d637196857fa303f7cebd",
          "topics": [
            "0xddf252ad1be2c89b69c2b068fc378daa952ba7f163c4a11628f55a4df523b3ef",
            "0x00000000000000000000000094126ff4de4a2a02d8fa155158f0e7a5f614ee8c",
            "0x0000000000000000000000006efb11ac41b6657c32dac5ed4874082c700bba29"
          ],
          "data": "0x00000000000000000000000000000000000000000000000000000002540be400",
          "blockHash": "0x967c46149735b4fedadd4c613dc6db0002c3ff9cc29411d7028cdccbf393c3ba",
          "blockNumber": "0x669a26",
          "blockTimestamp": "0x67cbce54",
          "transactionHash": "0xf00dbbc53a2d1fea3d29cda20bab4a0f008abe76bcc7a19b7c703babd062ab40",
          "transactionIndex": "0x46",
          "logIndex": "0x76",
          "removed": false
        },
        {
          "address": "0xd89707ab6a869341b4143c0dab2ae7a80c96324a",
          "topics": [
            "0x7c44208b5a90de3907889263317a131f5178339f16bd7d512528f9f48876ffdc"
          ],
          "data": "0x0000000000000000000000000000000000000000000000000000000000000000",
          "blockHash": "0x967c46149735b4fedadd4c613dc6db0002c3ff9cc29411d7028cdccbf393c3ba",
          "blockNumber": "0x669a26",
          "blockTimestamp": "0x67cbce54",
          "transactionHash": "0xf00dbbc53a2d1fea3d29cda20bab4a0f008abe76bcc7a19b7c703babd062ab40",
          "transactionIndex": "0x46",
          "logIndex": "0x77",
          "removed": false
        }
      ],
      "logsBloom": "0x00000000000000000200000000000000000000040000200000000000000008000080020000000000040000040200000000000000000100000000000000000000000000000000000000000008000000000006000000000100000000000000000000000000000000400002000000000000000000020000000000010010000000000000000100008000000000000000080000080000000000000000000100000000000000000000000000000004000000000000000000000000000001000000000000000022000004000000080000000000008000000800000000000000000000000020001000008000000004000000000000000000000420008000000000000000",
      "type": "0x2",
      "transactionHash": "0xf00dbbc53a2d1fea3d29cda20bab4a0f008abe76bcc7a19b7c703babd062ab40",
      "transactionIndex": "0x46",
      "blockHash": "0x967c46149735b4fedadd4c613dc6db0002c3ff9cc29411d7028cdccbf393c3ba",
      "blockNumber": "0x669a26",
      "gasUsed": "0xa81d5",
      "effectiveGasPrice": "0xba43b7401",
      "from": "0x6efb11ac41b6657c32dac5ed4874082c700bba29",
      "to": "0xd89707ab6a869341b4143c0dab2ae7a80c96324a",
      "contractAddress": null
    }
  ],
  "libraries": [],
  "pending": [],
  "returns": {},
  "timestamp": 1741409878,
  "chain": 10143,
  "commit": "75ade75"
}