{
  "transactions": [
    {
      "hash": "0xce8db7e5916ddd72b11ee282952d09cf0509301c68b99fb5c8a19b495254d8f0",
      "transactionType": "CALL",
      "contractName": null,
      "contractAddress": "0xa540127d90e902863b3f912be752225112058f49",
      "function": "setPrices(address[],(uint256,uint256,uint256,bytes)[])",
      "arguments": [
        "[0x97f3d75FcC683c8F557D637196857FA303f7cebd, 0x37e9b288c56B734c0291d37af478F60cE58a9Fc6]",
        "[(3000000000000000000000, 1741368553, 6641777, 0xe4a78c5e7c2c01d69979ca5468c629145097dc6c32505a7fdbd2a29063d93db46ede696a07b651320c434eb28145cbbfa683e3a0c575dd0f2c2dc690a9ae065d1c), (1000000000000000000, 1741368553, 6641777, 0xb5b86dc9ce966cb00b7e91a38764a9053a11003c86e2e00abe9b7457a512dd9f185a5c78fbdf2721a18668e75816bbaf0635fe22d3e682b628dbfc327575f1751b)]"
      ],
      "transaction": {
        "from": "0x6efb11ac41b6657c32dac5ed4874082c700bba29",
        "to": "0xa540127d90e902863b3f912be752225112058f49",
        "gas": "0x1851c",
        "value": "0x0",
        "input": "0xbd8bab34000000000000000000000000000000000000000000000000000000000000004000000000000000000000000000000000000000000000000000000000000000a0000000000000000000000000000000000000000000000000000000000000000200000000000000000000000097f3d75fcc683c8f557d637196857fa303f7cebd00000000000000000000000037e9b288c56b734c0291d37af478f60ce58a9fc60000000000000000000000000000000000000000000000000000000000000002000000000000000000000000000000000000000000000000000000000000004000000000000000000000000000000000000000000000000000000000000001400000000000000000000000000000000000000000000000a2a15d09519be000000000000000000000000000000000000000000000000000000000000067cb2ce9000000000000000000000000000000000000000000000000000000000065587100000000000000000000000000000000000000000000000000000000000000800000000000000000000000000000000000000000000000000000000000000041e4a78c5e7c2c01d69979ca5468c629145097dc6c32505a7fdbd2a29063d93db46ede696a07b651320c434eb28145cbbfa683e3a0c575dd0f2c2dc690a9ae065d1c000000000000000000000000000000000000000000000000000000000000000000000000000000000000000000000000000000000000000de0b6b3a76400000000000000000000000000000000000000000000000000000000000067cb2ce9000000000000000000000000000000000000000000000000000000000065587100000000000000000000000000000000000000000000000000000000000000800000000000000000000000000000000000000000000000000000000000000041b5b86dc9ce966cb00b7e91a38764a9053a11003c86e2e00abe9b7457a512dd9f185a5c78fbdf2721a18668e75816bbaf0635fe22d3e682b628dbfc327575f1751b00000000000000000000000000000000000000000000000000000000000000",
        "nonce": "0x20",
        "chainId": "0x279f"
      },
      "additionalContracts": [],
      "isFixedGasLimit": false
    },
    {
      "hash": "0x272cf5ec1ed8137d409d6d08d3e0c140ef7749cb19898741b2cef8b4b284c8c3",
      "transactionType": "CALL",
      "contractName": null,
      "contractAddress": "0x9436819e24a04fc4c172d46102fc2c0577048f5e",
      "function": "executeOrder(uint256)",
      "arguments": [
        "0"
      ],
      "transaction": {
        "from": "0x6efb11ac41b6657c32dac5ed4874082c700bba29",
        "to": "0x9436819e24a04fc4c172d46102fc2c0577048f5e",
        "gas": "0xa8151",
        "value": "0x0",
        "input": "0x94f611340000000000000000000000000000000000000000000000000000000000000000",
        "nonce": "0x21",
        "chainId": "0x279f"
      },
      "additionalContracts": [],
      "isFixedGasLimit": false
    }
  ],
  "receipts": [
    {
      "status": "0x1",
      "cumulativeGasUsed": "0x11f022b",
      "logs": [
        {
          "address": "0xa540127d90e902863b3f912be752225112058f49",
          "topics": [
            "0x8647dab5101cbe18afb171756e9753802f9d66725bf2346b079b8b1a275e0116"
          ],
          "data": "0x00000000000000000000000097f3d75fcc683c8f557d637196857fa303f7cebd0000000000000000000000000000000000000000000000a2a15d09519be000000000000000000000000000000000000000000000000000000000000067cb2ce90000000000000000000000000000000000000000000000000000000000655871",
          "blockHash": "0x484448fe1834578f488c44b67b22a9e281b308212db96828272af8725a8ef51d",
          "blockNumber": "0x65589b",
          "blockTimestamp": "0x67cb2cfe",
          "transactionHash": "0xce8db7e5916ddd72b11ee282952d09cf0509301c68b99fb5c8a19b495254d8f0",
          "transactionIndex": "0x86",
          "logIndex": "0x11b",
          "removed": false
        },
        {
          "address": "0xa540127d90e902863b3f912be752225112058f49",
          "topics": [
            "0x8647dab5101cbe18afb171756e9753802f9d66725bf2346b079b8b1a275e0116"
          ],
          "data": "0x00000000000000000000000037e9b288c56b734c0291d37af478f60ce58a9fc60000000000000000000000000000000000000000000000000de0b6b3a76400000000000000000000000000000000000000000000000000000000000067cb2ce90000000000000000000000000000000000000000000000000000000000655871",
          "blockHash": "0x484448fe1834578f488c44b67b22a9e281b308212db96828272af8725a8ef51d",
          "blockNumber": "0x65589b",
          "blockTimestamp": "0x67cb2cfe",
          "transactionHash": "0xce8db7e5916ddd72b11ee282952d09cf0509301c68b99fb5c8a19b495254d8f0",
          "transactionIndex": "0x86",
          "logIndex": "0x11c",
          "removed": false
        }
      ],
      "logsBloom": "0x00000000000000000000000000000000000000000000000000000000000200000000000000000000000000000000000020000000000000000000000000000000000000000000000000000000000000000000000000000000000000000000000000000000000000000000000000000000000000000000000000000000000000000000000000000000000000000000000000000000000000000400000000000000000000000000000000000000000000000000000000000000000000000000000000000000000000000000000000000000000000000008000000000000000000000000000000000000000000000001000000000040000000000000000000000000",
      "type": "0x2",
      "transactionHash": "0xce8db7e5916ddd72b11ee282952d09cf0509301c68b99fb5c8a19b495254d8f0",
      "transactionIndex": "0x86",
      "blockHash": "0x484448fe1834578f488c44b67b22a9e281b308212db96828272af8725a8ef51d",
      "blockNumber": "0x65589b",
      "gasUsed": "0x1851c",
      "effectiveGasPrice": "0xba43b7401",
      "from": "0x6efb11ac41b6657c32dac5ed4874082c700bba29",
      "to": "0xa540127d90e902863b3f912be752225112058f49",
      "contractAddress": null
    },
    {
      "status": "0x1",
      "cumulativeGasUsed": "0x110f815",
      "logs": [
        {
          "address": "0x97f3d75fcc683c8f557d637196857fa303f7cebd",
          "topics": [
            "0xddf252ad1be2c89b69c2b068fc378daa952ba7f163c4a11628f55a4df523b3ef",
            "0x000000000000000000000000598b1401148899d37eaf29832d50e62836d1ffa8",
            "0x000000000000000000000000598b1401148899d37eaf29832d50e62836d1ffa8"
          ],
          "data": "0x000000000000000000000000000000000000000000000000002386f26fc10000",
          "blockHash": "0x0afc48814fe6bd63dd427b8b34d83936c61d6ea41c7e04119f6cdbdd780dad25",
          "blockNumber": "0x65589c",
          "blockTimestamp": "0x67cb2cfe",
          "transactionHash": "0x272cf5ec1ed8137d409d6d08d3e0c140ef7749cb19898741b2cef8b4b284c8c3",
          "transactionIndex": "0x3b",
          "logIndex": "0x68",
          "removed": false
        },
        {
          "address": "0x048d2f108677771a51582ba9a8607ab3e1273dda",
          "topics": [
            "0x06380389ced6beb166b3dc4b5f51c82e98a257093591dca57e791694f075b9cb"
          ],
          "data": "0x000000000000000000000000598b1401148899d37eaf29832d50e62836d1ffa800000000000000000000000097f3d75fcc683c8f557d637196857fa303f7cebd0000000000000000000000000000000000000000000000008ac7230489e80000",
          "blockHash": "0x0afc48814fe6bd63dd427b8b34d83936c61d6ea41c7e04119f6cdbdd780dad25",
          "blockNumber": "0x65589c",
          "blockTimestamp": "0x67cb2cfe",
          "transactionHash": "0x272cf5ec1ed8137d409d6d08d3e0c140ef7749cb19898741b2cef8b4b284c8c3",
          "transactionIndex": "0x3b",
          "logIndex": "0x69",
          "removed": false
        },
        {
          "address": "0x048d2f108677771a51582ba9a8607ab3e1273dda",
          "topics": [
            "0x2807eeae251e2dcbe00755179d5498bf18009d163b309afff979dddfcf269f5d"
          ],
          "data": "0x000000000000000000000000598b1401148899d37eaf29832d50e62836d1ffa80000000000000000000000000000000000000000000000000000000000000000",
          "blockHash": "0x0afc48814fe6bd63dd427b8b34d83936c61d6ea41c7e04119f6cdbdd780dad25",
          "blockNumber": "0x65589c",
          "blockTimestamp": "0x67cb2cfe",
          "transactionHash": "0x272cf5ec1ed8137d409d6d08d3e0c140ef7749cb19898741b2cef8b4b284c8c3",
          "transactionIndex": "0x3b",
          "logIndex": "0x6a",
          "removed": false
        },
        {
          "address": "0x048d2f108677771a51582ba9a8607ab3e1273dda",
          "topics": [
            "0x8d512526a1bee0a3a4b032b6811a6f5e5d819a2ffd9731b54f220ef188e688f0"
          ],
          "data": "0x000000000000000000000000598b1401148899d37eaf29832d50e62836d1ffa80000000000000000000000000000000000000000000000000000b5e620f48000",
          "blockHash": "0x0afc48814fe6bd63dd427b8b34d83936c61d6ea41c7e04119f6cdbdd780dad25",
          "blockNumber": "0x65589c",
          "blockTimestamp": "0x67cb2cfe",
          "transactionHash": "0x272cf5ec1ed8137d409d6d08d3e0c140ef7749cb19898741b2cef8b4b284c8c3",
          "transactionIndex": "0x3b",
          "logIndex": "0x6b",
          "removed": false
        },
        {
          "address": "0x4760b9a1feb87fe44b1ebd7c2b6f8d3f89b5ab6e",
          "topics": [
            "0xc338ea2bebdeba0d5a3e777b321f1cc8464b2a698dd0028d9fac88da15d0b882"
          ],
          "data": "0x6b8f06e77054e51e5a4a54fdc6363790fe94e0ad807e8b9e642fa38ebe5eeb7a000000000000000000000000000000000000000000000000000000000000000100000000000000000000000000000000000000000000065a4da25d3016c000000000000000000000000000000000000000000000000000008ac7230489e800000000000000000000000000000000000000000000000000000dbd2fc137a30000000000000000000000000000000000000000000000000000000000000000000000000000000000000000000000000000000000000000000000000000000000000000000000000000000000000000000000000000000000000000000067cb2cfe000000000000000000000000000000000000000000000000000000000000000000000000000000000000000097f3d75fcc683c8f557d637196857fa303f7cebd0000000000000000000000006efb11ac41b6657c32dac5ed4874082c700bba29000000000000000000000000598b1401148899d37eaf29832d50e62836d1ffa8",
          "blockHash": "0x0afc48814fe6bd63dd427b8b34d83936c61d6ea41c7e04119f6cdbdd780dad25",
          "blockNumber": "0x65589c",
          "blockTimestamp": "0x67cb2cfe",
          "transactionHash": "0x272cf5ec1ed8137d409d6d08d3e0c140ef7749cb19898741b2cef8b4b284c8c3",
          "transactionIndex": "0x3b",
          "logIndex": "0x6c",
          "removed": false
        },
        {
          "address": "0x97f3d75fcc683c8f557d637196857fa303f7cebd",
          "topics": [
            "0xddf252ad1be2c89b69c2b068fc378daa952ba7f163c4a11628f55a4df523b3ef",
            "0x000000000000000000000000e505d7fecbe9967784524e424d9ea0bea20cc119",
            "0x000000000000000000000000598b1401148899d37eaf29832d50e62836d1ffa8"
          ],
          "data": "0x0000000000000000000000000000000000000000000000000de0b6b3a7640000",
          "blockHash": "0x0afc48814fe6bd63dd427b8b34d83936c61d6ea41c7e04119f6cdbdd780dad25",
          "blockNumber": "0x65589c",
          "blockTimestamp": "0x67cb2cfe",
          "transactionHash": "0x272cf5ec1ed8137d409d6d08d3e0c140ef7749cb19898741b2cef8b4b284c8c3",
          "transactionIndex": "0x3b",
          "logIndex": "0x6d",
          "removed": false
        },
        {
          "address": "0x97f3d75fcc683c8f557d637196857fa303f7cebd",
          "topics": [
            "0xddf252ad1be2c89b69c2b068fc378daa952ba7f163c4a11628f55a4df523b3ef",
            "0x000000000000000000000000e505d7fecbe9967784524e424d9ea0bea20cc119",
            "0x0000000000000000000000006efb11ac41b6657c32dac5ed4874082c700bba29"
          ],
          "data": "0x00000000000000000000000000000000000000000000000000000002540be400",
          "blockHash": "0x0afc48814fe6bd63dd427b8b34d83936c61d6ea41c7e04119f6cdbdd780dad25",
          "blockNumber": "0x65589c",
          "blockTimestamp": "0x67cb2cfe",
          "transactionHash": "0x272cf5ec1ed8137d409d6d08d3e0c140ef7749cb19898741b2cef8b4b284c8c3",
          "transactionIndex": "0x3b",
          "logIndex": "0x6e",
          "removed": false
        },
        {
          "address": "0x9436819e24a04fc4c172d46102fc2c0577048f5e",
          "topics": [
            "0x7c44208b5a90de3907889263317a131f5178339f16bd7d512528f9f48876ffdc"
          ],
          "data": "0x0000000000000000000000000000000000000000000000000000000000000000",
          "blockHash": "0x0afc48814fe6bd63dd427b8b34d83936c61d6ea41c7e04119f6cdbdd780dad25",
          "blockNumber": "0x65589c",
          "blockTimestamp": "0x67cb2cfe",
          "transactionHash": "0x272cf5ec1ed8137d409d6d08d3e0c140ef7749cb19898741b2cef8b4b284c8c3",
          "transactionIndex": "0x3b",
          "logIndex": "0x6f",
          "removed": false
        }
      ],
      "logsBloom": "0x00000200000000000200000000000000000000000000200000000000000000000080020000000200000000000000000000000000000100800000000000000000000000000000000020000008000000000002000010000100000000000000020000000000000000400000000000000000000000000000000000010010000000000000000000008000000000000000000000000000000000000000000101002000000000000000000000000004000000000000000000000008000001000000000000100022000000000000084000000008000000000800000000000000000002000120001000000000000000000000000000000000000420008000000000800000",
      "type": "0x2",
      "transactionHash": "0x272cf5ec1ed8137d409d6d08d3e0c140ef7749cb19898741b2cef8b4b284c8c3",
      "transactionIndex": "0x3b",
      "blockHash": "0x0afc48814fe6bd63dd427b8b34d83936c61d6ea41c7e04119f6cdbdd780dad25",
      "blockNumber": "0x65589c",
      "gasUsed": "0xa8151",
      "effectiveGasPrice": "0xba43b7401",
      "from": "0x6efb11ac41b6657c32dac5ed4874082c700bba29",
      "to": "0x9436819e24a04fc4c172d46102fc2c0577048f5e",
      "contractAddress": null
    }
  ],
  "libraries": [],
  "pending": [],
  "returns": {},
  "timestamp": 1741368577,
  "chain": 10143,
  "commit": "75ade75"
}