{
  "transactions": [
    {
      "hash": "0x071636a1888a468d85328b6bb19c3341ffdbe988ad434a842c119ce7382bd23c",
      "transactionType": "CALL",
      "contractName": null,
      "contractAddress": "0xa540127d90e902863b3f912be752225112058f49",
      "function": "setSigner(address,address,bool)",
      "arguments": [
        "0x97f3d75FcC683c8F557D637196857FA303f7cebd",
        "0xf39Fd6e51aad88F6F4ce6aB8827279cffFb92266",
        "true"
      ],
      "transaction": {
        "from": "0x6efb11ac41b6657c32dac5ed4874082c700bba29",
        "to": "0xa540127d90e902863b3f912be752225112058f49",
        "gas": "0x114f8",
        "value": "0x0",
        "input": "0xa1dc139d00000000000000000000000097f3d75fcc683c8f557d637196857fa303f7cebd000000000000000000000000f39fd6e51aad88f6f4ce6ab8827279cfffb922660000000000000000000000000000000000000000000000000000000000000001",
        "nonce": "0x10",
        "chainId": "0x279f"
      },
      "additionalContracts": [],
      "isFixedGasLimit": false
    },
    {
      "hash": "0xb77d9abe5193c7f92ff8dd05a970736ee732368984a2da8052a3d88c700988e7",
      "transactionType": "CALL",
      "contractName": null,
      "contractAddress": "0xa540127d90e902863b3f912be752225112058f49",
      "function": "setSigner(address,address,bool)",
      "arguments": [
        "0x37e9b288c56B734c0291d37af478F60cE58a9Fc6",
        "0xf39Fd6e51aad88F6F4ce6aB8827279cffFb92266",
        "true"
      ],
      "transaction": {
        "from": "0x6efb11ac41b6657c32dac5ed4874082c700bba29",
        "to": "0xa540127d90e902863b3f912be752225112058f49",
        "gas": "0x114f8",
        "value": "0x0",
        "input": "0xa1dc139d00000000000000000000000037e9b288c56b734c0291d37af478f60ce58a9fc6000000000000000000000000f39fd6e51aad88f6f4ce6ab8827279cfffb922660000000000000000000000000000000000000000000000000000000000000001",
        "nonce": "0x11",
        "chainId": "0x279f"
      },
      "additionalContracts": [],
      "isFixedGasLimit": false
    },
    {
      "hash": "0xe87089f382e8aa5170299b19ed19cb38cf68d4d64228381ec86c710f2f08da15",
      "transactionType": "CALL",
      "contractName": null,
      "contractAddress": "0xa540127d90e902863b3f912be752225112058f49",
      "function": "setMinSigners(address,uint256)",
      "arguments": [
        "0x97f3d75FcC683c8F557D637196857FA303f7cebd",
        "1"
      ],
      "transaction": {
        "from": "0x6efb11ac41b6657c32dac5ed4874082c700bba29",
        "to": "0xa540127d90e902863b3f912be752225112058f49",
        "gas": "0x10043",
        "value": "0x0",
        "input": "0x717f4ada00000000000000000000000097f3d75fcc683c8f557d637196857fa303f7cebd0000000000000000000000000000000000000000000000000000000000000001",
        "nonce": "0x12",
        "chainId": "0x279f"
      },
      "additionalContracts": [],
      "isFixedGasLimit": false
    },
    {
      "hash": "0x31f96d07ae396c4686e18df54e39ff22b25bada32844cf925eab5f3119277217",
      "transactionType": "CALL",
      "contractName": null,
      "contractAddress": "0xa540127d90e902863b3f912be752225112058f49",
      "function": "setMinSigners(address,uint256)",
      "arguments": [
        "0x37e9b288c56B734c0291d37af478F60cE58a9Fc6",
        "1"
      ],
      "transaction": {
        "from": "0x6efb11ac41b6657c32dac5ed4874082c700bba29",
        "to": "0xa540127d90e902863b3f912be752225112058f49",
        "gas": "0x10043",
        "value": "0x0",
        "input": "0x717f4ada00000000000000000000000037e9b288c56b734c0291d37af478f60ce58a9fc60000000000000000000000000000000000000000000000000000000000000001",
        "nonce": "0x13",
        "chainId": "0x279f"
      },
      "additionalContracts": [],
      "isFixedGasLimit": false
    },
    {
      "hash": "0x4d277fc1daa57da5f011b920c2426b156f190f3d413fb5bc86643a7b1e057a8f",
      "transactionType": "CALL",
      "contractName": null,
      "contractAddress": "0xa540127d90e902863b3f912be752225112058f49",
      "function": "setMaxPriceAge(address,uint256)",
      "arguments": [
        "0x97f3d75FcC683c8F557D637196857FA303f7cebd",
        "3600"
      ],
      "transaction": {
        "from": "0x6efb11ac41b6657c32dac5ed4874082c700bba29",
        "to": "0xa540127d90e902863b3f912be752225112058f49",
        "gas": "0xfa77",
        "value": "0x0",
        "input": "0xddac7f1b00000000000000000000000097f3d75fcc683c8f557d637196857fa303f7cebd0000000000000000000000000000000000000000000000000000000000000e10",
        "nonce": "0x14",
        "chainId": "0x279f"
      },
      "additionalContracts": [],
      "isFixedGasLimit": false
    },
    {
      "hash": "0x7a5e808c5a40a8dc71cb12b4d7f110198fdd7065f1c290af1d4cf1359489cbfd",
      "transactionType": "CALL",
      "contractName": null,
      "contractAddress": "0xa540127d90e902863b3f912be752225112058f49",
      "function": "setMaxPriceAge(address,uint256)",
      "arguments": [
        "0x37e9b288c56B734c0291d37af478F60cE58a9Fc6",
        "3600"
      ],
      "transaction": {
        "from": "0x6efb11ac41b6657c32dac5ed4874082c700bba29",
        "to": "0xa540127d90e902863b3f912be752225112058f49",
        "gas": "0xfa77",
        "value": "0x0",
        "input": "0xddac7f1b00000000000000000000000037e9b288c56b734c0291d37af478f60ce58a9fc60000000000000000000000000000000000000000000000000000000000000e10",
        "nonce": "0x15",
        "chainId": "0x279f"
      },
      "additionalContracts": [],
      "isFixedGasLimit": false
    }
  ],
  "receipts": [
    {
      "status": "0x1",
      "cumulativeGasUsed": "0xb35b0d",
      "logs": [
        {
          "address": "0xa540127d90e902863b3f912be752225112058f49",
          "topics": [
            "0x1364a7d9e8f00b65e45259e034365ab86eb13d9606c134014bbcc34454142fa2"
          ],
          "data": "0x00000000000000000000000097f3d75fcc683c8f557d637196857fa303f7cebd000000000000000000000000f39fd6e51aad88f6f4ce6ab8827279cfffb922660000000000000000000000000000000000000000000000000000000000000001",
          "blockHash": "0x50f403d28986621d5b9423c2ab9a9a64c5d0e273cbc8fe7c03c83c46d1442370",
          "blockNumber": "0x655405",
          "blockTimestamp": "0x67cb2ab2",
          "transactionHash": "0x071636a1888a468d85328b6bb19c3341ffdbe988ad434a842c119ce7382bd23c",
          "transactionIndex": "0x52",
          "logIndex": "0x7f",
          "removed": false
        }
      ],
      "logsBloom": "0x00000000000000000000000000000000000000000000000000000000000000000000000000000000000000000000000020000000000000000000000000000000000000000000000000000000000000000000000000000000000000000000000000000000000000000000000000000000000000000000000000000000004000000000000000000000000000000000000000000000000000000000000000000000000000000000000000000000000000000000000000000000000000000000000000000000800000000000000000000000000000000000000000000000000000000000000000000000000000000001200000000040000000000000000000000000",
      "type": "0x2",
      "transactionHash": "0x071636a1888a468d85328b6bb19c3341ffdbe988ad434a842c119ce7382bd23c",
      "transactionIndex": "0x52",
      "blockHash": "0x50f403d28986621d5b9423c2ab9a9a64c5d0e273cbc8fe7c03c83c46d1442370",
      "blockNumber": "0x655405",
      "gasUsed": "0x114f8",
      "effectiveGasPrice": "0xba43b7401",
      "from": "0x6efb11ac41b6657c32dac5ed4874082c700bba29",
      "to": "0xa540127d90e902863b3f912be752225112058f49",
      "contractAddress": null
    },
    {
      "status": "0x1",
      "cumulativeGasUsed": "0xb47005",
      "logs": [
        {
          "address": "0xa540127d90e902863b3f912be752225112058f49",
          "topics": [
            "0x1364a7d9e8f00b65e45259e034365ab86eb13d9606c134014bbcc34454142fa2"
          ],
          "data": "0x00000000000000000000000037e9b288c56b734c0291d37af478f60ce58a9fc6000000000000000000000000f39fd6e51aad88f6f4ce6ab8827279cfffb922660000000000000000000000000000000000000000000000000000000000000001",
          "blockHash": "0x50f403d28986621d5b9423c2ab9a9a64c5d0e273cbc8fe7c03c83c46d1442370",
          "blockNumber": "0x655405",
          "blockTimestamp": "0x67cb2ab2",
          "transactionHash": "0xb77d9abe5193c7f92ff8dd05a970736ee732368984a2da8052a3d88c700988e7",
          "transactionIndex": "0x53",
          "logIndex": "0x80",
          "removed": false
        }
      ],
      "logsBloom": "0x00000000000000000000000000000000000000000000000000000000000000000000000000000000000000000000000020000000000000000000000000000000000000000000000000000000000000000000000000000000000000000000000000000000000000000000000000000000000000000000000000000000004000000000000000000000000000000000000000000000000000000000000000000000000000000000000000000000000000000000000000000000000000000000000000000000800000000000000000000000000000000000000000000000000000000000000000000000000000000001200000000040000000000000000000000000",
      "type": "0x2",
      "transactionHash": "0xb77d9abe5193c7f92ff8dd05a970736ee732368984a2da8052a3d88c700988e7",
      "transactionIndex": "0x53",
      "blockHash": "0x50f403d28986621d5b9423c2ab9a9a64c5d0e273cbc8fe7c03c83c46d1442370",
      "blockNumber": "0x655405",
      "gasUsed": "0x114f8",
      "effectiveGasPrice": "0xba43b7401",
      "from": "0x6efb11ac41b6657c32dac5ed4874082c700bba29",
      "to": "0xa540127d90e902863b3f912be752225112058f49",
      "contractAddress": null
    },
    {
      "status": "0x1",
      "cumulativeGasUsed": "0xb57048",
      "logs": [
        {
          "address": "0xa540127d90e902863b3f912be752225112058f49",
          "topics": [
            "0x7e083367dc9afc5277987d3a84d49e116d9234335bdd7e469b63c11504476fa8"
          ],
          "data": "0x00000000000000000000000097f3d75fcc683c8f557d637196857fa303f7cebd0000000000000000000000000000000000000000000000000000000000000001",
          "blockHash": "0x50f403d28986621d5b9423c2ab9a9a64c5d0e273cbc8fe7c03c83c46d1442370",
          "blockNumber": "0x655405",
          "blockTimestamp": "0x67cb2ab2",
          "transactionHash": "0xe87089f382e8aa5170299b19ed19cb38cf68d4d64228381ec86c710f2f08da15",
          "transactionIndex": "0x54",
          "logIndex": "0x81",
          "removed": false
        }
      ],
      "logsBloom": "0x00000000000000000000000000000000000000000000000000000000000000000000000000000000000000000000000020000000000000000000000000000000000000000000000000000000000000000000000000000000000000000000000000000000000000000000000000000000000000000000000000000000010000000000000000000000000000000000000000000000000000000000000000000000000000000000000000000002000000000000000000000000000000000000000000000000000000000000000000000000000000000000000000000000000000000000000000000000000000000001000000000040002000000000000000000000",
      "type": "0x2",
      "transactionHash": "0xe87089f382e8aa5170299b19ed19cb38cf68d4d64228381ec86c710f2f08da15",
      "transactionIndex": "0x54",
      "blockHash": "0x50f403d28986621d5b9423c2ab9a9a64c5d0e273cbc8fe7c03c83c46d1442370",
      "blockNumber": "0x655405",
      "gasUsed": "0x10043",
      "effectiveGasPrice": "0xba43b7401",
      "from": "0x6efb11ac41b6657c32dac5ed4874082c700bba29",
      "to": "0xa540127d90e902863b3f912be752225112058f49",
      "contractAddress": null
    },
    {
      "status": "0x1",
      "cumulativeGasUsed": "0xb6708b",
      "logs": [
        {
          "address": "0xa540127d90e902863b3f912be752225112058f49",
          "topics": [
            "0x7e083367dc9afc5277987d3a84d49e116d9234335bdd7e469b63c11504476fa8"
          ],
          "data": "0x00000000000000000000000037e9b288c56b734c0291d37af478f60ce58a9fc60000000000000000000000000000000000000000000000000000000000000001",
          "blockHash": "0x50f403d28986621d5b9423c2ab9a9a64c5d0e273cbc8fe7c03c83c46d1442370",
          "blockNumber": "0x655405",
          "blockTimestamp": "0x67cb2ab2",
          "transactionHash": "0x31f96d07ae396c4686e18df54e39ff22b25bada32844cf925eab5f3119277217",
          "transactionIndex": "0x55",
          "logIndex": "0x82",
          "removed": false
        }
      ],
      "logsBloom": "0x00000000000000000000000000000000000000000000000000000000000000000000000000000000000000000000000020000000000000000000000000000000000000000000000000000000000000000000000000000000000000000000000000000000000000000000000000000000000000000000000000000000010000000000000000000000000000000000000000000000000000000000000000000000000000000000000000000002000000000000000000000000000000000000000000000000000000000000000000000000000000000000000000000000000000000000000000000000000000000001000000000040002000000000000000000000",
      "type": "0x2",
      "transactionHash": "0x31f96d07ae396c4686e18df54e39ff22b25bada32844cf925eab5f3119277217",
      "transactionIndex": "0x55",
      "blockHash": "0x50f403d28986621d5b9423c2ab9a9a64c5d0e273cbc8fe7c03c83c46d1442370",
      "blockNumber": "0x655405",
      "gasUsed": "0x10043",
      "effectiveGasPrice": "0xba43b7401",
      "from": "0x6efb11ac41b6657c32dac5ed4874082c700bba29",
      "to": "0xa540127d90e902863b3f912be752225112058f49",
      "contractAddress": null
    },
    {
      "status": "0x1",
      "cumulativeGasUsed": "0xb76b02",
      "logs": [],
      "logsBloom": "0x00000000000000000000000000000000000000000000000000000000000000000000000000000000000000000000000000000000000000000000000000000000000000000000000000000000000000000000000000000000000000000000000000000000000000000000000000000000000000000000000000000000000000000000000000000000000000000000000000000000000000000000000000000000000000000000000000000000000000000000000000000000000000000000000000000000000000000000000000000000000000000000000000000000000000000000000000000000000000000000000000000000000000000000000000000000",
      "type": "0x2",
      "transactionHash": "0x4d277fc1daa57da5f011b920c2426b156f190f3d413fb5bc86643a7b1e057a8f",
      "transactionIndex": "0x56",
      "blockHash": "0x50f403d28986621d5b9423c2ab9a9a64c5d0e273cbc8fe7c03c83c46d1442370",
      "blockNumber": "0x655405",
      "gasUsed": "0xfa77",
      "effectiveGasPrice": "0xba43b7401",
      "from": "0x6efb11ac41b6657c32dac5ed4874082c700bba29",
      "to": "0xa540127d90e902863b3f912be752225112058f49",
      "contractAddress": null
    },
    {
      "status": "0x1",
      "cumulativeGasUsed": "0xb86579",
      "logs": [],
      "logsBloom": "0x00000000000000000000000000000000000000000000000000000000000000000000000000000000000000000000000000000000000000000000000000000000000000000000000000000000000000000000000000000000000000000000000000000000000000000000000000000000000000000000000000000000000000000000000000000000000000000000000000000000000000000000000000000000000000000000000000000000000000000000000000000000000000000000000000000000000000000000000000000000000000000000000000000000000000000000000000000000000000000000000000000000000000000000000000000000",
      "type": "0x2",
      "transactionHash": "0x7a5e808c5a40a8dc71cb12b4d7f110198fdd7065f1c290af1d4cf1359489cbfd",
      "transactionIndex": "0x57",
      "blockHash": "0x50f403d28986621d5b9423c2ab9a9a64c5d0e273cbc8fe7c03c83c46d1442370",
      "blockNumber": "0x655405",
      "gasUsed": "0xfa77",
      "effectiveGasPrice": "0xba43b7401",
      "from": "0x6efb11ac41b6657c32dac5ed4874082c700bba29",
      "to": "0xa540127d90e902863b3f912be752225112058f49",
      "contractAddress": null
    }
  ],
  "libraries": [],
  "pending": [],
  "returns": {},
  "timestamp": 1741367988,
  "chain": 10143,
  "commit": "75ade75"
}