{
  "transactions": [
    {
      "hash": "0xecd51059b2eaf38ddf751478e422058382f8c64fec7ad19f4fb6bb2fb493be62",
      "transactionType": "CALL",
      "contractName": null,
      "contractAddress": "0x4fb1d63c0949451a5a8df61aa559fa0f90c54420",
      "function": "setSigner(address,address,bool)",
      "arguments": [
        "0x97f3d75FcC683c8F557D637196857FA303f7cebd",
        "0xf39Fd6e51aad88F6F4ce6aB8827279cffFb92266",
        "true"
      ],
      "transaction": {
        "from": "0x6efb11ac41b6657c32dac5ed4874082c700bba29",
        "to": "0x4fb1d63c0949451a5a8df61aa559fa0f90c54420",
        "gas": "0x114f8",
        "value": "0x0",
        "input": "0xa1dc139d00000000000000000000000097f3d75fcc683c8f557d637196857fa303f7cebd000000000000000000000000f39fd6e51aad88f6f4ce6ab8827279cfffb922660000000000000000000000000000000000000000000000000000000000000001",
        "nonce": "0x30",
        "chainId": "0x279f"
      },
      "additionalContracts": [],
      "isFixedGasLimit": false
    },
    {
      "hash": "0x8a2fbc909e0ce2a4caa6c7a3fcbad77c865d00af1b42587b717e552217ab037b",
      "transactionType": "CALL",
      "contractName": null,
      "contractAddress": "0x4fb1d63c0949451a5a8df61aa559fa0f90c54420",
      "function": "setSigner(address,address,bool)",
      "arguments": [
        "0x37e9b288c56B734c0291d37af478F60cE58a9Fc6",
        "0xf39Fd6e51aad88F6F4ce6aB8827279cffFb92266",
        "true"
      ],
      "transaction": {
        "from": "0x6efb11ac41b6657c32dac5ed4874082c700bba29",
        "to": "0x4fb1d63c0949451a5a8df61aa559fa0f90c54420",
        "gas": "0x114f8",
        "value": "0x0",
        "input": "0xa1dc139d00000000000000000000000037e9b288c56b734c0291d37af478f60ce58a9fc6000000000000000000000000f39fd6e51aad88f6f4ce6ab8827279cfffb922660000000000000000000000000000000000000000000000000000000000000001",
        "nonce": "0x31",
        "chainId": "0x279f"
      },
      "additionalContracts": [],
      "isFixedGasLimit": false
    },
    {
      "hash": "0xea4c5f119ddeabbf09551f0e47d66eeef5fa220e575527891de719abbcba9151",
      "transactionType": "CALL",
      "contractName": null,
      "contractAddress": "0x4fb1d63c0949451a5a8df61aa559fa0f90c54420",
      "function": "setMinSigners(address,uint256)",
      "arguments": [
        "0x97f3d75FcC683c8F557D637196857FA303f7cebd",
        "1"
      ],
      "transaction": {
        "from": "0x6efb11ac41b6657c32dac5ed4874082c700bba29",
        "to": "0x4fb1d63c0949451a5a8df61aa559fa0f90c54420",
        "gas": "0x10043",
        "value": "0x0",
        "input": "0x717f4ada00000000000000000000000097f3d75fcc683c8f557d637196857fa303f7cebd0000000000000000000000000000000000000000000000000000000000000001",
        "nonce": "0x32",
        "chainId": "0x279f"
      },
      "additionalContracts": [],
      "isFixedGasLimit": false
    },
    {
      "hash": "0x773b0a2ec436b5912a1dbef63436df791c51d0cde1c2f02d22d50f8f2641a996",
      "transactionType": "CALL",
      "contractName": null,
      "contractAddress": "0x4fb1d63c0949451a5a8df61aa559fa0f90c54420",
      "function": "setMinSigners(address,uint256)",
      "arguments": [
        "0x37e9b288c56B734c0291d37af478F60cE58a9Fc6",
        "1"
      ],
      "transaction": {
        "from": "0x6efb11ac41b6657c32dac5ed4874082c700bba29",
        "to": "0x4fb1d63c0949451a5a8df61aa559fa0f90c54420",
        "gas": "0x10043",
        "value": "0x0",
        "input": "0x717f4ada00000000000000000000000037e9b288c56b734c0291d37af478f60ce58a9fc60000000000000000000000000000000000000000000000000000000000000001",
        "nonce": "0x33",
        "chainId": "0x279f"
      },
      "additionalContracts": [],
      "isFixedGasLimit": false
    },
    {
      "hash": "0xf1f96c6ec2aa274c15d4fabeecd906d59896a0c78a813f78eb69bd44f0469245",
      "transactionType": "CALL",
      "contractName": null,
      "contractAddress": "0x4fb1d63c0949451a5a8df61aa559fa0f90c54420",
      "function": "setMaxPriceAge(address,uint256)",
      "arguments": [
        "0x97f3d75FcC683c8F557D637196857FA303f7cebd",
        "3600"
      ],
      "transaction": {
        "from": "0x6efb11ac41b6657c32dac5ed4874082c700bba29",
        "to": "0x4fb1d63c0949451a5a8df61aa559fa0f90c54420",
        "gas": "0xfa77",
        "value": "0x0",
        "input": "0xddac7f1b00000000000000000000000097f3d75fcc683c8f557d637196857fa303f7cebd0000000000000000000000000000000000000000000000000000000000000e10",
        "nonce": "0x34",
        "chainId": "0x279f"
      },
      "additionalContracts": [],
      "isFixedGasLimit": false
    },
    {
      "hash": "0xecf63bad6ad2fbae558499b45fcf8ac0c67cd482b7dda220b86f97202776709f",
      "transactionType": "CALL",
      "contractName": null,
      "contractAddress": "0x4fb1d63c0949451a5a8df61aa559fa0f90c54420",
      "function": "setMaxPriceAge(address,uint256)",
      "arguments": [
        "0x37e9b288c56B734c0291d37af478F60cE58a9Fc6",
        "3600"
      ],
      "transaction": {
        "from": "0x6efb11ac41b6657c32dac5ed4874082c700bba29",
        "to": "0x4fb1d63c0949451a5a8df61aa559fa0f90c54420",
        "gas": "0xfa77",
        "value": "0x0",
        "input": "0xddac7f1b00000000000000000000000037e9b288c56b734c0291d37af478f60ce58a9fc60000000000000000000000000000000000000000000000000000000000000e10",
        "nonce": "0x35",
        "chainId": "0x279f"
      },
      "additionalContracts": [],
      "isFixedGasLimit": false
    }
  ],
  "receipts": [
    {
      "status": "0x1",
      "cumulativeGasUsed": "0x651cfa",
      "logs": [
        {
          "address": "0x4fb1d63c0949451a5a8df61aa559fa0f90c54420",
          "topics": [
            "0x1364a7d9e8f00b65e45259e034365ab86eb13d9606c134014bbcc34454142fa2"
          ],
          "data": "0x00000000000000000000000097f3d75fcc683c8f557d637196857fa303f7cebd000000000000000000000000f39fd6e51aad88f6f4ce6ab8827279cfffb922660000000000000000000000000000000000000000000000000000000000000001",
          "blockHash": "0x4bd3fa93b624fa7f721606be052f244e5da34a8b63f46ae2a921063fbab66181",
          "blockNumber": "0x6697f2",
          "blockTimestamp": "0x67cbcd39",
          "transactionHash": "0xecd51059b2eaf38ddf751478e422058382f8c64fec7ad19f4fb6bb2fb493be62",
          "transactionIndex": "0x37",
          "logIndex": "0x5d",
          "removed": false
        }
      ],
      "logsBloom": "0x00000000000000000000000000000000000000000000000000000000000000000000000000000000000000000000000000000000000000000000000000000040000000000000000000000000000000000000000000000000000000000000000000000000000000000000000000000000000000000000000000000000004008000000000000000000000000000000000000000000000000000000000000000000000000000000000000000004000000000000000000000000000000000000000000000000800000000000000000000000000000000000000000000000000000000000000000000000000000000000200000000000000000000000000000000000",
      "type": "0x2",
      "transactionHash": "0xecd51059b2eaf38ddf751478e422058382f8c64fec7ad19f4fb6bb2fb493be62",
      "transactionIndex": "0x37",
      "blockHash": "0x4bd3fa93b624fa7f721606be052f244e5da34a8b63f46ae2a921063fbab66181",
      "blockNumber": "0x6697f2",
      "gasUsed": "0x114f8",
      "effectiveGasPrice": "0xba43b7401",
      "from": "0x6efb11ac41b6657c32dac5ed4874082c700bba29",
      "to": "0x4fb1d63c0949451a5a8df61aa559fa0f90c54420",
      "contractAddress": null
    },
    {
      "status": "0x1",
      "cumulativeGasUsed": "0x6631f2",
      "logs": [
        {
          "address": "0x4fb1d63c0949451a5a8df61aa559fa0f90c54420",
          "topics": [
            "0x1364a7d9e8f00b65e45259e034365ab86eb13d9606c134014bbcc34454142fa2"
          ],
          "data": "0x00000000000000000000000037e9b288c56b734c0291d37af478f60ce58a9fc6000000000000000000000000f39fd6e51aad88f6f4ce6ab8827279cfffb922660000000000000000000000000000000000000000000000000000000000000001",
          "blockHash": "0x4bd3fa93b624fa7f721606be052f244e5da34a8b63f46ae2a921063fbab66181",
          "blockNumber": "0x6697f2",
          "blockTimestamp": "0x67cbcd39",
          "transactionHash": "0x8a2fbc909e0ce2a4caa6c7a3fcbad77c865d00af1b42587b717e552217ab037b",
          "transactionIndex": "0x38",
          "logIndex": "0x5e",
          "removed": false
        }
      ],
      "logsBloom": "0x00000000000000000000000000000000000000000000000000000000000000000000000000000000000000000000000000000000000000000000000000000040000000000000000000000000000000000000000000000000000000000000000000000000000000000000000000000000000000000000000000000000004008000000000000000000000000000000000000000000000000000000000000000000000000000000000000000004000000000000000000000000000000000000000000000000800000000000000000000000000000000000000000000000000000000000000000000000000000000000200000000000000000000000000000000000",
      "type": "0x2",
      "transactionHash": "0x8a2fbc909e0ce2a4caa6c7a3fcbad77c865d00af1b42587b717e552217ab037b",
      "transactionIndex": "0x38",
      "blockHash": "0x4bd3fa93b624fa7f721606be052f244e5da34a8b63f46ae2a921063fbab66181",
      "blockNumber": "0x6697f2",
      "gasUsed": "0x114f8",
      "effectiveGasPrice": "0xba43b7401",
      "from": "0x6efb11ac41b6657c32dac5ed4874082c700bba29",
      "to": "0x4fb1d63c0949451a5a8df61aa559fa0f90c54420",
      "contractAddress": null
    },
    {
      "status": "0x1",
      "cumulativeGasUsed": "0x6f4f9d",
      "logs": [
        {
          "address": "0x4fb1d63c0949451a5a8df61aa559fa0f90c54420",
          "topics": [
            "0x7e083367dc9afc5277987d3a84d49e116d9234335bdd7e469b63c11504476fa8"
          ],
          "data": "0x00000000000000000000000097f3d75fcc683c8f557d637196857fa303f7cebd0000000000000000000000000000000000000000000000000000000000000001",
          "blockHash": "0xb2f1fc867dfb9849658d04ba686a2d18e0ed3a1ed6f8821438b366c50ad331d1",
          "blockNumber": "0x6697f3",
          "blockTimestamp": "0x67cbcd3a",
          "transactionHash": "0xea4c5f119ddeabbf09551f0e47d66eeef5fa220e575527891de719abbcba9151",
          "transactionIndex": "0x29",
          "logIndex": "0x58",
          "removed": false
        }
      ],
      "logsBloom": "0x00000000000000000000000000000000000000000000000000000000000000000000000000000000000000000000000000000000000000000000000000000040000000000000000000000000000000000000000000000000000000000000000000000000000000000000000000000000000000000000000000000000010008000000000000000000000000000000000000000000000000000000000000000000000000000000000000000006000000000000000000000000000000000000000000000000000000000000000000000000000000000000000000000000000000000000000000000000000000000000000000000000002000000000000000000000",
      "type": "0x2",
      "transactionHash": "0xea4c5f119ddeabbf09551f0e47d66eeef5fa220e575527891de719abbcba9151",
      "transactionIndex": "0x29",
      "blockHash": "0xb2f1fc867dfb9849658d04ba686a2d18e0ed3a1ed6f8821438b366c50ad331d1",
      "blockNumber": "0x6697f3",
      "gasUsed": "0x10043",
      "effectiveGasPrice": "0xba43b7401",
      "from": "0x6efb11ac41b6657c32dac5ed4874082c700bba29",
      "to": "0x4fb1d63c0949451a5a8df61aa559fa0f90c54420",
      "contractAddress": null
    },
    {
      "status": "0x1",
      "cumulativeGasUsed": "0x704fe0",
      "logs": [
        {
          "address": "0x4fb1d63c0949451a5a8df61aa559fa0f90c54420",
          "topics": [
            "0x7e083367dc9afc5277987d3a84d49e116d9234335bdd7e469b63c11504476fa8"
          ],
          "data": "0x00000000000000000000000037e9b288c56b734c0291d37af478f60ce58a9fc60000000000000000000000000000000000000000000000000000000000000001",
          "blockHash": "0xb2f1fc867dfb9849658d04ba686a2d18e0ed3a1ed6f8821438b366c50ad331d1",
          "blockNumber": "0x6697f3",
          "blockTimestamp": "0x67cbcd3a",
          "transactionHash": "0x773b0a2ec436b5912a1dbef63436df791c51d0cde1c2f02d22d50f8f2641a996",
          "transactionIndex": "0x2a",
          "logIndex": "0x59",
          "removed": false
        }
      ],
      "logsBloom": "0x00000000000000000000000000000000000000000000000000000000000000000000000000000000000000000000000000000000000000000000000000000040000000000000000000000000000000000000000000000000000000000000000000000000000000000000000000000000000000000000000000000000010008000000000000000000000000000000000000000000000000000000000000000000000000000000000000000006000000000000000000000000000000000000000000000000000000000000000000000000000000000000000000000000000000000000000000000000000000000000000000000000002000000000000000000000",
      "type": "0x2",
      "transactionHash": "0x773b0a2ec436b5912a1dbef63436df791c51d0cde1c2f02d22d50f8f2641a996",
      "transactionIndex": "0x2a",
      "blockHash": "0xb2f1fc867dfb9849658d04ba686a2d18e0ed3a1ed6f8821438b366c50ad331d1",
      "blockNumber": "0x6697f3",
      "gasUsed": "0x10043",
      "effectiveGasPrice": "0xba43b7401",
      "from": "0x6efb11ac41b6657c32dac5ed4874082c700bba29",
      "to": "0x4fb1d63c0949451a5a8df61aa559fa0f90c54420",
      "contractAddress": null
    },
    {
      "status": "0x1",
      "cumulativeGasUsed": "0x714a57",
      "logs": [],
      "logsBloom": "0x00000000000000000000000000000000000000000000000000000000000000000000000000000000000000000000000000000000000000000000000000000000000000000000000000000000000000000000000000000000000000000000000000000000000000000000000000000000000000000000000000000000000000000000000000000000000000000000000000000000000000000000000000000000000000000000000000000000000000000000000000000000000000000000000000000000000000000000000000000000000000000000000000000000000000000000000000000000000000000000000000000000000000000000000000000000",
      "type": "0x2",
      "transactionHash": "0xf1f96c6ec2aa274c15d4fabeecd906d59896a0c78a813f78eb69bd44f0469245",
      "transactionIndex": "0x2b",
      "blockHash": "0xb2f1fc867dfb9849658d04ba686a2d18e0ed3a1ed6f8821438b366c50ad331d1",
      "blockNumber": "0x6697f3",
      "gasUsed": "0xfa77",
      "effectiveGasPrice": "0xba43b7401",
      "from": "0x6efb11ac41b6657c32dac5ed4874082c700bba29",
      "to": "0x4fb1d63c0949451a5a8df61aa559fa0f90c54420",
      "contractAddress": null
    },
    {
      "status": "0x1",
      "cumulativeGasUsed": "0x7244ce",
      "logs": [],
      "logsBloom": "0x00000000000000000000000000000000000000000000000000000000000000000000000000000000000000000000000000000000000000000000000000000000000000000000000000000000000000000000000000000000000000000000000000000000000000000000000000000000000000000000000000000000000000000000000000000000000000000000000000000000000000000000000000000000000000000000000000000000000000000000000000000000000000000000000000000000000000000000000000000000000000000000000000000000000000000000000000000000000000000000000000000000000000000000000000000000",
      "type": "0x2",
      "transactionHash": "0xecf63bad6ad2fbae558499b45fcf8ac0c67cd482b7dda220b86f97202776709f",
      "transactionIndex": "0x2c",
      "blockHash": "0xb2f1fc867dfb9849658d04ba686a2d18e0ed3a1ed6f8821438b366c50ad331d1",
      "blockNumber": "0x6697f3",
      "gasUsed": "0xfa77",
      "effectiveGasPrice": "0xba43b7401",
      "from": "0x6efb11ac41b6657c32dac5ed4874082c700bba29",
      "to": "0x4fb1d63c0949451a5a8df61aa559fa0f90c54420",
      "contractAddress": null
    }
  ],
  "libraries": [],
  "pending": [],
  "returns": {},
  "timestamp": 1741409595,
  "chain": 10143,
  "commit": "75ade75"
}