{
  "transactions": [
    {
      "hash": "0x84d4d334c2e2e07948db05246e623c35d9e6e9865a26cdb26de39413185ed16b",
      "transactionType": "CALL",
      "contractName": null,
      "contractAddress": "0x4fb1d63c0949451a5a8df61aa559fa0f90c54420",
      "function": "setSigner(address,address,bool)",
      "arguments": [
        "0x97f3d75FcC683c8F557D637196857FA303f7cebd",
        "0xf39Fd6e51aad88F6F4ce6aB8827279cffFb92266",
        "true"
      ],
      "transaction": {
        "from": "0x6efb11ac41b6657c32dac5ed4874082c700bba29",
        "to": "0x4fb1d63c0949451a5a8df61aa559fa0f90c54420",
        "gas": "0x9a36",
        "value": "0x0",
        "input": "0xa1dc139d00000000000000000000000097f3d75fcc683c8f557d637196857fa303f7cebd000000000000000000000000f39fd6e51aad88f6f4ce6ab8827279cfffb922660000000000000000000000000000000000000000000000000000000000000001",
        "nonce": "0x3c",
        "chainId": "0x279f"
      },
      "additionalContracts": [],
      "isFixedGasLimit": false
    },
    {
      "hash": "0x9597ae3301ff5133144a41eba0dc713c72348206a85b1bee278f376b853cc96a",
      "transactionType": "CALL",
      "contractName": null,
      "contractAddress": "0x4fb1d63c0949451a5a8df61aa559fa0f90c54420",
      "function": "setSigner(address,address,bool)",
      "arguments": [
        "0x37e9b288c56B734c0291d37af478F60cE58a9Fc6",
        "0xf39Fd6e51aad88F6F4ce6aB8827279cffFb92266",
        "true"
      ],
      "transaction": {
        "from": "0x6efb11ac41b6657c32dac5ed4874082c700bba29",
        "to": "0x4fb1d63c0949451a5a8df61aa559fa0f90c54420",
        "gas": "0x9a36",
        "value": "0x0",
        "input": "0xa1dc139d00000000000000000000000037e9b288c56b734c0291d37af478f60ce58a9fc6000000000000000000000000f39fd6e51aad88f6f4ce6ab8827279cfffb922660000000000000000000000000000000000000000000000000000000000000001",
        "nonce": "0x3d",
        "chainId": "0x279f"
      },
      "additionalContracts": [],
      "isFixedGasLimit": false
    },
    {
      "hash": "0xf7dd509898f3298cb0517d973615ca1121d3c6c143c5800ac126c18ef067e14a",
      "transactionType": "CALL",
      "contractName": null,
      "contractAddress": "0x4fb1d63c0949451a5a8df61aa559fa0f90c54420",
      "function": "setMinSigners(address,uint256)",
      "arguments": [
        "0x97f3d75FcC683c8F557D637196857FA303f7cebd",
        "1"
      ],
      "transaction": {
        "from": "0x6efb11ac41b6657c32dac5ed4874082c700bba29",
        "to": "0x4fb1d63c0949451a5a8df61aa559fa0f90c54420",
        "gas": "0x94e4",
        "value": "0x0",
        "input": "0x717f4ada00000000000000000000000097f3d75fcc683c8f557d637196857fa303f7cebd0000000000000000000000000000000000000000000000000000000000000001",
        "nonce": "0x3e",
        "chainId": "0x279f"
      },
      "additionalContracts": [],
      "isFixedGasLimit": false
    },
    {
      "hash": "0x0419a872679dd3831f42caf74353ff775a48e1b2d43c5ebf9186eefc6a3494cf",
      "transactionType": "CALL",
      "contractName": null,
      "contractAddress": "0x4fb1d63c0949451a5a8df61aa559fa0f90c54420",
      "function": "setMinSigners(address,uint256)",
      "arguments": [
        "0x37e9b288c56B734c0291d37af478F60cE58a9Fc6",
        "1"
      ],
      "transaction": {
        "from": "0x6efb11ac41b6657c32dac5ed4874082c700bba29",
        "to": "0x4fb1d63c0949451a5a8df61aa559fa0f90c54420",
        "gas": "0x94e4",
        "value": "0x0",
        "input": "0x717f4ada00000000000000000000000037e9b288c56b734c0291d37af478f60ce58a9fc60000000000000000000000000000000000000000000000000000000000000001",
        "nonce": "0x3f",
        "chainId": "0x279f"
      },
      "additionalContracts": [],
      "isFixedGasLimit": false
    },
    {
      "hash": "0xb106a38b18215bf76c23f2a6795aa0a17d5c235bc72508463705fee99507b069",
      "transactionType": "CALL",
      "contractName": null,
      "contractAddress": "0x4fb1d63c0949451a5a8df61aa559fa0f90c54420",
      "function": "setMaxPriceAge(address,uint256)",
      "arguments": [
        "0x97f3d75FcC683c8F557D637196857FA303f7cebd",
        "3600"
      ],
      "transaction": {
        "from": "0x6efb11ac41b6657c32dac5ed4874082c700bba29",
        "to": "0x4fb1d63c0949451a5a8df61aa559fa0f90c54420",
        "gas": "0x9784",
        "value": "0x0",
        "input": "0xddac7f1b00000000000000000000000097f3d75fcc683c8f557d637196857fa303f7cebd0000000000000000000000000000000000000000000000000000000000000e10",
        "nonce": "0x40",
        "chainId": "0x279f"
      },
      "additionalContracts": [],
      "isFixedGasLimit": false
    },
    {
      "hash": "0x28683db1d37f26d215f9e4f3ed81c9b2a223e7597a18627c81f4bdf31e885908",
      "transactionType": "CALL",
      "contractName": null,
      "contractAddress": "0x4fb1d63c0949451a5a8df61aa559fa0f90c54420",
      "function": "setMaxPriceAge(address,uint256)",
      "arguments": [
        "0x37e9b288c56B734c0291d37af478F60cE58a9Fc6",
        "3600"
      ],
      "transaction": {
        "from": "0x6efb11ac41b6657c32dac5ed4874082c700bba29",
        "to": "0x4fb1d63c0949451a5a8df61aa559fa0f90c54420",
        "gas": "0x9784",
        "value": "0x0",
        "input": "0xddac7f1b00000000000000000000000037e9b288c56b734c0291d37af478f60ce58a9fc60000000000000000000000000000000000000000000000000000000000000e10",
        "nonce": "0x41",
        "chainId": "0x279f"
      },
      "additionalContracts": [],
      "isFixedGasLimit": false
    }
  ],
  "receipts": [
    {
      "status": "0x1",
      "cumulativeGasUsed": "0x6921d5",
      "logs": [
        {
          "address": "0x4fb1d63c0949451a5a8df61aa559fa0f90c54420",
          "topics": [
            "0x1364a7d9e8f00b65e45259e034365ab86eb13d9606c134014bbcc34454142fa2"
          ],
          "data": "0x00000000000000000000000097f3d75fcc683c8f557d637196857fa303f7cebd000000000000000000000000f39fd6e51aad88f6f4ce6ab8827279cfffb922660000000000000000000000000000000000000000000000000000000000000001",
          "blockHash": "0xe86b0b687425f35e3ddda08b5b4b97528ba2ea7c143d895a78ca01297227fb36",
          "blockNumber": "0x669930",
          "blockTimestamp": "0x67cbcdd9",
          "transactionHash": "0x84d4d334c2e2e07948db05246e623c35d9e6e9865a26cdb26de39413185ed16b",
          "transactionIndex": "0x34",
          "logIndex": "0x81",
          "removed": false
        }
      ],
      "logsBloom": "0x00000000000000000000000000000000000000000000000000000000000000000000000000000000000000000000000000000000000000000000000000000040000000000000000000000000000000000000000000000000000000000000000000000000000000000000000000000000000000000000000000000000004008000000000000000000000000000000000000000000000000000000000000000000000000000000000000000004000000000000000000000000000000000000000000000000800000000000000000000000000000000000000000000000000000000000000000000000000000000000200000000000000000000000000000000000",
      "type": "0x2",
      "transactionHash": "0x84d4d334c2e2e07948db05246e623c35d9e6e9865a26cdb26de39413185ed16b",
      "transactionIndex": "0x34",
      "blockHash": "0xe86b0b687425f35e3ddda08b5b4b97528ba2ea7c143d895a78ca01297227fb36",
      "blockNumber": "0x669930",
      "gasUsed": "0x9a36",
      "effectiveGasPrice": "0xba43b7401",
      "from": "0x6efb11ac41b6657c32dac5ed4874082c700bba29",
      "to": "0x4fb1d63c0949451a5a8df61aa559fa0f90c54420",
      "contractAddress": null
    },
    {
      "status": "0x1",
      "cumulativeGasUsed": "0x4db823",
      "logs": [
        {
          "address": "0x4fb1d63c0949451a5a8df61aa559fa0f90c54420",
          "topics": [
            "0x1364a7d9e8f00b65e45259e034365ab86eb13d9606c134014bbcc34454142fa2"
          ],
          "data": "0x00000000000000000000000037e9b288c56b734c0291d37af478f60ce58a9fc6000000000000000000000000f39fd6e51aad88f6f4ce6ab8827279cfffb922660000000000000000000000000000000000000000000000000000000000000001",
          "blockHash": "0x0f1861ac11e7ffc0659d459522eceb37af55eb0e457d21e93e16b4390d2dc49d",
          "blockNumber": "0x669931",
          "blockTimestamp": "0x67cbcdd9",
          "transactionHash": "0x9597ae3301ff5133144a41eba0dc713c72348206a85b1bee278f376b853cc96a",
          "transactionIndex": "0x2b",
          "logIndex": "0x44",
          "removed": false
        }
      ],
      "logsBloom": "0x00000000000000000000000000000000000000000000000000000000000000000000000000000000000000000000000000000000000000000000000000000040000000000000000000000000000000000000000000000000000000000000000000000000000000000000000000000000000000000000000000000000004008000000000000000000000000000000000000000000000000000000000000000000000000000000000000000004000000000000000000000000000000000000000000000000800000000000000000000000000000000000000000000000000000000000000000000000000000000000200000000000000000000000000000000000",
      "type": "0x2",
      "transactionHash": "0x9597ae3301ff5133144a41eba0dc713c72348206a85b1bee278f376b853cc96a",
      "transactionIndex": "0x2b",
      "blockHash": "0x0f1861ac11e7ffc0659d459522eceb37af55eb0e457d21e93e16b4390d2dc49d",
      "blockNumber": "0x669931",
      "gasUsed": "0x9a36",
      "effectiveGasPrice": "0xba43b7401",
      "from": "0x6efb11ac41b6657c32dac5ed4874082c700bba29",
      "to": "0x4fb1d63c0949451a5a8df61aa559fa0f90c54420",
      "contractAddress": null
    },
    {
      "status": "0x1",
      "cumulativeGasUsed": "0x4e4d07",
      "logs": [
        {
          "address": "0x4fb1d63c0949451a5a8df61aa559fa0f90c54420",
          "topics": [
            "0x7e083367dc9afc5277987d3a84d49e116d9234335bdd7e469b63c11504476fa8"
          ],
          "data": "0x00000000000000000000000097f3d75fcc683c8f557d637196857fa303f7cebd0000000000000000000000000000000000000000000000000000000000000001",
          "blockHash": "0x0f1861ac11e7ffc0659d459522eceb37af55eb0e457d21e93e16b4390d2dc49d",
          "blockNumber": "0x669931",
          "blockTimestamp": "0x67cbcdd9",
          "transactionHash": "0xf7dd509898f3298cb0517d973615ca1121d3c6c143c5800ac126c18ef067e14a",
          "transactionIndex": "0x2c",
          "logIndex": "0x45",
          "removed": false
        }
      ],
      "logsBloom": "0x00000000000000000000000000000000000000000000000000000000000000000000000000000000000000000000000000000000000000000000000000000040000000000000000000000000000000000000000000000000000000000000000000000000000000000000000000000000000000000000000000000000010008000000000000000000000000000000000000000000000000000000000000000000000000000000000000000006000000000000000000000000000000000000000000000000000000000000000000000000000000000000000000000000000000000000000000000000000000000000000000000000002000000000000000000000",
      "type": "0x2",
      "transactionHash": "0xf7dd509898f3298cb0517d973615ca1121d3c6c143c5800ac126c18ef067e14a",
      "transactionIndex": "0x2c",
      "blockHash": "0x0f1861ac11e7ffc0659d459522eceb37af55eb0e457d21e93e16b4390d2dc49d",
      "blockNumber": "0x669931",
      "gasUsed": "0x94e4",
      "effectiveGasPrice": "0xba43b7401",
      "from": "0x6efb11ac41b6657c32dac5ed4874082c700bba29",
      "to": "0x4fb1d63c0949451a5a8df61aa559fa0f90c54420",
      "contractAddress": null
    },
    {
      "status": "0x1",
      "cumulativeGasUsed": "0x4ee1eb",
      "logs": [
        {
          "address": "0x4fb1d63c0949451a5a8df61aa559fa0f90c54420",
          "topics": [
            "0x7e083367dc9afc5277987d3a84d49e116d9234335bdd7e469b63c11504476fa8"
          ],
          "data": "0x00000000000000000000000037e9b288c56b734c0291d37af478f60ce58a9fc60000000000000000000000000000000000000000000000000000000000000001",
          "blockHash": "0x0f1861ac11e7ffc0659d459522eceb37af55eb0e457d21e93e16b4390d2dc49d",
          "blockNumber": "0x669931",
          "blockTimestamp": "0x67cbcdd9",
          "transactionHash": "0x0419a872679dd3831f42caf74353ff775a48e1b2d43c5ebf9186eefc6a3494cf",
          "transactionIndex": "0x2d",
          "logIndex": "0x46",
          "removed": false
        }
      ],
      "logsBloom": "0x00000000000000000000000000000000000000000000000000000000000000000000000000000000000000000000000000000000000000000000000000000040000000000000000000000000000000000000000000000000000000000000000000000000000000000000000000000000000000000000000000000000010008000000000000000000000000000000000000000000000000000000000000000000000000000000000000000006000000000000000000000000000000000000000000000000000000000000000000000000000000000000000000000000000000000000000000000000000000000000000000000000002000000000000000000000",
      "type": "0x2",
      "transactionHash": "0x0419a872679dd3831f42caf74353ff775a48e1b2d43c5ebf9186eefc6a3494cf",
      "transactionIndex": "0x2d",
      "blockHash": "0x0f1861ac11e7ffc0659d459522eceb37af55eb0e457d21e93e16b4390d2dc49d",
      "blockNumber": "0x669931",
      "gasUsed": "0x94e4",
      "effectiveGasPrice": "0xba43b7401",
      "from": "0x6efb11ac41b6657c32dac5ed4874082c700bba29",
      "to": "0x4fb1d63c0949451a5a8df61aa559fa0f90c54420",
      "contractAddress": null
    },
    {
      "status": "0x1",
      "cumulativeGasUsed": "0x4f796f",
      "logs": [],
      "logsBloom": "0x00000000000000000000000000000000000000000000000000000000000000000000000000000000000000000000000000000000000000000000000000000000000000000000000000000000000000000000000000000000000000000000000000000000000000000000000000000000000000000000000000000000000000000000000000000000000000000000000000000000000000000000000000000000000000000000000000000000000000000000000000000000000000000000000000000000000000000000000000000000000000000000000000000000000000000000000000000000000000000000000000000000000000000000000000000000",
      "type": "0x2",
      "transactionHash": "0xb106a38b18215bf76c23f2a6795aa0a17d5c235bc72508463705fee99507b069",
      "transactionIndex": "0x2e",
      "blockHash": "0x0f1861ac11e7ffc0659d459522eceb37af55eb0e457d21e93e16b4390d2dc49d",
      "blockNumber": "0x669931",
      "gasUsed": "0x9784",
      "effectiveGasPrice": "0xba43b7401",
      "from": "0x6efb11ac41b6657c32dac5ed4874082c700bba29",
      "to": "0x4fb1d63c0949451a5a8df61aa559fa0f90c54420",
      "contractAddress": null
    },
    {
      "status": "0x1",
      "cumulativeGasUsed": "0x5010f3",
      "logs": [],
      "logsBloom": "0x00000000000000000000000000000000000000000000000000000000000000000000000000000000000000000000000000000000000000000000000000000000000000000000000000000000000000000000000000000000000000000000000000000000000000000000000000000000000000000000000000000000000000000000000000000000000000000000000000000000000000000000000000000000000000000000000000000000000000000000000000000000000000000000000000000000000000000000000000000000000000000000000000000000000000000000000000000000000000000000000000000000000000000000000000000000",
      "type": "0x2",
      "transactionHash": "0x28683db1d37f26d215f9e4f3ed81c9b2a223e7597a18627c81f4bdf31e885908",
      "transactionIndex": "0x2f",
      "blockHash": "0x0f1861ac11e7ffc0659d459522eceb37af55eb0e457d21e93e16b4390d2dc49d",
      "blockNumber": "0x669931",
      "gasUsed": "0x9784",
      "effectiveGasPrice": "0xba43b7401",
      "from": "0x6efb11ac41b6657c32dac5ed4874082c700bba29",
      "to": "0x4fb1d63c0949451a5a8df61aa559fa0f90c54420",
      "contractAddress": null
    }
  ],
  "libraries": [],
  "pending": [],
  "returns": {},
  "timestamp": 1741409756,
  "chain": 10143,
  "commit": "75ade75"
}