{
  "transactions": [
    {
      "hash": "0x0c9d769a107a79e382592bab56911863e1b32f906dbde23c48c7f477528db4c0",
      "transactionType": "CALL",
      "contractName": null,
      "contractAddress": "0x320923b6a3bff8a4779bfeaceecf0bf8c4615976",
      "function": "cancelOrder(uint256)",
      "arguments": [
        "0"
      ],
      "transaction": {
        "from": "0xe2bc073e0d55274dba18a0e11463a5dfd16c5057",
        "to": "0x320923b6a3bff8a4779bfeaceecf0bf8c4615976",
        "gas": "0x324f2",
        "value": "0x0",
        "input": "0x514fcac70000000000000000000000000000000000000000000000000000000000000000",
        "nonce": "0x1dc2",
        "chainId": "0x66eee"
      },
      "additionalContracts": [],
      "isFixedGasLimit": false
    }
  ],
  "receipts": [
    {
      "status": "0x1",
      "cumulativeGasUsed": "0x1e4ce",
      "logs": [
        {
          "address": "0x8babd1e824a30bdf9986ed73fb2494150ae65a71",
          "topics": [
            "0xddf252ad1be2c89b69c2b068fc378daa952ba7f163c4a11628f55a4df523b3ef",
            "0x000000000000000000000000f32b8495032c03b4bc57cff04118575f3f6e2bc9",
            "0x0000000000000000000000006ca52789d1d025fddd66c0072bf33dcaeb894be4"
          ],
          "data": "0x0000000000000000000000000000000000000000000000001bc16d674eb8bdc0",
          "blockHash": "0xfc35f2406d4386056ebcc37b8da915fb8fc0f232716526956e4232b999294d3c",
          "blockNumber": "0x76891e2",
          "transactionHash": "0x0c9d769a107a79e382592bab56911863e1b32f906dbde23c48c7f477528db4c0",
          "transactionIndex": "0x1",
          "logIndex": "0x0",
          "removed": false
        },
        {
          "address": "0x8babd1e824a30bdf9986ed73fb2494150ae65a71",
          "topics": [
            "0xddf252ad1be2c89b69c2b068fc378daa952ba7f163c4a11628f55a4df523b3ef",
            "0x000000000000000000000000f32b8495032c03b4bc57cff04118575f3f6e2bc9",
            "0x0000000000000000000000006ca52789d1d025fddd66c0072bf33dcaeb894be4"
          ],
          "data": "0x00000000000000000000000000000000000000000000000000000000000f4240",
          "blockHash": "0xfc35f2406d4386056ebcc37b8da915fb8fc0f232716526956e4232b999294d3c",
          "blockNumber": "0x76891e2",
          "transactionHash": "0x0c9d769a107a79e382592bab56911863e1b32f906dbde23c48c7f477528db4c0",
          "transactionIndex": "0x1",
          "logIndex": "0x1",
          "removed": false
        },
        {
          "address": "0x6ca52789d1d025fddd66c0072bf33dcaeb894be4",
          "topics": [
            "0x61b9399f2f0f32ca39ce8d7be32caed5ec22fe07a6daba3a467ed479ec606582"
          ],
          "data": "0x0000000000000000000000000000000000000000000000000000000000000000",
          "blockHash": "0xfc35f2406d4386056ebcc37b8da915fb8fc0f232716526956e4232b999294d3c",
          "blockNumber": "0x76891e2",
          "transactionHash": "0x0c9d769a107a79e382592bab56911863e1b32f906dbde23c48c7f477528db4c0",
          "transactionIndex": "0x1",
          "logIndex": "0x2",
          "removed": false
        }
      ],
      "logsBloom": "0x00200000000000000000000000000800000010000000000000000000000000000000002000000000000000000000000000000000000000000000000000000000000000000000000000000008100000000000000000000020120000000000000000000000000000000000000100000000000000000000000000000010000008000000000008800000000000000000000000000000000000000040000000000000000000000000000000000000000000000000000000000000000000000000000000000002000000000000000000000000000000000000000001000000000000000000000000000000000000000000000000000000000000000000008000000000",
      "type": "0x2",
      "transactionHash": "0x0c9d769a107a79e382592bab56911863e1b32f906dbde23c48c7f477528db4c0",
      "transactionIndex": "0x1",
      "blockHash": "0xfc35f2406d4386056ebcc37b8da915fb8fc0f232716526956e4232b999294d3c",
      "blockNumber": "0x76891e2",
      "gasUsed": "0x1e4ce",
      "effectiveGasPrice": "0x5f5e100",
      "from": "0xe2bc073e0d55274dba18a0e11463a5dfd16c5057",
      "to": "0x320923b6a3bff8a4779bfeaceecf0bf8c4615976",
      "contractAddress": null,
      "gasUsedForL1": "0x0",
      "l1BlockNumber": "0x75cb9e"
    }
  ],
  "libraries": [],
  "pending": [],
  "returns": {},
  "timestamp": 1739708173,
  "chain": 421614,
  "commit": "395e7fa"
}