{
  "transactions": [
    {
      "hash": "0xaae728945137a36c9c737c7954abc907e4123595c6d8f2025927f1edf6ddd45e",
      "transactionType": "CALL",
      "contractName": null,
      "contractAddress": "0x8babd1e824a30bdf9986ed73fb2494150ae65a71",
      "function": "mint(address,uint256)",
      "arguments": [
        "0xe2Bc073E0d55274DBa18A0E11463A5DfD16c5057",
        "10000000000000000000"
      ],
      "transaction": {
        "from": "0xe2bc073e0d55274dba18a0e11463a5dfd16c5057",
        "to": "0x8babd1e824a30bdf9986ed73fb2494150ae65a71",
        "gas": "0xc14d",
        "value": "0x0",
        "input": "0x40c10f19000000000000000000000000e2bc073e0d55274dba18a0e11463a5dfd16c50570000000000000000000000000000000000000000000000008ac7230489e80000",
        "nonce": "0x1dbd",
        "chainId": "0x66eee"
      },
      "additionalContracts": [],
      "isFixedGasLimit": false
    },
    {
      "hash": "0x8074c696212f19b71d8795f304bddeac03c39f354797a84e71ef5bfa18824b2a",
      "transactionType": "CALL",
      "contractName": null,
      "contractAddress": "0x8babd1e824a30bdf9986ed73fb2494150ae65a71",
      "function": "approve(address,uint256)",
      "arguments": [
        "0x320923b6A3bfF8a4779bfeaCEeCf0bf8c4615976",
        "115792089237316195423570985008687907853269984665640564039457584007913129639935"
      ],
      "transaction": {
        "from": "0xe2bc073e0d55274dba18a0e11463a5dfd16c5057",
        "to": "0x8babd1e824a30bdf9986ed73fb2494150ae65a71",
        "gas": "0xeefb",
        "value": "0x0",
        "input": "0x095ea7b3000000000000000000000000320923b6a3bff8a4779bfeaceecf0bf8c4615976ffffffffffffffffffffffffffffffffffffffffffffffffffffffffffffffff",
        "nonce": "0x1dbe",
        "chainId": "0x66eee"
      },
      "additionalContracts": [],
      "isFixedGasLimit": false
    },
    {
      "hash": "0x755b00dd60491582a7c637c74fe12169110a4560c41d65460791a4889e3879ac",
      "transactionType": "CALL",
      "contractName": null,
      "contractAddress": "0x320923b6a3bff8a4779bfeaceecf0bf8c4615976",
      "function": "multicall(bytes[])",
      "arguments": [
        "[0xe6d66ac80000000000000000000000008babd1e824a30bdf9986ed73fb2494150ae65a710000000000000000000000005b1411d67ab1ab94a779ebd71fc69723a2e92c320000000000000000000000000000000000000000000000000de0b6b3a7640000, 0x293953b8000000000000000000000000e2bc073e0d55274dba18a0e11463a5dfd16c5057000000000000000000000000000000000000000000000000000000000000000000000000000000000000000074a403b336fad0db254d2080c28122fb739ff5580000000000000000000000008babd1e824a30bdf9986ed73fb2494150ae65a71000000000000000000000000146aa60180a9542bf2675bbefc1e9f4a5406c155000000000000000000000000000000000000000000000000000000000000000000000000000000000000000000000000000000000000000000000000000f4240]"
      ],
      "transaction": {
        "from": "0xe2bc073e0d55274dba18a0e11463a5dfd16c5057",
        "to": "0x320923b6a3bff8a4779bfeaceecf0bf8c4615976",
        "gas": "0x694ed",
        "value": "0x0",
        "input": "0xac9650d800000000000000000000000000000000000000000000000000000000000000200000000000000000000000000000000000000000000000000000000000000002000000000000000000000000000000000000000000000000000000000000004000000000000000000000000000000000000000000000000000000000000000e00000000000000000000000000000000000000000000000000000000000000064e6d66ac80000000000000000000000008babd1e824a30bdf9986ed73fb2494150ae65a710000000000000000000000005b1411d67ab1ab94a779ebd71fc69723a2e92c320000000000000000000000000000000000000000000000000de0b6b3a76400000000000000000000000000000000000000000000000000000000000000000000000000000000000000000000000000000000000000000000000000e4293953b8000000000000000000000000e2bc073e0d55274dba18a0e11463a5dfd16c5057000000000000000000000000000000000000000000000000000000000000000000000000000000000000000074a403b336fad0db254d2080c28122fb739ff5580000000000000000000000008babd1e824a30bdf9986ed73fb2494150ae65a71000000000000000000000000146aa60180a9542bf2675bbefc1e9f4a5406c155000000000000000000000000000000000000000000000000000000000000000000000000000000000000000000000000000000000000000000000000000f424000000000000000000000000000000000000000000000000000000000",
        "nonce": "0x1dbf",
        "chainId": "0x66eee"
      },
      "additionalContracts": [],
      "isFixedGasLimit": false
    }
  ],
  "receipts": [
    {
      "status": "0x1",
      "cumulativeGasUsed": "0x11c69",
      "logs": [
        {
          "address": "0x8babd1e824a30bdf9986ed73fb2494150ae65a71",
          "topics": [
            "0xddf252ad1be2c89b69c2b068fc378daa952ba7f163c4a11628f55a4df523b3ef",
            "0x0000000000000000000000000000000000000000000000000000000000000000",
            "0x000000000000000000000000e2bc073e0d55274dba18a0e11463a5dfd16c5057"
          ],
          "data": "0x0000000000000000000000000000000000000000000000008ac7230489e80000",
          "blockHash": "0x353cbe29ae2d734e5f0fd3aef833037e4c002b00d68b3797db7272b702804993",
          "blockNumber": "0x76890ee",
          "transactionHash": "0xaae728945137a36c9c737c7954abc907e4123595c6d8f2025927f1edf6ddd45e",
          "transactionIndex": "0x2",
          "logIndex": "0x1",
          "removed": false
        },
        {
          "address": "0x8babd1e824a30bdf9986ed73fb2494150ae65a71",
          "topics": [
            "0x0f6798a560793a54c3bcfe86a93cde1e73087d944c0ea20544137d4121396885"
          ],
          "data": "0x000000000000000000000000e2bc073e0d55274dba18a0e11463a5dfd16c50570000000000000000000000000000000000000000000000008ac7230489e80000",
          "blockHash": "0x353cbe29ae2d734e5f0fd3aef833037e4c002b00d68b3797db7272b702804993",
          "blockNumber": "0x76890ee",
          "transactionHash": "0xaae728945137a36c9c737c7954abc907e4123595c6d8f2025927f1edf6ddd45e",
          "transactionIndex": "0x2",
          "logIndex": "0x2",
          "removed": false
        }
      ],
      "logsBloom": "0x00000000000000000000000000000000000000000000000000000000000000000000002000000000000000000000000000000000000000000000000000000000000000000020000000000008000000001000000000000000000000000000000000000000020000000000000104000800000000000000400000000010000000000000000000000000000000000000000000000000000000000000000000000000000080000010000000000000000000000000000000000000000000000000000000000002000000000000000000000000000000000000000001000000000020000000000000000000000000000000000000000000000000000000000000000000",
      "type": "0x2",
      "transactionHash": "0xaae728945137a36c9c737c7954abc907e4123595c6d8f2025927f1edf6ddd45e",
      "transactionIndex": "0x2",
      "blockHash": "0x353cbe29ae2d734e5f0fd3aef833037e4c002b00d68b3797db7272b702804993",
      "blockNumber": "0x76890ee",
      "gasUsed": "0x9345",
      "effectiveGasPrice": "0x5f5e100",
      "from": "0xe2bc073e0d55274dba18a0e11463a5dfd16c5057",
      "to": "0x8babd1e824a30bdf9986ed73fb2494150ae65a71",
      "contractAddress": null,
      "gasUsedForL1": "0x0",
      "l1BlockNumber": "0x75cb98"
    },
    {
      "status": "0x1",
      "cumulativeGasUsed": "0xb656",
      "logs": [
        {
          "address": "0x8babd1e824a30bdf9986ed73fb2494150ae65a71",
          "topics": [
            "0x8c5be1e5ebec7d5bd14f71427d1e84f3dd0314c0f7b2291e5b200ac8c7c3b925",
            "0x000000000000000000000000e2bc073e0d55274dba18a0e11463a5dfd16c5057",
            "0x000000000000000000000000320923b6a3bff8a4779bfeaceecf0bf8c4615976"
          ],
          "data": "0xffffffffffffffffffffffffffffffffffffffffffffffffffffffffffffffff",
          "blockHash": "0x13ca9263259a9c69f53de56cc66072d6849236db6bb43401b82e528a95b4ee77",
          "blockNumber": "0x76890f3",
          "transactionHash": "0x8074c696212f19b71d8795f304bddeac03c39f354797a84e71ef5bfa18824b2a",
          "transactionIndex": "0x1",
          "logIndex": "0x0",
          "removed": false
        }
      ],
      "logsBloom": "0x00000000000000000000000000000000000000000000000000000000000000000000002000000000000000000000000020004000000000000000000000200000000000000000000000000000000000001000000000000000000000000000000000000000000000000000000104000000000000000000000000000000000000000000000000000000000000000000000000000000000000000000000000000000020000000010000000000000000000000000000000000000000000000000000000000000000000000400000000000000000000000000000001000000000000000010000000000000000000000000000000000000000000000000000000000000",
      "type": "0x2",
      "transactionHash": "0x8074c696212f19b71d8795f304bddeac03c39f354797a84e71ef5bfa18824b2a",
      "transactionIndex": "0x1",
      "blockHash": "0x13ca9263259a9c69f53de56cc66072d6849236db6bb43401b82e528a95b4ee77",
      "blockNumber": "0x76890f3",
      "gasUsed": "0xb656",
      "effectiveGasPrice": "0x5f5e100",
      "from": "0xe2bc073e0d55274dba18a0e11463a5dfd16c5057",
      "to": "0x8babd1e824a30bdf9986ed73fb2494150ae65a71",
      "contractAddress": null,
      "gasUsedForL1": "0x0",
      "l1BlockNumber": "0x75cb98"
    },
    {
      "status": "0x1",
      "cumulativeGasUsed": "0x4c3dc",
      "logs": [
        {
          "address": "0x8babd1e824a30bdf9986ed73fb2494150ae65a71",
          "topics": [
            "0xddf252ad1be2c89b69c2b068fc378daa952ba7f163c4a11628f55a4df523b3ef",
            "0x000000000000000000000000e2bc073e0d55274dba18a0e11463a5dfd16c5057",
            "0x0000000000000000000000005b1411d67ab1ab94a779ebd71fc69723a2e92c32"
          ],
          "data": "0x0000000000000000000000000000000000000000000000000de0b6b3a7640000",
          "blockHash": "0x1c4063e237ab6a798e5495b928cb7de4f0a8d46fc7988e40e93926c26d20656c",
          "blockNumber": "0x76890f9",
          "transactionHash": "0x755b00dd60491582a7c637c74fe12169110a4560c41d65460791a4889e3879ac",
          "transactionIndex": "0x1",
          "logIndex": "0x0",
          "removed": false
        },
        {
          "address": "0x8dad84d239fbbb7fe268c12bcdaf8418408c5477",
          "topics": [
            "0xd3d640118416a526ad33075973727e1675055b2b31a8351bc74271d75fccef9b"
          ],
          "data": "0x0000000000000000000000000000000000000000000000000000000000000000000000000000000000000000e2bc073e0d55274dba18a0e11463a5dfd16c5057000000000000000000000000e2bc073e0d55274dba18a0e11463a5dfd16c5057000000000000000000000000000000000000000000000000000000000000000000000000000000000000000074a403b336fad0db254d2080c28122fb739ff5580000000000000000000000008babd1e824a30bdf9986ed73fb2494150ae65a71000000000000000000000000146aa60180a9542bf2675bbefc1e9f4a5406c15500000000000000000000000000000000000000000000000000000000000f42400000000000000000000000000000000000000000000000000de0b6b3a754bdc00000000000000000000000000000000000000000000000000000000000000000",
          "blockHash": "0x1c4063e237ab6a798e5495b928cb7de4f0a8d46fc7988e40e93926c26d20656c",
          "blockNumber": "0x76890f9",
          "transactionHash": "0x755b00dd60491582a7c637c74fe12169110a4560c41d65460791a4889e3879ac",
          "transactionIndex": "0x1",
          "logIndex": "0x1",
          "removed": false
        }
      ],
      "logsBloom": "0x00000000000000000000000000000000000000000000000000000000040000000000002000000000000000000000000000000000000000000000000000000000000000000000000000000008000000001000000000000000000000000000000000000000000000002000000104000000008000000000000000000010200000000000000000000000000000000000000000000000000000000000200000000000000000000010000000000000000000000000000000000000000000000000000000000002000080000040800000000040000000000000000001000000000000000000000000000000000000000000000000000000000000000000000000000000",
      "type": "0x2",
      "transactionHash": "0x755b00dd60491582a7c637c74fe12169110a4560c41d65460791a4889e3879ac",
      "transactionIndex": "0x1",
      "blockHash": "0x1c4063e237ab6a798e5495b928cb7de4f0a8d46fc7988e40e93926c26d20656c",
      "blockNumber": "0x76890f9",
      "gasUsed": "0x4c3dc",
      "effectiveGasPrice": "0x5f5e100",
      "from": "0xe2bc073e0d55274dba18a0e11463a5dfd16c5057",
      "to": "0x320923b6a3bff8a4779bfeaceecf0bf8c4615976",
      "contractAddress": null,
      "gasUsedForL1": "0x0",
      "l1BlockNumber": "0x75cb98"
    }
  ],
  "libraries": [],
  "pending": [],
  "returns": {},
  "timestamp": 1739708109,
  "chain": 421614,
  "commit": "395e7fa"
}