{
  "transactions": [
    {
      "hash": "0xcf427cf75872b72434268f9e70ecf977091666dbfe0953149a278cd694d3069c",
      "transactionType": "CALL",
      "contractName": null,
      "contractAddress": "0x2c53ce7143d24a65410107f50e4aabad9a164480",
      "function": "mint(address,uint256)",
      "arguments": [
        "0x6EFb11aC41B6657c32dAc5Ed4874082C700BbA29",
        "10000000000000000000000"
      ],
      "transaction": {
        "from": "0x6efb11ac41b6657c32dac5ed4874082c700bba29",
        "to": "0x2c53ce7143d24a65410107f50e4aabad9a164480",
        "gas": "0xc1c9",
        "value": "0x0",
        "input": "0x40c10f190000000000000000000000006efb11ac41b6657c32dac5ed4874082c700bba2900000000000000000000000000000000000000000000021e19e0c9bab2400000",
        "nonce": "0xda",
        "chainId": "0x279f"
      },
      "additionalContracts": [],
      "isFixedGasLimit": false
    },
    {
      "hash": "0xc40c039b0e2c72c6231fe8bc6e2177ca1107dd3898ddd1c16a70eaa367707a87",
      "transactionType": "CALL",
      "contractName": null,
      "contractAddress": "0x53f7c389cbb801e2abfd301ded6d2a1cf330ac0d",
      "function": "mint(address,uint256)",
      "arguments": [
        "0x6EFb11aC41B6657c32dAc5Ed4874082C700BbA29",
        "10000000000000000000000"
      ],
      "transaction": {
        "from": "0x6efb11ac41b6657c32dac5ed4874082c700bba29",
        "to": "0x53f7c389cbb801e2abfd301ded6d2a1cf330ac0d",
        "gas": "0xc1c9",
        "value": "0x0",
        "input": "0x40c10f190000000000000000000000006efb11ac41b6657c32dac5ed4874082c700bba2900000000000000000000000000000000000000000000021e19e0c9bab2400000",
        "nonce": "0xdb",
        "chainId": "0x279f"
      },
      "additionalContracts": [],
      "isFixedGasLimit": false
    },
    {
      "hash": "0x0bd292449fb92e39b71cbc3d74da83ed40a21af20455050d6829f65b0630368b",
      "transactionType": "CALL",
      "contractName": null,
      "contractAddress": "0xf9861d7478f8957679b26404bd6272c39f949c29",
      "function": "mint(address,uint256)",
      "arguments": [
        "0x6EFb11aC41B6657c32dAc5Ed4874082C700BbA29",
        "10000000000000000000000000"
      ],
      "transaction": {
        "from": "0x6efb11ac41b6657c32dac5ed4874082c700bba29",
        "to": "0xf9861d7478f8957679b26404bd6272c39f949c29",
        "gas": "0xc1c9",
        "value": "0x0",
        "input": "0x40c10f190000000000000000000000006efb11ac41b6657c32dac5ed4874082c700bba29000000000000000000000000000000000000000000084595161401484a000000",
        "nonce": "0xdc",
        "chainId": "0x279f"
      },
      "additionalContracts": [],
      "isFixedGasLimit": false
    },
    {
      "hash": "0x67e787829b14e1fbf7243e4ab825c832d776e6e1bcdba42babf28a612deaefae",
      "transactionType": "CALL",
      "contractName": null,
      "contractAddress": "0x1889cfb8746716a0ac50e59a54f190987c5f04e6",
      "function": "mint(address,uint256)",
      "arguments": [
        "0x6EFb11aC41B6657c32dAc5Ed4874082C700BbA29",
        "100000000000000"
      ],
      "transaction": {
        "from": "0x6efb11ac41b6657c32dac5ed4874082c700bba29",
        "to": "0x1889cfb8746716a0ac50e59a54f190987c5f04e6",
        "gas": "0xb6d2",
        "value": "0x0",
        "input": "0x40c10f190000000000000000000000006efb11ac41b6657c32dac5ed4874082c700bba2900000000000000000000000000000000000000000000000000005af3107a4000",
        "nonce": "0xdd",
        "chainId": "0x279f"
      },
      "additionalContracts": [],
      "isFixedGasLimit": false
    },
    {
      "hash": "0xeb129267d74238600c25cc959297dae935a392d5e5e519bc661e0bf09ccf52c2",
      "transactionType": "CALL",
      "contractName": null,
      "contractAddress": "0x6bc8a42d4b2f4bc8e4c3f9ecff00b7290ffa7405",
      "function": "mint(address,uint256)",
      "arguments": [
        "0x6EFb11aC41B6657c32dAc5Ed4874082C700BbA29",
        "100000000000000000000000"
      ],
      "transaction": {
        "from": "0x6efb11ac41b6657c32dac5ed4874082c700bba29",
        "to": "0x6bc8a42d4b2f4bc8e4c3f9ecff00b7290ffa7405",
        "gas": "0xc1c9",
        "value": "0x0",
        "input": "0x40c10f190000000000000000000000006efb11ac41b6657c32dac5ed4874082c700bba2900000000000000000000000000000000000000000000152d02c7e14af6800000",
        "nonce": "0xde",
        "chainId": "0x279f"
      },
      "additionalContracts": [],
      "isFixedGasLimit": false
    },
    {
      "hash": "0x9fa19a6f9cb2a4d868b6c4c1f7f192f1d58028bf369e6c76c34ee3fc5c208fd2",
      "transactionType": "CALL",
      "contractName": null,
      "contractAddress": "0xe3f98fda6dbd38c1017754f1675dce377381c23c",
      "function": "mint(address,uint256)",
      "arguments": [
        "0x6EFb11aC41B6657c32dAc5Ed4874082C700BbA29",
        "10000000000000000000000"
      ],
      "transaction": {
        "from": "0x6efb11ac41b6657c32dac5ed4874082c700bba29",
        "to": "0xe3f98fda6dbd38c1017754f1675dce377381c23c",
        "gas": "0xc1c9",
        "value": "0x0",
        "input": "0x40c10f190000000000000000000000006efb11ac41b6657c32dac5ed4874082c700bba2900000000000000000000000000000000000000000000021e19e0c9bab2400000",
        "nonce": "0xdf",
        "chainId": "0x279f"
      },
      "additionalContracts": [],
      "isFixedGasLimit": false
    },
    {
      "hash": "0x6e17c771c7a1129cc33b6bfffdb43207e9d96dcd50b7f79a7a9b88df79abe559",
      "transactionType": "CALL",
      "contractName": null,
      "contractAddress": "0x58389610a3d13e8f380ee2ba077a6f36f2a90834",
      "function": "mint(address,uint256)",
      "arguments": [
        "0x6EFb11aC41B6657c32dAc5Ed4874082C700BbA29",
        "1000000000000"
      ],
      "transaction": {
        "from": "0x6efb11ac41b6657c32dac5ed4874082c700bba29",
        "to": "0x58389610a3d13e8f380ee2ba077a6f36f2a90834",
        "gas": "0xc183",
        "value": "0x0",
        "input": "0x40c10f190000000000000000000000006efb11ac41b6657c32dac5ed4874082c700bba29000000000000000000000000000000000000000000000000000000e8d4a51000",
        "nonce": "0xe0",
        "chainId": "0x279f"
      },
      "additionalContracts": [],
      "isFixedGasLimit": false
    },
    {
      "hash": "0xc6e2c61d093a9e362c36b29831b1c3c1ac83ed97ad05d8882e010e47dff035a6",
      "transactionType": "CALL",
      "contractName": null,
      "contractAddress": "0x2c53ce7143d24a65410107f50e4aabad9a164480",
      "function": "approve(address,uint256)",
      "arguments": [
        "0xa1ba9a5d1338c212C22405998268b0F6AA02Ab6E",
        "115792089237316195423570985008687907853269984665640564039457584007913129639935"
      ],
      "transaction": {
        "from": "0x6efb11ac41b6657c32dac5ed4874082c700bba29",
        "to": "0x2c53ce7143d24a65410107f50e4aabad9a164480",
        "gas": "0xf9a4",
        "value": "0x0",
        "input": "0x095ea7b3000000000000000000000000a1ba9a5d1338c212c22405998268b0f6aa02ab6effffffffffffffffffffffffffffffffffffffffffffffffffffffffffffffff",
        "nonce": "0xe1",
        "chainId": "0x279f"
      },
      "additionalContracts": [],
      "isFixedGasLimit": false
    },
    {
      "hash": "0x09eff97d8f029983fee435e292c1e807961213c054f33404379a55056b84583c",
      "transactionType": "CALL",
      "contractName": null,
      "contractAddress": "0x53f7c389cbb801e2abfd301ded6d2a1cf330ac0d",
      "function": "approve(address,uint256)",
      "arguments": [
        "0xa1ba9a5d1338c212C22405998268b0F6AA02Ab6E",
        "115792089237316195423570985008687907853269984665640564039457584007913129639935"
      ],
      "transaction": {
        "from": "0x6efb11ac41b6657c32dac5ed4874082c700bba29",
        "to": "0x53f7c389cbb801e2abfd301ded6d2a1cf330ac0d",
        "gas": "0xf9a4",
        "value": "0x0",
        "input": "0x095ea7b3000000000000000000000000a1ba9a5d1338c212c22405998268b0f6aa02ab6effffffffffffffffffffffffffffffffffffffffffffffffffffffffffffffff",
        "nonce": "0xe2",
        "chainId": "0x279f"
      },
      "additionalContracts": [],
      "isFixedGasLimit": false
    },
    {
      "hash": "0x72b16dbd680c55fbbd0d808a4d19f536aa22cf966d6f8d8b3cc7e24ec0e440d1",
      "transactionType": "CALL",
      "contractName": null,
      "contractAddress": "0xf9861d7478f8957679b26404bd6272c39f949c29",
      "function": "approve(address,uint256)",
      "arguments": [
        "0xa1ba9a5d1338c212C22405998268b0F6AA02Ab6E",
        "115792089237316195423570985008687907853269984665640564039457584007913129639935"
      ],
      "transaction": {
        "from": "0x6efb11ac41b6657c32dac5ed4874082c700bba29",
        "to": "0xf9861d7478f8957679b26404bd6272c39f949c29",
        "gas": "0xf9a4",
        "value": "0x0",
        "input": "0x095ea7b3000000000000000000000000a1ba9a5d1338c212c22405998268b0f6aa02ab6effffffffffffffffffffffffffffffffffffffffffffffffffffffffffffffff",
        "nonce": "0xe3",
        "chainId": "0x279f"
      },
      "additionalContracts": [],
      "isFixedGasLimit": false
    },
    {
      "hash": "0xb4fa116a57ad040e736af92658cff38b71ac3c6da7c1e4c19c18ea29a0d1ae05",
      "transactionType": "CALL",
      "contractName": null,
      "contractAddress": "0x1889cfb8746716a0ac50e59a54f190987c5f04e6",
      "function": "approve(address,uint256)",
      "arguments": [
        "0xa1ba9a5d1338c212C22405998268b0F6AA02Ab6E",
        "115792089237316195423570985008687907853269984665640564039457584007913129639935"
      ],
      "transaction": {
        "from": "0x6efb11ac41b6657c32dac5ed4874082c700bba29",
        "to": "0x1889cfb8746716a0ac50e59a54f190987c5f04e6",
        "gas": "0xf9a4",
        "value": "0x0",
        "input": "0x095ea7b3000000000000000000000000a1ba9a5d1338c212c22405998268b0f6aa02ab6effffffffffffffffffffffffffffffffffffffffffffffffffffffffffffffff",
        "nonce": "0xe4",
        "chainId": "0x279f"
      },
      "additionalContracts": [],
      "isFixedGasLimit": false
    },
    {
      "hash": "0xe959d4b629f99a09838499a246f3fb9df89a1ac031cd0a230b58cc81883eaef5",
      "transactionType": "CALL",
      "contractName": null,
      "contractAddress": "0x6bc8a42d4b2f4bc8e4c3f9ecff00b7290ffa7405",
      "function": "approve(address,uint256)",
      "arguments": [
        "0xa1ba9a5d1338c212C22405998268b0F6AA02Ab6E",
        "115792089237316195423570985008687907853269984665640564039457584007913129639935"
      ],
      "transaction": {
        "from": "0x6efb11ac41b6657c32dac5ed4874082c700bba29",
        "to": "0x6bc8a42d4b2f4bc8e4c3f9ecff00b7290ffa7405",
        "gas": "0xf9a4",
        "value": "0x0",
        "input": "0x095ea7b3000000000000000000000000a1ba9a5d1338c212c22405998268b0f6aa02ab6effffffffffffffffffffffffffffffffffffffffffffffffffffffffffffffff",
        "nonce": "0xe5",
        "chainId": "0x279f"
      },
      "additionalContracts": [],
      "isFixedGasLimit": false
    },
    {
      "hash": "0x85903c4e37091aa2f7f3ae638315ed6c90a8a6302589cb3c4fa23c43be98494d",
      "transactionType": "CALL",
      "contractName": null,
      "contractAddress": "0xe3f98fda6dbd38c1017754f1675dce377381c23c",
      "function": "approve(address,uint256)",
      "arguments": [
        "0xa1ba9a5d1338c212C22405998268b0F6AA02Ab6E",
        "115792089237316195423570985008687907853269984665640564039457584007913129639935"
      ],
      "transaction": {
        "from": "0x6efb11ac41b6657c32dac5ed4874082c700bba29",
        "to": "0xe3f98fda6dbd38c1017754f1675dce377381c23c",
        "gas": "0xf9a4",
        "value": "0x0",
        "input": "0x095ea7b3000000000000000000000000a1ba9a5d1338c212c22405998268b0f6aa02ab6effffffffffffffffffffffffffffffffffffffffffffffffffffffffffffffff",
        "nonce": "0xe6",
        "chainId": "0x279f"
      },
      "additionalContracts": [],
      "isFixedGasLimit": false
    },
    {
      "hash": "0xa8f75bba23744cf9e1d769019e042b90189474095180eaa6328514bae4c5967a",
      "transactionType": "CALL",
      "contractName": null,
      "contractAddress": "0x58389610a3d13e8f380ee2ba077a6f36f2a90834",
      "function": "approve(address,uint256)",
      "arguments": [
        "0xa1ba9a5d1338c212C22405998268b0F6AA02Ab6E",
        "115792089237316195423570985008687907853269984665640564039457584007913129639935"
      ],
      "transaction": {
        "from": "0x6efb11ac41b6657c32dac5ed4874082c700bba29",
        "to": "0x58389610a3d13e8f380ee2ba077a6f36f2a90834",
        "gas": "0xf9a4",
        "value": "0x0",
        "input": "0x095ea7b3000000000000000000000000a1ba9a5d1338c212c22405998268b0f6aa02ab6effffffffffffffffffffffffffffffffffffffffffffffffffffffffffffffff",
        "nonce": "0xe7",
        "chainId": "0x279f"
      },
      "additionalContracts": [],
      "isFixedGasLimit": false
    },
    {
      "hash": "0xe1b921285a35bc024d259e633c6c6e88437b67b762a8804b2c8ff193bb90dc90",
      "transactionType": "CALL",
      "contractName": null,
      "contractAddress": "0xa1ba9a5d1338c212c22405998268b0f6aa02ab6e",
      "function": "multicall(bytes[])",
      "arguments": [
        "[0x7d39aaf10000000000000000000000009a5141cf9f68ce4dd9f02ea7722455f3beaa9339000000000000000000000000000000000000000000000000000000003b9aca00, 0xe6d66ac80000000000000000000000002c53ce7143d24a65410107f50e4aabad9a1644800000000000000000000000009a5141cf9f68ce4dd9f02ea7722455f3beaa93390000000000000000000000000000000000000000000000056bc75e2d63100000, 0xe6d66ac800000000000000000000000058389610a3d13e8f380ee2ba077a6f36f2a908340000000000000000000000009a5141cf9f68ce4dd9f02ea7722455f3beaa93390000000000000000000000000000000000000000000000000000008bb2c97000, 0x293953b80000000000000000000000006efb11ac41b6657c32dac5ed4874082c700bba290000000000000000000000000000000000000000000000000000000000000000000000000000000000000000d0cb401840c5efac575e1fe57a308c396e73fbe00000000000000000000000002c53ce7143d24a65410107f50e4aabad9a16448000000000000000000000000058389610a3d13e8f380ee2ba077a6f36f2a908340000000000000000000000000000000000000000000000000000000000000000000000000000000000000000000000000000000000000000000000003b9aca00]"
      ],
      "transaction": {
        "from": "0x6efb11ac41b6657c32dac5ed4874082c700bba29",
        "to": "0xa1ba9a5d1338c212c22405998268b0f6aa02ab6e",
        "gas": "0x853fe",
        "value": "0x0",
        "input": "0xac9650d8000000000000000000000000000000000000000000000000000000000000002000000000000000000000000000000000000000000000000000000000000000040000000000000000000000000000000000000000000000000000000000000080000000000000000000000000000000000000000000000000000000000000010000000000000000000000000000000000000000000000000000000000000001a0000000000000000000000000000000000000000000000000000000000000024000000000000000000000000000000000000000000000000000000000000000447d39aaf10000000000000000000000009a5141cf9f68ce4dd9f02ea7722455f3beaa9339000000000000000000000000000000000000000000000000000000003b9aca00000000000000000000000000000000000000000000000000000000000000000000000000000000000000000000000000000000000000000000000064e6d66ac80000000000000000000000002c53ce7143d24a65410107f50e4aabad9a1644800000000000000000000000009a5141cf9f68ce4dd9f02ea7722455f3beaa93390000000000000000000000000000000000000000000000056bc75e2d63100000000000000000000000000000000000000000000000000000000000000000000000000000000000000000000000000000000000000000000000000064e6d66ac800000000000000000000000058389610a3d13e8f380ee2ba077a6f36f2a908340000000000000000000000009a5141cf9f68ce4dd9f02ea7722455f3beaa93390000000000000000000000000000000000000000000000000000008bb2c970000000000000000000000000000000000000000000000000000000000000000000000000000000000000000000000000000000000000000000000000e4293953b80000000000000000000000006efb11ac41b6657c32dac5ed4874082c700bba290000000000000000000000000000000000000000000000000000000000000000000000000000000000000000d0cb401840c5efac575e1fe57a308c396e73fbe00000000000000000000000002c53ce7143d24a65410107f50e4aabad9a16448000000000000000000000000058389610a3d13e8f380ee2ba077a6f36f2a908340000000000000000000000000000000000000000000000000000000000000000000000000000000000000000000000000000000000000000000000003b9aca0000000000000000000000000000000000000000000000000000000000",
        "nonce": "0xe8",
        "chainId": "0x279f"
      },
      "additionalContracts": [],
      "isFixedGasLimit": false
    },
    {
      "hash": "0xf4bbc331733e63b0b9bcc1d9a61e6db7ba67d7945621b47513ade236ca6d1513",
      "transactionType": "CALL",
      "contractName": null,
      "contractAddress": "0xa1ba9a5d1338c212c22405998268b0f6aa02ab6e",
      "function": "multicall(bytes[])",
      "arguments": [
        "[0x7d39aaf10000000000000000000000009a5141cf9f68ce4dd9f02ea7722455f3beaa9339000000000000000000000000000000000000000000000000000000003b9aca00, 0xe6d66ac800000000000000000000000053f7c389cbb801e2abfd301ded6d2a1cf330ac0d0000000000000000000000009a5141cf9f68ce4dd9f02ea7722455f3beaa9339000000000000000000000000000000000000000000000002b5e3af16b1880000, 0xe6d66ac800000000000000000000000058389610a3d13e8f380ee2ba077a6f36f2a908340000000000000000000000009a5141cf9f68ce4dd9f02ea7722455f3beaa9339000000000000000000000000000000000000000000000000000005bad5431800, 0x293953b80000000000000000000000006efb11ac41b6657c32dac5ed4874082c700bba29000000000000000000000000000000000000000000000000000000000000000000000000000000000000000053f7c389cbb801e2abfd301ded6d2a1cf330ac0d00000000000000000000000053f7c389cbb801e2abfd301ded6d2a1cf330ac0d00000000000000000000000058389610a3d13e8f380ee2ba077a6f36f2a908340000000000000000000000000000000000000000000000000000000000000000000000000000000000000000000000000000000000000000000000003b9aca00]"
      ],
      "transaction": {
        "from": "0x6efb11ac41b6657c32dac5ed4874082c700bba29",
        "to": "0xa1ba9a5d1338c212c22405998268b0f6aa02ab6e",
        "gas": "0x7b09c",
        "value": "0x0",
        "input": "0xac9650d8000000000000000000000000000000000000000000000000000000000000002000000000000000000000000000000000000000000000000000000000000000040000000000000000000000000000000000000000000000000000000000000080000000000000000000000000000000000000000000000000000000000000010000000000000000000000000000000000000000000000000000000000000001a0000000000000000000000000000000000000000000000000000000000000024000000000000000000000000000000000000000000000000000000000000000447d39aaf10000000000000000000000009a5141cf9f68ce4dd9f02ea7722455f3beaa9339000000000000000000000000000000000000000000000000000000003b9aca00000000000000000000000000000000000000000000000000000000000000000000000000000000000000000000000000000000000000000000000064e6d66ac800000000000000000000000053f7c389cbb801e2abfd301ded6d2a1cf330ac0d0000000000000000000000009a5141cf9f68ce4dd9f02ea7722455f3beaa9339000000000000000000000000000000000000000000000002b5e3af16b1880000000000000000000000000000000000000000000000000000000000000000000000000000000000000000000000000000000000000000000000000064e6d66ac800000000000000000000000058389610a3d13e8f380ee2ba077a6f36f2a908340000000000000000000000009a5141cf9f68ce4dd9f02ea7722455f3beaa9339000000000000000000000000000000000000000000000000000005bad54318000000000000000000000000000000000000000000000000000000000000000000000000000000000000000000000000000000000000000000000000e4293953b80000000000000000000000006efb11ac41b6657c32dac5ed4874082c700bba29000000000000000000000000000000000000000000000000000000000000000000000000000000000000000053f7c389cbb801e2abfd301ded6d2a1cf330ac0d00000000000000000000000053f7c389cbb801e2abfd301ded6d2a1cf330ac0d00000000000000000000000058389610a3d13e8f380ee2ba077a6f36f2a908340000000000000000000000000000000000000000000000000000000000000000000000000000000000000000000000000000000000000000000000003b9aca0000000000000000000000000000000000000000000000000000000000",
        "nonce": "0xe9",
        "chainId": "0x279f"
      },
      "additionalContracts": [],
      "isFixedGasLimit": false
    },
    {
      "hash": "0x4a011b9edd61a8bc84b469abf5eca0d7b1cd970a049ee6f26dcb5b2cd2cdc69a",
      "transactionType": "CALL",
      "contractName": null,
      "contractAddress": "0xa1ba9a5d1338c212c22405998268b0f6aa02ab6e",
      "function": "multicall(bytes[])",
      "arguments": [
        "[0x7d39aaf10000000000000000000000009a5141cf9f68ce4dd9f02ea7722455f3beaa9339000000000000000000000000000000000000000000000000000000003b9aca00, 0xe6d66ac8000000000000000000000000f9861d7478f8957679b26404bd6272c39f949c290000000000000000000000009a5141cf9f68ce4dd9f02ea7722455f3beaa9339000000000000000000000000000000000000000000295be96e64066972000000, 0xe6d66ac800000000000000000000000058389610a3d13e8f380ee2ba077a6f36f2a908340000000000000000000000009a5141cf9f68ce4dd9f02ea7722455f3beaa9339000000000000000000000000000000000000000000000000000000037e11d600, 0x293953b80000000000000000000000006efb11ac41b6657c32dac5ed4874082c700bba290000000000000000000000000000000000000000000000000000000000000000000000000000000000000000f9861d7478f8957679b26404bd6272c39f949c29000000000000000000000000f9861d7478f8957679b26404bd6272c39f949c2900000000000000000000000058389610a3d13e8f380ee2ba077a6f36f2a908340000000000000000000000000000000000000000000000000000000000000000000000000000000000000000000000000000000000000000000000003b9aca00]"
      ],
      "transaction": {
        "from": "0x6efb11ac41b6657c32dac5ed4874082c700bba29",
        "to": "0xa1ba9a5d1338c212c22405998268b0f6aa02ab6e",
        "gas": "0x7b09c",
        "value": "0x0",
        "input": "0xac9650d8000000000000000000000000000000000000000000000000000000000000002000000000000000000000000000000000000000000000000000000000000000040000000000000000000000000000000000000000000000000000000000000080000000000000000000000000000000000000000000000000000000000000010000000000000000000000000000000000000000000000000000000000000001a0000000000000000000000000000000000000000000000000000000000000024000000000000000000000000000000000000000000000000000000000000000447d39aaf10000000000000000000000009a5141cf9f68ce4dd9f02ea7722455f3beaa9339000000000000000000000000000000000000000000000000000000003b9aca00000000000000000000000000000000000000000000000000000000000000000000000000000000000000000000000000000000000000000000000064e6d66ac8000000000000000000000000f9861d7478f8957679b26404bd6272c39f949c290000000000000000000000009a5141cf9f68ce4dd9f02ea7722455f3beaa9339000000000000000000000000000000000000000000295be96e64066972000000000000000000000000000000000000000000000000000000000000000000000000000000000000000000000000000000000000000000000000000064e6d66ac800000000000000000000000058389610a3d13e8f380ee2ba077a6f36f2a908340000000000000000000000009a5141cf9f68ce4dd9f02ea7722455f3beaa9339000000000000000000000000000000000000000000000000000000037e11d6000000000000000000000000000000000000000000000000000000000000000000000000000000000000000000000000000000000000000000000000e4293953b80000000000000000000000006efb11ac41b6657c32dac5ed4874082c700bba290000000000000000000000000000000000000000000000000000000000000000000000000000000000000000f9861d7478f8957679b26404bd6272c39f949c29000000000000000000000000f9861d7478f8957679b26404bd6272c39f949c2900000000000000000000000058389610a3d13e8f380ee2ba077a6f36f2a908340000000000000000000000000000000000000000000000000000000000000000000000000000000000000000000000000000000000000000000000003b9aca0000000000000000000000000000000000000000000000000000000000",
        "nonce": "0xea",
        "chainId": "0x279f"
      },
      "additionalContracts": [],
      "isFixedGasLimit": false
    },
    {
      "hash": "0x899c3aad9983621157b2982251269030ac6077a26bac1d45f68728f839fdc088",
      "transactionType": "CALL",
      "contractName": null,
      "contractAddress": "0xa1ba9a5d1338c212c22405998268b0f6aa02ab6e",
      "function": "multicall(bytes[])",
      "arguments": [
        "[0x7d39aaf10000000000000000000000009a5141cf9f68ce4dd9f02ea7722455f3beaa9339000000000000000000000000000000000000000000000000000000003b9aca00, 0xe6d66ac80000000000000000000000001889cfb8746716a0ac50e59a54f190987c5f04e60000000000000000000000009a5141cf9f68ce4dd9f02ea7722455f3beaa933900000000000000000000000000000000000000000000000000005af3107a4000, 0xe6d66ac800000000000000000000000058389610a3d13e8f380ee2ba077a6f36f2a908340000000000000000000000009a5141cf9f68ce4dd9f02ea7722455f3beaa933900000000000000000000000000000000000000000000000000000045d964b800, 0x293953b80000000000000000000000006efb11ac41b6657c32dac5ed4874082c700bba2900000000000000000000000000000000000000000000000000000000000000000000000000000000000000005f5054ee2a7bc2617565b5b79f35573aa61394810000000000000000000000001889cfb8746716a0ac50e59a54f190987c5f04e600000000000000000000000058389610a3d13e8f380ee2ba077a6f36f2a908340000000000000000000000000000000000000000000000000000000000000000000000000000000000000000000000000000000000000000000000003b9aca00]"
      ],
      "transaction": {
        "from": "0x6efb11ac41b6657c32dac5ed4874082c700bba29",
        "to": "0xa1ba9a5d1338c212c22405998268b0f6aa02ab6e",
        "gas": "0x82435",
        "value": "0x0",
        "input": "0xac9650d8000000000000000000000000000000000000000000000000000000000000002000000000000000000000000000000000000000000000000000000000000000040000000000000000000000000000000000000000000000000000000000000080000000000000000000000000000000000000000000000000000000000000010000000000000000000000000000000000000000000000000000000000000001a0000000000000000000000000000000000000000000000000000000000000024000000000000000000000000000000000000000000000000000000000000000447d39aaf10000000000000000000000009a5141cf9f68ce4dd9f02ea7722455f3beaa9339000000000000000000000000000000000000000000000000000000003b9aca00000000000000000000000000000000000000000000000000000000000000000000000000000000000000000000000000000000000000000000000064e6d66ac80000000000000000000000001889cfb8746716a0ac50e59a54f190987c5f04e60000000000000000000000009a5141cf9f68ce4dd9f02ea7722455f3beaa933900000000000000000000000000000000000000000000000000005af3107a4000000000000000000000000000000000000000000000000000000000000000000000000000000000000000000000000000000000000000000000000064e6d66ac800000000000000000000000058389610a3d13e8f380ee2ba077a6f36f2a908340000000000000000000000009a5141cf9f68ce4dd9f02ea7722455f3beaa933900000000000000000000000000000000000000000000000000000045d964b8000000000000000000000000000000000000000000000000000000000000000000000000000000000000000000000000000000000000000000000000e4293953b80000000000000000000000006efb11ac41b6657c32dac5ed4874082c700bba2900000000000000000000000000000000000000000000000000000000000000000000000000000000000000005f5054ee2a7bc2617565b5b79f35573aa61394810000000000000000000000001889cfb8746716a0ac50e59a54f190987c5f04e600000000000000000000000058389610a3d13e8f380ee2ba077a6f36f2a908340000000000000000000000000000000000000000000000000000000000000000000000000000000000000000000000000000000000000000000000003b9aca0000000000000000000000000000000000000000000000000000000000",
        "nonce": "0xeb",
        "chainId": "0x279f"
      },
      "additionalContracts": [],
      "isFixedGasLimit": false
    },
    {
      "hash": "0xacb92856edfd401fe7b0d9e8705a134cc764080e53d2e96182d5f971a9118bfd",
      "transactionType": "CALL",
      "contractName": null,
      "contractAddress": "0xa1ba9a5d1338c212c22405998268b0f6aa02ab6e",
      "function": "multicall(bytes[])",
      "arguments": [
        "[0x7d39aaf10000000000000000000000009a5141cf9f68ce4dd9f02ea7722455f3beaa9339000000000000000000000000000000000000000000000000000000003b9aca00, 0xe6d66ac80000000000000000000000006bc8a42d4b2f4bc8e4c3f9ecff00b7290ffa74050000000000000000000000009a5141cf9f68ce4dd9f02ea7722455f3beaa93390000000000000000000000000000000000000000000069e10de76676d0800000, 0xe6d66ac800000000000000000000000058389610a3d13e8f380ee2ba077a6f36f2a908340000000000000000000000009a5141cf9f68ce4dd9f02ea7722455f3beaa93390000000000000000000000000000000000000000000000000000001176592e00, 0x293953b80000000000000000000000006efb11ac41b6657c32dac5ed4874082c700bba29000000000000000000000000000000000000000000000000000000000000000000000000000000000000000037ee6083d1191b00eda1f6304c9a60695bfee8da0000000000000000000000006bc8a42d4b2f4bc8e4c3f9ecff00b7290ffa740500000000000000000000000058389610a3d13e8f380ee2ba077a6f36f2a908340000000000000000000000000000000000000000000000000000000000000000000000000000000000000000000000000000000000000000000000003b9aca00]"
      ],
      "transaction": {
        "from": "0x6efb11ac41b6657c32dac5ed4874082c700bba29",
        "to": "0xa1ba9a5d1338c212c22405998268b0f6aa02ab6e",
        "gas": "0x82435",
        "value": "0x0",
        "input": "0xac9650d8000000000000000000000000000000000000000000000000000000000000002000000000000000000000000000000000000000000000000000000000000000040000000000000000000000000000000000000000000000000000000000000080000000000000000000000000000000000000000000000000000000000000010000000000000000000000000000000000000000000000000000000000000001a0000000000000000000000000000000000000000000000000000000000000024000000000000000000000000000000000000000000000000000000000000000447d39aaf10000000000000000000000009a5141cf9f68ce4dd9f02ea7722455f3beaa9339000000000000000000000000000000000000000000000000000000003b9aca00000000000000000000000000000000000000000000000000000000000000000000000000000000000000000000000000000000000000000000000064e6d66ac80000000000000000000000006bc8a42d4b2f4bc8e4c3f9ecff00b7290ffa74050000000000000000000000009a5141cf9f68ce4dd9f02ea7722455f3beaa93390000000000000000000000000000000000000000000069e10de76676d0800000000000000000000000000000000000000000000000000000000000000000000000000000000000000000000000000000000000000000000000000064e6d66ac800000000000000000000000058389610a3d13e8f380ee2ba077a6f36f2a908340000000000000000000000009a5141cf9f68ce4dd9f02ea7722455f3beaa93390000000000000000000000000000000000000000000000000000001176592e000000000000000000000000000000000000000000000000000000000000000000000000000000000000000000000000000000000000000000000000e4293953b80000000000000000000000006efb11ac41b6657c32dac5ed4874082c700bba29000000000000000000000000000000000000000000000000000000000000000000000000000000000000000037ee6083d1191b00eda1f6304c9a60695bfee8da0000000000000000000000006bc8a42d4b2f4bc8e4c3f9ecff00b7290ffa740500000000000000000000000058389610a3d13e8f380ee2ba077a6f36f2a908340000000000000000000000000000000000000000000000000000000000000000000000000000000000000000000000000000000000000000000000003b9aca0000000000000000000000000000000000000000000000000000000000",
        "nonce": "0xec",
        "chainId": "0x279f"
      },
      "additionalContracts": [],
      "isFixedGasLimit": false
    },
    {
      "hash": "0x771c1fd741fcfd787e8e318e10600dd96dfd135686dbb812385b89a65506190a",
      "transactionType": "CALL",
      "contractName": null,
      "contractAddress": "0xa1ba9a5d1338c212c22405998268b0f6aa02ab6e",
      "function": "multicall(bytes[])",
      "arguments": [
        "[0x7d39aaf10000000000000000000000009a5141cf9f68ce4dd9f02ea7722455f3beaa9339000000000000000000000000000000000000000000000000000000003b9aca00, 0xe6d66ac8000000000000000000000000e3f98fda6dbd38c1017754f1675dce377381c23c0000000000000000000000009a5141cf9f68ce4dd9f02ea7722455f3beaa933900000000000000000000000000000000000000000000021e19e0c9bab2400000, 0xe6d66ac800000000000000000000000058389610a3d13e8f380ee2ba077a6f36f2a908340000000000000000000000009a5141cf9f68ce4dd9f02ea7722455f3beaa933900000000000000000000000000000000000000000000000000000068c6171400, 0x293953b80000000000000000000000006efb11ac41b6657c32dac5ed4874082c700bba2900000000000000000000000000000000000000000000000000000000000000000000000000000000000000008e3e87de2503661f3b4879a9743f3fe3d347be52000000000000000000000000e3f98fda6dbd38c1017754f1675dce377381c23c00000000000000000000000058389610a3d13e8f380ee2ba077a6f36f2a908340000000000000000000000000000000000000000000000000000000000000000000000000000000000000000000000000000000000000000000000003b9aca00]"
      ],
      "transaction": {
        "from": "0x6efb11ac41b6657c32dac5ed4874082c700bba29",
        "to": "0xa1ba9a5d1338c212c22405998268b0f6aa02ab6e",
        "gas": "0x7b09c",
        "value": "0x0",
        "input": "0xac9650d8000000000000000000000000000000000000000000000000000000000000002000000000000000000000000000000000000000000000000000000000000000040000000000000000000000000000000000000000000000000000000000000080000000000000000000000000000000000000000000000000000000000000010000000000000000000000000000000000000000000000000000000000000001a0000000000000000000000000000000000000000000000000000000000000024000000000000000000000000000000000000000000000000000000000000000447d39aaf10000000000000000000000009a5141cf9f68ce4dd9f02ea7722455f3beaa9339000000000000000000000000000000000000000000000000000000003b9aca00000000000000000000000000000000000000000000000000000000000000000000000000000000000000000000000000000000000000000000000064e6d66ac8000000000000000000000000e3f98fda6dbd38c1017754f1675dce377381c23c0000000000000000000000009a5141cf9f68ce4dd9f02ea7722455f3beaa933900000000000000000000000000000000000000000000021e19e0c9bab2400000000000000000000000000000000000000000000000000000000000000000000000000000000000000000000000000000000000000000000000000064e6d66ac800000000000000000000000058389610a3d13e8f380ee2ba077a6f36f2a908340000000000000000000000009a5141cf9f68ce4dd9f02ea7722455f3beaa933900000000000000000000000000000000000000000000000000000068c61714000000000000000000000000000000000000000000000000000000000000000000000000000000000000000000000000000000000000000000000000e4293953b80000000000000000000000006efb11ac41b6657c32dac5ed4874082c700bba2900000000000000000000000000000000000000000000000000000000000000000000000000000000000000008e3e87de2503661f3b4879a9743f3fe3d347be52000000000000000000000000e3f98fda6dbd38c1017754f1675dce377381c23c00000000000000000000000058389610a3d13e8f380ee2ba077a6f36f2a908340000000000000000000000000000000000000000000000000000000000000000000000000000000000000000000000000000000000000000000000003b9aca0000000000000000000000000000000000000000000000000000000000",
        "nonce": "0xed",
        "chainId": "0x279f"
      },
      "additionalContracts": [],
      "isFixedGasLimit": false
    }
  ],
  "receipts": [
    {
      "status": "0x1",
      "cumulativeGasUsed": "0x101722c",
      "logs": [
        {
          "address": "0x2c53ce7143d24a65410107f50e4aabad9a164480",
          "topics": [
            "0xddf252ad1be2c89b69c2b068fc378daa952ba7f163c4a11628f55a4df523b3ef",
            "0x0000000000000000000000000000000000000000000000000000000000000000",
            "0x0000000000000000000000006efb11ac41b6657c32dac5ed4874082c700bba29"
          ],
          "data": "0x00000000000000000000000000000000000000000000021e19e0c9bab2400000",
          "blockHash": "0x7fdc8f997109bf5ab2e1320ff5428b98b2b48782d4e5cb22efce9b9e91c2cbec",
          "blockNumber": "0x7223c8",
          "blockTimestamp": "0x67d1d876",
          "transactionHash": "0xcf427cf75872b72434268f9e70ecf977091666dbfe0953149a278cd694d3069c",
          "transactionIndex": "0xd3",
          "logIndex": "0xfe",
          "removed": false
        }
      ],
      "logsBloom": "0x00000000000000000200000000000000000000000000000000000000000000000000000000000000000000000000000000001000000100000000000000000000000000000000000000000008000000000000000000000000000000000000000000000000020000000000000000000800000000000000000000000010000000000000000000000000000000000000000000000000000000000000000000000000000000000000000000000000000000000000000000000000000001000000000000000002000000000000000000000000000000010000000000000000000020000000001000000000000000000000000000000000000000000000000000000000",
      "type": "0x2",
      "transactionHash": "0xcf427cf75872b72434268f9e70ecf977091666dbfe0953149a278cd694d3069c",
      "transactionIndex": "0xd3",
      "blockHash": "0x7fdc8f997109bf5ab2e1320ff5428b98b2b48782d4e5cb22efce9b9e91c2cbec",
      "blockNumber": "0x7223c8",
      "gasUsed": "0xc1c9",
      "effectiveGasPrice": "0xba43b7401",
      "from": "0x6efb11ac41b6657c32dac5ed4874082c700bba29",
      "to": "0x2c53ce7143d24a65410107f50e4aabad9a164480",
      "contractAddress": null
    },
    {
      "status": "0x1",
      "cumulativeGasUsed": "0x10233f5",
      "logs": [
        {
          "address": "0x53f7c389cbb801e2abfd301ded6d2a1cf330ac0d",
          "topics": [
            "0xddf252ad1be2c89b69c2b068fc378daa952ba7f163c4a11628f55a4df523b3ef",
            "0x0000000000000000000000000000000000000000000000000000000000000000",
            "0x0000000000000000000000006efb11ac41b6657c32dac5ed4874082c700bba29"
          ],
          "data": "0x00000000000000000000000000000000000000000000021e19e0c9bab2400000",
          "blockHash": "0x7fdc8f997109bf5ab2e1320ff5428b98b2b48782d4e5cb22efce9b9e91c2cbec",
          "blockNumber": "0x7223c8",
          "blockTimestamp": "0x67d1d876",
          "transactionHash": "0xc40c039b0e2c72c6231fe8bc6e2177ca1107dd3898ddd1c16a70eaa367707a87",
          "transactionIndex": "0xd4",
          "logIndex": "0xff",
          "removed": false
        }
      ],
      "logsBloom": "0x00000000000000000200000002000000000000000000000000000000000000000000000000000000000000000000000000000000000100000000000000000000000000000000000000000008000000000000000000000000000000000000000000000000020000000000000000000800000000000000000000000010000000000000000000000000000000000000000000000000000000000000000000000000000000000010000000000000000000000000000000000000000001000000000000000002000000000000000000000000000000000000000000000000000020000000000000000000000000000000000000000000000000000008000000000000",
      "type": "0x2",
      "transactionHash": "0xc40c039b0e2c72c6231fe8bc6e2177ca1107dd3898ddd1c16a70eaa367707a87",
      "transactionIndex": "0xd4",
      "blockHash": "0x7fdc8f997109bf5ab2e1320ff5428b98b2b48782d4e5cb22efce9b9e91c2cbec",
      "blockNumber": "0x7223c8",
      "gasUsed": "0xc1c9",
      "effectiveGasPrice": "0xba43b7401",
      "from": "0x6efb11ac41b6657c32dac5ed4874082c700bba29",
      "to": "0x53f7c389cbb801e2abfd301ded6d2a1cf330ac0d",
      "contractAddress": null
    },
    {
      "status": "0x1",
      "cumulativeGasUsed": "0x102f5be",
      "logs": [
        {
          "address": "0xf9861d7478f8957679b26404bd6272c39f949c29",
          "topics": [
            "0xddf252ad1be2c89b69c2b068fc378daa952ba7f163c4a11628f55a4df523b3ef",
            "0x0000000000000000000000000000000000000000000000000000000000000000",
            "0x0000000000000000000000006efb11ac41b6657c32dac5ed4874082c700bba29"
          ],
          "data": "0x000000000000000000000000000000000000000000084595161401484a000000",
          "blockHash": "0x7fdc8f997109bf5ab2e1320ff5428b98b2b48782d4e5cb22efce9b9e91c2cbec",
          "blockNumber": "0x7223c8",
          "blockTimestamp": "0x67d1d876",
          "transactionHash": "0x0bd292449fb92e39b71cbc3d74da83ed40a21af20455050d6829f65b0630368b",
          "transactionIndex": "0xd5",
          "logIndex": "0x100",
          "removed": false
        }
      ],
      "logsBloom": "0x00000000000000000200000000000000000000000000000000000000000000000000000000000000000000000000000000000000000100000000000000000000000000000000000000000008000000000000000000000000000000000000000000000000060000000000000000000800000000000000000000000010000000000000000000000000000000000000000000000000000000000000000000000000000000000000000000040000000000000000000000000000000001000000000000000002080000000000000000000000000000000000000000000000000020000000000000000000000000000000000000000000000000000000000000000000",
      "type": "0x2",
      "transactionHash": "0x0bd292449fb92e39b71cbc3d74da83ed40a21af20455050d6829f65b0630368b",
      "transactionIndex": "0xd5",
      "blockHash": "0x7fdc8f997109bf5ab2e1320ff5428b98b2b48782d4e5cb22efce9b9e91c2cbec",
      "blockNumber": "0x7223c8",
      "gasUsed": "0xc1c9",
      "effectiveGasPrice": "0xba43b7401",
      "from": "0x6efb11ac41b6657c32dac5ed4874082c700bba29",
      "to": "0xf9861d7478f8957679b26404bd6272c39f949c29",
      "contractAddress": null
    },
    {
      "status": "0x1",
      "cumulativeGasUsed": "0x103ac90",
      "logs": [
        {
          "address": "0x1889cfb8746716a0ac50e59a54f190987c5f04e6",
          "topics": [
            "0xddf252ad1be2c89b69c2b068fc378daa952ba7f163c4a11628f55a4df523b3ef",
            "0x0000000000000000000000000000000000000000000000000000000000000000",
            "0x0000000000000000000000006efb11ac41b6657c32dac5ed4874082c700bba29"
          ],
          "data": "0x00000000000000000000000000000000000000000000000000005af3107a4000",
          "blockHash": "0x7fdc8f997109bf5ab2e1320ff5428b98b2b48782d4e5cb22efce9b9e91c2cbec",
          "blockNumber": "0x7223c8",
          "blockTimestamp": "0x67d1d876",
          "transactionHash": "0x67e787829b14e1fbf7243e4ab825c832d776e6e1bcdba42babf28a612deaefae",
          "transactionIndex": "0xd6",
          "logIndex": "0x101",
          "removed": false
        }
      ],
      "logsBloom": "0x00000000000000000200000000000000000000000000000000000000000000000000000000000000000000000000000000000000000100000000000000000000000000000000000000000008000000000000000000000000000400000000000000000000020000000000000000000800000000000000000000000010000000000000000000000000000000000000000000000000000000000000000000000000000000000000100000000000000000000000000000000000000001000000000000000002000000000000000000000000000000000000000000000000000020000000000080000000000000000000000000000000000000000000000000000000",
      "type": "0x2",
      "transactionHash": "0x67e787829b14e1fbf7243e4ab825c832d776e6e1bcdba42babf28a612deaefae",
      "transactionIndex": "0xd6",
      "blockHash": "0x7fdc8f997109bf5ab2e1320ff5428b98b2b48782d4e5cb22efce9b9e91c2cbec",
      "blockNumber": "0x7223c8",
      "gasUsed": "0xb6d2",
      "effectiveGasPrice": "0xba43b7401",
      "from": "0x6efb11ac41b6657c32dac5ed4874082c700bba29",
      "to": "0x1889cfb8746716a0ac50e59a54f190987c5f04e6",
      "contractAddress": null
    },
    {
      "status": "0x1",
      "cumulativeGasUsed": "0x1046e59",
      "logs": [
        {
          "address": "0x6bc8a42d4b2f4bc8e4c3f9ecff00b7290ffa7405",
          "topics": [
            "0xddf252ad1be2c89b69c2b068fc378daa952ba7f163c4a11628f55a4df523b3ef",
            "0x0000000000000000000000000000000000000000000000000000000000000000",
            "0x0000000000000000000000006efb11ac41b6657c32dac5ed4874082c700bba29"
          ],
          "data": "0x00000000000000000000000000000000000000000000152d02c7e14af6800000",
          "blockHash": "0x7fdc8f997109bf5ab2e1320ff5428b98b2b48782d4e5cb22efce9b9e91c2cbec",
          "blockNumber": "0x7223c8",
          "blockTimestamp": "0x67d1d876",
          "transactionHash": "0xeb129267d74238600c25cc959297dae935a392d5e5e519bc661e0bf09ccf52c2",
          "transactionIndex": "0xd7",
          "logIndex": "0x102",
          "removed": false
        }
      ],
      "logsBloom": "0x00000000000000000200000000000000000000000000000000000000000000000000000000000000000000000000000000002000000100000400000000000000000000000000000000000008000000000000000000000000000000000000000000000000020000000000000000000800000000000000000000000010000000000000000000000000000000000000000000000000000000000000000000000000000000000200000000000000000000000000000000000000000001000000000000000002000000000000000000000000000000000000000000000000000020000000000000000000000000000000000000000000000000000000000000000000",
      "type": "0x2",
      "transactionHash": "0xeb129267d74238600c25cc959297dae935a392d5e5e519bc661e0bf09ccf52c2",
      "transactionIndex": "0xd7",
      "blockHash": "0x7fdc8f997109bf5ab2e1320ff5428b98b2b48782d4e5cb22efce9b9e91c2cbec",
      "blockNumber": "0x7223c8",
      "gasUsed": "0xc1c9",
      "effectiveGasPrice": "0xba43b7401",
      "from": "0x6efb11ac41b6657c32dac5ed4874082c700bba29",
      "to": "0x6bc8a42d4b2f4bc8e4c3f9ecff00b7290ffa7405",
      "contractAddress": null
    },
    {
      "status": "0x1",
      "cumulativeGasUsed": "0x1053022",
      "logs": [
        {
          "address": "0xe3f98fda6dbd38c1017754f1675dce377381c23c",
          "topics": [
            "0xddf252ad1be2c89b69c2b068fc378daa952ba7f163c4a11628f55a4df523b3ef",
            "0x0000000000000000000000000000000000000000000000000000000000000000",
            "0x0000000000000000000000006efb11ac41b6657c32dac5ed4874082c700bba29"
          ],
          "data": "0x00000000000000000000000000000000000000000000021e19e0c9bab2400000",
          "blockHash": "0x7fdc8f997109bf5ab2e1320ff5428b98b2b48782d4e5cb22efce9b9e91c2cbec",
          "blockNumber": "0x7223c8",
          "blockTimestamp": "0x67d1d876",
          "transactionHash": "0x9fa19a6f9cb2a4d868b6c4c1f7f192f1d58028bf369e6c76c34ee3fc5c208fd2",
          "transactionIndex": "0xd8",
          "logIndex": "0x103",
          "removed": false
        }
      ],
      "logsBloom": "0x00000000000000002200000000000000000000000000000000000000000000000000000000000000000000000000000000000000000100000000000000000000000000000000000000000008000000000000000000000000000000000000000000000000020000000000000000000800000000000000000000000010000000000000000000000000000000000000000000000000000000000020000000000000000000000000000000000000000020000000000000000000000001000000000000000002000000000000000000000000000000000000000000000000000020000000000000000000000000000000000000000000000000000000000000000000",
      "type": "0x2",
      "transactionHash": "0x9fa19a6f9cb2a4d868b6c4c1f7f192f1d58028bf369e6c76c34ee3fc5c208fd2",
      "transactionIndex": "0xd8",
      "blockHash": "0x7fdc8f997109bf5ab2e1320ff5428b98b2b48782d4e5cb22efce9b9e91c2cbec",
      "blockNumber": "0x7223c8",
      "gasUsed": "0xc1c9",
      "effectiveGasPrice": "0xba43b7401",
      "from": "0x6efb11ac41b6657c32dac5ed4874082c700bba29",
      "to": "0xe3f98fda6dbd38c1017754f1675dce377381c23c",
      "contractAddress": null
    },
    {
      "status": "0x1",
      "cumulativeGasUsed": "0x105f1a5",
      "logs": [
        {
          "address": "0x58389610a3d13e8f380ee2ba077a6f36f2a90834",
          "topics": [
            "0xddf252ad1be2c89b69c2b068fc378daa952ba7f163c4a11628f55a4df523b3ef",
            "0x0000000000000000000000000000000000000000000000000000000000000000",
            "0x0000000000000000000000006efb11ac41b6657c32dac5ed4874082c700bba29"
          ],
          "data": "0x000000000000000000000000000000000000000000000000000000e8d4a51000",
          "blockHash": "0x7fdc8f997109bf5ab2e1320ff5428b98b2b48782d4e5cb22efce9b9e91c2cbec",
          "blockNumber": "0x7223c8",
          "blockTimestamp": "0x67d1d876",
          "transactionHash": "0x6e17c771c7a1129cc33b6bfffdb43207e9d96dcd50b7f79a7a9b88df79abe559",
          "transactionIndex": "0xd9",
          "logIndex": "0x104",
          "removed": false
        }
      ],
      "logsBloom": "0x00000000000000000200000000000000000000000000000000000000000000000000000000000000000000000000000000000000000100000000000000000000000000000000000000000008000000000000000000000400001000000000000000000000020000000000000000000800000000000000000000000010000000000000000000000000000000000000000000000000000000000000000000000000000000000000000000000000000000040000000000000000000001000000000000000002000000000000000000000000000000000000000000000000000020000000000000000000000000000000000000000000000000000000000000000000",
      "type": "0x2",
      "transactionHash": "0x6e17c771c7a1129cc33b6bfffdb43207e9d96dcd50b7f79a7a9b88df79abe559",
      "transactionIndex": "0xd9",
      "blockHash": "0x7fdc8f997109bf5ab2e1320ff5428b98b2b48782d4e5cb22efce9b9e91c2cbec",
      "blockNumber": "0x7223c8",
      "gasUsed": "0xc183",
      "effectiveGasPrice": "0xba43b7401",
      "from": "0x6efb11ac41b6657c32dac5ed4874082c700bba29",
      "to": "0x58389610a3d13e8f380ee2ba077a6f36f2a90834",
      "contractAddress": null
    },
    {
      "status": "0x1",
      "cumulativeGasUsed": "0x106eb49",
      "logs": [
        {
          "address": "0x2c53ce7143d24a65410107f50e4aabad9a164480",
          "topics": [
            "0x8c5be1e5ebec7d5bd14f71427d1e84f3dd0314c0f7b2291e5b200ac8c7c3b925",
            "0x0000000000000000000000006efb11ac41b6657c32dac5ed4874082c700bba29",
            "0x000000000000000000000000a1ba9a5d1338c212c22405998268b0f6aa02ab6e"
          ],
          "data": "0xffffffffffffffffffffffffffffffffffffffffffffffffffffffffffffffff",
          "blockHash": "0x7fdc8f997109bf5ab2e1320ff5428b98b2b48782d4e5cb22efce9b9e91c2cbec",
          "blockNumber": "0x7223c8",
          "blockTimestamp": "0x67d1d876",
          "transactionHash": "0xc6e2c61d093a9e362c36b29831b1c3c1ac83ed97ad05d8882e010e47dff035a6",
          "transactionIndex": "0xda",
          "logIndex": "0x105",
          "removed": false
        }
      ],
      "logsBloom": "0x00000000000000000200000000000000000000000000000000000000000000000000000000000000000000000000000000001000000100000000000000200000000000000000000000000000000000000000000000000000000000004000000000000000000000000000000000000000000000000000000000000000000000000000000000000000000000000000000000000000000000000000000000000000020000000000000000000000000000000000000000000000000001000000008000000000000000000000000000000000000000010000000000000000000000000010001000000400000000000000000000000000000000000000000000000000",
      "type": "0x2",
      "transactionHash": "0xc6e2c61d093a9e362c36b29831b1c3c1ac83ed97ad05d8882e010e47dff035a6",
      "transactionIndex": "0xda",
      "blockHash": "0x7fdc8f997109bf5ab2e1320ff5428b98b2b48782d4e5cb22efce9b9e91c2cbec",
      "blockNumber": "0x7223c8",
      "gasUsed": "0xf9a4",
      "effectiveGasPrice": "0xba43b7401",
      "from": "0x6efb11ac41b6657c32dac5ed4874082c700bba29",
      "to": "0x2c53ce7143d24a65410107f50e4aabad9a164480",
      "contractAddress": null
    },
    {
      "status": "0x1",
      "cumulativeGasUsed": "0x107e4ed",
      "logs": [
        {
          "address": "0x53f7c389cbb801e2abfd301ded6d2a1cf330ac0d",
          "topics": [
            "0x8c5be1e5ebec7d5bd14f71427d1e84f3dd0314c0f7b2291e5b200ac8c7c3b925",
            "0x0000000000000000000000006efb11ac41b6657c32dac5ed4874082c700bba29",
            "0x000000000000000000000000a1ba9a5d1338c212c22405998268b0f6aa02ab6e"
          ],
          "data": "0xffffffffffffffffffffffffffffffffffffffffffffffffffffffffffffffff",
          "blockHash": "0x7fdc8f997109bf5ab2e1320ff5428b98b2b48782d4e5cb22efce9b9e91c2cbec",
          "blockNumber": "0x7223c8",
          "blockTimestamp": "0x67d1d876",
          "transactionHash": "0x09eff97d8f029983fee435e292c1e807961213c054f33404379a55056b84583c",
          "transactionIndex": "0xdb",
          "logIndex": "0x106",
          "removed": false
        }
      ],
      "logsBloom": "0x00000000000000000200000002000000000000000000000000000000000000000000000000000000000000000000000000000000000100000000000000200000000000000000000000000000000000000000000000000000000000004000000000000000000000000000000000000000000000000000000000000000000000000000000000000000000000000000000000000000000000000000000000000000020000000010000000000000000000000000000000000000000001000000008000000000000000000000000000000000000000000000000000000000000000000010000000000400000000000000000000000000000000000008000000000000",
      "type": "0x2",
      "transactionHash": "0x09eff97d8f029983fee435e292c1e807961213c054f33404379a55056b84583c",
      "transactionIndex": "0xdb",
      "blockHash": "0x7fdc8f997109bf5ab2e1320ff5428b98b2b48782d4e5cb22efce9b9e91c2cbec",
      "blockNumber": "0x7223c8",
      "gasUsed": "0xf9a4",
      "effectiveGasPrice": "0xba43b7401",
      "from": "0x6efb11ac41b6657c32dac5ed4874082c700bba29",
      "to": "0x53f7c389cbb801e2abfd301ded6d2a1cf330ac0d",
      "contractAddress": null
    },
    {
      "status": "0x1",
      "cumulativeGasUsed": "0x108de91",
      "logs": [
        {
          "address": "0xf9861d7478f8957679b26404bd6272c39f949c29",
          "topics": [
            "0x8c5be1e5ebec7d5bd14f71427d1e84f3dd0314c0f7b2291e5b200ac8c7c3b925",
            "0x0000000000000000000000006efb11ac41b6657c32dac5ed4874082c700bba29",
            "0x000000000000000000000000a1ba9a5d1338c212c22405998268b0f6aa02ab6e"
          ],
          "data": "0xffffffffffffffffffffffffffffffffffffffffffffffffffffffffffffffff",
          "blockHash": "0x7fdc8f997109bf5ab2e1320ff5428b98b2b48782d4e5cb22efce9b9e91c2cbec",
          "blockNumber": "0x7223c8",
          "blockTimestamp": "0x67d1d876",
          "transactionHash": "0x72b16dbd680c55fbbd0d808a4d19f536aa22cf966d6f8d8b3cc7e24ec0e440d1",
          "transactionIndex": "0xdc",
          "logIndex": "0x107",
          "removed": false
        }
      ],
      "logsBloom": "0x00000000000000000200000000000000000000000000000000000000000000000000000000000000000000000000000000000000000100000000000000200000000000000000000000000000000000000000000000000000000000004000000000000000040000000000000000000000000000000000000000000000000000000000000000000000000000000000000000000000000000000000000000000000020000000000000000040000000000000000000000000000000001000000008000000000080000000000000000000000000000000000000000000000000000000010000000000400000000000000000000000000000000000000000000000000",
      "type": "0x2",
      "transactionHash": "0x72b16dbd680c55fbbd0d808a4d19f536aa22cf966d6f8d8b3cc7e24ec0e440d1",
      "transactionIndex": "0xdc",
      "blockHash": "0x7fdc8f997109bf5ab2e1320ff5428b98b2b48782d4e5cb22efce9b9e91c2cbec",
      "blockNumber": "0x7223c8",
      "gasUsed": "0xf9a4",
      "effectiveGasPrice": "0xba43b7401",
      "from": "0x6efb11ac41b6657c32dac5ed4874082c700bba29",
      "to": "0xf9861d7478f8957679b26404bd6272c39f949c29",
      "contractAddress": null
    },
    {
      "status": "0x1",
      "cumulativeGasUsed": "0xaee089",
      "logs": [
        {
          "address": "0x1889cfb8746716a0ac50e59a54f190987c5f04e6",
          "topics": [
            "0x8c5be1e5ebec7d5bd14f71427d1e84f3dd0314c0f7b2291e5b200ac8c7c3b925",
            "0x0000000000000000000000006efb11ac41b6657c32dac5ed4874082c700bba29",
            "0x000000000000000000000000a1ba9a5d1338c212c22405998268b0f6aa02ab6e"
          ],
          "data": "0xffffffffffffffffffffffffffffffffffffffffffffffffffffffffffffffff",
          "blockHash": "0xebc3c6d20ed92afa3a275dadd0e3b16f50c511ad538a23cb03037b216f3f901a",
          "blockNumber": "0x7223c9",
          "blockTimestamp": "0x67d1d876",
          "transactionHash": "0xb4fa116a57ad040e736af92658cff38b71ac3c6da7c1e4c19c18ea29a0d1ae05",
          "transactionIndex": "0x84",
          "logIndex": "0xd8",
          "removed": false
        }
      ],
      "logsBloom": "0x00000000000000000200000000000000000000000000000000000000000000000000000000000000000000000000000000000000000100000000000000200000000000000000000000000000000000000000000000000000000400004000000000000000000000000000000000000000000000000000000000000000000000000000000000000000000000000000000000000000000000000000000000000000020000000000100000000000000000000000000000000000000001000000008000000000000000000000000000000000000000000000000000000000000000000010000080000400000000000000000000000000000000000000000000000000",
      "type": "0x2",
      "transactionHash": "0xb4fa116a57ad040e736af92658cff38b71ac3c6da7c1e4c19c18ea29a0d1ae05",
      "transactionIndex": "0x84",
      "blockHash": "0xebc3c6d20ed92afa3a275dadd0e3b16f50c511ad538a23cb03037b216f3f901a",
      "blockNumber": "0x7223c9",
      "gasUsed": "0xf9a4",
      "effectiveGasPrice": "0xba43b7401",
      "from": "0x6efb11ac41b6657c32dac5ed4874082c700bba29",
      "to": "0x1889cfb8746716a0ac50e59a54f190987c5f04e6",
      "contractAddress": null
    },
    {
      "status": "0x1",
      "cumulativeGasUsed": "0xafda2d",
      "logs": [
        {
          "address": "0x6bc8a42d4b2f4bc8e4c3f9ecff00b7290ffa7405",
          "topics": [
            "0x8c5be1e5ebec7d5bd14f71427d1e84f3dd0314c0f7b2291e5b200ac8c7c3b925",
            "0x0000000000000000000000006efb11ac41b6657c32dac5ed4874082c700bba29",
            "0x000000000000000000000000a1ba9a5d1338c212c22405998268b0f6aa02ab6e"
          ],
          "data": "0xffffffffffffffffffffffffffffffffffffffffffffffffffffffffffffffff",
          "blockHash": "0xebc3c6d20ed92afa3a275dadd0e3b16f50c511ad538a23cb03037b216f3f901a",
          "blockNumber": "0x7223c9",
          "blockTimestamp": "0x67d1d876",
          "transactionHash": "0xe959d4b629f99a09838499a246f3fb9df89a1ac031cd0a230b58cc81883eaef5",
          "transactionIndex": "0x85",
          "logIndex": "0xd9",
          "removed": false
        }
      ],
      "logsBloom": "0x00000000000000000200000000000000000000000000000000000000000000000000000000000000000000000000000000002000000100000400000000200000000000000000000000000000000000000000000000000000000000004000000000000000000000000000000000000000000000000000000000000000000000000000000000000000000000000000000000000000000000000000000000000000020000000200000000000000000000000000000000000000000001000000008000000000000000000000000000000000000000000000000000000000000000000010000000000400000000000000000000000000000000000000000000000000",
      "type": "0x2",
      "transactionHash": "0xe959d4b629f99a09838499a246f3fb9df89a1ac031cd0a230b58cc81883eaef5",
      "transactionIndex": "0x85",
      "blockHash": "0xebc3c6d20ed92afa3a275dadd0e3b16f50c511ad538a23cb03037b216f3f901a",
      "blockNumber": "0x7223c9",
      "gasUsed": "0xf9a4",
      "effectiveGasPrice": "0xba43b7401",
      "from": "0x6efb11ac41b6657c32dac5ed4874082c700bba29",
      "to": "0x6bc8a42d4b2f4bc8e4c3f9ecff00b7290ffa7405",
      "contractAddress": null
    },
    {
      "status": "0x1",
      "cumulativeGasUsed": "0xb0d3d1",
      "logs": [
        {
          "address": "0xe3f98fda6dbd38c1017754f1675dce377381c23c",
          "topics": [
            "0x8c5be1e5ebec7d5bd14f71427d1e84f3dd0314c0f7b2291e5b200ac8c7c3b925",
            "0x0000000000000000000000006efb11ac41b6657c32dac5ed4874082c700bba29",
            "0x000000000000000000000000a1ba9a5d1338c212c22405998268b0f6aa02ab6e"
          ],
          "data": "0xffffffffffffffffffffffffffffffffffffffffffffffffffffffffffffffff",
          "blockHash": "0xebc3c6d20ed92afa3a275dadd0e3b16f50c511ad538a23cb03037b216f3f901a",
          "blockNumber": "0x7223c9",
          "blockTimestamp": "0x67d1d876",
          "transactionHash": "0x85903c4e37091aa2f7f3ae638315ed6c90a8a6302589cb3c4fa23c43be98494d",
          "transactionIndex": "0x86",
          "logIndex": "0xda",
          "removed": false
        }
      ],
      "logsBloom": "0x00000000000000002200000000000000000000000000000000000000000000000000000000000000000000000000000000000000000100000000000000200000000000000000000000000000000000000000000000000000000000004000000000000000000000000000000000000000000000000000000000000000000000000000000000000000000000000000000000000000000000000020000000000000020000000000000000000000000020000000000000000000000001000000008000000000000000000000000000000000000000000000000000000000000000000010000000000400000000000000000000000000000000000000000000000000",
      "type": "0x2",
      "transactionHash": "0x85903c4e37091aa2f7f3ae638315ed6c90a8a6302589cb3c4fa23c43be98494d",
      "transactionIndex": "0x86",
      "blockHash": "0xebc3c6d20ed92afa3a275dadd0e3b16f50c511ad538a23cb03037b216f3f901a",
      "blockNumber": "0x7223c9",
      "gasUsed": "0xf9a4",
      "effectiveGasPrice": "0xba43b7401",
      "from": "0x6efb11ac41b6657c32dac5ed4874082c700bba29",
      "to": "0xe3f98fda6dbd38c1017754f1675dce377381c23c",
      "contractAddress": null
    },
    {
      "status": "0x1",
      "cumulativeGasUsed": "0xb1cd75",
      "logs": [
        {
          "address": "0x58389610a3d13e8f380ee2ba077a6f36f2a90834",
          "topics": [
            "0x8c5be1e5ebec7d5bd14f71427d1e84f3dd0314c0f7b2291e5b200ac8c7c3b925",
            "0x0000000000000000000000006efb11ac41b6657c32dac5ed4874082c700bba29",
            "0x000000000000000000000000a1ba9a5d1338c212c22405998268b0f6aa02ab6e"
          ],
          "data": "0xffffffffffffffffffffffffffffffffffffffffffffffffffffffffffffffff",
          "blockHash": "0xebc3c6d20ed92afa3a275dadd0e3b16f50c511ad538a23cb03037b216f3f901a",
          "blockNumber": "0x7223c9",
          "blockTimestamp": "0x67d1d876",
          "transactionHash": "0xa8f75bba23744cf9e1d769019e042b90189474095180eaa6328514bae4c5967a",
          "transactionIndex": "0x87",
          "logIndex": "0xdb",
          "removed": false
        }
      ],
      "logsBloom": "0x00000000000000000200000000000000000000000000000000000000000000000000000000000000000000000000000000000000000100000000000000200000000000000000000000000000000000000000000000000400001000004000000000000000000000000000000000000000000000000000000000000000000000000000000000000000000000000000000000000000000000000000000000000000020000000000000000000000000000040000000000000000000001000000008000000000000000000000000000000000000000000000000000000000000000000010000000000400000000000000000000000000000000000000000000000000",
      "type": "0x2",
      "transactionHash": "0xa8f75bba23744cf9e1d769019e042b90189474095180eaa6328514bae4c5967a",
      "transactionIndex": "0x87",
      "blockHash": "0xebc3c6d20ed92afa3a275dadd0e3b16f50c511ad538a23cb03037b216f3f901a",
      "blockNumber": "0x7223c9",
      "gasUsed": "0xf9a4",
      "effectiveGasPrice": "0xba43b7401",
      "from": "0x6efb11ac41b6657c32dac5ed4874082c700bba29",
      "to": "0x58389610a3d13e8f380ee2ba077a6f36f2a90834",
      "contractAddress": null
    },
    {
      "status": "0x1",
      "cumulativeGasUsed": "0xba2173",
      "logs": [
        {
          "address": "0x2c53ce7143d24a65410107f50e4aabad9a164480",
          "topics": [
            "0xddf252ad1be2c89b69c2b068fc378daa952ba7f163c4a11628f55a4df523b3ef",
            "0x0000000000000000000000006efb11ac41b6657c32dac5ed4874082c700bba29",
            "0x0000000000000000000000009a5141cf9f68ce4dd9f02ea7722455f3beaa9339"
          ],
          "data": "0x000000000000000000000000000000000000000000000000000000003b9aca00",
          "blockHash": "0xebc3c6d20ed92afa3a275dadd0e3b16f50c511ad538a23cb03037b216f3f901a",
          "blockNumber": "0x7223c9",
          "blockTimestamp": "0x67d1d876",
          "transactionHash": "0xe1b921285a35bc024d259e633c6c6e88437b67b762a8804b2c8ff193bb90dc90",
          "transactionIndex": "0x88",
          "logIndex": "0xdc",
          "removed": false
        },
        {
          "address": "0x2c53ce7143d24a65410107f50e4aabad9a164480",
          "topics": [
            "0xddf252ad1be2c89b69c2b068fc378daa952ba7f163c4a11628f55a4df523b3ef",
            "0x0000000000000000000000006efb11ac41b6657c32dac5ed4874082c700bba29",
            "0x0000000000000000000000009a5141cf9f68ce4dd9f02ea7722455f3beaa9339"
          ],
          "data": "0x0000000000000000000000000000000000000000000000056bc75e2d63100000",
          "blockHash": "0xebc3c6d20ed92afa3a275dadd0e3b16f50c511ad538a23cb03037b216f3f901a",
          "blockNumber": "0x7223c9",
          "blockTimestamp": "0x67d1d876",
          "transactionHash": "0xe1b921285a35bc024d259e633c6c6e88437b67b762a8804b2c8ff193bb90dc90",
          "transactionIndex": "0x88",
          "logIndex": "0xdd",
          "removed": false
        },
        {
          "address": "0x58389610a3d13e8f380ee2ba077a6f36f2a90834",
          "topics": [
            "0xddf252ad1be2c89b69c2b068fc378daa952ba7f163c4a11628f55a4df523b3ef",
            "0x0000000000000000000000006efb11ac41b6657c32dac5ed4874082c700bba29",
            "0x0000000000000000000000009a5141cf9f68ce4dd9f02ea7722455f3beaa9339"
          ],
          "data": "0x0000000000000000000000000000000000000000000000000000008bb2c97000",
          "blockHash": "0xebc3c6d20ed92afa3a275dadd0e3b16f50c511ad538a23cb03037b216f3f901a",
          "blockNumber": "0x7223c9",
          "blockTimestamp": "0x67d1d876",
          "transactionHash": "0xe1b921285a35bc024d259e633c6c6e88437b67b762a8804b2c8ff193bb90dc90",
          "transactionIndex": "0x88",
          "logIndex": "0xde",
          "removed": false
        },
        {
          "address": "0x7628a394696eabbc615c98e3df5efd34880328b2",
          "topics": [
            "0xd3d640118416a526ad33075973727e1675055b2b31a8351bc74271d75fccef9b"
          ],
          "data": "0x00000000000000000000000000000000000000000000000000000000000000000000000000000000000000006efb11ac41b6657c32dac5ed4874082c700bba290000000000000000000000006efb11ac41b6657c32dac5ed4874082c700bba290000000000000000000000000000000000000000000000000000000000000000000000000000000000000000d0cb401840c5efac575e1fe57a308c396e73fbe00000000000000000000000002c53ce7143d24a65410107f50e4aabad9a16448000000000000000000000000058389610a3d13e8f380ee2ba077a6f36f2a90834000000000000000000000000000000000000000000000000000000003b9aca000000000000000000000000000000000000000000000000056bc75e2d631000000000000000000000000000000000000000000000000000000000008bb2c97000",
          "blockHash": "0xebc3c6d20ed92afa3a275dadd0e3b16f50c511ad538a23cb03037b216f3f901a",
          "blockNumber": "0x7223c9",
          "blockTimestamp": "0x67d1d876",
          "transactionHash": "0xe1b921285a35bc024d259e633c6c6e88437b67b762a8804b2c8ff193bb90dc90",
          "transactionIndex": "0x88",
          "logIndex": "0xdf",
          "removed": false
        }
      ],
      "logsBloom": "0x00000000000000000200000000000000000000000000000000000000040000000000000000000000000000000000000000001000000100000000000000400000000000000000000000000008000000000000000000000400001000000000000000000000000000000000000000000000100000000000000000000010200000000000000000000000000000000000000000000000000000000000000001000000000000000000000000000100000000040000000000000000000001000000000000000002000080000000000000000000000000010000000040000000000000010000001000000000000000000000000000000000000000000000000000000000",
      "type": "0x2",
      "transactionHash": "0xe1b921285a35bc024d259e633c6c6e88437b67b762a8804b2c8ff193bb90dc90",
      "transactionIndex": "0x88",
      "blockHash": "0xebc3c6d20ed92afa3a275dadd0e3b16f50c511ad538a23cb03037b216f3f901a",
      "blockNumber": "0x7223c9",
      "gasUsed": "0x853fe",
      "effectiveGasPrice": "0xba43b7401",
      "from": "0x6efb11ac41b6657c32dac5ed4874082c700bba29",
      "to": "0xa1ba9a5d1338c212c22405998268b0f6aa02ab6e",
      "contractAddress": null
    },
    {
      "status": "0x1",
      "cumulativeGasUsed": "0xc1d20f",
      "logs": [
        {
          "address": "0x2c53ce7143d24a65410107f50e4aabad9a164480",
          "topics": [
            "0xddf252ad1be2c89b69c2b068fc378daa952ba7f163c4a11628f55a4df523b3ef",
            "0x0000000000000000000000006efb11ac41b6657c32dac5ed4874082c700bba29",
            "0x0000000000000000000000009a5141cf9f68ce4dd9f02ea7722455f3beaa9339"
          ],
          "data": "0x000000000000000000000000000000000000000000000000000000003b9aca00",
          "blockHash": "0xebc3c6d20ed92afa3a275dadd0e3b16f50c511ad538a23cb03037b216f3f901a",
          "blockNumber": "0x7223c9",
          "blockTimestamp": "0x67d1d876",
          "transactionHash": "0xf4bbc331733e63b0b9bcc1d9a61e6db7ba67d7945621b47513ade236ca6d1513",
          "transactionIndex": "0x89",
          "logIndex": "0xe0",
          "removed": false
        },
        {
          "address": "0x53f7c389cbb801e2abfd301ded6d2a1cf330ac0d",
          "topics": [
            "0xddf252ad1be2c89b69c2b068fc378daa952ba7f163c4a11628f55a4df523b3ef",
            "0x0000000000000000000000006efb11ac41b6657c32dac5ed4874082c700bba29",
            "0x0000000000000000000000009a5141cf9f68ce4dd9f02ea7722455f3beaa9339"
          ],
          "data": "0x000000000000000000000000000000000000000000000002b5e3af16b1880000",
          "blockHash": "0xebc3c6d20ed92afa3a275dadd0e3b16f50c511ad538a23cb03037b216f3f901a",
          "blockNumber": "0x7223c9",
          "blockTimestamp": "0x67d1d876",
          "transactionHash": "0xf4bbc331733e63b0b9bcc1d9a61e6db7ba67d7945621b47513ade236ca6d1513",
          "transactionIndex": "0x89",
          "logIndex": "0xe1",
          "removed": false
        },
        {
          "address": "0x58389610a3d13e8f380ee2ba077a6f36f2a90834",
          "topics": [
            "0xddf252ad1be2c89b69c2b068fc378daa952ba7f163c4a11628f55a4df523b3ef",
            "0x0000000000000000000000006efb11ac41b6657c32dac5ed4874082c700bba29",
            "0x0000000000000000000000009a5141cf9f68ce4dd9f02ea7722455f3beaa9339"
          ],
          "data": "0x000000000000000000000000000000000000000000000000000005bad5431800",
          "blockHash": "0xebc3c6d20ed92afa3a275dadd0e3b16f50c511ad538a23cb03037b216f3f901a",
          "blockNumber": "0x7223c9",
          "blockTimestamp": "0x67d1d876",
          "transactionHash": "0xf4bbc331733e63b0b9bcc1d9a61e6db7ba67d7945621b47513ade236ca6d1513",
          "transactionIndex": "0x89",
          "logIndex": "0xe2",
          "removed": false
        },
        {
          "address": "0x7628a394696eabbc615c98e3df5efd34880328b2",
          "topics": [
            "0xd3d640118416a526ad33075973727e1675055b2b31a8351bc74271d75fccef9b"
          ],
          "data": "0x00000000000000000000000000000000000000000000000000000000000000010000000000000000000000006efb11ac41b6657c32dac5ed4874082c700bba290000000000000000000000006efb11ac41b6657c32dac5ed4874082c700bba29000000000000000000000000000000000000000000000000000000000000000000000000000000000000000053f7c389cbb801e2abfd301ded6d2a1cf330ac0d00000000000000000000000053f7c389cbb801e2abfd301ded6d2a1cf330ac0d00000000000000000000000058389610a3d13e8f380ee2ba077a6f36f2a90834000000000000000000000000000000000000000000000000000000003b9aca00000000000000000000000000000000000000000000000002b5e3af16b1880000000000000000000000000000000000000000000000000000000005bad5431800",
          "blockHash": "0xebc3c6d20ed92afa3a275dadd0e3b16f50c511ad538a23cb03037b216f3f901a",
          "blockNumber": "0x7223c9",
          "blockTimestamp": "0x67d1d876",
          "transactionHash": "0xf4bbc331733e63b0b9bcc1d9a61e6db7ba67d7945621b47513ade236ca6d1513",
          "transactionIndex": "0x89",
          "logIndex": "0xe3",
          "removed": false
        }
      ],
      "logsBloom": "0x00000000000000000200000002000000000000000000000000000000040000000000000000000000000000000000000000001000000100000000000000400000000000000000000000000008000000000000000000000400001000000000000000000000000000000000000000000000100000000000000000000010200000000000000000000000000000000000000000000000000000000000000001000000000000000010000000000100000000040000000000000000000001000000000000000002000080000000000000000000000000010000000040000000000000010000001000000000000000000000000000000000000000000008000000000000",
      "type": "0x2",
      "transactionHash": "0xf4bbc331733e63b0b9bcc1d9a61e6db7ba67d7945621b47513ade236ca6d1513",
      "transactionIndex": "0x89",
      "blockHash": "0xebc3c6d20ed92afa3a275dadd0e3b16f50c511ad538a23cb03037b216f3f901a",
      "blockNumber": "0x7223c9",
      "gasUsed": "0x7b09c",
      "effectiveGasPrice": "0xba43b7401",
      "from": "0x6efb11ac41b6657c32dac5ed4874082c700bba29",
      "to": "0xa1ba9a5d1338c212c22405998268b0f6aa02ab6e",
      "contractAddress": null
    },
    {
      "status": "0x1",
      "cumulativeGasUsed": "0xc982ab",
      "logs": [
        {
          "address": "0x2c53ce7143d24a65410107f50e4aabad9a164480",
          "topics": [
            "0xddf252ad1be2c89b69c2b068fc378daa952ba7f163c4a11628f55a4df523b3ef",
            "0x0000000000000000000000006efb11ac41b6657c32dac5ed4874082c700bba29",
            "0x0000000000000000000000009a5141cf9f68ce4dd9f02ea7722455f3beaa9339"
          ],
          "data": "0x000000000000000000000000000000000000000000000000000000003b9aca00",
          "blockHash": "0xebc3c6d20ed92afa3a275dadd0e3b16f50c511ad538a23cb03037b216f3f901a",
          "blockNumber": "0x7223c9",
          "blockTimestamp": "0x67d1d876",
          "transactionHash": "0x4a011b9edd61a8bc84b469abf5eca0d7b1cd970a049ee6f26dcb5b2cd2cdc69a",
          "transactionIndex": "0x8a",
          "logIndex": "0xe4",
          "removed": false
        },
        {
          "address": "0xf9861d7478f8957679b26404bd6272c39f949c29",
          "topics": [
            "0xddf252ad1be2c89b69c2b068fc378daa952ba7f163c4a11628f55a4df523b3ef",
            "0x0000000000000000000000006efb11ac41b6657c32dac5ed4874082c700bba29",
            "0x0000000000000000000000009a5141cf9f68ce4dd9f02ea7722455f3beaa9339"
          ],
          "data": "0x000000000000000000000000000000000000000000295be96e64066972000000",
          "blockHash": "0xebc3c6d20ed92afa3a275dadd0e3b16f50c511ad538a23cb03037b216f3f901a",
          "blockNumber": "0x7223c9",
          "blockTimestamp": "0x67d1d876",
          "transactionHash": "0x4a011b9edd61a8bc84b469abf5eca0d7b1cd970a049ee6f26dcb5b2cd2cdc69a",
          "transactionIndex": "0x8a",
          "logIndex": "0xe5",
          "removed": false
        },
        {
          "address": "0x58389610a3d13e8f380ee2ba077a6f36f2a90834",
          "topics": [
            "0xddf252ad1be2c89b69c2b068fc378daa952ba7f163c4a11628f55a4df523b3ef",
            "0x0000000000000000000000006efb11ac41b6657c32dac5ed4874082c700bba29",
            "0x0000000000000000000000009a5141cf9f68ce4dd9f02ea7722455f3beaa9339"
          ],
          "data": "0x000000000000000000000000000000000000000000000000000000037e11d600",
          "blockHash": "0xebc3c6d20ed92afa3a275dadd0e3b16f50c511ad538a23cb03037b216f3f901a",
          "blockNumber": "0x7223c9",
          "blockTimestamp": "0x67d1d876",
          "transactionHash": "0x4a011b9edd61a8bc84b469abf5eca0d7b1cd970a049ee6f26dcb5b2cd2cdc69a",
          "transactionIndex": "0x8a",
          "logIndex": "0xe6",
          "removed": false
        },
        {
          "address": "0x7628a394696eabbc615c98e3df5efd34880328b2",
          "topics": [
            "0xd3d640118416a526ad33075973727e1675055b2b31a8351bc74271d75fccef9b"
          ],
          "data": "0x00000000000000000000000000000000000000000000000000000000000000020000000000000000000000006efb11ac41b6657c32dac5ed4874082c700bba290000000000000000000000006efb11ac41b6657c32dac5ed4874082c700bba290000000000000000000000000000000000000000000000000000000000000000000000000000000000000000f9861d7478f8957679b26404bd6272c39f949c29000000000000000000000000f9861d7478f8957679b26404bd6272c39f949c2900000000000000000000000058389610a3d13e8f380ee2ba077a6f36f2a90834000000000000000000000000000000000000000000000000000000003b9aca00000000000000000000000000000000000000000000295be96e64066972000000000000000000000000000000000000000000000000000000000000037e11d600",
          "blockHash": "0xebc3c6d20ed92afa3a275dadd0e3b16f50c511ad538a23cb03037b216f3f901a",
          "blockNumber": "0x7223c9",
          "blockTimestamp": "0x67d1d876",
          "transactionHash": "0x4a011b9edd61a8bc84b469abf5eca0d7b1cd970a049ee6f26dcb5b2cd2cdc69a",
          "transactionIndex": "0x8a",
          "logIndex": "0xe7",
          "removed": false
        }
      ],
      "logsBloom": "0x00000000000000000200000000000000000000000000000000000000040000000000000000000000000000000000000000001000000100000000000000400000000000000000000000000008000000000000000000000400001000000000000000000000040000000000000000000000100000000000000000000010200000000000000000000000000000000000000000000000000000000000000001000000000000000000000000040100000000040000000000000000000001000000000000000002080080000000000000000000000000010000000040000000000000010000001000000000000000000000000000000000000000000000000000000000",
      "type": "0x2",
      "transactionHash": "0x4a011b9edd61a8bc84b469abf5eca0d7b1cd970a049ee6f26dcb5b2cd2cdc69a",
      "transactionIndex": "0x8a",
      "blockHash": "0xebc3c6d20ed92afa3a275dadd0e3b16f50c511ad538a23cb03037b216f3f901a",
      "blockNumber": "0x7223c9",
      "gasUsed": "0x7b09c",
      "effectiveGasPrice": "0xba43b7401",
      "from": "0x6efb11ac41b6657c32dac5ed4874082c700bba29",
      "to": "0xa1ba9a5d1338c212c22405998268b0f6aa02ab6e",
      "contractAddress": null
    },
    {
      "status": "0x1",
      "cumulativeGasUsed": "0xd1a6e0",
      "logs": [
        {
          "address": "0x2c53ce7143d24a65410107f50e4aabad9a164480",
          "topics": [
            "0xddf252ad1be2c89b69c2b068fc378daa952ba7f163c4a11628f55a4df523b3ef",
            "0x0000000000000000000000006efb11ac41b6657c32dac5ed4874082c700bba29",
            "0x0000000000000000000000009a5141cf9f68ce4dd9f02ea7722455f3beaa9339"
          ],
          "data": "0x000000000000000000000000000000000000000000000000000000003b9aca00",
          "blockHash": "0xebc3c6d20ed92afa3a275dadd0e3b16f50c511ad538a23cb03037b216f3f901a",
          "blockNumber": "0x7223c9",
          "blockTimestamp": "0x67d1d876",
          "transactionHash": "0x899c3aad9983621157b2982251269030ac6077a26bac1d45f68728f839fdc088",
          "transactionIndex": "0x8b",
          "logIndex": "0xe8",
          "removed": false
        },
        {
          "address": "0x1889cfb8746716a0ac50e59a54f190987c5f04e6",
          "topics": [
            "0xddf252ad1be2c89b69c2b068fc378daa952ba7f163c4a11628f55a4df523b3ef",
            "0x0000000000000000000000006efb11ac41b6657c32dac5ed4874082c700bba29",
            "0x0000000000000000000000009a5141cf9f68ce4dd9f02ea7722455f3beaa9339"
          ],
          "data": "0x00000000000000000000000000000000000000000000000000005af3107a4000",
          "blockHash": "0xebc3c6d20ed92afa3a275dadd0e3b16f50c511ad538a23cb03037b216f3f901a",
          "blockNumber": "0x7223c9",
          "blockTimestamp": "0x67d1d876",
          "transactionHash": "0x899c3aad9983621157b2982251269030ac6077a26bac1d45f68728f839fdc088",
          "transactionIndex": "0x8b",
          "logIndex": "0xe9",
          "removed": false
        },
        {
          "address": "0x58389610a3d13e8f380ee2ba077a6f36f2a90834",
          "topics": [
            "0xddf252ad1be2c89b69c2b068fc378daa952ba7f163c4a11628f55a4df523b3ef",
            "0x0000000000000000000000006efb11ac41b6657c32dac5ed4874082c700bba29",
            "0x0000000000000000000000009a5141cf9f68ce4dd9f02ea7722455f3beaa9339"
          ],
          "data": "0x00000000000000000000000000000000000000000000000000000045d964b800",
          "blockHash": "0xebc3c6d20ed92afa3a275dadd0e3b16f50c511ad538a23cb03037b216f3f901a",
          "blockNumber": "0x7223c9",
          "blockTimestamp": "0x67d1d876",
          "transactionHash": "0x899c3aad9983621157b2982251269030ac6077a26bac1d45f68728f839fdc088",
          "transactionIndex": "0x8b",
          "logIndex": "0xea",
          "removed": false
        },
        {
          "address": "0x7628a394696eabbc615c98e3df5efd34880328b2",
          "topics": [
            "0xd3d640118416a526ad33075973727e1675055b2b31a8351bc74271d75fccef9b"
          ],
          "data": "0x00000000000000000000000000000000000000000000000000000000000000030000000000000000000000006efb11ac41b6657c32dac5ed4874082c700bba290000000000000000000000006efb11ac41b6657c32dac5ed4874082c700bba2900000000000000000000000000000000000000000000000000000000000000000000000000000000000000005f5054ee2a7bc2617565b5b79f35573aa61394810000000000000000000000001889cfb8746716a0ac50e59a54f190987c5f04e600000000000000000000000058389610a3d13e8f380ee2ba077a6f36f2a90834000000000000000000000000000000000000000000000000000000003b9aca0000000000000000000000000000000000000000000000000000005af3107a400000000000000000000000000000000000000000000000000000000045d964b800",
          "blockHash": "0xebc3c6d20ed92afa3a275dadd0e3b16f50c511ad538a23cb03037b216f3f901a",
          "blockNumber": "0x7223c9",
          "blockTimestamp": "0x67d1d876",
          "transactionHash": "0x899c3aad9983621157b2982251269030ac6077a26bac1d45f68728f839fdc088",
          "transactionIndex": "0x8b",
          "logIndex": "0xeb",
          "removed": false
        }
      ],
      "logsBloom": "0x00000000000000000200000000000000000000000000000000000000040000000000000000000000000000000000000000001000000100000000000000400000000000000000000000000008000000000000000000000400001400000000000000000000000000000000000000000000100000000000000000000010200000000000000000000000000000000000000000000000000000000000000001000000000000000000100000000100000000040000000000000000000001000000000000000002000080000000000000000000000000010000000040000000000000010000001080000000000000000000000000000000000000000000000000000000",
      "type": "0x2",
      "transactionHash": "0x899c3aad9983621157b2982251269030ac6077a26bac1d45f68728f839fdc088",
      "transactionIndex": "0x8b",
      "blockHash": "0xebc3c6d20ed92afa3a275dadd0e3b16f50c511ad538a23cb03037b216f3f901a",
      "blockNumber": "0x7223c9",
      "gasUsed": "0x82435",
      "effectiveGasPrice": "0xba43b7401",
      "from": "0x6efb11ac41b6657c32dac5ed4874082c700bba29",
      "to": "0xa1ba9a5d1338c212c22405998268b0f6aa02ab6e",
      "contractAddress": null
    },
    {
      "status": "0x1",
      "cumulativeGasUsed": "0xd9cb15",
      "logs": [
        {
          "address": "0x2c53ce7143d24a65410107f50e4aabad9a164480",
          "topics": [
            "0xddf252ad1be2c89b69c2b068fc378daa952ba7f163c4a11628f55a4df523b3ef",
            "0x0000000000000000000000006efb11ac41b6657c32dac5ed4874082c700bba29",
            "0x0000000000000000000000009a5141cf9f68ce4dd9f02ea7722455f3beaa9339"
          ],
          "data": "0x000000000000000000000000000000000000000000000000000000003b9aca00",
          "blockHash": "0xebc3c6d20ed92afa3a275dadd0e3b16f50c511ad538a23cb03037b216f3f901a",
          "blockNumber": "0x7223c9",
          "blockTimestamp": "0x67d1d876",
          "transactionHash": "0xacb92856edfd401fe7b0d9e8705a134cc764080e53d2e96182d5f971a9118bfd",
          "transactionIndex": "0x8c",
          "logIndex": "0xec",
          "removed": false
        },
        {
          "address": "0x6bc8a42d4b2f4bc8e4c3f9ecff00b7290ffa7405",
          "topics": [
            "0xddf252ad1be2c89b69c2b068fc378daa952ba7f163c4a11628f55a4df523b3ef",
            "0x0000000000000000000000006efb11ac41b6657c32dac5ed4874082c700bba29",
            "0x0000000000000000000000009a5141cf9f68ce4dd9f02ea7722455f3beaa9339"
          ],
          "data": "0x0000000000000000000000000000000000000000000069e10de76676d0800000",
          "blockHash": "0xebc3c6d20ed92afa3a275dadd0e3b16f50c511ad538a23cb03037b216f3f901a",
          "blockNumber": "0x7223c9",
          "blockTimestamp": "0x67d1d876",
          "transactionHash": "0xacb92856edfd401fe7b0d9e8705a134cc764080e53d2e96182d5f971a9118bfd",
          "transactionIndex": "0x8c",
          "logIndex": "0xed",
          "removed": false
        },
        {
          "address": "0x58389610a3d13e8f380ee2ba077a6f36f2a90834",
          "topics": [
            "0xddf252ad1be2c89b69c2b068fc378daa952ba7f163c4a11628f55a4df523b3ef",
            "0x0000000000000000000000006efb11ac41b6657c32dac5ed4874082c700bba29",
            "0x0000000000000000000000009a5141cf9f68ce4dd9f02ea7722455f3beaa9339"
          ],
          "data": "0x0000000000000000000000000000000000000000000000000000001176592e00",
          "blockHash": "0xebc3c6d20ed92afa3a275dadd0e3b16f50c511ad538a23cb03037b216f3f901a",
          "blockNumber": "0x7223c9",
          "blockTimestamp": "0x67d1d876",
          "transactionHash": "0xacb92856edfd401fe7b0d9e8705a134cc764080e53d2e96182d5f971a9118bfd",
          "transactionIndex": "0x8c",
          "logIndex": "0xee",
          "removed": false
        },
        {
          "address": "0x7628a394696eabbc615c98e3df5efd34880328b2",
          "topics": [
            "0xd3d640118416a526ad33075973727e1675055b2b31a8351bc74271d75fccef9b"
          ],
          "data": "0x00000000000000000000000000000000000000000000000000000000000000040000000000000000000000006efb11ac41b6657c32dac5ed4874082c700bba290000000000000000000000006efb11ac41b6657c32dac5ed4874082c700bba29000000000000000000000000000000000000000000000000000000000000000000000000000000000000000037ee6083d1191b00eda1f6304c9a60695bfee8da0000000000000000000000006bc8a42d4b2f4bc8e4c3f9ecff00b7290ffa740500000000000000000000000058389610a3d13e8f380ee2ba077a6f36f2a90834000000000000000000000000000000000000000000000000000000003b9aca000000000000000000000000000000000000000000000069e10de76676d08000000000000000000000000000000000000000000000000000000000001176592e00",
          "blockHash": "0xebc3c6d20ed92afa3a275dadd0e3b16f50c511ad538a23cb03037b216f3f901a",
          "blockNumber": "0x7223c9",
          "blockTimestamp": "0x67d1d876",
          "transactionHash": "0xacb92856edfd401fe7b0d9e8705a134cc764080e53d2e96182d5f971a9118bfd",
          "transactionIndex": "0x8c",
          "logIndex": "0xef",
          "removed": false
        }
      ],
      "logsBloom": "0x00000000000000000200000000000000000000000000000000000000040000000000000000000000000000000000000000003000000100000400000000400000000000000000000000000008000000000000000000000400001000000000000000000000000000000000000000000000100000000000000000000010200000000000000000000000000000000000000000000000000000000000000001000000000000000200000000000100000000040000000000000000000001000000000000000002000080000000000000000000000000010000000040000000000000010000001000000000000000000000000000000000000000000000000000000000",
      "type": "0x2",
      "transactionHash": "0xacb92856edfd401fe7b0d9e8705a134cc764080e53d2e96182d5f971a9118bfd",
      "transactionIndex": "0x8c",
      "blockHash": "0xebc3c6d20ed92afa3a275dadd0e3b16f50c511ad538a23cb03037b216f3f901a",
      "blockNumber": "0x7223c9",
      "gasUsed": "0x82435",
      "effectiveGasPrice": "0xba43b7401",
      "from": "0x6efb11ac41b6657c32dac5ed4874082c700bba29",
      "to": "0xa1ba9a5d1338c212c22405998268b0f6aa02ab6e",
      "contractAddress": null
    },
    {
      "status": "0x1",
      "cumulativeGasUsed": "0xe17bb1",
      "logs": [
        {
          "address": "0x2c53ce7143d24a65410107f50e4aabad9a164480",
          "topics": [
            "0xddf252ad1be2c89b69c2b068fc378daa952ba7f163c4a11628f55a4df523b3ef",
            "0x0000000000000000000000006efb11ac41b6657c32dac5ed4874082c700bba29",
            "0x0000000000000000000000009a5141cf9f68ce4dd9f02ea7722455f3beaa9339"
          ],
          "data": "0x000000000000000000000000000000000000000000000000000000003b9aca00",
          "blockHash": "0xebc3c6d20ed92afa3a275dadd0e3b16f50c511ad538a23cb03037b216f3f901a",
          "blockNumber": "0x7223c9",
          "blockTimestamp": "0x67d1d876",
          "transactionHash": "0x771c1fd741fcfd787e8e318e10600dd96dfd135686dbb812385b89a65506190a",
          "transactionIndex": "0x8d",
          "logIndex": "0xf0",
          "removed": false
        },
        {
          "address": "0xe3f98fda6dbd38c1017754f1675dce377381c23c",
          "topics": [
            "0xddf252ad1be2c89b69c2b068fc378daa952ba7f163c4a11628f55a4df523b3ef",
            "0x0000000000000000000000006efb11ac41b6657c32dac5ed4874082c700bba29",
            "0x0000000000000000000000009a5141cf9f68ce4dd9f02ea7722455f3beaa9339"
          ],
          "data": "0x00000000000000000000000000000000000000000000021e19e0c9bab2400000",
          "blockHash": "0xebc3c6d20ed92afa3a275dadd0e3b16f50c511ad538a23cb03037b216f3f901a",
          "blockNumber": "0x7223c9",
          "blockTimestamp": "0x67d1d876",
          "transactionHash": "0x771c1fd741fcfd787e8e318e10600dd96dfd135686dbb812385b89a65506190a",
          "transactionIndex": "0x8d",
          "logIndex": "0xf1",
          "removed": false
        },
        {
          "address": "0x58389610a3d13e8f380ee2ba077a6f36f2a90834",
          "topics": [
            "0xddf252ad1be2c89b69c2b068fc378daa952ba7f163c4a11628f55a4df523b3ef",
            "0x0000000000000000000000006efb11ac41b6657c32dac5ed4874082c700bba29",
            "0x0000000000000000000000009a5141cf9f68ce4dd9f02ea7722455f3beaa9339"
          ],
          "data": "0x00000000000000000000000000000000000000000000000000000068c6171400",
          "blockHash": "0xebc3c6d20ed92afa3a275dadd0e3b16f50c511ad538a23cb03037b216f3f901a",
          "blockNumber": "0x7223c9",
          "blockTimestamp": "0x67d1d876",
          "transactionHash": "0x771c1fd741fcfd787e8e318e10600dd96dfd135686dbb812385b89a65506190a",
          "transactionIndex": "0x8d",
          "logIndex": "0xf2",
          "removed": false
        },
        {
          "address": "0x7628a394696eabbc615c98e3df5efd34880328b2",
          "topics": [
            "0xd3d640118416a526ad33075973727e1675055b2b31a8351bc74271d75fccef9b"
          ],
          "data": "0x00000000000000000000000000000000000000000000000000000000000000050000000000000000000000006efb11ac41b6657c32dac5ed4874082c700bba290000000000000000000000006efb11ac41b6657c32dac5ed4874082c700bba2900000000000000000000000000000000000000000000000000000000000000000000000000000000000000008e3e87de2503661f3b4879a9743f3fe3d347be52000000000000000000000000e3f98fda6dbd38c1017754f1675dce377381c23c00000000000000000000000058389610a3d13e8f380ee2ba077a6f36f2a90834000000000000000000000000000000000000000000000000000000003b9aca0000000000000000000000000000000000000000000000021e19e0c9bab240000000000000000000000000000000000000000000000000000000000068c6171400",
          "blockHash": "0xebc3c6d20ed92afa3a275dadd0e3b16f50c511ad538a23cb03037b216f3f901a",
          "blockNumber": "0x7223c9",
          "blockTimestamp": "0x67d1d876",
          "transactionHash": "0x771c1fd741fcfd787e8e318e10600dd96dfd135686dbb812385b89a65506190a",
          "transactionIndex": "0x8d",
          "logIndex": "0xf3",
          "removed": false
        }
      ],
      "logsBloom": "0x00000000000000002200000000000000000000000000000000000000040000000000000000000000000000000000000000001000000100000000000000400000000000000000000000000008000000000000000000000400001000000000000000000000000000000000000000000000100000000000000000000010200000000000000000000000000000000000000000000000000000000020000001000000000000000000000000000100000020040000000000000000000001000000000000000002000080000000000000000000000000010000000040000000000000010000001000000000000000000000000000000000000000000000000000000000",
      "type": "0x2",
      "transactionHash": "0x771c1fd741fcfd787e8e318e10600dd96dfd135686dbb812385b89a65506190a",
      "transactionIndex": "0x8d",
      "blockHash": "0xebc3c6d20ed92afa3a275dadd0e3b16f50c511ad538a23cb03037b216f3f901a",
      "blockNumber": "0x7223c9",
      "gasUsed": "0x7b09c",
      "effectiveGasPrice": "0xba43b7401",
      "from": "0x6efb11ac41b6657c32dac5ed4874082c700bba29",
      "to": "0xa1ba9a5d1338c212c22405998268b0f6aa02ab6e",
      "contractAddress": null
    }
  ],
  "libraries": [],
  "pending": [],
  "returns": {},
  "timestamp": 1741805688,
  "chain": 10143,
  "commit": "7537796"
}