{
  "transactions": [
    {
      "hash": "0xb8a2a789d2f42a82e4869868c450b53a66bf71b544ddf14ce4405750eae7534a",
      "transactionType": "CALL",
      "contractName": null,
      "contractAddress": "0x2c53ce7143d24a65410107f50e4aabad9a164480",
      "function": "mint(address,uint256)",
      "arguments": [
        "0x6EFb11aC41B6657c32dAc5Ed4874082C700BbA29",
        "10000000000000000000000"
      ],
      "transaction": {
        "from": "0x6efb11ac41b6657c32dac5ed4874082c700bba29",
        "to": "0x2c53ce7143d24a65410107f50e4aabad9a164480",
        "gas": "0xc1c9",
        "value": "0x0",
        "input": "0x40c10f190000000000000000000000006efb11ac41b6657c32dac5ed4874082c700bba2900000000000000000000000000000000000000000000021e19e0c9bab2400000",
        "nonce": "0x1c2",
        "chainId": "0x279f"
      },
      "additionalContracts": [],
      "isFixedGasLimit": false
    },
    {
      "hash": "0x0a44a090fcee1fc798945c3b6091570593c583f8d10476a6a9780954184ef490",
      "transactionType": "CALL",
      "contractName": null,
      "contractAddress": "0x53f7c389cbb801e2abfd301ded6d2a1cf330ac0d",
      "function": "mint(address,uint256)",
      "arguments": [
        "0x6EFb11aC41B6657c32dAc5Ed4874082C700BbA29",
        "10000000000000000000000"
      ],
      "transaction": {
        "from": "0x6efb11ac41b6657c32dac5ed4874082c700bba29",
        "to": "0x53f7c389cbb801e2abfd301ded6d2a1cf330ac0d",
        "gas": "0xc1c9",
        "value": "0x0",
        "input": "0x40c10f190000000000000000000000006efb11ac41b6657c32dac5ed4874082c700bba2900000000000000000000000000000000000000000000021e19e0c9bab2400000",
        "nonce": "0x1c3",
        "chainId": "0x279f"
      },
      "additionalContracts": [],
      "isFixedGasLimit": false
    },
    {
      "hash": "0x2924b954f355765bca8217e81e86d8d71de9620d2ae5d4f5ac3281932abea8fb",
      "transactionType": "CALL",
      "contractName": null,
      "contractAddress": "0xf9861d7478f8957679b26404bd6272c39f949c29",
      "function": "mint(address,uint256)",
      "arguments": [
        "0x6EFb11aC41B6657c32dAc5Ed4874082C700BbA29",
        "10000000000000000000000000"
      ],
      "transaction": {
        "from": "0x6efb11ac41b6657c32dac5ed4874082c700bba29",
        "to": "0xf9861d7478f8957679b26404bd6272c39f949c29",
        "gas": "0xc1c9",
        "value": "0x0",
        "input": "0x40c10f190000000000000000000000006efb11ac41b6657c32dac5ed4874082c700bba29000000000000000000000000000000000000000000084595161401484a000000",
        "nonce": "0x1c4",
        "chainId": "0x279f"
      },
      "additionalContracts": [],
      "isFixedGasLimit": false
    },
    {
      "hash": "0x49be33d28abc053e275b100c8a6c8794800e3fd9b41a2a6ff186501107d87ae9",
      "transactionType": "CALL",
      "contractName": null,
      "contractAddress": "0x1889cfb8746716a0ac50e59a54f190987c5f04e6",
      "function": "mint(address,uint256)",
      "arguments": [
        "0x6EFb11aC41B6657c32dAc5Ed4874082C700BbA29",
        "100000000000000"
      ],
      "transaction": {
        "from": "0x6efb11ac41b6657c32dac5ed4874082c700bba29",
        "to": "0x1889cfb8746716a0ac50e59a54f190987c5f04e6",
        "gas": "0xb6d2",
        "value": "0x0",
        "input": "0x40c10f190000000000000000000000006efb11ac41b6657c32dac5ed4874082c700bba2900000000000000000000000000000000000000000000000000005af3107a4000",
        "nonce": "0x1c5",
        "chainId": "0x279f"
      },
      "additionalContracts": [],
      "isFixedGasLimit": false
    },
    {
      "hash": "0x0fa698d6a1e087ba4455f2f305889312919d04fa182054d2ebdde45609fa6ffa",
      "transactionType": "CALL",
      "contractName": null,
      "contractAddress": "0x6bc8a42d4b2f4bc8e4c3f9ecff00b7290ffa7405",
      "function": "mint(address,uint256)",
      "arguments": [
        "0x6EFb11aC41B6657c32dAc5Ed4874082C700BbA29",
        "100000000000000000000000"
      ],
      "transaction": {
        "from": "0x6efb11ac41b6657c32dac5ed4874082c700bba29",
        "to": "0x6bc8a42d4b2f4bc8e4c3f9ecff00b7290ffa7405",
        "gas": "0xc1c9",
        "value": "0x0",
        "input": "0x40c10f190000000000000000000000006efb11ac41b6657c32dac5ed4874082c700bba2900000000000000000000000000000000000000000000152d02c7e14af6800000",
        "nonce": "0x1c6",
        "chainId": "0x279f"
      },
      "additionalContracts": [],
      "isFixedGasLimit": false
    },
    {
      "hash": "0x9b9e09d074b188620d1e12c6798d4f43fd665add8bf54fc564fba9b4677d00f6",
      "transactionType": "CALL",
      "contractName": null,
      "contractAddress": "0xe3f98fda6dbd38c1017754f1675dce377381c23c",
      "function": "mint(address,uint256)",
      "arguments": [
        "0x6EFb11aC41B6657c32dAc5Ed4874082C700BbA29",
        "10000000000000000000000"
      ],
      "transaction": {
        "from": "0x6efb11ac41b6657c32dac5ed4874082c700bba29",
        "to": "0xe3f98fda6dbd38c1017754f1675dce377381c23c",
        "gas": "0xc1c9",
        "value": "0x0",
        "input": "0x40c10f190000000000000000000000006efb11ac41b6657c32dac5ed4874082c700bba2900000000000000000000000000000000000000000000021e19e0c9bab2400000",
        "nonce": "0x1c7",
        "chainId": "0x279f"
      },
      "additionalContracts": [],
      "isFixedGasLimit": false
    },
    {
      "hash": "0xa641248e488f64f42b527783d2e2c8313b70bcd5968ce79ce98381e9c201a2d0",
      "transactionType": "CALL",
      "contractName": null,
      "contractAddress": "0x58389610a3d13e8f380ee2ba077a6f36f2a90834",
      "function": "mint(address,uint256)",
      "arguments": [
        "0x6EFb11aC41B6657c32dAc5Ed4874082C700BbA29",
        "1000000000000"
      ],
      "transaction": {
        "from": "0x6efb11ac41b6657c32dac5ed4874082c700bba29",
        "to": "0x58389610a3d13e8f380ee2ba077a6f36f2a90834",
        "gas": "0xc183",
        "value": "0x0",
        "input": "0x40c10f190000000000000000000000006efb11ac41b6657c32dac5ed4874082c700bba29000000000000000000000000000000000000000000000000000000e8d4a51000",
        "nonce": "0x1c8",
        "chainId": "0x279f"
      },
      "additionalContracts": [],
      "isFixedGasLimit": false
    },
    {
      "hash": "0xaf4bd9a093947ac71da0d5d615a32c306199ae044cc725b9f968c82b497d9eb6",
      "transactionType": "CALL",
      "contractName": null,
      "contractAddress": "0x2c53ce7143d24a65410107f50e4aabad9a164480",
      "function": "approve(address,uint256)",
      "arguments": [
        "0x8cB82FfCA2eA57B29aD137b9a8cDCa718233ff96",
        "115792089237316195423570985008687907853269984665640564039457584007913129639935"
      ],
      "transaction": {
        "from": "0x6efb11ac41b6657c32dac5ed4874082c700bba29",
        "to": "0x2c53ce7143d24a65410107f50e4aabad9a164480",
        "gas": "0xf9a4",
        "value": "0x0",
        "input": "0x095ea7b30000000000000000000000008cb82ffca2ea57b29ad137b9a8cdca718233ff96ffffffffffffffffffffffffffffffffffffffffffffffffffffffffffffffff",
        "nonce": "0x1c9",
        "chainId": "0x279f"
      },
      "additionalContracts": [],
      "isFixedGasLimit": false
    },
    {
      "hash": "0xc9dbc35d1fb695cdb749df59bc2676d913e4030cecee838a78807e22837264b9",
      "transactionType": "CALL",
      "contractName": null,
      "contractAddress": "0x53f7c389cbb801e2abfd301ded6d2a1cf330ac0d",
      "function": "approve(address,uint256)",
      "arguments": [
        "0x8cB82FfCA2eA57B29aD137b9a8cDCa718233ff96",
        "115792089237316195423570985008687907853269984665640564039457584007913129639935"
      ],
      "transaction": {
        "from": "0x6efb11ac41b6657c32dac5ed4874082c700bba29",
        "to": "0x53f7c389cbb801e2abfd301ded6d2a1cf330ac0d",
        "gas": "0xf9a4",
        "value": "0x0",
        "input": "0x095ea7b30000000000000000000000008cb82ffca2ea57b29ad137b9a8cdca718233ff96ffffffffffffffffffffffffffffffffffffffffffffffffffffffffffffffff",
        "nonce": "0x1ca",
        "chainId": "0x279f"
      },
      "additionalContracts": [],
      "isFixedGasLimit": false
    },
    {
      "hash": "0x90bc169a847cb0ae1790fae777b710c75cb36ccf5711538a71620f32bfd62499",
      "transactionType": "CALL",
      "contractName": null,
      "contractAddress": "0xf9861d7478f8957679b26404bd6272c39f949c29",
      "function": "approve(address,uint256)",
      "arguments": [
        "0x8cB82FfCA2eA57B29aD137b9a8cDCa718233ff96",
        "115792089237316195423570985008687907853269984665640564039457584007913129639935"
      ],
      "transaction": {
        "from": "0x6efb11ac41b6657c32dac5ed4874082c700bba29",
        "to": "0xf9861d7478f8957679b26404bd6272c39f949c29",
        "gas": "0xf9a4",
        "value": "0x0",
        "input": "0x095ea7b30000000000000000000000008cb82ffca2ea57b29ad137b9a8cdca718233ff96ffffffffffffffffffffffffffffffffffffffffffffffffffffffffffffffff",
        "nonce": "0x1cb",
        "chainId": "0x279f"
      },
      "additionalContracts": [],
      "isFixedGasLimit": false
    },
    {
      "hash": "0x826735cc966b6162b12752d064f0b00140e46edc5955cb0d04ca83836e61cf68",
      "transactionType": "CALL",
      "contractName": null,
      "contractAddress": "0x1889cfb8746716a0ac50e59a54f190987c5f04e6",
      "function": "approve(address,uint256)",
      "arguments": [
        "0x8cB82FfCA2eA57B29aD137b9a8cDCa718233ff96",
        "115792089237316195423570985008687907853269984665640564039457584007913129639935"
      ],
      "transaction": {
        "from": "0x6efb11ac41b6657c32dac5ed4874082c700bba29",
        "to": "0x1889cfb8746716a0ac50e59a54f190987c5f04e6",
        "gas": "0xf9a4",
        "value": "0x0",
        "input": "0x095ea7b30000000000000000000000008cb82ffca2ea57b29ad137b9a8cdca718233ff96ffffffffffffffffffffffffffffffffffffffffffffffffffffffffffffffff",
        "nonce": "0x1cc",
        "chainId": "0x279f"
      },
      "additionalContracts": [],
      "isFixedGasLimit": false
    },
    {
      "hash": "0xaa12856dc1414af43e1facc5d9a60077ad597f20daaa4e30a9ba80ce6ecb511e",
      "transactionType": "CALL",
      "contractName": null,
      "contractAddress": "0x6bc8a42d4b2f4bc8e4c3f9ecff00b7290ffa7405",
      "function": "approve(address,uint256)",
      "arguments": [
        "0x8cB82FfCA2eA57B29aD137b9a8cDCa718233ff96",
        "115792089237316195423570985008687907853269984665640564039457584007913129639935"
      ],
      "transaction": {
        "from": "0x6efb11ac41b6657c32dac5ed4874082c700bba29",
        "to": "0x6bc8a42d4b2f4bc8e4c3f9ecff00b7290ffa7405",
        "gas": "0xf9a4",
        "value": "0x0",
        "input": "0x095ea7b30000000000000000000000008cb82ffca2ea57b29ad137b9a8cdca718233ff96ffffffffffffffffffffffffffffffffffffffffffffffffffffffffffffffff",
        "nonce": "0x1cd",
        "chainId": "0x279f"
      },
      "additionalContracts": [],
      "isFixedGasLimit": false
    },
    {
      "hash": "0x758f99fe2f1dfcf9bbc8d539569ba97128d4e2bed7ecdfa8070b186cb10abdbc",
      "transactionType": "CALL",
      "contractName": null,
      "contractAddress": "0xe3f98fda6dbd38c1017754f1675dce377381c23c",
      "function": "approve(address,uint256)",
      "arguments": [
        "0x8cB82FfCA2eA57B29aD137b9a8cDCa718233ff96",
        "115792089237316195423570985008687907853269984665640564039457584007913129639935"
      ],
      "transaction": {
        "from": "0x6efb11ac41b6657c32dac5ed4874082c700bba29",
        "to": "0xe3f98fda6dbd38c1017754f1675dce377381c23c",
        "gas": "0xf9a4",
        "value": "0x0",
        "input": "0x095ea7b30000000000000000000000008cb82ffca2ea57b29ad137b9a8cdca718233ff96ffffffffffffffffffffffffffffffffffffffffffffffffffffffffffffffff",
        "nonce": "0x1ce",
        "chainId": "0x279f"
      },
      "additionalContracts": [],
      "isFixedGasLimit": false
    },
    {
      "hash": "0xbce427a1d6376fd199fa49cccb5564b17148d480c21ed465daac74c8adc50f86",
      "transactionType": "CALL",
      "contractName": null,
      "contractAddress": "0x58389610a3d13e8f380ee2ba077a6f36f2a90834",
      "function": "approve(address,uint256)",
      "arguments": [
        "0x8cB82FfCA2eA57B29aD137b9a8cDCa718233ff96",
        "115792089237316195423570985008687907853269984665640564039457584007913129639935"
      ],
      "transaction": {
        "from": "0x6efb11ac41b6657c32dac5ed4874082c700bba29",
        "to": "0x58389610a3d13e8f380ee2ba077a6f36f2a90834",
        "gas": "0xf9a4",
        "value": "0x0",
        "input": "0x095ea7b30000000000000000000000008cb82ffca2ea57b29ad137b9a8cdca718233ff96ffffffffffffffffffffffffffffffffffffffffffffffffffffffffffffffff",
        "nonce": "0x1cf",
        "chainId": "0x279f"
      },
      "additionalContracts": [],
      "isFixedGasLimit": false
    },
    {
      "hash": "0x5974e40440dfad2cde16181b06bea5b7736c83f598c3d1c9a1aa70e6b78656e0",
      "transactionType": "CALL",
      "contractName": null,
      "contractAddress": "0x8cb82ffca2ea57b29ad137b9a8cdca718233ff96",
      "function": "multicall(bytes[])",
      "arguments": [
        "[0x7d39aaf1000000000000000000000000823f91041c1cecdc65ee8a7335f471ac1a08caf0000000000000000000000000000000000000000000000000000000003b9aca00, 0xe6d66ac80000000000000000000000002c53ce7143d24a65410107f50e4aabad9a164480000000000000000000000000823f91041c1cecdc65ee8a7335f471ac1a08caf00000000000000000000000000000000000000000000000056bc75e2d63100000, 0xe6d66ac800000000000000000000000058389610a3d13e8f380ee2ba077a6f36f2a90834000000000000000000000000823f91041c1cecdc65ee8a7335f471ac1a08caf00000000000000000000000000000000000000000000000000000008bb2c97000, 0x293953b80000000000000000000000006efb11ac41b6657c32dac5ed4874082c700bba2900000000000000000000000000000000000000000000000000000000000000000000000000000000000000000e87d21bd714d3391e992227e472517a9dc16a240000000000000000000000002c53ce7143d24a65410107f50e4aabad9a16448000000000000000000000000058389610a3d13e8f380ee2ba077a6f36f2a908340000000000000000000000000000000000000000000000000000000000000000000000000000000000000000000000000000000000000000000000003b9aca00]"
      ],
      "transaction": {
        "from": "0x6efb11ac41b6657c32dac5ed4874082c700bba29",
        "to": "0x8cb82ffca2ea57b29ad137b9a8cdca718233ff96",
        "gas": "0x8d1c9",
        "value": "0x0",
        "input": "0xac9650d8000000000000000000000000000000000000000000000000000000000000002000000000000000000000000000000000000000000000000000000000000000040000000000000000000000000000000000000000000000000000000000000080000000000000000000000000000000000000000000000000000000000000010000000000000000000000000000000000000000000000000000000000000001a0000000000000000000000000000000000000000000000000000000000000024000000000000000000000000000000000000000000000000000000000000000447d39aaf1000000000000000000000000823f91041c1cecdc65ee8a7335f471ac1a08caf0000000000000000000000000000000000000000000000000000000003b9aca00000000000000000000000000000000000000000000000000000000000000000000000000000000000000000000000000000000000000000000000064e6d66ac80000000000000000000000002c53ce7143d24a65410107f50e4aabad9a164480000000000000000000000000823f91041c1cecdc65ee8a7335f471ac1a08caf00000000000000000000000000000000000000000000000056bc75e2d63100000000000000000000000000000000000000000000000000000000000000000000000000000000000000000000000000000000000000000000000000064e6d66ac800000000000000000000000058389610a3d13e8f380ee2ba077a6f36f2a90834000000000000000000000000823f91041c1cecdc65ee8a7335f471ac1a08caf00000000000000000000000000000000000000000000000000000008bb2c970000000000000000000000000000000000000000000000000000000000000000000000000000000000000000000000000000000000000000000000000e4293953b80000000000000000000000006efb11ac41b6657c32dac5ed4874082c700bba2900000000000000000000000000000000000000000000000000000000000000000000000000000000000000000e87d21bd714d3391e992227e472517a9dc16a240000000000000000000000002c53ce7143d24a65410107f50e4aabad9a16448000000000000000000000000058389610a3d13e8f380ee2ba077a6f36f2a908340000000000000000000000000000000000000000000000000000000000000000000000000000000000000000000000000000000000000000000000003b9aca0000000000000000000000000000000000000000000000000000000000",
        "nonce": "0x1d0",
        "chainId": "0x279f"
      },
      "additionalContracts": [],
      "isFixedGasLimit": false
    },
    {
      "hash": "0x09e13a8e5ed73a6945cf0320f7cef0d794c1ce6826761307765dc345a1513fd3",
      "transactionType": "CALL",
      "contractName": null,
      "contractAddress": "0x8cb82ffca2ea57b29ad137b9a8cdca718233ff96",
      "function": "multicall(bytes[])",
      "arguments": [
        "[0x7d39aaf1000000000000000000000000823f91041c1cecdc65ee8a7335f471ac1a08caf0000000000000000000000000000000000000000000000000000000003b9aca00, 0xe6d66ac800000000000000000000000053f7c389cbb801e2abfd301ded6d2a1cf330ac0d000000000000000000000000823f91041c1cecdc65ee8a7335f471ac1a08caf0000000000000000000000000000000000000000000000002b5e3af16b1880000, 0xe6d66ac800000000000000000000000058389610a3d13e8f380ee2ba077a6f36f2a90834000000000000000000000000823f91041c1cecdc65ee8a7335f471ac1a08caf0000000000000000000000000000000000000000000000000000005bad5431800, 0x293953b80000000000000000000000006efb11ac41b6657c32dac5ed4874082c700bba290000000000000000000000000000000000000000000000000000000000000000000000000000000000000000ba8a671c225721803cd64b12cb62a2363e9ee87300000000000000000000000053f7c389cbb801e2abfd301ded6d2a1cf330ac0d00000000000000000000000058389610a3d13e8f380ee2ba077a6f36f2a908340000000000000000000000000000000000000000000000000000000000000000000000000000000000000000000000000000000000000000000000003b9aca00]"
      ],
      "transaction": {
        "from": "0x6efb11ac41b6657c32dac5ed4874082c700bba29",
        "to": "0x8cb82ffca2ea57b29ad137b9a8cdca718233ff96",
        "gas": "0x7b0f8",
        "value": "0x0",
        "input": "0xac9650d8000000000000000000000000000000000000000000000000000000000000002000000000000000000000000000000000000000000000000000000000000000040000000000000000000000000000000000000000000000000000000000000080000000000000000000000000000000000000000000000000000000000000010000000000000000000000000000000000000000000000000000000000000001a0000000000000000000000000000000000000000000000000000000000000024000000000000000000000000000000000000000000000000000000000000000447d39aaf1000000000000000000000000823f91041c1cecdc65ee8a7335f471ac1a08caf0000000000000000000000000000000000000000000000000000000003b9aca00000000000000000000000000000000000000000000000000000000000000000000000000000000000000000000000000000000000000000000000064e6d66ac800000000000000000000000053f7c389cbb801e2abfd301ded6d2a1cf330ac0d000000000000000000000000823f91041c1cecdc65ee8a7335f471ac1a08caf0000000000000000000000000000000000000000000000002b5e3af16b1880000000000000000000000000000000000000000000000000000000000000000000000000000000000000000000000000000000000000000000000000064e6d66ac800000000000000000000000058389610a3d13e8f380ee2ba077a6f36f2a90834000000000000000000000000823f91041c1cecdc65ee8a7335f471ac1a08caf0000000000000000000000000000000000000000000000000000005bad54318000000000000000000000000000000000000000000000000000000000000000000000000000000000000000000000000000000000000000000000000e4293953b80000000000000000000000006efb11ac41b6657c32dac5ed4874082c700bba290000000000000000000000000000000000000000000000000000000000000000000000000000000000000000ba8a671c225721803cd64b12cb62a2363e9ee87300000000000000000000000053f7c389cbb801e2abfd301ded6d2a1cf330ac0d00000000000000000000000058389610a3d13e8f380ee2ba077a6f36f2a908340000000000000000000000000000000000000000000000000000000000000000000000000000000000000000000000000000000000000000000000003b9aca0000000000000000000000000000000000000000000000000000000000",
        "nonce": "0x1d1",
        "chainId": "0x279f"
      },
      "additionalContracts": [],
      "isFixedGasLimit": false
    },
    {
      "hash": "0x687d611c5f908ba46c48093c3a62444ba89fd3dc11f8d05f709ba2131182efbf",
      "transactionType": "CALL",
      "contractName": null,
      "contractAddress": "0x8cb82ffca2ea57b29ad137b9a8cdca718233ff96",
      "function": "multicall(bytes[])",
      "arguments": [
        "[0x7d39aaf1000000000000000000000000823f91041c1cecdc65ee8a7335f471ac1a08caf0000000000000000000000000000000000000000000000000000000003b9aca00, 0xe6d66ac8000000000000000000000000f9861d7478f8957679b26404bd6272c39f949c29000000000000000000000000823f91041c1cecdc65ee8a7335f471ac1a08caf0000000000000000000000000000000000000000000295be96e64066972000000, 0xe6d66ac800000000000000000000000058389610a3d13e8f380ee2ba077a6f36f2a90834000000000000000000000000823f91041c1cecdc65ee8a7335f471ac1a08caf0000000000000000000000000000000000000000000000000000000037e11d600, 0x293953b80000000000000000000000006efb11ac41b6657c32dac5ed4874082c700bba29000000000000000000000000000000000000000000000000000000000000000000000000000000000000000061cbb1a8fb2f8710fe95c6c3ef039b5828cb000b000000000000000000000000f9861d7478f8957679b26404bd6272c39f949c2900000000000000000000000058389610a3d13e8f380ee2ba077a6f36f2a908340000000000000000000000000000000000000000000000000000000000000000000000000000000000000000000000000000000000000000000000003b9aca00]"
      ],
      "transaction": {
        "from": "0x6efb11ac41b6657c32dac5ed4874082c700bba29",
        "to": "0x8cb82ffca2ea57b29ad137b9a8cdca718233ff96",
        "gas": "0x7b0e7",
        "value": "0x0",
        "input": "0xac9650d8000000000000000000000000000000000000000000000000000000000000002000000000000000000000000000000000000000000000000000000000000000040000000000000000000000000000000000000000000000000000000000000080000000000000000000000000000000000000000000000000000000000000010000000000000000000000000000000000000000000000000000000000000001a0000000000000000000000000000000000000000000000000000000000000024000000000000000000000000000000000000000000000000000000000000000447d39aaf1000000000000000000000000823f91041c1cecdc65ee8a7335f471ac1a08caf0000000000000000000000000000000000000000000000000000000003b9aca00000000000000000000000000000000000000000000000000000000000000000000000000000000000000000000000000000000000000000000000064e6d66ac8000000000000000000000000f9861d7478f8957679b26404bd6272c39f949c29000000000000000000000000823f91041c1cecdc65ee8a7335f471ac1a08caf0000000000000000000000000000000000000000000295be96e64066972000000000000000000000000000000000000000000000000000000000000000000000000000000000000000000000000000000000000000000000000000064e6d66ac800000000000000000000000058389610a3d13e8f380ee2ba077a6f36f2a90834000000000000000000000000823f91041c1cecdc65ee8a7335f471ac1a08caf0000000000000000000000000000000000000000000000000000000037e11d6000000000000000000000000000000000000000000000000000000000000000000000000000000000000000000000000000000000000000000000000e4293953b80000000000000000000000006efb11ac41b6657c32dac5ed4874082c700bba29000000000000000000000000000000000000000000000000000000000000000000000000000000000000000061cbb1a8fb2f8710fe95c6c3ef039b5828cb000b000000000000000000000000f9861d7478f8957679b26404bd6272c39f949c2900000000000000000000000058389610a3d13e8f380ee2ba077a6f36f2a908340000000000000000000000000000000000000000000000000000000000000000000000000000000000000000000000000000000000000000000000003b9aca0000000000000000000000000000000000000000000000000000000000",
        "nonce": "0x1d2",
        "chainId": "0x279f"
      },
      "additionalContracts": [],
      "isFixedGasLimit": false
    },
    {
      "hash": "0x3b311e79e13bfa4754b15182634e6198465580e326b3e54b8e5c83a0d399e731",
      "transactionType": "CALL",
      "contractName": null,
      "contractAddress": "0x8cb82ffca2ea57b29ad137b9a8cdca718233ff96",
      "function": "multicall(bytes[])",
      "arguments": [
        "[0x7d39aaf1000000000000000000000000823f91041c1cecdc65ee8a7335f471ac1a08caf0000000000000000000000000000000000000000000000000000000003b9aca00, 0xe6d66ac80000000000000000000000001889cfb8746716a0ac50e59a54f190987c5f04e6000000000000000000000000823f91041c1cecdc65ee8a7335f471ac1a08caf000000000000000000000000000000000000000000000000000005af3107a4000, 0xe6d66ac800000000000000000000000058389610a3d13e8f380ee2ba077a6f36f2a90834000000000000000000000000823f91041c1cecdc65ee8a7335f471ac1a08caf000000000000000000000000000000000000000000000000000000045d964b800, 0x293953b80000000000000000000000006efb11ac41b6657c32dac5ed4874082c700bba290000000000000000000000000000000000000000000000000000000000000000000000000000000000000000007b2f0fb291307452065b4a620c29d56d8875dc0000000000000000000000001889cfb8746716a0ac50e59a54f190987c5f04e600000000000000000000000058389610a3d13e8f380ee2ba077a6f36f2a908340000000000000000000000000000000000000000000000000000000000000000000000000000000000000000000000000000000000000000000000003b9aca00]"
      ],
      "transaction": {
        "from": "0x6efb11ac41b6657c32dac5ed4874082c700bba29",
        "to": "0x8cb82ffca2ea57b29ad137b9a8cdca718233ff96",
        "gas": "0x7b0b6",
        "value": "0x0",
        "input": "0xac9650d8000000000000000000000000000000000000000000000000000000000000002000000000000000000000000000000000000000000000000000000000000000040000000000000000000000000000000000000000000000000000000000000080000000000000000000000000000000000000000000000000000000000000010000000000000000000000000000000000000000000000000000000000000001a0000000000000000000000000000000000000000000000000000000000000024000000000000000000000000000000000000000000000000000000000000000447d39aaf1000000000000000000000000823f91041c1cecdc65ee8a7335f471ac1a08caf0000000000000000000000000000000000000000000000000000000003b9aca00000000000000000000000000000000000000000000000000000000000000000000000000000000000000000000000000000000000000000000000064e6d66ac80000000000000000000000001889cfb8746716a0ac50e59a54f190987c5f04e6000000000000000000000000823f91041c1cecdc65ee8a7335f471ac1a08caf000000000000000000000000000000000000000000000000000005af3107a4000000000000000000000000000000000000000000000000000000000000000000000000000000000000000000000000000000000000000000000000064e6d66ac800000000000000000000000058389610a3d13e8f380ee2ba077a6f36f2a90834000000000000000000000000823f91041c1cecdc65ee8a7335f471ac1a08caf000000000000000000000000000000000000000000000000000000045d964b8000000000000000000000000000000000000000000000000000000000000000000000000000000000000000000000000000000000000000000000000e4293953b80000000000000000000000006efb11ac41b6657c32dac5ed4874082c700bba290000000000000000000000000000000000000000000000000000000000000000000000000000000000000000007b2f0fb291307452065b4a620c29d56d8875dc0000000000000000000000001889cfb8746716a0ac50e59a54f190987c5f04e600000000000000000000000058389610a3d13e8f380ee2ba077a6f36f2a908340000000000000000000000000000000000000000000000000000000000000000000000000000000000000000000000000000000000000000000000003b9aca0000000000000000000000000000000000000000000000000000000000",
        "nonce": "0x1d3",
        "chainId": "0x279f"
      },
      "additionalContracts": [],
      "isFixedGasLimit": false
    },
    {
      "hash": "0x66bdbc0e4108c73c8c7b9f1e1fbde354ce70290f9b1deca4d581c401973cd3a2",
      "transactionType": "CALL",
      "contractName": null,
      "contractAddress": "0x8cb82ffca2ea57b29ad137b9a8cdca718233ff96",
      "function": "multicall(bytes[])",
      "arguments": [
        "[0x7d39aaf1000000000000000000000000823f91041c1cecdc65ee8a7335f471ac1a08caf0000000000000000000000000000000000000000000000000000000003b9aca00, 0xe6d66ac80000000000000000000000006bc8a42d4b2f4bc8e4c3f9ecff00b7290ffa7405000000000000000000000000823f91041c1cecdc65ee8a7335f471ac1a08caf00000000000000000000000000000000000000000000069e10de76676d0800000, 0xe6d66ac800000000000000000000000058389610a3d13e8f380ee2ba077a6f36f2a90834000000000000000000000000823f91041c1cecdc65ee8a7335f471ac1a08caf00000000000000000000000000000000000000000000000000000001176592e00, 0x293953b80000000000000000000000006efb11ac41b6657c32dac5ed4874082c700bba2900000000000000000000000000000000000000000000000000000000000000000000000000000000000000008fc3599e5d86df2e5ab4b9e20975da2ff17eb4b60000000000000000000000006bc8a42d4b2f4bc8e4c3f9ecff00b7290ffa740500000000000000000000000058389610a3d13e8f380ee2ba077a6f36f2a908340000000000000000000000000000000000000000000000000000000000000000000000000000000000000000000000000000000000000000000000003b9aca00]"
      ],
      "transaction": {
        "from": "0x6efb11ac41b6657c32dac5ed4874082c700bba29",
        "to": "0x8cb82ffca2ea57b29ad137b9a8cdca718233ff96",
        "gas": "0x7b0d7",
        "value": "0x0",
        "input": "0xac9650d8000000000000000000000000000000000000000000000000000000000000002000000000000000000000000000000000000000000000000000000000000000040000000000000000000000000000000000000000000000000000000000000080000000000000000000000000000000000000000000000000000000000000010000000000000000000000000000000000000000000000000000000000000001a0000000000000000000000000000000000000000000000000000000000000024000000000000000000000000000000000000000000000000000000000000000447d39aaf1000000000000000000000000823f91041c1cecdc65ee8a7335f471ac1a08caf0000000000000000000000000000000000000000000000000000000003b9aca00000000000000000000000000000000000000000000000000000000000000000000000000000000000000000000000000000000000000000000000064e6d66ac80000000000000000000000006bc8a42d4b2f4bc8e4c3f9ecff00b7290ffa7405000000000000000000000000823f91041c1cecdc65ee8a7335f471ac1a08caf00000000000000000000000000000000000000000000069e10de76676d0800000000000000000000000000000000000000000000000000000000000000000000000000000000000000000000000000000000000000000000000000064e6d66ac800000000000000000000000058389610a3d13e8f380ee2ba077a6f36f2a90834000000000000000000000000823f91041c1cecdc65ee8a7335f471ac1a08caf00000000000000000000000000000000000000000000000000000001176592e000000000000000000000000000000000000000000000000000000000000000000000000000000000000000000000000000000000000000000000000e4293953b80000000000000000000000006efb11ac41b6657c32dac5ed4874082c700bba2900000000000000000000000000000000000000000000000000000000000000000000000000000000000000008fc3599e5d86df2e5ab4b9e20975da2ff17eb4b60000000000000000000000006bc8a42d4b2f4bc8e4c3f9ecff00b7290ffa740500000000000000000000000058389610a3d13e8f380ee2ba077a6f36f2a908340000000000000000000000000000000000000000000000000000000000000000000000000000000000000000000000000000000000000000000000003b9aca0000000000000000000000000000000000000000000000000000000000",
        "nonce": "0x1d4",
        "chainId": "0x279f"
      },
      "additionalContracts": [],
      "isFixedGasLimit": false
    },
    {
      "hash": "0x482622701ad86b520238718d3df55f6d81b7262ad635d2f76bbf4e6433a76ca7",
      "transactionType": "CALL",
      "contractName": null,
      "contractAddress": "0x8cb82ffca2ea57b29ad137b9a8cdca718233ff96",
      "function": "multicall(bytes[])",
      "arguments": [
        "[0x7d39aaf1000000000000000000000000823f91041c1cecdc65ee8a7335f471ac1a08caf0000000000000000000000000000000000000000000000000000000003b9aca00, 0xe6d66ac8000000000000000000000000e3f98fda6dbd38c1017754f1675dce377381c23c000000000000000000000000823f91041c1cecdc65ee8a7335f471ac1a08caf000000000000000000000000000000000000000000000021e19e0c9bab2400000, 0xe6d66ac800000000000000000000000058389610a3d13e8f380ee2ba077a6f36f2a90834000000000000000000000000823f91041c1cecdc65ee8a7335f471ac1a08caf000000000000000000000000000000000000000000000000000000068c6171400, 0x293953b80000000000000000000000006efb11ac41b6657c32dac5ed4874082c700bba290000000000000000000000000000000000000000000000000000000000000000000000000000000000000000c9363063c1c5ea9392cc21bc44afd644632e618a000000000000000000000000e3f98fda6dbd38c1017754f1675dce377381c23c00000000000000000000000058389610a3d13e8f380ee2ba077a6f36f2a908340000000000000000000000000000000000000000000000000000000000000000000000000000000000000000000000000000000000000000000000003b9aca00]"
      ],
      "transaction": {
        "from": "0x6efb11ac41b6657c32dac5ed4874082c700bba29",
        "to": "0x8cb82ffca2ea57b29ad137b9a8cdca718233ff96",
        "gas": "0x7b0f8",
        "value": "0x0",
        "input": "0xac9650d8000000000000000000000000000000000000000000000000000000000000002000000000000000000000000000000000000000000000000000000000000000040000000000000000000000000000000000000000000000000000000000000080000000000000000000000000000000000000000000000000000000000000010000000000000000000000000000000000000000000000000000000000000001a0000000000000000000000000000000000000000000000000000000000000024000000000000000000000000000000000000000000000000000000000000000447d39aaf1000000000000000000000000823f91041c1cecdc65ee8a7335f471ac1a08caf0000000000000000000000000000000000000000000000000000000003b9aca00000000000000000000000000000000000000000000000000000000000000000000000000000000000000000000000000000000000000000000000064e6d66ac8000000000000000000000000e3f98fda6dbd38c1017754f1675dce377381c23c000000000000000000000000823f91041c1cecdc65ee8a7335f471ac1a08caf000000000000000000000000000000000000000000000021e19e0c9bab2400000000000000000000000000000000000000000000000000000000000000000000000000000000000000000000000000000000000000000000000000064e6d66ac800000000000000000000000058389610a3d13e8f380ee2ba077a6f36f2a90834000000000000000000000000823f91041c1cecdc65ee8a7335f471ac1a08caf000000000000000000000000000000000000000000000000000000068c61714000000000000000000000000000000000000000000000000000000000000000000000000000000000000000000000000000000000000000000000000e4293953b80000000000000000000000006efb11ac41b6657c32dac5ed4874082c700bba290000000000000000000000000000000000000000000000000000000000000000000000000000000000000000c9363063c1c5ea9392cc21bc44afd644632e618a000000000000000000000000e3f98fda6dbd38c1017754f1675dce377381c23c00000000000000000000000058389610a3d13e8f380ee2ba077a6f36f2a908340000000000000000000000000000000000000000000000000000000000000000000000000000000000000000000000000000000000000000000000003b9aca0000000000000000000000000000000000000000000000000000000000",
        "nonce": "0x1d5",
        "chainId": "0x279f"
      },
      "additionalContracts": [],
      "isFixedGasLimit": false
    }
  ],
  "receipts": [
    {
      "status": "0x1",
      "cumulativeGasUsed": "0x11f5f14",
      "logs": [
        {
          "address": "0x2c53ce7143d24a65410107f50e4aabad9a164480",
          "topics": [
            "0xddf252ad1be2c89b69c2b068fc378daa952ba7f163c4a11628f55a4df523b3ef",
            "0x0000000000000000000000000000000000000000000000000000000000000000",
            "0x0000000000000000000000006efb11ac41b6657c32dac5ed4874082c700bba29"
          ],
          "data": "0x00000000000000000000000000000000000000000000021e19e0c9bab2400000",
          "blockHash": "0xdc00696eccfcbc4f9f3fab04ea73efe7a7501b915e039b8872f435abe57f9a2f",
          "blockNumber": "0x7442e5",
          "blockTimestamp": "0x67d329e1",
          "transactionHash": "0xb8a2a789d2f42a82e4869868c450b53a66bf71b544ddf14ce4405750eae7534a",
          "transactionIndex": "0x61",
          "logIndex": "0xa8",
          "removed": false
        }
      ],
      "logsBloom": "0x00000000000000000200000000000000000000000000000000000000000000000000000000000000000000000000000000001000000100000000000000000000000000000000000000000008000000000000000000000000000000000000000000000000020000000000000000000800000000000000000000000010000000000000000000000000000000000000000000000000000000000000000000000000000000000000000000000000000000000000000000000000000001000000000000000002000000000000000000000000000000010000000000000000000020000000001000000000000000000000000000000000000000000000000000000000",
      "type": "0x0",
      "transactionHash": "0xb8a2a789d2f42a82e4869868c450b53a66bf71b544ddf14ce4405750eae7534a",
      "transactionIndex": "0x61",
      "blockHash": "0xdc00696eccfcbc4f9f3fab04ea73efe7a7501b915e039b8872f435abe57f9a2f",
      "blockNumber": "0x7442e5",
      "gasUsed": "0xc1c9",
      "effectiveGasPrice": "0xc1b710800",
      "from": "0x6efb11ac41b6657c32dac5ed4874082c700bba29",
      "to": "0x2c53ce7143d24a65410107f50e4aabad9a164480",
      "contractAddress": null
    },
    {
      "status": "0x1",
      "cumulativeGasUsed": "0x12020dd",
      "logs": [
        {
          "address": "0x53f7c389cbb801e2abfd301ded6d2a1cf330ac0d",
          "topics": [
            "0xddf252ad1be2c89b69c2b068fc378daa952ba7f163c4a11628f55a4df523b3ef",
            "0x0000000000000000000000000000000000000000000000000000000000000000",
            "0x0000000000000000000000006efb11ac41b6657c32dac5ed4874082c700bba29"
          ],
          "data": "0x00000000000000000000000000000000000000000000021e19e0c9bab2400000",
          "blockHash": "0xdc00696eccfcbc4f9f3fab04ea73efe7a7501b915e039b8872f435abe57f9a2f",
          "blockNumber": "0x7442e5",
          "blockTimestamp": "0x67d329e1",
          "transactionHash": "0x0a44a090fcee1fc798945c3b6091570593c583f8d10476a6a9780954184ef490",
          "transactionIndex": "0x62",
          "logIndex": "0xa9",
          "removed": false
        }
      ],
      "logsBloom": "0x00000000000000000200000002000000000000000000000000000000000000000000000000000000000000000000000000000000000100000000000000000000000000000000000000000008000000000000000000000000000000000000000000000000020000000000000000000800000000000000000000000010000000000000000000000000000000000000000000000000000000000000000000000000000000000010000000000000000000000000000000000000000001000000000000000002000000000000000000000000000000000000000000000000000020000000000000000000000000000000000000000000000000000008000000000000",
      "type": "0x0",
      "transactionHash": "0x0a44a090fcee1fc798945c3b6091570593c583f8d10476a6a9780954184ef490",
      "transactionIndex": "0x62",
      "blockHash": "0xdc00696eccfcbc4f9f3fab04ea73efe7a7501b915e039b8872f435abe57f9a2f",
      "blockNumber": "0x7442e5",
      "gasUsed": "0xc1c9",
      "effectiveGasPrice": "0xc1b710800",
      "from": "0x6efb11ac41b6657c32dac5ed4874082c700bba29",
      "to": "0x53f7c389cbb801e2abfd301ded6d2a1cf330ac0d",
      "contractAddress": null
    },
    {
      "status": "0x1",
      "cumulativeGasUsed": "0x120e2a6",
      "logs": [
        {
          "address": "0xf9861d7478f8957679b26404bd6272c39f949c29",
          "topics": [
            "0xddf252ad1be2c89b69c2b068fc378daa952ba7f163c4a11628f55a4df523b3ef",
            "0x0000000000000000000000000000000000000000000000000000000000000000",
            "0x0000000000000000000000006efb11ac41b6657c32dac5ed4874082c700bba29"
          ],
          "data": "0x000000000000000000000000000000000000000000084595161401484a000000",
          "blockHash": "0xdc00696eccfcbc4f9f3fab04ea73efe7a7501b915e039b8872f435abe57f9a2f",
          "blockNumber": "0x7442e5",
          "blockTimestamp": "0x67d329e1",
          "transactionHash": "0x2924b954f355765bca8217e81e86d8d71de9620d2ae5d4f5ac3281932abea8fb",
          "transactionIndex": "0x63",
          "logIndex": "0xaa",
          "removed": false
        }
      ],
      "logsBloom": "0x00000000000000000200000000000000000000000000000000000000000000000000000000000000000000000000000000000000000100000000000000000000000000000000000000000008000000000000000000000000000000000000000000000000060000000000000000000800000000000000000000000010000000000000000000000000000000000000000000000000000000000000000000000000000000000000000000040000000000000000000000000000000001000000000000000002080000000000000000000000000000000000000000000000000020000000000000000000000000000000000000000000000000000000000000000000",
      "type": "0x0",
      "transactionHash": "0x2924b954f355765bca8217e81e86d8d71de9620d2ae5d4f5ac3281932abea8fb",
      "transactionIndex": "0x63",
      "blockHash": "0xdc00696eccfcbc4f9f3fab04ea73efe7a7501b915e039b8872f435abe57f9a2f",
      "blockNumber": "0x7442e5",
      "gasUsed": "0xc1c9",
      "effectiveGasPrice": "0xc1b710800",
      "from": "0x6efb11ac41b6657c32dac5ed4874082c700bba29",
      "to": "0xf9861d7478f8957679b26404bd6272c39f949c29",
      "contractAddress": null
    },
    {
      "status": "0x1",
      "cumulativeGasUsed": "0x122515f",
      "logs": [
        {
          "address": "0x1889cfb8746716a0ac50e59a54f190987c5f04e6",
          "topics": [
            "0xddf252ad1be2c89b69c2b068fc378daa952ba7f163c4a11628f55a4df523b3ef",
            "0x0000000000000000000000000000000000000000000000000000000000000000",
            "0x0000000000000000000000006efb11ac41b6657c32dac5ed4874082c700bba29"
          ],
          "data": "0x00000000000000000000000000000000000000000000000000005af3107a4000",
          "blockHash": "0xdc00696eccfcbc4f9f3fab04ea73efe7a7501b915e039b8872f435abe57f9a2f",
          "blockNumber": "0x7442e5",
          "blockTimestamp": "0x67d329e1",
          "transactionHash": "0x49be33d28abc053e275b100c8a6c8794800e3fd9b41a2a6ff186501107d87ae9",
          "transactionIndex": "0x65",
          "logIndex": "0xac",
          "removed": false
        }
      ],
      "logsBloom": "0x00000000000000000200000000000000000000000000000000000000000000000000000000000000000000000000000000000000000100000000000000000000000000000000000000000008000000000000000000000000000400000000000000000000020000000000000000000800000000000000000000000010000000000000000000000000000000000000000000000000000000000000000000000000000000000000100000000000000000000000000000000000000001000000000000000002000000000000000000000000000000000000000000000000000020000000000080000000000000000000000000000000000000000000000000000000",
      "type": "0x0",
      "transactionHash": "0x49be33d28abc053e275b100c8a6c8794800e3fd9b41a2a6ff186501107d87ae9",
      "transactionIndex": "0x65",
      "blockHash": "0xdc00696eccfcbc4f9f3fab04ea73efe7a7501b915e039b8872f435abe57f9a2f",
      "blockNumber": "0x7442e5",
      "gasUsed": "0xb6d2",
      "effectiveGasPrice": "0xc1b710800",
      "from": "0x6efb11ac41b6657c32dac5ed4874082c700bba29",
      "to": "0x1889cfb8746716a0ac50e59a54f190987c5f04e6",
      "contractAddress": null
    },
    {
      "status": "0x1",
      "cumulativeGasUsed": "0x1231328",
      "logs": [
        {
          "address": "0x6bc8a42d4b2f4bc8e4c3f9ecff00b7290ffa7405",
          "topics": [
            "0xddf252ad1be2c89b69c2b068fc378daa952ba7f163c4a11628f55a4df523b3ef",
            "0x0000000000000000000000000000000000000000000000000000000000000000",
            "0x0000000000000000000000006efb11ac41b6657c32dac5ed4874082c700bba29"
          ],
          "data": "0x00000000000000000000000000000000000000000000152d02c7e14af6800000",
          "blockHash": "0xdc00696eccfcbc4f9f3fab04ea73efe7a7501b915e039b8872f435abe57f9a2f",
          "blockNumber": "0x7442e5",
          "blockTimestamp": "0x67d329e1",
          "transactionHash": "0x0fa698d6a1e087ba4455f2f305889312919d04fa182054d2ebdde45609fa6ffa",
          "transactionIndex": "0x66",
          "logIndex": "0xad",
          "removed": false
        }
      ],
      "logsBloom": "0x00000000000000000200000000000000000000000000000000000000000000000000000000000000000000000000000000002000000100000400000000000000000000000000000000000008000000000000000000000000000000000000000000000000020000000000000000000800000000000000000000000010000000000000000000000000000000000000000000000000000000000000000000000000000000000200000000000000000000000000000000000000000001000000000000000002000000000000000000000000000000000000000000000000000020000000000000000000000000000000000000000000000000000000000000000000",
      "type": "0x0",
      "transactionHash": "0x0fa698d6a1e087ba4455f2f305889312919d04fa182054d2ebdde45609fa6ffa",
      "transactionIndex": "0x66",
      "blockHash": "0xdc00696eccfcbc4f9f3fab04ea73efe7a7501b915e039b8872f435abe57f9a2f",
      "blockNumber": "0x7442e5",
      "gasUsed": "0xc1c9",
      "effectiveGasPrice": "0xc1b710800",
      "from": "0x6efb11ac41b6657c32dac5ed4874082c700bba29",
      "to": "0x6bc8a42d4b2f4bc8e4c3f9ecff00b7290ffa7405",
      "contractAddress": null
    },
    {
      "status": "0x1",
      "cumulativeGasUsed": "0x123d4f1",
      "logs": [
        {
          "address": "0xe3f98fda6dbd38c1017754f1675dce377381c23c",
          "topics": [
            "0xddf252ad1be2c89b69c2b068fc378daa952ba7f163c4a11628f55a4df523b3ef",
            "0x0000000000000000000000000000000000000000000000000000000000000000",
            "0x0000000000000000000000006efb11ac41b6657c32dac5ed4874082c700bba29"
          ],
          "data": "0x00000000000000000000000000000000000000000000021e19e0c9bab2400000",
          "blockHash": "0xdc00696eccfcbc4f9f3fab04ea73efe7a7501b915e039b8872f435abe57f9a2f",
          "blockNumber": "0x7442e5",
          "blockTimestamp": "0x67d329e1",
          "transactionHash": "0x9b9e09d074b188620d1e12c6798d4f43fd665add8bf54fc564fba9b4677d00f6",
          "transactionIndex": "0x67",
          "logIndex": "0xae",
          "removed": false
        }
      ],
      "logsBloom": "0x00000000000000002200000000000000000000000000000000000000000000000000000000000000000000000000000000000000000100000000000000000000000000000000000000000008000000000000000000000000000000000000000000000000020000000000000000000800000000000000000000000010000000000000000000000000000000000000000000000000000000000020000000000000000000000000000000000000000020000000000000000000000001000000000000000002000000000000000000000000000000000000000000000000000020000000000000000000000000000000000000000000000000000000000000000000",
      "type": "0x0",
      "transactionHash": "0x9b9e09d074b188620d1e12c6798d4f43fd665add8bf54fc564fba9b4677d00f6",
      "transactionIndex": "0x67",
      "blockHash": "0xdc00696eccfcbc4f9f3fab04ea73efe7a7501b915e039b8872f435abe57f9a2f",
      "blockNumber": "0x7442e5",
      "gasUsed": "0xc1c9",
      "effectiveGasPrice": "0xc1b710800",
      "from": "0x6efb11ac41b6657c32dac5ed4874082c700bba29",
      "to": "0xe3f98fda6dbd38c1017754f1675dce377381c23c",
      "contractAddress": null
    },
    {
      "status": "0x1",
      "cumulativeGasUsed": "0x1249674",
      "logs": [
        {
          "address": "0x58389610a3d13e8f380ee2ba077a6f36f2a90834",
          "topics": [
            "0xddf252ad1be2c89b69c2b068fc378daa952ba7f163c4a11628f55a4df523b3ef",
            "0x0000000000000000000000000000000000000000000000000000000000000000",
            "0x0000000000000000000000006efb11ac41b6657c32dac5ed4874082c700bba29"
          ],
          "data": "0x000000000000000000000000000000000000000000000000000000e8d4a51000",
          "blockHash": "0xdc00696eccfcbc4f9f3fab04ea73efe7a7501b915e039b8872f435abe57f9a2f",
          "blockNumber": "0x7442e5",
          "blockTimestamp": "0x67d329e1",
          "transactionHash": "0xa641248e488f64f42b527783d2e2c8313b70bcd5968ce79ce98381e9c201a2d0",
          "transactionIndex": "0x68",
          "logIndex": "0xaf",
          "removed": false
        }
      ],
      "logsBloom": "0x00000000000000000200000000000000000000000000000000000000000000000000000000000000000000000000000000000000000100000000000000000000000000000000000000000008000000000000000000000400001000000000000000000000020000000000000000000800000000000000000000000010000000000000000000000000000000000000000000000000000000000000000000000000000000000000000000000000000000040000000000000000000001000000000000000002000000000000000000000000000000000000000000000000000020000000000000000000000000000000000000000000000000000000000000000000",
      "type": "0x0",
      "transactionHash": "0xa641248e488f64f42b527783d2e2c8313b70bcd5968ce79ce98381e9c201a2d0",
      "transactionIndex": "0x68",
      "blockHash": "0xdc00696eccfcbc4f9f3fab04ea73efe7a7501b915e039b8872f435abe57f9a2f",
      "blockNumber": "0x7442e5",
      "gasUsed": "0xc183",
      "effectiveGasPrice": "0xc1b710800",
      "from": "0x6efb11ac41b6657c32dac5ed4874082c700bba29",
      "to": "0x58389610a3d13e8f380ee2ba077a6f36f2a90834",
      "contractAddress": null
    },
    {
      "status": "0x1",
      "cumulativeGasUsed": "0x103a446",
      "logs": [
        {
          "address": "0x2c53ce7143d24a65410107f50e4aabad9a164480",
          "topics": [
            "0x8c5be1e5ebec7d5bd14f71427d1e84f3dd0314c0f7b2291e5b200ac8c7c3b925",
            "0x0000000000000000000000006efb11ac41b6657c32dac5ed4874082c700bba29",
            "0x0000000000000000000000008cb82ffca2ea57b29ad137b9a8cdca718233ff96"
          ],
          "data": "0xffffffffffffffffffffffffffffffffffffffffffffffffffffffffffffffff",
          "blockHash": "0x8b544f068b2e7f607382fca36e361566691d192a6c751998e2c5068427228a9e",
          "blockNumber": "0x7442eb",
          "blockTimestamp": "0x67d329e7",
          "transactionHash": "0xaf4bd9a093947ac71da0d5d615a32c306199ae044cc725b9f968c82b497d9eb6",
          "transactionIndex": "0x59",
          "logIndex": "0xb0",
          "removed": false
        }
      ],
      "logsBloom": "0x00000000000000000200000000000000000000000000000000000000000000000000000000000000000000000000000000001000000100000000000000200000000000000100000000000000000000000000000000000000000000000000000002000000000000000000000000000000000000000000000000000000000000000000000000000000000000000000000000000000000000000000000000000400020000000000000000000000000000000000000000000000000001000000000000000000000000000000000000000000000000010000000000000000000000000010001000000000000000000000000000000000000000000000000000000000",
      "type": "0x0",
      "transactionHash": "0xaf4bd9a093947ac71da0d5d615a32c306199ae044cc725b9f968c82b497d9eb6",
      "transactionIndex": "0x59",
      "blockHash": "0x8b544f068b2e7f607382fca36e361566691d192a6c751998e2c5068427228a9e",
      "blockNumber": "0x7442eb",
      "gasUsed": "0xf9a4",
      "effectiveGasPrice": "0xc1b710800",
      "from": "0x6efb11ac41b6657c32dac5ed4874082c700bba29",
      "to": "0x2c53ce7143d24a65410107f50e4aabad9a164480",
      "contractAddress": null
    },
    {
      "status": "0x1",
      "cumulativeGasUsed": "0x1049dea",
      "logs": [
        {
          "address": "0x53f7c389cbb801e2abfd301ded6d2a1cf330ac0d",
          "topics": [
            "0x8c5be1e5ebec7d5bd14f71427d1e84f3dd0314c0f7b2291e5b200ac8c7c3b925",
            "0x0000000000000000000000006efb11ac41b6657c32dac5ed4874082c700bba29",
            "0x0000000000000000000000008cb82ffca2ea57b29ad137b9a8cdca718233ff96"
          ],
          "data": "0xffffffffffffffffffffffffffffffffffffffffffffffffffffffffffffffff",
          "blockHash": "0x8b544f068b2e7f607382fca36e361566691d192a6c751998e2c5068427228a9e",
          "blockNumber": "0x7442eb",
          "blockTimestamp": "0x67d329e7",
          "transactionHash": "0xc9dbc35d1fb695cdb749df59bc2676d913e4030cecee838a78807e22837264b9",
          "transactionIndex": "0x5a",
          "logIndex": "0xb1",
          "removed": false
        }
      ],
      "logsBloom": "0x00000000000000000200000002000000000000000000000000000000000000000000000000000000000000000000000000000000000100000000000000200000000000000100000000000000000000000000000000000000000000000000000002000000000000000000000000000000000000000000000000000000000000000000000000000000000000000000000000000000000000000000000000000400020000000010000000000000000000000000000000000000000001000000000000000000000000000000000000000000000000000000000000000000000000000010000000000000000000000000000000000000000000000008000000000000",
      "type": "0x0",
      "transactionHash": "0xc9dbc35d1fb695cdb749df59bc2676d913e4030cecee838a78807e22837264b9",
      "transactionIndex": "0x5a",
      "blockHash": "0x8b544f068b2e7f607382fca36e361566691d192a6c751998e2c5068427228a9e",
      "blockNumber": "0x7442eb",
      "gasUsed": "0xf9a4",
      "effectiveGasPrice": "0xc1b710800",
      "from": "0x6efb11ac41b6657c32dac5ed4874082c700bba29",
      "to": "0x53f7c389cbb801e2abfd301ded6d2a1cf330ac0d",
      "contractAddress": null
    },
    {
      "status": "0x1",
      "cumulativeGasUsed": "0x105978e",
      "logs": [
        {
          "address": "0xf9861d7478f8957679b26404bd6272c39f949c29",
          "topics": [
            "0x8c5be1e5ebec7d5bd14f71427d1e84f3dd0314c0f7b2291e5b200ac8c7c3b925",
            "0x0000000000000000000000006efb11ac41b6657c32dac5ed4874082c700bba29",
            "0x0000000000000000000000008cb82ffca2ea57b29ad137b9a8cdca718233ff96"
          ],
          "data": "0xffffffffffffffffffffffffffffffffffffffffffffffffffffffffffffffff",
          "blockHash": "0x8b544f068b2e7f607382fca36e361566691d192a6c751998e2c5068427228a9e",
          "blockNumber": "0x7442eb",
          "blockTimestamp": "0x67d329e7",
          "transactionHash": "0x90bc169a847cb0ae1790fae777b710c75cb36ccf5711538a71620f32bfd62499",
          "transactionIndex": "0x5b",
          "logIndex": "0xb2",
          "removed": false
        }
      ],
      "logsBloom": "0x00000000000000000200000000000000000000000000000000000000000000000000000000000000000000000000000000000000000100000000000000200000000000000100000000000000000000000000000000000000000000000000000002000000040000000000000000000000000000000000000000000000000000000000000000000000000000000000000000000000000000000000000000000400020000000000000000040000000000000000000000000000000001000000000000000000080000000000000000000000000000000000000000000000000000000010000000000000000000000000000000000000000000000000000000000000",
      "type": "0x0",
      "transactionHash": "0x90bc169a847cb0ae1790fae777b710c75cb36ccf5711538a71620f32bfd62499",
      "transactionIndex": "0x5b",
      "blockHash": "0x8b544f068b2e7f607382fca36e361566691d192a6c751998e2c5068427228a9e",
      "blockNumber": "0x7442eb",
      "gasUsed": "0xf9a4",
      "effectiveGasPrice": "0xc1b710800",
      "from": "0x6efb11ac41b6657c32dac5ed4874082c700bba29",
      "to": "0xf9861d7478f8957679b26404bd6272c39f949c29",
      "contractAddress": null
    },
    {
      "status": "0x1",
      "cumulativeGasUsed": "0x1069132",
      "logs": [
        {
          "address": "0x1889cfb8746716a0ac50e59a54f190987c5f04e6",
          "topics": [
            "0x8c5be1e5ebec7d5bd14f71427d1e84f3dd0314c0f7b2291e5b200ac8c7c3b925",
            "0x0000000000000000000000006efb11ac41b6657c32dac5ed4874082c700bba29",
            "0x0000000000000000000000008cb82ffca2ea57b29ad137b9a8cdca718233ff96"
          ],
          "data": "0xffffffffffffffffffffffffffffffffffffffffffffffffffffffffffffffff",
          "blockHash": "0x8b544f068b2e7f607382fca36e361566691d192a6c751998e2c5068427228a9e",
          "blockNumber": "0x7442eb",
          "blockTimestamp": "0x67d329e7",
          "transactionHash": "0x826735cc966b6162b12752d064f0b00140e46edc5955cb0d04ca83836e61cf68",
          "transactionIndex": "0x5c",
          "logIndex": "0xb3",
          "removed": false
        }
      ],
      "logsBloom": "0x00000000000000000200000000000000000000000000000000000000000000000000000000000000000000000000000000000000000100000000000000200000000000000100000000000000000000000000000000000000000400000000000002000000000000000000000000000000000000000000000000000000000000000000000000000000000000000000000000000000000000000000000000000400020000000000100000000000000000000000000000000000000001000000000000000000000000000000000000000000000000000000000000000000000000000010000080000000000000000000000000000000000000000000000000000000",
      "type": "0x0",
      "transactionHash": "0x826735cc966b6162b12752d064f0b00140e46edc5955cb0d04ca83836e61cf68",
      "transactionIndex": "0x5c",
      "blockHash": "0x8b544f068b2e7f607382fca36e361566691d192a6c751998e2c5068427228a9e",
      "blockNumber": "0x7442eb",
      "gasUsed": "0xf9a4",
      "effectiveGasPrice": "0xc1b710800",
      "from": "0x6efb11ac41b6657c32dac5ed4874082c700bba29",
      "to": "0x1889cfb8746716a0ac50e59a54f190987c5f04e6",
      "contractAddress": null
    },
    {
      "status": "0x1",
      "cumulativeGasUsed": "0x1078ad6",
      "logs": [
        {
          "address": "0x6bc8a42d4b2f4bc8e4c3f9ecff00b7290ffa7405",
          "topics": [
            "0x8c5be1e5ebec7d5bd14f71427d1e84f3dd0314c0f7b2291e5b200ac8c7c3b925",
            "0x0000000000000000000000006efb11ac41b6657c32dac5ed4874082c700bba29",
            "0x0000000000000000000000008cb82ffca2ea57b29ad137b9a8cdca718233ff96"
          ],
          "data": "0xffffffffffffffffffffffffffffffffffffffffffffffffffffffffffffffff",
          "blockHash": "0x8b544f068b2e7f607382fca36e361566691d192a6c751998e2c5068427228a9e",
          "blockNumber": "0x7442eb",
          "blockTimestamp": "0x67d329e7",
          "transactionHash": "0xaa12856dc1414af43e1facc5d9a60077ad597f20daaa4e30a9ba80ce6ecb511e",
          "transactionIndex": "0x5d",
          "logIndex": "0xb4",
          "removed": false
        }
      ],
      "logsBloom": "0x00000000000000000200000000000000000000000000000000000000000000000000000000000000000000000000000000002000000100000400000000200000000000000100000000000000000000000000000000000000000000000000000002000000000000000000000000000000000000000000000000000000000000000000000000000000000000000000000000000000000000000000000000000400020000000200000000000000000000000000000000000000000001000000000000000000000000000000000000000000000000000000000000000000000000000010000000000000000000000000000000000000000000000000000000000000",
      "type": "0x0",
      "transactionHash": "0xaa12856dc1414af43e1facc5d9a60077ad597f20daaa4e30a9ba80ce6ecb511e",
      "transactionIndex": "0x5d",
      "blockHash": "0x8b544f068b2e7f607382fca36e361566691d192a6c751998e2c5068427228a9e",
      "blockNumber": "0x7442eb",
      "gasUsed": "0xf9a4",
      "effectiveGasPrice": "0xc1b710800",
      "from": "0x6efb11ac41b6657c32dac5ed4874082c700bba29",
      "to": "0x6bc8a42d4b2f4bc8e4c3f9ecff00b7290ffa7405",
      "contractAddress": null
    },
    {
      "status": "0x1",
      "cumulativeGasUsed": "0x108847a",
      "logs": [
        {
          "address": "0xe3f98fda6dbd38c1017754f1675dce377381c23c",
          "topics": [
            "0x8c5be1e5ebec7d5bd14f71427d1e84f3dd0314c0f7b2291e5b200ac8c7c3b925",
            "0x0000000000000000000000006efb11ac41b6657c32dac5ed4874082c700bba29",
            "0x0000000000000000000000008cb82ffca2ea57b29ad137b9a8cdca718233ff96"
          ],
          "data": "0xffffffffffffffffffffffffffffffffffffffffffffffffffffffffffffffff",
          "blockHash": "0x8b544f068b2e7f607382fca36e361566691d192a6c751998e2c5068427228a9e",
          "blockNumber": "0x7442eb",
          "blockTimestamp": "0x67d329e7",
          "transactionHash": "0x758f99fe2f1dfcf9bbc8d539569ba97128d4e2bed7ecdfa8070b186cb10abdbc",
          "transactionIndex": "0x5e",
          "logIndex": "0xb5",
          "removed": false
        }
      ],
      "logsBloom": "0x00000000000000002200000000000000000000000000000000000000000000000000000000000000000000000000000000000000000100000000000000200000000000000100000000000000000000000000000000000000000000000000000002000000000000000000000000000000000000000000000000000000000000000000000000000000000000000000000000000000000000000020000000000400020000000000000000000000000020000000000000000000000001000000000000000000000000000000000000000000000000000000000000000000000000000010000000000000000000000000000000000000000000000000000000000000",
      "type": "0x0",
      "transactionHash": "0x758f99fe2f1dfcf9bbc8d539569ba97128d4e2bed7ecdfa8070b186cb10abdbc",
      "transactionIndex": "0x5e",
      "blockHash": "0x8b544f068b2e7f607382fca36e361566691d192a6c751998e2c5068427228a9e",
      "blockNumber": "0x7442eb",
      "gasUsed": "0xf9a4",
      "effectiveGasPrice": "0xc1b710800",
      "from": "0x6efb11ac41b6657c32dac5ed4874082c700bba29",
      "to": "0xe3f98fda6dbd38c1017754f1675dce377381c23c",
      "contractAddress": null
    },
    {
      "status": "0x1",
      "cumulativeGasUsed": "0x1097e1e",
      "logs": [
        {
          "address": "0x58389610a3d13e8f380ee2ba077a6f36f2a90834",
          "topics": [
            "0x8c5be1e5ebec7d5bd14f71427d1e84f3dd0314c0f7b2291e5b200ac8c7c3b925",
            "0x0000000000000000000000006efb11ac41b6657c32dac5ed4874082c700bba29",
            "0x0000000000000000000000008cb82ffca2ea57b29ad137b9a8cdca718233ff96"
          ],
          "data": "0xffffffffffffffffffffffffffffffffffffffffffffffffffffffffffffffff",
          "blockHash": "0x8b544f068b2e7f607382fca36e361566691d192a6c751998e2c5068427228a9e",
          "blockNumber": "0x7442eb",
          "blockTimestamp": "0x67d329e7",
          "transactionHash": "0xbce427a1d6376fd199fa49cccb5564b17148d480c21ed465daac74c8adc50f86",
          "transactionIndex": "0x5f",
          "logIndex": "0xb6",
          "removed": false
        }
      ],
      "logsBloom": "0x00000000000000000200000000000000000000000000000000000000000000000000000000000000000000000000000000000000000100000000000000200000000000000100000000000000000000000000000000000400001000000000000002000000000000000000000000000000000000000000000000000000000000000000000000000000000000000000000000000000000000000000000000000400020000000000000000000000000000040000000000000000000001000000000000000000000000000000000000000000000000000000000000000000000000000010000000000000000000000000000000000000000000000000000000000000",
      "type": "0x0",
      "transactionHash": "0xbce427a1d6376fd199fa49cccb5564b17148d480c21ed465daac74c8adc50f86",
      "transactionIndex": "0x5f",
      "blockHash": "0x8b544f068b2e7f607382fca36e361566691d192a6c751998e2c5068427228a9e",
      "blockNumber": "0x7442eb",
      "gasUsed": "0xf9a4",
      "effectiveGasPrice": "0xc1b710800",
      "from": "0x6efb11ac41b6657c32dac5ed4874082c700bba29",
      "to": "0x58389610a3d13e8f380ee2ba077a6f36f2a90834",
      "contractAddress": null
    },
    {
      "status": "0x1",
      "cumulativeGasUsed": "0x1124fe7",
      "logs": [
        {
          "address": "0x2c53ce7143d24a65410107f50e4aabad9a164480",
          "topics": [
            "0xddf252ad1be2c89b69c2b068fc378daa952ba7f163c4a11628f55a4df523b3ef",
            "0x0000000000000000000000006efb11ac41b6657c32dac5ed4874082c700bba29",
            "0x000000000000000000000000823f91041c1cecdc65ee8a7335f471ac1a08caf0"
          ],
          "data": "0x000000000000000000000000000000000000000000000000000000003b9aca00",
          "blockHash": "0x8b544f068b2e7f607382fca36e361566691d192a6c751998e2c5068427228a9e",
          "blockNumber": "0x7442eb",
          "blockTimestamp": "0x67d329e7",
          "transactionHash": "0x5974e40440dfad2cde16181b06bea5b7736c83f598c3d1c9a1aa70e6b78656e0",
          "transactionIndex": "0x60",
          "logIndex": "0xb7",
          "removed": false
        },
        {
          "address": "0x2c53ce7143d24a65410107f50e4aabad9a164480",
          "topics": [
            "0xddf252ad1be2c89b69c2b068fc378daa952ba7f163c4a11628f55a4df523b3ef",
            "0x0000000000000000000000006efb11ac41b6657c32dac5ed4874082c700bba29",
            "0x000000000000000000000000823f91041c1cecdc65ee8a7335f471ac1a08caf0"
          ],
          "data": "0x0000000000000000000000000000000000000000000000056bc75e2d63100000",
          "blockHash": "0x8b544f068b2e7f607382fca36e361566691d192a6c751998e2c5068427228a9e",
          "blockNumber": "0x7442eb",
          "blockTimestamp": "0x67d329e7",
          "transactionHash": "0x5974e40440dfad2cde16181b06bea5b7736c83f598c3d1c9a1aa70e6b78656e0",
          "transactionIndex": "0x60",
          "logIndex": "0xb8",
          "removed": false
        },
        {
          "address": "0x58389610a3d13e8f380ee2ba077a6f36f2a90834",
          "topics": [
            "0xddf252ad1be2c89b69c2b068fc378daa952ba7f163c4a11628f55a4df523b3ef",
            "0x0000000000000000000000006efb11ac41b6657c32dac5ed4874082c700bba29",
            "0x000000000000000000000000823f91041c1cecdc65ee8a7335f471ac1a08caf0"
          ],
          "data": "0x0000000000000000000000000000000000000000000000000000008bb2c97000",
          "blockHash": "0x8b544f068b2e7f607382fca36e361566691d192a6c751998e2c5068427228a9e",
          "blockNumber": "0x7442eb",
          "blockTimestamp": "0x67d329e7",
          "transactionHash": "0x5974e40440dfad2cde16181b06bea5b7736c83f598c3d1c9a1aa70e6b78656e0",
          "transactionIndex": "0x60",
          "logIndex": "0xb9",
          "removed": false
        },
        {
          "address": "0xe50914672560e18b2f5ce311a4557880df05000c",
          "topics": [
            "0xd3d640118416a526ad33075973727e1675055b2b31a8351bc74271d75fccef9b"
          ],
          "data": "0x00000000000000000000000000000000000000000000000000000000000000000000000000000000000000006efb11ac41b6657c32dac5ed4874082c700bba290000000000000000000000006efb11ac41b6657c32dac5ed4874082c700bba2900000000000000000000000000000000000000000000000000000000000000000000000000000000000000000e87d21bd714d3391e992227e472517a9dc16a240000000000000000000000002c53ce7143d24a65410107f50e4aabad9a16448000000000000000000000000058389610a3d13e8f380ee2ba077a6f36f2a90834000000000000000000000000000000000000000000000000000000003b9aca000000000000000000000000000000000000000000000000056bc75e2d631000000000000000000000000000000000000000000000000000000000008bb2c97000",
          "blockHash": "0x8b544f068b2e7f607382fca36e361566691d192a6c751998e2c5068427228a9e",
          "blockNumber": "0x7442eb",
          "blockTimestamp": "0x67d329e7",
          "transactionHash": "0x5974e40440dfad2cde16181b06bea5b7736c83f598c3d1c9a1aa70e6b78656e0",
          "transactionIndex": "0x60",
          "logIndex": "0xba",
          "removed": false
        }
      ],
      "logsBloom": "0x00000000000000000200000000000000000000000000000000000000040000000000000000000000000000000000000000001000000100800000000000000000000000000000000000000008000000000000000000000400001000000000000000000000000000000000400000000020000100000000000000000010200000000000000000000000000000000040000000000000000000000000000000000040000000000000000000000000000000040000000000000000000001000000000000000002000080000000000000000000000000010000000000000000000000000000001000000000000000000000000000000000000000000000000000000000",
      "type": "0x0",
      "transactionHash": "0x5974e40440dfad2cde16181b06bea5b7736c83f598c3d1c9a1aa70e6b78656e0",
      "transactionIndex": "0x60",
      "blockHash": "0x8b544f068b2e7f607382fca36e361566691d192a6c751998e2c5068427228a9e",
      "blockNumber": "0x7442eb",
      "gasUsed": "0x8d1c9",
      "effectiveGasPrice": "0xc1b710800",
      "from": "0x6efb11ac41b6657c32dac5ed4874082c700bba29",
      "to": "0x8cb82ffca2ea57b29ad137b9a8cdca718233ff96",
      "contractAddress": null
    },
    {
      "status": "0x1",
      "cumulativeGasUsed": "0x11a00df",
      "logs": [
        {
          "address": "0x2c53ce7143d24a65410107f50e4aabad9a164480",
          "topics": [
            "0xddf252ad1be2c89b69c2b068fc378daa952ba7f163c4a11628f55a4df523b3ef",
            "0x0000000000000000000000006efb11ac41b6657c32dac5ed4874082c700bba29",
            "0x000000000000000000000000823f91041c1cecdc65ee8a7335f471ac1a08caf0"
          ],
          "data": "0x000000000000000000000000000000000000000000000000000000003b9aca00",
          "blockHash": "0x8b544f068b2e7f607382fca36e361566691d192a6c751998e2c5068427228a9e",
          "blockNumber": "0x7442eb",
          "blockTimestamp": "0x67d329e7",
          "transactionHash": "0x09e13a8e5ed73a6945cf0320f7cef0d794c1ce6826761307765dc345a1513fd3",
          "transactionIndex": "0x61",
          "logIndex": "0xbb",
          "removed": false
        },
        {
          "address": "0x53f7c389cbb801e2abfd301ded6d2a1cf330ac0d",
          "topics": [
            "0xddf252ad1be2c89b69c2b068fc378daa952ba7f163c4a11628f55a4df523b3ef",
            "0x0000000000000000000000006efb11ac41b6657c32dac5ed4874082c700bba29",
            "0x000000000000000000000000823f91041c1cecdc65ee8a7335f471ac1a08caf0"
          ],
          "data": "0x000000000000000000000000000000000000000000000002b5e3af16b1880000",
          "blockHash": "0x8b544f068b2e7f607382fca36e361566691d192a6c751998e2c5068427228a9e",
          "blockNumber": "0x7442eb",
          "blockTimestamp": "0x67d329e7",
          "transactionHash": "0x09e13a8e5ed73a6945cf0320f7cef0d794c1ce6826761307765dc345a1513fd3",
          "transactionIndex": "0x61",
          "logIndex": "0xbc",
          "removed": false
        },
        {
          "address": "0x58389610a3d13e8f380ee2ba077a6f36f2a90834",
          "topics": [
            "0xddf252ad1be2c89b69c2b068fc378daa952ba7f163c4a11628f55a4df523b3ef",
            "0x0000000000000000000000006efb11ac41b6657c32dac5ed4874082c700bba29",
            "0x000000000000000000000000823f91041c1cecdc65ee8a7335f471ac1a08caf0"
          ],
          "data": "0x000000000000000000000000000000000000000000000000000005bad5431800",
          "blockHash": "0x8b544f068b2e7f607382fca36e361566691d192a6c751998e2c5068427228a9e",
          "blockNumber": "0x7442eb",
          "blockTimestamp": "0x67d329e7",
          "transactionHash": "0x09e13a8e5ed73a6945cf0320f7cef0d794c1ce6826761307765dc345a1513fd3",
          "transactionIndex": "0x61",
          "logIndex": "0xbd",
          "removed": false
        },
        {
          "address": "0xe50914672560e18b2f5ce311a4557880df05000c",
          "topics": [
            "0xd3d640118416a526ad33075973727e1675055b2b31a8351bc74271d75fccef9b"
          ],
          "data": "0x00000000000000000000000000000000000000000000000000000000000000010000000000000000000000006efb11ac41b6657c32dac5ed4874082c700bba290000000000000000000000006efb11ac41b6657c32dac5ed4874082c700bba290000000000000000000000000000000000000000000000000000000000000000000000000000000000000000ba8a671c225721803cd64b12cb62a2363e9ee87300000000000000000000000053f7c389cbb801e2abfd301ded6d2a1cf330ac0d00000000000000000000000058389610a3d13e8f380ee2ba077a6f36f2a90834000000000000000000000000000000000000000000000000000000003b9aca00000000000000000000000000000000000000000000000002b5e3af16b1880000000000000000000000000000000000000000000000000000000005bad5431800",
          "blockHash": "0x8b544f068b2e7f607382fca36e361566691d192a6c751998e2c5068427228a9e",
          "blockNumber": "0x7442eb",
          "blockTimestamp": "0x67d329e7",
          "transactionHash": "0x09e13a8e5ed73a6945cf0320f7cef0d794c1ce6826761307765dc345a1513fd3",
          "transactionIndex": "0x61",
          "logIndex": "0xbe",
          "removed": false
        }
      ],
      "logsBloom": "0x00000000000000000200000002000000000000000000000000000000040000000000000000000000000000000000000000001000000100800000000000000000000000000000000000000008000000000000000000000400001000000000000000000000000000000000400000000020000100000000000000000010200000000000000000000000000000000040000000000000000000000000000000000040000000000010000000000000000000040000000000000000000001000000000000000002000080000000000000000000000000010000000000000000000000000000001000000000000000000000000000000000000000000008000000000000",
      "type": "0x0",
      "transactionHash": "0x09e13a8e5ed73a6945cf0320f7cef0d794c1ce6826761307765dc345a1513fd3",
      "transactionIndex": "0x61",
      "blockHash": "0x8b544f068b2e7f607382fca36e361566691d192a6c751998e2c5068427228a9e",
      "blockNumber": "0x7442eb",
      "gasUsed": "0x7b0f8",
      "effectiveGasPrice": "0xc1b710800",
      "from": "0x6efb11ac41b6657c32dac5ed4874082c700bba29",
      "to": "0x8cb82ffca2ea57b29ad137b9a8cdca718233ff96",
      "contractAddress": null
    },
    {
      "status": "0x1",
      "cumulativeGasUsed": "0x121b1c6",
      "logs": [
        {
          "address": "0x2c53ce7143d24a65410107f50e4aabad9a164480",
          "topics": [
            "0xddf252ad1be2c89b69c2b068fc378daa952ba7f163c4a11628f55a4df523b3ef",
            "0x0000000000000000000000006efb11ac41b6657c32dac5ed4874082c700bba29",
            "0x000000000000000000000000823f91041c1cecdc65ee8a7335f471ac1a08caf0"
          ],
          "data": "0x000000000000000000000000000000000000000000000000000000003b9aca00",
          "blockHash": "0x8b544f068b2e7f607382fca36e361566691d192a6c751998e2c5068427228a9e",
          "blockNumber": "0x7442eb",
          "blockTimestamp": "0x67d329e7",
          "transactionHash": "0x687d611c5f908ba46c48093c3a62444ba89fd3dc11f8d05f709ba2131182efbf",
          "transactionIndex": "0x62",
          "logIndex": "0xbf",
          "removed": false
        },
        {
          "address": "0xf9861d7478f8957679b26404bd6272c39f949c29",
          "topics": [
            "0xddf252ad1be2c89b69c2b068fc378daa952ba7f163c4a11628f55a4df523b3ef",
            "0x0000000000000000000000006efb11ac41b6657c32dac5ed4874082c700bba29",
            "0x000000000000000000000000823f91041c1cecdc65ee8a7335f471ac1a08caf0"
          ],
          "data": "0x000000000000000000000000000000000000000000295be96e64066972000000",
          "blockHash": "0x8b544f068b2e7f607382fca36e361566691d192a6c751998e2c5068427228a9e",
          "blockNumber": "0x7442eb",
          "blockTimestamp": "0x67d329e7",
          "transactionHash": "0x687d611c5f908ba46c48093c3a62444ba89fd3dc11f8d05f709ba2131182efbf",
          "transactionIndex": "0x62",
          "logIndex": "0xc0",
          "removed": false
        },
        {
          "address": "0x58389610a3d13e8f380ee2ba077a6f36f2a90834",
          "topics": [
            "0xddf252ad1be2c89b69c2b068fc378daa952ba7f163c4a11628f55a4df523b3ef",
            "0x0000000000000000000000006efb11ac41b6657c32dac5ed4874082c700bba29",
            "0x000000000000000000000000823f91041c1cecdc65ee8a7335f471ac1a08caf0"
          ],
          "data": "0x000000000000000000000000000000000000000000000000000000037e11d600",
          "blockHash": "0x8b544f068b2e7f607382fca36e361566691d192a6c751998e2c5068427228a9e",
          "blockNumber": "0x7442eb",
          "blockTimestamp": "0x67d329e7",
          "transactionHash": "0x687d611c5f908ba46c48093c3a62444ba89fd3dc11f8d05f709ba2131182efbf",
          "transactionIndex": "0x62",
          "logIndex": "0xc1",
          "removed": false
        },
        {
          "address": "0xe50914672560e18b2f5ce311a4557880df05000c",
          "topics": [
            "0xd3d640118416a526ad33075973727e1675055b2b31a8351bc74271d75fccef9b"
          ],
          "data": "0x00000000000000000000000000000000000000000000000000000000000000020000000000000000000000006efb11ac41b6657c32dac5ed4874082c700bba290000000000000000000000006efb11ac41b6657c32dac5ed4874082c700bba29000000000000000000000000000000000000000000000000000000000000000000000000000000000000000061cbb1a8fb2f8710fe95c6c3ef039b5828cb000b000000000000000000000000f9861d7478f8957679b26404bd6272c39f949c2900000000000000000000000058389610a3d13e8f380ee2ba077a6f36f2a90834000000000000000000000000000000000000000000000000000000003b9aca00000000000000000000000000000000000000000000295be96e64066972000000000000000000000000000000000000000000000000000000000000037e11d600",
          "blockHash": "0x8b544f068b2e7f607382fca36e361566691d192a6c751998e2c5068427228a9e",
          "blockNumber": "0x7442eb",
          "blockTimestamp": "0x67d329e7",
          "transactionHash": "0x687d611c5f908ba46c48093c3a62444ba89fd3dc11f8d05f709ba2131182efbf",
          "transactionIndex": "0x62",
          "logIndex": "0xc2",
          "removed": false
        }
      ],
      "logsBloom": "0x00000000000000000200000000000000000000000000000000000000040000000000000000000000000000000000000000001000000100800000000000000000000000000000000000000008000000000000000000000400001000000000000000000000040000000000400000000020000100000000000000000010200000000000000000000000000000000040000000000000000000000000000000000040000000000000000000040000000000040000000000000000000001000000000000000002080080000000000000000000000000010000000000000000000000000000001000000000000000000000000000000000000000000000000000000000",
      "type": "0x0",
      "transactionHash": "0x687d611c5f908ba46c48093c3a62444ba89fd3dc11f8d05f709ba2131182efbf",
      "transactionIndex": "0x62",
      "blockHash": "0x8b544f068b2e7f607382fca36e361566691d192a6c751998e2c5068427228a9e",
      "blockNumber": "0x7442eb",
      "gasUsed": "0x7b0e7",
      "effectiveGasPrice": "0xc1b710800",
      "from": "0x6efb11ac41b6657c32dac5ed4874082c700bba29",
      "to": "0x8cb82ffca2ea57b29ad137b9a8cdca718233ff96",
      "contractAddress": null
    },
    {
      "status": "0x1",
      "cumulativeGasUsed": "0x129627c",
      "logs": [
        {
          "address": "0x2c53ce7143d24a65410107f50e4aabad9a164480",
          "topics": [
            "0xddf252ad1be2c89b69c2b068fc378daa952ba7f163c4a11628f55a4df523b3ef",
            "0x0000000000000000000000006efb11ac41b6657c32dac5ed4874082c700bba29",
            "0x000000000000000000000000823f91041c1cecdc65ee8a7335f471ac1a08caf0"
          ],
          "data": "0x000000000000000000000000000000000000000000000000000000003b9aca00",
          "blockHash": "0x8b544f068b2e7f607382fca36e361566691d192a6c751998e2c5068427228a9e",
          "blockNumber": "0x7442eb",
          "blockTimestamp": "0x67d329e7",
          "transactionHash": "0x3b311e79e13bfa4754b15182634e6198465580e326b3e54b8e5c83a0d399e731",
          "transactionIndex": "0x63",
          "logIndex": "0xc3",
          "removed": false
        },
        {
          "address": "0x1889cfb8746716a0ac50e59a54f190987c5f04e6",
          "topics": [
            "0xddf252ad1be2c89b69c2b068fc378daa952ba7f163c4a11628f55a4df523b3ef",
            "0x0000000000000000000000006efb11ac41b6657c32dac5ed4874082c700bba29",
            "0x000000000000000000000000823f91041c1cecdc65ee8a7335f471ac1a08caf0"
          ],
          "data": "0x00000000000000000000000000000000000000000000000000005af3107a4000",
          "blockHash": "0x8b544f068b2e7f607382fca36e361566691d192a6c751998e2c5068427228a9e",
          "blockNumber": "0x7442eb",
          "blockTimestamp": "0x67d329e7",
          "transactionHash": "0x3b311e79e13bfa4754b15182634e6198465580e326b3e54b8e5c83a0d399e731",
          "transactionIndex": "0x63",
          "logIndex": "0xc4",
          "removed": false
        },
        {
          "address": "0x58389610a3d13e8f380ee2ba077a6f36f2a90834",
          "topics": [
            "0xddf252ad1be2c89b69c2b068fc378daa952ba7f163c4a11628f55a4df523b3ef",
            "0x0000000000000000000000006efb11ac41b6657c32dac5ed4874082c700bba29",
            "0x000000000000000000000000823f91041c1cecdc65ee8a7335f471ac1a08caf0"
          ],
          "data": "0x00000000000000000000000000000000000000000000000000000045d964b800",
          "blockHash": "0x8b544f068b2e7f607382fca36e361566691d192a6c751998e2c5068427228a9e",
          "blockNumber": "0x7442eb",
          "blockTimestamp": "0x67d329e7",
          "transactionHash": "0x3b311e79e13bfa4754b15182634e6198465580e326b3e54b8e5c83a0d399e731",
          "transactionIndex": "0x63",
          "logIndex": "0xc5",
          "removed": false
        },
        {
          "address": "0xe50914672560e18b2f5ce311a4557880df05000c",
          "topics": [
            "0xd3d640118416a526ad33075973727e1675055b2b31a8351bc74271d75fccef9b"
          ],
          "data": "0x00000000000000000000000000000000000000000000000000000000000000030000000000000000000000006efb11ac41b6657c32dac5ed4874082c700bba290000000000000000000000006efb11ac41b6657c32dac5ed4874082c700bba290000000000000000000000000000000000000000000000000000000000000000000000000000000000000000007b2f0fb291307452065b4a620c29d56d8875dc0000000000000000000000001889cfb8746716a0ac50e59a54f190987c5f04e600000000000000000000000058389610a3d13e8f380ee2ba077a6f36f2a90834000000000000000000000000000000000000000000000000000000003b9aca0000000000000000000000000000000000000000000000000000005af3107a400000000000000000000000000000000000000000000000000000000045d964b800",
          "blockHash": "0x8b544f068b2e7f607382fca36e361566691d192a6c751998e2c5068427228a9e",
          "blockNumber": "0x7442eb",
          "blockTimestamp": "0x67d329e7",
          "transactionHash": "0x3b311e79e13bfa4754b15182634e6198465580e326b3e54b8e5c83a0d399e731",
          "transactionIndex": "0x63",
          "logIndex": "0xc6",
          "removed": false
        }
      ],
      "logsBloom": "0x00000000000000000200000000000000000000000000000000000000040000000000000000000000000000000000000000001000000100800000000000000000000000000000000000000008000000000000000000000400001400000000000000000000000000000000400000000020000100000000000000000010200000000000000000000000000000000040000000000000000000000000000000000040000000000000100000000000000000040000000000000000000001000000000000000002000080000000000000000000000000010000000000000000000000000000001080000000000000000000000000000000000000000000000000000000",
      "type": "0x0",
      "transactionHash": "0x3b311e79e13bfa4754b15182634e6198465580e326b3e54b8e5c83a0d399e731",
      "transactionIndex": "0x63",
      "blockHash": "0x8b544f068b2e7f607382fca36e361566691d192a6c751998e2c5068427228a9e",
      "blockNumber": "0x7442eb",
      "gasUsed": "0x7b0b6",
      "effectiveGasPrice": "0xc1b710800",
      "from": "0x6efb11ac41b6657c32dac5ed4874082c700bba29",
      "to": "0x8cb82ffca2ea57b29ad137b9a8cdca718233ff96",
      "contractAddress": null
    },
    {
      "status": "0x1",
      "cumulativeGasUsed": "0x1311353",
      "logs": [
        {
          "address": "0x2c53ce7143d24a65410107f50e4aabad9a164480",
          "topics": [
            "0xddf252ad1be2c89b69c2b068fc378daa952ba7f163c4a11628f55a4df523b3ef",
            "0x0000000000000000000000006efb11ac41b6657c32dac5ed4874082c700bba29",
            "0x000000000000000000000000823f91041c1cecdc65ee8a7335f471ac1a08caf0"
          ],
          "data": "0x000000000000000000000000000000000000000000000000000000003b9aca00",
          "blockHash": "0x8b544f068b2e7f607382fca36e361566691d192a6c751998e2c5068427228a9e",
          "blockNumber": "0x7442eb",
          "blockTimestamp": "0x67d329e7",
          "transactionHash": "0x66bdbc0e4108c73c8c7b9f1e1fbde354ce70290f9b1deca4d581c401973cd3a2",
          "transactionIndex": "0x64",
          "logIndex": "0xc7",
          "removed": false
        },
        {
          "address": "0x6bc8a42d4b2f4bc8e4c3f9ecff00b7290ffa7405",
          "topics": [
            "0xddf252ad1be2c89b69c2b068fc378daa952ba7f163c4a11628f55a4df523b3ef",
            "0x0000000000000000000000006efb11ac41b6657c32dac5ed4874082c700bba29",
            "0x000000000000000000000000823f91041c1cecdc65ee8a7335f471ac1a08caf0"
          ],
          "data": "0x0000000000000000000000000000000000000000000069e10de76676d0800000",
          "blockHash": "0x8b544f068b2e7f607382fca36e361566691d192a6c751998e2c5068427228a9e",
          "blockNumber": "0x7442eb",
          "blockTimestamp": "0x67d329e7",
          "transactionHash": "0x66bdbc0e4108c73c8c7b9f1e1fbde354ce70290f9b1deca4d581c401973cd3a2",
          "transactionIndex": "0x64",
          "logIndex": "0xc8",
          "removed": false
        },
        {
          "address": "0x58389610a3d13e8f380ee2ba077a6f36f2a90834",
          "topics": [
            "0xddf252ad1be2c89b69c2b068fc378daa952ba7f163c4a11628f55a4df523b3ef",
            "0x0000000000000000000000006efb11ac41b6657c32dac5ed4874082c700bba29",
            "0x000000000000000000000000823f91041c1cecdc65ee8a7335f471ac1a08caf0"
          ],
          "data": "0x0000000000000000000000000000000000000000000000000000001176592e00",
          "blockHash": "0x8b544f068b2e7f607382fca36e361566691d192a6c751998e2c5068427228a9e",
          "blockNumber": "0x7442eb",
          "blockTimestamp": "0x67d329e7",
          "transactionHash": "0x66bdbc0e4108c73c8c7b9f1e1fbde354ce70290f9b1deca4d581c401973cd3a2",
          "transactionIndex": "0x64",
          "logIndex": "0xc9",
          "removed": false
        },
        {
          "address": "0xe50914672560e18b2f5ce311a4557880df05000c",
          "topics": [
            "0xd3d640118416a526ad33075973727e1675055b2b31a8351bc74271d75fccef9b"
          ],
          "data": "0x00000000000000000000000000000000000000000000000000000000000000040000000000000000000000006efb11ac41b6657c32dac5ed4874082c700bba290000000000000000000000006efb11ac41b6657c32dac5ed4874082c700bba2900000000000000000000000000000000000000000000000000000000000000000000000000000000000000008fc3599e5d86df2e5ab4b9e20975da2ff17eb4b60000000000000000000000006bc8a42d4b2f4bc8e4c3f9ecff00b7290ffa740500000000000000000000000058389610a3d13e8f380ee2ba077a6f36f2a90834000000000000000000000000000000000000000000000000000000003b9aca000000000000000000000000000000000000000000000069e10de76676d08000000000000000000000000000000000000000000000000000000000001176592e00",
          "blockHash": "0x8b544f068b2e7f607382fca36e361566691d192a6c751998e2c5068427228a9e",
          "blockNumber": "0x7442eb",
          "blockTimestamp": "0x67d329e7",
          "transactionHash": "0x66bdbc0e4108c73c8c7b9f1e1fbde354ce70290f9b1deca4d581c401973cd3a2",
          "transactionIndex": "0x64",
          "logIndex": "0xca",
          "removed": false
        }
      ],
      "logsBloom": "0x00000000000000000200000000000000000000000000000000000000040000000000000000000000000000000000000000003000000100800400000000000000000000000000000000000008000000000000000000000400001000000000000000000000000000000000400000000020000100000000000000000010200000000000000000000000000000000040000000000000000000000000000000000040000000000200000000000000000000040000000000000000000001000000000000000002000080000000000000000000000000010000000000000000000000000000001000000000000000000000000000000000000000000000000000000000",
      "type": "0x0",
      "transactionHash": "0x66bdbc0e4108c73c8c7b9f1e1fbde354ce70290f9b1deca4d581c401973cd3a2",
      "transactionIndex": "0x64",
      "blockHash": "0x8b544f068b2e7f607382fca36e361566691d192a6c751998e2c5068427228a9e",
      "blockNumber": "0x7442eb",
      "gasUsed": "0x7b0d7",
      "effectiveGasPrice": "0xc1b710800",
      "from": "0x6efb11ac41b6657c32dac5ed4874082c700bba29",
      "to": "0x8cb82ffca2ea57b29ad137b9a8cdca718233ff96",
      "contractAddress": null
    },
    {
      "status": "0x1",
      "cumulativeGasUsed": "0x138c44b",
      "logs": [
        {
          "address": "0x2c53ce7143d24a65410107f50e4aabad9a164480",
          "topics": [
            "0xddf252ad1be2c89b69c2b068fc378daa952ba7f163c4a11628f55a4df523b3ef",
            "0x0000000000000000000000006efb11ac41b6657c32dac5ed4874082c700bba29",
            "0x000000000000000000000000823f91041c1cecdc65ee8a7335f471ac1a08caf0"
          ],
          "data": "0x000000000000000000000000000000000000000000000000000000003b9aca00",
          "blockHash": "0x8b544f068b2e7f607382fca36e361566691d192a6c751998e2c5068427228a9e",
          "blockNumber": "0x7442eb",
          "blockTimestamp": "0x67d329e7",
          "transactionHash": "0x482622701ad86b520238718d3df55f6d81b7262ad635d2f76bbf4e6433a76ca7",
          "transactionIndex": "0x65",
          "logIndex": "0xcb",
          "removed": false
        },
        {
          "address": "0xe3f98fda6dbd38c1017754f1675dce377381c23c",
          "topics": [
            "0xddf252ad1be2c89b69c2b068fc378daa952ba7f163c4a11628f55a4df523b3ef",
            "0x0000000000000000000000006efb11ac41b6657c32dac5ed4874082c700bba29",
            "0x000000000000000000000000823f91041c1cecdc65ee8a7335f471ac1a08caf0"
          ],
          "data": "0x00000000000000000000000000000000000000000000021e19e0c9bab2400000",
          "blockHash": "0x8b544f068b2e7f607382fca36e361566691d192a6c751998e2c5068427228a9e",
          "blockNumber": "0x7442eb",
          "blockTimestamp": "0x67d329e7",
          "transactionHash": "0x482622701ad86b520238718d3df55f6d81b7262ad635d2f76bbf4e6433a76ca7",
          "transactionIndex": "0x65",
          "logIndex": "0xcc",
          "removed": false
        },
        {
          "address": "0x58389610a3d13e8f380ee2ba077a6f36f2a90834",
          "topics": [
            "0xddf252ad1be2c89b69c2b068fc378daa952ba7f163c4a11628f55a4df523b3ef",
            "0x0000000000000000000000006efb11ac41b6657c32dac5ed4874082c700bba29",
            "0x000000000000000000000000823f91041c1cecdc65ee8a7335f471ac1a08caf0"
          ],
          "data": "0x00000000000000000000000000000000000000000000000000000068c6171400",
          "blockHash": "0x8b544f068b2e7f607382fca36e361566691d192a6c751998e2c5068427228a9e",
          "blockNumber": "0x7442eb",
          "blockTimestamp": "0x67d329e7",
          "transactionHash": "0x482622701ad86b520238718d3df55f6d81b7262ad635d2f76bbf4e6433a76ca7",
          "transactionIndex": "0x65",
          "logIndex": "0xcd",
          "removed": false
        },
        {
          "address": "0xe50914672560e18b2f5ce311a4557880df05000c",
          "topics": [
            "0xd3d640118416a526ad33075973727e1675055b2b31a8351bc74271d75fccef9b"
          ],
          "data": "0x00000000000000000000000000000000000000000000000000000000000000050000000000000000000000006efb11ac41b6657c32dac5ed4874082c700bba290000000000000000000000006efb11ac41b6657c32dac5ed4874082c700bba290000000000000000000000000000000000000000000000000000000000000000000000000000000000000000c9363063c1c5ea9392cc21bc44afd644632e618a000000000000000000000000e3f98fda6dbd38c1017754f1675dce377381c23c00000000000000000000000058389610a3d13e8f380ee2ba077a6f36f2a90834000000000000000000000000000000000000000000000000000000003b9aca0000000000000000000000000000000000000000000000021e19e0c9bab240000000000000000000000000000000000000000000000000000000000068c6171400",
          "blockHash": "0x8b544f068b2e7f607382fca36e361566691d192a6c751998e2c5068427228a9e",
          "blockNumber": "0x7442eb",
          "blockTimestamp": "0x67d329e7",
          "transactionHash": "0x482622701ad86b520238718d3df55f6d81b7262ad635d2f76bbf4e6433a76ca7",
          "transactionIndex": "0x65",
          "logIndex": "0xce",
          "removed": false
        }
      ],
      "logsBloom": "0x00000000000000002200000000000000000000000000000000000000040000000000000000000000000000000000000000001000000100800000000000000000000000000000000000000008000000000000000000000400001000000000000000000000000000000000400000000020000100000000000000000010200000000000000000000000000000000040000000000000000000000020000000000040000000000000000000000000000020040000000000000000000001000000000000000002000080000000000000000000000000010000000000000000000000000000001000000000000000000000000000000000000000000000000000000000",
      "type": "0x0",
      "transactionHash": "0x482622701ad86b520238718d3df55f6d81b7262ad635d2f76bbf4e6433a76ca7",
      "transactionIndex": "0x65",
      "blockHash": "0x8b544f068b2e7f607382fca36e361566691d192a6c751998e2c5068427228a9e",
      "blockNumber": "0x7442eb",
      "gasUsed": "0x7b0f8",
      "effectiveGasPrice": "0xc1b710800",
      "from": "0x6efb11ac41b6657c32dac5ed4874082c700bba29",
      "to": "0x8cb82ffca2ea57b29ad137b9a8cdca718233ff96",
      "contractAddress": null
    }
  ],
  "libraries": [],
  "pending": [],
  "returns": {},
  "timestamp": 1741892074,
  "chain": 10143,
  "commit": "69d67f9"
}