{
  "transactions": [
    {
      "hash": "0xad6eaee6552db2b3875acf9bebe9daab8b897c93ad721da7fdf960f71dc529fb",
      "transactionType": "CALL",
      "contractName": null,
      "contractAddress": "0x2c53ce7143d24a65410107f50e4aabad9a164480",
      "function": "mint(address,uint256)",
      "arguments": [
        "0x6EFb11aC41B6657c32dAc5Ed4874082C700BbA29",
        "10000000000000000000000"
      ],
      "transaction": {
        "from": "0x6efb11ac41b6657c32dac5ed4874082c700bba29",
        "to": "0x2c53ce7143d24a65410107f50e4aabad9a164480",
        "gas": "0xc1c9",
        "value": "0x0",
        "input": "0x40c10f190000000000000000000000006efb11ac41b6657c32dac5ed4874082c700bba2900000000000000000000000000000000000000000000021e19e0c9bab2400000",
        "nonce": "0x171",
        "chainId": "0x279f"
      },
      "additionalContracts": [],
      "isFixedGasLimit": false
    },
    {
      "hash": "0xee747b959989a964f7409bb0949e355f8f8098e094d23d16c1aa56fd963c0df5",
      "transactionType": "CALL",
      "contractName": null,
      "contractAddress": "0x53f7c389cbb801e2abfd301ded6d2a1cf330ac0d",
      "function": "mint(address,uint256)",
      "arguments": [
        "0x6EFb11aC41B6657c32dAc5Ed4874082C700BbA29",
        "10000000000000000000000"
      ],
      "transaction": {
        "from": "0x6efb11ac41b6657c32dac5ed4874082c700bba29",
        "to": "0x53f7c389cbb801e2abfd301ded6d2a1cf330ac0d",
        "gas": "0xc1c9",
        "value": "0x0",
        "input": "0x40c10f190000000000000000000000006efb11ac41b6657c32dac5ed4874082c700bba2900000000000000000000000000000000000000000000021e19e0c9bab2400000",
        "nonce": "0x172",
        "chainId": "0x279f"
      },
      "additionalContracts": [],
      "isFixedGasLimit": false
    },
    {
      "hash": "0xeaf67d90c14459b1ca5f2b37a522a83089edeb7575bacf2f8de52793553e768f",
      "transactionType": "CALL",
      "contractName": null,
      "contractAddress": "0xf9861d7478f8957679b26404bd6272c39f949c29",
      "function": "mint(address,uint256)",
      "arguments": [
        "0x6EFb11aC41B6657c32dAc5Ed4874082C700BbA29",
        "10000000000000000000000000"
      ],
      "transaction": {
        "from": "0x6efb11ac41b6657c32dac5ed4874082c700bba29",
        "to": "0xf9861d7478f8957679b26404bd6272c39f949c29",
        "gas": "0xc1c9",
        "value": "0x0",
        "input": "0x40c10f190000000000000000000000006efb11ac41b6657c32dac5ed4874082c700bba29000000000000000000000000000000000000000000084595161401484a000000",
        "nonce": "0x173",
        "chainId": "0x279f"
      },
      "additionalContracts": [],
      "isFixedGasLimit": false
    },
    {
      "hash": "0x1302a5d24c432d71c9ace5a4b75d4fdd1b190c98eedc5552e84c8764afe8e7b4",
      "transactionType": "CALL",
      "contractName": null,
      "contractAddress": "0x1889cfb8746716a0ac50e59a54f190987c5f04e6",
      "function": "mint(address,uint256)",
      "arguments": [
        "0x6EFb11aC41B6657c32dAc5Ed4874082C700BbA29",
        "100000000000000"
      ],
      "transaction": {
        "from": "0x6efb11ac41b6657c32dac5ed4874082c700bba29",
        "to": "0x1889cfb8746716a0ac50e59a54f190987c5f04e6",
        "gas": "0xb6d2",
        "value": "0x0",
        "input": "0x40c10f190000000000000000000000006efb11ac41b6657c32dac5ed4874082c700bba2900000000000000000000000000000000000000000000000000005af3107a4000",
        "nonce": "0x174",
        "chainId": "0x279f"
      },
      "additionalContracts": [],
      "isFixedGasLimit": false
    },
    {
      "hash": "0xa012d97e8eaf7954b41375c0ce7693ca698e025776b793df24b19939e146d1b7",
      "transactionType": "CALL",
      "contractName": null,
      "contractAddress": "0x6bc8a42d4b2f4bc8e4c3f9ecff00b7290ffa7405",
      "function": "mint(address,uint256)",
      "arguments": [
        "0x6EFb11aC41B6657c32dAc5Ed4874082C700BbA29",
        "100000000000000000000000"
      ],
      "transaction": {
        "from": "0x6efb11ac41b6657c32dac5ed4874082c700bba29",
        "to": "0x6bc8a42d4b2f4bc8e4c3f9ecff00b7290ffa7405",
        "gas": "0xc1c9",
        "value": "0x0",
        "input": "0x40c10f190000000000000000000000006efb11ac41b6657c32dac5ed4874082c700bba2900000000000000000000000000000000000000000000152d02c7e14af6800000",
        "nonce": "0x175",
        "chainId": "0x279f"
      },
      "additionalContracts": [],
      "isFixedGasLimit": false
    },
    {
      "hash": "0x2c8062784e4ecdca79ebadef7e12daad2c02dfa37bd7b47372a7c0500463e6cc",
      "transactionType": "CALL",
      "contractName": null,
      "contractAddress": "0xe3f98fda6dbd38c1017754f1675dce377381c23c",
      "function": "mint(address,uint256)",
      "arguments": [
        "0x6EFb11aC41B6657c32dAc5Ed4874082C700BbA29",
        "10000000000000000000000"
      ],
      "transaction": {
        "from": "0x6efb11ac41b6657c32dac5ed4874082c700bba29",
        "to": "0xe3f98fda6dbd38c1017754f1675dce377381c23c",
        "gas": "0xc1c9",
        "value": "0x0",
        "input": "0x40c10f190000000000000000000000006efb11ac41b6657c32dac5ed4874082c700bba2900000000000000000000000000000000000000000000021e19e0c9bab2400000",
        "nonce": "0x176",
        "chainId": "0x279f"
      },
      "additionalContracts": [],
      "isFixedGasLimit": false
    },
    {
      "hash": "0xecad5895f0a4f902a5b090be6931fceed08726b84dcfede43da66a1cfffef909",
      "transactionType": "CALL",
      "contractName": null,
      "contractAddress": "0x58389610a3d13e8f380ee2ba077a6f36f2a90834",
      "function": "mint(address,uint256)",
      "arguments": [
        "0x6EFb11aC41B6657c32dAc5Ed4874082C700BbA29",
        "100000000000000000"
      ],
      "transaction": {
        "from": "0x6efb11ac41b6657c32dac5ed4874082c700bba29",
        "to": "0x58389610a3d13e8f380ee2ba077a6f36f2a90834",
        "gas": "0xc1a6",
        "value": "0x0",
        "input": "0x40c10f190000000000000000000000006efb11ac41b6657c32dac5ed4874082c700bba29000000000000000000000000000000000000000000000000016345785d8a0000",
        "nonce": "0x177",
        "chainId": "0x279f"
      },
      "additionalContracts": [],
      "isFixedGasLimit": false
    },
    {
      "hash": "0x98bdb6b259703b21d1acb996aa3992bd29f4ea0adfa8e5787a3c221a9e461d9b",
      "transactionType": "CALL",
      "contractName": null,
      "contractAddress": "0x2c53ce7143d24a65410107f50e4aabad9a164480",
      "function": "approve(address,uint256)",
      "arguments": [
        "0x2e505C38656AE7e6B1134F48b0DaF6f725A6EaEB",
        "115792089237316195423570985008687907853269984665640564039457584007913129639935"
      ],
      "transaction": {
        "from": "0x6efb11ac41b6657c32dac5ed4874082c700bba29",
        "to": "0x2c53ce7143d24a65410107f50e4aabad9a164480",
        "gas": "0x96a4",
        "value": "0x0",
        "input": "0x095ea7b30000000000000000000000002e505c38656ae7e6b1134f48b0daf6f725a6eaebffffffffffffffffffffffffffffffffffffffffffffffffffffffffffffffff",
        "nonce": "0x178",
        "chainId": "0x279f"
      },
      "additionalContracts": [],
      "isFixedGasLimit": false
    },
    {
      "hash": "0xdcf2a2d5516d569fbd56aa558154e15b3f04e5f90a83f536fb03bda21492bb95",
      "transactionType": "CALL",
      "contractName": null,
      "contractAddress": "0x53f7c389cbb801e2abfd301ded6d2a1cf330ac0d",
      "function": "approve(address,uint256)",
      "arguments": [
        "0x2e505C38656AE7e6B1134F48b0DaF6f725A6EaEB",
        "115792089237316195423570985008687907853269984665640564039457584007913129639935"
      ],
      "transaction": {
        "from": "0x6efb11ac41b6657c32dac5ed4874082c700bba29",
        "to": "0x53f7c389cbb801e2abfd301ded6d2a1cf330ac0d",
        "gas": "0x96a4",
        "value": "0x0",
        "input": "0x095ea7b30000000000000000000000002e505c38656ae7e6b1134f48b0daf6f725a6eaebffffffffffffffffffffffffffffffffffffffffffffffffffffffffffffffff",
        "nonce": "0x179",
        "chainId": "0x279f"
      },
      "additionalContracts": [],
      "isFixedGasLimit": false
    },
    {
      "hash": "0x9987c6bc5dd3ca2c8e4927dbaca4d99ed508d0faf0b450311211aab73a3ed724",
      "transactionType": "CALL",
      "contractName": null,
      "contractAddress": "0xf9861d7478f8957679b26404bd6272c39f949c29",
      "function": "approve(address,uint256)",
      "arguments": [
        "0x2e505C38656AE7e6B1134F48b0DaF6f725A6EaEB",
        "115792089237316195423570985008687907853269984665640564039457584007913129639935"
      ],
      "transaction": {
        "from": "0x6efb11ac41b6657c32dac5ed4874082c700bba29",
        "to": "0xf9861d7478f8957679b26404bd6272c39f949c29",
        "gas": "0x96a4",
        "value": "0x0",
        "input": "0x095ea7b30000000000000000000000002e505c38656ae7e6b1134f48b0daf6f725a6eaebffffffffffffffffffffffffffffffffffffffffffffffffffffffffffffffff",
        "nonce": "0x17a",
        "chainId": "0x279f"
      },
      "additionalContracts": [],
      "isFixedGasLimit": false
    },
    {
      "hash": "0x92c0f9917350132c395268763496ff4a8b7c1cd88577c8bea5ff811d380ba64a",
      "transactionType": "CALL",
      "contractName": null,
      "contractAddress": "0x1889cfb8746716a0ac50e59a54f190987c5f04e6",
      "function": "approve(address,uint256)",
      "arguments": [
        "0x2e505C38656AE7e6B1134F48b0DaF6f725A6EaEB",
        "115792089237316195423570985008687907853269984665640564039457584007913129639935"
      ],
      "transaction": {
        "from": "0x6efb11ac41b6657c32dac5ed4874082c700bba29",
        "to": "0x1889cfb8746716a0ac50e59a54f190987c5f04e6",
        "gas": "0x96a4",
        "value": "0x0",
        "input": "0x095ea7b30000000000000000000000002e505c38656ae7e6b1134f48b0daf6f725a6eaebffffffffffffffffffffffffffffffffffffffffffffffffffffffffffffffff",
        "nonce": "0x17b",
        "chainId": "0x279f"
      },
      "additionalContracts": [],
      "isFixedGasLimit": false
    },
    {
      "hash": "0x8e4cec86f7e755f7682b4ced8908b1ec0068aa1631666aa141cfc0f443193abc",
      "transactionType": "CALL",
      "contractName": null,
      "contractAddress": "0x6bc8a42d4b2f4bc8e4c3f9ecff00b7290ffa7405",
      "function": "approve(address,uint256)",
      "arguments": [
        "0x2e505C38656AE7e6B1134F48b0DaF6f725A6EaEB",
        "115792089237316195423570985008687907853269984665640564039457584007913129639935"
      ],
      "transaction": {
        "from": "0x6efb11ac41b6657c32dac5ed4874082c700bba29",
        "to": "0x6bc8a42d4b2f4bc8e4c3f9ecff00b7290ffa7405",
        "gas": "0x96a4",
        "value": "0x0",
        "input": "0x095ea7b30000000000000000000000002e505c38656ae7e6b1134f48b0daf6f725a6eaebffffffffffffffffffffffffffffffffffffffffffffffffffffffffffffffff",
        "nonce": "0x17c",
        "chainId": "0x279f"
      },
      "additionalContracts": [],
      "isFixedGasLimit": false
    },
    {
      "hash": "0x8c0e97e9a79f7fb04c2e96c83f10afe47b74d1890d737296cd2340a841f6516a",
      "transactionType": "CALL",
      "contractName": null,
      "contractAddress": "0xe3f98fda6dbd38c1017754f1675dce377381c23c",
      "function": "approve(address,uint256)",
      "arguments": [
        "0x2e505C38656AE7e6B1134F48b0DaF6f725A6EaEB",
        "115792089237316195423570985008687907853269984665640564039457584007913129639935"
      ],
      "transaction": {
        "from": "0x6efb11ac41b6657c32dac5ed4874082c700bba29",
        "to": "0xe3f98fda6dbd38c1017754f1675dce377381c23c",
        "gas": "0x96a4",
        "value": "0x0",
        "input": "0x095ea7b30000000000000000000000002e505c38656ae7e6b1134f48b0daf6f725a6eaebffffffffffffffffffffffffffffffffffffffffffffffffffffffffffffffff",
        "nonce": "0x17d",
        "chainId": "0x279f"
      },
      "additionalContracts": [],
      "isFixedGasLimit": false
    },
    {
      "hash": "0x45163887219303fc9da8e3e0933e87c688ad0c9ae51384b6cb62955a37e9c96a",
      "transactionType": "CALL",
      "contractName": null,
      "contractAddress": "0x58389610a3d13e8f380ee2ba077a6f36f2a90834",
      "function": "approve(address,uint256)",
      "arguments": [
        "0x2e505C38656AE7e6B1134F48b0DaF6f725A6EaEB",
        "115792089237316195423570985008687907853269984665640564039457584007913129639935"
      ],
      "transaction": {
        "from": "0x6efb11ac41b6657c32dac5ed4874082c700bba29",
        "to": "0x58389610a3d13e8f380ee2ba077a6f36f2a90834",
        "gas": "0x96a4",
        "value": "0x0",
        "input": "0x095ea7b30000000000000000000000002e505c38656ae7e6b1134f48b0daf6f725a6eaebffffffffffffffffffffffffffffffffffffffffffffffffffffffffffffffff",
        "nonce": "0x17e",
        "chainId": "0x279f"
      },
      "additionalContracts": [],
      "isFixedGasLimit": false
    },
    {
      "hash": "0xc7c76f79614d286344eb2a08bee3d7f94623038295c6c791af27261ff94d9f55",
      "transactionType": "CALL",
      "contractName": null,
      "contractAddress": "0x2e505c38656ae7e6b1134f48b0daf6f725a6eaeb",
      "function": "multicall(bytes[])",
      "arguments": [
        "[0x7d39aaf10000000000000000000000002e45d737b1d3ca3c6fb4cb82193e0e3d7444e4bd000000000000000000000000000000000000000000000000000000003b9aca00, 0xe6d66ac80000000000000000000000002c53ce7143d24a65410107f50e4aabad9a1644800000000000000000000000002e45d737b1d3ca3c6fb4cb82193e0e3d7444e4bd0000000000000000000000000000000000000000000000056bc75e2d63100000, 0xe6d66ac800000000000000000000000058389610a3d13e8f380ee2ba077a6f36f2a908340000000000000000000000002e45d737b1d3ca3c6fb4cb82193e0e3d7444e4bd0000000000000000000000000000000000000000000000000000008bb2c97000, 0x293953b80000000000000000000000006efb11ac41b6657c32dac5ed4874082c700bba2900000000000000000000000000000000000000000000000000000000000000000000000000000000000000004c51d8a789b0029cf47c2366eebf6205a09d929b0000000000000000000000002c53ce7143d24a65410107f50e4aabad9a16448000000000000000000000000058389610a3d13e8f380ee2ba077a6f36f2a908340000000000000000000000000000000000000000000000000000000000000000000000000000000000000000000000000000000000000000000000003b9aca00]"
      ],
      "transaction": {
        "from": "0x6efb11ac41b6657c32dac5ed4874082c700bba29",
        "to": "0x2e505c38656ae7e6b1134f48b0daf6f725a6eaeb",
        "gas": "0x7f816",
        "value": "0x0",
        "input": "0xac9650d8000000000000000000000000000000000000000000000000000000000000002000000000000000000000000000000000000000000000000000000000000000040000000000000000000000000000000000000000000000000000000000000080000000000000000000000000000000000000000000000000000000000000010000000000000000000000000000000000000000000000000000000000000001a0000000000000000000000000000000000000000000000000000000000000024000000000000000000000000000000000000000000000000000000000000000447d39aaf10000000000000000000000002e45d737b1d3ca3c6fb4cb82193e0e3d7444e4bd000000000000000000000000000000000000000000000000000000003b9aca00000000000000000000000000000000000000000000000000000000000000000000000000000000000000000000000000000000000000000000000064e6d66ac80000000000000000000000002c53ce7143d24a65410107f50e4aabad9a1644800000000000000000000000002e45d737b1d3ca3c6fb4cb82193e0e3d7444e4bd0000000000000000000000000000000000000000000000056bc75e2d63100000000000000000000000000000000000000000000000000000000000000000000000000000000000000000000000000000000000000000000000000064e6d66ac800000000000000000000000058389610a3d13e8f380ee2ba077a6f36f2a908340000000000000000000000002e45d737b1d3ca3c6fb4cb82193e0e3d7444e4bd0000000000000000000000000000000000000000000000000000008bb2c970000000000000000000000000000000000000000000000000000000000000000000000000000000000000000000000000000000000000000000000000e4293953b80000000000000000000000006efb11ac41b6657c32dac5ed4874082c700bba2900000000000000000000000000000000000000000000000000000000000000000000000000000000000000004c51d8a789b0029cf47c2366eebf6205a09d929b0000000000000000000000002c53ce7143d24a65410107f50e4aabad9a16448000000000000000000000000058389610a3d13e8f380ee2ba077a6f36f2a908340000000000000000000000000000000000000000000000000000000000000000000000000000000000000000000000000000000000000000000000003b9aca0000000000000000000000000000000000000000000000000000000000",
        "nonce": "0x17f",
        "chainId": "0x279f"
      },
      "additionalContracts": [],
      "isFixedGasLimit": false
    },
    {
      "hash": "0x472147370f04aefe47dedc6e2694ce3ad537bba1a81274d3001dd5b4a3779201",
      "transactionType": "CALL",
      "contractName": null,
      "contractAddress": "0x2e505c38656ae7e6b1134f48b0daf6f725a6eaeb",
      "function": "multicall(bytes[])",
      "arguments": [
        "[0x7d39aaf10000000000000000000000002e45d737b1d3ca3c6fb4cb82193e0e3d7444e4bd000000000000000000000000000000000000000000000000000000003b9aca00, 0xe6d66ac800000000000000000000000053f7c389cbb801e2abfd301ded6d2a1cf330ac0d0000000000000000000000002e45d737b1d3ca3c6fb4cb82193e0e3d7444e4bd000000000000000000000000000000000000000000000002b5e3af16b1880000, 0xe6d66ac800000000000000000000000058389610a3d13e8f380ee2ba077a6f36f2a908340000000000000000000000002e45d737b1d3ca3c6fb4cb82193e0e3d7444e4bd000000000000000000000000000000000000000000000000000005bad5431800, 0x293953b80000000000000000000000006efb11ac41b6657c32dac5ed4874082c700bba290000000000000000000000000000000000000000000000000000000000000000000000000000000000000000b0a7f91a1c917a3bff73f2e3829032c64e13595100000000000000000000000053f7c389cbb801e2abfd301ded6d2a1cf330ac0d00000000000000000000000058389610a3d13e8f380ee2ba077a6f36f2a908340000000000000000000000000000000000000000000000000000000000000000000000000000000000000000000000000000000000000000000000003b9aca00]"
      ],
      "transaction": {
        "from": "0x6efb11ac41b6657c32dac5ed4874082c700bba29",
        "to": "0x2e505c38656ae7e6b1134f48b0daf6f725a6eaeb",
        "gas": "0x7b0f8",
        "value": "0x0",
        "input": "0xac9650d8000000000000000000000000000000000000000000000000000000000000002000000000000000000000000000000000000000000000000000000000000000040000000000000000000000000000000000000000000000000000000000000080000000000000000000000000000000000000000000000000000000000000010000000000000000000000000000000000000000000000000000000000000001a0000000000000000000000000000000000000000000000000000000000000024000000000000000000000000000000000000000000000000000000000000000447d39aaf10000000000000000000000002e45d737b1d3ca3c6fb4cb82193e0e3d7444e4bd000000000000000000000000000000000000000000000000000000003b9aca00000000000000000000000000000000000000000000000000000000000000000000000000000000000000000000000000000000000000000000000064e6d66ac800000000000000000000000053f7c389cbb801e2abfd301ded6d2a1cf330ac0d0000000000000000000000002e45d737b1d3ca3c6fb4cb82193e0e3d7444e4bd000000000000000000000000000000000000000000000002b5e3af16b1880000000000000000000000000000000000000000000000000000000000000000000000000000000000000000000000000000000000000000000000000064e6d66ac800000000000000000000000058389610a3d13e8f380ee2ba077a6f36f2a908340000000000000000000000002e45d737b1d3ca3c6fb4cb82193e0e3d7444e4bd000000000000000000000000000000000000000000000000000005bad54318000000000000000000000000000000000000000000000000000000000000000000000000000000000000000000000000000000000000000000000000e4293953b80000000000000000000000006efb11ac41b6657c32dac5ed4874082c700bba290000000000000000000000000000000000000000000000000000000000000000000000000000000000000000b0a7f91a1c917a3bff73f2e3829032c64e13595100000000000000000000000053f7c389cbb801e2abfd301ded6d2a1cf330ac0d00000000000000000000000058389610a3d13e8f380ee2ba077a6f36f2a908340000000000000000000000000000000000000000000000000000000000000000000000000000000000000000000000000000000000000000000000003b9aca0000000000000000000000000000000000000000000000000000000000",
        "nonce": "0x180",
        "chainId": "0x279f"
      },
      "additionalContracts": [],
      "isFixedGasLimit": false
    },
    {
      "hash": "0xce913d6f380138cdcec1c9786ef603660a22df3ed2f30b6c7a2f7fc95b54dac1",
      "transactionType": "CALL",
      "contractName": null,
      "contractAddress": "0x2e505c38656ae7e6b1134f48b0daf6f725a6eaeb",
      "function": "multicall(bytes[])",
      "arguments": [
        "[0x7d39aaf10000000000000000000000002e45d737b1d3ca3c6fb4cb82193e0e3d7444e4bd000000000000000000000000000000000000000000000000000000003b9aca00, 0xe6d66ac8000000000000000000000000f9861d7478f8957679b26404bd6272c39f949c290000000000000000000000002e45d737b1d3ca3c6fb4cb82193e0e3d7444e4bd000000000000000000000000000000000000000000295be96e64066972000000, 0xe6d66ac800000000000000000000000058389610a3d13e8f380ee2ba077a6f36f2a908340000000000000000000000002e45d737b1d3ca3c6fb4cb82193e0e3d7444e4bd000000000000000000000000000000000000000000000000000000037e11d600, 0x293953b80000000000000000000000006efb11ac41b6657c32dac5ed4874082c700bba2900000000000000000000000000000000000000000000000000000000000000000000000000000000000000001664f516fbe65dd0089152c93f724b8810881fdc000000000000000000000000f9861d7478f8957679b26404bd6272c39f949c2900000000000000000000000058389610a3d13e8f380ee2ba077a6f36f2a908340000000000000000000000000000000000000000000000000000000000000000000000000000000000000000000000000000000000000000000000003b9aca00]"
      ],
      "transaction": {
        "from": "0x6efb11ac41b6657c32dac5ed4874082c700bba29",
        "to": "0x2e505c38656ae7e6b1134f48b0daf6f725a6eaeb",
        "gas": "0x7b0f8",
        "value": "0x0",
        "input": "0xac9650d8000000000000000000000000000000000000000000000000000000000000002000000000000000000000000000000000000000000000000000000000000000040000000000000000000000000000000000000000000000000000000000000080000000000000000000000000000000000000000000000000000000000000010000000000000000000000000000000000000000000000000000000000000001a0000000000000000000000000000000000000000000000000000000000000024000000000000000000000000000000000000000000000000000000000000000447d39aaf10000000000000000000000002e45d737b1d3ca3c6fb4cb82193e0e3d7444e4bd000000000000000000000000000000000000000000000000000000003b9aca00000000000000000000000000000000000000000000000000000000000000000000000000000000000000000000000000000000000000000000000064e6d66ac8000000000000000000000000f9861d7478f8957679b26404bd6272c39f949c290000000000000000000000002e45d737b1d3ca3c6fb4cb82193e0e3d7444e4bd000000000000000000000000000000000000000000295be96e64066972000000000000000000000000000000000000000000000000000000000000000000000000000000000000000000000000000000000000000000000000000064e6d66ac800000000000000000000000058389610a3d13e8f380ee2ba077a6f36f2a908340000000000000000000000002e45d737b1d3ca3c6fb4cb82193e0e3d7444e4bd000000000000000000000000000000000000000000000000000000037e11d6000000000000000000000000000000000000000000000000000000000000000000000000000000000000000000000000000000000000000000000000e4293953b80000000000000000000000006efb11ac41b6657c32dac5ed4874082c700bba2900000000000000000000000000000000000000000000000000000000000000000000000000000000000000001664f516fbe65dd0089152c93f724b8810881fdc000000000000000000000000f9861d7478f8957679b26404bd6272c39f949c2900000000000000000000000058389610a3d13e8f380ee2ba077a6f36f2a908340000000000000000000000000000000000000000000000000000000000000000000000000000000000000000000000000000000000000000000000003b9aca0000000000000000000000000000000000000000000000000000000000",
        "nonce": "0x181",
        "chainId": "0x279f"
      },
      "additionalContracts": [],
      "isFixedGasLimit": false
    },
    {
      "hash": "0xd705af09eed84831344d0d53d93b128671313d343d4581cb98e98bd3d982ed72",
      "transactionType": "CALL",
      "contractName": null,
      "contractAddress": "0x2e505c38656ae7e6b1134f48b0daf6f725a6eaeb",
      "function": "multicall(bytes[])",
      "arguments": [
        "[0x7d39aaf10000000000000000000000002e45d737b1d3ca3c6fb4cb82193e0e3d7444e4bd000000000000000000000000000000000000000000000000000000003b9aca00, 0xe6d66ac80000000000000000000000001889cfb8746716a0ac50e59a54f190987c5f04e60000000000000000000000002e45d737b1d3ca3c6fb4cb82193e0e3d7444e4bd00000000000000000000000000000000000000000000000000005af3107a4000, 0xe6d66ac800000000000000000000000058389610a3d13e8f380ee2ba077a6f36f2a908340000000000000000000000002e45d737b1d3ca3c6fb4cb82193e0e3d7444e4bd00000000000000000000000000000000000000000000000000000045d964b800, 0x293953b80000000000000000000000006efb11ac41b6657c32dac5ed4874082c700bba29000000000000000000000000000000000000000000000000000000000000000000000000000000000000000041b38fcc7eb3365393d5a2228d14d34c8f8418280000000000000000000000001889cfb8746716a0ac50e59a54f190987c5f04e600000000000000000000000058389610a3d13e8f380ee2ba077a6f36f2a908340000000000000000000000000000000000000000000000000000000000000000000000000000000000000000000000000000000000000000000000003b9aca00]"
      ],
      "transaction": {
        "from": "0x6efb11ac41b6657c32dac5ed4874082c700bba29",
        "to": "0x2e505c38656ae7e6b1134f48b0daf6f725a6eaeb",
        "gas": "0x7b0c6",
        "value": "0x0",
        "input": "0xac9650d8000000000000000000000000000000000000000000000000000000000000002000000000000000000000000000000000000000000000000000000000000000040000000000000000000000000000000000000000000000000000000000000080000000000000000000000000000000000000000000000000000000000000010000000000000000000000000000000000000000000000000000000000000001a0000000000000000000000000000000000000000000000000000000000000024000000000000000000000000000000000000000000000000000000000000000447d39aaf10000000000000000000000002e45d737b1d3ca3c6fb4cb82193e0e3d7444e4bd000000000000000000000000000000000000000000000000000000003b9aca00000000000000000000000000000000000000000000000000000000000000000000000000000000000000000000000000000000000000000000000064e6d66ac80000000000000000000000001889cfb8746716a0ac50e59a54f190987c5f04e60000000000000000000000002e45d737b1d3ca3c6fb4cb82193e0e3d7444e4bd00000000000000000000000000000000000000000000000000005af3107a4000000000000000000000000000000000000000000000000000000000000000000000000000000000000000000000000000000000000000000000000064e6d66ac800000000000000000000000058389610a3d13e8f380ee2ba077a6f36f2a908340000000000000000000000002e45d737b1d3ca3c6fb4cb82193e0e3d7444e4bd00000000000000000000000000000000000000000000000000000045d964b8000000000000000000000000000000000000000000000000000000000000000000000000000000000000000000000000000000000000000000000000e4293953b80000000000000000000000006efb11ac41b6657c32dac5ed4874082c700bba29000000000000000000000000000000000000000000000000000000000000000000000000000000000000000041b38fcc7eb3365393d5a2228d14d34c8f8418280000000000000000000000001889cfb8746716a0ac50e59a54f190987c5f04e600000000000000000000000058389610a3d13e8f380ee2ba077a6f36f2a908340000000000000000000000000000000000000000000000000000000000000000000000000000000000000000000000000000000000000000000000003b9aca0000000000000000000000000000000000000000000000000000000000",
        "nonce": "0x182",
        "chainId": "0x279f"
      },
      "additionalContracts": [],
      "isFixedGasLimit": false
    },
    {
      "hash": "0x61f3d875f2ed3da0bab175585458663f37819fcd0dd35aca87e7241d706cd061",
      "transactionType": "CALL",
      "contractName": null,
      "contractAddress": "0x2e505c38656ae7e6b1134f48b0daf6f725a6eaeb",
      "function": "multicall(bytes[])",
      "arguments": [
        "[0x7d39aaf10000000000000000000000002e45d737b1d3ca3c6fb4cb82193e0e3d7444e4bd000000000000000000000000000000000000000000000000000000003b9aca00, 0xe6d66ac80000000000000000000000006bc8a42d4b2f4bc8e4c3f9ecff00b7290ffa74050000000000000000000000002e45d737b1d3ca3c6fb4cb82193e0e3d7444e4bd0000000000000000000000000000000000000000000069e10de76676d0800000, 0xe6d66ac800000000000000000000000058389610a3d13e8f380ee2ba077a6f36f2a908340000000000000000000000002e45d737b1d3ca3c6fb4cb82193e0e3d7444e4bd0000000000000000000000000000000000000000000000000000001176592e00, 0x293953b80000000000000000000000006efb11ac41b6657c32dac5ed4874082c700bba29000000000000000000000000000000000000000000000000000000000000000000000000000000000000000099bd3ff38f0dc9a819a0442f1d5ddbcd60072ece0000000000000000000000006bc8a42d4b2f4bc8e4c3f9ecff00b7290ffa740500000000000000000000000058389610a3d13e8f380ee2ba077a6f36f2a908340000000000000000000000000000000000000000000000000000000000000000000000000000000000000000000000000000000000000000000000003b9aca00]"
      ],
      "transaction": {
        "from": "0x6efb11ac41b6657c32dac5ed4874082c700bba29",
        "to": "0x2e505c38656ae7e6b1134f48b0daf6f725a6eaeb",
        "gas": "0x7b0d7",
        "value": "0x0",
        "input": "0xac9650d8000000000000000000000000000000000000000000000000000000000000002000000000000000000000000000000000000000000000000000000000000000040000000000000000000000000000000000000000000000000000000000000080000000000000000000000000000000000000000000000000000000000000010000000000000000000000000000000000000000000000000000000000000001a0000000000000000000000000000000000000000000000000000000000000024000000000000000000000000000000000000000000000000000000000000000447d39aaf10000000000000000000000002e45d737b1d3ca3c6fb4cb82193e0e3d7444e4bd000000000000000000000000000000000000000000000000000000003b9aca00000000000000000000000000000000000000000000000000000000000000000000000000000000000000000000000000000000000000000000000064e6d66ac80000000000000000000000006bc8a42d4b2f4bc8e4c3f9ecff00b7290ffa74050000000000000000000000002e45d737b1d3ca3c6fb4cb82193e0e3d7444e4bd0000000000000000000000000000000000000000000069e10de76676d0800000000000000000000000000000000000000000000000000000000000000000000000000000000000000000000000000000000000000000000000000064e6d66ac800000000000000000000000058389610a3d13e8f380ee2ba077a6f36f2a908340000000000000000000000002e45d737b1d3ca3c6fb4cb82193e0e3d7444e4bd0000000000000000000000000000000000000000000000000000001176592e000000000000000000000000000000000000000000000000000000000000000000000000000000000000000000000000000000000000000000000000e4293953b80000000000000000000000006efb11ac41b6657c32dac5ed4874082c700bba29000000000000000000000000000000000000000000000000000000000000000000000000000000000000000099bd3ff38f0dc9a819a0442f1d5ddbcd60072ece0000000000000000000000006bc8a42d4b2f4bc8e4c3f9ecff00b7290ffa740500000000000000000000000058389610a3d13e8f380ee2ba077a6f36f2a908340000000000000000000000000000000000000000000000000000000000000000000000000000000000000000000000000000000000000000000000003b9aca0000000000000000000000000000000000000000000000000000000000",
        "nonce": "0x183",
        "chainId": "0x279f"
      },
      "additionalContracts": [],
      "isFixedGasLimit": false
    },
    {
      "hash": "0xe37ef5bd95c3e001507c7a01394f2ce4fbfbae8986443071449d47cbd3b02fc0",
      "transactionType": "CALL",
      "contractName": null,
      "contractAddress": "0x2e505c38656ae7e6b1134f48b0daf6f725a6eaeb",
      "function": "multicall(bytes[])",
      "arguments": [
        "[0x7d39aaf10000000000000000000000002e45d737b1d3ca3c6fb4cb82193e0e3d7444e4bd000000000000000000000000000000000000000000000000000000003b9aca00, 0xe6d66ac8000000000000000000000000e3f98fda6dbd38c1017754f1675dce377381c23c0000000000000000000000002e45d737b1d3ca3c6fb4cb82193e0e3d7444e4bd00000000000000000000000000000000000000000000021e19e0c9bab2400000, 0xe6d66ac800000000000000000000000058389610a3d13e8f380ee2ba077a6f36f2a908340000000000000000000000002e45d737b1d3ca3c6fb4cb82193e0e3d7444e4bd00000000000000000000000000000000000000000000000000000068c6171400, 0x293953b80000000000000000000000006efb11ac41b6657c32dac5ed4874082c700bba290000000000000000000000000000000000000000000000000000000000000000000000000000000000000000339ae32f85f4a43b8dc0b685dc2d39179653ca01000000000000000000000000e3f98fda6dbd38c1017754f1675dce377381c23c00000000000000000000000058389610a3d13e8f380ee2ba077a6f36f2a908340000000000000000000000000000000000000000000000000000000000000000000000000000000000000000000000000000000000000000000000003b9aca00]"
      ],
      "transaction": {
        "from": "0x6efb11ac41b6657c32dac5ed4874082c700bba29",
        "to": "0x2e505c38656ae7e6b1134f48b0daf6f725a6eaeb",
        "gas": "0x7b0f8",
        "value": "0x0",
        "input": "0xac9650d8000000000000000000000000000000000000000000000000000000000000002000000000000000000000000000000000000000000000000000000000000000040000000000000000000000000000000000000000000000000000000000000080000000000000000000000000000000000000000000000000000000000000010000000000000000000000000000000000000000000000000000000000000001a0000000000000000000000000000000000000000000000000000000000000024000000000000000000000000000000000000000000000000000000000000000447d39aaf10000000000000000000000002e45d737b1d3ca3c6fb4cb82193e0e3d7444e4bd000000000000000000000000000000000000000000000000000000003b9aca00000000000000000000000000000000000000000000000000000000000000000000000000000000000000000000000000000000000000000000000064e6d66ac8000000000000000000000000e3f98fda6dbd38c1017754f1675dce377381c23c0000000000000000000000002e45d737b1d3ca3c6fb4cb82193e0e3d7444e4bd00000000000000000000000000000000000000000000021e19e0c9bab2400000000000000000000000000000000000000000000000000000000000000000000000000000000000000000000000000000000000000000000000000064e6d66ac800000000000000000000000058389610a3d13e8f380ee2ba077a6f36f2a908340000000000000000000000002e45d737b1d3ca3c6fb4cb82193e0e3d7444e4bd00000000000000000000000000000000000000000000000000000068c61714000000000000000000000000000000000000000000000000000000000000000000000000000000000000000000000000000000000000000000000000e4293953b80000000000000000000000006efb11ac41b6657c32dac5ed4874082c700bba290000000000000000000000000000000000000000000000000000000000000000000000000000000000000000339ae32f85f4a43b8dc0b685dc2d39179653ca01000000000000000000000000e3f98fda6dbd38c1017754f1675dce377381c23c00000000000000000000000058389610a3d13e8f380ee2ba077a6f36f2a908340000000000000000000000000000000000000000000000000000000000000000000000000000000000000000000000000000000000000000000000003b9aca0000000000000000000000000000000000000000000000000000000000",
        "nonce": "0x184",
        "chainId": "0x279f"
      },
      "additionalContracts": [],
      "isFixedGasLimit": false
    }
  ],
  "receipts": [
    {
      "status": "0x1",
      "cumulativeGasUsed": "0x292fd9",
      "logs": [
        {
          "address": "0x2c53ce7143d24a65410107f50e4aabad9a164480",
          "topics": [
            "0xddf252ad1be2c89b69c2b068fc378daa952ba7f163c4a11628f55a4df523b3ef",
            "0x0000000000000000000000000000000000000000000000000000000000000000",
            "0x0000000000000000000000006efb11ac41b6657c32dac5ed4874082c700bba29"
          ],
          "data": "0x00000000000000000000000000000000000000000000021e19e0c9bab2400000",
          "blockHash": "0x71959c5bf4aab4c5d0e503c184f3f266e753460dd70c8264e36161b21540c2ce",
          "blockNumber": "0x728f6b",
          "blockTimestamp": "0x67d21db2",
          "transactionHash": "0xad6eaee6552db2b3875acf9bebe9daab8b897c93ad721da7fdf960f71dc529fb",
          "transactionIndex": "0x14",
          "logIndex": "0x25",
          "removed": false
        }
      ],
      "logsBloom": "0x00000000000000000200000000000000000000000000000000000000000000000000000000000000000000000000000000001000000100000000000000000000000000000000000000000008000000000000000000000000000000000000000000000000020000000000000000000800000000000000000000000010000000000000000000000000000000000000000000000000000000000000000000000000000000000000000000000000000000000000000000000000000001000000000000000002000000000000000000000000000000010000000000000000000020000000001000000000000000000000000000000000000000000000000000000000",
      "type": "0x0",
      "transactionHash": "0xad6eaee6552db2b3875acf9bebe9daab8b897c93ad721da7fdf960f71dc529fb",
      "transactionIndex": "0x14",
      "blockHash": "0x71959c5bf4aab4c5d0e503c184f3f266e753460dd70c8264e36161b21540c2ce",
      "blockNumber": "0x728f6b",
      "gasUsed": "0xc1c9",
      "effectiveGasPrice": "0xc1b710800",
      "from": "0x6efb11ac41b6657c32dac5ed4874082c700bba29",
      "to": "0x2c53ce7143d24a65410107f50e4aabad9a164480",
      "contractAddress": null
    },
    {
      "status": "0x1",
      "cumulativeGasUsed": "0x29f1a2",
      "logs": [
        {
          "address": "0x53f7c389cbb801e2abfd301ded6d2a1cf330ac0d",
          "topics": [
            "0xddf252ad1be2c89b69c2b068fc378daa952ba7f163c4a11628f55a4df523b3ef",
            "0x0000000000000000000000000000000000000000000000000000000000000000",
            "0x0000000000000000000000006efb11ac41b6657c32dac5ed4874082c700bba29"
          ],
          "data": "0x00000000000000000000000000000000000000000000021e19e0c9bab2400000",
          "blockHash": "0x71959c5bf4aab4c5d0e503c184f3f266e753460dd70c8264e36161b21540c2ce",
          "blockNumber": "0x728f6b",
          "blockTimestamp": "0x67d21db2",
          "transactionHash": "0xee747b959989a964f7409bb0949e355f8f8098e094d23d16c1aa56fd963c0df5",
          "transactionIndex": "0x15",
          "logIndex": "0x26",
          "removed": false
        }
      ],
      "logsBloom": "0x00000000000000000200000002000000000000000000000000000000000000000000000000000000000000000000000000000000000100000000000000000000000000000000000000000008000000000000000000000000000000000000000000000000020000000000000000000800000000000000000000000010000000000000000000000000000000000000000000000000000000000000000000000000000000000010000000000000000000000000000000000000000001000000000000000002000000000000000000000000000000000000000000000000000020000000000000000000000000000000000000000000000000000008000000000000",
      "type": "0x0",
      "transactionHash": "0xee747b959989a964f7409bb0949e355f8f8098e094d23d16c1aa56fd963c0df5",
      "transactionIndex": "0x15",
      "blockHash": "0x71959c5bf4aab4c5d0e503c184f3f266e753460dd70c8264e36161b21540c2ce",
      "blockNumber": "0x728f6b",
      "gasUsed": "0xc1c9",
      "effectiveGasPrice": "0xc1b710800",
      "from": "0x6efb11ac41b6657c32dac5ed4874082c700bba29",
      "to": "0x53f7c389cbb801e2abfd301ded6d2a1cf330ac0d",
      "contractAddress": null
    },
    {
      "status": "0x1",
      "cumulativeGasUsed": "0x49a62e",
      "logs": [
        {
          "address": "0xf9861d7478f8957679b26404bd6272c39f949c29",
          "topics": [
            "0xddf252ad1be2c89b69c2b068fc378daa952ba7f163c4a11628f55a4df523b3ef",
            "0x0000000000000000000000000000000000000000000000000000000000000000",
            "0x0000000000000000000000006efb11ac41b6657c32dac5ed4874082c700bba29"
          ],
          "data": "0x000000000000000000000000000000000000000000084595161401484a000000",
          "blockHash": "0x5c5c8b9a21c0a4358d1143610c0af10c2d156048d8519505a8ead132e5d045a5",
          "blockNumber": "0x728f6c",
          "blockTimestamp": "0x67d21db3",
          "transactionHash": "0xeaf67d90c14459b1ca5f2b37a522a83089edeb7575bacf2f8de52793553e768f",
          "transactionIndex": "0x27",
          "logIndex": "0x6a",
          "removed": false
        }
      ],
      "logsBloom": "0x00000000000000000200000000000000000000000000000000000000000000000000000000000000000000000000000000000000000100000000000000000000000000000000000000000008000000000000000000000000000000000000000000000000060000000000000000000800000000000000000000000010000000000000000000000000000000000000000000000000000000000000000000000000000000000000000000040000000000000000000000000000000001000000000000000002080000000000000000000000000000000000000000000000000020000000000000000000000000000000000000000000000000000000000000000000",
      "type": "0x0",
      "transactionHash": "0xeaf67d90c14459b1ca5f2b37a522a83089edeb7575bacf2f8de52793553e768f",
      "transactionIndex": "0x27",
      "blockHash": "0x5c5c8b9a21c0a4358d1143610c0af10c2d156048d8519505a8ead132e5d045a5",
      "blockNumber": "0x728f6c",
      "gasUsed": "0xc1c9",
      "effectiveGasPrice": "0xc1b710800",
      "from": "0x6efb11ac41b6657c32dac5ed4874082c700bba29",
      "to": "0xf9861d7478f8957679b26404bd6272c39f949c29",
      "contractAddress": null
    },
    {
      "status": "0x1",
      "cumulativeGasUsed": "0x4a5d00",
      "logs": [
        {
          "address": "0x1889cfb8746716a0ac50e59a54f190987c5f04e6",
          "topics": [
            "0xddf252ad1be2c89b69c2b068fc378daa952ba7f163c4a11628f55a4df523b3ef",
            "0x0000000000000000000000000000000000000000000000000000000000000000",
            "0x0000000000000000000000006efb11ac41b6657c32dac5ed4874082c700bba29"
          ],
          "data": "0x00000000000000000000000000000000000000000000000000005af3107a4000",
          "blockHash": "0x5c5c8b9a21c0a4358d1143610c0af10c2d156048d8519505a8ead132e5d045a5",
          "blockNumber": "0x728f6c",
          "blockTimestamp": "0x67d21db3",
          "transactionHash": "0x1302a5d24c432d71c9ace5a4b75d4fdd1b190c98eedc5552e84c8764afe8e7b4",
          "transactionIndex": "0x28",
          "logIndex": "0x6b",
          "removed": false
        }
      ],
      "logsBloom": "0x00000000000000000200000000000000000000000000000000000000000000000000000000000000000000000000000000000000000100000000000000000000000000000000000000000008000000000000000000000000000400000000000000000000020000000000000000000800000000000000000000000010000000000000000000000000000000000000000000000000000000000000000000000000000000000000100000000000000000000000000000000000000001000000000000000002000000000000000000000000000000000000000000000000000020000000000080000000000000000000000000000000000000000000000000000000",
      "type": "0x0",
      "transactionHash": "0x1302a5d24c432d71c9ace5a4b75d4fdd1b190c98eedc5552e84c8764afe8e7b4",
      "transactionIndex": "0x28",
      "blockHash": "0x5c5c8b9a21c0a4358d1143610c0af10c2d156048d8519505a8ead132e5d045a5",
      "blockNumber": "0x728f6c",
      "gasUsed": "0xb6d2",
      "effectiveGasPrice": "0xc1b710800",
      "from": "0x6efb11ac41b6657c32dac5ed4874082c700bba29",
      "to": "0x1889cfb8746716a0ac50e59a54f190987c5f04e6",
      "contractAddress": null
    },
    {
      "status": "0x1",
      "cumulativeGasUsed": "0x4b1ec9",
      "logs": [
        {
          "address": "0x6bc8a42d4b2f4bc8e4c3f9ecff00b7290ffa7405",
          "topics": [
            "0xddf252ad1be2c89b69c2b068fc378daa952ba7f163c4a11628f55a4df523b3ef",
            "0x0000000000000000000000000000000000000000000000000000000000000000",
            "0x0000000000000000000000006efb11ac41b6657c32dac5ed4874082c700bba29"
          ],
          "data": "0x00000000000000000000000000000000000000000000152d02c7e14af6800000",
          "blockHash": "0x5c5c8b9a21c0a4358d1143610c0af10c2d156048d8519505a8ead132e5d045a5",
          "blockNumber": "0x728f6c",
          "blockTimestamp": "0x67d21db3",
          "transactionHash": "0xa012d97e8eaf7954b41375c0ce7693ca698e025776b793df24b19939e146d1b7",
          "transactionIndex": "0x29",
          "logIndex": "0x6c",
          "removed": false
        }
      ],
      "logsBloom": "0x00000000000000000200000000000000000000000000000000000000000000000000000000000000000000000000000000002000000100000400000000000000000000000000000000000008000000000000000000000000000000000000000000000000020000000000000000000800000000000000000000000010000000000000000000000000000000000000000000000000000000000000000000000000000000000200000000000000000000000000000000000000000001000000000000000002000000000000000000000000000000000000000000000000000020000000000000000000000000000000000000000000000000000000000000000000",
      "type": "0x0",
      "transactionHash": "0xa012d97e8eaf7954b41375c0ce7693ca698e025776b793df24b19939e146d1b7",
      "transactionIndex": "0x29",
      "blockHash": "0x5c5c8b9a21c0a4358d1143610c0af10c2d156048d8519505a8ead132e5d045a5",
      "blockNumber": "0x728f6c",
      "gasUsed": "0xc1c9",
      "effectiveGasPrice": "0xc1b710800",
      "from": "0x6efb11ac41b6657c32dac5ed4874082c700bba29",
      "to": "0x6bc8a42d4b2f4bc8e4c3f9ecff00b7290ffa7405",
      "contractAddress": null
    },
    {
      "status": "0x1",
      "cumulativeGasUsed": "0x4be092",
      "logs": [
        {
          "address": "0xe3f98fda6dbd38c1017754f1675dce377381c23c",
          "topics": [
            "0xddf252ad1be2c89b69c2b068fc378daa952ba7f163c4a11628f55a4df523b3ef",
            "0x0000000000000000000000000000000000000000000000000000000000000000",
            "0x0000000000000000000000006efb11ac41b6657c32dac5ed4874082c700bba29"
          ],
          "data": "0x00000000000000000000000000000000000000000000021e19e0c9bab2400000",
          "blockHash": "0x5c5c8b9a21c0a4358d1143610c0af10c2d156048d8519505a8ead132e5d045a5",
          "blockNumber": "0x728f6c",
          "blockTimestamp": "0x67d21db3",
          "transactionHash": "0x2c8062784e4ecdca79ebadef7e12daad2c02dfa37bd7b47372a7c0500463e6cc",
          "transactionIndex": "0x2a",
          "logIndex": "0x6d",
          "removed": false
        }
      ],
      "logsBloom": "0x00000000000000002200000000000000000000000000000000000000000000000000000000000000000000000000000000000000000100000000000000000000000000000000000000000008000000000000000000000000000000000000000000000000020000000000000000000800000000000000000000000010000000000000000000000000000000000000000000000000000000000020000000000000000000000000000000000000000020000000000000000000000001000000000000000002000000000000000000000000000000000000000000000000000020000000000000000000000000000000000000000000000000000000000000000000",
      "type": "0x0",
      "transactionHash": "0x2c8062784e4ecdca79ebadef7e12daad2c02dfa37bd7b47372a7c0500463e6cc",
      "transactionIndex": "0x2a",
      "blockHash": "0x5c5c8b9a21c0a4358d1143610c0af10c2d156048d8519505a8ead132e5d045a5",
      "blockNumber": "0x728f6c",
      "gasUsed": "0xc1c9",
      "effectiveGasPrice": "0xc1b710800",
      "from": "0x6efb11ac41b6657c32dac5ed4874082c700bba29",
      "to": "0xe3f98fda6dbd38c1017754f1675dce377381c23c",
      "contractAddress": null
    },
    {
      "status": "0x1",
      "cumulativeGasUsed": "0x4ca238",
      "logs": [
        {
          "address": "0x58389610a3d13e8f380ee2ba077a6f36f2a90834",
          "topics": [
            "0xddf252ad1be2c89b69c2b068fc378daa952ba7f163c4a11628f55a4df523b3ef",
            "0x0000000000000000000000000000000000000000000000000000000000000000",
            "0x0000000000000000000000006efb11ac41b6657c32dac5ed4874082c700bba29"
          ],
          "data": "0x000000000000000000000000000000000000000000000000016345785d8a0000",
          "blockHash": "0x5c5c8b9a21c0a4358d1143610c0af10c2d156048d8519505a8ead132e5d045a5",
          "blockNumber": "0x728f6c",
          "blockTimestamp": "0x67d21db3",
          "transactionHash": "0xecad5895f0a4f902a5b090be6931fceed08726b84dcfede43da66a1cfffef909",
          "transactionIndex": "0x2b",
          "logIndex": "0x6e",
          "removed": false
        }
      ],
      "logsBloom": "0x00000000000000000200000000000000000000000000000000000000000000000000000000000000000000000000000000000000000100000000000000000000000000000000000000000008000000000000000000000400001000000000000000000000020000000000000000000800000000000000000000000010000000000000000000000000000000000000000000000000000000000000000000000000000000000000000000000000000000040000000000000000000001000000000000000002000000000000000000000000000000000000000000000000000020000000000000000000000000000000000000000000000000000000000000000000",
      "type": "0x0",
      "transactionHash": "0xecad5895f0a4f902a5b090be6931fceed08726b84dcfede43da66a1cfffef909",
      "transactionIndex": "0x2b",
      "blockHash": "0x5c5c8b9a21c0a4358d1143610c0af10c2d156048d8519505a8ead132e5d045a5",
      "blockNumber": "0x728f6c",
      "gasUsed": "0xc1a6",
      "effectiveGasPrice": "0xc1b710800",
      "from": "0x6efb11ac41b6657c32dac5ed4874082c700bba29",
      "to": "0x58389610a3d13e8f380ee2ba077a6f36f2a90834",
      "contractAddress": null
    },
    {
      "status": "0x1",
      "cumulativeGasUsed": "0x4def70",
      "logs": [
        {
          "address": "0x2c53ce7143d24a65410107f50e4aabad9a164480",
          "topics": [
            "0x8c5be1e5ebec7d5bd14f71427d1e84f3dd0314c0f7b2291e5b200ac8c7c3b925",
            "0x0000000000000000000000006efb11ac41b6657c32dac5ed4874082c700bba29",
            "0x0000000000000000000000002e505c38656ae7e6b1134f48b0daf6f725a6eaeb"
          ],
          "data": "0xffffffffffffffffffffffffffffffffffffffffffffffffffffffffffffffff",
          "blockHash": "0x5c5c8b9a21c0a4358d1143610c0af10c2d156048d8519505a8ead132e5d045a5",
          "blockNumber": "0x728f6c",
          "blockTimestamp": "0x67d21db3",
          "transactionHash": "0x98bdb6b259703b21d1acb996aa3992bd29f4ea0adfa8e5787a3c221a9e461d9b",
          "transactionIndex": "0x2d",
          "logIndex": "0x70",
          "removed": false
        }
      ],
      "logsBloom": "0x00000000000000000200000000000000000000000000000000000000000000000000000000000000000000000000000000001000000100000000000000200000000000000000000000000000000000000000000000000000000000000000000000000000000000000000000080000000000000000000010000000010000000000000000000000000000000000000000000000000000000000000000000000000020000000000000000000000000000000000000000000000000001000000000000000000000000000000000000000000000000010000000000000000000000000010001000000000000000000000000000000000000000000000000000000000",
      "type": "0x0",
      "transactionHash": "0x98bdb6b259703b21d1acb996aa3992bd29f4ea0adfa8e5787a3c221a9e461d9b",
      "transactionIndex": "0x2d",
      "blockHash": "0x5c5c8b9a21c0a4358d1143610c0af10c2d156048d8519505a8ead132e5d045a5",
      "blockNumber": "0x728f6c",
      "gasUsed": "0x96a4",
      "effectiveGasPrice": "0xc1b710800",
      "from": "0x6efb11ac41b6657c32dac5ed4874082c700bba29",
      "to": "0x2c53ce7143d24a65410107f50e4aabad9a164480",
      "contractAddress": null
    },
    {
      "status": "0x1",
      "cumulativeGasUsed": "0x4e8614",
      "logs": [
        {
          "address": "0x53f7c389cbb801e2abfd301ded6d2a1cf330ac0d",
          "topics": [
            "0x8c5be1e5ebec7d5bd14f71427d1e84f3dd0314c0f7b2291e5b200ac8c7c3b925",
            "0x0000000000000000000000006efb11ac41b6657c32dac5ed4874082c700bba29",
            "0x0000000000000000000000002e505c38656ae7e6b1134f48b0daf6f725a6eaeb"
          ],
          "data": "0xffffffffffffffffffffffffffffffffffffffffffffffffffffffffffffffff",
          "blockHash": "0x5c5c8b9a21c0a4358d1143610c0af10c2d156048d8519505a8ead132e5d045a5",
          "blockNumber": "0x728f6c",
          "blockTimestamp": "0x67d21db3",
          "transactionHash": "0xdcf2a2d5516d569fbd56aa558154e15b3f04e5f90a83f536fb03bda21492bb95",
          "transactionIndex": "0x2e",
          "logIndex": "0x71",
          "removed": false
        }
      ],
      "logsBloom": "0x00000000000000000200000002000000000000000000000000000000000000000000000000000000000000000000000000000000000100000000000000200000000000000000000000000000000000000000000000000000000000000000000000000000000000000000000080000000000000000000010000000010000000000000000000000000000000000000000000000000000000000000000000000000020000000010000000000000000000000000000000000000000001000000000000000000000000000000000000000000000000000000000000000000000000000010000000000000000000000000000000000000000000000008000000000000",
      "type": "0x0",
      "transactionHash": "0xdcf2a2d5516d569fbd56aa558154e15b3f04e5f90a83f536fb03bda21492bb95",
      "transactionIndex": "0x2e",
      "blockHash": "0x5c5c8b9a21c0a4358d1143610c0af10c2d156048d8519505a8ead132e5d045a5",
      "blockNumber": "0x728f6c",
      "gasUsed": "0x96a4",
      "effectiveGasPrice": "0xc1b710800",
      "from": "0x6efb11ac41b6657c32dac5ed4874082c700bba29",
      "to": "0x53f7c389cbb801e2abfd301ded6d2a1cf330ac0d",
      "contractAddress": null
    },
    {
      "status": "0x1",
      "cumulativeGasUsed": "0x4f1cb8",
      "logs": [
        {
          "address": "0xf9861d7478f8957679b26404bd6272c39f949c29",
          "topics": [
            "0x8c5be1e5ebec7d5bd14f71427d1e84f3dd0314c0f7b2291e5b200ac8c7c3b925",
            "0x0000000000000000000000006efb11ac41b6657c32dac5ed4874082c700bba29",
            "0x0000000000000000000000002e505c38656ae7e6b1134f48b0daf6f725a6eaeb"
          ],
          "data": "0xffffffffffffffffffffffffffffffffffffffffffffffffffffffffffffffff",
          "blockHash": "0x5c5c8b9a21c0a4358d1143610c0af10c2d156048d8519505a8ead132e5d045a5",
          "blockNumber": "0x728f6c",
          "blockTimestamp": "0x67d21db3",
          "transactionHash": "0x9987c6bc5dd3ca2c8e4927dbaca4d99ed508d0faf0b450311211aab73a3ed724",
          "transactionIndex": "0x2f",
          "logIndex": "0x72",
          "removed": false
        }
      ],
      "logsBloom": "0x00000000000000000200000000000000000000000000000000000000000000000000000000000000000000000000000000000000000100000000000000200000000000000000000000000000000000000000000000000000000000000000000000000000040000000000000080000000000000000000010000000010000000000000000000000000000000000000000000000000000000000000000000000000020000000000000000040000000000000000000000000000000001000000000000000000080000000000000000000000000000000000000000000000000000000010000000000000000000000000000000000000000000000000000000000000",
      "type": "0x0",
      "transactionHash": "0x9987c6bc5dd3ca2c8e4927dbaca4d99ed508d0faf0b450311211aab73a3ed724",
      "transactionIndex": "0x2f",
      "blockHash": "0x5c5c8b9a21c0a4358d1143610c0af10c2d156048d8519505a8ead132e5d045a5",
      "blockNumber": "0x728f6c",
      "gasUsed": "0x96a4",
      "effectiveGasPrice": "0xc1b710800",
      "from": "0x6efb11ac41b6657c32dac5ed4874082c700bba29",
      "to": "0xf9861d7478f8957679b26404bd6272c39f949c29",
      "contractAddress": null
    },
    {
      "status": "0x1",
      "cumulativeGasUsed": "0x4fb35c",
      "logs": [
        {
          "address": "0x1889cfb8746716a0ac50e59a54f190987c5f04e6",
          "topics": [
            "0x8c5be1e5ebec7d5bd14f71427d1e84f3dd0314c0f7b2291e5b200ac8c7c3b925",
            "0x0000000000000000000000006efb11ac41b6657c32dac5ed4874082c700bba29",
            "0x0000000000000000000000002e505c38656ae7e6b1134f48b0daf6f725a6eaeb"
          ],
          "data": "0xffffffffffffffffffffffffffffffffffffffffffffffffffffffffffffffff",
          "blockHash": "0x5c5c8b9a21c0a4358d1143610c0af10c2d156048d8519505a8ead132e5d045a5",
          "blockNumber": "0x728f6c",
          "blockTimestamp": "0x67d21db3",
          "transactionHash": "0x92c0f9917350132c395268763496ff4a8b7c1cd88577c8bea5ff811d380ba64a",
          "transactionIndex": "0x30",
          "logIndex": "0x73",
          "removed": false
        }
      ],
      "logsBloom": "0x00000000000000000200000000000000000000000000000000000000000000000000000000000000000000000000000000000000000100000000000000200000000000000000000000000000000000000000000000000000000400000000000000000000000000000000000080000000000000000000010000000010000000000000000000000000000000000000000000000000000000000000000000000000020000000000100000000000000000000000000000000000000001000000000000000000000000000000000000000000000000000000000000000000000000000010000080000000000000000000000000000000000000000000000000000000",
      "type": "0x0",
      "transactionHash": "0x92c0f9917350132c395268763496ff4a8b7c1cd88577c8bea5ff811d380ba64a",
      "transactionIndex": "0x30",
      "blockHash": "0x5c5c8b9a21c0a4358d1143610c0af10c2d156048d8519505a8ead132e5d045a5",
      "blockNumber": "0x728f6c",
      "gasUsed": "0x96a4",
      "effectiveGasPrice": "0xc1b710800",
      "from": "0x6efb11ac41b6657c32dac5ed4874082c700bba29",
      "to": "0x1889cfb8746716a0ac50e59a54f190987c5f04e6",
      "contractAddress": null
    },
    {
      "status": "0x1",
      "cumulativeGasUsed": "0x504a00",
      "logs": [
        {
          "address": "0x6bc8a42d4b2f4bc8e4c3f9ecff00b7290ffa7405",
          "topics": [
            "0x8c5be1e5ebec7d5bd14f71427d1e84f3dd0314c0f7b2291e5b200ac8c7c3b925",
            "0x0000000000000000000000006efb11ac41b6657c32dac5ed4874082c700bba29",
            "0x0000000000000000000000002e505c38656ae7e6b1134f48b0daf6f725a6eaeb"
          ],
          "data": "0xffffffffffffffffffffffffffffffffffffffffffffffffffffffffffffffff",
          "blockHash": "0x5c5c8b9a21c0a4358d1143610c0af10c2d156048d8519505a8ead132e5d045a5",
          "blockNumber": "0x728f6c",
          "blockTimestamp": "0x67d21db3",
          "transactionHash": "0x8e4cec86f7e755f7682b4ced8908b1ec0068aa1631666aa141cfc0f443193abc",
          "transactionIndex": "0x31",
          "logIndex": "0x74",
          "removed": false
        }
      ],
      "logsBloom": "0x00000000000000000200000000000000000000000000000000000000000000000000000000000000000000000000000000002000000100000400000000200000000000000000000000000000000000000000000000000000000000000000000000000000000000000000000080000000000000000000010000000010000000000000000000000000000000000000000000000000000000000000000000000000020000000200000000000000000000000000000000000000000001000000000000000000000000000000000000000000000000000000000000000000000000000010000000000000000000000000000000000000000000000000000000000000",
      "type": "0x0",
      "transactionHash": "0x8e4cec86f7e755f7682b4ced8908b1ec0068aa1631666aa141cfc0f443193abc",
      "transactionIndex": "0x31",
      "blockHash": "0x5c5c8b9a21c0a4358d1143610c0af10c2d156048d8519505a8ead132e5d045a5",
      "blockNumber": "0x728f6c",
      "gasUsed": "0x96a4",
      "effectiveGasPrice": "0xc1b710800",
      "from": "0x6efb11ac41b6657c32dac5ed4874082c700bba29",
      "to": "0x6bc8a42d4b2f4bc8e4c3f9ecff00b7290ffa7405",
      "contractAddress": null
    },
    {
      "status": "0x1",
      "cumulativeGasUsed": "0x50e0a4",
      "logs": [
        {
          "address": "0xe3f98fda6dbd38c1017754f1675dce377381c23c",
          "topics": [
            "0x8c5be1e5ebec7d5bd14f71427d1e84f3dd0314c0f7b2291e5b200ac8c7c3b925",
            "0x0000000000000000000000006efb11ac41b6657c32dac5ed4874082c700bba29",
            "0x0000000000000000000000002e505c38656ae7e6b1134f48b0daf6f725a6eaeb"
          ],
          "data": "0xffffffffffffffffffffffffffffffffffffffffffffffffffffffffffffffff",
          "blockHash": "0x5c5c8b9a21c0a4358d1143610c0af10c2d156048d8519505a8ead132e5d045a5",
          "blockNumber": "0x728f6c",
          "blockTimestamp": "0x67d21db3",
          "transactionHash": "0x8c0e97e9a79f7fb04c2e96c83f10afe47b74d1890d737296cd2340a841f6516a",
          "transactionIndex": "0x32",
          "logIndex": "0x75",
          "removed": false
        }
      ],
      "logsBloom": "0x00000000000000002200000000000000000000000000000000000000000000000000000000000000000000000000000000000000000100000000000000200000000000000000000000000000000000000000000000000000000000000000000000000000000000000000000080000000000000000000010000000010000000000000000000000000000000000000000000000000000000000020000000000000020000000000000000000000000020000000000000000000000001000000000000000000000000000000000000000000000000000000000000000000000000000010000000000000000000000000000000000000000000000000000000000000",
      "type": "0x0",
      "transactionHash": "0x8c0e97e9a79f7fb04c2e96c83f10afe47b74d1890d737296cd2340a841f6516a",
      "transactionIndex": "0x32",
      "blockHash": "0x5c5c8b9a21c0a4358d1143610c0af10c2d156048d8519505a8ead132e5d045a5",
      "blockNumber": "0x728f6c",
      "gasUsed": "0x96a4",
      "effectiveGasPrice": "0xc1b710800",
      "from": "0x6efb11ac41b6657c32dac5ed4874082c700bba29",
      "to": "0xe3f98fda6dbd38c1017754f1675dce377381c23c",
      "contractAddress": null
    },
    {
      "status": "0x1",
      "cumulativeGasUsed": "0x517748",
      "logs": [
        {
          "address": "0x58389610a3d13e8f380ee2ba077a6f36f2a90834",
          "topics": [
            "0x8c5be1e5ebec7d5bd14f71427d1e84f3dd0314c0f7b2291e5b200ac8c7c3b925",
            "0x0000000000000000000000006efb11ac41b6657c32dac5ed4874082c700bba29",
            "0x0000000000000000000000002e505c38656ae7e6b1134f48b0daf6f725a6eaeb"
          ],
          "data": "0xffffffffffffffffffffffffffffffffffffffffffffffffffffffffffffffff",
          "blockHash": "0x5c5c8b9a21c0a4358d1143610c0af10c2d156048d8519505a8ead132e5d045a5",
          "blockNumber": "0x728f6c",
          "blockTimestamp": "0x67d21db3",
          "transactionHash": "0x45163887219303fc9da8e3e0933e87c688ad0c9ae51384b6cb62955a37e9c96a",
          "transactionIndex": "0x33",
          "logIndex": "0x76",
          "removed": false
        }
      ],
      "logsBloom": "0x00000000000000000200000000000000000000000000000000000000000000000000000000000000000000000000000000000000000100000000000000200000000000000000000000000000000000000000000000000400001000000000000000000000000000000000000080000000000000000000010000000010000000000000000000000000000000000000000000000000000000000000000000000000020000000000000000000000000000040000000000000000000001000000000000000000000000000000000000000000000000000000000000000000000000000010000000000000000000000000000000000000000000000000000000000000",
      "type": "0x0",
      "transactionHash": "0x45163887219303fc9da8e3e0933e87c688ad0c9ae51384b6cb62955a37e9c96a",
      "transactionIndex": "0x33",
      "blockHash": "0x5c5c8b9a21c0a4358d1143610c0af10c2d156048d8519505a8ead132e5d045a5",
      "blockNumber": "0x728f6c",
      "gasUsed": "0x96a4",
      "effectiveGasPrice": "0xc1b710800",
      "from": "0x6efb11ac41b6657c32dac5ed4874082c700bba29",
      "to": "0x58389610a3d13e8f380ee2ba077a6f36f2a90834",
      "contractAddress": null
    },
    {
      "status": "0x1",
      "cumulativeGasUsed": "0x596f5e",
      "logs": [
        {
          "address": "0x2c53ce7143d24a65410107f50e4aabad9a164480",
          "topics": [
            "0xddf252ad1be2c89b69c2b068fc378daa952ba7f163c4a11628f55a4df523b3ef",
            "0x0000000000000000000000006efb11ac41b6657c32dac5ed4874082c700bba29",
            "0x0000000000000000000000002e45d737b1d3ca3c6fb4cb82193e0e3d7444e4bd"
          ],
          "data": "0x000000000000000000000000000000000000000000000000000000003b9aca00",
          "blockHash": "0x5c5c8b9a21c0a4358d1143610c0af10c2d156048d8519505a8ead132e5d045a5",
          "blockNumber": "0x728f6c",
          "blockTimestamp": "0x67d21db3",
          "transactionHash": "0xc7c76f79614d286344eb2a08bee3d7f94623038295c6c791af27261ff94d9f55",
          "transactionIndex": "0x34",
          "logIndex": "0x77",
          "removed": false
        },
        {
          "address": "0x2c53ce7143d24a65410107f50e4aabad9a164480",
          "topics": [
            "0xddf252ad1be2c89b69c2b068fc378daa952ba7f163c4a11628f55a4df523b3ef",
            "0x0000000000000000000000006efb11ac41b6657c32dac5ed4874082c700bba29",
            "0x0000000000000000000000002e45d737b1d3ca3c6fb4cb82193e0e3d7444e4bd"
          ],
          "data": "0x0000000000000000000000000000000000000000000000056bc75e2d63100000",
          "blockHash": "0x5c5c8b9a21c0a4358d1143610c0af10c2d156048d8519505a8ead132e5d045a5",
          "blockNumber": "0x728f6c",
          "blockTimestamp": "0x67d21db3",
          "transactionHash": "0xc7c76f79614d286344eb2a08bee3d7f94623038295c6c791af27261ff94d9f55",
          "transactionIndex": "0x34",
          "logIndex": "0x78",
          "removed": false
        },
        {
          "address": "0x58389610a3d13e8f380ee2ba077a6f36f2a90834",
          "topics": [
            "0xddf252ad1be2c89b69c2b068fc378daa952ba7f163c4a11628f55a4df523b3ef",
            "0x0000000000000000000000006efb11ac41b6657c32dac5ed4874082c700bba29",
            "0x0000000000000000000000002e45d737b1d3ca3c6fb4cb82193e0e3d7444e4bd"
          ],
          "data": "0x0000000000000000000000000000000000000000000000000000008bb2c97000",
          "blockHash": "0x5c5c8b9a21c0a4358d1143610c0af10c2d156048d8519505a8ead132e5d045a5",
          "blockNumber": "0x728f6c",
          "blockTimestamp": "0x67d21db3",
          "transactionHash": "0xc7c76f79614d286344eb2a08bee3d7f94623038295c6c791af27261ff94d9f55",
          "transactionIndex": "0x34",
          "logIndex": "0x79",
          "removed": false
        },
        {
          "address": "0xf573e0745c3fa02b4a6739446c34c16de49fed52",
          "topics": [
            "0xd3d640118416a526ad33075973727e1675055b2b31a8351bc74271d75fccef9b"
          ],
          "data": "0x00000000000000000000000000000000000000000000000000000000000000060000000000000000000000006efb11ac41b6657c32dac5ed4874082c700bba290000000000000000000000006efb11ac41b6657c32dac5ed4874082c700bba2900000000000000000000000000000000000000000000000000000000000000000000000000000000000000004c51d8a789b0029cf47c2366eebf6205a09d929b0000000000000000000000002c53ce7143d24a65410107f50e4aabad9a16448000000000000000000000000058389610a3d13e8f380ee2ba077a6f36f2a90834000000000000000000000000000000000000000000000000000000003b9aca000000000000000000000000000000000000000000000000056bc75e2d631000000000000000000000000000000000000000000000000000000000008bb2c97000",
          "blockHash": "0x5c5c8b9a21c0a4358d1143610c0af10c2d156048d8519505a8ead132e5d045a5",
          "blockNumber": "0x728f6c",
          "blockTimestamp": "0x67d21db3",
          "transactionHash": "0xc7c76f79614d286344eb2a08bee3d7f94623038295c6c791af27261ff94d9f55",
          "transactionIndex": "0x34",
          "logIndex": "0x7a",
          "removed": false
        }
      ],
      "logsBloom": "0x00000000000000000200000000000000000000000000000000000000040000000000000000100000000000000000000000001000000100000000000000000000000000000000000000000008000000000000000000000400001000000000108000000000000000000000000200000000000000000000000000000010200000000000000000000000000000000000000000000000000000000008000000000000000000000000000000000000000000040000000000000000000001000000000000000002000080000000000000000000000000010000000000000000000000000000001000000000000000000000000000000000000000000000000000800000",
      "type": "0x0",
      "transactionHash": "0xc7c76f79614d286344eb2a08bee3d7f94623038295c6c791af27261ff94d9f55",
      "transactionIndex": "0x34",
      "blockHash": "0x5c5c8b9a21c0a4358d1143610c0af10c2d156048d8519505a8ead132e5d045a5",
      "blockNumber": "0x728f6c",
      "gasUsed": "0x7f816",
      "effectiveGasPrice": "0xc1b710800",
      "from": "0x6efb11ac41b6657c32dac5ed4874082c700bba29",
      "to": "0x2e505c38656ae7e6b1134f48b0daf6f725a6eaeb",
      "contractAddress": null
    },
    {
      "status": "0x1",
      "cumulativeGasUsed": "0x612056",
      "logs": [
        {
          "address": "0x2c53ce7143d24a65410107f50e4aabad9a164480",
          "topics": [
            "0xddf252ad1be2c89b69c2b068fc378daa952ba7f163c4a11628f55a4df523b3ef",
            "0x0000000000000000000000006efb11ac41b6657c32dac5ed4874082c700bba29",
            "0x0000000000000000000000002e45d737b1d3ca3c6fb4cb82193e0e3d7444e4bd"
          ],
          "data": "0x000000000000000000000000000000000000000000000000000000003b9aca00",
          "blockHash": "0x5c5c8b9a21c0a4358d1143610c0af10c2d156048d8519505a8ead132e5d045a5",
          "blockNumber": "0x728f6c",
          "blockTimestamp": "0x67d21db3",
          "transactionHash": "0x472147370f04aefe47dedc6e2694ce3ad537bba1a81274d3001dd5b4a3779201",
          "transactionIndex": "0x35",
          "logIndex": "0x7b",
          "removed": false
        },
        {
          "address": "0x53f7c389cbb801e2abfd301ded6d2a1cf330ac0d",
          "topics": [
            "0xddf252ad1be2c89b69c2b068fc378daa952ba7f163c4a11628f55a4df523b3ef",
            "0x0000000000000000000000006efb11ac41b6657c32dac5ed4874082c700bba29",
            "0x0000000000000000000000002e45d737b1d3ca3c6fb4cb82193e0e3d7444e4bd"
          ],
          "data": "0x000000000000000000000000000000000000000000000002b5e3af16b1880000",
          "blockHash": "0x5c5c8b9a21c0a4358d1143610c0af10c2d156048d8519505a8ead132e5d045a5",
          "blockNumber": "0x728f6c",
          "blockTimestamp": "0x67d21db3",
          "transactionHash": "0x472147370f04aefe47dedc6e2694ce3ad537bba1a81274d3001dd5b4a3779201",
          "transactionIndex": "0x35",
          "logIndex": "0x7c",
          "removed": false
        },
        {
          "address": "0x58389610a3d13e8f380ee2ba077a6f36f2a90834",
          "topics": [
            "0xddf252ad1be2c89b69c2b068fc378daa952ba7f163c4a11628f55a4df523b3ef",
            "0x0000000000000000000000006efb11ac41b6657c32dac5ed4874082c700bba29",
            "0x0000000000000000000000002e45d737b1d3ca3c6fb4cb82193e0e3d7444e4bd"
          ],
          "data": "0x000000000000000000000000000000000000000000000000000005bad5431800",
          "blockHash": "0x5c5c8b9a21c0a4358d1143610c0af10c2d156048d8519505a8ead132e5d045a5",
          "blockNumber": "0x728f6c",
          "blockTimestamp": "0x67d21db3",
          "transactionHash": "0x472147370f04aefe47dedc6e2694ce3ad537bba1a81274d3001dd5b4a3779201",
          "transactionIndex": "0x35",
          "logIndex": "0x7d",
          "removed": false
        },
        {
          "address": "0xf573e0745c3fa02b4a6739446c34c16de49fed52",
          "topics": [
            "0xd3d640118416a526ad33075973727e1675055b2b31a8351bc74271d75fccef9b"
          ],
          "data": "0x00000000000000000000000000000000000000000000000000000000000000070000000000000000000000006efb11ac41b6657c32dac5ed4874082c700bba290000000000000000000000006efb11ac41b6657c32dac5ed4874082c700bba290000000000000000000000000000000000000000000000000000000000000000000000000000000000000000b0a7f91a1c917a3bff73f2e3829032c64e13595100000000000000000000000053f7c389cbb801e2abfd301ded6d2a1cf330ac0d00000000000000000000000058389610a3d13e8f380ee2ba077a6f36f2a90834000000000000000000000000000000000000000000000000000000003b9aca00000000000000000000000000000000000000000000000002b5e3af16b1880000000000000000000000000000000000000000000000000000000005bad5431800",
          "blockHash": "0x5c5c8b9a21c0a4358d1143610c0af10c2d156048d8519505a8ead132e5d045a5",
          "blockNumber": "0x728f6c",
          "blockTimestamp": "0x67d21db3",
          "transactionHash": "0x472147370f04aefe47dedc6e2694ce3ad537bba1a81274d3001dd5b4a3779201",
          "transactionIndex": "0x35",
          "logIndex": "0x7e",
          "removed": false
        }
      ],
      "logsBloom": "0x00000000000000000200000002000000000000000000000000000000040000000000000000100000000000000000000000001000000100000000000000000000000000000000000000000008000000000000000000000400001000000000108000000000000000000000000200000000000000000000000000000010200000000000000000000000000000000000000000000000000000000008000000000000000000000010000000000000000000040000000000000000000001000000000000000002000080000000000000000000000000010000000000000000000000000000001000000000000000000000000000000000000000000008000000800000",
      "type": "0x0",
      "transactionHash": "0x472147370f04aefe47dedc6e2694ce3ad537bba1a81274d3001dd5b4a3779201",
      "transactionIndex": "0x35",
      "blockHash": "0x5c5c8b9a21c0a4358d1143610c0af10c2d156048d8519505a8ead132e5d045a5",
      "blockNumber": "0x728f6c",
      "gasUsed": "0x7b0f8",
      "effectiveGasPrice": "0xc1b710800",
      "from": "0x6efb11ac41b6657c32dac5ed4874082c700bba29",
      "to": "0x2e505c38656ae7e6b1134f48b0daf6f725a6eaeb",
      "contractAddress": null
    },
    {
      "status": "0x1",
      "cumulativeGasUsed": "0x68d14e",
      "logs": [
        {
          "address": "0x2c53ce7143d24a65410107f50e4aabad9a164480",
          "topics": [
            "0xddf252ad1be2c89b69c2b068fc378daa952ba7f163c4a11628f55a4df523b3ef",
            "0x0000000000000000000000006efb11ac41b6657c32dac5ed4874082c700bba29",
            "0x0000000000000000000000002e45d737b1d3ca3c6fb4cb82193e0e3d7444e4bd"
          ],
          "data": "0x000000000000000000000000000000000000000000000000000000003b9aca00",
          "blockHash": "0x5c5c8b9a21c0a4358d1143610c0af10c2d156048d8519505a8ead132e5d045a5",
          "blockNumber": "0x728f6c",
          "blockTimestamp": "0x67d21db3",
          "transactionHash": "0xce913d6f380138cdcec1c9786ef603660a22df3ed2f30b6c7a2f7fc95b54dac1",
          "transactionIndex": "0x36",
          "logIndex": "0x7f",
          "removed": false
        },
        {
          "address": "0xf9861d7478f8957679b26404bd6272c39f949c29",
          "topics": [
            "0xddf252ad1be2c89b69c2b068fc378daa952ba7f163c4a11628f55a4df523b3ef",
            "0x0000000000000000000000006efb11ac41b6657c32dac5ed4874082c700bba29",
            "0x0000000000000000000000002e45d737b1d3ca3c6fb4cb82193e0e3d7444e4bd"
          ],
          "data": "0x000000000000000000000000000000000000000000295be96e64066972000000",
          "blockHash": "0x5c5c8b9a21c0a4358d1143610c0af10c2d156048d8519505a8ead132e5d045a5",
          "blockNumber": "0x728f6c",
          "blockTimestamp": "0x67d21db3",
          "transactionHash": "0xce913d6f380138cdcec1c9786ef603660a22df3ed2f30b6c7a2f7fc95b54dac1",
          "transactionIndex": "0x36",
          "logIndex": "0x80",
          "removed": false
        },
        {
          "address": "0x58389610a3d13e8f380ee2ba077a6f36f2a90834",
          "topics": [
            "0xddf252ad1be2c89b69c2b068fc378daa952ba7f163c4a11628f55a4df523b3ef",
            "0x0000000000000000000000006efb11ac41b6657c32dac5ed4874082c700bba29",
            "0x0000000000000000000000002e45d737b1d3ca3c6fb4cb82193e0e3d7444e4bd"
          ],
          "data": "0x000000000000000000000000000000000000000000000000000000037e11d600",
          "blockHash": "0x5c5c8b9a21c0a4358d1143610c0af10c2d156048d8519505a8ead132e5d045a5",
          "blockNumber": "0x728f6c",
          "blockTimestamp": "0x67d21db3",
          "transactionHash": "0xce913d6f380138cdcec1c9786ef603660a22df3ed2f30b6c7a2f7fc95b54dac1",
          "transactionIndex": "0x36",
          "logIndex": "0x81",
          "removed": false
        },
        {
          "address": "0xf573e0745c3fa02b4a6739446c34c16de49fed52",
          "topics": [
            "0xd3d640118416a526ad33075973727e1675055b2b31a8351bc74271d75fccef9b"
          ],
          "data": "0x00000000000000000000000000000000000000000000000000000000000000080000000000000000000000006efb11ac41b6657c32dac5ed4874082c700bba290000000000000000000000006efb11ac41b6657c32dac5ed4874082c700bba2900000000000000000000000000000000000000000000000000000000000000000000000000000000000000001664f516fbe65dd0089152c93f724b8810881fdc000000000000000000000000f9861d7478f8957679b26404bd6272c39f949c2900000000000000000000000058389610a3d13e8f380ee2ba077a6f36f2a90834000000000000000000000000000000000000000000000000000000003b9aca00000000000000000000000000000000000000000000295be96e64066972000000000000000000000000000000000000000000000000000000000000037e11d600",
          "blockHash": "0x5c5c8b9a21c0a4358d1143610c0af10c2d156048d8519505a8ead132e5d045a5",
          "blockNumber": "0x728f6c",
          "blockTimestamp": "0x67d21db3",
          "transactionHash": "0xce913d6f380138cdcec1c9786ef603660a22df3ed2f30b6c7a2f7fc95b54dac1",
          "transactionIndex": "0x36",
          "logIndex": "0x82",
          "removed": false
        }
      ],
      "logsBloom": "0x00000000000000000200000000000000000000000000000000000000040000000000000000100000000000000000000000001000000100000000000000000000000000000000000000000008000000000000000000000400001000000000108000000000040000000000000200000000000000000000000000000010200000000000000000000000000000000000000000000000000000000008000000000000000000000000000000040000000000040000000000000000000001000000000000000002080080000000000000000000000000010000000000000000000000000000001000000000000000000000000000000000000000000000000000800000",
      "type": "0x0",
      "transactionHash": "0xce913d6f380138cdcec1c9786ef603660a22df3ed2f30b6c7a2f7fc95b54dac1",
      "transactionIndex": "0x36",
      "blockHash": "0x5c5c8b9a21c0a4358d1143610c0af10c2d156048d8519505a8ead132e5d045a5",
      "blockNumber": "0x728f6c",
      "gasUsed": "0x7b0f8",
      "effectiveGasPrice": "0xc1b710800",
      "from": "0x6efb11ac41b6657c32dac5ed4874082c700bba29",
      "to": "0x2e505c38656ae7e6b1134f48b0daf6f725a6eaeb",
      "contractAddress": null
    },
    {
      "status": "0x1",
      "cumulativeGasUsed": "0x708214",
      "logs": [
        {
          "address": "0x2c53ce7143d24a65410107f50e4aabad9a164480",
          "topics": [
            "0xddf252ad1be2c89b69c2b068fc378daa952ba7f163c4a11628f55a4df523b3ef",
            "0x0000000000000000000000006efb11ac41b6657c32dac5ed4874082c700bba29",
            "0x0000000000000000000000002e45d737b1d3ca3c6fb4cb82193e0e3d7444e4bd"
          ],
          "data": "0x000000000000000000000000000000000000000000000000000000003b9aca00",
          "blockHash": "0x5c5c8b9a21c0a4358d1143610c0af10c2d156048d8519505a8ead132e5d045a5",
          "blockNumber": "0x728f6c",
          "blockTimestamp": "0x67d21db3",
          "transactionHash": "0xd705af09eed84831344d0d53d93b128671313d343d4581cb98e98bd3d982ed72",
          "transactionIndex": "0x37",
          "logIndex": "0x83",
          "removed": false
        },
        {
          "address": "0x1889cfb8746716a0ac50e59a54f190987c5f04e6",
          "topics": [
            "0xddf252ad1be2c89b69c2b068fc378daa952ba7f163c4a11628f55a4df523b3ef",
            "0x0000000000000000000000006efb11ac41b6657c32dac5ed4874082c700bba29",
            "0x0000000000000000000000002e45d737b1d3ca3c6fb4cb82193e0e3d7444e4bd"
          ],
          "data": "0x00000000000000000000000000000000000000000000000000005af3107a4000",
          "blockHash": "0x5c5c8b9a21c0a4358d1143610c0af10c2d156048d8519505a8ead132e5d045a5",
          "blockNumber": "0x728f6c",
          "blockTimestamp": "0x67d21db3",
          "transactionHash": "0xd705af09eed84831344d0d53d93b128671313d343d4581cb98e98bd3d982ed72",
          "transactionIndex": "0x37",
          "logIndex": "0x84",
          "removed": false
        },
        {
          "address": "0x58389610a3d13e8f380ee2ba077a6f36f2a90834",
          "topics": [
            "0xddf252ad1be2c89b69c2b068fc378daa952ba7f163c4a11628f55a4df523b3ef",
            "0x0000000000000000000000006efb11ac41b6657c32dac5ed4874082c700bba29",
            "0x0000000000000000000000002e45d737b1d3ca3c6fb4cb82193e0e3d7444e4bd"
          ],
          "data": "0x00000000000000000000000000000000000000000000000000000045d964b800",
          "blockHash": "0x5c5c8b9a21c0a4358d1143610c0af10c2d156048d8519505a8ead132e5d045a5",
          "blockNumber": "0x728f6c",
          "blockTimestamp": "0x67d21db3",
          "transactionHash": "0xd705af09eed84831344d0d53d93b128671313d343d4581cb98e98bd3d982ed72",
          "transactionIndex": "0x37",
          "logIndex": "0x85",
          "removed": false
        },
        {
          "address": "0xf573e0745c3fa02b4a6739446c34c16de49fed52",
          "topics": [
            "0xd3d640118416a526ad33075973727e1675055b2b31a8351bc74271d75fccef9b"
          ],
          "data": "0x00000000000000000000000000000000000000000000000000000000000000090000000000000000000000006efb11ac41b6657c32dac5ed4874082c700bba290000000000000000000000006efb11ac41b6657c32dac5ed4874082c700bba29000000000000000000000000000000000000000000000000000000000000000000000000000000000000000041b38fcc7eb3365393d5a2228d14d34c8f8418280000000000000000000000001889cfb8746716a0ac50e59a54f190987c5f04e600000000000000000000000058389610a3d13e8f380ee2ba077a6f36f2a90834000000000000000000000000000000000000000000000000000000003b9aca0000000000000000000000000000000000000000000000000000005af3107a400000000000000000000000000000000000000000000000000000000045d964b800",
          "blockHash": "0x5c5c8b9a21c0a4358d1143610c0af10c2d156048d8519505a8ead132e5d045a5",
          "blockNumber": "0x728f6c",
          "blockTimestamp": "0x67d21db3",
          "transactionHash": "0xd705af09eed84831344d0d53d93b128671313d343d4581cb98e98bd3d982ed72",
          "transactionIndex": "0x37",
          "logIndex": "0x86",
          "removed": false
        }
      ],
      "logsBloom": "0x00000000000000000200000000000000000000000000000000000000040000000000000000100000000000000000000000001000000100000000000000000000000000000000000000000008000000000000000000000400001400000000108000000000000000000000000200000000000000000000000000000010200000000000000000000000000000000000000000000000000000000008000000000000000000000000100000000000000000040000000000000000000001000000000000000002000080000000000000000000000000010000000000000000000000000000001080000000000000000000000000000000000000000000000000800000",
      "type": "0x0",
      "transactionHash": "0xd705af09eed84831344d0d53d93b128671313d343d4581cb98e98bd3d982ed72",
      "transactionIndex": "0x37",
      "blockHash": "0x5c5c8b9a21c0a4358d1143610c0af10c2d156048d8519505a8ead132e5d045a5",
      "blockNumber": "0x728f6c",
      "gasUsed": "0x7b0c6",
      "effectiveGasPrice": "0xc1b710800",
      "from": "0x6efb11ac41b6657c32dac5ed4874082c700bba29",
      "to": "0x2e505c38656ae7e6b1134f48b0daf6f725a6eaeb",
      "contractAddress": null
    },
    {
      "status": "0x1",
      "cumulativeGasUsed": "0x7832eb",
      "logs": [
        {
          "address": "0x2c53ce7143d24a65410107f50e4aabad9a164480",
          "topics": [
            "0xddf252ad1be2c89b69c2b068fc378daa952ba7f163c4a11628f55a4df523b3ef",
            "0x0000000000000000000000006efb11ac41b6657c32dac5ed4874082c700bba29",
            "0x0000000000000000000000002e45d737b1d3ca3c6fb4cb82193e0e3d7444e4bd"
          ],
          "data": "0x000000000000000000000000000000000000000000000000000000003b9aca00",
          "blockHash": "0x5c5c8b9a21c0a4358d1143610c0af10c2d156048d8519505a8ead132e5d045a5",
          "blockNumber": "0x728f6c",
          "blockTimestamp": "0x67d21db3",
          "transactionHash": "0x61f3d875f2ed3da0bab175585458663f37819fcd0dd35aca87e7241d706cd061",
          "transactionIndex": "0x38",
          "logIndex": "0x87",
          "removed": false
        },
        {
          "address": "0x6bc8a42d4b2f4bc8e4c3f9ecff00b7290ffa7405",
          "topics": [
            "0xddf252ad1be2c89b69c2b068fc378daa952ba7f163c4a11628f55a4df523b3ef",
            "0x0000000000000000000000006efb11ac41b6657c32dac5ed4874082c700bba29",
            "0x0000000000000000000000002e45d737b1d3ca3c6fb4cb82193e0e3d7444e4bd"
          ],
          "data": "0x0000000000000000000000000000000000000000000069e10de76676d0800000",
          "blockHash": "0x5c5c8b9a21c0a4358d1143610c0af10c2d156048d8519505a8ead132e5d045a5",
          "blockNumber": "0x728f6c",
          "blockTimestamp": "0x67d21db3",
          "transactionHash": "0x61f3d875f2ed3da0bab175585458663f37819fcd0dd35aca87e7241d706cd061",
          "transactionIndex": "0x38",
          "logIndex": "0x88",
          "removed": false
        },
        {
          "address": "0x58389610a3d13e8f380ee2ba077a6f36f2a90834",
          "topics": [
            "0xddf252ad1be2c89b69c2b068fc378daa952ba7f163c4a11628f55a4df523b3ef",
            "0x0000000000000000000000006efb11ac41b6657c32dac5ed4874082c700bba29",
            "0x0000000000000000000000002e45d737b1d3ca3c6fb4cb82193e0e3d7444e4bd"
          ],
          "data": "0x0000000000000000000000000000000000000000000000000000001176592e00",
          "blockHash": "0x5c5c8b9a21c0a4358d1143610c0af10c2d156048d8519505a8ead132e5d045a5",
          "blockNumber": "0x728f6c",
          "blockTimestamp": "0x67d21db3",
          "transactionHash": "0x61f3d875f2ed3da0bab175585458663f37819fcd0dd35aca87e7241d706cd061",
          "transactionIndex": "0x38",
          "logIndex": "0x89",
          "removed": false
        },
        {
          "address": "0xf573e0745c3fa02b4a6739446c34c16de49fed52",
          "topics": [
            "0xd3d640118416a526ad33075973727e1675055b2b31a8351bc74271d75fccef9b"
          ],
          "data": "0x000000000000000000000000000000000000000000000000000000000000000a0000000000000000000000006efb11ac41b6657c32dac5ed4874082c700bba290000000000000000000000006efb11ac41b6657c32dac5ed4874082c700bba29000000000000000000000000000000000000000000000000000000000000000000000000000000000000000099bd3ff38f0dc9a819a0442f1d5ddbcd60072ece0000000000000000000000006bc8a42d4b2f4bc8e4c3f9ecff00b7290ffa740500000000000000000000000058389610a3d13e8f380ee2ba077a6f36f2a90834000000000000000000000000000000000000000000000000000000003b9aca000000000000000000000000000000000000000000000069e10de76676d08000000000000000000000000000000000000000000000000000000000001176592e00",
          "blockHash": "0x5c5c8b9a21c0a4358d1143610c0af10c2d156048d8519505a8ead132e5d045a5",
          "blockNumber": "0x728f6c",
          "blockTimestamp": "0x67d21db3",
          "transactionHash": "0x61f3d875f2ed3da0bab175585458663f37819fcd0dd35aca87e7241d706cd061",
          "transactionIndex": "0x38",
          "logIndex": "0x8a",
          "removed": false
        }
      ],
      "logsBloom": "0x00000000000000000200000000000000000000000000000000000000040000000000000000100000000000000000000000003000000100000400000000000000000000000000000000000008000000000000000000000400001000000000108000000000000000000000000200000000000000000000000000000010200000000000000000000000000000000000000000000000000000000008000000000000000000000200000000000000000000040000000000000000000001000000000000000002000080000000000000000000000000010000000000000000000000000000001000000000000000000000000000000000000000000000000000800000",
      "type": "0x0",
      "transactionHash": "0x61f3d875f2ed3da0bab175585458663f37819fcd0dd35aca87e7241d706cd061",
      "transactionIndex": "0x38",
      "blockHash": "0x5c5c8b9a21c0a4358d1143610c0af10c2d156048d8519505a8ead132e5d045a5",
      "blockNumber": "0x728f6c",
      "gasUsed": "0x7b0d7",
      "effectiveGasPrice": "0xc1b710800",
      "from": "0x6efb11ac41b6657c32dac5ed4874082c700bba29",
      "to": "0x2e505c38656ae7e6b1134f48b0daf6f725a6eaeb",
      "contractAddress": null
    },
    {
      "status": "0x1",
      "cumulativeGasUsed": "0x7fe3e3",
      "logs": [
        {
          "address": "0x2c53ce7143d24a65410107f50e4aabad9a164480",
          "topics": [
            "0xddf252ad1be2c89b69c2b068fc378daa952ba7f163c4a11628f55a4df523b3ef",
            "0x0000000000000000000000006efb11ac41b6657c32dac5ed4874082c700bba29",
            "0x0000000000000000000000002e45d737b1d3ca3c6fb4cb82193e0e3d7444e4bd"
          ],
          "data": "0x000000000000000000000000000000000000000000000000000000003b9aca00",
          "blockHash": "0x5c5c8b9a21c0a4358d1143610c0af10c2d156048d8519505a8ead132e5d045a5",
          "blockNumber": "0x728f6c",
          "blockTimestamp": "0x67d21db3",
          "transactionHash": "0xe37ef5bd95c3e001507c7a01394f2ce4fbfbae8986443071449d47cbd3b02fc0",
          "transactionIndex": "0x39",
          "logIndex": "0x8b",
          "removed": false
        },
        {
          "address": "0xe3f98fda6dbd38c1017754f1675dce377381c23c",
          "topics": [
            "0xddf252ad1be2c89b69c2b068fc378daa952ba7f163c4a11628f55a4df523b3ef",
            "0x0000000000000000000000006efb11ac41b6657c32dac5ed4874082c700bba29",
            "0x0000000000000000000000002e45d737b1d3ca3c6fb4cb82193e0e3d7444e4bd"
          ],
          "data": "0x00000000000000000000000000000000000000000000021e19e0c9bab2400000",
          "blockHash": "0x5c5c8b9a21c0a4358d1143610c0af10c2d156048d8519505a8ead132e5d045a5",
          "blockNumber": "0x728f6c",
          "blockTimestamp": "0x67d21db3",
          "transactionHash": "0xe37ef5bd95c3e001507c7a01394f2ce4fbfbae8986443071449d47cbd3b02fc0",
          "transactionIndex": "0x39",
          "logIndex": "0x8c",
          "removed": false
        },
        {
          "address": "0x58389610a3d13e8f380ee2ba077a6f36f2a90834",
          "topics": [
            "0xddf252ad1be2c89b69c2b068fc378daa952ba7f163c4a11628f55a4df523b3ef",
            "0x0000000000000000000000006efb11ac41b6657c32dac5ed4874082c700bba29",
            "0x0000000000000000000000002e45d737b1d3ca3c6fb4cb82193e0e3d7444e4bd"
          ],
          "data": "0x00000000000000000000000000000000000000000000000000000068c6171400",
          "blockHash": "0x5c5c8b9a21c0a4358d1143610c0af10c2d156048d8519505a8ead132e5d045a5",
          "blockNumber": "0x728f6c",
          "blockTimestamp": "0x67d21db3",
          "transactionHash": "0xe37ef5bd95c3e001507c7a01394f2ce4fbfbae8986443071449d47cbd3b02fc0",
          "transactionIndex": "0x39",
          "logIndex": "0x8d",
          "removed": false
        },
        {
          "address": "0xf573e0745c3fa02b4a6739446c34c16de49fed52",
          "topics": [
            "0xd3d640118416a526ad33075973727e1675055b2b31a8351bc74271d75fccef9b"
          ],
          "data": "0x000000000000000000000000000000000000000000000000000000000000000b0000000000000000000000006efb11ac41b6657c32dac5ed4874082c700bba290000000000000000000000006efb11ac41b6657c32dac5ed4874082c700bba290000000000000000000000000000000000000000000000000000000000000000000000000000000000000000339ae32f85f4a43b8dc0b685dc2d39179653ca01000000000000000000000000e3f98fda6dbd38c1017754f1675dce377381c23c00000000000000000000000058389610a3d13e8f380ee2ba077a6f36f2a90834000000000000000000000000000000000000000000000000000000003b9aca0000000000000000000000000000000000000000000000021e19e0c9bab240000000000000000000000000000000000000000000000000000000000068c6171400",
          "blockHash": "0x5c5c8b9a21c0a4358d1143610c0af10c2d156048d8519505a8ead132e5d045a5",
          "blockNumber": "0x728f6c",
          "blockTimestamp": "0x67d21db3",
          "transactionHash": "0xe37ef5bd95c3e001507c7a01394f2ce4fbfbae8986443071449d47cbd3b02fc0",
          "transactionIndex": "0x39",
          "logIndex": "0x8e",
          "removed": false
        }
      ],
      "logsBloom": "0x00000000000000002200000000000000000000000000000000000000040000000000000000100000000000000000000000001000000100000000000000000000000000000000000000000008000000000000000000000400001000000000108000000000000000000000000200000000000000000000000000000010200000000000000000000000000000000000000000000000000000000028000000000000000000000000000000000000000020040000000000000000000001000000000000000002000080000000000000000000000000010000000000000000000000000000001000000000000000000000000000000000000000000000000000800000",
      "type": "0x0",
      "transactionHash": "0xe37ef5bd95c3e001507c7a01394f2ce4fbfbae8986443071449d47cbd3b02fc0",
      "transactionIndex": "0x39",
      "blockHash": "0x5c5c8b9a21c0a4358d1143610c0af10c2d156048d8519505a8ead132e5d045a5",
      "blockNumber": "0x728f6c",
      "gasUsed": "0x7b0f8",
      "effectiveGasPrice": "0xc1b710800",
      "from": "0x6efb11ac41b6657c32dac5ed4874082c700bba29",
      "to": "0x2e505c38656ae7e6b1134f48b0daf6f725a6eaeb",
      "contractAddress": null
    }
  ],
  "libraries": [],
  "pending": [],
  "returns": {},
  "timestamp": 1741823415,
  "chain": 10143,
  "commit": "e7e6a38"
}