{
  "transactions": [
    {
      "hash": "0x9b83a8cef6c1713f0b6df60390ea97ac852c6ac01fe3e5dabda9f97a8a311853",
      "transactionType": "CALL",
      "contractName": null,
      "contractAddress": "0x97f3d75fcc683c8f557d637196857fa303f7cebd",
      "function": "mint(address,uint256)",
      "arguments": [
        "0x6EFb11aC41B6657c32dAc5Ed4874082C700BbA29",
        "10000000000000000000"
      ],
      "transaction": {
        "from": "0x6efb11ac41b6657c32dac5ed4874082c700bba29",
        "to": "0x97f3d75fcc683c8f557d637196857fa303f7cebd",
        "gas": "0xcf9e",
        "value": "0x0",
        "input": "0x40c10f190000000000000000000000006efb11ac41b6657c32dac5ed4874082c700bba290000000000000000000000000000000000000000000000008ac7230489e80000",
        "nonce": "0x43",
        "chainId": "0x279f"
      },
      "additionalContracts": [],
      "isFixedGasLimit": false
    },
    {
      "hash": "0xb2b31b584300bff60d2eea894ecdba5b8e69887d23dfce778094a9a5be611df6",
      "transactionType": "CALL",
      "contractName": null,
      "contractAddress": "0x37e9b288c56b734c0291d37af478f60ce58a9fc6",
      "function": "mint(address,uint256)",
      "arguments": [
        "0x6EFb11aC41B6657c32dAc5Ed4874082C700BbA29",
        "3000000000000000000000"
      ],
      "transaction": {
        "from": "0x6efb11ac41b6657c32dac5ed4874082c700bba29",
        "to": "0x37e9b288c56b734c0291d37af478f60ce58a9fc6",
        "gas": "0xcfae",
        "value": "0x0",
        "input": "0x40c10f190000000000000000000000006efb11ac41b6657c32dac5ed4874082c700bba290000000000000000000000000000000000000000000000a2a15d09519be00000",
        "nonce": "0x44",
        "chainId": "0x279f"
      },
      "additionalContracts": [],
      "isFixedGasLimit": false
    },
    {
      "hash": "0xcdfc983002252aca90c3a53690c3589e5cbc7c25f27b2939777c49f150e07102",
      "transactionType": "CALL",
      "contractName": null,
      "contractAddress": "0x97f3d75fcc683c8f557d637196857fa303f7cebd",
      "function": "approve(address,uint256)",
      "arguments": [
        "0x1b191f344d99a8e8fd09EB33fcBe93396d120339",
        "115792089237316195423570985008687907853269984665640564039457584007913129639935"
      ],
      "transaction": {
        "from": "0x6efb11ac41b6657c32dac5ed4874082c700bba29",
        "to": "0x97f3d75fcc683c8f557d637196857fa303f7cebd",
        "gas": "0x9382",
        "value": "0x0",
        "input": "0x095ea7b30000000000000000000000001b191f344d99a8e8fd09eb33fcbe93396d120339ffffffffffffffffffffffffffffffffffffffffffffffffffffffffffffffff",
        "nonce": "0x45",
        "chainId": "0x279f"
      },
      "additionalContracts": [],
      "isFixedGasLimit": false
    },
    {
      "hash": "0xa3790b466072c12199f79066f7b6c1fd56f89549cb3c4d2caf080ea0803f3cb7",
      "transactionType": "CALL",
      "contractName": null,
      "contractAddress": "0x37e9b288c56b734c0291d37af478f60ce58a9fc6",
      "function": "approve(address,uint256)",
      "arguments": [
        "0x1b191f344d99a8e8fd09EB33fcBe93396d120339",
        "115792089237316195423570985008687907853269984665640564039457584007913129639935"
      ],
      "transaction": {
        "from": "0x6efb11ac41b6657c32dac5ed4874082c700bba29",
        "to": "0x37e9b288c56b734c0291d37af478f60ce58a9fc6",
        "gas": "0x9382",
        "value": "0x0",
        "input": "0x095ea7b30000000000000000000000001b191f344d99a8e8fd09eb33fcbe93396d120339ffffffffffffffffffffffffffffffffffffffffffffffffffffffffffffffff",
        "nonce": "0x46",
        "chainId": "0x279f"
      },
      "additionalContracts": [],
      "isFixedGasLimit": false
    },
    {
      "hash": "0xe802856c997ea255a86cba2bdf4b8536ad582bbf9dd4a000c3217b285146f798",
      "transactionType": "CALL",
      "contractName": null,
      "contractAddress": "0x1b191f344d99a8e8fd09eb33fcbe93396d120339",
      "function": "multicall(bytes[])",
      "arguments": [
        "[0x7d39aaf1000000000000000000000000354cf8ea72c117e7443a7392230749b72ef78d0b000000000000000000000000000000000000000000000000000000003b9aca00, 0xe6d66ac800000000000000000000000097f3d75fcc683c8f557d637196857fa303f7cebd000000000000000000000000354cf8ea72c117e7443a7392230749b72ef78d0b00000000000000000000000000000000000000000000003635c9adc5dea00000, 0xe6d66ac800000000000000000000000037e9b288c56b734c0291d37af478f60ce58a9fc6000000000000000000000000354cf8ea72c117e7443a7392230749b72ef78d0b0000000000000000000000000000000000000000000000a2a15d09519be00000, 0x293953b80000000000000000000000006efb11ac41b6657c32dac5ed4874082c700bba290000000000000000000000000000000000000000000000000000000000000000000000000000000000000000fd16ef40c3a301f7063a1f9c28b90957df07158300000000000000000000000097f3d75fcc683c8f557d637196857fa303f7cebd00000000000000000000000037e9b288c56b734c0291d37af478f60ce58a9fc60000000000000000000000000000000000000000000000000000000000000000000000000000000000000000000000000000000000000000000000003b9aca00]"
      ],
      "transaction": {
        "from": "0x6efb11ac41b6657c32dac5ed4874082c700bba29",
        "to": "0x1b191f344d99a8e8fd09eb33fcbe93396d120339",
        "gas": "0x69670",
        "value": "0x0",
        "input": "0xac9650d8000000000000000000000000000000000000000000000000000000000000002000000000000000000000000000000000000000000000000000000000000000040000000000000000000000000000000000000000000000000000000000000080000000000000000000000000000000000000000000000000000000000000010000000000000000000000000000000000000000000000000000000000000001a0000000000000000000000000000000000000000000000000000000000000024000000000000000000000000000000000000000000000000000000000000000447d39aaf1000000000000000000000000354cf8ea72c117e7443a7392230749b72ef78d0b000000000000000000000000000000000000000000000000000000003b9aca00000000000000000000000000000000000000000000000000000000000000000000000000000000000000000000000000000000000000000000000064e6d66ac800000000000000000000000097f3d75fcc683c8f557d637196857fa303f7cebd000000000000000000000000354cf8ea72c117e7443a7392230749b72ef78d0b00000000000000000000000000000000000000000000003635c9adc5dea00000000000000000000000000000000000000000000000000000000000000000000000000000000000000000000000000000000000000000000000000064e6d66ac800000000000000000000000037e9b288c56b734c0291d37af478f60ce58a9fc6000000000000000000000000354cf8ea72c117e7443a7392230749b72ef78d0b0000000000000000000000000000000000000000000000a2a15d09519be000000000000000000000000000000000000000000000000000000000000000000000000000000000000000000000000000000000000000000000000000e4293953b80000000000000000000000006efb11ac41b6657c32dac5ed4874082c700bba290000000000000000000000000000000000000000000000000000000000000000000000000000000000000000fd16ef40c3a301f7063a1f9c28b90957df07158300000000000000000000000097f3d75fcc683c8f557d637196857fa303f7cebd00000000000000000000000037e9b288c56b734c0291d37af478f60ce58a9fc60000000000000000000000000000000000000000000000000000000000000000000000000000000000000000000000000000000000000000000000003b9aca0000000000000000000000000000000000000000000000000000000000",
        "nonce": "0x47",
        "chainId": "0x279f"
      },
      "additionalContracts": [],
      "isFixedGasLimit": false
    }
  ],
  "receipts": [
    {
      "status": "0x1",
      "cumulativeGasUsed": "0x3ef86bb",
      "logs": [
        {
          "address": "0x97f3d75fcc683c8f557d637196857fa303f7cebd",
          "topics": [
            "0xddf252ad1be2c89b69c2b068fc378daa952ba7f163c4a11628f55a4df523b3ef",
            "0x0000000000000000000000000000000000000000000000000000000000000000",
            "0x0000000000000000000000006efb11ac41b6657c32dac5ed4874082c700bba29"
          ],
          "data": "0x0000000000000000000000000000000000000000000000008ac7230489e80000",
          "blockHash": "0x3d6f8e68a2357b6e1364e412d6650b3c2addb5cb196e138d77a934c3bb9a2524",
          "blockNumber": "0x66999a",
          "blockTimestamp": "0x67cbce0e",
          "transactionHash": "0x9b83a8cef6c1713f0b6df60390ea97ac852c6ac01fe3e5dabda9f97a8a311853",
          "transactionIndex": "0x4e",
          "logIndex": "0xa4",
          "removed": false
        },
        {
          "address": "0x97f3d75fcc683c8f557d637196857fa303f7cebd",
          "topics": [
            "0x0f6798a560793a54c3bcfe86a93cde1e73087d944c0ea20544137d4121396885"
          ],
          "data": "0x0000000000000000000000006efb11ac41b6657c32dac5ed4874082c700bba290000000000000000000000000000000000000000000000008ac7230489e80000",
          "blockHash": "0x3d6f8e68a2357b6e1364e412d6650b3c2addb5cb196e138d77a934c3bb9a2524",
          "blockNumber": "0x66999a",
          "blockTimestamp": "0x67cbce0e",
          "transactionHash": "0x9b83a8cef6c1713f0b6df60390ea97ac852c6ac01fe3e5dabda9f97a8a311853",
          "transactionIndex": "0x4e",
          "logIndex": "0xa5",
          "removed": false
        }
      ],
      "logsBloom": "0x00000000000000000200000000000000000000000000000000000000000000000080000000000000000000000000000000000000000100000000000000000000000000000020000000000008000000000002000000000100000000000000000000000000020000000000000000000800000000000000400000000010000000000000000000000000000000000000000000000000000000000000000000000000000080000000000000000000000000000000000000000000000001000000000000000002000000000000000000000000000000000000000000000000000020000000000000000000000000000000000000000000000000000000000000000000",
      "type": "0x2",
      "transactionHash": "0x9b83a8cef6c1713f0b6df60390ea97ac852c6ac01fe3e5dabda9f97a8a311853",
      "transactionIndex": "0x4e",
      "blockHash": "0x3d6f8e68a2357b6e1364e412d6650b3c2addb5cb196e138d77a934c3bb9a2524",
      "blockNumber": "0x66999a",
      "gasUsed": "0xcf9e",
      "effectiveGasPrice": "0xba43b7401",
      "from": "0x6efb11ac41b6657c32dac5ed4874082c700bba29",
      "to": "0x97f3d75fcc683c8f557d637196857fa303f7cebd",
      "contractAddress": null
    },
    {
      "status": "0x1",
      "cumulativeGasUsed": "0x3f05669",
      "logs": [
        {
          "address": "0x37e9b288c56b734c0291d37af478f60ce58a9fc6",
          "topics": [
            "0xddf252ad1be2c89b69c2b068fc378daa952ba7f163c4a11628f55a4df523b3ef",
            "0x0000000000000000000000000000000000000000000000000000000000000000",
            "0x0000000000000000000000006efb11ac41b6657c32dac5ed4874082c700bba29"
          ],
          "data": "0x0000000000000000000000000000000000000000000000a2a15d09519be00000",
          "blockHash": "0x3d6f8e68a2357b6e1364e412d6650b3c2addb5cb196e138d77a934c3bb9a2524",
          "blockNumber": "0x66999a",
          "blockTimestamp": "0x67cbce0e",
          "transactionHash": "0xb2b31b584300bff60d2eea894ecdba5b8e69887d23dfce778094a9a5be611df6",
          "transactionIndex": "0x4f",
          "logIndex": "0xa6",
          "removed": false
        },
        {
          "address": "0x37e9b288c56b734c0291d37af478f60ce58a9fc6",
          "topics": [
            "0x0f6798a560793a54c3bcfe86a93cde1e73087d944c0ea20544137d4121396885"
          ],
          "data": "0x0000000000000000000000006efb11ac41b6657c32dac5ed4874082c700bba290000000000000000000000000000000000000000000000a2a15d09519be00000",
          "blockHash": "0x3d6f8e68a2357b6e1364e412d6650b3c2addb5cb196e138d77a934c3bb9a2524",
          "blockNumber": "0x66999a",
          "blockTimestamp": "0x67cbce0e",
          "transactionHash": "0xb2b31b584300bff60d2eea894ecdba5b8e69887d23dfce778094a9a5be611df6",
          "transactionIndex": "0x4f",
          "logIndex": "0xa7",
          "removed": false
        }
      ],
      "logsBloom": "0x00000000000000000200000000000000000008000000000000000000000000000000000000000000000000000000000000000000000100000000000000000000000000000020000000000008000000000000000000000000000000000000000000000000020000000000000000000800000000000000400000000010000000000000000000000000000000000000000000000000000000000000000000000000000080000000000000000000000000000000000000000000000001000000000000000002000000000000800000000000000000000010000000000000000020000000000000000000000000000000000000000000000000000000000000000000",
      "type": "0x2",
      "transactionHash": "0xb2b31b584300bff60d2eea894ecdba5b8e69887d23dfce778094a9a5be611df6",
      "transactionIndex": "0x4f",
      "blockHash": "0x3d6f8e68a2357b6e1364e412d6650b3c2addb5cb196e138d77a934c3bb9a2524",
      "blockNumber": "0x66999a",
      "gasUsed": "0xcfae",
      "effectiveGasPrice": "0xba43b7401",
      "from": "0x6efb11ac41b6657c32dac5ed4874082c700bba29",
      "to": "0x37e9b288c56b734c0291d37af478f60ce58a9fc6",
      "contractAddress": null
    },
    {
      "status": "0x1",
      "cumulativeGasUsed": "0x3f0e9eb",
      "logs": [
        {
          "address": "0x97f3d75fcc683c8f557d637196857fa303f7cebd",
          "topics": [
            "0x8c5be1e5ebec7d5bd14f71427d1e84f3dd0314c0f7b2291e5b200ac8c7c3b925",
            "0x0000000000000000000000006efb11ac41b6657c32dac5ed4874082c700bba29",
            "0x0000000000000000000000001b191f344d99a8e8fd09eb33fcbe93396d120339"
          ],
          "data": "0xffffffffffffffffffffffffffffffffffffffffffffffffffffffffffffffff",
          "blockHash": "0x3d6f8e68a2357b6e1364e412d6650b3c2addb5cb196e138d77a934c3bb9a2524",
          "blockNumber": "0x66999a",
          "blockTimestamp": "0x67cbce0e",
          "transactionHash": "0xcdfc983002252aca90c3a53690c3589e5cbc7c25f27b2939777c49f150e07102",
          "transactionIndex": "0x50",
          "logIndex": "0xa8",
          "removed": false
        }
      ],
      "logsBloom": "0x00000000000000000200000000800000000000000000000000000000000000000080000000000000000000000000000000000000002100000000000000200000000000000000000000000000000000000002000000000100000000000000000000000000000000000000000000000000000000000000000000000000000000000000000000000000000000000000000000000000000000000000000000000000020000000000000000000000000000000000000000000000000001000000000000000000000000000000000000000000000000000000000000000010000000000010000000000000000000000000000000000000000000000000000000000000",
      "type": "0x2",
      "transactionHash": "0xcdfc983002252aca90c3a53690c3589e5cbc7c25f27b2939777c49f150e07102",
      "transactionIndex": "0x50",
      "blockHash": "0x3d6f8e68a2357b6e1364e412d6650b3c2addb5cb196e138d77a934c3bb9a2524",
      "blockNumber": "0x66999a",
      "gasUsed": "0x9382",
      "effectiveGasPrice": "0xba43b7401",
      "from": "0x6efb11ac41b6657c32dac5ed4874082c700bba29",
      "to": "0x97f3d75fcc683c8f557d637196857fa303f7cebd",
      "contractAddress": null
    },
    {
      "status": "0x1",
      "cumulativeGasUsed": "0x3f17d6d",
      "logs": [
        {
          "address": "0x37e9b288c56b734c0291d37af478f60ce58a9fc6",
          "topics": [
            "0x8c5be1e5ebec7d5bd14f71427d1e84f3dd0314c0f7b2291e5b200ac8c7c3b925",
            "0x0000000000000000000000006efb11ac41b6657c32dac5ed4874082c700bba29",
            "0x0000000000000000000000001b191f344d99a8e8fd09eb33fcbe93396d120339"
          ],
          "data": "0xffffffffffffffffffffffffffffffffffffffffffffffffffffffffffffffff",
          "blockHash": "0x3d6f8e68a2357b6e1364e412d6650b3c2addb5cb196e138d77a934c3bb9a2524",
          "blockNumber": "0x66999a",
          "blockTimestamp": "0x67cbce0e",
          "transactionHash": "0xa3790b466072c12199f79066f7b6c1fd56f89549cb3c4d2caf080ea0803f3cb7",
          "transactionIndex": "0x51",
          "logIndex": "0xa9",
          "removed": false
        }
      ],
      "logsBloom": "0x00000000000000000200000000800000000008000000000000000000000000000000000000000000000000000000000000000000002100000000000000200000000000000000000000000000000000000000000000000000000000000000000000000000000000000000000000000000000000000000000000000000000000000000000000000000000000000000000000000000000000000000000000000000020000000000000000000000000000000000000000000000000001000000000000000000000000000000800000000000000000000010000000000010000000000010000000000000000000000000000000000000000000000000000000000000",
      "type": "0x2",
      "transactionHash": "0xa3790b466072c12199f79066f7b6c1fd56f89549cb3c4d2caf080ea0803f3cb7",
      "transactionIndex": "0x51",
      "blockHash": "0x3d6f8e68a2357b6e1364e412d6650b3c2addb5cb196e138d77a934c3bb9a2524",
      "blockNumber": "0x66999a",
      "gasUsed": "0x9382",
      "effectiveGasPrice": "0xba43b7401",
      "from": "0x6efb11ac41b6657c32dac5ed4874082c700bba29",
      "to": "0x37e9b288c56b734c0291d37af478f60ce58a9fc6",
      "contractAddress": null
    },
    {
      "status": "0x1",
      "cumulativeGasUsed": "0x5f543c",
      "logs": [
        {
          "address": "0x97f3d75fcc683c8f557d637196857fa303f7cebd",
          "topics": [
            "0xddf252ad1be2c89b69c2b068fc378daa952ba7f163c4a11628f55a4df523b3ef",
            "0x0000000000000000000000006efb11ac41b6657c32dac5ed4874082c700bba29",
            "0x000000000000000000000000354cf8ea72c117e7443a7392230749b72ef78d0b"
          ],
          "data": "0x000000000000000000000000000000000000000000000000000000003b9aca00",
          "blockHash": "0x1a918c635e2704228d3ebe33ff46ea0f47e40510e9caeb2c3244ea272157c17a",
          "blockNumber": "0x66999b",
          "blockTimestamp": "0x67cbce0e",
          "transactionHash": "0xe802856c997ea255a86cba2bdf4b8536ad582bbf9dd4a000c3217b285146f798",
          "transactionIndex": "0x2c",
          "logIndex": "0x50",
          "removed": false
        },
        {
          "address": "0x97f3d75fcc683c8f557d637196857fa303f7cebd",
          "topics": [
            "0xddf252ad1be2c89b69c2b068fc378daa952ba7f163c4a11628f55a4df523b3ef",
            "0x0000000000000000000000006efb11ac41b6657c32dac5ed4874082c700bba29",
            "0x000000000000000000000000354cf8ea72c117e7443a7392230749b72ef78d0b"
          ],
          "data": "0x00000000000000000000000000000000000000000000003635c9adc5dea00000",
          "blockHash": "0x1a918c635e2704228d3ebe33ff46ea0f47e40510e9caeb2c3244ea272157c17a",
          "blockNumber": "0x66999b",
          "blockTimestamp": "0x67cbce0e",
          "transactionHash": "0xe802856c997ea255a86cba2bdf4b8536ad582bbf9dd4a000c3217b285146f798",
          "transactionIndex": "0x2c",
          "logIndex": "0x51",
          "removed": false
        },
        {
          "address": "0x37e9b288c56b734c0291d37af478f60ce58a9fc6",
          "topics": [
            "0xddf252ad1be2c89b69c2b068fc378daa952ba7f163c4a11628f55a4df523b3ef",
            "0x0000000000000000000000006efb11ac41b6657c32dac5ed4874082c700bba29",
            "0x000000000000000000000000354cf8ea72c117e7443a7392230749b72ef78d0b"
          ],
          "data": "0x0000000000000000000000000000000000000000000000a2a15d09519be00000",
          "blockHash": "0x1a918c635e2704228d3ebe33ff46ea0f47e40510e9caeb2c3244ea272157c17a",
          "blockNumber": "0x66999b",
          "blockTimestamp": "0x67cbce0e",
          "transactionHash": "0xe802856c997ea255a86cba2bdf4b8536ad582bbf9dd4a000c3217b285146f798",
          "transactionIndex": "0x2c",
          "logIndex": "0x52",
          "removed": false
        },
        {
          "address": "0x75084b2ba58907efee5cd397fa855dc73b68d191",
          "topics": [
            "0xd3d640118416a526ad33075973727e1675055b2b31a8351bc74271d75fccef9b"
          ],
          "data": "0x00000000000000000000000000000000000000000000000000000000000000010000000000000000000000006efb11ac41b6657c32dac5ed4874082c700bba290000000000000000000000006efb11ac41b6657c32dac5ed4874082c700bba290000000000000000000000000000000000000000000000000000000000000000000000000000000000000000fd16ef40c3a301f7063a1f9c28b90957df07158300000000000000000000000097f3d75fcc683c8f557d637196857fa303f7cebd00000000000000000000000037e9b288c56b734c0291d37af478f60ce58a9fc6000000000000000000000000000000000000000000000000000000003b9aca0000000000000000000000000000000000000000000000003635c9adc5dea000000000000000000000000000000000000000000000000000a2a15d09519be00000",
          "blockHash": "0x1a918c635e2704228d3ebe33ff46ea0f47e40510e9caeb2c3244ea272157c17a",
          "blockNumber": "0x66999b",
          "blockTimestamp": "0x67cbce0e",
          "transactionHash": "0xe802856c997ea255a86cba2bdf4b8536ad582bbf9dd4a000c3217b285146f798",
          "transactionIndex": "0x2c",
          "logIndex": "0x53",
          "removed": false
        }
      ],
      "logsBloom": "0x00000000000000000200000000000000800008000000000000000000040000000080000010000000000000000000000000000000000100000000000000000000000000000000000000000008000000000002000000000100000000000000000000000000000000000000000000000000000000000000000000000010200000000000000100000000000000000000000000000000000000000000040000000000000000000000000000000000000000000000000000000000000001000000000000000002000080000000800000000000000000000010000001000000000000000000000000000000000000000000000000000000000000000000000000008000",
      "type": "0x2",
      "transactionHash": "0xe802856c997ea255a86cba2bdf4b8536ad582bbf9dd4a000c3217b285146f798",
      "transactionIndex": "0x2c",
      "blockHash": "0x1a918c635e2704228d3ebe33ff46ea0f47e40510e9caeb2c3244ea272157c17a",
      "blockNumber": "0x66999b",
      "gasUsed": "0x69670",
      "effectiveGasPrice": "0xba43b7401",
      "from": "0x6efb11ac41b6657c32dac5ed4874082c700bba29",
      "to": "0x1b191f344d99a8e8fd09eb33fcbe93396d120339",
      "contractAddress": null
    }
  ],
  "libraries": [],
  "pending": [],
  "returns": {},
  "timestamp": 1741409808,
  "chain": 10143,
  "commit": "75ade75"
}