{
  "transactions": [
    {
      "hash": "0xe0f5b9a1fafc5c0535d1df5b8de533adebd750cba8883dcf859f85f3f53dfb9b",
      "transactionType": "CALL",
      "contractName": null,
      "contractAddress": "0x2c53ce7143d24a65410107f50e4aabad9a164480",
      "function": "mint(address,uint256)",
      "arguments": [
        "0x6EFb11aC41B6657c32dAc5Ed4874082C700BbA29",
        "10000000000000000000000"
      ],
      "transaction": {
        "from": "0x6efb11ac41b6657c32dac5ed4874082c700bba29",
        "to": "0x2c53ce7143d24a65410107f50e4aabad9a164480",
        "gas": "0xc1c9",
        "value": "0x0",
        "input": "0x40c10f190000000000000000000000006efb11ac41b6657c32dac5ed4874082c700bba2900000000000000000000000000000000000000000000021e19e0c9bab2400000",
        "nonce": "0xf5",
        "chainId": "0x279f"
      },
      "additionalContracts": [],
      "isFixedGasLimit": false
    },
    {
      "hash": "0xb2487fa634dc7c9611fb612d598ef035a49059d59a07dae14bea635ce58727af",
      "transactionType": "CALL",
      "contractName": null,
      "contractAddress": "0x53f7c389cbb801e2abfd301ded6d2a1cf330ac0d",
      "function": "mint(address,uint256)",
      "arguments": [
        "0x6EFb11aC41B6657c32dAc5Ed4874082C700BbA29",
        "10000000000000000000000"
      ],
      "transaction": {
        "from": "0x6efb11ac41b6657c32dac5ed4874082c700bba29",
        "to": "0x53f7c389cbb801e2abfd301ded6d2a1cf330ac0d",
        "gas": "0xc1c9",
        "value": "0x0",
        "input": "0x40c10f190000000000000000000000006efb11ac41b6657c32dac5ed4874082c700bba2900000000000000000000000000000000000000000000021e19e0c9bab2400000",
        "nonce": "0xf6",
        "chainId": "0x279f"
      },
      "additionalContracts": [],
      "isFixedGasLimit": false
    },
    {
      "hash": "0x4c338282e796ea2fef25d7d31f7d5bde7151c2f14f3a1b6ffb7d7003950ebb65",
      "transactionType": "CALL",
      "contractName": null,
      "contractAddress": "0xf9861d7478f8957679b26404bd6272c39f949c29",
      "function": "mint(address,uint256)",
      "arguments": [
        "0x6EFb11aC41B6657c32dAc5Ed4874082C700BbA29",
        "10000000000000000000000000"
      ],
      "transaction": {
        "from": "0x6efb11ac41b6657c32dac5ed4874082c700bba29",
        "to": "0xf9861d7478f8957679b26404bd6272c39f949c29",
        "gas": "0xc1c9",
        "value": "0x0",
        "input": "0x40c10f190000000000000000000000006efb11ac41b6657c32dac5ed4874082c700bba29000000000000000000000000000000000000000000084595161401484a000000",
        "nonce": "0xf7",
        "chainId": "0x279f"
      },
      "additionalContracts": [],
      "isFixedGasLimit": false
    },
    {
      "hash": "0x9250bdcec997f2feab8a600cbf31d0aa6d9ccd03526a0a2a05c19f303e696337",
      "transactionType": "CALL",
      "contractName": null,
      "contractAddress": "0x1889cfb8746716a0ac50e59a54f190987c5f04e6",
      "function": "mint(address,uint256)",
      "arguments": [
        "0x6EFb11aC41B6657c32dAc5Ed4874082C700BbA29",
        "100000000000000"
      ],
      "transaction": {
        "from": "0x6efb11ac41b6657c32dac5ed4874082c700bba29",
        "to": "0x1889cfb8746716a0ac50e59a54f190987c5f04e6",
        "gas": "0xb6d2",
        "value": "0x0",
        "input": "0x40c10f190000000000000000000000006efb11ac41b6657c32dac5ed4874082c700bba2900000000000000000000000000000000000000000000000000005af3107a4000",
        "nonce": "0xf8",
        "chainId": "0x279f"
      },
      "additionalContracts": [],
      "isFixedGasLimit": false
    },
    {
      "hash": "0xf0c310f160bcfefcd46056012ce5adcfec0ee9eea49af0c9dc9ed45224d7ce0f",
      "transactionType": "CALL",
      "contractName": null,
      "contractAddress": "0x6bc8a42d4b2f4bc8e4c3f9ecff00b7290ffa7405",
      "function": "mint(address,uint256)",
      "arguments": [
        "0x6EFb11aC41B6657c32dAc5Ed4874082C700BbA29",
        "100000000000000000000000"
      ],
      "transaction": {
        "from": "0x6efb11ac41b6657c32dac5ed4874082c700bba29",
        "to": "0x6bc8a42d4b2f4bc8e4c3f9ecff00b7290ffa7405",
        "gas": "0xc1c9",
        "value": "0x0",
        "input": "0x40c10f190000000000000000000000006efb11ac41b6657c32dac5ed4874082c700bba2900000000000000000000000000000000000000000000152d02c7e14af6800000",
        "nonce": "0xf9",
        "chainId": "0x279f"
      },
      "additionalContracts": [],
      "isFixedGasLimit": false
    },
    {
      "hash": "0x40dc406de3f7c7a41e7750bacaf9949d7fd1349dbb5328842ea22bbdede667a8",
      "transactionType": "CALL",
      "contractName": null,
      "contractAddress": "0xe3f98fda6dbd38c1017754f1675dce377381c23c",
      "function": "mint(address,uint256)",
      "arguments": [
        "0x6EFb11aC41B6657c32dAc5Ed4874082C700BbA29",
        "10000000000000000000000"
      ],
      "transaction": {
        "from": "0x6efb11ac41b6657c32dac5ed4874082c700bba29",
        "to": "0xe3f98fda6dbd38c1017754f1675dce377381c23c",
        "gas": "0xc1c9",
        "value": "0x0",
        "input": "0x40c10f190000000000000000000000006efb11ac41b6657c32dac5ed4874082c700bba2900000000000000000000000000000000000000000000021e19e0c9bab2400000",
        "nonce": "0xfa",
        "chainId": "0x279f"
      },
      "additionalContracts": [],
      "isFixedGasLimit": false
    },
    {
      "hash": "0x032a856b35f486cdccf8707d834d56a9a7a8069e5eab39d5b056d7507ba8b375",
      "transactionType": "CALL",
      "contractName": null,
      "contractAddress": "0x58389610a3d13e8f380ee2ba077a6f36f2a90834",
      "function": "mint(address,uint256)",
      "arguments": [
        "0x6EFb11aC41B6657c32dAc5Ed4874082C700BbA29",
        "1000000000000"
      ],
      "transaction": {
        "from": "0x6efb11ac41b6657c32dac5ed4874082c700bba29",
        "to": "0x58389610a3d13e8f380ee2ba077a6f36f2a90834",
        "gas": "0xc183",
        "value": "0x0",
        "input": "0x40c10f190000000000000000000000006efb11ac41b6657c32dac5ed4874082c700bba29000000000000000000000000000000000000000000000000000000e8d4a51000",
        "nonce": "0xfb",
        "chainId": "0x279f"
      },
      "additionalContracts": [],
      "isFixedGasLimit": false
    },
    {
      "hash": "0xa3150ef4c2da55451c1a2a6318fd8b9a1588af685fb82bbff8859289147ab7ef",
      "transactionType": "CALL",
      "contractName": null,
      "contractAddress": "0x2c53ce7143d24a65410107f50e4aabad9a164480",
      "function": "approve(address,uint256)",
      "arguments": [
        "0xa1ba9a5d1338c212C22405998268b0F6AA02Ab6E",
        "115792089237316195423570985008687907853269984665640564039457584007913129639935"
      ],
      "transaction": {
        "from": "0x6efb11ac41b6657c32dac5ed4874082c700bba29",
        "to": "0x2c53ce7143d24a65410107f50e4aabad9a164480",
        "gas": "0x96a4",
        "value": "0x0",
        "input": "0x095ea7b3000000000000000000000000a1ba9a5d1338c212c22405998268b0f6aa02ab6effffffffffffffffffffffffffffffffffffffffffffffffffffffffffffffff",
        "nonce": "0xfc",
        "chainId": "0x279f"
      },
      "additionalContracts": [],
      "isFixedGasLimit": false
    },
    {
      "hash": "0xb522746a5a5a24843d1ba803e180c0a276fa64f3fee293be61c35cd3d2ffd4bf",
      "transactionType": "CALL",
      "contractName": null,
      "contractAddress": "0x53f7c389cbb801e2abfd301ded6d2a1cf330ac0d",
      "function": "approve(address,uint256)",
      "arguments": [
        "0xa1ba9a5d1338c212C22405998268b0F6AA02Ab6E",
        "115792089237316195423570985008687907853269984665640564039457584007913129639935"
      ],
      "transaction": {
        "from": "0x6efb11ac41b6657c32dac5ed4874082c700bba29",
        "to": "0x53f7c389cbb801e2abfd301ded6d2a1cf330ac0d",
        "gas": "0x96a4",
        "value": "0x0",
        "input": "0x095ea7b3000000000000000000000000a1ba9a5d1338c212c22405998268b0f6aa02ab6effffffffffffffffffffffffffffffffffffffffffffffffffffffffffffffff",
        "nonce": "0xfd",
        "chainId": "0x279f"
      },
      "additionalContracts": [],
      "isFixedGasLimit": false
    },
    {
      "hash": "0xa18b68851b4e4d2bb27467c5a93988d1b539362b6c140397c64418516a95f622",
      "transactionType": "CALL",
      "contractName": null,
      "contractAddress": "0xf9861d7478f8957679b26404bd6272c39f949c29",
      "function": "approve(address,uint256)",
      "arguments": [
        "0xa1ba9a5d1338c212C22405998268b0F6AA02Ab6E",
        "115792089237316195423570985008687907853269984665640564039457584007913129639935"
      ],
      "transaction": {
        "from": "0x6efb11ac41b6657c32dac5ed4874082c700bba29",
        "to": "0xf9861d7478f8957679b26404bd6272c39f949c29",
        "gas": "0x96a4",
        "value": "0x0",
        "input": "0x095ea7b3000000000000000000000000a1ba9a5d1338c212c22405998268b0f6aa02ab6effffffffffffffffffffffffffffffffffffffffffffffffffffffffffffffff",
        "nonce": "0xfe",
        "chainId": "0x279f"
      },
      "additionalContracts": [],
      "isFixedGasLimit": false
    },
    {
      "hash": "0x67135eb039ffac1140bc348d80fd33aa67d515f0573af4805b3e035f55c68549",
      "transactionType": "CALL",
      "contractName": null,
      "contractAddress": "0x1889cfb8746716a0ac50e59a54f190987c5f04e6",
      "function": "approve(address,uint256)",
      "arguments": [
        "0xa1ba9a5d1338c212C22405998268b0F6AA02Ab6E",
        "115792089237316195423570985008687907853269984665640564039457584007913129639935"
      ],
      "transaction": {
        "from": "0x6efb11ac41b6657c32dac5ed4874082c700bba29",
        "to": "0x1889cfb8746716a0ac50e59a54f190987c5f04e6",
        "gas": "0x96a4",
        "value": "0x0",
        "input": "0x095ea7b3000000000000000000000000a1ba9a5d1338c212c22405998268b0f6aa02ab6effffffffffffffffffffffffffffffffffffffffffffffffffffffffffffffff",
        "nonce": "0xff",
        "chainId": "0x279f"
      },
      "additionalContracts": [],
      "isFixedGasLimit": false
    },
    {
      "hash": "0x5869bed1acf2573a449615fa51022f140de1ffabe1255d18ffa0737cb41e13ed",
      "transactionType": "CALL",
      "contractName": null,
      "contractAddress": "0x6bc8a42d4b2f4bc8e4c3f9ecff00b7290ffa7405",
      "function": "approve(address,uint256)",
      "arguments": [
        "0xa1ba9a5d1338c212C22405998268b0F6AA02Ab6E",
        "115792089237316195423570985008687907853269984665640564039457584007913129639935"
      ],
      "transaction": {
        "from": "0x6efb11ac41b6657c32dac5ed4874082c700bba29",
        "to": "0x6bc8a42d4b2f4bc8e4c3f9ecff00b7290ffa7405",
        "gas": "0x96a4",
        "value": "0x0",
        "input": "0x095ea7b3000000000000000000000000a1ba9a5d1338c212c22405998268b0f6aa02ab6effffffffffffffffffffffffffffffffffffffffffffffffffffffffffffffff",
        "nonce": "0x100",
        "chainId": "0x279f"
      },
      "additionalContracts": [],
      "isFixedGasLimit": false
    },
    {
      "hash": "0x55b9246230ffbebc3e52d3326f0e4723ad2fedb253a63e137c942a00407fa78d",
      "transactionType": "CALL",
      "contractName": null,
      "contractAddress": "0xe3f98fda6dbd38c1017754f1675dce377381c23c",
      "function": "approve(address,uint256)",
      "arguments": [
        "0xa1ba9a5d1338c212C22405998268b0F6AA02Ab6E",
        "115792089237316195423570985008687907853269984665640564039457584007913129639935"
      ],
      "transaction": {
        "from": "0x6efb11ac41b6657c32dac5ed4874082c700bba29",
        "to": "0xe3f98fda6dbd38c1017754f1675dce377381c23c",
        "gas": "0x96a4",
        "value": "0x0",
        "input": "0x095ea7b3000000000000000000000000a1ba9a5d1338c212c22405998268b0f6aa02ab6effffffffffffffffffffffffffffffffffffffffffffffffffffffffffffffff",
        "nonce": "0x101",
        "chainId": "0x279f"
      },
      "additionalContracts": [],
      "isFixedGasLimit": false
    },
    {
      "hash": "0x83cdfc42039742efd5d97fde4885274fa383ee9c5ea892ded1aeee95d6ba863b",
      "transactionType": "CALL",
      "contractName": null,
      "contractAddress": "0x58389610a3d13e8f380ee2ba077a6f36f2a90834",
      "function": "approve(address,uint256)",
      "arguments": [
        "0xa1ba9a5d1338c212C22405998268b0F6AA02Ab6E",
        "115792089237316195423570985008687907853269984665640564039457584007913129639935"
      ],
      "transaction": {
        "from": "0x6efb11ac41b6657c32dac5ed4874082c700bba29",
        "to": "0x58389610a3d13e8f380ee2ba077a6f36f2a90834",
        "gas": "0x96a4",
        "value": "0x0",
        "input": "0x095ea7b3000000000000000000000000a1ba9a5d1338c212c22405998268b0f6aa02ab6effffffffffffffffffffffffffffffffffffffffffffffffffffffffffffffff",
        "nonce": "0x102",
        "chainId": "0x279f"
      },
      "additionalContracts": [],
      "isFixedGasLimit": false
    },
    {
      "hash": "0x2062189a31cb60871c369b7c007747ed35977c1667c96cdb97390148bfabbfe0",
      "transactionType": "CALL",
      "contractName": null,
      "contractAddress": "0xa1ba9a5d1338c212c22405998268b0f6aa02ab6e",
      "function": "multicall(bytes[])",
      "arguments": [
        "[0x7d39aaf10000000000000000000000009a5141cf9f68ce4dd9f02ea7722455f3beaa9339000000000000000000000000000000000000000000000000000000003b9aca00, 0xe6d66ac80000000000000000000000002c53ce7143d24a65410107f50e4aabad9a1644800000000000000000000000009a5141cf9f68ce4dd9f02ea7722455f3beaa93390000000000000000000000000000000000000000000000056bc75e2d63100000, 0xe6d66ac800000000000000000000000058389610a3d13e8f380ee2ba077a6f36f2a908340000000000000000000000009a5141cf9f68ce4dd9f02ea7722455f3beaa93390000000000000000000000000000000000000000000000000000008bb2c97000, 0x293953b80000000000000000000000006efb11ac41b6657c32dac5ed4874082c700bba290000000000000000000000000000000000000000000000000000000000000000000000000000000000000000d0cb401840c5efac575e1fe57a308c396e73fbe00000000000000000000000002c53ce7143d24a65410107f50e4aabad9a16448000000000000000000000000058389610a3d13e8f380ee2ba077a6f36f2a908340000000000000000000000000000000000000000000000000000000000000000000000000000000000000000000000000000000000000000000000003b9aca00]"
      ],
      "transaction": {
        "from": "0x6efb11ac41b6657c32dac5ed4874082c700bba29",
        "to": "0xa1ba9a5d1338c212c22405998268b0f6aa02ab6e",
        "gas": "0x6e8f4",
        "value": "0x0",
        "input": "0xac9650d8000000000000000000000000000000000000000000000000000000000000002000000000000000000000000000000000000000000000000000000000000000040000000000000000000000000000000000000000000000000000000000000080000000000000000000000000000000000000000000000000000000000000010000000000000000000000000000000000000000000000000000000000000001a0000000000000000000000000000000000000000000000000000000000000024000000000000000000000000000000000000000000000000000000000000000447d39aaf10000000000000000000000009a5141cf9f68ce4dd9f02ea7722455f3beaa9339000000000000000000000000000000000000000000000000000000003b9aca00000000000000000000000000000000000000000000000000000000000000000000000000000000000000000000000000000000000000000000000064e6d66ac80000000000000000000000002c53ce7143d24a65410107f50e4aabad9a1644800000000000000000000000009a5141cf9f68ce4dd9f02ea7722455f3beaa93390000000000000000000000000000000000000000000000056bc75e2d63100000000000000000000000000000000000000000000000000000000000000000000000000000000000000000000000000000000000000000000000000064e6d66ac800000000000000000000000058389610a3d13e8f380ee2ba077a6f36f2a908340000000000000000000000009a5141cf9f68ce4dd9f02ea7722455f3beaa93390000000000000000000000000000000000000000000000000000008bb2c970000000000000000000000000000000000000000000000000000000000000000000000000000000000000000000000000000000000000000000000000e4293953b80000000000000000000000006efb11ac41b6657c32dac5ed4874082c700bba290000000000000000000000000000000000000000000000000000000000000000000000000000000000000000d0cb401840c5efac575e1fe57a308c396e73fbe00000000000000000000000002c53ce7143d24a65410107f50e4aabad9a16448000000000000000000000000058389610a3d13e8f380ee2ba077a6f36f2a908340000000000000000000000000000000000000000000000000000000000000000000000000000000000000000000000000000000000000000000000003b9aca0000000000000000000000000000000000000000000000000000000000",
        "nonce": "0x103",
        "chainId": "0x279f"
      },
      "additionalContracts": [],
      "isFixedGasLimit": false
    },
    {
      "hash": "0xed218353e0317a8e218dc4b20812af494224bed92566a84b8a1355dab350afd0",
      "transactionType": "CALL",
      "contractName": null,
      "contractAddress": "0xa1ba9a5d1338c212c22405998268b0f6aa02ab6e",
      "function": "multicall(bytes[])",
      "arguments": [
        "[0x7d39aaf10000000000000000000000009a5141cf9f68ce4dd9f02ea7722455f3beaa9339000000000000000000000000000000000000000000000000000000003b9aca00, 0xe6d66ac800000000000000000000000053f7c389cbb801e2abfd301ded6d2a1cf330ac0d0000000000000000000000009a5141cf9f68ce4dd9f02ea7722455f3beaa9339000000000000000000000000000000000000000000000002b5e3af16b1880000, 0xe6d66ac800000000000000000000000058389610a3d13e8f380ee2ba077a6f36f2a908340000000000000000000000009a5141cf9f68ce4dd9f02ea7722455f3beaa9339000000000000000000000000000000000000000000000000000005bad5431800, 0x293953b80000000000000000000000006efb11ac41b6657c32dac5ed4874082c700bba29000000000000000000000000000000000000000000000000000000000000000000000000000000000000000031310f40189bd05b234c2977bdb1fb141d2e4e2600000000000000000000000053f7c389cbb801e2abfd301ded6d2a1cf330ac0d00000000000000000000000058389610a3d13e8f380ee2ba077a6f36f2a908340000000000000000000000000000000000000000000000000000000000000000000000000000000000000000000000000000000000000000000000003b9aca00]"
      ],
      "transaction": {
        "from": "0x6efb11ac41b6657c32dac5ed4874082c700bba29",
        "to": "0xa1ba9a5d1338c212c22405998268b0f6aa02ab6e",
        "gas": "0x6f816",
        "value": "0x0",
        "input": "0xac9650d8000000000000000000000000000000000000000000000000000000000000002000000000000000000000000000000000000000000000000000000000000000040000000000000000000000000000000000000000000000000000000000000080000000000000000000000000000000000000000000000000000000000000010000000000000000000000000000000000000000000000000000000000000001a0000000000000000000000000000000000000000000000000000000000000024000000000000000000000000000000000000000000000000000000000000000447d39aaf10000000000000000000000009a5141cf9f68ce4dd9f02ea7722455f3beaa9339000000000000000000000000000000000000000000000000000000003b9aca00000000000000000000000000000000000000000000000000000000000000000000000000000000000000000000000000000000000000000000000064e6d66ac800000000000000000000000053f7c389cbb801e2abfd301ded6d2a1cf330ac0d0000000000000000000000009a5141cf9f68ce4dd9f02ea7722455f3beaa9339000000000000000000000000000000000000000000000002b5e3af16b1880000000000000000000000000000000000000000000000000000000000000000000000000000000000000000000000000000000000000000000000000064e6d66ac800000000000000000000000058389610a3d13e8f380ee2ba077a6f36f2a908340000000000000000000000009a5141cf9f68ce4dd9f02ea7722455f3beaa9339000000000000000000000000000000000000000000000000000005bad54318000000000000000000000000000000000000000000000000000000000000000000000000000000000000000000000000000000000000000000000000e4293953b80000000000000000000000006efb11ac41b6657c32dac5ed4874082c700bba29000000000000000000000000000000000000000000000000000000000000000000000000000000000000000031310f40189bd05b234c2977bdb1fb141d2e4e2600000000000000000000000053f7c389cbb801e2abfd301ded6d2a1cf330ac0d00000000000000000000000058389610a3d13e8f380ee2ba077a6f36f2a908340000000000000000000000000000000000000000000000000000000000000000000000000000000000000000000000000000000000000000000000003b9aca0000000000000000000000000000000000000000000000000000000000",
        "nonce": "0x104",
        "chainId": "0x279f"
      },
      "additionalContracts": [],
      "isFixedGasLimit": false
    },
    {
      "hash": "0x4b638de7a0d9c33e6d8319a5c09928f21538a4ee30b816914076738dbdbd1ea3",
      "transactionType": "CALL",
      "contractName": null,
      "contractAddress": "0xa1ba9a5d1338c212c22405998268b0f6aa02ab6e",
      "function": "multicall(bytes[])",
      "arguments": [
        "[0x7d39aaf10000000000000000000000009a5141cf9f68ce4dd9f02ea7722455f3beaa9339000000000000000000000000000000000000000000000000000000003b9aca00, 0xe6d66ac8000000000000000000000000f9861d7478f8957679b26404bd6272c39f949c290000000000000000000000009a5141cf9f68ce4dd9f02ea7722455f3beaa9339000000000000000000000000000000000000000000295be96e64066972000000, 0xe6d66ac800000000000000000000000058389610a3d13e8f380ee2ba077a6f36f2a908340000000000000000000000009a5141cf9f68ce4dd9f02ea7722455f3beaa9339000000000000000000000000000000000000000000000000000000037e11d600, 0x293953b80000000000000000000000006efb11ac41b6657c32dac5ed4874082c700bba29000000000000000000000000000000000000000000000000000000000000000000000000000000000000000072648c2523f817412f81d4f54d84e8ab994cf66b000000000000000000000000f9861d7478f8957679b26404bd6272c39f949c2900000000000000000000000058389610a3d13e8f380ee2ba077a6f36f2a908340000000000000000000000000000000000000000000000000000000000000000000000000000000000000000000000000000000000000000000000003b9aca00]"
      ],
      "transaction": {
        "from": "0x6efb11ac41b6657c32dac5ed4874082c700bba29",
        "to": "0xa1ba9a5d1338c212c22405998268b0f6aa02ab6e",
        "gas": "0x6f816",
        "value": "0x0",
        "input": "0xac9650d8000000000000000000000000000000000000000000000000000000000000002000000000000000000000000000000000000000000000000000000000000000040000000000000000000000000000000000000000000000000000000000000080000000000000000000000000000000000000000000000000000000000000010000000000000000000000000000000000000000000000000000000000000001a0000000000000000000000000000000000000000000000000000000000000024000000000000000000000000000000000000000000000000000000000000000447d39aaf10000000000000000000000009a5141cf9f68ce4dd9f02ea7722455f3beaa9339000000000000000000000000000000000000000000000000000000003b9aca00000000000000000000000000000000000000000000000000000000000000000000000000000000000000000000000000000000000000000000000064e6d66ac8000000000000000000000000f9861d7478f8957679b26404bd6272c39f949c290000000000000000000000009a5141cf9f68ce4dd9f02ea7722455f3beaa9339000000000000000000000000000000000000000000295be96e64066972000000000000000000000000000000000000000000000000000000000000000000000000000000000000000000000000000000000000000000000000000064e6d66ac800000000000000000000000058389610a3d13e8f380ee2ba077a6f36f2a908340000000000000000000000009a5141cf9f68ce4dd9f02ea7722455f3beaa9339000000000000000000000000000000000000000000000000000000037e11d6000000000000000000000000000000000000000000000000000000000000000000000000000000000000000000000000000000000000000000000000e4293953b80000000000000000000000006efb11ac41b6657c32dac5ed4874082c700bba29000000000000000000000000000000000000000000000000000000000000000000000000000000000000000072648c2523f817412f81d4f54d84e8ab994cf66b000000000000000000000000f9861d7478f8957679b26404bd6272c39f949c2900000000000000000000000058389610a3d13e8f380ee2ba077a6f36f2a908340000000000000000000000000000000000000000000000000000000000000000000000000000000000000000000000000000000000000000000000003b9aca0000000000000000000000000000000000000000000000000000000000",
        "nonce": "0x105",
        "chainId": "0x279f"
      },
      "additionalContracts": [],
      "isFixedGasLimit": false
    },
    {
      "hash": "0xd36e055753d8641090922c99e03ca70bbceb42bdfaf429061a92adde7564526a",
      "transactionType": "CALL",
      "contractName": null,
      "contractAddress": "0xa1ba9a5d1338c212c22405998268b0f6aa02ab6e",
      "function": "multicall(bytes[])",
      "arguments": [
        "[0x7d39aaf10000000000000000000000009a5141cf9f68ce4dd9f02ea7722455f3beaa9339000000000000000000000000000000000000000000000000000000003b9aca00, 0xe6d66ac80000000000000000000000001889cfb8746716a0ac50e59a54f190987c5f04e60000000000000000000000009a5141cf9f68ce4dd9f02ea7722455f3beaa933900000000000000000000000000000000000000000000000000005af3107a4000, 0xe6d66ac800000000000000000000000058389610a3d13e8f380ee2ba077a6f36f2a908340000000000000000000000009a5141cf9f68ce4dd9f02ea7722455f3beaa933900000000000000000000000000000000000000000000000000000045d964b800, 0x293953b80000000000000000000000006efb11ac41b6657c32dac5ed4874082c700bba2900000000000000000000000000000000000000000000000000000000000000000000000000000000000000005f5054ee2a7bc2617565b5b79f35573aa61394810000000000000000000000001889cfb8746716a0ac50e59a54f190987c5f04e600000000000000000000000058389610a3d13e8f380ee2ba077a6f36f2a908340000000000000000000000000000000000000000000000000000000000000000000000000000000000000000000000000000000000000000000000003b9aca00]"
      ],
      "transaction": {
        "from": "0x6efb11ac41b6657c32dac5ed4874082c700bba29",
        "to": "0xa1ba9a5d1338c212c22405998268b0f6aa02ab6e",
        "gas": "0x760d4",
        "value": "0x0",
        "input": "0xac9650d8000000000000000000000000000000000000000000000000000000000000002000000000000000000000000000000000000000000000000000000000000000040000000000000000000000000000000000000000000000000000000000000080000000000000000000000000000000000000000000000000000000000000010000000000000000000000000000000000000000000000000000000000000001a0000000000000000000000000000000000000000000000000000000000000024000000000000000000000000000000000000000000000000000000000000000447d39aaf10000000000000000000000009a5141cf9f68ce4dd9f02ea7722455f3beaa9339000000000000000000000000000000000000000000000000000000003b9aca00000000000000000000000000000000000000000000000000000000000000000000000000000000000000000000000000000000000000000000000064e6d66ac80000000000000000000000001889cfb8746716a0ac50e59a54f190987c5f04e60000000000000000000000009a5141cf9f68ce4dd9f02ea7722455f3beaa933900000000000000000000000000000000000000000000000000005af3107a4000000000000000000000000000000000000000000000000000000000000000000000000000000000000000000000000000000000000000000000000064e6d66ac800000000000000000000000058389610a3d13e8f380ee2ba077a6f36f2a908340000000000000000000000009a5141cf9f68ce4dd9f02ea7722455f3beaa933900000000000000000000000000000000000000000000000000000045d964b8000000000000000000000000000000000000000000000000000000000000000000000000000000000000000000000000000000000000000000000000e4293953b80000000000000000000000006efb11ac41b6657c32dac5ed4874082c700bba2900000000000000000000000000000000000000000000000000000000000000000000000000000000000000005f5054ee2a7bc2617565b5b79f35573aa61394810000000000000000000000001889cfb8746716a0ac50e59a54f190987c5f04e600000000000000000000000058389610a3d13e8f380ee2ba077a6f36f2a908340000000000000000000000000000000000000000000000000000000000000000000000000000000000000000000000000000000000000000000000003b9aca0000000000000000000000000000000000000000000000000000000000",
        "nonce": "0x106",
        "chainId": "0x279f"
      },
      "additionalContracts": [],
      "isFixedGasLimit": false
    },
    {
      "hash": "0xfd1089e79782ebd5ea2774e3e9fa2f221e0e88a6148a2a21133e369a237c26c0",
      "transactionType": "CALL",
      "contractName": null,
      "contractAddress": "0xa1ba9a5d1338c212c22405998268b0f6aa02ab6e",
      "function": "multicall(bytes[])",
      "arguments": [
        "[0x7d39aaf10000000000000000000000009a5141cf9f68ce4dd9f02ea7722455f3beaa9339000000000000000000000000000000000000000000000000000000003b9aca00, 0xe6d66ac80000000000000000000000006bc8a42d4b2f4bc8e4c3f9ecff00b7290ffa74050000000000000000000000009a5141cf9f68ce4dd9f02ea7722455f3beaa93390000000000000000000000000000000000000000000069e10de76676d0800000, 0xe6d66ac800000000000000000000000058389610a3d13e8f380ee2ba077a6f36f2a908340000000000000000000000009a5141cf9f68ce4dd9f02ea7722455f3beaa93390000000000000000000000000000000000000000000000000000001176592e00, 0x293953b80000000000000000000000006efb11ac41b6657c32dac5ed4874082c700bba29000000000000000000000000000000000000000000000000000000000000000000000000000000000000000037ee6083d1191b00eda1f6304c9a60695bfee8da0000000000000000000000006bc8a42d4b2f4bc8e4c3f9ecff00b7290ffa740500000000000000000000000058389610a3d13e8f380ee2ba077a6f36f2a908340000000000000000000000000000000000000000000000000000000000000000000000000000000000000000000000000000000000000000000000003b9aca00]"
      ],
      "transaction": {
        "from": "0x6efb11ac41b6657c32dac5ed4874082c700bba29",
        "to": "0xa1ba9a5d1338c212c22405998268b0f6aa02ab6e",
        "gas": "0x760d4",
        "value": "0x0",
        "input": "0xac9650d8000000000000000000000000000000000000000000000000000000000000002000000000000000000000000000000000000000000000000000000000000000040000000000000000000000000000000000000000000000000000000000000080000000000000000000000000000000000000000000000000000000000000010000000000000000000000000000000000000000000000000000000000000001a0000000000000000000000000000000000000000000000000000000000000024000000000000000000000000000000000000000000000000000000000000000447d39aaf10000000000000000000000009a5141cf9f68ce4dd9f02ea7722455f3beaa9339000000000000000000000000000000000000000000000000000000003b9aca00000000000000000000000000000000000000000000000000000000000000000000000000000000000000000000000000000000000000000000000064e6d66ac80000000000000000000000006bc8a42d4b2f4bc8e4c3f9ecff00b7290ffa74050000000000000000000000009a5141cf9f68ce4dd9f02ea7722455f3beaa93390000000000000000000000000000000000000000000069e10de76676d0800000000000000000000000000000000000000000000000000000000000000000000000000000000000000000000000000000000000000000000000000064e6d66ac800000000000000000000000058389610a3d13e8f380ee2ba077a6f36f2a908340000000000000000000000009a5141cf9f68ce4dd9f02ea7722455f3beaa93390000000000000000000000000000000000000000000000000000001176592e000000000000000000000000000000000000000000000000000000000000000000000000000000000000000000000000000000000000000000000000e4293953b80000000000000000000000006efb11ac41b6657c32dac5ed4874082c700bba29000000000000000000000000000000000000000000000000000000000000000000000000000000000000000037ee6083d1191b00eda1f6304c9a60695bfee8da0000000000000000000000006bc8a42d4b2f4bc8e4c3f9ecff00b7290ffa740500000000000000000000000058389610a3d13e8f380ee2ba077a6f36f2a908340000000000000000000000000000000000000000000000000000000000000000000000000000000000000000000000000000000000000000000000003b9aca0000000000000000000000000000000000000000000000000000000000",
        "nonce": "0x107",
        "chainId": "0x279f"
      },
      "additionalContracts": [],
      "isFixedGasLimit": false
    },
    {
      "hash": "0x803901f62d26b4d736779df30e1e14f5b8b3d3f182dbcdad116103618463da3e",
      "transactionType": "CALL",
      "contractName": null,
      "contractAddress": "0xa1ba9a5d1338c212c22405998268b0f6aa02ab6e",
      "function": "multicall(bytes[])",
      "arguments": [
        "[0x7d39aaf10000000000000000000000009a5141cf9f68ce4dd9f02ea7722455f3beaa9339000000000000000000000000000000000000000000000000000000003b9aca00, 0xe6d66ac8000000000000000000000000e3f98fda6dbd38c1017754f1675dce377381c23c0000000000000000000000009a5141cf9f68ce4dd9f02ea7722455f3beaa933900000000000000000000000000000000000000000000021e19e0c9bab2400000, 0xe6d66ac800000000000000000000000058389610a3d13e8f380ee2ba077a6f36f2a908340000000000000000000000009a5141cf9f68ce4dd9f02ea7722455f3beaa933900000000000000000000000000000000000000000000000000000068c6171400, 0x293953b80000000000000000000000006efb11ac41b6657c32dac5ed4874082c700bba2900000000000000000000000000000000000000000000000000000000000000000000000000000000000000008e3e87de2503661f3b4879a9743f3fe3d347be52000000000000000000000000e3f98fda6dbd38c1017754f1675dce377381c23c00000000000000000000000058389610a3d13e8f380ee2ba077a6f36f2a908340000000000000000000000000000000000000000000000000000000000000000000000000000000000000000000000000000000000000000000000003b9aca00]"
      ],
      "transaction": {
        "from": "0x6efb11ac41b6657c32dac5ed4874082c700bba29",
        "to": "0xa1ba9a5d1338c212c22405998268b0f6aa02ab6e",
        "gas": "0x6f816",
        "value": "0x0",
        "input": "0xac9650d8000000000000000000000000000000000000000000000000000000000000002000000000000000000000000000000000000000000000000000000000000000040000000000000000000000000000000000000000000000000000000000000080000000000000000000000000000000000000000000000000000000000000010000000000000000000000000000000000000000000000000000000000000001a0000000000000000000000000000000000000000000000000000000000000024000000000000000000000000000000000000000000000000000000000000000447d39aaf10000000000000000000000009a5141cf9f68ce4dd9f02ea7722455f3beaa9339000000000000000000000000000000000000000000000000000000003b9aca00000000000000000000000000000000000000000000000000000000000000000000000000000000000000000000000000000000000000000000000064e6d66ac8000000000000000000000000e3f98fda6dbd38c1017754f1675dce377381c23c0000000000000000000000009a5141cf9f68ce4dd9f02ea7722455f3beaa933900000000000000000000000000000000000000000000021e19e0c9bab2400000000000000000000000000000000000000000000000000000000000000000000000000000000000000000000000000000000000000000000000000064e6d66ac800000000000000000000000058389610a3d13e8f380ee2ba077a6f36f2a908340000000000000000000000009a5141cf9f68ce4dd9f02ea7722455f3beaa933900000000000000000000000000000000000000000000000000000068c61714000000000000000000000000000000000000000000000000000000000000000000000000000000000000000000000000000000000000000000000000e4293953b80000000000000000000000006efb11ac41b6657c32dac5ed4874082c700bba2900000000000000000000000000000000000000000000000000000000000000000000000000000000000000008e3e87de2503661f3b4879a9743f3fe3d347be52000000000000000000000000e3f98fda6dbd38c1017754f1675dce377381c23c00000000000000000000000058389610a3d13e8f380ee2ba077a6f36f2a908340000000000000000000000000000000000000000000000000000000000000000000000000000000000000000000000000000000000000000000000003b9aca0000000000000000000000000000000000000000000000000000000000",
        "nonce": "0x108",
        "chainId": "0x279f"
      },
      "additionalContracts": [],
      "isFixedGasLimit": false
    }
  ],
  "receipts": [
    {
      "status": "0x1",
      "cumulativeGasUsed": "0xdd9211",
      "logs": [
        {
          "address": "0x2c53ce7143d24a65410107f50e4aabad9a164480",
          "topics": [
            "0xddf252ad1be2c89b69c2b068fc378daa952ba7f163c4a11628f55a4df523b3ef",
            "0x0000000000000000000000000000000000000000000000000000000000000000",
            "0x0000000000000000000000006efb11ac41b6657c32dac5ed4874082c700bba29"
          ],
          "data": "0x00000000000000000000000000000000000000000000021e19e0c9bab2400000",
          "blockHash": "0x27a17f9533b30c13d041ad3b5a47e093ed5284dee32a44111956dbbc81b73664",
          "blockNumber": "0x7226e3",
          "blockTimestamp": "0x67d1da90",
          "transactionHash": "0xe0f5b9a1fafc5c0535d1df5b8de533adebd750cba8883dcf859f85f3f53dfb9b",
          "transactionIndex": "0x78",
          "logIndex": "0xaa",
          "removed": false
        }
      ],
      "logsBloom": "0x00000000000000000200000000000000000000000000000000000000000000000000000000000000000000000000000000001000000100000000000000000000000000000000000000000008000000000000000000000000000000000000000000000000020000000000000000000800000000000000000000000010000000000000000000000000000000000000000000000000000000000000000000000000000000000000000000000000000000000000000000000000000001000000000000000002000000000000000000000000000000010000000000000000000020000000001000000000000000000000000000000000000000000000000000000000",
      "type": "0x2",
      "transactionHash": "0xe0f5b9a1fafc5c0535d1df5b8de533adebd750cba8883dcf859f85f3f53dfb9b",
      "transactionIndex": "0x78",
      "blockHash": "0x27a17f9533b30c13d041ad3b5a47e093ed5284dee32a44111956dbbc81b73664",
      "blockNumber": "0x7226e3",
      "gasUsed": "0xc1c9",
      "effectiveGasPrice": "0xba43b7401",
      "from": "0x6efb11ac41b6657c32dac5ed4874082c700bba29",
      "to": "0x2c53ce7143d24a65410107f50e4aabad9a164480",
      "contractAddress": null
    },
    {
      "status": "0x1",
      "cumulativeGasUsed": "0xb21eca",
      "logs": [
        {
          "address": "0x53f7c389cbb801e2abfd301ded6d2a1cf330ac0d",
          "topics": [
            "0xddf252ad1be2c89b69c2b068fc378daa952ba7f163c4a11628f55a4df523b3ef",
            "0x0000000000000000000000000000000000000000000000000000000000000000",
            "0x0000000000000000000000006efb11ac41b6657c32dac5ed4874082c700bba29"
          ],
          "data": "0x00000000000000000000000000000000000000000000021e19e0c9bab2400000",
          "blockHash": "0x7eea3ddfddabd162ac1c129340855de99e9c85d7ea8c0222c53a109f3592fdee",
          "blockNumber": "0x7226e4",
          "blockTimestamp": "0x67d1da90",
          "transactionHash": "0xb2487fa634dc7c9611fb612d598ef035a49059d59a07dae14bea635ce58727af",
          "transactionIndex": "0x61",
          "logIndex": "0x6f",
          "removed": false
        }
      ],
      "logsBloom": "0x00000000000000000200000002000000000000000000000000000000000000000000000000000000000000000000000000000000000100000000000000000000000000000000000000000008000000000000000000000000000000000000000000000000020000000000000000000800000000000000000000000010000000000000000000000000000000000000000000000000000000000000000000000000000000000010000000000000000000000000000000000000000001000000000000000002000000000000000000000000000000000000000000000000000020000000000000000000000000000000000000000000000000000008000000000000",
      "type": "0x2",
      "transactionHash": "0xb2487fa634dc7c9611fb612d598ef035a49059d59a07dae14bea635ce58727af",
      "transactionIndex": "0x61",
      "blockHash": "0x7eea3ddfddabd162ac1c129340855de99e9c85d7ea8c0222c53a109f3592fdee",
      "blockNumber": "0x7226e4",
      "gasUsed": "0xc1c9",
      "effectiveGasPrice": "0xba43b7401",
      "from": "0x6efb11ac41b6657c32dac5ed4874082c700bba29",
      "to": "0x53f7c389cbb801e2abfd301ded6d2a1cf330ac0d",
      "contractAddress": null
    },
    {
      "status": "0x1",
      "cumulativeGasUsed": "0xb2e093",
      "logs": [
        {
          "address": "0xf9861d7478f8957679b26404bd6272c39f949c29",
          "topics": [
            "0xddf252ad1be2c89b69c2b068fc378daa952ba7f163c4a11628f55a4df523b3ef",
            "0x0000000000000000000000000000000000000000000000000000000000000000",
            "0x0000000000000000000000006efb11ac41b6657c32dac5ed4874082c700bba29"
          ],
          "data": "0x000000000000000000000000000000000000000000084595161401484a000000",
          "blockHash": "0x7eea3ddfddabd162ac1c129340855de99e9c85d7ea8c0222c53a109f3592fdee",
          "blockNumber": "0x7226e4",
          "blockTimestamp": "0x67d1da90",
          "transactionHash": "0x4c338282e796ea2fef25d7d31f7d5bde7151c2f14f3a1b6ffb7d7003950ebb65",
          "transactionIndex": "0x62",
          "logIndex": "0x70",
          "removed": false
        }
      ],
      "logsBloom": "0x00000000000000000200000000000000000000000000000000000000000000000000000000000000000000000000000000000000000100000000000000000000000000000000000000000008000000000000000000000000000000000000000000000000060000000000000000000800000000000000000000000010000000000000000000000000000000000000000000000000000000000000000000000000000000000000000000040000000000000000000000000000000001000000000000000002080000000000000000000000000000000000000000000000000020000000000000000000000000000000000000000000000000000000000000000000",
      "type": "0x2",
      "transactionHash": "0x4c338282e796ea2fef25d7d31f7d5bde7151c2f14f3a1b6ffb7d7003950ebb65",
      "transactionIndex": "0x62",
      "blockHash": "0x7eea3ddfddabd162ac1c129340855de99e9c85d7ea8c0222c53a109f3592fdee",
      "blockNumber": "0x7226e4",
      "gasUsed": "0xc1c9",
      "effectiveGasPrice": "0xba43b7401",
      "from": "0x6efb11ac41b6657c32dac5ed4874082c700bba29",
      "to": "0xf9861d7478f8957679b26404bd6272c39f949c29",
      "contractAddress": null
    },
    {
      "status": "0x1",
      "cumulativeGasUsed": "0xb39765",
      "logs": [
        {
          "address": "0x1889cfb8746716a0ac50e59a54f190987c5f04e6",
          "topics": [
            "0xddf252ad1be2c89b69c2b068fc378daa952ba7f163c4a11628f55a4df523b3ef",
            "0x0000000000000000000000000000000000000000000000000000000000000000",
            "0x0000000000000000000000006efb11ac41b6657c32dac5ed4874082c700bba29"
          ],
          "data": "0x00000000000000000000000000000000000000000000000000005af3107a4000",
          "blockHash": "0x7eea3ddfddabd162ac1c129340855de99e9c85d7ea8c0222c53a109f3592fdee",
          "blockNumber": "0x7226e4",
          "blockTimestamp": "0x67d1da90",
          "transactionHash": "0x9250bdcec997f2feab8a600cbf31d0aa6d9ccd03526a0a2a05c19f303e696337",
          "transactionIndex": "0x63",
          "logIndex": "0x71",
          "removed": false
        }
      ],
      "logsBloom": "0x00000000000000000200000000000000000000000000000000000000000000000000000000000000000000000000000000000000000100000000000000000000000000000000000000000008000000000000000000000000000400000000000000000000020000000000000000000800000000000000000000000010000000000000000000000000000000000000000000000000000000000000000000000000000000000000100000000000000000000000000000000000000001000000000000000002000000000000000000000000000000000000000000000000000020000000000080000000000000000000000000000000000000000000000000000000",
      "type": "0x2",
      "transactionHash": "0x9250bdcec997f2feab8a600cbf31d0aa6d9ccd03526a0a2a05c19f303e696337",
      "transactionIndex": "0x63",
      "blockHash": "0x7eea3ddfddabd162ac1c129340855de99e9c85d7ea8c0222c53a109f3592fdee",
      "blockNumber": "0x7226e4",
      "gasUsed": "0xb6d2",
      "effectiveGasPrice": "0xba43b7401",
      "from": "0x6efb11ac41b6657c32dac5ed4874082c700bba29",
      "to": "0x1889cfb8746716a0ac50e59a54f190987c5f04e6",
      "contractAddress": null
    },
    {
      "status": "0x1",
      "cumulativeGasUsed": "0xb4592e",
      "logs": [
        {
          "address": "0x6bc8a42d4b2f4bc8e4c3f9ecff00b7290ffa7405",
          "topics": [
            "0xddf252ad1be2c89b69c2b068fc378daa952ba7f163c4a11628f55a4df523b3ef",
            "0x0000000000000000000000000000000000000000000000000000000000000000",
            "0x0000000000000000000000006efb11ac41b6657c32dac5ed4874082c700bba29"
          ],
          "data": "0x00000000000000000000000000000000000000000000152d02c7e14af6800000",
          "blockHash": "0x7eea3ddfddabd162ac1c129340855de99e9c85d7ea8c0222c53a109f3592fdee",
          "blockNumber": "0x7226e4",
          "blockTimestamp": "0x67d1da90",
          "transactionHash": "0xf0c310f160bcfefcd46056012ce5adcfec0ee9eea49af0c9dc9ed45224d7ce0f",
          "transactionIndex": "0x64",
          "logIndex": "0x72",
          "removed": false
        }
      ],
      "logsBloom": "0x00000000000000000200000000000000000000000000000000000000000000000000000000000000000000000000000000002000000100000400000000000000000000000000000000000008000000000000000000000000000000000000000000000000020000000000000000000800000000000000000000000010000000000000000000000000000000000000000000000000000000000000000000000000000000000200000000000000000000000000000000000000000001000000000000000002000000000000000000000000000000000000000000000000000020000000000000000000000000000000000000000000000000000000000000000000",
      "type": "0x2",
      "transactionHash": "0xf0c310f160bcfefcd46056012ce5adcfec0ee9eea49af0c9dc9ed45224d7ce0f",
      "transactionIndex": "0x64",
      "blockHash": "0x7eea3ddfddabd162ac1c129340855de99e9c85d7ea8c0222c53a109f3592fdee",
      "blockNumber": "0x7226e4",
      "gasUsed": "0xc1c9",
      "effectiveGasPrice": "0xba43b7401",
      "from": "0x6efb11ac41b6657c32dac5ed4874082c700bba29",
      "to": "0x6bc8a42d4b2f4bc8e4c3f9ecff00b7290ffa7405",
      "contractAddress": null
    },
    {
      "status": "0x1",
      "cumulativeGasUsed": "0xa8f0be",
      "logs": [
        {
          "address": "0xe3f98fda6dbd38c1017754f1675dce377381c23c",
          "topics": [
            "0xddf252ad1be2c89b69c2b068fc378daa952ba7f163c4a11628f55a4df523b3ef",
            "0x0000000000000000000000000000000000000000000000000000000000000000",
            "0x0000000000000000000000006efb11ac41b6657c32dac5ed4874082c700bba29"
          ],
          "data": "0x00000000000000000000000000000000000000000000021e19e0c9bab2400000",
          "blockHash": "0x1a0c6d42e51a20123eac4e3f70ff6bd48bc10a2590ee0816b5077bc9e19ff240",
          "blockNumber": "0x7226e8",
          "blockTimestamp": "0x67d1da95",
          "transactionHash": "0x40dc406de3f7c7a41e7750bacaf9949d7fd1349dbb5328842ea22bbdede667a8",
          "transactionIndex": "0x71",
          "logIndex": "0x86",
          "removed": false
        }
      ],
      "logsBloom": "0x00000000000000002200000000000000000000000000000000000000000000000000000000000000000000000000000000000000000100000000000000000000000000000000000000000008000000000000000000000000000000000000000000000000020000000000000000000800000000000000000000000010000000000000000000000000000000000000000000000000000000000020000000000000000000000000000000000000000020000000000000000000000001000000000000000002000000000000000000000000000000000000000000000000000020000000000000000000000000000000000000000000000000000000000000000000",
      "type": "0x2",
      "transactionHash": "0x40dc406de3f7c7a41e7750bacaf9949d7fd1349dbb5328842ea22bbdede667a8",
      "transactionIndex": "0x71",
      "blockHash": "0x1a0c6d42e51a20123eac4e3f70ff6bd48bc10a2590ee0816b5077bc9e19ff240",
      "blockNumber": "0x7226e8",
      "gasUsed": "0xc1c9",
      "effectiveGasPrice": "0xba43b7401",
      "from": "0x6efb11ac41b6657c32dac5ed4874082c700bba29",
      "to": "0xe3f98fda6dbd38c1017754f1675dce377381c23c",
      "contractAddress": null
    },
    {
      "status": "0x1",
      "cumulativeGasUsed": "0xa9b241",
      "logs": [
        {
          "address": "0x58389610a3d13e8f380ee2ba077a6f36f2a90834",
          "topics": [
            "0xddf252ad1be2c89b69c2b068fc378daa952ba7f163c4a11628f55a4df523b3ef",
            "0x0000000000000000000000000000000000000000000000000000000000000000",
            "0x0000000000000000000000006efb11ac41b6657c32dac5ed4874082c700bba29"
          ],
          "data": "0x000000000000000000000000000000000000000000000000000000e8d4a51000",
          "blockHash": "0x1a0c6d42e51a20123eac4e3f70ff6bd48bc10a2590ee0816b5077bc9e19ff240",
          "blockNumber": "0x7226e8",
          "blockTimestamp": "0x67d1da95",
          "transactionHash": "0x032a856b35f486cdccf8707d834d56a9a7a8069e5eab39d5b056d7507ba8b375",
          "transactionIndex": "0x72",
          "logIndex": "0x87",
          "removed": false
        }
      ],
      "logsBloom": "0x00000000000000000200000000000000000000000000000000000000000000000000000000000000000000000000000000000000000100000000000000000000000000000000000000000008000000000000000000000400001000000000000000000000020000000000000000000800000000000000000000000010000000000000000000000000000000000000000000000000000000000000000000000000000000000000000000000000000000040000000000000000000001000000000000000002000000000000000000000000000000000000000000000000000020000000000000000000000000000000000000000000000000000000000000000000",
      "type": "0x2",
      "transactionHash": "0x032a856b35f486cdccf8707d834d56a9a7a8069e5eab39d5b056d7507ba8b375",
      "transactionIndex": "0x72",
      "blockHash": "0x1a0c6d42e51a20123eac4e3f70ff6bd48bc10a2590ee0816b5077bc9e19ff240",
      "blockNumber": "0x7226e8",
      "gasUsed": "0xc183",
      "effectiveGasPrice": "0xba43b7401",
      "from": "0x6efb11ac41b6657c32dac5ed4874082c700bba29",
      "to": "0x58389610a3d13e8f380ee2ba077a6f36f2a90834",
      "contractAddress": null
    },
    {
      "status": "0x1",
      "cumulativeGasUsed": "0xaa48e5",
      "logs": [
        {
          "address": "0x2c53ce7143d24a65410107f50e4aabad9a164480",
          "topics": [
            "0x8c5be1e5ebec7d5bd14f71427d1e84f3dd0314c0f7b2291e5b200ac8c7c3b925",
            "0x0000000000000000000000006efb11ac41b6657c32dac5ed4874082c700bba29",
            "0x000000000000000000000000a1ba9a5d1338c212c22405998268b0f6aa02ab6e"
          ],
          "data": "0xffffffffffffffffffffffffffffffffffffffffffffffffffffffffffffffff",
          "blockHash": "0x1a0c6d42e51a20123eac4e3f70ff6bd48bc10a2590ee0816b5077bc9e19ff240",
          "blockNumber": "0x7226e8",
          "blockTimestamp": "0x67d1da95",
          "transactionHash": "0xa3150ef4c2da55451c1a2a6318fd8b9a1588af685fb82bbff8859289147ab7ef",
          "transactionIndex": "0x73",
          "logIndex": "0x88",
          "removed": false
        }
      ],
      "logsBloom": "0x00000000000000000200000000000000000000000000000000000000000000000000000000000000000000000000000000001000000100000000000000200000000000000000000000000000000000000000000000000000000000004000000000000000000000000000000000000000000000000000000000000000000000000000000000000000000000000000000000000000000000000000000000000000020000000000000000000000000000000000000000000000000001000000008000000000000000000000000000000000000000010000000000000000000000000010001000000400000000000000000000000000000000000000000000000000",
      "type": "0x2",
      "transactionHash": "0xa3150ef4c2da55451c1a2a6318fd8b9a1588af685fb82bbff8859289147ab7ef",
      "transactionIndex": "0x73",
      "blockHash": "0x1a0c6d42e51a20123eac4e3f70ff6bd48bc10a2590ee0816b5077bc9e19ff240",
      "blockNumber": "0x7226e8",
      "gasUsed": "0x96a4",
      "effectiveGasPrice": "0xba43b7401",
      "from": "0x6efb11ac41b6657c32dac5ed4874082c700bba29",
      "to": "0x2c53ce7143d24a65410107f50e4aabad9a164480",
      "contractAddress": null
    },
    {
      "status": "0x1",
      "cumulativeGasUsed": "0xc47e0d",
      "logs": [
        {
          "address": "0x53f7c389cbb801e2abfd301ded6d2a1cf330ac0d",
          "topics": [
            "0x8c5be1e5ebec7d5bd14f71427d1e84f3dd0314c0f7b2291e5b200ac8c7c3b925",
            "0x0000000000000000000000006efb11ac41b6657c32dac5ed4874082c700bba29",
            "0x000000000000000000000000a1ba9a5d1338c212c22405998268b0f6aa02ab6e"
          ],
          "data": "0xffffffffffffffffffffffffffffffffffffffffffffffffffffffffffffffff",
          "blockHash": "0x61fd7f57faac4fb2a23d8fc7a34532817eaeba1581688685756ed8735417c3ee",
          "blockNumber": "0x7226e9",
          "blockTimestamp": "0x67d1da95",
          "transactionHash": "0xb522746a5a5a24843d1ba803e180c0a276fa64f3fee293be61c35cd3d2ffd4bf",
          "transactionIndex": "0xac",
          "logIndex": "0x10e",
          "removed": false
        }
      ],
      "logsBloom": "0x00000000000000000200000002000000000000000000000000000000000000000000000000000000000000000000000000000000000100000000000000200000000000000000000000000000000000000000000000000000000000004000000000000000000000000000000000000000000000000000000000000000000000000000000000000000000000000000000000000000000000000000000000000000020000000010000000000000000000000000000000000000000001000000008000000000000000000000000000000000000000000000000000000000000000000010000000000400000000000000000000000000000000000008000000000000",
      "type": "0x2",
      "transactionHash": "0xb522746a5a5a24843d1ba803e180c0a276fa64f3fee293be61c35cd3d2ffd4bf",
      "transactionIndex": "0xac",
      "blockHash": "0x61fd7f57faac4fb2a23d8fc7a34532817eaeba1581688685756ed8735417c3ee",
      "blockNumber": "0x7226e9",
      "gasUsed": "0x96a4",
      "effectiveGasPrice": "0xba43b7401",
      "from": "0x6efb11ac41b6657c32dac5ed4874082c700bba29",
      "to": "0x53f7c389cbb801e2abfd301ded6d2a1cf330ac0d",
      "contractAddress": null
    },
    {
      "status": "0x1",
      "cumulativeGasUsed": "0xc514b1",
      "logs": [
        {
          "address": "0xf9861d7478f8957679b26404bd6272c39f949c29",
          "topics": [
            "0x8c5be1e5ebec7d5bd14f71427d1e84f3dd0314c0f7b2291e5b200ac8c7c3b925",
            "0x0000000000000000000000006efb11ac41b6657c32dac5ed4874082c700bba29",
            "0x000000000000000000000000a1ba9a5d1338c212c22405998268b0f6aa02ab6e"
          ],
          "data": "0xffffffffffffffffffffffffffffffffffffffffffffffffffffffffffffffff",
          "blockHash": "0x61fd7f57faac4fb2a23d8fc7a34532817eaeba1581688685756ed8735417c3ee",
          "blockNumber": "0x7226e9",
          "blockTimestamp": "0x67d1da95",
          "transactionHash": "0xa18b68851b4e4d2bb27467c5a93988d1b539362b6c140397c64418516a95f622",
          "transactionIndex": "0xad",
          "logIndex": "0x10f",
          "removed": false
        }
      ],
      "logsBloom": "0x00000000000000000200000000000000000000000000000000000000000000000000000000000000000000000000000000000000000100000000000000200000000000000000000000000000000000000000000000000000000000004000000000000000040000000000000000000000000000000000000000000000000000000000000000000000000000000000000000000000000000000000000000000000020000000000000000040000000000000000000000000000000001000000008000000000080000000000000000000000000000000000000000000000000000000010000000000400000000000000000000000000000000000000000000000000",
      "type": "0x2",
      "transactionHash": "0xa18b68851b4e4d2bb27467c5a93988d1b539362b6c140397c64418516a95f622",
      "transactionIndex": "0xad",
      "blockHash": "0x61fd7f57faac4fb2a23d8fc7a34532817eaeba1581688685756ed8735417c3ee",
      "blockNumber": "0x7226e9",
      "gasUsed": "0x96a4",
      "effectiveGasPrice": "0xba43b7401",
      "from": "0x6efb11ac41b6657c32dac5ed4874082c700bba29",
      "to": "0xf9861d7478f8957679b26404bd6272c39f949c29",
      "contractAddress": null
    },
    {
      "status": "0x1",
      "cumulativeGasUsed": "0xc5ab55",
      "logs": [
        {
          "address": "0x1889cfb8746716a0ac50e59a54f190987c5f04e6",
          "topics": [
            "0x8c5be1e5ebec7d5bd14f71427d1e84f3dd0314c0f7b2291e5b200ac8c7c3b925",
            "0x0000000000000000000000006efb11ac41b6657c32dac5ed4874082c700bba29",
            "0x000000000000000000000000a1ba9a5d1338c212c22405998268b0f6aa02ab6e"
          ],
          "data": "0xffffffffffffffffffffffffffffffffffffffffffffffffffffffffffffffff",
          "blockHash": "0x61fd7f57faac4fb2a23d8fc7a34532817eaeba1581688685756ed8735417c3ee",
          "blockNumber": "0x7226e9",
          "blockTimestamp": "0x67d1da95",
          "transactionHash": "0x67135eb039ffac1140bc348d80fd33aa67d515f0573af4805b3e035f55c68549",
          "transactionIndex": "0xae",
          "logIndex": "0x110",
          "removed": false
        }
      ],
      "logsBloom": "0x00000000000000000200000000000000000000000000000000000000000000000000000000000000000000000000000000000000000100000000000000200000000000000000000000000000000000000000000000000000000400004000000000000000000000000000000000000000000000000000000000000000000000000000000000000000000000000000000000000000000000000000000000000000020000000000100000000000000000000000000000000000000001000000008000000000000000000000000000000000000000000000000000000000000000000010000080000400000000000000000000000000000000000000000000000000",
      "type": "0x2",
      "transactionHash": "0x67135eb039ffac1140bc348d80fd33aa67d515f0573af4805b3e035f55c68549",
      "transactionIndex": "0xae",
      "blockHash": "0x61fd7f57faac4fb2a23d8fc7a34532817eaeba1581688685756ed8735417c3ee",
      "blockNumber": "0x7226e9",
      "gasUsed": "0x96a4",
      "effectiveGasPrice": "0xba43b7401",
      "from": "0x6efb11ac41b6657c32dac5ed4874082c700bba29",
      "to": "0x1889cfb8746716a0ac50e59a54f190987c5f04e6",
      "contractAddress": null
    },
    {
      "status": "0x1",
      "cumulativeGasUsed": "0xc641f9",
      "logs": [
        {
          "address": "0x6bc8a42d4b2f4bc8e4c3f9ecff00b7290ffa7405",
          "topics": [
            "0x8c5be1e5ebec7d5bd14f71427d1e84f3dd0314c0f7b2291e5b200ac8c7c3b925",
            "0x0000000000000000000000006efb11ac41b6657c32dac5ed4874082c700bba29",
            "0x000000000000000000000000a1ba9a5d1338c212c22405998268b0f6aa02ab6e"
          ],
          "data": "0xffffffffffffffffffffffffffffffffffffffffffffffffffffffffffffffff",
          "blockHash": "0x61fd7f57faac4fb2a23d8fc7a34532817eaeba1581688685756ed8735417c3ee",
          "blockNumber": "0x7226e9",
          "blockTimestamp": "0x67d1da95",
          "transactionHash": "0x5869bed1acf2573a449615fa51022f140de1ffabe1255d18ffa0737cb41e13ed",
          "transactionIndex": "0xaf",
          "logIndex": "0x111",
          "removed": false
        }
      ],
      "logsBloom": "0x00000000000000000200000000000000000000000000000000000000000000000000000000000000000000000000000000002000000100000400000000200000000000000000000000000000000000000000000000000000000000004000000000000000000000000000000000000000000000000000000000000000000000000000000000000000000000000000000000000000000000000000000000000000020000000200000000000000000000000000000000000000000001000000008000000000000000000000000000000000000000000000000000000000000000000010000000000400000000000000000000000000000000000000000000000000",
      "type": "0x2",
      "transactionHash": "0x5869bed1acf2573a449615fa51022f140de1ffabe1255d18ffa0737cb41e13ed",
      "transactionIndex": "0xaf",
      "blockHash": "0x61fd7f57faac4fb2a23d8fc7a34532817eaeba1581688685756ed8735417c3ee",
      "blockNumber": "0x7226e9",
      "gasUsed": "0x96a4",
      "effectiveGasPrice": "0xba43b7401",
      "from": "0x6efb11ac41b6657c32dac5ed4874082c700bba29",
      "to": "0x6bc8a42d4b2f4bc8e4c3f9ecff00b7290ffa7405",
      "contractAddress": null
    },
    {
      "status": "0x1",
      "cumulativeGasUsed": "0xc6d89d",
      "logs": [
        {
          "address": "0xe3f98fda6dbd38c1017754f1675dce377381c23c",
          "topics": [
            "0x8c5be1e5ebec7d5bd14f71427d1e84f3dd0314c0f7b2291e5b200ac8c7c3b925",
            "0x0000000000000000000000006efb11ac41b6657c32dac5ed4874082c700bba29",
            "0x000000000000000000000000a1ba9a5d1338c212c22405998268b0f6aa02ab6e"
          ],
          "data": "0xffffffffffffffffffffffffffffffffffffffffffffffffffffffffffffffff",
          "blockHash": "0x61fd7f57faac4fb2a23d8fc7a34532817eaeba1581688685756ed8735417c3ee",
          "blockNumber": "0x7226e9",
          "blockTimestamp": "0x67d1da95",
          "transactionHash": "0x55b9246230ffbebc3e52d3326f0e4723ad2fedb253a63e137c942a00407fa78d",
          "transactionIndex": "0xb0",
          "logIndex": "0x112",
          "removed": false
        }
      ],
      "logsBloom": "0x00000000000000002200000000000000000000000000000000000000000000000000000000000000000000000000000000000000000100000000000000200000000000000000000000000000000000000000000000000000000000004000000000000000000000000000000000000000000000000000000000000000000000000000000000000000000000000000000000000000000000000020000000000000020000000000000000000000000020000000000000000000000001000000008000000000000000000000000000000000000000000000000000000000000000000010000000000400000000000000000000000000000000000000000000000000",
      "type": "0x2",
      "transactionHash": "0x55b9246230ffbebc3e52d3326f0e4723ad2fedb253a63e137c942a00407fa78d",
      "transactionIndex": "0xb0",
      "blockHash": "0x61fd7f57faac4fb2a23d8fc7a34532817eaeba1581688685756ed8735417c3ee",
      "blockNumber": "0x7226e9",
      "gasUsed": "0x96a4",
      "effectiveGasPrice": "0xba43b7401",
      "from": "0x6efb11ac41b6657c32dac5ed4874082c700bba29",
      "to": "0xe3f98fda6dbd38c1017754f1675dce377381c23c",
      "contractAddress": null
    },
    {
      "status": "0x1",
      "cumulativeGasUsed": "0xc76f41",
      "logs": [
        {
          "address": "0x58389610a3d13e8f380ee2ba077a6f36f2a90834",
          "topics": [
            "0x8c5be1e5ebec7d5bd14f71427d1e84f3dd0314c0f7b2291e5b200ac8c7c3b925",
            "0x0000000000000000000000006efb11ac41b6657c32dac5ed4874082c700bba29",
            "0x000000000000000000000000a1ba9a5d1338c212c22405998268b0f6aa02ab6e"
          ],
          "data": "0xffffffffffffffffffffffffffffffffffffffffffffffffffffffffffffffff",
          "blockHash": "0x61fd7f57faac4fb2a23d8fc7a34532817eaeba1581688685756ed8735417c3ee",
          "blockNumber": "0x7226e9",
          "blockTimestamp": "0x67d1da95",
          "transactionHash": "0x83cdfc42039742efd5d97fde4885274fa383ee9c5ea892ded1aeee95d6ba863b",
          "transactionIndex": "0xb1",
          "logIndex": "0x113",
          "removed": false
        }
      ],
      "logsBloom": "0x00000000000000000200000000000000000000000000000000000000000000000000000000000000000000000000000000000000000100000000000000200000000000000000000000000000000000000000000000000400001000004000000000000000000000000000000000000000000000000000000000000000000000000000000000000000000000000000000000000000000000000000000000000000020000000000000000000000000000040000000000000000000001000000008000000000000000000000000000000000000000000000000000000000000000000010000000000400000000000000000000000000000000000000000000000000",
      "type": "0x2",
      "transactionHash": "0x83cdfc42039742efd5d97fde4885274fa383ee9c5ea892ded1aeee95d6ba863b",
      "transactionIndex": "0xb1",
      "blockHash": "0x61fd7f57faac4fb2a23d8fc7a34532817eaeba1581688685756ed8735417c3ee",
      "blockNumber": "0x7226e9",
      "gasUsed": "0x96a4",
      "effectiveGasPrice": "0xba43b7401",
      "from": "0x6efb11ac41b6657c32dac5ed4874082c700bba29",
      "to": "0x58389610a3d13e8f380ee2ba077a6f36f2a90834",
      "contractAddress": null
    },
    {
      "status": "0x1",
      "cumulativeGasUsed": "0xce5835",
      "logs": [
        {
          "address": "0x2c53ce7143d24a65410107f50e4aabad9a164480",
          "topics": [
            "0xddf252ad1be2c89b69c2b068fc378daa952ba7f163c4a11628f55a4df523b3ef",
            "0x0000000000000000000000006efb11ac41b6657c32dac5ed4874082c700bba29",
            "0x0000000000000000000000009a5141cf9f68ce4dd9f02ea7722455f3beaa9339"
          ],
          "data": "0x000000000000000000000000000000000000000000000000000000003b9aca00",
          "blockHash": "0x61fd7f57faac4fb2a23d8fc7a34532817eaeba1581688685756ed8735417c3ee",
          "blockNumber": "0x7226e9",
          "blockTimestamp": "0x67d1da95",
          "transactionHash": "0x2062189a31cb60871c369b7c007747ed35977c1667c96cdb97390148bfabbfe0",
          "transactionIndex": "0xb2",
          "logIndex": "0x114",
          "removed": false
        },
        {
          "address": "0x2c53ce7143d24a65410107f50e4aabad9a164480",
          "topics": [
            "0xddf252ad1be2c89b69c2b068fc378daa952ba7f163c4a11628f55a4df523b3ef",
            "0x0000000000000000000000006efb11ac41b6657c32dac5ed4874082c700bba29",
            "0x0000000000000000000000009a5141cf9f68ce4dd9f02ea7722455f3beaa9339"
          ],
          "data": "0x0000000000000000000000000000000000000000000000056bc75e2d63100000",
          "blockHash": "0x61fd7f57faac4fb2a23d8fc7a34532817eaeba1581688685756ed8735417c3ee",
          "blockNumber": "0x7226e9",
          "blockTimestamp": "0x67d1da95",
          "transactionHash": "0x2062189a31cb60871c369b7c007747ed35977c1667c96cdb97390148bfabbfe0",
          "transactionIndex": "0xb2",
          "logIndex": "0x115",
          "removed": false
        },
        {
          "address": "0x58389610a3d13e8f380ee2ba077a6f36f2a90834",
          "topics": [
            "0xddf252ad1be2c89b69c2b068fc378daa952ba7f163c4a11628f55a4df523b3ef",
            "0x0000000000000000000000006efb11ac41b6657c32dac5ed4874082c700bba29",
            "0x0000000000000000000000009a5141cf9f68ce4dd9f02ea7722455f3beaa9339"
          ],
          "data": "0x0000000000000000000000000000000000000000000000000000008bb2c97000",
          "blockHash": "0x61fd7f57faac4fb2a23d8fc7a34532817eaeba1581688685756ed8735417c3ee",
          "blockNumber": "0x7226e9",
          "blockTimestamp": "0x67d1da95",
          "transactionHash": "0x2062189a31cb60871c369b7c007747ed35977c1667c96cdb97390148bfabbfe0",
          "transactionIndex": "0xb2",
          "logIndex": "0x116",
          "removed": false
        },
        {
          "address": "0x7628a394696eabbc615c98e3df5efd34880328b2",
          "topics": [
            "0xd3d640118416a526ad33075973727e1675055b2b31a8351bc74271d75fccef9b"
          ],
          "data": "0x00000000000000000000000000000000000000000000000000000000000000060000000000000000000000006efb11ac41b6657c32dac5ed4874082c700bba290000000000000000000000006efb11ac41b6657c32dac5ed4874082c700bba290000000000000000000000000000000000000000000000000000000000000000000000000000000000000000d0cb401840c5efac575e1fe57a308c396e73fbe00000000000000000000000002c53ce7143d24a65410107f50e4aabad9a16448000000000000000000000000058389610a3d13e8f380ee2ba077a6f36f2a90834000000000000000000000000000000000000000000000000000000003b9aca000000000000000000000000000000000000000000000000056bc75e2d631000000000000000000000000000000000000000000000000000000000008bb2c97000",
          "blockHash": "0x61fd7f57faac4fb2a23d8fc7a34532817eaeba1581688685756ed8735417c3ee",
          "blockNumber": "0x7226e9",
          "blockTimestamp": "0x67d1da95",
          "transactionHash": "0x2062189a31cb60871c369b7c007747ed35977c1667c96cdb97390148bfabbfe0",
          "transactionIndex": "0xb2",
          "logIndex": "0x117",
          "removed": false
        }
      ],
      "logsBloom": "0x00000000000000000200000000000000000000000000000000000000040000000000000000000000000000000000000000001000000100000000000000400000000000000000000000000008000000000000000000000400001000000000000000000000000000000000000000000000100000000000000000000010200000000000000000000000000000000000000000000000000000000000000001000000000000000000000000000100000000040000000000000000000001000000000000000002000080000000000000000000000000010000000040000000000000010000001000000000000000000000000000000000000000000000000000000000",
      "type": "0x2",
      "transactionHash": "0x2062189a31cb60871c369b7c007747ed35977c1667c96cdb97390148bfabbfe0",
      "transactionIndex": "0xb2",
      "blockHash": "0x61fd7f57faac4fb2a23d8fc7a34532817eaeba1581688685756ed8735417c3ee",
      "blockNumber": "0x7226e9",
      "gasUsed": "0x6e8f4",
      "effectiveGasPrice": "0xba43b7401",
      "from": "0x6efb11ac41b6657c32dac5ed4874082c700bba29",
      "to": "0xa1ba9a5d1338c212c22405998268b0f6aa02ab6e",
      "contractAddress": null
    },
    {
      "status": "0x1",
      "cumulativeGasUsed": "0xd5504b",
      "logs": [
        {
          "address": "0x2c53ce7143d24a65410107f50e4aabad9a164480",
          "topics": [
            "0xddf252ad1be2c89b69c2b068fc378daa952ba7f163c4a11628f55a4df523b3ef",
            "0x0000000000000000000000006efb11ac41b6657c32dac5ed4874082c700bba29",
            "0x0000000000000000000000009a5141cf9f68ce4dd9f02ea7722455f3beaa9339"
          ],
          "data": "0x000000000000000000000000000000000000000000000000000000003b9aca00",
          "blockHash": "0x61fd7f57faac4fb2a23d8fc7a34532817eaeba1581688685756ed8735417c3ee",
          "blockNumber": "0x7226e9",
          "blockTimestamp": "0x67d1da95",
          "transactionHash": "0xed218353e0317a8e218dc4b20812af494224bed92566a84b8a1355dab350afd0",
          "transactionIndex": "0xb3",
          "logIndex": "0x118",
          "removed": false
        },
        {
          "address": "0x53f7c389cbb801e2abfd301ded6d2a1cf330ac0d",
          "topics": [
            "0xddf252ad1be2c89b69c2b068fc378daa952ba7f163c4a11628f55a4df523b3ef",
            "0x0000000000000000000000006efb11ac41b6657c32dac5ed4874082c700bba29",
            "0x0000000000000000000000009a5141cf9f68ce4dd9f02ea7722455f3beaa9339"
          ],
          "data": "0x000000000000000000000000000000000000000000000002b5e3af16b1880000",
          "blockHash": "0x61fd7f57faac4fb2a23d8fc7a34532817eaeba1581688685756ed8735417c3ee",
          "blockNumber": "0x7226e9",
          "blockTimestamp": "0x67d1da95",
          "transactionHash": "0xed218353e0317a8e218dc4b20812af494224bed92566a84b8a1355dab350afd0",
          "transactionIndex": "0xb3",
          "logIndex": "0x119",
          "removed": false
        },
        {
          "address": "0x58389610a3d13e8f380ee2ba077a6f36f2a90834",
          "topics": [
            "0xddf252ad1be2c89b69c2b068fc378daa952ba7f163c4a11628f55a4df523b3ef",
            "0x0000000000000000000000006efb11ac41b6657c32dac5ed4874082c700bba29",
            "0x0000000000000000000000009a5141cf9f68ce4dd9f02ea7722455f3beaa9339"
          ],
          "data": "0x000000000000000000000000000000000000000000000000000005bad5431800",
          "blockHash": "0x61fd7f57faac4fb2a23d8fc7a34532817eaeba1581688685756ed8735417c3ee",
          "blockNumber": "0x7226e9",
          "blockTimestamp": "0x67d1da95",
          "transactionHash": "0xed218353e0317a8e218dc4b20812af494224bed92566a84b8a1355dab350afd0",
          "transactionIndex": "0xb3",
          "logIndex": "0x11a",
          "removed": false
        },
        {
          "address": "0x7628a394696eabbc615c98e3df5efd34880328b2",
          "topics": [
            "0xd3d640118416a526ad33075973727e1675055b2b31a8351bc74271d75fccef9b"
          ],
          "data": "0x00000000000000000000000000000000000000000000000000000000000000070000000000000000000000006efb11ac41b6657c32dac5ed4874082c700bba290000000000000000000000006efb11ac41b6657c32dac5ed4874082c700bba29000000000000000000000000000000000000000000000000000000000000000000000000000000000000000031310f40189bd05b234c2977bdb1fb141d2e4e2600000000000000000000000053f7c389cbb801e2abfd301ded6d2a1cf330ac0d00000000000000000000000058389610a3d13e8f380ee2ba077a6f36f2a90834000000000000000000000000000000000000000000000000000000003b9aca00000000000000000000000000000000000000000000000002b5e3af16b1880000000000000000000000000000000000000000000000000000000005bad5431800",
          "blockHash": "0x61fd7f57faac4fb2a23d8fc7a34532817eaeba1581688685756ed8735417c3ee",
          "blockNumber": "0x7226e9",
          "blockTimestamp": "0x67d1da95",
          "transactionHash": "0xed218353e0317a8e218dc4b20812af494224bed92566a84b8a1355dab350afd0",
          "transactionIndex": "0xb3",
          "logIndex": "0x11b",
          "removed": false
        }
      ],
      "logsBloom": "0x00000000000000000200000002000000000000000000000000000000040000000000000000000000000000000000000000001000000100000000000000400000000000000000000000000008000000000000000000000400001000000000000000000000000000000000000000000000100000000000000000000010200000000000000000000000000000000000000000000000000000000000000001000000000000000010000000000100000000040000000000000000000001000000000000000002000080000000000000000000000000010000000040000000000000010000001000000000000000000000000000000000000000000008000000000000",
      "type": "0x2",
      "transactionHash": "0xed218353e0317a8e218dc4b20812af494224bed92566a84b8a1355dab350afd0",
      "transactionIndex": "0xb3",
      "blockHash": "0x61fd7f57faac4fb2a23d8fc7a34532817eaeba1581688685756ed8735417c3ee",
      "blockNumber": "0x7226e9",
      "gasUsed": "0x6f816",
      "effectiveGasPrice": "0xba43b7401",
      "from": "0x6efb11ac41b6657c32dac5ed4874082c700bba29",
      "to": "0xa1ba9a5d1338c212c22405998268b0f6aa02ab6e",
      "contractAddress": null
    },
    {
      "status": "0x1",
      "cumulativeGasUsed": "0xdc4861",
      "logs": [
        {
          "address": "0x2c53ce7143d24a65410107f50e4aabad9a164480",
          "topics": [
            "0xddf252ad1be2c89b69c2b068fc378daa952ba7f163c4a11628f55a4df523b3ef",
            "0x0000000000000000000000006efb11ac41b6657c32dac5ed4874082c700bba29",
            "0x0000000000000000000000009a5141cf9f68ce4dd9f02ea7722455f3beaa9339"
          ],
          "data": "0x000000000000000000000000000000000000000000000000000000003b9aca00",
          "blockHash": "0x61fd7f57faac4fb2a23d8fc7a34532817eaeba1581688685756ed8735417c3ee",
          "blockNumber": "0x7226e9",
          "blockTimestamp": "0x67d1da95",
          "transactionHash": "0x4b638de7a0d9c33e6d8319a5c09928f21538a4ee30b816914076738dbdbd1ea3",
          "transactionIndex": "0xb4",
          "logIndex": "0x11c",
          "removed": false
        },
        {
          "address": "0xf9861d7478f8957679b26404bd6272c39f949c29",
          "topics": [
            "0xddf252ad1be2c89b69c2b068fc378daa952ba7f163c4a11628f55a4df523b3ef",
            "0x0000000000000000000000006efb11ac41b6657c32dac5ed4874082c700bba29",
            "0x0000000000000000000000009a5141cf9f68ce4dd9f02ea7722455f3beaa9339"
          ],
          "data": "0x000000000000000000000000000000000000000000295be96e64066972000000",
          "blockHash": "0x61fd7f57faac4fb2a23d8fc7a34532817eaeba1581688685756ed8735417c3ee",
          "blockNumber": "0x7226e9",
          "blockTimestamp": "0x67d1da95",
          "transactionHash": "0x4b638de7a0d9c33e6d8319a5c09928f21538a4ee30b816914076738dbdbd1ea3",
          "transactionIndex": "0xb4",
          "logIndex": "0x11d",
          "removed": false
        },
        {
          "address": "0x58389610a3d13e8f380ee2ba077a6f36f2a90834",
          "topics": [
            "0xddf252ad1be2c89b69c2b068fc378daa952ba7f163c4a11628f55a4df523b3ef",
            "0x0000000000000000000000006efb11ac41b6657c32dac5ed4874082c700bba29",
            "0x0000000000000000000000009a5141cf9f68ce4dd9f02ea7722455f3beaa9339"
          ],
          "data": "0x000000000000000000000000000000000000000000000000000000037e11d600",
          "blockHash": "0x61fd7f57faac4fb2a23d8fc7a34532817eaeba1581688685756ed8735417c3ee",
          "blockNumber": "0x7226e9",
          "blockTimestamp": "0x67d1da95",
          "transactionHash": "0x4b638de7a0d9c33e6d8319a5c09928f21538a4ee30b816914076738dbdbd1ea3",
          "transactionIndex": "0xb4",
          "logIndex": "0x11e",
          "removed": false
        },
        {
          "address": "0x7628a394696eabbc615c98e3df5efd34880328b2",
          "topics": [
            "0xd3d640118416a526ad33075973727e1675055b2b31a8351bc74271d75fccef9b"
          ],
          "data": "0x00000000000000000000000000000000000000000000000000000000000000080000000000000000000000006efb11ac41b6657c32dac5ed4874082c700bba290000000000000000000000006efb11ac41b6657c32dac5ed4874082c700bba29000000000000000000000000000000000000000000000000000000000000000000000000000000000000000072648c2523f817412f81d4f54d84e8ab994cf66b000000000000000000000000f9861d7478f8957679b26404bd6272c39f949c2900000000000000000000000058389610a3d13e8f380ee2ba077a6f36f2a90834000000000000000000000000000000000000000000000000000000003b9aca00000000000000000000000000000000000000000000295be96e64066972000000000000000000000000000000000000000000000000000000000000037e11d600",
          "blockHash": "0x61fd7f57faac4fb2a23d8fc7a34532817eaeba1581688685756ed8735417c3ee",
          "blockNumber": "0x7226e9",
          "blockTimestamp": "0x67d1da95",
          "transactionHash": "0x4b638de7a0d9c33e6d8319a5c09928f21538a4ee30b816914076738dbdbd1ea3",
          "transactionIndex": "0xb4",
          "logIndex": "0x11f",
          "removed": false
        }
      ],
      "logsBloom": "0x00000000000000000200000000000000000000000000000000000000040000000000000000000000000000000000000000001000000100000000000000400000000000000000000000000008000000000000000000000400001000000000000000000000040000000000000000000000100000000000000000000010200000000000000000000000000000000000000000000000000000000000000001000000000000000000000000040100000000040000000000000000000001000000000000000002080080000000000000000000000000010000000040000000000000010000001000000000000000000000000000000000000000000000000000000000",
      "type": "0x2",
      "transactionHash": "0x4b638de7a0d9c33e6d8319a5c09928f21538a4ee30b816914076738dbdbd1ea3",
      "transactionIndex": "0xb4",
      "blockHash": "0x61fd7f57faac4fb2a23d8fc7a34532817eaeba1581688685756ed8735417c3ee",
      "blockNumber": "0x7226e9",
      "gasUsed": "0x6f816",
      "effectiveGasPrice": "0xba43b7401",
      "from": "0x6efb11ac41b6657c32dac5ed4874082c700bba29",
      "to": "0xa1ba9a5d1338c212c22405998268b0f6aa02ab6e",
      "contractAddress": null
    },
    {
      "status": "0x1",
      "cumulativeGasUsed": "0xe3a935",
      "logs": [
        {
          "address": "0x2c53ce7143d24a65410107f50e4aabad9a164480",
          "topics": [
            "0xddf252ad1be2c89b69c2b068fc378daa952ba7f163c4a11628f55a4df523b3ef",
            "0x0000000000000000000000006efb11ac41b6657c32dac5ed4874082c700bba29",
            "0x0000000000000000000000009a5141cf9f68ce4dd9f02ea7722455f3beaa9339"
          ],
          "data": "0x000000000000000000000000000000000000000000000000000000003b9aca00",
          "blockHash": "0x61fd7f57faac4fb2a23d8fc7a34532817eaeba1581688685756ed8735417c3ee",
          "blockNumber": "0x7226e9",
          "blockTimestamp": "0x67d1da95",
          "transactionHash": "0xd36e055753d8641090922c99e03ca70bbceb42bdfaf429061a92adde7564526a",
          "transactionIndex": "0xb5",
          "logIndex": "0x120",
          "removed": false
        },
        {
          "address": "0x1889cfb8746716a0ac50e59a54f190987c5f04e6",
          "topics": [
            "0xddf252ad1be2c89b69c2b068fc378daa952ba7f163c4a11628f55a4df523b3ef",
            "0x0000000000000000000000006efb11ac41b6657c32dac5ed4874082c700bba29",
            "0x0000000000000000000000009a5141cf9f68ce4dd9f02ea7722455f3beaa9339"
          ],
          "data": "0x00000000000000000000000000000000000000000000000000005af3107a4000",
          "blockHash": "0x61fd7f57faac4fb2a23d8fc7a34532817eaeba1581688685756ed8735417c3ee",
          "blockNumber": "0x7226e9",
          "blockTimestamp": "0x67d1da95",
          "transactionHash": "0xd36e055753d8641090922c99e03ca70bbceb42bdfaf429061a92adde7564526a",
          "transactionIndex": "0xb5",
          "logIndex": "0x121",
          "removed": false
        },
        {
          "address": "0x58389610a3d13e8f380ee2ba077a6f36f2a90834",
          "topics": [
            "0xddf252ad1be2c89b69c2b068fc378daa952ba7f163c4a11628f55a4df523b3ef",
            "0x0000000000000000000000006efb11ac41b6657c32dac5ed4874082c700bba29",
            "0x0000000000000000000000009a5141cf9f68ce4dd9f02ea7722455f3beaa9339"
          ],
          "data": "0x00000000000000000000000000000000000000000000000000000045d964b800",
          "blockHash": "0x61fd7f57faac4fb2a23d8fc7a34532817eaeba1581688685756ed8735417c3ee",
          "blockNumber": "0x7226e9",
          "blockTimestamp": "0x67d1da95",
          "transactionHash": "0xd36e055753d8641090922c99e03ca70bbceb42bdfaf429061a92adde7564526a",
          "transactionIndex": "0xb5",
          "logIndex": "0x122",
          "removed": false
        },
        {
          "address": "0x7628a394696eabbc615c98e3df5efd34880328b2",
          "topics": [
            "0xd3d640118416a526ad33075973727e1675055b2b31a8351bc74271d75fccef9b"
          ],
          "data": "0x00000000000000000000000000000000000000000000000000000000000000090000000000000000000000006efb11ac41b6657c32dac5ed4874082c700bba290000000000000000000000006efb11ac41b6657c32dac5ed4874082c700bba2900000000000000000000000000000000000000000000000000000000000000000000000000000000000000005f5054ee2a7bc2617565b5b79f35573aa61394810000000000000000000000001889cfb8746716a0ac50e59a54f190987c5f04e600000000000000000000000058389610a3d13e8f380ee2ba077a6f36f2a90834000000000000000000000000000000000000000000000000000000003b9aca0000000000000000000000000000000000000000000000000000005af3107a400000000000000000000000000000000000000000000000000000000045d964b800",
          "blockHash": "0x61fd7f57faac4fb2a23d8fc7a34532817eaeba1581688685756ed8735417c3ee",
          "blockNumber": "0x7226e9",
          "blockTimestamp": "0x67d1da95",
          "transactionHash": "0xd36e055753d8641090922c99e03ca70bbceb42bdfaf429061a92adde7564526a",
          "transactionIndex": "0xb5",
          "logIndex": "0x123",
          "removed": false
        }
      ],
      "logsBloom": "0x00000000000000000200000000000000000000000000000000000000040000000000000000000000000000000000000000001000000100000000000000400000000000000000000000000008000000000000000000000400001400000000000000000000000000000000000000000000100000000000000000000010200000000000000000000000000000000000000000000000000000000000000001000000000000000000100000000100000000040000000000000000000001000000000000000002000080000000000000000000000000010000000040000000000000010000001080000000000000000000000000000000000000000000000000000000",
      "type": "0x2",
      "transactionHash": "0xd36e055753d8641090922c99e03ca70bbceb42bdfaf429061a92adde7564526a",
      "transactionIndex": "0xb5",
      "blockHash": "0x61fd7f57faac4fb2a23d8fc7a34532817eaeba1581688685756ed8735417c3ee",
      "blockNumber": "0x7226e9",
      "gasUsed": "0x760d4",
      "effectiveGasPrice": "0xba43b7401",
      "from": "0x6efb11ac41b6657c32dac5ed4874082c700bba29",
      "to": "0xa1ba9a5d1338c212c22405998268b0f6aa02ab6e",
      "contractAddress": null
    },
    {
      "status": "0x1",
      "cumulativeGasUsed": "0xeb0a09",
      "logs": [
        {
          "address": "0x2c53ce7143d24a65410107f50e4aabad9a164480",
          "topics": [
            "0xddf252ad1be2c89b69c2b068fc378daa952ba7f163c4a11628f55a4df523b3ef",
            "0x0000000000000000000000006efb11ac41b6657c32dac5ed4874082c700bba29",
            "0x0000000000000000000000009a5141cf9f68ce4dd9f02ea7722455f3beaa9339"
          ],
          "data": "0x000000000000000000000000000000000000000000000000000000003b9aca00",
          "blockHash": "0x61fd7f57faac4fb2a23d8fc7a34532817eaeba1581688685756ed8735417c3ee",
          "blockNumber": "0x7226e9",
          "blockTimestamp": "0x67d1da95",
          "transactionHash": "0xfd1089e79782ebd5ea2774e3e9fa2f221e0e88a6148a2a21133e369a237c26c0",
          "transactionIndex": "0xb6",
          "logIndex": "0x124",
          "removed": false
        },
        {
          "address": "0x6bc8a42d4b2f4bc8e4c3f9ecff00b7290ffa7405",
          "topics": [
            "0xddf252ad1be2c89b69c2b068fc378daa952ba7f163c4a11628f55a4df523b3ef",
            "0x0000000000000000000000006efb11ac41b6657c32dac5ed4874082c700bba29",
            "0x0000000000000000000000009a5141cf9f68ce4dd9f02ea7722455f3beaa9339"
          ],
          "data": "0x0000000000000000000000000000000000000000000069e10de76676d0800000",
          "blockHash": "0x61fd7f57faac4fb2a23d8fc7a34532817eaeba1581688685756ed8735417c3ee",
          "blockNumber": "0x7226e9",
          "blockTimestamp": "0x67d1da95",
          "transactionHash": "0xfd1089e79782ebd5ea2774e3e9fa2f221e0e88a6148a2a21133e369a237c26c0",
          "transactionIndex": "0xb6",
          "logIndex": "0x125",
          "removed": false
        },
        {
          "address": "0x58389610a3d13e8f380ee2ba077a6f36f2a90834",
          "topics": [
            "0xddf252ad1be2c89b69c2b068fc378daa952ba7f163c4a11628f55a4df523b3ef",
            "0x0000000000000000000000006efb11ac41b6657c32dac5ed4874082c700bba29",
            "0x0000000000000000000000009a5141cf9f68ce4dd9f02ea7722455f3beaa9339"
          ],
          "data": "0x0000000000000000000000000000000000000000000000000000001176592e00",
          "blockHash": "0x61fd7f57faac4fb2a23d8fc7a34532817eaeba1581688685756ed8735417c3ee",
          "blockNumber": "0x7226e9",
          "blockTimestamp": "0x67d1da95",
          "transactionHash": "0xfd1089e79782ebd5ea2774e3e9fa2f221e0e88a6148a2a21133e369a237c26c0",
          "transactionIndex": "0xb6",
          "logIndex": "0x126",
          "removed": false
        },
        {
          "address": "0x7628a394696eabbc615c98e3df5efd34880328b2",
          "topics": [
            "0xd3d640118416a526ad33075973727e1675055b2b31a8351bc74271d75fccef9b"
          ],
          "data": "0x000000000000000000000000000000000000000000000000000000000000000a0000000000000000000000006efb11ac41b6657c32dac5ed4874082c700bba290000000000000000000000006efb11ac41b6657c32dac5ed4874082c700bba29000000000000000000000000000000000000000000000000000000000000000000000000000000000000000037ee6083d1191b00eda1f6304c9a60695bfee8da0000000000000000000000006bc8a42d4b2f4bc8e4c3f9ecff00b7290ffa740500000000000000000000000058389610a3d13e8f380ee2ba077a6f36f2a90834000000000000000000000000000000000000000000000000000000003b9aca000000000000000000000000000000000000000000000069e10de76676d08000000000000000000000000000000000000000000000000000000000001176592e00",
          "blockHash": "0x61fd7f57faac4fb2a23d8fc7a34532817eaeba1581688685756ed8735417c3ee",
          "blockNumber": "0x7226e9",
          "blockTimestamp": "0x67d1da95",
          "transactionHash": "0xfd1089e79782ebd5ea2774e3e9fa2f221e0e88a6148a2a21133e369a237c26c0",
          "transactionIndex": "0xb6",
          "logIndex": "0x127",
          "removed": false
        }
      ],
      "logsBloom": "0x00000000000000000200000000000000000000000000000000000000040000000000000000000000000000000000000000003000000100000400000000400000000000000000000000000008000000000000000000000400001000000000000000000000000000000000000000000000100000000000000000000010200000000000000000000000000000000000000000000000000000000000000001000000000000000200000000000100000000040000000000000000000001000000000000000002000080000000000000000000000000010000000040000000000000010000001000000000000000000000000000000000000000000000000000000000",
      "type": "0x2",
      "transactionHash": "0xfd1089e79782ebd5ea2774e3e9fa2f221e0e88a6148a2a21133e369a237c26c0",
      "transactionIndex": "0xb6",
      "blockHash": "0x61fd7f57faac4fb2a23d8fc7a34532817eaeba1581688685756ed8735417c3ee",
      "blockNumber": "0x7226e9",
      "gasUsed": "0x760d4",
      "effectiveGasPrice": "0xba43b7401",
      "from": "0x6efb11ac41b6657c32dac5ed4874082c700bba29",
      "to": "0xa1ba9a5d1338c212c22405998268b0f6aa02ab6e",
      "contractAddress": null
    },
    {
      "status": "0x1",
      "cumulativeGasUsed": "0xf2021f",
      "logs": [
        {
          "address": "0x2c53ce7143d24a65410107f50e4aabad9a164480",
          "topics": [
            "0xddf252ad1be2c89b69c2b068fc378daa952ba7f163c4a11628f55a4df523b3ef",
            "0x0000000000000000000000006efb11ac41b6657c32dac5ed4874082c700bba29",
            "0x0000000000000000000000009a5141cf9f68ce4dd9f02ea7722455f3beaa9339"
          ],
          "data": "0x000000000000000000000000000000000000000000000000000000003b9aca00",
          "blockHash": "0x61fd7f57faac4fb2a23d8fc7a34532817eaeba1581688685756ed8735417c3ee",
          "blockNumber": "0x7226e9",
          "blockTimestamp": "0x67d1da95",
          "transactionHash": "0x803901f62d26b4d736779df30e1e14f5b8b3d3f182dbcdad116103618463da3e",
          "transactionIndex": "0xb7",
          "logIndex": "0x128",
          "removed": false
        },
        {
          "address": "0xe3f98fda6dbd38c1017754f1675dce377381c23c",
          "topics": [
            "0xddf252ad1be2c89b69c2b068fc378daa952ba7f163c4a11628f55a4df523b3ef",
            "0x0000000000000000000000006efb11ac41b6657c32dac5ed4874082c700bba29",
            "0x0000000000000000000000009a5141cf9f68ce4dd9f02ea7722455f3beaa9339"
          ],
          "data": "0x00000000000000000000000000000000000000000000021e19e0c9bab2400000",
          "blockHash": "0x61fd7f57faac4fb2a23d8fc7a34532817eaeba1581688685756ed8735417c3ee",
          "blockNumber": "0x7226e9",
          "blockTimestamp": "0x67d1da95",
          "transactionHash": "0x803901f62d26b4d736779df30e1e14f5b8b3d3f182dbcdad116103618463da3e",
          "transactionIndex": "0xb7",
          "logIndex": "0x129",
          "removed": false
        },
        {
          "address": "0x58389610a3d13e8f380ee2ba077a6f36f2a90834",
          "topics": [
            "0xddf252ad1be2c89b69c2b068fc378daa952ba7f163c4a11628f55a4df523b3ef",
            "0x0000000000000000000000006efb11ac41b6657c32dac5ed4874082c700bba29",
            "0x0000000000000000000000009a5141cf9f68ce4dd9f02ea7722455f3beaa9339"
          ],
          "data": "0x00000000000000000000000000000000000000000000000000000068c6171400",
          "blockHash": "0x61fd7f57faac4fb2a23d8fc7a34532817eaeba1581688685756ed8735417c3ee",
          "blockNumber": "0x7226e9",
          "blockTimestamp": "0x67d1da95",
          "transactionHash": "0x803901f62d26b4d736779df30e1e14f5b8b3d3f182dbcdad116103618463da3e",
          "transactionIndex": "0xb7",
          "logIndex": "0x12a",
          "removed": false
        },
        {
          "address": "0x7628a394696eabbc615c98e3df5efd34880328b2",
          "topics": [
            "0xd3d640118416a526ad33075973727e1675055b2b31a8351bc74271d75fccef9b"
          ],
          "data": "0x000000000000000000000000000000000000000000000000000000000000000b0000000000000000000000006efb11ac41b6657c32dac5ed4874082c700bba290000000000000000000000006efb11ac41b6657c32dac5ed4874082c700bba2900000000000000000000000000000000000000000000000000000000000000000000000000000000000000008e3e87de2503661f3b4879a9743f3fe3d347be52000000000000000000000000e3f98fda6dbd38c1017754f1675dce377381c23c00000000000000000000000058389610a3d13e8f380ee2ba077a6f36f2a90834000000000000000000000000000000000000000000000000000000003b9aca0000000000000000000000000000000000000000000000021e19e0c9bab240000000000000000000000000000000000000000000000000000000000068c6171400",
          "blockHash": "0x61fd7f57faac4fb2a23d8fc7a34532817eaeba1581688685756ed8735417c3ee",
          "blockNumber": "0x7226e9",
          "blockTimestamp": "0x67d1da95",
          "transactionHash": "0x803901f62d26b4d736779df30e1e14f5b8b3d3f182dbcdad116103618463da3e",
          "transactionIndex": "0xb7",
          "logIndex": "0x12b",
          "removed": false
        }
      ],
      "logsBloom": "0x00000000000000002200000000000000000000000000000000000000040000000000000000000000000000000000000000001000000100000000000000400000000000000000000000000008000000000000000000000400001000000000000000000000000000000000000000000000100000000000000000000010200000000000000000000000000000000000000000000000000000000020000001000000000000000000000000000100000020040000000000000000000001000000000000000002000080000000000000000000000000010000000040000000000000010000001000000000000000000000000000000000000000000000000000000000",
      "type": "0x2",
      "transactionHash": "0x803901f62d26b4d736779df30e1e14f5b8b3d3f182dbcdad116103618463da3e",
      "transactionIndex": "0xb7",
      "blockHash": "0x61fd7f57faac4fb2a23d8fc7a34532817eaeba1581688685756ed8735417c3ee",
      "blockNumber": "0x7226e9",
      "gasUsed": "0x6f816",
      "effectiveGasPrice": "0xba43b7401",
      "from": "0x6efb11ac41b6657c32dac5ed4874082c700bba29",
      "to": "0xa1ba9a5d1338c212c22405998268b0f6aa02ab6e",
      "contractAddress": null
    }
  ],
  "libraries": [],
  "pending": [],
  "returns": {},
  "timestamp": 1741806234,
  "chain": 10143,
  "commit": "7537796"
}