{
  "transactions": [
    {
      "hash": "0x88c0e58e5e90efa5fde1d33c0e04808c9415f93a703add1ba55bd91af52d8847",
      "transactionType": "CALL",
      "contractName": null,
      "contractAddress": "0x97f3d75fcc683c8f557d637196857fa303f7cebd",
      "function": "mint(address,uint256)",
      "arguments": [
        "0x6EFb11aC41B6657c32dAc5Ed4874082C700BbA29",
        "10000000000000000000"
      ],
      "transaction": {
        "from": "0x6efb11ac41b6657c32dac5ed4874082c700bba29",
        "to": "0x97f3d75fcc683c8f557d637196857fa303f7cebd",
        "gas": "0xcf9e",
        "value": "0x0",
        "input": "0x40c10f190000000000000000000000006efb11ac41b6657c32dac5ed4874082c700bba290000000000000000000000000000000000000000000000008ac7230489e80000",
        "nonce": "0x18",
        "chainId": "0x279f"
      },
      "additionalContracts": [],
      "isFixedGasLimit": false
    },
    {
      "hash": "0x14ab15f9a739307f0155cd93bf1e82d7a7bf0cd11a16d306790b455f8b07681b",
      "transactionType": "CALL",
      "contractName": null,
      "contractAddress": "0x37e9b288c56b734c0291d37af478f60ce58a9fc6",
      "function": "mint(address,uint256)",
      "arguments": [
        "0x6EFb11aC41B6657c32dAc5Ed4874082C700BbA29",
        "3000000000000000000000"
      ],
      "transaction": {
        "from": "0x6efb11ac41b6657c32dac5ed4874082c700bba29",
        "to": "0x37e9b288c56b734c0291d37af478f60ce58a9fc6",
        "gas": "0xcfae",
        "value": "0x0",
        "input": "0x40c10f190000000000000000000000006efb11ac41b6657c32dac5ed4874082c700bba290000000000000000000000000000000000000000000000a2a15d09519be00000",
        "nonce": "0x19",
        "chainId": "0x279f"
      },
      "additionalContracts": [],
      "isFixedGasLimit": false
    },
    {
      "hash": "0xa2ae4ba187c275258dd7c0f7a7052ae44bfc7f606e680bcafd9db02b0a394ec2",
      "transactionType": "CALL",
      "contractName": null,
      "contractAddress": "0x97f3d75fcc683c8f557d637196857fa303f7cebd",
      "function": "approve(address,uint256)",
      "arguments": [
        "0x021B34967EB9CA1d79ab26E1e10AD7F12F90b8d5",
        "115792089237316195423570985008687907853269984665640564039457584007913129639935"
      ],
      "transaction": {
        "from": "0x6efb11ac41b6657c32dac5ed4874082c700bba29",
        "to": "0x97f3d75fcc683c8f557d637196857fa303f7cebd",
        "gas": "0xfee1",
        "value": "0x0",
        "input": "0x095ea7b3000000000000000000000000021b34967eb9ca1d79ab26e1e10ad7f12f90b8d5ffffffffffffffffffffffffffffffffffffffffffffffffffffffffffffffff",
        "nonce": "0x1a",
        "chainId": "0x279f"
      },
      "additionalContracts": [],
      "isFixedGasLimit": false
    },
    {
      "hash": "0xd40861d7732dadbef0eb06eed416cf000c20073e846d2e537db0456d8a50b9a3",
      "transactionType": "CALL",
      "contractName": null,
      "contractAddress": "0x37e9b288c56b734c0291d37af478f60ce58a9fc6",
      "function": "approve(address,uint256)",
      "arguments": [
        "0x021B34967EB9CA1d79ab26E1e10AD7F12F90b8d5",
        "115792089237316195423570985008687907853269984665640564039457584007913129639935"
      ],
      "transaction": {
        "from": "0x6efb11ac41b6657c32dac5ed4874082c700bba29",
        "to": "0x37e9b288c56b734c0291d37af478f60ce58a9fc6",
        "gas": "0xfee1",
        "value": "0x0",
        "input": "0x095ea7b3000000000000000000000000021b34967eb9ca1d79ab26e1e10ad7f12f90b8d5ffffffffffffffffffffffffffffffffffffffffffffffffffffffffffffffff",
        "nonce": "0x1b",
        "chainId": "0x279f"
      },
      "additionalContracts": [],
      "isFixedGasLimit": false
    },
    {
      "hash": "0xe52fc8dcedf81ae37ce946990176bb09a94b8819d14e717e1164c1ee4487a6c4",
      "transactionType": "CALL",
      "contractName": null,
      "contractAddress": "0x021b34967eb9ca1d79ab26e1e10ad7f12f90b8d5",
      "function": "multicall(bytes[])",
      "arguments": [
        "[0x7d39aaf1000000000000000000000000c18437f590dff77fd1c286e9abec51013509e477000000000000000000000000000000000000000000000000000000003b9aca00, 0xe6d66ac800000000000000000000000097f3d75fcc683c8f557d637196857fa303f7cebd000000000000000000000000c18437f590dff77fd1c286e9abec51013509e47700000000000000000000000000000000000000000000003635c9adc5dea00000, 0xe6d66ac800000000000000000000000037e9b288c56b734c0291d37af478f60ce58a9fc6000000000000000000000000c18437f590dff77fd1c286e9abec51013509e4770000000000000000000000000000000000000000000000a2a15d09519be00000, 0x293953b80000000000000000000000006efb11ac41b6657c32dac5ed4874082c700bba290000000000000000000000000000000000000000000000000000000000000000000000000000000000000000598b1401148899d37eaf29832d50e62836d1ffa800000000000000000000000097f3d75fcc683c8f557d637196857fa303f7cebd00000000000000000000000037e9b288c56b734c0291d37af478f60ce58a9fc60000000000000000000000000000000000000000000000000000000000000000000000000000000000000000000000000000000000000000000000003b9aca00]"
      ],
      "transaction": {
        "from": "0x6efb11ac41b6657c32dac5ed4874082c700bba29",
        "to": "0x021b34967eb9ca1d79ab26e1e10ad7f12f90b8d5",
        "gas": "0x863c1",
        "value": "0x0",
        "input": "0xac9650d8000000000000000000000000000000000000000000000000000000000000002000000000000000000000000000000000000000000000000000000000000000040000000000000000000000000000000000000000000000000000000000000080000000000000000000000000000000000000000000000000000000000000010000000000000000000000000000000000000000000000000000000000000001a0000000000000000000000000000000000000000000000000000000000000024000000000000000000000000000000000000000000000000000000000000000447d39aaf1000000000000000000000000c18437f590dff77fd1c286e9abec51013509e477000000000000000000000000000000000000000000000000000000003b9aca00000000000000000000000000000000000000000000000000000000000000000000000000000000000000000000000000000000000000000000000064e6d66ac800000000000000000000000097f3d75fcc683c8f557d637196857fa303f7cebd000000000000000000000000c18437f590dff77fd1c286e9abec51013509e47700000000000000000000000000000000000000000000003635c9adc5dea00000000000000000000000000000000000000000000000000000000000000000000000000000000000000000000000000000000000000000000000000064e6d66ac800000000000000000000000037e9b288c56b734c0291d37af478f60ce58a9fc6000000000000000000000000c18437f590dff77fd1c286e9abec51013509e4770000000000000000000000000000000000000000000000a2a15d09519be000000000000000000000000000000000000000000000000000000000000000000000000000000000000000000000000000000000000000000000000000e4293953b80000000000000000000000006efb11ac41b6657c32dac5ed4874082c700bba290000000000000000000000000000000000000000000000000000000000000000000000000000000000000000598b1401148899d37eaf29832d50e62836d1ffa800000000000000000000000097f3d75fcc683c8f557d637196857fa303f7cebd00000000000000000000000037e9b288c56b734c0291d37af478f60ce58a9fc60000000000000000000000000000000000000000000000000000000000000000000000000000000000000000000000000000000000000000000000003b9aca0000000000000000000000000000000000000000000000000000000000",
        "nonce": "0x1c",
        "chainId": "0x279f"
      },
      "additionalContracts": [],
      "isFixedGasLimit": false
    }
  ],
  "receipts": [
    {
      "status": "0x1",
      "cumulativeGasUsed": "0xc340b7",
      "logs": [
        {
          "address": "0x97f3d75fcc683c8f557d637196857fa303f7cebd",
          "topics": [
            "0xddf252ad1be2c89b69c2b068fc378daa952ba7f163c4a11628f55a4df523b3ef",
            "0x0000000000000000000000000000000000000000000000000000000000000000",
            "0x0000000000000000000000006efb11ac41b6657c32dac5ed4874082c700bba29"
          ],
          "data": "0x0000000000000000000000000000000000000000000000008ac7230489e80000",
          "blockHash": "0xdeacaae17875b9b27fc4cb4fa3055dba6a5014f8b2e6f11fb2c1d76f9e2955c8",
          "blockNumber": "0x655678",
          "blockTimestamp": "0x67cb2bec",
          "transactionHash": "0x88c0e58e5e90efa5fde1d33c0e04808c9415f93a703add1ba55bd91af52d8847",
          "transactionIndex": "0x40",
          "logIndex": "0x89",
          "removed": false
        },
        {
          "address": "0x97f3d75fcc683c8f557d637196857fa303f7cebd",
          "topics": [
            "0x0f6798a560793a54c3bcfe86a93cde1e73087d944c0ea20544137d4121396885"
          ],
          "data": "0x0000000000000000000000006efb11ac41b6657c32dac5ed4874082c700bba290000000000000000000000000000000000000000000000008ac7230489e80000",
          "blockHash": "0xdeacaae17875b9b27fc4cb4fa3055dba6a5014f8b2e6f11fb2c1d76f9e2955c8",
          "blockNumber": "0x655678",
          "blockTimestamp": "0x67cb2bec",
          "transactionHash": "0x88c0e58e5e90efa5fde1d33c0e04808c9415f93a703add1ba55bd91af52d8847",
          "transactionIndex": "0x40",
          "logIndex": "0x8a",
          "removed": false
        }
      ],
      "logsBloom": "0x00000000000000000200000000000000000000000000000000000000000000000080000000000000000000000000000000000000000100000000000000000000000000000020000000000008000000000002000000000100000000000000000000000000020000000000000000000800000000000000400000000010000000000000000000000000000000000000000000000000000000000000000000000000000080000000000000000000000000000000000000000000000001000000000000000002000000000000000000000000000000000000000000000000000020000000000000000000000000000000000000000000000000000000000000000000",
      "type": "0x2",
      "transactionHash": "0x88c0e58e5e90efa5fde1d33c0e04808c9415f93a703add1ba55bd91af52d8847",
      "transactionIndex": "0x40",
      "blockHash": "0xdeacaae17875b9b27fc4cb4fa3055dba6a5014f8b2e6f11fb2c1d76f9e2955c8",
      "blockNumber": "0x655678",
      "gasUsed": "0xcf9e",
      "effectiveGasPrice": "0xba43b7401",
      "from": "0x6efb11ac41b6657c32dac5ed4874082c700bba29",
      "to": "0x97f3d75fcc683c8f557d637196857fa303f7cebd",
      "contractAddress": null
    },
    {
      "status": "0x1",
      "cumulativeGasUsed": "0xc41065",
      "logs": [
        {
          "address": "0x37e9b288c56b734c0291d37af478f60ce58a9fc6",
          "topics": [
            "0xddf252ad1be2c89b69c2b068fc378daa952ba7f163c4a11628f55a4df523b3ef",
            "0x0000000000000000000000000000000000000000000000000000000000000000",
            "0x0000000000000000000000006efb11ac41b6657c32dac5ed4874082c700bba29"
          ],
          "data": "0x0000000000000000000000000000000000000000000000a2a15d09519be00000",
          "blockHash": "0xdeacaae17875b9b27fc4cb4fa3055dba6a5014f8b2e6f11fb2c1d76f9e2955c8",
          "blockNumber": "0x655678",
          "blockTimestamp": "0x67cb2bec",
          "transactionHash": "0x14ab15f9a739307f0155cd93bf1e82d7a7bf0cd11a16d306790b455f8b07681b",
          "transactionIndex": "0x41",
          "logIndex": "0x8b",
          "removed": false
        },
        {
          "address": "0x37e9b288c56b734c0291d37af478f60ce58a9fc6",
          "topics": [
            "0x0f6798a560793a54c3bcfe86a93cde1e73087d944c0ea20544137d4121396885"
          ],
          "data": "0x0000000000000000000000006efb11ac41b6657c32dac5ed4874082c700bba290000000000000000000000000000000000000000000000a2a15d09519be00000",
          "blockHash": "0xdeacaae17875b9b27fc4cb4fa3055dba6a5014f8b2e6f11fb2c1d76f9e2955c8",
          "blockNumber": "0x655678",
          "blockTimestamp": "0x67cb2bec",
          "transactionHash": "0x14ab15f9a739307f0155cd93bf1e82d7a7bf0cd11a16d306790b455f8b07681b",
          "transactionIndex": "0x41",
          "logIndex": "0x8c",
          "removed": false
        }
      ],
      "logsBloom": "0x00000000000000000200000000000000000008000000000000000000000000000000000000000000000000000000000000000000000100000000000000000000000000000020000000000008000000000000000000000000000000000000000000000000020000000000000000000800000000000000400000000010000000000000000000000000000000000000000000000000000000000000000000000000000080000000000000000000000000000000000000000000000001000000000000000002000000000000800000000000000000000010000000000000000020000000000000000000000000000000000000000000000000000000000000000000",
      "type": "0x2",
      "transactionHash": "0x14ab15f9a739307f0155cd93bf1e82d7a7bf0cd11a16d306790b455f8b07681b",
      "transactionIndex": "0x41",
      "blockHash": "0xdeacaae17875b9b27fc4cb4fa3055dba6a5014f8b2e6f11fb2c1d76f9e2955c8",
      "blockNumber": "0x655678",
      "gasUsed": "0xcfae",
      "effectiveGasPrice": "0xba43b7401",
      "from": "0x6efb11ac41b6657c32dac5ed4874082c700bba29",
      "to": "0x37e9b288c56b734c0291d37af478f60ce58a9fc6",
      "contractAddress": null
    },
    {
      "status": "0x1",
      "cumulativeGasUsed": "0xc50f46",
      "logs": [
        {
          "address": "0x97f3d75fcc683c8f557d637196857fa303f7cebd",
          "topics": [
            "0x8c5be1e5ebec7d5bd14f71427d1e84f3dd0314c0f7b2291e5b200ac8c7c3b925",
            "0x0000000000000000000000006efb11ac41b6657c32dac5ed4874082c700bba29",
            "0x000000000000000000000000021b34967eb9ca1d79ab26e1e10ad7f12f90b8d5"
          ],
          "data": "0xffffffffffffffffffffffffffffffffffffffffffffffffffffffffffffffff",
          "blockHash": "0xdeacaae17875b9b27fc4cb4fa3055dba6a5014f8b2e6f11fb2c1d76f9e2955c8",
          "blockNumber": "0x655678",
          "blockTimestamp": "0x67cb2bec",
          "transactionHash": "0xa2ae4ba187c275258dd7c0f7a7052ae44bfc7f606e680bcafd9db02b0a394ec2",
          "transactionIndex": "0x42",
          "logIndex": "0x8d",
          "removed": false
        }
      ],
      "logsBloom": "0x00000000000000000200000000000000000000002000000000000000000000000080000000000000000000000000000000000000000100000000000000200000000000000000000000000000000000000002000000000100000000000000000000000000000000000000000000000000000000000000000000000000000010000000000000000000000000000000000000000000000000000000000000000000020000000000000000000000000004000000000000000000000001000000000000000000000000000000000000000000000000000000000000000000000000000010000000000000000000000000000000000000000000000000000000000000",
      "type": "0x2",
      "transactionHash": "0xa2ae4ba187c275258dd7c0f7a7052ae44bfc7f606e680bcafd9db02b0a394ec2",
      "transactionIndex": "0x42",
      "blockHash": "0xdeacaae17875b9b27fc4cb4fa3055dba6a5014f8b2e6f11fb2c1d76f9e2955c8",
      "blockNumber": "0x655678",
      "gasUsed": "0xfee1",
      "effectiveGasPrice": "0xba43b7401",
      "from": "0x6efb11ac41b6657c32dac5ed4874082c700bba29",
      "to": "0x97f3d75fcc683c8f557d637196857fa303f7cebd",
      "contractAddress": null
    },
    {
      "status": "0x1",
      "cumulativeGasUsed": "0xc60e27",
      "logs": [
        {
          "address": "0x37e9b288c56b734c0291d37af478f60ce58a9fc6",
          "topics": [
            "0x8c5be1e5ebec7d5bd14f71427d1e84f3dd0314c0f7b2291e5b200ac8c7c3b925",
            "0x0000000000000000000000006efb11ac41b6657c32dac5ed4874082c700bba29",
            "0x000000000000000000000000021b34967eb9ca1d79ab26e1e10ad7f12f90b8d5"
          ],
          "data": "0xffffffffffffffffffffffffffffffffffffffffffffffffffffffffffffffff",
          "blockHash": "0xdeacaae17875b9b27fc4cb4fa3055dba6a5014f8b2e6f11fb2c1d76f9e2955c8",
          "blockNumber": "0x655678",
          "blockTimestamp": "0x67cb2bec",
          "transactionHash": "0xd40861d7732dadbef0eb06eed416cf000c20073e846d2e537db0456d8a50b9a3",
          "transactionIndex": "0x43",
          "logIndex": "0x8e",
          "removed": false
        }
      ],
      "logsBloom": "0x00000000000000000200000000000000000008002000000000000000000000000000000000000000000000000000000000000000000100000000000000200000000000000000000000000000000000000000000000000000000000000000000000000000000000000000000000000000000000000000000000000000000010000000000000000000000000000000000000000000000000000000000000000000020000000000000000000000000004000000000000000000000001000000000000000000000000000000800000000000000000000010000000000000000000000010000000000000000000000000000000000000000000000000000000000000",
      "type": "0x2",
      "transactionHash": "0xd40861d7732dadbef0eb06eed416cf000c20073e846d2e537db0456d8a50b9a3",
      "transactionIndex": "0x43",
      "blockHash": "0xdeacaae17875b9b27fc4cb4fa3055dba6a5014f8b2e6f11fb2c1d76f9e2955c8",
      "blockNumber": "0x655678",
      "gasUsed": "0xfee1",
      "effectiveGasPrice": "0xba43b7401",
      "from": "0x6efb11ac41b6657c32dac5ed4874082c700bba29",
      "to": "0x37e9b288c56b734c0291d37af478f60ce58a9fc6",
      "contractAddress": null
    },
    {
      "status": "0x1",
      "cumulativeGasUsed": "0xce71e8",
      "logs": [
        {
          "address": "0x97f3d75fcc683c8f557d637196857fa303f7cebd",
          "topics": [
            "0xddf252ad1be2c89b69c2b068fc378daa952ba7f163c4a11628f55a4df523b3ef",
            "0x0000000000000000000000006efb11ac41b6657c32dac5ed4874082c700bba29",
            "0x000000000000000000000000c18437f590dff77fd1c286e9abec51013509e477"
          ],
          "data": "0x000000000000000000000000000000000000000000000000000000003b9aca00",
          "blockHash": "0xdeacaae17875b9b27fc4cb4fa3055dba6a5014f8b2e6f11fb2c1d76f9e2955c8",
          "blockNumber": "0x655678",
          "blockTimestamp": "0x67cb2bec",
          "transactionHash": "0xe52fc8dcedf81ae37ce946990176bb09a94b8819d14e717e1164c1ee4487a6c4",
          "transactionIndex": "0x44",
          "logIndex": "0x8f",
          "removed": false
        },
        {
          "address": "0x97f3d75fcc683c8f557d637196857fa303f7cebd",
          "topics": [
            "0xddf252ad1be2c89b69c2b068fc378daa952ba7f163c4a11628f55a4df523b3ef",
            "0x0000000000000000000000006efb11ac41b6657c32dac5ed4874082c700bba29",
            "0x000000000000000000000000c18437f590dff77fd1c286e9abec51013509e477"
          ],
          "data": "0x00000000000000000000000000000000000000000000003635c9adc5dea00000",
          "blockHash": "0xdeacaae17875b9b27fc4cb4fa3055dba6a5014f8b2e6f11fb2c1d76f9e2955c8",
          "blockNumber": "0x655678",
          "blockTimestamp": "0x67cb2bec",
          "transactionHash": "0xe52fc8dcedf81ae37ce946990176bb09a94b8819d14e717e1164c1ee4487a6c4",
          "transactionIndex": "0x44",
          "logIndex": "0x90",
          "removed": false
        },
        {
          "address": "0x37e9b288c56b734c0291d37af478f60ce58a9fc6",
          "topics": [
            "0xddf252ad1be2c89b69c2b068fc378daa952ba7f163c4a11628f55a4df523b3ef",
            "0x0000000000000000000000006efb11ac41b6657c32dac5ed4874082c700bba29",
            "0x000000000000000000000000c18437f590dff77fd1c286e9abec51013509e477"
          ],
          "data": "0x0000000000000000000000000000000000000000000000a2a15d09519be00000",
          "blockHash": "0xdeacaae17875b9b27fc4cb4fa3055dba6a5014f8b2e6f11fb2c1d76f9e2955c8",
          "blockNumber": "0x655678",
          "blockTimestamp": "0x67cb2bec",
          "transactionHash": "0xe52fc8dcedf81ae37ce946990176bb09a94b8819d14e717e1164c1ee4487a6c4",
          "transactionIndex": "0x44",
          "logIndex": "0x91",
          "removed": false
        },
        {
          "address": "0xf3d2f7bafcd4d3117e124e3b1beaa6b38219d571",
          "topics": [
            "0xd3d640118416a526ad33075973727e1675055b2b31a8351bc74271d75fccef9b"
          ],
          "data": "0x00000000000000000000000000000000000000000000000000000000000000000000000000000000000000006efb11ac41b6657c32dac5ed4874082c700bba290000000000000000000000006efb11ac41b6657c32dac5ed4874082c700bba290000000000000000000000000000000000000000000000000000000000000000000000000000000000000000598b1401148899d37eaf29832d50e62836d1ffa800000000000000000000000097f3d75fcc683c8f557d637196857fa303f7cebd00000000000000000000000037e9b288c56b734c0291d37af478f60ce58a9fc6000000000000000000000000000000000000000000000000000000003b9aca0000000000000000000000000000000000000000000000003635c9adc5dea000000000000000000000000000000000000000000000000000a2a15d09519be00000",
          "blockHash": "0xdeacaae17875b9b27fc4cb4fa3055dba6a5014f8b2e6f11fb2c1d76f9e2955c8",
          "blockNumber": "0x655678",
          "blockTimestamp": "0x67cb2bec",
          "transactionHash": "0xe52fc8dcedf81ae37ce946990176bb09a94b8819d14e717e1164c1ee4487a6c4",
          "transactionIndex": "0x44",
          "logIndex": "0x92",
          "removed": false
        }
      ],
      "logsBloom": "0x00000000000000000200000000000000000008000000000000000000040000000080000000000000000000000000000000000000000100000000000000000000000000000000000000000008000000000002000000000100000000000000000000000000000000000000000000000000000000000000000000000010200000000000000000000000000000000000000000000000000000000000000000000000000000002200000000000000000000000000000020000000000001000000000000000002000090000000800000000000000000000010000000000000000000000000000000000008000001000000000000000000000000000000000000000000",
      "type": "0x2",
      "transactionHash": "0xe52fc8dcedf81ae37ce946990176bb09a94b8819d14e717e1164c1ee4487a6c4",
      "transactionIndex": "0x44",
      "blockHash": "0xdeacaae17875b9b27fc4cb4fa3055dba6a5014f8b2e6f11fb2c1d76f9e2955c8",
      "blockNumber": "0x655678",
      "gasUsed": "0x863c1",
      "effectiveGasPrice": "0xba43b7401",
      "from": "0x6efb11ac41b6657c32dac5ed4874082c700bba29",
      "to": "0x021b34967eb9ca1d79ab26e1e10ad7f12f90b8d5",
      "contractAddress": null
    }
  ],
  "libraries": [],
  "pending": [],
  "returns": {},
  "timestamp": 1741368302,
  "chain": 10143,
  "commit": "75ade75"
}