{
  "transactions": [
    {
      "hash": "0x51110f6cfe33a618800a87ff7f1125504dd52d23ca6e479fe5ebd92e6a8d8275",
      "transactionType": "CALL",
      "contractName": null,
      "contractAddress": "0x2c53ce7143d24a65410107f50e4aabad9a164480",
      "function": "mint(address,uint256)",
      "arguments": [
        "0x6EFb11aC41B6657c32dAc5Ed4874082C700BbA29",
        "10000000000000000000000"
      ],
      "transaction": {
        "from": "0x6efb11ac41b6657c32dac5ed4874082c700bba29",
        "to": "0x2c53ce7143d24a65410107f50e4aabad9a164480",
        "gas": "0xc1c9",
        "value": "0x0",
        "input": "0x40c10f190000000000000000000000006efb11ac41b6657c32dac5ed4874082c700bba2900000000000000000000000000000000000000000000021e19e0c9bab2400000",
        "nonce": "0x124",
        "chainId": "0x279f"
      },
      "additionalContracts": [],
      "isFixedGasLimit": false
    },
    {
      "hash": "0x22ab6ef0f540eeaed24fe7d3f47abdc44af20ba7d5cea0468cdf71db38b76721",
      "transactionType": "CALL",
      "contractName": null,
      "contractAddress": "0x53f7c389cbb801e2abfd301ded6d2a1cf330ac0d",
      "function": "mint(address,uint256)",
      "arguments": [
        "0x6EFb11aC41B6657c32dAc5Ed4874082C700BbA29",
        "10000000000000000000000"
      ],
      "transaction": {
        "from": "0x6efb11ac41b6657c32dac5ed4874082c700bba29",
        "to": "0x53f7c389cbb801e2abfd301ded6d2a1cf330ac0d",
        "gas": "0xc1c9",
        "value": "0x0",
        "input": "0x40c10f190000000000000000000000006efb11ac41b6657c32dac5ed4874082c700bba2900000000000000000000000000000000000000000000021e19e0c9bab2400000",
        "nonce": "0x125",
        "chainId": "0x279f"
      },
      "additionalContracts": [],
      "isFixedGasLimit": false
    },
    {
      "hash": "0xa6cd8267f7b886dcb3dd7cedab3ba125e9c0015362993a067f891df4b652b06a",
      "transactionType": "CALL",
      "contractName": null,
      "contractAddress": "0xf9861d7478f8957679b26404bd6272c39f949c29",
      "function": "mint(address,uint256)",
      "arguments": [
        "0x6EFb11aC41B6657c32dAc5Ed4874082C700BbA29",
        "10000000000000000000000000"
      ],
      "transaction": {
        "from": "0x6efb11ac41b6657c32dac5ed4874082c700bba29",
        "to": "0xf9861d7478f8957679b26404bd6272c39f949c29",
        "gas": "0xc1c9",
        "value": "0x0",
        "input": "0x40c10f190000000000000000000000006efb11ac41b6657c32dac5ed4874082c700bba29000000000000000000000000000000000000000000084595161401484a000000",
        "nonce": "0x126",
        "chainId": "0x279f"
      },
      "additionalContracts": [],
      "isFixedGasLimit": false
    },
    {
      "hash": "0x47ce85b8bb5aea9b6a7470f3feffaa35025dcb07d9a5cfdc7e0c4dbd081e1260",
      "transactionType": "CALL",
      "contractName": null,
      "contractAddress": "0x1889cfb8746716a0ac50e59a54f190987c5f04e6",
      "function": "mint(address,uint256)",
      "arguments": [
        "0x6EFb11aC41B6657c32dAc5Ed4874082C700BbA29",
        "100000000000000"
      ],
      "transaction": {
        "from": "0x6efb11ac41b6657c32dac5ed4874082c700bba29",
        "to": "0x1889cfb8746716a0ac50e59a54f190987c5f04e6",
        "gas": "0xb6d2",
        "value": "0x0",
        "input": "0x40c10f190000000000000000000000006efb11ac41b6657c32dac5ed4874082c700bba2900000000000000000000000000000000000000000000000000005af3107a4000",
        "nonce": "0x127",
        "chainId": "0x279f"
      },
      "additionalContracts": [],
      "isFixedGasLimit": false
    },
    {
      "hash": "0x6f51f5e4935f6d560e888a0872eb79148e5c0a90a0207baaf61da49bc37dc557",
      "transactionType": "CALL",
      "contractName": null,
      "contractAddress": "0x6bc8a42d4b2f4bc8e4c3f9ecff00b7290ffa7405",
      "function": "mint(address,uint256)",
      "arguments": [
        "0x6EFb11aC41B6657c32dAc5Ed4874082C700BbA29",
        "100000000000000000000000"
      ],
      "transaction": {
        "from": "0x6efb11ac41b6657c32dac5ed4874082c700bba29",
        "to": "0x6bc8a42d4b2f4bc8e4c3f9ecff00b7290ffa7405",
        "gas": "0xc1c9",
        "value": "0x0",
        "input": "0x40c10f190000000000000000000000006efb11ac41b6657c32dac5ed4874082c700bba2900000000000000000000000000000000000000000000152d02c7e14af6800000",
        "nonce": "0x128",
        "chainId": "0x279f"
      },
      "additionalContracts": [],
      "isFixedGasLimit": false
    },
    {
      "hash": "0x33fd25d147020dbe0556b9f999a9fcad06658876504da59e2220d3d58a12f045",
      "transactionType": "CALL",
      "contractName": null,
      "contractAddress": "0xe3f98fda6dbd38c1017754f1675dce377381c23c",
      "function": "mint(address,uint256)",
      "arguments": [
        "0x6EFb11aC41B6657c32dAc5Ed4874082C700BbA29",
        "10000000000000000000000"
      ],
      "transaction": {
        "from": "0x6efb11ac41b6657c32dac5ed4874082c700bba29",
        "to": "0xe3f98fda6dbd38c1017754f1675dce377381c23c",
        "gas": "0xc1c9",
        "value": "0x0",
        "input": "0x40c10f190000000000000000000000006efb11ac41b6657c32dac5ed4874082c700bba2900000000000000000000000000000000000000000000021e19e0c9bab2400000",
        "nonce": "0x129",
        "chainId": "0x279f"
      },
      "additionalContracts": [],
      "isFixedGasLimit": false
    },
    {
      "hash": "0x076128aea537c56828bf0ada4dc581095c71baeb3a44b297bf19c024a4d909be",
      "transactionType": "CALL",
      "contractName": null,
      "contractAddress": "0x58389610a3d13e8f380ee2ba077a6f36f2a90834",
      "function": "mint(address,uint256)",
      "arguments": [
        "0x6EFb11aC41B6657c32dAc5Ed4874082C700BbA29",
        "1000000000000"
      ],
      "transaction": {
        "from": "0x6efb11ac41b6657c32dac5ed4874082c700bba29",
        "to": "0x58389610a3d13e8f380ee2ba077a6f36f2a90834",
        "gas": "0xc183",
        "value": "0x0",
        "input": "0x40c10f190000000000000000000000006efb11ac41b6657c32dac5ed4874082c700bba29000000000000000000000000000000000000000000000000000000e8d4a51000",
        "nonce": "0x12a",
        "chainId": "0x279f"
      },
      "additionalContracts": [],
      "isFixedGasLimit": false
    },
    {
      "hash": "0x3657b87b6ade016ee6d17ed69bc8807a22962cb006bd4e2259c6e130a61c7f9c",
      "transactionType": "CALL",
      "contractName": null,
      "contractAddress": "0x2c53ce7143d24a65410107f50e4aabad9a164480",
      "function": "approve(address,uint256)",
      "arguments": [
        "0x2e505C38656AE7e6B1134F48b0DaF6f725A6EaEB",
        "115792089237316195423570985008687907853269984665640564039457584007913129639935"
      ],
      "transaction": {
        "from": "0x6efb11ac41b6657c32dac5ed4874082c700bba29",
        "to": "0x2c53ce7143d24a65410107f50e4aabad9a164480",
        "gas": "0xf9a4",
        "value": "0x0",
        "input": "0x095ea7b30000000000000000000000002e505c38656ae7e6b1134f48b0daf6f725a6eaebffffffffffffffffffffffffffffffffffffffffffffffffffffffffffffffff",
        "nonce": "0x12b",
        "chainId": "0x279f"
      },
      "additionalContracts": [],
      "isFixedGasLimit": false
    },
    {
      "hash": "0x3bff910583da6450cac61f19ccbb5393bd17776ce6df2630badfd2481ff23dbd",
      "transactionType": "CALL",
      "contractName": null,
      "contractAddress": "0x53f7c389cbb801e2abfd301ded6d2a1cf330ac0d",
      "function": "approve(address,uint256)",
      "arguments": [
        "0x2e505C38656AE7e6B1134F48b0DaF6f725A6EaEB",
        "115792089237316195423570985008687907853269984665640564039457584007913129639935"
      ],
      "transaction": {
        "from": "0x6efb11ac41b6657c32dac5ed4874082c700bba29",
        "to": "0x53f7c389cbb801e2abfd301ded6d2a1cf330ac0d",
        "gas": "0xf9a4",
        "value": "0x0",
        "input": "0x095ea7b30000000000000000000000002e505c38656ae7e6b1134f48b0daf6f725a6eaebffffffffffffffffffffffffffffffffffffffffffffffffffffffffffffffff",
        "nonce": "0x12c",
        "chainId": "0x279f"
      },
      "additionalContracts": [],
      "isFixedGasLimit": false
    },
    {
      "hash": "0x82d5e02144ab29ea82174b8358417f173daaaa173b41c2ab3023c35b8b6e1b55",
      "transactionType": "CALL",
      "contractName": null,
      "contractAddress": "0xf9861d7478f8957679b26404bd6272c39f949c29",
      "function": "approve(address,uint256)",
      "arguments": [
        "0x2e505C38656AE7e6B1134F48b0DaF6f725A6EaEB",
        "115792089237316195423570985008687907853269984665640564039457584007913129639935"
      ],
      "transaction": {
        "from": "0x6efb11ac41b6657c32dac5ed4874082c700bba29",
        "to": "0xf9861d7478f8957679b26404bd6272c39f949c29",
        "gas": "0xf9a4",
        "value": "0x0",
        "input": "0x095ea7b30000000000000000000000002e505c38656ae7e6b1134f48b0daf6f725a6eaebffffffffffffffffffffffffffffffffffffffffffffffffffffffffffffffff",
        "nonce": "0x12d",
        "chainId": "0x279f"
      },
      "additionalContracts": [],
      "isFixedGasLimit": false
    },
    {
      "hash": "0xfd27a082f49b8b97b61177aefcea0e06c6e4034a32b0d862ba3b903f6e6cc10e",
      "transactionType": "CALL",
      "contractName": null,
      "contractAddress": "0x1889cfb8746716a0ac50e59a54f190987c5f04e6",
      "function": "approve(address,uint256)",
      "arguments": [
        "0x2e505C38656AE7e6B1134F48b0DaF6f725A6EaEB",
        "115792089237316195423570985008687907853269984665640564039457584007913129639935"
      ],
      "transaction": {
        "from": "0x6efb11ac41b6657c32dac5ed4874082c700bba29",
        "to": "0x1889cfb8746716a0ac50e59a54f190987c5f04e6",
        "gas": "0xf9a4",
        "value": "0x0",
        "input": "0x095ea7b30000000000000000000000002e505c38656ae7e6b1134f48b0daf6f725a6eaebffffffffffffffffffffffffffffffffffffffffffffffffffffffffffffffff",
        "nonce": "0x12e",
        "chainId": "0x279f"
      },
      "additionalContracts": [],
      "isFixedGasLimit": false
    },
    {
      "hash": "0x5c2930cba90cd03ea74abc0365db53d7e93f1d9fe8609e451b8c9638c3624b59",
      "transactionType": "CALL",
      "contractName": null,
      "contractAddress": "0x6bc8a42d4b2f4bc8e4c3f9ecff00b7290ffa7405",
      "function": "approve(address,uint256)",
      "arguments": [
        "0x2e505C38656AE7e6B1134F48b0DaF6f725A6EaEB",
        "115792089237316195423570985008687907853269984665640564039457584007913129639935"
      ],
      "transaction": {
        "from": "0x6efb11ac41b6657c32dac5ed4874082c700bba29",
        "to": "0x6bc8a42d4b2f4bc8e4c3f9ecff00b7290ffa7405",
        "gas": "0xf9a4",
        "value": "0x0",
        "input": "0x095ea7b30000000000000000000000002e505c38656ae7e6b1134f48b0daf6f725a6eaebffffffffffffffffffffffffffffffffffffffffffffffffffffffffffffffff",
        "nonce": "0x12f",
        "chainId": "0x279f"
      },
      "additionalContracts": [],
      "isFixedGasLimit": false
    },
    {
      "hash": "0x4c62f2104e08c5d3ce35e2aeb456dd1732af15e0e47f833ee1d0a052e0a4128a",
      "transactionType": "CALL",
      "contractName": null,
      "contractAddress": "0xe3f98fda6dbd38c1017754f1675dce377381c23c",
      "function": "approve(address,uint256)",
      "arguments": [
        "0x2e505C38656AE7e6B1134F48b0DaF6f725A6EaEB",
        "115792089237316195423570985008687907853269984665640564039457584007913129639935"
      ],
      "transaction": {
        "from": "0x6efb11ac41b6657c32dac5ed4874082c700bba29",
        "to": "0xe3f98fda6dbd38c1017754f1675dce377381c23c",
        "gas": "0xf9a4",
        "value": "0x0",
        "input": "0x095ea7b30000000000000000000000002e505c38656ae7e6b1134f48b0daf6f725a6eaebffffffffffffffffffffffffffffffffffffffffffffffffffffffffffffffff",
        "nonce": "0x130",
        "chainId": "0x279f"
      },
      "additionalContracts": [],
      "isFixedGasLimit": false
    },
    {
      "hash": "0xf4efad2c981cff723a7f7ae7947dc5456e8964a7c04ae48f0dcfc75ada70b2a4",
      "transactionType": "CALL",
      "contractName": null,
      "contractAddress": "0x58389610a3d13e8f380ee2ba077a6f36f2a90834",
      "function": "approve(address,uint256)",
      "arguments": [
        "0x2e505C38656AE7e6B1134F48b0DaF6f725A6EaEB",
        "115792089237316195423570985008687907853269984665640564039457584007913129639935"
      ],
      "transaction": {
        "from": "0x6efb11ac41b6657c32dac5ed4874082c700bba29",
        "to": "0x58389610a3d13e8f380ee2ba077a6f36f2a90834",
        "gas": "0xf9a4",
        "value": "0x0",
        "input": "0x095ea7b30000000000000000000000002e505c38656ae7e6b1134f48b0daf6f725a6eaebffffffffffffffffffffffffffffffffffffffffffffffffffffffffffffffff",
        "nonce": "0x131",
        "chainId": "0x279f"
      },
      "additionalContracts": [],
      "isFixedGasLimit": false
    },
    {
      "hash": "0x25182a6bbc5080f3f92c49420706793f24a24089cdc604f5c7e0f506cfb714bb",
      "transactionType": "CALL",
      "contractName": null,
      "contractAddress": "0x2e505c38656ae7e6b1134f48b0daf6f725a6eaeb",
      "function": "multicall(bytes[])",
      "arguments": [
        "[0x7d39aaf10000000000000000000000002e45d737b1d3ca3c6fb4cb82193e0e3d7444e4bd000000000000000000000000000000000000000000000000000000003b9aca00, 0xe6d66ac80000000000000000000000002c53ce7143d24a65410107f50e4aabad9a1644800000000000000000000000002e45d737b1d3ca3c6fb4cb82193e0e3d7444e4bd0000000000000000000000000000000000000000000000056bc75e2d63100000, 0xe6d66ac800000000000000000000000058389610a3d13e8f380ee2ba077a6f36f2a908340000000000000000000000002e45d737b1d3ca3c6fb4cb82193e0e3d7444e4bd0000000000000000000000000000000000000000000000000000008bb2c97000, 0x293953b80000000000000000000000006efb11ac41b6657c32dac5ed4874082c700bba2900000000000000000000000000000000000000000000000000000000000000000000000000000000000000004c51d8a789b0029cf47c2366eebf6205a09d929b0000000000000000000000002c53ce7143d24a65410107f50e4aabad9a16448000000000000000000000000058389610a3d13e8f380ee2ba077a6f36f2a908340000000000000000000000000000000000000000000000000000000000000000000000000000000000000000000000000000000000000000000000003b9aca00]"
      ],
      "transaction": {
        "from": "0x6efb11ac41b6657c32dac5ed4874082c700bba29",
        "to": "0x2e505c38656ae7e6b1134f48b0daf6f725a6eaeb",
        "gas": "0x8d1c9",
        "value": "0x0",
        "input": "0xac9650d8000000000000000000000000000000000000000000000000000000000000002000000000000000000000000000000000000000000000000000000000000000040000000000000000000000000000000000000000000000000000000000000080000000000000000000000000000000000000000000000000000000000000010000000000000000000000000000000000000000000000000000000000000001a0000000000000000000000000000000000000000000000000000000000000024000000000000000000000000000000000000000000000000000000000000000447d39aaf10000000000000000000000002e45d737b1d3ca3c6fb4cb82193e0e3d7444e4bd000000000000000000000000000000000000000000000000000000003b9aca00000000000000000000000000000000000000000000000000000000000000000000000000000000000000000000000000000000000000000000000064e6d66ac80000000000000000000000002c53ce7143d24a65410107f50e4aabad9a1644800000000000000000000000002e45d737b1d3ca3c6fb4cb82193e0e3d7444e4bd0000000000000000000000000000000000000000000000056bc75e2d63100000000000000000000000000000000000000000000000000000000000000000000000000000000000000000000000000000000000000000000000000064e6d66ac800000000000000000000000058389610a3d13e8f380ee2ba077a6f36f2a908340000000000000000000000002e45d737b1d3ca3c6fb4cb82193e0e3d7444e4bd0000000000000000000000000000000000000000000000000000008bb2c970000000000000000000000000000000000000000000000000000000000000000000000000000000000000000000000000000000000000000000000000e4293953b80000000000000000000000006efb11ac41b6657c32dac5ed4874082c700bba2900000000000000000000000000000000000000000000000000000000000000000000000000000000000000004c51d8a789b0029cf47c2366eebf6205a09d929b0000000000000000000000002c53ce7143d24a65410107f50e4aabad9a16448000000000000000000000000058389610a3d13e8f380ee2ba077a6f36f2a908340000000000000000000000000000000000000000000000000000000000000000000000000000000000000000000000000000000000000000000000003b9aca0000000000000000000000000000000000000000000000000000000000",
        "nonce": "0x132",
        "chainId": "0x279f"
      },
      "additionalContracts": [],
      "isFixedGasLimit": false
    },
    {
      "hash": "0x542068905461e4b8871527d8693ba8f06fa2a15f1c5654fef582702c4677571f",
      "transactionType": "CALL",
      "contractName": null,
      "contractAddress": "0x2e505c38656ae7e6b1134f48b0daf6f725a6eaeb",
      "function": "multicall(bytes[])",
      "arguments": [
        "[0x7d39aaf10000000000000000000000002e45d737b1d3ca3c6fb4cb82193e0e3d7444e4bd000000000000000000000000000000000000000000000000000000003b9aca00, 0xe6d66ac800000000000000000000000053f7c389cbb801e2abfd301ded6d2a1cf330ac0d0000000000000000000000002e45d737b1d3ca3c6fb4cb82193e0e3d7444e4bd000000000000000000000000000000000000000000000002b5e3af16b1880000, 0xe6d66ac800000000000000000000000058389610a3d13e8f380ee2ba077a6f36f2a908340000000000000000000000002e45d737b1d3ca3c6fb4cb82193e0e3d7444e4bd000000000000000000000000000000000000000000000000000005bad5431800, 0x293953b80000000000000000000000006efb11ac41b6657c32dac5ed4874082c700bba290000000000000000000000000000000000000000000000000000000000000000000000000000000000000000b0a7f91a1c917a3bff73f2e3829032c64e13595100000000000000000000000053f7c389cbb801e2abfd301ded6d2a1cf330ac0d00000000000000000000000058389610a3d13e8f380ee2ba077a6f36f2a908340000000000000000000000000000000000000000000000000000000000000000000000000000000000000000000000000000000000000000000000003b9aca00]"
      ],
      "transaction": {
        "from": "0x6efb11ac41b6657c32dac5ed4874082c700bba29",
        "to": "0x2e505c38656ae7e6b1134f48b0daf6f725a6eaeb",
        "gas": "0x7b0f8",
        "value": "0x0",
        "input": "0xac9650d8000000000000000000000000000000000000000000000000000000000000002000000000000000000000000000000000000000000000000000000000000000040000000000000000000000000000000000000000000000000000000000000080000000000000000000000000000000000000000000000000000000000000010000000000000000000000000000000000000000000000000000000000000001a0000000000000000000000000000000000000000000000000000000000000024000000000000000000000000000000000000000000000000000000000000000447d39aaf10000000000000000000000002e45d737b1d3ca3c6fb4cb82193e0e3d7444e4bd000000000000000000000000000000000000000000000000000000003b9aca00000000000000000000000000000000000000000000000000000000000000000000000000000000000000000000000000000000000000000000000064e6d66ac800000000000000000000000053f7c389cbb801e2abfd301ded6d2a1cf330ac0d0000000000000000000000002e45d737b1d3ca3c6fb4cb82193e0e3d7444e4bd000000000000000000000000000000000000000000000002b5e3af16b1880000000000000000000000000000000000000000000000000000000000000000000000000000000000000000000000000000000000000000000000000064e6d66ac800000000000000000000000058389610a3d13e8f380ee2ba077a6f36f2a908340000000000000000000000002e45d737b1d3ca3c6fb4cb82193e0e3d7444e4bd000000000000000000000000000000000000000000000000000005bad54318000000000000000000000000000000000000000000000000000000000000000000000000000000000000000000000000000000000000000000000000e4293953b80000000000000000000000006efb11ac41b6657c32dac5ed4874082c700bba290000000000000000000000000000000000000000000000000000000000000000000000000000000000000000b0a7f91a1c917a3bff73f2e3829032c64e13595100000000000000000000000053f7c389cbb801e2abfd301ded6d2a1cf330ac0d00000000000000000000000058389610a3d13e8f380ee2ba077a6f36f2a908340000000000000000000000000000000000000000000000000000000000000000000000000000000000000000000000000000000000000000000000003b9aca0000000000000000000000000000000000000000000000000000000000",
        "nonce": "0x133",
        "chainId": "0x279f"
      },
      "additionalContracts": [],
      "isFixedGasLimit": false
    },
    {
      "hash": "0xa208fc71640049bcb9aa64deb53bdda1c08a13688cd5d1f5711fb9518c9a85d6",
      "transactionType": "CALL",
      "contractName": null,
      "contractAddress": "0x2e505c38656ae7e6b1134f48b0daf6f725a6eaeb",
      "function": "multicall(bytes[])",
      "arguments": [
        "[0x7d39aaf10000000000000000000000002e45d737b1d3ca3c6fb4cb82193e0e3d7444e4bd000000000000000000000000000000000000000000000000000000003b9aca00, 0xe6d66ac8000000000000000000000000f9861d7478f8957679b26404bd6272c39f949c290000000000000000000000002e45d737b1d3ca3c6fb4cb82193e0e3d7444e4bd000000000000000000000000000000000000000000295be96e64066972000000, 0xe6d66ac800000000000000000000000058389610a3d13e8f380ee2ba077a6f36f2a908340000000000000000000000002e45d737b1d3ca3c6fb4cb82193e0e3d7444e4bd000000000000000000000000000000000000000000000000000000037e11d600, 0x293953b80000000000000000000000006efb11ac41b6657c32dac5ed4874082c700bba2900000000000000000000000000000000000000000000000000000000000000000000000000000000000000001664f516fbe65dd0089152c93f724b8810881fdc000000000000000000000000f9861d7478f8957679b26404bd6272c39f949c2900000000000000000000000058389610a3d13e8f380ee2ba077a6f36f2a908340000000000000000000000000000000000000000000000000000000000000000000000000000000000000000000000000000000000000000000000003b9aca00]"
      ],
      "transaction": {
        "from": "0x6efb11ac41b6657c32dac5ed4874082c700bba29",
        "to": "0x2e505c38656ae7e6b1134f48b0daf6f725a6eaeb",
        "gas": "0x7b0f8",
        "value": "0x0",
        "input": "0xac9650d8000000000000000000000000000000000000000000000000000000000000002000000000000000000000000000000000000000000000000000000000000000040000000000000000000000000000000000000000000000000000000000000080000000000000000000000000000000000000000000000000000000000000010000000000000000000000000000000000000000000000000000000000000001a0000000000000000000000000000000000000000000000000000000000000024000000000000000000000000000000000000000000000000000000000000000447d39aaf10000000000000000000000002e45d737b1d3ca3c6fb4cb82193e0e3d7444e4bd000000000000000000000000000000000000000000000000000000003b9aca00000000000000000000000000000000000000000000000000000000000000000000000000000000000000000000000000000000000000000000000064e6d66ac8000000000000000000000000f9861d7478f8957679b26404bd6272c39f949c290000000000000000000000002e45d737b1d3ca3c6fb4cb82193e0e3d7444e4bd000000000000000000000000000000000000000000295be96e64066972000000000000000000000000000000000000000000000000000000000000000000000000000000000000000000000000000000000000000000000000000064e6d66ac800000000000000000000000058389610a3d13e8f380ee2ba077a6f36f2a908340000000000000000000000002e45d737b1d3ca3c6fb4cb82193e0e3d7444e4bd000000000000000000000000000000000000000000000000000000037e11d6000000000000000000000000000000000000000000000000000000000000000000000000000000000000000000000000000000000000000000000000e4293953b80000000000000000000000006efb11ac41b6657c32dac5ed4874082c700bba2900000000000000000000000000000000000000000000000000000000000000000000000000000000000000001664f516fbe65dd0089152c93f724b8810881fdc000000000000000000000000f9861d7478f8957679b26404bd6272c39f949c2900000000000000000000000058389610a3d13e8f380ee2ba077a6f36f2a908340000000000000000000000000000000000000000000000000000000000000000000000000000000000000000000000000000000000000000000000003b9aca0000000000000000000000000000000000000000000000000000000000",
        "nonce": "0x134",
        "chainId": "0x279f"
      },
      "additionalContracts": [],
      "isFixedGasLimit": false
    },
    {
      "hash": "0x7d99e52d711d19e8315b7740ffa1f26efcc551cf032d23e0593d114d17978921",
      "transactionType": "CALL",
      "contractName": null,
      "contractAddress": "0x2e505c38656ae7e6b1134f48b0daf6f725a6eaeb",
      "function": "multicall(bytes[])",
      "arguments": [
        "[0x7d39aaf10000000000000000000000002e45d737b1d3ca3c6fb4cb82193e0e3d7444e4bd000000000000000000000000000000000000000000000000000000003b9aca00, 0xe6d66ac80000000000000000000000001889cfb8746716a0ac50e59a54f190987c5f04e60000000000000000000000002e45d737b1d3ca3c6fb4cb82193e0e3d7444e4bd00000000000000000000000000000000000000000000000000005af3107a4000, 0xe6d66ac800000000000000000000000058389610a3d13e8f380ee2ba077a6f36f2a908340000000000000000000000002e45d737b1d3ca3c6fb4cb82193e0e3d7444e4bd00000000000000000000000000000000000000000000000000000045d964b800, 0x293953b80000000000000000000000006efb11ac41b6657c32dac5ed4874082c700bba29000000000000000000000000000000000000000000000000000000000000000000000000000000000000000041b38fcc7eb3365393d5a2228d14d34c8f8418280000000000000000000000001889cfb8746716a0ac50e59a54f190987c5f04e600000000000000000000000058389610a3d13e8f380ee2ba077a6f36f2a908340000000000000000000000000000000000000000000000000000000000000000000000000000000000000000000000000000000000000000000000003b9aca00]"
      ],
      "transaction": {
        "from": "0x6efb11ac41b6657c32dac5ed4874082c700bba29",
        "to": "0x2e505c38656ae7e6b1134f48b0daf6f725a6eaeb",
        "gas": "0x7b0c6",
        "value": "0x0",
        "input": "0xac9650d8000000000000000000000000000000000000000000000000000000000000002000000000000000000000000000000000000000000000000000000000000000040000000000000000000000000000000000000000000000000000000000000080000000000000000000000000000000000000000000000000000000000000010000000000000000000000000000000000000000000000000000000000000001a0000000000000000000000000000000000000000000000000000000000000024000000000000000000000000000000000000000000000000000000000000000447d39aaf10000000000000000000000002e45d737b1d3ca3c6fb4cb82193e0e3d7444e4bd000000000000000000000000000000000000000000000000000000003b9aca00000000000000000000000000000000000000000000000000000000000000000000000000000000000000000000000000000000000000000000000064e6d66ac80000000000000000000000001889cfb8746716a0ac50e59a54f190987c5f04e60000000000000000000000002e45d737b1d3ca3c6fb4cb82193e0e3d7444e4bd00000000000000000000000000000000000000000000000000005af3107a4000000000000000000000000000000000000000000000000000000000000000000000000000000000000000000000000000000000000000000000000064e6d66ac800000000000000000000000058389610a3d13e8f380ee2ba077a6f36f2a908340000000000000000000000002e45d737b1d3ca3c6fb4cb82193e0e3d7444e4bd00000000000000000000000000000000000000000000000000000045d964b8000000000000000000000000000000000000000000000000000000000000000000000000000000000000000000000000000000000000000000000000e4293953b80000000000000000000000006efb11ac41b6657c32dac5ed4874082c700bba29000000000000000000000000000000000000000000000000000000000000000000000000000000000000000041b38fcc7eb3365393d5a2228d14d34c8f8418280000000000000000000000001889cfb8746716a0ac50e59a54f190987c5f04e600000000000000000000000058389610a3d13e8f380ee2ba077a6f36f2a908340000000000000000000000000000000000000000000000000000000000000000000000000000000000000000000000000000000000000000000000003b9aca0000000000000000000000000000000000000000000000000000000000",
        "nonce": "0x135",
        "chainId": "0x279f"
      },
      "additionalContracts": [],
      "isFixedGasLimit": false
    },
    {
      "hash": "0x89c673a561b9aac7ca3b7d7970f8ba1588f6e7cd5d7a48621f49a43ad658da9a",
      "transactionType": "CALL",
      "contractName": null,
      "contractAddress": "0x2e505c38656ae7e6b1134f48b0daf6f725a6eaeb",
      "function": "multicall(bytes[])",
      "arguments": [
        "[0x7d39aaf10000000000000000000000002e45d737b1d3ca3c6fb4cb82193e0e3d7444e4bd000000000000000000000000000000000000000000000000000000003b9aca00, 0xe6d66ac80000000000000000000000006bc8a42d4b2f4bc8e4c3f9ecff00b7290ffa74050000000000000000000000002e45d737b1d3ca3c6fb4cb82193e0e3d7444e4bd0000000000000000000000000000000000000000000069e10de76676d0800000, 0xe6d66ac800000000000000000000000058389610a3d13e8f380ee2ba077a6f36f2a908340000000000000000000000002e45d737b1d3ca3c6fb4cb82193e0e3d7444e4bd0000000000000000000000000000000000000000000000000000001176592e00, 0x293953b80000000000000000000000006efb11ac41b6657c32dac5ed4874082c700bba29000000000000000000000000000000000000000000000000000000000000000000000000000000000000000099bd3ff38f0dc9a819a0442f1d5ddbcd60072ece0000000000000000000000006bc8a42d4b2f4bc8e4c3f9ecff00b7290ffa740500000000000000000000000058389610a3d13e8f380ee2ba077a6f36f2a908340000000000000000000000000000000000000000000000000000000000000000000000000000000000000000000000000000000000000000000000003b9aca00]"
      ],
      "transaction": {
        "from": "0x6efb11ac41b6657c32dac5ed4874082c700bba29",
        "to": "0x2e505c38656ae7e6b1134f48b0daf6f725a6eaeb",
        "gas": "0x7b0d7",
        "value": "0x0",
        "input": "0xac9650d8000000000000000000000000000000000000000000000000000000000000002000000000000000000000000000000000000000000000000000000000000000040000000000000000000000000000000000000000000000000000000000000080000000000000000000000000000000000000000000000000000000000000010000000000000000000000000000000000000000000000000000000000000001a0000000000000000000000000000000000000000000000000000000000000024000000000000000000000000000000000000000000000000000000000000000447d39aaf10000000000000000000000002e45d737b1d3ca3c6fb4cb82193e0e3d7444e4bd000000000000000000000000000000000000000000000000000000003b9aca00000000000000000000000000000000000000000000000000000000000000000000000000000000000000000000000000000000000000000000000064e6d66ac80000000000000000000000006bc8a42d4b2f4bc8e4c3f9ecff00b7290ffa74050000000000000000000000002e45d737b1d3ca3c6fb4cb82193e0e3d7444e4bd0000000000000000000000000000000000000000000069e10de76676d0800000000000000000000000000000000000000000000000000000000000000000000000000000000000000000000000000000000000000000000000000064e6d66ac800000000000000000000000058389610a3d13e8f380ee2ba077a6f36f2a908340000000000000000000000002e45d737b1d3ca3c6fb4cb82193e0e3d7444e4bd0000000000000000000000000000000000000000000000000000001176592e000000000000000000000000000000000000000000000000000000000000000000000000000000000000000000000000000000000000000000000000e4293953b80000000000000000000000006efb11ac41b6657c32dac5ed4874082c700bba29000000000000000000000000000000000000000000000000000000000000000000000000000000000000000099bd3ff38f0dc9a819a0442f1d5ddbcd60072ece0000000000000000000000006bc8a42d4b2f4bc8e4c3f9ecff00b7290ffa740500000000000000000000000058389610a3d13e8f380ee2ba077a6f36f2a908340000000000000000000000000000000000000000000000000000000000000000000000000000000000000000000000000000000000000000000000003b9aca0000000000000000000000000000000000000000000000000000000000",
        "nonce": "0x136",
        "chainId": "0x279f"
      },
      "additionalContracts": [],
      "isFixedGasLimit": false
    },
    {
      "hash": "0x512f8c6b8b81aff8c1e300c8af769c0673f8fffff745e9bc6d3fb0ba6dff3a43",
      "transactionType": "CALL",
      "contractName": null,
      "contractAddress": "0x2e505c38656ae7e6b1134f48b0daf6f725a6eaeb",
      "function": "multicall(bytes[])",
      "arguments": [
        "[0x7d39aaf10000000000000000000000002e45d737b1d3ca3c6fb4cb82193e0e3d7444e4bd000000000000000000000000000000000000000000000000000000003b9aca00, 0xe6d66ac8000000000000000000000000e3f98fda6dbd38c1017754f1675dce377381c23c0000000000000000000000002e45d737b1d3ca3c6fb4cb82193e0e3d7444e4bd00000000000000000000000000000000000000000000021e19e0c9bab2400000, 0xe6d66ac800000000000000000000000058389610a3d13e8f380ee2ba077a6f36f2a908340000000000000000000000002e45d737b1d3ca3c6fb4cb82193e0e3d7444e4bd00000000000000000000000000000000000000000000000000000068c6171400, 0x293953b80000000000000000000000006efb11ac41b6657c32dac5ed4874082c700bba290000000000000000000000000000000000000000000000000000000000000000000000000000000000000000339ae32f85f4a43b8dc0b685dc2d39179653ca01000000000000000000000000e3f98fda6dbd38c1017754f1675dce377381c23c00000000000000000000000058389610a3d13e8f380ee2ba077a6f36f2a908340000000000000000000000000000000000000000000000000000000000000000000000000000000000000000000000000000000000000000000000003b9aca00]"
      ],
      "transaction": {
        "from": "0x6efb11ac41b6657c32dac5ed4874082c700bba29",
        "to": "0x2e505c38656ae7e6b1134f48b0daf6f725a6eaeb",
        "gas": "0x7b0f8",
        "value": "0x0",
        "input": "0xac9650d8000000000000000000000000000000000000000000000000000000000000002000000000000000000000000000000000000000000000000000000000000000040000000000000000000000000000000000000000000000000000000000000080000000000000000000000000000000000000000000000000000000000000010000000000000000000000000000000000000000000000000000000000000001a0000000000000000000000000000000000000000000000000000000000000024000000000000000000000000000000000000000000000000000000000000000447d39aaf10000000000000000000000002e45d737b1d3ca3c6fb4cb82193e0e3d7444e4bd000000000000000000000000000000000000000000000000000000003b9aca00000000000000000000000000000000000000000000000000000000000000000000000000000000000000000000000000000000000000000000000064e6d66ac8000000000000000000000000e3f98fda6dbd38c1017754f1675dce377381c23c0000000000000000000000002e45d737b1d3ca3c6fb4cb82193e0e3d7444e4bd00000000000000000000000000000000000000000000021e19e0c9bab2400000000000000000000000000000000000000000000000000000000000000000000000000000000000000000000000000000000000000000000000000064e6d66ac800000000000000000000000058389610a3d13e8f380ee2ba077a6f36f2a908340000000000000000000000002e45d737b1d3ca3c6fb4cb82193e0e3d7444e4bd00000000000000000000000000000000000000000000000000000068c61714000000000000000000000000000000000000000000000000000000000000000000000000000000000000000000000000000000000000000000000000e4293953b80000000000000000000000006efb11ac41b6657c32dac5ed4874082c700bba290000000000000000000000000000000000000000000000000000000000000000000000000000000000000000339ae32f85f4a43b8dc0b685dc2d39179653ca01000000000000000000000000e3f98fda6dbd38c1017754f1675dce377381c23c00000000000000000000000058389610a3d13e8f380ee2ba077a6f36f2a908340000000000000000000000000000000000000000000000000000000000000000000000000000000000000000000000000000000000000000000000003b9aca0000000000000000000000000000000000000000000000000000000000",
        "nonce": "0x137",
        "chainId": "0x279f"
      },
      "additionalContracts": [],
      "isFixedGasLimit": false
    }
  ],
  "receipts": [
    {
      "status": "0x1",
      "cumulativeGasUsed": "0x80cc35",
      "logs": [
        {
          "address": "0x2c53ce7143d24a65410107f50e4aabad9a164480",
          "topics": [
            "0xddf252ad1be2c89b69c2b068fc378daa952ba7f163c4a11628f55a4df523b3ef",
            "0x0000000000000000000000000000000000000000000000000000000000000000",
            "0x0000000000000000000000006efb11ac41b6657c32dac5ed4874082c700bba29"
          ],
          "data": "0x00000000000000000000000000000000000000000000021e19e0c9bab2400000",
          "blockHash": "0xdf21a16ffe34bbff65a197c3628f2bc7b04bd178677208e3b528fbd10632e4a4",
          "blockNumber": "0x727b33",
          "blockTimestamp": "0x67d21165",
          "transactionHash": "0x51110f6cfe33a618800a87ff7f1125504dd52d23ca6e479fe5ebd92e6a8d8275",
          "transactionIndex": "0x30",
          "logIndex": "0x66",
          "removed": false
        }
      ],
      "logsBloom": "0x00000000000000000200000000000000000000000000000000000000000000000000000000000000000000000000000000001000000100000000000000000000000000000000000000000008000000000000000000000000000000000000000000000000020000000000000000000800000000000000000000000010000000000000000000000000000000000000000000000000000000000000000000000000000000000000000000000000000000000000000000000000000001000000000000000002000000000000000000000000000000010000000000000000000020000000001000000000000000000000000000000000000000000000000000000000",
      "type": "0x0",
      "transactionHash": "0x51110f6cfe33a618800a87ff7f1125504dd52d23ca6e479fe5ebd92e6a8d8275",
      "transactionIndex": "0x30",
      "blockHash": "0xdf21a16ffe34bbff65a197c3628f2bc7b04bd178677208e3b528fbd10632e4a4",
      "blockNumber": "0x727b33",
      "gasUsed": "0xc1c9",
      "effectiveGasPrice": "0xc1b710800",
      "from": "0x6efb11ac41b6657c32dac5ed4874082c700bba29",
      "to": "0x2c53ce7143d24a65410107f50e4aabad9a164480",
      "contractAddress": null
    },
    {
      "status": "0x1",
      "cumulativeGasUsed": "0xa12c3a",
      "logs": [
        {
          "address": "0x53f7c389cbb801e2abfd301ded6d2a1cf330ac0d",
          "topics": [
            "0xddf252ad1be2c89b69c2b068fc378daa952ba7f163c4a11628f55a4df523b3ef",
            "0x0000000000000000000000000000000000000000000000000000000000000000",
            "0x0000000000000000000000006efb11ac41b6657c32dac5ed4874082c700bba29"
          ],
          "data": "0x00000000000000000000000000000000000000000000021e19e0c9bab2400000",
          "blockHash": "0x62c98472ed797f059d5af5335fc1b9a69cbb5dcd4dec1a0df2c6b5914f3f5e31",
          "blockNumber": "0x727b34",
          "blockTimestamp": "0x67d21166",
          "transactionHash": "0x22ab6ef0f540eeaed24fe7d3f47abdc44af20ba7d5cea0468cdf71db38b76721",
          "transactionIndex": "0x30",
          "logIndex": "0x91",
          "removed": false
        }
      ],
      "logsBloom": "0x00000000000000000200000002000000000000000000000000000000000000000000000000000000000000000000000000000000000100000000000000000000000000000000000000000008000000000000000000000000000000000000000000000000020000000000000000000800000000000000000000000010000000000000000000000000000000000000000000000000000000000000000000000000000000000010000000000000000000000000000000000000000001000000000000000002000000000000000000000000000000000000000000000000000020000000000000000000000000000000000000000000000000000008000000000000",
      "type": "0x0",
      "transactionHash": "0x22ab6ef0f540eeaed24fe7d3f47abdc44af20ba7d5cea0468cdf71db38b76721",
      "transactionIndex": "0x30",
      "blockHash": "0x62c98472ed797f059d5af5335fc1b9a69cbb5dcd4dec1a0df2c6b5914f3f5e31",
      "blockNumber": "0x727b34",
      "gasUsed": "0xc1c9",
      "effectiveGasPrice": "0xc1b710800",
      "from": "0x6efb11ac41b6657c32dac5ed4874082c700bba29",
      "to": "0x53f7c389cbb801e2abfd301ded6d2a1cf330ac0d",
      "contractAddress": null
    },
    {
      "status": "0x1",
      "cumulativeGasUsed": "0xa1ee03",
      "logs": [
        {
          "address": "0xf9861d7478f8957679b26404bd6272c39f949c29",
          "topics": [
            "0xddf252ad1be2c89b69c2b068fc378daa952ba7f163c4a11628f55a4df523b3ef",
            "0x0000000000000000000000000000000000000000000000000000000000000000",
            "0x0000000000000000000000006efb11ac41b6657c32dac5ed4874082c700bba29"
          ],
          "data": "0x000000000000000000000000000000000000000000084595161401484a000000",
          "blockHash": "0x62c98472ed797f059d5af5335fc1b9a69cbb5dcd4dec1a0df2c6b5914f3f5e31",
          "blockNumber": "0x727b34",
          "blockTimestamp": "0x67d21166",
          "transactionHash": "0xa6cd8267f7b886dcb3dd7cedab3ba125e9c0015362993a067f891df4b652b06a",
          "transactionIndex": "0x31",
          "logIndex": "0x92",
          "removed": false
        }
      ],
      "logsBloom": "0x00000000000000000200000000000000000000000000000000000000000000000000000000000000000000000000000000000000000100000000000000000000000000000000000000000008000000000000000000000000000000000000000000000000060000000000000000000800000000000000000000000010000000000000000000000000000000000000000000000000000000000000000000000000000000000000000000040000000000000000000000000000000001000000000000000002080000000000000000000000000000000000000000000000000020000000000000000000000000000000000000000000000000000000000000000000",
      "type": "0x0",
      "transactionHash": "0xa6cd8267f7b886dcb3dd7cedab3ba125e9c0015362993a067f891df4b652b06a",
      "transactionIndex": "0x31",
      "blockHash": "0x62c98472ed797f059d5af5335fc1b9a69cbb5dcd4dec1a0df2c6b5914f3f5e31",
      "blockNumber": "0x727b34",
      "gasUsed": "0xc1c9",
      "effectiveGasPrice": "0xc1b710800",
      "from": "0x6efb11ac41b6657c32dac5ed4874082c700bba29",
      "to": "0xf9861d7478f8957679b26404bd6272c39f949c29",
      "contractAddress": null
    },
    {
      "status": "0x1",
      "cumulativeGasUsed": "0xa4ce4c",
      "logs": [
        {
          "address": "0x1889cfb8746716a0ac50e59a54f190987c5f04e6",
          "topics": [
            "0xddf252ad1be2c89b69c2b068fc378daa952ba7f163c4a11628f55a4df523b3ef",
            "0x0000000000000000000000000000000000000000000000000000000000000000",
            "0x0000000000000000000000006efb11ac41b6657c32dac5ed4874082c700bba29"
          ],
          "data": "0x00000000000000000000000000000000000000000000000000005af3107a4000",
          "blockHash": "0x62c98472ed797f059d5af5335fc1b9a69cbb5dcd4dec1a0df2c6b5914f3f5e31",
          "blockNumber": "0x727b34",
          "blockTimestamp": "0x67d21166",
          "transactionHash": "0x47ce85b8bb5aea9b6a7470f3feffaa35025dcb07d9a5cfdc7e0c4dbd081e1260",
          "transactionIndex": "0x35",
          "logIndex": "0x96",
          "removed": false
        }
      ],
      "logsBloom": "0x00000000000000000200000000000000000000000000000000000000000000000000000000000000000000000000000000000000000100000000000000000000000000000000000000000008000000000000000000000000000400000000000000000000020000000000000000000800000000000000000000000010000000000000000000000000000000000000000000000000000000000000000000000000000000000000100000000000000000000000000000000000000001000000000000000002000000000000000000000000000000000000000000000000000020000000000080000000000000000000000000000000000000000000000000000000",
      "type": "0x0",
      "transactionHash": "0x47ce85b8bb5aea9b6a7470f3feffaa35025dcb07d9a5cfdc7e0c4dbd081e1260",
      "transactionIndex": "0x35",
      "blockHash": "0x62c98472ed797f059d5af5335fc1b9a69cbb5dcd4dec1a0df2c6b5914f3f5e31",
      "blockNumber": "0x727b34",
      "gasUsed": "0xb6d2",
      "effectiveGasPrice": "0xc1b710800",
      "from": "0x6efb11ac41b6657c32dac5ed4874082c700bba29",
      "to": "0x1889cfb8746716a0ac50e59a54f190987c5f04e6",
      "contractAddress": null
    },
    {
      "status": "0x1",
      "cumulativeGasUsed": "0xa59015",
      "logs": [
        {
          "address": "0x6bc8a42d4b2f4bc8e4c3f9ecff00b7290ffa7405",
          "topics": [
            "0xddf252ad1be2c89b69c2b068fc378daa952ba7f163c4a11628f55a4df523b3ef",
            "0x0000000000000000000000000000000000000000000000000000000000000000",
            "0x0000000000000000000000006efb11ac41b6657c32dac5ed4874082c700bba29"
          ],
          "data": "0x00000000000000000000000000000000000000000000152d02c7e14af6800000",
          "blockHash": "0x62c98472ed797f059d5af5335fc1b9a69cbb5dcd4dec1a0df2c6b5914f3f5e31",
          "blockNumber": "0x727b34",
          "blockTimestamp": "0x67d21166",
          "transactionHash": "0x6f51f5e4935f6d560e888a0872eb79148e5c0a90a0207baaf61da49bc37dc557",
          "transactionIndex": "0x36",
          "logIndex": "0x97",
          "removed": false
        }
      ],
      "logsBloom": "0x00000000000000000200000000000000000000000000000000000000000000000000000000000000000000000000000000002000000100000400000000000000000000000000000000000008000000000000000000000000000000000000000000000000020000000000000000000800000000000000000000000010000000000000000000000000000000000000000000000000000000000000000000000000000000000200000000000000000000000000000000000000000001000000000000000002000000000000000000000000000000000000000000000000000020000000000000000000000000000000000000000000000000000000000000000000",
      "type": "0x0",
      "transactionHash": "0x6f51f5e4935f6d560e888a0872eb79148e5c0a90a0207baaf61da49bc37dc557",
      "transactionIndex": "0x36",
      "blockHash": "0x62c98472ed797f059d5af5335fc1b9a69cbb5dcd4dec1a0df2c6b5914f3f5e31",
      "blockNumber": "0x727b34",
      "gasUsed": "0xc1c9",
      "effectiveGasPrice": "0xc1b710800",
      "from": "0x6efb11ac41b6657c32dac5ed4874082c700bba29",
      "to": "0x6bc8a42d4b2f4bc8e4c3f9ecff00b7290ffa7405",
      "contractAddress": null
    },
    {
      "status": "0x1",
      "cumulativeGasUsed": "0xafdd8f",
      "logs": [
        {
          "address": "0xe3f98fda6dbd38c1017754f1675dce377381c23c",
          "topics": [
            "0xddf252ad1be2c89b69c2b068fc378daa952ba7f163c4a11628f55a4df523b3ef",
            "0x0000000000000000000000000000000000000000000000000000000000000000",
            "0x0000000000000000000000006efb11ac41b6657c32dac5ed4874082c700bba29"
          ],
          "data": "0x00000000000000000000000000000000000000000000021e19e0c9bab2400000",
          "blockHash": "0xd3b6e8af4e4ad6f567146dd23c5e0d28913ee1550dda165cc5e29e18fdee1f07",
          "blockNumber": "0x727b35",
          "blockTimestamp": "0x67d21166",
          "transactionHash": "0x33fd25d147020dbe0556b9f999a9fcad06658876504da59e2220d3d58a12f045",
          "transactionIndex": "0x2f",
          "logIndex": "0x92",
          "removed": false
        }
      ],
      "logsBloom": "0x00000000000000002200000000000000000000000000000000000000000000000000000000000000000000000000000000000000000100000000000000000000000000000000000000000008000000000000000000000000000000000000000000000000020000000000000000000800000000000000000000000010000000000000000000000000000000000000000000000000000000000020000000000000000000000000000000000000000020000000000000000000000001000000000000000002000000000000000000000000000000000000000000000000000020000000000000000000000000000000000000000000000000000000000000000000",
      "type": "0x0",
      "transactionHash": "0x33fd25d147020dbe0556b9f999a9fcad06658876504da59e2220d3d58a12f045",
      "transactionIndex": "0x2f",
      "blockHash": "0xd3b6e8af4e4ad6f567146dd23c5e0d28913ee1550dda165cc5e29e18fdee1f07",
      "blockNumber": "0x727b35",
      "gasUsed": "0xc1c9",
      "effectiveGasPrice": "0xc1b710800",
      "from": "0x6efb11ac41b6657c32dac5ed4874082c700bba29",
      "to": "0xe3f98fda6dbd38c1017754f1675dce377381c23c",
      "contractAddress": null
    },
    {
      "status": "0x1",
      "cumulativeGasUsed": "0xb09f12",
      "logs": [
        {
          "address": "0x58389610a3d13e8f380ee2ba077a6f36f2a90834",
          "topics": [
            "0xddf252ad1be2c89b69c2b068fc378daa952ba7f163c4a11628f55a4df523b3ef",
            "0x0000000000000000000000000000000000000000000000000000000000000000",
            "0x0000000000000000000000006efb11ac41b6657c32dac5ed4874082c700bba29"
          ],
          "data": "0x000000000000000000000000000000000000000000000000000000e8d4a51000",
          "blockHash": "0xd3b6e8af4e4ad6f567146dd23c5e0d28913ee1550dda165cc5e29e18fdee1f07",
          "blockNumber": "0x727b35",
          "blockTimestamp": "0x67d21166",
          "transactionHash": "0x076128aea537c56828bf0ada4dc581095c71baeb3a44b297bf19c024a4d909be",
          "transactionIndex": "0x30",
          "logIndex": "0x93",
          "removed": false
        }
      ],
      "logsBloom": "0x00000000000000000200000000000000000000000000000000000000000000000000000000000000000000000000000000000000000100000000000000000000000000000000000000000008000000000000000000000400001000000000000000000000020000000000000000000800000000000000000000000010000000000000000000000000000000000000000000000000000000000000000000000000000000000000000000000000000000040000000000000000000001000000000000000002000000000000000000000000000000000000000000000000000020000000000000000000000000000000000000000000000000000000000000000000",
      "type": "0x0",
      "transactionHash": "0x076128aea537c56828bf0ada4dc581095c71baeb3a44b297bf19c024a4d909be",
      "transactionIndex": "0x30",
      "blockHash": "0xd3b6e8af4e4ad6f567146dd23c5e0d28913ee1550dda165cc5e29e18fdee1f07",
      "blockNumber": "0x727b35",
      "gasUsed": "0xc183",
      "effectiveGasPrice": "0xc1b710800",
      "from": "0x6efb11ac41b6657c32dac5ed4874082c700bba29",
      "to": "0x58389610a3d13e8f380ee2ba077a6f36f2a90834",
      "contractAddress": null
    },
    {
      "status": "0x1",
      "cumulativeGasUsed": "0xb198b6",
      "logs": [
        {
          "address": "0x2c53ce7143d24a65410107f50e4aabad9a164480",
          "topics": [
            "0x8c5be1e5ebec7d5bd14f71427d1e84f3dd0314c0f7b2291e5b200ac8c7c3b925",
            "0x0000000000000000000000006efb11ac41b6657c32dac5ed4874082c700bba29",
            "0x0000000000000000000000002e505c38656ae7e6b1134f48b0daf6f725a6eaeb"
          ],
          "data": "0xffffffffffffffffffffffffffffffffffffffffffffffffffffffffffffffff",
          "blockHash": "0xd3b6e8af4e4ad6f567146dd23c5e0d28913ee1550dda165cc5e29e18fdee1f07",
          "blockNumber": "0x727b35",
          "blockTimestamp": "0x67d21166",
          "transactionHash": "0x3657b87b6ade016ee6d17ed69bc8807a22962cb006bd4e2259c6e130a61c7f9c",
          "transactionIndex": "0x31",
          "logIndex": "0x94",
          "removed": false
        }
      ],
      "logsBloom": "0x00000000000000000200000000000000000000000000000000000000000000000000000000000000000000000000000000001000000100000000000000200000000000000000000000000000000000000000000000000000000000000000000000000000000000000000000080000000000000000000010000000010000000000000000000000000000000000000000000000000000000000000000000000000020000000000000000000000000000000000000000000000000001000000000000000000000000000000000000000000000000010000000000000000000000000010001000000000000000000000000000000000000000000000000000000000",
      "type": "0x0",
      "transactionHash": "0x3657b87b6ade016ee6d17ed69bc8807a22962cb006bd4e2259c6e130a61c7f9c",
      "transactionIndex": "0x31",
      "blockHash": "0xd3b6e8af4e4ad6f567146dd23c5e0d28913ee1550dda165cc5e29e18fdee1f07",
      "blockNumber": "0x727b35",
      "gasUsed": "0xf9a4",
      "effectiveGasPrice": "0xc1b710800",
      "from": "0x6efb11ac41b6657c32dac5ed4874082c700bba29",
      "to": "0x2c53ce7143d24a65410107f50e4aabad9a164480",
      "contractAddress": null
    },
    {
      "status": "0x1",
      "cumulativeGasUsed": "0xb2925a",
      "logs": [
        {
          "address": "0x53f7c389cbb801e2abfd301ded6d2a1cf330ac0d",
          "topics": [
            "0x8c5be1e5ebec7d5bd14f71427d1e84f3dd0314c0f7b2291e5b200ac8c7c3b925",
            "0x0000000000000000000000006efb11ac41b6657c32dac5ed4874082c700bba29",
            "0x0000000000000000000000002e505c38656ae7e6b1134f48b0daf6f725a6eaeb"
          ],
          "data": "0xffffffffffffffffffffffffffffffffffffffffffffffffffffffffffffffff",
          "blockHash": "0xd3b6e8af4e4ad6f567146dd23c5e0d28913ee1550dda165cc5e29e18fdee1f07",
          "blockNumber": "0x727b35",
          "blockTimestamp": "0x67d21166",
          "transactionHash": "0x3bff910583da6450cac61f19ccbb5393bd17776ce6df2630badfd2481ff23dbd",
          "transactionIndex": "0x32",
          "logIndex": "0x95",
          "removed": false
        }
      ],
      "logsBloom": "0x00000000000000000200000002000000000000000000000000000000000000000000000000000000000000000000000000000000000100000000000000200000000000000000000000000000000000000000000000000000000000000000000000000000000000000000000080000000000000000000010000000010000000000000000000000000000000000000000000000000000000000000000000000000020000000010000000000000000000000000000000000000000001000000000000000000000000000000000000000000000000000000000000000000000000000010000000000000000000000000000000000000000000000008000000000000",
      "type": "0x0",
      "transactionHash": "0x3bff910583da6450cac61f19ccbb5393bd17776ce6df2630badfd2481ff23dbd",
      "transactionIndex": "0x32",
      "blockHash": "0xd3b6e8af4e4ad6f567146dd23c5e0d28913ee1550dda165cc5e29e18fdee1f07",
      "blockNumber": "0x727b35",
      "gasUsed": "0xf9a4",
      "effectiveGasPrice": "0xc1b710800",
      "from": "0x6efb11ac41b6657c32dac5ed4874082c700bba29",
      "to": "0x53f7c389cbb801e2abfd301ded6d2a1cf330ac0d",
      "contractAddress": null
    },
    {
      "status": "0x1",
      "cumulativeGasUsed": "0xb38bfe",
      "logs": [
        {
          "address": "0xf9861d7478f8957679b26404bd6272c39f949c29",
          "topics": [
            "0x8c5be1e5ebec7d5bd14f71427d1e84f3dd0314c0f7b2291e5b200ac8c7c3b925",
            "0x0000000000000000000000006efb11ac41b6657c32dac5ed4874082c700bba29",
            "0x0000000000000000000000002e505c38656ae7e6b1134f48b0daf6f725a6eaeb"
          ],
          "data": "0xffffffffffffffffffffffffffffffffffffffffffffffffffffffffffffffff",
          "blockHash": "0xd3b6e8af4e4ad6f567146dd23c5e0d28913ee1550dda165cc5e29e18fdee1f07",
          "blockNumber": "0x727b35",
          "blockTimestamp": "0x67d21166",
          "transactionHash": "0x82d5e02144ab29ea82174b8358417f173daaaa173b41c2ab3023c35b8b6e1b55",
          "transactionIndex": "0x33",
          "logIndex": "0x96",
          "removed": false
        }
      ],
      "logsBloom": "0x00000000000000000200000000000000000000000000000000000000000000000000000000000000000000000000000000000000000100000000000000200000000000000000000000000000000000000000000000000000000000000000000000000000040000000000000080000000000000000000010000000010000000000000000000000000000000000000000000000000000000000000000000000000020000000000000000040000000000000000000000000000000001000000000000000000080000000000000000000000000000000000000000000000000000000010000000000000000000000000000000000000000000000000000000000000",
      "type": "0x0",
      "transactionHash": "0x82d5e02144ab29ea82174b8358417f173daaaa173b41c2ab3023c35b8b6e1b55",
      "transactionIndex": "0x33",
      "blockHash": "0xd3b6e8af4e4ad6f567146dd23c5e0d28913ee1550dda165cc5e29e18fdee1f07",
      "blockNumber": "0x727b35",
      "gasUsed": "0xf9a4",
      "effectiveGasPrice": "0xc1b710800",
      "from": "0x6efb11ac41b6657c32dac5ed4874082c700bba29",
      "to": "0xf9861d7478f8957679b26404bd6272c39f949c29",
      "contractAddress": null
    },
    {
      "status": "0x1",
      "cumulativeGasUsed": "0xb485a2",
      "logs": [
        {
          "address": "0x1889cfb8746716a0ac50e59a54f190987c5f04e6",
          "topics": [
            "0x8c5be1e5ebec7d5bd14f71427d1e84f3dd0314c0f7b2291e5b200ac8c7c3b925",
            "0x0000000000000000000000006efb11ac41b6657c32dac5ed4874082c700bba29",
            "0x0000000000000000000000002e505c38656ae7e6b1134f48b0daf6f725a6eaeb"
          ],
          "data": "0xffffffffffffffffffffffffffffffffffffffffffffffffffffffffffffffff",
          "blockHash": "0xd3b6e8af4e4ad6f567146dd23c5e0d28913ee1550dda165cc5e29e18fdee1f07",
          "blockNumber": "0x727b35",
          "blockTimestamp": "0x67d21166",
          "transactionHash": "0xfd27a082f49b8b97b61177aefcea0e06c6e4034a32b0d862ba3b903f6e6cc10e",
          "transactionIndex": "0x34",
          "logIndex": "0x97",
          "removed": false
        }
      ],
      "logsBloom": "0x00000000000000000200000000000000000000000000000000000000000000000000000000000000000000000000000000000000000100000000000000200000000000000000000000000000000000000000000000000000000400000000000000000000000000000000000080000000000000000000010000000010000000000000000000000000000000000000000000000000000000000000000000000000020000000000100000000000000000000000000000000000000001000000000000000000000000000000000000000000000000000000000000000000000000000010000080000000000000000000000000000000000000000000000000000000",
      "type": "0x0",
      "transactionHash": "0xfd27a082f49b8b97b61177aefcea0e06c6e4034a32b0d862ba3b903f6e6cc10e",
      "transactionIndex": "0x34",
      "blockHash": "0xd3b6e8af4e4ad6f567146dd23c5e0d28913ee1550dda165cc5e29e18fdee1f07",
      "blockNumber": "0x727b35",
      "gasUsed": "0xf9a4",
      "effectiveGasPrice": "0xc1b710800",
      "from": "0x6efb11ac41b6657c32dac5ed4874082c700bba29",
      "to": "0x1889cfb8746716a0ac50e59a54f190987c5f04e6",
      "contractAddress": null
    },
    {
      "status": "0x1",
      "cumulativeGasUsed": "0xb57f46",
      "logs": [
        {
          "address": "0x6bc8a42d4b2f4bc8e4c3f9ecff00b7290ffa7405",
          "topics": [
            "0x8c5be1e5ebec7d5bd14f71427d1e84f3dd0314c0f7b2291e5b200ac8c7c3b925",
            "0x0000000000000000000000006efb11ac41b6657c32dac5ed4874082c700bba29",
            "0x0000000000000000000000002e505c38656ae7e6b1134f48b0daf6f725a6eaeb"
          ],
          "data": "0xffffffffffffffffffffffffffffffffffffffffffffffffffffffffffffffff",
          "blockHash": "0xd3b6e8af4e4ad6f567146dd23c5e0d28913ee1550dda165cc5e29e18fdee1f07",
          "blockNumber": "0x727b35",
          "blockTimestamp": "0x67d21166",
          "transactionHash": "0x5c2930cba90cd03ea74abc0365db53d7e93f1d9fe8609e451b8c9638c3624b59",
          "transactionIndex": "0x35",
          "logIndex": "0x98",
          "removed": false
        }
      ],
      "logsBloom": "0x00000000000000000200000000000000000000000000000000000000000000000000000000000000000000000000000000002000000100000400000000200000000000000000000000000000000000000000000000000000000000000000000000000000000000000000000080000000000000000000010000000010000000000000000000000000000000000000000000000000000000000000000000000000020000000200000000000000000000000000000000000000000001000000000000000000000000000000000000000000000000000000000000000000000000000010000000000000000000000000000000000000000000000000000000000000",
      "type": "0x0",
      "transactionHash": "0x5c2930cba90cd03ea74abc0365db53d7e93f1d9fe8609e451b8c9638c3624b59",
      "transactionIndex": "0x35",
      "blockHash": "0xd3b6e8af4e4ad6f567146dd23c5e0d28913ee1550dda165cc5e29e18fdee1f07",
      "blockNumber": "0x727b35",
      "gasUsed": "0xf9a4",
      "effectiveGasPrice": "0xc1b710800",
      "from": "0x6efb11ac41b6657c32dac5ed4874082c700bba29",
      "to": "0x6bc8a42d4b2f4bc8e4c3f9ecff00b7290ffa7405",
      "contractAddress": null
    },
    {
      "status": "0x1",
      "cumulativeGasUsed": "0x5d0314",
      "logs": [
        {
          "address": "0xe3f98fda6dbd38c1017754f1675dce377381c23c",
          "topics": [
            "0x8c5be1e5ebec7d5bd14f71427d1e84f3dd0314c0f7b2291e5b200ac8c7c3b925",
            "0x0000000000000000000000006efb11ac41b6657c32dac5ed4874082c700bba29",
            "0x0000000000000000000000002e505c38656ae7e6b1134f48b0daf6f725a6eaeb"
          ],
          "data": "0xffffffffffffffffffffffffffffffffffffffffffffffffffffffffffffffff",
          "blockHash": "0xfc3beae9f0ad35ce265777202e37d73afaacb88fe3be6437cb5d7c8352e3859f",
          "blockNumber": "0x727b36",
          "blockTimestamp": "0x67d21167",
          "transactionHash": "0x4c62f2104e08c5d3ce35e2aeb456dd1732af15e0e47f833ee1d0a052e0a4128a",
          "transactionIndex": "0x23",
          "logIndex": "0x52",
          "removed": false
        }
      ],
      "logsBloom": "0x00000000000000002200000000000000000000000000000000000000000000000000000000000000000000000000000000000000000100000000000000200000000000000000000000000000000000000000000000000000000000000000000000000000000000000000000080000000000000000000010000000010000000000000000000000000000000000000000000000000000000000020000000000000020000000000000000000000000020000000000000000000000001000000000000000000000000000000000000000000000000000000000000000000000000000010000000000000000000000000000000000000000000000000000000000000",
      "type": "0x0",
      "transactionHash": "0x4c62f2104e08c5d3ce35e2aeb456dd1732af15e0e47f833ee1d0a052e0a4128a",
      "transactionIndex": "0x23",
      "blockHash": "0xfc3beae9f0ad35ce265777202e37d73afaacb88fe3be6437cb5d7c8352e3859f",
      "blockNumber": "0x727b36",
      "gasUsed": "0xf9a4",
      "effectiveGasPrice": "0xc1b710800",
      "from": "0x6efb11ac41b6657c32dac5ed4874082c700bba29",
      "to": "0xe3f98fda6dbd38c1017754f1675dce377381c23c",
      "contractAddress": null
    },
    {
      "status": "0x1",
      "cumulativeGasUsed": "0x5dfcb8",
      "logs": [
        {
          "address": "0x58389610a3d13e8f380ee2ba077a6f36f2a90834",
          "topics": [
            "0x8c5be1e5ebec7d5bd14f71427d1e84f3dd0314c0f7b2291e5b200ac8c7c3b925",
            "0x0000000000000000000000006efb11ac41b6657c32dac5ed4874082c700bba29",
            "0x0000000000000000000000002e505c38656ae7e6b1134f48b0daf6f725a6eaeb"
          ],
          "data": "0xffffffffffffffffffffffffffffffffffffffffffffffffffffffffffffffff",
          "blockHash": "0xfc3beae9f0ad35ce265777202e37d73afaacb88fe3be6437cb5d7c8352e3859f",
          "blockNumber": "0x727b36",
          "blockTimestamp": "0x67d21167",
          "transactionHash": "0xf4efad2c981cff723a7f7ae7947dc5456e8964a7c04ae48f0dcfc75ada70b2a4",
          "transactionIndex": "0x24",
          "logIndex": "0x53",
          "removed": false
        }
      ],
      "logsBloom": "0x00000000000000000200000000000000000000000000000000000000000000000000000000000000000000000000000000000000000100000000000000200000000000000000000000000000000000000000000000000400001000000000000000000000000000000000000080000000000000000000010000000010000000000000000000000000000000000000000000000000000000000000000000000000020000000000000000000000000000040000000000000000000001000000000000000000000000000000000000000000000000000000000000000000000000000010000000000000000000000000000000000000000000000000000000000000",
      "type": "0x0",
      "transactionHash": "0xf4efad2c981cff723a7f7ae7947dc5456e8964a7c04ae48f0dcfc75ada70b2a4",
      "transactionIndex": "0x24",
      "blockHash": "0xfc3beae9f0ad35ce265777202e37d73afaacb88fe3be6437cb5d7c8352e3859f",
      "blockNumber": "0x727b36",
      "gasUsed": "0xf9a4",
      "effectiveGasPrice": "0xc1b710800",
      "from": "0x6efb11ac41b6657c32dac5ed4874082c700bba29",
      "to": "0x58389610a3d13e8f380ee2ba077a6f36f2a90834",
      "contractAddress": null
    },
    {
      "status": "0x1",
      "cumulativeGasUsed": "0x66ce81",
      "logs": [
        {
          "address": "0x2c53ce7143d24a65410107f50e4aabad9a164480",
          "topics": [
            "0xddf252ad1be2c89b69c2b068fc378daa952ba7f163c4a11628f55a4df523b3ef",
            "0x0000000000000000000000006efb11ac41b6657c32dac5ed4874082c700bba29",
            "0x0000000000000000000000002e45d737b1d3ca3c6fb4cb82193e0e3d7444e4bd"
          ],
          "data": "0x000000000000000000000000000000000000000000000000000000003b9aca00",
          "blockHash": "0xfc3beae9f0ad35ce265777202e37d73afaacb88fe3be6437cb5d7c8352e3859f",
          "blockNumber": "0x727b36",
          "blockTimestamp": "0x67d21167",
          "transactionHash": "0x25182a6bbc5080f3f92c49420706793f24a24089cdc604f5c7e0f506cfb714bb",
          "transactionIndex": "0x25",
          "logIndex": "0x54",
          "removed": false
        },
        {
          "address": "0x2c53ce7143d24a65410107f50e4aabad9a164480",
          "topics": [
            "0xddf252ad1be2c89b69c2b068fc378daa952ba7f163c4a11628f55a4df523b3ef",
            "0x0000000000000000000000006efb11ac41b6657c32dac5ed4874082c700bba29",
            "0x0000000000000000000000002e45d737b1d3ca3c6fb4cb82193e0e3d7444e4bd"
          ],
          "data": "0x0000000000000000000000000000000000000000000000056bc75e2d63100000",
          "blockHash": "0xfc3beae9f0ad35ce265777202e37d73afaacb88fe3be6437cb5d7c8352e3859f",
          "blockNumber": "0x727b36",
          "blockTimestamp": "0x67d21167",
          "transactionHash": "0x25182a6bbc5080f3f92c49420706793f24a24089cdc604f5c7e0f506cfb714bb",
          "transactionIndex": "0x25",
          "logIndex": "0x55",
          "removed": false
        },
        {
          "address": "0x58389610a3d13e8f380ee2ba077a6f36f2a90834",
          "topics": [
            "0xddf252ad1be2c89b69c2b068fc378daa952ba7f163c4a11628f55a4df523b3ef",
            "0x0000000000000000000000006efb11ac41b6657c32dac5ed4874082c700bba29",
            "0x0000000000000000000000002e45d737b1d3ca3c6fb4cb82193e0e3d7444e4bd"
          ],
          "data": "0x0000000000000000000000000000000000000000000000000000008bb2c97000",
          "blockHash": "0xfc3beae9f0ad35ce265777202e37d73afaacb88fe3be6437cb5d7c8352e3859f",
          "blockNumber": "0x727b36",
          "blockTimestamp": "0x67d21167",
          "transactionHash": "0x25182a6bbc5080f3f92c49420706793f24a24089cdc604f5c7e0f506cfb714bb",
          "transactionIndex": "0x25",
          "logIndex": "0x56",
          "removed": false
        },
        {
          "address": "0xf573e0745c3fa02b4a6739446c34c16de49fed52",
          "topics": [
            "0xd3d640118416a526ad33075973727e1675055b2b31a8351bc74271d75fccef9b"
          ],
          "data": "0x00000000000000000000000000000000000000000000000000000000000000000000000000000000000000006efb11ac41b6657c32dac5ed4874082c700bba290000000000000000000000006efb11ac41b6657c32dac5ed4874082c700bba2900000000000000000000000000000000000000000000000000000000000000000000000000000000000000004c51d8a789b0029cf47c2366eebf6205a09d929b0000000000000000000000002c53ce7143d24a65410107f50e4aabad9a16448000000000000000000000000058389610a3d13e8f380ee2ba077a6f36f2a90834000000000000000000000000000000000000000000000000000000003b9aca000000000000000000000000000000000000000000000000056bc75e2d631000000000000000000000000000000000000000000000000000000000008bb2c97000",
          "blockHash": "0xfc3beae9f0ad35ce265777202e37d73afaacb88fe3be6437cb5d7c8352e3859f",
          "blockNumber": "0x727b36",
          "blockTimestamp": "0x67d21167",
          "transactionHash": "0x25182a6bbc5080f3f92c49420706793f24a24089cdc604f5c7e0f506cfb714bb",
          "transactionIndex": "0x25",
          "logIndex": "0x57",
          "removed": false
        }
      ],
      "logsBloom": "0x00000000000000000200000000000000000000000000000000000000040000000000000000100000000000000000000000001000000100000000000000000000000000000000000000000008000000000000000000000400001000000000108000000000000000000000000200000000000000000000000000000010200000000000000000000000000000000000000000000000000000000008000000000000000000000000000000000000000000040000000000000000000001000000000000000002000080000000000000000000000000010000000000000000000000000000001000000000000000000000000000000000000000000000000000800000",
      "type": "0x0",
      "transactionHash": "0x25182a6bbc5080f3f92c49420706793f24a24089cdc604f5c7e0f506cfb714bb",
      "transactionIndex": "0x25",
      "blockHash": "0xfc3beae9f0ad35ce265777202e37d73afaacb88fe3be6437cb5d7c8352e3859f",
      "blockNumber": "0x727b36",
      "gasUsed": "0x8d1c9",
      "effectiveGasPrice": "0xc1b710800",
      "from": "0x6efb11ac41b6657c32dac5ed4874082c700bba29",
      "to": "0x2e505c38656ae7e6b1134f48b0daf6f725a6eaeb",
      "contractAddress": null
    },
    {
      "status": "0x1",
      "cumulativeGasUsed": "0xf9915b",
      "logs": [
        {
          "address": "0x2c53ce7143d24a65410107f50e4aabad9a164480",
          "topics": [
            "0xddf252ad1be2c89b69c2b068fc378daa952ba7f163c4a11628f55a4df523b3ef",
            "0x0000000000000000000000006efb11ac41b6657c32dac5ed4874082c700bba29",
            "0x0000000000000000000000002e45d737b1d3ca3c6fb4cb82193e0e3d7444e4bd"
          ],
          "data": "0x000000000000000000000000000000000000000000000000000000003b9aca00",
          "blockHash": "0x325d6e1ce2956f6a11f5f5a9e3021973adf571704ae61d1da16813198309041f",
          "blockNumber": "0x727b3b",
          "blockTimestamp": "0x67d2116e",
          "transactionHash": "0x542068905461e4b8871527d8693ba8f06fa2a15f1c5654fef582702c4677571f",
          "transactionIndex": "0x64",
          "logIndex": "0x9c",
          "removed": false
        },
        {
          "address": "0x53f7c389cbb801e2abfd301ded6d2a1cf330ac0d",
          "topics": [
            "0xddf252ad1be2c89b69c2b068fc378daa952ba7f163c4a11628f55a4df523b3ef",
            "0x0000000000000000000000006efb11ac41b6657c32dac5ed4874082c700bba29",
            "0x0000000000000000000000002e45d737b1d3ca3c6fb4cb82193e0e3d7444e4bd"
          ],
          "data": "0x000000000000000000000000000000000000000000000002b5e3af16b1880000",
          "blockHash": "0x325d6e1ce2956f6a11f5f5a9e3021973adf571704ae61d1da16813198309041f",
          "blockNumber": "0x727b3b",
          "blockTimestamp": "0x67d2116e",
          "transactionHash": "0x542068905461e4b8871527d8693ba8f06fa2a15f1c5654fef582702c4677571f",
          "transactionIndex": "0x64",
          "logIndex": "0x9d",
          "removed": false
        },
        {
          "address": "0x58389610a3d13e8f380ee2ba077a6f36f2a90834",
          "topics": [
            "0xddf252ad1be2c89b69c2b068fc378daa952ba7f163c4a11628f55a4df523b3ef",
            "0x0000000000000000000000006efb11ac41b6657c32dac5ed4874082c700bba29",
            "0x0000000000000000000000002e45d737b1d3ca3c6fb4cb82193e0e3d7444e4bd"
          ],
          "data": "0x000000000000000000000000000000000000000000000000000005bad5431800",
          "blockHash": "0x325d6e1ce2956f6a11f5f5a9e3021973adf571704ae61d1da16813198309041f",
          "blockNumber": "0x727b3b",
          "blockTimestamp": "0x67d2116e",
          "transactionHash": "0x542068905461e4b8871527d8693ba8f06fa2a15f1c5654fef582702c4677571f",
          "transactionIndex": "0x64",
          "logIndex": "0x9e",
          "removed": false
        },
        {
          "address": "0xf573e0745c3fa02b4a6739446c34c16de49fed52",
          "topics": [
            "0xd3d640118416a526ad33075973727e1675055b2b31a8351bc74271d75fccef9b"
          ],
          "data": "0x00000000000000000000000000000000000000000000000000000000000000010000000000000000000000006efb11ac41b6657c32dac5ed4874082c700bba290000000000000000000000006efb11ac41b6657c32dac5ed4874082c700bba290000000000000000000000000000000000000000000000000000000000000000000000000000000000000000b0a7f91a1c917a3bff73f2e3829032c64e13595100000000000000000000000053f7c389cbb801e2abfd301ded6d2a1cf330ac0d00000000000000000000000058389610a3d13e8f380ee2ba077a6f36f2a90834000000000000000000000000000000000000000000000000000000003b9aca00000000000000000000000000000000000000000000000002b5e3af16b1880000000000000000000000000000000000000000000000000000000005bad5431800",
          "blockHash": "0x325d6e1ce2956f6a11f5f5a9e3021973adf571704ae61d1da16813198309041f",
          "blockNumber": "0x727b3b",
          "blockTimestamp": "0x67d2116e",
          "transactionHash": "0x542068905461e4b8871527d8693ba8f06fa2a15f1c5654fef582702c4677571f",
          "transactionIndex": "0x64",
          "logIndex": "0x9f",
          "removed": false
        }
      ],
      "logsBloom": "0x00000000000000000200000002000000000000000000000000000000040000000000000000100000000000000000000000001000000100000000000000000000000000000000000000000008000000000000000000000400001000000000108000000000000000000000000200000000000000000000000000000010200000000000000000000000000000000000000000000000000000000008000000000000000000000010000000000000000000040000000000000000000001000000000000000002000080000000000000000000000000010000000000000000000000000000001000000000000000000000000000000000000000000008000000800000",
      "type": "0x0",
      "transactionHash": "0x542068905461e4b8871527d8693ba8f06fa2a15f1c5654fef582702c4677571f",
      "transactionIndex": "0x64",
      "blockHash": "0x325d6e1ce2956f6a11f5f5a9e3021973adf571704ae61d1da16813198309041f",
      "blockNumber": "0x727b3b",
      "gasUsed": "0x7b0f8",
      "effectiveGasPrice": "0xc1b710800",
      "from": "0x6efb11ac41b6657c32dac5ed4874082c700bba29",
      "to": "0x2e505c38656ae7e6b1134f48b0daf6f725a6eaeb",
      "contractAddress": null
    },
    {
      "status": "0x1",
      "cumulativeGasUsed": "0x1c02aa",
      "logs": [
        {
          "address": "0x2c53ce7143d24a65410107f50e4aabad9a164480",
          "topics": [
            "0xddf252ad1be2c89b69c2b068fc378daa952ba7f163c4a11628f55a4df523b3ef",
            "0x0000000000000000000000006efb11ac41b6657c32dac5ed4874082c700bba29",
            "0x0000000000000000000000002e45d737b1d3ca3c6fb4cb82193e0e3d7444e4bd"
          ],
          "data": "0x000000000000000000000000000000000000000000000000000000003b9aca00",
          "blockHash": "0x33799b0fc4496196b76de405359c643d42a5c8dd42287e2c9e9062b3937078d1",
          "blockNumber": "0x727b3e",
          "blockTimestamp": "0x67d2116f",
          "transactionHash": "0xa208fc71640049bcb9aa64deb53bdda1c08a13688cd5d1f5711fb9518c9a85d6",
          "transactionIndex": "0xf",
          "logIndex": "0xf",
          "removed": false
        },
        {
          "address": "0xf9861d7478f8957679b26404bd6272c39f949c29",
          "topics": [
            "0xddf252ad1be2c89b69c2b068fc378daa952ba7f163c4a11628f55a4df523b3ef",
            "0x0000000000000000000000006efb11ac41b6657c32dac5ed4874082c700bba29",
            "0x0000000000000000000000002e45d737b1d3ca3c6fb4cb82193e0e3d7444e4bd"
          ],
          "data": "0x000000000000000000000000000000000000000000295be96e64066972000000",
          "blockHash": "0x33799b0fc4496196b76de405359c643d42a5c8dd42287e2c9e9062b3937078d1",
          "blockNumber": "0x727b3e",
          "blockTimestamp": "0x67d2116f",
          "transactionHash": "0xa208fc71640049bcb9aa64deb53bdda1c08a13688cd5d1f5711fb9518c9a85d6",
          "transactionIndex": "0xf",
          "logIndex": "0x10",
          "removed": false
        },
        {
          "address": "0x58389610a3d13e8f380ee2ba077a6f36f2a90834",
          "topics": [
            "0xddf252ad1be2c89b69c2b068fc378daa952ba7f163c4a11628f55a4df523b3ef",
            "0x0000000000000000000000006efb11ac41b6657c32dac5ed4874082c700bba29",
            "0x0000000000000000000000002e45d737b1d3ca3c6fb4cb82193e0e3d7444e4bd"
          ],
          "data": "0x000000000000000000000000000000000000000000000000000000037e11d600",
          "blockHash": "0x33799b0fc4496196b76de405359c643d42a5c8dd42287e2c9e9062b3937078d1",
          "blockNumber": "0x727b3e",
          "blockTimestamp": "0x67d2116f",
          "transactionHash": "0xa208fc71640049bcb9aa64deb53bdda1c08a13688cd5d1f5711fb9518c9a85d6",
          "transactionIndex": "0xf",
          "logIndex": "0x11",
          "removed": false
        },
        {
          "address": "0xf573e0745c3fa02b4a6739446c34c16de49fed52",
          "topics": [
            "0xd3d640118416a526ad33075973727e1675055b2b31a8351bc74271d75fccef9b"
          ],
          "data": "0x00000000000000000000000000000000000000000000000000000000000000020000000000000000000000006efb11ac41b6657c32dac5ed4874082c700bba290000000000000000000000006efb11ac41b6657c32dac5ed4874082c700bba2900000000000000000000000000000000000000000000000000000000000000000000000000000000000000001664f516fbe65dd0089152c93f724b8810881fdc000000000000000000000000f9861d7478f8957679b26404bd6272c39f949c2900000000000000000000000058389610a3d13e8f380ee2ba077a6f36f2a90834000000000000000000000000000000000000000000000000000000003b9aca00000000000000000000000000000000000000000000295be96e64066972000000000000000000000000000000000000000000000000000000000000037e11d600",
          "blockHash": "0x33799b0fc4496196b76de405359c643d42a5c8dd42287e2c9e9062b3937078d1",
          "blockNumber": "0x727b3e",
          "blockTimestamp": "0x67d2116f",
          "transactionHash": "0xa208fc71640049bcb9aa64deb53bdda1c08a13688cd5d1f5711fb9518c9a85d6",
          "transactionIndex": "0xf",
          "logIndex": "0x12",
          "removed": false
        }
      ],
      "logsBloom": "0x00000000000000000200000000000000000000000000000000000000040000000000000000100000000000000000000000001000000100000000000000000000000000000000000000000008000000000000000000000400001000000000108000000000040000000000000200000000000000000000000000000010200000000000000000000000000000000000000000000000000000000008000000000000000000000000000000040000000000040000000000000000000001000000000000000002080080000000000000000000000000010000000000000000000000000000001000000000000000000000000000000000000000000000000000800000",
      "type": "0x0",
      "transactionHash": "0xa208fc71640049bcb9aa64deb53bdda1c08a13688cd5d1f5711fb9518c9a85d6",
      "transactionIndex": "0xf",
      "blockHash": "0x33799b0fc4496196b76de405359c643d42a5c8dd42287e2c9e9062b3937078d1",
      "blockNumber": "0x727b3e",
      "gasUsed": "0x7b0f8",
      "effectiveGasPrice": "0xc1b710800",
      "from": "0x6efb11ac41b6657c32dac5ed4874082c700bba29",
      "to": "0x2e505c38656ae7e6b1134f48b0daf6f725a6eaeb",
      "contractAddress": null
    },
    {
      "status": "0x1",
      "cumulativeGasUsed": "0x20c8f4",
      "logs": [
        {
          "address": "0x2c53ce7143d24a65410107f50e4aabad9a164480",
          "topics": [
            "0xddf252ad1be2c89b69c2b068fc378daa952ba7f163c4a11628f55a4df523b3ef",
            "0x0000000000000000000000006efb11ac41b6657c32dac5ed4874082c700bba29",
            "0x0000000000000000000000002e45d737b1d3ca3c6fb4cb82193e0e3d7444e4bd"
          ],
          "data": "0x000000000000000000000000000000000000000000000000000000003b9aca00",
          "blockHash": "0x0ac259c25537052d8d034de1a99dcf502dc8bf24d5b66a074b4a206d84683f2b",
          "blockNumber": "0x727b41",
          "blockTimestamp": "0x67d21171",
          "transactionHash": "0x7d99e52d711d19e8315b7740ffa1f26efcc551cf032d23e0593d114d17978921",
          "transactionIndex": "0x14",
          "logIndex": "0x17",
          "removed": false
        },
        {
          "address": "0x1889cfb8746716a0ac50e59a54f190987c5f04e6",
          "topics": [
            "0xddf252ad1be2c89b69c2b068fc378daa952ba7f163c4a11628f55a4df523b3ef",
            "0x0000000000000000000000006efb11ac41b6657c32dac5ed4874082c700bba29",
            "0x0000000000000000000000002e45d737b1d3ca3c6fb4cb82193e0e3d7444e4bd"
          ],
          "data": "0x00000000000000000000000000000000000000000000000000005af3107a4000",
          "blockHash": "0x0ac259c25537052d8d034de1a99dcf502dc8bf24d5b66a074b4a206d84683f2b",
          "blockNumber": "0x727b41",
          "blockTimestamp": "0x67d21171",
          "transactionHash": "0x7d99e52d711d19e8315b7740ffa1f26efcc551cf032d23e0593d114d17978921",
          "transactionIndex": "0x14",
          "logIndex": "0x18",
          "removed": false
        },
        {
          "address": "0x58389610a3d13e8f380ee2ba077a6f36f2a90834",
          "topics": [
            "0xddf252ad1be2c89b69c2b068fc378daa952ba7f163c4a11628f55a4df523b3ef",
            "0x0000000000000000000000006efb11ac41b6657c32dac5ed4874082c700bba29",
            "0x0000000000000000000000002e45d737b1d3ca3c6fb4cb82193e0e3d7444e4bd"
          ],
          "data": "0x00000000000000000000000000000000000000000000000000000045d964b800",
          "blockHash": "0x0ac259c25537052d8d034de1a99dcf502dc8bf24d5b66a074b4a206d84683f2b",
          "blockNumber": "0x727b41",
          "blockTimestamp": "0x67d21171",
          "transactionHash": "0x7d99e52d711d19e8315b7740ffa1f26efcc551cf032d23e0593d114d17978921",
          "transactionIndex": "0x14",
          "logIndex": "0x19",
          "removed": false
        },
        {
          "address": "0xf573e0745c3fa02b4a6739446c34c16de49fed52",
          "topics": [
            "0xd3d640118416a526ad33075973727e1675055b2b31a8351bc74271d75fccef9b"
          ],
          "data": "0x00000000000000000000000000000000000000000000000000000000000000030000000000000000000000006efb11ac41b6657c32dac5ed4874082c700bba290000000000000000000000006efb11ac41b6657c32dac5ed4874082c700bba29000000000000000000000000000000000000000000000000000000000000000000000000000000000000000041b38fcc7eb3365393d5a2228d14d34c8f8418280000000000000000000000001889cfb8746716a0ac50e59a54f190987c5f04e600000000000000000000000058389610a3d13e8f380ee2ba077a6f36f2a90834000000000000000000000000000000000000000000000000000000003b9aca0000000000000000000000000000000000000000000000000000005af3107a400000000000000000000000000000000000000000000000000000000045d964b800",
          "blockHash": "0x0ac259c25537052d8d034de1a99dcf502dc8bf24d5b66a074b4a206d84683f2b",
          "blockNumber": "0x727b41",
          "blockTimestamp": "0x67d21171",
          "transactionHash": "0x7d99e52d711d19e8315b7740ffa1f26efcc551cf032d23e0593d114d17978921",
          "transactionIndex": "0x14",
          "logIndex": "0x1a",
          "removed": false
        }
      ],
      "logsBloom": "0x00000000000000000200000000000000000000000000000000000000040000000000000000100000000000000000000000001000000100000000000000000000000000000000000000000008000000000000000000000400001400000000108000000000000000000000000200000000000000000000000000000010200000000000000000000000000000000000000000000000000000000008000000000000000000000000100000000000000000040000000000000000000001000000000000000002000080000000000000000000000000010000000000000000000000000000001080000000000000000000000000000000000000000000000000800000",
      "type": "0x0",
      "transactionHash": "0x7d99e52d711d19e8315b7740ffa1f26efcc551cf032d23e0593d114d17978921",
      "transactionIndex": "0x14",
      "blockHash": "0x0ac259c25537052d8d034de1a99dcf502dc8bf24d5b66a074b4a206d84683f2b",
      "blockNumber": "0x727b41",
      "gasUsed": "0x7b0c6",
      "effectiveGasPrice": "0xc1b710800",
      "from": "0x6efb11ac41b6657c32dac5ed4874082c700bba29",
      "to": "0x2e505c38656ae7e6b1134f48b0daf6f725a6eaeb",
      "contractAddress": null
    },
    {
      "status": "0x1",
      "cumulativeGasUsed": "0x2879cb",
      "logs": [
        {
          "address": "0x2c53ce7143d24a65410107f50e4aabad9a164480",
          "topics": [
            "0xddf252ad1be2c89b69c2b068fc378daa952ba7f163c4a11628f55a4df523b3ef",
            "0x0000000000000000000000006efb11ac41b6657c32dac5ed4874082c700bba29",
            "0x0000000000000000000000002e45d737b1d3ca3c6fb4cb82193e0e3d7444e4bd"
          ],
          "data": "0x000000000000000000000000000000000000000000000000000000003b9aca00",
          "blockHash": "0x0ac259c25537052d8d034de1a99dcf502dc8bf24d5b66a074b4a206d84683f2b",
          "blockNumber": "0x727b41",
          "blockTimestamp": "0x67d21171",
          "transactionHash": "0x89c673a561b9aac7ca3b7d7970f8ba1588f6e7cd5d7a48621f49a43ad658da9a",
          "transactionIndex": "0x15",
          "logIndex": "0x1b",
          "removed": false
        },
        {
          "address": "0x6bc8a42d4b2f4bc8e4c3f9ecff00b7290ffa7405",
          "topics": [
            "0xddf252ad1be2c89b69c2b068fc378daa952ba7f163c4a11628f55a4df523b3ef",
            "0x0000000000000000000000006efb11ac41b6657c32dac5ed4874082c700bba29",
            "0x0000000000000000000000002e45d737b1d3ca3c6fb4cb82193e0e3d7444e4bd"
          ],
          "data": "0x0000000000000000000000000000000000000000000069e10de76676d0800000",
          "blockHash": "0x0ac259c25537052d8d034de1a99dcf502dc8bf24d5b66a074b4a206d84683f2b",
          "blockNumber": "0x727b41",
          "blockTimestamp": "0x67d21171",
          "transactionHash": "0x89c673a561b9aac7ca3b7d7970f8ba1588f6e7cd5d7a48621f49a43ad658da9a",
          "transactionIndex": "0x15",
          "logIndex": "0x1c",
          "removed": false
        },
        {
          "address": "0x58389610a3d13e8f380ee2ba077a6f36f2a90834",
          "topics": [
            "0xddf252ad1be2c89b69c2b068fc378daa952ba7f163c4a11628f55a4df523b3ef",
            "0x0000000000000000000000006efb11ac41b6657c32dac5ed4874082c700bba29",
            "0x0000000000000000000000002e45d737b1d3ca3c6fb4cb82193e0e3d7444e4bd"
          ],
          "data": "0x0000000000000000000000000000000000000000000000000000001176592e00",
          "blockHash": "0x0ac259c25537052d8d034de1a99dcf502dc8bf24d5b66a074b4a206d84683f2b",
          "blockNumber": "0x727b41",
          "blockTimestamp": "0x67d21171",
          "transactionHash": "0x89c673a561b9aac7ca3b7d7970f8ba1588f6e7cd5d7a48621f49a43ad658da9a",
          "transactionIndex": "0x15",
          "logIndex": "0x1d",
          "removed": false
        },
        {
          "address": "0xf573e0745c3fa02b4a6739446c34c16de49fed52",
          "topics": [
            "0xd3d640118416a526ad33075973727e1675055b2b31a8351bc74271d75fccef9b"
          ],
          "data": "0x00000000000000000000000000000000000000000000000000000000000000040000000000000000000000006efb11ac41b6657c32dac5ed4874082c700bba290000000000000000000000006efb11ac41b6657c32dac5ed4874082c700bba29000000000000000000000000000000000000000000000000000000000000000000000000000000000000000099bd3ff38f0dc9a819a0442f1d5ddbcd60072ece0000000000000000000000006bc8a42d4b2f4bc8e4c3f9ecff00b7290ffa740500000000000000000000000058389610a3d13e8f380ee2ba077a6f36f2a90834000000000000000000000000000000000000000000000000000000003b9aca000000000000000000000000000000000000000000000069e10de76676d08000000000000000000000000000000000000000000000000000000000001176592e00",
          "blockHash": "0x0ac259c25537052d8d034de1a99dcf502dc8bf24d5b66a074b4a206d84683f2b",
          "blockNumber": "0x727b41",
          "blockTimestamp": "0x67d21171",
          "transactionHash": "0x89c673a561b9aac7ca3b7d7970f8ba1588f6e7cd5d7a48621f49a43ad658da9a",
          "transactionIndex": "0x15",
          "logIndex": "0x1e",
          "removed": false
        }
      ],
      "logsBloom": "0x00000000000000000200000000000000000000000000000000000000040000000000000000100000000000000000000000003000000100000400000000000000000000000000000000000008000000000000000000000400001000000000108000000000000000000000000200000000000000000000000000000010200000000000000000000000000000000000000000000000000000000008000000000000000000000200000000000000000000040000000000000000000001000000000000000002000080000000000000000000000000010000000000000000000000000000001000000000000000000000000000000000000000000000000000800000",
      "type": "0x0",
      "transactionHash": "0x89c673a561b9aac7ca3b7d7970f8ba1588f6e7cd5d7a48621f49a43ad658da9a",
      "transactionIndex": "0x15",
      "blockHash": "0x0ac259c25537052d8d034de1a99dcf502dc8bf24d5b66a074b4a206d84683f2b",
      "blockNumber": "0x727b41",
      "gasUsed": "0x7b0d7",
      "effectiveGasPrice": "0xc1b710800",
      "from": "0x6efb11ac41b6657c32dac5ed4874082c700bba29",
      "to": "0x2e505c38656ae7e6b1134f48b0daf6f725a6eaeb",
      "contractAddress": null
    },
    {
      "status": "0x1",
      "cumulativeGasUsed": "0x302ac3",
      "logs": [
        {
          "address": "0x2c53ce7143d24a65410107f50e4aabad9a164480",
          "topics": [
            "0xddf252ad1be2c89b69c2b068fc378daa952ba7f163c4a11628f55a4df523b3ef",
            "0x0000000000000000000000006efb11ac41b6657c32dac5ed4874082c700bba29",
            "0x0000000000000000000000002e45d737b1d3ca3c6fb4cb82193e0e3d7444e4bd"
          ],
          "data": "0x000000000000000000000000000000000000000000000000000000003b9aca00",
          "blockHash": "0x0ac259c25537052d8d034de1a99dcf502dc8bf24d5b66a074b4a206d84683f2b",
          "blockNumber": "0x727b41",
          "blockTimestamp": "0x67d21171",
          "transactionHash": "0x512f8c6b8b81aff8c1e300c8af769c0673f8fffff745e9bc6d3fb0ba6dff3a43",
          "transactionIndex": "0x16",
          "logIndex": "0x1f",
          "removed": false
        },
        {
          "address": "0xe3f98fda6dbd38c1017754f1675dce377381c23c",
          "topics": [
            "0xddf252ad1be2c89b69c2b068fc378daa952ba7f163c4a11628f55a4df523b3ef",
            "0x0000000000000000000000006efb11ac41b6657c32dac5ed4874082c700bba29",
            "0x0000000000000000000000002e45d737b1d3ca3c6fb4cb82193e0e3d7444e4bd"
          ],
          "data": "0x00000000000000000000000000000000000000000000021e19e0c9bab2400000",
          "blockHash": "0x0ac259c25537052d8d034de1a99dcf502dc8bf24d5b66a074b4a206d84683f2b",
          "blockNumber": "0x727b41",
          "blockTimestamp": "0x67d21171",
          "transactionHash": "0x512f8c6b8b81aff8c1e300c8af769c0673f8fffff745e9bc6d3fb0ba6dff3a43",
          "transactionIndex": "0x16",
          "logIndex": "0x20",
          "removed": false
        },
        {
          "address": "0x58389610a3d13e8f380ee2ba077a6f36f2a90834",
          "topics": [
            "0xddf252ad1be2c89b69c2b068fc378daa952ba7f163c4a11628f55a4df523b3ef",
            "0x0000000000000000000000006efb11ac41b6657c32dac5ed4874082c700bba29",
            "0x0000000000000000000000002e45d737b1d3ca3c6fb4cb82193e0e3d7444e4bd"
          ],
          "data": "0x00000000000000000000000000000000000000000000000000000068c6171400",
          "blockHash": "0x0ac259c25537052d8d034de1a99dcf502dc8bf24d5b66a074b4a206d84683f2b",
          "blockNumber": "0x727b41",
          "blockTimestamp": "0x67d21171",
          "transactionHash": "0x512f8c6b8b81aff8c1e300c8af769c0673f8fffff745e9bc6d3fb0ba6dff3a43",
          "transactionIndex": "0x16",
          "logIndex": "0x21",
          "removed": false
        },
        {
          "address": "0xf573e0745c3fa02b4a6739446c34c16de49fed52",
          "topics": [
            "0xd3d640118416a526ad33075973727e1675055b2b31a8351bc74271d75fccef9b"
          ],
          "data": "0x00000000000000000000000000000000000000000000000000000000000000050000000000000000000000006efb11ac41b6657c32dac5ed4874082c700bba290000000000000000000000006efb11ac41b6657c32dac5ed4874082c700bba290000000000000000000000000000000000000000000000000000000000000000000000000000000000000000339ae32f85f4a43b8dc0b685dc2d39179653ca01000000000000000000000000e3f98fda6dbd38c1017754f1675dce377381c23c00000000000000000000000058389610a3d13e8f380ee2ba077a6f36f2a90834000000000000000000000000000000000000000000000000000000003b9aca0000000000000000000000000000000000000000000000021e19e0c9bab240000000000000000000000000000000000000000000000000000000000068c6171400",
          "blockHash": "0x0ac259c25537052d8d034de1a99dcf502dc8bf24d5b66a074b4a206d84683f2b",
          "blockNumber": "0x727b41",
          "blockTimestamp": "0x67d21171",
          "transactionHash": "0x512f8c6b8b81aff8c1e300c8af769c0673f8fffff745e9bc6d3fb0ba6dff3a43",
          "transactionIndex": "0x16",
          "logIndex": "0x22",
          "removed": false
        }
      ],
      "logsBloom": "0x00000000000000002200000000000000000000000000000000000000040000000000000000100000000000000000000000001000000100000000000000000000000000000000000000000008000000000000000000000400001000000000108000000000000000000000000200000000000000000000000000000010200000000000000000000000000000000000000000000000000000000028000000000000000000000000000000000000000020040000000000000000000001000000000000000002000080000000000000000000000000010000000000000000000000000000001000000000000000000000000000000000000000000000000000800000",
      "type": "0x0",
      "transactionHash": "0x512f8c6b8b81aff8c1e300c8af769c0673f8fffff745e9bc6d3fb0ba6dff3a43",
      "transactionIndex": "0x16",
      "blockHash": "0x0ac259c25537052d8d034de1a99dcf502dc8bf24d5b66a074b4a206d84683f2b",
      "blockNumber": "0x727b41",
      "gasUsed": "0x7b0f8",
      "effectiveGasPrice": "0xc1b710800",
      "from": "0x6efb11ac41b6657c32dac5ed4874082c700bba29",
      "to": "0x2e505c38656ae7e6b1134f48b0daf6f725a6eaeb",
      "contractAddress": null
    }
  ],
  "libraries": [],
  "pending": [],
  "returns": {},
  "timestamp": 1741820279,
  "chain": 10143,
  "commit": "e7e6a38"
}