{
  "transactions": [
    {
      "hash": "0x0c7135df0fda9276f48a66d6ee4a9437ba2c4e49cd991c8df2a96da5334f1096",
      "transactionType": "CALL",
      "contractName": null,
      "contractAddress": "0x97f3d75fcc683c8f557d637196857fa303f7cebd",
      "function": "mint(address,uint256)",
      "arguments": [
        "0x6EFb11aC41B6657c32dAc5Ed4874082C700BbA29",
        "10000000000000000000"
      ],
      "transaction": {
        "from": "0x6efb11ac41b6657c32dac5ed4874082c700bba29",
        "to": "0x97f3d75fcc683c8f557d637196857fa303f7cebd",
        "gas": "0xcf9e",
        "value": "0x0",
        "input": "0x40c10f190000000000000000000000006efb11ac41b6657c32dac5ed4874082c700bba290000000000000000000000000000000000000000000000008ac7230489e80000",
        "nonce": "0x37",
        "chainId": "0x279f"
      },
      "additionalContracts": [],
      "isFixedGasLimit": false
    },
    {
      "hash": "0x115a9b226af160de39933530e9d11f21642c0b71afc798e2cb20c16cb24b5902",
      "transactionType": "CALL",
      "contractName": null,
      "contractAddress": "0x37e9b288c56b734c0291d37af478f60ce58a9fc6",
      "function": "mint(address,uint256)",
      "arguments": [
        "0x6EFb11aC41B6657c32dAc5Ed4874082C700BbA29",
        "3000000000000000000000"
      ],
      "transaction": {
        "from": "0x6efb11ac41b6657c32dac5ed4874082c700bba29",
        "to": "0x37e9b288c56b734c0291d37af478f60ce58a9fc6",
        "gas": "0xcfae",
        "value": "0x0",
        "input": "0x40c10f190000000000000000000000006efb11ac41b6657c32dac5ed4874082c700bba290000000000000000000000000000000000000000000000a2a15d09519be00000",
        "nonce": "0x38",
        "chainId": "0x279f"
      },
      "additionalContracts": [],
      "isFixedGasLimit": false
    },
    {
      "hash": "0xfa3656b454d7365b5632c70e6a1367735051e8051ac5562be97503ff33826e35",
      "transactionType": "CALL",
      "contractName": null,
      "contractAddress": "0x97f3d75fcc683c8f557d637196857fa303f7cebd",
      "function": "approve(address,uint256)",
      "arguments": [
        "0x1b191f344d99a8e8fd09EB33fcBe93396d120339",
        "115792089237316195423570985008687907853269984665640564039457584007913129639935"
      ],
      "transaction": {
        "from": "0x6efb11ac41b6657c32dac5ed4874082c700bba29",
        "to": "0x97f3d75fcc683c8f557d637196857fa303f7cebd",
        "gas": "0xfee1",
        "value": "0x0",
        "input": "0x095ea7b30000000000000000000000001b191f344d99a8e8fd09eb33fcbe93396d120339ffffffffffffffffffffffffffffffffffffffffffffffffffffffffffffffff",
        "nonce": "0x39",
        "chainId": "0x279f"
      },
      "additionalContracts": [],
      "isFixedGasLimit": false
    },
    {
      "hash": "0x75a0b8b57db263c74d01b7fe826c3dc8a33783e358da5a9c6b8311ecad2a2dbf",
      "transactionType": "CALL",
      "contractName": null,
      "contractAddress": "0x37e9b288c56b734c0291d37af478f60ce58a9fc6",
      "function": "approve(address,uint256)",
      "arguments": [
        "0x1b191f344d99a8e8fd09EB33fcBe93396d120339",
        "115792089237316195423570985008687907853269984665640564039457584007913129639935"
      ],
      "transaction": {
        "from": "0x6efb11ac41b6657c32dac5ed4874082c700bba29",
        "to": "0x37e9b288c56b734c0291d37af478f60ce58a9fc6",
        "gas": "0xfee1",
        "value": "0x0",
        "input": "0x095ea7b30000000000000000000000001b191f344d99a8e8fd09eb33fcbe93396d120339ffffffffffffffffffffffffffffffffffffffffffffffffffffffffffffffff",
        "nonce": "0x3a",
        "chainId": "0x279f"
      },
      "additionalContracts": [],
      "isFixedGasLimit": false
    },
    {
      "hash": "0x90068b31ae249027db1fbdc7cf891e8fa2f28552916d2e7165f762546dc9323e",
      "transactionType": "CALL",
      "contractName": null,
      "contractAddress": "0x1b191f344d99a8e8fd09eb33fcbe93396d120339",
      "function": "multicall(bytes[])",
      "arguments": [
        "[0x7d39aaf1000000000000000000000000354cf8ea72c117e7443a7392230749b72ef78d0b000000000000000000000000000000000000000000000000000000003b9aca00, 0xe6d66ac800000000000000000000000097f3d75fcc683c8f557d637196857fa303f7cebd000000000000000000000000354cf8ea72c117e7443a7392230749b72ef78d0b00000000000000000000000000000000000000000000003635c9adc5dea00000, 0xe6d66ac800000000000000000000000037e9b288c56b734c0291d37af478f60ce58a9fc6000000000000000000000000354cf8ea72c117e7443a7392230749b72ef78d0b0000000000000000000000000000000000000000000000a2a15d09519be00000, 0x293953b80000000000000000000000006efb11ac41b6657c32dac5ed4874082c700bba290000000000000000000000000000000000000000000000000000000000000000000000000000000000000000fd16ef40c3a301f7063a1f9c28b90957df07158300000000000000000000000097f3d75fcc683c8f557d637196857fa303f7cebd00000000000000000000000037e9b288c56b734c0291d37af478f60ce58a9fc60000000000000000000000000000000000000000000000000000000000000000000000000000000000000000000000000000000000000000000000003b9aca00]"
      ],
      "transaction": {
        "from": "0x6efb11ac41b6657c32dac5ed4874082c700bba29",
        "to": "0x1b191f344d99a8e8fd09eb33fcbe93396d120339",
        "gas": "0x863c1",
        "value": "0x0",
        "input": "0xac9650d8000000000000000000000000000000000000000000000000000000000000002000000000000000000000000000000000000000000000000000000000000000040000000000000000000000000000000000000000000000000000000000000080000000000000000000000000000000000000000000000000000000000000010000000000000000000000000000000000000000000000000000000000000001a0000000000000000000000000000000000000000000000000000000000000024000000000000000000000000000000000000000000000000000000000000000447d39aaf1000000000000000000000000354cf8ea72c117e7443a7392230749b72ef78d0b000000000000000000000000000000000000000000000000000000003b9aca00000000000000000000000000000000000000000000000000000000000000000000000000000000000000000000000000000000000000000000000064e6d66ac800000000000000000000000097f3d75fcc683c8f557d637196857fa303f7cebd000000000000000000000000354cf8ea72c117e7443a7392230749b72ef78d0b00000000000000000000000000000000000000000000003635c9adc5dea00000000000000000000000000000000000000000000000000000000000000000000000000000000000000000000000000000000000000000000000000064e6d66ac800000000000000000000000037e9b288c56b734c0291d37af478f60ce58a9fc6000000000000000000000000354cf8ea72c117e7443a7392230749b72ef78d0b0000000000000000000000000000000000000000000000a2a15d09519be000000000000000000000000000000000000000000000000000000000000000000000000000000000000000000000000000000000000000000000000000e4293953b80000000000000000000000006efb11ac41b6657c32dac5ed4874082c700bba290000000000000000000000000000000000000000000000000000000000000000000000000000000000000000fd16ef40c3a301f7063a1f9c28b90957df07158300000000000000000000000097f3d75fcc683c8f557d637196857fa303f7cebd00000000000000000000000037e9b288c56b734c0291d37af478f60ce58a9fc60000000000000000000000000000000000000000000000000000000000000000000000000000000000000000000000000000000000000000000000003b9aca0000000000000000000000000000000000000000000000000000000000",
        "nonce": "0x3b",
        "chainId": "0x279f"
      },
      "additionalContracts": [],
      "isFixedGasLimit": false
    }
  ],
  "receipts": [
    {
      "status": "0x1",
      "cumulativeGasUsed": "0xe66e29",
      "logs": [
        {
          "address": "0x97f3d75fcc683c8f557d637196857fa303f7cebd",
          "topics": [
            "0xddf252ad1be2c89b69c2b068fc378daa952ba7f163c4a11628f55a4df523b3ef",
            "0x0000000000000000000000000000000000000000000000000000000000000000",
            "0x0000000000000000000000006efb11ac41b6657c32dac5ed4874082c700bba29"
          ],
          "data": "0x0000000000000000000000000000000000000000000000008ac7230489e80000",
          "blockHash": "0x77a53cff11cae24c1e36caade114e58a15b0f1dd46b68ca65b7dd192d4cc5166",
          "blockNumber": "0x66986e",
          "blockTimestamp": "0x67cbcd77",
          "transactionHash": "0x0c7135df0fda9276f48a66d6ee4a9437ba2c4e49cd991c8df2a96da5334f1096",
          "transactionIndex": "0x2d",
          "logIndex": "0x64",
          "removed": false
        },
        {
          "address": "0x97f3d75fcc683c8f557d637196857fa303f7cebd",
          "topics": [
            "0x0f6798a560793a54c3bcfe86a93cde1e73087d944c0ea20544137d4121396885"
          ],
          "data": "0x0000000000000000000000006efb11ac41b6657c32dac5ed4874082c700bba290000000000000000000000000000000000000000000000008ac7230489e80000",
          "blockHash": "0x77a53cff11cae24c1e36caade114e58a15b0f1dd46b68ca65b7dd192d4cc5166",
          "blockNumber": "0x66986e",
          "blockTimestamp": "0x67cbcd77",
          "transactionHash": "0x0c7135df0fda9276f48a66d6ee4a9437ba2c4e49cd991c8df2a96da5334f1096",
          "transactionIndex": "0x2d",
          "logIndex": "0x65",
          "removed": false
        }
      ],
      "logsBloom": "0x00000000000000000200000000000000000000000000000000000000000000000080000000000000000000000000000000000000000100000000000000000000000000000020000000000008000000000002000000000100000000000000000000000000020000000000000000000800000000000000400000000010000000000000000000000000000000000000000000000000000000000000000000000000000080000000000000000000000000000000000000000000000001000000000000000002000000000000000000000000000000000000000000000000000020000000000000000000000000000000000000000000000000000000000000000000",
      "type": "0x2",
      "transactionHash": "0x0c7135df0fda9276f48a66d6ee4a9437ba2c4e49cd991c8df2a96da5334f1096",
      "transactionIndex": "0x2d",
      "blockHash": "0x77a53cff11cae24c1e36caade114e58a15b0f1dd46b68ca65b7dd192d4cc5166",
      "blockNumber": "0x66986e",
      "gasUsed": "0xcf9e",
      "effectiveGasPrice": "0xba43b7401",
      "from": "0x6efb11ac41b6657c32dac5ed4874082c700bba29",
      "to": "0x97f3d75fcc683c8f557d637196857fa303f7cebd",
      "contractAddress": null
    },
    {
      "status": "0x1",
      "cumulativeGasUsed": "0xe73dd7",
      "logs": [
        {
          "address": "0x37e9b288c56b734c0291d37af478f60ce58a9fc6",
          "topics": [
            "0xddf252ad1be2c89b69c2b068fc378daa952ba7f163c4a11628f55a4df523b3ef",
            "0x0000000000000000000000000000000000000000000000000000000000000000",
            "0x0000000000000000000000006efb11ac41b6657c32dac5ed4874082c700bba29"
          ],
          "data": "0x0000000000000000000000000000000000000000000000a2a15d09519be00000",
          "blockHash": "0x77a53cff11cae24c1e36caade114e58a15b0f1dd46b68ca65b7dd192d4cc5166",
          "blockNumber": "0x66986e",
          "blockTimestamp": "0x67cbcd77",
          "transactionHash": "0x115a9b226af160de39933530e9d11f21642c0b71afc798e2cb20c16cb24b5902",
          "transactionIndex": "0x2e",
          "logIndex": "0x66",
          "removed": false
        },
        {
          "address": "0x37e9b288c56b734c0291d37af478f60ce58a9fc6",
          "topics": [
            "0x0f6798a560793a54c3bcfe86a93cde1e73087d944c0ea20544137d4121396885"
          ],
          "data": "0x0000000000000000000000006efb11ac41b6657c32dac5ed4874082c700bba290000000000000000000000000000000000000000000000a2a15d09519be00000",
          "blockHash": "0x77a53cff11cae24c1e36caade114e58a15b0f1dd46b68ca65b7dd192d4cc5166",
          "blockNumber": "0x66986e",
          "blockTimestamp": "0x67cbcd77",
          "transactionHash": "0x115a9b226af160de39933530e9d11f21642c0b71afc798e2cb20c16cb24b5902",
          "transactionIndex": "0x2e",
          "logIndex": "0x67",
          "removed": false
        }
      ],
      "logsBloom": "0x00000000000000000200000000000000000008000000000000000000000000000000000000000000000000000000000000000000000100000000000000000000000000000020000000000008000000000000000000000000000000000000000000000000020000000000000000000800000000000000400000000010000000000000000000000000000000000000000000000000000000000000000000000000000080000000000000000000000000000000000000000000000001000000000000000002000000000000800000000000000000000010000000000000000020000000000000000000000000000000000000000000000000000000000000000000",
      "type": "0x2",
      "transactionHash": "0x115a9b226af160de39933530e9d11f21642c0b71afc798e2cb20c16cb24b5902",
      "transactionIndex": "0x2e",
      "blockHash": "0x77a53cff11cae24c1e36caade114e58a15b0f1dd46b68ca65b7dd192d4cc5166",
      "blockNumber": "0x66986e",
      "gasUsed": "0xcfae",
      "effectiveGasPrice": "0xba43b7401",
      "from": "0x6efb11ac41b6657c32dac5ed4874082c700bba29",
      "to": "0x37e9b288c56b734c0291d37af478f60ce58a9fc6",
      "contractAddress": null
    },
    {
      "status": "0x1",
      "cumulativeGasUsed": "0xe83cb8",
      "logs": [
        {
          "address": "0x97f3d75fcc683c8f557d637196857fa303f7cebd",
          "topics": [
            "0x8c5be1e5ebec7d5bd14f71427d1e84f3dd0314c0f7b2291e5b200ac8c7c3b925",
            "0x0000000000000000000000006efb11ac41b6657c32dac5ed4874082c700bba29",
            "0x0000000000000000000000001b191f344d99a8e8fd09eb33fcbe93396d120339"
          ],
          "data": "0xffffffffffffffffffffffffffffffffffffffffffffffffffffffffffffffff",
          "blockHash": "0x77a53cff11cae24c1e36caade114e58a15b0f1dd46b68ca65b7dd192d4cc5166",
          "blockNumber": "0x66986e",
          "blockTimestamp": "0x67cbcd77",
          "transactionHash": "0xfa3656b454d7365b5632c70e6a1367735051e8051ac5562be97503ff33826e35",
          "transactionIndex": "0x2f",
          "logIndex": "0x68",
          "removed": false
        }
      ],
      "logsBloom": "0x00000000000000000200000000800000000000000000000000000000000000000080000000000000000000000000000000000000002100000000000000200000000000000000000000000000000000000002000000000100000000000000000000000000000000000000000000000000000000000000000000000000000000000000000000000000000000000000000000000000000000000000000000000000020000000000000000000000000000000000000000000000000001000000000000000000000000000000000000000000000000000000000000000010000000000010000000000000000000000000000000000000000000000000000000000000",
      "type": "0x2",
      "transactionHash": "0xfa3656b454d7365b5632c70e6a1367735051e8051ac5562be97503ff33826e35",
      "transactionIndex": "0x2f",
      "blockHash": "0x77a53cff11cae24c1e36caade114e58a15b0f1dd46b68ca65b7dd192d4cc5166",
      "blockNumber": "0x66986e",
      "gasUsed": "0xfee1",
      "effectiveGasPrice": "0xba43b7401",
      "from": "0x6efb11ac41b6657c32dac5ed4874082c700bba29",
      "to": "0x97f3d75fcc683c8f557d637196857fa303f7cebd",
      "contractAddress": null
    },
    {
      "status": "0x1",
      "cumulativeGasUsed": "0xe93b99",
      "logs": [
        {
          "address": "0x37e9b288c56b734c0291d37af478f60ce58a9fc6",
          "topics": [
            "0x8c5be1e5ebec7d5bd14f71427d1e84f3dd0314c0f7b2291e5b200ac8c7c3b925",
            "0x0000000000000000000000006efb11ac41b6657c32dac5ed4874082c700bba29",
            "0x0000000000000000000000001b191f344d99a8e8fd09eb33fcbe93396d120339"
          ],
          "data": "0xffffffffffffffffffffffffffffffffffffffffffffffffffffffffffffffff",
          "blockHash": "0x77a53cff11cae24c1e36caade114e58a15b0f1dd46b68ca65b7dd192d4cc5166",
          "blockNumber": "0x66986e",
          "blockTimestamp": "0x67cbcd77",
          "transactionHash": "0x75a0b8b57db263c74d01b7fe826c3dc8a33783e358da5a9c6b8311ecad2a2dbf",
          "transactionIndex": "0x30",
          "logIndex": "0x69",
          "removed": false
        }
      ],
      "logsBloom": "0x00000000000000000200000000800000000008000000000000000000000000000000000000000000000000000000000000000000002100000000000000200000000000000000000000000000000000000000000000000000000000000000000000000000000000000000000000000000000000000000000000000000000000000000000000000000000000000000000000000000000000000000000000000000020000000000000000000000000000000000000000000000000001000000000000000000000000000000800000000000000000000010000000000010000000000010000000000000000000000000000000000000000000000000000000000000",
      "type": "0x2",
      "transactionHash": "0x75a0b8b57db263c74d01b7fe826c3dc8a33783e358da5a9c6b8311ecad2a2dbf",
      "transactionIndex": "0x30",
      "blockHash": "0x77a53cff11cae24c1e36caade114e58a15b0f1dd46b68ca65b7dd192d4cc5166",
      "blockNumber": "0x66986e",
      "gasUsed": "0xfee1",
      "effectiveGasPrice": "0xba43b7401",
      "from": "0x6efb11ac41b6657c32dac5ed4874082c700bba29",
      "to": "0x37e9b288c56b734c0291d37af478f60ce58a9fc6",
      "contractAddress": null
    },
    {
      "status": "0x1",
      "cumulativeGasUsed": "0xf19f5a",
      "logs": [
        {
          "address": "0x97f3d75fcc683c8f557d637196857fa303f7cebd",
          "topics": [
            "0xddf252ad1be2c89b69c2b068fc378daa952ba7f163c4a11628f55a4df523b3ef",
            "0x0000000000000000000000006efb11ac41b6657c32dac5ed4874082c700bba29",
            "0x000000000000000000000000354cf8ea72c117e7443a7392230749b72ef78d0b"
          ],
          "data": "0x000000000000000000000000000000000000000000000000000000003b9aca00",
          "blockHash": "0x77a53cff11cae24c1e36caade114e58a15b0f1dd46b68ca65b7dd192d4cc5166",
          "blockNumber": "0x66986e",
          "blockTimestamp": "0x67cbcd77",
          "transactionHash": "0x90068b31ae249027db1fbdc7cf891e8fa2f28552916d2e7165f762546dc9323e",
          "transactionIndex": "0x31",
          "logIndex": "0x6a",
          "removed": false
        },
        {
          "address": "0x97f3d75fcc683c8f557d637196857fa303f7cebd",
          "topics": [
            "0xddf252ad1be2c89b69c2b068fc378daa952ba7f163c4a11628f55a4df523b3ef",
            "0x0000000000000000000000006efb11ac41b6657c32dac5ed4874082c700bba29",
            "0x000000000000000000000000354cf8ea72c117e7443a7392230749b72ef78d0b"
          ],
          "data": "0x00000000000000000000000000000000000000000000003635c9adc5dea00000",
          "blockHash": "0x77a53cff11cae24c1e36caade114e58a15b0f1dd46b68ca65b7dd192d4cc5166",
          "blockNumber": "0x66986e",
          "blockTimestamp": "0x67cbcd77",
          "transactionHash": "0x90068b31ae249027db1fbdc7cf891e8fa2f28552916d2e7165f762546dc9323e",
          "transactionIndex": "0x31",
          "logIndex": "0x6b",
          "removed": false
        },
        {
          "address": "0x37e9b288c56b734c0291d37af478f60ce58a9fc6",
          "topics": [
            "0xddf252ad1be2c89b69c2b068fc378daa952ba7f163c4a11628f55a4df523b3ef",
            "0x0000000000000000000000006efb11ac41b6657c32dac5ed4874082c700bba29",
            "0x000000000000000000000000354cf8ea72c117e7443a7392230749b72ef78d0b"
          ],
          "data": "0x0000000000000000000000000000000000000000000000a2a15d09519be00000",
          "blockHash": "0x77a53cff11cae24c1e36caade114e58a15b0f1dd46b68ca65b7dd192d4cc5166",
          "blockNumber": "0x66986e",
          "blockTimestamp": "0x67cbcd77",
          "transactionHash": "0x90068b31ae249027db1fbdc7cf891e8fa2f28552916d2e7165f762546dc9323e",
          "transactionIndex": "0x31",
          "logIndex": "0x6c",
          "removed": false
        },
        {
          "address": "0x75084b2ba58907efee5cd397fa855dc73b68d191",
          "topics": [
            "0xd3d640118416a526ad33075973727e1675055b2b31a8351bc74271d75fccef9b"
          ],
          "data": "0x00000000000000000000000000000000000000000000000000000000000000000000000000000000000000006efb11ac41b6657c32dac5ed4874082c700bba290000000000000000000000006efb11ac41b6657c32dac5ed4874082c700bba290000000000000000000000000000000000000000000000000000000000000000000000000000000000000000fd16ef40c3a301f7063a1f9c28b90957df07158300000000000000000000000097f3d75fcc683c8f557d637196857fa303f7cebd00000000000000000000000037e9b288c56b734c0291d37af478f60ce58a9fc6000000000000000000000000000000000000000000000000000000003b9aca0000000000000000000000000000000000000000000000003635c9adc5dea000000000000000000000000000000000000000000000000000a2a15d09519be00000",
          "blockHash": "0x77a53cff11cae24c1e36caade114e58a15b0f1dd46b68ca65b7dd192d4cc5166",
          "blockNumber": "0x66986e",
          "blockTimestamp": "0x67cbcd77",
          "transactionHash": "0x90068b31ae249027db1fbdc7cf891e8fa2f28552916d2e7165f762546dc9323e",
          "transactionIndex": "0x31",
          "logIndex": "0x6d",
          "removed": false
        }
      ],
      "logsBloom": "0x00000000000000000200000000000000800008000000000000000000040000000080000010000000000000000000000000000000000100000000000000000000000000000000000000000008000000000002000000000100000000000000000000000000000000000000000000000000000000000000000000000010200000000000000100000000000000000000000000000000000000000000040000000000000000000000000000000000000000000000000000000000000001000000000000000002000080000000800000000000000000000010000001000000000000000000000000000000000000000000000000000000000000000000000000008000",
      "type": "0x2",
      "transactionHash": "0x90068b31ae249027db1fbdc7cf891e8fa2f28552916d2e7165f762546dc9323e",
      "transactionIndex": "0x31",
      "blockHash": "0x77a53cff11cae24c1e36caade114e58a15b0f1dd46b68ca65b7dd192d4cc5166",
      "blockNumber": "0x66986e",
      "gasUsed": "0x863c1",
      "effectiveGasPrice": "0xba43b7401",
      "from": "0x6efb11ac41b6657c32dac5ed4874082c700bba29",
      "to": "0x1b191f344d99a8e8fd09eb33fcbe93396d120339",
      "contractAddress": null
    }
  ],
  "libraries": [],
  "pending": [],
  "returns": {},
  "timestamp": 1741409657,
  "chain": 10143,
  "commit": "75ade75"
}