{
  "transactions": [
    {
      "hash": "0x3b9c835c13ac3f69da0a942fe98956a8a8dea764b2db66e41c4ac5dcc186e1d4",
      "transactionType": "CALL",
      "contractName": null,
      "contractAddress": "0x1c0e607b05ca3409a3c3e38afa122d5f84e8d8ea",
      "function": "setPrices(address[],(uint256,uint256,uint256,bytes)[])",
      "arguments": [
        "[0x37c15A5f7c7d8d4C707d44Ff7E3aD696ddA85d07, 0xf73081AfEd3Fed09c92924Ac16fa0c09aF902E98]",
        "[(3000000000000000000000, 1740229503, 5140743, 0xa1ae00f36e9d6a40c51ea0429c574e2583f215e7a70f45f4491770f2601706f554b52152fc1b40b885d30f28d30b61cb657129a30e0b54c39157379e4ea7568e1c), (1000000000000000000, 1740229503, 5140743, 0xdfdf79a37a7fdcbd41f2ae5ca5288d607c5821fd52701e9e58a7cdc352f061fc2e46e3bbd1aa64209950bf0422a5f95c2f8522fe9289da5a350134c7444b29791b)]"
      ],
      "transaction": {
        "from": "0xe2bc073e0d55274dba18a0e11463a5dfd16c5057",
        "to": "0x1c0e607b05ca3409a3c3e38afa122d5f84e8d8ea",
        "gas": "0x6397d",
        "value": "0x0",
        "input": "0xbd8bab34000000000000000000000000000000000000000000000000000000000000004000000000000000000000000000000000000000000000000000000000000000a0000000000000000000000000000000000000000000000000000000000000000200000000000000000000000037c15a5f7c7d8d4c707d44ff7e3ad696dda85d07000000000000000000000000f73081afed3fed09c92924ac16fa0c09af902e980000000000000000000000000000000000000000000000000000000000000002000000000000000000000000000000000000000000000000000000000000004000000000000000000000000000000000000000000000000000000000000001400000000000000000000000000000000000000000000000a2a15d09519be000000000000000000000000000000000000000000000000000000000000067b9cb7f00000000000000000000000000000000000000000000000000000000004e710700000000000000000000000000000000000000000000000000000000000000800000000000000000000000000000000000000000000000000000000000000041a1ae00f36e9d6a40c51ea0429c574e2583f215e7a70f45f4491770f2601706f554b52152fc1b40b885d30f28d30b61cb657129a30e0b54c39157379e4ea7568e1c000000000000000000000000000000000000000000000000000000000000000000000000000000000000000000000000000000000000000de0b6b3a76400000000000000000000000000000000000000000000000000000000000067b9cb7f00000000000000000000000000000000000000000000000000000000004e710700000000000000000000000000000000000000000000000000000000000000800000000000000000000000000000000000000000000000000000000000000041dfdf79a37a7fdcbd41f2ae5ca5288d607c5821fd52701e9e58a7cdc352f061fc2e46e3bbd1aa64209950bf0422a5f95c2f8522fe9289da5a350134c7444b29791b00000000000000000000000000000000000000000000000000000000000000",
        "nonce": "0x4f",
        "chainId": "0xaa39db"
      },
      "additionalContracts": [],
      "isFixedGasLimit": false
    }
  ],
  "receipts": [
    {
      "status": "0x1",
      "cumulativeGasUsed": "0x4ed1b",
      "logs": [
        {
          "address": "0x1c0e607b05ca3409a3c3e38afa122d5f84e8d8ea",
          "topics": [
            "0x8647dab5101cbe18afb171756e9753802f9d66725bf2346b079b8b1a275e0116"
          ],
          "data": "0x00000000000000000000000037c15a5f7c7d8d4c707d44ff7e3ad696dda85d070000000000000000000000000000000000000000000000a2a15d09519be000000000000000000000000000000000000000000000000000000000000067b9cb7f00000000000000000000000000000000000000000000000000000000004e7107",
          "blockHash": "0x66a6f9cc13e59ac9b73cf73430e0d5689ce601da56c9950e443b2d76d211c6c8",
          "blockNumber": "0x4e7121",
          "blockTimestamp": "0x67b9cb99",
          "transactionHash": "0x3b9c835c13ac3f69da0a942fe98956a8a8dea764b2db66e41c4ac5dcc186e1d4",
          "transactionIndex": "0x1",
          "logIndex": "0x0",
          "removed": false
        },
        {
          "address": "0x1c0e607b05ca3409a3c3e38afa122d5f84e8d8ea",
          "topics": [
            "0x8647dab5101cbe18afb171756e9753802f9d66725bf2346b079b8b1a275e0116"
          ],
          "data": "0x000000000000000000000000f73081afed3fed09c92924ac16fa0c09af902e980000000000000000000000000000000000000000000000000de0b6b3a76400000000000000000000000000000000000000000000000000000000000067b9cb7f00000000000000000000000000000000000000000000000000000000004e7107",
          "blockHash": "0x66a6f9cc13e59ac9b73cf73430e0d5689ce601da56c9950e443b2d76d211c6c8",
          "blockNumber": "0x4e7121",
          "blockTimestamp": "0x67b9cb99",
          "transactionHash": "0x3b9c835c13ac3f69da0a942fe98956a8a8dea764b2db66e41c4ac5dcc186e1d4",
          "transactionIndex": "0x1",
          "logIndex": "0x1",
          "removed": false
        }
      ],
      "logsBloom": "0x00000000000000000000000000000000001000000000000000000000000200000000000000000000000000000000000000000000400000000000000000000000000000000000000000000000000000000000000000000000000000000000000000000000000000000000000000000000000000000000000000000000000000000000000000000000000000000000000000000000000000000400000000000000000000000000000000000000000000000000000000000000000000002000000000000000000000000000000000000000000000000008000000000000000000000000000000000000000000000000000000000000000000000000000000000000",
      "type": "0x2",
      "transactionHash": "0x3b9c835c13ac3f69da0a942fe98956a8a8dea764b2db66e41c4ac5dcc186e1d4",
      "transactionIndex": "0x1",
      "blockHash": "0x66a6f9cc13e59ac9b73cf73430e0d5689ce601da56c9950e443b2d76d211c6c8",
      "blockNumber": "0x4e7121",
      "gasUsed": "0x44191",
      "effectiveGasPrice": "0x8",
      "from": "0xe2bc073e0d55274dba18a0e11463a5dfd16c5057",
      "to": "0x1c0e607b05ca3409a3c3e38afa122d5f84e8d8ea",
      "contractAddress": null,
      "l1BaseFeeScalar": "0x558",
      "l1BlobBaseFee": "0xc79f940",
      "l1BlobBaseFeeScalar": "0xc5fc5",
      "l1Fee": "0x101cb1e9a5",
      "l1GasPrice": "0xac2c5973",
      "l1GasUsed": "0x1290"
    }
  ],
  "libraries": [],
  "pending": [],
  "returns": {},
  "timestamp": 1740229530,
  "chain": 11155931,
  "commit": "35df5d8"
}