{
  "transactions": [
    {
      "hash": "0x89d84daff0eb7f215088f709d38110c488eadc5c88e917121bb9f58e8c79ebc6",
      "transactionType": "CREATE",
      "contractName": "MockCurator",
      "contractAddress": "0x7f3485e36368815423e4181102df290dc554fdb9",
      "function": null,
      "arguments": null,
      "transaction": {
        "from": "0x6efb11ac41b6657c32dac5ed4874082c700bba29",
        "gas": "0x105e31",
        "value": "0x0",
        "input": "0x608080604052346071573315605e575f8054336001600160a01b0319821681178355916001600160a01b03909116907f8be0079c531659141344cd1fd0a4f28419497f9722a3daafe3b4186f6b6457e09080a3610d7d90816100768239f35b631e4fbdf760e01b5f525f60045260245ffd5b5f80fdfe60806040526004361015610011575f80fd5b5f803560e01c806306fdde03146109e1578063158ef93e146109bf578063256b5a02146109025780633c130d901461083b57806344d00f821461077357806345f61828146106a75780634d12d4b61461035d578063715018a61461030357806372dc5c89146102325780638c64ea4a146101ee5780638da5cb5b146101c75780639012c4a814610125578063a001ecdd146101075763f2fde38b146100b4575f80fd5b34610104576020366003190112610104576100cd610af7565b6100d5610c9b565b6001600160a01b038116156100f0576100ed90610cc1565b80f35b631e4fbdf760e01b82526004829052602482fd5b80fd5b50346101045780600319360112610104576020600354604051908152f35b503461010457602036600319011261010457600435610142610c9b565b61015060ff60045416610b7d565b6103e881116101935760407f528d9479e9f9889a87a3c30c7f7ba537e5e59c4c85a37733b16e57c62df6130291600354908060035582519182526020820152a180f35b60405162461bcd60e51b815260206004820152600c60248201526b08ccaca40e8dede40d0d2ced60a31b6044820152606490fd5b5034610104578060031936011261010457546040516001600160a01b039091168152602090f35b5034610104576020366003190112610104576004359060055482101561010457602061021983610b51565b905460405160039290921b1c6001600160a01b03168152f35b5034610104576080366003190112610104578061024d610af7565b610255610b0d565b604435606435928315158094036102ff5761026e610c9b565b6001600160a01b031691610283831515610bbb565b6001600160a01b031691610298831515610bff565b6102a6612710831115610c44565b803b156102ff57849283606492604051968795869463542d4f8d60e11b86526004860152602485015260448401525af180156102f4576102e35750f35b816102ed91610aab565b6101045780f35b6040513d84823e3d90fd5b8480fd5b503461010457806003193601126101045761031c610c9b565b80546001600160a01b03198116825581906001600160a01b03167f8be0079c531659141344cd1fd0a4f28419497f9722a3daafe3b4186f6b6457e08280a380f35b503461010457608036600319011261010457610377610af7565b60243567ffffffffffffffff81116106a357610397903690600401610b23565b60449391933567ffffffffffffffff81116106a3576103ba903690600401610b23565b91909360ff60045416610668576103d090610cc1565b67ffffffffffffffff8111610654576103ea600154610a73565b601f81116105ec575b5082601f821160011461057d5783949582939492610572575b50508160011b915f199060031b1c1916176001555b67ffffffffffffffff811161055e5761043b600254610a73565b601f81116104fa575b5081601f8211600114610491578293829392610486575b50508160011b915f199060031b1c1916176002555b606435600355600160ff19600454161760045580f35b013590505f8061045b565b601f198216935f80516020610d0883398151915291845b8681106104e257508360019596106104c9575b505050811b01600255610470565b01355f19600384901b60f8161c191690555f80806104bb565b909260206001819286860135815501940191016104a8565b601f820160051c5f80516020610d08833981519152019060208310610549575b601f0160051c5f80516020610d0883398151915201905b81811061053e5750610444565b838155600101610531565b5f80516020610d08833981519152915061051a565b634e487b7160e01b82526041600452602482fd5b013590505f8061040c565b60018452601f198216955f80516020610d2883398151915291855b8881106105d4575083600195969798106105bb575b505050811b01600155610421565b01355f19600384901b60f8161c191690555f80806105ad565b90926020600181928686013581550194019101610598565b60018452601f820160051c5f80516020610d2883398151915201906020831061063f575b601f0160051c5f80516020610d2883398151915201905b81811061063457506103f3565b848155600101610627565b5f80516020610d288339815191529150610610565b634e487b7160e01b83526041600452602483fd5b60405162461bcd60e51b8152602060048201526013602482015272105b1c9958591e481a5b9a5d1a585b1a5e9959606a1b6044820152606490fd5b8280fd5b5034610763576060366003190112610763576106c1610af7565b6106c9610b0d565b90604435906106d6610c9b565b6001600160a01b0316916106eb831515610bbb565b6001600160a01b031690610700821515610bff565b80151580610767575b61071290610c44565b823b156107635760445f928360405195869485936352fc3ce560e11b8552600485015260248401525af180156107585761074a575080f35b61075691505f90610aab565b005b6040513d5f823e3d90fd5b5f80fd5b50612710811115610709565b34610763575f366003190112610763576040518060206005549283815201809260055f527f036b6384b5eca791c62761152d0c79bb0604c104a5fb6f4eb0703f3154bb3db0905f5b81811061081c57505050816107d1910382610aab565b604051918291602083019060208452518091526040830191905f5b8181106107fa575050500390f35b82516001600160a01b03168452859450602093840193909201916001016107ec565b82546001600160a01b03168452602090930192600192830192016107bb565b34610763575f366003190112610763576040515f60025461085b81610a73565b80845290600181169081156108de5750600114610893575b61088f8361088381850382610aab565b60405191829182610acd565b0390f35b60025f9081525f80516020610d08833981519152939250905b8082106108c457509091508101602001610883610873565b9192600181602092548385880101520191019092916108ac565b60ff191660208086019190915291151560051b840190910191506108839050610873565b346107635760203660031901126107635761091b610af7565b610923610c9b565b61093160ff60045416610b7d565b6001600160a01b0316610945811515610bbb565b600554680100000000000000008110156109ab578060016109699201600555610b51565b81546001600160a01b0360039290921b91821b19169083901b1790557f7b7ef7a864d96a85497a1ed846adb39940dd6ccef678ff6ac8d55505e09b8cc45f80a2005b634e487b7160e01b5f52604160045260245ffd5b34610763575f36600319011261076357602060ff600454166040519015158152f35b34610763575f366003190112610763576040515f600154610a0181610a73565b80845290600181169081156108de5750600114610a285761088f8361088381850382610aab565b60015f9081525f80516020610d28833981519152939250905b808210610a5957509091508101602001610883610873565b919260018160209254838588010152019101909291610a41565b90600182811c92168015610aa1575b6020831014610a8d57565b634e487b7160e01b5f52602260045260245ffd5b91607f1691610a82565b90601f8019910116810190811067ffffffffffffffff8211176109ab57604052565b602060409281835280519182918282860152018484015e5f828201840152601f01601f1916010190565b600435906001600160a01b038216820361076357565b602435906001600160a01b038216820361076357565b9181601f840112156107635782359167ffffffffffffffff8311610763576020838186019501011161076357565b600554811015610b695760055f5260205f2001905f90565b634e487b7160e01b5f52603260045260245ffd5b15610b8457565b60405162461bcd60e51b815260206004820152600f60248201526e139bdd081a5b9a5d1a585b1a5e9959608a1b6044820152606490fd5b15610bc257565b60405162461bcd60e51b8152602060048201526015602482015274496e76616c6964207661756c74206164647265737360581b6044820152606490fd5b15610c0657565b60405162461bcd60e51b8152602060048201526016602482015275496e76616c6964206d61726b6574206164647265737360501b6044820152606490fd5b15610c4b57565b60405162461bcd60e51b815260206004820152602260248201527f576569676874206d757374206265206265747765656e203020616e6420313030604482015261030360f41b6064820152608490fd5b5f546001600160a01b03163303610cae57565b63118cdaa760e01b5f523360045260245ffd5b5f80546001600160a01b039283166001600160a01b03198216811783559216907f8be0079c531659141344cd1fd0a4f28419497f9722a3daafe3b4186f6b6457e09080a356fe405787fa12a823e0f2b7631cc41b3ba8828b3321ca811111fa75cd3aa3bb5aceb10e2d527612073b26eecdfd717e6a320cf44b4afac2b0732d9fcbe2b7fa0cf6a2646970667358221220fedcbea0971cff75ea60585d28e7a105bbcb2c826bcf4084983e068c02634aab64736f6c634300081a0033",
        "nonce": "0x213",
        "chainId": "0x279f"
      },
      "additionalContracts": [],
      "isFixedGasLimit": false
    },
    {
      "hash": "0x17db153a286bf913ef85f5f61527631fe99e131ccf3ef2b8424a07d1eb2cc132",
      "transactionType": "CREATE",
      "contractName": "AssetVault",
      "contractAddress": "0x4e4844acc0ababa4fc72fa49058d6a3646e5bf86",
      "function": null,
      "arguments": [
        "0x8cB82FfCA2eA57B29aD137b9a8cDCa718233ff96",
        "0x012289D4954b667Fb1bd55445b6250b1eED6C0f1",
        "0xE50914672560E18B2f5cE311a4557880dF05000c",
        "0x823F91041c1CeCDc65Ee8A7335f471ac1A08cAf0",
        "0x7BA5c9AAbD99423e809B0a1B5Caf186736e96C79",
        "0xeBA6ECa6cBf9098D7076D3a06577B45dE90113E1",
        "0x2c53Ce7143D24A65410107F50e4AABad9A164480"
      ],
      "transaction": {
        "from": "0x6efb11ac41b6657c32dac5ed4874082c700bba29",
        "gas": "0x2e67bc",
        "value": "0x0",
        "input": "0x61016080604052346101ff5760e081612aa280380380916100208285610203565b8339810103126101ff576100338161023a565b61003f6020830161023a565b61004b6040840161023a565b926100586060820161023a565b906100656080820161023a565b9161007e60c061007760a0850161023a565b930161023a565b608086905260a09490945260c086905260e052610120526101005261014081905260405163095ea7b360e01b81526001600160a01b0392831660048201525f19602482015291166020826044815f855af180156101d9575f936020936044926101e4575b5060405163095ea7b360e01b81526001600160a01b039091166004820152841960248201529384928391905af180156101d9576101aa575b60405161283b9081610267823960805181818161017b01528181610892015281816113380152818161213a01526124fc015260a051818181610bb201528181611e6601526122c2015260c051818181610a9f0152611398015260e05181818161025d01526123400152610100518181816102a10152611f3b015261012051816118840152610140518161173c0152f35b6101cb9060203d6020116101d2575b6101c38183610203565b81019061024e565b505f61011a565b503d6101b9565b6040513d5f823e3d90fd5b6101fa90853d87116101d2576101c38183610203565b6100e2565b5f80fd5b601f909101601f19168101906001600160401b0382119082101761022657604052565b634e487b7160e01b5f52604160045260245ffd5b51906001600160a01b03821682036101ff57565b908160209103126101ff575180151581036101ff579056fe6080806040526004361015610012575f80fd5b5f3560e01c90816301e1d114146118b35750806306ae70951461186f57806306fdde03146117e05780630cf85bcc1461176b578063126846ec146117275780631488ca08146116d1578063158ef93e146116af57806315d3b5d814611695578063174009a41461165d5780632016a0d2146111915780632e1a7d4d14610dfb578063313ce56714610ddb57806338d52e0f14610daf5780633a98ef3914610d9257806341826c2d14610be1578063660d0d6714610b9d57806395d89b4114610ace5780639c8b2cfb14610a8a578063a5f879ca146106aa578063a85a9f1a146104e7578063b1283e7714610485578063b6b55f25146102ed578063b996de67146102d0578063d0d0ed051461028c578063d7cd394914610248578063de35f5cb1461022b578063de6c3f731461020e578063e66f53b7146101e6578063f656ba51146101ae5763f887ea4014610166575f80fd5b346101aa575f3660031901126101aa576040517f00000000000000000000000000000000000000000000000000000000000000006001600160a01b03168152602090f35b5f80fd5b346101aa5760203660031901126101aa576001600160a01b036101cf611965565b165f526007602052602060405f2054604051908152f35b346101aa575f3660031901126101aa576003546040516001600160a01b039091168152602090f35b346101aa575f3660031901126101aa576020600954604051908152f35b346101aa575f3660031901126101aa576020600d54604051908152f35b346101aa575f3660031901126101aa576040517f00000000000000000000000000000000000000000000000000000000000000006001600160a01b03168152602090f35b346101aa575f3660031901126101aa576040517f00000000000000000000000000000000000000000000000000000000000000006001600160a01b03168152602090f35b346101aa575f3660031901126101aa576020600854604051908152f35b346101aa5760203660031901126101aa5760043561030f60ff60065416611a84565b801561044d57600554806104325750805b6002546040516323b872dd60e01b60208281019182523360248401523060448401526064830186905260089390931c6001600160a01b03169492915f919061037581608481015b03601f198101835282611920565b519082875af115610427575f513d61041e5750823b155b61040b57602092506103a081600454611a0c565b6004556103af82600554611a0c565b600555335f526007835260405f206103c8838254611a0c565b905560405190815281838201527f90890809c654f11d6e72a28fa60149770a0d11ec6c92319d6ceb2bb0a4ea1a1560403392a26104036125f0565b604051908152f35b82635274afe760e01b5f5260045260245ffd5b6001141561038c565b6040513d5f823e3d90fd5b61043f6104489183611ac2565b60045490611ad5565b610320565b60405162461bcd60e51b815260206004820152601060248201526f043616e6e6f74206465706f73697420360841b6044820152606490fd5b346101aa5760203660031901126101aa57600435600a548110156101aa576104ae6080916119dc565b5060018060a01b038154169060018101549060ff6003600283015492015416916040519384526020840152604083015215156060820152f35b346101aa5760603660031901126101aa57610500611965565b60243590604435801515918282036101aa5761052760018060a01b03600354163314611b66565b61053560ff60065416611a84565b6127108411610665576001600160a01b03165f818152600c6020526040902054909390610563811515611ba1565b5f198101908111610651577fe8e3c5374d4bcf968f769c7c2e8c27941d0a98475cd4bf5e0a83a56da453c60f936105f88460036105e5856105d16127106105ca8a6105c560016105b56106379d6119dc565b5001546105c0611a19565b611af3565b611a0c565b1115611be0565b8760016105dd836119dc565b5001556119dc565b50019060ff801983541691151516179055565b60016040519161060783611905565b84835260208301908152875f52600b60205260405f209251835551151591019060ff801983541691151516179055565b604080519182529115156020820152a261064f6125f0565b005b634e487b7160e01b5f52601160045260245ffd5b60405162461bcd60e51b815260206004820152601760248201527f50657263656e74616765206578636565647320313030250000000000000000006044820152606490fd5b346101aa5760403660031901126101aa576106c3611965565b602435906106dc60018060a01b03600354163314611b66565b6001600160a01b038116918215610a4c576127108111610a0757825f52600c60205260405f20546109ca57604051608081018181106001600160401b038211176109b657604052838152602081019082825260408101905f82526060810160018152600a54680100000000000000008110156109b6578060016107629201600a556119dc565b9390936109a3576107b29460039360018060a01b039051166bffffffffffffffffffffffff60a01b86541617855551600185015551600284015551151591019060ff801983541691151516179055565b600a54835f52600c60205260405f20556108036040516107d181611905565b828152600160208201818152865f52600b60205260405f209251835551151591019060ff801983541691151516179055565b6002546040516370a0823160e01b815230600482015260089190911c6001600160a01b03169190602081602481865afa80156104275782915f9161096c575b506127106108535f93602093611ac2565b049360446040518094819363095ea7b360e01b83528a6004840152811960248401525af180156104275761094f575b5060405163095ea7b360e01b81527f00000000000000000000000000000000000000000000000000000000000000006001600160a01b031660048201525f196024820152926020846044815f895af1928315610427577fa64754291535175942be6f35fba8deab36d97ea608b17d06cc5efb985e17215f94602094610924575b5080610914575b5050604051908152a2005b61091d91612299565b8480610909565b61094390853d8711610948575b61093b8183611920565b810190611a6c565b610902565b503d610931565b6109679060203d6020116109485761093b8183611920565b610882565b9150506020813d60201161099b575b8161098860209383611920565b810103126101aa57518190612710610842565b3d915061097b565b634e487b7160e01b5f525f60045260245ffd5b634e487b7160e01b5f52604160045260245ffd5b60405162461bcd60e51b81526020600482015260156024820152744d61726b657420616c72656164792065786973747360581b6044820152606490fd5b60405162461bcd60e51b815260206004820152601d60248201527f496e76616c696420616c6c6f636174696f6e2070657263656e746167650000006044820152606490fd5b60405162461bcd60e51b8152602060048201526016602482015275496e76616c6964206d61726b6574206164647265737360501b6044820152606490fd5b346101aa575f3660031901126101aa576040517f00000000000000000000000000000000000000000000000000000000000000006001600160a01b03168152602090f35b346101aa575f3660031901126101aa576040515f600154610aee816118cd565b8084529060018116908115610b795750600114610b2e575b610b2a83610b1681850382611920565b604051918291602083526020830190611941565b0390f35b60015f9081525f805160206127e6833981519152939250905b808210610b5f57509091508101602001610b16610b06565b919260018160209254838588010152019101909291610b47565b60ff191660208086019190915291151560051b84019091019150610b169050610b06565b346101aa575f3660031901126101aa576040517f00000000000000000000000000000000000000000000000000000000000000006001600160a01b03168152602090f35b346101aa575f3660031901126101aa575f80600a54905b818110610d605750610c0982611b0e565b90610c176040519283611920565b828252610c2383611b0e565b6020830190601f1901368237610c51610c3b85611b0e565b94610c496040519687611920565b808652611b0e565b602085019290601f19013684375f805b828110610ced57505050604051938493604085019060408652518091526060850192905f5b818110610ccb575050506020908483038286015251918281520191905f5b818110610cb2575050500390f35b8251845285945060209384019390920191600101610ca4565b82516001600160a01b0316855287965060209485019490920191600101610c86565b60ff6003610cff8399969798996119dc565b50015416610d15575b6001019594939295610c61565b90610d58600191610d25846119dc565b50838060a01b03905416610d39828b611b52565b526002610d45856119dc565b500154610d528288611b52565b52611b00565b919050610d08565b60ff6003610d6d836119dc565b50015416610d7e575b600101610bf8565b91610d8a600191611b00565b929050610d76565b346101aa575f3660031901126101aa576020600554604051908152f35b346101aa575f3660031901126101aa5760025460405160089190911c6001600160a01b03168152602090f35b346101aa575f3660031901126101aa57602060ff60025416604051908152f35b346101aa5760203660031901126101aa57600435610e1d60ff60065416611a84565b801561115857335f52600760205260405f2054811161111d57610e4e610e4560045483611ac2565b60055490611ad5565b6002546040516370a0823160e01b8152306004820152906020908290602490829060081c6001600160a01b03165afa908115610427575f916110eb575b50818110610f69575b5081610ea35f93600554611af3565b600555610eb282600454611af3565b600455338352600760205260408320610ecc828254611af3565b905560025460405163a9059cbb60e01b81523360048201526024810184905293602091859160449183919060081c6001600160a01b03165af192831561042757602093610f4e575b5060405190828252838201527ff279e6a1f5e320cca91135676d9cb6e44ca8a08c0b88342bcdb1144f6511b56860403392a2604051908152f35b610f6490843d86116109485761093b8183611920565b610f14565b610f739082611af3565b5f905b600a548210806110e2575b156110095760ff6003610f93846119dc565b50015416158015610ff4575b610fea57610fde610fe4916002610fb5856119dc565b5001548082108183180218906105c082610fce876119dc565b50546001600160a01b0316611e05565b91611b00565b90610f76565b90610fe490611b00565b506002611000836119dc565b50015415610f9f565b50506002546040516370a0823160e01b8152306004820152906020908290602490829060081c6001600160a01b03165afa80156104275782915f916110ad575b50106110555782610e94565b60405162461bcd60e51b815260206004820152602a60248201527f496e73756666696369656e74206c6971756964697479206166746572206465616044820152696c6c6f636174696f6e7360b01b6064820152608490fd5b9150506020813d6020116110da575b816110c960209383611920565b810103126101aa5781905184611049565b3d91506110bc565b50801515610f81565b90506020813d602011611115575b8161110660209383611920565b810103126101aa575183610e8b565b3d91506110f9565b60405162461bcd60e51b8152602060048201526013602482015272496e73756666696369656e742073686172657360681b6044820152606490fd5b60405162461bcd60e51b8152602060048201526011602482015270043616e6e6f74207769746864726177203607c1b6044820152606490fd5b346101aa5760803660031901126101aa576111aa611965565b602435906001600160a01b0382168083036101aa576044356001600160401b0381116101aa576111de903690600401611996565b926064356001600160401b0381116101aa576111fe903690600401611996565b9260ff6006541661162257600380546001600160a01b0319166001600160a01b039290921691909117905560028054610100600160a81b03191660089290921b610100600160a81b031691909117905582516001600160401b0381116109b6576112685f546118cd565b601f81116115bb575b506020601f821160011461154f57819293945f92611544575b50508160011b915f199060031b1c1916175f555b81516001600160401b0381116109b6576112b96001546118cd565b601f81116114dc575b50602092601f821160011461147057928192935f92611465575b50508160011b915f199060031b1c1916176001555b60405163313ce56760e01b8152602081600481855afa8015610427575f90611428575b6002805460ff191660ff929092169190911790555060405163095ea7b360e01b81527f00000000000000000000000000000000000000000000000000000000000000006001600160a01b031660048201525f196024820152906020826044815f855af1908115610427575f9260209261140d575b5060405163095ea7b360e01b81527f00000000000000000000000000000000000000000000000000000000000000006001600160a01b031660048201528319602482015292839160449183915af18015610427576113f0575b6006805460ff19166001179055005b6114089060203d6020116109485761093b8183611920565b6113e1565b61142390833d85116109485761093b8183611920565b611388565b506020813d60201161145d575b8161144260209383611920565b810103126101aa575160ff811681036101aa5760ff90611314565b3d9150611435565b0151905083806112dc565b601f1982169360015f525f805160206127e6833981519152915f5b8681106114c457508360019596106114ac575b505050811b016001556112f1565b01515f1960f88460031b161c1916905583808061149e565b9192602060018192868501518155019401920161148b565b60015f52601f820160051c5f805160206127e683398151915201906020831061152f575b601f0160051c5f805160206127e683398151915201905b81811061152457506112c2565b5f8155600101611517565b5f805160206127e68339815191529150611500565b01519050848061128a565b601f198216905f80525f805160206127c6833981519152915f5b8181106115a35750958360019596971061158b575b505050811b015f5561129e565b01515f1960f88460031b161c1916905584808061157e565b9192602060018192868b015181550194019201611569565b5f8052601f820160051c5f805160206127c683398151915201906020831061160d575b601f0160051c5f805160206127c683398151915201905b8181106116025750611271565b5f81556001016115f5565b5f805160206127c683398151915291506115de565b60405162461bcd60e51b8152602060048201526013602482015272105b1c9958591e481a5b9a5d1a585b1a5e9959606a1b6044820152606490fd5b346101aa5760203660031901126101aa576001600160a01b0361167e611965565b165f52600c602052602060405f2054604051908152f35b346101aa575f3660031901126101aa576020610403611a19565b346101aa575f3660031901126101aa57602060ff600654166040519015158152f35b346101aa5760203660031901126101aa576001600160a01b036116f2611965565b165f52600b60205260405f2060ff600182549201541690610b2a60405192839283909291602090604083019483521515910152565b346101aa575f3660031901126101aa576040517f00000000000000000000000000000000000000000000000000000000000000006001600160a01b03168152602090f35b346101aa5760203660031901126101aa57611784611965565b5f602060405161179381611905565b82815201526001600160a01b03165f908152600b60205260409081902081516117bb81611905565b602060ff60018454948585520154169101901515815282519182525115156020820152f35b346101aa575f3660031901126101aa576040515f80546117ff816118cd565b8084529060018116908115610b79575060011461182657610b2a83610b1681850382611920565b5f8080525f805160206127c6833981519152939250905b80821061185557509091508101602001610b16610b06565b91926001816020925483858801015201910190929161183d565b346101aa575f3660031901126101aa576040517f00000000000000000000000000000000000000000000000000000000000000006001600160a01b03168152602090f35b346101aa575f3660031901126101aa576020906004548152f35b90600182811c921680156118fb575b60208310146118e757565b634e487b7160e01b5f52602260045260245ffd5b91607f16916118dc565b604081019081106001600160401b038211176109b657604052565b90601f801991011681019081106001600160401b038211176109b657604052565b805180835260209291819084018484015e5f828201840152601f01601f1916010190565b600435906001600160a01b03821682036101aa57565b6001600160401b0381116109b657601f01601f191660200190565b81601f820112156101aa578035906119ad8261197b565b926119bb6040519485611920565b828452602083830101116101aa57815f926020809301838601378301015290565b600a548110156119f857600a5f5260205f209060021b01905f90565b634e487b7160e01b5f52603260045260245ffd5b9190820180921161065157565b5f80600a54905b818110611a2c57505090565b60ff6003611a39836119dc565b50015416611a4a575b600101611a20565b91611a6460019182611a5b866119dc565b50015490611a0c565b929050611a42565b908160209103126101aa575180151581036101aa5790565b15611a8b57565b60405162461bcd60e51b815260206004820152600f60248201526e139bdd081a5b9a5d1a585b1a5e9959608a1b6044820152606490fd5b8181029291811591840414171561065157565b8115611adf570490565b634e487b7160e01b5f52601260045260245ffd5b9190820391821161065157565b5f1981146106515760010190565b6001600160401b0381116109b65760051b60200190565b8051156119f85760200190565b8051600110156119f85760400190565b8051600210156119f85760600190565b80518210156119f85760209160051b010190565b15611b6d57565b60405162461bcd60e51b815260206004820152600c60248201526b27b7363c9031bab930ba37b960a11b6044820152606490fd5b15611ba857565b60405162461bcd60e51b815260206004820152601060248201526f13585c9ad95d081b9bdd08199bdd5b9960821b6044820152606490fd5b15611be757565b60405162461bcd60e51b815260206004820152601d60248201527f546f74616c20616c6c6f636174696f6e206578636565647320313030250000006044820152606490fd5b51906001600160a01b03821682036101aa57565b908160609103126101aa5760405190606082018281106001600160401b038211176109b657611c90916040918252611c7781611c2c565b8452611c8560208201611c2c565b602085015201611c2c565b604082015290565b60405160809190611ca98382611920565b6003815291601f1901825f5b828110611cc157505050565b806060602080938501015201611cb5565b6020818303126101aa578051906001600160401b0382116101aa57019080601f830112156101aa57815191611d0683611b0e565b92611d146040519485611920565b80845260208085019160051b830101918383116101aa5760208101915b838310611d4057505050505090565b82516001600160401b0381116101aa57820185603f820112156101aa57602081015191611d6c8361197b565b611d796040519182611920565b83815260408385010188106101aa575f602085819660408397018386015e83010152815201920191611d31565b602081016020825282518091526040820191602060408360051b8301019401925f915b838310611dd857505050505090565b9091929394602080611df6600193603f198682030187528951611941565b97019301930191939290611dc9565b8115612295576001600160a01b0381165f818152600c60205260409020549092611e30821515611ba1565b5f198201918211610651576002611e46836119dc565b5001548111612281575b60405163c6c6728960e01b8152600481018590527f00000000000000000000000000000000000000000000000000000000000000006001600160a01b03169390602081602481885afa8015610427575f9061224e575b6060915060246040518097819363c3c95c7b60e01b835260048301525afa938415610427575f9461221d575b506040516370a0823160e01b8152306004820152602081602481895afa80156104275783915f916121e6575b50611f2091611f0c91611ac2565b6002611f17866119dc565b50015490611ad5565b90611f29611c98565b604051637d39aaf160e01b60208201527f00000000000000000000000000000000000000000000000000000000000000006001600160a01b0381166024830152620f424060448084019190915282529192611fd591611f89606482611920565b611f9285611b25565b52611f9c84611b25565b50604051631cdacd5960e31b60208201526001600160a01b03918216602482015292166044830152606482018490528160848101610367565b611fde82611b32565b52611fe881611b32565b5060208501516040909501516002546001600160a01b039182169660089190911c821691168181036121df576064915b87036121d95760645b604051926101208401958487106001600160401b038811176109b65760409687523085525f6020808701828152878a018e815260608901978852608089019d8e5260a0890194855260ff95861660c08a019081529690951660e08901908152620f42406101008a019081529a51633d93a7af60e11b9381019390935297516001600160a01b039081166024840152905181166044830152935184166064820152945183166084860152995190911660a48401525160c48301525160e482015290516101048201529151610124808401919091528252612135949161210761014482611920565b61211082611b42565b5261211a81611b42565b5060405180958192631592ca1b60e31b835260048301611da6565b0381837f00000000000000000000000000000000000000000000000000000000000000006001600160a01b03165af1928315610427576121a16020936002927fcf25af35f355434c1dce4120416a90ead032734765d0e4f0c8771cee2c911645966121b9575b506119dc565b50016121ae828254611af3565b9055604051908152a2565b6121d4903d805f833e6121cc8183611920565b810190611cd2565b61219b565b5f612021565b5f91612018565b9150506020813d602011612215575b8161220260209383611920565b810103126101aa57518290611f20611efe565b3d91506121f5565b61224091945060603d606011612247575b6122388183611920565b810190611c40565b925f611ed2565b503d61222e565b506020813d602011612279575b8161226860209383611920565b810103126101aa5760609051611ea6565b3d915061225b565b50600261228d826119dc565b500154611e50565b5050565b9080156122955760405163c6c6728960e01b81526001600160a01b0392831660048201819052927f00000000000000000000000000000000000000000000000000000000000000001690602081602481855afa8015610427575f906125bd575b6060915060246040518094819363c3c95c7b60e01b835260048301525afa908115610427575f9161259e575b5061232e611c98565b604051637d39aaf160e01b60208201527f00000000000000000000000000000000000000000000000000000000000000006001600160a01b0381166024830152620f4240604480840191909152825290612389606482611920565b61239283611b25565b5261239c82611b25565b50600254604051631cdacd5960e31b60208201526001600160a01b0360089290921c8216602482015291166044820152606481018490526123e08160848101610367565b6123e982611b32565b526123f381611b32565b50602082015160409283015192516001600160a01b039182169360e082019392166001600160401b038411828510176109b65760409384523082525f60208084018281528487018a8152606086019889526080860194855260a08601848152620f424060c0880190815298516305272a7760e31b9481019490945295516001600160a01b0390811660248501529151821660448401525181166064830152965187166084820152915190951660a4820152905160c4820152915160e48084019190915282526124f792916124c961010482611920565b6124d282611b42565b526124dc81611b42565b5060405180938192631592ca1b60e31b835260048301611da6565b0381837f00000000000000000000000000000000000000000000000000000000000000006001600160a01b03165af1801561042757612586575b50815f52600c60205260405f20545f198101908111610651577f472f36e28bb47edb7c69c9e2ac00a77c66b505df54e9c818ac57110b0629e8c39160026125796020936119dc565b50016121ae828254611a0c565b612599903d805f833e6121cc8183611920565b612531565b6125b7915060603d606011612247576122388183611920565b5f612325565b506020813d6020116125e8575b816125d760209383611920565b810103126101aa57606090516122f9565b3d91506125ca565b6004541561279a575f80600a54905b81811061279c575b50501561279a5761261c6127106105ca611a19565b5f5b600a548110156127735760ff6003612635836119dc565b500154161561276b5761271061265b6004546001612652856119dc565b50015490611ac2565b04906002612668826119dc565b500154918281111561272d5760249261268091611af3565b6002546040516370a0823160e01b815230600482015293602091859190829060081c6001600160a01b03165afa8015610427575f906126fb575b600193508082116126e857506126e2906126d3836119dc565b50848060a01b03905416612299565b0161261e565b6126f691506126d3836119dc565b6126e2565b506020833d8211612725575b8161271460209383611920565b810103126101aa57600192516126ba565b3d9150612707565b82600193821061273f575b50506126e2565b6127649161274c91611af3565b612755836119dc565b50848060a01b03905416611e05565b5f80612738565b6001906126e2565b507fc741dbaad15a4f298fe8d80943fa8e005e7bcb2f5b0a0c8dec1fc35be457f1465f80a1565b565b60ff60036127a9836119dc565b500154166127b9576001016125ff565b50505060015f8061260756fe290decd9548b62a8d60345a988386fc84ba6bc95484008f6362f93160ef3e563b10e2d527612073b26eecdfd717e6a320cf44b4afac2b0732d9fcbe2b7fa0cf6a26469706673582212202f85c96f7a48c20bda69a513028035d1e0c7049884a6af4792d68ad613eb7cee64736f6c634300081a00330000000000000000000000008cb82ffca2ea57b29ad137b9a8cdca718233ff96000000000000000000000000012289d4954b667fb1bd55445b6250b1eed6c0f1000000000000000000000000e50914672560e18b2f5ce311a4557880df05000c000000000000000000000000823f91041c1cecdc65ee8a7335f471ac1a08caf00000000000000000000000007ba5c9aabd99423e809b0a1b5caf186736e96c79000000000000000000000000eba6eca6cbf9098d7076d3a06577b45de90113e10000000000000000000000002c53ce7143d24a65410107f50e4aabad9a164480",
        "nonce": "0x214",
        "chainId": "0x279f"
      },
      "additionalContracts": [],
      "isFixedGasLimit": false
    },
    {
      "hash": "0x5cbd26060c30f315b38a21d2b1727efa6fcdf6bbe7398ba99d295e0cb9adba4e",
      "transactionType": "CALL",
      "contractName": null,
      "contractAddress": "0x6e7e29c33cdc76b8e758edfc71a2f256256e1c42",
      "function": "addCurator(address,string,string)",
      "arguments": [
        "0x6EFb11aC41B6657c32dAc5Ed4874082C700BbA29",
        "Test Curator 1",
        "https://encrypted-tbn0.gstatic.com/images?q=tbn:ANd9GcQVh3inqKyGGbBhoPo6jBMzGY5eIgx9fCJj7E6fORXA-0SngqoiOsgiZ3CGWbxKqXXVmrg&usqp=CAU"
      ],
      "transaction": {
        "from": "0x6efb11ac41b6657c32dac5ed4874082c700bba29",
        "to": "0x6e7e29c33cdc76b8e758edfc71a2f256256e1c42",
        "gas": "0x5d5e5",
        "value": "0x0",
        "input": "0xbc2d5ca60000000000000000000000006efb11ac41b6657c32dac5ed4874082c700bba29000000000000000000000000000000000000000000000000000000000000006000000000000000000000000000000000000000000000000000000000000000a0000000000000000000000000000000000000000000000000000000000000000e546573742043757261746f722031000000000000000000000000000000000000000000000000000000000000000000000000000000000000000000000000008468747470733a2f2f656e637279707465642d74626e302e677374617469632e636f6d2f696d616765733f713d74626e3a414e6439476351566833696e714b7947476242686f506f366a424d7a475935654967783966434a6a374536664f5258412d30536e67716f694f7367695a3343475762784b715858566d726726757371703d43415500000000000000000000000000000000000000000000000000000000",
        "nonce": "0x215",
        "chainId": "0x279f"
      },
      "additionalContracts": [],
      "isFixedGasLimit": false
    },
    {
      "hash": "0x8003026f7e533f13d2f3f33518363a05790045104127e64c0dcf656881cbea29",
      "transactionType": "CALL",
      "contractName": null,
      "contractAddress": "0x6e7e29c33cdc76b8e758edfc71a2f256256e1c42",
      "function": "addCurator(address,string,string)",
      "arguments": [
        "0x6EFb11aC41B6657c32dAc5Ed4874082C700BbA29",
        "Test Curator 2",
        "https://www.sevell.com/wp-content/uploads/2024/07/peloton-logo-red.png"
      ],
      "transaction": {
        "from": "0x6efb11ac41b6657c32dac5ed4874082c700bba29",
        "to": "0x6e7e29c33cdc76b8e758edfc71a2f256256e1c42",
        "gas": "0x1e141",
        "value": "0x0",
        "input": "0xbc2d5ca60000000000000000000000006efb11ac41b6657c32dac5ed4874082c700bba29000000000000000000000000000000000000000000000000000000000000006000000000000000000000000000000000000000000000000000000000000000a0000000000000000000000000000000000000000000000000000000000000000e546573742043757261746f722032000000000000000000000000000000000000000000000000000000000000000000000000000000000000000000000000004668747470733a2f2f7777772e736576656c6c2e636f6d2f77702d636f6e74656e742f75706c6f6164732f323032342f30372f70656c6f746f6e2d6c6f676f2d7265642e706e670000000000000000000000000000000000000000000000000000",
        "nonce": "0x216",
        "chainId": "0x279f"
      },
      "additionalContracts": [],
      "isFixedGasLimit": false
    },
    {
      "hash": "0xed09ab69eb5fb67f5f82ef52a26a3aa326484857a4dbe09f4101d22367961f20",
      "transactionType": "CALL",
      "contractName": null,
      "contractAddress": "0x6e7e29c33cdc76b8e758edfc71a2f256256e1c42",
      "function": "addCurator(address,string,string)",
      "arguments": [
        "0x77C037fbF42e85dB1487B390b08f58C00f438812",
        "Test Curator 3",
        "https://images-platform.99static.com//7wcGDCCvD13MOorSSdbhqGNU3qk=/256x2289:756x2789/fit-in/590x590/99designs-contests-attachments/70/70438/attachment_70438547"
      ],
      "transaction": {
        "from": "0x6efb11ac41b6657c32dac5ed4874082c700bba29",
        "to": "0x6e7e29c33cdc76b8e758edfc71a2f256256e1c42",
        "gas": "0x57b62",
        "value": "0x0",
        "input": "0xbc2d5ca600000000000000000000000077c037fbf42e85db1487b390b08f58c00f438812000000000000000000000000000000000000000000000000000000000000006000000000000000000000000000000000000000000000000000000000000000a0000000000000000000000000000000000000000000000000000000000000000e546573742043757261746f722033000000000000000000000000000000000000000000000000000000000000000000000000000000000000000000000000009f68747470733a2f2f696d616765732d706c6174666f726d2e39397374617469632e636f6d2f2f37776347444343764431334d4f6f72535364626871474e5533716b3d2f32353678323238393a37353678323738392f6669742d696e2f353930783539302f393964657369676e732d636f6e74657374732d6174746163686d656e74732f37302f37303433382f6174746163686d656e745f373034333835343700",
        "nonce": "0x217",
        "chainId": "0x279f"
      },
      "additionalContracts": [],
      "isFixedGasLimit": false
    },
    {
      "hash": "0x170feb366d3c8240aee84515b4d8ecba784e22813d2b53bc290fccb2740fd435",
      "transactionType": "CALL",
      "contractName": null,
      "contractAddress": "0x2cb90f0d8a09b589bafdbe8797cdb538e412135c",
      "function": "deployCuratorContract(string,string,uint256)",
      "arguments": [
        "Curator One",
        "ipfs://curator1",
        "500"
      ],
      "transaction": {
        "from": "0x6efb11ac41b6657c32dac5ed4874082c700bba29",
        "to": "0x2cb90f0d8a09b589bafdbe8797cdb538e412135c",
        "gas": "0x502e9",
        "value": "0x0",
        "input": "0x8fb241fb000000000000000000000000000000000000000000000000000000000000006000000000000000000000000000000000000000000000000000000000000000a000000000000000000000000000000000000000000000000000000000000001f4000000000000000000000000000000000000000000000000000000000000000b43757261746f72204f6e65000000000000000000000000000000000000000000000000000000000000000000000000000000000000000000000000000000000f697066733a2f2f63757261746f72310000000000000000000000000000000000",
        "nonce": "0x218",
        "chainId": "0x279f"
      },
      "additionalContracts": [
        {
          "transactionType": "CREATE",
          "address": "0xa4b16c61e500e7d24907cc149904066dc5abe516",
          "initCode": "0x3d602d80600a3d3981f3363d3d373d3d3d363d73e50a8b675b73c8fc594a095d5153fe7f6ba814515af43d82803e903d91602b57fd5bf3"
        }
      ],
      "isFixedGasLimit": false
    },
    {
      "hash": "0x2075654ba1eba0fc6a35cfb3934e73a11ad635a286e49f7db07ea79f3907160e",
      "transactionType": "CALL",
      "contractName": null,
      "contractAddress": "0x52ef58ff7156f9cb525a578ea09c1eb1edb60dc6",
      "function": "createVault(address,address,string,string,address,address)",
      "arguments": [
        "0xa4B16c61E500E7D24907cc149904066dC5aBE516",
        "0x58389610A3D13e8f380ee2bA077A6F36f2A90834",
        "Blue Chip Portfolio",
        "vBLUE",
        "0xeBA6ECa6cBf9098D7076D3a06577B45dE90113E1",
        "0x2c53Ce7143D24A65410107F50e4AABad9A164480"
      ],
      "transaction": {
        "from": "0x6efb11ac41b6657c32dac5ed4874082c700bba29",
        "to": "0x52ef58ff7156f9cb525a578ea09c1eb1edb60dc6",
        "gas": "0x346087",
        "value": "0x0",
        "input": "0xd41329b3000000000000000000000000a4b16c61e500e7d24907cc149904066dc5abe51600000000000000000000000058389610a3d13e8f380ee2ba077a6f36f2a9083400000000000000000000000000000000000000000000000000000000000000c00000000000000000000000000000000000000000000000000000000000000100000000000000000000000000eba6eca6cbf9098d7076d3a06577b45de90113e10000000000000000000000002c53ce7143d24a65410107f50e4aabad9a1644800000000000000000000000000000000000000000000000000000000000000013426c7565204368697020506f7274666f6c696f00000000000000000000000000000000000000000000000000000000000000000000000000000000000000000576424c5545000000000000000000000000000000000000000000000000000000",
        "nonce": "0x219",
        "chainId": "0x279f"
      },
      "additionalContracts": [
        {
          "transactionType": "CREATE",
          "address": "0xd55c09f4557b56352ea132963207d1987464f52c",
          "initCode": "0x61016080604052346101ff5760e081612aa280380380916100208285610203565b8339810103126101ff576100338161023a565b61003f6020830161023a565b61004b6040840161023a565b926100586060820161023a565b906100656080820161023a565b9161007e60c061007760a0850161023a565b930161023a565b608086905260a09490945260c086905260e052610120526101005261014081905260405163095ea7b360e01b81526001600160a01b0392831660048201525f19602482015291166020826044815f855af180156101d9575f936020936044926101e4575b5060405163095ea7b360e01b81526001600160a01b039091166004820152841960248201529384928391905af180156101d9576101aa575b60405161283b9081610267823960805181818161017b01528181610892015281816113380152818161213a01526124fc015260a051818181610bb201528181611e6601526122c2015260c051818181610a9f0152611398015260e05181818161025d01526123400152610100518181816102a10152611f3b015261012051816118840152610140518161173c0152f35b6101cb9060203d6020116101d2575b6101c38183610203565b81019061024e565b505f61011a565b503d6101b9565b6040513d5f823e3d90fd5b6101fa90853d87116101d2576101c38183610203565b6100e2565b5f80fd5b601f909101601f19168101906001600160401b0382119082101761022657604052565b634e487b7160e01b5f52604160045260245ffd5b51906001600160a01b03821682036101ff57565b908160209103126101ff575180151581036101ff579056fe6080806040526004361015610012575f80fd5b5f3560e01c90816301e1d114146118b35750806306ae70951461186f57806306fdde03146117e05780630cf85bcc1461176b578063126846ec146117275780631488ca08146116d1578063158ef93e146116af57806315d3b5d814611695578063174009a41461165d5780632016a0d2146111915780632e1a7d4d14610dfb578063313ce56714610ddb57806338d52e0f14610daf5780633a98ef3914610d9257806341826c2d14610be1578063660d0d6714610b9d57806395d89b4114610ace5780639c8b2cfb14610a8a578063a5f879ca146106aa578063a85a9f1a146104e7578063b1283e7714610485578063b6b55f25146102ed578063b996de67146102d0578063d0d0ed051461028c578063d7cd394914610248578063de35f5cb1461022b578063de6c3f731461020e578063e66f53b7146101e6578063f656ba51146101ae5763f887ea4014610166575f80fd5b346101aa575f3660031901126101aa576040517f00000000000000000000000000000000000000000000000000000000000000006001600160a01b03168152602090f35b5f80fd5b346101aa5760203660031901126101aa576001600160a01b036101cf611965565b165f526007602052602060405f2054604051908152f35b346101aa575f3660031901126101aa576003546040516001600160a01b039091168152602090f35b346101aa575f3660031901126101aa576020600954604051908152f35b346101aa575f3660031901126101aa576020600d54604051908152f35b346101aa575f3660031901126101aa576040517f00000000000000000000000000000000000000000000000000000000000000006001600160a01b03168152602090f35b346101aa575f3660031901126101aa576040517f00000000000000000000000000000000000000000000000000000000000000006001600160a01b03168152602090f35b346101aa575f3660031901126101aa576020600854604051908152f35b346101aa5760203660031901126101aa5760043561030f60ff60065416611a84565b801561044d57600554806104325750805b6002546040516323b872dd60e01b60208281019182523360248401523060448401526064830186905260089390931c6001600160a01b03169492915f919061037581608481015b03601f198101835282611920565b519082875af115610427575f513d61041e5750823b155b61040b57602092506103a081600454611a0c565b6004556103af82600554611a0c565b600555335f526007835260405f206103c8838254611a0c565b905560405190815281838201527f90890809c654f11d6e72a28fa60149770a0d11ec6c92319d6ceb2bb0a4ea1a1560403392a26104036125f0565b604051908152f35b82635274afe760e01b5f5260045260245ffd5b6001141561038c565b6040513d5f823e3d90fd5b61043f6104489183611ac2565b60045490611ad5565b610320565b60405162461bcd60e51b815260206004820152601060248201526f043616e6e6f74206465706f73697420360841b6044820152606490fd5b346101aa5760203660031901126101aa57600435600a548110156101aa576104ae6080916119dc565b5060018060a01b038154169060018101549060ff6003600283015492015416916040519384526020840152604083015215156060820152f35b346101aa5760603660031901126101aa57610500611965565b60243590604435801515918282036101aa5761052760018060a01b03600354163314611b66565b61053560ff60065416611a84565b6127108411610665576001600160a01b03165f818152600c6020526040902054909390610563811515611ba1565b5f198101908111610651577fe8e3c5374d4bcf968f769c7c2e8c27941d0a98475cd4bf5e0a83a56da453c60f936105f88460036105e5856105d16127106105ca8a6105c560016105b56106379d6119dc565b5001546105c0611a19565b611af3565b611a0c565b1115611be0565b8760016105dd836119dc565b5001556119dc565b50019060ff801983541691151516179055565b60016040519161060783611905565b84835260208301908152875f52600b60205260405f209251835551151591019060ff801983541691151516179055565b604080519182529115156020820152a261064f6125f0565b005b634e487b7160e01b5f52601160045260245ffd5b60405162461bcd60e51b815260206004820152601760248201527f50657263656e74616765206578636565647320313030250000000000000000006044820152606490fd5b346101aa5760403660031901126101aa576106c3611965565b602435906106dc60018060a01b03600354163314611b66565b6001600160a01b038116918215610a4c576127108111610a0757825f52600c60205260405f20546109ca57604051608081018181106001600160401b038211176109b657604052838152602081019082825260408101905f82526060810160018152600a54680100000000000000008110156109b6578060016107629201600a556119dc565b9390936109a3576107b29460039360018060a01b039051166bffffffffffffffffffffffff60a01b86541617855551600185015551600284015551151591019060ff801983541691151516179055565b600a54835f52600c60205260405f20556108036040516107d181611905565b828152600160208201818152865f52600b60205260405f209251835551151591019060ff801983541691151516179055565b6002546040516370a0823160e01b815230600482015260089190911c6001600160a01b03169190602081602481865afa80156104275782915f9161096c575b506127106108535f93602093611ac2565b049360446040518094819363095ea7b360e01b83528a6004840152811960248401525af180156104275761094f575b5060405163095ea7b360e01b81527f00000000000000000000000000000000000000000000000000000000000000006001600160a01b031660048201525f196024820152926020846044815f895af1928315610427577fa64754291535175942be6f35fba8deab36d97ea608b17d06cc5efb985e17215f94602094610924575b5080610914575b5050604051908152a2005b61091d91612299565b8480610909565b61094390853d8711610948575b61093b8183611920565b810190611a6c565b610902565b503d610931565b6109679060203d6020116109485761093b8183611920565b610882565b9150506020813d60201161099b575b8161098860209383611920565b810103126101aa57518190612710610842565b3d915061097b565b634e487b7160e01b5f525f60045260245ffd5b634e487b7160e01b5f52604160045260245ffd5b60405162461bcd60e51b81526020600482015260156024820152744d61726b657420616c72656164792065786973747360581b6044820152606490fd5b60405162461bcd60e51b815260206004820152601d60248201527f496e76616c696420616c6c6f636174696f6e2070657263656e746167650000006044820152606490fd5b60405162461bcd60e51b8152602060048201526016602482015275496e76616c6964206d61726b6574206164647265737360501b6044820152606490fd5b346101aa575f3660031901126101aa576040517f00000000000000000000000000000000000000000000000000000000000000006001600160a01b03168152602090f35b346101aa575f3660031901126101aa576040515f600154610aee816118cd565b8084529060018116908115610b795750600114610b2e575b610b2a83610b1681850382611920565b604051918291602083526020830190611941565b0390f35b60015f9081525f805160206127e6833981519152939250905b808210610b5f57509091508101602001610b16610b06565b919260018160209254838588010152019101909291610b47565b60ff191660208086019190915291151560051b84019091019150610b169050610b06565b346101aa575f3660031901126101aa576040517f00000000000000000000000000000000000000000000000000000000000000006001600160a01b03168152602090f35b346101aa575f3660031901126101aa575f80600a54905b818110610d605750610c0982611b0e565b90610c176040519283611920565b828252610c2383611b0e565b6020830190601f1901368237610c51610c3b85611b0e565b94610c496040519687611920565b808652611b0e565b602085019290601f19013684375f805b828110610ced57505050604051938493604085019060408652518091526060850192905f5b818110610ccb575050506020908483038286015251918281520191905f5b818110610cb2575050500390f35b8251845285945060209384019390920191600101610ca4565b82516001600160a01b0316855287965060209485019490920191600101610c86565b60ff6003610cff8399969798996119dc565b50015416610d15575b6001019594939295610c61565b90610d58600191610d25846119dc565b50838060a01b03905416610d39828b611b52565b526002610d45856119dc565b500154610d528288611b52565b52611b00565b919050610d08565b60ff6003610d6d836119dc565b50015416610d7e575b600101610bf8565b91610d8a600191611b00565b929050610d76565b346101aa575f3660031901126101aa576020600554604051908152f35b346101aa575f3660031901126101aa5760025460405160089190911c6001600160a01b03168152602090f35b346101aa575f3660031901126101aa57602060ff60025416604051908152f35b346101aa5760203660031901126101aa57600435610e1d60ff60065416611a84565b801561115857335f52600760205260405f2054811161111d57610e4e610e4560045483611ac2565b60055490611ad5565b6002546040516370a0823160e01b8152306004820152906020908290602490829060081c6001600160a01b03165afa908115610427575f916110eb575b50818110610f69575b5081610ea35f93600554611af3565b600555610eb282600454611af3565b600455338352600760205260408320610ecc828254611af3565b905560025460405163a9059cbb60e01b81523360048201526024810184905293602091859160449183919060081c6001600160a01b03165af192831561042757602093610f4e575b5060405190828252838201527ff279e6a1f5e320cca91135676d9cb6e44ca8a08c0b88342bcdb1144f6511b56860403392a2604051908152f35b610f6490843d86116109485761093b8183611920565b610f14565b610f739082611af3565b5f905b600a548210806110e2575b156110095760ff6003610f93846119dc565b50015416158015610ff4575b610fea57610fde610fe4916002610fb5856119dc565b5001548082108183180218906105c082610fce876119dc565b50546001600160a01b0316611e05565b91611b00565b90610f76565b90610fe490611b00565b506002611000836119dc565b50015415610f9f565b50506002546040516370a0823160e01b8152306004820152906020908290602490829060081c6001600160a01b03165afa80156104275782915f916110ad575b50106110555782610e94565b60405162461bcd60e51b815260206004820152602a60248201527f496e73756666696369656e74206c6971756964697479206166746572206465616044820152696c6c6f636174696f6e7360b01b6064820152608490fd5b9150506020813d6020116110da575b816110c960209383611920565b810103126101aa5781905184611049565b3d91506110bc565b50801515610f81565b90506020813d602011611115575b8161110660209383611920565b810103126101aa575183610e8b565b3d91506110f9565b60405162461bcd60e51b8152602060048201526013602482015272496e73756666696369656e742073686172657360681b6044820152606490fd5b60405162461bcd60e51b8152602060048201526011602482015270043616e6e6f74207769746864726177203607c1b6044820152606490fd5b346101aa5760803660031901126101aa576111aa611965565b602435906001600160a01b0382168083036101aa576044356001600160401b0381116101aa576111de903690600401611996565b926064356001600160401b0381116101aa576111fe903690600401611996565b9260ff6006541661162257600380546001600160a01b0319166001600160a01b039290921691909117905560028054610100600160a81b03191660089290921b610100600160a81b031691909117905582516001600160401b0381116109b6576112685f546118cd565b601f81116115bb575b506020601f821160011461154f57819293945f92611544575b50508160011b915f199060031b1c1916175f555b81516001600160401b0381116109b6576112b96001546118cd565b601f81116114dc575b50602092601f821160011461147057928192935f92611465575b50508160011b915f199060031b1c1916176001555b60405163313ce56760e01b8152602081600481855afa8015610427575f90611428575b6002805460ff191660ff929092169190911790555060405163095ea7b360e01b81527f00000000000000000000000000000000000000000000000000000000000000006001600160a01b031660048201525f196024820152906020826044815f855af1908115610427575f9260209261140d575b5060405163095ea7b360e01b81527f00000000000000000000000000000000000000000000000000000000000000006001600160a01b031660048201528319602482015292839160449183915af18015610427576113f0575b6006805460ff19166001179055005b6114089060203d6020116109485761093b8183611920565b6113e1565b61142390833d85116109485761093b8183611920565b611388565b506020813d60201161145d575b8161144260209383611920565b810103126101aa575160ff811681036101aa5760ff90611314565b3d9150611435565b0151905083806112dc565b601f1982169360015f525f805160206127e6833981519152915f5b8681106114c457508360019596106114ac575b505050811b016001556112f1565b01515f1960f88460031b161c1916905583808061149e565b9192602060018192868501518155019401920161148b565b60015f52601f820160051c5f805160206127e683398151915201906020831061152f575b601f0160051c5f805160206127e683398151915201905b81811061152457506112c2565b5f8155600101611517565b5f805160206127e68339815191529150611500565b01519050848061128a565b601f198216905f80525f805160206127c6833981519152915f5b8181106115a35750958360019596971061158b575b505050811b015f5561129e565b01515f1960f88460031b161c1916905584808061157e565b9192602060018192868b015181550194019201611569565b5f8052601f820160051c5f805160206127c683398151915201906020831061160d575b601f0160051c5f805160206127c683398151915201905b8181106116025750611271565b5f81556001016115f5565b5f805160206127c683398151915291506115de565b60405162461bcd60e51b8152602060048201526013602482015272105b1c9958591e481a5b9a5d1a585b1a5e9959606a1b6044820152606490fd5b346101aa5760203660031901126101aa576001600160a01b0361167e611965565b165f52600c602052602060405f2054604051908152f35b346101aa575f3660031901126101aa576020610403611a19565b346101aa575f3660031901126101aa57602060ff600654166040519015158152f35b346101aa5760203660031901126101aa576001600160a01b036116f2611965565b165f52600b60205260405f2060ff600182549201541690610b2a60405192839283909291602090604083019483521515910152565b346101aa575f3660031901126101aa576040517f00000000000000000000000000000000000000000000000000000000000000006001600160a01b03168152602090f35b346101aa5760203660031901126101aa57611784611965565b5f602060405161179381611905565b82815201526001600160a01b03165f908152600b60205260409081902081516117bb81611905565b602060ff60018454948585520154169101901515815282519182525115156020820152f35b346101aa575f3660031901126101aa576040515f80546117ff816118cd565b8084529060018116908115610b79575060011461182657610b2a83610b1681850382611920565b5f8080525f805160206127c6833981519152939250905b80821061185557509091508101602001610b16610b06565b91926001816020925483858801015201910190929161183d565b346101aa575f3660031901126101aa576040517f00000000000000000000000000000000000000000000000000000000000000006001600160a01b03168152602090f35b346101aa575f3660031901126101aa576020906004548152f35b90600182811c921680156118fb575b60208310146118e757565b634e487b7160e01b5f52602260045260245ffd5b91607f16916118dc565b604081019081106001600160401b038211176109b657604052565b90601f801991011681019081106001600160401b038211176109b657604052565b805180835260209291819084018484015e5f828201840152601f01601f1916010190565b600435906001600160a01b03821682036101aa57565b6001600160401b0381116109b657601f01601f191660200190565b81601f820112156101aa578035906119ad8261197b565b926119bb6040519485611920565b828452602083830101116101aa57815f926020809301838601378301015290565b600a548110156119f857600a5f5260205f209060021b01905f90565b634e487b7160e01b5f52603260045260245ffd5b9190820180921161065157565b5f80600a54905b818110611a2c57505090565b60ff6003611a39836119dc565b50015416611a4a575b600101611a20565b91611a6460019182611a5b866119dc565b50015490611a0c565b929050611a42565b908160209103126101aa575180151581036101aa5790565b15611a8b57565b60405162461bcd60e51b815260206004820152600f60248201526e139bdd081a5b9a5d1a585b1a5e9959608a1b6044820152606490fd5b8181029291811591840414171561065157565b8115611adf570490565b634e487b7160e01b5f52601260045260245ffd5b9190820391821161065157565b5f1981146106515760010190565b6001600160401b0381116109b65760051b60200190565b8051156119f85760200190565b8051600110156119f85760400190565b8051600210156119f85760600190565b80518210156119f85760209160051b010190565b15611b6d57565b60405162461bcd60e51b815260206004820152600c60248201526b27b7363c9031bab930ba37b960a11b6044820152606490fd5b15611ba857565b60405162461bcd60e51b815260206004820152601060248201526f13585c9ad95d081b9bdd08199bdd5b9960821b6044820152606490fd5b15611be757565b60405162461bcd60e51b815260206004820152601d60248201527f546f74616c20616c6c6f636174696f6e206578636565647320313030250000006044820152606490fd5b51906001600160a01b03821682036101aa57565b908160609103126101aa5760405190606082018281106001600160401b038211176109b657611c90916040918252611c7781611c2c565b8452611c8560208201611c2c565b602085015201611c2c565b604082015290565b60405160809190611ca98382611920565b6003815291601f1901825f5b828110611cc157505050565b806060602080938501015201611cb5565b6020818303126101aa578051906001600160401b0382116101aa57019080601f830112156101aa57815191611d0683611b0e565b92611d146040519485611920565b80845260208085019160051b830101918383116101aa5760208101915b838310611d4057505050505090565b82516001600160401b0381116101aa57820185603f820112156101aa57602081015191611d6c8361197b565b611d796040519182611920565b83815260408385010188106101aa575f602085819660408397018386015e83010152815201920191611d31565b602081016020825282518091526040820191602060408360051b8301019401925f915b838310611dd857505050505090565b9091929394602080611df6600193603f198682030187528951611941565b97019301930191939290611dc9565b8115612295576001600160a01b0381165f818152600c60205260409020549092611e30821515611ba1565b5f198201918211610651576002611e46836119dc565b5001548111612281575b60405163c6c6728960e01b8152600481018590527f00000000000000000000000000000000000000000000000000000000000000006001600160a01b03169390602081602481885afa8015610427575f9061224e575b6060915060246040518097819363c3c95c7b60e01b835260048301525afa938415610427575f9461221d575b506040516370a0823160e01b8152306004820152602081602481895afa80156104275783915f916121e6575b50611f2091611f0c91611ac2565b6002611f17866119dc565b50015490611ad5565b90611f29611c98565b604051637d39aaf160e01b60208201527f00000000000000000000000000000000000000000000000000000000000000006001600160a01b0381166024830152620f424060448084019190915282529192611fd591611f89606482611920565b611f9285611b25565b52611f9c84611b25565b50604051631cdacd5960e31b60208201526001600160a01b03918216602482015292166044830152606482018490528160848101610367565b611fde82611b32565b52611fe881611b32565b5060208501516040909501516002546001600160a01b039182169660089190911c821691168181036121df576064915b87036121d95760645b604051926101208401958487106001600160401b038811176109b65760409687523085525f6020808701828152878a018e815260608901978852608089019d8e5260a0890194855260ff95861660c08a019081529690951660e08901908152620f42406101008a019081529a51633d93a7af60e11b9381019390935297516001600160a01b039081166024840152905181166044830152935184166064820152945183166084860152995190911660a48401525160c48301525160e482015290516101048201529151610124808401919091528252612135949161210761014482611920565b61211082611b42565b5261211a81611b42565b5060405180958192631592ca1b60e31b835260048301611da6565b0381837f00000000000000000000000000000000000000000000000000000000000000006001600160a01b03165af1928315610427576121a16020936002927fcf25af35f355434c1dce4120416a90ead032734765d0e4f0c8771cee2c911645966121b9575b506119dc565b50016121ae828254611af3565b9055604051908152a2565b6121d4903d805f833e6121cc8183611920565b810190611cd2565b61219b565b5f612021565b5f91612018565b9150506020813d602011612215575b8161220260209383611920565b810103126101aa57518290611f20611efe565b3d91506121f5565b61224091945060603d606011612247575b6122388183611920565b810190611c40565b925f611ed2565b503d61222e565b506020813d602011612279575b8161226860209383611920565b810103126101aa5760609051611ea6565b3d915061225b565b50600261228d826119dc565b500154611e50565b5050565b9080156122955760405163c6c6728960e01b81526001600160a01b0392831660048201819052927f00000000000000000000000000000000000000000000000000000000000000001690602081602481855afa8015610427575f906125bd575b6060915060246040518094819363c3c95c7b60e01b835260048301525afa908115610427575f9161259e575b5061232e611c98565b604051637d39aaf160e01b60208201527f00000000000000000000000000000000000000000000000000000000000000006001600160a01b0381166024830152620f4240604480840191909152825290612389606482611920565b61239283611b25565b5261239c82611b25565b50600254604051631cdacd5960e31b60208201526001600160a01b0360089290921c8216602482015291166044820152606481018490526123e08160848101610367565b6123e982611b32565b526123f381611b32565b50602082015160409283015192516001600160a01b039182169360e082019392166001600160401b038411828510176109b65760409384523082525f60208084018281528487018a8152606086019889526080860194855260a08601848152620f424060c0880190815298516305272a7760e31b9481019490945295516001600160a01b0390811660248501529151821660448401525181166064830152965187166084820152915190951660a4820152905160c4820152915160e48084019190915282526124f792916124c961010482611920565b6124d282611b42565b526124dc81611b42565b5060405180938192631592ca1b60e31b835260048301611da6565b0381837f00000000000000000000000000000000000000000000000000000000000000006001600160a01b03165af1801561042757612586575b50815f52600c60205260405f20545f198101908111610651577f472f36e28bb47edb7c69c9e2ac00a77c66b505df54e9c818ac57110b0629e8c39160026125796020936119dc565b50016121ae828254611a0c565b612599903d805f833e6121cc8183611920565b612531565b6125b7915060603d606011612247576122388183611920565b5f612325565b506020813d6020116125e8575b816125d760209383611920565b810103126101aa57606090516122f9565b3d91506125ca565b6004541561279a575f80600a54905b81811061279c575b50501561279a5761261c6127106105ca611a19565b5f5b600a548110156127735760ff6003612635836119dc565b500154161561276b5761271061265b6004546001612652856119dc565b50015490611ac2565b04906002612668826119dc565b500154918281111561272d5760249261268091611af3565b6002546040516370a0823160e01b815230600482015293602091859190829060081c6001600160a01b03165afa8015610427575f906126fb575b600193508082116126e857506126e2906126d3836119dc565b50848060a01b03905416612299565b0161261e565b6126f691506126d3836119dc565b6126e2565b506020833d8211612725575b8161271460209383611920565b810103126101aa57600192516126ba565b3d9150612707565b82600193821061273f575b50506126e2565b6127649161274c91611af3565b612755836119dc565b50848060a01b03905416611e05565b5f80612738565b6001906126e2565b507fc741dbaad15a4f298fe8d80943fa8e005e7bcb2f5b0a0c8dec1fc35be457f1465f80a1565b565b60ff60036127a9836119dc565b500154166127b9576001016125ff565b50505060015f8061260756fe290decd9548b62a8d60345a988386fc84ba6bc95484008f6362f93160ef3e563b10e2d527612073b26eecdfd717e6a320cf44b4afac2b0732d9fcbe2b7fa0cf6a26469706673582212202f85c96f7a48c20bda69a513028035d1e0c7049884a6af4792d68ad613eb7cee64736f6c634300081a00330000000000000000000000008cb82ffca2ea57b29ad137b9a8cdca718233ff96000000000000000000000000012289d4954b667fb1bd55445b6250b1eed6c0f1000000000000000000000000e50914672560e18b2f5ce311a4557880df05000c000000000000000000000000823f91041c1cecdc65ee8a7335f471ac1a08caf00000000000000000000000007ba5c9aabd99423e809b0a1b5caf186736e96c79000000000000000000000000eba6eca6cbf9098d7076d3a06577b45de90113e10000000000000000000000002c53ce7143d24a65410107f50e4aabad9a164480"
        }
      ],
      "isFixedGasLimit": false
    },
    {
      "hash": "0xd4173b3e86133f79d7c7e37634576c2304e18b2b7fd184883dece234da61ed93",
      "transactionType": "CALL",
      "contractName": null,
      "contractAddress": "0xa4b16c61e500e7d24907cc149904066dc5abe516",
      "function": "addMarketToVault(address,address,uint256)",
      "arguments": [
        "0xd55C09F4557b56352EA132963207d1987464f52C",
        "0x0E87d21BD714d3391e992227E472517A9DC16A24",
        "4500"
      ],
      "transaction": {
        "from": "0x6efb11ac41b6657c32dac5ed4874082c700bba29",
        "to": "0xa4b16c61e500e7d24907cc149904066dc5abe516",
        "gas": "0x5a1fd",
        "value": "0x0",
        "input": "0x45f61828000000000000000000000000d55c09f4557b56352ea132963207d1987464f52c0000000000000000000000000e87d21bd714d3391e992227e472517a9dc16a240000000000000000000000000000000000000000000000000000000000001194",
        "nonce": "0x21a",
        "chainId": "0x279f"
      },
      "additionalContracts": [],
      "isFixedGasLimit": false
    },
    {
      "hash": "0x007b75884717f9731261b4231c24b2eedf40ccb3a7cef7dc31da880b5150e3bc",
      "transactionType": "CALL",
      "contractName": null,
      "contractAddress": "0xa4b16c61e500e7d24907cc149904066dc5abe516",
      "function": "addMarketToVault(address,address,uint256)",
      "arguments": [
        "0xd55C09F4557b56352EA132963207d1987464f52C",
        "0xC9363063C1C5EA9392cc21BC44afd644632e618A",
        "3000"
      ],
      "transaction": {
        "from": "0x6efb11ac41b6657c32dac5ed4874082c700bba29",
        "to": "0xa4b16c61e500e7d24907cc149904066dc5abe516",
        "gas": "0x4f59c",
        "value": "0x0",
        "input": "0x45f61828000000000000000000000000d55c09f4557b56352ea132963207d1987464f52c000000000000000000000000c9363063c1c5ea9392cc21bc44afd644632e618a0000000000000000000000000000000000000000000000000000000000000bb8",
        "nonce": "0x21b",
        "chainId": "0x279f"
      },
      "additionalContracts": [],
      "isFixedGasLimit": false
    },
    {
      "hash": "0x626c01c1b33d668b0c884d7043cc9902e6aa2db86de4d7fbbbbf07d6aa5a4060",
      "transactionType": "CALL",
      "contractName": null,
      "contractAddress": "0xa4b16c61e500e7d24907cc149904066dc5abe516",
      "function": "addMarketToVault(address,address,uint256)",
      "arguments": [
        "0xd55C09F4557b56352EA132963207d1987464f52C",
        "0xbA8A671c225721803cd64B12CB62a2363E9Ee873",
        "2500"
      ],
      "transaction": {
        "from": "0x6efb11ac41b6657c32dac5ed4874082c700bba29",
        "to": "0xa4b16c61e500e7d24907cc149904066dc5abe516",
        "gas": "0x4f59c",
        "value": "0x0",
        "input": "0x45f61828000000000000000000000000d55c09f4557b56352ea132963207d1987464f52c000000000000000000000000ba8a671c225721803cd64b12cb62a2363e9ee87300000000000000000000000000000000000000000000000000000000000009c4",
        "nonce": "0x21c",
        "chainId": "0x279f"
      },
      "additionalContracts": [],
      "isFixedGasLimit": false
    },
    {
      "hash": "0x7a2e85c357def5adb31c5465b51ea577b7adfa6e2021cab76d9f0cb59dbabcaa",
      "transactionType": "CALL",
      "contractName": null,
      "contractAddress": "0x2cb90f0d8a09b589bafdbe8797cdb538e412135c",
      "function": "deployCuratorContract(string,string,uint256)",
      "arguments": [
        "Curator Two",
        "ipfs://curator2",
        "500"
      ],
      "transaction": {
        "from": "0x6efb11ac41b6657c32dac5ed4874082c700bba29",
        "to": "0x2cb90f0d8a09b589bafdbe8797cdb538e412135c",
        "gas": "0x4ecb0",
        "value": "0x0",
        "input": "0x8fb241fb000000000000000000000000000000000000000000000000000000000000006000000000000000000000000000000000000000000000000000000000000000a000000000000000000000000000000000000000000000000000000000000001f4000000000000000000000000000000000000000000000000000000000000000b43757261746f722054776f000000000000000000000000000000000000000000000000000000000000000000000000000000000000000000000000000000000f697066733a2f2f63757261746f72320000000000000000000000000000000000",
        "nonce": "0x21d",
        "chainId": "0x279f"
      },
      "additionalContracts": [
        {
          "transactionType": "CREATE",
          "address": "0x557d933b4c8a48779df266ea3d0c32d891bd3554",
          "initCode": "0x3d602d80600a3d3981f3363d3d373d3d3d363d73e50a8b675b73c8fc594a095d5153fe7f6ba814515af43d82803e903d91602b57fd5bf3"
        }
      ],
      "isFixedGasLimit": false
    },
    {
      "hash": "0xc1d5199bff87481671164c5f6e59fd9652f87d2ea4b806a8bee63e23bcac68b3",
      "transactionType": "CALL",
      "contractName": null,
      "contractAddress": "0x52ef58ff7156f9cb525a578ea09c1eb1edb60dc6",
      "function": "createVault(address,address,string,string,address,address)",
      "arguments": [
        "0x557D933B4c8a48779Df266eA3D0c32d891bD3554",
        "0x58389610A3D13e8f380ee2bA077A6F36f2A90834",
        "Major Assets",
        "vMAJOR",
        "0xeBA6ECa6cBf9098D7076D3a06577B45dE90113E1",
        "0x2c53Ce7143D24A65410107F50e4AABad9A164480"
      ],
      "transaction": {
        "from": "0x6efb11ac41b6657c32dac5ed4874082c700bba29",
        "to": "0x52ef58ff7156f9cb525a578ea09c1eb1edb60dc6",
        "gas": "0x317748",
        "value": "0x0",
        "input": "0xd41329b3000000000000000000000000557d933b4c8a48779df266ea3d0c32d891bd355400000000000000000000000058389610a3d13e8f380ee2ba077a6f36f2a9083400000000000000000000000000000000000000000000000000000000000000c00000000000000000000000000000000000000000000000000000000000000100000000000000000000000000eba6eca6cbf9098d7076d3a06577b45de90113e10000000000000000000000002c53ce7143d24a65410107f50e4aabad9a164480000000000000000000000000000000000000000000000000000000000000000c4d616a6f722041737365747300000000000000000000000000000000000000000000000000000000000000000000000000000000000000000000000000000006764d414a4f520000000000000000000000000000000000000000000000000000",
        "nonce": "0x21e",
        "chainId": "0x279f"
      },
      "additionalContracts": [
        {
          "transactionType": "CREATE",
          "address": "0xe4ddb20ad5502160e9949ec58ee7e736a950d1c3",
          "initCode": "0x61016080604052346101ff5760e081612aa280380380916100208285610203565b8339810103126101ff576100338161023a565b61003f6020830161023a565b61004b6040840161023a565b926100586060820161023a565b906100656080820161023a565b9161007e60c061007760a0850161023a565b930161023a565b608086905260a09490945260c086905260e052610120526101005261014081905260405163095ea7b360e01b81526001600160a01b0392831660048201525f19602482015291166020826044815f855af180156101d9575f936020936044926101e4575b5060405163095ea7b360e01b81526001600160a01b039091166004820152841960248201529384928391905af180156101d9576101aa575b60405161283b9081610267823960805181818161017b01528181610892015281816113380152818161213a01526124fc015260a051818181610bb201528181611e6601526122c2015260c051818181610a9f0152611398015260e05181818161025d01526123400152610100518181816102a10152611f3b015261012051816118840152610140518161173c0152f35b6101cb9060203d6020116101d2575b6101c38183610203565b81019061024e565b505f61011a565b503d6101b9565b6040513d5f823e3d90fd5b6101fa90853d87116101d2576101c38183610203565b6100e2565b5f80fd5b601f909101601f19168101906001600160401b0382119082101761022657604052565b634e487b7160e01b5f52604160045260245ffd5b51906001600160a01b03821682036101ff57565b908160209103126101ff575180151581036101ff579056fe6080806040526004361015610012575f80fd5b5f3560e01c90816301e1d114146118b35750806306ae70951461186f57806306fdde03146117e05780630cf85bcc1461176b578063126846ec146117275780631488ca08146116d1578063158ef93e146116af57806315d3b5d814611695578063174009a41461165d5780632016a0d2146111915780632e1a7d4d14610dfb578063313ce56714610ddb57806338d52e0f14610daf5780633a98ef3914610d9257806341826c2d14610be1578063660d0d6714610b9d57806395d89b4114610ace5780639c8b2cfb14610a8a578063a5f879ca146106aa578063a85a9f1a146104e7578063b1283e7714610485578063b6b55f25146102ed578063b996de67146102d0578063d0d0ed051461028c578063d7cd394914610248578063de35f5cb1461022b578063de6c3f731461020e578063e66f53b7146101e6578063f656ba51146101ae5763f887ea4014610166575f80fd5b346101aa575f3660031901126101aa576040517f00000000000000000000000000000000000000000000000000000000000000006001600160a01b03168152602090f35b5f80fd5b346101aa5760203660031901126101aa576001600160a01b036101cf611965565b165f526007602052602060405f2054604051908152f35b346101aa575f3660031901126101aa576003546040516001600160a01b039091168152602090f35b346101aa575f3660031901126101aa576020600954604051908152f35b346101aa575f3660031901126101aa576020600d54604051908152f35b346101aa575f3660031901126101aa576040517f00000000000000000000000000000000000000000000000000000000000000006001600160a01b03168152602090f35b346101aa575f3660031901126101aa576040517f00000000000000000000000000000000000000000000000000000000000000006001600160a01b03168152602090f35b346101aa575f3660031901126101aa576020600854604051908152f35b346101aa5760203660031901126101aa5760043561030f60ff60065416611a84565b801561044d57600554806104325750805b6002546040516323b872dd60e01b60208281019182523360248401523060448401526064830186905260089390931c6001600160a01b03169492915f919061037581608481015b03601f198101835282611920565b519082875af115610427575f513d61041e5750823b155b61040b57602092506103a081600454611a0c565b6004556103af82600554611a0c565b600555335f526007835260405f206103c8838254611a0c565b905560405190815281838201527f90890809c654f11d6e72a28fa60149770a0d11ec6c92319d6ceb2bb0a4ea1a1560403392a26104036125f0565b604051908152f35b82635274afe760e01b5f5260045260245ffd5b6001141561038c565b6040513d5f823e3d90fd5b61043f6104489183611ac2565b60045490611ad5565b610320565b60405162461bcd60e51b815260206004820152601060248201526f043616e6e6f74206465706f73697420360841b6044820152606490fd5b346101aa5760203660031901126101aa57600435600a548110156101aa576104ae6080916119dc565b5060018060a01b038154169060018101549060ff6003600283015492015416916040519384526020840152604083015215156060820152f35b346101aa5760603660031901126101aa57610500611965565b60243590604435801515918282036101aa5761052760018060a01b03600354163314611b66565b61053560ff60065416611a84565b6127108411610665576001600160a01b03165f818152600c6020526040902054909390610563811515611ba1565b5f198101908111610651577fe8e3c5374d4bcf968f769c7c2e8c27941d0a98475cd4bf5e0a83a56da453c60f936105f88460036105e5856105d16127106105ca8a6105c560016105b56106379d6119dc565b5001546105c0611a19565b611af3565b611a0c565b1115611be0565b8760016105dd836119dc565b5001556119dc565b50019060ff801983541691151516179055565b60016040519161060783611905565b84835260208301908152875f52600b60205260405f209251835551151591019060ff801983541691151516179055565b604080519182529115156020820152a261064f6125f0565b005b634e487b7160e01b5f52601160045260245ffd5b60405162461bcd60e51b815260206004820152601760248201527f50657263656e74616765206578636565647320313030250000000000000000006044820152606490fd5b346101aa5760403660031901126101aa576106c3611965565b602435906106dc60018060a01b03600354163314611b66565b6001600160a01b038116918215610a4c576127108111610a0757825f52600c60205260405f20546109ca57604051608081018181106001600160401b038211176109b657604052838152602081019082825260408101905f82526060810160018152600a54680100000000000000008110156109b6578060016107629201600a556119dc565b9390936109a3576107b29460039360018060a01b039051166bffffffffffffffffffffffff60a01b86541617855551600185015551600284015551151591019060ff801983541691151516179055565b600a54835f52600c60205260405f20556108036040516107d181611905565b828152600160208201818152865f52600b60205260405f209251835551151591019060ff801983541691151516179055565b6002546040516370a0823160e01b815230600482015260089190911c6001600160a01b03169190602081602481865afa80156104275782915f9161096c575b506127106108535f93602093611ac2565b049360446040518094819363095ea7b360e01b83528a6004840152811960248401525af180156104275761094f575b5060405163095ea7b360e01b81527f00000000000000000000000000000000000000000000000000000000000000006001600160a01b031660048201525f196024820152926020846044815f895af1928315610427577fa64754291535175942be6f35fba8deab36d97ea608b17d06cc5efb985e17215f94602094610924575b5080610914575b5050604051908152a2005b61091d91612299565b8480610909565b61094390853d8711610948575b61093b8183611920565b810190611a6c565b610902565b503d610931565b6109679060203d6020116109485761093b8183611920565b610882565b9150506020813d60201161099b575b8161098860209383611920565b810103126101aa57518190612710610842565b3d915061097b565b634e487b7160e01b5f525f60045260245ffd5b634e487b7160e01b5f52604160045260245ffd5b60405162461bcd60e51b81526020600482015260156024820152744d61726b657420616c72656164792065786973747360581b6044820152606490fd5b60405162461bcd60e51b815260206004820152601d60248201527f496e76616c696420616c6c6f636174696f6e2070657263656e746167650000006044820152606490fd5b60405162461bcd60e51b8152602060048201526016602482015275496e76616c6964206d61726b6574206164647265737360501b6044820152606490fd5b346101aa575f3660031901126101aa576040517f00000000000000000000000000000000000000000000000000000000000000006001600160a01b03168152602090f35b346101aa575f3660031901126101aa576040515f600154610aee816118cd565b8084529060018116908115610b795750600114610b2e575b610b2a83610b1681850382611920565b604051918291602083526020830190611941565b0390f35b60015f9081525f805160206127e6833981519152939250905b808210610b5f57509091508101602001610b16610b06565b919260018160209254838588010152019101909291610b47565b60ff191660208086019190915291151560051b84019091019150610b169050610b06565b346101aa575f3660031901126101aa576040517f00000000000000000000000000000000000000000000000000000000000000006001600160a01b03168152602090f35b346101aa575f3660031901126101aa575f80600a54905b818110610d605750610c0982611b0e565b90610c176040519283611920565b828252610c2383611b0e565b6020830190601f1901368237610c51610c3b85611b0e565b94610c496040519687611920565b808652611b0e565b602085019290601f19013684375f805b828110610ced57505050604051938493604085019060408652518091526060850192905f5b818110610ccb575050506020908483038286015251918281520191905f5b818110610cb2575050500390f35b8251845285945060209384019390920191600101610ca4565b82516001600160a01b0316855287965060209485019490920191600101610c86565b60ff6003610cff8399969798996119dc565b50015416610d15575b6001019594939295610c61565b90610d58600191610d25846119dc565b50838060a01b03905416610d39828b611b52565b526002610d45856119dc565b500154610d528288611b52565b52611b00565b919050610d08565b60ff6003610d6d836119dc565b50015416610d7e575b600101610bf8565b91610d8a600191611b00565b929050610d76565b346101aa575f3660031901126101aa576020600554604051908152f35b346101aa575f3660031901126101aa5760025460405160089190911c6001600160a01b03168152602090f35b346101aa575f3660031901126101aa57602060ff60025416604051908152f35b346101aa5760203660031901126101aa57600435610e1d60ff60065416611a84565b801561115857335f52600760205260405f2054811161111d57610e4e610e4560045483611ac2565b60055490611ad5565b6002546040516370a0823160e01b8152306004820152906020908290602490829060081c6001600160a01b03165afa908115610427575f916110eb575b50818110610f69575b5081610ea35f93600554611af3565b600555610eb282600454611af3565b600455338352600760205260408320610ecc828254611af3565b905560025460405163a9059cbb60e01b81523360048201526024810184905293602091859160449183919060081c6001600160a01b03165af192831561042757602093610f4e575b5060405190828252838201527ff279e6a1f5e320cca91135676d9cb6e44ca8a08c0b88342bcdb1144f6511b56860403392a2604051908152f35b610f6490843d86116109485761093b8183611920565b610f14565b610f739082611af3565b5f905b600a548210806110e2575b156110095760ff6003610f93846119dc565b50015416158015610ff4575b610fea57610fde610fe4916002610fb5856119dc565b5001548082108183180218906105c082610fce876119dc565b50546001600160a01b0316611e05565b91611b00565b90610f76565b90610fe490611b00565b506002611000836119dc565b50015415610f9f565b50506002546040516370a0823160e01b8152306004820152906020908290602490829060081c6001600160a01b03165afa80156104275782915f916110ad575b50106110555782610e94565b60405162461bcd60e51b815260206004820152602a60248201527f496e73756666696369656e74206c6971756964697479206166746572206465616044820152696c6c6f636174696f6e7360b01b6064820152608490fd5b9150506020813d6020116110da575b816110c960209383611920565b810103126101aa5781905184611049565b3d91506110bc565b50801515610f81565b90506020813d602011611115575b8161110660209383611920565b810103126101aa575183610e8b565b3d91506110f9565b60405162461bcd60e51b8152602060048201526013602482015272496e73756666696369656e742073686172657360681b6044820152606490fd5b60405162461bcd60e51b8152602060048201526011602482015270043616e6e6f74207769746864726177203607c1b6044820152606490fd5b346101aa5760803660031901126101aa576111aa611965565b602435906001600160a01b0382168083036101aa576044356001600160401b0381116101aa576111de903690600401611996565b926064356001600160401b0381116101aa576111fe903690600401611996565b9260ff6006541661162257600380546001600160a01b0319166001600160a01b039290921691909117905560028054610100600160a81b03191660089290921b610100600160a81b031691909117905582516001600160401b0381116109b6576112685f546118cd565b601f81116115bb575b506020601f821160011461154f57819293945f92611544575b50508160011b915f199060031b1c1916175f555b81516001600160401b0381116109b6576112b96001546118cd565b601f81116114dc575b50602092601f821160011461147057928192935f92611465575b50508160011b915f199060031b1c1916176001555b60405163313ce56760e01b8152602081600481855afa8015610427575f90611428575b6002805460ff191660ff929092169190911790555060405163095ea7b360e01b81527f00000000000000000000000000000000000000000000000000000000000000006001600160a01b031660048201525f196024820152906020826044815f855af1908115610427575f9260209261140d575b5060405163095ea7b360e01b81527f00000000000000000000000000000000000000000000000000000000000000006001600160a01b031660048201528319602482015292839160449183915af18015610427576113f0575b6006805460ff19166001179055005b6114089060203d6020116109485761093b8183611920565b6113e1565b61142390833d85116109485761093b8183611920565b611388565b506020813d60201161145d575b8161144260209383611920565b810103126101aa575160ff811681036101aa5760ff90611314565b3d9150611435565b0151905083806112dc565b601f1982169360015f525f805160206127e6833981519152915f5b8681106114c457508360019596106114ac575b505050811b016001556112f1565b01515f1960f88460031b161c1916905583808061149e565b9192602060018192868501518155019401920161148b565b60015f52601f820160051c5f805160206127e683398151915201906020831061152f575b601f0160051c5f805160206127e683398151915201905b81811061152457506112c2565b5f8155600101611517565b5f805160206127e68339815191529150611500565b01519050848061128a565b601f198216905f80525f805160206127c6833981519152915f5b8181106115a35750958360019596971061158b575b505050811b015f5561129e565b01515f1960f88460031b161c1916905584808061157e565b9192602060018192868b015181550194019201611569565b5f8052601f820160051c5f805160206127c683398151915201906020831061160d575b601f0160051c5f805160206127c683398151915201905b8181106116025750611271565b5f81556001016115f5565b5f805160206127c683398151915291506115de565b60405162461bcd60e51b8152602060048201526013602482015272105b1c9958591e481a5b9a5d1a585b1a5e9959606a1b6044820152606490fd5b346101aa5760203660031901126101aa576001600160a01b0361167e611965565b165f52600c602052602060405f2054604051908152f35b346101aa575f3660031901126101aa576020610403611a19565b346101aa575f3660031901126101aa57602060ff600654166040519015158152f35b346101aa5760203660031901126101aa576001600160a01b036116f2611965565b165f52600b60205260405f2060ff600182549201541690610b2a60405192839283909291602090604083019483521515910152565b346101aa575f3660031901126101aa576040517f00000000000000000000000000000000000000000000000000000000000000006001600160a01b03168152602090f35b346101aa5760203660031901126101aa57611784611965565b5f602060405161179381611905565b82815201526001600160a01b03165f908152600b60205260409081902081516117bb81611905565b602060ff60018454948585520154169101901515815282519182525115156020820152f35b346101aa575f3660031901126101aa576040515f80546117ff816118cd565b8084529060018116908115610b79575060011461182657610b2a83610b1681850382611920565b5f8080525f805160206127c6833981519152939250905b80821061185557509091508101602001610b16610b06565b91926001816020925483858801015201910190929161183d565b346101aa575f3660031901126101aa576040517f00000000000000000000000000000000000000000000000000000000000000006001600160a01b03168152602090f35b346101aa575f3660031901126101aa576020906004548152f35b90600182811c921680156118fb575b60208310146118e757565b634e487b7160e01b5f52602260045260245ffd5b91607f16916118dc565b604081019081106001600160401b038211176109b657604052565b90601f801991011681019081106001600160401b038211176109b657604052565b805180835260209291819084018484015e5f828201840152601f01601f1916010190565b600435906001600160a01b03821682036101aa57565b6001600160401b0381116109b657601f01601f191660200190565b81601f820112156101aa578035906119ad8261197b565b926119bb6040519485611920565b828452602083830101116101aa57815f926020809301838601378301015290565b600a548110156119f857600a5f5260205f209060021b01905f90565b634e487b7160e01b5f52603260045260245ffd5b9190820180921161065157565b5f80600a54905b818110611a2c57505090565b60ff6003611a39836119dc565b50015416611a4a575b600101611a20565b91611a6460019182611a5b866119dc565b50015490611a0c565b929050611a42565b908160209103126101aa575180151581036101aa5790565b15611a8b57565b60405162461bcd60e51b815260206004820152600f60248201526e139bdd081a5b9a5d1a585b1a5e9959608a1b6044820152606490fd5b8181029291811591840414171561065157565b8115611adf570490565b634e487b7160e01b5f52601260045260245ffd5b9190820391821161065157565b5f1981146106515760010190565b6001600160401b0381116109b65760051b60200190565b8051156119f85760200190565b8051600110156119f85760400190565b8051600210156119f85760600190565b80518210156119f85760209160051b010190565b15611b6d57565b60405162461bcd60e51b815260206004820152600c60248201526b27b7363c9031bab930ba37b960a11b6044820152606490fd5b15611ba857565b60405162461bcd60e51b815260206004820152601060248201526f13585c9ad95d081b9bdd08199bdd5b9960821b6044820152606490fd5b15611be757565b60405162461bcd60e51b815260206004820152601d60248201527f546f74616c20616c6c6f636174696f6e206578636565647320313030250000006044820152606490fd5b51906001600160a01b03821682036101aa57565b908160609103126101aa5760405190606082018281106001600160401b038211176109b657611c90916040918252611c7781611c2c565b8452611c8560208201611c2c565b602085015201611c2c565b604082015290565b60405160809190611ca98382611920565b6003815291601f1901825f5b828110611cc157505050565b806060602080938501015201611cb5565b6020818303126101aa578051906001600160401b0382116101aa57019080601f830112156101aa57815191611d0683611b0e565b92611d146040519485611920565b80845260208085019160051b830101918383116101aa5760208101915b838310611d4057505050505090565b82516001600160401b0381116101aa57820185603f820112156101aa57602081015191611d6c8361197b565b611d796040519182611920565b83815260408385010188106101aa575f602085819660408397018386015e83010152815201920191611d31565b602081016020825282518091526040820191602060408360051b8301019401925f915b838310611dd857505050505090565b9091929394602080611df6600193603f198682030187528951611941565b97019301930191939290611dc9565b8115612295576001600160a01b0381165f818152600c60205260409020549092611e30821515611ba1565b5f198201918211610651576002611e46836119dc565b5001548111612281575b60405163c6c6728960e01b8152600481018590527f00000000000000000000000000000000000000000000000000000000000000006001600160a01b03169390602081602481885afa8015610427575f9061224e575b6060915060246040518097819363c3c95c7b60e01b835260048301525afa938415610427575f9461221d575b506040516370a0823160e01b8152306004820152602081602481895afa80156104275783915f916121e6575b50611f2091611f0c91611ac2565b6002611f17866119dc565b50015490611ad5565b90611f29611c98565b604051637d39aaf160e01b60208201527f00000000000000000000000000000000000000000000000000000000000000006001600160a01b0381166024830152620f424060448084019190915282529192611fd591611f89606482611920565b611f9285611b25565b52611f9c84611b25565b50604051631cdacd5960e31b60208201526001600160a01b03918216602482015292166044830152606482018490528160848101610367565b611fde82611b32565b52611fe881611b32565b5060208501516040909501516002546001600160a01b039182169660089190911c821691168181036121df576064915b87036121d95760645b604051926101208401958487106001600160401b038811176109b65760409687523085525f6020808701828152878a018e815260608901978852608089019d8e5260a0890194855260ff95861660c08a019081529690951660e08901908152620f42406101008a019081529a51633d93a7af60e11b9381019390935297516001600160a01b039081166024840152905181166044830152935184166064820152945183166084860152995190911660a48401525160c48301525160e482015290516101048201529151610124808401919091528252612135949161210761014482611920565b61211082611b42565b5261211a81611b42565b5060405180958192631592ca1b60e31b835260048301611da6565b0381837f00000000000000000000000000000000000000000000000000000000000000006001600160a01b03165af1928315610427576121a16020936002927fcf25af35f355434c1dce4120416a90ead032734765d0e4f0c8771cee2c911645966121b9575b506119dc565b50016121ae828254611af3565b9055604051908152a2565b6121d4903d805f833e6121cc8183611920565b810190611cd2565b61219b565b5f612021565b5f91612018565b9150506020813d602011612215575b8161220260209383611920565b810103126101aa57518290611f20611efe565b3d91506121f5565b61224091945060603d606011612247575b6122388183611920565b810190611c40565b925f611ed2565b503d61222e565b506020813d602011612279575b8161226860209383611920565b810103126101aa5760609051611ea6565b3d915061225b565b50600261228d826119dc565b500154611e50565b5050565b9080156122955760405163c6c6728960e01b81526001600160a01b0392831660048201819052927f00000000000000000000000000000000000000000000000000000000000000001690602081602481855afa8015610427575f906125bd575b6060915060246040518094819363c3c95c7b60e01b835260048301525afa908115610427575f9161259e575b5061232e611c98565b604051637d39aaf160e01b60208201527f00000000000000000000000000000000000000000000000000000000000000006001600160a01b0381166024830152620f4240604480840191909152825290612389606482611920565b61239283611b25565b5261239c82611b25565b50600254604051631cdacd5960e31b60208201526001600160a01b0360089290921c8216602482015291166044820152606481018490526123e08160848101610367565b6123e982611b32565b526123f381611b32565b50602082015160409283015192516001600160a01b039182169360e082019392166001600160401b038411828510176109b65760409384523082525f60208084018281528487018a8152606086019889526080860194855260a08601848152620f424060c0880190815298516305272a7760e31b9481019490945295516001600160a01b0390811660248501529151821660448401525181166064830152965187166084820152915190951660a4820152905160c4820152915160e48084019190915282526124f792916124c961010482611920565b6124d282611b42565b526124dc81611b42565b5060405180938192631592ca1b60e31b835260048301611da6565b0381837f00000000000000000000000000000000000000000000000000000000000000006001600160a01b03165af1801561042757612586575b50815f52600c60205260405f20545f198101908111610651577f472f36e28bb47edb7c69c9e2ac00a77c66b505df54e9c818ac57110b0629e8c39160026125796020936119dc565b50016121ae828254611a0c565b612599903d805f833e6121cc8183611920565b612531565b6125b7915060603d606011612247576122388183611920565b5f612325565b506020813d6020116125e8575b816125d760209383611920565b810103126101aa57606090516122f9565b3d91506125ca565b6004541561279a575f80600a54905b81811061279c575b50501561279a5761261c6127106105ca611a19565b5f5b600a548110156127735760ff6003612635836119dc565b500154161561276b5761271061265b6004546001612652856119dc565b50015490611ac2565b04906002612668826119dc565b500154918281111561272d5760249261268091611af3565b6002546040516370a0823160e01b815230600482015293602091859190829060081c6001600160a01b03165afa8015610427575f906126fb575b600193508082116126e857506126e2906126d3836119dc565b50848060a01b03905416612299565b0161261e565b6126f691506126d3836119dc565b6126e2565b506020833d8211612725575b8161271460209383611920565b810103126101aa57600192516126ba565b3d9150612707565b82600193821061273f575b50506126e2565b6127649161274c91611af3565b612755836119dc565b50848060a01b03905416611e05565b5f80612738565b6001906126e2565b507fc741dbaad15a4f298fe8d80943fa8e005e7bcb2f5b0a0c8dec1fc35be457f1465f80a1565b565b60ff60036127a9836119dc565b500154166127b9576001016125ff565b50505060015f8061260756fe290decd9548b62a8d60345a988386fc84ba6bc95484008f6362f93160ef3e563b10e2d527612073b26eecdfd717e6a320cf44b4afac2b0732d9fcbe2b7fa0cf6a26469706673582212202f85c96f7a48c20bda69a513028035d1e0c7049884a6af4792d68ad613eb7cee64736f6c634300081a00330000000000000000000000008cb82ffca2ea57b29ad137b9a8cdca718233ff96000000000000000000000000012289d4954b667fb1bd55445b6250b1eed6c0f1000000000000000000000000e50914672560e18b2f5ce311a4557880df05000c000000000000000000000000823f91041c1cecdc65ee8a7335f471ac1a08caf00000000000000000000000007ba5c9aabd99423e809b0a1b5caf186736e96c79000000000000000000000000eba6eca6cbf9098d7076d3a06577b45de90113e10000000000000000000000002c53ce7143d24a65410107f50e4aabad9a164480"
        }
      ],
      "isFixedGasLimit": false
    },
    {
      "hash": "0xe0a8e90d757c112b13fffa59efde9ee6692e73e19e680264cf105ea4b5fcd065",
      "transactionType": "CALL",
      "contractName": null,
      "contractAddress": "0x557d933b4c8a48779df266ea3d0c32d891bd3554",
      "function": "addMarketToVault(address,address,uint256)",
      "arguments": [
        "0xE4ddb20ad5502160E9949EC58EE7e736a950d1C3",
        "0x0E87d21BD714d3391e992227E472517A9DC16A24",
        "5000"
      ],
      "transaction": {
        "from": "0x6efb11ac41b6657c32dac5ed4874082c700bba29",
        "to": "0x557d933b4c8a48779df266ea3d0c32d891bd3554",
        "gas": "0x5a1fd",
        "value": "0x0",
        "input": "0x45f61828000000000000000000000000e4ddb20ad5502160e9949ec58ee7e736a950d1c30000000000000000000000000e87d21bd714d3391e992227e472517a9dc16a240000000000000000000000000000000000000000000000000000000000001388",
        "nonce": "0x21f",
        "chainId": "0x279f"
      },
      "additionalContracts": [],
      "isFixedGasLimit": false
    },
    {
      "hash": "0xc5b4eb12c65dc098737d515800d67bdca95f7b1cc1b6ce150ba37e70cc80e330",
      "transactionType": "CALL",
      "contractName": null,
      "contractAddress": "0x557d933b4c8a48779df266ea3d0c32d891bd3554",
      "function": "addMarketToVault(address,address,uint256)",
      "arguments": [
        "0xE4ddb20ad5502160E9949EC58EE7e736a950d1C3",
        "0xC9363063C1C5EA9392cc21BC44afd644632e618A",
        "3000"
      ],
      "transaction": {
        "from": "0x6efb11ac41b6657c32dac5ed4874082c700bba29",
        "to": "0x557d933b4c8a48779df266ea3d0c32d891bd3554",
        "gas": "0x4f59c",
        "value": "0x0",
        "input": "0x45f61828000000000000000000000000e4ddb20ad5502160e9949ec58ee7e736a950d1c3000000000000000000000000c9363063c1c5ea9392cc21bc44afd644632e618a0000000000000000000000000000000000000000000000000000000000000bb8",
        "nonce": "0x220",
        "chainId": "0x279f"
      },
      "additionalContracts": [],
      "isFixedGasLimit": false
    },
    {
      "hash": "0x5ebbfb49ebef23d506e0f212f11b84b27289ca33be5554f4c0ee5bda8ced26d9",
      "transactionType": "CALL",
      "contractName": null,
      "contractAddress": "0x557d933b4c8a48779df266ea3d0c32d891bd3554",
      "function": "addMarketToVault(address,address,uint256)",
      "arguments": [
        "0xE4ddb20ad5502160E9949EC58EE7e736a950d1C3",
        "0x007b2f0FB291307452065B4a620C29D56D8875dc",
        "2000"
      ],
      "transaction": {
        "from": "0x6efb11ac41b6657c32dac5ed4874082c700bba29",
        "to": "0x557d933b4c8a48779df266ea3d0c32d891bd3554",
        "gas": "0x5403b",
        "value": "0x0",
        "input": "0x45f61828000000000000000000000000e4ddb20ad5502160e9949ec58ee7e736a950d1c3000000000000000000000000007b2f0fb291307452065b4a620c29d56d8875dc00000000000000000000000000000000000000000000000000000000000007d0",
        "nonce": "0x221",
        "chainId": "0x279f"
      },
      "additionalContracts": [],
      "isFixedGasLimit": false
    },
    {
      "hash": "0xfb999e15c8412b5ec836ce6e700cf5b1b46a1a65374c2c279487b2c941eb9005",
      "transactionType": "CALL",
      "contractName": null,
      "contractAddress": "0x2cb90f0d8a09b589bafdbe8797cdb538e412135c",
      "function": "deployCuratorContract(string,string,uint256)",
      "arguments": [
        "Curator Three",
        "ipfs://curator3",
        "500"
      ],
      "transaction": {
        "from": "0x77c037fbf42e85db1487b390b08f58c00f438812",
        "to": "0x2cb90f0d8a09b589bafdbe8797cdb538e412135c",
        "gas": "0x5030b",
        "value": "0x0",
        "input": "0x8fb241fb000000000000000000000000000000000000000000000000000000000000006000000000000000000000000000000000000000000000000000000000000000a000000000000000000000000000000000000000000000000000000000000001f4000000000000000000000000000000000000000000000000000000000000000d43757261746f7220546872656500000000000000000000000000000000000000000000000000000000000000000000000000000000000000000000000000000f697066733a2f2f63757261746f72330000000000000000000000000000000000",
        "nonce": "0x1b1",
        "chainId": "0x279f"
      },
      "additionalContracts": [
        {
          "transactionType": "CREATE",
          "address": "0x43a1721456b91a18087c22d83cb703037696995d",
          "initCode": "0x3d602d80600a3d3981f3363d3d373d3d3d363d73e50a8b675b73c8fc594a095d5153fe7f6ba814515af43d82803e903d91602b57fd5bf3"
        }
      ],
      "isFixedGasLimit": false
    },
    {
      "hash": "0x1847e0c66d878dff007574a86605645ce19017890472bcdd42acac4e37f2392f",
      "transactionType": "CALL",
      "contractName": null,
      "contractAddress": "0x52ef58ff7156f9cb525a578ea09c1eb1edb60dc6",
      "function": "createVault(address,address,string,string,address,address)",
      "arguments": [
        "0x43A1721456b91a18087c22D83cb703037696995D",
        "0x58389610A3D13e8f380ee2bA077A6F36f2A90834",
        "Mixed Portfolio",
        "vMIX",
        "0xeBA6ECa6cBf9098D7076D3a06577B45dE90113E1",
        "0x2c53Ce7143D24A65410107F50e4AABad9A164480"
      ],
      "transaction": {
        "from": "0x77c037fbf42e85db1487b390b08f58c00f438812",
        "to": "0x52ef58ff7156f9cb525a578ea09c1eb1edb60dc6",
        "gas": "0x346041",
        "value": "0x0",
        "input": "0xd41329b300000000000000000000000043a1721456b91a18087c22d83cb703037696995d00000000000000000000000058389610a3d13e8f380ee2ba077a6f36f2a9083400000000000000000000000000000000000000000000000000000000000000c00000000000000000000000000000000000000000000000000000000000000100000000000000000000000000eba6eca6cbf9098d7076d3a06577b45de90113e10000000000000000000000002c53ce7143d24a65410107f50e4aabad9a164480000000000000000000000000000000000000000000000000000000000000000f4d6978656420506f7274666f6c696f00000000000000000000000000000000000000000000000000000000000000000000000000000000000000000000000004764d495800000000000000000000000000000000000000000000000000000000",
        "nonce": "0x1b2",
        "chainId": "0x279f"
      },
      "additionalContracts": [
        {
          "transactionType": "CREATE",
          "address": "0x88e9ab627f453987b94d18472f0923bb08d18e14",
          "initCode": "0x61016080604052346101ff5760e081612aa280380380916100208285610203565b8339810103126101ff576100338161023a565b61003f6020830161023a565b61004b6040840161023a565b926100586060820161023a565b906100656080820161023a565b9161007e60c061007760a0850161023a565b930161023a565b608086905260a09490945260c086905260e052610120526101005261014081905260405163095ea7b360e01b81526001600160a01b0392831660048201525f19602482015291166020826044815f855af180156101d9575f936020936044926101e4575b5060405163095ea7b360e01b81526001600160a01b039091166004820152841960248201529384928391905af180156101d9576101aa575b60405161283b9081610267823960805181818161017b01528181610892015281816113380152818161213a01526124fc015260a051818181610bb201528181611e6601526122c2015260c051818181610a9f0152611398015260e05181818161025d01526123400152610100518181816102a10152611f3b015261012051816118840152610140518161173c0152f35b6101cb9060203d6020116101d2575b6101c38183610203565b81019061024e565b505f61011a565b503d6101b9565b6040513d5f823e3d90fd5b6101fa90853d87116101d2576101c38183610203565b6100e2565b5f80fd5b601f909101601f19168101906001600160401b0382119082101761022657604052565b634e487b7160e01b5f52604160045260245ffd5b51906001600160a01b03821682036101ff57565b908160209103126101ff575180151581036101ff579056fe6080806040526004361015610012575f80fd5b5f3560e01c90816301e1d114146118b35750806306ae70951461186f57806306fdde03146117e05780630cf85bcc1461176b578063126846ec146117275780631488ca08146116d1578063158ef93e146116af57806315d3b5d814611695578063174009a41461165d5780632016a0d2146111915780632e1a7d4d14610dfb578063313ce56714610ddb57806338d52e0f14610daf5780633a98ef3914610d9257806341826c2d14610be1578063660d0d6714610b9d57806395d89b4114610ace5780639c8b2cfb14610a8a578063a5f879ca146106aa578063a85a9f1a146104e7578063b1283e7714610485578063b6b55f25146102ed578063b996de67146102d0578063d0d0ed051461028c578063d7cd394914610248578063de35f5cb1461022b578063de6c3f731461020e578063e66f53b7146101e6578063f656ba51146101ae5763f887ea4014610166575f80fd5b346101aa575f3660031901126101aa576040517f00000000000000000000000000000000000000000000000000000000000000006001600160a01b03168152602090f35b5f80fd5b346101aa5760203660031901126101aa576001600160a01b036101cf611965565b165f526007602052602060405f2054604051908152f35b346101aa575f3660031901126101aa576003546040516001600160a01b039091168152602090f35b346101aa575f3660031901126101aa576020600954604051908152f35b346101aa575f3660031901126101aa576020600d54604051908152f35b346101aa575f3660031901126101aa576040517f00000000000000000000000000000000000000000000000000000000000000006001600160a01b03168152602090f35b346101aa575f3660031901126101aa576040517f00000000000000000000000000000000000000000000000000000000000000006001600160a01b03168152602090f35b346101aa575f3660031901126101aa576020600854604051908152f35b346101aa5760203660031901126101aa5760043561030f60ff60065416611a84565b801561044d57600554806104325750805b6002546040516323b872dd60e01b60208281019182523360248401523060448401526064830186905260089390931c6001600160a01b03169492915f919061037581608481015b03601f198101835282611920565b519082875af115610427575f513d61041e5750823b155b61040b57602092506103a081600454611a0c565b6004556103af82600554611a0c565b600555335f526007835260405f206103c8838254611a0c565b905560405190815281838201527f90890809c654f11d6e72a28fa60149770a0d11ec6c92319d6ceb2bb0a4ea1a1560403392a26104036125f0565b604051908152f35b82635274afe760e01b5f5260045260245ffd5b6001141561038c565b6040513d5f823e3d90fd5b61043f6104489183611ac2565b60045490611ad5565b610320565b60405162461bcd60e51b815260206004820152601060248201526f043616e6e6f74206465706f73697420360841b6044820152606490fd5b346101aa5760203660031901126101aa57600435600a548110156101aa576104ae6080916119dc565b5060018060a01b038154169060018101549060ff6003600283015492015416916040519384526020840152604083015215156060820152f35b346101aa5760603660031901126101aa57610500611965565b60243590604435801515918282036101aa5761052760018060a01b03600354163314611b66565b61053560ff60065416611a84565b6127108411610665576001600160a01b03165f818152600c6020526040902054909390610563811515611ba1565b5f198101908111610651577fe8e3c5374d4bcf968f769c7c2e8c27941d0a98475cd4bf5e0a83a56da453c60f936105f88460036105e5856105d16127106105ca8a6105c560016105b56106379d6119dc565b5001546105c0611a19565b611af3565b611a0c565b1115611be0565b8760016105dd836119dc565b5001556119dc565b50019060ff801983541691151516179055565b60016040519161060783611905565b84835260208301908152875f52600b60205260405f209251835551151591019060ff801983541691151516179055565b604080519182529115156020820152a261064f6125f0565b005b634e487b7160e01b5f52601160045260245ffd5b60405162461bcd60e51b815260206004820152601760248201527f50657263656e74616765206578636565647320313030250000000000000000006044820152606490fd5b346101aa5760403660031901126101aa576106c3611965565b602435906106dc60018060a01b03600354163314611b66565b6001600160a01b038116918215610a4c576127108111610a0757825f52600c60205260405f20546109ca57604051608081018181106001600160401b038211176109b657604052838152602081019082825260408101905f82526060810160018152600a54680100000000000000008110156109b6578060016107629201600a556119dc565b9390936109a3576107b29460039360018060a01b039051166bffffffffffffffffffffffff60a01b86541617855551600185015551600284015551151591019060ff801983541691151516179055565b600a54835f52600c60205260405f20556108036040516107d181611905565b828152600160208201818152865f52600b60205260405f209251835551151591019060ff801983541691151516179055565b6002546040516370a0823160e01b815230600482015260089190911c6001600160a01b03169190602081602481865afa80156104275782915f9161096c575b506127106108535f93602093611ac2565b049360446040518094819363095ea7b360e01b83528a6004840152811960248401525af180156104275761094f575b5060405163095ea7b360e01b81527f00000000000000000000000000000000000000000000000000000000000000006001600160a01b031660048201525f196024820152926020846044815f895af1928315610427577fa64754291535175942be6f35fba8deab36d97ea608b17d06cc5efb985e17215f94602094610924575b5080610914575b5050604051908152a2005b61091d91612299565b8480610909565b61094390853d8711610948575b61093b8183611920565b810190611a6c565b610902565b503d610931565b6109679060203d6020116109485761093b8183611920565b610882565b9150506020813d60201161099b575b8161098860209383611920565b810103126101aa57518190612710610842565b3d915061097b565b634e487b7160e01b5f525f60045260245ffd5b634e487b7160e01b5f52604160045260245ffd5b60405162461bcd60e51b81526020600482015260156024820152744d61726b657420616c72656164792065786973747360581b6044820152606490fd5b60405162461bcd60e51b815260206004820152601d60248201527f496e76616c696420616c6c6f636174696f6e2070657263656e746167650000006044820152606490fd5b60405162461bcd60e51b8152602060048201526016602482015275496e76616c6964206d61726b6574206164647265737360501b6044820152606490fd5b346101aa575f3660031901126101aa576040517f00000000000000000000000000000000000000000000000000000000000000006001600160a01b03168152602090f35b346101aa575f3660031901126101aa576040515f600154610aee816118cd565b8084529060018116908115610b795750600114610b2e575b610b2a83610b1681850382611920565b604051918291602083526020830190611941565b0390f35b60015f9081525f805160206127e6833981519152939250905b808210610b5f57509091508101602001610b16610b06565b919260018160209254838588010152019101909291610b47565b60ff191660208086019190915291151560051b84019091019150610b169050610b06565b346101aa575f3660031901126101aa576040517f00000000000000000000000000000000000000000000000000000000000000006001600160a01b03168152602090f35b346101aa575f3660031901126101aa575f80600a54905b818110610d605750610c0982611b0e565b90610c176040519283611920565b828252610c2383611b0e565b6020830190601f1901368237610c51610c3b85611b0e565b94610c496040519687611920565b808652611b0e565b602085019290601f19013684375f805b828110610ced57505050604051938493604085019060408652518091526060850192905f5b818110610ccb575050506020908483038286015251918281520191905f5b818110610cb2575050500390f35b8251845285945060209384019390920191600101610ca4565b82516001600160a01b0316855287965060209485019490920191600101610c86565b60ff6003610cff8399969798996119dc565b50015416610d15575b6001019594939295610c61565b90610d58600191610d25846119dc565b50838060a01b03905416610d39828b611b52565b526002610d45856119dc565b500154610d528288611b52565b52611b00565b919050610d08565b60ff6003610d6d836119dc565b50015416610d7e575b600101610bf8565b91610d8a600191611b00565b929050610d76565b346101aa575f3660031901126101aa576020600554604051908152f35b346101aa575f3660031901126101aa5760025460405160089190911c6001600160a01b03168152602090f35b346101aa575f3660031901126101aa57602060ff60025416604051908152f35b346101aa5760203660031901126101aa57600435610e1d60ff60065416611a84565b801561115857335f52600760205260405f2054811161111d57610e4e610e4560045483611ac2565b60055490611ad5565b6002546040516370a0823160e01b8152306004820152906020908290602490829060081c6001600160a01b03165afa908115610427575f916110eb575b50818110610f69575b5081610ea35f93600554611af3565b600555610eb282600454611af3565b600455338352600760205260408320610ecc828254611af3565b905560025460405163a9059cbb60e01b81523360048201526024810184905293602091859160449183919060081c6001600160a01b03165af192831561042757602093610f4e575b5060405190828252838201527ff279e6a1f5e320cca91135676d9cb6e44ca8a08c0b88342bcdb1144f6511b56860403392a2604051908152f35b610f6490843d86116109485761093b8183611920565b610f14565b610f739082611af3565b5f905b600a548210806110e2575b156110095760ff6003610f93846119dc565b50015416158015610ff4575b610fea57610fde610fe4916002610fb5856119dc565b5001548082108183180218906105c082610fce876119dc565b50546001600160a01b0316611e05565b91611b00565b90610f76565b90610fe490611b00565b506002611000836119dc565b50015415610f9f565b50506002546040516370a0823160e01b8152306004820152906020908290602490829060081c6001600160a01b03165afa80156104275782915f916110ad575b50106110555782610e94565b60405162461bcd60e51b815260206004820152602a60248201527f496e73756666696369656e74206c6971756964697479206166746572206465616044820152696c6c6f636174696f6e7360b01b6064820152608490fd5b9150506020813d6020116110da575b816110c960209383611920565b810103126101aa5781905184611049565b3d91506110bc565b50801515610f81565b90506020813d602011611115575b8161110660209383611920565b810103126101aa575183610e8b565b3d91506110f9565b60405162461bcd60e51b8152602060048201526013602482015272496e73756666696369656e742073686172657360681b6044820152606490fd5b60405162461bcd60e51b8152602060048201526011602482015270043616e6e6f74207769746864726177203607c1b6044820152606490fd5b346101aa5760803660031901126101aa576111aa611965565b602435906001600160a01b0382168083036101aa576044356001600160401b0381116101aa576111de903690600401611996565b926064356001600160401b0381116101aa576111fe903690600401611996565b9260ff6006541661162257600380546001600160a01b0319166001600160a01b039290921691909117905560028054610100600160a81b03191660089290921b610100600160a81b031691909117905582516001600160401b0381116109b6576112685f546118cd565b601f81116115bb575b506020601f821160011461154f57819293945f92611544575b50508160011b915f199060031b1c1916175f555b81516001600160401b0381116109b6576112b96001546118cd565b601f81116114dc575b50602092601f821160011461147057928192935f92611465575b50508160011b915f199060031b1c1916176001555b60405163313ce56760e01b8152602081600481855afa8015610427575f90611428575b6002805460ff191660ff929092169190911790555060405163095ea7b360e01b81527f00000000000000000000000000000000000000000000000000000000000000006001600160a01b031660048201525f196024820152906020826044815f855af1908115610427575f9260209261140d575b5060405163095ea7b360e01b81527f00000000000000000000000000000000000000000000000000000000000000006001600160a01b031660048201528319602482015292839160449183915af18015610427576113f0575b6006805460ff19166001179055005b6114089060203d6020116109485761093b8183611920565b6113e1565b61142390833d85116109485761093b8183611920565b611388565b506020813d60201161145d575b8161144260209383611920565b810103126101aa575160ff811681036101aa5760ff90611314565b3d9150611435565b0151905083806112dc565b601f1982169360015f525f805160206127e6833981519152915f5b8681106114c457508360019596106114ac575b505050811b016001556112f1565b01515f1960f88460031b161c1916905583808061149e565b9192602060018192868501518155019401920161148b565b60015f52601f820160051c5f805160206127e683398151915201906020831061152f575b601f0160051c5f805160206127e683398151915201905b81811061152457506112c2565b5f8155600101611517565b5f805160206127e68339815191529150611500565b01519050848061128a565b601f198216905f80525f805160206127c6833981519152915f5b8181106115a35750958360019596971061158b575b505050811b015f5561129e565b01515f1960f88460031b161c1916905584808061157e565b9192602060018192868b015181550194019201611569565b5f8052601f820160051c5f805160206127c683398151915201906020831061160d575b601f0160051c5f805160206127c683398151915201905b8181106116025750611271565b5f81556001016115f5565b5f805160206127c683398151915291506115de565b60405162461bcd60e51b8152602060048201526013602482015272105b1c9958591e481a5b9a5d1a585b1a5e9959606a1b6044820152606490fd5b346101aa5760203660031901126101aa576001600160a01b0361167e611965565b165f52600c602052602060405f2054604051908152f35b346101aa575f3660031901126101aa576020610403611a19565b346101aa575f3660031901126101aa57602060ff600654166040519015158152f35b346101aa5760203660031901126101aa576001600160a01b036116f2611965565b165f52600b60205260405f2060ff600182549201541690610b2a60405192839283909291602090604083019483521515910152565b346101aa575f3660031901126101aa576040517f00000000000000000000000000000000000000000000000000000000000000006001600160a01b03168152602090f35b346101aa5760203660031901126101aa57611784611965565b5f602060405161179381611905565b82815201526001600160a01b03165f908152600b60205260409081902081516117bb81611905565b602060ff60018454948585520154169101901515815282519182525115156020820152f35b346101aa575f3660031901126101aa576040515f80546117ff816118cd565b8084529060018116908115610b79575060011461182657610b2a83610b1681850382611920565b5f8080525f805160206127c6833981519152939250905b80821061185557509091508101602001610b16610b06565b91926001816020925483858801015201910190929161183d565b346101aa575f3660031901126101aa576040517f00000000000000000000000000000000000000000000000000000000000000006001600160a01b03168152602090f35b346101aa575f3660031901126101aa576020906004548152f35b90600182811c921680156118fb575b60208310146118e757565b634e487b7160e01b5f52602260045260245ffd5b91607f16916118dc565b604081019081106001600160401b038211176109b657604052565b90601f801991011681019081106001600160401b038211176109b657604052565b805180835260209291819084018484015e5f828201840152601f01601f1916010190565b600435906001600160a01b03821682036101aa57565b6001600160401b0381116109b657601f01601f191660200190565b81601f820112156101aa578035906119ad8261197b565b926119bb6040519485611920565b828452602083830101116101aa57815f926020809301838601378301015290565b600a548110156119f857600a5f5260205f209060021b01905f90565b634e487b7160e01b5f52603260045260245ffd5b9190820180921161065157565b5f80600a54905b818110611a2c57505090565b60ff6003611a39836119dc565b50015416611a4a575b600101611a20565b91611a6460019182611a5b866119dc565b50015490611a0c565b929050611a42565b908160209103126101aa575180151581036101aa5790565b15611a8b57565b60405162461bcd60e51b815260206004820152600f60248201526e139bdd081a5b9a5d1a585b1a5e9959608a1b6044820152606490fd5b8181029291811591840414171561065157565b8115611adf570490565b634e487b7160e01b5f52601260045260245ffd5b9190820391821161065157565b5f1981146106515760010190565b6001600160401b0381116109b65760051b60200190565b8051156119f85760200190565b8051600110156119f85760400190565b8051600210156119f85760600190565b80518210156119f85760209160051b010190565b15611b6d57565b60405162461bcd60e51b815260206004820152600c60248201526b27b7363c9031bab930ba37b960a11b6044820152606490fd5b15611ba857565b60405162461bcd60e51b815260206004820152601060248201526f13585c9ad95d081b9bdd08199bdd5b9960821b6044820152606490fd5b15611be757565b60405162461bcd60e51b815260206004820152601d60248201527f546f74616c20616c6c6f636174696f6e206578636565647320313030250000006044820152606490fd5b51906001600160a01b03821682036101aa57565b908160609103126101aa5760405190606082018281106001600160401b038211176109b657611c90916040918252611c7781611c2c565b8452611c8560208201611c2c565b602085015201611c2c565b604082015290565b60405160809190611ca98382611920565b6003815291601f1901825f5b828110611cc157505050565b806060602080938501015201611cb5565b6020818303126101aa578051906001600160401b0382116101aa57019080601f830112156101aa57815191611d0683611b0e565b92611d146040519485611920565b80845260208085019160051b830101918383116101aa5760208101915b838310611d4057505050505090565b82516001600160401b0381116101aa57820185603f820112156101aa57602081015191611d6c8361197b565b611d796040519182611920565b83815260408385010188106101aa575f602085819660408397018386015e83010152815201920191611d31565b602081016020825282518091526040820191602060408360051b8301019401925f915b838310611dd857505050505090565b9091929394602080611df6600193603f198682030187528951611941565b97019301930191939290611dc9565b8115612295576001600160a01b0381165f818152600c60205260409020549092611e30821515611ba1565b5f198201918211610651576002611e46836119dc565b5001548111612281575b60405163c6c6728960e01b8152600481018590527f00000000000000000000000000000000000000000000000000000000000000006001600160a01b03169390602081602481885afa8015610427575f9061224e575b6060915060246040518097819363c3c95c7b60e01b835260048301525afa938415610427575f9461221d575b506040516370a0823160e01b8152306004820152602081602481895afa80156104275783915f916121e6575b50611f2091611f0c91611ac2565b6002611f17866119dc565b50015490611ad5565b90611f29611c98565b604051637d39aaf160e01b60208201527f00000000000000000000000000000000000000000000000000000000000000006001600160a01b0381166024830152620f424060448084019190915282529192611fd591611f89606482611920565b611f9285611b25565b52611f9c84611b25565b50604051631cdacd5960e31b60208201526001600160a01b03918216602482015292166044830152606482018490528160848101610367565b611fde82611b32565b52611fe881611b32565b5060208501516040909501516002546001600160a01b039182169660089190911c821691168181036121df576064915b87036121d95760645b604051926101208401958487106001600160401b038811176109b65760409687523085525f6020808701828152878a018e815260608901978852608089019d8e5260a0890194855260ff95861660c08a019081529690951660e08901908152620f42406101008a019081529a51633d93a7af60e11b9381019390935297516001600160a01b039081166024840152905181166044830152935184166064820152945183166084860152995190911660a48401525160c48301525160e482015290516101048201529151610124808401919091528252612135949161210761014482611920565b61211082611b42565b5261211a81611b42565b5060405180958192631592ca1b60e31b835260048301611da6565b0381837f00000000000000000000000000000000000000000000000000000000000000006001600160a01b03165af1928315610427576121a16020936002927fcf25af35f355434c1dce4120416a90ead032734765d0e4f0c8771cee2c911645966121b9575b506119dc565b50016121ae828254611af3565b9055604051908152a2565b6121d4903d805f833e6121cc8183611920565b810190611cd2565b61219b565b5f612021565b5f91612018565b9150506020813d602011612215575b8161220260209383611920565b810103126101aa57518290611f20611efe565b3d91506121f5565b61224091945060603d606011612247575b6122388183611920565b810190611c40565b925f611ed2565b503d61222e565b506020813d602011612279575b8161226860209383611920565b810103126101aa5760609051611ea6565b3d915061225b565b50600261228d826119dc565b500154611e50565b5050565b9080156122955760405163c6c6728960e01b81526001600160a01b0392831660048201819052927f00000000000000000000000000000000000000000000000000000000000000001690602081602481855afa8015610427575f906125bd575b6060915060246040518094819363c3c95c7b60e01b835260048301525afa908115610427575f9161259e575b5061232e611c98565b604051637d39aaf160e01b60208201527f00000000000000000000000000000000000000000000000000000000000000006001600160a01b0381166024830152620f4240604480840191909152825290612389606482611920565b61239283611b25565b5261239c82611b25565b50600254604051631cdacd5960e31b60208201526001600160a01b0360089290921c8216602482015291166044820152606481018490526123e08160848101610367565b6123e982611b32565b526123f381611b32565b50602082015160409283015192516001600160a01b039182169360e082019392166001600160401b038411828510176109b65760409384523082525f60208084018281528487018a8152606086019889526080860194855260a08601848152620f424060c0880190815298516305272a7760e31b9481019490945295516001600160a01b0390811660248501529151821660448401525181166064830152965187166084820152915190951660a4820152905160c4820152915160e48084019190915282526124f792916124c961010482611920565b6124d282611b42565b526124dc81611b42565b5060405180938192631592ca1b60e31b835260048301611da6565b0381837f00000000000000000000000000000000000000000000000000000000000000006001600160a01b03165af1801561042757612586575b50815f52600c60205260405f20545f198101908111610651577f472f36e28bb47edb7c69c9e2ac00a77c66b505df54e9c818ac57110b0629e8c39160026125796020936119dc565b50016121ae828254611a0c565b612599903d805f833e6121cc8183611920565b612531565b6125b7915060603d606011612247576122388183611920565b5f612325565b506020813d6020116125e8575b816125d760209383611920565b810103126101aa57606090516122f9565b3d91506125ca565b6004541561279a575f80600a54905b81811061279c575b50501561279a5761261c6127106105ca611a19565b5f5b600a548110156127735760ff6003612635836119dc565b500154161561276b5761271061265b6004546001612652856119dc565b50015490611ac2565b04906002612668826119dc565b500154918281111561272d5760249261268091611af3565b6002546040516370a0823160e01b815230600482015293602091859190829060081c6001600160a01b03165afa8015610427575f906126fb575b600193508082116126e857506126e2906126d3836119dc565b50848060a01b03905416612299565b0161261e565b6126f691506126d3836119dc565b6126e2565b506020833d8211612725575b8161271460209383611920565b810103126101aa57600192516126ba565b3d9150612707565b82600193821061273f575b50506126e2565b6127649161274c91611af3565b612755836119dc565b50848060a01b03905416611e05565b5f80612738565b6001906126e2565b507fc741dbaad15a4f298fe8d80943fa8e005e7bcb2f5b0a0c8dec1fc35be457f1465f80a1565b565b60ff60036127a9836119dc565b500154166127b9576001016125ff565b50505060015f8061260756fe290decd9548b62a8d60345a988386fc84ba6bc95484008f6362f93160ef3e563b10e2d527612073b26eecdfd717e6a320cf44b4afac2b0732d9fcbe2b7fa0cf6a26469706673582212202f85c96f7a48c20bda69a513028035d1e0c7049884a6af4792d68ad613eb7cee64736f6c634300081a00330000000000000000000000008cb82ffca2ea57b29ad137b9a8cdca718233ff96000000000000000000000000012289d4954b667fb1bd55445b6250b1eed6c0f1000000000000000000000000e50914672560e18b2f5ce311a4557880df05000c000000000000000000000000823f91041c1cecdc65ee8a7335f471ac1a08caf00000000000000000000000007ba5c9aabd99423e809b0a1b5caf186736e96c79000000000000000000000000eba6eca6cbf9098d7076d3a06577b45de90113e10000000000000000000000002c53ce7143d24a65410107f50e4aabad9a164480"
        }
      ],
      "isFixedGasLimit": false
    },
    {
      "hash": "0x3b75350f11ec7b849dbf8100ddb0f517e2cdd5e78023780282d93868ddf2ed26",
      "transactionType": "CALL",
      "contractName": null,
      "contractAddress": "0x43a1721456b91a18087c22d83cb703037696995d",
      "function": "addMarketToVault(address,address,uint256)",
      "arguments": [
        "0x88e9AB627f453987B94D18472F0923Bb08d18e14",
        "0x0E87d21BD714d3391e992227E472517A9DC16A24",
        "4000"
      ],
      "transaction": {
        "from": "0x77c037fbf42e85db1487b390b08f58c00f438812",
        "to": "0x43a1721456b91a18087c22d83cb703037696995d",
        "gas": "0x5a1fd",
        "value": "0x0",
        "input": "0x45f6182800000000000000000000000088e9ab627f453987b94d18472f0923bb08d18e140000000000000000000000000e87d21bd714d3391e992227e472517a9dc16a240000000000000000000000000000000000000000000000000000000000000fa0",
        "nonce": "0x1b3",
        "chainId": "0x279f"
      },
      "additionalContracts": [],
      "isFixedGasLimit": false
    },
    {
      "hash": "0x21c8c5ac1df38f91ed57f6fd36862e515794b36c68c2f06b1f5c2f85f36c9b7f",
      "transactionType": "CALL",
      "contractName": null,
      "contractAddress": "0x43a1721456b91a18087c22d83cb703037696995d",
      "function": "addMarketToVault(address,address,uint256)",
      "arguments": [
        "0x88e9AB627f453987B94D18472F0923Bb08d18e14",
        "0xC9363063C1C5EA9392cc21BC44afd644632e618A",
        "2000"
      ],
      "transaction": {
        "from": "0x77c037fbf42e85db1487b390b08f58c00f438812",
        "to": "0x43a1721456b91a18087c22d83cb703037696995d",
        "gas": "0x4f59c",
        "value": "0x0",
        "input": "0x45f6182800000000000000000000000088e9ab627f453987b94d18472f0923bb08d18e14000000000000000000000000c9363063c1c5ea9392cc21bc44afd644632e618a00000000000000000000000000000000000000000000000000000000000007d0",
        "nonce": "0x1b4",
        "chainId": "0x279f"
      },
      "additionalContracts": [],
      "isFixedGasLimit": false
    },
    {
      "hash": "0x17650337a691ee729bc4bb4fe774d7395865974be38aef7ccd1d3698afc2e4b8",
      "transactionType": "CALL",
      "contractName": null,
      "contractAddress": "0x43a1721456b91a18087c22d83cb703037696995d",
      "function": "addMarketToVault(address,address,uint256)",
      "arguments": [
        "0x88e9AB627f453987B94D18472F0923Bb08d18e14",
        "0x8FC3599e5D86Df2e5aB4B9e20975da2FF17eb4B6",
        "2000"
      ],
      "transaction": {
        "from": "0x77c037fbf42e85db1487b390b08f58c00f438812",
        "to": "0x43a1721456b91a18087c22d83cb703037696995d",
        "gas": "0x4f59c",
        "value": "0x0",
        "input": "0x45f6182800000000000000000000000088e9ab627f453987b94d18472f0923bb08d18e140000000000000000000000008fc3599e5d86df2e5ab4b9e20975da2ff17eb4b600000000000000000000000000000000000000000000000000000000000007d0",
        "nonce": "0x1b5",
        "chainId": "0x279f"
      },
      "additionalContracts": [],
      "isFixedGasLimit": false
    },
    {
      "hash": "0x908e180df838d0567137bbd170431fe14e5a9644cf1b90801aac216094b1cea5",
      "transactionType": "CALL",
      "contractName": null,
      "contractAddress": "0x43a1721456b91a18087c22d83cb703037696995d",
      "function": "addMarketToVault(address,address,uint256)",
      "arguments": [
        "0x88e9AB627f453987B94D18472F0923Bb08d18e14",
        "0x61cBB1A8FB2F8710Fe95c6c3Ef039B5828cb000B",
        "2000"
      ],
      "transaction": {
        "from": "0x77c037fbf42e85db1487b390b08f58c00f438812",
        "to": "0x43a1721456b91a18087c22d83cb703037696995d",
        "gas": "0x5403b",
        "value": "0x0",
        "input": "0x45f6182800000000000000000000000088e9ab627f453987b94d18472f0923bb08d18e1400000000000000000000000061cbb1a8fb2f8710fe95c6c3ef039b5828cb000b00000000000000000000000000000000000000000000000000000000000007d0",
        "nonce": "0x1b6",
        "chainId": "0x279f"
      },
      "additionalContracts": [],
      "isFixedGasLimit": false
    }
  ],
  "receipts": [
    {
      "status": "0x1",
      "cumulativeGasUsed": "0x8de407",
      "logs": [
        {
          "address": "0x7f3485e36368815423e4181102df290dc554fdb9",
          "topics": [
            "0x8be0079c531659141344cd1fd0a4f28419497f9722a3daafe3b4186f6b6457e0",
            "0x0000000000000000000000000000000000000000000000000000000000000000",
            "0x0000000000000000000000006efb11ac41b6657c32dac5ed4874082c700bba29"
          ],
          "data": "0x",
          "blockHash": "0xccbd93745b048d0651e8c19b1a2145b674c17344536bbab5f691c7ea38d579ac",
          "blockNumber": "0x744a58",
          "blockTimestamp": "0x67d32e8d",
          "transactionHash": "0x89d84daff0eb7f215088f709d38110c488eadc5c88e917121bb9f58e8c79ebc6",
          "transactionIndex": "0x62",
          "logIndex": "0x79",
          "removed": false
        }
      ],
      "logsBloom": "0x00000000000000010200000000000000000000000000000000800000000000000000000000000000000000000000000000000000000100000000000000000000000000000000000000000000000000000001000000000000000000000000000000000000020000000000000000000800000000000000000000000000000000400000000000000000000000000000000000000000000000000000000000002000000000000000000000000000000000000000000000000000000001000000000000000000000000000000000000000000000000000000000000000000000020000000000000000000000100000000000000000000000000000000000000000000",
      "type": "0x0",
      "transactionHash": "0x89d84daff0eb7f215088f709d38110c488eadc5c88e917121bb9f58e8c79ebc6",
      "transactionIndex": "0x62",
      "blockHash": "0xccbd93745b048d0651e8c19b1a2145b674c17344536bbab5f691c7ea38d579ac",
      "blockNumber": "0x744a58",
      "gasUsed": "0x105e31",
      "effectiveGasPrice": "0xc1b710800",
      "from": "0x6efb11ac41b6657c32dac5ed4874082c700bba29",
      "to": null,
      "contractAddress": "0x7f3485e36368815423e4181102df290dc554fdb9"
    },
    {
      "status": "0x1",
      "cumulativeGasUsed": "0x45c60b",
      "logs": [
        {
          "address": "0x2c53ce7143d24a65410107f50e4aabad9a164480",
          "topics": [
            "0x8c5be1e5ebec7d5bd14f71427d1e84f3dd0314c0f7b2291e5b200ac8c7c3b925",
            "0x0000000000000000000000004e4844acc0ababa4fc72fa49058d6a3646e5bf86",
            "0x0000000000000000000000008cb82ffca2ea57b29ad137b9a8cdca718233ff96"
          ],
          "data": "0xffffffffffffffffffffffffffffffffffffffffffffffffffffffffffffffff",
          "blockHash": "0x1a1ccd572aeb4df25fa8e4b301d679192046864ffc5d6158867de9de3ecf1777",
          "blockNumber": "0x744a5d",
          "blockTimestamp": "0x67d32e91",
          "transactionHash": "0x17db153a286bf913ef85f5f61527631fe99e131ccf3ef2b8424a07d1eb2cc132",
          "transactionIndex": "0x10",
          "logIndex": "0x15",
          "removed": false
        },
        {
          "address": "0x2c53ce7143d24a65410107f50e4aabad9a164480",
          "topics": [
            "0x8c5be1e5ebec7d5bd14f71427d1e84f3dd0314c0f7b2291e5b200ac8c7c3b925",
            "0x0000000000000000000000004e4844acc0ababa4fc72fa49058d6a3646e5bf86",
            "0x000000000000000000000000e50914672560e18b2f5ce311a4557880df05000c"
          ],
          "data": "0xffffffffffffffffffffffffffffffffffffffffffffffffffffffffffffffff",
          "blockHash": "0x1a1ccd572aeb4df25fa8e4b301d679192046864ffc5d6158867de9de3ecf1777",
          "blockNumber": "0x744a5d",
          "blockTimestamp": "0x67d32e91",
          "transactionHash": "0x17db153a286bf913ef85f5f61527631fe99e131ccf3ef2b8424a07d1eb2cc132",
          "transactionIndex": "0x10",
          "logIndex": "0x16",
          "removed": false
        }
      ],
      "logsBloom": "0x00000000000000001000000000000000000000000000000000000000000000000000000000000000000000000000000000001020000000000000000000200000000000000100000000000000000000000000000000000000000000000000000002020000000000000040000000000000000000000000000000000000000000000000000000000000000000000000000002000000000000000000000000000400020000000000000000000000000000000000000000000000000000000000000000000000000000000000000000000000000000010000000000000000000000000010001000000000000000000000000000000000000000000001000000000000",
      "type": "0x0",
      "transactionHash": "0x17db153a286bf913ef85f5f61527631fe99e131ccf3ef2b8424a07d1eb2cc132",
      "transactionIndex": "0x10",
      "blockHash": "0x1a1ccd572aeb4df25fa8e4b301d679192046864ffc5d6158867de9de3ecf1777",
      "blockNumber": "0x744a5d",
      "gasUsed": "0x2e67bc",
      "effectiveGasPrice": "0xc1b710800",
      "from": "0x6efb11ac41b6657c32dac5ed4874082c700bba29",
      "to": null,
      "contractAddress": "0x4e4844acc0ababa4fc72fa49058d6a3646e5bf86"
    },
    {
      "status": "0x1",
      "cumulativeGasUsed": "0x524dab",
      "logs": [
        {
          "address": "0x6e7e29c33cdc76b8e758edfc71a2f256256e1c42",
          "topics": [
            "0x3708850f6b514b2340d559340763b829a8c335ebcaf58b067617ae8cf562844f",
            "0x0000000000000000000000006efb11ac41b6657c32dac5ed4874082c700bba29"
          ],
          "data": "0x00000000000000000000000000000000000000000000000000000000000000400000000000000000000000000000000000000000000000000000000000000080000000000000000000000000000000000000000000000000000000000000000e546573742043757261746f722031000000000000000000000000000000000000000000000000000000000000000000000000000000000000000000000000008468747470733a2f2f656e637279707465642d74626e302e677374617469632e636f6d2f696d616765733f713d74626e3a414e6439476351566833696e714b7947476242686f506f366a424d7a475935654967783966434a6a374536664f5258412d30536e67716f694f7367695a3343475762784b715858566d726726757371703d43415500000000000000000000000000000000000000000000000000000000",
          "blockHash": "0x124b3cf5946682ec3062289b67d750f93fa9096f1d24728e53d94f1b5057590d",
          "blockNumber": "0x744a60",
          "blockTimestamp": "0x67d32e92",
          "transactionHash": "0x5cbd26060c30f315b38a21d2b1727efa6fcdf6bbe7398ba99d295e0cb9adba4e",
          "transactionIndex": "0x24",
          "logIndex": "0x3c",
          "removed": false
        }
      ],
      "logsBloom": "0x00000000000000000200000000000000000000000000000000000000000000000000000000000000000000020000000000000000000101000000000000000000008000000000000000000000000000000000000000000000000000000000000000000000000000000000000000000000000000000000000000000000000000000000000000000000000000000000000000000000000000000000000000000000000000000000000000000000000000000000000000000000000001000000080000000000000000000000000000000000000000000000000000000000000000000008000000000000000000000000000000000000000000400000000000000000",
      "type": "0x0",
      "transactionHash": "0x5cbd26060c30f315b38a21d2b1727efa6fcdf6bbe7398ba99d295e0cb9adba4e",
      "transactionIndex": "0x24",
      "blockHash": "0x124b3cf5946682ec3062289b67d750f93fa9096f1d24728e53d94f1b5057590d",
      "blockNumber": "0x744a60",
      "gasUsed": "0x5d5e5",
      "effectiveGasPrice": "0xc1b710800",
      "from": "0x6efb11ac41b6657c32dac5ed4874082c700bba29",
      "to": "0x6e7e29c33cdc76b8e758edfc71a2f256256e1c42",
      "contractAddress": null
    },
    {
      "status": "0x1",
      "cumulativeGasUsed": "0x35b285",
      "logs": [
        {
          "address": "0x6e7e29c33cdc76b8e758edfc71a2f256256e1c42",
          "topics": [
            "0x3708850f6b514b2340d559340763b829a8c335ebcaf58b067617ae8cf562844f",
            "0x0000000000000000000000006efb11ac41b6657c32dac5ed4874082c700bba29"
          ],
          "data": "0x00000000000000000000000000000000000000000000000000000000000000400000000000000000000000000000000000000000000000000000000000000080000000000000000000000000000000000000000000000000000000000000000e546573742043757261746f722032000000000000000000000000000000000000000000000000000000000000000000000000000000000000000000000000004668747470733a2f2f7777772e736576656c6c2e636f6d2f77702d636f6e74656e742f75706c6f6164732f323032342f30372f70656c6f746f6e2d6c6f676f2d7265642e706e670000000000000000000000000000000000000000000000000000",
          "blockHash": "0xe8b162103819ed2827bf1a5ac85d2f7cc556a40139a2ced3bb16697646139129",
          "blockNumber": "0x744a67",
          "blockTimestamp": "0x67d32e96",
          "transactionHash": "0x8003026f7e533f13d2f3f33518363a05790045104127e64c0dcf656881cbea29",
          "transactionIndex": "0x1d",
          "logIndex": "0x45",
          "removed": false
        }
      ],
      "logsBloom": "0x00000000000000000200000000000000000000000000000000000000000000000000000000000000000000020000000000000000000101000000000000000000008000000000000000000000000000000000000000000000000000000000000000000000000000000000000000000000000000000000000000000000000000000000000000000000000000000000000000000000000000000000000000000000000000000000000000000000000000000000000000000000000001000000080000000000000000000000000000000000000000000000000000000000000000000008000000000000000000000000000000000000000000400000000000000000",
      "type": "0x0",
      "transactionHash": "0x8003026f7e533f13d2f3f33518363a05790045104127e64c0dcf656881cbea29",
      "transactionIndex": "0x1d",
      "blockHash": "0xe8b162103819ed2827bf1a5ac85d2f7cc556a40139a2ced3bb16697646139129",
      "blockNumber": "0x744a67",
      "gasUsed": "0x1e141",
      "effectiveGasPrice": "0xc1b710800",
      "from": "0x6efb11ac41b6657c32dac5ed4874082c700bba29",
      "to": "0x6e7e29c33cdc76b8e758edfc71a2f256256e1c42",
      "contractAddress": null
    },
    {
      "status": "0x1",
      "cumulativeGasUsed": "0x39cd71",
      "logs": [
        {
          "address": "0x6e7e29c33cdc76b8e758edfc71a2f256256e1c42",
          "topics": [
            "0x3708850f6b514b2340d559340763b829a8c335ebcaf58b067617ae8cf562844f",
            "0x00000000000000000000000077c037fbf42e85db1487b390b08f58c00f438812"
          ],
          "data": "0x00000000000000000000000000000000000000000000000000000000000000400000000000000000000000000000000000000000000000000000000000000080000000000000000000000000000000000000000000000000000000000000000e546573742043757261746f722033000000000000000000000000000000000000000000000000000000000000000000000000000000000000000000000000009f68747470733a2f2f696d616765732d706c6174666f726d2e39397374617469632e636f6d2f2f37776347444343764431334d4f6f72535364626871474e5533716b3d2f32353678323238393a37353678323738392f6669742d696e2f353930783539302f393964657369676e732d636f6e74657374732d6174746163686d656e74732f37302f37303433382f6174746163686d656e745f373034333835343700",
          "blockHash": "0x79e0035aee21363df4db65346c41cdd8dd16e72c2ef994d19a624f717230a5bd",
          "blockNumber": "0x744a6d",
          "blockTimestamp": "0x67d32e99",
          "transactionHash": "0xed09ab69eb5fb67f5f82ef52a26a3aa326484857a4dbe09f4101d22367961f20",
          "transactionIndex": "0x15",
          "logIndex": "0x35",
          "removed": false
        }
      ],
      "logsBloom": "0x00000000000000000000000000000000000000000000000000000000000000000000000000000000000000020000000000000000000001000000400000000000008000000000200000000000000000000000000000000000000000000000000000000000000000000000000000000000000000000000000000000000000000000000000000000000000000000000000000000000000000000000000000000000000000000000000000000000000000000000000000000000000000000000080000000000000000000000000000000000000000000000000000000000000000000008000000000000000000000000000000000000000000400000000800000000",
      "type": "0x0",
      "transactionHash": "0xed09ab69eb5fb67f5f82ef52a26a3aa326484857a4dbe09f4101d22367961f20",
      "transactionIndex": "0x15",
      "blockHash": "0x79e0035aee21363df4db65346c41cdd8dd16e72c2ef994d19a624f717230a5bd",
      "blockNumber": "0x744a6d",
      "gasUsed": "0x57b62",
      "effectiveGasPrice": "0xc1b710800",
      "from": "0x6efb11ac41b6657c32dac5ed4874082c700bba29",
      "to": "0x6e7e29c33cdc76b8e758edfc71a2f256256e1c42",
      "contractAddress": null
    },
    {
      "status": "0x1",
      "cumulativeGasUsed": "0x1592fc",
      "logs": [
        {
          "address": "0xa4b16c61e500e7d24907cc149904066dc5abe516",
          "topics": [
            "0x8be0079c531659141344cd1fd0a4f28419497f9722a3daafe3b4186f6b6457e0",
            "0x0000000000000000000000000000000000000000000000000000000000000000",
            "0x0000000000000000000000006efb11ac41b6657c32dac5ed4874082c700bba29"
          ],
          "data": "0x",
          "blockHash": "0x99a41f0a161429018194b7a933ff8c4b97f83f04263e8fb990f5daa32c70564e",
          "blockNumber": "0x744a71",
          "blockTimestamp": "0x67d32e9b",
          "transactionHash": "0x170feb366d3c8240aee84515b4d8ecba784e22813d2b53bc290fccb2740fd435",
          "transactionIndex": "0xb",
          "logIndex": "0xd",
          "removed": false
        },
        {
          "address": "0x2cb90f0d8a09b589bafdbe8797cdb538e412135c",
          "topics": [
            "0xcd9b93471f9f84b656abb160527f47ccb4ffea8cc46a8a68e5faeb2177a5cd8f",
            "0x0000000000000000000000006efb11ac41b6657c32dac5ed4874082c700bba29",
            "0x000000000000000000000000a4b16c61e500e7d24907cc149904066dc5abe516"
          ],
          "data": "0x0000000000000000000000000000000000000000000000000000000000000020000000000000000000000000000000000000000000000000000000000000000b43757261746f72204f6e65000000000000000000000000000000000000000000",
          "blockHash": "0x99a41f0a161429018194b7a933ff8c4b97f83f04263e8fb990f5daa32c70564e",
          "blockNumber": "0x744a71",
          "blockTimestamp": "0x67d32e9b",
          "transactionHash": "0x170feb366d3c8240aee84515b4d8ecba784e22813d2b53bc290fccb2740fd435",
          "transactionIndex": "0xb",
          "logIndex": "0xe",
          "removed": false
        }
      ],
      "logsBloom": "0x00000004000004000200000000000000000000000000000000800000000000000000000000000000000000000000000000000000000100000000400000000000000000000000000000000000000000000001000000000000000000000080000000000000020000000000000000000800000000000000000000000000000000400000000000000000000000000800000000000000000000000000000001000200000000000000000000000000100000000000000000000000000001000000020000000400000000000000000000000000000000000000000000000000000020000000000000000000400000000000000000000000000080000000000000000000",
      "type": "0x0",
      "transactionHash": "0x170feb366d3c8240aee84515b4d8ecba784e22813d2b53bc290fccb2740fd435",
      "transactionIndex": "0xb",
      "blockHash": "0x99a41f0a161429018194b7a933ff8c4b97f83f04263e8fb990f5daa32c70564e",
      "blockNumber": "0x744a71",
      "gasUsed": "0x502e9",
      "effectiveGasPrice": "0xc1b710800",
      "from": "0x6efb11ac41b6657c32dac5ed4874082c700bba29",
      "to": "0x2cb90f0d8a09b589bafdbe8797cdb538e412135c",
      "contractAddress": null
    },
    {
      "status": "0x1",
      "cumulativeGasUsed": "0xfc38e2",
      "logs": [
        {
          "address": "0x2c53ce7143d24a65410107f50e4aabad9a164480",
          "topics": [
            "0x8c5be1e5ebec7d5bd14f71427d1e84f3dd0314c0f7b2291e5b200ac8c7c3b925",
            "0x000000000000000000000000d55c09f4557b56352ea132963207d1987464f52c",
            "0x0000000000000000000000008cb82ffca2ea57b29ad137b9a8cdca718233ff96"
          ],
          "data": "0xffffffffffffffffffffffffffffffffffffffffffffffffffffffffffffffff",
          "blockHash": "0x8eade0b87b514019b0cfbe44df5b8020918bfd4832e228f790cfddaf2a7caffb",
          "blockNumber": "0x744a76",
          "blockTimestamp": "0x67d32ea0",
          "transactionHash": "0x2075654ba1eba0fc6a35cfb3934e73a11ad635a286e49f7db07ea79f3907160e",
          "transactionIndex": "0x69",
          "logIndex": "0x76",
          "removed": false
        },
        {
          "address": "0x2c53ce7143d24a65410107f50e4aabad9a164480",
          "topics": [
            "0x8c5be1e5ebec7d5bd14f71427d1e84f3dd0314c0f7b2291e5b200ac8c7c3b925",
            "0x000000000000000000000000d55c09f4557b56352ea132963207d1987464f52c",
            "0x000000000000000000000000e50914672560e18b2f5ce311a4557880df05000c"
          ],
          "data": "0xffffffffffffffffffffffffffffffffffffffffffffffffffffffffffffffff",
          "blockHash": "0x8eade0b87b514019b0cfbe44df5b8020918bfd4832e228f790cfddaf2a7caffb",
          "blockNumber": "0x744a76",
          "blockTimestamp": "0x67d32ea0",
          "transactionHash": "0x2075654ba1eba0fc6a35cfb3934e73a11ad635a286e49f7db07ea79f3907160e",
          "transactionIndex": "0x69",
          "logIndex": "0x77",
          "removed": false
        },
        {
          "address": "0x58389610a3d13e8f380ee2ba077a6f36f2a90834",
          "topics": [
            "0x8c5be1e5ebec7d5bd14f71427d1e84f3dd0314c0f7b2291e5b200ac8c7c3b925",
            "0x000000000000000000000000d55c09f4557b56352ea132963207d1987464f52c",
            "0x0000000000000000000000008cb82ffca2ea57b29ad137b9a8cdca718233ff96"
          ],
          "data": "0xffffffffffffffffffffffffffffffffffffffffffffffffffffffffffffffff",
          "blockHash": "0x8eade0b87b514019b0cfbe44df5b8020918bfd4832e228f790cfddaf2a7caffb",
          "blockNumber": "0x744a76",
          "blockTimestamp": "0x67d32ea0",
          "transactionHash": "0x2075654ba1eba0fc6a35cfb3934e73a11ad635a286e49f7db07ea79f3907160e",
          "transactionIndex": "0x69",
          "logIndex": "0x78",
          "removed": false
        },
        {
          "address": "0x58389610a3d13e8f380ee2ba077a6f36f2a90834",
          "topics": [
            "0x8c5be1e5ebec7d5bd14f71427d1e84f3dd0314c0f7b2291e5b200ac8c7c3b925",
            "0x000000000000000000000000d55c09f4557b56352ea132963207d1987464f52c",
            "0x000000000000000000000000e50914672560e18b2f5ce311a4557880df05000c"
          ],
          "data": "0xffffffffffffffffffffffffffffffffffffffffffffffffffffffffffffffff",
          "blockHash": "0x8eade0b87b514019b0cfbe44df5b8020918bfd4832e228f790cfddaf2a7caffb",
          "blockNumber": "0x744a76",
          "blockTimestamp": "0x67d32ea0",
          "transactionHash": "0x2075654ba1eba0fc6a35cfb3934e73a11ad635a286e49f7db07ea79f3907160e",
          "transactionIndex": "0x69",
          "logIndex": "0x79",
          "removed": false
        },
        {
          "address": "0x52ef58ff7156f9cb525a578ea09c1eb1edb60dc6",
          "topics": [
            "0x663b82ac98018fd9ebc6237c60a8e64fcb638bdc8947d37507228931924d8f73",
            "0x000000000000000000000000a4b16c61e500e7d24907cc149904066dc5abe516",
            "0x000000000000000000000000d55c09f4557b56352ea132963207d1987464f52c",
            "0x00000000000000000000000058389610a3d13e8f380ee2ba077a6f36f2a90834"
          ],
          "data": "0x00000000000000000000000000000000000000000000000000000000000000200000000000000000000000000000000000000000000000000000000000000013426c7565204368697020506f7274666f6c696f00000000000000000000000000",
          "blockHash": "0x8eade0b87b514019b0cfbe44df5b8020918bfd4832e228f790cfddaf2a7caffb",
          "blockNumber": "0x744a76",
          "blockTimestamp": "0x67d32ea0",
          "transactionHash": "0x2075654ba1eba0fc6a35cfb3934e73a11ad635a286e49f7db07ea79f3907160e",
          "transactionIndex": "0x69",
          "logIndex": "0x7a",
          "removed": false
        }
      ],
      "logsBloom": "0x00000000000000001000000000000000000000000000000000000000001000000000000000000000000000000000000000401020000010000000000000200000000000000900400000000000000000000000000000000400001000000000000002020000000000000000000040000000000400000000000000000000000000000000000040002000000000000000000000000000000000000000000000000410020000000000000000000000000000040000000000000000000000000000000000000400000000000000000000000000000000010000000000000000400000000010001000000000400000000000000000000000000880000000000000000000",
      "type": "0x0",
      "transactionHash": "0x2075654ba1eba0fc6a35cfb3934e73a11ad635a286e49f7db07ea79f3907160e",
      "transactionIndex": "0x69",
      "blockHash": "0x8eade0b87b514019b0cfbe44df5b8020918bfd4832e228f790cfddaf2a7caffb",
      "blockNumber": "0x744a76",
      "gasUsed": "0x346087",
      "effectiveGasPrice": "0xc1b710800",
      "from": "0x6efb11ac41b6657c32dac5ed4874082c700bba29",
      "to": "0x52ef58ff7156f9cb525a578ea09c1eb1edb60dc6",
      "contractAddress": null
    },
    {
      "status": "0x1",
      "cumulativeGasUsed": "0x6489f6",
      "logs": [
        {
          "address": "0x58389610a3d13e8f380ee2ba077a6f36f2a90834",
          "topics": [
            "0x8c5be1e5ebec7d5bd14f71427d1e84f3dd0314c0f7b2291e5b200ac8c7c3b925",
            "0x000000000000000000000000d55c09f4557b56352ea132963207d1987464f52c",
            "0x0000000000000000000000000e87d21bd714d3391e992227e472517a9dc16a24"
          ],
          "data": "0xffffffffffffffffffffffffffffffffffffffffffffffffffffffffffffffff",
          "blockHash": "0xd551477b090effda8277022286941ef9dac387a50cabf5fb887a966d9b9efcbf",
          "blockNumber": "0x744a7c",
          "blockTimestamp": "0x67d32ea3",
          "transactionHash": "0xd4173b3e86133f79d7c7e37634576c2304e18b2b7fd184883dece234da61ed93",
          "transactionIndex": "0x23",
          "logIndex": "0x57",
          "removed": false
        },
        {
          "address": "0x0e87d21bd714d3391e992227e472517a9dc16a24",
          "topics": [
            "0x8c5be1e5ebec7d5bd14f71427d1e84f3dd0314c0f7b2291e5b200ac8c7c3b925",
            "0x000000000000000000000000d55c09f4557b56352ea132963207d1987464f52c",
            "0x0000000000000000000000008cb82ffca2ea57b29ad137b9a8cdca718233ff96"
          ],
          "data": "0xffffffffffffffffffffffffffffffffffffffffffffffffffffffffffffffff",
          "blockHash": "0xd551477b090effda8277022286941ef9dac387a50cabf5fb887a966d9b9efcbf",
          "blockNumber": "0x744a7c",
          "blockTimestamp": "0x67d32ea3",
          "transactionHash": "0xd4173b3e86133f79d7c7e37634576c2304e18b2b7fd184883dece234da61ed93",
          "transactionIndex": "0x23",
          "logIndex": "0x58",
          "removed": false
        },
        {
          "address": "0xd55c09f4557b56352ea132963207d1987464f52c",
          "topics": [
            "0xa64754291535175942be6f35fba8deab36d97ea608b17d06cc5efb985e17215f",
            "0x0000000000000000000000000e87d21bd714d3391e992227e472517a9dc16a24"
          ],
          "data": "0x0000000000000000000000000000000000000000000000000000000000001194",
          "blockHash": "0xd551477b090effda8277022286941ef9dac387a50cabf5fb887a966d9b9efcbf",
          "blockNumber": "0x744a7c",
          "blockTimestamp": "0x67d32ea3",
          "transactionHash": "0xd4173b3e86133f79d7c7e37634576c2304e18b2b7fd184883dece234da61ed93",
          "transactionIndex": "0x23",
          "logIndex": "0x59",
          "removed": false
        }
      ],
      "logsBloom": "0x00000000000000000000000000000000004080000000000000000200001000000000000000000000000000000000000000000000000000000000000000200020000000000900000000000000000020004000000000000400001800000000000003000000000000000000000000000008000000000001000000000000000000000000000000000000000000000000000000000000000000000000000000000400020000000000000000000000000000040000000000000000000000000000800000000000000000000000000000000000000000000000000000000000400000000050000000000000000000000000000000000000000000000000000000000000",
      "type": "0x0",
      "transactionHash": "0xd4173b3e86133f79d7c7e37634576c2304e18b2b7fd184883dece234da61ed93",
      "transactionIndex": "0x23",
      "blockHash": "0xd551477b090effda8277022286941ef9dac387a50cabf5fb887a966d9b9efcbf",
      "blockNumber": "0x744a7c",
      "gasUsed": "0x5a1fd",
      "effectiveGasPrice": "0xc1b710800",
      "from": "0x6efb11ac41b6657c32dac5ed4874082c700bba29",
      "to": "0xa4b16c61e500e7d24907cc149904066dc5abe516",
      "contractAddress": null
    },
    {
      "status": "0x1",
      "cumulativeGasUsed": "0x4b76b9",
      "logs": [
        {
          "address": "0x58389610a3d13e8f380ee2ba077a6f36f2a90834",
          "topics": [
            "0x8c5be1e5ebec7d5bd14f71427d1e84f3dd0314c0f7b2291e5b200ac8c7c3b925",
            "0x000000000000000000000000d55c09f4557b56352ea132963207d1987464f52c",
            "0x000000000000000000000000c9363063c1c5ea9392cc21bc44afd644632e618a"
          ],
          "data": "0xffffffffffffffffffffffffffffffffffffffffffffffffffffffffffffffff",
          "blockHash": "0xdfdd5d0a4d73bf5464e882daac2c3a914d8632449e8926137535fd749db15ea8",
          "blockNumber": "0x744a83",
          "blockTimestamp": "0x67d32ea6",
          "transactionHash": "0x007b75884717f9731261b4231c24b2eedf40ccb3a7cef7dc31da880b5150e3bc",
          "transactionIndex": "0x20",
          "logIndex": "0x42",
          "removed": false
        },
        {
          "address": "0xc9363063c1c5ea9392cc21bc44afd644632e618a",
          "topics": [
            "0x8c5be1e5ebec7d5bd14f71427d1e84f3dd0314c0f7b2291e5b200ac8c7c3b925",
            "0x000000000000000000000000d55c09f4557b56352ea132963207d1987464f52c",
            "0x0000000000000000000000008cb82ffca2ea57b29ad137b9a8cdca718233ff96"
          ],
          "data": "0xffffffffffffffffffffffffffffffffffffffffffffffffffffffffffffffff",
          "blockHash": "0xdfdd5d0a4d73bf5464e882daac2c3a914d8632449e8926137535fd749db15ea8",
          "blockNumber": "0x744a83",
          "blockTimestamp": "0x67d32ea6",
          "transactionHash": "0x007b75884717f9731261b4231c24b2eedf40ccb3a7cef7dc31da880b5150e3bc",
          "transactionIndex": "0x20",
          "logIndex": "0x43",
          "removed": false
        },
        {
          "address": "0xd55c09f4557b56352ea132963207d1987464f52c",
          "topics": [
            "0xa64754291535175942be6f35fba8deab36d97ea608b17d06cc5efb985e17215f",
            "0x000000000000000000000000c9363063c1c5ea9392cc21bc44afd644632e618a"
          ],
          "data": "0x0000000000000000000000000000000000000000000000000000000000000bb8",
          "blockHash": "0xdfdd5d0a4d73bf5464e882daac2c3a914d8632449e8926137535fd749db15ea8",
          "blockNumber": "0x744a83",
          "blockTimestamp": "0x67d32ea6",
          "transactionHash": "0x007b75884717f9731261b4231c24b2eedf40ccb3a7cef7dc31da880b5150e3bc",
          "transactionIndex": "0x20",
          "logIndex": "0x44",
          "removed": false
        }
      ],
      "logsBloom": "0x00000000000000000000000000000000000000000000000000000000001000000000000000000000000000000000000000000000000000000000000000200020000000000900000000100000000000000000000000000400001800000000000003000000000000000000000000000008000000000001000000000000000000000000000000000000000000000000000000000004000000000000000400000400020000000000000000000000000000040000000000000000000000000000000000000800000000000000000000000000000000000000000000020000402000000050000000000000000000000000000000000000000000000000000000000000",
      "type": "0x0",
      "transactionHash": "0x007b75884717f9731261b4231c24b2eedf40ccb3a7cef7dc31da880b5150e3bc",
      "transactionIndex": "0x20",
      "blockHash": "0xdfdd5d0a4d73bf5464e882daac2c3a914d8632449e8926137535fd749db15ea8",
      "blockNumber": "0x744a83",
      "gasUsed": "0x4f59c",
      "effectiveGasPrice": "0xc1b710800",
      "from": "0x6efb11ac41b6657c32dac5ed4874082c700bba29",
      "to": "0xa4b16c61e500e7d24907cc149904066dc5abe516",
      "contractAddress": null
    },
    {
      "status": "0x1",
      "cumulativeGasUsed": "0x23471c",
      "logs": [
        {
          "address": "0x58389610a3d13e8f380ee2ba077a6f36f2a90834",
          "topics": [
            "0x8c5be1e5ebec7d5bd14f71427d1e84f3dd0314c0f7b2291e5b200ac8c7c3b925",
            "0x000000000000000000000000d55c09f4557b56352ea132963207d1987464f52c",
            "0x000000000000000000000000ba8a671c225721803cd64b12cb62a2363e9ee873"
          ],
          "data": "0xffffffffffffffffffffffffffffffffffffffffffffffffffffffffffffffff",
          "blockHash": "0xbc0f8750394345c5be8dbcb2e2cbec22b43a0336ea1317ea9a9b8c1f5b103739",
          "blockNumber": "0x744a89",
          "blockTimestamp": "0x67d32ea9",
          "transactionHash": "0x626c01c1b33d668b0c884d7043cc9902e6aa2db86de4d7fbbbbf07d6aa5a4060",
          "transactionIndex": "0x17",
          "logIndex": "0x18",
          "removed": false
        },
        {
          "address": "0xba8a671c225721803cd64b12cb62a2363e9ee873",
          "topics": [
            "0x8c5be1e5ebec7d5bd14f71427d1e84f3dd0314c0f7b2291e5b200ac8c7c3b925",
            "0x000000000000000000000000d55c09f4557b56352ea132963207d1987464f52c",
            "0x0000000000000000000000008cb82ffca2ea57b29ad137b9a8cdca718233ff96"
          ],
          "data": "0xffffffffffffffffffffffffffffffffffffffffffffffffffffffffffffffff",
          "blockHash": "0xbc0f8750394345c5be8dbcb2e2cbec22b43a0336ea1317ea9a9b8c1f5b103739",
          "blockNumber": "0x744a89",
          "blockTimestamp": "0x67d32ea9",
          "transactionHash": "0x626c01c1b33d668b0c884d7043cc9902e6aa2db86de4d7fbbbbf07d6aa5a4060",
          "transactionIndex": "0x17",
          "logIndex": "0x19",
          "removed": false
        },
        {
          "address": "0xd55c09f4557b56352ea132963207d1987464f52c",
          "topics": [
            "0xa64754291535175942be6f35fba8deab36d97ea608b17d06cc5efb985e17215f",
            "0x000000000000000000000000ba8a671c225721803cd64b12cb62a2363e9ee873"
          ],
          "data": "0x00000000000000000000000000000000000000000000000000000000000009c4",
          "blockHash": "0xbc0f8750394345c5be8dbcb2e2cbec22b43a0336ea1317ea9a9b8c1f5b103739",
          "blockNumber": "0x744a89",
          "blockTimestamp": "0x67d32ea9",
          "transactionHash": "0x626c01c1b33d668b0c884d7043cc9902e6aa2db86de4d7fbbbbf07d6aa5a4060",
          "transactionIndex": "0x17",
          "logIndex": "0x1a",
          "removed": false
        }
      ],
      "logsBloom": "0x00000000000000000000000000000000000000000000000000000000001000000000000000000400000000000000000000000000000000000000000000200020000000000900000000000000000000000000000000000400001800000000000003000000000000000000000000000018400000000001000000000000000000000000000000000000000000000000000000000000200000000000000000000400020200000000000000000000000000040000000002000000000000000000000000000000000000000000000000000000000000000000000000000000400000000050000000000000000000000000000000000000000000000000000000000000",
      "type": "0x0",
      "transactionHash": "0x626c01c1b33d668b0c884d7043cc9902e6aa2db86de4d7fbbbbf07d6aa5a4060",
      "transactionIndex": "0x17",
      "blockHash": "0xbc0f8750394345c5be8dbcb2e2cbec22b43a0336ea1317ea9a9b8c1f5b103739",
      "blockNumber": "0x744a89",
      "gasUsed": "0x4f59c",
      "effectiveGasPrice": "0xc1b710800",
      "from": "0x6efb11ac41b6657c32dac5ed4874082c700bba29",
      "to": "0xa4b16c61e500e7d24907cc149904066dc5abe516",
      "contractAddress": null
    },
    {
      "status": "0x1",
      "cumulativeGasUsed": "0x464253e",
      "logs": [
        {
          "address": "0x557d933b4c8a48779df266ea3d0c32d891bd3554",
          "topics": [
            "0x8be0079c531659141344cd1fd0a4f28419497f9722a3daafe3b4186f6b6457e0",
            "0x0000000000000000000000000000000000000000000000000000000000000000",
            "0x0000000000000000000000006efb11ac41b6657c32dac5ed4874082c700bba29"
          ],
          "data": "0x",
          "blockHash": "0x92ff5d1ae1c545dcc2b7773ddd5422aff1cddf939f07a67be62a2816ba57b894",
          "blockNumber": "0x744a8b",
          "blockTimestamp": "0x67d32ead",
          "transactionHash": "0x7a2e85c357def5adb31c5465b51ea577b7adfa6e2021cab76d9f0cb59dbabcaa",
          "transactionIndex": "0x89",
          "logIndex": "0xd3",
          "removed": false
        },
        {
          "address": "0x2cb90f0d8a09b589bafdbe8797cdb538e412135c",
          "topics": [
            "0xcd9b93471f9f84b656abb160527f47ccb4ffea8cc46a8a68e5faeb2177a5cd8f",
            "0x0000000000000000000000006efb11ac41b6657c32dac5ed4874082c700bba29",
            "0x000000000000000000000000557d933b4c8a48779df266ea3d0c32d891bd3554"
          ],
          "data": "0x0000000000000000000000000000000000000000000000000000000000000020000000000000000000000000000000000000000000000000000000000000000b43757261746f722054776f000000000000000000000000000000000000000000",
          "blockHash": "0x92ff5d1ae1c545dcc2b7773ddd5422aff1cddf939f07a67be62a2816ba57b894",
          "blockNumber": "0x744a8b",
          "blockTimestamp": "0x67d32ead",
          "transactionHash": "0x7a2e85c357def5adb31c5465b51ea577b7adfa6e2021cab76d9f0cb59dbabcaa",
          "transactionIndex": "0x89",
          "logIndex": "0xd4",
          "removed": false
        }
      ],
      "logsBloom": "0x00000004000000000200000000000000000000000000000000800000000000000000000000000000000000000000000000000000000100000000400000000000000000000000000100000000000000000001000000000000000000000080000000000000020000000000000000000810000000000000000000000000008000400000000000000000000000000800000000000000000000000000000001000200000000000000800000000000000000000000000000000000900001000000000000000000000000000000000000000000000000000000000000000000000020000000000000000000000000000000000000000000000000000000000000000000",
      "type": "0x0",
      "transactionHash": "0x7a2e85c357def5adb31c5465b51ea577b7adfa6e2021cab76d9f0cb59dbabcaa",
      "transactionIndex": "0x89",
      "blockHash": "0x92ff5d1ae1c545dcc2b7773ddd5422aff1cddf939f07a67be62a2816ba57b894",
      "blockNumber": "0x744a8b",
      "gasUsed": "0x4ecb0",
      "effectiveGasPrice": "0xc1b710800",
      "from": "0x6efb11ac41b6657c32dac5ed4874082c700bba29",
      "to": "0x2cb90f0d8a09b589bafdbe8797cdb538e412135c",
      "contractAddress": null
    },
    {
      "status": "0x1",
      "cumulativeGasUsed": "0x4b5e3c",
      "logs": [
        {
          "address": "0x2c53ce7143d24a65410107f50e4aabad9a164480",
          "topics": [
            "0x8c5be1e5ebec7d5bd14f71427d1e84f3dd0314c0f7b2291e5b200ac8c7c3b925",
            "0x000000000000000000000000e4ddb20ad5502160e9949ec58ee7e736a950d1c3",
            "0x0000000000000000000000008cb82ffca2ea57b29ad137b9a8cdca718233ff96"
          ],
          "data": "0xffffffffffffffffffffffffffffffffffffffffffffffffffffffffffffffff",
          "blockHash": "0x0217ed64e1fb7fee3921525150562a763c485fffe7a7e6bf3ba442919f3b7562",
          "blockNumber": "0x744a92",
          "blockTimestamp": "0x67d32eb0",
          "transactionHash": "0xc1d5199bff87481671164c5f6e59fd9652f87d2ea4b806a8bee63e23bcac68b3",
          "transactionIndex": "0x13",
          "logIndex": "0x18",
          "removed": false
        },
        {
          "address": "0x2c53ce7143d24a65410107f50e4aabad9a164480",
          "topics": [
            "0x8c5be1e5ebec7d5bd14f71427d1e84f3dd0314c0f7b2291e5b200ac8c7c3b925",
            "0x000000000000000000000000e4ddb20ad5502160e9949ec58ee7e736a950d1c3",
            "0x000000000000000000000000e50914672560e18b2f5ce311a4557880df05000c"
          ],
          "data": "0xffffffffffffffffffffffffffffffffffffffffffffffffffffffffffffffff",
          "blockHash": "0x0217ed64e1fb7fee3921525150562a763c485fffe7a7e6bf3ba442919f3b7562",
          "blockNumber": "0x744a92",
          "blockTimestamp": "0x67d32eb0",
          "transactionHash": "0xc1d5199bff87481671164c5f6e59fd9652f87d2ea4b806a8bee63e23bcac68b3",
          "transactionIndex": "0x13",
          "logIndex": "0x19",
          "removed": false
        },
        {
          "address": "0x58389610a3d13e8f380ee2ba077a6f36f2a90834",
          "topics": [
            "0x8c5be1e5ebec7d5bd14f71427d1e84f3dd0314c0f7b2291e5b200ac8c7c3b925",
            "0x000000000000000000000000e4ddb20ad5502160e9949ec58ee7e736a950d1c3",
            "0x0000000000000000000000008cb82ffca2ea57b29ad137b9a8cdca718233ff96"
          ],
          "data": "0xffffffffffffffffffffffffffffffffffffffffffffffffffffffffffffffff",
          "blockHash": "0x0217ed64e1fb7fee3921525150562a763c485fffe7a7e6bf3ba442919f3b7562",
          "blockNumber": "0x744a92",
          "blockTimestamp": "0x67d32eb0",
          "transactionHash": "0xc1d5199bff87481671164c5f6e59fd9652f87d2ea4b806a8bee63e23bcac68b3",
          "transactionIndex": "0x13",
          "logIndex": "0x1a",
          "removed": false
        },
        {
          "address": "0x58389610a3d13e8f380ee2ba077a6f36f2a90834",
          "topics": [
            "0x8c5be1e5ebec7d5bd14f71427d1e84f3dd0314c0f7b2291e5b200ac8c7c3b925",
            "0x000000000000000000000000e4ddb20ad5502160e9949ec58ee7e736a950d1c3",
            "0x000000000000000000000000e50914672560e18b2f5ce311a4557880df05000c"
          ],
          "data": "0xffffffffffffffffffffffffffffffffffffffffffffffffffffffffffffffff",
          "blockHash": "0x0217ed64e1fb7fee3921525150562a763c485fffe7a7e6bf3ba442919f3b7562",
          "blockNumber": "0x744a92",
          "blockTimestamp": "0x67d32eb0",
          "transactionHash": "0xc1d5199bff87481671164c5f6e59fd9652f87d2ea4b806a8bee63e23bcac68b3",
          "transactionIndex": "0x13",
          "logIndex": "0x1b",
          "removed": false
        },
        {
          "address": "0x52ef58ff7156f9cb525a578ea09c1eb1edb60dc6",
          "topics": [
            "0x663b82ac98018fd9ebc6237c60a8e64fcb638bdc8947d37507228931924d8f73",
            "0x000000000000000000000000557d933b4c8a48779df266ea3d0c32d891bd3554",
            "0x000000000000000000000000e4ddb20ad5502160e9949ec58ee7e736a950d1c3",
            "0x00000000000000000000000058389610a3d13e8f380ee2ba077a6f36f2a90834"
          ],
          "data": "0x0000000000000000000000000000000000000000000000000000000000000020000000000000000000000000000000000000000000000000000000000000000c4d616a6f72204173736574730000000000000000000000000000000000000000",
          "blockHash": "0x0217ed64e1fb7fee3921525150562a763c485fffe7a7e6bf3ba442919f3b7562",
          "blockNumber": "0x744a92",
          "blockTimestamp": "0x67d32eb0",
          "transactionHash": "0xc1d5199bff87481671164c5f6e59fd9652f87d2ea4b806a8bee63e23bcac68b3",
          "transactionIndex": "0x13",
          "logIndex": "0x1c",
          "removed": false
        }
      ],
      "logsBloom": "0x00000000000000001000000000000000000000000000000000000000000000000000000000000000000000000000000000401020000010000000000000200000000000000100400100000000000000000000000000000400001000000000000002020000000000000000000040000010000400000000000000000000008000000000000040002000000000010000000002000000000000000000000000000410020000000000000000000000000000040000000000000000000000000000000000000000000000000000000000000000000000010000000000000000000000000010001000000010000000000000000000000000000800000000000000000000",
      "type": "0x0",
      "transactionHash": "0xc1d5199bff87481671164c5f6e59fd9652f87d2ea4b806a8bee63e23bcac68b3",
      "transactionIndex": "0x13",
      "blockHash": "0x0217ed64e1fb7fee3921525150562a763c485fffe7a7e6bf3ba442919f3b7562",
      "blockNumber": "0x744a92",
      "gasUsed": "0x317748",
      "effectiveGasPrice": "0xc1b710800",
      "from": "0x6efb11ac41b6657c32dac5ed4874082c700bba29",
      "to": "0x52ef58ff7156f9cb525a578ea09c1eb1edb60dc6",
      "contractAddress": null
    },
    {
      "status": "0x1",
      "cumulativeGasUsed": "0x1da69a",
      "logs": [
        {
          "address": "0x58389610a3d13e8f380ee2ba077a6f36f2a90834",
          "topics": [
            "0x8c5be1e5ebec7d5bd14f71427d1e84f3dd0314c0f7b2291e5b200ac8c7c3b925",
            "0x000000000000000000000000e4ddb20ad5502160e9949ec58ee7e736a950d1c3",
            "0x0000000000000000000000000e87d21bd714d3391e992227e472517a9dc16a24"
          ],
          "data": "0xffffffffffffffffffffffffffffffffffffffffffffffffffffffffffffffff",
          "blockHash": "0x220b7dec77e914a8ba2bdb570bf9ee38d492f3488ee2ae275c382558d3a20887",
          "blockNumber": "0x744a97",
          "blockTimestamp": "0x67d32eb2",
          "transactionHash": "0xe0a8e90d757c112b13fffa59efde9ee6692e73e19e680264cf105ea4b5fcd065",
          "transactionIndex": "0x10",
          "logIndex": "0x1b",
          "removed": false
        },
        {
          "address": "0x0e87d21bd714d3391e992227e472517a9dc16a24",
          "topics": [
            "0x8c5be1e5ebec7d5bd14f71427d1e84f3dd0314c0f7b2291e5b200ac8c7c3b925",
            "0x000000000000000000000000e4ddb20ad5502160e9949ec58ee7e736a950d1c3",
            "0x0000000000000000000000008cb82ffca2ea57b29ad137b9a8cdca718233ff96"
          ],
          "data": "0xffffffffffffffffffffffffffffffffffffffffffffffffffffffffffffffff",
          "blockHash": "0x220b7dec77e914a8ba2bdb570bf9ee38d492f3488ee2ae275c382558d3a20887",
          "blockNumber": "0x744a97",
          "blockTimestamp": "0x67d32eb2",
          "transactionHash": "0xe0a8e90d757c112b13fffa59efde9ee6692e73e19e680264cf105ea4b5fcd065",
          "transactionIndex": "0x10",
          "logIndex": "0x1c",
          "removed": false
        },
        {
          "address": "0xe4ddb20ad5502160e9949ec58ee7e736a950d1c3",
          "topics": [
            "0xa64754291535175942be6f35fba8deab36d97ea608b17d06cc5efb985e17215f",
            "0x0000000000000000000000000e87d21bd714d3391e992227e472517a9dc16a24"
          ],
          "data": "0x0000000000000000000000000000000000000000000000000000000000001388",
          "blockHash": "0x220b7dec77e914a8ba2bdb570bf9ee38d492f3488ee2ae275c382558d3a20887",
          "blockNumber": "0x744a97",
          "blockTimestamp": "0x67d32eb2",
          "transactionHash": "0xe0a8e90d757c112b13fffa59efde9ee6692e73e19e680264cf105ea4b5fcd065",
          "transactionIndex": "0x10",
          "logIndex": "0x1d",
          "removed": false
        }
      ],
      "logsBloom": "0x0000000000000000000000000000000000c080000000000000000200000000000000000000000000000000000000000000000000000000000000000000200000000000000100000000000000000020004000000000000400001800000000000003000000040000000000000000000000000000000000000000000000000000000000000000000000000000010000000002000000000000000000000000000400020000000000000000000000000000040000000000000000000000000000800000000000000000000000000000000000000008000000000000000000000000000050000000000010000000000000000000000000000000000000000000000000",
      "type": "0x0",
      "transactionHash": "0xe0a8e90d757c112b13fffa59efde9ee6692e73e19e680264cf105ea4b5fcd065",
      "transactionIndex": "0x10",
      "blockHash": "0x220b7dec77e914a8ba2bdb570bf9ee38d492f3488ee2ae275c382558d3a20887",
      "blockNumber": "0x744a97",
      "gasUsed": "0x5a1fd",
      "effectiveGasPrice": "0xc1b710800",
      "from": "0x6efb11ac41b6657c32dac5ed4874082c700bba29",
      "to": "0x557d933b4c8a48779df266ea3d0c32d891bd3554",
      "contractAddress": null
    },
    {
      "status": "0x1",
      "cumulativeGasUsed": "0x3dd44c",
      "logs": [
        {
          "address": "0x58389610a3d13e8f380ee2ba077a6f36f2a90834",
          "topics": [
            "0x8c5be1e5ebec7d5bd14f71427d1e84f3dd0314c0f7b2291e5b200ac8c7c3b925",
            "0x000000000000000000000000e4ddb20ad5502160e9949ec58ee7e736a950d1c3",
            "0x000000000000000000000000c9363063c1c5ea9392cc21bc44afd644632e618a"
          ],
          "data": "0xffffffffffffffffffffffffffffffffffffffffffffffffffffffffffffffff",
          "blockHash": "0x9367da7fe3dd16d662bf99a646ebd146475c6dd3c9f18c7b7128424ff3e73445",
          "blockNumber": "0x744a9d",
          "blockTimestamp": "0x67d32eb6",
          "transactionHash": "0xc5b4eb12c65dc098737d515800d67bdca95f7b1cc1b6ce150ba37e70cc80e330",
          "transactionIndex": "0x17",
          "logIndex": "0x26",
          "removed": false
        },
        {
          "address": "0xc9363063c1c5ea9392cc21bc44afd644632e618a",
          "topics": [
            "0x8c5be1e5ebec7d5bd14f71427d1e84f3dd0314c0f7b2291e5b200ac8c7c3b925",
            "0x000000000000000000000000e4ddb20ad5502160e9949ec58ee7e736a950d1c3",
            "0x0000000000000000000000008cb82ffca2ea57b29ad137b9a8cdca718233ff96"
          ],
          "data": "0xffffffffffffffffffffffffffffffffffffffffffffffffffffffffffffffff",
          "blockHash": "0x9367da7fe3dd16d662bf99a646ebd146475c6dd3c9f18c7b7128424ff3e73445",
          "blockNumber": "0x744a9d",
          "blockTimestamp": "0x67d32eb6",
          "transactionHash": "0xc5b4eb12c65dc098737d515800d67bdca95f7b1cc1b6ce150ba37e70cc80e330",
          "transactionIndex": "0x17",
          "logIndex": "0x27",
          "removed": false
        },
        {
          "address": "0xe4ddb20ad5502160e9949ec58ee7e736a950d1c3",
          "topics": [
            "0xa64754291535175942be6f35fba8deab36d97ea608b17d06cc5efb985e17215f",
            "0x000000000000000000000000c9363063c1c5ea9392cc21bc44afd644632e618a"
          ],
          "data": "0x0000000000000000000000000000000000000000000000000000000000000bb8",
          "blockHash": "0x9367da7fe3dd16d662bf99a646ebd146475c6dd3c9f18c7b7128424ff3e73445",
          "blockNumber": "0x744a9d",
          "blockTimestamp": "0x67d32eb6",
          "transactionHash": "0xc5b4eb12c65dc098737d515800d67bdca95f7b1cc1b6ce150ba37e70cc80e330",
          "transactionIndex": "0x17",
          "logIndex": "0x28",
          "removed": false
        }
      ],
      "logsBloom": "0x00000000000000000000000000000000008000000000000000000000000000000000000000000000000000000000000000000000000000000000000000200000000000000100000000100000000000000000000000000400001800000000000003000000040000000000000000000000000000000000000000000000000000000000000000000000000000010000000002000004000000000000000400000400020000000000000000000000000000040000000000000000000000000000000000000800000000000000000000000000000008000000000000020000002000000050000000000010000000000000000000000000000000000000000000000000",
      "type": "0x0",
      "transactionHash": "0xc5b4eb12c65dc098737d515800d67bdca95f7b1cc1b6ce150ba37e70cc80e330",
      "transactionIndex": "0x17",
      "blockHash": "0x9367da7fe3dd16d662bf99a646ebd146475c6dd3c9f18c7b7128424ff3e73445",
      "blockNumber": "0x744a9d",
      "gasUsed": "0x4f59c",
      "effectiveGasPrice": "0xc1b710800",
      "from": "0x6efb11ac41b6657c32dac5ed4874082c700bba29",
      "to": "0x557d933b4c8a48779df266ea3d0c32d891bd3554",
      "contractAddress": null
    },
    {
      "status": "0x1",
      "cumulativeGasUsed": "0x33d142",
      "logs": [
        {
          "address": "0x58389610a3d13e8f380ee2ba077a6f36f2a90834",
          "topics": [
            "0x8c5be1e5ebec7d5bd14f71427d1e84f3dd0314c0f7b2291e5b200ac8c7c3b925",
            "0x000000000000000000000000e4ddb20ad5502160e9949ec58ee7e736a950d1c3",
            "0x000000000000000000000000007b2f0fb291307452065b4a620c29d56d8875dc"
          ],
          "data": "0xffffffffffffffffffffffffffffffffffffffffffffffffffffffffffffffff",
          "blockHash": "0x914a712a3b878255ba7863933f3da8fb1cea37eaf9efca19ce7a89117607ac3b",
          "blockNumber": "0x744aa3",
          "blockTimestamp": "0x67d32eb9",
          "transactionHash": "0x5ebbfb49ebef23d506e0f212f11b84b27289ca33be5554f4c0ee5bda8ced26d9",
          "transactionIndex": "0x16",
          "logIndex": "0x2c",
          "removed": false
        },
        {
          "address": "0x007b2f0fb291307452065b4a620c29d56d8875dc",
          "topics": [
            "0x8c5be1e5ebec7d5bd14f71427d1e84f3dd0314c0f7b2291e5b200ac8c7c3b925",
            "0x000000000000000000000000e4ddb20ad5502160e9949ec58ee7e736a950d1c3",
            "0x0000000000000000000000008cb82ffca2ea57b29ad137b9a8cdca718233ff96"
          ],
          "data": "0xffffffffffffffffffffffffffffffffffffffffffffffffffffffffffffffff",
          "blockHash": "0x914a712a3b878255ba7863933f3da8fb1cea37eaf9efca19ce7a89117607ac3b",
          "blockNumber": "0x744aa3",
          "blockTimestamp": "0x67d32eb9",
          "transactionHash": "0x5ebbfb49ebef23d506e0f212f11b84b27289ca33be5554f4c0ee5bda8ced26d9",
          "transactionIndex": "0x16",
          "logIndex": "0x2d",
          "removed": false
        },
        {
          "address": "0xe4ddb20ad5502160e9949ec58ee7e736a950d1c3",
          "topics": [
            "0xa64754291535175942be6f35fba8deab36d97ea608b17d06cc5efb985e17215f",
            "0x000000000000000000000000007b2f0fb291307452065b4a620c29d56d8875dc"
          ],
          "data": "0x00000000000000000000000000000000000000000000000000000000000007d0",
          "blockHash": "0x914a712a3b878255ba7863933f3da8fb1cea37eaf9efca19ce7a89117607ac3b",
          "blockNumber": "0x744aa3",
          "blockTimestamp": "0x67d32eb9",
          "transactionHash": "0x5ebbfb49ebef23d506e0f212f11b84b27289ca33be5554f4c0ee5bda8ced26d9",
          "transactionIndex": "0x16",
          "logIndex": "0x2e",
          "removed": false
        }
      ],
      "logsBloom": "0x00000000000000000008000000000000008000000000000000000000000000000000000000000000000000000000000000000000000000000800000000200000000000000100000000000000000000000000000000000400001800000000000103000000040000000000000000000000080000000000000000000000000000000000000000000000000000010000000002000000000000000000000000000400220000000000000000000000000000040000000000000000000000000000000000000000000000000000000000000000000008000000000000000000000000000050000000000010000000000000000000000000000000004000000000000000",
      "type": "0x0",
      "transactionHash": "0x5ebbfb49ebef23d506e0f212f11b84b27289ca33be5554f4c0ee5bda8ced26d9",
      "transactionIndex": "0x16",
      "blockHash": "0x914a712a3b878255ba7863933f3da8fb1cea37eaf9efca19ce7a89117607ac3b",
      "blockNumber": "0x744aa3",
      "gasUsed": "0x5403b",
      "effectiveGasPrice": "0xc1b710800",
      "from": "0x6efb11ac41b6657c32dac5ed4874082c700bba29",
      "to": "0x557d933b4c8a48779df266ea3d0c32d891bd3554",
      "contractAddress": null
    },
    {
      "status": "0x1",
      "cumulativeGasUsed": "0xb62d59",
      "logs": [
        {
          "address": "0x43a1721456b91a18087c22d83cb703037696995d",
          "topics": [
            "0x8be0079c531659141344cd1fd0a4f28419497f9722a3daafe3b4186f6b6457e0",
            "0x0000000000000000000000000000000000000000000000000000000000000000",
            "0x00000000000000000000000077c037fbf42e85db1487b390b08f58c00f438812"
          ],
          "data": "0x",
          "blockHash": "0xdcb262ba0ac7a687af504957310824e43da8f51b38657a094ad769a461a5e092",
          "blockNumber": "0x744aa9",
          "blockTimestamp": "0x67d32ebb",
          "transactionHash": "0xfb999e15c8412b5ec836ce6e700cf5b1b46a1a65374c2c279487b2c941eb9005",
          "transactionIndex": "0x1d",
          "logIndex": "0x66",
          "removed": false
        },
        {
          "address": "0x2cb90f0d8a09b589bafdbe8797cdb538e412135c",
          "topics": [
            "0xcd9b93471f9f84b656abb160527f47ccb4ffea8cc46a8a68e5faeb2177a5cd8f",
            "0x00000000000000000000000077c037fbf42e85db1487b390b08f58c00f438812",
            "0x00000000000000000000000043a1721456b91a18087c22d83cb703037696995d"
          ],
          "data": "0x0000000000000000000000000000000000000000000000000000000000000020000000000000000000000000000000000000000000000000000000000000000d43757261746f7220546872656500000000000000000000000000000000000000",
          "blockHash": "0xdcb262ba0ac7a687af504957310824e43da8f51b38657a094ad769a461a5e092",
          "blockNumber": "0x744aa9",
          "blockTimestamp": "0x67d32ebb",
          "transactionHash": "0xfb999e15c8412b5ec836ce6e700cf5b1b46a1a65374c2c279487b2c941eb9005",
          "transactionIndex": "0x1d",
          "logIndex": "0x67",
          "removed": false
        }
      ],
      "logsBloom": "0x00000004000000000000000000000000000000000400000000800000000000000000000000000000000000000008000000000000000000000000440000000000000000000000200000000000000000000001000000000002000000000080000000000000020000000000000000000800000000000000000000000000000002400000000000000000000000000800000000000000000000000000000001000200000000100000000000000000000000000000000000000000000000000000000000000000000000000000000000000000000000000000000000000000000020000000000000000000000000000000000000000000000000000000000800000000",
      "type": "0x0",
      "transactionHash": "0xfb999e15c8412b5ec836ce6e700cf5b1b46a1a65374c2c279487b2c941eb9005",
      "transactionIndex": "0x1d",
      "blockHash": "0xdcb262ba0ac7a687af504957310824e43da8f51b38657a094ad769a461a5e092",
      "blockNumber": "0x744aa9",
      "gasUsed": "0x5030b",
      "effectiveGasPrice": "0xc1b710800",
      "from": "0x77c037fbf42e85db1487b390b08f58c00f438812",
      "to": "0x2cb90f0d8a09b589bafdbe8797cdb538e412135c",
      "contractAddress": null
    },
    {
      "status": "0x1",
      "cumulativeGasUsed": "0x709acf",
      "logs": [
        {
          "address": "0x2c53ce7143d24a65410107f50e4aabad9a164480",
          "topics": [
            "0x8c5be1e5ebec7d5bd14f71427d1e84f3dd0314c0f7b2291e5b200ac8c7c3b925",
            "0x00000000000000000000000088e9ab627f453987b94d18472f0923bb08d18e14",
            "0x0000000000000000000000008cb82ffca2ea57b29ad137b9a8cdca718233ff96"
          ],
          "data": "0xffffffffffffffffffffffffffffffffffffffffffffffffffffffffffffffff",
          "blockHash": "0x65f080b6b661fffff4ba3370604c8a4d625101ecbbd8e66fcfcd21bab48d02ae",
          "blockNumber": "0x744aaf",
          "blockTimestamp": "0x67d32ebf",
          "transactionHash": "0x1847e0c66d878dff007574a86605645ce19017890472bcdd42acac4e37f2392f",
          "transactionIndex": "0x21",
          "logIndex": "0x39",
          "removed": false
        },
        {
          "address": "0x2c53ce7143d24a65410107f50e4aabad9a164480",
          "topics": [
            "0x8c5be1e5ebec7d5bd14f71427d1e84f3dd0314c0f7b2291e5b200ac8c7c3b925",
            "0x00000000000000000000000088e9ab627f453987b94d18472f0923bb08d18e14",
            "0x000000000000000000000000e50914672560e18b2f5ce311a4557880df05000c"
          ],
          "data": "0xffffffffffffffffffffffffffffffffffffffffffffffffffffffffffffffff",
          "blockHash": "0x65f080b6b661fffff4ba3370604c8a4d625101ecbbd8e66fcfcd21bab48d02ae",
          "blockNumber": "0x744aaf",
          "blockTimestamp": "0x67d32ebf",
          "transactionHash": "0x1847e0c66d878dff007574a86605645ce19017890472bcdd42acac4e37f2392f",
          "transactionIndex": "0x21",
          "logIndex": "0x3a",
          "removed": false
        },
        {
          "address": "0x58389610a3d13e8f380ee2ba077a6f36f2a90834",
          "topics": [
            "0x8c5be1e5ebec7d5bd14f71427d1e84f3dd0314c0f7b2291e5b200ac8c7c3b925",
            "0x00000000000000000000000088e9ab627f453987b94d18472f0923bb08d18e14",
            "0x0000000000000000000000008cb82ffca2ea57b29ad137b9a8cdca718233ff96"
          ],
          "data": "0xffffffffffffffffffffffffffffffffffffffffffffffffffffffffffffffff",
          "blockHash": "0x65f080b6b661fffff4ba3370604c8a4d625101ecbbd8e66fcfcd21bab48d02ae",
          "blockNumber": "0x744aaf",
          "blockTimestamp": "0x67d32ebf",
          "transactionHash": "0x1847e0c66d878dff007574a86605645ce19017890472bcdd42acac4e37f2392f",
          "transactionIndex": "0x21",
          "logIndex": "0x3b",
          "removed": false
        },
        {
          "address": "0x58389610a3d13e8f380ee2ba077a6f36f2a90834",
          "topics": [
            "0x8c5be1e5ebec7d5bd14f71427d1e84f3dd0314c0f7b2291e5b200ac8c7c3b925",
            "0x00000000000000000000000088e9ab627f453987b94d18472f0923bb08d18e14",
            "0x000000000000000000000000e50914672560e18b2f5ce311a4557880df05000c"
          ],
          "data": "0xffffffffffffffffffffffffffffffffffffffffffffffffffffffffffffffff",
          "blockHash": "0x65f080b6b661fffff4ba3370604c8a4d625101ecbbd8e66fcfcd21bab48d02ae",
          "blockNumber": "0x744aaf",
          "blockTimestamp": "0x67d32ebf",
          "transactionHash": "0x1847e0c66d878dff007574a86605645ce19017890472bcdd42acac4e37f2392f",
          "transactionIndex": "0x21",
          "logIndex": "0x3c",
          "removed": false
        },
        {
          "address": "0x52ef58ff7156f9cb525a578ea09c1eb1edb60dc6",
          "topics": [
            "0x663b82ac98018fd9ebc6237c60a8e64fcb638bdc8947d37507228931924d8f73",
            "0x00000000000000000000000043a1721456b91a18087c22d83cb703037696995d",
            "0x00000000000000000000000088e9ab627f453987b94d18472f0923bb08d18e14",
            "0x00000000000000000000000058389610a3d13e8f380ee2ba077a6f36f2a90834"
          ],
          "data": "0x0000000000000000000000000000000000000000000000000000000000000020000000000000000000000000000000000000000000000000000000000000000f4d6978656420506f7274666f6c696f0000000000000000000000000000000000",
          "blockHash": "0x65f080b6b661fffff4ba3370604c8a4d625101ecbbd8e66fcfcd21bab48d02ae",
          "blockNumber": "0x744aaf",
          "blockTimestamp": "0x67d32ebf",
          "transactionHash": "0x1847e0c66d878dff007574a86605645ce19017890472bcdd42acac4e37f2392f",
          "transactionIndex": "0x21",
          "logIndex": "0x3d",
          "removed": false
        }
      ],
      "logsBloom": "0x00000000000000001000000000000000000000000400000000000000000000000000000000000000000000000008000000401020000010000000000000200000000000000100400000000000000000000000000000000400001000000000000002020000000000000000000040000000000400000000000040100000000002000000000040002000000000000000000000000000000000000000800000000410020000000000000000000000000000040000000000000000000000000000000000000000000000000000000000000000000000010000000000000000000000000010001000000000000000000000000000000000000800000000000000000000",
      "type": "0x0",
      "transactionHash": "0x1847e0c66d878dff007574a86605645ce19017890472bcdd42acac4e37f2392f",
      "transactionIndex": "0x21",
      "blockHash": "0x65f080b6b661fffff4ba3370604c8a4d625101ecbbd8e66fcfcd21bab48d02ae",
      "blockNumber": "0x744aaf",
      "gasUsed": "0x346041",
      "effectiveGasPrice": "0xc1b710800",
      "from": "0x77c037fbf42e85db1487b390b08f58c00f438812",
      "to": "0x52ef58ff7156f9cb525a578ea09c1eb1edb60dc6",
      "contractAddress": null
    },
    {
      "status": "0x1",
      "cumulativeGasUsed": "0x7b854a",
      "logs": [
        {
          "address": "0x58389610a3d13e8f380ee2ba077a6f36f2a90834",
          "topics": [
            "0x8c5be1e5ebec7d5bd14f71427d1e84f3dd0314c0f7b2291e5b200ac8c7c3b925",
            "0x00000000000000000000000088e9ab627f453987b94d18472f0923bb08d18e14",
            "0x0000000000000000000000000e87d21bd714d3391e992227e472517a9dc16a24"
          ],
          "data": "0xffffffffffffffffffffffffffffffffffffffffffffffffffffffffffffffff",
          "blockHash": "0x95ce9d8566813f8753c42ae2438cc82a0a99935b75b44db5e334f33b83715e0c",
          "blockNumber": "0x744ab3",
          "blockTimestamp": "0x67d32ec1",
          "transactionHash": "0x3b75350f11ec7b849dbf8100ddb0f517e2cdd5e78023780282d93868ddf2ed26",
          "transactionIndex": "0x22",
          "logIndex": "0x42",
          "removed": false
        },
        {
          "address": "0x0e87d21bd714d3391e992227e472517a9dc16a24",
          "topics": [
            "0x8c5be1e5ebec7d5bd14f71427d1e84f3dd0314c0f7b2291e5b200ac8c7c3b925",
            "0x00000000000000000000000088e9ab627f453987b94d18472f0923bb08d18e14",
            "0x0000000000000000000000008cb82ffca2ea57b29ad137b9a8cdca718233ff96"
          ],
          "data": "0xffffffffffffffffffffffffffffffffffffffffffffffffffffffffffffffff",
          "blockHash": "0x95ce9d8566813f8753c42ae2438cc82a0a99935b75b44db5e334f33b83715e0c",
          "blockNumber": "0x744ab3",
          "blockTimestamp": "0x67d32ec1",
          "transactionHash": "0x3b75350f11ec7b849dbf8100ddb0f517e2cdd5e78023780282d93868ddf2ed26",
          "transactionIndex": "0x22",
          "logIndex": "0x43",
          "removed": false
        },
        {
          "address": "0x88e9ab627f453987b94d18472f0923bb08d18e14",
          "topics": [
            "0xa64754291535175942be6f35fba8deab36d97ea608b17d06cc5efb985e17215f",
            "0x0000000000000000000000000e87d21bd714d3391e992227e472517a9dc16a24"
          ],
          "data": "0x0000000000000000000000000000000000000000000000000000000000000fa0",
          "blockHash": "0x95ce9d8566813f8753c42ae2438cc82a0a99935b75b44db5e334f33b83715e0c",
          "blockNumber": "0x744ab3",
          "blockTimestamp": "0x67d32ec1",
          "transactionHash": "0x3b75350f11ec7b849dbf8100ddb0f517e2cdd5e78023780282d93868ddf2ed26",
          "transactionIndex": "0x22",
          "logIndex": "0x44",
          "removed": false
        }
      ],
      "logsBloom": "0x00000000000000000100000000000000004080000000000000000200000000000000000000000000000000000000000000000000000000000000000000200000000000000100000000000000000020004000000000000400001800000000000003000000000000000000000000000000000000000000000040100000000000000000000000000000000000000000000000000000000000000000800000000400020000000000000000000000000000040000000000000000000000000000800000000000000000000000000800000000000000000000000000000000000000000070000000000000000000000000000000000000000000000000000000000000",
      "type": "0x0",
      "transactionHash": "0x3b75350f11ec7b849dbf8100ddb0f517e2cdd5e78023780282d93868ddf2ed26",
      "transactionIndex": "0x22",
      "blockHash": "0x95ce9d8566813f8753c42ae2438cc82a0a99935b75b44db5e334f33b83715e0c",
      "blockNumber": "0x744ab3",
      "gasUsed": "0x5a1fd",
      "effectiveGasPrice": "0xc1b710800",
      "from": "0x77c037fbf42e85db1487b390b08f58c00f438812",
      "to": "0x43a1721456b91a18087c22d83cb703037696995d",
      "contractAddress": null
    },
    {
      "status": "0x1",
      "cumulativeGasUsed": "0x97fbdf",
      "logs": [
        {
          "address": "0x58389610a3d13e8f380ee2ba077a6f36f2a90834",
          "topics": [
            "0x8c5be1e5ebec7d5bd14f71427d1e84f3dd0314c0f7b2291e5b200ac8c7c3b925",
            "0x00000000000000000000000088e9ab627f453987b94d18472f0923bb08d18e14",
            "0x000000000000000000000000c9363063c1c5ea9392cc21bc44afd644632e618a"
          ],
          "data": "0xffffffffffffffffffffffffffffffffffffffffffffffffffffffffffffffff",
          "blockHash": "0xaaa919a827b36fdfceb037cec04efe12e0b2b7734733dd24c88a92124e88a32d",
          "blockNumber": "0x744aba",
          "blockTimestamp": "0x67d32ec6",
          "transactionHash": "0x21c8c5ac1df38f91ed57f6fd36862e515794b36c68c2f06b1f5c2f85f36c9b7f",
          "transactionIndex": "0x29",
          "logIndex": "0x75",
          "removed": false
        },
        {
          "address": "0xc9363063c1c5ea9392cc21bc44afd644632e618a",
          "topics": [
            "0x8c5be1e5ebec7d5bd14f71427d1e84f3dd0314c0f7b2291e5b200ac8c7c3b925",
            "0x00000000000000000000000088e9ab627f453987b94d18472f0923bb08d18e14",
            "0x0000000000000000000000008cb82ffca2ea57b29ad137b9a8cdca718233ff96"
          ],
          "data": "0xffffffffffffffffffffffffffffffffffffffffffffffffffffffffffffffff",
          "blockHash": "0xaaa919a827b36fdfceb037cec04efe12e0b2b7734733dd24c88a92124e88a32d",
          "blockNumber": "0x744aba",
          "blockTimestamp": "0x67d32ec6",
          "transactionHash": "0x21c8c5ac1df38f91ed57f6fd36862e515794b36c68c2f06b1f5c2f85f36c9b7f",
          "transactionIndex": "0x29",
          "logIndex": "0x76",
          "removed": false
        },
        {
          "address": "0x88e9ab627f453987b94d18472f0923bb08d18e14",
          "topics": [
            "0xa64754291535175942be6f35fba8deab36d97ea608b17d06cc5efb985e17215f",
            "0x000000000000000000000000c9363063c1c5ea9392cc21bc44afd644632e618a"
          ],
          "data": "0x00000000000000000000000000000000000000000000000000000000000007d0",
          "blockHash": "0xaaa919a827b36fdfceb037cec04efe12e0b2b7734733dd24c88a92124e88a32d",
          "blockNumber": "0x744aba",
          "blockTimestamp": "0x67d32ec6",
          "transactionHash": "0x21c8c5ac1df38f91ed57f6fd36862e515794b36c68c2f06b1f5c2f85f36c9b7f",
          "transactionIndex": "0x29",
          "logIndex": "0x77",
          "removed": false
        }
      ],
      "logsBloom": "0x00000000000000000100000000000000000000000000000000000000000000000000000000000000000000000000000000000000000000000000000000200000000000000100000000100000000000000000000000000400001800000000000003000000000000000000000000000000000000000000000040100000000000000000000000000000000000000000000000000004000000000000800400000400020000000000000000000000000000040000000000000000000000000000000000000800000000000000000800000000000000000000000000020000002000000070000000000000000000000000000000000000000000000000000000000000",
      "type": "0x0",
      "transactionHash": "0x21c8c5ac1df38f91ed57f6fd36862e515794b36c68c2f06b1f5c2f85f36c9b7f",
      "transactionIndex": "0x29",
      "blockHash": "0xaaa919a827b36fdfceb037cec04efe12e0b2b7734733dd24c88a92124e88a32d",
      "blockNumber": "0x744aba",
      "gasUsed": "0x4f59c",
      "effectiveGasPrice": "0xc1b710800",
      "from": "0x77c037fbf42e85db1487b390b08f58c00f438812",
      "to": "0x43a1721456b91a18087c22d83cb703037696995d",
      "contractAddress": null
    },
    {
      "status": "0x1",
      "cumulativeGasUsed": "0x3f8327",
      "logs": [
        {
          "address": "0x58389610a3d13e8f380ee2ba077a6f36f2a90834",
          "topics": [
            "0x8c5be1e5ebec7d5bd14f71427d1e84f3dd0314c0f7b2291e5b200ac8c7c3b925",
            "0x00000000000000000000000088e9ab627f453987b94d18472f0923bb08d18e14",
            "0x0000000000000000000000008fc3599e5d86df2e5ab4b9e20975da2ff17eb4b6"
          ],
          "data": "0xffffffffffffffffffffffffffffffffffffffffffffffffffffffffffffffff",
          "blockHash": "0xe85a0e33aad56edc22ef945040a74ed8a9ec62053c925fd27ea346fcb04348ac",
          "blockNumber": "0x744ac0",
          "blockTimestamp": "0x67d32ec9",
          "transactionHash": "0x17650337a691ee729bc4bb4fe774d7395865974be38aef7ccd1d3698afc2e4b8",
          "transactionIndex": "0x18",
          "logIndex": "0x23",
          "removed": false
        },
        {
          "address": "0x8fc3599e5d86df2e5ab4b9e20975da2ff17eb4b6",
          "topics": [
            "0x8c5be1e5ebec7d5bd14f71427d1e84f3dd0314c0f7b2291e5b200ac8c7c3b925",
            "0x00000000000000000000000088e9ab627f453987b94d18472f0923bb08d18e14",
            "0x0000000000000000000000008cb82ffca2ea57b29ad137b9a8cdca718233ff96"
          ],
          "data": "0xffffffffffffffffffffffffffffffffffffffffffffffffffffffffffffffff",
          "blockHash": "0xe85a0e33aad56edc22ef945040a74ed8a9ec62053c925fd27ea346fcb04348ac",
          "blockNumber": "0x744ac0",
          "blockTimestamp": "0x67d32ec9",
          "transactionHash": "0x17650337a691ee729bc4bb4fe774d7395865974be38aef7ccd1d3698afc2e4b8",
          "transactionIndex": "0x18",
          "logIndex": "0x24",
          "removed": false
        },
        {
          "address": "0x88e9ab627f453987b94d18472f0923bb08d18e14",
          "topics": [
            "0xa64754291535175942be6f35fba8deab36d97ea608b17d06cc5efb985e17215f",
            "0x0000000000000000000000008fc3599e5d86df2e5ab4b9e20975da2ff17eb4b6"
          ],
          "data": "0x00000000000000000000000000000000000000000000000000000000000007d0",
          "blockHash": "0xe85a0e33aad56edc22ef945040a74ed8a9ec62053c925fd27ea346fcb04348ac",
          "blockNumber": "0x744ac0",
          "blockTimestamp": "0x67d32ec9",
          "transactionHash": "0x17650337a691ee729bc4bb4fe774d7395865974be38aef7ccd1d3698afc2e4b8",
          "transactionIndex": "0x18",
          "logIndex": "0x25",
          "removed": false
        }
      ],
      "logsBloom": "0x00000000000000000100000000000000000000000000000000000000000000000000100000000000000000000000000000000000000000000000000000200000000000000100000000000000000000000000000000000400001800000000000003000000000000000000000000000000000000000000000040100000000000000000000080000000000000000000000000800000000000000000800000000400020000000000000000000000000000040000000000000000000000000000000000000000000000000002100800000000000000000000000000000000000000000070040000000000000000000000000000000000000000000000000000000000",
      "type": "0x0",
      "transactionHash": "0x17650337a691ee729bc4bb4fe774d7395865974be38aef7ccd1d3698afc2e4b8",
      "transactionIndex": "0x18",
      "blockHash": "0xe85a0e33aad56edc22ef945040a74ed8a9ec62053c925fd27ea346fcb04348ac",
      "blockNumber": "0x744ac0",
      "gasUsed": "0x4f59c",
      "effectiveGasPrice": "0xc1b710800",
      "from": "0x77c037fbf42e85db1487b390b08f58c00f438812",
      "to": "0x43a1721456b91a18087c22d83cb703037696995d",
      "contractAddress": null
    },
    {
      "status": "0x1",
      "cumulativeGasUsed": "0x371bd1",
      "logs": [
        {
          "address": "0x58389610a3d13e8f380ee2ba077a6f36f2a90834",
          "topics": [
            "0x8c5be1e5ebec7d5bd14f71427d1e84f3dd0314c0f7b2291e5b200ac8c7c3b925",
            "0x00000000000000000000000088e9ab627f453987b94d18472f0923bb08d18e14",
            "0x00000000000000000000000061cbb1a8fb2f8710fe95c6c3ef039b5828cb000b"
          ],
          "data": "0xffffffffffffffffffffffffffffffffffffffffffffffffffffffffffffffff",
          "blockHash": "0xbbf720e18b19f408ffd24370b8bcaa9898e3cbcbaf292c95fafa3246279de6d5",
          "blockNumber": "0x744ac6",
          "blockTimestamp": "0x67d32ecc",
          "transactionHash": "0x908e180df838d0567137bbd170431fe14e5a9644cf1b90801aac216094b1cea5",
          "transactionIndex": "0x18",
          "logIndex": "0x1d",
          "removed": false
        },
        {
          "address": "0x61cbb1a8fb2f8710fe95c6c3ef039b5828cb000b",
          "topics": [
            "0x8c5be1e5ebec7d5bd14f71427d1e84f3dd0314c0f7b2291e5b200ac8c7c3b925",
            "0x00000000000000000000000088e9ab627f453987b94d18472f0923bb08d18e14",
            "0x0000000000000000000000008cb82ffca2ea57b29ad137b9a8cdca718233ff96"
          ],
          "data": "0xffffffffffffffffffffffffffffffffffffffffffffffffffffffffffffffff",
          "blockHash": "0xbbf720e18b19f408ffd24370b8bcaa9898e3cbcbaf292c95fafa3246279de6d5",
          "blockNumber": "0x744ac6",
          "blockTimestamp": "0x67d32ecc",
          "transactionHash": "0x908e180df838d0567137bbd170431fe14e5a9644cf1b90801aac216094b1cea5",
          "transactionIndex": "0x18",
          "logIndex": "0x1e",
          "removed": false
        },
        {
          "address": "0x88e9ab627f453987b94d18472f0923bb08d18e14",
          "topics": [
            "0xa64754291535175942be6f35fba8deab36d97ea608b17d06cc5efb985e17215f",
            "0x00000000000000000000000061cbb1a8fb2f8710fe95c6c3ef039b5828cb000b"
          ],
          "data": "0x00000000000000000000000000000000000000000000000000000000000007d0",
          "blockHash": "0xbbf720e18b19f408ffd24370b8bcaa9898e3cbcbaf292c95fafa3246279de6d5",
          "blockNumber": "0x744ac6",
          "blockTimestamp": "0x67d32ecc",
          "transactionHash": "0x908e180df838d0567137bbd170431fe14e5a9644cf1b90801aac216094b1cea5",
          "transactionIndex": "0x18",
          "logIndex": "0x1f",
          "removed": false
        }
      ],
      "logsBloom": "0x00000000000000000100000000000000100000000000000000000000400000000000000000000000000000000000000000000000000000000000000000200000000004000100000000000000000000000000002000000400001800000000000003000000000000000000000000000000000000000000000040100000000000000000000000000000000000000000000000000000000000000000800000000400020000000000000000000000000000040000000000000000000000000000000000000000000000000000000800000000000000000000800000000004000000000070000000000000000000000000000000000000000000000000000000000000",
      "type": "0x0",
      "transactionHash": "0x908e180df838d0567137bbd170431fe14e5a9644cf1b90801aac216094b1cea5",
      "transactionIndex": "0x18",
      "blockHash": "0xbbf720e18b19f408ffd24370b8bcaa9898e3cbcbaf292c95fafa3246279de6d5",
      "blockNumber": "0x744ac6",
      "gasUsed": "0x5403b",
      "effectiveGasPrice": "0xc1b710800",
      "from": "0x77c037fbf42e85db1487b390b08f58c00f438812",
      "to": "0x43a1721456b91a18087c22d83cb703037696995d",
      "contractAddress": null
    }
  ],
  "libraries": [],
  "pending": [],
  "returns": {},
  "timestamp": 1741893326,
  "chain": 10143,
  "commit": "69d67f9"
}