{
  "transactions": [
    {
      "hash": "0x0c9a050c632ea633391aff60dd8de08d50b5580a4ebf4585ccff0d3732a20388",
      "transactionType": "CREATE",
      "contractName": "MockCurator",
      "contractAddress": "0xc5479717f1983a136b541f7fd5ce1925b8806d3b",
      "function": null,
      "arguments": null,
      "transaction": {
        "from": "0x6efb11ac41b6657c32dac5ed4874082c700bba29",
        "gas": "0x105e31",
        "value": "0x0",
        "input": "0x608080604052346071573315605e575f8054336001600160a01b0319821681178355916001600160a01b03909116907f8be0079c531659141344cd1fd0a4f28419497f9722a3daafe3b4186f6b6457e09080a3610d7d90816100768239f35b631e4fbdf760e01b5f525f60045260245ffd5b5f80fdfe60806040526004361015610011575f80fd5b5f803560e01c806306fdde03146109e1578063158ef93e146109bf578063256b5a02146109025780633c130d901461083b57806344d00f821461077357806345f61828146106a75780634d12d4b61461035d578063715018a61461030357806372dc5c89146102325780638c64ea4a146101ee5780638da5cb5b146101c75780639012c4a814610125578063a001ecdd146101075763f2fde38b146100b4575f80fd5b34610104576020366003190112610104576100cd610af7565b6100d5610c9b565b6001600160a01b038116156100f0576100ed90610cc1565b80f35b631e4fbdf760e01b82526004829052602482fd5b80fd5b50346101045780600319360112610104576020600354604051908152f35b503461010457602036600319011261010457600435610142610c9b565b61015060ff60045416610b7d565b6103e881116101935760407f528d9479e9f9889a87a3c30c7f7ba537e5e59c4c85a37733b16e57c62df6130291600354908060035582519182526020820152a180f35b60405162461bcd60e51b815260206004820152600c60248201526b08ccaca40e8dede40d0d2ced60a31b6044820152606490fd5b5034610104578060031936011261010457546040516001600160a01b039091168152602090f35b5034610104576020366003190112610104576004359060055482101561010457602061021983610b51565b905460405160039290921b1c6001600160a01b03168152f35b5034610104576080366003190112610104578061024d610af7565b610255610b0d565b604435606435928315158094036102ff5761026e610c9b565b6001600160a01b031691610283831515610bbb565b6001600160a01b031691610298831515610bff565b6102a6612710831115610c44565b803b156102ff57849283606492604051968795869463542d4f8d60e11b86526004860152602485015260448401525af180156102f4576102e35750f35b816102ed91610aab565b6101045780f35b6040513d84823e3d90fd5b8480fd5b503461010457806003193601126101045761031c610c9b565b80546001600160a01b03198116825581906001600160a01b03167f8be0079c531659141344cd1fd0a4f28419497f9722a3daafe3b4186f6b6457e08280a380f35b503461010457608036600319011261010457610377610af7565b60243567ffffffffffffffff81116106a357610397903690600401610b23565b60449391933567ffffffffffffffff81116106a3576103ba903690600401610b23565b91909360ff60045416610668576103d090610cc1565b67ffffffffffffffff8111610654576103ea600154610a73565b601f81116105ec575b5082601f821160011461057d5783949582939492610572575b50508160011b915f199060031b1c1916176001555b67ffffffffffffffff811161055e5761043b600254610a73565b601f81116104fa575b5081601f8211600114610491578293829392610486575b50508160011b915f199060031b1c1916176002555b606435600355600160ff19600454161760045580f35b013590505f8061045b565b601f198216935f80516020610d0883398151915291845b8681106104e257508360019596106104c9575b505050811b01600255610470565b01355f19600384901b60f8161c191690555f80806104bb565b909260206001819286860135815501940191016104a8565b601f820160051c5f80516020610d08833981519152019060208310610549575b601f0160051c5f80516020610d0883398151915201905b81811061053e5750610444565b838155600101610531565b5f80516020610d08833981519152915061051a565b634e487b7160e01b82526041600452602482fd5b013590505f8061040c565b60018452601f198216955f80516020610d2883398151915291855b8881106105d4575083600195969798106105bb575b505050811b01600155610421565b01355f19600384901b60f8161c191690555f80806105ad565b90926020600181928686013581550194019101610598565b60018452601f820160051c5f80516020610d2883398151915201906020831061063f575b601f0160051c5f80516020610d2883398151915201905b81811061063457506103f3565b848155600101610627565b5f80516020610d288339815191529150610610565b634e487b7160e01b83526041600452602483fd5b60405162461bcd60e51b8152602060048201526013602482015272105b1c9958591e481a5b9a5d1a585b1a5e9959606a1b6044820152606490fd5b8280fd5b5034610763576060366003190112610763576106c1610af7565b6106c9610b0d565b90604435906106d6610c9b565b6001600160a01b0316916106eb831515610bbb565b6001600160a01b031690610700821515610bff565b80151580610767575b61071290610c44565b823b156107635760445f928360405195869485936352fc3ce560e11b8552600485015260248401525af180156107585761074a575080f35b61075691505f90610aab565b005b6040513d5f823e3d90fd5b5f80fd5b50612710811115610709565b34610763575f366003190112610763576040518060206005549283815201809260055f527f036b6384b5eca791c62761152d0c79bb0604c104a5fb6f4eb0703f3154bb3db0905f5b81811061081c57505050816107d1910382610aab565b604051918291602083019060208452518091526040830191905f5b8181106107fa575050500390f35b82516001600160a01b03168452859450602093840193909201916001016107ec565b82546001600160a01b03168452602090930192600192830192016107bb565b34610763575f366003190112610763576040515f60025461085b81610a73565b80845290600181169081156108de5750600114610893575b61088f8361088381850382610aab565b60405191829182610acd565b0390f35b60025f9081525f80516020610d08833981519152939250905b8082106108c457509091508101602001610883610873565b9192600181602092548385880101520191019092916108ac565b60ff191660208086019190915291151560051b840190910191506108839050610873565b346107635760203660031901126107635761091b610af7565b610923610c9b565b61093160ff60045416610b7d565b6001600160a01b0316610945811515610bbb565b600554680100000000000000008110156109ab578060016109699201600555610b51565b81546001600160a01b0360039290921b91821b19169083901b1790557f7b7ef7a864d96a85497a1ed846adb39940dd6ccef678ff6ac8d55505e09b8cc45f80a2005b634e487b7160e01b5f52604160045260245ffd5b34610763575f36600319011261076357602060ff600454166040519015158152f35b34610763575f366003190112610763576040515f600154610a0181610a73565b80845290600181169081156108de5750600114610a285761088f8361088381850382610aab565b60015f9081525f80516020610d28833981519152939250905b808210610a5957509091508101602001610883610873565b919260018160209254838588010152019101909291610a41565b90600182811c92168015610aa1575b6020831014610a8d57565b634e487b7160e01b5f52602260045260245ffd5b91607f1691610a82565b90601f8019910116810190811067ffffffffffffffff8211176109ab57604052565b602060409281835280519182918282860152018484015e5f828201840152601f01601f1916010190565b600435906001600160a01b038216820361076357565b602435906001600160a01b038216820361076357565b9181601f840112156107635782359167ffffffffffffffff8311610763576020838186019501011161076357565b600554811015610b695760055f5260205f2001905f90565b634e487b7160e01b5f52603260045260245ffd5b15610b8457565b60405162461bcd60e51b815260206004820152600f60248201526e139bdd081a5b9a5d1a585b1a5e9959608a1b6044820152606490fd5b15610bc257565b60405162461bcd60e51b8152602060048201526015602482015274496e76616c6964207661756c74206164647265737360581b6044820152606490fd5b15610c0657565b60405162461bcd60e51b8152602060048201526016602482015275496e76616c6964206d61726b6574206164647265737360501b6044820152606490fd5b15610c4b57565b60405162461bcd60e51b815260206004820152602260248201527f576569676874206d757374206265206265747765656e203020616e6420313030604482015261030360f41b6064820152608490fd5b5f546001600160a01b03163303610cae57565b63118cdaa760e01b5f523360045260245ffd5b5f80546001600160a01b039283166001600160a01b03198216811783559216907f8be0079c531659141344cd1fd0a4f28419497f9722a3daafe3b4186f6b6457e09080a356fe405787fa12a823e0f2b7631cc41b3ba8828b3321ca811111fa75cd3aa3bb5aceb10e2d527612073b26eecdfd717e6a320cf44b4afac2b0732d9fcbe2b7fa0cf6a2646970667358221220447138a218326f51bd33a559aab09ee34b670907f279e931f24a1f0de386d40764736f6c634300081a0033",
        "nonce": "0x162",
        "chainId": "0x279f"
      },
      "additionalContracts": [],
      "isFixedGasLimit": false
    },
    {
      "hash": "0x1daddb2e0af71009cb48d0f2bd532f889e4edbf2581254d68e022b61c495b1f2",
      "transactionType": "CREATE",
      "contractName": "AssetVault",
      "contractAddress": "0x1bdc8e84d715f2f40f44e2d097e2541861143695",
      "function": null,
      "arguments": [
        "0x2e505C38656AE7e6B1134F48b0DaF6f725A6EaEB",
        "0x3654E562a54891a02A1D67966109f746d13E1Eca",
        "0xF573E0745C3FA02b4A6739446C34C16dE49fED52",
        "0x2e45D737B1d3Ca3C6Fb4cB82193E0e3D7444e4BD",
        "0x31a84300f4C047565719e67f85974bF2995B5060",
        "0x22156b8e1dC92Ef0e91A27Ff2D008f3cC0c7fA27",
        "0x2c53Ce7143D24A65410107F50e4AABad9A164480"
      ],
      "transaction": {
        "from": "0x6efb11ac41b6657c32dac5ed4874082c700bba29",
        "gas": "0x2de9fe",
        "value": "0x0",
        "input": "0x61016080604052346101925760e081612a37803803809161002082856101a9565b8339810103126101925760208160446100395f946101e0565b6100448484016101e0565b92610051604082016101e0565b9061005e606082016101e0565b61006a608083016101e0565b9261008360c061007c60a086016101e0565b94016101e0565b608086905260a09790975260c05260e052610120526101005261014083905260405163095ea7b360e01b81526001600160a01b039182166004820152851960248201529485938492165af1801561019e57610162575b60405161284290816101f5823960805181818161017b015281816108a001528181611355015281816120cb01526124db015260a051818181610bc001528181611df70152612254015260c05181610aad015260e05181818161025d015261231f0152610100518181816102a10152611ecc01526101205181611815015261014051816116cd0152f35b6020813d602011610196575b8161017b602093836101a9565b81010312610192575180151503610192575f6100d9565b5f80fd5b3d915061016e565b6040513d5f823e3d90fd5b601f909101601f19168101906001600160401b038211908210176101cc57604052565b634e487b7160e01b5f52604160045260245ffd5b51906001600160a01b03821682036101925756fe6080806040526004361015610012575f80fd5b5f3560e01c90816301e1d114146118445750806306ae70951461180057806306fdde03146117715780630cf85bcc146116fc578063126846ec146116b85780631488ca0814611662578063158ef93e1461164057806315d3b5d814611626578063174009a4146115ee5780632016a0d2146111a15780632e1a7d4d14610e09578063313ce56714610de957806338d52e0f14610dbd5780633a98ef3914610da057806341826c2d14610bef578063660d0d6714610bab57806395d89b4114610adc5780639c8b2cfb14610a98578063a5f879ca146106aa578063a85a9f1a146104e7578063b1283e7714610485578063b6b55f25146102ed578063b996de67146102d0578063d0d0ed051461028c578063d7cd394914610248578063de35f5cb1461022b578063de6c3f731461020e578063e66f53b7146101e6578063f656ba51146101ae5763f887ea4014610166575f80fd5b346101aa575f3660031901126101aa576040517f00000000000000000000000000000000000000000000000000000000000000006001600160a01b03168152602090f35b5f80fd5b346101aa5760203660031901126101aa576001600160a01b036101cf6118f6565b165f526007602052602060405f2054604051908152f35b346101aa575f3660031901126101aa576003546040516001600160a01b039091168152602090f35b346101aa575f3660031901126101aa576020600954604051908152f35b346101aa575f3660031901126101aa576020600d54604051908152f35b346101aa575f3660031901126101aa576040517f00000000000000000000000000000000000000000000000000000000000000006001600160a01b03168152602090f35b346101aa575f3660031901126101aa576040517f00000000000000000000000000000000000000000000000000000000000000006001600160a01b03168152602090f35b346101aa575f3660031901126101aa576020600854604051908152f35b346101aa5760203660031901126101aa5760043561030f60ff60065416611a15565b801561044d57600554806104325750805b6002546040516323b872dd60e01b60208281019182523360248401523060448401526064830186905260089390931c6001600160a01b03169492915f919061037581608481015b03601f1981018352826118b1565b519082875af115610427575f513d61041e5750823b155b61040b57602092506103a08160045461199d565b6004556103af8260055461199d565b600555335f526007835260405f206103c883825461199d565b905560405190815281838201527f90890809c654f11d6e72a28fa60149770a0d11ec6c92319d6ceb2bb0a4ea1a1560403392a26104036125f7565b604051908152f35b82635274afe760e01b5f5260045260245ffd5b6001141561038c565b6040513d5f823e3d90fd5b61043f6104489183611a53565b60045490611a66565b610320565b60405162461bcd60e51b815260206004820152601060248201526f043616e6e6f74206465706f73697420360841b6044820152606490fd5b346101aa5760203660031901126101aa57600435600a548110156101aa576104ae60809161196d565b5060018060a01b038154169060018101549060ff6003600283015492015416916040519384526020840152604083015215156060820152f35b346101aa5760603660031901126101aa576105006118f6565b60243590604435801515918282036101aa5761052760018060a01b03600354163314611af7565b61053560ff60065416611a15565b6127108411610665576001600160a01b03165f818152600c6020526040902054909390610563811515611b32565b5f198101908111610651577fe8e3c5374d4bcf968f769c7c2e8c27941d0a98475cd4bf5e0a83a56da453c60f936105f88460036105e5856105d16127106105ca8a6105c560016105b56106379d61196d565b5001546105c06119aa565b611a84565b61199d565b1115611b71565b8760016105dd8361196d565b50015561196d565b50019060ff801983541691151516179055565b60016040519161060783611896565b84835260208301908152875f52600b60205260405f209251835551151591019060ff801983541691151516179055565b604080519182529115156020820152a261064f6125f7565b005b634e487b7160e01b5f52601160045260245ffd5b60405162461bcd60e51b815260206004820152601760248201527f50657263656e74616765206578636565647320313030250000000000000000006044820152606490fd5b346101aa5760403660031901126101aa576106c36118f6565b602435906106dc60018060a01b03600354163314611af7565b6001600160a01b038116918215610a5a576127108111610a1557825f52600c60205260405f20546109d857604051608081018181106001600160401b038211176109c457604052838152602081019082825260408101905f82526060810160018152600a54680100000000000000008110156109c4578060016107629201600a5561196d565b9390936109b1576107b29460039360018060a01b039051166bffffffffffffffffffffffff60a01b86541617855551600185015551600284015551151591019060ff801983541691151516179055565b600a54835f52600c60205260405f20556108036040516107d181611896565b828152600160208201818152865f52600b60205260405f209251835551151591019060ff801983541691151516179055565b6002546040516370a0823160e01b815230600482015260089190911c6001600160a01b03169190602081602481865afa80156104275782915f9161097a575b506127109161085091611a53565b60405163095ea7b360e01b81526001600160a01b03861660048201529190046024820181905292602090829060449082905f905af180156104275761095d575b5060405163095ea7b360e01b81527f00000000000000000000000000000000000000000000000000000000000000006001600160a01b031660048201525f196024820152926020846044815f895af1928315610427577fa64754291535175942be6f35fba8deab36d97ea608b17d06cc5efb985e17215f94602094610932575b5080610922575b5050604051908152a2005b61092b9161222a565b8480610917565b61095190853d8711610956575b61094981836118b1565b8101906119fd565b610910565b503d61093f565b6109759060203d6020116109565761094981836118b1565b610890565b9150506020813d6020116109a9575b81610996602093836118b1565b810103126101aa57518190612710610842565b3d9150610989565b634e487b7160e01b5f525f60045260245ffd5b634e487b7160e01b5f52604160045260245ffd5b60405162461bcd60e51b81526020600482015260156024820152744d61726b657420616c72656164792065786973747360581b6044820152606490fd5b60405162461bcd60e51b815260206004820152601d60248201527f496e76616c696420616c6c6f636174696f6e2070657263656e746167650000006044820152606490fd5b60405162461bcd60e51b8152602060048201526016602482015275496e76616c6964206d61726b6574206164647265737360501b6044820152606490fd5b346101aa575f3660031901126101aa576040517f00000000000000000000000000000000000000000000000000000000000000006001600160a01b03168152602090f35b346101aa575f3660031901126101aa576040515f600154610afc8161185e565b8084529060018116908115610b875750600114610b3c575b610b3883610b24818503826118b1565b6040519182916020835260208301906118d2565b0390f35b60015f9081525f805160206127ed833981519152939250905b808210610b6d57509091508101602001610b24610b14565b919260018160209254838588010152019101909291610b55565b60ff191660208086019190915291151560051b84019091019150610b249050610b14565b346101aa575f3660031901126101aa576040517f00000000000000000000000000000000000000000000000000000000000000006001600160a01b03168152602090f35b346101aa575f3660031901126101aa575f80600a54905b818110610d6e5750610c1782611a9f565b90610c2560405192836118b1565b828252610c3183611a9f565b6020830190601f1901368237610c5f610c4985611a9f565b94610c5760405196876118b1565b808652611a9f565b602085019290601f19013684375f805b828110610cfb57505050604051938493604085019060408652518091526060850192905f5b818110610cd9575050506020908483038286015251918281520191905f5b818110610cc0575050500390f35b8251845285945060209384019390920191600101610cb2565b82516001600160a01b0316855287965060209485019490920191600101610c94565b60ff6003610d0d83999697989961196d565b50015416610d23575b6001019594939295610c6f565b90610d66600191610d338461196d565b50838060a01b03905416610d47828b611ae3565b526002610d538561196d565b500154610d608288611ae3565b52611a91565b919050610d16565b60ff6003610d7b8361196d565b50015416610d8c575b600101610c06565b91610d98600191611a91565b929050610d84565b346101aa575f3660031901126101aa576020600554604051908152f35b346101aa575f3660031901126101aa5760025460405160089190911c6001600160a01b03168152602090f35b346101aa575f3660031901126101aa57602060ff60025416604051908152f35b346101aa5760203660031901126101aa57600435610e2b60ff60065416611a15565b801561116857335f52600760205260405f2054811161112d57610e5c610e5360045483611a53565b60055490611a66565b6002546040516370a0823160e01b8152306004820152906020908290602490829060081c6001600160a01b03165afa908115610427575f916110fb575b50818110610f79575b50610eaf82600554611a84565b600555610ebe81600454611a84565b600455335f52600760205260405f20610ed8838254611a84565b905560025460405163a9059cbb60e01b8152336004820152602481018390529290602090849060081c6001600160a01b0316815f816044810103925af192831561042757602093610f5e575b5060405190828252838201527ff279e6a1f5e320cca91135676d9cb6e44ca8a08c0b88342bcdb1144f6511b56860403392a2604051908152f35b610f7490843d86116109565761094981836118b1565b610f24565b610f839082611a84565b5f905b600a548210806110f2575b156110195760ff6003610fa38461196d565b50015416158015611004575b610ffa57610fee610ff4916002610fc58561196d565b5001548082108183180218906105c082610fde8761196d565b50546001600160a01b0316611d96565b91611a91565b90610f86565b90610ff490611a91565b5060026110108361196d565b50015415610faf565b50506002546040516370a0823160e01b8152306004820152906020908290602490829060081c6001600160a01b03165afa80156104275782915f916110bd575b50106110655782610ea2565b60405162461bcd60e51b815260206004820152602a60248201527f496e73756666696369656e74206c6971756964697479206166746572206465616044820152696c6c6f636174696f6e7360b01b6064820152608490fd5b9150506020813d6020116110ea575b816110d9602093836118b1565b810103126101aa5781905184611059565b3d91506110cc565b50801515610f91565b90506020813d602011611125575b81611116602093836118b1565b810103126101aa575183610e99565b3d9150611109565b60405162461bcd60e51b8152602060048201526013602482015272496e73756666696369656e742073686172657360681b6044820152606490fd5b60405162461bcd60e51b8152602060048201526011602482015270043616e6e6f74207769746864726177203607c1b6044820152606490fd5b346101aa5760803660031901126101aa576111ba6118f6565b602435906001600160a01b0382168083036101aa576044356001600160401b0381116101aa576111ee903690600401611927565b926064356001600160401b0381116101aa5761120e903690600401611927565b9260ff600654166115b357600380546001600160a01b0319166001600160a01b039290921691909117905560028054610100600160a81b03191660089290921b610100600160a81b031691909117905582516001600160401b0381116109c4576112785f5461185e565b601f811161154c575b506020601f82116001146114e057819293945f926114d5575b50508160011b915f199060031b1c1916175f555b81516001600160401b0381116109c4576112c960015461185e565b601f811161146d575b50602092601f821160011461140157928192935f926113f6575b50508160011b915f199060031b1c1916176001555b60405163313ce56760e01b8152602081600481855afa908115610427575f916113ba575b505f9160ff6020921660ff19600254161760025560446040518094819363095ea7b360e01b835260018060a01b037f0000000000000000000000000000000000000000000000000000000000000000166004840152811960248401525af180156104275761139d575b6006805460ff19166001179055005b6113b59060203d6020116109565761094981836118b1565b61138e565b90506020813d6020116113ee575b816113d5602093836118b1565b810103126101aa575160ff811681036101aa575f611325565b3d91506113c8565b0151905083806112ec565b601f1982169360015f525f805160206127ed833981519152915f5b868110611455575083600195961061143d575b505050811b01600155611301565b01515f1960f88460031b161c1916905583808061142f565b9192602060018192868501518155019401920161141c565b60015f52601f820160051c5f805160206127ed8339815191520190602083106114c0575b601f0160051c5f805160206127ed83398151915201905b8181106114b557506112d2565b5f81556001016114a8565b5f805160206127ed8339815191529150611491565b01519050848061129a565b601f198216905f80525f805160206127cd833981519152915f5b8181106115345750958360019596971061151c575b505050811b015f556112ae565b01515f1960f88460031b161c1916905584808061150f565b9192602060018192868b0151815501940192016114fa565b5f8052601f820160051c5f805160206127cd83398151915201906020831061159e575b601f0160051c5f805160206127cd83398151915201905b8181106115935750611281565b5f8155600101611586565b5f805160206127cd833981519152915061156f565b60405162461bcd60e51b8152602060048201526013602482015272105b1c9958591e481a5b9a5d1a585b1a5e9959606a1b6044820152606490fd5b346101aa5760203660031901126101aa576001600160a01b0361160f6118f6565b165f52600c602052602060405f2054604051908152f35b346101aa575f3660031901126101aa5760206104036119aa565b346101aa575f3660031901126101aa57602060ff600654166040519015158152f35b346101aa5760203660031901126101aa576001600160a01b036116836118f6565b165f52600b60205260405f2060ff600182549201541690610b3860405192839283909291602090604083019483521515910152565b346101aa575f3660031901126101aa576040517f00000000000000000000000000000000000000000000000000000000000000006001600160a01b03168152602090f35b346101aa5760203660031901126101aa576117156118f6565b5f602060405161172481611896565b82815201526001600160a01b03165f908152600b602052604090819020815161174c81611896565b602060ff60018454948585520154169101901515815282519182525115156020820152f35b346101aa575f3660031901126101aa576040515f80546117908161185e565b8084529060018116908115610b8757506001146117b757610b3883610b24818503826118b1565b5f8080525f805160206127cd833981519152939250905b8082106117e657509091508101602001610b24610b14565b9192600181602092548385880101520191019092916117ce565b346101aa575f3660031901126101aa576040517f00000000000000000000000000000000000000000000000000000000000000006001600160a01b03168152602090f35b346101aa575f3660031901126101aa576020906004548152f35b90600182811c9216801561188c575b602083101461187857565b634e487b7160e01b5f52602260045260245ffd5b91607f169161186d565b604081019081106001600160401b038211176109c457604052565b90601f801991011681019081106001600160401b038211176109c457604052565b805180835260209291819084018484015e5f828201840152601f01601f1916010190565b600435906001600160a01b03821682036101aa57565b6001600160401b0381116109c457601f01601f191660200190565b81601f820112156101aa5780359061193e8261190c565b9261194c60405194856118b1565b828452602083830101116101aa57815f926020809301838601378301015290565b600a5481101561198957600a5f5260205f209060021b01905f90565b634e487b7160e01b5f52603260045260245ffd5b9190820180921161065157565b5f80600a54905b8181106119bd57505090565b60ff60036119ca8361196d565b500154166119db575b6001016119b1565b916119f5600191826119ec8661196d565b5001549061199d565b9290506119d3565b908160209103126101aa575180151581036101aa5790565b15611a1c57565b60405162461bcd60e51b815260206004820152600f60248201526e139bdd081a5b9a5d1a585b1a5e9959608a1b6044820152606490fd5b8181029291811591840414171561065157565b8115611a70570490565b634e487b7160e01b5f52601260045260245ffd5b9190820391821161065157565b5f1981146106515760010190565b6001600160401b0381116109c45760051b60200190565b8051156119895760200190565b8051600110156119895760400190565b8051600210156119895760600190565b80518210156119895760209160051b010190565b15611afe57565b60405162461bcd60e51b815260206004820152600c60248201526b27b7363c9031bab930ba37b960a11b6044820152606490fd5b15611b3957565b60405162461bcd60e51b815260206004820152601060248201526f13585c9ad95d081b9bdd08199bdd5b9960821b6044820152606490fd5b15611b7857565b60405162461bcd60e51b815260206004820152601d60248201527f546f74616c20616c6c6f636174696f6e206578636565647320313030250000006044820152606490fd5b51906001600160a01b03821682036101aa57565b908160609103126101aa5760405190606082018281106001600160401b038211176109c457611c21916040918252611c0881611bbd565b8452611c1660208201611bbd565b602085015201611bbd565b604082015290565b60405160809190611c3a83826118b1565b6003815291601f1901825f5b828110611c5257505050565b806060602080938501015201611c46565b6020818303126101aa578051906001600160401b0382116101aa57019080601f830112156101aa57815191611c9783611a9f565b92611ca560405194856118b1565b80845260208085019160051b830101918383116101aa5760208101915b838310611cd157505050505090565b82516001600160401b0381116101aa57820185603f820112156101aa57602081015191611cfd8361190c565b611d0a60405191826118b1565b83815260408385010188106101aa575f602085819660408397018386015e83010152815201920191611cc2565b602081016020825282518091526040820191602060408360051b8301019401925f915b838310611d6957505050505090565b9091929394602080611d87600193603f1986820301875289516118d2565b97019301930191939290611d5a565b8115612226576001600160a01b0381165f818152600c60205260409020549092611dc1821515611b32565b5f198201918211610651576002611dd78361196d565b5001548111612212575b60405163c6c6728960e01b8152600481018590527f00000000000000000000000000000000000000000000000000000000000000006001600160a01b03169390602081602481885afa8015610427575f906121df575b6060915060246040518097819363c3c95c7b60e01b835260048301525afa938415610427575f946121ae575b506040516370a0823160e01b8152306004820152602081602481895afa80156104275783915f91612177575b50611eb191611e9d91611a53565b6002611ea88661196d565b50015490611a66565b90611eba611c29565b604051637d39aaf160e01b60208201527f00000000000000000000000000000000000000000000000000000000000000006001600160a01b0381166024830152620f424060448084019190915282529192611f6691611f1a6064826118b1565b611f2385611ab6565b52611f2d84611ab6565b50604051631cdacd5960e31b60208201526001600160a01b03918216602482015292166044830152606482018490528160848101610367565b611f6f82611ac3565b52611f7981611ac3565b5060208501516040909501516002546001600160a01b039182169660089190911c82169116818103612170576064915b870361216a5760645b604051926101208401958487106001600160401b038811176109c45760409687523085525f6020808701828152878a018e815260608901978852608089019d8e5260a0890194855260ff95861660c08a019081529690951660e08901908152620f42406101008a019081529a51633d93a7af60e11b9381019390935297516001600160a01b039081166024840152905181166044830152935184166064820152945183166084860152995190911660a48401525160c48301525160e4820152905161010482015291516101248084019190915282526120c69491612098610144826118b1565b6120a182611ad3565b526120ab81611ad3565b5060405180958192631592ca1b60e31b835260048301611d37565b0381837f00000000000000000000000000000000000000000000000000000000000000006001600160a01b03165af1928315610427576121326020936002927fcf25af35f355434c1dce4120416a90ead032734765d0e4f0c8771cee2c9116459661214a575b5061196d565b500161213f828254611a84565b9055604051908152a2565b612165903d805f833e61215d81836118b1565b810190611c63565b61212c565b5f611fb2565b5f91611fa9565b9150506020813d6020116121a6575b81612193602093836118b1565b810103126101aa57518290611eb1611e8f565b3d9150612186565b6121d191945060603d6060116121d8575b6121c981836118b1565b810190611bd1565b925f611e63565b503d6121bf565b506020813d60201161220a575b816121f9602093836118b1565b810103126101aa5760609051611e37565b3d91506121ec565b50600261221e8261196d565b500154611de1565b5050565b9080156122265760405163c6c6728960e01b81526001600160a01b038381166004830181905293917f000000000000000000000000000000000000000000000000000000000000000090911690602081602481855afa8015610427575f906125c4575b6060915060246040518094819363c3c95c7b60e01b835260048301525afa9182156104275783915f9361259a575b5060025460405163095ea7b360e01b81526001600160a01b0392831660048201526024810193909352602091839160081c16815f81604481015b03925af180156104275761257d575b5061230d611c29565b604051637d39aaf160e01b60208201527f00000000000000000000000000000000000000000000000000000000000000006001600160a01b0381166024830152620f42406044808401919091528252906123686064826118b1565b61237183611ab6565b5261237b82611ab6565b50600254604051631cdacd5960e31b60208201526001600160a01b0360089290921c8216602482015291166044820152606481018490526123bf8160848101610367565b6123c882611ac3565b526123d281611ac3565b50602082015160409283015192516001600160a01b039182169360e082019392166001600160401b038411828510176109c45760409384523082525f60208084018281528487018a8152606086019889526080860194855260a08601848152620f424060c0880190815298516305272a7760e31b9481019490945295516001600160a01b0390811660248501529151821660448401525181166064830152965187166084820152915190951660a4820152905160c4820152915160e48084019190915282526124d692916124a8610104826118b1565b6124b182611ad3565b526124bb81611ad3565b5060405180938192631592ca1b60e31b835260048301611d37565b0381837f00000000000000000000000000000000000000000000000000000000000000006001600160a01b03165af1801561042757612565575b50815f52600c60205260405f20545f198101908111610651577f472f36e28bb47edb7c69c9e2ac00a77c66b505df54e9c818ac57110b0629e8c391600261255860209361196d565b500161213f82825461199d565b612578903d805f833e61215d81836118b1565b612510565b6125959060203d6020116109565761094981836118b1565b612304565b6020919350916125bb6122f59360603d6060116121d8576121c981836118b1565b939150916122bb565b506020813d6020116125ef575b816125de602093836118b1565b810103126101aa576060905161228d565b3d91506125d1565b600454156127a1575f80600a54905b8181106127a3575b5050156127a1576126236127106105ca6119aa565b5f5b600a5481101561277a5760ff600361263c8361196d565b50015416156127725761271061266260045460016126598561196d565b50015490611a53565b0490600261266f8261196d565b50015491828111156127345760249261268791611a84565b6002546040516370a0823160e01b815230600482015293602091859190829060081c6001600160a01b03165afa8015610427575f90612702575b600193508082116126ef57506126e9906126da8361196d565b50848060a01b0390541661222a565b01612625565b6126fd91506126da8361196d565b6126e9565b506020833d821161272c575b8161271b602093836118b1565b810103126101aa57600192516126c1565b3d915061270e565b826001938210612746575b50506126e9565b61276b9161275391611a84565b61275c8361196d565b50848060a01b03905416611d96565b5f8061273f565b6001906126e9565b507fc741dbaad15a4f298fe8d80943fa8e005e7bcb2f5b0a0c8dec1fc35be457f1465f80a1565b565b60ff60036127b08361196d565b500154166127c057600101612606565b50505060015f8061260e56fe290decd9548b62a8d60345a988386fc84ba6bc95484008f6362f93160ef3e563b10e2d527612073b26eecdfd717e6a320cf44b4afac2b0732d9fcbe2b7fa0cf6a2646970667358221220cd36b444c7ef7a607877197b6c62cdae523349ce7c4206847b82f62749187fe464736f6c634300081a00330000000000000000000000002e505c38656ae7e6b1134f48b0daf6f725a6eaeb0000000000000000000000003654e562a54891a02a1d67966109f746d13e1eca000000000000000000000000f573e0745c3fa02b4a6739446c34c16de49fed520000000000000000000000002e45d737b1d3ca3c6fb4cb82193e0e3d7444e4bd00000000000000000000000031a84300f4c047565719e67f85974bf2995b506000000000000000000000000022156b8e1dc92ef0e91a27ff2d008f3cc0c7fa270000000000000000000000002c53ce7143d24a65410107f50e4aabad9a164480",
        "nonce": "0x163",
        "chainId": "0x279f"
      },
      "additionalContracts": [],
      "isFixedGasLimit": false
    },
    {
      "hash": "0xa3da872d965ba96bb72b2cdfb21012d6bc0006801505ae30dceedacf9fcbe57e",
      "transactionType": "CALL",
      "contractName": null,
      "contractAddress": "0x75f1d5455405e2c27354bd407fc25bf444167215",
      "function": "addCurator(address,string,string)",
      "arguments": [
        "0x6EFb11aC41B6657c32dAc5Ed4874082C700BbA29",
        "Test Curator 1",
        "https://encrypted-tbn0.gstatic.com/images?q=tbn:ANd9GcQVh3inqKyGGbBhoPo6jBMzGY5eIgx9fCJj7E6fORXA-0SngqoiOsgiZ3CGWbxKqXXVmrg&usqp=CAU"
      ],
      "transaction": {
        "from": "0x6efb11ac41b6657c32dac5ed4874082c700bba29",
        "to": "0x75f1d5455405e2c27354bd407fc25bf444167215",
        "gas": "0x5d5e5",
        "value": "0x0",
        "input": "0xbc2d5ca60000000000000000000000006efb11ac41b6657c32dac5ed4874082c700bba29000000000000000000000000000000000000000000000000000000000000006000000000000000000000000000000000000000000000000000000000000000a0000000000000000000000000000000000000000000000000000000000000000e546573742043757261746f722031000000000000000000000000000000000000000000000000000000000000000000000000000000000000000000000000008468747470733a2f2f656e637279707465642d74626e302e677374617469632e636f6d2f696d616765733f713d74626e3a414e6439476351566833696e714b7947476242686f506f366a424d7a475935654967783966434a6a374536664f5258412d30536e67716f694f7367695a3343475762784b715858566d726726757371703d43415500000000000000000000000000000000000000000000000000000000",
        "nonce": "0x164",
        "chainId": "0x279f"
      },
      "additionalContracts": [],
      "isFixedGasLimit": false
    },
    {
      "hash": "0x46c053fc9d13f56d02f81b3aa909629a1d9938c6175b2cf853617c846c3ab9f6",
      "transactionType": "CALL",
      "contractName": null,
      "contractAddress": "0x75f1d5455405e2c27354bd407fc25bf444167215",
      "function": "addCurator(address,string,string)",
      "arguments": [
        "0x6EFb11aC41B6657c32dAc5Ed4874082C700BbA29",
        "Test Curator 2",
        "https://www.sevell.com/wp-content/uploads/2024/07/peloton-logo-red.png"
      ],
      "transaction": {
        "from": "0x6efb11ac41b6657c32dac5ed4874082c700bba29",
        "to": "0x75f1d5455405e2c27354bd407fc25bf444167215",
        "gas": "0x1e141",
        "value": "0x0",
        "input": "0xbc2d5ca60000000000000000000000006efb11ac41b6657c32dac5ed4874082c700bba29000000000000000000000000000000000000000000000000000000000000006000000000000000000000000000000000000000000000000000000000000000a0000000000000000000000000000000000000000000000000000000000000000e546573742043757261746f722032000000000000000000000000000000000000000000000000000000000000000000000000000000000000000000000000004668747470733a2f2f7777772e736576656c6c2e636f6d2f77702d636f6e74656e742f75706c6f6164732f323032342f30372f70656c6f746f6e2d6c6f676f2d7265642e706e670000000000000000000000000000000000000000000000000000",
        "nonce": "0x165",
        "chainId": "0x279f"
      },
      "additionalContracts": [],
      "isFixedGasLimit": false
    },
    {
      "hash": "0x92ce8d5360e010292b3b1af8c065573118efc5fc5e0f20b5da348f9f26cf1c09",
      "transactionType": "CALL",
      "contractName": null,
      "contractAddress": "0x75f1d5455405e2c27354bd407fc25bf444167215",
      "function": "addCurator(address,string,string)",
      "arguments": [
        "0x77C037fbF42e85dB1487B390b08f58C00f438812",
        "Test Curator 3",
        "https://images-platform.99static.com//7wcGDCCvD13MOorSSdbhqGNU3qk=/256x2289:756x2789/fit-in/590x590/99designs-contests-attachments/70/70438/attachment_70438547"
      ],
      "transaction": {
        "from": "0x6efb11ac41b6657c32dac5ed4874082c700bba29",
        "to": "0x75f1d5455405e2c27354bd407fc25bf444167215",
        "gas": "0x57b62",
        "value": "0x0",
        "input": "0xbc2d5ca600000000000000000000000077c037fbf42e85db1487b390b08f58c00f438812000000000000000000000000000000000000000000000000000000000000006000000000000000000000000000000000000000000000000000000000000000a0000000000000000000000000000000000000000000000000000000000000000e546573742043757261746f722033000000000000000000000000000000000000000000000000000000000000000000000000000000000000000000000000009f68747470733a2f2f696d616765732d706c6174666f726d2e39397374617469632e636f6d2f2f37776347444343764431334d4f6f72535364626871474e5533716b3d2f32353678323238393a37353678323738392f6669742d696e2f353930783539302f393964657369676e732d636f6e74657374732d6174746163686d656e74732f37302f37303433382f6174746163686d656e745f373034333835343700",
        "nonce": "0x166",
        "chainId": "0x279f"
      },
      "additionalContracts": [],
      "isFixedGasLimit": false
    },
    {
      "hash": "0x8577c3290ffc55453ba5b7bcadbab03e52162c38eed8d249ecbfa881fd3e1412",
      "transactionType": "CALL",
      "contractName": null,
      "contractAddress": "0xef4a9fe522993a5cc66ce63356d1a6c128f2986f",
      "function": "deployCuratorContract(string,string,uint256)",
      "arguments": [
        "Curator One",
        "ipfs://curator1",
        "500"
      ],
      "transaction": {
        "from": "0x6efb11ac41b6657c32dac5ed4874082c700bba29",
        "to": "0xef4a9fe522993a5cc66ce63356d1a6c128f2986f",
        "gas": "0x502e9",
        "value": "0x0",
        "input": "0x8fb241fb000000000000000000000000000000000000000000000000000000000000006000000000000000000000000000000000000000000000000000000000000000a000000000000000000000000000000000000000000000000000000000000001f4000000000000000000000000000000000000000000000000000000000000000b43757261746f72204f6e65000000000000000000000000000000000000000000000000000000000000000000000000000000000000000000000000000000000f697066733a2f2f63757261746f72310000000000000000000000000000000000",
        "nonce": "0x167",
        "chainId": "0x279f"
      },
      "additionalContracts": [
        {
          "transactionType": "CREATE",
          "address": "0xe627718ebca60b588b7f8bba2603c64110bb6865",
          "initCode": "0x3d602d80600a3d3981f3363d3d373d3d3d363d73818e5f3dc0befac4e1e5152a83d564c231902b355af43d82803e903d91602b57fd5bf3"
        }
      ],
      "isFixedGasLimit": false
    },
    {
      "hash": "0x0d4965b4057f02bcd11414cc69583ee31d4c0cce5b7dcb6b74dcf5dd624a7406",
      "transactionType": "CALL",
      "contractName": null,
      "contractAddress": "0xe3524d92b54d89b980ea01cb842047e18d2de6fc",
      "function": "createVault(address,address,string,string,address,address)",
      "arguments": [
        "0xe627718eBCa60B588b7f8bba2603c64110Bb6865",
        "0x58389610A3D13e8f380ee2bA077A6F36f2A90834",
        "Blue Chip Portfolio",
        "vBLUE",
        "0x22156b8e1dC92Ef0e91A27Ff2D008f3cC0c7fA27",
        "0x2c53Ce7143D24A65410107F50e4AABad9A164480"
      ],
      "transaction": {
        "from": "0x6efb11ac41b6657c32dac5ed4874082c700bba29",
        "to": "0xe3524d92b54d89b980ea01cb842047e18d2de6fc",
        "gas": "0x3072ca",
        "value": "0x0",
        "input": "0xd41329b3000000000000000000000000e627718ebca60b588b7f8bba2603c64110bb686500000000000000000000000058389610a3d13e8f380ee2ba077a6f36f2a9083400000000000000000000000000000000000000000000000000000000000000c0000000000000000000000000000000000000000000000000000000000000010000000000000000000000000022156b8e1dc92ef0e91a27ff2d008f3cc0c7fa270000000000000000000000002c53ce7143d24a65410107f50e4aabad9a1644800000000000000000000000000000000000000000000000000000000000000013426c7565204368697020506f7274666f6c696f00000000000000000000000000000000000000000000000000000000000000000000000000000000000000000576424c5545000000000000000000000000000000000000000000000000000000",
        "nonce": "0x168",
        "chainId": "0x279f"
      },
      "additionalContracts": [
        {
          "transactionType": "CREATE",
          "address": "0x733b9c3dbe882385f0f8c4c71feda894b772b567",
          "initCode": "0x61016080604052346101925760e081612a37803803809161002082856101a9565b8339810103126101925760208160446100395f946101e0565b6100448484016101e0565b92610051604082016101e0565b9061005e606082016101e0565b61006a608083016101e0565b9261008360c061007c60a086016101e0565b94016101e0565b608086905260a09790975260c05260e052610120526101005261014083905260405163095ea7b360e01b81526001600160a01b039182166004820152851960248201529485938492165af1801561019e57610162575b60405161284290816101f5823960805181818161017b015281816108a001528181611355015281816120cb01526124db015260a051818181610bc001528181611df70152612254015260c05181610aad015260e05181818161025d015261231f0152610100518181816102a10152611ecc01526101205181611815015261014051816116cd0152f35b6020813d602011610196575b8161017b602093836101a9565b81010312610192575180151503610192575f6100d9565b5f80fd5b3d915061016e565b6040513d5f823e3d90fd5b601f909101601f19168101906001600160401b038211908210176101cc57604052565b634e487b7160e01b5f52604160045260245ffd5b51906001600160a01b03821682036101925756fe6080806040526004361015610012575f80fd5b5f3560e01c90816301e1d114146118445750806306ae70951461180057806306fdde03146117715780630cf85bcc146116fc578063126846ec146116b85780631488ca0814611662578063158ef93e1461164057806315d3b5d814611626578063174009a4146115ee5780632016a0d2146111a15780632e1a7d4d14610e09578063313ce56714610de957806338d52e0f14610dbd5780633a98ef3914610da057806341826c2d14610bef578063660d0d6714610bab57806395d89b4114610adc5780639c8b2cfb14610a98578063a5f879ca146106aa578063a85a9f1a146104e7578063b1283e7714610485578063b6b55f25146102ed578063b996de67146102d0578063d0d0ed051461028c578063d7cd394914610248578063de35f5cb1461022b578063de6c3f731461020e578063e66f53b7146101e6578063f656ba51146101ae5763f887ea4014610166575f80fd5b346101aa575f3660031901126101aa576040517f00000000000000000000000000000000000000000000000000000000000000006001600160a01b03168152602090f35b5f80fd5b346101aa5760203660031901126101aa576001600160a01b036101cf6118f6565b165f526007602052602060405f2054604051908152f35b346101aa575f3660031901126101aa576003546040516001600160a01b039091168152602090f35b346101aa575f3660031901126101aa576020600954604051908152f35b346101aa575f3660031901126101aa576020600d54604051908152f35b346101aa575f3660031901126101aa576040517f00000000000000000000000000000000000000000000000000000000000000006001600160a01b03168152602090f35b346101aa575f3660031901126101aa576040517f00000000000000000000000000000000000000000000000000000000000000006001600160a01b03168152602090f35b346101aa575f3660031901126101aa576020600854604051908152f35b346101aa5760203660031901126101aa5760043561030f60ff60065416611a15565b801561044d57600554806104325750805b6002546040516323b872dd60e01b60208281019182523360248401523060448401526064830186905260089390931c6001600160a01b03169492915f919061037581608481015b03601f1981018352826118b1565b519082875af115610427575f513d61041e5750823b155b61040b57602092506103a08160045461199d565b6004556103af8260055461199d565b600555335f526007835260405f206103c883825461199d565b905560405190815281838201527f90890809c654f11d6e72a28fa60149770a0d11ec6c92319d6ceb2bb0a4ea1a1560403392a26104036125f7565b604051908152f35b82635274afe760e01b5f5260045260245ffd5b6001141561038c565b6040513d5f823e3d90fd5b61043f6104489183611a53565b60045490611a66565b610320565b60405162461bcd60e51b815260206004820152601060248201526f043616e6e6f74206465706f73697420360841b6044820152606490fd5b346101aa5760203660031901126101aa57600435600a548110156101aa576104ae60809161196d565b5060018060a01b038154169060018101549060ff6003600283015492015416916040519384526020840152604083015215156060820152f35b346101aa5760603660031901126101aa576105006118f6565b60243590604435801515918282036101aa5761052760018060a01b03600354163314611af7565b61053560ff60065416611a15565b6127108411610665576001600160a01b03165f818152600c6020526040902054909390610563811515611b32565b5f198101908111610651577fe8e3c5374d4bcf968f769c7c2e8c27941d0a98475cd4bf5e0a83a56da453c60f936105f88460036105e5856105d16127106105ca8a6105c560016105b56106379d61196d565b5001546105c06119aa565b611a84565b61199d565b1115611b71565b8760016105dd8361196d565b50015561196d565b50019060ff801983541691151516179055565b60016040519161060783611896565b84835260208301908152875f52600b60205260405f209251835551151591019060ff801983541691151516179055565b604080519182529115156020820152a261064f6125f7565b005b634e487b7160e01b5f52601160045260245ffd5b60405162461bcd60e51b815260206004820152601760248201527f50657263656e74616765206578636565647320313030250000000000000000006044820152606490fd5b346101aa5760403660031901126101aa576106c36118f6565b602435906106dc60018060a01b03600354163314611af7565b6001600160a01b038116918215610a5a576127108111610a1557825f52600c60205260405f20546109d857604051608081018181106001600160401b038211176109c457604052838152602081019082825260408101905f82526060810160018152600a54680100000000000000008110156109c4578060016107629201600a5561196d565b9390936109b1576107b29460039360018060a01b039051166bffffffffffffffffffffffff60a01b86541617855551600185015551600284015551151591019060ff801983541691151516179055565b600a54835f52600c60205260405f20556108036040516107d181611896565b828152600160208201818152865f52600b60205260405f209251835551151591019060ff801983541691151516179055565b6002546040516370a0823160e01b815230600482015260089190911c6001600160a01b03169190602081602481865afa80156104275782915f9161097a575b506127109161085091611a53565b60405163095ea7b360e01b81526001600160a01b03861660048201529190046024820181905292602090829060449082905f905af180156104275761095d575b5060405163095ea7b360e01b81527f00000000000000000000000000000000000000000000000000000000000000006001600160a01b031660048201525f196024820152926020846044815f895af1928315610427577fa64754291535175942be6f35fba8deab36d97ea608b17d06cc5efb985e17215f94602094610932575b5080610922575b5050604051908152a2005b61092b9161222a565b8480610917565b61095190853d8711610956575b61094981836118b1565b8101906119fd565b610910565b503d61093f565b6109759060203d6020116109565761094981836118b1565b610890565b9150506020813d6020116109a9575b81610996602093836118b1565b810103126101aa57518190612710610842565b3d9150610989565b634e487b7160e01b5f525f60045260245ffd5b634e487b7160e01b5f52604160045260245ffd5b60405162461bcd60e51b81526020600482015260156024820152744d61726b657420616c72656164792065786973747360581b6044820152606490fd5b60405162461bcd60e51b815260206004820152601d60248201527f496e76616c696420616c6c6f636174696f6e2070657263656e746167650000006044820152606490fd5b60405162461bcd60e51b8152602060048201526016602482015275496e76616c6964206d61726b6574206164647265737360501b6044820152606490fd5b346101aa575f3660031901126101aa576040517f00000000000000000000000000000000000000000000000000000000000000006001600160a01b03168152602090f35b346101aa575f3660031901126101aa576040515f600154610afc8161185e565b8084529060018116908115610b875750600114610b3c575b610b3883610b24818503826118b1565b6040519182916020835260208301906118d2565b0390f35b60015f9081525f805160206127ed833981519152939250905b808210610b6d57509091508101602001610b24610b14565b919260018160209254838588010152019101909291610b55565b60ff191660208086019190915291151560051b84019091019150610b249050610b14565b346101aa575f3660031901126101aa576040517f00000000000000000000000000000000000000000000000000000000000000006001600160a01b03168152602090f35b346101aa575f3660031901126101aa575f80600a54905b818110610d6e5750610c1782611a9f565b90610c2560405192836118b1565b828252610c3183611a9f565b6020830190601f1901368237610c5f610c4985611a9f565b94610c5760405196876118b1565b808652611a9f565b602085019290601f19013684375f805b828110610cfb57505050604051938493604085019060408652518091526060850192905f5b818110610cd9575050506020908483038286015251918281520191905f5b818110610cc0575050500390f35b8251845285945060209384019390920191600101610cb2565b82516001600160a01b0316855287965060209485019490920191600101610c94565b60ff6003610d0d83999697989961196d565b50015416610d23575b6001019594939295610c6f565b90610d66600191610d338461196d565b50838060a01b03905416610d47828b611ae3565b526002610d538561196d565b500154610d608288611ae3565b52611a91565b919050610d16565b60ff6003610d7b8361196d565b50015416610d8c575b600101610c06565b91610d98600191611a91565b929050610d84565b346101aa575f3660031901126101aa576020600554604051908152f35b346101aa575f3660031901126101aa5760025460405160089190911c6001600160a01b03168152602090f35b346101aa575f3660031901126101aa57602060ff60025416604051908152f35b346101aa5760203660031901126101aa57600435610e2b60ff60065416611a15565b801561116857335f52600760205260405f2054811161112d57610e5c610e5360045483611a53565b60055490611a66565b6002546040516370a0823160e01b8152306004820152906020908290602490829060081c6001600160a01b03165afa908115610427575f916110fb575b50818110610f79575b50610eaf82600554611a84565b600555610ebe81600454611a84565b600455335f52600760205260405f20610ed8838254611a84565b905560025460405163a9059cbb60e01b8152336004820152602481018390529290602090849060081c6001600160a01b0316815f816044810103925af192831561042757602093610f5e575b5060405190828252838201527ff279e6a1f5e320cca91135676d9cb6e44ca8a08c0b88342bcdb1144f6511b56860403392a2604051908152f35b610f7490843d86116109565761094981836118b1565b610f24565b610f839082611a84565b5f905b600a548210806110f2575b156110195760ff6003610fa38461196d565b50015416158015611004575b610ffa57610fee610ff4916002610fc58561196d565b5001548082108183180218906105c082610fde8761196d565b50546001600160a01b0316611d96565b91611a91565b90610f86565b90610ff490611a91565b5060026110108361196d565b50015415610faf565b50506002546040516370a0823160e01b8152306004820152906020908290602490829060081c6001600160a01b03165afa80156104275782915f916110bd575b50106110655782610ea2565b60405162461bcd60e51b815260206004820152602a60248201527f496e73756666696369656e74206c6971756964697479206166746572206465616044820152696c6c6f636174696f6e7360b01b6064820152608490fd5b9150506020813d6020116110ea575b816110d9602093836118b1565b810103126101aa5781905184611059565b3d91506110cc565b50801515610f91565b90506020813d602011611125575b81611116602093836118b1565b810103126101aa575183610e99565b3d9150611109565b60405162461bcd60e51b8152602060048201526013602482015272496e73756666696369656e742073686172657360681b6044820152606490fd5b60405162461bcd60e51b8152602060048201526011602482015270043616e6e6f74207769746864726177203607c1b6044820152606490fd5b346101aa5760803660031901126101aa576111ba6118f6565b602435906001600160a01b0382168083036101aa576044356001600160401b0381116101aa576111ee903690600401611927565b926064356001600160401b0381116101aa5761120e903690600401611927565b9260ff600654166115b357600380546001600160a01b0319166001600160a01b039290921691909117905560028054610100600160a81b03191660089290921b610100600160a81b031691909117905582516001600160401b0381116109c4576112785f5461185e565b601f811161154c575b506020601f82116001146114e057819293945f926114d5575b50508160011b915f199060031b1c1916175f555b81516001600160401b0381116109c4576112c960015461185e565b601f811161146d575b50602092601f821160011461140157928192935f926113f6575b50508160011b915f199060031b1c1916176001555b60405163313ce56760e01b8152602081600481855afa908115610427575f916113ba575b505f9160ff6020921660ff19600254161760025560446040518094819363095ea7b360e01b835260018060a01b037f0000000000000000000000000000000000000000000000000000000000000000166004840152811960248401525af180156104275761139d575b6006805460ff19166001179055005b6113b59060203d6020116109565761094981836118b1565b61138e565b90506020813d6020116113ee575b816113d5602093836118b1565b810103126101aa575160ff811681036101aa575f611325565b3d91506113c8565b0151905083806112ec565b601f1982169360015f525f805160206127ed833981519152915f5b868110611455575083600195961061143d575b505050811b01600155611301565b01515f1960f88460031b161c1916905583808061142f565b9192602060018192868501518155019401920161141c565b60015f52601f820160051c5f805160206127ed8339815191520190602083106114c0575b601f0160051c5f805160206127ed83398151915201905b8181106114b557506112d2565b5f81556001016114a8565b5f805160206127ed8339815191529150611491565b01519050848061129a565b601f198216905f80525f805160206127cd833981519152915f5b8181106115345750958360019596971061151c575b505050811b015f556112ae565b01515f1960f88460031b161c1916905584808061150f565b9192602060018192868b0151815501940192016114fa565b5f8052601f820160051c5f805160206127cd83398151915201906020831061159e575b601f0160051c5f805160206127cd83398151915201905b8181106115935750611281565b5f8155600101611586565b5f805160206127cd833981519152915061156f565b60405162461bcd60e51b8152602060048201526013602482015272105b1c9958591e481a5b9a5d1a585b1a5e9959606a1b6044820152606490fd5b346101aa5760203660031901126101aa576001600160a01b0361160f6118f6565b165f52600c602052602060405f2054604051908152f35b346101aa575f3660031901126101aa5760206104036119aa565b346101aa575f3660031901126101aa57602060ff600654166040519015158152f35b346101aa5760203660031901126101aa576001600160a01b036116836118f6565b165f52600b60205260405f2060ff600182549201541690610b3860405192839283909291602090604083019483521515910152565b346101aa575f3660031901126101aa576040517f00000000000000000000000000000000000000000000000000000000000000006001600160a01b03168152602090f35b346101aa5760203660031901126101aa576117156118f6565b5f602060405161172481611896565b82815201526001600160a01b03165f908152600b602052604090819020815161174c81611896565b602060ff60018454948585520154169101901515815282519182525115156020820152f35b346101aa575f3660031901126101aa576040515f80546117908161185e565b8084529060018116908115610b8757506001146117b757610b3883610b24818503826118b1565b5f8080525f805160206127cd833981519152939250905b8082106117e657509091508101602001610b24610b14565b9192600181602092548385880101520191019092916117ce565b346101aa575f3660031901126101aa576040517f00000000000000000000000000000000000000000000000000000000000000006001600160a01b03168152602090f35b346101aa575f3660031901126101aa576020906004548152f35b90600182811c9216801561188c575b602083101461187857565b634e487b7160e01b5f52602260045260245ffd5b91607f169161186d565b604081019081106001600160401b038211176109c457604052565b90601f801991011681019081106001600160401b038211176109c457604052565b805180835260209291819084018484015e5f828201840152601f01601f1916010190565b600435906001600160a01b03821682036101aa57565b6001600160401b0381116109c457601f01601f191660200190565b81601f820112156101aa5780359061193e8261190c565b9261194c60405194856118b1565b828452602083830101116101aa57815f926020809301838601378301015290565b600a5481101561198957600a5f5260205f209060021b01905f90565b634e487b7160e01b5f52603260045260245ffd5b9190820180921161065157565b5f80600a54905b8181106119bd57505090565b60ff60036119ca8361196d565b500154166119db575b6001016119b1565b916119f5600191826119ec8661196d565b5001549061199d565b9290506119d3565b908160209103126101aa575180151581036101aa5790565b15611a1c57565b60405162461bcd60e51b815260206004820152600f60248201526e139bdd081a5b9a5d1a585b1a5e9959608a1b6044820152606490fd5b8181029291811591840414171561065157565b8115611a70570490565b634e487b7160e01b5f52601260045260245ffd5b9190820391821161065157565b5f1981146106515760010190565b6001600160401b0381116109c45760051b60200190565b8051156119895760200190565b8051600110156119895760400190565b8051600210156119895760600190565b80518210156119895760209160051b010190565b15611afe57565b60405162461bcd60e51b815260206004820152600c60248201526b27b7363c9031bab930ba37b960a11b6044820152606490fd5b15611b3957565b60405162461bcd60e51b815260206004820152601060248201526f13585c9ad95d081b9bdd08199bdd5b9960821b6044820152606490fd5b15611b7857565b60405162461bcd60e51b815260206004820152601d60248201527f546f74616c20616c6c6f636174696f6e206578636565647320313030250000006044820152606490fd5b51906001600160a01b03821682036101aa57565b908160609103126101aa5760405190606082018281106001600160401b038211176109c457611c21916040918252611c0881611bbd565b8452611c1660208201611bbd565b602085015201611bbd565b604082015290565b60405160809190611c3a83826118b1565b6003815291601f1901825f5b828110611c5257505050565b806060602080938501015201611c46565b6020818303126101aa578051906001600160401b0382116101aa57019080601f830112156101aa57815191611c9783611a9f565b92611ca560405194856118b1565b80845260208085019160051b830101918383116101aa5760208101915b838310611cd157505050505090565b82516001600160401b0381116101aa57820185603f820112156101aa57602081015191611cfd8361190c565b611d0a60405191826118b1565b83815260408385010188106101aa575f602085819660408397018386015e83010152815201920191611cc2565b602081016020825282518091526040820191602060408360051b8301019401925f915b838310611d6957505050505090565b9091929394602080611d87600193603f1986820301875289516118d2565b97019301930191939290611d5a565b8115612226576001600160a01b0381165f818152600c60205260409020549092611dc1821515611b32565b5f198201918211610651576002611dd78361196d565b5001548111612212575b60405163c6c6728960e01b8152600481018590527f00000000000000000000000000000000000000000000000000000000000000006001600160a01b03169390602081602481885afa8015610427575f906121df575b6060915060246040518097819363c3c95c7b60e01b835260048301525afa938415610427575f946121ae575b506040516370a0823160e01b8152306004820152602081602481895afa80156104275783915f91612177575b50611eb191611e9d91611a53565b6002611ea88661196d565b50015490611a66565b90611eba611c29565b604051637d39aaf160e01b60208201527f00000000000000000000000000000000000000000000000000000000000000006001600160a01b0381166024830152620f424060448084019190915282529192611f6691611f1a6064826118b1565b611f2385611ab6565b52611f2d84611ab6565b50604051631cdacd5960e31b60208201526001600160a01b03918216602482015292166044830152606482018490528160848101610367565b611f6f82611ac3565b52611f7981611ac3565b5060208501516040909501516002546001600160a01b039182169660089190911c82169116818103612170576064915b870361216a5760645b604051926101208401958487106001600160401b038811176109c45760409687523085525f6020808701828152878a018e815260608901978852608089019d8e5260a0890194855260ff95861660c08a019081529690951660e08901908152620f42406101008a019081529a51633d93a7af60e11b9381019390935297516001600160a01b039081166024840152905181166044830152935184166064820152945183166084860152995190911660a48401525160c48301525160e4820152905161010482015291516101248084019190915282526120c69491612098610144826118b1565b6120a182611ad3565b526120ab81611ad3565b5060405180958192631592ca1b60e31b835260048301611d37565b0381837f00000000000000000000000000000000000000000000000000000000000000006001600160a01b03165af1928315610427576121326020936002927fcf25af35f355434c1dce4120416a90ead032734765d0e4f0c8771cee2c9116459661214a575b5061196d565b500161213f828254611a84565b9055604051908152a2565b612165903d805f833e61215d81836118b1565b810190611c63565b61212c565b5f611fb2565b5f91611fa9565b9150506020813d6020116121a6575b81612193602093836118b1565b810103126101aa57518290611eb1611e8f565b3d9150612186565b6121d191945060603d6060116121d8575b6121c981836118b1565b810190611bd1565b925f611e63565b503d6121bf565b506020813d60201161220a575b816121f9602093836118b1565b810103126101aa5760609051611e37565b3d91506121ec565b50600261221e8261196d565b500154611de1565b5050565b9080156122265760405163c6c6728960e01b81526001600160a01b038381166004830181905293917f000000000000000000000000000000000000000000000000000000000000000090911690602081602481855afa8015610427575f906125c4575b6060915060246040518094819363c3c95c7b60e01b835260048301525afa9182156104275783915f9361259a575b5060025460405163095ea7b360e01b81526001600160a01b0392831660048201526024810193909352602091839160081c16815f81604481015b03925af180156104275761257d575b5061230d611c29565b604051637d39aaf160e01b60208201527f00000000000000000000000000000000000000000000000000000000000000006001600160a01b0381166024830152620f42406044808401919091528252906123686064826118b1565b61237183611ab6565b5261237b82611ab6565b50600254604051631cdacd5960e31b60208201526001600160a01b0360089290921c8216602482015291166044820152606481018490526123bf8160848101610367565b6123c882611ac3565b526123d281611ac3565b50602082015160409283015192516001600160a01b039182169360e082019392166001600160401b038411828510176109c45760409384523082525f60208084018281528487018a8152606086019889526080860194855260a08601848152620f424060c0880190815298516305272a7760e31b9481019490945295516001600160a01b0390811660248501529151821660448401525181166064830152965187166084820152915190951660a4820152905160c4820152915160e48084019190915282526124d692916124a8610104826118b1565b6124b182611ad3565b526124bb81611ad3565b5060405180938192631592ca1b60e31b835260048301611d37565b0381837f00000000000000000000000000000000000000000000000000000000000000006001600160a01b03165af1801561042757612565575b50815f52600c60205260405f20545f198101908111610651577f472f36e28bb47edb7c69c9e2ac00a77c66b505df54e9c818ac57110b0629e8c391600261255860209361196d565b500161213f82825461199d565b612578903d805f833e61215d81836118b1565b612510565b6125959060203d6020116109565761094981836118b1565b612304565b6020919350916125bb6122f59360603d6060116121d8576121c981836118b1565b939150916122bb565b506020813d6020116125ef575b816125de602093836118b1565b810103126101aa576060905161228d565b3d91506125d1565b600454156127a1575f80600a54905b8181106127a3575b5050156127a1576126236127106105ca6119aa565b5f5b600a5481101561277a5760ff600361263c8361196d565b50015416156127725761271061266260045460016126598561196d565b50015490611a53565b0490600261266f8261196d565b50015491828111156127345760249261268791611a84565b6002546040516370a0823160e01b815230600482015293602091859190829060081c6001600160a01b03165afa8015610427575f90612702575b600193508082116126ef57506126e9906126da8361196d565b50848060a01b0390541661222a565b01612625565b6126fd91506126da8361196d565b6126e9565b506020833d821161272c575b8161271b602093836118b1565b810103126101aa57600192516126c1565b3d915061270e565b826001938210612746575b50506126e9565b61276b9161275391611a84565b61275c8361196d565b50848060a01b03905416611d96565b5f8061273f565b6001906126e9565b507fc741dbaad15a4f298fe8d80943fa8e005e7bcb2f5b0a0c8dec1fc35be457f1465f80a1565b565b60ff60036127b08361196d565b500154166127c057600101612606565b50505060015f8061260e56fe290decd9548b62a8d60345a988386fc84ba6bc95484008f6362f93160ef3e563b10e2d527612073b26eecdfd717e6a320cf44b4afac2b0732d9fcbe2b7fa0cf6a2646970667358221220cd36b444c7ef7a607877197b6c62cdae523349ce7c4206847b82f62749187fe464736f6c634300081a00330000000000000000000000002e505c38656ae7e6b1134f48b0daf6f725a6eaeb0000000000000000000000003654e562a54891a02a1d67966109f746d13e1eca000000000000000000000000f573e0745c3fa02b4a6739446c34c16de49fed520000000000000000000000002e45d737b1d3ca3c6fb4cb82193e0e3d7444e4bd00000000000000000000000031a84300f4c047565719e67f85974bf2995b506000000000000000000000000022156b8e1dc92ef0e91a27ff2d008f3cc0c7fa270000000000000000000000002c53ce7143d24a65410107f50e4aabad9a164480"
        }
      ],
      "isFixedGasLimit": false
    },
    {
      "hash": "0x98c67dc6bdfe9f123f175bdacff38b033cf6fb5650324d966b58a7b703a9ce2d",
      "transactionType": "CALL",
      "contractName": null,
      "contractAddress": "0xe627718ebca60b588b7f8bba2603c64110bb6865",
      "function": "addMarketToVault(address,address,uint256)",
      "arguments": [
        "0x733b9c3dBE882385F0f8c4C71feDA894b772b567",
        "0x4C51D8A789b0029cF47C2366eEbF6205A09d929B",
        "4500"
      ],
      "transaction": {
        "from": "0x6efb11ac41b6657c32dac5ed4874082c700bba29",
        "to": "0xe627718ebca60b588b7f8bba2603c64110bb6865",
        "gas": "0x4e6ae",
        "value": "0x0",
        "input": "0x45f61828000000000000000000000000733b9c3dbe882385f0f8c4c71feda894b772b5670000000000000000000000004c51d8a789b0029cf47c2366eebf6205a09d929b0000000000000000000000000000000000000000000000000000000000001194",
        "nonce": "0x169",
        "chainId": "0x279f"
      },
      "additionalContracts": [],
      "isFixedGasLimit": false
    },
    {
      "hash": "0x0aa9340199c529935c711d5626585d1d00bc9ac6a7c3b161b614d6b633d74cdf",
      "transactionType": "CALL",
      "contractName": null,
      "contractAddress": "0xe627718ebca60b588b7f8bba2603c64110bb6865",
      "function": "addMarketToVault(address,address,uint256)",
      "arguments": [
        "0x733b9c3dBE882385F0f8c4C71feDA894b772b567",
        "0x339AE32f85f4A43b8dC0b685DC2d39179653CA01",
        "3000"
      ],
      "transaction": {
        "from": "0x6efb11ac41b6657c32dac5ed4874082c700bba29",
        "to": "0xe627718ebca60b588b7f8bba2603c64110bb6865",
        "gas": "0x4cecc",
        "value": "0x0",
        "input": "0x45f61828000000000000000000000000733b9c3dbe882385f0f8c4c71feda894b772b567000000000000000000000000339ae32f85f4a43b8dc0b685dc2d39179653ca010000000000000000000000000000000000000000000000000000000000000bb8",
        "nonce": "0x16a",
        "chainId": "0x279f"
      },
      "additionalContracts": [],
      "isFixedGasLimit": false
    },
    {
      "hash": "0xe61e9ac1f4f70c094b6fbd361460ce4054d5b6bd93879032fa5b1b60d890bb3b",
      "transactionType": "CALL",
      "contractName": null,
      "contractAddress": "0xe627718ebca60b588b7f8bba2603c64110bb6865",
      "function": "addMarketToVault(address,address,uint256)",
      "arguments": [
        "0x733b9c3dBE882385F0f8c4C71feDA894b772b567",
        "0xb0A7f91a1c917A3BfF73F2E3829032c64e135951",
        "2500"
      ],
      "transaction": {
        "from": "0x6efb11ac41b6657c32dac5ed4874082c700bba29",
        "to": "0xe627718ebca60b588b7f8bba2603c64110bb6865",
        "gas": "0x4cecc",
        "value": "0x0",
        "input": "0x45f61828000000000000000000000000733b9c3dbe882385f0f8c4c71feda894b772b567000000000000000000000000b0a7f91a1c917a3bff73f2e3829032c64e13595100000000000000000000000000000000000000000000000000000000000009c4",
        "nonce": "0x16b",
        "chainId": "0x279f"
      },
      "additionalContracts": [],
      "isFixedGasLimit": false
    },
    {
      "hash": "0x903f5e81432ff52c513700c4012f7108f6238efd6292becab1526f0e49798f47",
      "transactionType": "CALL",
      "contractName": null,
      "contractAddress": "0xef4a9fe522993a5cc66ce63356d1a6c128f2986f",
      "function": "deployCuratorContract(string,string,uint256)",
      "arguments": [
        "Curator Two",
        "ipfs://curator2",
        "500"
      ],
      "transaction": {
        "from": "0x6efb11ac41b6657c32dac5ed4874082c700bba29",
        "to": "0xef4a9fe522993a5cc66ce63356d1a6c128f2986f",
        "gas": "0x4ecb0",
        "value": "0x0",
        "input": "0x8fb241fb000000000000000000000000000000000000000000000000000000000000006000000000000000000000000000000000000000000000000000000000000000a000000000000000000000000000000000000000000000000000000000000001f4000000000000000000000000000000000000000000000000000000000000000b43757261746f722054776f000000000000000000000000000000000000000000000000000000000000000000000000000000000000000000000000000000000f697066733a2f2f63757261746f72320000000000000000000000000000000000",
        "nonce": "0x16c",
        "chainId": "0x279f"
      },
      "additionalContracts": [
        {
          "transactionType": "CREATE",
          "address": "0x2be6f52bfe2f81d568b7b736e2faa1a621446e7f",
          "initCode": "0x3d602d80600a3d3981f3363d3d373d3d3d363d73818e5f3dc0befac4e1e5152a83d564c231902b355af43d82803e903d91602b57fd5bf3"
        }
      ],
      "isFixedGasLimit": false
    },
    {
      "hash": "0xf0d54c51c6e8e168e5830dc4a0cf97364d44f404366780a0fab3635a3bc6f594",
      "transactionType": "CALL",
      "contractName": null,
      "contractAddress": "0xe3524d92b54d89b980ea01cb842047e18d2de6fc",
      "function": "createVault(address,address,string,string,address,address)",
      "arguments": [
        "0x2bE6f52BFE2F81d568b7B736e2fAA1A621446E7f",
        "0x58389610A3D13e8f380ee2bA077A6F36f2A90834",
        "Major Assets",
        "vMAJOR",
        "0x22156b8e1dC92Ef0e91A27Ff2D008f3cC0c7fA27",
        "0x2c53Ce7143D24A65410107F50e4AABad9A164480"
      ],
      "transaction": {
        "from": "0x6efb11ac41b6657c32dac5ed4874082c700bba29",
        "to": "0xe3524d92b54d89b980ea01cb842047e18d2de6fc",
        "gas": "0x307266",
        "value": "0x0",
        "input": "0xd41329b30000000000000000000000002be6f52bfe2f81d568b7b736e2faa1a621446e7f00000000000000000000000058389610a3d13e8f380ee2ba077a6f36f2a9083400000000000000000000000000000000000000000000000000000000000000c0000000000000000000000000000000000000000000000000000000000000010000000000000000000000000022156b8e1dc92ef0e91a27ff2d008f3cc0c7fa270000000000000000000000002c53ce7143d24a65410107f50e4aabad9a164480000000000000000000000000000000000000000000000000000000000000000c4d616a6f722041737365747300000000000000000000000000000000000000000000000000000000000000000000000000000000000000000000000000000006764d414a4f520000000000000000000000000000000000000000000000000000",
        "nonce": "0x16d",
        "chainId": "0x279f"
      },
      "additionalContracts": [
        {
          "transactionType": "CREATE",
          "address": "0x51f277a2c6aa32ebe0a772820a5399c3c991d182",
          "initCode": "0x61016080604052346101925760e081612a37803803809161002082856101a9565b8339810103126101925760208160446100395f946101e0565b6100448484016101e0565b92610051604082016101e0565b9061005e606082016101e0565b61006a608083016101e0565b9261008360c061007c60a086016101e0565b94016101e0565b608086905260a09790975260c05260e052610120526101005261014083905260405163095ea7b360e01b81526001600160a01b039182166004820152851960248201529485938492165af1801561019e57610162575b60405161284290816101f5823960805181818161017b015281816108a001528181611355015281816120cb01526124db015260a051818181610bc001528181611df70152612254015260c05181610aad015260e05181818161025d015261231f0152610100518181816102a10152611ecc01526101205181611815015261014051816116cd0152f35b6020813d602011610196575b8161017b602093836101a9565b81010312610192575180151503610192575f6100d9565b5f80fd5b3d915061016e565b6040513d5f823e3d90fd5b601f909101601f19168101906001600160401b038211908210176101cc57604052565b634e487b7160e01b5f52604160045260245ffd5b51906001600160a01b03821682036101925756fe6080806040526004361015610012575f80fd5b5f3560e01c90816301e1d114146118445750806306ae70951461180057806306fdde03146117715780630cf85bcc146116fc578063126846ec146116b85780631488ca0814611662578063158ef93e1461164057806315d3b5d814611626578063174009a4146115ee5780632016a0d2146111a15780632e1a7d4d14610e09578063313ce56714610de957806338d52e0f14610dbd5780633a98ef3914610da057806341826c2d14610bef578063660d0d6714610bab57806395d89b4114610adc5780639c8b2cfb14610a98578063a5f879ca146106aa578063a85a9f1a146104e7578063b1283e7714610485578063b6b55f25146102ed578063b996de67146102d0578063d0d0ed051461028c578063d7cd394914610248578063de35f5cb1461022b578063de6c3f731461020e578063e66f53b7146101e6578063f656ba51146101ae5763f887ea4014610166575f80fd5b346101aa575f3660031901126101aa576040517f00000000000000000000000000000000000000000000000000000000000000006001600160a01b03168152602090f35b5f80fd5b346101aa5760203660031901126101aa576001600160a01b036101cf6118f6565b165f526007602052602060405f2054604051908152f35b346101aa575f3660031901126101aa576003546040516001600160a01b039091168152602090f35b346101aa575f3660031901126101aa576020600954604051908152f35b346101aa575f3660031901126101aa576020600d54604051908152f35b346101aa575f3660031901126101aa576040517f00000000000000000000000000000000000000000000000000000000000000006001600160a01b03168152602090f35b346101aa575f3660031901126101aa576040517f00000000000000000000000000000000000000000000000000000000000000006001600160a01b03168152602090f35b346101aa575f3660031901126101aa576020600854604051908152f35b346101aa5760203660031901126101aa5760043561030f60ff60065416611a15565b801561044d57600554806104325750805b6002546040516323b872dd60e01b60208281019182523360248401523060448401526064830186905260089390931c6001600160a01b03169492915f919061037581608481015b03601f1981018352826118b1565b519082875af115610427575f513d61041e5750823b155b61040b57602092506103a08160045461199d565b6004556103af8260055461199d565b600555335f526007835260405f206103c883825461199d565b905560405190815281838201527f90890809c654f11d6e72a28fa60149770a0d11ec6c92319d6ceb2bb0a4ea1a1560403392a26104036125f7565b604051908152f35b82635274afe760e01b5f5260045260245ffd5b6001141561038c565b6040513d5f823e3d90fd5b61043f6104489183611a53565b60045490611a66565b610320565b60405162461bcd60e51b815260206004820152601060248201526f043616e6e6f74206465706f73697420360841b6044820152606490fd5b346101aa5760203660031901126101aa57600435600a548110156101aa576104ae60809161196d565b5060018060a01b038154169060018101549060ff6003600283015492015416916040519384526020840152604083015215156060820152f35b346101aa5760603660031901126101aa576105006118f6565b60243590604435801515918282036101aa5761052760018060a01b03600354163314611af7565b61053560ff60065416611a15565b6127108411610665576001600160a01b03165f818152600c6020526040902054909390610563811515611b32565b5f198101908111610651577fe8e3c5374d4bcf968f769c7c2e8c27941d0a98475cd4bf5e0a83a56da453c60f936105f88460036105e5856105d16127106105ca8a6105c560016105b56106379d61196d565b5001546105c06119aa565b611a84565b61199d565b1115611b71565b8760016105dd8361196d565b50015561196d565b50019060ff801983541691151516179055565b60016040519161060783611896565b84835260208301908152875f52600b60205260405f209251835551151591019060ff801983541691151516179055565b604080519182529115156020820152a261064f6125f7565b005b634e487b7160e01b5f52601160045260245ffd5b60405162461bcd60e51b815260206004820152601760248201527f50657263656e74616765206578636565647320313030250000000000000000006044820152606490fd5b346101aa5760403660031901126101aa576106c36118f6565b602435906106dc60018060a01b03600354163314611af7565b6001600160a01b038116918215610a5a576127108111610a1557825f52600c60205260405f20546109d857604051608081018181106001600160401b038211176109c457604052838152602081019082825260408101905f82526060810160018152600a54680100000000000000008110156109c4578060016107629201600a5561196d565b9390936109b1576107b29460039360018060a01b039051166bffffffffffffffffffffffff60a01b86541617855551600185015551600284015551151591019060ff801983541691151516179055565b600a54835f52600c60205260405f20556108036040516107d181611896565b828152600160208201818152865f52600b60205260405f209251835551151591019060ff801983541691151516179055565b6002546040516370a0823160e01b815230600482015260089190911c6001600160a01b03169190602081602481865afa80156104275782915f9161097a575b506127109161085091611a53565b60405163095ea7b360e01b81526001600160a01b03861660048201529190046024820181905292602090829060449082905f905af180156104275761095d575b5060405163095ea7b360e01b81527f00000000000000000000000000000000000000000000000000000000000000006001600160a01b031660048201525f196024820152926020846044815f895af1928315610427577fa64754291535175942be6f35fba8deab36d97ea608b17d06cc5efb985e17215f94602094610932575b5080610922575b5050604051908152a2005b61092b9161222a565b8480610917565b61095190853d8711610956575b61094981836118b1565b8101906119fd565b610910565b503d61093f565b6109759060203d6020116109565761094981836118b1565b610890565b9150506020813d6020116109a9575b81610996602093836118b1565b810103126101aa57518190612710610842565b3d9150610989565b634e487b7160e01b5f525f60045260245ffd5b634e487b7160e01b5f52604160045260245ffd5b60405162461bcd60e51b81526020600482015260156024820152744d61726b657420616c72656164792065786973747360581b6044820152606490fd5b60405162461bcd60e51b815260206004820152601d60248201527f496e76616c696420616c6c6f636174696f6e2070657263656e746167650000006044820152606490fd5b60405162461bcd60e51b8152602060048201526016602482015275496e76616c6964206d61726b6574206164647265737360501b6044820152606490fd5b346101aa575f3660031901126101aa576040517f00000000000000000000000000000000000000000000000000000000000000006001600160a01b03168152602090f35b346101aa575f3660031901126101aa576040515f600154610afc8161185e565b8084529060018116908115610b875750600114610b3c575b610b3883610b24818503826118b1565b6040519182916020835260208301906118d2565b0390f35b60015f9081525f805160206127ed833981519152939250905b808210610b6d57509091508101602001610b24610b14565b919260018160209254838588010152019101909291610b55565b60ff191660208086019190915291151560051b84019091019150610b249050610b14565b346101aa575f3660031901126101aa576040517f00000000000000000000000000000000000000000000000000000000000000006001600160a01b03168152602090f35b346101aa575f3660031901126101aa575f80600a54905b818110610d6e5750610c1782611a9f565b90610c2560405192836118b1565b828252610c3183611a9f565b6020830190601f1901368237610c5f610c4985611a9f565b94610c5760405196876118b1565b808652611a9f565b602085019290601f19013684375f805b828110610cfb57505050604051938493604085019060408652518091526060850192905f5b818110610cd9575050506020908483038286015251918281520191905f5b818110610cc0575050500390f35b8251845285945060209384019390920191600101610cb2565b82516001600160a01b0316855287965060209485019490920191600101610c94565b60ff6003610d0d83999697989961196d565b50015416610d23575b6001019594939295610c6f565b90610d66600191610d338461196d565b50838060a01b03905416610d47828b611ae3565b526002610d538561196d565b500154610d608288611ae3565b52611a91565b919050610d16565b60ff6003610d7b8361196d565b50015416610d8c575b600101610c06565b91610d98600191611a91565b929050610d84565b346101aa575f3660031901126101aa576020600554604051908152f35b346101aa575f3660031901126101aa5760025460405160089190911c6001600160a01b03168152602090f35b346101aa575f3660031901126101aa57602060ff60025416604051908152f35b346101aa5760203660031901126101aa57600435610e2b60ff60065416611a15565b801561116857335f52600760205260405f2054811161112d57610e5c610e5360045483611a53565b60055490611a66565b6002546040516370a0823160e01b8152306004820152906020908290602490829060081c6001600160a01b03165afa908115610427575f916110fb575b50818110610f79575b50610eaf82600554611a84565b600555610ebe81600454611a84565b600455335f52600760205260405f20610ed8838254611a84565b905560025460405163a9059cbb60e01b8152336004820152602481018390529290602090849060081c6001600160a01b0316815f816044810103925af192831561042757602093610f5e575b5060405190828252838201527ff279e6a1f5e320cca91135676d9cb6e44ca8a08c0b88342bcdb1144f6511b56860403392a2604051908152f35b610f7490843d86116109565761094981836118b1565b610f24565b610f839082611a84565b5f905b600a548210806110f2575b156110195760ff6003610fa38461196d565b50015416158015611004575b610ffa57610fee610ff4916002610fc58561196d565b5001548082108183180218906105c082610fde8761196d565b50546001600160a01b0316611d96565b91611a91565b90610f86565b90610ff490611a91565b5060026110108361196d565b50015415610faf565b50506002546040516370a0823160e01b8152306004820152906020908290602490829060081c6001600160a01b03165afa80156104275782915f916110bd575b50106110655782610ea2565b60405162461bcd60e51b815260206004820152602a60248201527f496e73756666696369656e74206c6971756964697479206166746572206465616044820152696c6c6f636174696f6e7360b01b6064820152608490fd5b9150506020813d6020116110ea575b816110d9602093836118b1565b810103126101aa5781905184611059565b3d91506110cc565b50801515610f91565b90506020813d602011611125575b81611116602093836118b1565b810103126101aa575183610e99565b3d9150611109565b60405162461bcd60e51b8152602060048201526013602482015272496e73756666696369656e742073686172657360681b6044820152606490fd5b60405162461bcd60e51b8152602060048201526011602482015270043616e6e6f74207769746864726177203607c1b6044820152606490fd5b346101aa5760803660031901126101aa576111ba6118f6565b602435906001600160a01b0382168083036101aa576044356001600160401b0381116101aa576111ee903690600401611927565b926064356001600160401b0381116101aa5761120e903690600401611927565b9260ff600654166115b357600380546001600160a01b0319166001600160a01b039290921691909117905560028054610100600160a81b03191660089290921b610100600160a81b031691909117905582516001600160401b0381116109c4576112785f5461185e565b601f811161154c575b506020601f82116001146114e057819293945f926114d5575b50508160011b915f199060031b1c1916175f555b81516001600160401b0381116109c4576112c960015461185e565b601f811161146d575b50602092601f821160011461140157928192935f926113f6575b50508160011b915f199060031b1c1916176001555b60405163313ce56760e01b8152602081600481855afa908115610427575f916113ba575b505f9160ff6020921660ff19600254161760025560446040518094819363095ea7b360e01b835260018060a01b037f0000000000000000000000000000000000000000000000000000000000000000166004840152811960248401525af180156104275761139d575b6006805460ff19166001179055005b6113b59060203d6020116109565761094981836118b1565b61138e565b90506020813d6020116113ee575b816113d5602093836118b1565b810103126101aa575160ff811681036101aa575f611325565b3d91506113c8565b0151905083806112ec565b601f1982169360015f525f805160206127ed833981519152915f5b868110611455575083600195961061143d575b505050811b01600155611301565b01515f1960f88460031b161c1916905583808061142f565b9192602060018192868501518155019401920161141c565b60015f52601f820160051c5f805160206127ed8339815191520190602083106114c0575b601f0160051c5f805160206127ed83398151915201905b8181106114b557506112d2565b5f81556001016114a8565b5f805160206127ed8339815191529150611491565b01519050848061129a565b601f198216905f80525f805160206127cd833981519152915f5b8181106115345750958360019596971061151c575b505050811b015f556112ae565b01515f1960f88460031b161c1916905584808061150f565b9192602060018192868b0151815501940192016114fa565b5f8052601f820160051c5f805160206127cd83398151915201906020831061159e575b601f0160051c5f805160206127cd83398151915201905b8181106115935750611281565b5f8155600101611586565b5f805160206127cd833981519152915061156f565b60405162461bcd60e51b8152602060048201526013602482015272105b1c9958591e481a5b9a5d1a585b1a5e9959606a1b6044820152606490fd5b346101aa5760203660031901126101aa576001600160a01b0361160f6118f6565b165f52600c602052602060405f2054604051908152f35b346101aa575f3660031901126101aa5760206104036119aa565b346101aa575f3660031901126101aa57602060ff600654166040519015158152f35b346101aa5760203660031901126101aa576001600160a01b036116836118f6565b165f52600b60205260405f2060ff600182549201541690610b3860405192839283909291602090604083019483521515910152565b346101aa575f3660031901126101aa576040517f00000000000000000000000000000000000000000000000000000000000000006001600160a01b03168152602090f35b346101aa5760203660031901126101aa576117156118f6565b5f602060405161172481611896565b82815201526001600160a01b03165f908152600b602052604090819020815161174c81611896565b602060ff60018454948585520154169101901515815282519182525115156020820152f35b346101aa575f3660031901126101aa576040515f80546117908161185e565b8084529060018116908115610b8757506001146117b757610b3883610b24818503826118b1565b5f8080525f805160206127cd833981519152939250905b8082106117e657509091508101602001610b24610b14565b9192600181602092548385880101520191019092916117ce565b346101aa575f3660031901126101aa576040517f00000000000000000000000000000000000000000000000000000000000000006001600160a01b03168152602090f35b346101aa575f3660031901126101aa576020906004548152f35b90600182811c9216801561188c575b602083101461187857565b634e487b7160e01b5f52602260045260245ffd5b91607f169161186d565b604081019081106001600160401b038211176109c457604052565b90601f801991011681019081106001600160401b038211176109c457604052565b805180835260209291819084018484015e5f828201840152601f01601f1916010190565b600435906001600160a01b03821682036101aa57565b6001600160401b0381116109c457601f01601f191660200190565b81601f820112156101aa5780359061193e8261190c565b9261194c60405194856118b1565b828452602083830101116101aa57815f926020809301838601378301015290565b600a5481101561198957600a5f5260205f209060021b01905f90565b634e487b7160e01b5f52603260045260245ffd5b9190820180921161065157565b5f80600a54905b8181106119bd57505090565b60ff60036119ca8361196d565b500154166119db575b6001016119b1565b916119f5600191826119ec8661196d565b5001549061199d565b9290506119d3565b908160209103126101aa575180151581036101aa5790565b15611a1c57565b60405162461bcd60e51b815260206004820152600f60248201526e139bdd081a5b9a5d1a585b1a5e9959608a1b6044820152606490fd5b8181029291811591840414171561065157565b8115611a70570490565b634e487b7160e01b5f52601260045260245ffd5b9190820391821161065157565b5f1981146106515760010190565b6001600160401b0381116109c45760051b60200190565b8051156119895760200190565b8051600110156119895760400190565b8051600210156119895760600190565b80518210156119895760209160051b010190565b15611afe57565b60405162461bcd60e51b815260206004820152600c60248201526b27b7363c9031bab930ba37b960a11b6044820152606490fd5b15611b3957565b60405162461bcd60e51b815260206004820152601060248201526f13585c9ad95d081b9bdd08199bdd5b9960821b6044820152606490fd5b15611b7857565b60405162461bcd60e51b815260206004820152601d60248201527f546f74616c20616c6c6f636174696f6e206578636565647320313030250000006044820152606490fd5b51906001600160a01b03821682036101aa57565b908160609103126101aa5760405190606082018281106001600160401b038211176109c457611c21916040918252611c0881611bbd565b8452611c1660208201611bbd565b602085015201611bbd565b604082015290565b60405160809190611c3a83826118b1565b6003815291601f1901825f5b828110611c5257505050565b806060602080938501015201611c46565b6020818303126101aa578051906001600160401b0382116101aa57019080601f830112156101aa57815191611c9783611a9f565b92611ca560405194856118b1565b80845260208085019160051b830101918383116101aa5760208101915b838310611cd157505050505090565b82516001600160401b0381116101aa57820185603f820112156101aa57602081015191611cfd8361190c565b611d0a60405191826118b1565b83815260408385010188106101aa575f602085819660408397018386015e83010152815201920191611cc2565b602081016020825282518091526040820191602060408360051b8301019401925f915b838310611d6957505050505090565b9091929394602080611d87600193603f1986820301875289516118d2565b97019301930191939290611d5a565b8115612226576001600160a01b0381165f818152600c60205260409020549092611dc1821515611b32565b5f198201918211610651576002611dd78361196d565b5001548111612212575b60405163c6c6728960e01b8152600481018590527f00000000000000000000000000000000000000000000000000000000000000006001600160a01b03169390602081602481885afa8015610427575f906121df575b6060915060246040518097819363c3c95c7b60e01b835260048301525afa938415610427575f946121ae575b506040516370a0823160e01b8152306004820152602081602481895afa80156104275783915f91612177575b50611eb191611e9d91611a53565b6002611ea88661196d565b50015490611a66565b90611eba611c29565b604051637d39aaf160e01b60208201527f00000000000000000000000000000000000000000000000000000000000000006001600160a01b0381166024830152620f424060448084019190915282529192611f6691611f1a6064826118b1565b611f2385611ab6565b52611f2d84611ab6565b50604051631cdacd5960e31b60208201526001600160a01b03918216602482015292166044830152606482018490528160848101610367565b611f6f82611ac3565b52611f7981611ac3565b5060208501516040909501516002546001600160a01b039182169660089190911c82169116818103612170576064915b870361216a5760645b604051926101208401958487106001600160401b038811176109c45760409687523085525f6020808701828152878a018e815260608901978852608089019d8e5260a0890194855260ff95861660c08a019081529690951660e08901908152620f42406101008a019081529a51633d93a7af60e11b9381019390935297516001600160a01b039081166024840152905181166044830152935184166064820152945183166084860152995190911660a48401525160c48301525160e4820152905161010482015291516101248084019190915282526120c69491612098610144826118b1565b6120a182611ad3565b526120ab81611ad3565b5060405180958192631592ca1b60e31b835260048301611d37565b0381837f00000000000000000000000000000000000000000000000000000000000000006001600160a01b03165af1928315610427576121326020936002927fcf25af35f355434c1dce4120416a90ead032734765d0e4f0c8771cee2c9116459661214a575b5061196d565b500161213f828254611a84565b9055604051908152a2565b612165903d805f833e61215d81836118b1565b810190611c63565b61212c565b5f611fb2565b5f91611fa9565b9150506020813d6020116121a6575b81612193602093836118b1565b810103126101aa57518290611eb1611e8f565b3d9150612186565b6121d191945060603d6060116121d8575b6121c981836118b1565b810190611bd1565b925f611e63565b503d6121bf565b506020813d60201161220a575b816121f9602093836118b1565b810103126101aa5760609051611e37565b3d91506121ec565b50600261221e8261196d565b500154611de1565b5050565b9080156122265760405163c6c6728960e01b81526001600160a01b038381166004830181905293917f000000000000000000000000000000000000000000000000000000000000000090911690602081602481855afa8015610427575f906125c4575b6060915060246040518094819363c3c95c7b60e01b835260048301525afa9182156104275783915f9361259a575b5060025460405163095ea7b360e01b81526001600160a01b0392831660048201526024810193909352602091839160081c16815f81604481015b03925af180156104275761257d575b5061230d611c29565b604051637d39aaf160e01b60208201527f00000000000000000000000000000000000000000000000000000000000000006001600160a01b0381166024830152620f42406044808401919091528252906123686064826118b1565b61237183611ab6565b5261237b82611ab6565b50600254604051631cdacd5960e31b60208201526001600160a01b0360089290921c8216602482015291166044820152606481018490526123bf8160848101610367565b6123c882611ac3565b526123d281611ac3565b50602082015160409283015192516001600160a01b039182169360e082019392166001600160401b038411828510176109c45760409384523082525f60208084018281528487018a8152606086019889526080860194855260a08601848152620f424060c0880190815298516305272a7760e31b9481019490945295516001600160a01b0390811660248501529151821660448401525181166064830152965187166084820152915190951660a4820152905160c4820152915160e48084019190915282526124d692916124a8610104826118b1565b6124b182611ad3565b526124bb81611ad3565b5060405180938192631592ca1b60e31b835260048301611d37565b0381837f00000000000000000000000000000000000000000000000000000000000000006001600160a01b03165af1801561042757612565575b50815f52600c60205260405f20545f198101908111610651577f472f36e28bb47edb7c69c9e2ac00a77c66b505df54e9c818ac57110b0629e8c391600261255860209361196d565b500161213f82825461199d565b612578903d805f833e61215d81836118b1565b612510565b6125959060203d6020116109565761094981836118b1565b612304565b6020919350916125bb6122f59360603d6060116121d8576121c981836118b1565b939150916122bb565b506020813d6020116125ef575b816125de602093836118b1565b810103126101aa576060905161228d565b3d91506125d1565b600454156127a1575f80600a54905b8181106127a3575b5050156127a1576126236127106105ca6119aa565b5f5b600a5481101561277a5760ff600361263c8361196d565b50015416156127725761271061266260045460016126598561196d565b50015490611a53565b0490600261266f8261196d565b50015491828111156127345760249261268791611a84565b6002546040516370a0823160e01b815230600482015293602091859190829060081c6001600160a01b03165afa8015610427575f90612702575b600193508082116126ef57506126e9906126da8361196d565b50848060a01b0390541661222a565b01612625565b6126fd91506126da8361196d565b6126e9565b506020833d821161272c575b8161271b602093836118b1565b810103126101aa57600192516126c1565b3d915061270e565b826001938210612746575b50506126e9565b61276b9161275391611a84565b61275c8361196d565b50848060a01b03905416611d96565b5f8061273f565b6001906126e9565b507fc741dbaad15a4f298fe8d80943fa8e005e7bcb2f5b0a0c8dec1fc35be457f1465f80a1565b565b60ff60036127b08361196d565b500154166127c057600101612606565b50505060015f8061260e56fe290decd9548b62a8d60345a988386fc84ba6bc95484008f6362f93160ef3e563b10e2d527612073b26eecdfd717e6a320cf44b4afac2b0732d9fcbe2b7fa0cf6a2646970667358221220cd36b444c7ef7a607877197b6c62cdae523349ce7c4206847b82f62749187fe464736f6c634300081a00330000000000000000000000002e505c38656ae7e6b1134f48b0daf6f725a6eaeb0000000000000000000000003654e562a54891a02a1d67966109f746d13e1eca000000000000000000000000f573e0745c3fa02b4a6739446c34c16de49fed520000000000000000000000002e45d737b1d3ca3c6fb4cb82193e0e3d7444e4bd00000000000000000000000031a84300f4c047565719e67f85974bf2995b506000000000000000000000000022156b8e1dc92ef0e91a27ff2d008f3cc0c7fa270000000000000000000000002c53ce7143d24a65410107f50e4aabad9a164480"
        }
      ],
      "isFixedGasLimit": false
    },
    {
      "hash": "0x5c2650f938a3ac63f820628a638ed9d9f41fb3b890d44c6a02b741f3d6d1f4f1",
      "transactionType": "CALL",
      "contractName": null,
      "contractAddress": "0x2be6f52bfe2f81d568b7b736e2faa1a621446e7f",
      "function": "addMarketToVault(address,address,uint256)",
      "arguments": [
        "0x51F277a2C6aa32Ebe0a772820a5399c3c991d182",
        "0x4C51D8A789b0029cF47C2366eEbF6205A09d929B",
        "5000"
      ],
      "transaction": {
        "from": "0x6efb11ac41b6657c32dac5ed4874082c700bba29",
        "to": "0x2be6f52bfe2f81d568b7b736e2faa1a621446e7f",
        "gas": "0x4e6ae",
        "value": "0x0",
        "input": "0x45f6182800000000000000000000000051f277a2c6aa32ebe0a772820a5399c3c991d1820000000000000000000000004c51d8a789b0029cf47c2366eebf6205a09d929b0000000000000000000000000000000000000000000000000000000000001388",
        "nonce": "0x16e",
        "chainId": "0x279f"
      },
      "additionalContracts": [],
      "isFixedGasLimit": false
    },
    {
      "hash": "0x4862f3e7491145d946e537f2eaafdc199b0064d0846d7d0bae77c5e6a9724414",
      "transactionType": "CALL",
      "contractName": null,
      "contractAddress": "0x2be6f52bfe2f81d568b7b736e2faa1a621446e7f",
      "function": "addMarketToVault(address,address,uint256)",
      "arguments": [
        "0x51F277a2C6aa32Ebe0a772820a5399c3c991d182",
        "0x339AE32f85f4A43b8dC0b685DC2d39179653CA01",
        "3000"
      ],
      "transaction": {
        "from": "0x6efb11ac41b6657c32dac5ed4874082c700bba29",
        "to": "0x2be6f52bfe2f81d568b7b736e2faa1a621446e7f",
        "gas": "0x4cecc",
        "value": "0x0",
        "input": "0x45f6182800000000000000000000000051f277a2c6aa32ebe0a772820a5399c3c991d182000000000000000000000000339ae32f85f4a43b8dc0b685dc2d39179653ca010000000000000000000000000000000000000000000000000000000000000bb8",
        "nonce": "0x16f",
        "chainId": "0x279f"
      },
      "additionalContracts": [],
      "isFixedGasLimit": false
    },
    {
      "hash": "0x077f1a79742a0432859d3e97adcd3384e685fc292e6c2636482b517601644825",
      "transactionType": "CALL",
      "contractName": null,
      "contractAddress": "0x2be6f52bfe2f81d568b7b736e2faa1a621446e7f",
      "function": "addMarketToVault(address,address,uint256)",
      "arguments": [
        "0x51F277a2C6aa32Ebe0a772820a5399c3c991d182",
        "0x41B38fcC7Eb3365393D5A2228D14D34c8F841828",
        "2000"
      ],
      "transaction": {
        "from": "0x6efb11ac41b6657c32dac5ed4874082c700bba29",
        "to": "0x2be6f52bfe2f81d568b7b736e2faa1a621446e7f",
        "gas": "0x4cecc",
        "value": "0x0",
        "input": "0x45f6182800000000000000000000000051f277a2c6aa32ebe0a772820a5399c3c991d18200000000000000000000000041b38fcc7eb3365393d5a2228d14d34c8f84182800000000000000000000000000000000000000000000000000000000000007d0",
        "nonce": "0x170",
        "chainId": "0x279f"
      },
      "additionalContracts": [],
      "isFixedGasLimit": false
    },
    {
      "hash": "0x634ef0d3a1cbbc720f8f35db8a15af52dd157ed4982035cb42b1cebeab30a5c6",
      "transactionType": "CALL",
      "contractName": null,
      "contractAddress": "0xef4a9fe522993a5cc66ce63356d1a6c128f2986f",
      "function": "deployCuratorContract(string,string,uint256)",
      "arguments": [
        "Curator Three",
        "ipfs://curator3",
        "500"
      ],
      "transaction": {
        "from": "0x77c037fbf42e85db1487b390b08f58c00f438812",
        "to": "0xef4a9fe522993a5cc66ce63356d1a6c128f2986f",
        "gas": "0x5030b",
        "value": "0x0",
        "input": "0x8fb241fb000000000000000000000000000000000000000000000000000000000000006000000000000000000000000000000000000000000000000000000000000000a000000000000000000000000000000000000000000000000000000000000001f4000000000000000000000000000000000000000000000000000000000000000d43757261746f7220546872656500000000000000000000000000000000000000000000000000000000000000000000000000000000000000000000000000000f697066733a2f2f63757261746f72330000000000000000000000000000000000",
        "nonce": "0x19c",
        "chainId": "0x279f"
      },
      "additionalContracts": [
        {
          "transactionType": "CREATE",
          "address": "0xfaa8f6f2e587a540e94a47724bdc357ecd49705d",
          "initCode": "0x3d602d80600a3d3981f3363d3d373d3d3d363d73818e5f3dc0befac4e1e5152a83d564c231902b355af43d82803e903d91602b57fd5bf3"
        }
      ],
      "isFixedGasLimit": false
    },
    {
      "hash": "0xb40ec751fe53d15799faf492e675ab88a8a137a70f6fa8b1b3ac450446efbaa1",
      "transactionType": "CALL",
      "contractName": null,
      "contractAddress": "0xe3524d92b54d89b980ea01cb842047e18d2de6fc",
      "function": "createVault(address,address,string,string,address,address)",
      "arguments": [
        "0xfaa8f6f2e587A540e94a47724bDC357ecd49705D",
        "0x58389610A3D13e8f380ee2bA077A6F36f2A90834",
        "Mixed Portfolio",
        "vMIX",
        "0x22156b8e1dC92Ef0e91A27Ff2D008f3cC0c7fA27",
        "0x2c53Ce7143D24A65410107F50e4AABad9A164480"
      ],
      "transaction": {
        "from": "0x77c037fbf42e85db1487b390b08f58c00f438812",
        "to": "0xe3524d92b54d89b980ea01cb842047e18d2de6fc",
        "gas": "0x334c06",
        "value": "0x0",
        "input": "0xd41329b3000000000000000000000000faa8f6f2e587a540e94a47724bdc357ecd49705d00000000000000000000000058389610a3d13e8f380ee2ba077a6f36f2a9083400000000000000000000000000000000000000000000000000000000000000c0000000000000000000000000000000000000000000000000000000000000010000000000000000000000000022156b8e1dc92ef0e91a27ff2d008f3cc0c7fa270000000000000000000000002c53ce7143d24a65410107f50e4aabad9a164480000000000000000000000000000000000000000000000000000000000000000f4d6978656420506f7274666f6c696f00000000000000000000000000000000000000000000000000000000000000000000000000000000000000000000000004764d495800000000000000000000000000000000000000000000000000000000",
        "nonce": "0x19d",
        "chainId": "0x279f"
      },
      "additionalContracts": [
        {
          "transactionType": "CREATE",
          "address": "0x812311d7bc2d2c788269cd5acc50e29e64694c91",
          "initCode": "0x61016080604052346101925760e081612a37803803809161002082856101a9565b8339810103126101925760208160446100395f946101e0565b6100448484016101e0565b92610051604082016101e0565b9061005e606082016101e0565b61006a608083016101e0565b9261008360c061007c60a086016101e0565b94016101e0565b608086905260a09790975260c05260e052610120526101005261014083905260405163095ea7b360e01b81526001600160a01b039182166004820152851960248201529485938492165af1801561019e57610162575b60405161284290816101f5823960805181818161017b015281816108a001528181611355015281816120cb01526124db015260a051818181610bc001528181611df70152612254015260c05181610aad015260e05181818161025d015261231f0152610100518181816102a10152611ecc01526101205181611815015261014051816116cd0152f35b6020813d602011610196575b8161017b602093836101a9565b81010312610192575180151503610192575f6100d9565b5f80fd5b3d915061016e565b6040513d5f823e3d90fd5b601f909101601f19168101906001600160401b038211908210176101cc57604052565b634e487b7160e01b5f52604160045260245ffd5b51906001600160a01b03821682036101925756fe6080806040526004361015610012575f80fd5b5f3560e01c90816301e1d114146118445750806306ae70951461180057806306fdde03146117715780630cf85bcc146116fc578063126846ec146116b85780631488ca0814611662578063158ef93e1461164057806315d3b5d814611626578063174009a4146115ee5780632016a0d2146111a15780632e1a7d4d14610e09578063313ce56714610de957806338d52e0f14610dbd5780633a98ef3914610da057806341826c2d14610bef578063660d0d6714610bab57806395d89b4114610adc5780639c8b2cfb14610a98578063a5f879ca146106aa578063a85a9f1a146104e7578063b1283e7714610485578063b6b55f25146102ed578063b996de67146102d0578063d0d0ed051461028c578063d7cd394914610248578063de35f5cb1461022b578063de6c3f731461020e578063e66f53b7146101e6578063f656ba51146101ae5763f887ea4014610166575f80fd5b346101aa575f3660031901126101aa576040517f00000000000000000000000000000000000000000000000000000000000000006001600160a01b03168152602090f35b5f80fd5b346101aa5760203660031901126101aa576001600160a01b036101cf6118f6565b165f526007602052602060405f2054604051908152f35b346101aa575f3660031901126101aa576003546040516001600160a01b039091168152602090f35b346101aa575f3660031901126101aa576020600954604051908152f35b346101aa575f3660031901126101aa576020600d54604051908152f35b346101aa575f3660031901126101aa576040517f00000000000000000000000000000000000000000000000000000000000000006001600160a01b03168152602090f35b346101aa575f3660031901126101aa576040517f00000000000000000000000000000000000000000000000000000000000000006001600160a01b03168152602090f35b346101aa575f3660031901126101aa576020600854604051908152f35b346101aa5760203660031901126101aa5760043561030f60ff60065416611a15565b801561044d57600554806104325750805b6002546040516323b872dd60e01b60208281019182523360248401523060448401526064830186905260089390931c6001600160a01b03169492915f919061037581608481015b03601f1981018352826118b1565b519082875af115610427575f513d61041e5750823b155b61040b57602092506103a08160045461199d565b6004556103af8260055461199d565b600555335f526007835260405f206103c883825461199d565b905560405190815281838201527f90890809c654f11d6e72a28fa60149770a0d11ec6c92319d6ceb2bb0a4ea1a1560403392a26104036125f7565b604051908152f35b82635274afe760e01b5f5260045260245ffd5b6001141561038c565b6040513d5f823e3d90fd5b61043f6104489183611a53565b60045490611a66565b610320565b60405162461bcd60e51b815260206004820152601060248201526f043616e6e6f74206465706f73697420360841b6044820152606490fd5b346101aa5760203660031901126101aa57600435600a548110156101aa576104ae60809161196d565b5060018060a01b038154169060018101549060ff6003600283015492015416916040519384526020840152604083015215156060820152f35b346101aa5760603660031901126101aa576105006118f6565b60243590604435801515918282036101aa5761052760018060a01b03600354163314611af7565b61053560ff60065416611a15565b6127108411610665576001600160a01b03165f818152600c6020526040902054909390610563811515611b32565b5f198101908111610651577fe8e3c5374d4bcf968f769c7c2e8c27941d0a98475cd4bf5e0a83a56da453c60f936105f88460036105e5856105d16127106105ca8a6105c560016105b56106379d61196d565b5001546105c06119aa565b611a84565b61199d565b1115611b71565b8760016105dd8361196d565b50015561196d565b50019060ff801983541691151516179055565b60016040519161060783611896565b84835260208301908152875f52600b60205260405f209251835551151591019060ff801983541691151516179055565b604080519182529115156020820152a261064f6125f7565b005b634e487b7160e01b5f52601160045260245ffd5b60405162461bcd60e51b815260206004820152601760248201527f50657263656e74616765206578636565647320313030250000000000000000006044820152606490fd5b346101aa5760403660031901126101aa576106c36118f6565b602435906106dc60018060a01b03600354163314611af7565b6001600160a01b038116918215610a5a576127108111610a1557825f52600c60205260405f20546109d857604051608081018181106001600160401b038211176109c457604052838152602081019082825260408101905f82526060810160018152600a54680100000000000000008110156109c4578060016107629201600a5561196d565b9390936109b1576107b29460039360018060a01b039051166bffffffffffffffffffffffff60a01b86541617855551600185015551600284015551151591019060ff801983541691151516179055565b600a54835f52600c60205260405f20556108036040516107d181611896565b828152600160208201818152865f52600b60205260405f209251835551151591019060ff801983541691151516179055565b6002546040516370a0823160e01b815230600482015260089190911c6001600160a01b03169190602081602481865afa80156104275782915f9161097a575b506127109161085091611a53565b60405163095ea7b360e01b81526001600160a01b03861660048201529190046024820181905292602090829060449082905f905af180156104275761095d575b5060405163095ea7b360e01b81527f00000000000000000000000000000000000000000000000000000000000000006001600160a01b031660048201525f196024820152926020846044815f895af1928315610427577fa64754291535175942be6f35fba8deab36d97ea608b17d06cc5efb985e17215f94602094610932575b5080610922575b5050604051908152a2005b61092b9161222a565b8480610917565b61095190853d8711610956575b61094981836118b1565b8101906119fd565b610910565b503d61093f565b6109759060203d6020116109565761094981836118b1565b610890565b9150506020813d6020116109a9575b81610996602093836118b1565b810103126101aa57518190612710610842565b3d9150610989565b634e487b7160e01b5f525f60045260245ffd5b634e487b7160e01b5f52604160045260245ffd5b60405162461bcd60e51b81526020600482015260156024820152744d61726b657420616c72656164792065786973747360581b6044820152606490fd5b60405162461bcd60e51b815260206004820152601d60248201527f496e76616c696420616c6c6f636174696f6e2070657263656e746167650000006044820152606490fd5b60405162461bcd60e51b8152602060048201526016602482015275496e76616c6964206d61726b6574206164647265737360501b6044820152606490fd5b346101aa575f3660031901126101aa576040517f00000000000000000000000000000000000000000000000000000000000000006001600160a01b03168152602090f35b346101aa575f3660031901126101aa576040515f600154610afc8161185e565b8084529060018116908115610b875750600114610b3c575b610b3883610b24818503826118b1565b6040519182916020835260208301906118d2565b0390f35b60015f9081525f805160206127ed833981519152939250905b808210610b6d57509091508101602001610b24610b14565b919260018160209254838588010152019101909291610b55565b60ff191660208086019190915291151560051b84019091019150610b249050610b14565b346101aa575f3660031901126101aa576040517f00000000000000000000000000000000000000000000000000000000000000006001600160a01b03168152602090f35b346101aa575f3660031901126101aa575f80600a54905b818110610d6e5750610c1782611a9f565b90610c2560405192836118b1565b828252610c3183611a9f565b6020830190601f1901368237610c5f610c4985611a9f565b94610c5760405196876118b1565b808652611a9f565b602085019290601f19013684375f805b828110610cfb57505050604051938493604085019060408652518091526060850192905f5b818110610cd9575050506020908483038286015251918281520191905f5b818110610cc0575050500390f35b8251845285945060209384019390920191600101610cb2565b82516001600160a01b0316855287965060209485019490920191600101610c94565b60ff6003610d0d83999697989961196d565b50015416610d23575b6001019594939295610c6f565b90610d66600191610d338461196d565b50838060a01b03905416610d47828b611ae3565b526002610d538561196d565b500154610d608288611ae3565b52611a91565b919050610d16565b60ff6003610d7b8361196d565b50015416610d8c575b600101610c06565b91610d98600191611a91565b929050610d84565b346101aa575f3660031901126101aa576020600554604051908152f35b346101aa575f3660031901126101aa5760025460405160089190911c6001600160a01b03168152602090f35b346101aa575f3660031901126101aa57602060ff60025416604051908152f35b346101aa5760203660031901126101aa57600435610e2b60ff60065416611a15565b801561116857335f52600760205260405f2054811161112d57610e5c610e5360045483611a53565b60055490611a66565b6002546040516370a0823160e01b8152306004820152906020908290602490829060081c6001600160a01b03165afa908115610427575f916110fb575b50818110610f79575b50610eaf82600554611a84565b600555610ebe81600454611a84565b600455335f52600760205260405f20610ed8838254611a84565b905560025460405163a9059cbb60e01b8152336004820152602481018390529290602090849060081c6001600160a01b0316815f816044810103925af192831561042757602093610f5e575b5060405190828252838201527ff279e6a1f5e320cca91135676d9cb6e44ca8a08c0b88342bcdb1144f6511b56860403392a2604051908152f35b610f7490843d86116109565761094981836118b1565b610f24565b610f839082611a84565b5f905b600a548210806110f2575b156110195760ff6003610fa38461196d565b50015416158015611004575b610ffa57610fee610ff4916002610fc58561196d565b5001548082108183180218906105c082610fde8761196d565b50546001600160a01b0316611d96565b91611a91565b90610f86565b90610ff490611a91565b5060026110108361196d565b50015415610faf565b50506002546040516370a0823160e01b8152306004820152906020908290602490829060081c6001600160a01b03165afa80156104275782915f916110bd575b50106110655782610ea2565b60405162461bcd60e51b815260206004820152602a60248201527f496e73756666696369656e74206c6971756964697479206166746572206465616044820152696c6c6f636174696f6e7360b01b6064820152608490fd5b9150506020813d6020116110ea575b816110d9602093836118b1565b810103126101aa5781905184611059565b3d91506110cc565b50801515610f91565b90506020813d602011611125575b81611116602093836118b1565b810103126101aa575183610e99565b3d9150611109565b60405162461bcd60e51b8152602060048201526013602482015272496e73756666696369656e742073686172657360681b6044820152606490fd5b60405162461bcd60e51b8152602060048201526011602482015270043616e6e6f74207769746864726177203607c1b6044820152606490fd5b346101aa5760803660031901126101aa576111ba6118f6565b602435906001600160a01b0382168083036101aa576044356001600160401b0381116101aa576111ee903690600401611927565b926064356001600160401b0381116101aa5761120e903690600401611927565b9260ff600654166115b357600380546001600160a01b0319166001600160a01b039290921691909117905560028054610100600160a81b03191660089290921b610100600160a81b031691909117905582516001600160401b0381116109c4576112785f5461185e565b601f811161154c575b506020601f82116001146114e057819293945f926114d5575b50508160011b915f199060031b1c1916175f555b81516001600160401b0381116109c4576112c960015461185e565b601f811161146d575b50602092601f821160011461140157928192935f926113f6575b50508160011b915f199060031b1c1916176001555b60405163313ce56760e01b8152602081600481855afa908115610427575f916113ba575b505f9160ff6020921660ff19600254161760025560446040518094819363095ea7b360e01b835260018060a01b037f0000000000000000000000000000000000000000000000000000000000000000166004840152811960248401525af180156104275761139d575b6006805460ff19166001179055005b6113b59060203d6020116109565761094981836118b1565b61138e565b90506020813d6020116113ee575b816113d5602093836118b1565b810103126101aa575160ff811681036101aa575f611325565b3d91506113c8565b0151905083806112ec565b601f1982169360015f525f805160206127ed833981519152915f5b868110611455575083600195961061143d575b505050811b01600155611301565b01515f1960f88460031b161c1916905583808061142f565b9192602060018192868501518155019401920161141c565b60015f52601f820160051c5f805160206127ed8339815191520190602083106114c0575b601f0160051c5f805160206127ed83398151915201905b8181106114b557506112d2565b5f81556001016114a8565b5f805160206127ed8339815191529150611491565b01519050848061129a565b601f198216905f80525f805160206127cd833981519152915f5b8181106115345750958360019596971061151c575b505050811b015f556112ae565b01515f1960f88460031b161c1916905584808061150f565b9192602060018192868b0151815501940192016114fa565b5f8052601f820160051c5f805160206127cd83398151915201906020831061159e575b601f0160051c5f805160206127cd83398151915201905b8181106115935750611281565b5f8155600101611586565b5f805160206127cd833981519152915061156f565b60405162461bcd60e51b8152602060048201526013602482015272105b1c9958591e481a5b9a5d1a585b1a5e9959606a1b6044820152606490fd5b346101aa5760203660031901126101aa576001600160a01b0361160f6118f6565b165f52600c602052602060405f2054604051908152f35b346101aa575f3660031901126101aa5760206104036119aa565b346101aa575f3660031901126101aa57602060ff600654166040519015158152f35b346101aa5760203660031901126101aa576001600160a01b036116836118f6565b165f52600b60205260405f2060ff600182549201541690610b3860405192839283909291602090604083019483521515910152565b346101aa575f3660031901126101aa576040517f00000000000000000000000000000000000000000000000000000000000000006001600160a01b03168152602090f35b346101aa5760203660031901126101aa576117156118f6565b5f602060405161172481611896565b82815201526001600160a01b03165f908152600b602052604090819020815161174c81611896565b602060ff60018454948585520154169101901515815282519182525115156020820152f35b346101aa575f3660031901126101aa576040515f80546117908161185e565b8084529060018116908115610b8757506001146117b757610b3883610b24818503826118b1565b5f8080525f805160206127cd833981519152939250905b8082106117e657509091508101602001610b24610b14565b9192600181602092548385880101520191019092916117ce565b346101aa575f3660031901126101aa576040517f00000000000000000000000000000000000000000000000000000000000000006001600160a01b03168152602090f35b346101aa575f3660031901126101aa576020906004548152f35b90600182811c9216801561188c575b602083101461187857565b634e487b7160e01b5f52602260045260245ffd5b91607f169161186d565b604081019081106001600160401b038211176109c457604052565b90601f801991011681019081106001600160401b038211176109c457604052565b805180835260209291819084018484015e5f828201840152601f01601f1916010190565b600435906001600160a01b03821682036101aa57565b6001600160401b0381116109c457601f01601f191660200190565b81601f820112156101aa5780359061193e8261190c565b9261194c60405194856118b1565b828452602083830101116101aa57815f926020809301838601378301015290565b600a5481101561198957600a5f5260205f209060021b01905f90565b634e487b7160e01b5f52603260045260245ffd5b9190820180921161065157565b5f80600a54905b8181106119bd57505090565b60ff60036119ca8361196d565b500154166119db575b6001016119b1565b916119f5600191826119ec8661196d565b5001549061199d565b9290506119d3565b908160209103126101aa575180151581036101aa5790565b15611a1c57565b60405162461bcd60e51b815260206004820152600f60248201526e139bdd081a5b9a5d1a585b1a5e9959608a1b6044820152606490fd5b8181029291811591840414171561065157565b8115611a70570490565b634e487b7160e01b5f52601260045260245ffd5b9190820391821161065157565b5f1981146106515760010190565b6001600160401b0381116109c45760051b60200190565b8051156119895760200190565b8051600110156119895760400190565b8051600210156119895760600190565b80518210156119895760209160051b010190565b15611afe57565b60405162461bcd60e51b815260206004820152600c60248201526b27b7363c9031bab930ba37b960a11b6044820152606490fd5b15611b3957565b60405162461bcd60e51b815260206004820152601060248201526f13585c9ad95d081b9bdd08199bdd5b9960821b6044820152606490fd5b15611b7857565b60405162461bcd60e51b815260206004820152601d60248201527f546f74616c20616c6c6f636174696f6e206578636565647320313030250000006044820152606490fd5b51906001600160a01b03821682036101aa57565b908160609103126101aa5760405190606082018281106001600160401b038211176109c457611c21916040918252611c0881611bbd565b8452611c1660208201611bbd565b602085015201611bbd565b604082015290565b60405160809190611c3a83826118b1565b6003815291601f1901825f5b828110611c5257505050565b806060602080938501015201611c46565b6020818303126101aa578051906001600160401b0382116101aa57019080601f830112156101aa57815191611c9783611a9f565b92611ca560405194856118b1565b80845260208085019160051b830101918383116101aa5760208101915b838310611cd157505050505090565b82516001600160401b0381116101aa57820185603f820112156101aa57602081015191611cfd8361190c565b611d0a60405191826118b1565b83815260408385010188106101aa575f602085819660408397018386015e83010152815201920191611cc2565b602081016020825282518091526040820191602060408360051b8301019401925f915b838310611d6957505050505090565b9091929394602080611d87600193603f1986820301875289516118d2565b97019301930191939290611d5a565b8115612226576001600160a01b0381165f818152600c60205260409020549092611dc1821515611b32565b5f198201918211610651576002611dd78361196d565b5001548111612212575b60405163c6c6728960e01b8152600481018590527f00000000000000000000000000000000000000000000000000000000000000006001600160a01b03169390602081602481885afa8015610427575f906121df575b6060915060246040518097819363c3c95c7b60e01b835260048301525afa938415610427575f946121ae575b506040516370a0823160e01b8152306004820152602081602481895afa80156104275783915f91612177575b50611eb191611e9d91611a53565b6002611ea88661196d565b50015490611a66565b90611eba611c29565b604051637d39aaf160e01b60208201527f00000000000000000000000000000000000000000000000000000000000000006001600160a01b0381166024830152620f424060448084019190915282529192611f6691611f1a6064826118b1565b611f2385611ab6565b52611f2d84611ab6565b50604051631cdacd5960e31b60208201526001600160a01b03918216602482015292166044830152606482018490528160848101610367565b611f6f82611ac3565b52611f7981611ac3565b5060208501516040909501516002546001600160a01b039182169660089190911c82169116818103612170576064915b870361216a5760645b604051926101208401958487106001600160401b038811176109c45760409687523085525f6020808701828152878a018e815260608901978852608089019d8e5260a0890194855260ff95861660c08a019081529690951660e08901908152620f42406101008a019081529a51633d93a7af60e11b9381019390935297516001600160a01b039081166024840152905181166044830152935184166064820152945183166084860152995190911660a48401525160c48301525160e4820152905161010482015291516101248084019190915282526120c69491612098610144826118b1565b6120a182611ad3565b526120ab81611ad3565b5060405180958192631592ca1b60e31b835260048301611d37565b0381837f00000000000000000000000000000000000000000000000000000000000000006001600160a01b03165af1928315610427576121326020936002927fcf25af35f355434c1dce4120416a90ead032734765d0e4f0c8771cee2c9116459661214a575b5061196d565b500161213f828254611a84565b9055604051908152a2565b612165903d805f833e61215d81836118b1565b810190611c63565b61212c565b5f611fb2565b5f91611fa9565b9150506020813d6020116121a6575b81612193602093836118b1565b810103126101aa57518290611eb1611e8f565b3d9150612186565b6121d191945060603d6060116121d8575b6121c981836118b1565b810190611bd1565b925f611e63565b503d6121bf565b506020813d60201161220a575b816121f9602093836118b1565b810103126101aa5760609051611e37565b3d91506121ec565b50600261221e8261196d565b500154611de1565b5050565b9080156122265760405163c6c6728960e01b81526001600160a01b038381166004830181905293917f000000000000000000000000000000000000000000000000000000000000000090911690602081602481855afa8015610427575f906125c4575b6060915060246040518094819363c3c95c7b60e01b835260048301525afa9182156104275783915f9361259a575b5060025460405163095ea7b360e01b81526001600160a01b0392831660048201526024810193909352602091839160081c16815f81604481015b03925af180156104275761257d575b5061230d611c29565b604051637d39aaf160e01b60208201527f00000000000000000000000000000000000000000000000000000000000000006001600160a01b0381166024830152620f42406044808401919091528252906123686064826118b1565b61237183611ab6565b5261237b82611ab6565b50600254604051631cdacd5960e31b60208201526001600160a01b0360089290921c8216602482015291166044820152606481018490526123bf8160848101610367565b6123c882611ac3565b526123d281611ac3565b50602082015160409283015192516001600160a01b039182169360e082019392166001600160401b038411828510176109c45760409384523082525f60208084018281528487018a8152606086019889526080860194855260a08601848152620f424060c0880190815298516305272a7760e31b9481019490945295516001600160a01b0390811660248501529151821660448401525181166064830152965187166084820152915190951660a4820152905160c4820152915160e48084019190915282526124d692916124a8610104826118b1565b6124b182611ad3565b526124bb81611ad3565b5060405180938192631592ca1b60e31b835260048301611d37565b0381837f00000000000000000000000000000000000000000000000000000000000000006001600160a01b03165af1801561042757612565575b50815f52600c60205260405f20545f198101908111610651577f472f36e28bb47edb7c69c9e2ac00a77c66b505df54e9c818ac57110b0629e8c391600261255860209361196d565b500161213f82825461199d565b612578903d805f833e61215d81836118b1565b612510565b6125959060203d6020116109565761094981836118b1565b612304565b6020919350916125bb6122f59360603d6060116121d8576121c981836118b1565b939150916122bb565b506020813d6020116125ef575b816125de602093836118b1565b810103126101aa576060905161228d565b3d91506125d1565b600454156127a1575f80600a54905b8181106127a3575b5050156127a1576126236127106105ca6119aa565b5f5b600a5481101561277a5760ff600361263c8361196d565b50015416156127725761271061266260045460016126598561196d565b50015490611a53565b0490600261266f8261196d565b50015491828111156127345760249261268791611a84565b6002546040516370a0823160e01b815230600482015293602091859190829060081c6001600160a01b03165afa8015610427575f90612702575b600193508082116126ef57506126e9906126da8361196d565b50848060a01b0390541661222a565b01612625565b6126fd91506126da8361196d565b6126e9565b506020833d821161272c575b8161271b602093836118b1565b810103126101aa57600192516126c1565b3d915061270e565b826001938210612746575b50506126e9565b61276b9161275391611a84565b61275c8361196d565b50848060a01b03905416611d96565b5f8061273f565b6001906126e9565b507fc741dbaad15a4f298fe8d80943fa8e005e7bcb2f5b0a0c8dec1fc35be457f1465f80a1565b565b60ff60036127b08361196d565b500154166127c057600101612606565b50505060015f8061260e56fe290decd9548b62a8d60345a988386fc84ba6bc95484008f6362f93160ef3e563b10e2d527612073b26eecdfd717e6a320cf44b4afac2b0732d9fcbe2b7fa0cf6a2646970667358221220cd36b444c7ef7a607877197b6c62cdae523349ce7c4206847b82f62749187fe464736f6c634300081a00330000000000000000000000002e505c38656ae7e6b1134f48b0daf6f725a6eaeb0000000000000000000000003654e562a54891a02a1d67966109f746d13e1eca000000000000000000000000f573e0745c3fa02b4a6739446c34c16de49fed520000000000000000000000002e45d737b1d3ca3c6fb4cb82193e0e3d7444e4bd00000000000000000000000031a84300f4c047565719e67f85974bf2995b506000000000000000000000000022156b8e1dc92ef0e91a27ff2d008f3cc0c7fa270000000000000000000000002c53ce7143d24a65410107f50e4aabad9a164480"
        }
      ],
      "isFixedGasLimit": false
    },
    {
      "hash": "0x6dfb196d6d49ba83b6e9a6cca39d2095e95dabbb9908c020db10c81a93cc8f5f",
      "transactionType": "CALL",
      "contractName": null,
      "contractAddress": "0xfaa8f6f2e587a540e94a47724bdc357ecd49705d",
      "function": "addMarketToVault(address,address,uint256)",
      "arguments": [
        "0x812311D7bC2D2c788269cD5Acc50E29E64694C91",
        "0x4C51D8A789b0029cF47C2366eEbF6205A09d929B",
        "4000"
      ],
      "transaction": {
        "from": "0x77c037fbf42e85db1487b390b08f58c00f438812",
        "to": "0xfaa8f6f2e587a540e94a47724bdc357ecd49705d",
        "gas": "0x4e6ae",
        "value": "0x0",
        "input": "0x45f61828000000000000000000000000812311d7bc2d2c788269cd5acc50e29e64694c910000000000000000000000004c51d8a789b0029cf47c2366eebf6205a09d929b0000000000000000000000000000000000000000000000000000000000000fa0",
        "nonce": "0x19e",
        "chainId": "0x279f"
      },
      "additionalContracts": [],
      "isFixedGasLimit": false
    },
    {
      "hash": "0x21d1772548a08db462ea6792caa5034d7f4d1fc512307363223d54c6e77a3ddb",
      "transactionType": "CALL",
      "contractName": null,
      "contractAddress": "0xfaa8f6f2e587a540e94a47724bdc357ecd49705d",
      "function": "addMarketToVault(address,address,uint256)",
      "arguments": [
        "0x812311D7bC2D2c788269cD5Acc50E29E64694C91",
        "0x339AE32f85f4A43b8dC0b685DC2d39179653CA01",
        "2000"
      ],
      "transaction": {
        "from": "0x77c037fbf42e85db1487b390b08f58c00f438812",
        "to": "0xfaa8f6f2e587a540e94a47724bdc357ecd49705d",
        "gas": "0x4cecc",
        "value": "0x0",
        "input": "0x45f61828000000000000000000000000812311d7bc2d2c788269cd5acc50e29e64694c91000000000000000000000000339ae32f85f4a43b8dc0b685dc2d39179653ca0100000000000000000000000000000000000000000000000000000000000007d0",
        "nonce": "0x19f",
        "chainId": "0x279f"
      },
      "additionalContracts": [],
      "isFixedGasLimit": false
    },
    {
      "hash": "0x5638d014d47e6281dcd15a26771eff83e85c1e7fbca7bee68b2581ad8c79769d",
      "transactionType": "CALL",
      "contractName": null,
      "contractAddress": "0xfaa8f6f2e587a540e94a47724bdc357ecd49705d",
      "function": "addMarketToVault(address,address,uint256)",
      "arguments": [
        "0x812311D7bC2D2c788269cD5Acc50E29E64694C91",
        "0x99BD3fF38F0dc9A819A0442F1D5DDBCd60072ECe",
        "2000"
      ],
      "transaction": {
        "from": "0x77c037fbf42e85db1487b390b08f58c00f438812",
        "to": "0xfaa8f6f2e587a540e94a47724bdc357ecd49705d",
        "gas": "0x4cecc",
        "value": "0x0",
        "input": "0x45f61828000000000000000000000000812311d7bc2d2c788269cd5acc50e29e64694c9100000000000000000000000099bd3ff38f0dc9a819a0442f1d5ddbcd60072ece00000000000000000000000000000000000000000000000000000000000007d0",
        "nonce": "0x1a0",
        "chainId": "0x279f"
      },
      "additionalContracts": [],
      "isFixedGasLimit": false
    },
    {
      "hash": "0x54b02fb6ca2bba3f347473a75e4df74f437cfa4d719c282508ad97f72368a08c",
      "transactionType": "CALL",
      "contractName": null,
      "contractAddress": "0xfaa8f6f2e587a540e94a47724bdc357ecd49705d",
      "function": "addMarketToVault(address,address,uint256)",
      "arguments": [
        "0x812311D7bC2D2c788269cD5Acc50E29E64694C91",
        "0x1664f516FbE65Dd0089152C93F724B8810881fDC",
        "2000"
      ],
      "transaction": {
        "from": "0x77c037fbf42e85db1487b390b08f58c00f438812",
        "to": "0xfaa8f6f2e587a540e94a47724bdc357ecd49705d",
        "gas": "0x4cecc",
        "value": "0x0",
        "input": "0x45f61828000000000000000000000000812311d7bc2d2c788269cd5acc50e29e64694c910000000000000000000000001664f516fbe65dd0089152c93f724b8810881fdc00000000000000000000000000000000000000000000000000000000000007d0",
        "nonce": "0x1a1",
        "chainId": "0x279f"
      },
      "additionalContracts": [],
      "isFixedGasLimit": false
    }
  ],
  "receipts": [
    {
      "status": "0x1",
      "cumulativeGasUsed": "0x2f0189",
      "logs": [
        {
          "address": "0xc5479717f1983a136b541f7fd5ce1925b8806d3b",
          "topics": [
            "0x8be0079c531659141344cd1fd0a4f28419497f9722a3daafe3b4186f6b6457e0",
            "0x0000000000000000000000000000000000000000000000000000000000000000",
            "0x0000000000000000000000006efb11ac41b6657c32dac5ed4874082c700bba29"
          ],
          "data": "0x",
          "blockHash": "0xb2177c79d1d45370bb5effba4903c8a1a02f161eb4e6c4a82d273bde4c87fceb",
          "blockNumber": "0x728e53",
          "blockTimestamp": "0x67d21d0d",
          "transactionHash": "0x0c9a050c632ea633391aff60dd8de08d50b5580a4ebf4585ccff0d3732a20388",
          "transactionIndex": "0x15",
          "logIndex": "0x25",
          "removed": false
        }
      ],
      "logsBloom": "0x000000000000000002000000000000000000000000000000008000000000000000000000000000000000000000000000000000000001000000000000000000000000000000000000000000000000000000010000000000000000000000000000000000000a0000000000000000000802000000000000000000000000000000400000000000000000000000000000000000000000000000000000000000000000000000000000000000000000000000000000000000000000000011000000000000000000000000000000000000000000000000000000000000000000000020000000000000000000000000000000000000000000000000000000000000000000",
      "type": "0x0",
      "transactionHash": "0x0c9a050c632ea633391aff60dd8de08d50b5580a4ebf4585ccff0d3732a20388",
      "transactionIndex": "0x15",
      "blockHash": "0xb2177c79d1d45370bb5effba4903c8a1a02f161eb4e6c4a82d273bde4c87fceb",
      "blockNumber": "0x728e53",
      "gasUsed": "0x105e31",
      "effectiveGasPrice": "0xc1b710800",
      "from": "0x6efb11ac41b6657c32dac5ed4874082c700bba29",
      "to": null,
      "contractAddress": "0xc5479717f1983a136b541f7fd5ce1925b8806d3b"
    },
    {
      "status": "0x1",
      "cumulativeGasUsed": "0x4a056c",
      "logs": [
        {
          "address": "0x2c53ce7143d24a65410107f50e4aabad9a164480",
          "topics": [
            "0x8c5be1e5ebec7d5bd14f71427d1e84f3dd0314c0f7b2291e5b200ac8c7c3b925",
            "0x0000000000000000000000001bdc8e84d715f2f40f44e2d097e2541861143695",
            "0x0000000000000000000000002e505c38656ae7e6b1134f48b0daf6f725a6eaeb"
          ],
          "data": "0xffffffffffffffffffffffffffffffffffffffffffffffffffffffffffffffff",
          "blockHash": "0xab91df33a826101c224d575f90b2834c5867f724044e21c798c73027f4f1d4fb",
          "blockNumber": "0x728e5c",
          "blockTimestamp": "0x67d21d12",
          "transactionHash": "0x1daddb2e0af71009cb48d0f2bd532f889e4edbf2581254d68e022b61c495b1f2",
          "transactionIndex": "0x10",
          "logIndex": "0x1f",
          "removed": false
        }
      ],
      "logsBloom": "0x00000000000000000000000000000000000000000000000000000000000000000000000000000000000000000000000000001000000000100000000000200000000000000000000000000000000000000000000000000000000000000000000000000000000000000000000080000000000000000000010000000010000000000000000000000000000000000000000000000000000000000000000000000000020000000000000000000000000000000000000000000000000000000000000000000000000000000000000000000000000000010000000000000000000000000010001000000040000000000000000000000000000000000002000000000000",
      "type": "0x0",
      "transactionHash": "0x1daddb2e0af71009cb48d0f2bd532f889e4edbf2581254d68e022b61c495b1f2",
      "transactionIndex": "0x10",
      "blockHash": "0xab91df33a826101c224d575f90b2834c5867f724044e21c798c73027f4f1d4fb",
      "blockNumber": "0x728e5c",
      "gasUsed": "0x2de9fe",
      "effectiveGasPrice": "0xc1b710800",
      "from": "0x6efb11ac41b6657c32dac5ed4874082c700bba29",
      "to": null,
      "contractAddress": "0x1bdc8e84d715f2f40f44e2d097e2541861143695"
    },
    {
      "status": "0x1",
      "cumulativeGasUsed": "0x365c34",
      "logs": [
        {
          "address": "0x75f1d5455405e2c27354bd407fc25bf444167215",
          "topics": [
            "0x3708850f6b514b2340d559340763b829a8c335ebcaf58b067617ae8cf562844f",
            "0x0000000000000000000000006efb11ac41b6657c32dac5ed4874082c700bba29"
          ],
          "data": "0x00000000000000000000000000000000000000000000000000000000000000400000000000000000000000000000000000000000000000000000000000000080000000000000000000000000000000000000000000000000000000000000000e546573742043757261746f722031000000000000000000000000000000000000000000000000000000000000000000000000000000000000000000000000008468747470733a2f2f656e637279707465642d74626e302e677374617469632e636f6d2f696d616765733f713d74626e3a414e6439476351566833696e714b7947476242686f506f366a424d7a475935654967783966434a6a374536664f5258412d30536e67716f694f7367695a3343475762784b715858566d726726757371703d43415500000000000000000000000000000000000000000000000000000000",
          "blockHash": "0x1b7bd1d3f9296e4da92d67baf3d96de31c1767f0c4663ca9bc42f57cc31becb2",
          "blockNumber": "0x728e60",
          "blockTimestamp": "0x67d21d14",
          "transactionHash": "0xa3da872d965ba96bb72b2cdfb21012d6bc0006801505ae30dceedacf9fcbe57e",
          "transactionIndex": "0x18",
          "logIndex": "0x36",
          "removed": false
        }
      ],
      "logsBloom": "0x00000000000000000200000000000000000000000000000000000000000000000000000000000000000000020000000000000000000100000000000000000000000020000000000000000000000000000000000000000000000000000000000000000000000000000000000000000000000000000000000000000000000000000000000000000000000000020000000000000000000000000000000000000000000000000000000000000000000000000000000000000000000001000000080000000000000000000000000000000000000000000000000000000000000000000008000000000000000000000000000000000000000000000000004000000000",
      "type": "0x0",
      "transactionHash": "0xa3da872d965ba96bb72b2cdfb21012d6bc0006801505ae30dceedacf9fcbe57e",
      "transactionIndex": "0x18",
      "blockHash": "0x1b7bd1d3f9296e4da92d67baf3d96de31c1767f0c4663ca9bc42f57cc31becb2",
      "blockNumber": "0x728e60",
      "gasUsed": "0x5d5e5",
      "effectiveGasPrice": "0xc1b710800",
      "from": "0x6efb11ac41b6657c32dac5ed4874082c700bba29",
      "to": "0x75f1d5455405e2c27354bd407fc25bf444167215",
      "contractAddress": null
    },
    {
      "status": "0x1",
      "cumulativeGasUsed": "0x9a11f5",
      "logs": [
        {
          "address": "0x75f1d5455405e2c27354bd407fc25bf444167215",
          "topics": [
            "0x3708850f6b514b2340d559340763b829a8c335ebcaf58b067617ae8cf562844f",
            "0x0000000000000000000000006efb11ac41b6657c32dac5ed4874082c700bba29"
          ],
          "data": "0x00000000000000000000000000000000000000000000000000000000000000400000000000000000000000000000000000000000000000000000000000000080000000000000000000000000000000000000000000000000000000000000000e546573742043757261746f722032000000000000000000000000000000000000000000000000000000000000000000000000000000000000000000000000004668747470733a2f2f7777772e736576656c6c2e636f6d2f77702d636f6e74656e742f75706c6f6164732f323032342f30372f70656c6f746f6e2d6c6f676f2d7265642e706e670000000000000000000000000000000000000000000000000000",
          "blockHash": "0xc9f72e351f6b4bdb01abdf428ef65b6f28ea90c0e2a3c0e1d10c444ee8048df3",
          "blockNumber": "0x728e63",
          "blockTimestamp": "0x67d21d15",
          "transactionHash": "0x46c053fc9d13f56d02f81b3aa909629a1d9938c6175b2cf853617c846c3ab9f6",
          "transactionIndex": "0x1e",
          "logIndex": "0x3e",
          "removed": false
        }
      ],
      "logsBloom": "0x00000000000000000200000000000000000000000000000000000000000000000000000000000000000000020000000000000000000100000000000000000000000020000000000000000000000000000000000000000000000000000000000000000000000000000000000000000000000000000000000000000000000000000000000000000000000000020000000000000000000000000000000000000000000000000000000000000000000000000000000000000000000001000000080000000000000000000000000000000000000000000000000000000000000000000008000000000000000000000000000000000000000000000000004000000000",
      "type": "0x0",
      "transactionHash": "0x46c053fc9d13f56d02f81b3aa909629a1d9938c6175b2cf853617c846c3ab9f6",
      "transactionIndex": "0x1e",
      "blockHash": "0xc9f72e351f6b4bdb01abdf428ef65b6f28ea90c0e2a3c0e1d10c444ee8048df3",
      "blockNumber": "0x728e63",
      "gasUsed": "0x1e141",
      "effectiveGasPrice": "0xc1b710800",
      "from": "0x6efb11ac41b6657c32dac5ed4874082c700bba29",
      "to": "0x75f1d5455405e2c27354bd407fc25bf444167215",
      "contractAddress": null
    },
    {
      "status": "0x1",
      "cumulativeGasUsed": "0x7136dd",
      "logs": [
        {
          "address": "0x75f1d5455405e2c27354bd407fc25bf444167215",
          "topics": [
            "0x3708850f6b514b2340d559340763b829a8c335ebcaf58b067617ae8cf562844f",
            "0x00000000000000000000000077c037fbf42e85db1487b390b08f58c00f438812"
          ],
          "data": "0x00000000000000000000000000000000000000000000000000000000000000400000000000000000000000000000000000000000000000000000000000000080000000000000000000000000000000000000000000000000000000000000000e546573742043757261746f722033000000000000000000000000000000000000000000000000000000000000000000000000000000000000000000000000009f68747470733a2f2f696d616765732d706c6174666f726d2e39397374617469632e636f6d2f2f37776347444343764431334d4f6f72535364626871474e5533716b3d2f32353678323238393a37353678323738392f6669742d696e2f353930783539302f393964657369676e732d636f6e74657374732d6174746163686d656e74732f37302f37303433382f6174746163686d656e745f373034333835343700",
          "blockHash": "0x7b5878d588ab668e574143d7d96ee3275a1eb13f2d8731dc099dfd232ae1358e",
          "blockNumber": "0x728e69",
          "blockTimestamp": "0x67d21d18",
          "transactionHash": "0x92ce8d5360e010292b3b1af8c065573118efc5fc5e0f20b5da348f9f26cf1c09",
          "transactionIndex": "0x13",
          "logIndex": "0x28",
          "removed": false
        }
      ],
      "logsBloom": "0x00000000000000000000000000000000000000000000000000000000000000000000000000000000000000020000000000000000000000000000400000000000000020000000200000000000000000000000000000000000000000000000000000000000000000000000000000000000000000000000000000000000000000000000000000000000000000020000000000000000000000000000000000000000000000000000000000000000000000000000000000000000000000000000080000000000000000000000000000000000000000000000000000000000000000000008000000000000000000000000000000000000000000000000004800000000",
      "type": "0x0",
      "transactionHash": "0x92ce8d5360e010292b3b1af8c065573118efc5fc5e0f20b5da348f9f26cf1c09",
      "transactionIndex": "0x13",
      "blockHash": "0x7b5878d588ab668e574143d7d96ee3275a1eb13f2d8731dc099dfd232ae1358e",
      "blockNumber": "0x728e69",
      "gasUsed": "0x57b62",
      "effectiveGasPrice": "0xc1b710800",
      "from": "0x6efb11ac41b6657c32dac5ed4874082c700bba29",
      "to": "0x75f1d5455405e2c27354bd407fc25bf444167215",
      "contractAddress": null
    },
    {
      "status": "0x1",
      "cumulativeGasUsed": "0x15fc7c8",
      "logs": [
        {
          "address": "0xe627718ebca60b588b7f8bba2603c64110bb6865",
          "topics": [
            "0x8be0079c531659141344cd1fd0a4f28419497f9722a3daafe3b4186f6b6457e0",
            "0x0000000000000000000000000000000000000000000000000000000000000000",
            "0x0000000000000000000000006efb11ac41b6657c32dac5ed4874082c700bba29"
          ],
          "data": "0x",
          "blockHash": "0x0e612d4c63edde6a7c8966eedf7fefeb88499942535e20e81c5fd02fb8770ec7",
          "blockNumber": "0x728e6e",
          "blockTimestamp": "0x67d21d1d",
          "transactionHash": "0x8577c3290ffc55453ba5b7bcadbab03e52162c38eed8d249ecbfa881fd3e1412",
          "transactionIndex": "0x62",
          "logIndex": "0xa1",
          "removed": false
        },
        {
          "address": "0xef4a9fe522993a5cc66ce63356d1a6c128f2986f",
          "topics": [
            "0xcd9b93471f9f84b656abb160527f47ccb4ffea8cc46a8a68e5faeb2177a5cd8f",
            "0x0000000000000000000000006efb11ac41b6657c32dac5ed4874082c700bba29",
            "0x000000000000000000000000e627718ebca60b588b7f8bba2603c64110bb6865"
          ],
          "data": "0x0000000000000000000000000000000000000000000000000000000000000020000000000000000000000000000000000000000000000000000000000000000b43757261746f72204f6e65000000000000000000000000000000000000000000",
          "blockHash": "0x0e612d4c63edde6a7c8966eedf7fefeb88499942535e20e81c5fd02fb8770ec7",
          "blockNumber": "0x728e6e",
          "blockTimestamp": "0x67d21d1d",
          "transactionHash": "0x8577c3290ffc55453ba5b7bcadbab03e52162c38eed8d249ecbfa881fd3e1412",
          "transactionIndex": "0x62",
          "logIndex": "0xa2",
          "removed": false
        }
      ],
      "logsBloom": "0x00020000000000000200000000000000000000000000000000800000000000410000000000000000000000000000000000000000010100000000400000800000000080000000000000000000000000000001000000000000000000000000000000000000020000000000000000000800000000000000000000000000000000400000000000000000000000000000000000000000000000000000000003000200000000004000000000000000000080000000000000000000000001000000000000000000000000000000000000000000000000000000000000000000000020000000000000000000000000000000000000000000000000000000000000000000",
      "type": "0x0",
      "transactionHash": "0x8577c3290ffc55453ba5b7bcadbab03e52162c38eed8d249ecbfa881fd3e1412",
      "transactionIndex": "0x62",
      "blockHash": "0x0e612d4c63edde6a7c8966eedf7fefeb88499942535e20e81c5fd02fb8770ec7",
      "blockNumber": "0x728e6e",
      "gasUsed": "0x502e9",
      "effectiveGasPrice": "0xc1b710800",
      "from": "0x6efb11ac41b6657c32dac5ed4874082c700bba29",
      "to": "0xef4a9fe522993a5cc66ce63356d1a6c128f2986f",
      "contractAddress": null
    },
    {
      "status": "0x1",
      "cumulativeGasUsed": "0xb321f5",
      "logs": [
        {
          "address": "0x2c53ce7143d24a65410107f50e4aabad9a164480",
          "topics": [
            "0x8c5be1e5ebec7d5bd14f71427d1e84f3dd0314c0f7b2291e5b200ac8c7c3b925",
            "0x000000000000000000000000733b9c3dbe882385f0f8c4c71feda894b772b567",
            "0x0000000000000000000000002e505c38656ae7e6b1134f48b0daf6f725a6eaeb"
          ],
          "data": "0xffffffffffffffffffffffffffffffffffffffffffffffffffffffffffffffff",
          "blockHash": "0x61c34e9c0d6395dc5c90196de5a4b3e75fb6f0bbd951f014213993c7c779e4a4",
          "blockNumber": "0x728e74",
          "blockTimestamp": "0x67d21d20",
          "transactionHash": "0x0d4965b4057f02bcd11414cc69583ee31d4c0cce5b7dcb6b74dcf5dd624a7406",
          "transactionIndex": "0x14",
          "logIndex": "0x22",
          "removed": false
        },
        {
          "address": "0x58389610a3d13e8f380ee2ba077a6f36f2a90834",
          "topics": [
            "0x8c5be1e5ebec7d5bd14f71427d1e84f3dd0314c0f7b2291e5b200ac8c7c3b925",
            "0x000000000000000000000000733b9c3dbe882385f0f8c4c71feda894b772b567",
            "0x0000000000000000000000002e505c38656ae7e6b1134f48b0daf6f725a6eaeb"
          ],
          "data": "0xffffffffffffffffffffffffffffffffffffffffffffffffffffffffffffffff",
          "blockHash": "0x61c34e9c0d6395dc5c90196de5a4b3e75fb6f0bbd951f014213993c7c779e4a4",
          "blockNumber": "0x728e74",
          "blockTimestamp": "0x67d21d20",
          "transactionHash": "0x0d4965b4057f02bcd11414cc69583ee31d4c0cce5b7dcb6b74dcf5dd624a7406",
          "transactionIndex": "0x14",
          "logIndex": "0x23",
          "removed": false
        },
        {
          "address": "0xe3524d92b54d89b980ea01cb842047e18d2de6fc",
          "topics": [
            "0x663b82ac98018fd9ebc6237c60a8e64fcb638bdc8947d37507228931924d8f73",
            "0x000000000000000000000000e627718ebca60b588b7f8bba2603c64110bb6865",
            "0x000000000000000000000000733b9c3dbe882385f0f8c4c71feda894b772b567",
            "0x00000000000000000000000058389610a3d13e8f380ee2ba077a6f36f2a90834"
          ],
          "data": "0x00000000000000000000000000000000000000000000000000000000000000200000000000000000000000000000000000000000000000000000000000000013426c7565204368697020506f7274666f6c696f00000000000000000000000000",
          "blockHash": "0x61c34e9c0d6395dc5c90196de5a4b3e75fb6f0bbd951f014213993c7c779e4a4",
          "blockNumber": "0x728e74",
          "blockTimestamp": "0x67d21d20",
          "transactionHash": "0x0d4965b4057f02bcd11414cc69583ee31d4c0cce5b7dcb6b74dcf5dd624a7406",
          "transactionIndex": "0x14",
          "logIndex": "0x24",
          "removed": false
        }
      ],
      "logsBloom": "0x000000000000000000000000000000000000000000000000000000000000004000000000000000800000000000000000000010000000000000000000002000000000000000004000000000800000008000000000000004000010000000000000000000000000000000000000c0000000000400000000010000000010000000000000000040002000000000000000000000000000000000000000000002000000020000000000000000000000000080040000000000000200000000000000000000000000000000000000000000000000000000010000000000000000000000000010001000000000000100000000000000000000000800000000000010000000",
      "type": "0x0",
      "transactionHash": "0x0d4965b4057f02bcd11414cc69583ee31d4c0cce5b7dcb6b74dcf5dd624a7406",
      "transactionIndex": "0x14",
      "blockHash": "0x61c34e9c0d6395dc5c90196de5a4b3e75fb6f0bbd951f014213993c7c779e4a4",
      "blockNumber": "0x728e74",
      "gasUsed": "0x3072ca",
      "effectiveGasPrice": "0xc1b710800",
      "from": "0x6efb11ac41b6657c32dac5ed4874082c700bba29",
      "to": "0xe3524d92b54d89b980ea01cb842047e18d2de6fc",
      "contractAddress": null
    },
    {
      "status": "0x1",
      "cumulativeGasUsed": "0x6074eb",
      "logs": [
        {
          "address": "0x58389610a3d13e8f380ee2ba077a6f36f2a90834",
          "topics": [
            "0x8c5be1e5ebec7d5bd14f71427d1e84f3dd0314c0f7b2291e5b200ac8c7c3b925",
            "0x000000000000000000000000733b9c3dbe882385f0f8c4c71feda894b772b567",
            "0x0000000000000000000000004c51d8a789b0029cf47c2366eebf6205a09d929b"
          ],
          "data": "0x0000000000000000000000000000000000000000000000000000000000000000",
          "blockHash": "0x70f54e835339b6a2be6a0fbe1a44e124639383722a334ba7d63e3db8ca32e0e5",
          "blockNumber": "0x728e7f",
          "blockTimestamp": "0x67d21d28",
          "transactionHash": "0x98c67dc6bdfe9f123f175bdacff38b033cf6fb5650324d966b58a7b703a9ce2d",
          "transactionIndex": "0x15",
          "logIndex": "0x3c",
          "removed": false
        },
        {
          "address": "0x4c51d8a789b0029cf47c2366eebf6205a09d929b",
          "topics": [
            "0x8c5be1e5ebec7d5bd14f71427d1e84f3dd0314c0f7b2291e5b200ac8c7c3b925",
            "0x000000000000000000000000733b9c3dbe882385f0f8c4c71feda894b772b567",
            "0x0000000000000000000000002e505c38656ae7e6b1134f48b0daf6f725a6eaeb"
          ],
          "data": "0xffffffffffffffffffffffffffffffffffffffffffffffffffffffffffffffff",
          "blockHash": "0x70f54e835339b6a2be6a0fbe1a44e124639383722a334ba7d63e3db8ca32e0e5",
          "blockNumber": "0x728e7f",
          "blockTimestamp": "0x67d21d28",
          "transactionHash": "0x98c67dc6bdfe9f123f175bdacff38b033cf6fb5650324d966b58a7b703a9ce2d",
          "transactionIndex": "0x15",
          "logIndex": "0x3d",
          "removed": false
        },
        {
          "address": "0x733b9c3dbe882385f0f8c4c71feda894b772b567",
          "topics": [
            "0xa64754291535175942be6f35fba8deab36d97ea608b17d06cc5efb985e17215f",
            "0x0000000000000000000000004c51d8a789b0029cf47c2366eebf6205a09d929b"
          ],
          "data": "0x0000000000000000000000000000000000000000000000000000000000001194",
          "blockHash": "0x70f54e835339b6a2be6a0fbe1a44e124639383722a334ba7d63e3db8ca32e0e5",
          "blockNumber": "0x728e7f",
          "blockTimestamp": "0x67d21d28",
          "transactionHash": "0x98c67dc6bdfe9f123f175bdacff38b033cf6fb5650324d966b58a7b703a9ce2d",
          "transactionIndex": "0x15",
          "logIndex": "0x3e",
          "removed": false
        }
      ],
      "logsBloom": "0x00000000000000000000000000000000000400000000000000000000000000000000000000000080000000000000000000001000000000000000000000200000000000000000000000000080000000000000000000000400001800000000000001000000000000000000000080000000000000000000010000000010000000000000000000000000000000000000000100000000000000000000000000000000020000000000000000000000000000040000000000000004000000000000000000040000000000000000000000000000000000000000000000000000000000008050000000000000001100000000000000000400000000000000000000020000",
      "type": "0x0",
      "transactionHash": "0x98c67dc6bdfe9f123f175bdacff38b033cf6fb5650324d966b58a7b703a9ce2d",
      "transactionIndex": "0x15",
      "blockHash": "0x70f54e835339b6a2be6a0fbe1a44e124639383722a334ba7d63e3db8ca32e0e5",
      "blockNumber": "0x728e7f",
      "gasUsed": "0x4e6ae",
      "effectiveGasPrice": "0xc1b710800",
      "from": "0x6efb11ac41b6657c32dac5ed4874082c700bba29",
      "to": "0xe627718ebca60b588b7f8bba2603c64110bb6865",
      "contractAddress": null
    },
    {
      "status": "0x1",
      "cumulativeGasUsed": "0x530083",
      "logs": [
        {
          "address": "0x58389610a3d13e8f380ee2ba077a6f36f2a90834",
          "topics": [
            "0x8c5be1e5ebec7d5bd14f71427d1e84f3dd0314c0f7b2291e5b200ac8c7c3b925",
            "0x000000000000000000000000733b9c3dbe882385f0f8c4c71feda894b772b567",
            "0x000000000000000000000000339ae32f85f4a43b8dc0b685dc2d39179653ca01"
          ],
          "data": "0x0000000000000000000000000000000000000000000000000000000000000000",
          "blockHash": "0x14698633c45bd36c443816a211d034bd52488bf14ed312b02cdb7184b80f7b22",
          "blockNumber": "0x728e85",
          "blockTimestamp": "0x67d21d2b",
          "transactionHash": "0x0aa9340199c529935c711d5626585d1d00bc9ac6a7c3b161b614d6b633d74cdf",
          "transactionIndex": "0x17",
          "logIndex": "0x27",
          "removed": false
        },
        {
          "address": "0x339ae32f85f4a43b8dc0b685dc2d39179653ca01",
          "topics": [
            "0x8c5be1e5ebec7d5bd14f71427d1e84f3dd0314c0f7b2291e5b200ac8c7c3b925",
            "0x000000000000000000000000733b9c3dbe882385f0f8c4c71feda894b772b567",
            "0x0000000000000000000000002e505c38656ae7e6b1134f48b0daf6f725a6eaeb"
          ],
          "data": "0xffffffffffffffffffffffffffffffffffffffffffffffffffffffffffffffff",
          "blockHash": "0x14698633c45bd36c443816a211d034bd52488bf14ed312b02cdb7184b80f7b22",
          "blockNumber": "0x728e85",
          "blockTimestamp": "0x67d21d2b",
          "transactionHash": "0x0aa9340199c529935c711d5626585d1d00bc9ac6a7c3b161b614d6b633d74cdf",
          "transactionIndex": "0x17",
          "logIndex": "0x28",
          "removed": false
        },
        {
          "address": "0x733b9c3dbe882385f0f8c4c71feda894b772b567",
          "topics": [
            "0xa64754291535175942be6f35fba8deab36d97ea608b17d06cc5efb985e17215f",
            "0x000000000000000000000000339ae32f85f4a43b8dc0b685dc2d39179653ca01"
          ],
          "data": "0x0000000000000000000000000000000000000000000000000000000000000bb8",
          "blockHash": "0x14698633c45bd36c443816a211d034bd52488bf14ed312b02cdb7184b80f7b22",
          "blockNumber": "0x728e85",
          "blockTimestamp": "0x67d21d2b",
          "transactionHash": "0x0aa9340199c529935c711d5626585d1d00bc9ac6a7c3b161b614d6b633d74cdf",
          "transactionIndex": "0x17",
          "logIndex": "0x29",
          "removed": false
        }
      ],
      "logsBloom": "0x00000000000000000000000000000000000000000000000000000000000000000000000000000080000000000000000000000000000001000000000000200000000000000000000000000080000000100000000000000400001800000000000001000000000000001000000080000000000000000000010000000010000000000000000000000000000000000000000100000000000000000000000000000000020000000000000000001000000000040000000000000004000000000000000000000000000000000000008000000000000000000000000000000000000000000050000000000000000100000000000010000000000000000000000000020000",
      "type": "0x0",
      "transactionHash": "0x0aa9340199c529935c711d5626585d1d00bc9ac6a7c3b161b614d6b633d74cdf",
      "transactionIndex": "0x17",
      "blockHash": "0x14698633c45bd36c443816a211d034bd52488bf14ed312b02cdb7184b80f7b22",
      "blockNumber": "0x728e85",
      "gasUsed": "0x4cecc",
      "effectiveGasPrice": "0xc1b710800",
      "from": "0x6efb11ac41b6657c32dac5ed4874082c700bba29",
      "to": "0xe627718ebca60b588b7f8bba2603c64110bb6865",
      "contractAddress": null
    },
    {
      "status": "0x1",
      "cumulativeGasUsed": "0x56cf11",
      "logs": [
        {
          "address": "0x58389610a3d13e8f380ee2ba077a6f36f2a90834",
          "topics": [
            "0x8c5be1e5ebec7d5bd14f71427d1e84f3dd0314c0f7b2291e5b200ac8c7c3b925",
            "0x000000000000000000000000733b9c3dbe882385f0f8c4c71feda894b772b567",
            "0x000000000000000000000000b0a7f91a1c917a3bff73f2e3829032c64e135951"
          ],
          "data": "0x0000000000000000000000000000000000000000000000000000000000000000",
          "blockHash": "0x8dd535aff3a98cbe76e1214d5648c8896ebd8670c088dd4a77b0e63a05b1f483",
          "blockNumber": "0x728e89",
          "blockTimestamp": "0x67d21d2d",
          "transactionHash": "0xe61e9ac1f4f70c094b6fbd361460ce4054d5b6bd93879032fa5b1b60d890bb3b",
          "transactionIndex": "0x16",
          "logIndex": "0x2c",
          "removed": false
        },
        {
          "address": "0xb0a7f91a1c917a3bff73f2e3829032c64e135951",
          "topics": [
            "0x8c5be1e5ebec7d5bd14f71427d1e84f3dd0314c0f7b2291e5b200ac8c7c3b925",
            "0x000000000000000000000000733b9c3dbe882385f0f8c4c71feda894b772b567",
            "0x0000000000000000000000002e505c38656ae7e6b1134f48b0daf6f725a6eaeb"
          ],
          "data": "0xffffffffffffffffffffffffffffffffffffffffffffffffffffffffffffffff",
          "blockHash": "0x8dd535aff3a98cbe76e1214d5648c8896ebd8670c088dd4a77b0e63a05b1f483",
          "blockNumber": "0x728e89",
          "blockTimestamp": "0x67d21d2d",
          "transactionHash": "0xe61e9ac1f4f70c094b6fbd361460ce4054d5b6bd93879032fa5b1b60d890bb3b",
          "transactionIndex": "0x16",
          "logIndex": "0x2d",
          "removed": false
        },
        {
          "address": "0x733b9c3dbe882385f0f8c4c71feda894b772b567",
          "topics": [
            "0xa64754291535175942be6f35fba8deab36d97ea608b17d06cc5efb985e17215f",
            "0x000000000000000000000000b0a7f91a1c917a3bff73f2e3829032c64e135951"
          ],
          "data": "0x00000000000000000000000000000000000000000000000000000000000009c4",
          "blockHash": "0x8dd535aff3a98cbe76e1214d5648c8896ebd8670c088dd4a77b0e63a05b1f483",
          "blockNumber": "0x728e89",
          "blockTimestamp": "0x67d21d2d",
          "transactionHash": "0xe61e9ac1f4f70c094b6fbd361460ce4054d5b6bd93879032fa5b1b60d890bb3b",
          "transactionIndex": "0x16",
          "logIndex": "0x2e",
          "removed": false
        }
      ],
      "logsBloom": "0x00000000000000000000000000000000000000000000000000000000000000000000000000000080000000000000000000000000000000000002000000200000000000000000100000000080000000000000000000000400001800000000000001000000000000000000000080020000080000000000010000000010000000000000000000000000000000000000000100000000000000000000000000000000020000000000000000000000000000040000000000000004004000000000000000000000000000000000000000000000000000000000000000000000000000000050000000000000000100000000000000000400000000000000000000020000",
      "type": "0x0",
      "transactionHash": "0xe61e9ac1f4f70c094b6fbd361460ce4054d5b6bd93879032fa5b1b60d890bb3b",
      "transactionIndex": "0x16",
      "blockHash": "0x8dd535aff3a98cbe76e1214d5648c8896ebd8670c088dd4a77b0e63a05b1f483",
      "blockNumber": "0x728e89",
      "gasUsed": "0x4cecc",
      "effectiveGasPrice": "0xc1b710800",
      "from": "0x6efb11ac41b6657c32dac5ed4874082c700bba29",
      "to": "0xe627718ebca60b588b7f8bba2603c64110bb6865",
      "contractAddress": null
    },
    {
      "status": "0x1",
      "cumulativeGasUsed": "0x156b85c",
      "logs": [
        {
          "address": "0x2be6f52bfe2f81d568b7b736e2faa1a621446e7f",
          "topics": [
            "0x8be0079c531659141344cd1fd0a4f28419497f9722a3daafe3b4186f6b6457e0",
            "0x0000000000000000000000000000000000000000000000000000000000000000",
            "0x0000000000000000000000006efb11ac41b6657c32dac5ed4874082c700bba29"
          ],
          "data": "0x",
          "blockHash": "0x78c1a471a91137b044c3eff37dfd83f6b31ba7d49bdaf3c0f9980afd8b61a70e",
          "blockNumber": "0x728e8a",
          "blockTimestamp": "0x67d21d30",
          "transactionHash": "0x903f5e81432ff52c513700c4012f7108f6238efd6292becab1526f0e49798f47",
          "transactionIndex": "0x67",
          "logIndex": "0xb1",
          "removed": false
        },
        {
          "address": "0xef4a9fe522993a5cc66ce63356d1a6c128f2986f",
          "topics": [
            "0xcd9b93471f9f84b656abb160527f47ccb4ffea8cc46a8a68e5faeb2177a5cd8f",
            "0x0000000000000000000000006efb11ac41b6657c32dac5ed4874082c700bba29",
            "0x0000000000000000000000002be6f52bfe2f81d568b7b736e2faa1a621446e7f"
          ],
          "data": "0x0000000000000000000000000000000000000000000000000000000000000020000000000000000000000000000000000000000000000000000000000000000b43757261746f722054776f000000000000000000000000000000000000000000",
          "blockHash": "0x78c1a471a91137b044c3eff37dfd83f6b31ba7d49bdaf3c0f9980afd8b61a70e",
          "blockNumber": "0x728e8a",
          "blockTimestamp": "0x67d21d30",
          "transactionHash": "0x903f5e81432ff52c513700c4012f7108f6238efd6292becab1526f0e49798f47",
          "transactionIndex": "0x67",
          "logIndex": "0xb2",
          "removed": false
        }
      ],
      "logsBloom": "0x00000000000000000200030000000000000000000000000000800000000000000000000000000000000000000000000000000000010100000000400000000000000080000000000000000000000000000001000000000000000000000000000000000000020000000000000000000800000001000000000000000000000000400000000000000000400000000000000000000000000000000000000001000200000000004000000000000000000000000000000000000080000001000000000000000000000000000000000000000000000000000000000000000000000020000000000000000000000000000000000000000000000000000000000000000040",
      "type": "0x0",
      "transactionHash": "0x903f5e81432ff52c513700c4012f7108f6238efd6292becab1526f0e49798f47",
      "transactionIndex": "0x67",
      "blockHash": "0x78c1a471a91137b044c3eff37dfd83f6b31ba7d49bdaf3c0f9980afd8b61a70e",
      "blockNumber": "0x728e8a",
      "gasUsed": "0x4ecb0",
      "effectiveGasPrice": "0xc1b710800",
      "from": "0x6efb11ac41b6657c32dac5ed4874082c700bba29",
      "to": "0xef4a9fe522993a5cc66ce63356d1a6c128f2986f",
      "contractAddress": null
    },
    {
      "status": "0x1",
      "cumulativeGasUsed": "0x6eeda7",
      "logs": [
        {
          "address": "0x2c53ce7143d24a65410107f50e4aabad9a164480",
          "topics": [
            "0x8c5be1e5ebec7d5bd14f71427d1e84f3dd0314c0f7b2291e5b200ac8c7c3b925",
            "0x00000000000000000000000051f277a2c6aa32ebe0a772820a5399c3c991d182",
            "0x0000000000000000000000002e505c38656ae7e6b1134f48b0daf6f725a6eaeb"
          ],
          "data": "0xffffffffffffffffffffffffffffffffffffffffffffffffffffffffffffffff",
          "blockHash": "0x55e45e32f3ccbe2d95bd7bb6b908ff65089fcbf30613bafd565fa39a610c54b9",
          "blockNumber": "0x728e91",
          "blockTimestamp": "0x67d21d33",
          "transactionHash": "0xf0d54c51c6e8e168e5830dc4a0cf97364d44f404366780a0fab3635a3bc6f594",
          "transactionIndex": "0x11",
          "logIndex": "0x19",
          "removed": false
        },
        {
          "address": "0x58389610a3d13e8f380ee2ba077a6f36f2a90834",
          "topics": [
            "0x8c5be1e5ebec7d5bd14f71427d1e84f3dd0314c0f7b2291e5b200ac8c7c3b925",
            "0x00000000000000000000000051f277a2c6aa32ebe0a772820a5399c3c991d182",
            "0x0000000000000000000000002e505c38656ae7e6b1134f48b0daf6f725a6eaeb"
          ],
          "data": "0xffffffffffffffffffffffffffffffffffffffffffffffffffffffffffffffff",
          "blockHash": "0x55e45e32f3ccbe2d95bd7bb6b908ff65089fcbf30613bafd565fa39a610c54b9",
          "blockNumber": "0x728e91",
          "blockTimestamp": "0x67d21d33",
          "transactionHash": "0xf0d54c51c6e8e168e5830dc4a0cf97364d44f404366780a0fab3635a3bc6f594",
          "transactionIndex": "0x11",
          "logIndex": "0x1a",
          "removed": false
        },
        {
          "address": "0xe3524d92b54d89b980ea01cb842047e18d2de6fc",
          "topics": [
            "0x663b82ac98018fd9ebc6237c60a8e64fcb638bdc8947d37507228931924d8f73",
            "0x0000000000000000000000002be6f52bfe2f81d568b7b736e2faa1a621446e7f",
            "0x00000000000000000000000051f277a2c6aa32ebe0a772820a5399c3c991d182",
            "0x00000000000000000000000058389610a3d13e8f380ee2ba077a6f36f2a90834"
          ],
          "data": "0x0000000000000000000000000000000000000000000000000000000000000020000000000000000000000000000000000000000000000000000000000000000c4d616a6f72204173736574730000000000000000000000000000000000000000",
          "blockHash": "0x55e45e32f3ccbe2d95bd7bb6b908ff65089fcbf30613bafd565fa39a610c54b9",
          "blockNumber": "0x728e91",
          "blockTimestamp": "0x67d21d33",
          "transactionHash": "0xf0d54c51c6e8e168e5830dc4a0cf97364d44f404366780a0fab3635a3bc6f594",
          "transactionIndex": "0x11",
          "logIndex": "0x1b",
          "removed": false
        }
      ],
      "logsBloom": "0x000000000000000000000200000000000000000000000000000000000000000000000000000000000000000000000000000010000000000000000000002000000000000000004000000000000000008000000000000004000010000000000008000000000000000000000200c0000000000401000000010000000010000000000000000040002000000000000000000000000000000000000000000000000000020000000000000000000000000000040000000000000280000000000000000000000000000000000000000000000000000000010000000000000000000000000010001000000000000000000000000000040000000800000000000010000000",
      "type": "0x0",
      "transactionHash": "0xf0d54c51c6e8e168e5830dc4a0cf97364d44f404366780a0fab3635a3bc6f594",
      "transactionIndex": "0x11",
      "blockHash": "0x55e45e32f3ccbe2d95bd7bb6b908ff65089fcbf30613bafd565fa39a610c54b9",
      "blockNumber": "0x728e91",
      "gasUsed": "0x307266",
      "effectiveGasPrice": "0xc1b710800",
      "from": "0x6efb11ac41b6657c32dac5ed4874082c700bba29",
      "to": "0xe3524d92b54d89b980ea01cb842047e18d2de6fc",
      "contractAddress": null
    },
    {
      "status": "0x1",
      "cumulativeGasUsed": "0xaf3b8a",
      "logs": [
        {
          "address": "0x58389610a3d13e8f380ee2ba077a6f36f2a90834",
          "topics": [
            "0x8c5be1e5ebec7d5bd14f71427d1e84f3dd0314c0f7b2291e5b200ac8c7c3b925",
            "0x00000000000000000000000051f277a2c6aa32ebe0a772820a5399c3c991d182",
            "0x0000000000000000000000004c51d8a789b0029cf47c2366eebf6205a09d929b"
          ],
          "data": "0x0000000000000000000000000000000000000000000000000000000000000000",
          "blockHash": "0x2d7e3801766395f606175a3dc0d70ee9ed22efd251b826906f216bed1f4dce36",
          "blockNumber": "0x728e96",
          "blockTimestamp": "0x67d21d35",
          "transactionHash": "0x5c2650f938a3ac63f820628a638ed9d9f41fb3b890d44c6a02b741f3d6d1f4f1",
          "transactionIndex": "0x23",
          "logIndex": "0x4a",
          "removed": false
        },
        {
          "address": "0x4c51d8a789b0029cf47c2366eebf6205a09d929b",
          "topics": [
            "0x8c5be1e5ebec7d5bd14f71427d1e84f3dd0314c0f7b2291e5b200ac8c7c3b925",
            "0x00000000000000000000000051f277a2c6aa32ebe0a772820a5399c3c991d182",
            "0x0000000000000000000000002e505c38656ae7e6b1134f48b0daf6f725a6eaeb"
          ],
          "data": "0xffffffffffffffffffffffffffffffffffffffffffffffffffffffffffffffff",
          "blockHash": "0x2d7e3801766395f606175a3dc0d70ee9ed22efd251b826906f216bed1f4dce36",
          "blockNumber": "0x728e96",
          "blockTimestamp": "0x67d21d35",
          "transactionHash": "0x5c2650f938a3ac63f820628a638ed9d9f41fb3b890d44c6a02b741f3d6d1f4f1",
          "transactionIndex": "0x23",
          "logIndex": "0x4b",
          "removed": false
        },
        {
          "address": "0x51f277a2c6aa32ebe0a772820a5399c3c991d182",
          "topics": [
            "0xa64754291535175942be6f35fba8deab36d97ea608b17d06cc5efb985e17215f",
            "0x0000000000000000000000004c51d8a789b0029cf47c2366eebf6205a09d929b"
          ],
          "data": "0x0000000000000000000000000000000000000000000000000000000000001388",
          "blockHash": "0x2d7e3801766395f606175a3dc0d70ee9ed22efd251b826906f216bed1f4dce36",
          "blockNumber": "0x728e96",
          "blockTimestamp": "0x67d21d35",
          "transactionHash": "0x5c2650f938a3ac63f820628a638ed9d9f41fb3b890d44c6a02b741f3d6d1f4f1",
          "transactionIndex": "0x23",
          "logIndex": "0x4c",
          "removed": false
        }
      ],
      "logsBloom": "0x00000000000000000000000000000000000400000000000000000000000000000000000000000000000000000000000000001000000000000000000000200000000000000000000000000000000000000000000000000400001800000000000801000000000000000000020080000000000080000000010000000010000000000000000000000000000000000000000000000000000000000000000000000000020000000000000080000000000000040000000000000000000000000000000000040000000000000000000000040000000000000000000000000000000000008050000000000000001000000000000000040400000000000000000000000000",
      "type": "0x0",
      "transactionHash": "0x5c2650f938a3ac63f820628a638ed9d9f41fb3b890d44c6a02b741f3d6d1f4f1",
      "transactionIndex": "0x23",
      "blockHash": "0x2d7e3801766395f606175a3dc0d70ee9ed22efd251b826906f216bed1f4dce36",
      "blockNumber": "0x728e96",
      "gasUsed": "0x4e6ae",
      "effectiveGasPrice": "0xc1b710800",
      "from": "0x6efb11ac41b6657c32dac5ed4874082c700bba29",
      "to": "0x2be6f52bfe2f81d568b7b736e2faa1a621446e7f",
      "contractAddress": null
    },
    {
      "status": "0x1",
      "cumulativeGasUsed": "0x204efa",
      "logs": [
        {
          "address": "0x58389610a3d13e8f380ee2ba077a6f36f2a90834",
          "topics": [
            "0x8c5be1e5ebec7d5bd14f71427d1e84f3dd0314c0f7b2291e5b200ac8c7c3b925",
            "0x00000000000000000000000051f277a2c6aa32ebe0a772820a5399c3c991d182",
            "0x000000000000000000000000339ae32f85f4a43b8dc0b685dc2d39179653ca01"
          ],
          "data": "0x0000000000000000000000000000000000000000000000000000000000000000",
          "blockHash": "0x20d25cb6e3051925efdeaf39d50ddf9d7c250fb9dcc5d53e5abed31a1ed33e88",
          "blockNumber": "0x728e9c",
          "blockTimestamp": "0x67d21d38",
          "transactionHash": "0x4862f3e7491145d946e537f2eaafdc199b0064d0846d7d0bae77c5e6a9724414",
          "transactionIndex": "0xd",
          "logIndex": "0x17",
          "removed": false
        },
        {
          "address": "0x339ae32f85f4a43b8dc0b685dc2d39179653ca01",
          "topics": [
            "0x8c5be1e5ebec7d5bd14f71427d1e84f3dd0314c0f7b2291e5b200ac8c7c3b925",
            "0x00000000000000000000000051f277a2c6aa32ebe0a772820a5399c3c991d182",
            "0x0000000000000000000000002e505c38656ae7e6b1134f48b0daf6f725a6eaeb"
          ],
          "data": "0xffffffffffffffffffffffffffffffffffffffffffffffffffffffffffffffff",
          "blockHash": "0x20d25cb6e3051925efdeaf39d50ddf9d7c250fb9dcc5d53e5abed31a1ed33e88",
          "blockNumber": "0x728e9c",
          "blockTimestamp": "0x67d21d38",
          "transactionHash": "0x4862f3e7491145d946e537f2eaafdc199b0064d0846d7d0bae77c5e6a9724414",
          "transactionIndex": "0xd",
          "logIndex": "0x18",
          "removed": false
        },
        {
          "address": "0x51f277a2c6aa32ebe0a772820a5399c3c991d182",
          "topics": [
            "0xa64754291535175942be6f35fba8deab36d97ea608b17d06cc5efb985e17215f",
            "0x000000000000000000000000339ae32f85f4a43b8dc0b685dc2d39179653ca01"
          ],
          "data": "0x0000000000000000000000000000000000000000000000000000000000000bb8",
          "blockHash": "0x20d25cb6e3051925efdeaf39d50ddf9d7c250fb9dcc5d53e5abed31a1ed33e88",
          "blockNumber": "0x728e9c",
          "blockTimestamp": "0x67d21d38",
          "transactionHash": "0x4862f3e7491145d946e537f2eaafdc199b0064d0846d7d0bae77c5e6a9724414",
          "transactionIndex": "0xd",
          "logIndex": "0x19",
          "removed": false
        }
      ],
      "logsBloom": "0x00000000000000000000000000000000000000000000000000000000000000000000000000000000000000000000000000000000000001000000000000200000000000000000000000000000000000100000000000000400001800000000000801000000000000001000020080000000000080000000010000000010000000000000000000000000000000000000000000000000000000000000000000000000020000000000000080001000000000040000000000000000000000000000000000000000000000000000008000040000000000000000000000000000000000000050000000000000000000000000000010040000000000000000000000000000",
      "type": "0x0",
      "transactionHash": "0x4862f3e7491145d946e537f2eaafdc199b0064d0846d7d0bae77c5e6a9724414",
      "transactionIndex": "0xd",
      "blockHash": "0x20d25cb6e3051925efdeaf39d50ddf9d7c250fb9dcc5d53e5abed31a1ed33e88",
      "blockNumber": "0x728e9c",
      "gasUsed": "0x4cecc",
      "effectiveGasPrice": "0xc1b710800",
      "from": "0x6efb11ac41b6657c32dac5ed4874082c700bba29",
      "to": "0x2be6f52bfe2f81d568b7b736e2faa1a621446e7f",
      "contractAddress": null
    },
    {
      "status": "0x1",
      "cumulativeGasUsed": "0x33d6d1",
      "logs": [
        {
          "address": "0x58389610a3d13e8f380ee2ba077a6f36f2a90834",
          "topics": [
            "0x8c5be1e5ebec7d5bd14f71427d1e84f3dd0314c0f7b2291e5b200ac8c7c3b925",
            "0x00000000000000000000000051f277a2c6aa32ebe0a772820a5399c3c991d182",
            "0x00000000000000000000000041b38fcc7eb3365393d5a2228d14d34c8f841828"
          ],
          "data": "0x0000000000000000000000000000000000000000000000000000000000000000",
          "blockHash": "0xbebfaf36dc80244894fa411816b2b676f10ff8606b6ae885f718f5510cb3c137",
          "blockNumber": "0x728e9f",
          "blockTimestamp": "0x67d21d3a",
          "transactionHash": "0x077f1a79742a0432859d3e97adcd3384e685fc292e6c2636482b517601644825",
          "transactionIndex": "0x18",
          "logIndex": "0x37",
          "removed": false
        },
        {
          "address": "0x41b38fcc7eb3365393d5a2228d14d34c8f841828",
          "topics": [
            "0x8c5be1e5ebec7d5bd14f71427d1e84f3dd0314c0f7b2291e5b200ac8c7c3b925",
            "0x00000000000000000000000051f277a2c6aa32ebe0a772820a5399c3c991d182",
            "0x0000000000000000000000002e505c38656ae7e6b1134f48b0daf6f725a6eaeb"
          ],
          "data": "0xffffffffffffffffffffffffffffffffffffffffffffffffffffffffffffffff",
          "blockHash": "0xbebfaf36dc80244894fa411816b2b676f10ff8606b6ae885f718f5510cb3c137",
          "blockNumber": "0x728e9f",
          "blockTimestamp": "0x67d21d3a",
          "transactionHash": "0x077f1a79742a0432859d3e97adcd3384e685fc292e6c2636482b517601644825",
          "transactionIndex": "0x18",
          "logIndex": "0x38",
          "removed": false
        },
        {
          "address": "0x51f277a2c6aa32ebe0a772820a5399c3c991d182",
          "topics": [
            "0xa64754291535175942be6f35fba8deab36d97ea608b17d06cc5efb985e17215f",
            "0x00000000000000000000000041b38fcc7eb3365393d5a2228d14d34c8f841828"
          ],
          "data": "0x00000000000000000000000000000000000000000000000000000000000007d0",
          "blockHash": "0xbebfaf36dc80244894fa411816b2b676f10ff8606b6ae885f718f5510cb3c137",
          "blockNumber": "0x728e9f",
          "blockTimestamp": "0x67d21d3a",
          "transactionHash": "0x077f1a79742a0432859d3e97adcd3384e685fc292e6c2636482b517601644825",
          "transactionIndex": "0x18",
          "logIndex": "0x39",
          "removed": false
        }
      ],
      "logsBloom": "0x00000000000000000000000000000000000000000000000000000000000000000000000000000000000000000000000000000000000000000000000000200000000000000000000000000000000000000000000000000400001800000000000805000000000000000000020080000002000080000000010000000010000000000000000000000020000000000000000000000000000000000000000000000000020000000000000080000000000000040000000000000000000000000000000000000000000000000000000000040001000000000000000000000000000000000850000000200000000000000000000000040000000000000000000000000000",
      "type": "0x0",
      "transactionHash": "0x077f1a79742a0432859d3e97adcd3384e685fc292e6c2636482b517601644825",
      "transactionIndex": "0x18",
      "blockHash": "0xbebfaf36dc80244894fa411816b2b676f10ff8606b6ae885f718f5510cb3c137",
      "blockNumber": "0x728e9f",
      "gasUsed": "0x4cecc",
      "effectiveGasPrice": "0xc1b710800",
      "from": "0x6efb11ac41b6657c32dac5ed4874082c700bba29",
      "to": "0x2be6f52bfe2f81d568b7b736e2faa1a621446e7f",
      "contractAddress": null
    },
    {
      "status": "0x1",
      "cumulativeGasUsed": "0x30e0a1",
      "logs": [
        {
          "address": "0xfaa8f6f2e587a540e94a47724bdc357ecd49705d",
          "topics": [
            "0x8be0079c531659141344cd1fd0a4f28419497f9722a3daafe3b4186f6b6457e0",
            "0x0000000000000000000000000000000000000000000000000000000000000000",
            "0x00000000000000000000000077c037fbf42e85db1487b390b08f58c00f438812"
          ],
          "data": "0x",
          "blockHash": "0xe2010638cdb6e1506abc1855298697751978cfc41ddbbe85826f91bb478516b5",
          "blockNumber": "0x728ea2",
          "blockTimestamp": "0x67d21d3b",
          "transactionHash": "0x634ef0d3a1cbbc720f8f35db8a15af52dd157ed4982035cb42b1cebeab30a5c6",
          "transactionIndex": "0x11",
          "logIndex": "0x30",
          "removed": false
        },
        {
          "address": "0xef4a9fe522993a5cc66ce63356d1a6c128f2986f",
          "topics": [
            "0xcd9b93471f9f84b656abb160527f47ccb4ffea8cc46a8a68e5faeb2177a5cd8f",
            "0x00000000000000000000000077c037fbf42e85db1487b390b08f58c00f438812",
            "0x000000000000000000000000faa8f6f2e587a540e94a47724bdc357ecd49705d"
          ],
          "data": "0x0000000000000000000000000000000000000000000000000000000000000020000000000000000000000000000000000000000000000000000000000000000d43757261746f7220546872656500000000000000000000000000000000000000",
          "blockHash": "0xe2010638cdb6e1506abc1855298697751978cfc41ddbbe85826f91bb478516b5",
          "blockNumber": "0x728ea2",
          "blockTimestamp": "0x67d21d3b",
          "transactionHash": "0x634ef0d3a1cbbc720f8f35db8a15af52dd157ed4982035cb42b1cebeab30a5c6",
          "transactionIndex": "0x11",
          "logIndex": "0x31",
          "removed": false
        }
      ],
      "logsBloom": "0x00000000000000000000000000000000000000000000000000800000000000000000000000000000000000010000000000000000010000000000400000000000000080000000200000000000000000000001800000008000000000000100000000000000020000000080000000000800000000000000000000000000000000400000000000000000000000000000000000000000000000000000000001000200000000004000000000000000000000000000000000100000000000000000000000000000000000000000000000000000000000000000000000000000000020000000000000000000000000000000000000000000000000000000000800000000",
      "type": "0x0",
      "transactionHash": "0x634ef0d3a1cbbc720f8f35db8a15af52dd157ed4982035cb42b1cebeab30a5c6",
      "transactionIndex": "0x11",
      "blockHash": "0xe2010638cdb6e1506abc1855298697751978cfc41ddbbe85826f91bb478516b5",
      "blockNumber": "0x728ea2",
      "gasUsed": "0x5030b",
      "effectiveGasPrice": "0xc1b710800",
      "from": "0x77c037fbf42e85db1487b390b08f58c00f438812",
      "to": "0xef4a9fe522993a5cc66ce63356d1a6c128f2986f",
      "contractAddress": null
    },
    {
      "status": "0x1",
      "cumulativeGasUsed": "0x6f9934",
      "logs": [
        {
          "address": "0x2c53ce7143d24a65410107f50e4aabad9a164480",
          "topics": [
            "0x8c5be1e5ebec7d5bd14f71427d1e84f3dd0314c0f7b2291e5b200ac8c7c3b925",
            "0x000000000000000000000000812311d7bc2d2c788269cd5acc50e29e64694c91",
            "0x0000000000000000000000002e505c38656ae7e6b1134f48b0daf6f725a6eaeb"
          ],
          "data": "0xffffffffffffffffffffffffffffffffffffffffffffffffffffffffffffffff",
          "blockHash": "0x1b6008d986d09508da5ad88e017c18dbf3bf68e30c9e9f010c3b15d96600eef1",
          "blockNumber": "0x728ea9",
          "blockTimestamp": "0x67d21d3f",
          "transactionHash": "0xb40ec751fe53d15799faf492e675ab88a8a137a70f6fa8b1b3ac450446efbaa1",
          "transactionIndex": "0x1c",
          "logIndex": "0x31",
          "removed": false
        },
        {
          "address": "0x58389610a3d13e8f380ee2ba077a6f36f2a90834",
          "topics": [
            "0x8c5be1e5ebec7d5bd14f71427d1e84f3dd0314c0f7b2291e5b200ac8c7c3b925",
            "0x000000000000000000000000812311d7bc2d2c788269cd5acc50e29e64694c91",
            "0x0000000000000000000000002e505c38656ae7e6b1134f48b0daf6f725a6eaeb"
          ],
          "data": "0xffffffffffffffffffffffffffffffffffffffffffffffffffffffffffffffff",
          "blockHash": "0x1b6008d986d09508da5ad88e017c18dbf3bf68e30c9e9f010c3b15d96600eef1",
          "blockNumber": "0x728ea9",
          "blockTimestamp": "0x67d21d3f",
          "transactionHash": "0xb40ec751fe53d15799faf492e675ab88a8a137a70f6fa8b1b3ac450446efbaa1",
          "transactionIndex": "0x1c",
          "logIndex": "0x32",
          "removed": false
        },
        {
          "address": "0xe3524d92b54d89b980ea01cb842047e18d2de6fc",
          "topics": [
            "0x663b82ac98018fd9ebc6237c60a8e64fcb638bdc8947d37507228931924d8f73",
            "0x000000000000000000000000faa8f6f2e587a540e94a47724bdc357ecd49705d",
            "0x000000000000000000000000812311d7bc2d2c788269cd5acc50e29e64694c91",
            "0x00000000000000000000000058389610a3d13e8f380ee2ba077a6f36f2a90834"
          ],
          "data": "0x0000000000000000000000000000000000000000000000000000000000000020000000000000000000000000000000000000000000000000000000000000000f4d6978656420506f7274666f6c696f0000000000000000000000000000000000",
          "blockHash": "0x1b6008d986d09508da5ad88e017c18dbf3bf68e30c9e9f010c3b15d96600eef1",
          "blockNumber": "0x728ea9",
          "blockTimestamp": "0x67d21d3f",
          "transactionHash": "0xb40ec751fe53d15799faf492e675ab88a8a137a70f6fa8b1b3ac450446efbaa1",
          "transactionIndex": "0x1c",
          "logIndex": "0x33",
          "removed": false
        }
      ],
      "logsBloom": "0x000000000020000000000000000000000000000000000000000000000000000000000000000000000000000000000000080010000000000000000000002000000000000000004000000000000000008000000000000084000010000001000000000000000000000000800000c0000000000400000000010000000010000000000000000040002000000000000000000000000000000000000000000000000000020000000000000800000000000000040000000000000200000000000000000000000000000000000000000000000000000000010000000000000000000000000010001000000000000000000000000000000000000800000000000010000000",
      "type": "0x0",
      "transactionHash": "0xb40ec751fe53d15799faf492e675ab88a8a137a70f6fa8b1b3ac450446efbaa1",
      "transactionIndex": "0x1c",
      "blockHash": "0x1b6008d986d09508da5ad88e017c18dbf3bf68e30c9e9f010c3b15d96600eef1",
      "blockNumber": "0x728ea9",
      "gasUsed": "0x334c06",
      "effectiveGasPrice": "0xc1b710800",
      "from": "0x77c037fbf42e85db1487b390b08f58c00f438812",
      "to": "0xe3524d92b54d89b980ea01cb842047e18d2de6fc",
      "contractAddress": null
    },
    {
      "status": "0x1",
      "cumulativeGasUsed": "0x26c557",
      "logs": [
        {
          "address": "0x58389610a3d13e8f380ee2ba077a6f36f2a90834",
          "topics": [
            "0x8c5be1e5ebec7d5bd14f71427d1e84f3dd0314c0f7b2291e5b200ac8c7c3b925",
            "0x000000000000000000000000812311d7bc2d2c788269cd5acc50e29e64694c91",
            "0x0000000000000000000000004c51d8a789b0029cf47c2366eebf6205a09d929b"
          ],
          "data": "0x0000000000000000000000000000000000000000000000000000000000000000",
          "blockHash": "0x97f22e46cf87bd32582ef121798dcbc3fadf6a14ef5c588803b7f6748f16d332",
          "blockNumber": "0x728ead",
          "blockTimestamp": "0x67d21d41",
          "transactionHash": "0x6dfb196d6d49ba83b6e9a6cca39d2095e95dabbb9908c020db10c81a93cc8f5f",
          "transactionIndex": "0x17",
          "logIndex": "0x1e",
          "removed": false
        },
        {
          "address": "0x4c51d8a789b0029cf47c2366eebf6205a09d929b",
          "topics": [
            "0x8c5be1e5ebec7d5bd14f71427d1e84f3dd0314c0f7b2291e5b200ac8c7c3b925",
            "0x000000000000000000000000812311d7bc2d2c788269cd5acc50e29e64694c91",
            "0x0000000000000000000000002e505c38656ae7e6b1134f48b0daf6f725a6eaeb"
          ],
          "data": "0xffffffffffffffffffffffffffffffffffffffffffffffffffffffffffffffff",
          "blockHash": "0x97f22e46cf87bd32582ef121798dcbc3fadf6a14ef5c588803b7f6748f16d332",
          "blockNumber": "0x728ead",
          "blockTimestamp": "0x67d21d41",
          "transactionHash": "0x6dfb196d6d49ba83b6e9a6cca39d2095e95dabbb9908c020db10c81a93cc8f5f",
          "transactionIndex": "0x17",
          "logIndex": "0x1f",
          "removed": false
        },
        {
          "address": "0x812311d7bc2d2c788269cd5acc50e29e64694c91",
          "topics": [
            "0xa64754291535175942be6f35fba8deab36d97ea608b17d06cc5efb985e17215f",
            "0x0000000000000000000000004c51d8a789b0029cf47c2366eebf6205a09d929b"
          ],
          "data": "0x0000000000000000000000000000000000000000000000000000000000000fa0",
          "blockHash": "0x97f22e46cf87bd32582ef121798dcbc3fadf6a14ef5c588803b7f6748f16d332",
          "blockNumber": "0x728ead",
          "blockTimestamp": "0x67d21d41",
          "transactionHash": "0x6dfb196d6d49ba83b6e9a6cca39d2095e95dabbb9908c020db10c81a93cc8f5f",
          "transactionIndex": "0x17",
          "logIndex": "0x20",
          "removed": false
        }
      ],
      "logsBloom": "0x00000000002000000000000000000000000400000000000000000100000000000000000000000000000000000000000008001000000000000000000000200100000000000000000000000000000000000000000000000400001800000000000001000000000000000000000080000000000000000000010000200010000000000000000000000000000000000000000000000000000000000000000000000000020000000000000800000000000000040000000000000000000000000000000000040000000000000000000000000000000000000000000000000000000000008050000000000000001000000000000000000400000000000000000000000000",
      "type": "0x0",
      "transactionHash": "0x6dfb196d6d49ba83b6e9a6cca39d2095e95dabbb9908c020db10c81a93cc8f5f",
      "transactionIndex": "0x17",
      "blockHash": "0x97f22e46cf87bd32582ef121798dcbc3fadf6a14ef5c588803b7f6748f16d332",
      "blockNumber": "0x728ead",
      "gasUsed": "0x4e6ae",
      "effectiveGasPrice": "0xc1b710800",
      "from": "0x77c037fbf42e85db1487b390b08f58c00f438812",
      "to": "0xfaa8f6f2e587a540e94a47724bdc357ecd49705d",
      "contractAddress": null
    },
    {
      "status": "0x1",
      "cumulativeGasUsed": "0x57dbe0",
      "logs": [
        {
          "address": "0x58389610a3d13e8f380ee2ba077a6f36f2a90834",
          "topics": [
            "0x8c5be1e5ebec7d5bd14f71427d1e84f3dd0314c0f7b2291e5b200ac8c7c3b925",
            "0x000000000000000000000000812311d7bc2d2c788269cd5acc50e29e64694c91",
            "0x000000000000000000000000339ae32f85f4a43b8dc0b685dc2d39179653ca01"
          ],
          "data": "0x0000000000000000000000000000000000000000000000000000000000000000",
          "blockHash": "0x97ec0c3d1e8859c72a72e0b6b22b572d63a6c771dd6aca768aaefce406ad4b64",
          "blockNumber": "0x728eb8",
          "blockTimestamp": "0x67d21d4b",
          "transactionHash": "0x21d1772548a08db462ea6792caa5034d7f4d1fc512307363223d54c6e77a3ddb",
          "transactionIndex": "0x27",
          "logIndex": "0x57",
          "removed": false
        },
        {
          "address": "0x339ae32f85f4a43b8dc0b685dc2d39179653ca01",
          "topics": [
            "0x8c5be1e5ebec7d5bd14f71427d1e84f3dd0314c0f7b2291e5b200ac8c7c3b925",
            "0x000000000000000000000000812311d7bc2d2c788269cd5acc50e29e64694c91",
            "0x0000000000000000000000002e505c38656ae7e6b1134f48b0daf6f725a6eaeb"
          ],
          "data": "0xffffffffffffffffffffffffffffffffffffffffffffffffffffffffffffffff",
          "blockHash": "0x97ec0c3d1e8859c72a72e0b6b22b572d63a6c771dd6aca768aaefce406ad4b64",
          "blockNumber": "0x728eb8",
          "blockTimestamp": "0x67d21d4b",
          "transactionHash": "0x21d1772548a08db462ea6792caa5034d7f4d1fc512307363223d54c6e77a3ddb",
          "transactionIndex": "0x27",
          "logIndex": "0x58",
          "removed": false
        },
        {
          "address": "0x812311d7bc2d2c788269cd5acc50e29e64694c91",
          "topics": [
            "0xa64754291535175942be6f35fba8deab36d97ea608b17d06cc5efb985e17215f",
            "0x000000000000000000000000339ae32f85f4a43b8dc0b685dc2d39179653ca01"
          ],
          "data": "0x00000000000000000000000000000000000000000000000000000000000007d0",
          "blockHash": "0x97ec0c3d1e8859c72a72e0b6b22b572d63a6c771dd6aca768aaefce406ad4b64",
          "blockNumber": "0x728eb8",
          "blockTimestamp": "0x67d21d4b",
          "transactionHash": "0x21d1772548a08db462ea6792caa5034d7f4d1fc512307363223d54c6e77a3ddb",
          "transactionIndex": "0x27",
          "logIndex": "0x59",
          "removed": false
        }
      ],
      "logsBloom": "0x00000000002000000000000000000000000000000000000000000100000000000000000000000000000000000000000008000000000001000000000000200100000000000000000000000000000000100000000000000400001800000000000001000000000000001000000080000000000000000000010000200010000000000000000000000000000000000000000000000000000000000000000000000000020000000000000800001000000000040000000000000000000000000000000000000000000000000000008000000000000000000000000000000000000000000050000000000000000000000000000010000000000000000000000000000000",
      "type": "0x0",
      "transactionHash": "0x21d1772548a08db462ea6792caa5034d7f4d1fc512307363223d54c6e77a3ddb",
      "transactionIndex": "0x27",
      "blockHash": "0x97ec0c3d1e8859c72a72e0b6b22b572d63a6c771dd6aca768aaefce406ad4b64",
      "blockNumber": "0x728eb8",
      "gasUsed": "0x4cecc",
      "effectiveGasPrice": "0xc1b710800",
      "from": "0x77c037fbf42e85db1487b390b08f58c00f438812",
      "to": "0xfaa8f6f2e587a540e94a47724bdc357ecd49705d",
      "contractAddress": null
    },
    {
      "status": "0x1",
      "cumulativeGasUsed": "0xf046c7",
      "logs": [
        {
          "address": "0x58389610a3d13e8f380ee2ba077a6f36f2a90834",
          "topics": [
            "0x8c5be1e5ebec7d5bd14f71427d1e84f3dd0314c0f7b2291e5b200ac8c7c3b925",
            "0x000000000000000000000000812311d7bc2d2c788269cd5acc50e29e64694c91",
            "0x00000000000000000000000099bd3ff38f0dc9a819a0442f1d5ddbcd60072ece"
          ],
          "data": "0x0000000000000000000000000000000000000000000000000000000000000000",
          "blockHash": "0x8b9ca8dbc9c68284db18065f9f634622922a3b029dc0ccd021d16f5d2180ec59",
          "blockNumber": "0x728ebe",
          "blockTimestamp": "0x67d21d50",
          "transactionHash": "0x5638d014d47e6281dcd15a26771eff83e85c1e7fbca7bee68b2581ad8c79769d",
          "transactionIndex": "0x4b",
          "logIndex": "0x9b",
          "removed": false
        },
        {
          "address": "0x99bd3ff38f0dc9a819a0442f1d5ddbcd60072ece",
          "topics": [
            "0x8c5be1e5ebec7d5bd14f71427d1e84f3dd0314c0f7b2291e5b200ac8c7c3b925",
            "0x000000000000000000000000812311d7bc2d2c788269cd5acc50e29e64694c91",
            "0x0000000000000000000000002e505c38656ae7e6b1134f48b0daf6f725a6eaeb"
          ],
          "data": "0xffffffffffffffffffffffffffffffffffffffffffffffffffffffffffffffff",
          "blockHash": "0x8b9ca8dbc9c68284db18065f9f634622922a3b029dc0ccd021d16f5d2180ec59",
          "blockNumber": "0x728ebe",
          "blockTimestamp": "0x67d21d50",
          "transactionHash": "0x5638d014d47e6281dcd15a26771eff83e85c1e7fbca7bee68b2581ad8c79769d",
          "transactionIndex": "0x4b",
          "logIndex": "0x9c",
          "removed": false
        },
        {
          "address": "0x812311d7bc2d2c788269cd5acc50e29e64694c91",
          "topics": [
            "0xa64754291535175942be6f35fba8deab36d97ea608b17d06cc5efb985e17215f",
            "0x00000000000000000000000099bd3ff38f0dc9a819a0442f1d5ddbcd60072ece"
          ],
          "data": "0x00000000000000000000000000000000000000000000000000000000000007d0",
          "blockHash": "0x8b9ca8dbc9c68284db18065f9f634622922a3b029dc0ccd021d16f5d2180ec59",
          "blockNumber": "0x728ebe",
          "blockTimestamp": "0x67d21d50",
          "transactionHash": "0x5638d014d47e6281dcd15a26771eff83e85c1e7fbca7bee68b2581ad8c79769d",
          "transactionIndex": "0x4b",
          "logIndex": "0x9d",
          "removed": false
        }
      ],
      "logsBloom": "0x00000000002000000000000000000000000000000000000000000100000000000000000000000000000000000000000008000000000000000000000000200100000000000000000000000000000040000000000000000400001800000000000001000000000000000000000080000000000000000000010000200010000000000000000000000000000000000000000000100000000000000000000000000000020001000000000800000000000000050000000000000000000000000000000000000020000000000000000000000000000000000000000000000000000000000050000000000000000000000000000000000000000000000000000000100000",
      "type": "0x0",
      "transactionHash": "0x5638d014d47e6281dcd15a26771eff83e85c1e7fbca7bee68b2581ad8c79769d",
      "transactionIndex": "0x4b",
      "blockHash": "0x8b9ca8dbc9c68284db18065f9f634622922a3b029dc0ccd021d16f5d2180ec59",
      "blockNumber": "0x728ebe",
      "gasUsed": "0x4cecc",
      "effectiveGasPrice": "0xc1b710800",
      "from": "0x77c037fbf42e85db1487b390b08f58c00f438812",
      "to": "0xfaa8f6f2e587a540e94a47724bdc357ecd49705d",
      "contractAddress": null
    },
    {
      "status": "0x1",
      "cumulativeGasUsed": "0x5e0c10",
      "logs": [
        {
          "address": "0x58389610a3d13e8f380ee2ba077a6f36f2a90834",
          "topics": [
            "0x8c5be1e5ebec7d5bd14f71427d1e84f3dd0314c0f7b2291e5b200ac8c7c3b925",
            "0x000000000000000000000000812311d7bc2d2c788269cd5acc50e29e64694c91",
            "0x0000000000000000000000001664f516fbe65dd0089152c93f724b8810881fdc"
          ],
          "data": "0x0000000000000000000000000000000000000000000000000000000000000000",
          "blockHash": "0x7e931d57cc6264d62a78d65973e5f15eee0f5ff5f2d38ec1ecc2b82d2e9d0014",
          "blockNumber": "0x728ec5",
          "blockTimestamp": "0x67d21d53",
          "transactionHash": "0x54b02fb6ca2bba3f347473a75e4df74f437cfa4d719c282508ad97f72368a08c",
          "transactionIndex": "0x18",
          "logIndex": "0x2d",
          "removed": false
        },
        {
          "address": "0x1664f516fbe65dd0089152c93f724b8810881fdc",
          "topics": [
            "0x8c5be1e5ebec7d5bd14f71427d1e84f3dd0314c0f7b2291e5b200ac8c7c3b925",
            "0x000000000000000000000000812311d7bc2d2c788269cd5acc50e29e64694c91",
            "0x0000000000000000000000002e505c38656ae7e6b1134f48b0daf6f725a6eaeb"
          ],
          "data": "0xffffffffffffffffffffffffffffffffffffffffffffffffffffffffffffffff",
          "blockHash": "0x7e931d57cc6264d62a78d65973e5f15eee0f5ff5f2d38ec1ecc2b82d2e9d0014",
          "blockNumber": "0x728ec5",
          "blockTimestamp": "0x67d21d53",
          "transactionHash": "0x54b02fb6ca2bba3f347473a75e4df74f437cfa4d719c282508ad97f72368a08c",
          "transactionIndex": "0x18",
          "logIndex": "0x2e",
          "removed": false
        },
        {
          "address": "0x812311d7bc2d2c788269cd5acc50e29e64694c91",
          "topics": [
            "0xa64754291535175942be6f35fba8deab36d97ea608b17d06cc5efb985e17215f",
            "0x0000000000000000000000001664f516fbe65dd0089152c93f724b8810881fdc"
          ],
          "data": "0x00000000000000000000000000000000000000000000000000000000000007d0",
          "blockHash": "0x7e931d57cc6264d62a78d65973e5f15eee0f5ff5f2d38ec1ecc2b82d2e9d0014",
          "blockNumber": "0x728ec5",
          "blockTimestamp": "0x67d21d53",
          "transactionHash": "0x54b02fb6ca2bba3f347473a75e4df74f437cfa4d719c282508ad97f72368a08c",
          "transactionIndex": "0x18",
          "logIndex": "0x2f",
          "removed": false
        }
      ],
      "logsBloom": "0x00000000002000000000000000000000000000000000000000000100000000000000000000000000000000008000000008000000000000000000000000200100000000000000000040000000000000000000000000000c00001800000000000001100000000000400000000080000000000000000000010000200010000000000000000000000000000000000000000000000000000000000000000000000000020000000000000800000000000000040000000000000000000000000000000000000000000000000000000000000000000000000000000000000000000000000050000000000000000000000000000000000000000010000000000000000000",
      "type": "0x0",
      "transactionHash": "0x54b02fb6ca2bba3f347473a75e4df74f437cfa4d719c282508ad97f72368a08c",
      "transactionIndex": "0x18",
      "blockHash": "0x7e931d57cc6264d62a78d65973e5f15eee0f5ff5f2d38ec1ecc2b82d2e9d0014",
      "blockNumber": "0x728ec5",
      "gasUsed": "0x4cecc",
      "effectiveGasPrice": "0xc1b710800",
      "from": "0x77c037fbf42e85db1487b390b08f58c00f438812",
      "to": "0xfaa8f6f2e587a540e94a47724bdc357ecd49705d",
      "contractAddress": null
    }
  ],
  "libraries": [],
  "pending": [],
  "returns": {},
  "timestamp": 1741823317,
  "chain": 10143,
  "commit": "e7e6a38"
}