{
  "transactions": [
    {
      "hash": "0xa8830d75cbe6b3f08c77d912aa8a3424da576f209db5ceadae52deda0106dacf",
      "transactionType": "CALL",
      "contractName": null,
      "contractAddress": "0x37c15a5f7c7d8d4c707d44ff7e3ad696dda85d07",
      "function": "mint(address,uint256)",
      "arguments": [
        "0xe2Bc073E0d55274DBa18A0E11463A5DfD16c5057",
        "10000000000000000000"
      ],
      "transaction": {
        "from": "0xe2bc073e0d55274dba18a0e11463a5dfd16c5057",
        "to": "0x37c15a5f7c7d8d4c707d44ff7e3ad696dda85d07",
        "gas": "0xcb6a",
        "value": "0x0",
        "input": "0x40c10f19000000000000000000000000e2bc073e0d55274dba18a0e11463a5dfd16c50570000000000000000000000000000000000000000000000008ac7230489e80000",
        "nonce": "0x19",
        "chainId": "0xaa39db"
      },
      "additionalContracts": [],
      "isFixedGasLimit": false
    },
    {
      "hash": "0xbaa9cb97a3beff350adeaaa65bd963913ead328319e928fb89ed276641a795db",
      "transactionType": "CALL",
      "contractName": null,
      "contractAddress": "0x37c15a5f7c7d8d4c707d44ff7e3ad696dda85d07",
      "function": "approve(address,uint256)",
      "arguments": [
        "0x582264356c7DfeACA86B18209beED5a73b027DF1",
        "115792089237316195423570985008687907853269984665640564039457584007913129639935"
      ],
      "transaction": {
        "from": "0xe2bc073e0d55274dba18a0e11463a5dfd16c5057",
        "to": "0x37c15a5f7c7d8d4c707d44ff7e3ad696dda85d07",
        "gas": "0xfbd9",
        "value": "0x0",
        "input": "0x095ea7b3000000000000000000000000582264356c7dfeaca86b18209beed5a73b027df1ffffffffffffffffffffffffffffffffffffffffffffffffffffffffffffffff",
        "nonce": "0x1a",
        "chainId": "0xaa39db"
      },
      "additionalContracts": [],
      "isFixedGasLimit": false
    },
    {
      "hash": "0x05a90ddc4f662a398b63acc88019227619c1272f8547db0e12089557bde87b73",
      "transactionType": "CALL",
      "contractName": null,
      "contractAddress": "0x582264356c7dfeaca86b18209beed5a73b027df1",
      "function": "multicall(bytes[])",
      "arguments": [
        "[0xe6d66ac800000000000000000000000037c15a5f7c7d8d4c707d44ff7e3ad696dda85d070000000000000000000000002551c5f09aaa0e941732edf261afc6f10f5e76860000000000000000000000000000000000000000000000000de0b6b3a7640000, 0x293953b8000000000000000000000000e2bc073e0d55274dba18a0e11463a5dfd16c50570000000000000000000000000000000000000000000000000000000000000000000000000000000000000000f5cefc7a911f9beacf5f1abb9b551b6f721e105d00000000000000000000000037c15a5f7c7d8d4c707d44ff7e3ad696dda85d07000000000000000000000000f73081afed3fed09c92924ac16fa0c09af902e98000000000000000000000000000000000000000000000000000000000000000000000000000000000000000000000000000000000000000000000000000f4240]"
      ],
      "transaction": {
        "from": "0xe2bc073e0d55274dba18a0e11463a5dfd16c5057",
        "to": "0x582264356c7dfeaca86b18209beed5a73b027df1",
        "gas": "0x694ed",
        "value": "0x0",
        "input": "0xac9650d800000000000000000000000000000000000000000000000000000000000000200000000000000000000000000000000000000000000000000000000000000002000000000000000000000000000000000000000000000000000000000000004000000000000000000000000000000000000000000000000000000000000000e00000000000000000000000000000000000000000000000000000000000000064e6d66ac800000000000000000000000037c15a5f7c7d8d4c707d44ff7e3ad696dda85d070000000000000000000000002551c5f09aaa0e941732edf261afc6f10f5e76860000000000000000000000000000000000000000000000000de0b6b3a76400000000000000000000000000000000000000000000000000000000000000000000000000000000000000000000000000000000000000000000000000e4293953b8000000000000000000000000e2bc073e0d55274dba18a0e11463a5dfd16c50570000000000000000000000000000000000000000000000000000000000000000000000000000000000000000f5cefc7a911f9beacf5f1abb9b551b6f721e105d00000000000000000000000037c15a5f7c7d8d4c707d44ff7e3ad696dda85d07000000000000000000000000f73081afed3fed09c92924ac16fa0c09af902e98000000000000000000000000000000000000000000000000000000000000000000000000000000000000000000000000000000000000000000000000000f424000000000000000000000000000000000000000000000000000000000",
        "nonce": "0x1b",
        "chainId": "0xaa39db"
      },
      "additionalContracts": [],
      "isFixedGasLimit": false
    }
  ],
  "receipts": [
    {
      "status": "0x1",
      "cumulativeGasUsed": "0x13eab",
      "logs": [
        {
          "address": "0x37c15a5f7c7d8d4c707d44ff7e3ad696dda85d07",
          "topics": [
            "0xddf252ad1be2c89b69c2b068fc378daa952ba7f163c4a11628f55a4df523b3ef",
            "0x0000000000000000000000000000000000000000000000000000000000000000",
            "0x000000000000000000000000e2bc073e0d55274dba18a0e11463a5dfd16c5057"
          ],
          "data": "0x0000000000000000000000000000000000000000000000008ac7230489e80000",
          "blockHash": "0x1a77cea5f6fa9f224f9db7c2beaa9803881be257b6ca38680307cdf939af5f26",
          "blockNumber": "0x46917a",
          "blockTimestamp": "0x67b1ebf2",
          "transactionHash": "0xa8830d75cbe6b3f08c77d912aa8a3424da576f209db5ceadae52deda0106dacf",
          "transactionIndex": "0x1",
          "logIndex": "0x0",
          "removed": false
        },
        {
          "address": "0x37c15a5f7c7d8d4c707d44ff7e3ad696dda85d07",
          "topics": [
            "0x0f6798a560793a54c3bcfe86a93cde1e73087d944c0ea20544137d4121396885"
          ],
          "data": "0x000000000000000000000000e2bc073e0d55274dba18a0e11463a5dfd16c50570000000000000000000000000000000000000000000000008ac7230489e80000",
          "blockHash": "0x1a77cea5f6fa9f224f9db7c2beaa9803881be257b6ca38680307cdf939af5f26",
          "blockNumber": "0x46917a",
          "blockTimestamp": "0x67b1ebf2",
          "transactionHash": "0xa8830d75cbe6b3f08c77d912aa8a3424da576f209db5ceadae52deda0106dacf",
          "transactionIndex": "0x1",
          "logIndex": "0x1",
          "removed": false
        }
      ],
      "logsBloom": "0x00000000000000000000000000000000000000000000000000000000000000000000000000000000000000000000000000000000000000000000000000000000000000000020000000000008000000001000000000000000008000000000000000000000020000000000000004000800000000000000400000000010000000000000000000000000000000000000000000000000000000000000000000000000000080000010000000000000000000000000000000000000000000000000000000000002000000000000000000008000000000000000000000000000000020000000000400000000000000000000000000000000000000000000000000000000",
      "type": "0x2",
      "transactionHash": "0xa8830d75cbe6b3f08c77d912aa8a3424da576f209db5ceadae52deda0106dacf",
      "transactionIndex": "0x1",
      "blockHash": "0x1a77cea5f6fa9f224f9db7c2beaa9803881be257b6ca38680307cdf939af5f26",
      "blockNumber": "0x46917a",
      "gasUsed": "0x9345",
      "effectiveGasPrice": "0x8",
      "from": "0xe2bc073e0d55274dba18a0e11463a5dfd16c5057",
      "to": "0x37c15a5f7c7d8d4c707d44ff7e3ad696dda85d07",
      "contractAddress": null,
      "l1BaseFeeScalar": "0x558",
      "l1BlobBaseFee": "0x1",
      "l1BlobBaseFeeScalar": "0xc5fc5",
      "l1Fee": "0x98b107c0",
      "l1GasPrice": "0x45c2a843",
      "l1GasUsed": "0x640"
    },
    {
      "status": "0x1",
      "cumulativeGasUsed": "0x1f501",
      "logs": [
        {
          "address": "0x37c15a5f7c7d8d4c707d44ff7e3ad696dda85d07",
          "topics": [
            "0x8c5be1e5ebec7d5bd14f71427d1e84f3dd0314c0f7b2291e5b200ac8c7c3b925",
            "0x000000000000000000000000e2bc073e0d55274dba18a0e11463a5dfd16c5057",
            "0x000000000000000000000000582264356c7dfeaca86b18209beed5a73b027df1"
          ],
          "data": "0xffffffffffffffffffffffffffffffffffffffffffffffffffffffffffffffff",
          "blockHash": "0x1a77cea5f6fa9f224f9db7c2beaa9803881be257b6ca38680307cdf939af5f26",
          "blockNumber": "0x46917a",
          "blockTimestamp": "0x67b1ebf2",
          "transactionHash": "0xbaa9cb97a3beff350adeaaa65bd963913ead328319e928fb89ed276641a795db",
          "transactionIndex": "0x2",
          "logIndex": "0x2",
          "removed": false
        }
      ],
      "logsBloom": "0x00000000000000000000000000000000000000000000000000000000000000000000000000000000000000000000000000000000000000000000000000200000000000000000000000000000000000001000000000000000008000000000000000000000000000000000000004000000000000000000000000000000000000000000000000000000000000000000000000000000000000000000800000000000020000000010000000000000000000000000000000000000000000000000000000000000000000000200000000008000000000000000000000000000000000000010000400000000000000000000000000000000000000000000000400000000",
      "type": "0x2",
      "transactionHash": "0xbaa9cb97a3beff350adeaaa65bd963913ead328319e928fb89ed276641a795db",
      "transactionIndex": "0x2",
      "blockHash": "0x1a77cea5f6fa9f224f9db7c2beaa9803881be257b6ca38680307cdf939af5f26",
      "blockNumber": "0x46917a",
      "gasUsed": "0xb656",
      "effectiveGasPrice": "0x8",
      "from": "0xe2bc073e0d55274dba18a0e11463a5dfd16c5057",
      "to": "0x37c15a5f7c7d8d4c707d44ff7e3ad696dda85d07",
      "contractAddress": null,
      "l1BaseFeeScalar": "0x558",
      "l1BlobBaseFee": "0x1",
      "l1BlobBaseFeeScalar": "0xc5fc5",
      "l1Fee": "0x98b107c0",
      "l1GasPrice": "0x45c2a843",
      "l1GasUsed": "0x640"
    },
    {
      "status": "0x1",
      "cumulativeGasUsed": "0x6b8dd",
      "logs": [
        {
          "address": "0x37c15a5f7c7d8d4c707d44ff7e3ad696dda85d07",
          "topics": [
            "0xddf252ad1be2c89b69c2b068fc378daa952ba7f163c4a11628f55a4df523b3ef",
            "0x000000000000000000000000e2bc073e0d55274dba18a0e11463a5dfd16c5057",
            "0x0000000000000000000000002551c5f09aaa0e941732edf261afc6f10f5e7686"
          ],
          "data": "0x0000000000000000000000000000000000000000000000000de0b6b3a7640000",
          "blockHash": "0x1a77cea5f6fa9f224f9db7c2beaa9803881be257b6ca38680307cdf939af5f26",
          "blockNumber": "0x46917a",
          "blockTimestamp": "0x67b1ebf2",
          "transactionHash": "0x05a90ddc4f662a398b63acc88019227619c1272f8547db0e12089557bde87b73",
          "transactionIndex": "0x3",
          "logIndex": "0x3",
          "removed": false
        },
        {
          "address": "0xfac7d24c1f02290abf6e0e68a9b4f1b0425b579a",
          "topics": [
            "0xd3d640118416a526ad33075973727e1675055b2b31a8351bc74271d75fccef9b"
          ],
          "data": "0x0000000000000000000000000000000000000000000000000000000000000000000000000000000000000000e2bc073e0d55274dba18a0e11463a5dfd16c5057000000000000000000000000e2bc073e0d55274dba18a0e11463a5dfd16c50570000000000000000000000000000000000000000000000000000000000000000000000000000000000000000f5cefc7a911f9beacf5f1abb9b551b6f721e105d00000000000000000000000037c15a5f7c7d8d4c707d44ff7e3ad696dda85d07000000000000000000000000f73081afed3fed09c92924ac16fa0c09af902e9800000000000000000000000000000000000000000000000000000000000f42400000000000000000000000000000000000000000000000000de0b6b3a754bdc00000000000000000000000000000000000000000000000000000000000000000",
          "blockHash": "0x1a77cea5f6fa9f224f9db7c2beaa9803881be257b6ca38680307cdf939af5f26",
          "blockNumber": "0x46917a",
          "blockTimestamp": "0x67b1ebf2",
          "transactionHash": "0x05a90ddc4f662a398b63acc88019227619c1272f8547db0e12089557bde87b73",
          "transactionIndex": "0x3",
          "logIndex": "0x4",
          "removed": false
        }
      ],
      "logsBloom": "0x00000000000800000000000000000000000000000000000000000000040000000000200000000000000000000000000000000000000000000000000000000000000000000000000000000008000000001000000000000000008000080000000000000000000000000000000004000000000000000000000000000010200000000000000000000000000000000000000000000000000000000000010000000000000000000010000000000000000000000000000000000000000000000000000000000002000080000000000800008000000000000000000200000000000000000000000400000000000000000000000000000000000000000000000000000000",
      "type": "0x2",
      "transactionHash": "0x05a90ddc4f662a398b63acc88019227619c1272f8547db0e12089557bde87b73",
      "transactionIndex": "0x3",
      "blockHash": "0x1a77cea5f6fa9f224f9db7c2beaa9803881be257b6ca38680307cdf939af5f26",
      "blockNumber": "0x46917a",
      "gasUsed": "0x4c3dc",
      "effectiveGasPrice": "0x8",
      "from": "0xe2bc073e0d55274dba18a0e11463a5dfd16c5057",
      "to": "0x582264356c7dfeaca86b18209beed5a73b027df1",
      "contractAddress": null,
      "l1BaseFeeScalar": "0x558",
      "l1BlobBaseFee": "0x1",
      "l1BlobBaseFeeScalar": "0xc5fc5",
      "l1Fee": "0x153de4769",
      "l1GasPrice": "0x45c2a843",
      "l1GasUsed": "0xde9"
    }
  ],
  "libraries": [],
  "pending": [],
  "returns": {},
  "timestamp": 1739713524,
  "chain": 11155931,
  "commit": "63cc3db"
}