{
  "transactions": [
    {
      "hash": "0xd4955eee6732c0c479b19c091ccdd26511acb450bd6bea7b3c21358d3bee94c2",
      "transactionType": "CALL",
      "contractName": null,
      "contractAddress": "0x37c15a5f7c7d8d4c707d44ff7e3ad696dda85d07",
      "function": "mint(address,uint256)",
      "arguments": [
        "0xe2Bc073E0d55274DBa18A0E11463A5DfD16c5057",
        "10000000000000000000"
      ],
      "transaction": {
        "from": "0xe2bc073e0d55274dba18a0e11463a5dfd16c5057",
        "to": "0x37c15a5f7c7d8d4c707d44ff7e3ad696dda85d07",
        "gas": "0xcb6a",
        "value": "0x0",
        "input": "0x40c10f19000000000000000000000000e2bc073e0d55274dba18a0e11463a5dfd16c50570000000000000000000000000000000000000000000000008ac7230489e80000",
        "nonce": "0x51",
        "chainId": "0xaa39db"
      },
      "additionalContracts": [],
      "isFixedGasLimit": false
    },
    {
      "hash": "0x04b52091f603f94970284e5679c8678ba8c3381e5d2f8c74177abf8a839b899d",
      "transactionType": "CALL",
      "contractName": null,
      "contractAddress": "0xf73081afed3fed09c92924ac16fa0c09af902e98",
      "function": "mint(address,uint256)",
      "arguments": [
        "0xe2Bc073E0d55274DBa18A0E11463A5DfD16c5057",
        "3000000000000000000000"
      ],
      "transaction": {
        "from": "0xe2bc073e0d55274dba18a0e11463a5dfd16c5057",
        "to": "0xf73081afed3fed09c92924ac16fa0c09af902e98",
        "gas": "0xd773",
        "value": "0x0",
        "input": "0x40c10f19000000000000000000000000e2bc073e0d55274dba18a0e11463a5dfd16c50570000000000000000000000000000000000000000000000a2a15d09519be00000",
        "nonce": "0x52",
        "chainId": "0xaa39db"
      },
      "additionalContracts": [],
      "isFixedGasLimit": false
    },
    {
      "hash": "0x572aca49316791edb5e7f398012a8cea5d0661fd00e5ccd8bc262a215dc6885b",
      "transactionType": "CALL",
      "contractName": null,
      "contractAddress": "0x37c15a5f7c7d8d4c707d44ff7e3ad696dda85d07",
      "function": "approve(address,uint256)",
      "arguments": [
        "0xeB69E0A689e8a6fbdfA72b9d2882481512c783B7",
        "115792089237316195423570985008687907853269984665640564039457584007913129639935"
      ],
      "transaction": {
        "from": "0xe2bc073e0d55274dba18a0e11463a5dfd16c5057",
        "to": "0x37c15a5f7c7d8d4c707d44ff7e3ad696dda85d07",
        "gas": "0xfbd9",
        "value": "0x0",
        "input": "0x095ea7b3000000000000000000000000eb69e0a689e8a6fbdfa72b9d2882481512c783b7ffffffffffffffffffffffffffffffffffffffffffffffffffffffffffffffff",
        "nonce": "0x53",
        "chainId": "0xaa39db"
      },
      "additionalContracts": [],
      "isFixedGasLimit": false
    },
    {
      "hash": "0x088910d4ce924d0cdd5e78846d6da46a0c714aabbdc857038606320a4262c375",
      "transactionType": "CALL",
      "contractName": null,
      "contractAddress": "0xf73081afed3fed09c92924ac16fa0c09af902e98",
      "function": "approve(address,uint256)",
      "arguments": [
        "0xeB69E0A689e8a6fbdfA72b9d2882481512c783B7",
        "115792089237316195423570985008687907853269984665640564039457584007913129639935"
      ],
      "transaction": {
        "from": "0xe2bc073e0d55274dba18a0e11463a5dfd16c5057",
        "to": "0xf73081afed3fed09c92924ac16fa0c09af902e98",
        "gas": "0xfbd9",
        "value": "0x0",
        "input": "0x095ea7b3000000000000000000000000eb69e0a689e8a6fbdfa72b9d2882481512c783b7ffffffffffffffffffffffffffffffffffffffffffffffffffffffffffffffff",
        "nonce": "0x54",
        "chainId": "0xaa39db"
      },
      "additionalContracts": [],
      "isFixedGasLimit": false
    },
    {
      "hash": "0x9786853db245a1231b946201444d8786f6d109767a5a3e5687aa43b605c972fc",
      "transactionType": "CALL",
      "contractName": null,
      "contractAddress": "0xeb69e0a689e8a6fbdfa72b9d2882481512c783b7",
      "function": "multicall(bytes[])",
      "arguments": [
        "[0x7d39aaf10000000000000000000000000f29ebbc3f40a298026cfd1d76eccc30ed1b897f000000000000000000000000000000000000000000000000000000003b9aca00, 0xe6d66ac800000000000000000000000037c15a5f7c7d8d4c707d44ff7e3ad696dda85d070000000000000000000000000f29ebbc3f40a298026cfd1d76eccc30ed1b897f00000000000000000000000000000000000000000000003635c9adc5dea00000, 0xe6d66ac8000000000000000000000000f73081afed3fed09c92924ac16fa0c09af902e980000000000000000000000000f29ebbc3f40a298026cfd1d76eccc30ed1b897f0000000000000000000000000000000000000000000000a2a15d09519be00000, 0x293953b8000000000000000000000000e2bc073e0d55274dba18a0e11463a5dfd16c50570000000000000000000000000000000000000000000000000000000000000000000000000000000000000000217c52954ef4a9f7b334333fda22c609ff3e62bc00000000000000000000000037c15a5f7c7d8d4c707d44ff7e3ad696dda85d07000000000000000000000000f73081afed3fed09c92924ac16fa0c09af902e980000000000000000000000000000000000000000000000000000000000000000000000000000000000000000000000000000000000000000000000003b9aca00]"
      ],
      "transaction": {
        "from": "0xe2bc073e0d55274dba18a0e11463a5dfd16c5057",
        "to": "0xeb69e0a689e8a6fbdfa72b9d2882481512c783b7",
        "gas": "0x852d2",
        "value": "0x0",
        "input": "0xac9650d8000000000000000000000000000000000000000000000000000000000000002000000000000000000000000000000000000000000000000000000000000000040000000000000000000000000000000000000000000000000000000000000080000000000000000000000000000000000000000000000000000000000000010000000000000000000000000000000000000000000000000000000000000001a0000000000000000000000000000000000000000000000000000000000000024000000000000000000000000000000000000000000000000000000000000000447d39aaf10000000000000000000000000f29ebbc3f40a298026cfd1d76eccc30ed1b897f000000000000000000000000000000000000000000000000000000003b9aca00000000000000000000000000000000000000000000000000000000000000000000000000000000000000000000000000000000000000000000000064e6d66ac800000000000000000000000037c15a5f7c7d8d4c707d44ff7e3ad696dda85d070000000000000000000000000f29ebbc3f40a298026cfd1d76eccc30ed1b897f00000000000000000000000000000000000000000000003635c9adc5dea00000000000000000000000000000000000000000000000000000000000000000000000000000000000000000000000000000000000000000000000000064e6d66ac8000000000000000000000000f73081afed3fed09c92924ac16fa0c09af902e980000000000000000000000000f29ebbc3f40a298026cfd1d76eccc30ed1b897f0000000000000000000000000000000000000000000000a2a15d09519be000000000000000000000000000000000000000000000000000000000000000000000000000000000000000000000000000000000000000000000000000e4293953b8000000000000000000000000e2bc073e0d55274dba18a0e11463a5dfd16c50570000000000000000000000000000000000000000000000000000000000000000000000000000000000000000217c52954ef4a9f7b334333fda22c609ff3e62bc00000000000000000000000037c15a5f7c7d8d4c707d44ff7e3ad696dda85d07000000000000000000000000f73081afed3fed09c92924ac16fa0c09af902e980000000000000000000000000000000000000000000000000000000000000000000000000000000000000000000000000000000000000000000000003b9aca0000000000000000000000000000000000000000000000000000000000",
        "nonce": "0x55",
        "chainId": "0xaa39db"
      },
      "additionalContracts": [],
      "isFixedGasLimit": false
    }
  ],
  "receipts": [
    {
      "status": "0x1",
      "cumulativeGasUsed": "0x13ecf",
      "logs": [
        {
          "address": "0x37c15a5f7c7d8d4c707d44ff7e3ad696dda85d07",
          "topics": [
            "0xddf252ad1be2c89b69c2b068fc378daa952ba7f163c4a11628f55a4df523b3ef",
            "0x0000000000000000000000000000000000000000000000000000000000000000",
            "0x000000000000000000000000e2bc073e0d55274dba18a0e11463a5dfd16c5057"
          ],
          "data": "0x0000000000000000000000000000000000000000000000008ac7230489e80000",
          "blockHash": "0xafe58e7d2a6901ccad85cb49f352d13739e18228d4414d9b6903b029f4b7a317",
          "blockNumber": "0x4e7160",
          "blockTimestamp": "0x67b9cbd8",
          "transactionHash": "0xd4955eee6732c0c479b19c091ccdd26511acb450bd6bea7b3c21358d3bee94c2",
          "transactionIndex": "0x1",
          "logIndex": "0x0",
          "removed": false
        },
        {
          "address": "0x37c15a5f7c7d8d4c707d44ff7e3ad696dda85d07",
          "topics": [
            "0x0f6798a560793a54c3bcfe86a93cde1e73087d944c0ea20544137d4121396885"
          ],
          "data": "0x000000000000000000000000e2bc073e0d55274dba18a0e11463a5dfd16c50570000000000000000000000000000000000000000000000008ac7230489e80000",
          "blockHash": "0xafe58e7d2a6901ccad85cb49f352d13739e18228d4414d9b6903b029f4b7a317",
          "blockNumber": "0x4e7160",
          "blockTimestamp": "0x67b9cbd8",
          "transactionHash": "0xd4955eee6732c0c479b19c091ccdd26511acb450bd6bea7b3c21358d3bee94c2",
          "transactionIndex": "0x1",
          "logIndex": "0x1",
          "removed": false
        }
      ],
      "logsBloom": "0x00000000000000000000000000000000000000000000000000000000000000000000000000000000000000000000000000000000000000000000000000000000000000000020000000000008000000001000000000000000008000000000000000000000020000000000000004000800000000000000400000000010000000000000000000000000000000000000000000000000000000000000000000000000000080000010000000000000000000000000000000000000000000000000000000000002000000000000000000008000000000000000000000000000000020000000000400000000000000000000000000000000000000000000000000000000",
      "type": "0x2",
      "transactionHash": "0xd4955eee6732c0c479b19c091ccdd26511acb450bd6bea7b3c21358d3bee94c2",
      "transactionIndex": "0x1",
      "blockHash": "0xafe58e7d2a6901ccad85cb49f352d13739e18228d4414d9b6903b029f4b7a317",
      "blockNumber": "0x4e7160",
      "gasUsed": "0x9345",
      "effectiveGasPrice": "0x8",
      "from": "0xe2bc073e0d55274dba18a0e11463a5dfd16c5057",
      "to": "0x37c15a5f7c7d8d4c707d44ff7e3ad696dda85d07",
      "contractAddress": null,
      "l1BaseFeeScalar": "0x558",
      "l1BlobBaseFee": "0xb88c528",
      "l1BlobBaseFeeScalar": "0xc5fc5",
      "l1Fee": "0x533268728",
      "l1GasPrice": "0xb4d22c0c",
      "l1GasUsed": "0x640"
    },
    {
      "status": "0x1",
      "cumulativeGasUsed": "0x1d220",
      "logs": [
        {
          "address": "0xf73081afed3fed09c92924ac16fa0c09af902e98",
          "topics": [
            "0xddf252ad1be2c89b69c2b068fc378daa952ba7f163c4a11628f55a4df523b3ef",
            "0x0000000000000000000000000000000000000000000000000000000000000000",
            "0x000000000000000000000000e2bc073e0d55274dba18a0e11463a5dfd16c5057"
          ],
          "data": "0x0000000000000000000000000000000000000000000000a2a15d09519be00000",
          "blockHash": "0xafe58e7d2a6901ccad85cb49f352d13739e18228d4414d9b6903b029f4b7a317",
          "blockNumber": "0x4e7160",
          "blockTimestamp": "0x67b9cbd8",
          "transactionHash": "0x04b52091f603f94970284e5679c8678ba8c3381e5d2f8c74177abf8a839b899d",
          "transactionIndex": "0x2",
          "logIndex": "0x2",
          "removed": false
        },
        {
          "address": "0xf73081afed3fed09c92924ac16fa0c09af902e98",
          "topics": [
            "0x0f6798a560793a54c3bcfe86a93cde1e73087d944c0ea20544137d4121396885"
          ],
          "data": "0x000000000000000000000000e2bc073e0d55274dba18a0e11463a5dfd16c50570000000000000000000000000000000000000000000000a2a15d09519be00000",
          "blockHash": "0xafe58e7d2a6901ccad85cb49f352d13739e18228d4414d9b6903b029f4b7a317",
          "blockNumber": "0x4e7160",
          "blockTimestamp": "0x67b9cbd8",
          "transactionHash": "0x04b52091f603f94970284e5679c8678ba8c3381e5d2f8c74177abf8a839b899d",
          "transactionIndex": "0x2",
          "logIndex": "0x3",
          "removed": false
        }
      ],
      "logsBloom": "0x00000000000000000000000000000000000000000000000000000000000000000000000000000000000000000000000000000000000000000000000000000000000000000020000000000008000000001000000000000000000040000000000000000000020000000080000004000800000000000000480000000010000000000000000000000000000000000000000000000000000000000000000000000000000080000010000000000000000000000000000000000000000000000000000000000002000000000000000000000000000000000000000000000000000020000000000000000000000000000000000000000000000000000000000000000000",
      "type": "0x2",
      "transactionHash": "0x04b52091f603f94970284e5679c8678ba8c3381e5d2f8c74177abf8a839b899d",
      "transactionIndex": "0x2",
      "blockHash": "0xafe58e7d2a6901ccad85cb49f352d13739e18228d4414d9b6903b029f4b7a317",
      "blockNumber": "0x4e7160",
      "gasUsed": "0x9351",
      "effectiveGasPrice": "0x8",
      "from": "0xe2bc073e0d55274dba18a0e11463a5dfd16c5057",
      "to": "0xf73081afed3fed09c92924ac16fa0c09af902e98",
      "contractAddress": null,
      "l1BaseFeeScalar": "0x558",
      "l1BlobBaseFee": "0xb88c528",
      "l1BlobBaseFeeScalar": "0xc5fc5",
      "l1Fee": "0x533268728",
      "l1GasPrice": "0xb4d22c0c",
      "l1GasUsed": "0x640"
    },
    {
      "status": "0x1",
      "cumulativeGasUsed": "0x161e0",
      "logs": [
        {
          "address": "0x37c15a5f7c7d8d4c707d44ff7e3ad696dda85d07",
          "topics": [
            "0x8c5be1e5ebec7d5bd14f71427d1e84f3dd0314c0f7b2291e5b200ac8c7c3b925",
            "0x000000000000000000000000e2bc073e0d55274dba18a0e11463a5dfd16c5057",
            "0x000000000000000000000000eb69e0a689e8a6fbdfa72b9d2882481512c783b7"
          ],
          "data": "0xffffffffffffffffffffffffffffffffffffffffffffffffffffffffffffffff",
          "blockHash": "0x1eea00a96a255a4cbd15b80ea0e380c17b3f6677b567bfd6e2a9abb0eefb95ec",
          "blockNumber": "0x4e7161",
          "blockTimestamp": "0x67b9cbd9",
          "transactionHash": "0x572aca49316791edb5e7f398012a8cea5d0661fd00e5ccd8bc262a215dc6885b",
          "transactionIndex": "0x1",
          "logIndex": "0x0",
          "removed": false
        }
      ],
      "logsBloom": "0x00000000000000000000000000000000000000000000000000000000000000000000000000000000000000000000000000000000000000000004000000200000000000000000000000000000000000001000000000000000008000000000000000000000000000000000000004000000000000000000000000000000000000000000000000000000000000000000000000000000000000000000000000000000020000000010000000000000000000000000000000000000000000000000000000000000000000000000000008008000000000000000000000020000000000000010000400000000000000000000000000000000000000000000000000000000",
      "type": "0x2",
      "transactionHash": "0x572aca49316791edb5e7f398012a8cea5d0661fd00e5ccd8bc262a215dc6885b",
      "transactionIndex": "0x1",
      "blockHash": "0x1eea00a96a255a4cbd15b80ea0e380c17b3f6677b567bfd6e2a9abb0eefb95ec",
      "blockNumber": "0x4e7161",
      "gasUsed": "0xb656",
      "effectiveGasPrice": "0x8",
      "from": "0xe2bc073e0d55274dba18a0e11463a5dfd16c5057",
      "to": "0x37c15a5f7c7d8d4c707d44ff7e3ad696dda85d07",
      "contractAddress": null,
      "l1BaseFeeScalar": "0x558",
      "l1BlobBaseFee": "0xb88c528",
      "l1BlobBaseFeeScalar": "0xc5fc5",
      "l1Fee": "0x533268728",
      "l1GasPrice": "0xb4d22c0c",
      "l1GasUsed": "0x640"
    },
    {
      "status": "0x1",
      "cumulativeGasUsed": "0x21836",
      "logs": [
        {
          "address": "0xf73081afed3fed09c92924ac16fa0c09af902e98",
          "topics": [
            "0x8c5be1e5ebec7d5bd14f71427d1e84f3dd0314c0f7b2291e5b200ac8c7c3b925",
            "0x000000000000000000000000e2bc073e0d55274dba18a0e11463a5dfd16c5057",
            "0x000000000000000000000000eb69e0a689e8a6fbdfa72b9d2882481512c783b7"
          ],
          "data": "0xffffffffffffffffffffffffffffffffffffffffffffffffffffffffffffffff",
          "blockHash": "0x1eea00a96a255a4cbd15b80ea0e380c17b3f6677b567bfd6e2a9abb0eefb95ec",
          "blockNumber": "0x4e7161",
          "blockTimestamp": "0x67b9cbd9",
          "transactionHash": "0x088910d4ce924d0cdd5e78846d6da46a0c714aabbdc857038606320a4262c375",
          "transactionIndex": "0x2",
          "logIndex": "0x1",
          "removed": false
        }
      ],
      "logsBloom": "0x00000000000000000000000000000000000000000000000000000000000000000000000000000000000000000000000000000000000000000004000000200000000000000000000000000000000000001000000000000000000040000000000000000000000000000080000004000000000000000000080000000000000000000000000000000000000000000000000000000000000000000000000000000000020000000010000000000000000000000000000000000000000000000000000000000000000000000000000008000000000000000000000000020000000000000010000000000000000000000000000000000000000000000000000000000000",
      "type": "0x2",
      "transactionHash": "0x088910d4ce924d0cdd5e78846d6da46a0c714aabbdc857038606320a4262c375",
      "transactionIndex": "0x2",
      "blockHash": "0x1eea00a96a255a4cbd15b80ea0e380c17b3f6677b567bfd6e2a9abb0eefb95ec",
      "blockNumber": "0x4e7161",
      "gasUsed": "0xb656",
      "effectiveGasPrice": "0x8",
      "from": "0xe2bc073e0d55274dba18a0e11463a5dfd16c5057",
      "to": "0xf73081afed3fed09c92924ac16fa0c09af902e98",
      "contractAddress": null,
      "l1BaseFeeScalar": "0x558",
      "l1BlobBaseFee": "0xb88c528",
      "l1BlobBaseFeeScalar": "0xc5fc5",
      "l1Fee": "0x533268728",
      "l1GasPrice": "0xb4d22c0c",
      "l1GasUsed": "0x640"
    },
    {
      "status": "0x1",
      "cumulativeGasUsed": "0x81ee4",
      "logs": [
        {
          "address": "0x37c15a5f7c7d8d4c707d44ff7e3ad696dda85d07",
          "topics": [
            "0xddf252ad1be2c89b69c2b068fc378daa952ba7f163c4a11628f55a4df523b3ef",
            "0x000000000000000000000000e2bc073e0d55274dba18a0e11463a5dfd16c5057",
            "0x0000000000000000000000000f29ebbc3f40a298026cfd1d76eccc30ed1b897f"
          ],
          "data": "0x000000000000000000000000000000000000000000000000000000003b9aca00",
          "blockHash": "0x1eea00a96a255a4cbd15b80ea0e380c17b3f6677b567bfd6e2a9abb0eefb95ec",
          "blockNumber": "0x4e7161",
          "blockTimestamp": "0x67b9cbd9",
          "transactionHash": "0x9786853db245a1231b946201444d8786f6d109767a5a3e5687aa43b605c972fc",
          "transactionIndex": "0x3",
          "logIndex": "0x2",
          "removed": false
        },
        {
          "address": "0x37c15a5f7c7d8d4c707d44ff7e3ad696dda85d07",
          "topics": [
            "0xddf252ad1be2c89b69c2b068fc378daa952ba7f163c4a11628f55a4df523b3ef",
            "0x000000000000000000000000e2bc073e0d55274dba18a0e11463a5dfd16c5057",
            "0x0000000000000000000000000f29ebbc3f40a298026cfd1d76eccc30ed1b897f"
          ],
          "data": "0x00000000000000000000000000000000000000000000003635c9adc5dea00000",
          "blockHash": "0x1eea00a96a255a4cbd15b80ea0e380c17b3f6677b567bfd6e2a9abb0eefb95ec",
          "blockNumber": "0x4e7161",
          "blockTimestamp": "0x67b9cbd9",
          "transactionHash": "0x9786853db245a1231b946201444d8786f6d109767a5a3e5687aa43b605c972fc",
          "transactionIndex": "0x3",
          "logIndex": "0x3",
          "removed": false
        },
        {
          "address": "0xf73081afed3fed09c92924ac16fa0c09af902e98",
          "topics": [
            "0xddf252ad1be2c89b69c2b068fc378daa952ba7f163c4a11628f55a4df523b3ef",
            "0x000000000000000000000000e2bc073e0d55274dba18a0e11463a5dfd16c5057",
            "0x0000000000000000000000000f29ebbc3f40a298026cfd1d76eccc30ed1b897f"
          ],
          "data": "0x0000000000000000000000000000000000000000000000a2a15d09519be00000",
          "blockHash": "0x1eea00a96a255a4cbd15b80ea0e380c17b3f6677b567bfd6e2a9abb0eefb95ec",
          "blockNumber": "0x4e7161",
          "blockTimestamp": "0x67b9cbd9",
          "transactionHash": "0x9786853db245a1231b946201444d8786f6d109767a5a3e5687aa43b605c972fc",
          "transactionIndex": "0x3",
          "logIndex": "0x4",
          "removed": false
        },
        {
          "address": "0x08d649c08a02c2ac340111f3e39283883f9bcf6e",
          "topics": [
            "0xd3d640118416a526ad33075973727e1675055b2b31a8351bc74271d75fccef9b"
          ],
          "data": "0x0000000000000000000000000000000000000000000000000000000000000000000000000000000000000000e2bc073e0d55274dba18a0e11463a5dfd16c5057000000000000000000000000e2bc073e0d55274dba18a0e11463a5dfd16c50570000000000000000000000000000000000000000000000000000000000000000000000000000000000000000217c52954ef4a9f7b334333fda22c609ff3e62bc00000000000000000000000037c15a5f7c7d8d4c707d44ff7e3ad696dda85d07000000000000000000000000f73081afed3fed09c92924ac16fa0c09af902e98000000000000000000000000000000000000000000000000000000003b9aca0000000000000000000000000000000000000000000000003635c9adc5dea000000000000000000000000000000000000000000000000000a2a15d09519be00000",
          "blockHash": "0x1eea00a96a255a4cbd15b80ea0e380c17b3f6677b567bfd6e2a9abb0eefb95ec",
          "blockNumber": "0x4e7161",
          "blockTimestamp": "0x67b9cbd9",
          "transactionHash": "0x9786853db245a1231b946201444d8786f6d109767a5a3e5687aa43b605c972fc",
          "transactionIndex": "0x3",
          "logIndex": "0x5",
          "removed": false
        }
      ],
      "logsBloom": "0x00000000000000000000000040000000000000000000000000000000040000040000000000000000000000000000000000000000000000000000000000000000000000000000000000000008000000001000000000000000008040000000000000000004000000000080000004000000000000000000080000000010200000000000000000000000000000000020000000000000000000000000000000000000000000000010000000000000000000008040000000000000000000000000000000000002000080000000000000008000000000000000000000000000000000000000000400000000000000000000000000000000000000000000000000000000",
      "type": "0x2",
      "transactionHash": "0x9786853db245a1231b946201444d8786f6d109767a5a3e5687aa43b605c972fc",
      "transactionIndex": "0x3",
      "blockHash": "0x1eea00a96a255a4cbd15b80ea0e380c17b3f6677b567bfd6e2a9abb0eefb95ec",
      "blockNumber": "0x4e7161",
      "gasUsed": "0x606ae",
      "effectiveGasPrice": "0x8",
      "from": "0xe2bc073e0d55274dba18a0e11463a5dfd16c5057",
      "to": "0xeb69e0a689e8a6fbdfa72b9d2882481512c783b7",
      "contractAddress": null,
      "l1BaseFeeScalar": "0x558",
      "l1BlobBaseFee": "0xb88c528",
      "l1BlobBaseFeeScalar": "0xc5fc5",
      "l1Fee": "0xe18c63852",
      "l1GasPrice": "0xb4d22c0c",
      "l1GasUsed": "0x10f1"
    }
  ],
  "libraries": [],
  "pending": [],
  "returns": {},
  "timestamp": 1740229594,
  "chain": 11155931,
  "commit": "35df5d8"
}