{
  "transactions": [
    {
      "hash": "0x5e848f6071ccc3c0c3bf2578d45b627aa4e3ce6c282f9a768bc04f279a5708f6",
      "transactionType": "CALL",
      "contractName": null,
      "contractAddress": "0x1c0e607b05ca3409a3c3e38afa122d5f84e8d8ea",
      "function": "setSigner(address,address,bool)",
      "arguments": [
        "0x37c15A5f7c7d8d4C707d44Ff7E3aD696ddA85d07",
        "0xe2Bc073E0d55274DBa18A0E11463A5DfD16c5057",
        "true"
      ],
      "transaction": {
        "from": "0xe2bc073e0d55274dba18a0e11463a5dfd16c5057",
        "to": "0x1c0e607b05ca3409a3c3e38afa122d5f84e8d8ea",
        "gas": "0x114f8",
        "value": "0x0",
        "input": "0xa1dc139d00000000000000000000000037c15a5f7c7d8d4c707d44ff7e3ad696dda85d07000000000000000000000000e2bc073e0d55274dba18a0e11463a5dfd16c50570000000000000000000000000000000000000000000000000000000000000001",
        "nonce": "0x49",
        "chainId": "0xaa39db"
      },
      "additionalContracts": [],
      "isFixedGasLimit": false
    },
    {
      "hash": "0x56aafec83a421edfad519f24cc499e5c438a0c314bd13f00c5ce2ed061249a33",
      "transactionType": "CALL",
      "contractName": null,
      "contractAddress": "0x1c0e607b05ca3409a3c3e38afa122d5f84e8d8ea",
      "function": "setSigner(address,address,bool)",
      "arguments": [
        "0xf73081AfEd3Fed09c92924Ac16fa0c09aF902E98",
        "0xe2Bc073E0d55274DBa18A0E11463A5DfD16c5057",
        "true"
      ],
      "transaction": {
        "from": "0xe2bc073e0d55274dba18a0e11463a5dfd16c5057",
        "to": "0x1c0e607b05ca3409a3c3e38afa122d5f84e8d8ea",
        "gas": "0x114f8",
        "value": "0x0",
        "input": "0xa1dc139d000000000000000000000000f73081afed3fed09c92924ac16fa0c09af902e98000000000000000000000000e2bc073e0d55274dba18a0e11463a5dfd16c50570000000000000000000000000000000000000000000000000000000000000001",
        "nonce": "0x4a",
        "chainId": "0xaa39db"
      },
      "additionalContracts": [],
      "isFixedGasLimit": false
    },
    {
      "hash": "0x7724c3e12fc2fa42278e48bbed49dea57e95106875665f7cad0068ce3efdb514",
      "transactionType": "CALL",
      "contractName": null,
      "contractAddress": "0x1c0e607b05ca3409a3c3e38afa122d5f84e8d8ea",
      "function": "setMinSigners(address,uint256)",
      "arguments": [
        "0x37c15A5f7c7d8d4C707d44Ff7E3aD696ddA85d07",
        "1"
      ],
      "transaction": {
        "from": "0xe2bc073e0d55274dba18a0e11463a5dfd16c5057",
        "to": "0x1c0e607b05ca3409a3c3e38afa122d5f84e8d8ea",
        "gas": "0x10043",
        "value": "0x0",
        "input": "0x717f4ada00000000000000000000000037c15a5f7c7d8d4c707d44ff7e3ad696dda85d070000000000000000000000000000000000000000000000000000000000000001",
        "nonce": "0x4b",
        "chainId": "0xaa39db"
      },
      "additionalContracts": [],
      "isFixedGasLimit": false
    },
    {
      "hash": "0xd0fc9af11f2c0ce6580d2a696322b8b006886bcdec03ea67c4e021aad56a6e4d",
      "transactionType": "CALL",
      "contractName": null,
      "contractAddress": "0x1c0e607b05ca3409a3c3e38afa122d5f84e8d8ea",
      "function": "setMinSigners(address,uint256)",
      "arguments": [
        "0xf73081AfEd3Fed09c92924Ac16fa0c09aF902E98",
        "1"
      ],
      "transaction": {
        "from": "0xe2bc073e0d55274dba18a0e11463a5dfd16c5057",
        "to": "0x1c0e607b05ca3409a3c3e38afa122d5f84e8d8ea",
        "gas": "0x10043",
        "value": "0x0",
        "input": "0x717f4ada000000000000000000000000f73081afed3fed09c92924ac16fa0c09af902e980000000000000000000000000000000000000000000000000000000000000001",
        "nonce": "0x4c",
        "chainId": "0xaa39db"
      },
      "additionalContracts": [],
      "isFixedGasLimit": false
    },
    {
      "hash": "0x0ce49aa94b31825f04959568cf75b8955c98e0bce8d82edb68a88c95a6ffcd53",
      "transactionType": "CALL",
      "contractName": null,
      "contractAddress": "0x1c0e607b05ca3409a3c3e38afa122d5f84e8d8ea",
      "function": "setMaxPriceAge(address,uint256)",
      "arguments": [
        "0x37c15A5f7c7d8d4C707d44Ff7E3aD696ddA85d07",
        "3600"
      ],
      "transaction": {
        "from": "0xe2bc073e0d55274dba18a0e11463a5dfd16c5057",
        "to": "0x1c0e607b05ca3409a3c3e38afa122d5f84e8d8ea",
        "gas": "0xfa77",
        "value": "0x0",
        "input": "0xddac7f1b00000000000000000000000037c15a5f7c7d8d4c707d44ff7e3ad696dda85d070000000000000000000000000000000000000000000000000000000000000e10",
        "nonce": "0x4d",
        "chainId": "0xaa39db"
      },
      "additionalContracts": [],
      "isFixedGasLimit": false
    },
    {
      "hash": "0xd8ea9630396b80b7b73cd0b8518ceac93e38f13c188b36eeb454d66ff7376971",
      "transactionType": "CALL",
      "contractName": null,
      "contractAddress": "0x1c0e607b05ca3409a3c3e38afa122d5f84e8d8ea",
      "function": "setMaxPriceAge(address,uint256)",
      "arguments": [
        "0xf73081AfEd3Fed09c92924Ac16fa0c09aF902E98",
        "3600"
      ],
      "transaction": {
        "from": "0xe2bc073e0d55274dba18a0e11463a5dfd16c5057",
        "to": "0x1c0e607b05ca3409a3c3e38afa122d5f84e8d8ea",
        "gas": "0xfa77",
        "value": "0x0",
        "input": "0xddac7f1b000000000000000000000000f73081afed3fed09c92924ac16fa0c09af902e980000000000000000000000000000000000000000000000000000000000000e10",
        "nonce": "0x4e",
        "chainId": "0xaa39db"
      },
      "additionalContracts": [],
      "isFixedGasLimit": false
    }
  ],
  "receipts": [
    {
      "status": "0x1",
      "cumulativeGasUsed": "0x168ec",
      "logs": [
        {
          "address": "0x1c0e607b05ca3409a3c3e38afa122d5f84e8d8ea",
          "topics": [
            "0x1364a7d9e8f00b65e45259e034365ab86eb13d9606c134014bbcc34454142fa2"
          ],
          "data": "0x00000000000000000000000037c15a5f7c7d8d4c707d44ff7e3ad696dda85d07000000000000000000000000e2bc073e0d55274dba18a0e11463a5dfd16c50570000000000000000000000000000000000000000000000000000000000000001",
          "blockHash": "0xcd43a2c68e068cc155de0cb26189b26ecb1558b6f680239e6809c98b6847ae12",
          "blockNumber": "0x4e70fb",
          "blockTimestamp": "0x67b9cb73",
          "transactionHash": "0x5e848f6071ccc3c0c3bf2578d45b627aa4e3ce6c282f9a768bc04f279a5708f6",
          "transactionIndex": "0x1",
          "logIndex": "0x0",
          "removed": false
        }
      ],
      "logsBloom": "0x00000000000000000000000000000000001000000000000000000000000000000000000000000000000000000000000000000000400000000000000000000000000000000000000000000000000000000000000000000000000000000000000000000000000000000000000000000000000000000000000000000000004000000000000000000000000000000000000000000000000000000000000000000000000000000000000000000000000000000000000000000000000000002000000000000000800000000000000000000000000000000000000000000000000000000000000000000000000000000000200000000000000000000000000000000000",
      "type": "0x2",
      "transactionHash": "0x5e848f6071ccc3c0c3bf2578d45b627aa4e3ce6c282f9a768bc04f279a5708f6",
      "transactionIndex": "0x1",
      "blockHash": "0xcd43a2c68e068cc155de0cb26189b26ecb1558b6f680239e6809c98b6847ae12",
      "blockNumber": "0x4e70fb",
      "gasUsed": "0xbd62",
      "effectiveGasPrice": "0x8",
      "from": "0xe2bc073e0d55274dba18a0e11463a5dfd16c5057",
      "to": "0x1c0e607b05ca3409a3c3e38afa122d5f84e8d8ea",
      "contractAddress": null,
      "l1BaseFeeScalar": "0x558",
      "l1BlobBaseFee": "0xe09386b",
      "l1BlobBaseFeeScalar": "0xc5fc5",
      "l1Fee": "0x5f0a63508",
      "l1GasPrice": "0xab8df8f3",
      "l1GasUsed": "0x647"
    },
    {
      "status": "0x1",
      "cumulativeGasUsed": "0x2264e",
      "logs": [
        {
          "address": "0x1c0e607b05ca3409a3c3e38afa122d5f84e8d8ea",
          "topics": [
            "0x1364a7d9e8f00b65e45259e034365ab86eb13d9606c134014bbcc34454142fa2"
          ],
          "data": "0x000000000000000000000000f73081afed3fed09c92924ac16fa0c09af902e98000000000000000000000000e2bc073e0d55274dba18a0e11463a5dfd16c50570000000000000000000000000000000000000000000000000000000000000001",
          "blockHash": "0xcd43a2c68e068cc155de0cb26189b26ecb1558b6f680239e6809c98b6847ae12",
          "blockNumber": "0x4e70fb",
          "blockTimestamp": "0x67b9cb73",
          "transactionHash": "0x56aafec83a421edfad519f24cc499e5c438a0c314bd13f00c5ce2ed061249a33",
          "transactionIndex": "0x2",
          "logIndex": "0x1",
          "removed": false
        }
      ],
      "logsBloom": "0x00000000000000000000000000000000001000000000000000000000000000000000000000000000000000000000000000000000400000000000000000000000000000000000000000000000000000000000000000000000000000000000000000000000000000000000000000000000000000000000000000000000004000000000000000000000000000000000000000000000000000000000000000000000000000000000000000000000000000000000000000000000000000002000000000000000800000000000000000000000000000000000000000000000000000000000000000000000000000000000200000000000000000000000000000000000",
      "type": "0x2",
      "transactionHash": "0x56aafec83a421edfad519f24cc499e5c438a0c314bd13f00c5ce2ed061249a33",
      "transactionIndex": "0x2",
      "blockHash": "0xcd43a2c68e068cc155de0cb26189b26ecb1558b6f680239e6809c98b6847ae12",
      "blockNumber": "0x4e70fb",
      "gasUsed": "0xbd62",
      "effectiveGasPrice": "0x8",
      "from": "0xe2bc073e0d55274dba18a0e11463a5dfd16c5057",
      "to": "0x1c0e607b05ca3409a3c3e38afa122d5f84e8d8ea",
      "contractAddress": null,
      "l1BaseFeeScalar": "0x558",
      "l1BlobBaseFee": "0xe09386b",
      "l1BlobBaseFeeScalar": "0xc5fc5",
      "l1Fee": "0x5f0a63508",
      "l1GasPrice": "0xab8df8f3",
      "l1GasUsed": "0x647"
    },
    {
      "status": "0x1",
      "cumulativeGasUsed": "0x16512",
      "logs": [
        {
          "address": "0x1c0e607b05ca3409a3c3e38afa122d5f84e8d8ea",
          "topics": [
            "0x7e083367dc9afc5277987d3a84d49e116d9234335bdd7e469b63c11504476fa8"
          ],
          "data": "0x00000000000000000000000037c15a5f7c7d8d4c707d44ff7e3ad696dda85d070000000000000000000000000000000000000000000000000000000000000001",
          "blockHash": "0xc9d02df6ab48e6d3c24d5439f15fae2c46ab73cec319fd0a925e6f7c77f344fd",
          "blockNumber": "0x4e70fc",
          "blockTimestamp": "0x67b9cb74",
          "transactionHash": "0x7724c3e12fc2fa42278e48bbed49dea57e95106875665f7cad0068ce3efdb514",
          "transactionIndex": "0x1",
          "logIndex": "0x0",
          "removed": false
        }
      ],
      "logsBloom": "0x00000000000000000000000000000000001000000000000000000000000000000000000000000000000000000000000000000000400000000000000000000000000000000000000000000000000000000000000000000000000000000000000000000000000000000000000000000000000000000000000000000000010000000000000000000000000000000000000000000000000000000000000000000000000000000000000000000002000000000000000000000000000000002000000000000000000000000000000000000000000000000000000000000000000000000000000000000000000000000000000000000000002000000000000000000000",
      "type": "0x2",
      "transactionHash": "0x7724c3e12fc2fa42278e48bbed49dea57e95106875665f7cad0068ce3efdb514",
      "transactionIndex": "0x1",
      "blockHash": "0xc9d02df6ab48e6d3c24d5439f15fae2c46ab73cec319fd0a925e6f7c77f344fd",
      "blockNumber": "0x4e70fc",
      "gasUsed": "0xb988",
      "effectiveGasPrice": "0x8",
      "from": "0xe2bc073e0d55274dba18a0e11463a5dfd16c5057",
      "to": "0x1c0e607b05ca3409a3c3e38afa122d5f84e8d8ea",
      "contractAddress": null,
      "l1BaseFeeScalar": "0x558",
      "l1BlobBaseFee": "0xe09386b",
      "l1BlobBaseFeeScalar": "0xc5fc5",
      "l1Fee": "0x5e9bf8177",
      "l1GasPrice": "0xab8df8f3",
      "l1GasUsed": "0x640"
    },
    {
      "status": "0x1",
      "cumulativeGasUsed": "0x21e9a",
      "logs": [
        {
          "address": "0x1c0e607b05ca3409a3c3e38afa122d5f84e8d8ea",
          "topics": [
            "0x7e083367dc9afc5277987d3a84d49e116d9234335bdd7e469b63c11504476fa8"
          ],
          "data": "0x000000000000000000000000f73081afed3fed09c92924ac16fa0c09af902e980000000000000000000000000000000000000000000000000000000000000001",
          "blockHash": "0xc9d02df6ab48e6d3c24d5439f15fae2c46ab73cec319fd0a925e6f7c77f344fd",
          "blockNumber": "0x4e70fc",
          "blockTimestamp": "0x67b9cb74",
          "transactionHash": "0xd0fc9af11f2c0ce6580d2a696322b8b006886bcdec03ea67c4e021aad56a6e4d",
          "transactionIndex": "0x2",
          "logIndex": "0x1",
          "removed": false
        }
      ],
      "logsBloom": "0x00000000000000000000000000000000001000000000000000000000000000000000000000000000000000000000000000000000400000000000000000000000000000000000000000000000000000000000000000000000000000000000000000000000000000000000000000000000000000000000000000000000010000000000000000000000000000000000000000000000000000000000000000000000000000000000000000000002000000000000000000000000000000002000000000000000000000000000000000000000000000000000000000000000000000000000000000000000000000000000000000000000002000000000000000000000",
      "type": "0x2",
      "transactionHash": "0xd0fc9af11f2c0ce6580d2a696322b8b006886bcdec03ea67c4e021aad56a6e4d",
      "transactionIndex": "0x2",
      "blockHash": "0xc9d02df6ab48e6d3c24d5439f15fae2c46ab73cec319fd0a925e6f7c77f344fd",
      "blockNumber": "0x4e70fc",
      "gasUsed": "0xb988",
      "effectiveGasPrice": "0x8",
      "from": "0xe2bc073e0d55274dba18a0e11463a5dfd16c5057",
      "to": "0x1c0e607b05ca3409a3c3e38afa122d5f84e8d8ea",
      "contractAddress": null,
      "l1BaseFeeScalar": "0x558",
      "l1BlobBaseFee": "0xe09386b",
      "l1BlobBaseFeeScalar": "0xc5fc5",
      "l1Fee": "0x5e9bf8177",
      "l1GasPrice": "0xab8df8f3",
      "l1GasUsed": "0x640"
    },
    {
      "status": "0x1",
      "cumulativeGasUsed": "0x2d3f0",
      "logs": [],
      "logsBloom": "0x00000000000000000000000000000000000000000000000000000000000000000000000000000000000000000000000000000000000000000000000000000000000000000000000000000000000000000000000000000000000000000000000000000000000000000000000000000000000000000000000000000000000000000000000000000000000000000000000000000000000000000000000000000000000000000000000000000000000000000000000000000000000000000000000000000000000000000000000000000000000000000000000000000000000000000000000000000000000000000000000000000000000000000000000000000000",
      "type": "0x2",
      "transactionHash": "0x0ce49aa94b31825f04959568cf75b8955c98e0bce8d82edb68a88c95a6ffcd53",
      "transactionIndex": "0x3",
      "blockHash": "0xc9d02df6ab48e6d3c24d5439f15fae2c46ab73cec319fd0a925e6f7c77f344fd",
      "blockNumber": "0x4e70fc",
      "gasUsed": "0xb556",
      "effectiveGasPrice": "0x8",
      "from": "0xe2bc073e0d55274dba18a0e11463a5dfd16c5057",
      "to": "0x1c0e607b05ca3409a3c3e38afa122d5f84e8d8ea",
      "contractAddress": null,
      "l1BaseFeeScalar": "0x558",
      "l1BlobBaseFee": "0xe09386b",
      "l1BlobBaseFeeScalar": "0xc5fc5",
      "l1Fee": "0x5e9bf8177",
      "l1GasPrice": "0xab8df8f3",
      "l1GasUsed": "0x640"
    },
    {
      "status": "0x1",
      "cumulativeGasUsed": "0x38946",
      "logs": [],
      "logsBloom": "0x00000000000000000000000000000000000000000000000000000000000000000000000000000000000000000000000000000000000000000000000000000000000000000000000000000000000000000000000000000000000000000000000000000000000000000000000000000000000000000000000000000000000000000000000000000000000000000000000000000000000000000000000000000000000000000000000000000000000000000000000000000000000000000000000000000000000000000000000000000000000000000000000000000000000000000000000000000000000000000000000000000000000000000000000000000000",
      "type": "0x2",
      "transactionHash": "0xd8ea9630396b80b7b73cd0b8518ceac93e38f13c188b36eeb454d66ff7376971",
      "transactionIndex": "0x4",
      "blockHash": "0xc9d02df6ab48e6d3c24d5439f15fae2c46ab73cec319fd0a925e6f7c77f344fd",
      "blockNumber": "0x4e70fc",
      "gasUsed": "0xb556",
      "effectiveGasPrice": "0x8",
      "from": "0xe2bc073e0d55274dba18a0e11463a5dfd16c5057",
      "to": "0x1c0e607b05ca3409a3c3e38afa122d5f84e8d8ea",
      "contractAddress": null,
      "l1BaseFeeScalar": "0x558",
      "l1BlobBaseFee": "0xe09386b",
      "l1BlobBaseFeeScalar": "0xc5fc5",
      "l1Fee": "0x5e9bf8177",
      "l1GasPrice": "0xab8df8f3",
      "l1GasUsed": "0x640"
    }
  ],
  "libraries": [],
  "pending": [],
  "returns": {},
  "timestamp": 1740229494,
  "chain": 11155931,
  "commit": "35df5d8"
}