{
  "transactions": [
    {
      "hash": "0xa0d0e7a708de09b5a935b8d28b7b3e89f39e17b8309c4bdf8f80d3d9d69145fa",
      "transactionType": "CALL",
      "contractName": null,
      "contractAddress": "0x03f2633ce64153d879db256692326173bfa19223",
      "function": "setSigner(address,address,bool)",
      "arguments": [
        "0x37c15A5f7c7d8d4C707d44Ff7E3aD696ddA85d07",
        "0xe2Bc073E0d55274DBa18A0E11463A5DfD16c5057",
        "true"
      ],
      "transaction": {
        "from": "0xe2bc073e0d55274dba18a0e11463a5dfd16c5057",
        "to": "0x03f2633ce64153d879db256692326173bfa19223",
        "gas": "0x114f8",
        "value": "0x0",
        "input": "0xa1dc139d00000000000000000000000037c15a5f7c7d8d4c707d44ff7e3ad696dda85d07000000000000000000000000e2bc073e0d55274dba18a0e11463a5dfd16c50570000000000000000000000000000000000000000000000000000000000000001",
        "nonce": "0x37",
        "chainId": "0xaa39db"
      },
      "additionalContracts": [],
      "isFixedGasLimit": false
    },
    {
      "hash": "0x6a9030d5e5e83f57ca1683a0c5bddbcf4746046078360b782099aa1e81ac333d",
      "transactionType": "CALL",
      "contractName": null,
      "contractAddress": "0x03f2633ce64153d879db256692326173bfa19223",
      "function": "setSigner(address,address,bool)",
      "arguments": [
        "0xf73081AfEd3Fed09c92924Ac16fa0c09aF902E98",
        "0xe2Bc073E0d55274DBa18A0E11463A5DfD16c5057",
        "true"
      ],
      "transaction": {
        "from": "0xe2bc073e0d55274dba18a0e11463a5dfd16c5057",
        "to": "0x03f2633ce64153d879db256692326173bfa19223",
        "gas": "0x114f8",
        "value": "0x0",
        "input": "0xa1dc139d000000000000000000000000f73081afed3fed09c92924ac16fa0c09af902e98000000000000000000000000e2bc073e0d55274dba18a0e11463a5dfd16c50570000000000000000000000000000000000000000000000000000000000000001",
        "nonce": "0x38",
        "chainId": "0xaa39db"
      },
      "additionalContracts": [],
      "isFixedGasLimit": false
    },
    {
      "hash": "0x442ed40d5ace905448bbb5964e6d5e005643ce78340def008b2b0d2958243716",
      "transactionType": "CALL",
      "contractName": null,
      "contractAddress": "0x03f2633ce64153d879db256692326173bfa19223",
      "function": "setMinSigners(address,uint256)",
      "arguments": [
        "0x37c15A5f7c7d8d4C707d44Ff7E3aD696ddA85d07",
        "1"
      ],
      "transaction": {
        "from": "0xe2bc073e0d55274dba18a0e11463a5dfd16c5057",
        "to": "0x03f2633ce64153d879db256692326173bfa19223",
        "gas": "0x10043",
        "value": "0x0",
        "input": "0x717f4ada00000000000000000000000037c15a5f7c7d8d4c707d44ff7e3ad696dda85d070000000000000000000000000000000000000000000000000000000000000001",
        "nonce": "0x39",
        "chainId": "0xaa39db"
      },
      "additionalContracts": [],
      "isFixedGasLimit": false
    },
    {
      "hash": "0x91522df067f5c369ece50a38c52cc463a8815072a9a0c7391131ffaae3617a8e",
      "transactionType": "CALL",
      "contractName": null,
      "contractAddress": "0x03f2633ce64153d879db256692326173bfa19223",
      "function": "setMinSigners(address,uint256)",
      "arguments": [
        "0xf73081AfEd3Fed09c92924Ac16fa0c09aF902E98",
        "1"
      ],
      "transaction": {
        "from": "0xe2bc073e0d55274dba18a0e11463a5dfd16c5057",
        "to": "0x03f2633ce64153d879db256692326173bfa19223",
        "gas": "0x10043",
        "value": "0x0",
        "input": "0x717f4ada000000000000000000000000f73081afed3fed09c92924ac16fa0c09af902e980000000000000000000000000000000000000000000000000000000000000001",
        "nonce": "0x3a",
        "chainId": "0xaa39db"
      },
      "additionalContracts": [],
      "isFixedGasLimit": false
    },
    {
      "hash": "0x70c8cd7b697363d6d14b1258a36261b239b9b213f35ba9f4cb36d3e43dd2f931",
      "transactionType": "CALL",
      "contractName": null,
      "contractAddress": "0x03f2633ce64153d879db256692326173bfa19223",
      "function": "setMaxPriceAge(address,uint256)",
      "arguments": [
        "0x37c15A5f7c7d8d4C707d44Ff7E3aD696ddA85d07",
        "3600"
      ],
      "transaction": {
        "from": "0xe2bc073e0d55274dba18a0e11463a5dfd16c5057",
        "to": "0x03f2633ce64153d879db256692326173bfa19223",
        "gas": "0xfa77",
        "value": "0x0",
        "input": "0xddac7f1b00000000000000000000000037c15a5f7c7d8d4c707d44ff7e3ad696dda85d070000000000000000000000000000000000000000000000000000000000000e10",
        "nonce": "0x3b",
        "chainId": "0xaa39db"
      },
      "additionalContracts": [],
      "isFixedGasLimit": false
    },
    {
      "hash": "0xb70f9e0fefdaf14768a9bdc6812ad46a260a8c2d27da691f4b8f919817a6bb1c",
      "transactionType": "CALL",
      "contractName": null,
      "contractAddress": "0x03f2633ce64153d879db256692326173bfa19223",
      "function": "setMaxPriceAge(address,uint256)",
      "arguments": [
        "0xf73081AfEd3Fed09c92924Ac16fa0c09aF902E98",
        "3600"
      ],
      "transaction": {
        "from": "0xe2bc073e0d55274dba18a0e11463a5dfd16c5057",
        "to": "0x03f2633ce64153d879db256692326173bfa19223",
        "gas": "0xfa77",
        "value": "0x0",
        "input": "0xddac7f1b000000000000000000000000f73081afed3fed09c92924ac16fa0c09af902e980000000000000000000000000000000000000000000000000000000000000e10",
        "nonce": "0x3c",
        "chainId": "0xaa39db"
      },
      "additionalContracts": [],
      "isFixedGasLimit": false
    }
  ],
  "receipts": [
    {
      "status": "0x1",
      "cumulativeGasUsed": "0x168ec",
      "logs": [
        {
          "address": "0x03f2633ce64153d879db256692326173bfa19223",
          "topics": [
            "0x1364a7d9e8f00b65e45259e034365ab86eb13d9606c134014bbcc34454142fa2"
          ],
          "data": "0x00000000000000000000000037c15a5f7c7d8d4c707d44ff7e3ad696dda85d07000000000000000000000000e2bc073e0d55274dba18a0e11463a5dfd16c50570000000000000000000000000000000000000000000000000000000000000001",
          "blockHash": "0x58225514aba6e99ab1ad52ca3ef4abc4cc0ca28cfd74742a0985e5f522d80199",
          "blockNumber": "0x4e7052",
          "blockTimestamp": "0x67b9caca",
          "transactionHash": "0xa0d0e7a708de09b5a935b8d28b7b3e89f39e17b8309c4bdf8f80d3d9d69145fa",
          "transactionIndex": "0x1",
          "logIndex": "0x0",
          "removed": false
        }
      ],
      "logsBloom": "0x00000000000000000000000000020000000000000000000000000000000000001000000000000000000000000000000000000000000000000000000000000000000000000000000000000000000000000000000000000000000000000000000000000000000000000000000000000000000000000000000000000000004000000000000000000000000000000000000000000000000000000000000000000000000000000000000000000000000000000000000800000000000000000000000000000000800000000000000000000000000000000000000000000000000000000000000000000000000000000000200000000000000000000000000000000000",
      "type": "0x2",
      "transactionHash": "0xa0d0e7a708de09b5a935b8d28b7b3e89f39e17b8309c4bdf8f80d3d9d69145fa",
      "transactionIndex": "0x1",
      "blockHash": "0x58225514aba6e99ab1ad52ca3ef4abc4cc0ca28cfd74742a0985e5f522d80199",
      "blockNumber": "0x4e7052",
      "gasUsed": "0xbd62",
      "effectiveGasPrice": "0x8",
      "from": "0xe2bc073e0d55274dba18a0e11463a5dfd16c5057",
      "to": "0x03f2633ce64153d879db256692326173bfa19223",
      "contractAddress": null,
      "l1BaseFeeScalar": "0x558",
      "l1BlobBaseFee": "0xe99198e",
      "l1BlobBaseFeeScalar": "0xc5fc5",
      "l1Fee": "0x64c5d014f",
      "l1GasPrice": "0xc0715b5e",
      "l1GasUsed": "0x647"
    },
    {
      "status": "0x1",
      "cumulativeGasUsed": "0x2264e",
      "logs": [
        {
          "address": "0x03f2633ce64153d879db256692326173bfa19223",
          "topics": [
            "0x1364a7d9e8f00b65e45259e034365ab86eb13d9606c134014bbcc34454142fa2"
          ],
          "data": "0x000000000000000000000000f73081afed3fed09c92924ac16fa0c09af902e98000000000000000000000000e2bc073e0d55274dba18a0e11463a5dfd16c50570000000000000000000000000000000000000000000000000000000000000001",
          "blockHash": "0x58225514aba6e99ab1ad52ca3ef4abc4cc0ca28cfd74742a0985e5f522d80199",
          "blockNumber": "0x4e7052",
          "blockTimestamp": "0x67b9caca",
          "transactionHash": "0x6a9030d5e5e83f57ca1683a0c5bddbcf4746046078360b782099aa1e81ac333d",
          "transactionIndex": "0x2",
          "logIndex": "0x1",
          "removed": false
        }
      ],
      "logsBloom": "0x00000000000000000000000000020000000000000000000000000000000000001000000000000000000000000000000000000000000000000000000000000000000000000000000000000000000000000000000000000000000000000000000000000000000000000000000000000000000000000000000000000000004000000000000000000000000000000000000000000000000000000000000000000000000000000000000000000000000000000000000800000000000000000000000000000000800000000000000000000000000000000000000000000000000000000000000000000000000000000000200000000000000000000000000000000000",
      "type": "0x2",
      "transactionHash": "0x6a9030d5e5e83f57ca1683a0c5bddbcf4746046078360b782099aa1e81ac333d",
      "transactionIndex": "0x2",
      "blockHash": "0x58225514aba6e99ab1ad52ca3ef4abc4cc0ca28cfd74742a0985e5f522d80199",
      "blockNumber": "0x4e7052",
      "gasUsed": "0xbd62",
      "effectiveGasPrice": "0x8",
      "from": "0xe2bc073e0d55274dba18a0e11463a5dfd16c5057",
      "to": "0x03f2633ce64153d879db256692326173bfa19223",
      "contractAddress": null,
      "l1BaseFeeScalar": "0x558",
      "l1BlobBaseFee": "0xe99198e",
      "l1BlobBaseFeeScalar": "0xc5fc5",
      "l1Fee": "0x64c5d014f",
      "l1GasPrice": "0xc0715b5e",
      "l1GasUsed": "0x647"
    },
    {
      "status": "0x1",
      "cumulativeGasUsed": "0x2dfd6",
      "logs": [
        {
          "address": "0x03f2633ce64153d879db256692326173bfa19223",
          "topics": [
            "0x7e083367dc9afc5277987d3a84d49e116d9234335bdd7e469b63c11504476fa8"
          ],
          "data": "0x00000000000000000000000037c15a5f7c7d8d4c707d44ff7e3ad696dda85d070000000000000000000000000000000000000000000000000000000000000001",
          "blockHash": "0x58225514aba6e99ab1ad52ca3ef4abc4cc0ca28cfd74742a0985e5f522d80199",
          "blockNumber": "0x4e7052",
          "blockTimestamp": "0x67b9caca",
          "transactionHash": "0x442ed40d5ace905448bbb5964e6d5e005643ce78340def008b2b0d2958243716",
          "transactionIndex": "0x3",
          "logIndex": "0x2",
          "removed": false
        }
      ],
      "logsBloom": "0x00000000000000000000000000020000000000000000000000000000000000001000000000000000000000000000000000000000000000000000000000000000000000000000000000000000000000000000000000000000000000000000000000000000000000000000000000000000000000000000000000000000010000000000000000000000000000000000000000000000000000000000000000000000000000000000000000000002000000000000000800000000000000000000000000000000000000000000000000000000000000000000000000000000000000000000000000000000000000000000000000000000002000000000000000000000",
      "type": "0x2",
      "transactionHash": "0x442ed40d5ace905448bbb5964e6d5e005643ce78340def008b2b0d2958243716",
      "transactionIndex": "0x3",
      "blockHash": "0x58225514aba6e99ab1ad52ca3ef4abc4cc0ca28cfd74742a0985e5f522d80199",
      "blockNumber": "0x4e7052",
      "gasUsed": "0xb988",
      "effectiveGasPrice": "0x8",
      "from": "0xe2bc073e0d55274dba18a0e11463a5dfd16c5057",
      "to": "0x03f2633ce64153d879db256692326173bfa19223",
      "contractAddress": null,
      "l1BaseFeeScalar": "0x558",
      "l1BlobBaseFee": "0xe99198e",
      "l1BlobBaseFeeScalar": "0xc5fc5",
      "l1Fee": "0x6450bbfe7",
      "l1GasPrice": "0xc0715b5e",
      "l1GasUsed": "0x640"
    },
    {
      "status": "0x1",
      "cumulativeGasUsed": "0x3995e",
      "logs": [
        {
          "address": "0x03f2633ce64153d879db256692326173bfa19223",
          "topics": [
            "0x7e083367dc9afc5277987d3a84d49e116d9234335bdd7e469b63c11504476fa8"
          ],
          "data": "0x000000000000000000000000f73081afed3fed09c92924ac16fa0c09af902e980000000000000000000000000000000000000000000000000000000000000001",
          "blockHash": "0x58225514aba6e99ab1ad52ca3ef4abc4cc0ca28cfd74742a0985e5f522d80199",
          "blockNumber": "0x4e7052",
          "blockTimestamp": "0x67b9caca",
          "transactionHash": "0x91522df067f5c369ece50a38c52cc463a8815072a9a0c7391131ffaae3617a8e",
          "transactionIndex": "0x4",
          "logIndex": "0x3",
          "removed": false
        }
      ],
      "logsBloom": "0x00000000000000000000000000020000000000000000000000000000000000001000000000000000000000000000000000000000000000000000000000000000000000000000000000000000000000000000000000000000000000000000000000000000000000000000000000000000000000000000000000000000010000000000000000000000000000000000000000000000000000000000000000000000000000000000000000000002000000000000000800000000000000000000000000000000000000000000000000000000000000000000000000000000000000000000000000000000000000000000000000000000002000000000000000000000",
      "type": "0x2",
      "transactionHash": "0x91522df067f5c369ece50a38c52cc463a8815072a9a0c7391131ffaae3617a8e",
      "transactionIndex": "0x4",
      "blockHash": "0x58225514aba6e99ab1ad52ca3ef4abc4cc0ca28cfd74742a0985e5f522d80199",
      "blockNumber": "0x4e7052",
      "gasUsed": "0xb988",
      "effectiveGasPrice": "0x8",
      "from": "0xe2bc073e0d55274dba18a0e11463a5dfd16c5057",
      "to": "0x03f2633ce64153d879db256692326173bfa19223",
      "contractAddress": null,
      "l1BaseFeeScalar": "0x558",
      "l1BlobBaseFee": "0xe99198e",
      "l1BlobBaseFeeScalar": "0xc5fc5",
      "l1Fee": "0x6450bbfe7",
      "l1GasPrice": "0xc0715b5e",
      "l1GasUsed": "0x640"
    },
    {
      "status": "0x1",
      "cumulativeGasUsed": "0x44eb4",
      "logs": [],
      "logsBloom": "0x00000000000000000000000000000000000000000000000000000000000000000000000000000000000000000000000000000000000000000000000000000000000000000000000000000000000000000000000000000000000000000000000000000000000000000000000000000000000000000000000000000000000000000000000000000000000000000000000000000000000000000000000000000000000000000000000000000000000000000000000000000000000000000000000000000000000000000000000000000000000000000000000000000000000000000000000000000000000000000000000000000000000000000000000000000000",
      "type": "0x2",
      "transactionHash": "0x70c8cd7b697363d6d14b1258a36261b239b9b213f35ba9f4cb36d3e43dd2f931",
      "transactionIndex": "0x5",
      "blockHash": "0x58225514aba6e99ab1ad52ca3ef4abc4cc0ca28cfd74742a0985e5f522d80199",
      "blockNumber": "0x4e7052",
      "gasUsed": "0xb556",
      "effectiveGasPrice": "0x8",
      "from": "0xe2bc073e0d55274dba18a0e11463a5dfd16c5057",
      "to": "0x03f2633ce64153d879db256692326173bfa19223",
      "contractAddress": null,
      "l1BaseFeeScalar": "0x558",
      "l1BlobBaseFee": "0xe99198e",
      "l1BlobBaseFeeScalar": "0xc5fc5",
      "l1Fee": "0x6450bbfe7",
      "l1GasPrice": "0xc0715b5e",
      "l1GasUsed": "0x640"
    },
    {
      "status": "0x1",
      "cumulativeGasUsed": "0x5040a",
      "logs": [],
      "logsBloom": "0x00000000000000000000000000000000000000000000000000000000000000000000000000000000000000000000000000000000000000000000000000000000000000000000000000000000000000000000000000000000000000000000000000000000000000000000000000000000000000000000000000000000000000000000000000000000000000000000000000000000000000000000000000000000000000000000000000000000000000000000000000000000000000000000000000000000000000000000000000000000000000000000000000000000000000000000000000000000000000000000000000000000000000000000000000000000",
      "type": "0x2",
      "transactionHash": "0xb70f9e0fefdaf14768a9bdc6812ad46a260a8c2d27da691f4b8f919817a6bb1c",
      "transactionIndex": "0x6",
      "blockHash": "0x58225514aba6e99ab1ad52ca3ef4abc4cc0ca28cfd74742a0985e5f522d80199",
      "blockNumber": "0x4e7052",
      "gasUsed": "0xb556",
      "effectiveGasPrice": "0x8",
      "from": "0xe2bc073e0d55274dba18a0e11463a5dfd16c5057",
      "to": "0x03f2633ce64153d879db256692326173bfa19223",
      "contractAddress": null,
      "l1BaseFeeScalar": "0x558",
      "l1BlobBaseFee": "0xe99198e",
      "l1BlobBaseFeeScalar": "0xc5fc5",
      "l1Fee": "0x6450bbfe7",
      "l1GasPrice": "0xc0715b5e",
      "l1GasUsed": "0x640"
    }
  ],
  "libraries": [],
  "pending": [],
  "returns": {},
  "timestamp": 1740229322,
  "chain": 11155931,
  "commit": "35df5d8"
}